{
  "data": {
    "bytecode": {
      "linkReferences": {},
      "object": "608060405234801561001057600080fd5b506135e8806100206000396000f3fe6080604052600436106103905760003560e01c80638683ed5b116101dc578063c1a3d44c11610102578063e8edd3e8116100a0578063f301af421161006f578063f301af4214610a0f578063fb61778714610a2f578063fbfa77cf14610a44578063feb56b1514610a6457600080fd5b8063e8edd3e8146109a4578063e941fa78146109c4578063f1a392da146109d9578063f2fde38b146109ef57600080fd5b8063d0e30db0116100dc578063d0e30db01461095a578063d92f3d731461096f578063dfbdc4371461098f578063e7a7250a146106cc57600080fd5b8063c1a3d44c14610905578063c553173f1461091a578063c7b9d5301461093a57600080fd5b8063a7e9ca821161017a578063ad29f5da11610149578063ad29f5da14610899578063b20feaaf146108ae578063bbb19a58146108d0578063bbb356d5146108f057600080fd5b8063a7e9ca8214610819578063a9e56f3c14610839578063ac1e502514610859578063aced16611461087957600080fd5b80638da5cb5b116101b65780638da5cb5b146107ae57806397fd323d146106cc5780639c5e52d5146107cc5780639c9b2e21146107f957600080fd5b80638683ed5b1461075f5780638912cb8b1461077f5780638cfc02501461079957600080fd5b806344b81396116102c15780635c975abb1161025f578063715018a61161022e578063715018a614610700578063722713f714610715578063748747e61461072a5780638456cb591461074a57600080fd5b80635c975abb146106885780635fcbd285146106ac57806367a52793146106cc5780636817031b146106e057600080fd5b80634eb665af1161029b5780634eb665af1461062757806354518b1a14610647578063568914121461065d578063573fef0a1461067357600080fd5b806344b81396146105e85780634641257d146105fd5780634700d3051461061257600080fd5b80631fc8bc5d1161032e5780632cebdeb2116103085780632cebdeb2146105735780632e1a7d4d146105935780633e55f932146105b35780633f4ba83a146105d357600080fd5b80631fc8bc5d1461050e5780631fe4a68614610533578063257ae0de1461055357600080fd5b8063115880861161036a57806311588086146104815780631aacb838146104965780631d06ce66146104b65780631f1fcd51146104d657600080fd5b80630455444314610418578063066e4a19146104415780630e8fbb5a1461046157600080fd5b366104135760a1546001600160a01b031633146104115760a160009054906101000a90046001600160a01b03166001600160a01b031663d0e30db0476040518263ffffffff1660e01b81526004016000604051808303818588803b1580156103f757600080fd5b505af115801561040b573d6000803e3d6000fd5b50505050505b005b600080fd5b34801561042457600080fd5b5061042e60a65481565b6040519081526020015b60405180910390f35b34801561044d57600080fd5b5061041161045c366004612f25565b610a7a565b34801561046d57600080fd5b5061041161047c366004612f50565b610ad7565b34801561048d57600080fd5b5061042e610b0b565b3480156104a257600080fd5b506104116104b1366004612f85565b610b90565b3480156104c257600080fd5b506104116104d1366004612f25565b610f9c565b3480156104e257600080fd5b5060a0546104f6906001600160a01b031681565b6040516001600160a01b039091168152602001610438565b34801561051a57600080fd5b5060a7546104f69061010090046001600160a01b031681565b34801561053f57600080fd5b50609a546104f6906001600160a01b031681565b34801561055f57600080fd5b506098546104f6906001600160a01b031681565b34801561057f57600080fd5b5060a1546104f6906001600160a01b031681565b34801561059f57600080fd5b506104116105ae366004613044565b610ff2565b3480156105bf57600080fd5b506104116105ce366004613044565b6111fd565b3480156105df57600080fd5b50610411611294565b3480156105f457600080fd5b5061042e6112b6565b34801561060957600080fd5b5061041161131e565b34801561061e57600080fd5b50610411611326565b34801561063357600080fd5b50610411610642366004613044565b61147c565b34801561065357600080fd5b5061042e61271081565b34801561066957600080fd5b5061042e60a55481565b34801561067f57600080fd5b50610411611489565b34801561069457600080fd5b5060655460ff165b6040519015158152602001610438565b3480156106b857600080fd5b5060a2546104f6906001600160a01b031681565b3480156106d857600080fd5b50600061042e565b3480156106ec57600080fd5b506104116106fb366004612f25565b6114be565b34801561070c57600080fd5b50610411611514565b34801561072157600080fd5b5061042e611526565b34801561073657600080fd5b50610411610745366004612f25565b611554565b34801561075657600080fd5b506104116115aa565b34801561076b57600080fd5b50609b546104f6906001600160a01b031681565b34801561078b57600080fd5b5060a75461069c9060ff1681565b3480156107a557600080fd5b5061042e6115c2565b3480156107ba57600080fd5b506033546001600160a01b03166104f6565b3480156107d857600080fd5b5061042e6107e7366004612f25565b609f6020526000908152604090205481565b34801561080557600080fd5b50610411610814366004612f25565b6115f3565b34801561082557600080fd5b5061041161083436600461305d565b61174f565b34801561084557600080fd5b5060a8546104f6906001600160a01b031681565b34801561086557600080fd5b50610411610874366004613044565b611773565b34801561088557600080fd5b506099546104f6906001600160a01b031681565b3480156108a557600080fd5b506104116117ea565b3480156108ba57600080fd5b506108c3611854565b60405161043891906130d9565b3480156108dc57600080fd5b506104116108eb366004612f25565b61188a565b3480156108fc57600080fd5b50609e5461042e565b34801561091157600080fd5b5061042e6119a6565b34801561092657600080fd5b50610411610935366004613044565b6119d7565b34801561094657600080fd5b50610411610955366004612f25565b611a8f565b34801561096657600080fd5b50610411611b25565b34801561097b57600080fd5b5061041161098a366004612f25565b611c71565b34801561099b57600080fd5b5061042e603281565b3480156109b057600080fd5b50609c546104f6906001600160a01b031681565b3480156109d057600080fd5b5061042e611c79565b3480156109e557600080fd5b5061042e60a45481565b3480156109fb57600080fd5b50610411610a0a366004612f25565b611c98565b348015610a1b57600080fd5b506104f6610a2a366004613044565b611d0e565b348015610a3b57600080fd5b50610411611d38565b348015610a5057600080fd5b506097546104f6906001600160a01b031681565b348015610a7057600080fd5b5061042e60a95481565b610a82611f39565b609c80546001600160a01b0319166001600160a01b0383169081179091556040519081527fc6ae9db6ad0e87aaa4f7020ee56278bcc057e08519cf08ce5ecc3b25aa588d4f906020015b60405180910390a150565b610adf611f93565b60a7805460ff191682151590811790915560ff1615610b0057600060a65550565b6201518060a6555b50565b60a75460a254604051633de222bb60e21b81526001600160a01b03918216600482015230602482015260009261010090049091169063f7888aec906044015b602060405180830381865afa158015610b67573d6000803e3d6000fd5b505050506040513d601f19601f82011682018060405250810190610b8b9190613140565b905090565b600054610100900460ff1615808015610bb05750600054600160ff909116105b80610bca5750303b158015610bca575060005460ff166001145b610c325760405162461bcd60e51b815260206004820152602e60248201527f496e697469616c697a61626c653a20636f6e747261637420697320616c72656160448201526d191e481a5b9a5d1a585b1a5e995960921b60648201526084015b60405180910390fd5b6000805460ff191660011790558015610c55576000805461ff0019166101001790555b610c5e82611fed565b60a780546001600160a01b03808a1661010002610100600160a81b03199092169190911790915560a880549188166001600160a01b03199092168217905560408051637e062a3560e11b8152905163fc0c546a916004808201926020929091908290030181865afa158015610cd7573d6000803e3d6000fd5b505050506040513d601f19601f82011682018060405250810190610cfb9190613159565b60a080546001600160a01b0319166001600160a01b0392831617905560a85460408051635fcbd28560e01b815290519190921691635fcbd2859160048083019260209291908290030181865afa158015610d59573d6000803e3d6000fd5b505050506040513d601f19601f82011682018060405250810190610d7d9190613159565b60a280546001600160a01b039283166001600160a01b0319918216811790925560a380546001810182556000919091527f60859188cffe297f44dde29f2d2865634621f26215049caeb304ccba566a8b17018054909116909117905560a85460408051630857749b60e41b81529051919092169163857749b09160048083019260209291908290030181865afa158015610e1b573d6000803e3d6000fd5b505050506040513d601f19601f82011682018060405250810190610e3f9190613176565b60ff1660a060009054906101000a90046001600160a01b03166001600160a01b031663313ce5676040518163ffffffff1660e01b8152600401602060405180830381865afa158015610e95573d6000803e3d6000fd5b505050506040513d601f19601f82011682018060405250810190610eb99190613140565b610ec391906131af565b610ece90600a6132ac565b60a95560a180546001600160a01b0319166001600160a01b0387161790556201518060a65560005b83811015610f3a57610f28858583818110610f1357610f136132b8565b90506020020160208101906108149190612f25565b80610f32816132ce565b915050610ef6565b50610f456000611773565b610f4d612149565b8015610f93576000805461ff0019169055604051600181527f7f26b83ff96e1f2b6a682f133852f6798a09c465da95921460cefb38474024989060200160405180910390a15b50505050505050565b610fa4611f39565b609b80546001600160a01b0319166001600160a01b0383169081179091556040519081527f3129a3b1a01b54525e947a4b2e7b5a30606b2d68562be910b844f842eeb3cf5a90602001610acc565b6097546001600160a01b0316331461101c5760405162461bcd60e51b8152600401610c29906132e7565b60006110266119a6565b9050818110156111475760a9546000908061104184866131af565b61104b9190613307565b6110559190613329565b60a75460a25460405163f3fef3a360e01b81526001600160a01b03918216600482015260248101849052929350610100909104169063f3fef3a390604401600060405180830381600087803b1580156110ad57600080fd5b505af11580156110c1573d6000803e3d6000fd5b505060a854604051633def417960e11b8152600481018590523060248201526001600160a01b039091169250637bde82f291506044016020604051808303816000875af1158015611116573d6000803e3d6000fd5b505050506040513d601f19601f8201168201806040525081019061113a9190613140565b506111436119a6565b9150505b818111156111525750805b6033546001600160a01b03163214801590611170575060655460ff16155b156111a2576000612710609d54836111889190613329565b6111929190613307565b905061119e81836131af565b9150505b60975460a0546111bf916001600160a01b03918216911683612238565b7f5b6b431d4476a211bb7d41c20d1aab9ae2321deee0d20be3d9fc9b1093fa6e3d6111e8611526565b60405190815260200160405180910390a15050565b611205611f93565b609c54604051631f2afc9960e11b8152600481018390526001600160a01b0390911690633e55f93290602401600060405180830381600087803b15801561124b57600080fd5b505af115801561125f573d6000803e3d6000fd5b505050507f9163810ee1e29168d4ce900e48a333fb8fbd3fd070d2bef67f6d4db0846a469f81604051610acc91815260200190565b61129c611f93565b6112a46122a0565b6112ac612149565b6112b4611b25565b565b600060a6546000036112c85750600090565b600060a454426112d891906131af565b9050600060a65482106112ec5760006112fa565b8160a6546112fa91906131af565b905060a6548160a55461130d9190613329565b6113179190613307565b9250505090565b6112b46122f2565b61132e611f93565b6113366115aa565b60a75460a254604051631bfc726f60e21b81526001600160a01b0391821660048201526101009092041690636ff1c9bc90602401600060405180830381600087803b15801561138457600080fd5b505af1158015611398573d6000803e3d6000fd5b505060a85460a2546040516370a0823160e01b81523060048201526001600160a01b039283169450637bde82f293509116906370a0823190602401602060405180830381865afa1580156113f0573d6000803e3d6000fd5b505050506040513d601f19601f820116820180604052508101906114149190613140565b6040516001600160e01b031960e084901b16815260048101919091523060248201526044016020604051808303816000875af1158015611458573d6000803e3d6000fd5b505050506040513d601f19601f82011682018060405250810190610b089190613140565b611484611f93565b60a655565b60a75460ff16156112b4576097546001600160a01b0316331461131e5760405162461bcd60e51b8152600401610c29906132e7565b6114c6611f39565b609780546001600160a01b0319166001600160a01b0383169081179091556040519081527fd459c7242e23d490831b5676a611c4342d899d28f342d89ae80793e56a930f3090602001610acc565b61151c611f39565b6112b4600061248e565b60006115306112b6565b611538610b0b565b6115406119a6565b61154a9190613340565b610b8b91906131af565b61155c611f93565b609980546001600160a01b0319166001600160a01b0383169081179091556040519081527fefb5cfa1a8690c124332ab93324539c5c9c4be03f28aeb8be86f2d8a0c9fb99b90602001610acc565b6115b2611f93565b6115ba6124e0565b6112b461251d565b609c54604051636788231160e11b81523060048201526000916001600160a01b03169063cf10462290602401610b4a565b6115fb611f93565b60a0546001600160a01b03908116908216036116415760405162461bcd60e51b8152602060048201526005602482015264085dd85b9d60da1b6044820152606401610c29565b60a1546001600160a01b039081169082160361168a5760405162461bcd60e51b815260206004820152600860248201526721776e617469766560c01b6044820152606401610c29565b60a2546001600160a01b03908116908216036116d35760405162461bcd60e51b815260206004820152600860248201526710b6382a37b5b2b760c11b6044820152606401610c29565b609e805460018101825560009182527fcfe2a20ff701a1f3e14f63bd70d6c6bc6fba8172ec6d5a505cdab3927c0a9de60180546001600160a01b0319166001600160a01b038481169190911790915560985461173592849291909116906125c4565b609854610b089082906001600160a01b03166000196125c4565b611757611f93565b6001600160a01b039091166000908152609f6020526040902055565b61177b611f93565b60328111156117b55760405162461bcd60e51b8152600401610c29906020808252600490820152630216361760e41b604082015260600190565b609d8190556040518181527f3aa4413905e8f015896ec5880bdde24088ccb19b578f9fcf6800354d5320d4af90602001610acc565b6117f2611f93565b60005b609e5481101561184757611837609e8281548110611815576118156132b8565b60009182526020822001546098546001600160a01b03918216929116906125c4565b611840816132ce565b90506117f5565b506112b4609e6000612e8d565b61185c612eab565b604051806060016040528061186f6125d8565b815260200160008152602001611883611c79565b9052919050565b611892611f39565b60005b609e54811015611908576000609e82815481106118b4576118b46132b8565b60009182526020822001546098546001600160a01b0391821693506118de928492909116906125c4565b6118ea818460006125c4565b6118f781846000196125c4565b50611901816132ce565b9050611895565b5060a154609854611927916001600160a01b03908116911660006125c4565b60a15461193f906001600160a01b03168260006125c4565b60a154611958906001600160a01b0316826000196125c4565b609880546001600160a01b0319166001600160a01b0383169081179091556040519081527f5ca6e64c4522e68e154aa9372f2c5969cd37d9640e59f66953dc472f54ee86fa90602001610acc565b60a0546040516370a0823160e01b81523060048201526000916001600160a01b0316906370a0823190602401610b4a565b6119df611f93565b609e80546119ef906001906131af565b815481106119ff576119ff6132b8565b600091825260209091200154609e80546001600160a01b039092169183908110611a2b57611a2b6132b8565b9060005260206000200160006101000a8154816001600160a01b0302191690836001600160a01b03160217905550609e805480611a6a57611a6a613353565b600082815260209020810160001990810180546001600160a01b031916905501905550565b609a546001600160a01b03163314611ad75760405162461bcd60e51b815260206004820152600b60248201526a085cdd1c985d1959da5cdd60aa1b6044820152606401610c29565b609a80546001600160a01b0319166001600160a01b0383169081179091556040519081527f46d58e3fa07bf19b1d27240f0e286b27e9f7c1b0d88933333fe833b60eec541290602001610acc565b611b2d612675565b6000611b376119a6565b90508015610b085760a954600090611b4f8184613307565b611b599190613329565b90508015611c6d5760a8546040516311f9fbc960e21b8152306004820152602481018390526001600160a01b03909116906347e7ef24906044016020604051808303816000875af1158015611bb2573d6000803e3d6000fd5b505050506040513d601f19601f82011682018060405250810190611bd69190613140565b5060a75460a2546040516311f9fbc960e21b81526001600160a01b0391821660048201526024810184905261010090920416906347e7ef2490604401600060405180830381600087803b158015611c2c57600080fd5b505af1158015611c40573d6000803e3d6000fd5b505050507f4d6ce1e535dbade1c23defba91e23b8f791ce5edc0cc320257a2b364e4e384266111e8611526565b5050565b611958611f39565b6000611c8760655460ff1690565b611c925750609d5490565b50600090565b611ca0611f39565b6001600160a01b038116611d055760405162461bcd60e51b815260206004820152602660248201527f4f776e61626c653a206e6577206f776e657220697320746865207a65726f206160448201526564647265737360d01b6064820152608401610c29565b610b088161248e565b609e8181548110611d1e57600080fd5b6000918252602090912001546001600160a01b0316905081565b6097546001600160a01b03163314611d625760405162461bcd60e51b8152600401610c29906132e7565b60a75460a254604051631bfc726f60e21b81526001600160a01b0391821660048201526101009092041690636ff1c9bc90602401600060405180830381600087803b158015611db057600080fd5b505af1158015611dc4573d6000803e3d6000fd5b505060a85460a2546040516370a0823160e01b81523060048201526001600160a01b039283169450637bde82f293509116906370a0823190602401602060405180830381865afa158015611e1c573d6000803e3d6000fd5b505050506040513d601f19601f82011682018060405250810190611e409190613140565b6040516001600160e01b031960e084901b16815260048101919091523060248201526044016020604051808303816000875af1158015611e84573d6000803e3d6000fd5b505050506040513d601f19601f82011682018060405250810190611ea89190613140565b5060a0546097546001600160a01b039182169163a9059cbb9116611eca6119a6565b6040516001600160e01b031960e085901b1681526001600160a01b03909216600483015260248201526044016020604051808303816000875af1158015611f15573d6000803e3d6000fd5b505050506040513d601f19601f82011682018060405250810190610b089190613379565b6033546001600160a01b031633146112b45760405162461bcd60e51b815260206004820181905260248201527f4f776e61626c653a2063616c6c6572206973206e6f7420746865206f776e65726044820152606401610c29565b6033546001600160a01b0316331480611fb657506099546001600160a01b031633145b6112b45760405162461bcd60e51b815260206004820152600860248201526710b6b0b730b3b2b960c11b6044820152606401610c29565b600054610100900460ff166120145760405162461bcd60e51b8152600401610c2990613396565b61201c6126bb565b6120246126ea565b6120316020820182612f25565b609780546001600160a01b0319166001600160a01b03929092169190911790556120616040820160208301612f25565b609880546001600160a01b0319166001600160a01b03929092169190911790556120916060820160408301612f25565b609980546001600160a01b0319166001600160a01b03929092169190911790556120c16080820160608301612f25565b609a80546001600160a01b0319166001600160a01b03929092169190911790556120f160a0820160808301612f25565b609b80546001600160a01b0319166001600160a01b039290921691909117905561212160c0820160a08301612f25565b609c80546001600160a01b0319166001600160a01b039290921691909117905550600a609d55565b60a85460a054612168916001600160a01b039182169116600019612719565b60a75460a25461218d916001600160a01b039182169161010090910416600019612719565b60985460a1546121ac916001600160a01b039182169116600019612719565b60005b609e54811015610b0857609854609e80546121fd926001600160a01b031691600091859081106121e1576121e16132b8565b6000918252602090912001546001600160a01b03169190612719565b609854609e8054612226926001600160a01b03169160001991859081106121e1576121e16132b8565b80612230816132ce565b9150506121af565b6040516001600160a01b03831660248201526044810182905261229b90849063a9059cbb60e01b906064015b60408051601f198184030181529190526020810180516001600160e01b03166001600160e01b03199093169290921790915261282e565b505050565b6122a8612900565b6065805460ff191690557f5db9ee0a495bf2e6ff9c91a7834c1ba4fdd244a5e8aa4e537bd38aeae4b073aa335b6040516001600160a01b03909116815260200160405180910390a1565b6122fa612675565b60006123046119a6565b60a75460405163318d9e5d60e01b815291925061010090046001600160a01b03169063318d9e5d9061233b9060a3906004016133e1565b600060405180830381600087803b15801561235557600080fd5b505af1158015612369573d6000803e3d6000fd5b50505050612375612949565b60a1546040516370a0823160e01b81523060048201526000916001600160a01b0316906370a0823190602401602060405180830381865afa1580156123be573d6000803e3d6000fd5b505050506040513d601f19601f820116820180604052508101906123e29190613140565b90508015611c6d576123f2612a9b565b60a15460a05461240e916001600160a01b039081169116612bb5565b6000826124196119a6565b61242391906131af565b905061242d6112b6565b6124379082613340565b60a5554260a455612446611b25565b337f9bc239f1724cacfb88cb1d66a2dc437467699b68a8c90d7b63110cf4b6f9241082612471611526565b6040805192835260208301919091520160405180910390a2505050565b603380546001600160a01b038381166001600160a01b0319831681179093556040519116919082907f8be0079c531659141344cd1fd0a4f28419497f9722a3daafe3b4186f6b6457e090600090a35050565b6124e8612675565b6065805460ff191660011790557f62e78cea01bee320cd4e420270b5ea74000d11b0c9f74754ebdbfc544b05a2586122d53390565b60a85460a05461253b916001600160a01b0391821691166000612719565b60a75460a25461255f916001600160a01b0391821691610100909104166000612719565b60985460a15461257d916001600160a01b0391821691166000612719565b60005b609e54811015610b0857609854609e80546125b2926001600160a01b031691600091859081106121e1576121e16132b8565b806125bc816132ce565b915050612580565b61229b6001600160a01b0384168383612719565b61260560405180608001604052806000815260200160008152602001606081526020016000151581525090565b609c54604051639af608c960e01b81523060048201526001600160a01b0390911690639af608c990602401600060405180830381865afa15801561264d573d6000803e3d6000fd5b505050506040513d6000823e601f3d908101601f19168201604052610b8b91908101906134a1565b60655460ff16156112b45760405162461bcd60e51b815260206004820152601060248201526f14185d5cd8589b194e881c185d5cd95960821b6044820152606401610c29565b600054610100900460ff166126e25760405162461bcd60e51b8152600401610c2990613396565b6112b4612ca7565b600054610100900460ff166127115760405162461bcd60e51b8152600401610c2990613396565b6112b4612cd7565b8015806127935750604051636eb1769f60e11b81523060048201526001600160a01b03838116602483015284169063dd62ed3e90604401602060405180830381865afa15801561276d573d6000803e3d6000fd5b505050506040513d601f19601f820116820180604052508101906127919190613140565b155b6127fe5760405162461bcd60e51b815260206004820152603660248201527f5361666545524332303a20617070726f76652066726f6d206e6f6e2d7a65726f60448201527520746f206e6f6e2d7a65726f20616c6c6f77616e636560501b6064820152608401610c29565b6040516001600160a01b03831660248201526044810182905261229b90849063095ea7b360e01b90606401612264565b6000612883826040518060400160405280602081526020017f5361666545524332303a206c6f772d6c6576656c2063616c6c206661696c6564815250856001600160a01b0316612d0a9092919063ffffffff16565b80519091501561229b57808060200190518101906128a19190613379565b61229b5760405162461bcd60e51b815260206004820152602a60248201527f5361666545524332303a204552433230206f7065726174696f6e20646964206e6044820152691bdd081cdd58d8d9595960b21b6064820152608401610c29565b60655460ff166112b45760405162461bcd60e51b815260206004820152601460248201527314185d5cd8589b194e881b9bdd081c185d5cd95960621b6044820152606401610c29565b60005b609e54811015610b08576000609e828154811061296b5761296b6132b8565b60009182526020822001546040516370a0823160e01b81523060048201526001600160a01b03909116925082906370a0823190602401602060405180830381865afa1580156129be573d6000803e3d6000fd5b505050506040513d601f19601f820116820180604052508101906129e29190613140565b6001600160a01b0383166000908152609f6020526040902054909150811115612a885760985460a154604051630df791e560e41b81526001600160a01b03858116600483015291821660248201526044810184905291169063df791e50906064016020604051808303816000875af1158015612a62573d6000803e3d6000fd5b505050506040513d601f19601f82011682018060405250810190612a869190613140565b505b505080612a94906132ce565b905061294c565b6000612aa56125d8565b805160a1546040516370a0823160e01b8152306004820152929350600092670de0b6b3a764000092916001600160a01b0316906370a0823190602401602060405180830381865afa158015612afe573d6000803e3d6000fd5b505050506040513d601f19601f82011682018060405250810190612b229190613140565b612b2c9190613329565b612b369190613307565b90506000670de0b6b3a7640000836020015183612b539190613329565b612b5d9190613307565b609b5460a154919250612b7d916001600160a01b03908116911683612238565b6040518181527fed7213cd9fc239cb29c12591c13ac4d331a3c9bc3078df030f89266f66aa3f6d9060200160405180910390a1505050565b6040516370a0823160e01b81523060048201526000906001600160a01b038416906370a0823190602401602060405180830381865afa158015612bfc573d6000803e3d6000fd5b505050506040513d601f19601f82011682018060405250810190612c209190613140565b609854604051630df791e560e41b81526001600160a01b03868116600483015285811660248301526044820184905292935091169063df791e50906064016020604051808303816000875af1158015612c7d573d6000803e3d6000fd5b505050506040513d601f19601f82011682018060405250810190612ca19190613140565b50505050565b600054610100900460ff16612cce5760405162461bcd60e51b8152600401610c2990613396565b6112b43361248e565b600054610100900460ff16612cfe5760405162461bcd60e51b8152600401610c2990613396565b6065805460ff19169055565b6060612d198484600085612d23565b90505b9392505050565b606082471015612d845760405162461bcd60e51b815260206004820152602660248201527f416464726573733a20696e73756666696369656e742062616c616e636520666f6044820152651c8818d85b1b60d21b6064820152608401610c29565b6001600160a01b0385163b612ddb5760405162461bcd60e51b815260206004820152601d60248201527f416464726573733a2063616c6c20746f206e6f6e2d636f6e74726163740000006044820152606401610c29565b600080866001600160a01b03168587604051612df79190613583565b60006040518083038185875af1925050503d8060008114612e34576040519150601f19603f3d011682016040523d82523d6000602084013e612e39565b606091505b5091509150612e49828286612e54565b979650505050505050565b60608315612e63575081612d1c565b825115612e735782518084602001fd5b8160405162461bcd60e51b8152600401610c29919061359f565b5080546000825590600052602060002090810190610b089190612ef7565b6040518060600160405280612ee360405180608001604052806000815260200160008152602001606081526020016000151581525090565b815260200160008152602001600081525090565b5b80821115612f0c5760008155600101612ef8565b5090565b6001600160a01b0381168114610b0857600080fd5b600060208284031215612f3757600080fd5b8135612d1c81612f10565b8015158114610b0857600080fd5b600060208284031215612f6257600080fd5b8135612d1c81612f42565b600060c08284031215612f7f57600080fd5b50919050565b6000806000806000806101408789031215612f9f57600080fd5b8635612faa81612f10565b95506020870135612fba81612f10565b94506040870135612fca81612f10565b9350606087013567ffffffffffffffff80821115612fe757600080fd5b818901915089601f830112612ffb57600080fd5b81358181111561300a57600080fd5b8a60208260051b850101111561301f57600080fd5b6020830195508094505050506130388860808901612f6d565b90509295509295509295565b60006020828403121561305657600080fd5b5035919050565b6000806040838503121561307057600080fd5b823561307b81612f10565b946020939093013593505050565b60005b838110156130a457818101518382015260200161308c565b50506000910152565b600081518084526130c5816020860160208601613089565b601f01601f19169290920160200192915050565b60208152600082516060602084015280516080840152602081015160a08401526040810151608060c08501526131136101008501826130ad565b90506060820151151560e08501526020850151604085015260408501516060850152809250505092915050565b60006020828403121561315257600080fd5b5051919050565b60006020828403121561316b57600080fd5b8151612d1c81612f10565b60006020828403121561318857600080fd5b815160ff81168114612d1c57600080fd5b634e487b7160e01b600052601160045260246000fd5b818103818111156131c2576131c2613199565b92915050565b600181815b808511156132035781600019048211156131e9576131e9613199565b808516156131f657918102915b93841c93908002906131cd565b509250929050565b60008261321a575060016131c2565b81613227575060006131c2565b816001811461323d576002811461324757613263565b60019150506131c2565b60ff84111561325857613258613199565b50506001821b6131c2565b5060208310610133831016604e8410600b8410161715613286575081810a6131c2565b61329083836131c8565b80600019048211156132a4576132a4613199565b029392505050565b6000612d1c838361320b565b634e487b7160e01b600052603260045260246000fd5b6000600182016132e0576132e0613199565b5060010190565b602080825260069082015265085d985d5b1d60d21b604082015260600190565b60008261332457634e487b7160e01b600052601260045260246000fd5b500490565b80820281158282048414176131c2576131c2613199565b808201808211156131c2576131c2613199565b634e487b7160e01b600052603160045260246000fd5b805161337481612f42565b919050565b60006020828403121561338b57600080fd5b8151612d1c81612f42565b6020808252602b908201527f496e697469616c697a61626c653a20636f6e7472616374206973206e6f74206960408201526a6e697469616c697a696e6760a81b606082015260800190565b6020808252825482820181905260008481528281209092916040850190845b818110156134255783546001600160a01b031683526001938401939285019201613400565b50909695505050505050565b634e487b7160e01b600052604160045260246000fd5b6040516080810167ffffffffffffffff8111828210171561346a5761346a613431565b60405290565b604051601f8201601f1916810167ffffffffffffffff8111828210171561349957613499613431565b604052919050565b600060208083850312156134b457600080fd5b825167ffffffffffffffff808211156134cc57600080fd5b90840190608082870312156134e057600080fd5b6134e8613447565b82518152838301518482015260408301518281111561350657600080fd5b8301601f8101881361351757600080fd5b80518381111561352957613529613431565b61353b601f8201601f19168701613470565b9350808452888682840101111561355157600080fd5b61356081878601888501613089565b505081604082015261357460608401613369565b60608201529695505050505050565b60008251613595818460208701613089565b9190910192915050565b602081526000612d1c60208301846130ad56fea26469706673582212209eab4dac9f92de57370874c307f32a15da6ac37b46e6361b5e389d804e86e23764736f6c63430008130033",
      "opcodes": "PUSH1 0x80 PUSH1 0x40 MSTORE CALLVALUE DUP1 ISZERO PUSH2 0x10 JUMPI PUSH1 0x0 DUP1 REVERT JUMPDEST POP PUSH2 0x35E8 DUP1 PUSH2 0x20 PUSH1 0x0 CODECOPY PUSH1 0x0 RETURN INVALID PUSH1 0x80 PUSH1 0x40 MSTORE PUSH1 0x4 CALLDATASIZE LT PUSH2 0x390 JUMPI PUSH1 0x0 CALLDATALOAD PUSH1 0xE0 SHR DUP1 PUSH4 0x8683ED5B GT PUSH2 0x1DC JUMPI DUP1 PUSH4 0xC1A3D44C GT PUSH2 0x102 JUMPI DUP1 PUSH4 0xE8EDD3E8 GT PUSH2 0xA0 JUMPI DUP1 PUSH4 0xF301AF42 GT PUSH2 0x6F JUMPI DUP1 PUSH4 0xF301AF42 EQ PUSH2 0xA0F JUMPI DUP1 PUSH4 0xFB617787 EQ PUSH2 0xA2F JUMPI DUP1 PUSH4 0xFBFA77CF EQ PUSH2 0xA44 JUMPI DUP1 PUSH4 0xFEB56B15 EQ PUSH2 0xA64 JUMPI PUSH1 0x0 DUP1 REVERT JUMPDEST DUP1 PUSH4 0xE8EDD3E8 EQ PUSH2 0x9A4 JUMPI DUP1 PUSH4 0xE941FA78 EQ PUSH2 0x9C4 JUMPI DUP1 PUSH4 0xF1A392DA EQ PUSH2 0x9D9 JUMPI DUP1 PUSH4 0xF2FDE38B EQ PUSH2 0x9EF JUMPI PUSH1 0x0 DUP1 REVERT JUMPDEST DUP1 PUSH4 0xD0E30DB0 GT PUSH2 0xDC JUMPI DUP1 PUSH4 0xD0E30DB0 EQ PUSH2 0x95A JUMPI DUP1 PUSH4 0xD92F3D73 EQ PUSH2 0x96F JUMPI DUP1 PUSH4 0xDFBDC437 EQ PUSH2 0x98F JUMPI DUP1 PUSH4 0xE7A7250A EQ PUSH2 0x6CC JUMPI PUSH1 0x0 DUP1 REVERT JUMPDEST DUP1 PUSH4 0xC1A3D44C EQ PUSH2 0x905 JUMPI DUP1 PUSH4 0xC553173F EQ PUSH2 0x91A JUMPI DUP1 PUSH4 0xC7B9D530 EQ PUSH2 0x93A JUMPI PUSH1 0x0 DUP1 REVERT JUMPDEST DUP1 PUSH4 0xA7E9CA82 GT PUSH2 0x17A JUMPI DUP1 PUSH4 0xAD29F5DA GT PUSH2 0x149 JUMPI DUP1 PUSH4 0xAD29F5DA EQ PUSH2 0x899 JUMPI DUP1 PUSH4 0xB20FEAAF EQ PUSH2 0x8AE JUMPI DUP1 PUSH4 0xBBB19A58 EQ PUSH2 0x8D0 JUMPI DUP1 PUSH4 0xBBB356D5 EQ PUSH2 0x8F0 JUMPI PUSH1 0x0 DUP1 REVERT JUMPDEST DUP1 PUSH4 0xA7E9CA82 EQ PUSH2 0x819 JUMPI DUP1 PUSH4 0xA9E56F3C EQ PUSH2 0x839 JUMPI DUP1 PUSH4 0xAC1E5025 EQ PUSH2 0x859 JUMPI DUP1 PUSH4 0xACED1661 EQ PUSH2 0x879 JUMPI PUSH1 0x0 DUP1 REVERT JUMPDEST DUP1 PUSH4 0x8DA5CB5B GT PUSH2 0x1B6 JUMPI DUP1 PUSH4 0x8DA5CB5B EQ PUSH2 0x7AE JUMPI DUP1 PUSH4 0x97FD323D EQ PUSH2 0x6CC JUMPI DUP1 PUSH4 0x9C5E52D5 EQ PUSH2 0x7CC JUMPI DUP1 PUSH4 0x9C9B2E21 EQ PUSH2 0x7F9 JUMPI PUSH1 0x0 DUP1 REVERT JUMPDEST DUP1 PUSH4 0x8683ED5B EQ PUSH2 0x75F JUMPI DUP1 PUSH4 0x8912CB8B EQ PUSH2 0x77F JUMPI DUP1 PUSH4 0x8CFC0250 EQ PUSH2 0x799 JUMPI PUSH1 0x0 DUP1 REVERT JUMPDEST DUP1 PUSH4 0x44B81396 GT PUSH2 0x2C1 JUMPI DUP1 PUSH4 0x5C975ABB GT PUSH2 0x25F JUMPI DUP1 PUSH4 0x715018A6 GT PUSH2 0x22E JUMPI DUP1 PUSH4 0x715018A6 EQ PUSH2 0x700 JUMPI DUP1 PUSH4 0x722713F7 EQ PUSH2 0x715 JUMPI DUP1 PUSH4 0x748747E6 EQ PUSH2 0x72A JUMPI DUP1 PUSH4 0x8456CB59 EQ PUSH2 0x74A JUMPI PUSH1 0x0 DUP1 REVERT JUMPDEST DUP1 PUSH4 0x5C975ABB EQ PUSH2 0x688 JUMPI DUP1 PUSH4 0x5FCBD285 EQ PUSH2 0x6AC JUMPI DUP1 PUSH4 0x67A52793 EQ PUSH2 0x6CC JUMPI DUP1 PUSH4 0x6817031B EQ PUSH2 0x6E0 JUMPI PUSH1 0x0 DUP1 REVERT JUMPDEST DUP1 PUSH4 0x4EB665AF GT PUSH2 0x29B JUMPI DUP1 PUSH4 0x4EB665AF EQ PUSH2 0x627 JUMPI DUP1 PUSH4 0x54518B1A EQ PUSH2 0x647 JUMPI DUP1 PUSH4 0x56891412 EQ PUSH2 0x65D JUMPI DUP1 PUSH4 0x573FEF0A EQ PUSH2 0x673 JUMPI PUSH1 0x0 DUP1 REVERT JUMPDEST DUP1 PUSH4 0x44B81396 EQ PUSH2 0x5E8 JUMPI DUP1 PUSH4 0x4641257D EQ PUSH2 0x5FD JUMPI DUP1 PUSH4 0x4700D305 EQ PUSH2 0x612 JUMPI PUSH1 0x0 DUP1 REVERT JUMPDEST DUP1 PUSH4 0x1FC8BC5D GT PUSH2 0x32E JUMPI DUP1 PUSH4 0x2CEBDEB2 GT PUSH2 0x308 JUMPI DUP1 PUSH4 0x2CEBDEB2 EQ PUSH2 0x573 JUMPI DUP1 PUSH4 0x2E1A7D4D EQ PUSH2 0x593 JUMPI DUP1 PUSH4 0x3E55F932 EQ PUSH2 0x5B3 JUMPI DUP1 PUSH4 0x3F4BA83A EQ PUSH2 0x5D3 JUMPI PUSH1 0x0 DUP1 REVERT JUMPDEST DUP1 PUSH4 0x1FC8BC5D EQ PUSH2 0x50E JUMPI DUP1 PUSH4 0x1FE4A686 EQ PUSH2 0x533 JUMPI DUP1 PUSH4 0x257AE0DE EQ PUSH2 0x553 JUMPI PUSH1 0x0 DUP1 REVERT JUMPDEST DUP1 PUSH4 0x11588086 GT PUSH2 0x36A JUMPI DUP1 PUSH4 0x11588086 EQ PUSH2 0x481 JUMPI DUP1 PUSH4 0x1AACB838 EQ PUSH2 0x496 JUMPI DUP1 PUSH4 0x1D06CE66 EQ PUSH2 0x4B6 JUMPI DUP1 PUSH4 0x1F1FCD51 EQ PUSH2 0x4D6 JUMPI PUSH1 0x0 DUP1 REVERT JUMPDEST DUP1 PUSH4 0x4554443 EQ PUSH2 0x418 JUMPI DUP1 PUSH4 0x66E4A19 EQ PUSH2 0x441 JUMPI DUP1 PUSH4 0xE8FBB5A EQ PUSH2 0x461 JUMPI PUSH1 0x0 DUP1 REVERT JUMPDEST CALLDATASIZE PUSH2 0x413 JUMPI PUSH1 0xA1 SLOAD PUSH1 0x1 PUSH1 0x1 PUSH1 0xA0 SHL SUB AND CALLER EQ PUSH2 0x411 JUMPI PUSH1 0xA1 PUSH1 0x0 SWAP1 SLOAD SWAP1 PUSH2 0x100 EXP SWAP1 DIV PUSH1 0x1 PUSH1 0x1 PUSH1 0xA0 SHL SUB AND PUSH1 0x1 PUSH1 0x1 PUSH1 0xA0 SHL SUB AND PUSH4 0xD0E30DB0 SELFBALANCE PUSH1 0x40 MLOAD DUP3 PUSH4 0xFFFFFFFF AND PUSH1 0xE0 SHL DUP2 MSTORE PUSH1 0x4 ADD PUSH1 0x0 PUSH1 0x40 MLOAD DUP1 DUP4 SUB DUP2 DUP6 DUP9 DUP1 EXTCODESIZE ISZERO DUP1 ISZERO PUSH2 0x3F7 JUMPI PUSH1 0x0 DUP1 REVERT JUMPDEST POP GAS CALL ISZERO DUP1 ISZERO PUSH2 0x40B JUMPI RETURNDATASIZE PUSH1 0x0 DUP1 RETURNDATACOPY RETURNDATASIZE PUSH1 0x0 REVERT JUMPDEST POP POP POP POP POP JUMPDEST STOP JUMPDEST PUSH1 0x0 DUP1 REVERT JUMPDEST CALLVALUE DUP1 ISZERO PUSH2 0x424 JUMPI PUSH1 0x0 DUP1 REVERT JUMPDEST POP PUSH2 0x42E PUSH1 0xA6 SLOAD DUP2 JUMP JUMPDEST PUSH1 0x40 MLOAD SWAP1 DUP2 MSTORE PUSH1 0x20 ADD JUMPDEST PUSH1 0x40 MLOAD DUP1 SWAP2 SUB SWAP1 RETURN JUMPDEST CALLVALUE DUP1 ISZERO PUSH2 0x44D JUMPI PUSH1 0x0 DUP1 REVERT JUMPDEST POP PUSH2 0x411 PUSH2 0x45C CALLDATASIZE PUSH1 0x4 PUSH2 0x2F25 JUMP JUMPDEST PUSH2 0xA7A JUMP JUMPDEST CALLVALUE DUP1 ISZERO PUSH2 0x46D JUMPI PUSH1 0x0 DUP1 REVERT JUMPDEST POP PUSH2 0x411 PUSH2 0x47C CALLDATASIZE PUSH1 0x4 PUSH2 0x2F50 JUMP JUMPDEST PUSH2 0xAD7 JUMP JUMPDEST CALLVALUE DUP1 ISZERO PUSH2 0x48D JUMPI PUSH1 0x0 DUP1 REVERT JUMPDEST POP PUSH2 0x42E PUSH2 0xB0B JUMP JUMPDEST CALLVALUE DUP1 ISZERO PUSH2 0x4A2 JUMPI PUSH1 0x0 DUP1 REVERT JUMPDEST POP PUSH2 0x411 PUSH2 0x4B1 CALLDATASIZE PUSH1 0x4 PUSH2 0x2F85 JUMP JUMPDEST PUSH2 0xB90 JUMP JUMPDEST CALLVALUE DUP1 ISZERO PUSH2 0x4C2 JUMPI PUSH1 0x0 DUP1 REVERT JUMPDEST POP PUSH2 0x411 PUSH2 0x4D1 CALLDATASIZE PUSH1 0x4 PUSH2 0x2F25 JUMP JUMPDEST PUSH2 0xF9C JUMP JUMPDEST CALLVALUE DUP1 ISZERO PUSH2 0x4E2 JUMPI PUSH1 0x0 DUP1 REVERT JUMPDEST POP PUSH1 0xA0 SLOAD PUSH2 0x4F6 SWAP1 PUSH1 0x1 PUSH1 0x1 PUSH1 0xA0 SHL SUB AND DUP2 JUMP JUMPDEST PUSH1 0x40 MLOAD PUSH1 0x1 PUSH1 0x1 PUSH1 0xA0 SHL SUB SWAP1 SWAP2 AND DUP2 MSTORE PUSH1 0x20 ADD PUSH2 0x438 JUMP JUMPDEST CALLVALUE DUP1 ISZERO PUSH2 0x51A JUMPI PUSH1 0x0 DUP1 REVERT JUMPDEST POP PUSH1 0xA7 SLOAD PUSH2 0x4F6 SWAP1 PUSH2 0x100 SWAP1 DIV PUSH1 0x1 PUSH1 0x1 PUSH1 0xA0 SHL SUB AND DUP2 JUMP JUMPDEST CALLVALUE DUP1 ISZERO PUSH2 0x53F JUMPI PUSH1 0x0 DUP1 REVERT JUMPDEST POP PUSH1 0x9A SLOAD PUSH2 0x4F6 SWAP1 PUSH1 0x1 PUSH1 0x1 PUSH1 0xA0 SHL SUB AND DUP2 JUMP JUMPDEST CALLVALUE DUP1 ISZERO PUSH2 0x55F JUMPI PUSH1 0x0 DUP1 REVERT JUMPDEST POP PUSH1 0x98 SLOAD PUSH2 0x4F6 SWAP1 PUSH1 0x1 PUSH1 0x1 PUSH1 0xA0 SHL SUB AND DUP2 JUMP JUMPDEST CALLVALUE DUP1 ISZERO PUSH2 0x57F JUMPI PUSH1 0x0 DUP1 REVERT JUMPDEST POP PUSH1 0xA1 SLOAD PUSH2 0x4F6 SWAP1 PUSH1 0x1 PUSH1 0x1 PUSH1 0xA0 SHL SUB AND DUP2 JUMP JUMPDEST CALLVALUE DUP1 ISZERO PUSH2 0x59F JUMPI PUSH1 0x0 DUP1 REVERT JUMPDEST POP PUSH2 0x411 PUSH2 0x5AE CALLDATASIZE PUSH1 0x4 PUSH2 0x3044 JUMP JUMPDEST PUSH2 0xFF2 JUMP JUMPDEST CALLVALUE DUP1 ISZERO PUSH2 0x5BF JUMPI PUSH1 0x0 DUP1 REVERT JUMPDEST POP PUSH2 0x411 PUSH2 0x5CE CALLDATASIZE PUSH1 0x4 PUSH2 0x3044 JUMP JUMPDEST PUSH2 0x11FD JUMP JUMPDEST CALLVALUE DUP1 ISZERO PUSH2 0x5DF JUMPI PUSH1 0x0 DUP1 REVERT JUMPDEST POP PUSH2 0x411 PUSH2 0x1294 JUMP JUMPDEST CALLVALUE DUP1 ISZERO PUSH2 0x5F4 JUMPI PUSH1 0x0 DUP1 REVERT JUMPDEST POP PUSH2 0x42E PUSH2 0x12B6 JUMP JUMPDEST CALLVALUE DUP1 ISZERO PUSH2 0x609 JUMPI PUSH1 0x0 DUP1 REVERT JUMPDEST POP PUSH2 0x411 PUSH2 0x131E JUMP JUMPDEST CALLVALUE DUP1 ISZERO PUSH2 0x61E JUMPI PUSH1 0x0 DUP1 REVERT JUMPDEST POP PUSH2 0x411 PUSH2 0x1326 JUMP JUMPDEST CALLVALUE DUP1 ISZERO PUSH2 0x633 JUMPI PUSH1 0x0 DUP1 REVERT JUMPDEST POP PUSH2 0x411 PUSH2 0x642 CALLDATASIZE PUSH1 0x4 PUSH2 0x3044 JUMP JUMPDEST PUSH2 0x147C JUMP JUMPDEST CALLVALUE DUP1 ISZERO PUSH2 0x653 JUMPI PUSH1 0x0 DUP1 REVERT JUMPDEST POP PUSH2 0x42E PUSH2 0x2710 DUP2 JUMP JUMPDEST CALLVALUE DUP1 ISZERO PUSH2 0x669 JUMPI PUSH1 0x0 DUP1 REVERT JUMPDEST POP PUSH2 0x42E PUSH1 0xA5 SLOAD DUP2 JUMP JUMPDEST CALLVALUE DUP1 ISZERO PUSH2 0x67F JUMPI PUSH1 0x0 DUP1 REVERT JUMPDEST POP PUSH2 0x411 PUSH2 0x1489 JUMP JUMPDEST CALLVALUE DUP1 ISZERO PUSH2 0x694 JUMPI PUSH1 0x0 DUP1 REVERT JUMPDEST POP PUSH1 0x65 SLOAD PUSH1 0xFF AND JUMPDEST PUSH1 0x40 MLOAD SWAP1 ISZERO ISZERO DUP2 MSTORE PUSH1 0x20 ADD PUSH2 0x438 JUMP JUMPDEST CALLVALUE DUP1 ISZERO PUSH2 0x6B8 JUMPI PUSH1 0x0 DUP1 REVERT JUMPDEST POP PUSH1 0xA2 SLOAD PUSH2 0x4F6 SWAP1 PUSH1 0x1 PUSH1 0x1 PUSH1 0xA0 SHL SUB AND DUP2 JUMP JUMPDEST CALLVALUE DUP1 ISZERO PUSH2 0x6D8 JUMPI PUSH1 0x0 DUP1 REVERT JUMPDEST POP PUSH1 0x0 PUSH2 0x42E JUMP JUMPDEST CALLVALUE DUP1 ISZERO PUSH2 0x6EC JUMPI PUSH1 0x0 DUP1 REVERT JUMPDEST POP PUSH2 0x411 PUSH2 0x6FB CALLDATASIZE PUSH1 0x4 PUSH2 0x2F25 JUMP JUMPDEST PUSH2 0x14BE JUMP JUMPDEST CALLVALUE DUP1 ISZERO PUSH2 0x70C JUMPI PUSH1 0x0 DUP1 REVERT JUMPDEST POP PUSH2 0x411 PUSH2 0x1514 JUMP JUMPDEST CALLVALUE DUP1 ISZERO PUSH2 0x721 JUMPI PUSH1 0x0 DUP1 REVERT JUMPDEST POP PUSH2 0x42E PUSH2 0x1526 JUMP JUMPDEST CALLVALUE DUP1 ISZERO PUSH2 0x736 JUMPI PUSH1 0x0 DUP1 REVERT JUMPDEST POP PUSH2 0x411 PUSH2 0x745 CALLDATASIZE PUSH1 0x4 PUSH2 0x2F25 JUMP JUMPDEST PUSH2 0x1554 JUMP JUMPDEST CALLVALUE DUP1 ISZERO PUSH2 0x756 JUMPI PUSH1 0x0 DUP1 REVERT JUMPDEST POP PUSH2 0x411 PUSH2 0x15AA JUMP JUMPDEST CALLVALUE DUP1 ISZERO PUSH2 0x76B JUMPI PUSH1 0x0 DUP1 REVERT JUMPDEST POP PUSH1 0x9B SLOAD PUSH2 0x4F6 SWAP1 PUSH1 0x1 PUSH1 0x1 PUSH1 0xA0 SHL SUB AND DUP2 JUMP JUMPDEST CALLVALUE DUP1 ISZERO PUSH2 0x78B JUMPI PUSH1 0x0 DUP1 REVERT JUMPDEST POP PUSH1 0xA7 SLOAD PUSH2 0x69C SWAP1 PUSH1 0xFF AND DUP2 JUMP JUMPDEST CALLVALUE DUP1 ISZERO PUSH2 0x7A5 JUMPI PUSH1 0x0 DUP1 REVERT JUMPDEST POP PUSH2 0x42E PUSH2 0x15C2 JUMP JUMPDEST CALLVALUE DUP1 ISZERO PUSH2 0x7BA JUMPI PUSH1 0x0 DUP1 REVERT JUMPDEST POP PUSH1 0x33 SLOAD PUSH1 0x1 PUSH1 0x1 PUSH1 0xA0 SHL SUB AND PUSH2 0x4F6 JUMP JUMPDEST CALLVALUE DUP1 ISZERO PUSH2 0x7D8 JUMPI PUSH1 0x0 DUP1 REVERT JUMPDEST POP PUSH2 0x42E PUSH2 0x7E7 CALLDATASIZE PUSH1 0x4 PUSH2 0x2F25 JUMP JUMPDEST PUSH1 0x9F PUSH1 0x20 MSTORE PUSH1 0x0 SWAP1 DUP2 MSTORE PUSH1 0x40 SWAP1 KECCAK256 SLOAD DUP2 JUMP JUMPDEST CALLVALUE DUP1 ISZERO PUSH2 0x805 JUMPI PUSH1 0x0 DUP1 REVERT JUMPDEST POP PUSH2 0x411 PUSH2 0x814 CALLDATASIZE PUSH1 0x4 PUSH2 0x2F25 JUMP JUMPDEST PUSH2 0x15F3 JUMP JUMPDEST CALLVALUE DUP1 ISZERO PUSH2 0x825 JUMPI PUSH1 0x0 DUP1 REVERT JUMPDEST POP PUSH2 0x411 PUSH2 0x834 CALLDATASIZE PUSH1 0x4 PUSH2 0x305D JUMP JUMPDEST PUSH2 0x174F JUMP JUMPDEST CALLVALUE DUP1 ISZERO PUSH2 0x845 JUMPI PUSH1 0x0 DUP1 REVERT JUMPDEST POP PUSH1 0xA8 SLOAD PUSH2 0x4F6 SWAP1 PUSH1 0x1 PUSH1 0x1 PUSH1 0xA0 SHL SUB AND DUP2 JUMP JUMPDEST CALLVALUE DUP1 ISZERO PUSH2 0x865 JUMPI PUSH1 0x0 DUP1 REVERT JUMPDEST POP PUSH2 0x411 PUSH2 0x874 CALLDATASIZE PUSH1 0x4 PUSH2 0x3044 JUMP JUMPDEST PUSH2 0x1773 JUMP JUMPDEST CALLVALUE DUP1 ISZERO PUSH2 0x885 JUMPI PUSH1 0x0 DUP1 REVERT JUMPDEST POP PUSH1 0x99 SLOAD PUSH2 0x4F6 SWAP1 PUSH1 0x1 PUSH1 0x1 PUSH1 0xA0 SHL SUB AND DUP2 JUMP JUMPDEST CALLVALUE DUP1 ISZERO PUSH2 0x8A5 JUMPI PUSH1 0x0 DUP1 REVERT JUMPDEST POP PUSH2 0x411 PUSH2 0x17EA JUMP JUMPDEST CALLVALUE DUP1 ISZERO PUSH2 0x8BA JUMPI PUSH1 0x0 DUP1 REVERT JUMPDEST POP PUSH2 0x8C3 PUSH2 0x1854 JUMP JUMPDEST PUSH1 0x40 MLOAD PUSH2 0x438 SWAP2 SWAP1 PUSH2 0x30D9 JUMP JUMPDEST CALLVALUE DUP1 ISZERO PUSH2 0x8DC JUMPI PUSH1 0x0 DUP1 REVERT JUMPDEST POP PUSH2 0x411 PUSH2 0x8EB CALLDATASIZE PUSH1 0x4 PUSH2 0x2F25 JUMP JUMPDEST PUSH2 0x188A JUMP JUMPDEST CALLVALUE DUP1 ISZERO PUSH2 0x8FC JUMPI PUSH1 0x0 DUP1 REVERT JUMPDEST POP PUSH1 0x9E SLOAD PUSH2 0x42E JUMP JUMPDEST CALLVALUE DUP1 ISZERO PUSH2 0x911 JUMPI PUSH1 0x0 DUP1 REVERT JUMPDEST POP PUSH2 0x42E PUSH2 0x19A6 JUMP JUMPDEST CALLVALUE DUP1 ISZERO PUSH2 0x926 JUMPI PUSH1 0x0 DUP1 REVERT JUMPDEST POP PUSH2 0x411 PUSH2 0x935 CALLDATASIZE PUSH1 0x4 PUSH2 0x3044 JUMP JUMPDEST PUSH2 0x19D7 JUMP JUMPDEST CALLVALUE DUP1 ISZERO PUSH2 0x946 JUMPI PUSH1 0x0 DUP1 REVERT JUMPDEST POP PUSH2 0x411 PUSH2 0x955 CALLDATASIZE PUSH1 0x4 PUSH2 0x2F25 JUMP JUMPDEST PUSH2 0x1A8F JUMP JUMPDEST CALLVALUE DUP1 ISZERO PUSH2 0x966 JUMPI PUSH1 0x0 DUP1 REVERT JUMPDEST POP PUSH2 0x411 PUSH2 0x1B25 JUMP JUMPDEST CALLVALUE DUP1 ISZERO PUSH2 0x97B JUMPI PUSH1 0x0 DUP1 REVERT JUMPDEST POP PUSH2 0x411 PUSH2 0x98A CALLDATASIZE PUSH1 0x4 PUSH2 0x2F25 JUMP JUMPDEST PUSH2 0x1C71 JUMP JUMPDEST CALLVALUE DUP1 ISZERO PUSH2 0x99B JUMPI PUSH1 0x0 DUP1 REVERT JUMPDEST POP PUSH2 0x42E PUSH1 0x32 DUP2 JUMP JUMPDEST CALLVALUE DUP1 ISZERO PUSH2 0x9B0 JUMPI PUSH1 0x0 DUP1 REVERT JUMPDEST POP PUSH1 0x9C SLOAD PUSH2 0x4F6 SWAP1 PUSH1 0x1 PUSH1 0x1 PUSH1 0xA0 SHL SUB AND DUP2 JUMP JUMPDEST CALLVALUE DUP1 ISZERO PUSH2 0x9D0 JUMPI PUSH1 0x0 DUP1 REVERT JUMPDEST POP PUSH2 0x42E PUSH2 0x1C79 JUMP JUMPDEST CALLVALUE DUP1 ISZERO PUSH2 0x9E5 JUMPI PUSH1 0x0 DUP1 REVERT JUMPDEST POP PUSH2 0x42E PUSH1 0xA4 SLOAD DUP2 JUMP JUMPDEST CALLVALUE DUP1 ISZERO PUSH2 0x9FB JUMPI PUSH1 0x0 DUP1 REVERT JUMPDEST POP PUSH2 0x411 PUSH2 0xA0A CALLDATASIZE PUSH1 0x4 PUSH2 0x2F25 JUMP JUMPDEST PUSH2 0x1C98 JUMP JUMPDEST CALLVALUE DUP1 ISZERO PUSH2 0xA1B JUMPI PUSH1 0x0 DUP1 REVERT JUMPDEST POP PUSH2 0x4F6 PUSH2 0xA2A CALLDATASIZE PUSH1 0x4 PUSH2 0x3044 JUMP JUMPDEST PUSH2 0x1D0E JUMP JUMPDEST CALLVALUE DUP1 ISZERO PUSH2 0xA3B JUMPI PUSH1 0x0 DUP1 REVERT JUMPDEST POP PUSH2 0x411 PUSH2 0x1D38 JUMP JUMPDEST CALLVALUE DUP1 ISZERO PUSH2 0xA50 JUMPI PUSH1 0x0 DUP1 REVERT JUMPDEST POP PUSH1 0x97 SLOAD PUSH2 0x4F6 SWAP1 PUSH1 0x1 PUSH1 0x1 PUSH1 0xA0 SHL SUB AND DUP2 JUMP JUMPDEST CALLVALUE DUP1 ISZERO PUSH2 0xA70 JUMPI PUSH1 0x0 DUP1 REVERT JUMPDEST POP PUSH2 0x42E PUSH1 0xA9 SLOAD DUP2 JUMP JUMPDEST PUSH2 0xA82 PUSH2 0x1F39 JUMP JUMPDEST PUSH1 0x9C DUP1 SLOAD PUSH1 0x1 PUSH1 0x1 PUSH1 0xA0 SHL SUB NOT AND PUSH1 0x1 PUSH1 0x1 PUSH1 0xA0 SHL SUB DUP4 AND SWAP1 DUP2 OR SWAP1 SWAP2 SSTORE PUSH1 0x40 MLOAD SWAP1 DUP2 MSTORE PUSH32 0xC6AE9DB6AD0E87AAA4F7020EE56278BCC057E08519CF08CE5ECC3B25AA588D4F SWAP1 PUSH1 0x20 ADD JUMPDEST PUSH1 0x40 MLOAD DUP1 SWAP2 SUB SWAP1 LOG1 POP JUMP JUMPDEST PUSH2 0xADF PUSH2 0x1F93 JUMP JUMPDEST PUSH1 0xA7 DUP1 SLOAD PUSH1 0xFF NOT AND DUP3 ISZERO ISZERO SWAP1 DUP2 OR SWAP1 SWAP2 SSTORE PUSH1 0xFF AND ISZERO PUSH2 0xB00 JUMPI PUSH1 0x0 PUSH1 0xA6 SSTORE POP JUMP JUMPDEST PUSH3 0x15180 PUSH1 0xA6 SSTORE JUMPDEST POP JUMP JUMPDEST PUSH1 0xA7 SLOAD PUSH1 0xA2 SLOAD PUSH1 0x40 MLOAD PUSH4 0x3DE222BB PUSH1 0xE2 SHL DUP2 MSTORE PUSH1 0x1 PUSH1 0x1 PUSH1 0xA0 SHL SUB SWAP2 DUP3 AND PUSH1 0x4 DUP3 ADD MSTORE ADDRESS PUSH1 0x24 DUP3 ADD MSTORE PUSH1 0x0 SWAP3 PUSH2 0x100 SWAP1 DIV SWAP1 SWAP2 AND SWAP1 PUSH4 0xF7888AEC SWAP1 PUSH1 0x44 ADD JUMPDEST PUSH1 0x20 PUSH1 0x40 MLOAD DUP1 DUP4 SUB DUP2 DUP7 GAS STATICCALL ISZERO DUP1 ISZERO PUSH2 0xB67 JUMPI RETURNDATASIZE PUSH1 0x0 DUP1 RETURNDATACOPY RETURNDATASIZE PUSH1 0x0 REVERT JUMPDEST POP POP POP POP PUSH1 0x40 MLOAD RETURNDATASIZE PUSH1 0x1F NOT PUSH1 0x1F DUP3 ADD AND DUP3 ADD DUP1 PUSH1 0x40 MSTORE POP DUP2 ADD SWAP1 PUSH2 0xB8B SWAP2 SWAP1 PUSH2 0x3140 JUMP JUMPDEST SWAP1 POP SWAP1 JUMP JUMPDEST PUSH1 0x0 SLOAD PUSH2 0x100 SWAP1 DIV PUSH1 0xFF AND ISZERO DUP1 DUP1 ISZERO PUSH2 0xBB0 JUMPI POP PUSH1 0x0 SLOAD PUSH1 0x1 PUSH1 0xFF SWAP1 SWAP2 AND LT JUMPDEST DUP1 PUSH2 0xBCA JUMPI POP ADDRESS EXTCODESIZE ISZERO DUP1 ISZERO PUSH2 0xBCA JUMPI POP PUSH1 0x0 SLOAD PUSH1 0xFF AND PUSH1 0x1 EQ JUMPDEST PUSH2 0xC32 JUMPI PUSH1 0x40 MLOAD PUSH3 0x461BCD PUSH1 0xE5 SHL DUP2 MSTORE PUSH1 0x20 PUSH1 0x4 DUP3 ADD MSTORE PUSH1 0x2E PUSH1 0x24 DUP3 ADD MSTORE PUSH32 0x496E697469616C697A61626C653A20636F6E747261637420697320616C726561 PUSH1 0x44 DUP3 ADD MSTORE PUSH14 0x191E481A5B9A5D1A585B1A5E9959 PUSH1 0x92 SHL PUSH1 0x64 DUP3 ADD MSTORE PUSH1 0x84 ADD JUMPDEST PUSH1 0x40 MLOAD DUP1 SWAP2 SUB SWAP1 REVERT JUMPDEST PUSH1 0x0 DUP1 SLOAD PUSH1 0xFF NOT AND PUSH1 0x1 OR SWAP1 SSTORE DUP1 ISZERO PUSH2 0xC55 JUMPI PUSH1 0x0 DUP1 SLOAD PUSH2 0xFF00 NOT AND PUSH2 0x100 OR SWAP1 SSTORE JUMPDEST PUSH2 0xC5E DUP3 PUSH2 0x1FED JUMP JUMPDEST PUSH1 0xA7 DUP1 SLOAD PUSH1 0x1 PUSH1 0x1 PUSH1 0xA0 SHL SUB DUP1 DUP11 AND PUSH2 0x100 MUL PUSH2 0x100 PUSH1 0x1 PUSH1 0xA8 SHL SUB NOT SWAP1 SWAP3 AND SWAP2 SWAP1 SWAP2 OR SWAP1 SWAP2 SSTORE PUSH1 0xA8 DUP1 SLOAD SWAP2 DUP9 AND PUSH1 0x1 PUSH1 0x1 PUSH1 0xA0 SHL SUB NOT SWAP1 SWAP3 AND DUP3 OR SWAP1 SSTORE PUSH1 0x40 DUP1 MLOAD PUSH4 0x7E062A35 PUSH1 0xE1 SHL DUP2 MSTORE SWAP1 MLOAD PUSH4 0xFC0C546A SWAP2 PUSH1 0x4 DUP1 DUP3 ADD SWAP3 PUSH1 0x20 SWAP3 SWAP1 SWAP2 SWAP1 DUP3 SWAP1 SUB ADD DUP2 DUP7 GAS STATICCALL ISZERO DUP1 ISZERO PUSH2 0xCD7 JUMPI RETURNDATASIZE PUSH1 0x0 DUP1 RETURNDATACOPY RETURNDATASIZE PUSH1 0x0 REVERT JUMPDEST POP POP POP POP PUSH1 0x40 MLOAD RETURNDATASIZE PUSH1 0x1F NOT PUSH1 0x1F DUP3 ADD AND DUP3 ADD DUP1 PUSH1 0x40 MSTORE POP DUP2 ADD SWAP1 PUSH2 0xCFB SWAP2 SWAP1 PUSH2 0x3159 JUMP JUMPDEST PUSH1 0xA0 DUP1 SLOAD PUSH1 0x1 PUSH1 0x1 PUSH1 0xA0 SHL SUB NOT AND PUSH1 0x1 PUSH1 0x1 PUSH1 0xA0 SHL SUB SWAP3 DUP4 AND OR SWAP1 SSTORE PUSH1 0xA8 SLOAD PUSH1 0x40 DUP1 MLOAD PUSH4 0x5FCBD285 PUSH1 0xE0 SHL DUP2 MSTORE SWAP1 MLOAD SWAP2 SWAP1 SWAP3 AND SWAP2 PUSH4 0x5FCBD285 SWAP2 PUSH1 0x4 DUP1 DUP4 ADD SWAP3 PUSH1 0x20 SWAP3 SWAP2 SWAP1 DUP3 SWAP1 SUB ADD DUP2 DUP7 GAS STATICCALL ISZERO DUP1 ISZERO PUSH2 0xD59 JUMPI RETURNDATASIZE PUSH1 0x0 DUP1 RETURNDATACOPY RETURNDATASIZE PUSH1 0x0 REVERT JUMPDEST POP POP POP POP PUSH1 0x40 MLOAD RETURNDATASIZE PUSH1 0x1F NOT PUSH1 0x1F DUP3 ADD AND DUP3 ADD DUP1 PUSH1 0x40 MSTORE POP DUP2 ADD SWAP1 PUSH2 0xD7D SWAP2 SWAP1 PUSH2 0x3159 JUMP JUMPDEST PUSH1 0xA2 DUP1 SLOAD PUSH1 0x1 PUSH1 0x1 PUSH1 0xA0 SHL SUB SWAP3 DUP4 AND PUSH1 0x1 PUSH1 0x1 PUSH1 0xA0 SHL SUB NOT SWAP2 DUP3 AND DUP2 OR SWAP1 SWAP3 SSTORE PUSH1 0xA3 DUP1 SLOAD PUSH1 0x1 DUP2 ADD DUP3 SSTORE PUSH1 0x0 SWAP2 SWAP1 SWAP2 MSTORE PUSH32 0x60859188CFFE297F44DDE29F2D2865634621F26215049CAEB304CCBA566A8B17 ADD DUP1 SLOAD SWAP1 SWAP2 AND SWAP1 SWAP2 OR SWAP1 SSTORE PUSH1 0xA8 SLOAD PUSH1 0x40 DUP1 MLOAD PUSH4 0x857749B PUSH1 0xE4 SHL DUP2 MSTORE SWAP1 MLOAD SWAP2 SWAP1 SWAP3 AND SWAP2 PUSH4 0x857749B0 SWAP2 PUSH1 0x4 DUP1 DUP4 ADD SWAP3 PUSH1 0x20 SWAP3 SWAP2 SWAP1 DUP3 SWAP1 SUB ADD DUP2 DUP7 GAS STATICCALL ISZERO DUP1 ISZERO PUSH2 0xE1B JUMPI RETURNDATASIZE PUSH1 0x0 DUP1 RETURNDATACOPY RETURNDATASIZE PUSH1 0x0 REVERT JUMPDEST POP POP POP POP PUSH1 0x40 MLOAD RETURNDATASIZE PUSH1 0x1F NOT PUSH1 0x1F DUP3 ADD AND DUP3 ADD DUP1 PUSH1 0x40 MSTORE POP DUP2 ADD SWAP1 PUSH2 0xE3F SWAP2 SWAP1 PUSH2 0x3176 JUMP JUMPDEST PUSH1 0xFF AND PUSH1 0xA0 PUSH1 0x0 SWAP1 SLOAD SWAP1 PUSH2 0x100 EXP SWAP1 DIV PUSH1 0x1 PUSH1 0x1 PUSH1 0xA0 SHL SUB AND PUSH1 0x1 PUSH1 0x1 PUSH1 0xA0 SHL SUB AND PUSH4 0x313CE567 PUSH1 0x40 MLOAD DUP2 PUSH4 0xFFFFFFFF AND PUSH1 0xE0 SHL DUP2 MSTORE PUSH1 0x4 ADD PUSH1 0x20 PUSH1 0x40 MLOAD DUP1 DUP4 SUB DUP2 DUP7 GAS STATICCALL ISZERO DUP1 ISZERO PUSH2 0xE95 JUMPI RETURNDATASIZE PUSH1 0x0 DUP1 RETURNDATACOPY RETURNDATASIZE PUSH1 0x0 REVERT JUMPDEST POP POP POP POP PUSH1 0x40 MLOAD RETURNDATASIZE PUSH1 0x1F NOT PUSH1 0x1F DUP3 ADD AND DUP3 ADD DUP1 PUSH1 0x40 MSTORE POP DUP2 ADD SWAP1 PUSH2 0xEB9 SWAP2 SWAP1 PUSH2 0x3140 JUMP JUMPDEST PUSH2 0xEC3 SWAP2 SWAP1 PUSH2 0x31AF JUMP JUMPDEST PUSH2 0xECE SWAP1 PUSH1 0xA PUSH2 0x32AC JUMP JUMPDEST PUSH1 0xA9 SSTORE PUSH1 0xA1 DUP1 SLOAD PUSH1 0x1 PUSH1 0x1 PUSH1 0xA0 SHL SUB NOT AND PUSH1 0x1 PUSH1 0x1 PUSH1 0xA0 SHL SUB DUP8 AND OR SWAP1 SSTORE PUSH3 0x15180 PUSH1 0xA6 SSTORE PUSH1 0x0 JUMPDEST DUP4 DUP2 LT ISZERO PUSH2 0xF3A JUMPI PUSH2 0xF28 DUP6 DUP6 DUP4 DUP2 DUP2 LT PUSH2 0xF13 JUMPI PUSH2 0xF13 PUSH2 0x32B8 JUMP JUMPDEST SWAP1 POP PUSH1 0x20 MUL ADD PUSH1 0x20 DUP2 ADD SWAP1 PUSH2 0x814 SWAP2 SWAP1 PUSH2 0x2F25 JUMP JUMPDEST DUP1 PUSH2 0xF32 DUP2 PUSH2 0x32CE JUMP JUMPDEST SWAP2 POP POP PUSH2 0xEF6 JUMP JUMPDEST POP PUSH2 0xF45 PUSH1 0x0 PUSH2 0x1773 JUMP JUMPDEST PUSH2 0xF4D PUSH2 0x2149 JUMP JUMPDEST DUP1 ISZERO PUSH2 0xF93 JUMPI PUSH1 0x0 DUP1 SLOAD PUSH2 0xFF00 NOT AND SWAP1 SSTORE PUSH1 0x40 MLOAD PUSH1 0x1 DUP2 MSTORE PUSH32 0x7F26B83FF96E1F2B6A682F133852F6798A09C465DA95921460CEFB3847402498 SWAP1 PUSH1 0x20 ADD PUSH1 0x40 MLOAD DUP1 SWAP2 SUB SWAP1 LOG1 JUMPDEST POP POP POP POP POP POP POP JUMP JUMPDEST PUSH2 0xFA4 PUSH2 0x1F39 JUMP JUMPDEST PUSH1 0x9B DUP1 SLOAD PUSH1 0x1 PUSH1 0x1 PUSH1 0xA0 SHL SUB NOT AND PUSH1 0x1 PUSH1 0x1 PUSH1 0xA0 SHL SUB DUP4 AND SWAP1 DUP2 OR SWAP1 SWAP2 SSTORE PUSH1 0x40 MLOAD SWAP1 DUP2 MSTORE PUSH32 0x3129A3B1A01B54525E947A4B2E7B5A30606B2D68562BE910B844F842EEB3CF5A SWAP1 PUSH1 0x20 ADD PUSH2 0xACC JUMP JUMPDEST PUSH1 0x97 SLOAD PUSH1 0x1 PUSH1 0x1 PUSH1 0xA0 SHL SUB AND CALLER EQ PUSH2 0x101C JUMPI PUSH1 0x40 MLOAD PUSH3 0x461BCD PUSH1 0xE5 SHL DUP2 MSTORE PUSH1 0x4 ADD PUSH2 0xC29 SWAP1 PUSH2 0x32E7 JUMP JUMPDEST PUSH1 0x0 PUSH2 0x1026 PUSH2 0x19A6 JUMP JUMPDEST SWAP1 POP DUP2 DUP2 LT ISZERO PUSH2 0x1147 JUMPI PUSH1 0xA9 SLOAD PUSH1 0x0 SWAP1 DUP1 PUSH2 0x1041 DUP5 DUP7 PUSH2 0x31AF JUMP JUMPDEST PUSH2 0x104B SWAP2 SWAP1 PUSH2 0x3307 JUMP JUMPDEST PUSH2 0x1055 SWAP2 SWAP1 PUSH2 0x3329 JUMP JUMPDEST PUSH1 0xA7 SLOAD PUSH1 0xA2 SLOAD PUSH1 0x40 MLOAD PUSH4 0xF3FEF3A3 PUSH1 0xE0 SHL DUP2 MSTORE PUSH1 0x1 PUSH1 0x1 PUSH1 0xA0 SHL SUB SWAP2 DUP3 AND PUSH1 0x4 DUP3 ADD MSTORE PUSH1 0x24 DUP2 ADD DUP5 SWAP1 MSTORE SWAP3 SWAP4 POP PUSH2 0x100 SWAP1 SWAP2 DIV AND SWAP1 PUSH4 0xF3FEF3A3 SWAP1 PUSH1 0x44 ADD PUSH1 0x0 PUSH1 0x40 MLOAD DUP1 DUP4 SUB DUP2 PUSH1 0x0 DUP8 DUP1 EXTCODESIZE ISZERO DUP1 ISZERO PUSH2 0x10AD JUMPI PUSH1 0x0 DUP1 REVERT JUMPDEST POP GAS CALL ISZERO DUP1 ISZERO PUSH2 0x10C1 JUMPI RETURNDATASIZE PUSH1 0x0 DUP1 RETURNDATACOPY RETURNDATASIZE PUSH1 0x0 REVERT JUMPDEST POP POP PUSH1 0xA8 SLOAD PUSH1 0x40 MLOAD PUSH4 0x3DEF4179 PUSH1 0xE1 SHL DUP2 MSTORE PUSH1 0x4 DUP2 ADD DUP6 SWAP1 MSTORE ADDRESS PUSH1 0x24 DUP3 ADD MSTORE PUSH1 0x1 PUSH1 0x1 PUSH1 0xA0 SHL SUB SWAP1 SWAP2 AND SWAP3 POP PUSH4 0x7BDE82F2 SWAP2 POP PUSH1 0x44 ADD PUSH1 0x20 PUSH1 0x40 MLOAD DUP1 DUP4 SUB DUP2 PUSH1 0x0 DUP8 GAS CALL ISZERO DUP1 ISZERO PUSH2 0x1116 JUMPI RETURNDATASIZE PUSH1 0x0 DUP1 RETURNDATACOPY RETURNDATASIZE PUSH1 0x0 REVERT JUMPDEST POP POP POP POP PUSH1 0x40 MLOAD RETURNDATASIZE PUSH1 0x1F NOT PUSH1 0x1F DUP3 ADD AND DUP3 ADD DUP1 PUSH1 0x40 MSTORE POP DUP2 ADD SWAP1 PUSH2 0x113A SWAP2 SWAP1 PUSH2 0x3140 JUMP JUMPDEST POP PUSH2 0x1143 PUSH2 0x19A6 JUMP JUMPDEST SWAP2 POP POP JUMPDEST DUP2 DUP2 GT ISZERO PUSH2 0x1152 JUMPI POP DUP1 JUMPDEST PUSH1 0x33 SLOAD PUSH1 0x1 PUSH1 0x1 PUSH1 0xA0 SHL SUB AND ORIGIN EQ DUP1 ISZERO SWAP1 PUSH2 0x1170 JUMPI POP PUSH1 0x65 SLOAD PUSH1 0xFF AND ISZERO JUMPDEST ISZERO PUSH2 0x11A2 JUMPI PUSH1 0x0 PUSH2 0x2710 PUSH1 0x9D SLOAD DUP4 PUSH2 0x1188 SWAP2 SWAP1 PUSH2 0x3329 JUMP JUMPDEST PUSH2 0x1192 SWAP2 SWAP1 PUSH2 0x3307 JUMP JUMPDEST SWAP1 POP PUSH2 0x119E DUP2 DUP4 PUSH2 0x31AF JUMP JUMPDEST SWAP2 POP POP JUMPDEST PUSH1 0x97 SLOAD PUSH1 0xA0 SLOAD PUSH2 0x11BF SWAP2 PUSH1 0x1 PUSH1 0x1 PUSH1 0xA0 SHL SUB SWAP2 DUP3 AND SWAP2 AND DUP4 PUSH2 0x2238 JUMP JUMPDEST PUSH32 0x5B6B431D4476A211BB7D41C20D1AAB9AE2321DEEE0D20BE3D9FC9B1093FA6E3D PUSH2 0x11E8 PUSH2 0x1526 JUMP JUMPDEST PUSH1 0x40 MLOAD SWAP1 DUP2 MSTORE PUSH1 0x20 ADD PUSH1 0x40 MLOAD DUP1 SWAP2 SUB SWAP1 LOG1 POP POP JUMP JUMPDEST PUSH2 0x1205 PUSH2 0x1F93 JUMP JUMPDEST PUSH1 0x9C SLOAD PUSH1 0x40 MLOAD PUSH4 0x1F2AFC99 PUSH1 0xE1 SHL DUP2 MSTORE PUSH1 0x4 DUP2 ADD DUP4 SWAP1 MSTORE PUSH1 0x1 PUSH1 0x1 PUSH1 0xA0 SHL SUB SWAP1 SWAP2 AND SWAP1 PUSH4 0x3E55F932 SWAP1 PUSH1 0x24 ADD PUSH1 0x0 PUSH1 0x40 MLOAD DUP1 DUP4 SUB DUP2 PUSH1 0x0 DUP8 DUP1 EXTCODESIZE ISZERO DUP1 ISZERO PUSH2 0x124B JUMPI PUSH1 0x0 DUP1 REVERT JUMPDEST POP GAS CALL ISZERO DUP1 ISZERO PUSH2 0x125F JUMPI RETURNDATASIZE PUSH1 0x0 DUP1 RETURNDATACOPY RETURNDATASIZE PUSH1 0x0 REVERT JUMPDEST POP POP POP POP PUSH32 0x9163810EE1E29168D4CE900E48A333FB8FBD3FD070D2BEF67F6D4DB0846A469F DUP2 PUSH1 0x40 MLOAD PUSH2 0xACC SWAP2 DUP2 MSTORE PUSH1 0x20 ADD SWAP1 JUMP JUMPDEST PUSH2 0x129C PUSH2 0x1F93 JUMP JUMPDEST PUSH2 0x12A4 PUSH2 0x22A0 JUMP JUMPDEST PUSH2 0x12AC PUSH2 0x2149 JUMP JUMPDEST PUSH2 0x12B4 PUSH2 0x1B25 JUMP JUMPDEST JUMP JUMPDEST PUSH1 0x0 PUSH1 0xA6 SLOAD PUSH1 0x0 SUB PUSH2 0x12C8 JUMPI POP PUSH1 0x0 SWAP1 JUMP JUMPDEST PUSH1 0x0 PUSH1 0xA4 SLOAD TIMESTAMP PUSH2 0x12D8 SWAP2 SWAP1 PUSH2 0x31AF JUMP JUMPDEST SWAP1 POP PUSH1 0x0 PUSH1 0xA6 SLOAD DUP3 LT PUSH2 0x12EC JUMPI PUSH1 0x0 PUSH2 0x12FA JUMP JUMPDEST DUP2 PUSH1 0xA6 SLOAD PUSH2 0x12FA SWAP2 SWAP1 PUSH2 0x31AF JUMP JUMPDEST SWAP1 POP PUSH1 0xA6 SLOAD DUP2 PUSH1 0xA5 SLOAD PUSH2 0x130D SWAP2 SWAP1 PUSH2 0x3329 JUMP JUMPDEST PUSH2 0x1317 SWAP2 SWAP1 PUSH2 0x3307 JUMP JUMPDEST SWAP3 POP POP POP SWAP1 JUMP JUMPDEST PUSH2 0x12B4 PUSH2 0x22F2 JUMP JUMPDEST PUSH2 0x132E PUSH2 0x1F93 JUMP JUMPDEST PUSH2 0x1336 PUSH2 0x15AA JUMP JUMPDEST PUSH1 0xA7 SLOAD PUSH1 0xA2 SLOAD PUSH1 0x40 MLOAD PUSH4 0x1BFC726F PUSH1 0xE2 SHL DUP2 MSTORE PUSH1 0x1 PUSH1 0x1 PUSH1 0xA0 SHL SUB SWAP2 DUP3 AND PUSH1 0x4 DUP3 ADD MSTORE PUSH2 0x100 SWAP1 SWAP3 DIV AND SWAP1 PUSH4 0x6FF1C9BC SWAP1 PUSH1 0x24 ADD PUSH1 0x0 PUSH1 0x40 MLOAD DUP1 DUP4 SUB DUP2 PUSH1 0x0 DUP8 DUP1 EXTCODESIZE ISZERO DUP1 ISZERO PUSH2 0x1384 JUMPI PUSH1 0x0 DUP1 REVERT JUMPDEST POP GAS CALL ISZERO DUP1 ISZERO PUSH2 0x1398 JUMPI RETURNDATASIZE PUSH1 0x0 DUP1 RETURNDATACOPY RETURNDATASIZE PUSH1 0x0 REVERT JUMPDEST POP POP PUSH1 0xA8 SLOAD PUSH1 0xA2 SLOAD PUSH1 0x40 MLOAD PUSH4 0x70A08231 PUSH1 0xE0 SHL DUP2 MSTORE ADDRESS PUSH1 0x4 DUP3 ADD MSTORE PUSH1 0x1 PUSH1 0x1 PUSH1 0xA0 SHL SUB SWAP3 DUP4 AND SWAP5 POP PUSH4 0x7BDE82F2 SWAP4 POP SWAP2 AND SWAP1 PUSH4 0x70A08231 SWAP1 PUSH1 0x24 ADD PUSH1 0x20 PUSH1 0x40 MLOAD DUP1 DUP4 SUB DUP2 DUP7 GAS STATICCALL ISZERO DUP1 ISZERO PUSH2 0x13F0 JUMPI RETURNDATASIZE PUSH1 0x0 DUP1 RETURNDATACOPY RETURNDATASIZE PUSH1 0x0 REVERT JUMPDEST POP POP POP POP PUSH1 0x40 MLOAD RETURNDATASIZE PUSH1 0x1F NOT PUSH1 0x1F DUP3 ADD AND DUP3 ADD DUP1 PUSH1 0x40 MSTORE POP DUP2 ADD SWAP1 PUSH2 0x1414 SWAP2 SWAP1 PUSH2 0x3140 JUMP JUMPDEST PUSH1 0x40 MLOAD PUSH1 0x1 PUSH1 0x1 PUSH1 0xE0 SHL SUB NOT PUSH1 0xE0 DUP5 SWAP1 SHL AND DUP2 MSTORE PUSH1 0x4 DUP2 ADD SWAP2 SWAP1 SWAP2 MSTORE ADDRESS PUSH1 0x24 DUP3 ADD MSTORE PUSH1 0x44 ADD PUSH1 0x20 PUSH1 0x40 MLOAD DUP1 DUP4 SUB DUP2 PUSH1 0x0 DUP8 GAS CALL ISZERO DUP1 ISZERO PUSH2 0x1458 JUMPI RETURNDATASIZE PUSH1 0x0 DUP1 RETURNDATACOPY RETURNDATASIZE PUSH1 0x0 REVERT JUMPDEST POP POP POP POP PUSH1 0x40 MLOAD RETURNDATASIZE PUSH1 0x1F NOT PUSH1 0x1F DUP3 ADD AND DUP3 ADD DUP1 PUSH1 0x40 MSTORE POP DUP2 ADD SWAP1 PUSH2 0xB08 SWAP2 SWAP1 PUSH2 0x3140 JUMP JUMPDEST PUSH2 0x1484 PUSH2 0x1F93 JUMP JUMPDEST PUSH1 0xA6 SSTORE JUMP JUMPDEST PUSH1 0xA7 SLOAD PUSH1 0xFF AND ISZERO PUSH2 0x12B4 JUMPI PUSH1 0x97 SLOAD PUSH1 0x1 PUSH1 0x1 PUSH1 0xA0 SHL SUB AND CALLER EQ PUSH2 0x131E JUMPI PUSH1 0x40 MLOAD PUSH3 0x461BCD PUSH1 0xE5 SHL DUP2 MSTORE PUSH1 0x4 ADD PUSH2 0xC29 SWAP1 PUSH2 0x32E7 JUMP JUMPDEST PUSH2 0x14C6 PUSH2 0x1F39 JUMP JUMPDEST PUSH1 0x97 DUP1 SLOAD PUSH1 0x1 PUSH1 0x1 PUSH1 0xA0 SHL SUB NOT AND PUSH1 0x1 PUSH1 0x1 PUSH1 0xA0 SHL SUB DUP4 AND SWAP1 DUP2 OR SWAP1 SWAP2 SSTORE PUSH1 0x40 MLOAD SWAP1 DUP2 MSTORE PUSH32 0xD459C7242E23D490831B5676A611C4342D899D28F342D89AE80793E56A930F30 SWAP1 PUSH1 0x20 ADD PUSH2 0xACC JUMP JUMPDEST PUSH2 0x151C PUSH2 0x1F39 JUMP JUMPDEST PUSH2 0x12B4 PUSH1 0x0 PUSH2 0x248E JUMP JUMPDEST PUSH1 0x0 PUSH2 0x1530 PUSH2 0x12B6 JUMP JUMPDEST PUSH2 0x1538 PUSH2 0xB0B JUMP JUMPDEST PUSH2 0x1540 PUSH2 0x19A6 JUMP JUMPDEST PUSH2 0x154A SWAP2 SWAP1 PUSH2 0x3340 JUMP JUMPDEST PUSH2 0xB8B SWAP2 SWAP1 PUSH2 0x31AF JUMP JUMPDEST PUSH2 0x155C PUSH2 0x1F93 JUMP JUMPDEST PUSH1 0x99 DUP1 SLOAD PUSH1 0x1 PUSH1 0x1 PUSH1 0xA0 SHL SUB NOT AND PUSH1 0x1 PUSH1 0x1 PUSH1 0xA0 SHL SUB DUP4 AND SWAP1 DUP2 OR SWAP1 SWAP2 SSTORE PUSH1 0x40 MLOAD SWAP1 DUP2 MSTORE PUSH32 0xEFB5CFA1A8690C124332AB93324539C5C9C4BE03F28AEB8BE86F2D8A0C9FB99B SWAP1 PUSH1 0x20 ADD PUSH2 0xACC JUMP JUMPDEST PUSH2 0x15B2 PUSH2 0x1F93 JUMP JUMPDEST PUSH2 0x15BA PUSH2 0x24E0 JUMP JUMPDEST PUSH2 0x12B4 PUSH2 0x251D JUMP JUMPDEST PUSH1 0x9C SLOAD PUSH1 0x40 MLOAD PUSH4 0x67882311 PUSH1 0xE1 SHL DUP2 MSTORE ADDRESS PUSH1 0x4 DUP3 ADD MSTORE PUSH1 0x0 SWAP2 PUSH1 0x1 PUSH1 0x1 PUSH1 0xA0 SHL SUB AND SWAP1 PUSH4 0xCF104622 SWAP1 PUSH1 0x24 ADD PUSH2 0xB4A JUMP JUMPDEST PUSH2 0x15FB PUSH2 0x1F93 JUMP JUMPDEST PUSH1 0xA0 SLOAD PUSH1 0x1 PUSH1 0x1 PUSH1 0xA0 SHL SUB SWAP1 DUP2 AND SWAP1 DUP3 AND SUB PUSH2 0x1641 JUMPI PUSH1 0x40 MLOAD PUSH3 0x461BCD PUSH1 0xE5 SHL DUP2 MSTORE PUSH1 0x20 PUSH1 0x4 DUP3 ADD MSTORE PUSH1 0x5 PUSH1 0x24 DUP3 ADD MSTORE PUSH5 0x85DD85B9D PUSH1 0xDA SHL PUSH1 0x44 DUP3 ADD MSTORE PUSH1 0x64 ADD PUSH2 0xC29 JUMP JUMPDEST PUSH1 0xA1 SLOAD PUSH1 0x1 PUSH1 0x1 PUSH1 0xA0 SHL SUB SWAP1 DUP2 AND SWAP1 DUP3 AND SUB PUSH2 0x168A JUMPI PUSH1 0x40 MLOAD PUSH3 0x461BCD PUSH1 0xE5 SHL DUP2 MSTORE PUSH1 0x20 PUSH1 0x4 DUP3 ADD MSTORE PUSH1 0x8 PUSH1 0x24 DUP3 ADD MSTORE PUSH8 0x21776E6174697665 PUSH1 0xC0 SHL PUSH1 0x44 DUP3 ADD MSTORE PUSH1 0x64 ADD PUSH2 0xC29 JUMP JUMPDEST PUSH1 0xA2 SLOAD PUSH1 0x1 PUSH1 0x1 PUSH1 0xA0 SHL SUB SWAP1 DUP2 AND SWAP1 DUP3 AND SUB PUSH2 0x16D3 JUMPI PUSH1 0x40 MLOAD PUSH3 0x461BCD PUSH1 0xE5 SHL DUP2 MSTORE PUSH1 0x20 PUSH1 0x4 DUP3 ADD MSTORE PUSH1 0x8 PUSH1 0x24 DUP3 ADD MSTORE PUSH8 0x10B6382A37B5B2B7 PUSH1 0xC1 SHL PUSH1 0x44 DUP3 ADD MSTORE PUSH1 0x64 ADD PUSH2 0xC29 JUMP JUMPDEST PUSH1 0x9E DUP1 SLOAD PUSH1 0x1 DUP2 ADD DUP3 SSTORE PUSH1 0x0 SWAP2 DUP3 MSTORE PUSH32 0xCFE2A20FF701A1F3E14F63BD70D6C6BC6FBA8172EC6D5A505CDAB3927C0A9DE6 ADD DUP1 SLOAD PUSH1 0x1 PUSH1 0x1 PUSH1 0xA0 SHL SUB NOT AND PUSH1 0x1 PUSH1 0x1 PUSH1 0xA0 SHL SUB DUP5 DUP2 AND SWAP2 SWAP1 SWAP2 OR SWAP1 SWAP2 SSTORE PUSH1 0x98 SLOAD PUSH2 0x1735 SWAP3 DUP5 SWAP3 SWAP2 SWAP1 SWAP2 AND SWAP1 PUSH2 0x25C4 JUMP JUMPDEST PUSH1 0x98 SLOAD PUSH2 0xB08 SWAP1 DUP3 SWAP1 PUSH1 0x1 PUSH1 0x1 PUSH1 0xA0 SHL SUB AND PUSH1 0x0 NOT PUSH2 0x25C4 JUMP JUMPDEST PUSH2 0x1757 PUSH2 0x1F93 JUMP JUMPDEST PUSH1 0x1 PUSH1 0x1 PUSH1 0xA0 SHL SUB SWAP1 SWAP2 AND PUSH1 0x0 SWAP1 DUP2 MSTORE PUSH1 0x9F PUSH1 0x20 MSTORE PUSH1 0x40 SWAP1 KECCAK256 SSTORE JUMP JUMPDEST PUSH2 0x177B PUSH2 0x1F93 JUMP JUMPDEST PUSH1 0x32 DUP2 GT ISZERO PUSH2 0x17B5 JUMPI PUSH1 0x40 MLOAD PUSH3 0x461BCD PUSH1 0xE5 SHL DUP2 MSTORE PUSH1 0x4 ADD PUSH2 0xC29 SWAP1 PUSH1 0x20 DUP1 DUP3 MSTORE PUSH1 0x4 SWAP1 DUP3 ADD MSTORE PUSH4 0x2163617 PUSH1 0xE4 SHL PUSH1 0x40 DUP3 ADD MSTORE PUSH1 0x60 ADD SWAP1 JUMP JUMPDEST PUSH1 0x9D DUP2 SWAP1 SSTORE PUSH1 0x40 MLOAD DUP2 DUP2 MSTORE PUSH32 0x3AA4413905E8F015896EC5880BDDE24088CCB19B578F9FCF6800354D5320D4AF SWAP1 PUSH1 0x20 ADD PUSH2 0xACC JUMP JUMPDEST PUSH2 0x17F2 PUSH2 0x1F93 JUMP JUMPDEST PUSH1 0x0 JUMPDEST PUSH1 0x9E SLOAD DUP2 LT ISZERO PUSH2 0x1847 JUMPI PUSH2 0x1837 PUSH1 0x9E DUP3 DUP2 SLOAD DUP2 LT PUSH2 0x1815 JUMPI PUSH2 0x1815 PUSH2 0x32B8 JUMP JUMPDEST PUSH1 0x0 SWAP2 DUP3 MSTORE PUSH1 0x20 DUP3 KECCAK256 ADD SLOAD PUSH1 0x98 SLOAD PUSH1 0x1 PUSH1 0x1 PUSH1 0xA0 SHL SUB SWAP2 DUP3 AND SWAP3 SWAP2 AND SWAP1 PUSH2 0x25C4 JUMP JUMPDEST PUSH2 0x1840 DUP2 PUSH2 0x32CE JUMP JUMPDEST SWAP1 POP PUSH2 0x17F5 JUMP JUMPDEST POP PUSH2 0x12B4 PUSH1 0x9E PUSH1 0x0 PUSH2 0x2E8D JUMP JUMPDEST PUSH2 0x185C PUSH2 0x2EAB JUMP JUMPDEST PUSH1 0x40 MLOAD DUP1 PUSH1 0x60 ADD PUSH1 0x40 MSTORE DUP1 PUSH2 0x186F PUSH2 0x25D8 JUMP JUMPDEST DUP2 MSTORE PUSH1 0x20 ADD PUSH1 0x0 DUP2 MSTORE PUSH1 0x20 ADD PUSH2 0x1883 PUSH2 0x1C79 JUMP JUMPDEST SWAP1 MSTORE SWAP2 SWAP1 POP JUMP JUMPDEST PUSH2 0x1892 PUSH2 0x1F39 JUMP JUMPDEST PUSH1 0x0 JUMPDEST PUSH1 0x9E SLOAD DUP2 LT ISZERO PUSH2 0x1908 JUMPI PUSH1 0x0 PUSH1 0x9E DUP3 DUP2 SLOAD DUP2 LT PUSH2 0x18B4 JUMPI PUSH2 0x18B4 PUSH2 0x32B8 JUMP JUMPDEST PUSH1 0x0 SWAP2 DUP3 MSTORE PUSH1 0x20 DUP3 KECCAK256 ADD SLOAD PUSH1 0x98 SLOAD PUSH1 0x1 PUSH1 0x1 PUSH1 0xA0 SHL SUB SWAP2 DUP3 AND SWAP4 POP PUSH2 0x18DE SWAP3 DUP5 SWAP3 SWAP1 SWAP2 AND SWAP1 PUSH2 0x25C4 JUMP JUMPDEST PUSH2 0x18EA DUP2 DUP5 PUSH1 0x0 PUSH2 0x25C4 JUMP JUMPDEST PUSH2 0x18F7 DUP2 DUP5 PUSH1 0x0 NOT PUSH2 0x25C4 JUMP JUMPDEST POP PUSH2 0x1901 DUP2 PUSH2 0x32CE JUMP JUMPDEST SWAP1 POP PUSH2 0x1895 JUMP JUMPDEST POP PUSH1 0xA1 SLOAD PUSH1 0x98 SLOAD PUSH2 0x1927 SWAP2 PUSH1 0x1 PUSH1 0x1 PUSH1 0xA0 SHL SUB SWAP1 DUP2 AND SWAP2 AND PUSH1 0x0 PUSH2 0x25C4 JUMP JUMPDEST PUSH1 0xA1 SLOAD PUSH2 0x193F SWAP1 PUSH1 0x1 PUSH1 0x1 PUSH1 0xA0 SHL SUB AND DUP3 PUSH1 0x0 PUSH2 0x25C4 JUMP JUMPDEST PUSH1 0xA1 SLOAD PUSH2 0x1958 SWAP1 PUSH1 0x1 PUSH1 0x1 PUSH1 0xA0 SHL SUB AND DUP3 PUSH1 0x0 NOT PUSH2 0x25C4 JUMP JUMPDEST PUSH1 0x98 DUP1 SLOAD PUSH1 0x1 PUSH1 0x1 PUSH1 0xA0 SHL SUB NOT AND PUSH1 0x1 PUSH1 0x1 PUSH1 0xA0 SHL SUB DUP4 AND SWAP1 DUP2 OR SWAP1 SWAP2 SSTORE PUSH1 0x40 MLOAD SWAP1 DUP2 MSTORE PUSH32 0x5CA6E64C4522E68E154AA9372F2C5969CD37D9640E59F66953DC472F54EE86FA SWAP1 PUSH1 0x20 ADD PUSH2 0xACC JUMP JUMPDEST PUSH1 0xA0 SLOAD PUSH1 0x40 MLOAD PUSH4 0x70A08231 PUSH1 0xE0 SHL DUP2 MSTORE ADDRESS PUSH1 0x4 DUP3 ADD MSTORE PUSH1 0x0 SWAP2 PUSH1 0x1 PUSH1 0x1 PUSH1 0xA0 SHL SUB AND SWAP1 PUSH4 0x70A08231 SWAP1 PUSH1 0x24 ADD PUSH2 0xB4A JUMP JUMPDEST PUSH2 0x19DF PUSH2 0x1F93 JUMP JUMPDEST PUSH1 0x9E DUP1 SLOAD PUSH2 0x19EF SWAP1 PUSH1 0x1 SWAP1 PUSH2 0x31AF JUMP JUMPDEST DUP2 SLOAD DUP2 LT PUSH2 0x19FF JUMPI PUSH2 0x19FF PUSH2 0x32B8 JUMP JUMPDEST PUSH1 0x0 SWAP2 DUP3 MSTORE PUSH1 0x20 SWAP1 SWAP2 KECCAK256 ADD SLOAD PUSH1 0x9E DUP1 SLOAD PUSH1 0x1 PUSH1 0x1 PUSH1 0xA0 SHL SUB SWAP1 SWAP3 AND SWAP2 DUP4 SWAP1 DUP2 LT PUSH2 0x1A2B JUMPI PUSH2 0x1A2B PUSH2 0x32B8 JUMP JUMPDEST SWAP1 PUSH1 0x0 MSTORE PUSH1 0x20 PUSH1 0x0 KECCAK256 ADD PUSH1 0x0 PUSH2 0x100 EXP DUP2 SLOAD DUP2 PUSH1 0x1 PUSH1 0x1 PUSH1 0xA0 SHL SUB MUL NOT AND SWAP1 DUP4 PUSH1 0x1 PUSH1 0x1 PUSH1 0xA0 SHL SUB AND MUL OR SWAP1 SSTORE POP PUSH1 0x9E DUP1 SLOAD DUP1 PUSH2 0x1A6A JUMPI PUSH2 0x1A6A PUSH2 0x3353 JUMP JUMPDEST PUSH1 0x0 DUP3 DUP2 MSTORE PUSH1 0x20 SWAP1 KECCAK256 DUP2 ADD PUSH1 0x0 NOT SWAP1 DUP2 ADD DUP1 SLOAD PUSH1 0x1 PUSH1 0x1 PUSH1 0xA0 SHL SUB NOT AND SWAP1 SSTORE ADD SWAP1 SSTORE POP JUMP JUMPDEST PUSH1 0x9A SLOAD PUSH1 0x1 PUSH1 0x1 PUSH1 0xA0 SHL SUB AND CALLER EQ PUSH2 0x1AD7 JUMPI PUSH1 0x40 MLOAD PUSH3 0x461BCD PUSH1 0xE5 SHL DUP2 MSTORE PUSH1 0x20 PUSH1 0x4 DUP3 ADD MSTORE PUSH1 0xB PUSH1 0x24 DUP3 ADD MSTORE PUSH11 0x85CDD1C985D1959DA5CDD PUSH1 0xAA SHL PUSH1 0x44 DUP3 ADD MSTORE PUSH1 0x64 ADD PUSH2 0xC29 JUMP JUMPDEST PUSH1 0x9A DUP1 SLOAD PUSH1 0x1 PUSH1 0x1 PUSH1 0xA0 SHL SUB NOT AND PUSH1 0x1 PUSH1 0x1 PUSH1 0xA0 SHL SUB DUP4 AND SWAP1 DUP2 OR SWAP1 SWAP2 SSTORE PUSH1 0x40 MLOAD SWAP1 DUP2 MSTORE PUSH32 0x46D58E3FA07BF19B1D27240F0E286B27E9F7C1B0D88933333FE833B60EEC5412 SWAP1 PUSH1 0x20 ADD PUSH2 0xACC JUMP JUMPDEST PUSH2 0x1B2D PUSH2 0x2675 JUMP JUMPDEST PUSH1 0x0 PUSH2 0x1B37 PUSH2 0x19A6 JUMP JUMPDEST SWAP1 POP DUP1 ISZERO PUSH2 0xB08 JUMPI PUSH1 0xA9 SLOAD PUSH1 0x0 SWAP1 PUSH2 0x1B4F DUP2 DUP5 PUSH2 0x3307 JUMP JUMPDEST PUSH2 0x1B59 SWAP2 SWAP1 PUSH2 0x3329 JUMP JUMPDEST SWAP1 POP DUP1 ISZERO PUSH2 0x1C6D JUMPI PUSH1 0xA8 SLOAD PUSH1 0x40 MLOAD PUSH4 0x11F9FBC9 PUSH1 0xE2 SHL DUP2 MSTORE ADDRESS PUSH1 0x4 DUP3 ADD MSTORE PUSH1 0x24 DUP2 ADD DUP4 SWAP1 MSTORE PUSH1 0x1 PUSH1 0x1 PUSH1 0xA0 SHL SUB SWAP1 SWAP2 AND SWAP1 PUSH4 0x47E7EF24 SWAP1 PUSH1 0x44 ADD PUSH1 0x20 PUSH1 0x40 MLOAD DUP1 DUP4 SUB DUP2 PUSH1 0x0 DUP8 GAS CALL ISZERO DUP1 ISZERO PUSH2 0x1BB2 JUMPI RETURNDATASIZE PUSH1 0x0 DUP1 RETURNDATACOPY RETURNDATASIZE PUSH1 0x0 REVERT JUMPDEST POP POP POP POP PUSH1 0x40 MLOAD RETURNDATASIZE PUSH1 0x1F NOT PUSH1 0x1F DUP3 ADD AND DUP3 ADD DUP1 PUSH1 0x40 MSTORE POP DUP2 ADD SWAP1 PUSH2 0x1BD6 SWAP2 SWAP1 PUSH2 0x3140 JUMP JUMPDEST POP PUSH1 0xA7 SLOAD PUSH1 0xA2 SLOAD PUSH1 0x40 MLOAD PUSH4 0x11F9FBC9 PUSH1 0xE2 SHL DUP2 MSTORE PUSH1 0x1 PUSH1 0x1 PUSH1 0xA0 SHL SUB SWAP2 DUP3 AND PUSH1 0x4 DUP3 ADD MSTORE PUSH1 0x24 DUP2 ADD DUP5 SWAP1 MSTORE PUSH2 0x100 SWAP1 SWAP3 DIV AND SWAP1 PUSH4 0x47E7EF24 SWAP1 PUSH1 0x44 ADD PUSH1 0x0 PUSH1 0x40 MLOAD DUP1 DUP4 SUB DUP2 PUSH1 0x0 DUP8 DUP1 EXTCODESIZE ISZERO DUP1 ISZERO PUSH2 0x1C2C JUMPI PUSH1 0x0 DUP1 REVERT JUMPDEST POP GAS CALL ISZERO DUP1 ISZERO PUSH2 0x1C40 JUMPI RETURNDATASIZE PUSH1 0x0 DUP1 RETURNDATACOPY RETURNDATASIZE PUSH1 0x0 REVERT JUMPDEST POP POP POP POP PUSH32 0x4D6CE1E535DBADE1C23DEFBA91E23B8F791CE5EDC0CC320257A2B364E4E38426 PUSH2 0x11E8 PUSH2 0x1526 JUMP JUMPDEST POP POP JUMP JUMPDEST PUSH2 0x1958 PUSH2 0x1F39 JUMP JUMPDEST PUSH1 0x0 PUSH2 0x1C87 PUSH1 0x65 SLOAD PUSH1 0xFF AND SWAP1 JUMP JUMPDEST PUSH2 0x1C92 JUMPI POP PUSH1 0x9D SLOAD SWAP1 JUMP JUMPDEST POP PUSH1 0x0 SWAP1 JUMP JUMPDEST PUSH2 0x1CA0 PUSH2 0x1F39 JUMP JUMPDEST PUSH1 0x1 PUSH1 0x1 PUSH1 0xA0 SHL SUB DUP2 AND PUSH2 0x1D05 JUMPI PUSH1 0x40 MLOAD PUSH3 0x461BCD PUSH1 0xE5 SHL DUP2 MSTORE PUSH1 0x20 PUSH1 0x4 DUP3 ADD MSTORE PUSH1 0x26 PUSH1 0x24 DUP3 ADD MSTORE PUSH32 0x4F776E61626C653A206E6577206F776E657220697320746865207A65726F2061 PUSH1 0x44 DUP3 ADD MSTORE PUSH6 0x646472657373 PUSH1 0xD0 SHL PUSH1 0x64 DUP3 ADD MSTORE PUSH1 0x84 ADD PUSH2 0xC29 JUMP JUMPDEST PUSH2 0xB08 DUP2 PUSH2 0x248E JUMP JUMPDEST PUSH1 0x9E DUP2 DUP2 SLOAD DUP2 LT PUSH2 0x1D1E JUMPI PUSH1 0x0 DUP1 REVERT JUMPDEST PUSH1 0x0 SWAP2 DUP3 MSTORE PUSH1 0x20 SWAP1 SWAP2 KECCAK256 ADD SLOAD PUSH1 0x1 PUSH1 0x1 PUSH1 0xA0 SHL SUB AND SWAP1 POP DUP2 JUMP JUMPDEST PUSH1 0x97 SLOAD PUSH1 0x1 PUSH1 0x1 PUSH1 0xA0 SHL SUB AND CALLER EQ PUSH2 0x1D62 JUMPI PUSH1 0x40 MLOAD PUSH3 0x461BCD PUSH1 0xE5 SHL DUP2 MSTORE PUSH1 0x4 ADD PUSH2 0xC29 SWAP1 PUSH2 0x32E7 JUMP JUMPDEST PUSH1 0xA7 SLOAD PUSH1 0xA2 SLOAD PUSH1 0x40 MLOAD PUSH4 0x1BFC726F PUSH1 0xE2 SHL DUP2 MSTORE PUSH1 0x1 PUSH1 0x1 PUSH1 0xA0 SHL SUB SWAP2 DUP3 AND PUSH1 0x4 DUP3 ADD MSTORE PUSH2 0x100 SWAP1 SWAP3 DIV AND SWAP1 PUSH4 0x6FF1C9BC SWAP1 PUSH1 0x24 ADD PUSH1 0x0 PUSH1 0x40 MLOAD DUP1 DUP4 SUB DUP2 PUSH1 0x0 DUP8 DUP1 EXTCODESIZE ISZERO DUP1 ISZERO PUSH2 0x1DB0 JUMPI PUSH1 0x0 DUP1 REVERT JUMPDEST POP GAS CALL ISZERO DUP1 ISZERO PUSH2 0x1DC4 JUMPI RETURNDATASIZE PUSH1 0x0 DUP1 RETURNDATACOPY RETURNDATASIZE PUSH1 0x0 REVERT JUMPDEST POP POP PUSH1 0xA8 SLOAD PUSH1 0xA2 SLOAD PUSH1 0x40 MLOAD PUSH4 0x70A08231 PUSH1 0xE0 SHL DUP2 MSTORE ADDRESS PUSH1 0x4 DUP3 ADD MSTORE PUSH1 0x1 PUSH1 0x1 PUSH1 0xA0 SHL SUB SWAP3 DUP4 AND SWAP5 POP PUSH4 0x7BDE82F2 SWAP4 POP SWAP2 AND SWAP1 PUSH4 0x70A08231 SWAP1 PUSH1 0x24 ADD PUSH1 0x20 PUSH1 0x40 MLOAD DUP1 DUP4 SUB DUP2 DUP7 GAS STATICCALL ISZERO DUP1 ISZERO PUSH2 0x1E1C JUMPI RETURNDATASIZE PUSH1 0x0 DUP1 RETURNDATACOPY RETURNDATASIZE PUSH1 0x0 REVERT JUMPDEST POP POP POP POP PUSH1 0x40 MLOAD RETURNDATASIZE PUSH1 0x1F NOT PUSH1 0x1F DUP3 ADD AND DUP3 ADD DUP1 PUSH1 0x40 MSTORE POP DUP2 ADD SWAP1 PUSH2 0x1E40 SWAP2 SWAP1 PUSH2 0x3140 JUMP JUMPDEST PUSH1 0x40 MLOAD PUSH1 0x1 PUSH1 0x1 PUSH1 0xE0 SHL SUB NOT PUSH1 0xE0 DUP5 SWAP1 SHL AND DUP2 MSTORE PUSH1 0x4 DUP2 ADD SWAP2 SWAP1 SWAP2 MSTORE ADDRESS PUSH1 0x24 DUP3 ADD MSTORE PUSH1 0x44 ADD PUSH1 0x20 PUSH1 0x40 MLOAD DUP1 DUP4 SUB DUP2 PUSH1 0x0 DUP8 GAS CALL ISZERO DUP1 ISZERO PUSH2 0x1E84 JUMPI RETURNDATASIZE PUSH1 0x0 DUP1 RETURNDATACOPY RETURNDATASIZE PUSH1 0x0 REVERT JUMPDEST POP POP POP POP PUSH1 0x40 MLOAD RETURNDATASIZE PUSH1 0x1F NOT PUSH1 0x1F DUP3 ADD AND DUP3 ADD DUP1 PUSH1 0x40 MSTORE POP DUP2 ADD SWAP1 PUSH2 0x1EA8 SWAP2 SWAP1 PUSH2 0x3140 JUMP JUMPDEST POP PUSH1 0xA0 SLOAD PUSH1 0x97 SLOAD PUSH1 0x1 PUSH1 0x1 PUSH1 0xA0 SHL SUB SWAP2 DUP3 AND SWAP2 PUSH4 0xA9059CBB SWAP2 AND PUSH2 0x1ECA PUSH2 0x19A6 JUMP JUMPDEST PUSH1 0x40 MLOAD PUSH1 0x1 PUSH1 0x1 PUSH1 0xE0 SHL SUB NOT PUSH1 0xE0 DUP6 SWAP1 SHL AND DUP2 MSTORE PUSH1 0x1 PUSH1 0x1 PUSH1 0xA0 SHL SUB SWAP1 SWAP3 AND PUSH1 0x4 DUP4 ADD MSTORE PUSH1 0x24 DUP3 ADD MSTORE PUSH1 0x44 ADD PUSH1 0x20 PUSH1 0x40 MLOAD DUP1 DUP4 SUB DUP2 PUSH1 0x0 DUP8 GAS CALL ISZERO DUP1 ISZERO PUSH2 0x1F15 JUMPI RETURNDATASIZE PUSH1 0x0 DUP1 RETURNDATACOPY RETURNDATASIZE PUSH1 0x0 REVERT JUMPDEST POP POP POP POP PUSH1 0x40 MLOAD RETURNDATASIZE PUSH1 0x1F NOT PUSH1 0x1F DUP3 ADD AND DUP3 ADD DUP1 PUSH1 0x40 MSTORE POP DUP2 ADD SWAP1 PUSH2 0xB08 SWAP2 SWAP1 PUSH2 0x3379 JUMP JUMPDEST PUSH1 0x33 SLOAD PUSH1 0x1 PUSH1 0x1 PUSH1 0xA0 SHL SUB AND CALLER EQ PUSH2 0x12B4 JUMPI PUSH1 0x40 MLOAD PUSH3 0x461BCD PUSH1 0xE5 SHL DUP2 MSTORE PUSH1 0x20 PUSH1 0x4 DUP3 ADD DUP2 SWAP1 MSTORE PUSH1 0x24 DUP3 ADD MSTORE PUSH32 0x4F776E61626C653A2063616C6C6572206973206E6F7420746865206F776E6572 PUSH1 0x44 DUP3 ADD MSTORE PUSH1 0x64 ADD PUSH2 0xC29 JUMP JUMPDEST PUSH1 0x33 SLOAD PUSH1 0x1 PUSH1 0x1 PUSH1 0xA0 SHL SUB AND CALLER EQ DUP1 PUSH2 0x1FB6 JUMPI POP PUSH1 0x99 SLOAD PUSH1 0x1 PUSH1 0x1 PUSH1 0xA0 SHL SUB AND CALLER EQ JUMPDEST PUSH2 0x12B4 JUMPI PUSH1 0x40 MLOAD PUSH3 0x461BCD PUSH1 0xE5 SHL DUP2 MSTORE PUSH1 0x20 PUSH1 0x4 DUP3 ADD MSTORE PUSH1 0x8 PUSH1 0x24 DUP3 ADD MSTORE PUSH8 0x10B6B0B730B3B2B9 PUSH1 0xC1 SHL PUSH1 0x44 DUP3 ADD MSTORE PUSH1 0x64 ADD PUSH2 0xC29 JUMP JUMPDEST PUSH1 0x0 SLOAD PUSH2 0x100 SWAP1 DIV PUSH1 0xFF AND PUSH2 0x2014 JUMPI PUSH1 0x40 MLOAD PUSH3 0x461BCD PUSH1 0xE5 SHL DUP2 MSTORE PUSH1 0x4 ADD PUSH2 0xC29 SWAP1 PUSH2 0x3396 JUMP JUMPDEST PUSH2 0x201C PUSH2 0x26BB JUMP JUMPDEST PUSH2 0x2024 PUSH2 0x26EA JUMP JUMPDEST PUSH2 0x2031 PUSH1 0x20 DUP3 ADD DUP3 PUSH2 0x2F25 JUMP JUMPDEST PUSH1 0x97 DUP1 SLOAD PUSH1 0x1 PUSH1 0x1 PUSH1 0xA0 SHL SUB NOT AND PUSH1 0x1 PUSH1 0x1 PUSH1 0xA0 SHL SUB SWAP3 SWAP1 SWAP3 AND SWAP2 SWAP1 SWAP2 OR SWAP1 SSTORE PUSH2 0x2061 PUSH1 0x40 DUP3 ADD PUSH1 0x20 DUP4 ADD PUSH2 0x2F25 JUMP JUMPDEST PUSH1 0x98 DUP1 SLOAD PUSH1 0x1 PUSH1 0x1 PUSH1 0xA0 SHL SUB NOT AND PUSH1 0x1 PUSH1 0x1 PUSH1 0xA0 SHL SUB SWAP3 SWAP1 SWAP3 AND SWAP2 SWAP1 SWAP2 OR SWAP1 SSTORE PUSH2 0x2091 PUSH1 0x60 DUP3 ADD PUSH1 0x40 DUP4 ADD PUSH2 0x2F25 JUMP JUMPDEST PUSH1 0x99 DUP1 SLOAD PUSH1 0x1 PUSH1 0x1 PUSH1 0xA0 SHL SUB NOT AND PUSH1 0x1 PUSH1 0x1 PUSH1 0xA0 SHL SUB SWAP3 SWAP1 SWAP3 AND SWAP2 SWAP1 SWAP2 OR SWAP1 SSTORE PUSH2 0x20C1 PUSH1 0x80 DUP3 ADD PUSH1 0x60 DUP4 ADD PUSH2 0x2F25 JUMP JUMPDEST PUSH1 0x9A DUP1 SLOAD PUSH1 0x1 PUSH1 0x1 PUSH1 0xA0 SHL SUB NOT AND PUSH1 0x1 PUSH1 0x1 PUSH1 0xA0 SHL SUB SWAP3 SWAP1 SWAP3 AND SWAP2 SWAP1 SWAP2 OR SWAP1 SSTORE PUSH2 0x20F1 PUSH1 0xA0 DUP3 ADD PUSH1 0x80 DUP4 ADD PUSH2 0x2F25 JUMP JUMPDEST PUSH1 0x9B DUP1 SLOAD PUSH1 0x1 PUSH1 0x1 PUSH1 0xA0 SHL SUB NOT AND PUSH1 0x1 PUSH1 0x1 PUSH1 0xA0 SHL SUB SWAP3 SWAP1 SWAP3 AND SWAP2 SWAP1 SWAP2 OR SWAP1 SSTORE PUSH2 0x2121 PUSH1 0xC0 DUP3 ADD PUSH1 0xA0 DUP4 ADD PUSH2 0x2F25 JUMP JUMPDEST PUSH1 0x9C DUP1 SLOAD PUSH1 0x1 PUSH1 0x1 PUSH1 0xA0 SHL SUB NOT AND PUSH1 0x1 PUSH1 0x1 PUSH1 0xA0 SHL SUB SWAP3 SWAP1 SWAP3 AND SWAP2 SWAP1 SWAP2 OR SWAP1 SSTORE POP PUSH1 0xA PUSH1 0x9D SSTORE JUMP JUMPDEST PUSH1 0xA8 SLOAD PUSH1 0xA0 SLOAD PUSH2 0x2168 SWAP2 PUSH1 0x1 PUSH1 0x1 PUSH1 0xA0 SHL SUB SWAP2 DUP3 AND SWAP2 AND PUSH1 0x0 NOT PUSH2 0x2719 JUMP JUMPDEST PUSH1 0xA7 SLOAD PUSH1 0xA2 SLOAD PUSH2 0x218D SWAP2 PUSH1 0x1 PUSH1 0x1 PUSH1 0xA0 SHL SUB SWAP2 DUP3 AND SWAP2 PUSH2 0x100 SWAP1 SWAP2 DIV AND PUSH1 0x0 NOT PUSH2 0x2719 JUMP JUMPDEST PUSH1 0x98 SLOAD PUSH1 0xA1 SLOAD PUSH2 0x21AC SWAP2 PUSH1 0x1 PUSH1 0x1 PUSH1 0xA0 SHL SUB SWAP2 DUP3 AND SWAP2 AND PUSH1 0x0 NOT PUSH2 0x2719 JUMP JUMPDEST PUSH1 0x0 JUMPDEST PUSH1 0x9E SLOAD DUP2 LT ISZERO PUSH2 0xB08 JUMPI PUSH1 0x98 SLOAD PUSH1 0x9E DUP1 SLOAD PUSH2 0x21FD SWAP3 PUSH1 0x1 PUSH1 0x1 PUSH1 0xA0 SHL SUB AND SWAP2 PUSH1 0x0 SWAP2 DUP6 SWAP1 DUP2 LT PUSH2 0x21E1 JUMPI PUSH2 0x21E1 PUSH2 0x32B8 JUMP JUMPDEST PUSH1 0x0 SWAP2 DUP3 MSTORE PUSH1 0x20 SWAP1 SWAP2 KECCAK256 ADD SLOAD PUSH1 0x1 PUSH1 0x1 PUSH1 0xA0 SHL SUB AND SWAP2 SWAP1 PUSH2 0x2719 JUMP JUMPDEST PUSH1 0x98 SLOAD PUSH1 0x9E DUP1 SLOAD PUSH2 0x2226 SWAP3 PUSH1 0x1 PUSH1 0x1 PUSH1 0xA0 SHL SUB AND SWAP2 PUSH1 0x0 NOT SWAP2 DUP6 SWAP1 DUP2 LT PUSH2 0x21E1 JUMPI PUSH2 0x21E1 PUSH2 0x32B8 JUMP JUMPDEST DUP1 PUSH2 0x2230 DUP2 PUSH2 0x32CE JUMP JUMPDEST SWAP2 POP POP PUSH2 0x21AF JUMP JUMPDEST PUSH1 0x40 MLOAD PUSH1 0x1 PUSH1 0x1 PUSH1 0xA0 SHL SUB DUP4 AND PUSH1 0x24 DUP3 ADD MSTORE PUSH1 0x44 DUP2 ADD DUP3 SWAP1 MSTORE PUSH2 0x229B SWAP1 DUP5 SWAP1 PUSH4 0xA9059CBB PUSH1 0xE0 SHL SWAP1 PUSH1 0x64 ADD JUMPDEST PUSH1 0x40 DUP1 MLOAD PUSH1 0x1F NOT DUP2 DUP5 SUB ADD DUP2 MSTORE SWAP2 SWAP1 MSTORE PUSH1 0x20 DUP2 ADD DUP1 MLOAD PUSH1 0x1 PUSH1 0x1 PUSH1 0xE0 SHL SUB AND PUSH1 0x1 PUSH1 0x1 PUSH1 0xE0 SHL SUB NOT SWAP1 SWAP4 AND SWAP3 SWAP1 SWAP3 OR SWAP1 SWAP2 MSTORE PUSH2 0x282E JUMP JUMPDEST POP POP POP JUMP JUMPDEST PUSH2 0x22A8 PUSH2 0x2900 JUMP JUMPDEST PUSH1 0x65 DUP1 SLOAD PUSH1 0xFF NOT AND SWAP1 SSTORE PUSH32 0x5DB9EE0A495BF2E6FF9C91A7834C1BA4FDD244A5E8AA4E537BD38AEAE4B073AA CALLER JUMPDEST PUSH1 0x40 MLOAD PUSH1 0x1 PUSH1 0x1 PUSH1 0xA0 SHL SUB SWAP1 SWAP2 AND DUP2 MSTORE PUSH1 0x20 ADD PUSH1 0x40 MLOAD DUP1 SWAP2 SUB SWAP1 LOG1 JUMP JUMPDEST PUSH2 0x22FA PUSH2 0x2675 JUMP JUMPDEST PUSH1 0x0 PUSH2 0x2304 PUSH2 0x19A6 JUMP JUMPDEST PUSH1 0xA7 SLOAD PUSH1 0x40 MLOAD PUSH4 0x318D9E5D PUSH1 0xE0 SHL DUP2 MSTORE SWAP2 SWAP3 POP PUSH2 0x100 SWAP1 DIV PUSH1 0x1 PUSH1 0x1 PUSH1 0xA0 SHL SUB AND SWAP1 PUSH4 0x318D9E5D SWAP1 PUSH2 0x233B SWAP1 PUSH1 0xA3 SWAP1 PUSH1 0x4 ADD PUSH2 0x33E1 JUMP JUMPDEST PUSH1 0x0 PUSH1 0x40 MLOAD DUP1 DUP4 SUB DUP2 PUSH1 0x0 DUP8 DUP1 EXTCODESIZE ISZERO DUP1 ISZERO PUSH2 0x2355 JUMPI PUSH1 0x0 DUP1 REVERT JUMPDEST POP GAS CALL ISZERO DUP1 ISZERO PUSH2 0x2369 JUMPI RETURNDATASIZE PUSH1 0x0 DUP1 RETURNDATACOPY RETURNDATASIZE PUSH1 0x0 REVERT JUMPDEST POP POP POP POP PUSH2 0x2375 PUSH2 0x2949 JUMP JUMPDEST PUSH1 0xA1 SLOAD PUSH1 0x40 MLOAD PUSH4 0x70A08231 PUSH1 0xE0 SHL DUP2 MSTORE ADDRESS PUSH1 0x4 DUP3 ADD MSTORE PUSH1 0x0 SWAP2 PUSH1 0x1 PUSH1 0x1 PUSH1 0xA0 SHL SUB AND SWAP1 PUSH4 0x70A08231 SWAP1 PUSH1 0x24 ADD PUSH1 0x20 PUSH1 0x40 MLOAD DUP1 DUP4 SUB DUP2 DUP7 GAS STATICCALL ISZERO DUP1 ISZERO PUSH2 0x23BE JUMPI RETURNDATASIZE PUSH1 0x0 DUP1 RETURNDATACOPY RETURNDATASIZE PUSH1 0x0 REVERT JUMPDEST POP POP POP POP PUSH1 0x40 MLOAD RETURNDATASIZE PUSH1 0x1F NOT PUSH1 0x1F DUP3 ADD AND DUP3 ADD DUP1 PUSH1 0x40 MSTORE POP DUP2 ADD SWAP1 PUSH2 0x23E2 SWAP2 SWAP1 PUSH2 0x3140 JUMP JUMPDEST SWAP1 POP DUP1 ISZERO PUSH2 0x1C6D JUMPI PUSH2 0x23F2 PUSH2 0x2A9B JUMP JUMPDEST PUSH1 0xA1 SLOAD PUSH1 0xA0 SLOAD PUSH2 0x240E SWAP2 PUSH1 0x1 PUSH1 0x1 PUSH1 0xA0 SHL SUB SWAP1 DUP2 AND SWAP2 AND PUSH2 0x2BB5 JUMP JUMPDEST PUSH1 0x0 DUP3 PUSH2 0x2419 PUSH2 0x19A6 JUMP JUMPDEST PUSH2 0x2423 SWAP2 SWAP1 PUSH2 0x31AF JUMP JUMPDEST SWAP1 POP PUSH2 0x242D PUSH2 0x12B6 JUMP JUMPDEST PUSH2 0x2437 SWAP1 DUP3 PUSH2 0x3340 JUMP JUMPDEST PUSH1 0xA5 SSTORE TIMESTAMP PUSH1 0xA4 SSTORE PUSH2 0x2446 PUSH2 0x1B25 JUMP JUMPDEST CALLER PUSH32 0x9BC239F1724CACFB88CB1D66A2DC437467699B68A8C90D7B63110CF4B6F92410 DUP3 PUSH2 0x2471 PUSH2 0x1526 JUMP JUMPDEST PUSH1 0x40 DUP1 MLOAD SWAP3 DUP4 MSTORE PUSH1 0x20 DUP4 ADD SWAP2 SWAP1 SWAP2 MSTORE ADD PUSH1 0x40 MLOAD DUP1 SWAP2 SUB SWAP1 LOG2 POP POP POP JUMP JUMPDEST PUSH1 0x33 DUP1 SLOAD PUSH1 0x1 PUSH1 0x1 PUSH1 0xA0 SHL SUB DUP4 DUP2 AND PUSH1 0x1 PUSH1 0x1 PUSH1 0xA0 SHL SUB NOT DUP4 AND DUP2 OR SWAP1 SWAP4 SSTORE PUSH1 0x40 MLOAD SWAP2 AND SWAP2 SWAP1 DUP3 SWAP1 PUSH32 0x8BE0079C531659141344CD1FD0A4F28419497F9722A3DAAFE3B4186F6B6457E0 SWAP1 PUSH1 0x0 SWAP1 LOG3 POP POP JUMP JUMPDEST PUSH2 0x24E8 PUSH2 0x2675 JUMP JUMPDEST PUSH1 0x65 DUP1 SLOAD PUSH1 0xFF NOT AND PUSH1 0x1 OR SWAP1 SSTORE PUSH32 0x62E78CEA01BEE320CD4E420270B5EA74000D11B0C9F74754EBDBFC544B05A258 PUSH2 0x22D5 CALLER SWAP1 JUMP JUMPDEST PUSH1 0xA8 SLOAD PUSH1 0xA0 SLOAD PUSH2 0x253B SWAP2 PUSH1 0x1 PUSH1 0x1 PUSH1 0xA0 SHL SUB SWAP2 DUP3 AND SWAP2 AND PUSH1 0x0 PUSH2 0x2719 JUMP JUMPDEST PUSH1 0xA7 SLOAD PUSH1 0xA2 SLOAD PUSH2 0x255F SWAP2 PUSH1 0x1 PUSH1 0x1 PUSH1 0xA0 SHL SUB SWAP2 DUP3 AND SWAP2 PUSH2 0x100 SWAP1 SWAP2 DIV AND PUSH1 0x0 PUSH2 0x2719 JUMP JUMPDEST PUSH1 0x98 SLOAD PUSH1 0xA1 SLOAD PUSH2 0x257D SWAP2 PUSH1 0x1 PUSH1 0x1 PUSH1 0xA0 SHL SUB SWAP2 DUP3 AND SWAP2 AND PUSH1 0x0 PUSH2 0x2719 JUMP JUMPDEST PUSH1 0x0 JUMPDEST PUSH1 0x9E SLOAD DUP2 LT ISZERO PUSH2 0xB08 JUMPI PUSH1 0x98 SLOAD PUSH1 0x9E DUP1 SLOAD PUSH2 0x25B2 SWAP3 PUSH1 0x1 PUSH1 0x1 PUSH1 0xA0 SHL SUB AND SWAP2 PUSH1 0x0 SWAP2 DUP6 SWAP1 DUP2 LT PUSH2 0x21E1 JUMPI PUSH2 0x21E1 PUSH2 0x32B8 JUMP JUMPDEST DUP1 PUSH2 0x25BC DUP2 PUSH2 0x32CE JUMP JUMPDEST SWAP2 POP POP PUSH2 0x2580 JUMP JUMPDEST PUSH2 0x229B PUSH1 0x1 PUSH1 0x1 PUSH1 0xA0 SHL SUB DUP5 AND DUP4 DUP4 PUSH2 0x2719 JUMP JUMPDEST PUSH2 0x2605 PUSH1 0x40 MLOAD DUP1 PUSH1 0x80 ADD PUSH1 0x40 MSTORE DUP1 PUSH1 0x0 DUP2 MSTORE PUSH1 0x20 ADD PUSH1 0x0 DUP2 MSTORE PUSH1 0x20 ADD PUSH1 0x60 DUP2 MSTORE PUSH1 0x20 ADD PUSH1 0x0 ISZERO ISZERO DUP2 MSTORE POP SWAP1 JUMP JUMPDEST PUSH1 0x9C SLOAD PUSH1 0x40 MLOAD PUSH4 0x9AF608C9 PUSH1 0xE0 SHL DUP2 MSTORE ADDRESS PUSH1 0x4 DUP3 ADD MSTORE PUSH1 0x1 PUSH1 0x1 PUSH1 0xA0 SHL SUB SWAP1 SWAP2 AND SWAP1 PUSH4 0x9AF608C9 SWAP1 PUSH1 0x24 ADD PUSH1 0x0 PUSH1 0x40 MLOAD DUP1 DUP4 SUB DUP2 DUP7 GAS STATICCALL ISZERO DUP1 ISZERO PUSH2 0x264D JUMPI RETURNDATASIZE PUSH1 0x0 DUP1 RETURNDATACOPY RETURNDATASIZE PUSH1 0x0 REVERT JUMPDEST POP POP POP POP PUSH1 0x40 MLOAD RETURNDATASIZE PUSH1 0x0 DUP3 RETURNDATACOPY PUSH1 0x1F RETURNDATASIZE SWAP1 DUP2 ADD PUSH1 0x1F NOT AND DUP3 ADD PUSH1 0x40 MSTORE PUSH2 0xB8B SWAP2 SWAP1 DUP2 ADD SWAP1 PUSH2 0x34A1 JUMP JUMPDEST PUSH1 0x65 SLOAD PUSH1 0xFF AND ISZERO PUSH2 0x12B4 JUMPI PUSH1 0x40 MLOAD PUSH3 0x461BCD PUSH1 0xE5 SHL DUP2 MSTORE PUSH1 0x20 PUSH1 0x4 DUP3 ADD MSTORE PUSH1 0x10 PUSH1 0x24 DUP3 ADD MSTORE PUSH16 0x14185D5CD8589B194E881C185D5CD959 PUSH1 0x82 SHL PUSH1 0x44 DUP3 ADD MSTORE PUSH1 0x64 ADD PUSH2 0xC29 JUMP JUMPDEST PUSH1 0x0 SLOAD PUSH2 0x100 SWAP1 DIV PUSH1 0xFF AND PUSH2 0x26E2 JUMPI PUSH1 0x40 MLOAD PUSH3 0x461BCD PUSH1 0xE5 SHL DUP2 MSTORE PUSH1 0x4 ADD PUSH2 0xC29 SWAP1 PUSH2 0x3396 JUMP JUMPDEST PUSH2 0x12B4 PUSH2 0x2CA7 JUMP JUMPDEST PUSH1 0x0 SLOAD PUSH2 0x100 SWAP1 DIV PUSH1 0xFF AND PUSH2 0x2711 JUMPI PUSH1 0x40 MLOAD PUSH3 0x461BCD PUSH1 0xE5 SHL DUP2 MSTORE PUSH1 0x4 ADD PUSH2 0xC29 SWAP1 PUSH2 0x3396 JUMP JUMPDEST PUSH2 0x12B4 PUSH2 0x2CD7 JUMP JUMPDEST DUP1 ISZERO DUP1 PUSH2 0x2793 JUMPI POP PUSH1 0x40 MLOAD PUSH4 0x6EB1769F PUSH1 0xE1 SHL DUP2 MSTORE ADDRESS PUSH1 0x4 DUP3 ADD MSTORE PUSH1 0x1 PUSH1 0x1 PUSH1 0xA0 SHL SUB DUP4 DUP2 AND PUSH1 0x24 DUP4 ADD MSTORE DUP5 AND SWAP1 PUSH4 0xDD62ED3E SWAP1 PUSH1 0x44 ADD PUSH1 0x20 PUSH1 0x40 MLOAD DUP1 DUP4 SUB DUP2 DUP7 GAS STATICCALL ISZERO DUP1 ISZERO PUSH2 0x276D JUMPI RETURNDATASIZE PUSH1 0x0 DUP1 RETURNDATACOPY RETURNDATASIZE PUSH1 0x0 REVERT JUMPDEST POP POP POP POP PUSH1 0x40 MLOAD RETURNDATASIZE PUSH1 0x1F NOT PUSH1 0x1F DUP3 ADD AND DUP3 ADD DUP1 PUSH1 0x40 MSTORE POP DUP2 ADD SWAP1 PUSH2 0x2791 SWAP2 SWAP1 PUSH2 0x3140 JUMP JUMPDEST ISZERO JUMPDEST PUSH2 0x27FE JUMPI PUSH1 0x40 MLOAD PUSH3 0x461BCD PUSH1 0xE5 SHL DUP2 MSTORE PUSH1 0x20 PUSH1 0x4 DUP3 ADD MSTORE PUSH1 0x36 PUSH1 0x24 DUP3 ADD MSTORE PUSH32 0x5361666545524332303A20617070726F76652066726F6D206E6F6E2D7A65726F PUSH1 0x44 DUP3 ADD MSTORE PUSH22 0x20746F206E6F6E2D7A65726F20616C6C6F77616E6365 PUSH1 0x50 SHL PUSH1 0x64 DUP3 ADD MSTORE PUSH1 0x84 ADD PUSH2 0xC29 JUMP JUMPDEST PUSH1 0x40 MLOAD PUSH1 0x1 PUSH1 0x1 PUSH1 0xA0 SHL SUB DUP4 AND PUSH1 0x24 DUP3 ADD MSTORE PUSH1 0x44 DUP2 ADD DUP3 SWAP1 MSTORE PUSH2 0x229B SWAP1 DUP5 SWAP1 PUSH4 0x95EA7B3 PUSH1 0xE0 SHL SWAP1 PUSH1 0x64 ADD PUSH2 0x2264 JUMP JUMPDEST PUSH1 0x0 PUSH2 0x2883 DUP3 PUSH1 0x40 MLOAD DUP1 PUSH1 0x40 ADD PUSH1 0x40 MSTORE DUP1 PUSH1 0x20 DUP2 MSTORE PUSH1 0x20 ADD PUSH32 0x5361666545524332303A206C6F772D6C6576656C2063616C6C206661696C6564 DUP2 MSTORE POP DUP6 PUSH1 0x1 PUSH1 0x1 PUSH1 0xA0 SHL SUB AND PUSH2 0x2D0A SWAP1 SWAP3 SWAP2 SWAP1 PUSH4 0xFFFFFFFF AND JUMP JUMPDEST DUP1 MLOAD SWAP1 SWAP2 POP ISZERO PUSH2 0x229B JUMPI DUP1 DUP1 PUSH1 0x20 ADD SWAP1 MLOAD DUP2 ADD SWAP1 PUSH2 0x28A1 SWAP2 SWAP1 PUSH2 0x3379 JUMP JUMPDEST PUSH2 0x229B JUMPI PUSH1 0x40 MLOAD PUSH3 0x461BCD PUSH1 0xE5 SHL DUP2 MSTORE PUSH1 0x20 PUSH1 0x4 DUP3 ADD MSTORE PUSH1 0x2A PUSH1 0x24 DUP3 ADD MSTORE PUSH32 0x5361666545524332303A204552433230206F7065726174696F6E20646964206E PUSH1 0x44 DUP3 ADD MSTORE PUSH10 0x1BDD081CDD58D8D95959 PUSH1 0xB2 SHL PUSH1 0x64 DUP3 ADD MSTORE PUSH1 0x84 ADD PUSH2 0xC29 JUMP JUMPDEST PUSH1 0x65 SLOAD PUSH1 0xFF AND PUSH2 0x12B4 JUMPI PUSH1 0x40 MLOAD PUSH3 0x461BCD PUSH1 0xE5 SHL DUP2 MSTORE PUSH1 0x20 PUSH1 0x4 DUP3 ADD MSTORE PUSH1 0x14 PUSH1 0x24 DUP3 ADD MSTORE PUSH20 0x14185D5CD8589B194E881B9BDD081C185D5CD959 PUSH1 0x62 SHL PUSH1 0x44 DUP3 ADD MSTORE PUSH1 0x64 ADD PUSH2 0xC29 JUMP JUMPDEST PUSH1 0x0 JUMPDEST PUSH1 0x9E SLOAD DUP2 LT ISZERO PUSH2 0xB08 JUMPI PUSH1 0x0 PUSH1 0x9E DUP3 DUP2 SLOAD DUP2 LT PUSH2 0x296B JUMPI PUSH2 0x296B PUSH2 0x32B8 JUMP JUMPDEST PUSH1 0x0 SWAP2 DUP3 MSTORE PUSH1 0x20 DUP3 KECCAK256 ADD SLOAD PUSH1 0x40 MLOAD PUSH4 0x70A08231 PUSH1 0xE0 SHL DUP2 MSTORE ADDRESS PUSH1 0x4 DUP3 ADD MSTORE PUSH1 0x1 PUSH1 0x1 PUSH1 0xA0 SHL SUB SWAP1 SWAP2 AND SWAP3 POP DUP3 SWAP1 PUSH4 0x70A08231 SWAP1 PUSH1 0x24 ADD PUSH1 0x20 PUSH1 0x40 MLOAD DUP1 DUP4 SUB DUP2 DUP7 GAS STATICCALL ISZERO DUP1 ISZERO PUSH2 0x29BE JUMPI RETURNDATASIZE PUSH1 0x0 DUP1 RETURNDATACOPY RETURNDATASIZE PUSH1 0x0 REVERT JUMPDEST POP POP POP POP PUSH1 0x40 MLOAD RETURNDATASIZE PUSH1 0x1F NOT PUSH1 0x1F DUP3 ADD AND DUP3 ADD DUP1 PUSH1 0x40 MSTORE POP DUP2 ADD SWAP1 PUSH2 0x29E2 SWAP2 SWAP1 PUSH2 0x3140 JUMP JUMPDEST PUSH1 0x1 PUSH1 0x1 PUSH1 0xA0 SHL SUB DUP4 AND PUSH1 0x0 SWAP1 DUP2 MSTORE PUSH1 0x9F PUSH1 0x20 MSTORE PUSH1 0x40 SWAP1 KECCAK256 SLOAD SWAP1 SWAP2 POP DUP2 GT ISZERO PUSH2 0x2A88 JUMPI PUSH1 0x98 SLOAD PUSH1 0xA1 SLOAD PUSH1 0x40 MLOAD PUSH4 0xDF791E5 PUSH1 0xE4 SHL DUP2 MSTORE PUSH1 0x1 PUSH1 0x1 PUSH1 0xA0 SHL SUB DUP6 DUP2 AND PUSH1 0x4 DUP4 ADD MSTORE SWAP2 DUP3 AND PUSH1 0x24 DUP3 ADD MSTORE PUSH1 0x44 DUP2 ADD DUP5 SWAP1 MSTORE SWAP2 AND SWAP1 PUSH4 0xDF791E50 SWAP1 PUSH1 0x64 ADD PUSH1 0x20 PUSH1 0x40 MLOAD DUP1 DUP4 SUB DUP2 PUSH1 0x0 DUP8 GAS CALL ISZERO DUP1 ISZERO PUSH2 0x2A62 JUMPI RETURNDATASIZE PUSH1 0x0 DUP1 RETURNDATACOPY RETURNDATASIZE PUSH1 0x0 REVERT JUMPDEST POP POP POP POP PUSH1 0x40 MLOAD RETURNDATASIZE PUSH1 0x1F NOT PUSH1 0x1F DUP3 ADD AND DUP3 ADD DUP1 PUSH1 0x40 MSTORE POP DUP2 ADD SWAP1 PUSH2 0x2A86 SWAP2 SWAP1 PUSH2 0x3140 JUMP JUMPDEST POP JUMPDEST POP POP DUP1 PUSH2 0x2A94 SWAP1 PUSH2 0x32CE JUMP JUMPDEST SWAP1 POP PUSH2 0x294C JUMP JUMPDEST PUSH1 0x0 PUSH2 0x2AA5 PUSH2 0x25D8 JUMP JUMPDEST DUP1 MLOAD PUSH1 0xA1 SLOAD PUSH1 0x40 MLOAD PUSH4 0x70A08231 PUSH1 0xE0 SHL DUP2 MSTORE ADDRESS PUSH1 0x4 DUP3 ADD MSTORE SWAP3 SWAP4 POP PUSH1 0x0 SWAP3 PUSH8 0xDE0B6B3A7640000 SWAP3 SWAP2 PUSH1 0x1 PUSH1 0x1 PUSH1 0xA0 SHL SUB AND SWAP1 PUSH4 0x70A08231 SWAP1 PUSH1 0x24 ADD PUSH1 0x20 PUSH1 0x40 MLOAD DUP1 DUP4 SUB DUP2 DUP7 GAS STATICCALL ISZERO DUP1 ISZERO PUSH2 0x2AFE JUMPI RETURNDATASIZE PUSH1 0x0 DUP1 RETURNDATACOPY RETURNDATASIZE PUSH1 0x0 REVERT JUMPDEST POP POP POP POP PUSH1 0x40 MLOAD RETURNDATASIZE PUSH1 0x1F NOT PUSH1 0x1F DUP3 ADD AND DUP3 ADD DUP1 PUSH1 0x40 MSTORE POP DUP2 ADD SWAP1 PUSH2 0x2B22 SWAP2 SWAP1 PUSH2 0x3140 JUMP JUMPDEST PUSH2 0x2B2C SWAP2 SWAP1 PUSH2 0x3329 JUMP JUMPDEST PUSH2 0x2B36 SWAP2 SWAP1 PUSH2 0x3307 JUMP JUMPDEST SWAP1 POP PUSH1 0x0 PUSH8 0xDE0B6B3A7640000 DUP4 PUSH1 0x20 ADD MLOAD DUP4 PUSH2 0x2B53 SWAP2 SWAP1 PUSH2 0x3329 JUMP JUMPDEST PUSH2 0x2B5D SWAP2 SWAP1 PUSH2 0x3307 JUMP JUMPDEST PUSH1 0x9B SLOAD PUSH1 0xA1 SLOAD SWAP2 SWAP3 POP PUSH2 0x2B7D SWAP2 PUSH1 0x1 PUSH1 0x1 PUSH1 0xA0 SHL SUB SWAP1 DUP2 AND SWAP2 AND DUP4 PUSH2 0x2238 JUMP JUMPDEST PUSH1 0x40 MLOAD DUP2 DUP2 MSTORE PUSH32 0xED7213CD9FC239CB29C12591C13AC4D331A3C9BC3078DF030F89266F66AA3F6D SWAP1 PUSH1 0x20 ADD PUSH1 0x40 MLOAD DUP1 SWAP2 SUB SWAP1 LOG1 POP POP POP JUMP JUMPDEST PUSH1 0x40 MLOAD PUSH4 0x70A08231 PUSH1 0xE0 SHL DUP2 MSTORE ADDRESS PUSH1 0x4 DUP3 ADD MSTORE PUSH1 0x0 SWAP1 PUSH1 0x1 PUSH1 0x1 PUSH1 0xA0 SHL SUB DUP5 AND SWAP1 PUSH4 0x70A08231 SWAP1 PUSH1 0x24 ADD PUSH1 0x20 PUSH1 0x40 MLOAD DUP1 DUP4 SUB DUP2 DUP7 GAS STATICCALL ISZERO DUP1 ISZERO PUSH2 0x2BFC JUMPI RETURNDATASIZE PUSH1 0x0 DUP1 RETURNDATACOPY RETURNDATASIZE PUSH1 0x0 REVERT JUMPDEST POP POP POP POP PUSH1 0x40 MLOAD RETURNDATASIZE PUSH1 0x1F NOT PUSH1 0x1F DUP3 ADD AND DUP3 ADD DUP1 PUSH1 0x40 MSTORE POP DUP2 ADD SWAP1 PUSH2 0x2C20 SWAP2 SWAP1 PUSH2 0x3140 JUMP JUMPDEST PUSH1 0x98 SLOAD PUSH1 0x40 MLOAD PUSH4 0xDF791E5 PUSH1 0xE4 SHL DUP2 MSTORE PUSH1 0x1 PUSH1 0x1 PUSH1 0xA0 SHL SUB DUP7 DUP2 AND PUSH1 0x4 DUP4 ADD MSTORE DUP6 DUP2 AND PUSH1 0x24 DUP4 ADD MSTORE PUSH1 0x44 DUP3 ADD DUP5 SWAP1 MSTORE SWAP3 SWAP4 POP SWAP2 AND SWAP1 PUSH4 0xDF791E50 SWAP1 PUSH1 0x64 ADD PUSH1 0x20 PUSH1 0x40 MLOAD DUP1 DUP4 SUB DUP2 PUSH1 0x0 DUP8 GAS CALL ISZERO DUP1 ISZERO PUSH2 0x2C7D JUMPI RETURNDATASIZE PUSH1 0x0 DUP1 RETURNDATACOPY RETURNDATASIZE PUSH1 0x0 REVERT JUMPDEST POP POP POP POP PUSH1 0x40 MLOAD RETURNDATASIZE PUSH1 0x1F NOT PUSH1 0x1F DUP3 ADD AND DUP3 ADD DUP1 PUSH1 0x40 MSTORE POP DUP2 ADD SWAP1 PUSH2 0x2CA1 SWAP2 SWAP1 PUSH2 0x3140 JUMP JUMPDEST POP POP POP POP JUMP JUMPDEST PUSH1 0x0 SLOAD PUSH2 0x100 SWAP1 DIV PUSH1 0xFF AND PUSH2 0x2CCE JUMPI PUSH1 0x40 MLOAD PUSH3 0x461BCD PUSH1 0xE5 SHL DUP2 MSTORE PUSH1 0x4 ADD PUSH2 0xC29 SWAP1 PUSH2 0x3396 JUMP JUMPDEST PUSH2 0x12B4 CALLER PUSH2 0x248E JUMP JUMPDEST PUSH1 0x0 SLOAD PUSH2 0x100 SWAP1 DIV PUSH1 0xFF AND PUSH2 0x2CFE JUMPI PUSH1 0x40 MLOAD PUSH3 0x461BCD PUSH1 0xE5 SHL DUP2 MSTORE PUSH1 0x4 ADD PUSH2 0xC29 SWAP1 PUSH2 0x3396 JUMP JUMPDEST PUSH1 0x65 DUP1 SLOAD PUSH1 0xFF NOT AND SWAP1 SSTORE JUMP JUMPDEST PUSH1 0x60 PUSH2 0x2D19 DUP5 DUP5 PUSH1 0x0 DUP6 PUSH2 0x2D23 JUMP JUMPDEST SWAP1 POP JUMPDEST SWAP4 SWAP3 POP POP POP JUMP JUMPDEST PUSH1 0x60 DUP3 SELFBALANCE LT ISZERO PUSH2 0x2D84 JUMPI PUSH1 0x40 MLOAD PUSH3 0x461BCD PUSH1 0xE5 SHL DUP2 MSTORE PUSH1 0x20 PUSH1 0x4 DUP3 ADD MSTORE PUSH1 0x26 PUSH1 0x24 DUP3 ADD MSTORE PUSH32 0x416464726573733A20696E73756666696369656E742062616C616E636520666F PUSH1 0x44 DUP3 ADD MSTORE PUSH6 0x1C8818D85B1B PUSH1 0xD2 SHL PUSH1 0x64 DUP3 ADD MSTORE PUSH1 0x84 ADD PUSH2 0xC29 JUMP JUMPDEST PUSH1 0x1 PUSH1 0x1 PUSH1 0xA0 SHL SUB DUP6 AND EXTCODESIZE PUSH2 0x2DDB JUMPI PUSH1 0x40 MLOAD PUSH3 0x461BCD PUSH1 0xE5 SHL DUP2 MSTORE PUSH1 0x20 PUSH1 0x4 DUP3 ADD MSTORE PUSH1 0x1D PUSH1 0x24 DUP3 ADD MSTORE PUSH32 0x416464726573733A2063616C6C20746F206E6F6E2D636F6E7472616374000000 PUSH1 0x44 DUP3 ADD MSTORE PUSH1 0x64 ADD PUSH2 0xC29 JUMP JUMPDEST PUSH1 0x0 DUP1 DUP7 PUSH1 0x1 PUSH1 0x1 PUSH1 0xA0 SHL SUB AND DUP6 DUP8 PUSH1 0x40 MLOAD PUSH2 0x2DF7 SWAP2 SWAP1 PUSH2 0x3583 JUMP JUMPDEST PUSH1 0x0 PUSH1 0x40 MLOAD DUP1 DUP4 SUB DUP2 DUP6 DUP8 GAS CALL SWAP3 POP POP POP RETURNDATASIZE DUP1 PUSH1 0x0 DUP2 EQ PUSH2 0x2E34 JUMPI PUSH1 0x40 MLOAD SWAP2 POP PUSH1 0x1F NOT PUSH1 0x3F RETURNDATASIZE ADD AND DUP3 ADD PUSH1 0x40 MSTORE RETURNDATASIZE DUP3 MSTORE RETURNDATASIZE PUSH1 0x0 PUSH1 0x20 DUP5 ADD RETURNDATACOPY PUSH2 0x2E39 JUMP JUMPDEST PUSH1 0x60 SWAP2 POP JUMPDEST POP SWAP2 POP SWAP2 POP PUSH2 0x2E49 DUP3 DUP3 DUP7 PUSH2 0x2E54 JUMP JUMPDEST SWAP8 SWAP7 POP POP POP POP POP POP POP JUMP JUMPDEST PUSH1 0x60 DUP4 ISZERO PUSH2 0x2E63 JUMPI POP DUP2 PUSH2 0x2D1C JUMP JUMPDEST DUP3 MLOAD ISZERO PUSH2 0x2E73 JUMPI DUP3 MLOAD DUP1 DUP5 PUSH1 0x20 ADD REVERT JUMPDEST DUP2 PUSH1 0x40 MLOAD PUSH3 0x461BCD PUSH1 0xE5 SHL DUP2 MSTORE PUSH1 0x4 ADD PUSH2 0xC29 SWAP2 SWAP1 PUSH2 0x359F JUMP JUMPDEST POP DUP1 SLOAD PUSH1 0x0 DUP3 SSTORE SWAP1 PUSH1 0x0 MSTORE PUSH1 0x20 PUSH1 0x0 KECCAK256 SWAP1 DUP2 ADD SWAP1 PUSH2 0xB08 SWAP2 SWAP1 PUSH2 0x2EF7 JUMP JUMPDEST PUSH1 0x40 MLOAD DUP1 PUSH1 0x60 ADD PUSH1 0x40 MSTORE DUP1 PUSH2 0x2EE3 PUSH1 0x40 MLOAD DUP1 PUSH1 0x80 ADD PUSH1 0x40 MSTORE DUP1 PUSH1 0x0 DUP2 MSTORE PUSH1 0x20 ADD PUSH1 0x0 DUP2 MSTORE PUSH1 0x20 ADD PUSH1 0x60 DUP2 MSTORE PUSH1 0x20 ADD PUSH1 0x0 ISZERO ISZERO DUP2 MSTORE POP SWAP1 JUMP JUMPDEST DUP2 MSTORE PUSH1 0x20 ADD PUSH1 0x0 DUP2 MSTORE PUSH1 0x20 ADD PUSH1 0x0 DUP2 MSTORE POP SWAP1 JUMP JUMPDEST JUMPDEST DUP1 DUP3 GT ISZERO PUSH2 0x2F0C JUMPI PUSH1 0x0 DUP2 SSTORE PUSH1 0x1 ADD PUSH2 0x2EF8 JUMP JUMPDEST POP SWAP1 JUMP JUMPDEST PUSH1 0x1 PUSH1 0x1 PUSH1 0xA0 SHL SUB DUP2 AND DUP2 EQ PUSH2 0xB08 JUMPI PUSH1 0x0 DUP1 REVERT JUMPDEST PUSH1 0x0 PUSH1 0x20 DUP3 DUP5 SUB SLT ISZERO PUSH2 0x2F37 JUMPI PUSH1 0x0 DUP1 REVERT JUMPDEST DUP2 CALLDATALOAD PUSH2 0x2D1C DUP2 PUSH2 0x2F10 JUMP JUMPDEST DUP1 ISZERO ISZERO DUP2 EQ PUSH2 0xB08 JUMPI PUSH1 0x0 DUP1 REVERT JUMPDEST PUSH1 0x0 PUSH1 0x20 DUP3 DUP5 SUB SLT ISZERO PUSH2 0x2F62 JUMPI PUSH1 0x0 DUP1 REVERT JUMPDEST DUP2 CALLDATALOAD PUSH2 0x2D1C DUP2 PUSH2 0x2F42 JUMP JUMPDEST PUSH1 0x0 PUSH1 0xC0 DUP3 DUP5 SUB SLT ISZERO PUSH2 0x2F7F JUMPI PUSH1 0x0 DUP1 REVERT JUMPDEST POP SWAP2 SWAP1 POP JUMP JUMPDEST PUSH1 0x0 DUP1 PUSH1 0x0 DUP1 PUSH1 0x0 DUP1 PUSH2 0x140 DUP8 DUP10 SUB SLT ISZERO PUSH2 0x2F9F JUMPI PUSH1 0x0 DUP1 REVERT JUMPDEST DUP7 CALLDATALOAD PUSH2 0x2FAA DUP2 PUSH2 0x2F10 JUMP JUMPDEST SWAP6 POP PUSH1 0x20 DUP8 ADD CALLDATALOAD PUSH2 0x2FBA DUP2 PUSH2 0x2F10 JUMP JUMPDEST SWAP5 POP PUSH1 0x40 DUP8 ADD CALLDATALOAD PUSH2 0x2FCA DUP2 PUSH2 0x2F10 JUMP JUMPDEST SWAP4 POP PUSH1 0x60 DUP8 ADD CALLDATALOAD PUSH8 0xFFFFFFFFFFFFFFFF DUP1 DUP3 GT ISZERO PUSH2 0x2FE7 JUMPI PUSH1 0x0 DUP1 REVERT JUMPDEST DUP2 DUP10 ADD SWAP2 POP DUP10 PUSH1 0x1F DUP4 ADD SLT PUSH2 0x2FFB JUMPI PUSH1 0x0 DUP1 REVERT JUMPDEST DUP2 CALLDATALOAD DUP2 DUP2 GT ISZERO PUSH2 0x300A JUMPI PUSH1 0x0 DUP1 REVERT JUMPDEST DUP11 PUSH1 0x20 DUP3 PUSH1 0x5 SHL DUP6 ADD ADD GT ISZERO PUSH2 0x301F JUMPI PUSH1 0x0 DUP1 REVERT JUMPDEST PUSH1 0x20 DUP4 ADD SWAP6 POP DUP1 SWAP5 POP POP POP POP PUSH2 0x3038 DUP9 PUSH1 0x80 DUP10 ADD PUSH2 0x2F6D JUMP JUMPDEST SWAP1 POP SWAP3 SWAP6 POP SWAP3 SWAP6 POP SWAP3 SWAP6 JUMP JUMPDEST PUSH1 0x0 PUSH1 0x20 DUP3 DUP5 SUB SLT ISZERO PUSH2 0x3056 JUMPI PUSH1 0x0 DUP1 REVERT JUMPDEST POP CALLDATALOAD SWAP2 SWAP1 POP JUMP JUMPDEST PUSH1 0x0 DUP1 PUSH1 0x40 DUP4 DUP6 SUB SLT ISZERO PUSH2 0x3070 JUMPI PUSH1 0x0 DUP1 REVERT JUMPDEST DUP3 CALLDATALOAD PUSH2 0x307B DUP2 PUSH2 0x2F10 JUMP JUMPDEST SWAP5 PUSH1 0x20 SWAP4 SWAP1 SWAP4 ADD CALLDATALOAD SWAP4 POP POP POP JUMP JUMPDEST PUSH1 0x0 JUMPDEST DUP4 DUP2 LT ISZERO PUSH2 0x30A4 JUMPI DUP2 DUP2 ADD MLOAD DUP4 DUP3 ADD MSTORE PUSH1 0x20 ADD PUSH2 0x308C JUMP JUMPDEST POP POP PUSH1 0x0 SWAP2 ADD MSTORE JUMP JUMPDEST PUSH1 0x0 DUP2 MLOAD DUP1 DUP5 MSTORE PUSH2 0x30C5 DUP2 PUSH1 0x20 DUP7 ADD PUSH1 0x20 DUP7 ADD PUSH2 0x3089 JUMP JUMPDEST PUSH1 0x1F ADD PUSH1 0x1F NOT AND SWAP3 SWAP1 SWAP3 ADD PUSH1 0x20 ADD SWAP3 SWAP2 POP POP JUMP JUMPDEST PUSH1 0x20 DUP2 MSTORE PUSH1 0x0 DUP3 MLOAD PUSH1 0x60 PUSH1 0x20 DUP5 ADD MSTORE DUP1 MLOAD PUSH1 0x80 DUP5 ADD MSTORE PUSH1 0x20 DUP2 ADD MLOAD PUSH1 0xA0 DUP5 ADD MSTORE PUSH1 0x40 DUP2 ADD MLOAD PUSH1 0x80 PUSH1 0xC0 DUP6 ADD MSTORE PUSH2 0x3113 PUSH2 0x100 DUP6 ADD DUP3 PUSH2 0x30AD JUMP JUMPDEST SWAP1 POP PUSH1 0x60 DUP3 ADD MLOAD ISZERO ISZERO PUSH1 0xE0 DUP6 ADD MSTORE PUSH1 0x20 DUP6 ADD MLOAD PUSH1 0x40 DUP6 ADD MSTORE PUSH1 0x40 DUP6 ADD MLOAD PUSH1 0x60 DUP6 ADD MSTORE DUP1 SWAP3 POP POP POP SWAP3 SWAP2 POP POP JUMP JUMPDEST PUSH1 0x0 PUSH1 0x20 DUP3 DUP5 SUB SLT ISZERO PUSH2 0x3152 JUMPI PUSH1 0x0 DUP1 REVERT JUMPDEST POP MLOAD SWAP2 SWAP1 POP JUMP JUMPDEST PUSH1 0x0 PUSH1 0x20 DUP3 DUP5 SUB SLT ISZERO PUSH2 0x316B JUMPI PUSH1 0x0 DUP1 REVERT JUMPDEST DUP2 MLOAD PUSH2 0x2D1C DUP2 PUSH2 0x2F10 JUMP JUMPDEST PUSH1 0x0 PUSH1 0x20 DUP3 DUP5 SUB SLT ISZERO PUSH2 0x3188 JUMPI PUSH1 0x0 DUP1 REVERT JUMPDEST DUP2 MLOAD PUSH1 0xFF DUP2 AND DUP2 EQ PUSH2 0x2D1C JUMPI PUSH1 0x0 DUP1 REVERT JUMPDEST PUSH4 0x4E487B71 PUSH1 0xE0 SHL PUSH1 0x0 MSTORE PUSH1 0x11 PUSH1 0x4 MSTORE PUSH1 0x24 PUSH1 0x0 REVERT JUMPDEST DUP2 DUP2 SUB DUP2 DUP2 GT ISZERO PUSH2 0x31C2 JUMPI PUSH2 0x31C2 PUSH2 0x3199 JUMP JUMPDEST SWAP3 SWAP2 POP POP JUMP JUMPDEST PUSH1 0x1 DUP2 DUP2 JUMPDEST DUP1 DUP6 GT ISZERO PUSH2 0x3203 JUMPI DUP2 PUSH1 0x0 NOT DIV DUP3 GT ISZERO PUSH2 0x31E9 JUMPI PUSH2 0x31E9 PUSH2 0x3199 JUMP JUMPDEST DUP1 DUP6 AND ISZERO PUSH2 0x31F6 JUMPI SWAP2 DUP2 MUL SWAP2 JUMPDEST SWAP4 DUP5 SHR SWAP4 SWAP1 DUP1 MUL SWAP1 PUSH2 0x31CD JUMP JUMPDEST POP SWAP3 POP SWAP3 SWAP1 POP JUMP JUMPDEST PUSH1 0x0 DUP3 PUSH2 0x321A JUMPI POP PUSH1 0x1 PUSH2 0x31C2 JUMP JUMPDEST DUP2 PUSH2 0x3227 JUMPI POP PUSH1 0x0 PUSH2 0x31C2 JUMP JUMPDEST DUP2 PUSH1 0x1 DUP2 EQ PUSH2 0x323D JUMPI PUSH1 0x2 DUP2 EQ PUSH2 0x3247 JUMPI PUSH2 0x3263 JUMP JUMPDEST PUSH1 0x1 SWAP2 POP POP PUSH2 0x31C2 JUMP JUMPDEST PUSH1 0xFF DUP5 GT ISZERO PUSH2 0x3258 JUMPI PUSH2 0x3258 PUSH2 0x3199 JUMP JUMPDEST POP POP PUSH1 0x1 DUP3 SHL PUSH2 0x31C2 JUMP JUMPDEST POP PUSH1 0x20 DUP4 LT PUSH2 0x133 DUP4 LT AND PUSH1 0x4E DUP5 LT PUSH1 0xB DUP5 LT AND OR ISZERO PUSH2 0x3286 JUMPI POP DUP2 DUP2 EXP PUSH2 0x31C2 JUMP JUMPDEST PUSH2 0x3290 DUP4 DUP4 PUSH2 0x31C8 JUMP JUMPDEST DUP1 PUSH1 0x0 NOT DIV DUP3 GT ISZERO PUSH2 0x32A4 JUMPI PUSH2 0x32A4 PUSH2 0x3199 JUMP JUMPDEST MUL SWAP4 SWAP3 POP POP POP JUMP JUMPDEST PUSH1 0x0 PUSH2 0x2D1C DUP4 DUP4 PUSH2 0x320B JUMP JUMPDEST PUSH4 0x4E487B71 PUSH1 0xE0 SHL PUSH1 0x0 MSTORE PUSH1 0x32 PUSH1 0x4 MSTORE PUSH1 0x24 PUSH1 0x0 REVERT JUMPDEST PUSH1 0x0 PUSH1 0x1 DUP3 ADD PUSH2 0x32E0 JUMPI PUSH2 0x32E0 PUSH2 0x3199 JUMP JUMPDEST POP PUSH1 0x1 ADD SWAP1 JUMP JUMPDEST PUSH1 0x20 DUP1 DUP3 MSTORE PUSH1 0x6 SWAP1 DUP3 ADD MSTORE PUSH6 0x85D985D5B1D PUSH1 0xD2 SHL PUSH1 0x40 DUP3 ADD MSTORE PUSH1 0x60 ADD SWAP1 JUMP JUMPDEST PUSH1 0x0 DUP3 PUSH2 0x3324 JUMPI PUSH4 0x4E487B71 PUSH1 0xE0 SHL PUSH1 0x0 MSTORE PUSH1 0x12 PUSH1 0x4 MSTORE PUSH1 0x24 PUSH1 0x0 REVERT JUMPDEST POP DIV SWAP1 JUMP JUMPDEST DUP1 DUP3 MUL DUP2 ISZERO DUP3 DUP3 DIV DUP5 EQ OR PUSH2 0x31C2 JUMPI PUSH2 0x31C2 PUSH2 0x3199 JUMP JUMPDEST DUP1 DUP3 ADD DUP1 DUP3 GT ISZERO PUSH2 0x31C2 JUMPI PUSH2 0x31C2 PUSH2 0x3199 JUMP JUMPDEST PUSH4 0x4E487B71 PUSH1 0xE0 SHL PUSH1 0x0 MSTORE PUSH1 0x31 PUSH1 0x4 MSTORE PUSH1 0x24 PUSH1 0x0 REVERT JUMPDEST DUP1 MLOAD PUSH2 0x3374 DUP2 PUSH2 0x2F42 JUMP JUMPDEST SWAP2 SWAP1 POP JUMP JUMPDEST PUSH1 0x0 PUSH1 0x20 DUP3 DUP5 SUB SLT ISZERO PUSH2 0x338B JUMPI PUSH1 0x0 DUP1 REVERT JUMPDEST DUP2 MLOAD PUSH2 0x2D1C DUP2 PUSH2 0x2F42 JUMP JUMPDEST PUSH1 0x20 DUP1 DUP3 MSTORE PUSH1 0x2B SWAP1 DUP3 ADD MSTORE PUSH32 0x496E697469616C697A61626C653A20636F6E7472616374206973206E6F742069 PUSH1 0x40 DUP3 ADD MSTORE PUSH11 0x6E697469616C697A696E67 PUSH1 0xA8 SHL PUSH1 0x60 DUP3 ADD MSTORE PUSH1 0x80 ADD SWAP1 JUMP JUMPDEST PUSH1 0x20 DUP1 DUP3 MSTORE DUP3 SLOAD DUP3 DUP3 ADD DUP2 SWAP1 MSTORE PUSH1 0x0 DUP5 DUP2 MSTORE DUP3 DUP2 KECCAK256 SWAP1 SWAP3 SWAP2 PUSH1 0x40 DUP6 ADD SWAP1 DUP5 JUMPDEST DUP2 DUP2 LT ISZERO PUSH2 0x3425 JUMPI DUP4 SLOAD PUSH1 0x1 PUSH1 0x1 PUSH1 0xA0 SHL SUB AND DUP4 MSTORE PUSH1 0x1 SWAP4 DUP5 ADD SWAP4 SWAP3 DUP6 ADD SWAP3 ADD PUSH2 0x3400 JUMP JUMPDEST POP SWAP1 SWAP7 SWAP6 POP POP POP POP POP POP JUMP JUMPDEST PUSH4 0x4E487B71 PUSH1 0xE0 SHL PUSH1 0x0 MSTORE PUSH1 0x41 PUSH1 0x4 MSTORE PUSH1 0x24 PUSH1 0x0 REVERT JUMPDEST PUSH1 0x40 MLOAD PUSH1 0x80 DUP2 ADD PUSH8 0xFFFFFFFFFFFFFFFF DUP2 GT DUP3 DUP3 LT OR ISZERO PUSH2 0x346A JUMPI PUSH2 0x346A PUSH2 0x3431 JUMP JUMPDEST PUSH1 0x40 MSTORE SWAP1 JUMP JUMPDEST PUSH1 0x40 MLOAD PUSH1 0x1F DUP3 ADD PUSH1 0x1F NOT AND DUP2 ADD PUSH8 0xFFFFFFFFFFFFFFFF DUP2 GT DUP3 DUP3 LT OR ISZERO PUSH2 0x3499 JUMPI PUSH2 0x3499 PUSH2 0x3431 JUMP JUMPDEST PUSH1 0x40 MSTORE SWAP2 SWAP1 POP JUMP JUMPDEST PUSH1 0x0 PUSH1 0x20 DUP1 DUP4 DUP6 SUB SLT ISZERO PUSH2 0x34B4 JUMPI PUSH1 0x0 DUP1 REVERT JUMPDEST DUP3 MLOAD PUSH8 0xFFFFFFFFFFFFFFFF DUP1 DUP3 GT ISZERO PUSH2 0x34CC JUMPI PUSH1 0x0 DUP1 REVERT JUMPDEST SWAP1 DUP5 ADD SWAP1 PUSH1 0x80 DUP3 DUP8 SUB SLT ISZERO PUSH2 0x34E0 JUMPI PUSH1 0x0 DUP1 REVERT JUMPDEST PUSH2 0x34E8 PUSH2 0x3447 JUMP JUMPDEST DUP3 MLOAD DUP2 MSTORE DUP4 DUP4 ADD MLOAD DUP5 DUP3 ADD MSTORE PUSH1 0x40 DUP4 ADD MLOAD DUP3 DUP2 GT ISZERO PUSH2 0x3506 JUMPI PUSH1 0x0 DUP1 REVERT JUMPDEST DUP4 ADD PUSH1 0x1F DUP2 ADD DUP9 SGT PUSH2 0x3517 JUMPI PUSH1 0x0 DUP1 REVERT JUMPDEST DUP1 MLOAD DUP4 DUP2 GT ISZERO PUSH2 0x3529 JUMPI PUSH2 0x3529 PUSH2 0x3431 JUMP JUMPDEST PUSH2 0x353B PUSH1 0x1F DUP3 ADD PUSH1 0x1F NOT AND DUP8 ADD PUSH2 0x3470 JUMP JUMPDEST SWAP4 POP DUP1 DUP5 MSTORE DUP9 DUP7 DUP3 DUP5 ADD ADD GT ISZERO PUSH2 0x3551 JUMPI PUSH1 0x0 DUP1 REVERT JUMPDEST PUSH2 0x3560 DUP2 DUP8 DUP7 ADD DUP9 DUP6 ADD PUSH2 0x3089 JUMP JUMPDEST POP POP DUP2 PUSH1 0x40 DUP3 ADD MSTORE PUSH2 0x3574 PUSH1 0x60 DUP5 ADD PUSH2 0x3369 JUMP JUMPDEST PUSH1 0x60 DUP3 ADD MSTORE SWAP7 SWAP6 POP POP POP POP POP POP JUMP JUMPDEST PUSH1 0x0 DUP3 MLOAD PUSH2 0x3595 DUP2 DUP5 PUSH1 0x20 DUP8 ADD PUSH2 0x3089 JUMP JUMPDEST SWAP2 SWAP1 SWAP2 ADD SWAP3 SWAP2 POP POP JUMP JUMPDEST PUSH1 0x20 DUP2 MSTORE PUSH1 0x0 PUSH2 0x2D1C PUSH1 0x20 DUP4 ADD DUP5 PUSH2 0x30AD JUMP INVALID LOG2 PUSH5 0x6970667358 0x22 SLT KECCAK256 SWAP15 0xAB 0x4D 0xAC SWAP16 SWAP3 0xDE JUMPI CALLDATACOPY ADDMOD PUSH21 0xC307F32A15DA6AC37B46E6361B5E389D804E86E237 PUSH5 0x736F6C6343 STOP ADDMOD SGT STOP CALLER "
    },
    "gasEstimates": {
      "creation": {
        "codeDepositCost": "2760000",
        "executionCost": "3007",
        "totalCost": "2763007"
      },
      "external": {
        "WITHDRAWAL_FEE_CAP()": "295",
        "WITHDRAWAL_MAX()": "274",
        "addReward(address)": "infinite",
        "balanceOf()": "infinite",
        "balanceOfPool()": "infinite",
        "balanceOfWant()": "infinite",
        "beforeDeposit()": "infinite",
        "callReward()": "271",
        "chef()": "2417",
        "convertRate()": "2416",
        "deposit()": "infinite",
        "depositFee()": "293",
        "getAllFees()": "infinite",
        "getStratFeeId()": "infinite",
        "harvest()": "infinite",
        "harvestOnDeposit()": "2401",
        "initialize(address,address,address,address[],(address,address,address,address,address,address))": "infinite",
        "keeper()": "2471",
        "lastHarvest()": "2395",
        "lockDuration()": "2354",
        "lockedProfit()": "infinite",
        "lpToken()": "2427",
        "minAmounts(address)": "2614",
        "owner()": "2399",
        "panic()": "infinite",
        "pause()": "infinite",
        "paused()": "2361",
        "plexusFeeConfig()": "2404",
        "plexusFeeRecipient()": "2406",
        "removeReward(uint256)": "86118",
        "renounceOwnership()": "infinite",
        "resetRewards()": "infinite",
        "retireStrat()": "infinite",
        "rewards(uint256)": "4680",
        "rewardsAvailable()": "314",
        "rewardsLength()": "2414",
        "setHarvestOnDeposit(bool)": "infinite",
        "setKeeper(address)": "30050",
        "setLockDuration(uint256)": "26701",
        "setPlexusFeeConfig(address)": "27875",
        "setPlexusFeeRecipient(address)": "27907",
        "setRewardMinAmount(address,uint256)": "26887",
        "setStratFeeId(uint256)": "infinite",
        "setStrategist(address)": "27882",
        "setSwapper(address)": "27883",
        "setVault(address)": "27928",
        "setWithdrawalFee(uint256)": "27848",
        "stargateRouter()": "2427",
        "strategist()": "2428",
        "totalLocked()": "2396",
        "transferOwnership(address)": "infinite",
        "swapper()": "2450",
        "unpause()": "infinite",
        "updateSwapper(address)": "infinite",
        "vault()": "2447",
        "want()": "2472",
        "withdraw(uint256)": "infinite",
        "withdrawFee()": "4527",
        "wnative()": "2405"
      },
      "internal": {
        "_approve(address,address,uint256)": "infinite",
        "_chargeFees()": "infinite",
        "_giveAllowances()": "infinite",
        "_harvest()": "infinite",
        "_removeAllowances()": "infinite",
        "_swap(address,address)": "infinite",
        "_swapRewardsToNative()": "infinite"
      }
    },
    "methodIdentifiers": {
      "WITHDRAWAL_FEE_CAP()": "dfbdc437",
      "WITHDRAWAL_MAX()": "54518b1a",
      "addReward(address)": "9c9b2e21",
      "balanceOf()": "722713f7",
      "balanceOfPool()": "11588086",
      "balanceOfWant()": "c1a3d44c",
      "beforeDeposit()": "573fef0a",
      "callReward()": "97fd323d",
      "chef()": "1fc8bc5d",
      "convertRate()": "feb56b15",
      "deposit()": "d0e30db0",
      "depositFee()": "67a52793",
      "getAllFees()": "b20feaaf",
      "getStratFeeId()": "8cfc0250",
      "harvest()": "4641257d",
      "harvestOnDeposit()": "8912cb8b",
      "initialize(address,address,address,address[],(address,address,address,address,address,address))": "1aacb838",
      "keeper()": "aced1661",
      "lastHarvest()": "f1a392da",
      "lockDuration()": "04554443",
      "lockedProfit()": "44b81396",
      "lpToken()": "5fcbd285",
      "minAmounts(address)": "9c5e52d5",
      "owner()": "8da5cb5b",
      "panic()": "4700d305",
      "pause()": "8456cb59",
      "paused()": "5c975abb",
      "plexusFeeConfig()": "e8edd3e8",
      "plexusFeeRecipient()": "8683ed5b",
      "removeReward(uint256)": "c553173f",
      "renounceOwnership()": "715018a6",
      "resetRewards()": "ad29f5da",
      "retireStrat()": "fb617787",
      "rewards(uint256)": "f301af42",
      "rewardsAvailable()": "e7a7250a",
      "rewardsLength()": "bbb356d5",
      "setHarvestOnDeposit(bool)": "0e8fbb5a",
      "setKeeper(address)": "748747e6",
      "setLockDuration(uint256)": "4eb665af",
      "setPlexusFeeConfig(address)": "066e4a19",
      "setPlexusFeeRecipient(address)": "1d06ce66",
      "setRewardMinAmount(address,uint256)": "a7e9ca82",
      "setStratFeeId(uint256)": "3e55f932",
      "setStrategist(address)": "c7b9d530",
      "setSwapper(address)": "d92f3d73",
      "setVault(address)": "6817031b",
      "setWithdrawalFee(uint256)": "ac1e5025",
      "stargateRouter()": "a9e56f3c",
      "strategist()": "1fe4a686",
      "totalLocked()": "56891412",
      "transferOwnership(address)": "f2fde38b",
      "swapper()": "257ae0de",
      "unpause()": "3f4ba83a",
      "updateSwapper(address)": "bbb19a58",
      "vault()": "fbfa77cf",
      "want()": "1f1fcd51",
      "withdraw(uint256)": "2e1a7d4d",
      "withdrawFee()": "e941fa78",
      "wnative()": "2cebdeb2"
    }
  },
  "abi": [
    {
      "anonymous": false,
      "inputs": [
        {
          "indexed": false,
          "internalType": "uint256",
          "name": "plexusFees",
          "type": "uint256"
        }
      ],
      "name": "ChargedFees",
      "type": "event"
    },
    {
      "anonymous": false,
      "inputs": [
        {
          "indexed": false,
          "internalType": "uint256",
          "name": "tvl",
          "type": "uint256"
        }
      ],
      "name": "Deposit",
      "type": "event"
    },
    {
      "anonymous": false,
      "inputs": [
        {
          "indexed": false,
          "internalType": "uint8",
          "name": "version",
          "type": "uint8"
        }
      ],
      "name": "Initialized",
      "type": "event"
    },
    {
      "anonymous": false,
      "inputs": [
        {
          "indexed": true,
          "internalType": "address",
          "name": "previousOwner",
          "type": "address"
        },
        {
          "indexed": true,
          "internalType": "address",
          "name": "newOwner",
          "type": "address"
        }
      ],
      "name": "OwnershipTransferred",
      "type": "event"
    },
    {
      "anonymous": false,
      "inputs": [
        {
          "indexed": false,
          "internalType": "address",
          "name": "account",
          "type": "address"
        }
      ],
      "name": "Paused",
      "type": "event"
    },
    {
      "anonymous": false,
      "inputs": [
        {
          "indexed": false,
          "internalType": "address",
          "name": "keeper",
          "type": "address"
        }
      ],
      "name": "SetKeeper",
      "type": "event"
    },
    {
      "anonymous": false,
      "inputs": [
        {
          "indexed": false,
          "internalType": "address",
          "name": "plexusFeeConfig",
          "type": "address"
        }
      ],
      "name": "SetPlexusFeeConfig",
      "type": "event"
    },
    {
      "anonymous": false,
      "inputs": [
        {
          "indexed": false,
          "internalType": "address",
          "name": "plexusFeeRecipient",
          "type": "address"
        }
      ],
      "name": "SetPlexusFeeRecipient",
      "type": "event"
    },
    {
      "anonymous": false,
      "inputs": [
        {
          "indexed": false,
          "internalType": "uint256",
          "name": "feeId",
          "type": "uint256"
        }
      ],
      "name": "SetStratFeeId",
      "type": "event"
    },
    {
      "anonymous": false,
      "inputs": [
        {
          "indexed": false,
          "internalType": "address",
          "name": "strategist",
          "type": "address"
        }
      ],
      "name": "SetStrategist",
      "type": "event"
    },
    {
      "anonymous": false,
      "inputs": [
        {
          "indexed": false,
          "internalType": "address",
          "name": "swapper",
          "type": "address"
        }
      ],
      "name": "SetSwapper",
      "type": "event"
    },
    {
      "anonymous": false,
      "inputs": [
        {
          "indexed": false,
          "internalType": "address",
          "name": "vault",
          "type": "address"
        }
      ],
      "name": "SetVault",
      "type": "event"
    },
    {
      "anonymous": false,
      "inputs": [
        {
          "indexed": false,
          "internalType": "uint256",
          "name": "withdrawalFee",
          "type": "uint256"
        }
      ],
      "name": "SetWithdrawalFee",
      "type": "event"
    },
    {
      "anonymous": false,
      "inputs": [
        {
          "indexed": true,
          "internalType": "address",
          "name": "harvester",
          "type": "address"
        },
        {
          "indexed": false,
          "internalType": "uint256",
          "name": "wantHarvested",
          "type": "uint256"
        },
        {
          "indexed": false,
          "internalType": "uint256",
          "name": "tvl",
          "type": "uint256"
        }
      ],
      "name": "StratHarvest",
      "type": "event"
    },
    {
      "anonymous": false,
      "inputs": [
        {
          "indexed": false,
          "internalType": "address",
          "name": "account",
          "type": "address"
        }
      ],
      "name": "Unpaused",
      "type": "event"
    },
    {
      "anonymous": false,
      "inputs": [
        {
          "indexed": false,
          "internalType": "uint256",
          "name": "tvl",
          "type": "uint256"
        }
      ],
      "name": "Withdraw",
      "type": "event"
    },
    {
      "inputs": [],
      "name": "WITHDRAWAL_FEE_CAP",
      "outputs": [
        {
          "internalType": "uint256",
          "name": "",
          "type": "uint256"
        }
      ],
      "stateMutability": "view",
      "type": "function"
    },
    {
      "inputs": [],
      "name": "WITHDRAWAL_MAX",
      "outputs": [
        {
          "internalType": "uint256",
          "name": "",
          "type": "uint256"
        }
      ],
      "stateMutability": "view",
      "type": "function"
    },
    {
      "inputs": [
        {
          "internalType": "address",
          "name": "_token",
          "type": "address"
        }
      ],
      "name": "addReward",
      "outputs": [],
      "stateMutability": "nonpayable",
      "type": "function"
    },
    {
      "inputs": [],
      "name": "balanceOf",
      "outputs": [
        {
          "internalType": "uint256",
          "name": "",
          "type": "uint256"
        }
      ],
      "stateMutability": "view",
      "type": "function"
    },
    {
      "inputs": [],
      "name": "balanceOfPool",
      "outputs": [
        {
          "internalType": "uint256",
          "name": "",
          "type": "uint256"
        }
      ],
      "stateMutability": "view",
      "type": "function"
    },
    {
      "inputs": [],
      "name": "balanceOfWant",
      "outputs": [
        {
          "internalType": "uint256",
          "name": "",
          "type": "uint256"
        }
      ],
      "stateMutability": "view",
      "type": "function"
    },
    {
      "inputs": [],
      "name": "beforeDeposit",
      "outputs": [],
      "stateMutability": "nonpayable",
      "type": "function"
    },
    {
      "inputs": [],
      "name": "callReward",
      "outputs": [
        {
          "internalType": "uint256",
          "name": "",
          "type": "uint256"
        }
      ],
      "stateMutability": "view",
      "type": "function"
    },
    {
      "inputs": [],
      "name": "chef",
      "outputs": [
        {
          "internalType": "address",
          "name": "",
          "type": "address"
        }
      ],
      "stateMutability": "view",
      "type": "function"
    },
    {
      "inputs": [],
      "name": "convertRate",
      "outputs": [
        {
          "internalType": "uint256",
          "name": "",
          "type": "uint256"
        }
      ],
      "stateMutability": "view",
      "type": "function"
    },
    {
      "inputs": [],
      "name": "deposit",
      "outputs": [],
      "stateMutability": "nonpayable",
      "type": "function"
    },
    {
      "inputs": [],
      "name": "depositFee",
      "outputs": [
        {
          "internalType": "uint256",
          "name": "",
          "type": "uint256"
        }
      ],
      "stateMutability": "view",
      "type": "function"
    },
    {
      "inputs": [],
      "name": "getAllFees",
      "outputs": [
        {
          "components": [
            {
              "components": [
                {
                  "internalType": "uint256",
                  "name": "total",
                  "type": "uint256"
                },
                {
                  "internalType": "uint256",
                  "name": "plexus",
                  "type": "uint256"
                },
                {
                  "internalType": "string",
                  "name": "label",
                  "type": "string"
                },
                {
                  "internalType": "bool",
                  "name": "active",
                  "type": "bool"
                }
              ],
              "internalType": "struct IFeeConfig.FeeCategory",
              "name": "performance",
              "type": "tuple"
            },
            {
              "internalType": "uint256",
              "name": "deposit",
              "type": "uint256"
            },
            {
              "internalType": "uint256",
              "name": "withdraw",
              "type": "uint256"
            }
          ],
          "internalType": "struct IFeeConfig.AllFees",
          "name": "",
          "type": "tuple"
        }
      ],
      "stateMutability": "view",
      "type": "function"
    },
    {
      "inputs": [],
      "name": "getStratFeeId",
      "outputs": [
        {
          "internalType": "uint256",
          "name": "",
          "type": "uint256"
        }
      ],
      "stateMutability": "view",
      "type": "function"
    },
    {
      "inputs": [],
      "name": "harvest",
      "outputs": [],
      "stateMutability": "nonpayable",
      "type": "function"
    },
    {
      "inputs": [],
      "name": "harvestOnDeposit",
      "outputs": [
        {
          "internalType": "bool",
          "name": "",
          "type": "bool"
        }
      ],
      "stateMutability": "view",
      "type": "function"
    },
    {
      "inputs": [
        {
          "internalType": "address",
          "name": "_chef",
          "type": "address"
        },
        {
          "internalType": "address",
          "name": "_stargateRouter",
          "type": "address"
        },
        {
          "internalType": "address",
          "name": "_wnative",
          "type": "address"
        },
        {
          "internalType": "address[]",
          "name": "_rewards",
          "type": "address[]"
        },
        {
          "components": [
            {
              "internalType": "address",
              "name": "vault",
              "type": "address"
            },
            {
              "internalType": "address",
              "name": "swapper",
              "type": "address"
            },
            {
              "internalType": "address",
              "name": "keeper",
              "type": "address"
            },
            {
              "internalType": "address",
              "name": "strategist",
              "type": "address"
            },
            {
              "internalType": "address",
              "name": "plexusFeeRecipient",
              "type": "address"
            },
            {
              "internalType": "address",
              "name": "plexusFeeConfig",
              "type": "address"
            }
          ],
          "internalType": "struct StratFeeManagerInitializable.CommonAddresses",
          "name": "_commonAddresses",
          "type": "tuple"
        }
      ],
      "name": "initialize",
      "outputs": [],
      "stateMutability": "nonpayable",
      "type": "function"
    },
    {
      "inputs": [],
      "name": "keeper",
      "outputs": [
        {
          "internalType": "address",
          "name": "",
          "type": "address"
        }
      ],
      "stateMutability": "view",
      "type": "function"
    },
    {
      "inputs": [],
      "name": "lastHarvest",
      "outputs": [
        {
          "internalType": "uint256",
          "name": "",
          "type": "uint256"
        }
      ],
      "stateMutability": "view",
      "type": "function"
    },
    {
      "inputs": [],
      "name": "lockDuration",
      "outputs": [
        {
          "internalType": "uint256",
          "name": "",
          "type": "uint256"
        }
      ],
      "stateMutability": "view",
      "type": "function"
    },
    {
      "inputs": [],
      "name": "lockedProfit",
      "outputs": [
        {
          "internalType": "uint256",
          "name": "",
          "type": "uint256"
        }
      ],
      "stateMutability": "view",
      "type": "function"
    },
    {
      "inputs": [],
      "name": "lpToken",
      "outputs": [
        {
          "internalType": "address",
          "name": "",
          "type": "address"
        }
      ],
      "stateMutability": "view",
      "type": "function"
    },
    {
      "inputs": [
        {
          "internalType": "address",
          "name": "",
          "type": "address"
        }
      ],
      "name": "minAmounts",
      "outputs": [
        {
          "internalType": "uint256",
          "name": "",
          "type": "uint256"
        }
      ],
      "stateMutability": "view",
      "type": "function"
    },
    {
      "inputs": [],
      "name": "owner",
      "outputs": [
        {
          "internalType": "address",
          "name": "",
          "type": "address"
        }
      ],
      "stateMutability": "view",
      "type": "function"
    },
    {
      "inputs": [],
      "name": "panic",
      "outputs": [],
      "stateMutability": "nonpayable",
      "type": "function"
    },
    {
      "inputs": [],
      "name": "pause",
      "outputs": [],
      "stateMutability": "nonpayable",
      "type": "function"
    },
    {
      "inputs": [],
      "name": "paused",
      "outputs": [
        {
          "internalType": "bool",
          "name": "",
          "type": "bool"
        }
      ],
      "stateMutability": "view",
      "type": "function"
    },
    {
      "inputs": [],
      "name": "plexusFeeConfig",
      "outputs": [
        {
          "internalType": "contract IFeeConfig",
          "name": "",
          "type": "address"
        }
      ],
      "stateMutability": "view",
      "type": "function"
    },
    {
      "inputs": [],
      "name": "plexusFeeRecipient",
      "outputs": [
        {
          "internalType": "address",
          "name": "",
          "type": "address"
        }
      ],
      "stateMutability": "view",
      "type": "function"
    },
    {
      "inputs": [
        {
          "internalType": "uint256",
          "name": "i",
          "type": "uint256"
        }
      ],
      "name": "removeReward",
      "outputs": [],
      "stateMutability": "nonpayable",
      "type": "function"
    },
    {
      "inputs": [],
      "name": "renounceOwnership",
      "outputs": [],
      "stateMutability": "nonpayable",
      "type": "function"
    },
    {
      "inputs": [],
      "name": "resetRewards",
      "outputs": [],
      "stateMutability": "nonpayable",
      "type": "function"
    },
    {
      "inputs": [],
      "name": "retireStrat",
      "outputs": [],
      "stateMutability": "nonpayable",
      "type": "function"
    },
    {
      "inputs": [
        {
          "internalType": "uint256",
          "name": "",
          "type": "uint256"
        }
      ],
      "name": "rewards",
      "outputs": [
        {
          "internalType": "address",
          "name": "",
          "type": "address"
        }
      ],
      "stateMutability": "view",
      "type": "function"
    },
    {
      "inputs": [],
      "name": "rewardsAvailable",
      "outputs": [
        {
          "internalType": "uint256",
          "name": "",
          "type": "uint256"
        }
      ],
      "stateMutability": "view",
      "type": "function"
    },
    {
      "inputs": [],
      "name": "rewardsLength",
      "outputs": [
        {
          "internalType": "uint256",
          "name": "",
          "type": "uint256"
        }
      ],
      "stateMutability": "view",
      "type": "function"
    },
    {
      "inputs": [
        {
          "internalType": "bool",
          "name": "_harvestOnDeposit",
          "type": "bool"
        }
      ],
      "name": "setHarvestOnDeposit",
      "outputs": [],
      "stateMutability": "nonpayable",
      "type": "function"
    },
    {
      "inputs": [
        {
          "internalType": "address",
          "name": "_keeper",
          "type": "address"
        }
      ],
      "name": "setKeeper",
      "outputs": [],
      "stateMutability": "nonpayable",
      "type": "function"
    },
    {
      "inputs": [
        {
          "internalType": "uint256",
          "name": "_duration",
          "type": "uint256"
        }
      ],
      "name": "setLockDuration",
      "outputs": [],
      "stateMutability": "nonpayable",
      "type": "function"
    },
    {
      "inputs": [
        {
          "internalType": "address",
          "name": "_plexusFeeConfig",
          "type": "address"
        }
      ],
      "name": "setPlexusFeeConfig",
      "outputs": [],
      "stateMutability": "nonpayable",
      "type": "function"
    },
    {
      "inputs": [
        {
          "internalType": "address",
          "name": "_plexusFeeRecipient",
          "type": "address"
        }
      ],
      "name": "setPlexusFeeRecipient",
      "outputs": [],
      "stateMutability": "nonpayable",
      "type": "function"
    },
    {
      "inputs": [
        {
          "internalType": "address",
          "name": "token",
          "type": "address"
        },
        {
          "internalType": "uint256",
          "name": "minAmount",
          "type": "uint256"
        }
      ],
      "name": "setRewardMinAmount",
      "outputs": [],
      "stateMutability": "nonpayable",
      "type": "function"
    },
    {
      "inputs": [
        {
          "internalType": "uint256",
          "name": "_feeId",
          "type": "uint256"
        }
      ],
      "name": "setStratFeeId",
      "outputs": [],
      "stateMutability": "nonpayable",
      "type": "function"
    },
    {
      "inputs": [
        {
          "internalType": "address",
          "name": "_strategist",
          "type": "address"
        }
      ],
      "name": "setStrategist",
      "outputs": [],
      "stateMutability": "nonpayable",
      "type": "function"
    },
    {
      "inputs": [
        {
          "internalType": "address",
          "name": "_swapper",
          "type": "address"
        }
      ],
      "name": "setSwapper",
      "outputs": [],
      "stateMutability": "nonpayable",
      "type": "function"
    },
    {
      "inputs": [
        {
          "internalType": "address",
          "name": "_vault",
          "type": "address"
        }
      ],
      "name": "setVault",
      "outputs": [],
      "stateMutability": "nonpayable",
      "type": "function"
    },
    {
      "inputs": [
        {
          "internalType": "uint256",
          "name": "_fee",
          "type": "uint256"
        }
      ],
      "name": "setWithdrawalFee",
      "outputs": [],
      "stateMutability": "nonpayable",
      "type": "function"
    },
    {
      "inputs": [],
      "name": "stargateRouter",
      "outputs": [
        {
          "internalType": "address",
          "name": "",
          "type": "address"
        }
      ],
      "stateMutability": "view",
      "type": "function"
    },
    {
      "inputs": [],
      "name": "strategist",
      "outputs": [
        {
          "internalType": "address",
          "name": "",
          "type": "address"
        }
      ],
      "stateMutability": "view",
      "type": "function"
    },
    {
      "inputs": [],
      "name": "totalLocked",
      "outputs": [
        {
          "internalType": "uint256",
          "name": "",
          "type": "uint256"
        }
      ],
      "stateMutability": "view",
      "type": "function"
    },
    {
      "inputs": [
        {
          "internalType": "address",
          "name": "newOwner",
          "type": "address"
        }
      ],
      "name": "transferOwnership",
      "outputs": [],
      "stateMutability": "nonpayable",
      "type": "function"
    },
    {
      "inputs": [],
      "name": "swapper",
      "outputs": [
        {
          "internalType": "address",
          "name": "",
          "type": "address"
        }
      ],
      "stateMutability": "view",
      "type": "function"
    },
    {
      "inputs": [],
      "name": "unpause",
      "outputs": [],
      "stateMutability": "nonpayable",
      "type": "function"
    },
    {
      "inputs": [
        {
          "internalType": "address",
          "name": "_swapper",
          "type": "address"
        }
      ],
      "name": "updateSwapper",
      "outputs": [],
      "stateMutability": "nonpayable",
      "type": "function"
    },
    {
      "inputs": [],
      "name": "vault",
      "outputs": [
        {
          "internalType": "address",
          "name": "",
          "type": "address"
        }
      ],
      "stateMutability": "view",
      "type": "function"
    },
    {
      "inputs": [],
      "name": "want",
      "outputs": [
        {
          "internalType": "address",
          "name": "",
          "type": "address"
        }
      ],
      "stateMutability": "view",
      "type": "function"
    },
    {
      "inputs": [
        {
          "internalType": "uint256",
          "name": "_amount",
          "type": "uint256"
        }
      ],
      "name": "withdraw",
      "outputs": [],
      "stateMutability": "nonpayable",
      "type": "function"
    },
    {
      "inputs": [],
      "name": "withdrawFee",
      "outputs": [
        {
          "internalType": "uint256",
          "name": "",
          "type": "uint256"
        }
      ],
      "stateMutability": "view",
      "type": "function"
    },
    {
      "inputs": [],
      "name": "wnative",
      "outputs": [
        {
          "internalType": "address",
          "name": "",
          "type": "address"
        }
      ],
      "stateMutability": "view",
      "type": "function"
    },
    {
      "stateMutability": "payable",
      "type": "receive"
    }
  ]
}