{
	"contracts/infra/StrategyFactory.sol": {
		"StrategyFactory": {
			"abi": [
				{
					"inputs": [
						{
							"internalType": "address",
							"name": "_wnative",
							"type": "address"
						},
						{
							"internalType": "address",
							"name": "_keeper",
							"type": "address"
						},
						{
							"internalType": "address",
							"name": "_plexusFeeRecipient",
							"type": "address"
						},
						{
							"internalType": "address",
							"name": "_plexusFeeConfig",
							"type": "address"
						}
					],
					"stateMutability": "nonpayable",
					"type": "constructor"
				},
				{
					"inputs": [],
					"name": "NotManager",
					"type": "error"
				},
				{
					"inputs": [],
					"name": "StratVersionExists",
					"type": "error"
				},
				{
					"anonymous": false,
					"inputs": [
						{
							"indexed": false,
							"internalType": "bool",
							"name": "paused",
							"type": "bool"
						}
					],
					"name": "GlobalPause",
					"type": "event"
				},
				{
					"anonymous": false,
					"inputs": [
						{
							"indexed": false,
							"internalType": "string",
							"name": "strategyName",
							"type": "string"
						},
						{
							"indexed": false,
							"internalType": "address",
							"name": "newImplementation",
							"type": "address"
						}
					],
					"name": "InstanceUpgraded",
					"type": "event"
				},
				{
					"anonymous": false,
					"inputs": [
						{
							"indexed": false,
							"internalType": "string",
							"name": "strategyName",
							"type": "string"
						},
						{
							"indexed": false,
							"internalType": "address",
							"name": "implementation",
							"type": "address"
						}
					],
					"name": "NewStrategyAdded",
					"type": "event"
				},
				{
					"anonymous": false,
					"inputs": [
						{
							"indexed": true,
							"internalType": "address",
							"name": "previousOwner",
							"type": "address"
						},
						{
							"indexed": true,
							"internalType": "address",
							"name": "newOwner",
							"type": "address"
						}
					],
					"name": "OwnershipTransferred",
					"type": "event"
				},
				{
					"anonymous": false,
					"inputs": [
						{
							"indexed": false,
							"internalType": "string",
							"name": "strategyName",
							"type": "string"
						},
						{
							"indexed": false,
							"internalType": "address",
							"name": "proxy",
							"type": "address"
						}
					],
					"name": "ProxyCreated",
					"type": "event"
				},
				{
					"anonymous": false,
					"inputs": [
						{
							"indexed": false,
							"internalType": "address",
							"name": "rebalancer",
							"type": "address"
						},
						{
							"indexed": false,
							"internalType": "bool",
							"name": "isRebalancer",
							"type": "bool"
						}
					],
					"name": "RebalancerChanged",
					"type": "event"
				},
				{
					"anonymous": false,
					"inputs": [
						{
							"indexed": false,
							"internalType": "address",
							"name": "keeper",
							"type": "address"
						}
					],
					"name": "SetKeeper",
					"type": "event"
				},
				{
					"anonymous": false,
					"inputs": [
						{
							"indexed": false,
							"internalType": "address",
							"name": "plexusFeeConfig",
							"type": "address"
						}
					],
					"name": "SetPlexusFeeConfig",
					"type": "event"
				},
				{
					"anonymous": false,
					"inputs": [
						{
							"indexed": false,
							"internalType": "address",
							"name": "plexusFeeRecipient",
							"type": "address"
						}
					],
					"name": "SetPlexusFeeRecipient",
					"type": "event"
				},
				{
					"anonymous": false,
					"inputs": [
						{
							"indexed": false,
							"internalType": "string",
							"name": "strategyName",
							"type": "string"
						},
						{
							"indexed": false,
							"internalType": "bool",
							"name": "paused",
							"type": "bool"
						}
					],
					"name": "StratPause",
					"type": "event"
				},
				{
					"inputs": [
						{
							"internalType": "address",
							"name": "_rebalancer",
							"type": "address"
						}
					],
					"name": "addRebalancer",
					"outputs": [],
					"stateMutability": "nonpayable",
					"type": "function"
				},
				{
					"inputs": [
						{
							"internalType": "string",
							"name": "_strategyName",
							"type": "string"
						},
						{
							"internalType": "address",
							"name": "_implementation",
							"type": "address"
						}
					],
					"name": "addStrategy",
					"outputs": [],
					"stateMutability": "nonpayable",
					"type": "function"
				},
				{
					"inputs": [
						{
							"internalType": "string",
							"name": "_strategyName",
							"type": "string"
						}
					],
					"name": "createStrategy",
					"outputs": [
						{
							"internalType": "address",
							"name": "",
							"type": "address"
						}
					],
					"stateMutability": "nonpayable",
					"type": "function"
				},
				{
					"inputs": [
						{
							"internalType": "string",
							"name": "_strategyName",
							"type": "string"
						}
					],
					"name": "getImplementation",
					"outputs": [
						{
							"internalType": "address",
							"name": "",
							"type": "address"
						}
					],
					"stateMutability": "view",
					"type": "function"
				},
				{
					"inputs": [],
					"name": "getStrategyTypes",
					"outputs": [
						{
							"internalType": "string[]",
							"name": "",
							"type": "string[]"
						}
					],
					"stateMutability": "view",
					"type": "function"
				},
				{
					"inputs": [],
					"name": "globalPause",
					"outputs": [
						{
							"internalType": "bool",
							"name": "",
							"type": "bool"
						}
					],
					"stateMutability": "view",
					"type": "function"
				},
				{
					"inputs": [
						{
							"internalType": "string",
							"name": "",
							"type": "string"
						}
					],
					"name": "instances",
					"outputs": [
						{
							"internalType": "contract UpgradeableBeacon",
							"name": "",
							"type": "address"
						}
					],
					"stateMutability": "view",
					"type": "function"
				},
				{
					"inputs": [],
					"name": "keeper",
					"outputs": [
						{
							"internalType": "address",
							"name": "",
							"type": "address"
						}
					],
					"stateMutability": "view",
					"type": "function"
				},
				{
					"inputs": [],
					"name": "owner",
					"outputs": [
						{
							"internalType": "address",
							"name": "",
							"type": "address"
						}
					],
					"stateMutability": "view",
					"type": "function"
				},
				{
					"inputs": [],
					"name": "pauseAllStrats",
					"outputs": [],
					"stateMutability": "nonpayable",
					"type": "function"
				},
				{
					"inputs": [
						{
							"internalType": "string",
							"name": "_strategyName",
							"type": "string"
						}
					],
					"name": "pauseStrategy",
					"outputs": [],
					"stateMutability": "nonpayable",
					"type": "function"
				},
				{
					"inputs": [],
					"name": "plexusFeeConfig",
					"outputs": [
						{
							"internalType": "address",
							"name": "",
							"type": "address"
						}
					],
					"stateMutability": "view",
					"type": "function"
				},
				{
					"inputs": [],
					"name": "plexusFeeRecipient",
					"outputs": [
						{
							"internalType": "address",
							"name": "",
							"type": "address"
						}
					],
					"stateMutability": "view",
					"type": "function"
				},
				{
					"inputs": [
						{
							"internalType": "address",
							"name": "",
							"type": "address"
						}
					],
					"name": "rebalancers",
					"outputs": [
						{
							"internalType": "bool",
							"name": "",
							"type": "bool"
						}
					],
					"stateMutability": "view",
					"type": "function"
				},
				{
					"inputs": [
						{
							"internalType": "address",
							"name": "_rebalancer",
							"type": "address"
						}
					],
					"name": "removeRebalancer",
					"outputs": [],
					"stateMutability": "nonpayable",
					"type": "function"
				},
				{
					"inputs": [],
					"name": "renounceOwnership",
					"outputs": [],
					"stateMutability": "nonpayable",
					"type": "function"
				},
				{
					"inputs": [
						{
							"internalType": "address",
							"name": "_keeper",
							"type": "address"
						}
					],
					"name": "setKeeper",
					"outputs": [],
					"stateMutability": "nonpayable",
					"type": "function"
				},
				{
					"inputs": [
						{
							"internalType": "address",
							"name": "_plexusFeeConfig",
							"type": "address"
						}
					],
					"name": "setPlexusFeeConfig",
					"outputs": [],
					"stateMutability": "nonpayable",
					"type": "function"
				},
				{
					"inputs": [
						{
							"internalType": "address",
							"name": "_plexusFeeRecipient",
							"type": "address"
						}
					],
					"name": "setPlexusFeeRecipient",
					"outputs": [],
					"stateMutability": "nonpayable",
					"type": "function"
				},
				{
					"inputs": [
						{
							"internalType": "string",
							"name": "",
							"type": "string"
						}
					],
					"name": "strategyPause",
					"outputs": [
						{
							"internalType": "bool",
							"name": "",
							"type": "bool"
						}
					],
					"stateMutability": "view",
					"type": "function"
				},
				{
					"inputs": [
						{
							"internalType": "uint256",
							"name": "",
							"type": "uint256"
						}
					],
					"name": "strategyTypes",
					"outputs": [
						{
							"internalType": "string",
							"name": "",
							"type": "string"
						}
					],
					"stateMutability": "view",
					"type": "function"
				},
				{
					"inputs": [
						{
							"internalType": "address",
							"name": "newOwner",
							"type": "address"
						}
					],
					"name": "transferOwnership",
					"outputs": [],
					"stateMutability": "nonpayable",
					"type": "function"
				},
				{
					"inputs": [],
					"name": "unpauseAllStrats",
					"outputs": [],
					"stateMutability": "nonpayable",
					"type": "function"
				},
				{
					"inputs": [
						{
							"internalType": "string",
							"name": "_strategyName",
							"type": "string"
						}
					],
					"name": "unpauseStrategy",
					"outputs": [],
					"stateMutability": "nonpayable",
					"type": "function"
				},
				{
					"inputs": [
						{
							"internalType": "string",
							"name": "_strategyName",
							"type": "string"
						},
						{
							"internalType": "address",
							"name": "_newImplementation",
							"type": "address"
						}
					],
					"name": "upgradeTo",
					"outputs": [],
					"stateMutability": "nonpayable",
					"type": "function"
				},
				{
					"inputs": [],
					"name": "wnative",
					"outputs": [
						{
							"internalType": "address",
							"name": "",
							"type": "address"
						}
					],
					"stateMutability": "view",
					"type": "function"
				}
			],
			"devdoc": {
				"kind": "dev",
				"methods": {
					"addRebalancer(address)": {
						"params": {
							"_rebalancer": "The rebalancer address"
						}
					},
					"addStrategy(string,address)": {
						"params": {
							"_implementation": "The implementation address",
							"_strategyName": "The name of the strategy"
						}
					},
					"createStrategy(string)": {
						"params": {
							"_strategyName": "The name of the strategy"
						},
						"returns": {
							"_0": "A reference to the new proxied Plexus Strategy"
						}
					},
					"getImplementation(string)": {
						"params": {
							"_strategyName": "The name of the strategy"
						},
						"returns": {
							"_0": "The implementation address"
						}
					},
					"getStrategyTypes()": {
						"returns": {
							"_0": "The array of deployed strategies"
						}
					},
					"owner()": {
						"details": "Returns the address of the current owner."
					},
					"removeRebalancer(address)": {
						"params": {
							"_rebalancer": "The rebalancer address"
						}
					},
					"renounceOwnership()": {
						"details": "Leaves the contract without owner. It will not be possible to call `onlyOwner` functions. Can only be called by the current owner. NOTE: Renouncing ownership will leave the contract without an owner, thereby disabling any functionality that is only available to the owner."
					},
					"setKeeper(address)": {
						"params": {
							"_keeper": "The new keeper address"
						}
					},
					"setPlexusFeeConfig(address)": {
						"params": {
							"_plexusFeeConfig": "The new plexus fee config address"
						}
					},
					"setPlexusFeeRecipient(address)": {
						"params": {
							"_plexusFeeRecipient": "The new plexus fee recipient address"
						}
					},
					"transferOwnership(address)": {
						"details": "Transfers ownership of the contract to a new account (`newOwner`). Can only be called by the current owner."
					},
					"upgradeTo(string,address)": {
						"params": {
							"_newImplementation": "The new implementation address",
							"_strategyName": "The name of the strategy"
						}
					}
				},
				"version": 1
			},
			"evm": {
				"assembly": "    /* \"contracts/infra/StrategyFactory.sol\":304:6852  contract StrategyFactory is Ownable {... */\n  mstore(0x40, 0x80)\n    /* \"contracts/infra/StrategyFactory.sol\":2036:2341  constructor(... */\n  callvalue\n  dup1\n  iszero\n  tag_1\n  jumpi\n  0x00\n  dup1\n  revert\ntag_1:\n  pop\n  mload(0x40)\n  sub(codesize, bytecodeSize)\n  dup1\n  bytecodeSize\n  dup4\n  codecopy\n  dup2\n  dup2\n  add\n  0x40\n  mstore\n  dup2\n  add\n  swap1\n  tag_2\n  swap2\n  swap1\n  tag_3\n  jump\t// in\ntag_2:\n    /* \"@openzeppelin/contracts/access/Ownable.sol\":936:968  _transferOwnership(_msgSender()) */\n  tag_7\n    /* \"@openzeppelin/contracts/access/Ownable.sol\":955:967  _msgSender() */\n  tag_8\n    /* \"@openzeppelin/contracts/access/Ownable.sol\":955:965  _msgSender */\n  shl(0x20, tag_9)\n    /* \"@openzeppelin/contracts/access/Ownable.sol\":955:967  _msgSender() */\n  0x20\n  shr\n  jump\t// in\ntag_8:\n    /* \"@openzeppelin/contracts/access/Ownable.sol\":936:954  _transferOwnership */\n  shl(0x20, tag_10)\n    /* \"@openzeppelin/contracts/access/Ownable.sol\":936:968  _transferOwnership(_msgSender()) */\n  0x20\n  shr\n  jump\t// in\ntag_7:\n    /* \"contracts/infra/StrategyFactory.sol\":2206:2214  _wnative */\n  dup4\n    /* \"contracts/infra/StrategyFactory.sol\":2196:2203  wnative */\n  0x05\n  0x00\n    /* \"contracts/infra/StrategyFactory.sol\":2196:2214  wnative = _wnative */\n  0x0100\n  exp\n  dup2\n  sload\n  dup2\n  0xffffffffffffffffffffffffffffffffffffffff\n  mul\n  not\n  and\n  swap1\n  dup4\n  0xffffffffffffffffffffffffffffffffffffffff\n  and\n  mul\n  or\n  swap1\n  sstore\n  pop\n    /* \"contracts/infra/StrategyFactory.sol\":2233:2240  _keeper */\n  dup3\n    /* \"contracts/infra/StrategyFactory.sol\":2224:2230  keeper */\n  0x06\n  0x00\n    /* \"contracts/infra/StrategyFactory.sol\":2224:2240  keeper = _keeper */\n  0x0100\n  exp\n  dup2\n  sload\n  dup2\n  0xffffffffffffffffffffffffffffffffffffffff\n  mul\n  not\n  and\n  swap1\n  dup4\n  0xffffffffffffffffffffffffffffffffffffffff\n  and\n  mul\n  or\n  swap1\n  sstore\n  pop\n    /* \"contracts/infra/StrategyFactory.sol\":2271:2290  _plexusFeeRecipient */\n  dup2\n    /* \"contracts/infra/StrategyFactory.sol\":2250:2268  plexusFeeRecipient */\n  0x07\n  0x00\n    /* \"contracts/infra/StrategyFactory.sol\":2250:2290  plexusFeeRecipient = _plexusFeeRecipient */\n  0x0100\n  exp\n  dup2\n  sload\n  dup2\n  0xffffffffffffffffffffffffffffffffffffffff\n  mul\n  not\n  and\n  swap1\n  dup4\n  0xffffffffffffffffffffffffffffffffffffffff\n  and\n  mul\n  or\n  swap1\n  sstore\n  pop\n    /* \"contracts/infra/StrategyFactory.sol\":2318:2334  _plexusFeeConfig */\n  dup1\n    /* \"contracts/infra/StrategyFactory.sol\":2300:2315  plexusFeeConfig */\n  0x08\n  0x00\n    /* \"contracts/infra/StrategyFactory.sol\":2300:2334  plexusFeeConfig = _plexusFeeConfig */\n  0x0100\n  exp\n  dup2\n  sload\n  dup2\n  0xffffffffffffffffffffffffffffffffffffffff\n  mul\n  not\n  and\n  swap1\n  dup4\n  0xffffffffffffffffffffffffffffffffffffffff\n  and\n  mul\n  or\n  swap1\n  sstore\n  pop\n    /* \"contracts/infra/StrategyFactory.sol\":2036:2341  constructor(... */\n  pop\n  pop\n  pop\n  pop\n    /* \"contracts/infra/StrategyFactory.sol\":304:6852  contract StrategyFactory is Ownable {... */\n  jump(tag_12)\n    /* \"@openzeppelin/contracts/utils/Context.sol\":655:751  function _msgSender() internal view virtual returns (address) {... */\ntag_9:\n    /* \"@openzeppelin/contracts/utils/Context.sol\":708:715  address */\n  0x00\n    /* \"@openzeppelin/contracts/utils/Context.sol\":734:744  msg.sender */\n  caller\n    /* \"@openzeppelin/contracts/utils/Context.sol\":727:744  return msg.sender */\n  swap1\n  pop\n    /* \"@openzeppelin/contracts/utils/Context.sol\":655:751  function _msgSender() internal view virtual returns (address) {... */\n  swap1\n  jump\t// out\n    /* \"@openzeppelin/contracts/access/Ownable.sol\":2426:2613  function _transferOwnership(address newOwner) internal virtual {... */\ntag_10:\n    /* \"@openzeppelin/contracts/access/Ownable.sol\":2499:2515  address oldOwner */\n  0x00\n    /* \"@openzeppelin/contracts/access/Ownable.sol\":2518:2524  _owner */\n  dup1\n  0x00\n  swap1\n  sload\n  swap1\n  0x0100\n  exp\n  swap1\n  div\n  0xffffffffffffffffffffffffffffffffffffffff\n  and\n    /* \"@openzeppelin/contracts/access/Ownable.sol\":2499:2524  address oldOwner = _owner */\n  swap1\n  pop\n    /* \"@openzeppelin/contracts/access/Ownable.sol\":2543:2551  newOwner */\n  dup2\n    /* \"@openzeppelin/contracts/access/Ownable.sol\":2534:2540  _owner */\n  0x00\n  dup1\n    /* \"@openzeppelin/contracts/access/Ownable.sol\":2534:2551  _owner = newOwner */\n  0x0100\n  exp\n  dup2\n  sload\n  dup2\n  0xffffffffffffffffffffffffffffffffffffffff\n  mul\n  not\n  and\n  swap1\n  dup4\n  0xffffffffffffffffffffffffffffffffffffffff\n  and\n  mul\n  or\n  swap1\n  sstore\n  pop\n    /* \"@openzeppelin/contracts/access/Ownable.sol\":2597:2605  newOwner */\n  dup2\n    /* \"@openzeppelin/contracts/access/Ownable.sol\":2566:2606  OwnershipTransferred(oldOwner, newOwner) */\n  0xffffffffffffffffffffffffffffffffffffffff\n  and\n    /* \"@openzeppelin/contracts/access/Ownable.sol\":2587:2595  oldOwner */\n  dup2\n    /* \"@openzeppelin/contracts/access/Ownable.sol\":2566:2606  OwnershipTransferred(oldOwner, newOwner) */\n  0xffffffffffffffffffffffffffffffffffffffff\n  and\n  0x8be0079c531659141344cd1fd0a4f28419497f9722a3daafe3b4186f6b6457e0\n  mload(0x40)\n  mload(0x40)\n  dup1\n  swap2\n  sub\n  swap1\n  log3\n    /* \"@openzeppelin/contracts/access/Ownable.sol\":2489:2613  {... */\n  pop\n    /* \"@openzeppelin/contracts/access/Ownable.sol\":2426:2613  function _transferOwnership(address newOwner) internal virtual {... */\n  pop\n  jump\t// out\n    /* \"#utility.yul\":88:205   */\ntag_16:\n    /* \"#utility.yul\":197:198   */\n  0x00\n    /* \"#utility.yul\":194:195   */\n  dup1\n    /* \"#utility.yul\":187:199   */\n  revert\n    /* \"#utility.yul\":334:460   */\ntag_18:\n    /* \"#utility.yul\":371:378   */\n  0x00\n    /* \"#utility.yul\":411:453   */\n  0xffffffffffffffffffffffffffffffffffffffff\n    /* \"#utility.yul\":404:409   */\n  dup3\n    /* \"#utility.yul\":400:454   */\n  and\n    /* \"#utility.yul\":389:454   */\n  swap1\n  pop\n    /* \"#utility.yul\":334:460   */\n  swap2\n  swap1\n  pop\n  jump\t// out\n    /* \"#utility.yul\":466:562   */\ntag_19:\n    /* \"#utility.yul\":503:510   */\n  0x00\n    /* \"#utility.yul\":532:556   */\n  tag_28\n    /* \"#utility.yul\":550:555   */\n  dup3\n    /* \"#utility.yul\":532:556   */\n  tag_18\n  jump\t// in\ntag_28:\n    /* \"#utility.yul\":521:556   */\n  swap1\n  pop\n    /* \"#utility.yul\":466:562   */\n  swap2\n  swap1\n  pop\n  jump\t// out\n    /* \"#utility.yul\":568:690   */\ntag_20:\n    /* \"#utility.yul\":641:665   */\n  tag_30\n    /* \"#utility.yul\":659:664   */\n  dup2\n    /* \"#utility.yul\":641:665   */\n  tag_19\n  jump\t// in\ntag_30:\n    /* \"#utility.yul\":634:639   */\n  dup2\n    /* \"#utility.yul\":631:666   */\n  eq\n    /* \"#utility.yul\":621:684   */\n  tag_31\n  jumpi\n    /* \"#utility.yul\":680:681   */\n  0x00\n    /* \"#utility.yul\":677:678   */\n  dup1\n    /* \"#utility.yul\":670:682   */\n  revert\n    /* \"#utility.yul\":621:684   */\ntag_31:\n    /* \"#utility.yul\":568:690   */\n  pop\n  jump\t// out\n    /* \"#utility.yul\":696:839   */\ntag_21:\n    /* \"#utility.yul\":753:758   */\n  0x00\n    /* \"#utility.yul\":784:790   */\n  dup2\n    /* \"#utility.yul\":778:791   */\n  mload\n    /* \"#utility.yul\":769:791   */\n  swap1\n  pop\n    /* \"#utility.yul\":800:833   */\n  tag_33\n    /* \"#utility.yul\":827:832   */\n  dup2\n    /* \"#utility.yul\":800:833   */\n  tag_20\n  jump\t// in\ntag_33:\n    /* \"#utility.yul\":696:839   */\n  swap3\n  swap2\n  pop\n  pop\n  jump\t// out\n    /* \"#utility.yul\":845:1665   */\ntag_3:\n    /* \"#utility.yul\":942:948   */\n  0x00\n    /* \"#utility.yul\":950:956   */\n  dup1\n    /* \"#utility.yul\":958:964   */\n  0x00\n    /* \"#utility.yul\":966:972   */\n  dup1\n    /* \"#utility.yul\":1015:1018   */\n  0x80\n    /* \"#utility.yul\":1003:1012   */\n  dup6\n    /* \"#utility.yul\":994:1001   */\n  dup8\n    /* \"#utility.yul\":990:1013   */\n  sub\n    /* \"#utility.yul\":986:1019   */\n  slt\n    /* \"#utility.yul\":983:1103   */\n  iszero\n  tag_35\n  jumpi\n    /* \"#utility.yul\":1022:1101   */\n  tag_36\n  tag_16\n  jump\t// in\ntag_36:\n    /* \"#utility.yul\":983:1103   */\ntag_35:\n    /* \"#utility.yul\":1142:1143   */\n  0x00\n    /* \"#utility.yul\":1167:1231   */\n  tag_37\n    /* \"#utility.yul\":1223:1230   */\n  dup8\n    /* \"#utility.yul\":1214:1220   */\n  dup3\n    /* \"#utility.yul\":1203:1212   */\n  dup9\n    /* \"#utility.yul\":1199:1221   */\n  add\n    /* \"#utility.yul\":1167:1231   */\n  tag_21\n  jump\t// in\ntag_37:\n    /* \"#utility.yul\":1157:1231   */\n  swap5\n  pop\n    /* \"#utility.yul\":1113:1241   */\n  pop\n    /* \"#utility.yul\":1280:1282   */\n  0x20\n    /* \"#utility.yul\":1306:1370   */\n  tag_38\n    /* \"#utility.yul\":1362:1369   */\n  dup8\n    /* \"#utility.yul\":1353:1359   */\n  dup3\n    /* \"#utility.yul\":1342:1351   */\n  dup9\n    /* \"#utility.yul\":1338:1360   */\n  add\n    /* \"#utility.yul\":1306:1370   */\n  tag_21\n  jump\t// in\ntag_38:\n    /* \"#utility.yul\":1296:1370   */\n  swap4\n  pop\n    /* \"#utility.yul\":1251:1380   */\n  pop\n    /* \"#utility.yul\":1419:1421   */\n  0x40\n    /* \"#utility.yul\":1445:1509   */\n  tag_39\n    /* \"#utility.yul\":1501:1508   */\n  dup8\n    /* \"#utility.yul\":1492:1498   */\n  dup3\n    /* \"#utility.yul\":1481:1490   */\n  dup9\n    /* \"#utility.yul\":1477:1499   */\n  add\n    /* \"#utility.yul\":1445:1509   */\n  tag_21\n  jump\t// in\ntag_39:\n    /* \"#utility.yul\":1435:1509   */\n  swap3\n  pop\n    /* \"#utility.yul\":1390:1519   */\n  pop\n    /* \"#utility.yul\":1558:1560   */\n  0x60\n    /* \"#utility.yul\":1584:1648   */\n  tag_40\n    /* \"#utility.yul\":1640:1647   */\n  dup8\n    /* \"#utility.yul\":1631:1637   */\n  dup3\n    /* \"#utility.yul\":1620:1629   */\n  dup9\n    /* \"#utility.yul\":1616:1638   */\n  add\n    /* \"#utility.yul\":1584:1648   */\n  tag_21\n  jump\t// in\ntag_40:\n    /* \"#utility.yul\":1574:1648   */\n  swap2\n  pop\n    /* \"#utility.yul\":1529:1658   */\n  pop\n    /* \"#utility.yul\":845:1665   */\n  swap3\n  swap6\n  swap2\n  swap5\n  pop\n  swap3\n  pop\n  jump\t// out\n    /* \"contracts/infra/StrategyFactory.sol\":304:6852  contract StrategyFactory is Ownable {... */\ntag_12:\n  dataSize(sub_0)\n  dup1\n  dataOffset(sub_0)\n  0x00\n  codecopy\n  0x00\n  return\nstop\n\nsub_0: assembly {\n        /* \"contracts/infra/StrategyFactory.sol\":304:6852  contract StrategyFactory is Ownable {... */\n      mstore(0x40, 0x80)\n      callvalue\n      dup1\n      iszero\n      tag_1\n      jumpi\n      0x00\n      dup1\n      revert\n    tag_1:\n      pop\n      jumpi(tag_2, lt(calldatasize, 0x04))\n      shr(0xe0, calldataload(0x00))\n      dup1\n      0x8683ed5b\n      gt\n      tag_29\n      jumpi\n      dup1\n      0xcdd5d9dd\n      gt\n      tag_30\n      jumpi\n      dup1\n      0xe8edd3e8\n      gt\n      tag_31\n      jumpi\n      dup1\n      0xe8edd3e8\n      eq\n      tag_25\n      jumpi\n      dup1\n      0xed8ea600\n      eq\n      tag_26\n      jumpi\n      dup1\n      0xf12d54d8\n      eq\n      tag_27\n      jumpi\n      dup1\n      0xf2fde38b\n      eq\n      tag_28\n      jumpi\n      jump(tag_2)\n    tag_31:\n      dup1\n      0xcdd5d9dd\n      eq\n      tag_22\n      jumpi\n      dup1\n      0xce903bcc\n      eq\n      tag_23\n      jumpi\n      dup1\n      0xde73a594\n      eq\n      tag_24\n      jumpi\n      jump(tag_2)\n    tag_30:\n      dup1\n      0x8683ed5b\n      eq\n      tag_16\n      jumpi\n      dup1\n      0x8da5cb5b\n      eq\n      tag_17\n      jumpi\n      dup1\n      0x940a9fa1\n      eq\n      tag_18\n      jumpi\n      dup1\n      0xa44d57a0\n      eq\n      tag_19\n      jumpi\n      dup1\n      0xaced1661\n      eq\n      tag_20\n      jumpi\n      dup1\n      0xc93d7715\n      eq\n      tag_21\n      jumpi\n      jump(tag_2)\n    tag_29:\n      dup1\n      0x41a1914e\n      gt\n      tag_32\n      jumpi\n      dup1\n      0x5a8b1a9f\n      gt\n      tag_33\n      jumpi\n      dup1\n      0x5a8b1a9f\n      eq\n      tag_12\n      jumpi\n      dup1\n      0x6b683896\n      eq\n      tag_13\n      jumpi\n      dup1\n      0x715018a6\n      eq\n      tag_14\n      jumpi\n      dup1\n      0x748747e6\n      eq\n      tag_15\n      jumpi\n      jump(tag_2)\n    tag_33:\n      dup1\n      0x41a1914e\n      eq\n      tag_9\n      jumpi\n      dup1\n      0x43bc4b9a\n      eq\n      tag_10\n      jumpi\n      dup1\n      0x517137ee\n      eq\n      tag_11\n      jumpi\n      jump(tag_2)\n    tag_32:\n      dup1\n      0x066e4a19\n      eq\n      tag_3\n      jumpi\n      dup1\n      0x0c979919\n      eq\n      tag_4\n      jumpi\n      dup1\n      0x116fd501\n      eq\n      tag_5\n      jumpi\n      dup1\n      0x194a4108\n      eq\n      tag_6\n      jumpi\n      dup1\n      0x1d06ce66\n      eq\n      tag_7\n      jumpi\n      dup1\n      0x2cebdeb2\n      eq\n      tag_8\n      jumpi\n    tag_2:\n      0x00\n      dup1\n      revert\n        /* \"contracts/infra/StrategyFactory.sol\":5882:6057  function setPlexusFeeConfig(address _plexusFeeConfig) external onlyOwner {... */\n    tag_3:\n      tag_34\n      0x04\n      dup1\n      calldatasize\n      sub\n      dup2\n      add\n      swap1\n      tag_35\n      swap2\n      swap1\n      tag_36\n      jump\t// in\n    tag_35:\n      tag_37\n      jump\t// in\n    tag_34:\n      stop\n        /* \"contracts/infra/StrategyFactory.sol\":4934:5096  function addRebalancer(address _rebalancer) external onlyOwner {... */\n    tag_4:\n      tag_38\n      0x04\n      dup1\n      calldatasize\n      sub\n      dup2\n      add\n      swap1\n      tag_39\n      swap2\n      swap1\n      tag_36\n      jump\t// in\n    tag_39:\n      tag_40\n      jump\t// in\n    tag_38:\n      stop\n        /* \"contracts/infra/StrategyFactory.sol\":2552:2953  function createStrategy(... */\n    tag_5:\n      tag_41\n      0x04\n      dup1\n      calldatasize\n      sub\n      dup2\n      add\n      swap1\n      tag_42\n      swap2\n      swap1\n      tag_43\n      jump\t// in\n    tag_42:\n      tag_44\n      jump\t// in\n    tag_41:\n      mload(0x40)\n      tag_45\n      swap2\n      swap1\n      tag_46\n      jump\t// in\n    tag_45:\n      mload(0x40)\n      dup1\n      swap2\n      sub\n      swap1\n      return\n        /* \"contracts/infra/StrategyFactory.sol\":4454:4627  function pauseStrategy(string calldata _strategyName) external onlyManager {... */\n    tag_6:\n      tag_47\n      0x04\n      dup1\n      calldatasize\n      sub\n      dup2\n      add\n      swap1\n      tag_48\n      swap2\n      swap1\n      tag_43\n      jump\t// in\n    tag_48:\n      tag_49\n      jump\t// in\n    tag_47:\n      stop\n        /* \"contracts/infra/StrategyFactory.sol\":5539:5746  function setPlexusFeeRecipient(... */\n    tag_7:\n      tag_50\n      0x04\n      dup1\n      calldatasize\n      sub\n      dup2\n      add\n      swap1\n      tag_51\n      swap2\n      swap1\n      tag_36\n      jump\t// in\n    tag_51:\n      tag_52\n      jump\t// in\n    tag_50:\n      stop\n        /* \"contracts/infra/StrategyFactory.sol\":784:806  address public wnative */\n    tag_8:\n      tag_53\n      tag_54\n      jump\t// in\n    tag_53:\n      mload(0x40)\n      tag_55\n      swap2\n      swap1\n      tag_46\n      jump\t// in\n    tag_55:\n      mload(0x40)\n      dup1\n      swap2\n      sub\n      swap1\n      return\n        /* \"contracts/infra/StrategyFactory.sol\":410:463  mapping(string => UpgradeableBeacon) public instances */\n    tag_9:\n      tag_56\n      0x04\n      dup1\n      calldatasize\n      sub\n      dup2\n      add\n      swap1\n      tag_57\n      swap2\n      swap1\n      tag_58\n      jump\t// in\n    tag_57:\n      tag_59\n      jump\t// in\n    tag_56:\n      mload(0x40)\n      tag_60\n      swap2\n      swap1\n      tag_61\n      jump\t// in\n    tag_60:\n      mload(0x40)\n      dup1\n      swap2\n      sub\n      swap1\n      return\n        /* \"contracts/infra/StrategyFactory.sol\":5225:5394  function removeRebalancer(address _rebalancer) external onlyManager {... */\n    tag_10:\n      tag_62\n      0x04\n      dup1\n      calldatasize\n      sub\n      dup2\n      add\n      swap1\n      tag_63\n      swap2\n      swap1\n      tag_36\n      jump\t// in\n    tag_63:\n      tag_64\n      jump\t// in\n    tag_62:\n      stop\n        /* \"contracts/infra/StrategyFactory.sol\":699:728  string[] public strategyTypes */\n    tag_11:\n      tag_65\n      0x04\n      dup1\n      calldatasize\n      sub\n      dup2\n      add\n      swap1\n      tag_66\n      swap2\n      swap1\n      tag_67\n      jump\t// in\n    tag_66:\n      tag_68\n      jump\t// in\n    tag_65:\n      mload(0x40)\n      tag_69\n      swap2\n      swap1\n      tag_70\n      jump\t// in\n    tag_69:\n      mload(0x40)\n      dup1\n      swap2\n      sub\n      swap1\n      return\n        /* \"contracts/infra/StrategyFactory.sol\":3149:3452  function upgradeTo(... */\n    tag_12:\n      tag_71\n      0x04\n      dup1\n      calldatasize\n      sub\n      dup2\n      add\n      swap1\n      tag_72\n      swap2\n      swap1\n      tag_73\n      jump\t// in\n    tag_72:\n      tag_74\n      jump\t// in\n    tag_71:\n      stop\n        /* \"contracts/infra/StrategyFactory.sol\":6453:6622  function getImplementation(... */\n    tag_13:\n      tag_75\n      0x04\n      dup1\n      calldatasize\n      sub\n      dup2\n      add\n      swap1\n      tag_76\n      swap2\n      swap1\n      tag_43\n      jump\t// in\n    tag_76:\n      tag_77\n      jump\t// in\n    tag_75:\n      mload(0x40)\n      tag_78\n      swap2\n      swap1\n      tag_46\n      jump\t// in\n    tag_78:\n      mload(0x40)\n      dup1\n      swap2\n      sub\n      swap1\n      return\n        /* \"@openzeppelin/contracts/access/Ownable.sol\":1824:1925  function renounceOwnership() public virtual onlyOwner {... */\n    tag_14:\n      tag_79\n      tag_80\n      jump\t// in\n    tag_79:\n      stop\n        /* \"contracts/infra/StrategyFactory.sol\":6162:6283  function setKeeper(address _keeper) external onlyOwner {... */\n    tag_15:\n      tag_81\n      0x04\n      dup1\n      calldatasize\n      sub\n      dup2\n      add\n      swap1\n      tag_82\n      swap2\n      swap1\n      tag_36\n      jump\t// in\n    tag_82:\n      tag_83\n      jump\t// in\n    tag_81:\n      stop\n        /* \"contracts/infra/StrategyFactory.sol\":924:957  address public plexusFeeRecipient */\n    tag_16:\n      tag_84\n      tag_85\n      jump\t// in\n    tag_84:\n      mload(0x40)\n      tag_86\n      swap2\n      swap1\n      tag_46\n      jump\t// in\n    tag_86:\n      mload(0x40)\n      dup1\n      swap2\n      sub\n      swap1\n      return\n        /* \"@openzeppelin/contracts/access/Ownable.sol\":1201:1286  function owner() public view virtual returns (address) {... */\n    tag_17:\n      tag_87\n      tag_88\n      jump\t// in\n    tag_87:\n      mload(0x40)\n      tag_89\n      swap2\n      swap1\n      tag_46\n      jump\t// in\n    tag_89:\n      mload(0x40)\n      dup1\n      swap2\n      sub\n      swap1\n      return\n        /* \"contracts/infra/StrategyFactory.sol\":4332:4448  function unpauseAllStrats() external onlyOwner {... */\n    tag_18:\n      tag_90\n      tag_91\n      jump\t// in\n    tag_90:\n      stop\n        /* \"contracts/infra/StrategyFactory.sol\":514:557  mapping(address => bool) public rebalancers */\n    tag_19:\n      tag_92\n      0x04\n      dup1\n      calldatasize\n      sub\n      dup2\n      add\n      swap1\n      tag_93\n      swap2\n      swap1\n      tag_36\n      jump\t// in\n    tag_93:\n      tag_94\n      jump\t// in\n    tag_92:\n      mload(0x40)\n      tag_95\n      swap2\n      swap1\n      tag_96\n      jump\t// in\n    tag_95:\n      mload(0x40)\n      dup1\n      swap2\n      sub\n      swap1\n      return\n        /* \"contracts/infra/StrategyFactory.sol\":855:876  address public keeper */\n    tag_20:\n      tag_97\n      tag_98\n      jump\t// in\n    tag_97:\n      mload(0x40)\n      tag_99\n      swap2\n      swap1\n      tag_46\n      jump\t// in\n    tag_99:\n      mload(0x40)\n      dup1\n      swap2\n      sub\n      swap1\n      return\n        /* \"contracts/infra/StrategyFactory.sol\":4157:4271  function pauseAllStrats() external onlyManager {... */\n    tag_21:\n      tag_100\n      tag_101\n      jump\t// in\n    tag_100:\n      stop\n        /* \"contracts/infra/StrategyFactory.sol\":3634:4098  function addStrategy(... */\n    tag_22:\n      tag_102\n      0x04\n      dup1\n      calldatasize\n      sub\n      dup2\n      add\n      swap1\n      tag_103\n      swap2\n      swap1\n      tag_73\n      jump\t// in\n    tag_103:\n      tag_104\n      jump\t// in\n    tag_102:\n      stop\n        /* \"contracts/infra/StrategyFactory.sol\":4633:4808  function unpauseStrategy(string calldata _strategyName) external onlyOwner {... */\n    tag_23:\n      tag_105\n      0x04\n      dup1\n      calldatasize\n      sub\n      dup2\n      add\n      swap1\n      tag_106\n      swap2\n      swap1\n      tag_43\n      jump\t// in\n    tag_106:\n      tag_107\n      jump\t// in\n    tag_105:\n      stop\n        /* \"contracts/infra/StrategyFactory.sol\":608:652  mapping(string => bool) public strategyPause */\n    tag_24:\n      tag_108\n      0x04\n      dup1\n      calldatasize\n      sub\n      dup2\n      add\n      swap1\n      tag_109\n      swap2\n      swap1\n      tag_58\n      jump\t// in\n    tag_109:\n      tag_110\n      jump\t// in\n    tag_108:\n      mload(0x40)\n      tag_111\n      swap2\n      swap1\n      tag_96\n      jump\t// in\n    tag_111:\n      mload(0x40)\n      dup1\n      swap2\n      sub\n      swap1\n      return\n        /* \"contracts/infra/StrategyFactory.sol\":1002:1032  address public plexusFeeConfig */\n    tag_25:\n      tag_112\n      tag_113\n      jump\t// in\n    tag_112:\n      mload(0x40)\n      tag_114\n      swap2\n      swap1\n      tag_46\n      jump\t// in\n    tag_114:\n      mload(0x40)\n      dup1\n      swap2\n      sub\n      swap1\n      return\n        /* \"contracts/infra/StrategyFactory.sol\":6745:6850  function getStrategyTypes() external view returns (string[] memory) {... */\n    tag_26:\n      tag_115\n      tag_116\n      jump\t// in\n    tag_115:\n      mload(0x40)\n      tag_117\n      swap2\n      swap1\n      tag_118\n      jump\t// in\n    tag_117:\n      mload(0x40)\n      dup1\n      swap2\n      sub\n      swap1\n      return\n        /* \"contracts/infra/StrategyFactory.sol\":1107:1130  bool public globalPause */\n    tag_27:\n      tag_119\n      tag_120\n      jump\t// in\n    tag_119:\n      mload(0x40)\n      tag_121\n      swap2\n      swap1\n      tag_96\n      jump\t// in\n    tag_121:\n      mload(0x40)\n      dup1\n      swap2\n      sub\n      swap1\n      return\n        /* \"@openzeppelin/contracts/access/Ownable.sol\":2074:2272  function transferOwnership(address newOwner) public virtual onlyOwner {... */\n    tag_28:\n      tag_122\n      0x04\n      dup1\n      calldatasize\n      sub\n      dup2\n      add\n      swap1\n      tag_123\n      swap2\n      swap1\n      tag_36\n      jump\t// in\n    tag_123:\n      tag_124\n      jump\t// in\n    tag_122:\n      stop\n        /* \"contracts/infra/StrategyFactory.sol\":5882:6057  function setPlexusFeeConfig(address _plexusFeeConfig) external onlyOwner {... */\n    tag_37:\n        /* \"@openzeppelin/contracts/access/Ownable.sol\":1094:1107  _checkOwner() */\n      tag_126\n        /* \"@openzeppelin/contracts/access/Ownable.sol\":1094:1105  _checkOwner */\n      tag_127\n        /* \"@openzeppelin/contracts/access/Ownable.sol\":1094:1107  _checkOwner() */\n      jump\t// in\n    tag_126:\n        /* \"contracts/infra/StrategyFactory.sol\":5983:5999  _plexusFeeConfig */\n      dup1\n        /* \"contracts/infra/StrategyFactory.sol\":5965:5980  plexusFeeConfig */\n      0x08\n      0x00\n        /* \"contracts/infra/StrategyFactory.sol\":5965:5999  plexusFeeConfig = _plexusFeeConfig */\n      0x0100\n      exp\n      dup2\n      sload\n      dup2\n      0xffffffffffffffffffffffffffffffffffffffff\n      mul\n      not\n      and\n      swap1\n      dup4\n      0xffffffffffffffffffffffffffffffffffffffff\n      and\n      mul\n      or\n      swap1\n      sstore\n      pop\n        /* \"contracts/infra/StrategyFactory.sol\":6014:6050  SetPlexusFeeConfig(_plexusFeeConfig) */\n      0xc6ae9db6ad0e87aaa4f7020ee56278bcc057e08519cf08ce5ecc3b25aa588d4f\n        /* \"contracts/infra/StrategyFactory.sol\":6033:6049  _plexusFeeConfig */\n      dup2\n        /* \"contracts/infra/StrategyFactory.sol\":6014:6050  SetPlexusFeeConfig(_plexusFeeConfig) */\n      mload(0x40)\n      tag_129\n      swap2\n      swap1\n      tag_46\n      jump\t// in\n    tag_129:\n      mload(0x40)\n      dup1\n      swap2\n      sub\n      swap1\n      log1\n        /* \"contracts/infra/StrategyFactory.sol\":5882:6057  function setPlexusFeeConfig(address _plexusFeeConfig) external onlyOwner {... */\n      pop\n      jump\t// out\n        /* \"contracts/infra/StrategyFactory.sol\":4934:5096  function addRebalancer(address _rebalancer) external onlyOwner {... */\n    tag_40:\n        /* \"@openzeppelin/contracts/access/Ownable.sol\":1094:1107  _checkOwner() */\n      tag_131\n        /* \"@openzeppelin/contracts/access/Ownable.sol\":1094:1105  _checkOwner */\n      tag_127\n        /* \"@openzeppelin/contracts/access/Ownable.sol\":1094:1107  _checkOwner() */\n      jump\t// in\n    tag_131:\n        /* \"contracts/infra/StrategyFactory.sol\":5034:5038  true */\n      0x01\n        /* \"contracts/infra/StrategyFactory.sol\":5007:5018  rebalancers */\n      0x02\n        /* \"contracts/infra/StrategyFactory.sol\":5007:5031  rebalancers[_rebalancer] */\n      0x00\n        /* \"contracts/infra/StrategyFactory.sol\":5019:5030  _rebalancer */\n      dup4\n        /* \"contracts/infra/StrategyFactory.sol\":5007:5031  rebalancers[_rebalancer] */\n      0xffffffffffffffffffffffffffffffffffffffff\n      and\n      0xffffffffffffffffffffffffffffffffffffffff\n      and\n      dup2\n      mstore\n      0x20\n      add\n      swap1\n      dup2\n      mstore\n      0x20\n      add\n      0x00\n      keccak256\n      0x00\n        /* \"contracts/infra/StrategyFactory.sol\":5007:5038  rebalancers[_rebalancer] = true */\n      0x0100\n      exp\n      dup2\n      sload\n      dup2\n      0xff\n      mul\n      not\n      and\n      swap1\n      dup4\n      iszero\n      iszero\n      mul\n      or\n      swap1\n      sstore\n      pop\n        /* \"contracts/infra/StrategyFactory.sol\":5053:5089  RebalancerChanged(_rebalancer, true) */\n      0xad7caca61f64c5976fc697122c9ff26acc30fc936092716798ff3b43cc54f800\n        /* \"contracts/infra/StrategyFactory.sol\":5071:5082  _rebalancer */\n      dup2\n        /* \"contracts/infra/StrategyFactory.sol\":5084:5088  true */\n      0x01\n        /* \"contracts/infra/StrategyFactory.sol\":5053:5089  RebalancerChanged(_rebalancer, true) */\n      mload(0x40)\n      tag_133\n      swap3\n      swap2\n      swap1\n      tag_134\n      jump\t// in\n    tag_133:\n      mload(0x40)\n      dup1\n      swap2\n      sub\n      swap1\n      log1\n        /* \"contracts/infra/StrategyFactory.sol\":4934:5096  function addRebalancer(address _rebalancer) external onlyOwner {... */\n      pop\n      jump\t// out\n        /* \"contracts/infra/StrategyFactory.sol\":2552:2953  function createStrategy(... */\n    tag_44:\n        /* \"contracts/infra/StrategyFactory.sol\":2639:2646  address */\n      0x00\n        /* \"contracts/infra/StrategyFactory.sol\":2734:2760  UpgradeableBeacon instance */\n      dup1\n        /* \"contracts/infra/StrategyFactory.sol\":2763:2772  instances */\n      0x01\n        /* \"contracts/infra/StrategyFactory.sol\":2773:2786  _strategyName */\n      dup5\n      dup5\n        /* \"contracts/infra/StrategyFactory.sol\":2763:2787  instances[_strategyName] */\n      mload(0x40)\n      tag_136\n      swap3\n      swap2\n      swap1\n      tag_137\n      jump\t// in\n    tag_136:\n      swap1\n      dup2\n      mstore\n      0x20\n      add\n      mload(0x40)\n      dup1\n      swap2\n      sub\n      swap1\n      keccak256\n      0x00\n      swap1\n      sload\n      swap1\n      0x0100\n      exp\n      swap1\n      div\n      0xffffffffffffffffffffffffffffffffffffffff\n      and\n        /* \"contracts/infra/StrategyFactory.sol\":2734:2787  UpgradeableBeacon instance = instances[_strategyName] */\n      swap1\n      pop\n        /* \"contracts/infra/StrategyFactory.sol\":2797:2814  BeaconProxy proxy */\n      0x00\n        /* \"contracts/infra/StrategyFactory.sol\":2841:2849  instance */\n      dup2\n        /* \"contracts/infra/StrategyFactory.sol\":2817:2855  new BeaconProxy(address(instance), \"\") */\n      mload(0x40)\n      tag_138\n      swap1\n      tag_139\n      jump\t// in\n    tag_138:\n      tag_140\n      swap2\n      swap1\n      tag_141\n      jump\t// in\n    tag_140:\n      mload(0x40)\n      dup1\n      swap2\n      sub\n      swap1\n      0x00\n      create\n      dup1\n      iszero\n      dup1\n      iszero\n      tag_142\n      jumpi\n      returndatasize\n      0x00\n      dup1\n      returndatacopy\n      revert(0x00, returndatasize)\n    tag_142:\n      pop\n        /* \"contracts/infra/StrategyFactory.sol\":2797:2855  BeaconProxy proxy = new BeaconProxy(address(instance), \"\") */\n      swap1\n      pop\n        /* \"contracts/infra/StrategyFactory.sol\":2871:2914  ProxyCreated(_strategyName, address(proxy)) */\n      0x3699b7de9b98bb64c45028ff3593b0d6159da8016d0f85b6af11d765320c87bb\n        /* \"contracts/infra/StrategyFactory.sol\":2884:2897  _strategyName */\n      dup6\n      dup6\n        /* \"contracts/infra/StrategyFactory.sol\":2907:2912  proxy */\n      dup4\n        /* \"contracts/infra/StrategyFactory.sol\":2871:2914  ProxyCreated(_strategyName, address(proxy)) */\n      mload(0x40)\n      tag_143\n      swap4\n      swap3\n      swap2\n      swap1\n      tag_144\n      jump\t// in\n    tag_143:\n      mload(0x40)\n      dup1\n      swap2\n      sub\n      swap1\n      log1\n        /* \"contracts/infra/StrategyFactory.sol\":2940:2945  proxy */\n      dup1\n        /* \"contracts/infra/StrategyFactory.sol\":2925:2946  return address(proxy) */\n      swap3\n      pop\n      pop\n      pop\n        /* \"contracts/infra/StrategyFactory.sol\":2552:2953  function createStrategy(... */\n      swap3\n      swap2\n      pop\n      pop\n      jump\t// out\n        /* \"contracts/infra/StrategyFactory.sol\":4454:4627  function pauseStrategy(string calldata _strategyName) external onlyManager {... */\n    tag_49:\n        /* \"contracts/infra/StrategyFactory.sol\":1880:1887  owner() */\n      tag_146\n        /* \"contracts/infra/StrategyFactory.sol\":1880:1885  owner */\n      tag_88\n        /* \"contracts/infra/StrategyFactory.sol\":1880:1887  owner() */\n      jump\t// in\n    tag_146:\n        /* \"contracts/infra/StrategyFactory.sol\":1866:1887  msg.sender != owner() */\n      0xffffffffffffffffffffffffffffffffffffffff\n      and\n        /* \"contracts/infra/StrategyFactory.sol\":1866:1876  msg.sender */\n      caller\n        /* \"contracts/infra/StrategyFactory.sol\":1866:1887  msg.sender != owner() */\n      0xffffffffffffffffffffffffffffffffffffffff\n      and\n      eq\n      iszero\n        /* \"contracts/infra/StrategyFactory.sol\":1866:1920  msg.sender != owner() && msg.sender != address(keeper) */\n      dup1\n      iszero\n      tag_147\n      jumpi\n      pop\n        /* \"contracts/infra/StrategyFactory.sol\":1913:1919  keeper */\n      0x06\n      0x00\n      swap1\n      sload\n      swap1\n      0x0100\n      exp\n      swap1\n      div\n      0xffffffffffffffffffffffffffffffffffffffff\n      and\n        /* \"contracts/infra/StrategyFactory.sol\":1891:1920  msg.sender != address(keeper) */\n      0xffffffffffffffffffffffffffffffffffffffff\n      and\n        /* \"contracts/infra/StrategyFactory.sol\":1891:1901  msg.sender */\n      caller\n        /* \"contracts/infra/StrategyFactory.sol\":1891:1920  msg.sender != address(keeper) */\n      0xffffffffffffffffffffffffffffffffffffffff\n      and\n      eq\n      iszero\n        /* \"contracts/infra/StrategyFactory.sol\":1866:1920  msg.sender != owner() && msg.sender != address(keeper) */\n    tag_147:\n        /* \"contracts/infra/StrategyFactory.sol\":1862:1953  if (msg.sender != owner() && msg.sender != address(keeper))... */\n      iszero\n      tag_148\n      jumpi\n        /* \"contracts/infra/StrategyFactory.sol\":1941:1953  NotManager() */\n      mload(0x40)\n      0xc0fc8a8a00000000000000000000000000000000000000000000000000000000\n      dup2\n      mstore\n      0x04\n      add\n      mload(0x40)\n      dup1\n      swap2\n      sub\n      swap1\n      revert\n        /* \"contracts/infra/StrategyFactory.sol\":1862:1953  if (msg.sender != owner() && msg.sender != address(keeper))... */\n    tag_148:\n        /* \"contracts/infra/StrategyFactory.sol\":4570:4574  true */\n      0x01\n        /* \"contracts/infra/StrategyFactory.sol\":4539:4552  strategyPause */\n      0x03\n        /* \"contracts/infra/StrategyFactory.sol\":4553:4566  _strategyName */\n      dup4\n      dup4\n        /* \"contracts/infra/StrategyFactory.sol\":4539:4567  strategyPause[_strategyName] */\n      mload(0x40)\n      tag_150\n      swap3\n      swap2\n      swap1\n      tag_137\n      jump\t// in\n    tag_150:\n      swap1\n      dup2\n      mstore\n      0x20\n      add\n      mload(0x40)\n      dup1\n      swap2\n      sub\n      swap1\n      keccak256\n      0x00\n        /* \"contracts/infra/StrategyFactory.sol\":4539:4574  strategyPause[_strategyName] = true */\n      0x0100\n      exp\n      dup2\n      sload\n      dup2\n      0xff\n      mul\n      not\n      and\n      swap1\n      dup4\n      iszero\n      iszero\n      mul\n      or\n      swap1\n      sstore\n      pop\n        /* \"contracts/infra/StrategyFactory.sol\":4589:4620  StratPause(_strategyName, true) */\n      0x32b2ef738db0485a8739f39e50322bb2c617e6a3d2539b4ecf26f199021057a6\n        /* \"contracts/infra/StrategyFactory.sol\":4600:4613  _strategyName */\n      dup3\n      dup3\n        /* \"contracts/infra/StrategyFactory.sol\":4615:4619  true */\n      0x01\n        /* \"contracts/infra/StrategyFactory.sol\":4589:4620  StratPause(_strategyName, true) */\n      mload(0x40)\n      tag_151\n      swap4\n      swap3\n      swap2\n      swap1\n      tag_152\n      jump\t// in\n    tag_151:\n      mload(0x40)\n      dup1\n      swap2\n      sub\n      swap1\n      log1\n        /* \"contracts/infra/StrategyFactory.sol\":4454:4627  function pauseStrategy(string calldata _strategyName) external onlyManager {... */\n      pop\n      pop\n      jump\t// out\n        /* \"contracts/infra/StrategyFactory.sol\":5539:5746  function setPlexusFeeRecipient(... */\n    tag_52:\n        /* \"@openzeppelin/contracts/access/Ownable.sol\":1094:1107  _checkOwner() */\n      tag_154\n        /* \"@openzeppelin/contracts/access/Ownable.sol\":1094:1105  _checkOwner */\n      tag_127\n        /* \"@openzeppelin/contracts/access/Ownable.sol\":1094:1107  _checkOwner() */\n      jump\t// in\n    tag_154:\n        /* \"contracts/infra/StrategyFactory.sol\":5663:5682  _plexusFeeRecipient */\n      dup1\n        /* \"contracts/infra/StrategyFactory.sol\":5642:5660  plexusFeeRecipient */\n      0x07\n      0x00\n        /* \"contracts/infra/StrategyFactory.sol\":5642:5682  plexusFeeRecipient = _plexusFeeRecipient */\n      0x0100\n      exp\n      dup2\n      sload\n      dup2\n      0xffffffffffffffffffffffffffffffffffffffff\n      mul\n      not\n      and\n      swap1\n      dup4\n      0xffffffffffffffffffffffffffffffffffffffff\n      and\n      mul\n      or\n      swap1\n      sstore\n      pop\n        /* \"contracts/infra/StrategyFactory.sol\":5697:5739  SetPlexusFeeRecipient(_plexusFeeRecipient) */\n      0x3129a3b1a01b54525e947a4b2e7b5a30606b2d68562be910b844f842eeb3cf5a\n        /* \"contracts/infra/StrategyFactory.sol\":5719:5738  _plexusFeeRecipient */\n      dup2\n        /* \"contracts/infra/StrategyFactory.sol\":5697:5739  SetPlexusFeeRecipient(_plexusFeeRecipient) */\n      mload(0x40)\n      tag_156\n      swap2\n      swap1\n      tag_46\n      jump\t// in\n    tag_156:\n      mload(0x40)\n      dup1\n      swap2\n      sub\n      swap1\n      log1\n        /* \"contracts/infra/StrategyFactory.sol\":5539:5746  function setPlexusFeeRecipient(... */\n      pop\n      jump\t// out\n        /* \"contracts/infra/StrategyFactory.sol\":784:806  address public wnative */\n    tag_54:\n      0x05\n      0x00\n      swap1\n      sload\n      swap1\n      0x0100\n      exp\n      swap1\n      div\n      0xffffffffffffffffffffffffffffffffffffffff\n      and\n      dup2\n      jump\t// out\n        /* \"contracts/infra/StrategyFactory.sol\":410:463  mapping(string => UpgradeableBeacon) public instances */\n    tag_59:\n      0x01\n      dup2\n      dup1\n      mload\n      0x20\n      dup2\n      add\n      dup3\n      add\n      dup1\n      mload\n      dup5\n      dup3\n      mstore\n      0x20\n      dup4\n      add\n      0x20\n      dup6\n      add\n      keccak256\n      dup2\n      dup4\n      mstore\n      dup1\n      swap6\n      pop\n      pop\n      pop\n      pop\n      pop\n      pop\n      0x00\n      swap2\n      pop\n      sload\n      swap1\n      0x0100\n      exp\n      swap1\n      div\n      0xffffffffffffffffffffffffffffffffffffffff\n      and\n      dup2\n      jump\t// out\n        /* \"contracts/infra/StrategyFactory.sol\":5225:5394  function removeRebalancer(address _rebalancer) external onlyManager {... */\n    tag_64:\n        /* \"contracts/infra/StrategyFactory.sol\":1880:1887  owner() */\n      tag_158\n        /* \"contracts/infra/StrategyFactory.sol\":1880:1885  owner */\n      tag_88\n        /* \"contracts/infra/StrategyFactory.sol\":1880:1887  owner() */\n      jump\t// in\n    tag_158:\n        /* \"contracts/infra/StrategyFactory.sol\":1866:1887  msg.sender != owner() */\n      0xffffffffffffffffffffffffffffffffffffffff\n      and\n        /* \"contracts/infra/StrategyFactory.sol\":1866:1876  msg.sender */\n      caller\n        /* \"contracts/infra/StrategyFactory.sol\":1866:1887  msg.sender != owner() */\n      0xffffffffffffffffffffffffffffffffffffffff\n      and\n      eq\n      iszero\n        /* \"contracts/infra/StrategyFactory.sol\":1866:1920  msg.sender != owner() && msg.sender != address(keeper) */\n      dup1\n      iszero\n      tag_159\n      jumpi\n      pop\n        /* \"contracts/infra/StrategyFactory.sol\":1913:1919  keeper */\n      0x06\n      0x00\n      swap1\n      sload\n      swap1\n      0x0100\n      exp\n      swap1\n      div\n      0xffffffffffffffffffffffffffffffffffffffff\n      and\n        /* \"contracts/infra/StrategyFactory.sol\":1891:1920  msg.sender != address(keeper) */\n      0xffffffffffffffffffffffffffffffffffffffff\n      and\n        /* \"contracts/infra/StrategyFactory.sol\":1891:1901  msg.sender */\n      caller\n        /* \"contracts/infra/StrategyFactory.sol\":1891:1920  msg.sender != address(keeper) */\n      0xffffffffffffffffffffffffffffffffffffffff\n      and\n      eq\n      iszero\n        /* \"contracts/infra/StrategyFactory.sol\":1866:1920  msg.sender != owner() && msg.sender != address(keeper) */\n    tag_159:\n        /* \"contracts/infra/StrategyFactory.sol\":1862:1953  if (msg.sender != owner() && msg.sender != address(keeper))... */\n      iszero\n      tag_160\n      jumpi\n        /* \"contracts/infra/StrategyFactory.sol\":1941:1953  NotManager() */\n      mload(0x40)\n      0xc0fc8a8a00000000000000000000000000000000000000000000000000000000\n      dup2\n      mstore\n      0x04\n      add\n      mload(0x40)\n      dup1\n      swap2\n      sub\n      swap1\n      revert\n        /* \"contracts/infra/StrategyFactory.sol\":1862:1953  if (msg.sender != owner() && msg.sender != address(keeper))... */\n    tag_160:\n        /* \"contracts/infra/StrategyFactory.sol\":5330:5335  false */\n      0x00\n        /* \"contracts/infra/StrategyFactory.sol\":5303:5314  rebalancers */\n      0x02\n        /* \"contracts/infra/StrategyFactory.sol\":5303:5327  rebalancers[_rebalancer] */\n      0x00\n        /* \"contracts/infra/StrategyFactory.sol\":5315:5326  _rebalancer */\n      dup4\n        /* \"contracts/infra/StrategyFactory.sol\":5303:5327  rebalancers[_rebalancer] */\n      0xffffffffffffffffffffffffffffffffffffffff\n      and\n      0xffffffffffffffffffffffffffffffffffffffff\n      and\n      dup2\n      mstore\n      0x20\n      add\n      swap1\n      dup2\n      mstore\n      0x20\n      add\n      0x00\n      keccak256\n      0x00\n        /* \"contracts/infra/StrategyFactory.sol\":5303:5335  rebalancers[_rebalancer] = false */\n      0x0100\n      exp\n      dup2\n      sload\n      dup2\n      0xff\n      mul\n      not\n      and\n      swap1\n      dup4\n      iszero\n      iszero\n      mul\n      or\n      swap1\n      sstore\n      pop\n        /* \"contracts/infra/StrategyFactory.sol\":5350:5387  RebalancerChanged(_rebalancer, false) */\n      0xad7caca61f64c5976fc697122c9ff26acc30fc936092716798ff3b43cc54f800\n        /* \"contracts/infra/StrategyFactory.sol\":5368:5379  _rebalancer */\n      dup2\n        /* \"contracts/infra/StrategyFactory.sol\":5381:5386  false */\n      0x00\n        /* \"contracts/infra/StrategyFactory.sol\":5350:5387  RebalancerChanged(_rebalancer, false) */\n      mload(0x40)\n      tag_162\n      swap3\n      swap2\n      swap1\n      tag_134\n      jump\t// in\n    tag_162:\n      mload(0x40)\n      dup1\n      swap2\n      sub\n      swap1\n      log1\n        /* \"contracts/infra/StrategyFactory.sol\":5225:5394  function removeRebalancer(address _rebalancer) external onlyManager {... */\n      pop\n      jump\t// out\n        /* \"contracts/infra/StrategyFactory.sol\":699:728  string[] public strategyTypes */\n    tag_68:\n      0x04\n      dup2\n      dup2\n      sload\n      dup2\n      lt\n      tag_163\n      jumpi\n      0x00\n      dup1\n      revert\n    tag_163:\n      swap1\n      0x00\n      mstore\n      keccak256(0x00, 0x20)\n      add\n      0x00\n      swap2\n      pop\n      swap1\n      pop\n      dup1\n      sload\n      tag_165\n      swap1\n      tag_166\n      jump\t// in\n    tag_165:\n      dup1\n      0x1f\n      add\n      0x20\n      dup1\n      swap2\n      div\n      mul\n      0x20\n      add\n      mload(0x40)\n      swap1\n      dup2\n      add\n      0x40\n      mstore\n      dup1\n      swap3\n      swap2\n      swap1\n      dup2\n      dup2\n      mstore\n      0x20\n      add\n      dup3\n      dup1\n      sload\n      tag_167\n      swap1\n      tag_166\n      jump\t// in\n    tag_167:\n      dup1\n      iszero\n      tag_168\n      jumpi\n      dup1\n      0x1f\n      lt\n      tag_169\n      jumpi\n      0x0100\n      dup1\n      dup4\n      sload\n      div\n      mul\n      dup4\n      mstore\n      swap2\n      0x20\n      add\n      swap2\n      jump(tag_168)\n    tag_169:\n      dup3\n      add\n      swap2\n      swap1\n      0x00\n      mstore\n      keccak256(0x00, 0x20)\n      swap1\n    tag_170:\n      dup2\n      sload\n      dup2\n      mstore\n      swap1\n      0x01\n      add\n      swap1\n      0x20\n      add\n      dup1\n      dup4\n      gt\n      tag_170\n      jumpi\n      dup3\n      swap1\n      sub\n      0x1f\n      and\n      dup3\n      add\n      swap2\n    tag_168:\n      pop\n      pop\n      pop\n      pop\n      pop\n      dup2\n      jump\t// out\n        /* \"contracts/infra/StrategyFactory.sol\":3149:3452  function upgradeTo(... */\n    tag_74:\n        /* \"@openzeppelin/contracts/access/Ownable.sol\":1094:1107  _checkOwner() */\n      tag_172\n        /* \"@openzeppelin/contracts/access/Ownable.sol\":1094:1105  _checkOwner */\n      tag_127\n        /* \"@openzeppelin/contracts/access/Ownable.sol\":1094:1107  _checkOwner() */\n      jump\t// in\n    tag_172:\n        /* \"contracts/infra/StrategyFactory.sol\":3278:3304  UpgradeableBeacon instance */\n      0x00\n        /* \"contracts/infra/StrategyFactory.sol\":3307:3316  instances */\n      0x01\n        /* \"contracts/infra/StrategyFactory.sol\":3317:3330  _strategyName */\n      dup5\n      dup5\n        /* \"contracts/infra/StrategyFactory.sol\":3307:3331  instances[_strategyName] */\n      mload(0x40)\n      tag_174\n      swap3\n      swap2\n      swap1\n      tag_137\n      jump\t// in\n    tag_174:\n      swap1\n      dup2\n      mstore\n      0x20\n      add\n      mload(0x40)\n      dup1\n      swap2\n      sub\n      swap1\n      keccak256\n      0x00\n      swap1\n      sload\n      swap1\n      0x0100\n      exp\n      swap1\n      div\n      0xffffffffffffffffffffffffffffffffffffffff\n      and\n        /* \"contracts/infra/StrategyFactory.sol\":3278:3331  UpgradeableBeacon instance = instances[_strategyName] */\n      swap1\n      pop\n        /* \"contracts/infra/StrategyFactory.sol\":3341:3349  instance */\n      dup1\n        /* \"contracts/infra/StrategyFactory.sol\":3341:3359  instance.upgradeTo */\n      0xffffffffffffffffffffffffffffffffffffffff\n      and\n      0x3659cfe6\n        /* \"contracts/infra/StrategyFactory.sol\":3360:3378  _newImplementation */\n      dup4\n        /* \"contracts/infra/StrategyFactory.sol\":3341:3379  instance.upgradeTo(_newImplementation) */\n      mload(0x40)\n      dup3\n      0xffffffff\n      and\n      0xe0\n      shl\n      dup2\n      mstore\n      0x04\n      add\n      tag_175\n      swap2\n      swap1\n      tag_46\n      jump\t// in\n    tag_175:\n      0x00\n      mload(0x40)\n      dup1\n      dup4\n      sub\n      dup2\n      0x00\n      dup8\n      dup1\n      extcodesize\n      iszero\n      dup1\n      iszero\n      tag_176\n      jumpi\n      0x00\n      dup1\n      revert\n    tag_176:\n      pop\n      gas\n      call\n      iszero\n      dup1\n      iszero\n      tag_178\n      jumpi\n      returndatasize\n      0x00\n      dup1\n      returndatacopy\n      revert(0x00, returndatasize)\n    tag_178:\n      pop\n      pop\n      pop\n      pop\n        /* \"contracts/infra/StrategyFactory.sol\":3394:3445  InstanceUpgraded(_strategyName, _newImplementation) */\n      0x52a6e00a16a485598386bd39b6aac98ed50e4fbde10ef9b5c18374faecb55010\n        /* \"contracts/infra/StrategyFactory.sol\":3411:3424  _strategyName */\n      dup5\n      dup5\n        /* \"contracts/infra/StrategyFactory.sol\":3426:3444  _newImplementation */\n      dup5\n        /* \"contracts/infra/StrategyFactory.sol\":3394:3445  InstanceUpgraded(_strategyName, _newImplementation) */\n      mload(0x40)\n      tag_179\n      swap4\n      swap3\n      swap2\n      swap1\n      tag_144\n      jump\t// in\n    tag_179:\n      mload(0x40)\n      dup1\n      swap2\n      sub\n      swap1\n      log1\n        /* \"contracts/infra/StrategyFactory.sol\":3268:3452  {... */\n      pop\n        /* \"contracts/infra/StrategyFactory.sol\":3149:3452  function upgradeTo(... */\n      pop\n      pop\n      pop\n      jump\t// out\n        /* \"contracts/infra/StrategyFactory.sol\":6453:6622  function getImplementation(... */\n    tag_77:\n        /* \"contracts/infra/StrategyFactory.sol\":6548:6555  address */\n      0x00\n        /* \"contracts/infra/StrategyFactory.sol\":6574:6583  instances */\n      0x01\n        /* \"contracts/infra/StrategyFactory.sol\":6584:6597  _strategyName */\n      dup4\n      dup4\n        /* \"contracts/infra/StrategyFactory.sol\":6574:6598  instances[_strategyName] */\n      mload(0x40)\n      tag_181\n      swap3\n      swap2\n      swap1\n      tag_137\n      jump\t// in\n    tag_181:\n      swap1\n      dup2\n      mstore\n      0x20\n      add\n      mload(0x40)\n      dup1\n      swap2\n      sub\n      swap1\n      keccak256\n      0x00\n      swap1\n      sload\n      swap1\n      0x0100\n      exp\n      swap1\n      div\n      0xffffffffffffffffffffffffffffffffffffffff\n      and\n        /* \"contracts/infra/StrategyFactory.sol\":6574:6613  instances[_strategyName].implementation */\n      0xffffffffffffffffffffffffffffffffffffffff\n      and\n      0x5c60da1b\n        /* \"contracts/infra/StrategyFactory.sol\":6574:6615  instances[_strategyName].implementation() */\n      mload(0x40)\n      dup2\n      0xffffffff\n      and\n      0xe0\n      shl\n      dup2\n      mstore\n      0x04\n      add\n      0x20\n      mload(0x40)\n      dup1\n      dup4\n      sub\n      dup2\n      dup7\n      gas\n      staticcall\n      iszero\n      dup1\n      iszero\n      tag_183\n      jumpi\n      returndatasize\n      0x00\n      dup1\n      returndatacopy\n      revert(0x00, returndatasize)\n    tag_183:\n      pop\n      pop\n      pop\n      pop\n      mload(0x40)\n      returndatasize\n      not(0x1f)\n      0x1f\n      dup3\n      add\n      and\n      dup3\n      add\n      dup1\n      0x40\n      mstore\n      pop\n      dup2\n      add\n      swap1\n      tag_184\n      swap2\n      swap1\n      tag_185\n      jump\t// in\n    tag_184:\n        /* \"contracts/infra/StrategyFactory.sol\":6567:6615  return instances[_strategyName].implementation() */\n      swap1\n      pop\n        /* \"contracts/infra/StrategyFactory.sol\":6453:6622  function getImplementation(... */\n      swap3\n      swap2\n      pop\n      pop\n      jump\t// out\n        /* \"@openzeppelin/contracts/access/Ownable.sol\":1824:1925  function renounceOwnership() public virtual onlyOwner {... */\n    tag_80:\n        /* \"@openzeppelin/contracts/access/Ownable.sol\":1094:1107  _checkOwner() */\n      tag_187\n        /* \"@openzeppelin/contracts/access/Ownable.sol\":1094:1105  _checkOwner */\n      tag_127\n        /* \"@openzeppelin/contracts/access/Ownable.sol\":1094:1107  _checkOwner() */\n      jump\t// in\n    tag_187:\n        /* \"@openzeppelin/contracts/access/Ownable.sol\":1888:1918  _transferOwnership(address(0)) */\n      tag_189\n        /* \"@openzeppelin/contracts/access/Ownable.sol\":1915:1916  0 */\n      0x00\n        /* \"@openzeppelin/contracts/access/Ownable.sol\":1888:1906  _transferOwnership */\n      tag_190\n        /* \"@openzeppelin/contracts/access/Ownable.sol\":1888:1918  _transferOwnership(address(0)) */\n      jump\t// in\n    tag_189:\n        /* \"@openzeppelin/contracts/access/Ownable.sol\":1824:1925  function renounceOwnership() public virtual onlyOwner {... */\n      jump\t// out\n        /* \"contracts/infra/StrategyFactory.sol\":6162:6283  function setKeeper(address _keeper) external onlyOwner {... */\n    tag_83:\n        /* \"@openzeppelin/contracts/access/Ownable.sol\":1094:1107  _checkOwner() */\n      tag_192\n        /* \"@openzeppelin/contracts/access/Ownable.sol\":1094:1105  _checkOwner */\n      tag_127\n        /* \"@openzeppelin/contracts/access/Ownable.sol\":1094:1107  _checkOwner() */\n      jump\t// in\n    tag_192:\n        /* \"contracts/infra/StrategyFactory.sol\":6236:6243  _keeper */\n      dup1\n        /* \"contracts/infra/StrategyFactory.sol\":6227:6233  keeper */\n      0x06\n      0x00\n        /* \"contracts/infra/StrategyFactory.sol\":6227:6243  keeper = _keeper */\n      0x0100\n      exp\n      dup2\n      sload\n      dup2\n      0xffffffffffffffffffffffffffffffffffffffff\n      mul\n      not\n      and\n      swap1\n      dup4\n      0xffffffffffffffffffffffffffffffffffffffff\n      and\n      mul\n      or\n      swap1\n      sstore\n      pop\n        /* \"contracts/infra/StrategyFactory.sol\":6258:6276  SetKeeper(_keeper) */\n      0xefb5cfa1a8690c124332ab93324539c5c9c4be03f28aeb8be86f2d8a0c9fb99b\n        /* \"contracts/infra/StrategyFactory.sol\":6268:6275  _keeper */\n      dup2\n        /* \"contracts/infra/StrategyFactory.sol\":6258:6276  SetKeeper(_keeper) */\n      mload(0x40)\n      tag_194\n      swap2\n      swap1\n      tag_46\n      jump\t// in\n    tag_194:\n      mload(0x40)\n      dup1\n      swap2\n      sub\n      swap1\n      log1\n        /* \"contracts/infra/StrategyFactory.sol\":6162:6283  function setKeeper(address _keeper) external onlyOwner {... */\n      pop\n      jump\t// out\n        /* \"contracts/infra/StrategyFactory.sol\":924:957  address public plexusFeeRecipient */\n    tag_85:\n      0x07\n      0x00\n      swap1\n      sload\n      swap1\n      0x0100\n      exp\n      swap1\n      div\n      0xffffffffffffffffffffffffffffffffffffffff\n      and\n      dup2\n      jump\t// out\n        /* \"@openzeppelin/contracts/access/Ownable.sol\":1201:1286  function owner() public view virtual returns (address) {... */\n    tag_88:\n        /* \"@openzeppelin/contracts/access/Ownable.sol\":1247:1254  address */\n      0x00\n        /* \"@openzeppelin/contracts/access/Ownable.sol\":1273:1279  _owner */\n      dup1\n      0x00\n      swap1\n      sload\n      swap1\n      0x0100\n      exp\n      swap1\n      div\n      0xffffffffffffffffffffffffffffffffffffffff\n      and\n        /* \"@openzeppelin/contracts/access/Ownable.sol\":1266:1279  return _owner */\n      swap1\n      pop\n        /* \"@openzeppelin/contracts/access/Ownable.sol\":1201:1286  function owner() public view virtual returns (address) {... */\n      swap1\n      jump\t// out\n        /* \"contracts/infra/StrategyFactory.sol\":4332:4448  function unpauseAllStrats() external onlyOwner {... */\n    tag_91:\n        /* \"@openzeppelin/contracts/access/Ownable.sol\":1094:1107  _checkOwner() */\n      tag_197\n        /* \"@openzeppelin/contracts/access/Ownable.sol\":1094:1105  _checkOwner */\n      tag_127\n        /* \"@openzeppelin/contracts/access/Ownable.sol\":1094:1107  _checkOwner() */\n      jump\t// in\n    tag_197:\n        /* \"contracts/infra/StrategyFactory.sol\":4403:4408  false */\n      0x00\n        /* \"contracts/infra/StrategyFactory.sol\":4389:4400  globalPause */\n      0x08\n      0x14\n        /* \"contracts/infra/StrategyFactory.sol\":4389:4408  globalPause = false */\n      0x0100\n      exp\n      dup2\n      sload\n      dup2\n      0xff\n      mul\n      not\n      and\n      swap1\n      dup4\n      iszero\n      iszero\n      mul\n      or\n      swap1\n      sstore\n      pop\n        /* \"contracts/infra/StrategyFactory.sol\":4423:4441  GlobalPause(false) */\n      0xa5fea31b6dbd7aec6098ca4653b1d51af1ef786fcb19031c4c4e55b675535f1e\n        /* \"contracts/infra/StrategyFactory.sol\":4435:4440  false */\n      0x00\n        /* \"contracts/infra/StrategyFactory.sol\":4423:4441  GlobalPause(false) */\n      mload(0x40)\n      tag_199\n      swap2\n      swap1\n      tag_96\n      jump\t// in\n    tag_199:\n      mload(0x40)\n      dup1\n      swap2\n      sub\n      swap1\n      log1\n        /* \"contracts/infra/StrategyFactory.sol\":4332:4448  function unpauseAllStrats() external onlyOwner {... */\n      jump\t// out\n        /* \"contracts/infra/StrategyFactory.sol\":514:557  mapping(address => bool) public rebalancers */\n    tag_94:\n      mstore(0x20, 0x02)\n      dup1\n      0x00\n      mstore\n      keccak256(0x00, 0x40)\n      0x00\n      swap2\n      pop\n      sload\n      swap1\n      0x0100\n      exp\n      swap1\n      div\n      0xff\n      and\n      dup2\n      jump\t// out\n        /* \"contracts/infra/StrategyFactory.sol\":855:876  address public keeper */\n    tag_98:\n      0x06\n      0x00\n      swap1\n      sload\n      swap1\n      0x0100\n      exp\n      swap1\n      div\n      0xffffffffffffffffffffffffffffffffffffffff\n      and\n      dup2\n      jump\t// out\n        /* \"contracts/infra/StrategyFactory.sol\":4157:4271  function pauseAllStrats() external onlyManager {... */\n    tag_101:\n        /* \"contracts/infra/StrategyFactory.sol\":1880:1887  owner() */\n      tag_201\n        /* \"contracts/infra/StrategyFactory.sol\":1880:1885  owner */\n      tag_88\n        /* \"contracts/infra/StrategyFactory.sol\":1880:1887  owner() */\n      jump\t// in\n    tag_201:\n        /* \"contracts/infra/StrategyFactory.sol\":1866:1887  msg.sender != owner() */\n      0xffffffffffffffffffffffffffffffffffffffff\n      and\n        /* \"contracts/infra/StrategyFactory.sol\":1866:1876  msg.sender */\n      caller\n        /* \"contracts/infra/StrategyFactory.sol\":1866:1887  msg.sender != owner() */\n      0xffffffffffffffffffffffffffffffffffffffff\n      and\n      eq\n      iszero\n        /* \"contracts/infra/StrategyFactory.sol\":1866:1920  msg.sender != owner() && msg.sender != address(keeper) */\n      dup1\n      iszero\n      tag_202\n      jumpi\n      pop\n        /* \"contracts/infra/StrategyFactory.sol\":1913:1919  keeper */\n      0x06\n      0x00\n      swap1\n      sload\n      swap1\n      0x0100\n      exp\n      swap1\n      div\n      0xffffffffffffffffffffffffffffffffffffffff\n      and\n        /* \"contracts/infra/StrategyFactory.sol\":1891:1920  msg.sender != address(keeper) */\n      0xffffffffffffffffffffffffffffffffffffffff\n      and\n        /* \"contracts/infra/StrategyFactory.sol\":1891:1901  msg.sender */\n      caller\n        /* \"contracts/infra/StrategyFactory.sol\":1891:1920  msg.sender != address(keeper) */\n      0xffffffffffffffffffffffffffffffffffffffff\n      and\n      eq\n      iszero\n        /* \"contracts/infra/StrategyFactory.sol\":1866:1920  msg.sender != owner() && msg.sender != address(keeper) */\n    tag_202:\n        /* \"contracts/infra/StrategyFactory.sol\":1862:1953  if (msg.sender != owner() && msg.sender != address(keeper))... */\n      iszero\n      tag_203\n      jumpi\n        /* \"contracts/infra/StrategyFactory.sol\":1941:1953  NotManager() */\n      mload(0x40)\n      0xc0fc8a8a00000000000000000000000000000000000000000000000000000000\n      dup2\n      mstore\n      0x04\n      add\n      mload(0x40)\n      dup1\n      swap2\n      sub\n      swap1\n      revert\n        /* \"contracts/infra/StrategyFactory.sol\":1862:1953  if (msg.sender != owner() && msg.sender != address(keeper))... */\n    tag_203:\n        /* \"contracts/infra/StrategyFactory.sol\":4228:4232  true */\n      0x01\n        /* \"contracts/infra/StrategyFactory.sol\":4214:4225  globalPause */\n      0x08\n      0x14\n        /* \"contracts/infra/StrategyFactory.sol\":4214:4232  globalPause = true */\n      0x0100\n      exp\n      dup2\n      sload\n      dup2\n      0xff\n      mul\n      not\n      and\n      swap1\n      dup4\n      iszero\n      iszero\n      mul\n      or\n      swap1\n      sstore\n      pop\n        /* \"contracts/infra/StrategyFactory.sol\":4247:4264  GlobalPause(true) */\n      0xa5fea31b6dbd7aec6098ca4653b1d51af1ef786fcb19031c4c4e55b675535f1e\n        /* \"contracts/infra/StrategyFactory.sol\":4259:4263  true */\n      0x01\n        /* \"contracts/infra/StrategyFactory.sol\":4247:4264  GlobalPause(true) */\n      mload(0x40)\n      tag_205\n      swap2\n      swap1\n      tag_96\n      jump\t// in\n    tag_205:\n      mload(0x40)\n      dup1\n      swap2\n      sub\n      swap1\n      log1\n        /* \"contracts/infra/StrategyFactory.sol\":4157:4271  function pauseAllStrats() external onlyManager {... */\n      jump\t// out\n        /* \"contracts/infra/StrategyFactory.sol\":3634:4098  function addStrategy(... */\n    tag_104:\n        /* \"contracts/infra/StrategyFactory.sol\":1880:1887  owner() */\n      tag_207\n        /* \"contracts/infra/StrategyFactory.sol\":1880:1885  owner */\n      tag_88\n        /* \"contracts/infra/StrategyFactory.sol\":1880:1887  owner() */\n      jump\t// in\n    tag_207:\n        /* \"contracts/infra/StrategyFactory.sol\":1866:1887  msg.sender != owner() */\n      0xffffffffffffffffffffffffffffffffffffffff\n      and\n        /* \"contracts/infra/StrategyFactory.sol\":1866:1876  msg.sender */\n      caller\n        /* \"contracts/infra/StrategyFactory.sol\":1866:1887  msg.sender != owner() */\n      0xffffffffffffffffffffffffffffffffffffffff\n      and\n      eq\n      iszero\n        /* \"contracts/infra/StrategyFactory.sol\":1866:1920  msg.sender != owner() && msg.sender != address(keeper) */\n      dup1\n      iszero\n      tag_208\n      jumpi\n      pop\n        /* \"contracts/infra/StrategyFactory.sol\":1913:1919  keeper */\n      0x06\n      0x00\n      swap1\n      sload\n      swap1\n      0x0100\n      exp\n      swap1\n      div\n      0xffffffffffffffffffffffffffffffffffffffff\n      and\n        /* \"contracts/infra/StrategyFactory.sol\":1891:1920  msg.sender != address(keeper) */\n      0xffffffffffffffffffffffffffffffffffffffff\n      and\n        /* \"contracts/infra/StrategyFactory.sol\":1891:1901  msg.sender */\n      caller\n        /* \"contracts/infra/StrategyFactory.sol\":1891:1920  msg.sender != address(keeper) */\n      0xffffffffffffffffffffffffffffffffffffffff\n      and\n      eq\n      iszero\n        /* \"contracts/infra/StrategyFactory.sol\":1866:1920  msg.sender != owner() && msg.sender != address(keeper) */\n    tag_208:\n        /* \"contracts/infra/StrategyFactory.sol\":1862:1953  if (msg.sender != owner() && msg.sender != address(keeper))... */\n      iszero\n      tag_209\n      jumpi\n        /* \"contracts/infra/StrategyFactory.sol\":1941:1953  NotManager() */\n      mload(0x40)\n      0xc0fc8a8a00000000000000000000000000000000000000000000000000000000\n      dup2\n      mstore\n      0x04\n      add\n      mload(0x40)\n      dup1\n      swap2\n      sub\n      swap1\n      revert\n        /* \"contracts/infra/StrategyFactory.sol\":1862:1953  if (msg.sender != owner() && msg.sender != address(keeper))... */\n    tag_209:\n        /* \"contracts/infra/StrategyFactory.sol\":3813:3814  0 */\n      0x00\n        /* \"contracts/infra/StrategyFactory.sol\":3768:3815  address(instances[_strategyName]) != address(0) */\n      0xffffffffffffffffffffffffffffffffffffffff\n      and\n        /* \"contracts/infra/StrategyFactory.sol\":3776:3785  instances */\n      0x01\n        /* \"contracts/infra/StrategyFactory.sol\":3786:3799  _strategyName */\n      dup5\n      dup5\n        /* \"contracts/infra/StrategyFactory.sol\":3776:3800  instances[_strategyName] */\n      mload(0x40)\n      tag_211\n      swap3\n      swap2\n      swap1\n      tag_137\n      jump\t// in\n    tag_211:\n      swap1\n      dup2\n      mstore\n      0x20\n      add\n      mload(0x40)\n      dup1\n      swap2\n      sub\n      swap1\n      keccak256\n      0x00\n      swap1\n      sload\n      swap1\n      0x0100\n      exp\n      swap1\n      div\n      0xffffffffffffffffffffffffffffffffffffffff\n      and\n        /* \"contracts/infra/StrategyFactory.sol\":3768:3815  address(instances[_strategyName]) != address(0) */\n      0xffffffffffffffffffffffffffffffffffffffff\n      and\n      eq\n        /* \"contracts/infra/StrategyFactory.sol\":3764:3856  if (address(instances[_strategyName]) != address(0))... */\n      tag_212\n      jumpi\n        /* \"contracts/infra/StrategyFactory.sol\":3836:3856  StratVersionExists() */\n      mload(0x40)\n      0x1f93a2cd00000000000000000000000000000000000000000000000000000000\n      dup2\n      mstore\n      0x04\n      add\n      mload(0x40)\n      dup1\n      swap2\n      sub\n      swap1\n      revert\n        /* \"contracts/infra/StrategyFactory.sol\":3764:3856  if (address(instances[_strategyName]) != address(0))... */\n    tag_212:\n        /* \"contracts/infra/StrategyFactory.sol\":3915:3930  _implementation */\n      dup1\n        /* \"contracts/infra/StrategyFactory.sol\":3893:3931  new UpgradeableBeacon(_implementation) */\n      mload(0x40)\n      tag_213\n      swap1\n      tag_214\n      jump\t// in\n    tag_213:\n      tag_215\n      swap2\n      swap1\n      tag_46\n      jump\t// in\n    tag_215:\n      mload(0x40)\n      dup1\n      swap2\n      sub\n      swap1\n      0x00\n      create\n      dup1\n      iszero\n      dup1\n      iszero\n      tag_216\n      jumpi\n      returndatasize\n      0x00\n      dup1\n      returndatacopy\n      revert(0x00, returndatasize)\n    tag_216:\n      pop\n        /* \"contracts/infra/StrategyFactory.sol\":3866:3875  instances */\n      0x01\n        /* \"contracts/infra/StrategyFactory.sol\":3876:3889  _strategyName */\n      dup5\n      dup5\n        /* \"contracts/infra/StrategyFactory.sol\":3866:3890  instances[_strategyName] */\n      mload(0x40)\n      tag_217\n      swap3\n      swap2\n      swap1\n      tag_137\n      jump\t// in\n    tag_217:\n      swap1\n      dup2\n      mstore\n      0x20\n      add\n      mload(0x40)\n      dup1\n      swap2\n      sub\n      swap1\n      keccak256\n      0x00\n        /* \"contracts/infra/StrategyFactory.sol\":3866:3931  instances[_strategyName] = new UpgradeableBeacon(_implementation) */\n      0x0100\n      exp\n      dup2\n      sload\n      dup2\n      0xffffffffffffffffffffffffffffffffffffffff\n      mul\n      not\n      and\n      swap1\n      dup4\n      0xffffffffffffffffffffffffffffffffffffffff\n      and\n      mul\n      or\n      swap1\n      sstore\n      pop\n        /* \"contracts/infra/StrategyFactory.sol\":3995:4008  strategyTypes */\n      0x04\n        /* \"contracts/infra/StrategyFactory.sol\":4014:4027  _strategyName */\n      dup4\n      dup4\n        /* \"contracts/infra/StrategyFactory.sol\":3995:4028  strategyTypes.push(_strategyName) */\n      swap1\n      swap2\n      dup1\n      0x01\n      dup2\n      sload\n      add\n      dup1\n      dup3\n      sstore\n      dup1\n      swap2\n      pop\n      pop\n      0x01\n      swap1\n      sub\n      swap1\n      0x00\n      mstore\n      keccak256(0x00, 0x20)\n      add\n      0x00\n      swap1\n      swap2\n      swap3\n      swap1\n      swap2\n      swap3\n      swap1\n      swap2\n      swap3\n      swap1\n      swap2\n      swap3\n      pop\n      swap2\n      dup3\n      tag_219\n      swap3\n      swap2\n      swap1\n      tag_220\n      jump\t// in\n    tag_219:\n      pop\n        /* \"contracts/infra/StrategyFactory.sol\":4043:4091  NewStrategyAdded(_strategyName, _implementation) */\n      0xa065c3b00cde146f5df407afa0661cfa2c0ed2efd62ac00b3241aaae02ff5d2e\n        /* \"contracts/infra/StrategyFactory.sol\":4060:4073  _strategyName */\n      dup4\n      dup4\n        /* \"contracts/infra/StrategyFactory.sol\":4075:4090  _implementation */\n      dup4\n        /* \"contracts/infra/StrategyFactory.sol\":4043:4091  NewStrategyAdded(_strategyName, _implementation) */\n      mload(0x40)\n      tag_221\n      swap4\n      swap3\n      swap2\n      swap1\n      tag_144\n      jump\t// in\n    tag_221:\n      mload(0x40)\n      dup1\n      swap2\n      sub\n      swap1\n      log1\n        /* \"contracts/infra/StrategyFactory.sol\":3634:4098  function addStrategy(... */\n      pop\n      pop\n      pop\n      jump\t// out\n        /* \"contracts/infra/StrategyFactory.sol\":4633:4808  function unpauseStrategy(string calldata _strategyName) external onlyOwner {... */\n    tag_107:\n        /* \"@openzeppelin/contracts/access/Ownable.sol\":1094:1107  _checkOwner() */\n      tag_223\n        /* \"@openzeppelin/contracts/access/Ownable.sol\":1094:1105  _checkOwner */\n      tag_127\n        /* \"@openzeppelin/contracts/access/Ownable.sol\":1094:1107  _checkOwner() */\n      jump\t// in\n    tag_223:\n        /* \"contracts/infra/StrategyFactory.sol\":4749:4754  false */\n      0x00\n        /* \"contracts/infra/StrategyFactory.sol\":4718:4731  strategyPause */\n      0x03\n        /* \"contracts/infra/StrategyFactory.sol\":4732:4745  _strategyName */\n      dup4\n      dup4\n        /* \"contracts/infra/StrategyFactory.sol\":4718:4746  strategyPause[_strategyName] */\n      mload(0x40)\n      tag_225\n      swap3\n      swap2\n      swap1\n      tag_137\n      jump\t// in\n    tag_225:\n      swap1\n      dup2\n      mstore\n      0x20\n      add\n      mload(0x40)\n      dup1\n      swap2\n      sub\n      swap1\n      keccak256\n      0x00\n        /* \"contracts/infra/StrategyFactory.sol\":4718:4754  strategyPause[_strategyName] = false */\n      0x0100\n      exp\n      dup2\n      sload\n      dup2\n      0xff\n      mul\n      not\n      and\n      swap1\n      dup4\n      iszero\n      iszero\n      mul\n      or\n      swap1\n      sstore\n      pop\n        /* \"contracts/infra/StrategyFactory.sol\":4769:4801  StratPause(_strategyName, false) */\n      0x32b2ef738db0485a8739f39e50322bb2c617e6a3d2539b4ecf26f199021057a6\n        /* \"contracts/infra/StrategyFactory.sol\":4780:4793  _strategyName */\n      dup3\n      dup3\n        /* \"contracts/infra/StrategyFactory.sol\":4795:4800  false */\n      0x00\n        /* \"contracts/infra/StrategyFactory.sol\":4769:4801  StratPause(_strategyName, false) */\n      mload(0x40)\n      tag_226\n      swap4\n      swap3\n      swap2\n      swap1\n      tag_152\n      jump\t// in\n    tag_226:\n      mload(0x40)\n      dup1\n      swap2\n      sub\n      swap1\n      log1\n        /* \"contracts/infra/StrategyFactory.sol\":4633:4808  function unpauseStrategy(string calldata _strategyName) external onlyOwner {... */\n      pop\n      pop\n      jump\t// out\n        /* \"contracts/infra/StrategyFactory.sol\":608:652  mapping(string => bool) public strategyPause */\n    tag_110:\n      0x03\n      dup2\n      dup1\n      mload\n      0x20\n      dup2\n      add\n      dup3\n      add\n      dup1\n      mload\n      dup5\n      dup3\n      mstore\n      0x20\n      dup4\n      add\n      0x20\n      dup6\n      add\n      keccak256\n      dup2\n      dup4\n      mstore\n      dup1\n      swap6\n      pop\n      pop\n      pop\n      pop\n      pop\n      pop\n      0x00\n      swap2\n      pop\n      sload\n      swap1\n      0x0100\n      exp\n      swap1\n      div\n      0xff\n      and\n      dup2\n      jump\t// out\n        /* \"contracts/infra/StrategyFactory.sol\":1002:1032  address public plexusFeeConfig */\n    tag_113:\n      0x08\n      0x00\n      swap1\n      sload\n      swap1\n      0x0100\n      exp\n      swap1\n      div\n      0xffffffffffffffffffffffffffffffffffffffff\n      and\n      dup2\n      jump\t// out\n        /* \"contracts/infra/StrategyFactory.sol\":6745:6850  function getStrategyTypes() external view returns (string[] memory) {... */\n    tag_116:\n        /* \"contracts/infra/StrategyFactory.sol\":6796:6811  string[] memory */\n      0x60\n        /* \"contracts/infra/StrategyFactory.sol\":6830:6843  strategyTypes */\n      0x04\n        /* \"contracts/infra/StrategyFactory.sol\":6823:6843  return strategyTypes */\n      dup1\n      sload\n      dup1\n      0x20\n      mul\n      0x20\n      add\n      mload(0x40)\n      swap1\n      dup2\n      add\n      0x40\n      mstore\n      dup1\n      swap3\n      swap2\n      swap1\n      dup2\n      dup2\n      mstore\n      0x20\n      add\n      0x00\n      swap1\n    tag_228:\n      dup3\n      dup3\n      lt\n      iszero\n      tag_229\n      jumpi\n      dup4\n      dup3\n      swap1\n      0x00\n      mstore\n      keccak256(0x00, 0x20)\n      add\n      dup1\n      sload\n      tag_231\n      swap1\n      tag_166\n      jump\t// in\n    tag_231:\n      dup1\n      0x1f\n      add\n      0x20\n      dup1\n      swap2\n      div\n      mul\n      0x20\n      add\n      mload(0x40)\n      swap1\n      dup2\n      add\n      0x40\n      mstore\n      dup1\n      swap3\n      swap2\n      swap1\n      dup2\n      dup2\n      mstore\n      0x20\n      add\n      dup3\n      dup1\n      sload\n      tag_232\n      swap1\n      tag_166\n      jump\t// in\n    tag_232:\n      dup1\n      iszero\n      tag_233\n      jumpi\n      dup1\n      0x1f\n      lt\n      tag_234\n      jumpi\n      0x0100\n      dup1\n      dup4\n      sload\n      div\n      mul\n      dup4\n      mstore\n      swap2\n      0x20\n      add\n      swap2\n      jump(tag_233)\n    tag_234:\n      dup3\n      add\n      swap2\n      swap1\n      0x00\n      mstore\n      keccak256(0x00, 0x20)\n      swap1\n    tag_235:\n      dup2\n      sload\n      dup2\n      mstore\n      swap1\n      0x01\n      add\n      swap1\n      0x20\n      add\n      dup1\n      dup4\n      gt\n      tag_235\n      jumpi\n      dup3\n      swap1\n      sub\n      0x1f\n      and\n      dup3\n      add\n      swap2\n    tag_233:\n      pop\n      pop\n      pop\n      pop\n      pop\n      dup2\n      mstore\n      0x20\n      add\n      swap1\n      0x01\n      add\n      swap1\n      jump(tag_228)\n    tag_229:\n      pop\n      pop\n      pop\n      pop\n      swap1\n      pop\n        /* \"contracts/infra/StrategyFactory.sol\":6745:6850  function getStrategyTypes() external view returns (string[] memory) {... */\n      swap1\n      jump\t// out\n        /* \"contracts/infra/StrategyFactory.sol\":1107:1130  bool public globalPause */\n    tag_120:\n      0x08\n      0x14\n      swap1\n      sload\n      swap1\n      0x0100\n      exp\n      swap1\n      div\n      0xff\n      and\n      dup2\n      jump\t// out\n        /* \"@openzeppelin/contracts/access/Ownable.sol\":2074:2272  function transferOwnership(address newOwner) public virtual onlyOwner {... */\n    tag_124:\n        /* \"@openzeppelin/contracts/access/Ownable.sol\":1094:1107  _checkOwner() */\n      tag_237\n        /* \"@openzeppelin/contracts/access/Ownable.sol\":1094:1105  _checkOwner */\n      tag_127\n        /* \"@openzeppelin/contracts/access/Ownable.sol\":1094:1107  _checkOwner() */\n      jump\t// in\n    tag_237:\n        /* \"@openzeppelin/contracts/access/Ownable.sol\":2182:2183  0 */\n      0x00\n        /* \"@openzeppelin/contracts/access/Ownable.sol\":2162:2184  newOwner != address(0) */\n      0xffffffffffffffffffffffffffffffffffffffff\n      and\n        /* \"@openzeppelin/contracts/access/Ownable.sol\":2162:2170  newOwner */\n      dup2\n        /* \"@openzeppelin/contracts/access/Ownable.sol\":2162:2184  newOwner != address(0) */\n      0xffffffffffffffffffffffffffffffffffffffff\n      and\n      sub\n        /* \"@openzeppelin/contracts/access/Ownable.sol\":2154:2227  require(newOwner != address(0), \"Ownable: new owner is the zero address\") */\n      tag_239\n      jumpi\n      mload(0x40)\n      0x08c379a000000000000000000000000000000000000000000000000000000000\n      dup2\n      mstore\n      0x04\n      add\n      tag_240\n      swap1\n      tag_241\n      jump\t// in\n    tag_240:\n      mload(0x40)\n      dup1\n      swap2\n      sub\n      swap1\n      revert\n    tag_239:\n        /* \"@openzeppelin/contracts/access/Ownable.sol\":2237:2265  _transferOwnership(newOwner) */\n      tag_242\n        /* \"@openzeppelin/contracts/access/Ownable.sol\":2256:2264  newOwner */\n      dup2\n        /* \"@openzeppelin/contracts/access/Ownable.sol\":2237:2255  _transferOwnership */\n      tag_190\n        /* \"@openzeppelin/contracts/access/Ownable.sol\":2237:2265  _transferOwnership(newOwner) */\n      jump\t// in\n    tag_242:\n        /* \"@openzeppelin/contracts/access/Ownable.sol\":2074:2272  function transferOwnership(address newOwner) public virtual onlyOwner {... */\n      pop\n      jump\t// out\n        /* \"@openzeppelin/contracts/access/Ownable.sol\":1359:1489  function _checkOwner() internal view virtual {... */\n    tag_127:\n        /* \"@openzeppelin/contracts/access/Ownable.sol\":1433:1445  _msgSender() */\n      tag_244\n        /* \"@openzeppelin/contracts/access/Ownable.sol\":1433:1443  _msgSender */\n      tag_245\n        /* \"@openzeppelin/contracts/access/Ownable.sol\":1433:1445  _msgSender() */\n      jump\t// in\n    tag_244:\n        /* \"@openzeppelin/contracts/access/Ownable.sol\":1422:1445  owner() == _msgSender() */\n      0xffffffffffffffffffffffffffffffffffffffff\n      and\n        /* \"@openzeppelin/contracts/access/Ownable.sol\":1422:1429  owner() */\n      tag_246\n        /* \"@openzeppelin/contracts/access/Ownable.sol\":1422:1427  owner */\n      tag_88\n        /* \"@openzeppelin/contracts/access/Ownable.sol\":1422:1429  owner() */\n      jump\t// in\n    tag_246:\n        /* \"@openzeppelin/contracts/access/Ownable.sol\":1422:1445  owner() == _msgSender() */\n      0xffffffffffffffffffffffffffffffffffffffff\n      and\n      eq\n        /* \"@openzeppelin/contracts/access/Ownable.sol\":1414:1482  require(owner() == _msgSender(), \"Ownable: caller is not the owner\") */\n      tag_247\n      jumpi\n      mload(0x40)\n      0x08c379a000000000000000000000000000000000000000000000000000000000\n      dup2\n      mstore\n      0x04\n      add\n      tag_248\n      swap1\n      tag_249\n      jump\t// in\n    tag_248:\n      mload(0x40)\n      dup1\n      swap2\n      sub\n      swap1\n      revert\n    tag_247:\n        /* \"@openzeppelin/contracts/access/Ownable.sol\":1359:1489  function _checkOwner() internal view virtual {... */\n      jump\t// out\n        /* \"@openzeppelin/contracts/access/Ownable.sol\":2426:2613  function _transferOwnership(address newOwner) internal virtual {... */\n    tag_190:\n        /* \"@openzeppelin/contracts/access/Ownable.sol\":2499:2515  address oldOwner */\n      0x00\n        /* \"@openzeppelin/contracts/access/Ownable.sol\":2518:2524  _owner */\n      dup1\n      0x00\n      swap1\n      sload\n      swap1\n      0x0100\n      exp\n      swap1\n      div\n      0xffffffffffffffffffffffffffffffffffffffff\n      and\n        /* \"@openzeppelin/contracts/access/Ownable.sol\":2499:2524  address oldOwner = _owner */\n      swap1\n      pop\n        /* \"@openzeppelin/contracts/access/Ownable.sol\":2543:2551  newOwner */\n      dup2\n        /* \"@openzeppelin/contracts/access/Ownable.sol\":2534:2540  _owner */\n      0x00\n      dup1\n        /* \"@openzeppelin/contracts/access/Ownable.sol\":2534:2551  _owner = newOwner */\n      0x0100\n      exp\n      dup2\n      sload\n      dup2\n      0xffffffffffffffffffffffffffffffffffffffff\n      mul\n      not\n      and\n      swap1\n      dup4\n      0xffffffffffffffffffffffffffffffffffffffff\n      and\n      mul\n      or\n      swap1\n      sstore\n      pop\n        /* \"@openzeppelin/contracts/access/Ownable.sol\":2597:2605  newOwner */\n      dup2\n        /* \"@openzeppelin/contracts/access/Ownable.sol\":2566:2606  OwnershipTransferred(oldOwner, newOwner) */\n      0xffffffffffffffffffffffffffffffffffffffff\n      and\n        /* \"@openzeppelin/contracts/access/Ownable.sol\":2587:2595  oldOwner */\n      dup2\n        /* \"@openzeppelin/contracts/access/Ownable.sol\":2566:2606  OwnershipTransferred(oldOwner, newOwner) */\n      0xffffffffffffffffffffffffffffffffffffffff\n      and\n      0x8be0079c531659141344cd1fd0a4f28419497f9722a3daafe3b4186f6b6457e0\n      mload(0x40)\n      mload(0x40)\n      dup1\n      swap2\n      sub\n      swap1\n      log3\n        /* \"@openzeppelin/contracts/access/Ownable.sol\":2489:2613  {... */\n      pop\n        /* \"@openzeppelin/contracts/access/Ownable.sol\":2426:2613  function _transferOwnership(address newOwner) internal virtual {... */\n      pop\n      jump\t// out\n        /* \"@openzeppelin/contracts/utils/Context.sol\":655:751  function _msgSender() internal view virtual returns (address) {... */\n    tag_245:\n        /* \"@openzeppelin/contracts/utils/Context.sol\":708:715  address */\n      0x00\n        /* \"@openzeppelin/contracts/utils/Context.sol\":734:744  msg.sender */\n      caller\n        /* \"@openzeppelin/contracts/utils/Context.sol\":727:744  return msg.sender */\n      swap1\n      pop\n        /* \"@openzeppelin/contracts/utils/Context.sol\":655:751  function _msgSender() internal view virtual returns (address) {... */\n      swap1\n      jump\t// out\n    tag_139:\n      dataSize(sub_0)\n      dup1\n      dataOffset(sub_0)\n      dup4\n      codecopy\n      add\n      swap1\n      jump\t// out\n    tag_214:\n      dataSize(sub_1)\n      dup1\n      dataOffset(sub_1)\n      dup4\n      codecopy\n      add\n      swap1\n      jump\t// out\n        /* \"#utility.yul\":7:82   */\n    tag_252:\n        /* \"#utility.yul\":40:46   */\n      0x00\n        /* \"#utility.yul\":73:75   */\n      0x40\n        /* \"#utility.yul\":67:76   */\n      mload\n        /* \"#utility.yul\":57:76   */\n      swap1\n      pop\n        /* \"#utility.yul\":7:82   */\n      swap1\n      jump\t// out\n        /* \"#utility.yul\":88:205   */\n    tag_253:\n        /* \"#utility.yul\":197:198   */\n      0x00\n        /* \"#utility.yul\":194:195   */\n      dup1\n        /* \"#utility.yul\":187:199   */\n      revert\n        /* \"#utility.yul\":211:328   */\n    tag_254:\n        /* \"#utility.yul\":320:321   */\n      0x00\n        /* \"#utility.yul\":317:318   */\n      dup1\n        /* \"#utility.yul\":310:322   */\n      revert\n        /* \"#utility.yul\":334:460   */\n    tag_255:\n        /* \"#utility.yul\":371:378   */\n      0x00\n        /* \"#utility.yul\":411:453   */\n      0xffffffffffffffffffffffffffffffffffffffff\n        /* \"#utility.yul\":404:409   */\n      dup3\n        /* \"#utility.yul\":400:454   */\n      and\n        /* \"#utility.yul\":389:454   */\n      swap1\n      pop\n        /* \"#utility.yul\":334:460   */\n      swap2\n      swap1\n      pop\n      jump\t// out\n        /* \"#utility.yul\":466:562   */\n    tag_256:\n        /* \"#utility.yul\":503:510   */\n      0x00\n        /* \"#utility.yul\":532:556   */\n      tag_328\n        /* \"#utility.yul\":550:555   */\n      dup3\n        /* \"#utility.yul\":532:556   */\n      tag_255\n      jump\t// in\n    tag_328:\n        /* \"#utility.yul\":521:556   */\n      swap1\n      pop\n        /* \"#utility.yul\":466:562   */\n      swap2\n      swap1\n      pop\n      jump\t// out\n        /* \"#utility.yul\":568:690   */\n    tag_257:\n        /* \"#utility.yul\":641:665   */\n      tag_330\n        /* \"#utility.yul\":659:664   */\n      dup2\n        /* \"#utility.yul\":641:665   */\n      tag_256\n      jump\t// in\n    tag_330:\n        /* \"#utility.yul\":634:639   */\n      dup2\n        /* \"#utility.yul\":631:666   */\n      eq\n        /* \"#utility.yul\":621:684   */\n      tag_331\n      jumpi\n        /* \"#utility.yul\":680:681   */\n      0x00\n        /* \"#utility.yul\":677:678   */\n      dup1\n        /* \"#utility.yul\":670:682   */\n      revert\n        /* \"#utility.yul\":621:684   */\n    tag_331:\n        /* \"#utility.yul\":568:690   */\n      pop\n      jump\t// out\n        /* \"#utility.yul\":696:835   */\n    tag_258:\n        /* \"#utility.yul\":742:747   */\n      0x00\n        /* \"#utility.yul\":780:786   */\n      dup2\n        /* \"#utility.yul\":767:787   */\n      calldataload\n        /* \"#utility.yul\":758:787   */\n      swap1\n      pop\n        /* \"#utility.yul\":796:829   */\n      tag_333\n        /* \"#utility.yul\":823:828   */\n      dup2\n        /* \"#utility.yul\":796:829   */\n      tag_257\n      jump\t// in\n    tag_333:\n        /* \"#utility.yul\":696:835   */\n      swap3\n      swap2\n      pop\n      pop\n      jump\t// out\n        /* \"#utility.yul\":841:1170   */\n    tag_36:\n        /* \"#utility.yul\":900:906   */\n      0x00\n        /* \"#utility.yul\":949:951   */\n      0x20\n        /* \"#utility.yul\":937:946   */\n      dup3\n        /* \"#utility.yul\":928:935   */\n      dup5\n        /* \"#utility.yul\":924:947   */\n      sub\n        /* \"#utility.yul\":920:952   */\n      slt\n        /* \"#utility.yul\":917:1036   */\n      iszero\n      tag_335\n      jumpi\n        /* \"#utility.yul\":955:1034   */\n      tag_336\n      tag_253\n      jump\t// in\n    tag_336:\n        /* \"#utility.yul\":917:1036   */\n    tag_335:\n        /* \"#utility.yul\":1075:1076   */\n      0x00\n        /* \"#utility.yul\":1100:1153   */\n      tag_337\n        /* \"#utility.yul\":1145:1152   */\n      dup5\n        /* \"#utility.yul\":1136:1142   */\n      dup3\n        /* \"#utility.yul\":1125:1134   */\n      dup6\n        /* \"#utility.yul\":1121:1143   */\n      add\n        /* \"#utility.yul\":1100:1153   */\n      tag_258\n      jump\t// in\n    tag_337:\n        /* \"#utility.yul\":1090:1153   */\n      swap2\n      pop\n        /* \"#utility.yul\":1046:1163   */\n      pop\n        /* \"#utility.yul\":841:1170   */\n      swap3\n      swap2\n      pop\n      pop\n      jump\t// out\n        /* \"#utility.yul\":1176:1293   */\n    tag_259:\n        /* \"#utility.yul\":1285:1286   */\n      0x00\n        /* \"#utility.yul\":1282:1283   */\n      dup1\n        /* \"#utility.yul\":1275:1287   */\n      revert\n        /* \"#utility.yul\":1299:1416   */\n    tag_260:\n        /* \"#utility.yul\":1408:1409   */\n      0x00\n        /* \"#utility.yul\":1405:1406   */\n      dup1\n        /* \"#utility.yul\":1398:1410   */\n      revert\n        /* \"#utility.yul\":1422:1539   */\n    tag_261:\n        /* \"#utility.yul\":1531:1532   */\n      0x00\n        /* \"#utility.yul\":1528:1529   */\n      dup1\n        /* \"#utility.yul\":1521:1533   */\n      revert\n        /* \"#utility.yul\":1559:2112   */\n    tag_262:\n        /* \"#utility.yul\":1617:1625   */\n      0x00\n        /* \"#utility.yul\":1627:1633   */\n      dup1\n        /* \"#utility.yul\":1677:1680   */\n      dup4\n        /* \"#utility.yul\":1670:1674   */\n      0x1f\n        /* \"#utility.yul\":1662:1668   */\n      dup5\n        /* \"#utility.yul\":1658:1675   */\n      add\n        /* \"#utility.yul\":1654:1681   */\n      slt\n        /* \"#utility.yul\":1644:1766   */\n      tag_342\n      jumpi\n        /* \"#utility.yul\":1685:1764   */\n      tag_343\n      tag_259\n      jump\t// in\n    tag_343:\n        /* \"#utility.yul\":1644:1766   */\n    tag_342:\n        /* \"#utility.yul\":1798:1804   */\n      dup3\n        /* \"#utility.yul\":1785:1805   */\n      calldataload\n        /* \"#utility.yul\":1775:1805   */\n      swap1\n      pop\n        /* \"#utility.yul\":1828:1846   */\n      0xffffffffffffffff\n        /* \"#utility.yul\":1820:1826   */\n      dup2\n        /* \"#utility.yul\":1817:1847   */\n      gt\n        /* \"#utility.yul\":1814:1931   */\n      iszero\n      tag_344\n      jumpi\n        /* \"#utility.yul\":1850:1929   */\n      tag_345\n      tag_260\n      jump\t// in\n    tag_345:\n        /* \"#utility.yul\":1814:1931   */\n    tag_344:\n        /* \"#utility.yul\":1964:1968   */\n      0x20\n        /* \"#utility.yul\":1956:1962   */\n      dup4\n        /* \"#utility.yul\":1952:1969   */\n      add\n        /* \"#utility.yul\":1940:1969   */\n      swap2\n      pop\n        /* \"#utility.yul\":2018:2021   */\n      dup4\n        /* \"#utility.yul\":2010:2014   */\n      0x01\n        /* \"#utility.yul\":2002:2008   */\n      dup3\n        /* \"#utility.yul\":1998:2015   */\n      mul\n        /* \"#utility.yul\":1988:1996   */\n      dup4\n        /* \"#utility.yul\":1984:2016   */\n      add\n        /* \"#utility.yul\":1981:2022   */\n      gt\n        /* \"#utility.yul\":1978:2106   */\n      iszero\n      tag_346\n      jumpi\n        /* \"#utility.yul\":2025:2104   */\n      tag_347\n      tag_261\n      jump\t// in\n    tag_347:\n        /* \"#utility.yul\":1978:2106   */\n    tag_346:\n        /* \"#utility.yul\":1559:2112   */\n      swap3\n      pop\n      swap3\n      swap1\n      pop\n      jump\t// out\n        /* \"#utility.yul\":2118:2647   */\n    tag_43:\n        /* \"#utility.yul\":2189:2195   */\n      0x00\n        /* \"#utility.yul\":2197:2203   */\n      dup1\n        /* \"#utility.yul\":2246:2248   */\n      0x20\n        /* \"#utility.yul\":2234:2243   */\n      dup4\n        /* \"#utility.yul\":2225:2232   */\n      dup6\n        /* \"#utility.yul\":2221:2244   */\n      sub\n        /* \"#utility.yul\":2217:2249   */\n      slt\n        /* \"#utility.yul\":2214:2333   */\n      iszero\n      tag_349\n      jumpi\n        /* \"#utility.yul\":2252:2331   */\n      tag_350\n      tag_253\n      jump\t// in\n    tag_350:\n        /* \"#utility.yul\":2214:2333   */\n    tag_349:\n        /* \"#utility.yul\":2400:2401   */\n      0x00\n        /* \"#utility.yul\":2389:2398   */\n      dup4\n        /* \"#utility.yul\":2385:2402   */\n      add\n        /* \"#utility.yul\":2372:2403   */\n      calldataload\n        /* \"#utility.yul\":2430:2448   */\n      0xffffffffffffffff\n        /* \"#utility.yul\":2422:2428   */\n      dup2\n        /* \"#utility.yul\":2419:2449   */\n      gt\n        /* \"#utility.yul\":2416:2533   */\n      iszero\n      tag_351\n      jumpi\n        /* \"#utility.yul\":2452:2531   */\n      tag_352\n      tag_254\n      jump\t// in\n    tag_352:\n        /* \"#utility.yul\":2416:2533   */\n    tag_351:\n        /* \"#utility.yul\":2565:2630   */\n      tag_353\n        /* \"#utility.yul\":2622:2629   */\n      dup6\n        /* \"#utility.yul\":2613:2619   */\n      dup3\n        /* \"#utility.yul\":2602:2611   */\n      dup7\n        /* \"#utility.yul\":2598:2620   */\n      add\n        /* \"#utility.yul\":2565:2630   */\n      tag_262\n      jump\t// in\n    tag_353:\n        /* \"#utility.yul\":2547:2630   */\n      swap3\n      pop\n      swap3\n      pop\n        /* \"#utility.yul\":2343:2640   */\n      pop\n        /* \"#utility.yul\":2118:2647   */\n      swap3\n      pop\n      swap3\n      swap1\n      pop\n      jump\t// out\n        /* \"#utility.yul\":2653:2771   */\n    tag_263:\n        /* \"#utility.yul\":2740:2764   */\n      tag_355\n        /* \"#utility.yul\":2758:2763   */\n      dup2\n        /* \"#utility.yul\":2740:2764   */\n      tag_256\n      jump\t// in\n    tag_355:\n        /* \"#utility.yul\":2735:2738   */\n      dup3\n        /* \"#utility.yul\":2728:2765   */\n      mstore\n        /* \"#utility.yul\":2653:2771   */\n      pop\n      pop\n      jump\t// out\n        /* \"#utility.yul\":2777:2999   */\n    tag_46:\n        /* \"#utility.yul\":2870:2874   */\n      0x00\n        /* \"#utility.yul\":2908:2910   */\n      0x20\n        /* \"#utility.yul\":2897:2906   */\n      dup3\n        /* \"#utility.yul\":2893:2911   */\n      add\n        /* \"#utility.yul\":2885:2911   */\n      swap1\n      pop\n        /* \"#utility.yul\":2921:2992   */\n      tag_357\n        /* \"#utility.yul\":2989:2990   */\n      0x00\n        /* \"#utility.yul\":2978:2987   */\n      dup4\n        /* \"#utility.yul\":2974:2991   */\n      add\n        /* \"#utility.yul\":2965:2971   */\n      dup5\n        /* \"#utility.yul\":2921:2992   */\n      tag_263\n      jump\t// in\n    tag_357:\n        /* \"#utility.yul\":2777:2999   */\n      swap3\n      swap2\n      pop\n      pop\n      jump\t// out\n        /* \"#utility.yul\":3005:3122   */\n    tag_264:\n        /* \"#utility.yul\":3114:3115   */\n      0x00\n        /* \"#utility.yul\":3111:3112   */\n      dup1\n        /* \"#utility.yul\":3104:3116   */\n      revert\n        /* \"#utility.yul\":3128:3230   */\n    tag_265:\n        /* \"#utility.yul\":3169:3175   */\n      0x00\n        /* \"#utility.yul\":3220:3222   */\n      0x1f\n        /* \"#utility.yul\":3216:3223   */\n      not\n        /* \"#utility.yul\":3211:3213   */\n      0x1f\n        /* \"#utility.yul\":3204:3209   */\n      dup4\n        /* \"#utility.yul\":3200:3214   */\n      add\n        /* \"#utility.yul\":3196:3224   */\n      and\n        /* \"#utility.yul\":3186:3224   */\n      swap1\n      pop\n        /* \"#utility.yul\":3128:3230   */\n      swap2\n      swap1\n      pop\n      jump\t// out\n        /* \"#utility.yul\":3236:3416   */\n    tag_266:\n        /* \"#utility.yul\":3284:3361   */\n      0x4e487b7100000000000000000000000000000000000000000000000000000000\n        /* \"#utility.yul\":3281:3282   */\n      0x00\n        /* \"#utility.yul\":3274:3362   */\n      mstore\n        /* \"#utility.yul\":3381:3385   */\n      0x41\n        /* \"#utility.yul\":3378:3379   */\n      0x04\n        /* \"#utility.yul\":3371:3386   */\n      mstore\n        /* \"#utility.yul\":3405:3409   */\n      0x24\n        /* \"#utility.yul\":3402:3403   */\n      0x00\n        /* \"#utility.yul\":3395:3410   */\n      revert\n        /* \"#utility.yul\":3422:3703   */\n    tag_267:\n        /* \"#utility.yul\":3505:3532   */\n      tag_362\n        /* \"#utility.yul\":3527:3531   */\n      dup3\n        /* \"#utility.yul\":3505:3532   */\n      tag_265\n      jump\t// in\n    tag_362:\n        /* \"#utility.yul\":3497:3503   */\n      dup2\n        /* \"#utility.yul\":3493:3533   */\n      add\n        /* \"#utility.yul\":3635:3641   */\n      dup2\n        /* \"#utility.yul\":3623:3633   */\n      dup2\n        /* \"#utility.yul\":3620:3642   */\n      lt\n        /* \"#utility.yul\":3599:3617   */\n      0xffffffffffffffff\n        /* \"#utility.yul\":3587:3597   */\n      dup3\n        /* \"#utility.yul\":3584:3618   */\n      gt\n        /* \"#utility.yul\":3581:3643   */\n      or\n        /* \"#utility.yul\":3578:3666   */\n      iszero\n      tag_363\n      jumpi\n        /* \"#utility.yul\":3646:3664   */\n      tag_364\n      tag_266\n      jump\t// in\n    tag_364:\n        /* \"#utility.yul\":3578:3666   */\n    tag_363:\n        /* \"#utility.yul\":3686:3696   */\n      dup1\n        /* \"#utility.yul\":3682:3684   */\n      0x40\n        /* \"#utility.yul\":3675:3697   */\n      mstore\n        /* \"#utility.yul\":3465:3703   */\n      pop\n        /* \"#utility.yul\":3422:3703   */\n      pop\n      pop\n      jump\t// out\n        /* \"#utility.yul\":3709:3838   */\n    tag_268:\n        /* \"#utility.yul\":3743:3749   */\n      0x00\n        /* \"#utility.yul\":3770:3790   */\n      tag_366\n      tag_252\n      jump\t// in\n    tag_366:\n        /* \"#utility.yul\":3760:3790   */\n      swap1\n      pop\n        /* \"#utility.yul\":3799:3832   */\n      tag_367\n        /* \"#utility.yul\":3827:3831   */\n      dup3\n        /* \"#utility.yul\":3819:3825   */\n      dup3\n        /* \"#utility.yul\":3799:3832   */\n      tag_267\n      jump\t// in\n    tag_367:\n        /* \"#utility.yul\":3709:3838   */\n      swap2\n      swap1\n      pop\n      jump\t// out\n        /* \"#utility.yul\":3844:4152   */\n    tag_269:\n        /* \"#utility.yul\":3906:3910   */\n      0x00\n        /* \"#utility.yul\":3996:4014   */\n      0xffffffffffffffff\n        /* \"#utility.yul\":3988:3994   */\n      dup3\n        /* \"#utility.yul\":3985:4015   */\n      gt\n        /* \"#utility.yul\":3982:4038   */\n      iszero\n      tag_369\n      jumpi\n        /* \"#utility.yul\":4018:4036   */\n      tag_370\n      tag_266\n      jump\t// in\n    tag_370:\n        /* \"#utility.yul\":3982:4038   */\n    tag_369:\n        /* \"#utility.yul\":4056:4085   */\n      tag_371\n        /* \"#utility.yul\":4078:4084   */\n      dup3\n        /* \"#utility.yul\":4056:4085   */\n      tag_265\n      jump\t// in\n    tag_371:\n        /* \"#utility.yul\":4048:4085   */\n      swap1\n      pop\n        /* \"#utility.yul\":4140:4144   */\n      0x20\n        /* \"#utility.yul\":4134:4138   */\n      dup2\n        /* \"#utility.yul\":4130:4145   */\n      add\n        /* \"#utility.yul\":4122:4145   */\n      swap1\n      pop\n        /* \"#utility.yul\":3844:4152   */\n      swap2\n      swap1\n      pop\n      jump\t// out\n        /* \"#utility.yul\":4158:4306   */\n    tag_270:\n        /* \"#utility.yul\":4256:4262   */\n      dup3\n        /* \"#utility.yul\":4251:4254   */\n      dup2\n        /* \"#utility.yul\":4246:4249   */\n      dup4\n        /* \"#utility.yul\":4233:4263   */\n      calldatacopy\n        /* \"#utility.yul\":4297:4298   */\n      0x00\n        /* \"#utility.yul\":4288:4294   */\n      dup4\n        /* \"#utility.yul\":4283:4286   */\n      dup4\n        /* \"#utility.yul\":4279:4295   */\n      add\n        /* \"#utility.yul\":4272:4299   */\n      mstore\n        /* \"#utility.yul\":4158:4306   */\n      pop\n      pop\n      pop\n      jump\t// out\n        /* \"#utility.yul\":4312:4737   */\n    tag_271:\n        /* \"#utility.yul\":4390:4395   */\n      0x00\n        /* \"#utility.yul\":4415:4481   */\n      tag_374\n        /* \"#utility.yul\":4431:4480   */\n      tag_375\n        /* \"#utility.yul\":4473:4479   */\n      dup5\n        /* \"#utility.yul\":4431:4480   */\n      tag_269\n      jump\t// in\n    tag_375:\n        /* \"#utility.yul\":4415:4481   */\n      tag_268\n      jump\t// in\n    tag_374:\n        /* \"#utility.yul\":4406:4481   */\n      swap1\n      pop\n        /* \"#utility.yul\":4504:4510   */\n      dup3\n        /* \"#utility.yul\":4497:4502   */\n      dup2\n        /* \"#utility.yul\":4490:4511   */\n      mstore\n        /* \"#utility.yul\":4542:4546   */\n      0x20\n        /* \"#utility.yul\":4535:4540   */\n      dup2\n        /* \"#utility.yul\":4531:4547   */\n      add\n        /* \"#utility.yul\":4580:4583   */\n      dup5\n        /* \"#utility.yul\":4571:4577   */\n      dup5\n        /* \"#utility.yul\":4566:4569   */\n      dup5\n        /* \"#utility.yul\":4562:4578   */\n      add\n        /* \"#utility.yul\":4559:4584   */\n      gt\n        /* \"#utility.yul\":4556:4668   */\n      iszero\n      tag_376\n      jumpi\n        /* \"#utility.yul\":4587:4666   */\n      tag_377\n      tag_264\n      jump\t// in\n    tag_377:\n        /* \"#utility.yul\":4556:4668   */\n    tag_376:\n        /* \"#utility.yul\":4677:4731   */\n      tag_378\n        /* \"#utility.yul\":4724:4730   */\n      dup5\n        /* \"#utility.yul\":4719:4722   */\n      dup3\n        /* \"#utility.yul\":4714:4717   */\n      dup6\n        /* \"#utility.yul\":4677:4731   */\n      tag_270\n      jump\t// in\n    tag_378:\n        /* \"#utility.yul\":4396:4737   */\n      pop\n        /* \"#utility.yul\":4312:4737   */\n      swap4\n      swap3\n      pop\n      pop\n      pop\n      jump\t// out\n        /* \"#utility.yul\":4757:5097   */\n    tag_272:\n        /* \"#utility.yul\":4813:4818   */\n      0x00\n        /* \"#utility.yul\":4862:4865   */\n      dup3\n        /* \"#utility.yul\":4855:4859   */\n      0x1f\n        /* \"#utility.yul\":4847:4853   */\n      dup4\n        /* \"#utility.yul\":4843:4860   */\n      add\n        /* \"#utility.yul\":4839:4866   */\n      slt\n        /* \"#utility.yul\":4829:4951   */\n      tag_380\n      jumpi\n        /* \"#utility.yul\":4870:4949   */\n      tag_381\n      tag_259\n      jump\t// in\n    tag_381:\n        /* \"#utility.yul\":4829:4951   */\n    tag_380:\n        /* \"#utility.yul\":4987:4993   */\n      dup2\n        /* \"#utility.yul\":4974:4994   */\n      calldataload\n        /* \"#utility.yul\":5012:5091   */\n      tag_382\n        /* \"#utility.yul\":5087:5090   */\n      dup5\n        /* \"#utility.yul\":5079:5085   */\n      dup3\n        /* \"#utility.yul\":5072:5076   */\n      0x20\n        /* \"#utility.yul\":5064:5070   */\n      dup7\n        /* \"#utility.yul\":5060:5077   */\n      add\n        /* \"#utility.yul\":5012:5091   */\n      tag_271\n      jump\t// in\n    tag_382:\n        /* \"#utility.yul\":5003:5091   */\n      swap2\n      pop\n        /* \"#utility.yul\":4819:5097   */\n      pop\n        /* \"#utility.yul\":4757:5097   */\n      swap3\n      swap2\n      pop\n      pop\n      jump\t// out\n        /* \"#utility.yul\":5103:5612   */\n    tag_58:\n        /* \"#utility.yul\":5172:5178   */\n      0x00\n        /* \"#utility.yul\":5221:5223   */\n      0x20\n        /* \"#utility.yul\":5209:5218   */\n      dup3\n        /* \"#utility.yul\":5200:5207   */\n      dup5\n        /* \"#utility.yul\":5196:5219   */\n      sub\n        /* \"#utility.yul\":5192:5224   */\n      slt\n        /* \"#utility.yul\":5189:5308   */\n      iszero\n      tag_384\n      jumpi\n        /* \"#utility.yul\":5227:5306   */\n      tag_385\n      tag_253\n      jump\t// in\n    tag_385:\n        /* \"#utility.yul\":5189:5308   */\n    tag_384:\n        /* \"#utility.yul\":5375:5376   */\n      0x00\n        /* \"#utility.yul\":5364:5373   */\n      dup3\n        /* \"#utility.yul\":5360:5377   */\n      add\n        /* \"#utility.yul\":5347:5378   */\n      calldataload\n        /* \"#utility.yul\":5405:5423   */\n      0xffffffffffffffff\n        /* \"#utility.yul\":5397:5403   */\n      dup2\n        /* \"#utility.yul\":5394:5424   */\n      gt\n        /* \"#utility.yul\":5391:5508   */\n      iszero\n      tag_386\n      jumpi\n        /* \"#utility.yul\":5427:5506   */\n      tag_387\n      tag_254\n      jump\t// in\n    tag_387:\n        /* \"#utility.yul\":5391:5508   */\n    tag_386:\n        /* \"#utility.yul\":5532:5595   */\n      tag_388\n        /* \"#utility.yul\":5587:5594   */\n      dup5\n        /* \"#utility.yul\":5578:5584   */\n      dup3\n        /* \"#utility.yul\":5567:5576   */\n      dup6\n        /* \"#utility.yul\":5563:5585   */\n      add\n        /* \"#utility.yul\":5532:5595   */\n      tag_272\n      jump\t// in\n    tag_388:\n        /* \"#utility.yul\":5522:5595   */\n      swap2\n      pop\n        /* \"#utility.yul\":5318:5605   */\n      pop\n        /* \"#utility.yul\":5103:5612   */\n      swap3\n      swap2\n      pop\n      pop\n      jump\t// out\n        /* \"#utility.yul\":5618:5678   */\n    tag_273:\n        /* \"#utility.yul\":5646:5649   */\n      0x00\n        /* \"#utility.yul\":5667:5672   */\n      dup2\n        /* \"#utility.yul\":5660:5672   */\n      swap1\n      pop\n        /* \"#utility.yul\":5618:5678   */\n      swap2\n      swap1\n      pop\n      jump\t// out\n        /* \"#utility.yul\":5684:5826   */\n    tag_274:\n        /* \"#utility.yul\":5734:5743   */\n      0x00\n        /* \"#utility.yul\":5767:5820   */\n      tag_391\n        /* \"#utility.yul\":5785:5819   */\n      tag_392\n        /* \"#utility.yul\":5794:5818   */\n      tag_393\n        /* \"#utility.yul\":5812:5817   */\n      dup5\n        /* \"#utility.yul\":5794:5818   */\n      tag_255\n      jump\t// in\n    tag_393:\n        /* \"#utility.yul\":5785:5819   */\n      tag_273\n      jump\t// in\n    tag_392:\n        /* \"#utility.yul\":5767:5820   */\n      tag_255\n      jump\t// in\n    tag_391:\n        /* \"#utility.yul\":5754:5820   */\n      swap1\n      pop\n        /* \"#utility.yul\":5684:5826   */\n      swap2\n      swap1\n      pop\n      jump\t// out\n        /* \"#utility.yul\":5832:5958   */\n    tag_275:\n        /* \"#utility.yul\":5882:5891   */\n      0x00\n        /* \"#utility.yul\":5915:5952   */\n      tag_395\n        /* \"#utility.yul\":5946:5951   */\n      dup3\n        /* \"#utility.yul\":5915:5952   */\n      tag_274\n      jump\t// in\n    tag_395:\n        /* \"#utility.yul\":5902:5952   */\n      swap1\n      pop\n        /* \"#utility.yul\":5832:5958   */\n      swap2\n      swap1\n      pop\n      jump\t// out\n        /* \"#utility.yul\":5964:6115   */\n    tag_276:\n        /* \"#utility.yul\":6039:6048   */\n      0x00\n        /* \"#utility.yul\":6072:6109   */\n      tag_397\n        /* \"#utility.yul\":6103:6108   */\n      dup3\n        /* \"#utility.yul\":6072:6109   */\n      tag_275\n      jump\t// in\n    tag_397:\n        /* \"#utility.yul\":6059:6109   */\n      swap1\n      pop\n        /* \"#utility.yul\":5964:6115   */\n      swap2\n      swap1\n      pop\n      jump\t// out\n        /* \"#utility.yul\":6121:6302   */\n    tag_277:\n        /* \"#utility.yul\":6233:6295   */\n      tag_399\n        /* \"#utility.yul\":6289:6294   */\n      dup2\n        /* \"#utility.yul\":6233:6295   */\n      tag_276\n      jump\t// in\n    tag_399:\n        /* \"#utility.yul\":6228:6231   */\n      dup3\n        /* \"#utility.yul\":6221:6296   */\n      mstore\n        /* \"#utility.yul\":6121:6302   */\n      pop\n      pop\n      jump\t// out\n        /* \"#utility.yul\":6308:6580   */\n    tag_61:\n        /* \"#utility.yul\":6426:6430   */\n      0x00\n        /* \"#utility.yul\":6464:6466   */\n      0x20\n        /* \"#utility.yul\":6453:6462   */\n      dup3\n        /* \"#utility.yul\":6449:6467   */\n      add\n        /* \"#utility.yul\":6441:6467   */\n      swap1\n      pop\n        /* \"#utility.yul\":6477:6573   */\n      tag_401\n        /* \"#utility.yul\":6570:6571   */\n      0x00\n        /* \"#utility.yul\":6559:6568   */\n      dup4\n        /* \"#utility.yul\":6555:6572   */\n      add\n        /* \"#utility.yul\":6546:6552   */\n      dup5\n        /* \"#utility.yul\":6477:6573   */\n      tag_277\n      jump\t// in\n    tag_401:\n        /* \"#utility.yul\":6308:6580   */\n      swap3\n      swap2\n      pop\n      pop\n      jump\t// out\n        /* \"#utility.yul\":6586:6663   */\n    tag_278:\n        /* \"#utility.yul\":6623:6630   */\n      0x00\n        /* \"#utility.yul\":6652:6657   */\n      dup2\n        /* \"#utility.yul\":6641:6657   */\n      swap1\n      pop\n        /* \"#utility.yul\":6586:6663   */\n      swap2\n      swap1\n      pop\n      jump\t// out\n        /* \"#utility.yul\":6669:6791   */\n    tag_279:\n        /* \"#utility.yul\":6742:6766   */\n      tag_404\n        /* \"#utility.yul\":6760:6765   */\n      dup2\n        /* \"#utility.yul\":6742:6766   */\n      tag_278\n      jump\t// in\n    tag_404:\n        /* \"#utility.yul\":6735:6740   */\n      dup2\n        /* \"#utility.yul\":6732:6767   */\n      eq\n        /* \"#utility.yul\":6722:6785   */\n      tag_405\n      jumpi\n        /* \"#utility.yul\":6781:6782   */\n      0x00\n        /* \"#utility.yul\":6778:6779   */\n      dup1\n        /* \"#utility.yul\":6771:6783   */\n      revert\n        /* \"#utility.yul\":6722:6785   */\n    tag_405:\n        /* \"#utility.yul\":6669:6791   */\n      pop\n      jump\t// out\n        /* \"#utility.yul\":6797:6936   */\n    tag_280:\n        /* \"#utility.yul\":6843:6848   */\n      0x00\n        /* \"#utility.yul\":6881:6887   */\n      dup2\n        /* \"#utility.yul\":6868:6888   */\n      calldataload\n        /* \"#utility.yul\":6859:6888   */\n      swap1\n      pop\n        /* \"#utility.yul\":6897:6930   */\n      tag_407\n        /* \"#utility.yul\":6924:6929   */\n      dup2\n        /* \"#utility.yul\":6897:6930   */\n      tag_279\n      jump\t// in\n    tag_407:\n        /* \"#utility.yul\":6797:6936   */\n      swap3\n      swap2\n      pop\n      pop\n      jump\t// out\n        /* \"#utility.yul\":6942:7271   */\n    tag_67:\n        /* \"#utility.yul\":7001:7007   */\n      0x00\n        /* \"#utility.yul\":7050:7052   */\n      0x20\n        /* \"#utility.yul\":7038:7047   */\n      dup3\n        /* \"#utility.yul\":7029:7036   */\n      dup5\n        /* \"#utility.yul\":7025:7048   */\n      sub\n        /* \"#utility.yul\":7021:7053   */\n      slt\n        /* \"#utility.yul\":7018:7137   */\n      iszero\n      tag_409\n      jumpi\n        /* \"#utility.yul\":7056:7135   */\n      tag_410\n      tag_253\n      jump\t// in\n    tag_410:\n        /* \"#utility.yul\":7018:7137   */\n    tag_409:\n        /* \"#utility.yul\":7176:7177   */\n      0x00\n        /* \"#utility.yul\":7201:7254   */\n      tag_411\n        /* \"#utility.yul\":7246:7253   */\n      dup5\n        /* \"#utility.yul\":7237:7243   */\n      dup3\n        /* \"#utility.yul\":7226:7235   */\n      dup6\n        /* \"#utility.yul\":7222:7244   */\n      add\n        /* \"#utility.yul\":7201:7254   */\n      tag_280\n      jump\t// in\n    tag_411:\n        /* \"#utility.yul\":7191:7254   */\n      swap2\n      pop\n        /* \"#utility.yul\":7147:7264   */\n      pop\n        /* \"#utility.yul\":6942:7271   */\n      swap3\n      swap2\n      pop\n      pop\n      jump\t// out\n        /* \"#utility.yul\":7277:7376   */\n    tag_281:\n        /* \"#utility.yul\":7329:7335   */\n      0x00\n        /* \"#utility.yul\":7363:7368   */\n      dup2\n        /* \"#utility.yul\":7357:7369   */\n      mload\n        /* \"#utility.yul\":7347:7369   */\n      swap1\n      pop\n        /* \"#utility.yul\":7277:7376   */\n      swap2\n      swap1\n      pop\n      jump\t// out\n        /* \"#utility.yul\":7382:7551   */\n    tag_282:\n        /* \"#utility.yul\":7466:7477   */\n      0x00\n        /* \"#utility.yul\":7500:7506   */\n      dup3\n        /* \"#utility.yul\":7495:7498   */\n      dup3\n        /* \"#utility.yul\":7488:7507   */\n      mstore\n        /* \"#utility.yul\":7540:7544   */\n      0x20\n        /* \"#utility.yul\":7535:7538   */\n      dup3\n        /* \"#utility.yul\":7531:7545   */\n      add\n        /* \"#utility.yul\":7516:7545   */\n      swap1\n      pop\n        /* \"#utility.yul\":7382:7551   */\n      swap3\n      swap2\n      pop\n      pop\n      jump\t// out\n        /* \"#utility.yul\":7557:7696   */\n    tag_283:\n        /* \"#utility.yul\":7646:7652   */\n      dup3\n        /* \"#utility.yul\":7641:7644   */\n      dup2\n        /* \"#utility.yul\":7636:7639   */\n      dup4\n        /* \"#utility.yul\":7630:7653   */\n      mcopy\n        /* \"#utility.yul\":7687:7688   */\n      0x00\n        /* \"#utility.yul\":7678:7684   */\n      dup4\n        /* \"#utility.yul\":7673:7676   */\n      dup4\n        /* \"#utility.yul\":7669:7685   */\n      add\n        /* \"#utility.yul\":7662:7689   */\n      mstore\n        /* \"#utility.yul\":7557:7696   */\n      pop\n      pop\n      pop\n      jump\t// out\n        /* \"#utility.yul\":7702:8079   */\n    tag_284:\n        /* \"#utility.yul\":7790:7793   */\n      0x00\n        /* \"#utility.yul\":7818:7857   */\n      tag_416\n        /* \"#utility.yul\":7851:7856   */\n      dup3\n        /* \"#utility.yul\":7818:7857   */\n      tag_281\n      jump\t// in\n    tag_416:\n        /* \"#utility.yul\":7873:7944   */\n      tag_417\n        /* \"#utility.yul\":7937:7943   */\n      dup2\n        /* \"#utility.yul\":7932:7935   */\n      dup6\n        /* \"#utility.yul\":7873:7944   */\n      tag_282\n      jump\t// in\n    tag_417:\n        /* \"#utility.yul\":7866:7944   */\n      swap4\n      pop\n        /* \"#utility.yul\":7953:8018   */\n      tag_418\n        /* \"#utility.yul\":8011:8017   */\n      dup2\n        /* \"#utility.yul\":8006:8009   */\n      dup6\n        /* \"#utility.yul\":7999:8003   */\n      0x20\n        /* \"#utility.yul\":7992:7997   */\n      dup7\n        /* \"#utility.yul\":7988:8004   */\n      add\n        /* \"#utility.yul\":7953:8018   */\n      tag_283\n      jump\t// in\n    tag_418:\n        /* \"#utility.yul\":8043:8072   */\n      tag_419\n        /* \"#utility.yul\":8065:8071   */\n      dup2\n        /* \"#utility.yul\":8043:8072   */\n      tag_265\n      jump\t// in\n    tag_419:\n        /* \"#utility.yul\":8038:8041   */\n      dup5\n        /* \"#utility.yul\":8034:8073   */\n      add\n        /* \"#utility.yul\":8027:8073   */\n      swap2\n      pop\n        /* \"#utility.yul\":7794:8079   */\n      pop\n        /* \"#utility.yul\":7702:8079   */\n      swap3\n      swap2\n      pop\n      pop\n      jump\t// out\n        /* \"#utility.yul\":8085:8398   */\n    tag_70:\n        /* \"#utility.yul\":8198:8202   */\n      0x00\n        /* \"#utility.yul\":8236:8238   */\n      0x20\n        /* \"#utility.yul\":8225:8234   */\n      dup3\n        /* \"#utility.yul\":8221:8239   */\n      add\n        /* \"#utility.yul\":8213:8239   */\n      swap1\n      pop\n        /* \"#utility.yul\":8285:8294   */\n      dup2\n        /* \"#utility.yul\":8279:8283   */\n      dup2\n        /* \"#utility.yul\":8275:8295   */\n      sub\n        /* \"#utility.yul\":8271:8272   */\n      0x00\n        /* \"#utility.yul\":8260:8269   */\n      dup4\n        /* \"#utility.yul\":8256:8273   */\n      add\n        /* \"#utility.yul\":8249:8296   */\n      mstore\n        /* \"#utility.yul\":8313:8391   */\n      tag_421\n        /* \"#utility.yul\":8386:8390   */\n      dup2\n        /* \"#utility.yul\":8377:8383   */\n      dup5\n        /* \"#utility.yul\":8313:8391   */\n      tag_284\n      jump\t// in\n    tag_421:\n        /* \"#utility.yul\":8305:8391   */\n      swap1\n      pop\n        /* \"#utility.yul\":8085:8398   */\n      swap3\n      swap2\n      pop\n      pop\n      jump\t// out\n        /* \"#utility.yul\":8404:9078   */\n    tag_73:\n        /* \"#utility.yul\":8484:8490   */\n      0x00\n        /* \"#utility.yul\":8492:8498   */\n      dup1\n        /* \"#utility.yul\":8500:8506   */\n      0x00\n        /* \"#utility.yul\":8549:8551   */\n      0x40\n        /* \"#utility.yul\":8537:8546   */\n      dup5\n        /* \"#utility.yul\":8528:8535   */\n      dup7\n        /* \"#utility.yul\":8524:8547   */\n      sub\n        /* \"#utility.yul\":8520:8552   */\n      slt\n        /* \"#utility.yul\":8517:8636   */\n      iszero\n      tag_423\n      jumpi\n        /* \"#utility.yul\":8555:8634   */\n      tag_424\n      tag_253\n      jump\t// in\n    tag_424:\n        /* \"#utility.yul\":8517:8636   */\n    tag_423:\n        /* \"#utility.yul\":8703:8704   */\n      0x00\n        /* \"#utility.yul\":8692:8701   */\n      dup5\n        /* \"#utility.yul\":8688:8705   */\n      add\n        /* \"#utility.yul\":8675:8706   */\n      calldataload\n        /* \"#utility.yul\":8733:8751   */\n      0xffffffffffffffff\n        /* \"#utility.yul\":8725:8731   */\n      dup2\n        /* \"#utility.yul\":8722:8752   */\n      gt\n        /* \"#utility.yul\":8719:8836   */\n      iszero\n      tag_425\n      jumpi\n        /* \"#utility.yul\":8755:8834   */\n      tag_426\n      tag_254\n      jump\t// in\n    tag_426:\n        /* \"#utility.yul\":8719:8836   */\n    tag_425:\n        /* \"#utility.yul\":8868:8933   */\n      tag_427\n        /* \"#utility.yul\":8925:8932   */\n      dup7\n        /* \"#utility.yul\":8916:8922   */\n      dup3\n        /* \"#utility.yul\":8905:8914   */\n      dup8\n        /* \"#utility.yul\":8901:8923   */\n      add\n        /* \"#utility.yul\":8868:8933   */\n      tag_262\n      jump\t// in\n    tag_427:\n        /* \"#utility.yul\":8850:8933   */\n      swap4\n      pop\n      swap4\n      pop\n        /* \"#utility.yul\":8646:8943   */\n      pop\n        /* \"#utility.yul\":8982:8984   */\n      0x20\n        /* \"#utility.yul\":9008:9061   */\n      tag_428\n        /* \"#utility.yul\":9053:9060   */\n      dup7\n        /* \"#utility.yul\":9044:9050   */\n      dup3\n        /* \"#utility.yul\":9033:9042   */\n      dup8\n        /* \"#utility.yul\":9029:9051   */\n      add\n        /* \"#utility.yul\":9008:9061   */\n      tag_258\n      jump\t// in\n    tag_428:\n        /* \"#utility.yul\":8998:9061   */\n      swap2\n      pop\n        /* \"#utility.yul\":8953:9071   */\n      pop\n        /* \"#utility.yul\":8404:9078   */\n      swap3\n      pop\n      swap3\n      pop\n      swap3\n      jump\t// out\n        /* \"#utility.yul\":9084:9174   */\n    tag_285:\n        /* \"#utility.yul\":9118:9125   */\n      0x00\n        /* \"#utility.yul\":9161:9166   */\n      dup2\n        /* \"#utility.yul\":9154:9167   */\n      iszero\n        /* \"#utility.yul\":9147:9168   */\n      iszero\n        /* \"#utility.yul\":9136:9168   */\n      swap1\n      pop\n        /* \"#utility.yul\":9084:9174   */\n      swap2\n      swap1\n      pop\n      jump\t// out\n        /* \"#utility.yul\":9180:9289   */\n    tag_286:\n        /* \"#utility.yul\":9261:9282   */\n      tag_431\n        /* \"#utility.yul\":9276:9281   */\n      dup2\n        /* \"#utility.yul\":9261:9282   */\n      tag_285\n      jump\t// in\n    tag_431:\n        /* \"#utility.yul\":9256:9259   */\n      dup3\n        /* \"#utility.yul\":9249:9283   */\n      mstore\n        /* \"#utility.yul\":9180:9289   */\n      pop\n      pop\n      jump\t// out\n        /* \"#utility.yul\":9295:9505   */\n    tag_96:\n        /* \"#utility.yul\":9382:9386   */\n      0x00\n        /* \"#utility.yul\":9420:9422   */\n      0x20\n        /* \"#utility.yul\":9409:9418   */\n      dup3\n        /* \"#utility.yul\":9405:9423   */\n      add\n        /* \"#utility.yul\":9397:9423   */\n      swap1\n      pop\n        /* \"#utility.yul\":9433:9498   */\n      tag_433\n        /* \"#utility.yul\":9495:9496   */\n      0x00\n        /* \"#utility.yul\":9484:9493   */\n      dup4\n        /* \"#utility.yul\":9480:9497   */\n      add\n        /* \"#utility.yul\":9471:9477   */\n      dup5\n        /* \"#utility.yul\":9433:9498   */\n      tag_286\n      jump\t// in\n    tag_433:\n        /* \"#utility.yul\":9295:9505   */\n      swap3\n      swap2\n      pop\n      pop\n      jump\t// out\n        /* \"#utility.yul\":9511:9635   */\n    tag_287:\n        /* \"#utility.yul\":9588:9594   */\n      0x00\n        /* \"#utility.yul\":9622:9627   */\n      dup2\n        /* \"#utility.yul\":9616:9628   */\n      mload\n        /* \"#utility.yul\":9606:9628   */\n      swap1\n      pop\n        /* \"#utility.yul\":9511:9635   */\n      swap2\n      swap1\n      pop\n      jump\t// out\n        /* \"#utility.yul\":9641:9835   */\n    tag_288:\n        /* \"#utility.yul\":9750:9761   */\n      0x00\n        /* \"#utility.yul\":9784:9790   */\n      dup3\n        /* \"#utility.yul\":9779:9782   */\n      dup3\n        /* \"#utility.yul\":9772:9791   */\n      mstore\n        /* \"#utility.yul\":9824:9828   */\n      0x20\n        /* \"#utility.yul\":9819:9822   */\n      dup3\n        /* \"#utility.yul\":9815:9829   */\n      add\n        /* \"#utility.yul\":9800:9829   */\n      swap1\n      pop\n        /* \"#utility.yul\":9641:9835   */\n      swap3\n      swap2\n      pop\n      pop\n      jump\t// out\n        /* \"#utility.yul\":9841:9983   */\n    tag_289:\n        /* \"#utility.yul\":9918:9922   */\n      0x00\n        /* \"#utility.yul\":9941:9944   */\n      dup2\n        /* \"#utility.yul\":9933:9944   */\n      swap1\n      pop\n        /* \"#utility.yul\":9971:9975   */\n      0x20\n        /* \"#utility.yul\":9966:9969   */\n      dup3\n        /* \"#utility.yul\":9962:9976   */\n      add\n        /* \"#utility.yul\":9954:9976   */\n      swap1\n      pop\n        /* \"#utility.yul\":9841:9983   */\n      swap2\n      swap1\n      pop\n      jump\t// out\n        /* \"#utility.yul\":9989:10148   */\n    tag_290:\n        /* \"#utility.yul\":10063:10074   */\n      0x00\n        /* \"#utility.yul\":10097:10103   */\n      dup3\n        /* \"#utility.yul\":10092:10095   */\n      dup3\n        /* \"#utility.yul\":10085:10104   */\n      mstore\n        /* \"#utility.yul\":10137:10141   */\n      0x20\n        /* \"#utility.yul\":10132:10135   */\n      dup3\n        /* \"#utility.yul\":10128:10142   */\n      add\n        /* \"#utility.yul\":10113:10142   */\n      swap1\n      pop\n        /* \"#utility.yul\":9989:10148   */\n      swap3\n      swap2\n      pop\n      pop\n      jump\t// out\n        /* \"#utility.yul\":10154:10511   */\n    tag_291:\n        /* \"#utility.yul\":10232:10235   */\n      0x00\n        /* \"#utility.yul\":10260:10299   */\n      tag_439\n        /* \"#utility.yul\":10293:10298   */\n      dup3\n        /* \"#utility.yul\":10260:10299   */\n      tag_281\n      jump\t// in\n    tag_439:\n        /* \"#utility.yul\":10315:10376   */\n      tag_440\n        /* \"#utility.yul\":10369:10375   */\n      dup2\n        /* \"#utility.yul\":10364:10367   */\n      dup6\n        /* \"#utility.yul\":10315:10376   */\n      tag_290\n      jump\t// in\n    tag_440:\n        /* \"#utility.yul\":10308:10376   */\n      swap4\n      pop\n        /* \"#utility.yul\":10385:10450   */\n      tag_441\n        /* \"#utility.yul\":10443:10449   */\n      dup2\n        /* \"#utility.yul\":10438:10441   */\n      dup6\n        /* \"#utility.yul\":10431:10435   */\n      0x20\n        /* \"#utility.yul\":10424:10429   */\n      dup7\n        /* \"#utility.yul\":10420:10436   */\n      add\n        /* \"#utility.yul\":10385:10450   */\n      tag_283\n      jump\t// in\n    tag_441:\n        /* \"#utility.yul\":10475:10504   */\n      tag_442\n        /* \"#utility.yul\":10497:10503   */\n      dup2\n        /* \"#utility.yul\":10475:10504   */\n      tag_265\n      jump\t// in\n    tag_442:\n        /* \"#utility.yul\":10470:10473   */\n      dup5\n        /* \"#utility.yul\":10466:10505   */\n      add\n        /* \"#utility.yul\":10459:10505   */\n      swap2\n      pop\n        /* \"#utility.yul\":10236:10511   */\n      pop\n        /* \"#utility.yul\":10154:10511   */\n      swap3\n      swap2\n      pop\n      pop\n      jump\t// out\n        /* \"#utility.yul\":10517:10713   */\n    tag_292:\n        /* \"#utility.yul\":10606:10616   */\n      0x00\n        /* \"#utility.yul\":10641:10707   */\n      tag_444\n        /* \"#utility.yul\":10703:10706   */\n      dup4\n        /* \"#utility.yul\":10695:10701   */\n      dup4\n        /* \"#utility.yul\":10641:10707   */\n      tag_291\n      jump\t// in\n    tag_444:\n        /* \"#utility.yul\":10627:10707   */\n      swap1\n      pop\n        /* \"#utility.yul\":10517:10713   */\n      swap3\n      swap2\n      pop\n      pop\n      jump\t// out\n        /* \"#utility.yul\":10719:10842   */\n    tag_293:\n        /* \"#utility.yul\":10799:10803   */\n      0x00\n        /* \"#utility.yul\":10831:10835   */\n      0x20\n        /* \"#utility.yul\":10826:10829   */\n      dup3\n        /* \"#utility.yul\":10822:10836   */\n      add\n        /* \"#utility.yul\":10814:10836   */\n      swap1\n      pop\n        /* \"#utility.yul\":10719:10842   */\n      swap2\n      swap1\n      pop\n      jump\t// out\n        /* \"#utility.yul\":10876:11867   */\n    tag_294:\n        /* \"#utility.yul\":11015:11018   */\n      0x00\n        /* \"#utility.yul\":11044:11108   */\n      tag_447\n        /* \"#utility.yul\":11102:11107   */\n      dup3\n        /* \"#utility.yul\":11044:11108   */\n      tag_287\n      jump\t// in\n    tag_447:\n        /* \"#utility.yul\":11124:11220   */\n      tag_448\n        /* \"#utility.yul\":11213:11219   */\n      dup2\n        /* \"#utility.yul\":11208:11211   */\n      dup6\n        /* \"#utility.yul\":11124:11220   */\n      tag_288\n      jump\t// in\n    tag_448:\n        /* \"#utility.yul\":11117:11220   */\n      swap4\n      pop\n        /* \"#utility.yul\":11246:11249   */\n      dup4\n        /* \"#utility.yul\":11291:11295   */\n      0x20\n        /* \"#utility.yul\":11283:11289   */\n      dup3\n        /* \"#utility.yul\":11279:11296   */\n      mul\n        /* \"#utility.yul\":11274:11277   */\n      dup6\n        /* \"#utility.yul\":11270:11297   */\n      add\n        /* \"#utility.yul\":11321:11387   */\n      tag_449\n        /* \"#utility.yul\":11381:11386   */\n      dup6\n        /* \"#utility.yul\":11321:11387   */\n      tag_289\n      jump\t// in\n    tag_449:\n        /* \"#utility.yul\":11410:11417   */\n      dup1\n        /* \"#utility.yul\":11441:11442   */\n      0x00\n        /* \"#utility.yul\":11426:11822   */\n    tag_450:\n        /* \"#utility.yul\":11451:11457   */\n      dup6\n        /* \"#utility.yul\":11448:11449   */\n      dup2\n        /* \"#utility.yul\":11445:11458   */\n      lt\n        /* \"#utility.yul\":11426:11822   */\n      iszero\n      tag_452\n      jumpi\n        /* \"#utility.yul\":11522:11531   */\n      dup5\n        /* \"#utility.yul\":11516:11520   */\n      dup5\n        /* \"#utility.yul\":11512:11532   */\n      sub\n        /* \"#utility.yul\":11507:11510   */\n      dup10\n        /* \"#utility.yul\":11500:11533   */\n      mstore\n        /* \"#utility.yul\":11573:11579   */\n      dup2\n        /* \"#utility.yul\":11567:11580   */\n      mload\n        /* \"#utility.yul\":11601:11685   */\n      tag_453\n        /* \"#utility.yul\":11680:11684   */\n      dup6\n        /* \"#utility.yul\":11665:11678   */\n      dup3\n        /* \"#utility.yul\":11601:11685   */\n      tag_292\n      jump\t// in\n    tag_453:\n        /* \"#utility.yul\":11593:11685   */\n      swap5\n      pop\n        /* \"#utility.yul\":11708:11778   */\n      tag_454\n        /* \"#utility.yul\":11771:11777   */\n      dup4\n        /* \"#utility.yul\":11708:11778   */\n      tag_293\n      jump\t// in\n    tag_454:\n        /* \"#utility.yul\":11698:11778   */\n      swap3\n      pop\n        /* \"#utility.yul\":11807:11811   */\n      0x20\n        /* \"#utility.yul\":11802:11805   */\n      dup11\n        /* \"#utility.yul\":11798:11812   */\n      add\n        /* \"#utility.yul\":11791:11812   */\n      swap10\n      pop\n        /* \"#utility.yul\":11486:11822   */\n      pop\n        /* \"#utility.yul\":11473:11474   */\n      0x01\n        /* \"#utility.yul\":11470:11471   */\n      dup2\n        /* \"#utility.yul\":11466:11475   */\n      add\n        /* \"#utility.yul\":11461:11475   */\n      swap1\n      pop\n        /* \"#utility.yul\":11426:11822   */\n      jump(tag_450)\n    tag_452:\n        /* \"#utility.yul\":11430:11444   */\n      pop\n        /* \"#utility.yul\":11838:11842   */\n      dup3\n        /* \"#utility.yul\":11831:11842   */\n      swap8\n      pop\n        /* \"#utility.yul\":11858:11861   */\n      dup8\n        /* \"#utility.yul\":11851:11861   */\n      swap6\n      pop\n        /* \"#utility.yul\":11020:11867   */\n      pop\n      pop\n      pop\n      pop\n      pop\n        /* \"#utility.yul\":10876:11867   */\n      swap3\n      swap2\n      pop\n      pop\n      jump\t// out\n        /* \"#utility.yul\":11873:12286   */\n    tag_118:\n        /* \"#utility.yul\":12036:12040   */\n      0x00\n        /* \"#utility.yul\":12074:12076   */\n      0x20\n        /* \"#utility.yul\":12063:12072   */\n      dup3\n        /* \"#utility.yul\":12059:12077   */\n      add\n        /* \"#utility.yul\":12051:12077   */\n      swap1\n      pop\n        /* \"#utility.yul\":12123:12132   */\n      dup2\n        /* \"#utility.yul\":12117:12121   */\n      dup2\n        /* \"#utility.yul\":12113:12133   */\n      sub\n        /* \"#utility.yul\":12109:12110   */\n      0x00\n        /* \"#utility.yul\":12098:12107   */\n      dup4\n        /* \"#utility.yul\":12094:12111   */\n      add\n        /* \"#utility.yul\":12087:12134   */\n      mstore\n        /* \"#utility.yul\":12151:12279   */\n      tag_456\n        /* \"#utility.yul\":12274:12278   */\n      dup2\n        /* \"#utility.yul\":12265:12271   */\n      dup5\n        /* \"#utility.yul\":12151:12279   */\n      tag_294\n      jump\t// in\n    tag_456:\n        /* \"#utility.yul\":12143:12279   */\n      swap1\n      pop\n        /* \"#utility.yul\":11873:12286   */\n      swap3\n      swap2\n      pop\n      pop\n      jump\t// out\n        /* \"#utility.yul\":12292:12612   */\n    tag_134:\n        /* \"#utility.yul\":12407:12411   */\n      0x00\n        /* \"#utility.yul\":12445:12447   */\n      0x40\n        /* \"#utility.yul\":12434:12443   */\n      dup3\n        /* \"#utility.yul\":12430:12448   */\n      add\n        /* \"#utility.yul\":12422:12448   */\n      swap1\n      pop\n        /* \"#utility.yul\":12458:12529   */\n      tag_458\n        /* \"#utility.yul\":12526:12527   */\n      0x00\n        /* \"#utility.yul\":12515:12524   */\n      dup4\n        /* \"#utility.yul\":12511:12528   */\n      add\n        /* \"#utility.yul\":12502:12508   */\n      dup6\n        /* \"#utility.yul\":12458:12529   */\n      tag_263\n      jump\t// in\n    tag_458:\n        /* \"#utility.yul\":12539:12605   */\n      tag_459\n        /* \"#utility.yul\":12601:12603   */\n      0x20\n        /* \"#utility.yul\":12590:12599   */\n      dup4\n        /* \"#utility.yul\":12586:12604   */\n      add\n        /* \"#utility.yul\":12577:12583   */\n      dup5\n        /* \"#utility.yul\":12539:12605   */\n      tag_286\n      jump\t// in\n    tag_459:\n        /* \"#utility.yul\":12292:12612   */\n      swap4\n      swap3\n      pop\n      pop\n      pop\n      jump\t// out\n        /* \"#utility.yul\":12618:12766   */\n    tag_295:\n        /* \"#utility.yul\":12720:12731   */\n      0x00\n        /* \"#utility.yul\":12757:12760   */\n      dup2\n        /* \"#utility.yul\":12742:12760   */\n      swap1\n      pop\n        /* \"#utility.yul\":12618:12766   */\n      swap3\n      swap2\n      pop\n      pop\n      jump\t// out\n        /* \"#utility.yul\":12796:13126   */\n    tag_296:\n        /* \"#utility.yul\":12912:12915   */\n      0x00\n        /* \"#utility.yul\":12933:13022   */\n      tag_462\n        /* \"#utility.yul\":13015:13021   */\n      dup4\n        /* \"#utility.yul\":13010:13013   */\n      dup6\n        /* \"#utility.yul\":12933:13022   */\n      tag_295\n      jump\t// in\n    tag_462:\n        /* \"#utility.yul\":12926:13022   */\n      swap4\n      pop\n        /* \"#utility.yul\":13032:13088   */\n      tag_463\n        /* \"#utility.yul\":13081:13087   */\n      dup4\n        /* \"#utility.yul\":13076:13079   */\n      dup6\n        /* \"#utility.yul\":13069:13074   */\n      dup5\n        /* \"#utility.yul\":13032:13088   */\n      tag_270\n      jump\t// in\n    tag_463:\n        /* \"#utility.yul\":13113:13119   */\n      dup3\n        /* \"#utility.yul\":13108:13111   */\n      dup5\n        /* \"#utility.yul\":13104:13120   */\n      add\n        /* \"#utility.yul\":13097:13120   */\n      swap1\n      pop\n        /* \"#utility.yul\":12796:13126   */\n      swap4\n      swap3\n      pop\n      pop\n      pop\n      jump\t// out\n        /* \"#utility.yul\":13132:13427   */\n    tag_137:\n        /* \"#utility.yul\":13274:13277   */\n      0x00\n        /* \"#utility.yul\":13296:13401   */\n      tag_465\n        /* \"#utility.yul\":13397:13400   */\n      dup3\n        /* \"#utility.yul\":13388:13394   */\n      dup5\n        /* \"#utility.yul\":13380:13386   */\n      dup7\n        /* \"#utility.yul\":13296:13401   */\n      tag_296\n      jump\t// in\n    tag_465:\n        /* \"#utility.yul\":13289:13401   */\n      swap2\n      pop\n        /* \"#utility.yul\":13418:13421   */\n      dup2\n        /* \"#utility.yul\":13411:13421   */\n      swap1\n      pop\n        /* \"#utility.yul\":13132:13427   */\n      swap4\n      swap3\n      pop\n      pop\n      pop\n      jump\t// out\n        /* \"#utility.yul\":13433:13601   */\n    tag_297:\n        /* \"#utility.yul\":13516:13527   */\n      0x00\n        /* \"#utility.yul\":13550:13556   */\n      dup3\n        /* \"#utility.yul\":13545:13548   */\n      dup3\n        /* \"#utility.yul\":13538:13557   */\n      mstore\n        /* \"#utility.yul\":13590:13594   */\n      0x20\n        /* \"#utility.yul\":13585:13588   */\n      dup3\n        /* \"#utility.yul\":13581:13595   */\n      add\n        /* \"#utility.yul\":13566:13595   */\n      swap1\n      pop\n        /* \"#utility.yul\":13433:13601   */\n      swap3\n      swap2\n      pop\n      pop\n      jump\t// out\n        /* \"#utility.yul\":13607:13721   */\n    tag_298:\n      pop\n      jump\t// out\n        /* \"#utility.yul\":13727:14089   */\n    tag_299:\n        /* \"#utility.yul\":13868:13871   */\n      0x00\n        /* \"#utility.yul\":13889:13954   */\n      tag_469\n        /* \"#utility.yul\":13952:13953   */\n      0x00\n        /* \"#utility.yul\":13947:13950   */\n      dup4\n        /* \"#utility.yul\":13889:13954   */\n      tag_297\n      jump\t// in\n    tag_469:\n        /* \"#utility.yul\":13882:13954   */\n      swap2\n      pop\n        /* \"#utility.yul\":13963:14056   */\n      tag_470\n        /* \"#utility.yul\":14052:14055   */\n      dup3\n        /* \"#utility.yul\":13963:14056   */\n      tag_298\n      jump\t// in\n    tag_470:\n        /* \"#utility.yul\":14081:14082   */\n      0x00\n        /* \"#utility.yul\":14076:14079   */\n      dup3\n        /* \"#utility.yul\":14072:14083   */\n      add\n        /* \"#utility.yul\":14065:14083   */\n      swap1\n      pop\n        /* \"#utility.yul\":13727:14089   */\n      swap2\n      swap1\n      pop\n      jump\t// out\n        /* \"#utility.yul\":14095:14622   */\n    tag_141:\n        /* \"#utility.yul\":14288:14292   */\n      0x00\n        /* \"#utility.yul\":14326:14328   */\n      0x40\n        /* \"#utility.yul\":14315:14324   */\n      dup3\n        /* \"#utility.yul\":14311:14329   */\n      add\n        /* \"#utility.yul\":14303:14329   */\n      swap1\n      pop\n        /* \"#utility.yul\":14339:14410   */\n      tag_472\n        /* \"#utility.yul\":14407:14408   */\n      0x00\n        /* \"#utility.yul\":14396:14405   */\n      dup4\n        /* \"#utility.yul\":14392:14409   */\n      add\n        /* \"#utility.yul\":14383:14389   */\n      dup5\n        /* \"#utility.yul\":14339:14410   */\n      tag_263\n      jump\t// in\n    tag_472:\n        /* \"#utility.yul\":14457:14466   */\n      dup2\n        /* \"#utility.yul\":14451:14455   */\n      dup2\n        /* \"#utility.yul\":14447:14467   */\n      sub\n        /* \"#utility.yul\":14442:14444   */\n      0x20\n        /* \"#utility.yul\":14431:14440   */\n      dup4\n        /* \"#utility.yul\":14427:14445   */\n      add\n        /* \"#utility.yul\":14420:14468   */\n      mstore\n        /* \"#utility.yul\":14485:14615   */\n      tag_473\n        /* \"#utility.yul\":14610:14614   */\n      dup2\n        /* \"#utility.yul\":14485:14615   */\n      tag_299\n      jump\t// in\n    tag_473:\n        /* \"#utility.yul\":14477:14615   */\n      swap1\n      pop\n        /* \"#utility.yul\":14095:14622   */\n      swap3\n      swap2\n      pop\n      pop\n      jump\t// out\n        /* \"#utility.yul\":14652:14969   */\n    tag_300:\n        /* \"#utility.yul\":14750:14753   */\n      0x00\n        /* \"#utility.yul\":14771:14842   */\n      tag_475\n        /* \"#utility.yul\":14835:14841   */\n      dup4\n        /* \"#utility.yul\":14830:14833   */\n      dup6\n        /* \"#utility.yul\":14771:14842   */\n      tag_282\n      jump\t// in\n    tag_475:\n        /* \"#utility.yul\":14764:14842   */\n      swap4\n      pop\n        /* \"#utility.yul\":14852:14908   */\n      tag_476\n        /* \"#utility.yul\":14901:14907   */\n      dup4\n        /* \"#utility.yul\":14896:14899   */\n      dup6\n        /* \"#utility.yul\":14889:14894   */\n      dup5\n        /* \"#utility.yul\":14852:14908   */\n      tag_270\n      jump\t// in\n    tag_476:\n        /* \"#utility.yul\":14933:14962   */\n      tag_477\n        /* \"#utility.yul\":14955:14961   */\n      dup4\n        /* \"#utility.yul\":14933:14962   */\n      tag_265\n      jump\t// in\n    tag_477:\n        /* \"#utility.yul\":14928:14931   */\n      dup5\n        /* \"#utility.yul\":14924:14963   */\n      add\n        /* \"#utility.yul\":14917:14963   */\n      swap1\n      pop\n        /* \"#utility.yul\":14652:14969   */\n      swap4\n      swap3\n      pop\n      pop\n      pop\n      jump\t// out\n        /* \"#utility.yul\":14975:15418   */\n    tag_144:\n        /* \"#utility.yul\":15126:15130   */\n      0x00\n        /* \"#utility.yul\":15164:15166   */\n      0x40\n        /* \"#utility.yul\":15153:15162   */\n      dup3\n        /* \"#utility.yul\":15149:15167   */\n      add\n        /* \"#utility.yul\":15141:15167   */\n      swap1\n      pop\n        /* \"#utility.yul\":15213:15222   */\n      dup2\n        /* \"#utility.yul\":15207:15211   */\n      dup2\n        /* \"#utility.yul\":15203:15223   */\n      sub\n        /* \"#utility.yul\":15199:15200   */\n      0x00\n        /* \"#utility.yul\":15188:15197   */\n      dup4\n        /* \"#utility.yul\":15184:15201   */\n      add\n        /* \"#utility.yul\":15177:15224   */\n      mstore\n        /* \"#utility.yul\":15241:15329   */\n      tag_479\n        /* \"#utility.yul\":15324:15328   */\n      dup2\n        /* \"#utility.yul\":15315:15321   */\n      dup6\n        /* \"#utility.yul\":15307:15313   */\n      dup8\n        /* \"#utility.yul\":15241:15329   */\n      tag_300\n      jump\t// in\n    tag_479:\n        /* \"#utility.yul\":15233:15329   */\n      swap1\n      pop\n        /* \"#utility.yul\":15339:15411   */\n      tag_480\n        /* \"#utility.yul\":15407:15409   */\n      0x20\n        /* \"#utility.yul\":15396:15405   */\n      dup4\n        /* \"#utility.yul\":15392:15410   */\n      add\n        /* \"#utility.yul\":15383:15389   */\n      dup5\n        /* \"#utility.yul\":15339:15411   */\n      tag_263\n      jump\t// in\n    tag_480:\n        /* \"#utility.yul\":14975:15418   */\n      swap5\n      swap4\n      pop\n      pop\n      pop\n      pop\n      jump\t// out\n        /* \"#utility.yul\":15424:15855   */\n    tag_152:\n        /* \"#utility.yul\":15569:15573   */\n      0x00\n        /* \"#utility.yul\":15607:15609   */\n      0x40\n        /* \"#utility.yul\":15596:15605   */\n      dup3\n        /* \"#utility.yul\":15592:15610   */\n      add\n        /* \"#utility.yul\":15584:15610   */\n      swap1\n      pop\n        /* \"#utility.yul\":15656:15665   */\n      dup2\n        /* \"#utility.yul\":15650:15654   */\n      dup2\n        /* \"#utility.yul\":15646:15666   */\n      sub\n        /* \"#utility.yul\":15642:15643   */\n      0x00\n        /* \"#utility.yul\":15631:15640   */\n      dup4\n        /* \"#utility.yul\":15627:15644   */\n      add\n        /* \"#utility.yul\":15620:15667   */\n      mstore\n        /* \"#utility.yul\":15684:15772   */\n      tag_482\n        /* \"#utility.yul\":15767:15771   */\n      dup2\n        /* \"#utility.yul\":15758:15764   */\n      dup6\n        /* \"#utility.yul\":15750:15756   */\n      dup8\n        /* \"#utility.yul\":15684:15772   */\n      tag_300\n      jump\t// in\n    tag_482:\n        /* \"#utility.yul\":15676:15772   */\n      swap1\n      pop\n        /* \"#utility.yul\":15782:15848   */\n      tag_483\n        /* \"#utility.yul\":15844:15846   */\n      0x20\n        /* \"#utility.yul\":15833:15842   */\n      dup4\n        /* \"#utility.yul\":15829:15847   */\n      add\n        /* \"#utility.yul\":15820:15826   */\n      dup5\n        /* \"#utility.yul\":15782:15848   */\n      tag_286\n      jump\t// in\n    tag_483:\n        /* \"#utility.yul\":15424:15855   */\n      swap5\n      swap4\n      pop\n      pop\n      pop\n      pop\n      jump\t// out\n        /* \"#utility.yul\":15861:16041   */\n    tag_301:\n        /* \"#utility.yul\":15909:15986   */\n      0x4e487b7100000000000000000000000000000000000000000000000000000000\n        /* \"#utility.yul\":15906:15907   */\n      0x00\n        /* \"#utility.yul\":15899:15987   */\n      mstore\n        /* \"#utility.yul\":16006:16010   */\n      0x22\n        /* \"#utility.yul\":16003:16004   */\n      0x04\n        /* \"#utility.yul\":15996:16011   */\n      mstore\n        /* \"#utility.yul\":16030:16034   */\n      0x24\n        /* \"#utility.yul\":16027:16028   */\n      0x00\n        /* \"#utility.yul\":16020:16035   */\n      revert\n        /* \"#utility.yul\":16047:16367   */\n    tag_166:\n        /* \"#utility.yul\":16091:16097   */\n      0x00\n        /* \"#utility.yul\":16128:16129   */\n      0x02\n        /* \"#utility.yul\":16122:16126   */\n      dup3\n        /* \"#utility.yul\":16118:16130   */\n      div\n        /* \"#utility.yul\":16108:16130   */\n      swap1\n      pop\n        /* \"#utility.yul\":16175:16176   */\n      0x01\n        /* \"#utility.yul\":16169:16173   */\n      dup3\n        /* \"#utility.yul\":16165:16177   */\n      and\n        /* \"#utility.yul\":16196:16214   */\n      dup1\n        /* \"#utility.yul\":16186:16267   */\n      tag_486\n      jumpi\n        /* \"#utility.yul\":16252:16256   */\n      0x7f\n        /* \"#utility.yul\":16244:16250   */\n      dup3\n        /* \"#utility.yul\":16240:16257   */\n      and\n        /* \"#utility.yul\":16230:16257   */\n      swap2\n      pop\n        /* \"#utility.yul\":16186:16267   */\n    tag_486:\n        /* \"#utility.yul\":16314:16316   */\n      0x20\n        /* \"#utility.yul\":16306:16312   */\n      dup3\n        /* \"#utility.yul\":16303:16317   */\n      lt\n        /* \"#utility.yul\":16283:16301   */\n      dup2\n        /* \"#utility.yul\":16280:16318   */\n      sub\n        /* \"#utility.yul\":16277:16361   */\n      tag_487\n      jumpi\n        /* \"#utility.yul\":16333:16351   */\n      tag_488\n      tag_301\n      jump\t// in\n    tag_488:\n        /* \"#utility.yul\":16277:16361   */\n    tag_487:\n        /* \"#utility.yul\":16098:16367   */\n      pop\n        /* \"#utility.yul\":16047:16367   */\n      swap2\n      swap1\n      pop\n      jump\t// out\n        /* \"#utility.yul\":16373:16516   */\n    tag_302:\n        /* \"#utility.yul\":16430:16435   */\n      0x00\n        /* \"#utility.yul\":16461:16467   */\n      dup2\n        /* \"#utility.yul\":16455:16468   */\n      mload\n        /* \"#utility.yul\":16446:16468   */\n      swap1\n      pop\n        /* \"#utility.yul\":16477:16510   */\n      tag_490\n        /* \"#utility.yul\":16504:16509   */\n      dup2\n        /* \"#utility.yul\":16477:16510   */\n      tag_257\n      jump\t// in\n    tag_490:\n        /* \"#utility.yul\":16373:16516   */\n      swap3\n      swap2\n      pop\n      pop\n      jump\t// out\n        /* \"#utility.yul\":16522:16873   */\n    tag_185:\n        /* \"#utility.yul\":16592:16598   */\n      0x00\n        /* \"#utility.yul\":16641:16643   */\n      0x20\n        /* \"#utility.yul\":16629:16638   */\n      dup3\n        /* \"#utility.yul\":16620:16627   */\n      dup5\n        /* \"#utility.yul\":16616:16639   */\n      sub\n        /* \"#utility.yul\":16612:16644   */\n      slt\n        /* \"#utility.yul\":16609:16728   */\n      iszero\n      tag_492\n      jumpi\n        /* \"#utility.yul\":16647:16726   */\n      tag_493\n      tag_253\n      jump\t// in\n    tag_493:\n        /* \"#utility.yul\":16609:16728   */\n    tag_492:\n        /* \"#utility.yul\":16767:16768   */\n      0x00\n        /* \"#utility.yul\":16792:16856   */\n      tag_494\n        /* \"#utility.yul\":16848:16855   */\n      dup5\n        /* \"#utility.yul\":16839:16845   */\n      dup3\n        /* \"#utility.yul\":16828:16837   */\n      dup6\n        /* \"#utility.yul\":16824:16846   */\n      add\n        /* \"#utility.yul\":16792:16856   */\n      tag_302\n      jump\t// in\n    tag_494:\n        /* \"#utility.yul\":16782:16856   */\n      swap2\n      pop\n        /* \"#utility.yul\":16738:16866   */\n      pop\n        /* \"#utility.yul\":16522:16873   */\n      swap3\n      swap2\n      pop\n      pop\n      jump\t// out\n        /* \"#utility.yul\":16879:16976   */\n    tag_303:\n        /* \"#utility.yul\":16938:16944   */\n      0x00\n        /* \"#utility.yul\":16966:16969   */\n      dup3\n        /* \"#utility.yul\":16956:16969   */\n      swap1\n      pop\n        /* \"#utility.yul\":16879:16976   */\n      swap3\n      swap2\n      pop\n      pop\n      jump\t// out\n        /* \"#utility.yul\":16982:17123   */\n    tag_304:\n        /* \"#utility.yul\":17031:17035   */\n      0x00\n        /* \"#utility.yul\":17054:17057   */\n      dup2\n        /* \"#utility.yul\":17046:17057   */\n      swap1\n      pop\n        /* \"#utility.yul\":17077:17080   */\n      dup2\n        /* \"#utility.yul\":17074:17075   */\n      0x00\n        /* \"#utility.yul\":17067:17081   */\n      mstore\n        /* \"#utility.yul\":17111:17115   */\n      0x20\n        /* \"#utility.yul\":17108:17109   */\n      0x00\n        /* \"#utility.yul\":17098:17116   */\n      keccak256\n        /* \"#utility.yul\":17090:17116   */\n      swap1\n      pop\n        /* \"#utility.yul\":16982:17123   */\n      swap2\n      swap1\n      pop\n      jump\t// out\n        /* \"#utility.yul\":17129:17222   */\n    tag_305:\n        /* \"#utility.yul\":17166:17172   */\n      0x00\n        /* \"#utility.yul\":17213:17215   */\n      0x20\n        /* \"#utility.yul\":17208:17210   */\n      0x1f\n        /* \"#utility.yul\":17201:17206   */\n      dup4\n        /* \"#utility.yul\":17197:17211   */\n      add\n        /* \"#utility.yul\":17193:17216   */\n      div\n        /* \"#utility.yul\":17183:17216   */\n      swap1\n      pop\n        /* \"#utility.yul\":17129:17222   */\n      swap2\n      swap1\n      pop\n      jump\t// out\n        /* \"#utility.yul\":17228:17335   */\n    tag_306:\n        /* \"#utility.yul\":17272:17280   */\n      0x00\n        /* \"#utility.yul\":17322:17327   */\n      dup3\n        /* \"#utility.yul\":17316:17320   */\n      dup3\n        /* \"#utility.yul\":17312:17328   */\n      shl\n        /* \"#utility.yul\":17291:17328   */\n      swap1\n      pop\n        /* \"#utility.yul\":17228:17335   */\n      swap3\n      swap2\n      pop\n      pop\n      jump\t// out\n        /* \"#utility.yul\":17341:17734   */\n    tag_307:\n        /* \"#utility.yul\":17410:17416   */\n      0x00\n        /* \"#utility.yul\":17460:17461   */\n      0x08\n        /* \"#utility.yul\":17448:17458   */\n      dup4\n        /* \"#utility.yul\":17444:17462   */\n      mul\n        /* \"#utility.yul\":17483:17580   */\n      tag_500\n        /* \"#utility.yul\":17513:17579   */\n      0xffffffffffffffffffffffffffffffffffffffffffffffffffffffffffffffff\n        /* \"#utility.yul\":17502:17511   */\n      dup3\n        /* \"#utility.yul\":17483:17580   */\n      tag_306\n      jump\t// in\n    tag_500:\n        /* \"#utility.yul\":17601:17640   */\n      tag_501\n        /* \"#utility.yul\":17631:17639   */\n      dup7\n        /* \"#utility.yul\":17620:17629   */\n      dup4\n        /* \"#utility.yul\":17601:17640   */\n      tag_306\n      jump\t// in\n    tag_501:\n        /* \"#utility.yul\":17589:17640   */\n      swap6\n      pop\n        /* \"#utility.yul\":17673:17677   */\n      dup1\n        /* \"#utility.yul\":17669:17678   */\n      not\n        /* \"#utility.yul\":17662:17667   */\n      dup5\n        /* \"#utility.yul\":17658:17679   */\n      and\n        /* \"#utility.yul\":17649:17679   */\n      swap4\n      pop\n        /* \"#utility.yul\":17722:17726   */\n      dup1\n        /* \"#utility.yul\":17712:17720   */\n      dup7\n        /* \"#utility.yul\":17708:17727   */\n      and\n        /* \"#utility.yul\":17701:17706   */\n      dup5\n        /* \"#utility.yul\":17698:17728   */\n      or\n        /* \"#utility.yul\":17688:17728   */\n      swap3\n      pop\n        /* \"#utility.yul\":17417:17734   */\n      pop\n      pop\n        /* \"#utility.yul\":17341:17734   */\n      swap4\n      swap3\n      pop\n      pop\n      pop\n      jump\t// out\n        /* \"#utility.yul\":17740:17882   */\n    tag_308:\n        /* \"#utility.yul\":17790:17799   */\n      0x00\n        /* \"#utility.yul\":17823:17876   */\n      tag_503\n        /* \"#utility.yul\":17841:17875   */\n      tag_504\n        /* \"#utility.yul\":17850:17874   */\n      tag_505\n        /* \"#utility.yul\":17868:17873   */\n      dup5\n        /* \"#utility.yul\":17850:17874   */\n      tag_278\n      jump\t// in\n    tag_505:\n        /* \"#utility.yul\":17841:17875   */\n      tag_273\n      jump\t// in\n    tag_504:\n        /* \"#utility.yul\":17823:17876   */\n      tag_278\n      jump\t// in\n    tag_503:\n        /* \"#utility.yul\":17810:17876   */\n      swap1\n      pop\n        /* \"#utility.yul\":17740:17882   */\n      swap2\n      swap1\n      pop\n      jump\t// out\n        /* \"#utility.yul\":17888:17963   */\n    tag_309:\n        /* \"#utility.yul\":17931:17934   */\n      0x00\n        /* \"#utility.yul\":17952:17957   */\n      dup2\n        /* \"#utility.yul\":17945:17957   */\n      swap1\n      pop\n        /* \"#utility.yul\":17888:17963   */\n      swap2\n      swap1\n      pop\n      jump\t// out\n        /* \"#utility.yul\":17969:18238   */\n    tag_310:\n        /* \"#utility.yul\":18079:18118   */\n      tag_508\n        /* \"#utility.yul\":18110:18117   */\n      dup4\n        /* \"#utility.yul\":18079:18118   */\n      tag_308\n      jump\t// in\n    tag_508:\n        /* \"#utility.yul\":18140:18231   */\n      tag_509\n        /* \"#utility.yul\":18189:18230   */\n      tag_510\n        /* \"#utility.yul\":18213:18229   */\n      dup3\n        /* \"#utility.yul\":18189:18230   */\n      tag_309\n      jump\t// in\n    tag_510:\n        /* \"#utility.yul\":18181:18187   */\n      dup5\n        /* \"#utility.yul\":18174:18178   */\n      dup5\n        /* \"#utility.yul\":18168:18179   */\n      sload\n        /* \"#utility.yul\":18140:18231   */\n      tag_307\n      jump\t// in\n    tag_509:\n        /* \"#utility.yul\":18134:18138   */\n      dup3\n        /* \"#utility.yul\":18127:18232   */\n      sstore\n        /* \"#utility.yul\":18045:18238   */\n      pop\n        /* \"#utility.yul\":17969:18238   */\n      pop\n      pop\n      pop\n      jump\t// out\n        /* \"#utility.yul\":18244:18317   */\n    tag_311:\n        /* \"#utility.yul\":18289:18292   */\n      0x00\n        /* \"#utility.yul\":18244:18317   */\n      swap1\n      jump\t// out\n        /* \"#utility.yul\":18323:18512   */\n    tag_312:\n        /* \"#utility.yul\":18400:18432   */\n      tag_513\n      tag_311\n      jump\t// in\n    tag_513:\n        /* \"#utility.yul\":18441:18506   */\n      tag_514\n        /* \"#utility.yul\":18499:18505   */\n      dup2\n        /* \"#utility.yul\":18491:18497   */\n      dup5\n        /* \"#utility.yul\":18485:18489   */\n      dup5\n        /* \"#utility.yul\":18441:18506   */\n      tag_310\n      jump\t// in\n    tag_514:\n        /* \"#utility.yul\":18376:18512   */\n      pop\n        /* \"#utility.yul\":18323:18512   */\n      pop\n      pop\n      jump\t// out\n        /* \"#utility.yul\":18518:18704   */\n    tag_313:\n        /* \"#utility.yul\":18578:18698   */\n    tag_516:\n        /* \"#utility.yul\":18595:18598   */\n      dup2\n        /* \"#utility.yul\":18588:18593   */\n      dup2\n        /* \"#utility.yul\":18585:18599   */\n      lt\n        /* \"#utility.yul\":18578:18698   */\n      iszero\n      tag_518\n      jumpi\n        /* \"#utility.yul\":18649:18688   */\n      tag_519\n        /* \"#utility.yul\":18686:18687   */\n      0x00\n        /* \"#utility.yul\":18679:18684   */\n      dup3\n        /* \"#utility.yul\":18649:18688   */\n      tag_312\n      jump\t// in\n    tag_519:\n        /* \"#utility.yul\":18622:18623   */\n      0x01\n        /* \"#utility.yul\":18615:18620   */\n      dup2\n        /* \"#utility.yul\":18611:18624   */\n      add\n        /* \"#utility.yul\":18602:18624   */\n      swap1\n      pop\n        /* \"#utility.yul\":18578:18698   */\n      jump(tag_516)\n    tag_518:\n        /* \"#utility.yul\":18518:18704   */\n      pop\n      pop\n      jump\t// out\n        /* \"#utility.yul\":18710:19253   */\n    tag_314:\n        /* \"#utility.yul\":18811:18813   */\n      0x1f\n        /* \"#utility.yul\":18806:18809   */\n      dup3\n        /* \"#utility.yul\":18803:18814   */\n      gt\n        /* \"#utility.yul\":18800:19246   */\n      iszero\n      tag_521\n      jumpi\n        /* \"#utility.yul\":18845:18883   */\n      tag_522\n        /* \"#utility.yul\":18877:18882   */\n      dup2\n        /* \"#utility.yul\":18845:18883   */\n      tag_304\n      jump\t// in\n    tag_522:\n        /* \"#utility.yul\":18929:18958   */\n      tag_523\n        /* \"#utility.yul\":18947:18957   */\n      dup5\n        /* \"#utility.yul\":18929:18958   */\n      tag_305\n      jump\t// in\n    tag_523:\n        /* \"#utility.yul\":18919:18927   */\n      dup2\n        /* \"#utility.yul\":18915:18959   */\n      add\n        /* \"#utility.yul\":19112:19114   */\n      0x20\n        /* \"#utility.yul\":19100:19110   */\n      dup6\n        /* \"#utility.yul\":19097:19115   */\n      lt\n        /* \"#utility.yul\":19094:19143   */\n      iszero\n      tag_524\n      jumpi\n        /* \"#utility.yul\":19133:19141   */\n      dup2\n        /* \"#utility.yul\":19118:19141   */\n      swap1\n      pop\n        /* \"#utility.yul\":19094:19143   */\n    tag_524:\n        /* \"#utility.yul\":19156:19236   */\n      tag_525\n        /* \"#utility.yul\":19212:19234   */\n      tag_526\n        /* \"#utility.yul\":19230:19233   */\n      dup6\n        /* \"#utility.yul\":19212:19234   */\n      tag_305\n      jump\t// in\n    tag_526:\n        /* \"#utility.yul\":19202:19210   */\n      dup4\n        /* \"#utility.yul\":19198:19235   */\n      add\n        /* \"#utility.yul\":19185:19196   */\n      dup3\n        /* \"#utility.yul\":19156:19236   */\n      tag_313\n      jump\t// in\n    tag_525:\n        /* \"#utility.yul\":18815:19246   */\n      pop\n      pop\n        /* \"#utility.yul\":18800:19246   */\n    tag_521:\n        /* \"#utility.yul\":18710:19253   */\n      pop\n      pop\n      pop\n      jump\t// out\n        /* \"#utility.yul\":19259:19376   */\n    tag_315:\n        /* \"#utility.yul\":19313:19321   */\n      0x00\n        /* \"#utility.yul\":19363:19368   */\n      dup3\n        /* \"#utility.yul\":19357:19361   */\n      dup3\n        /* \"#utility.yul\":19353:19369   */\n      shr\n        /* \"#utility.yul\":19332:19369   */\n      swap1\n      pop\n        /* \"#utility.yul\":19259:19376   */\n      swap3\n      swap2\n      pop\n      pop\n      jump\t// out\n        /* \"#utility.yul\":19382:19551   */\n    tag_316:\n        /* \"#utility.yul\":19426:19432   */\n      0x00\n        /* \"#utility.yul\":19459:19510   */\n      tag_529\n        /* \"#utility.yul\":19507:19508   */\n      0x00\n        /* \"#utility.yul\":19503:19509   */\n      not\n        /* \"#utility.yul\":19495:19500   */\n      dup5\n        /* \"#utility.yul\":19492:19493   */\n      0x08\n        /* \"#utility.yul\":19488:19501   */\n      mul\n        /* \"#utility.yul\":19459:19510   */\n      tag_315\n      jump\t// in\n    tag_529:\n        /* \"#utility.yul\":19455:19511   */\n      not\n        /* \"#utility.yul\":19540:19544   */\n      dup1\n        /* \"#utility.yul\":19534:19538   */\n      dup4\n        /* \"#utility.yul\":19530:19545   */\n      and\n        /* \"#utility.yul\":19520:19545   */\n      swap2\n      pop\n        /* \"#utility.yul\":19433:19551   */\n      pop\n        /* \"#utility.yul\":19382:19551   */\n      swap3\n      swap2\n      pop\n      pop\n      jump\t// out\n        /* \"#utility.yul\":19556:19851   */\n    tag_317:\n        /* \"#utility.yul\":19632:19636   */\n      0x00\n        /* \"#utility.yul\":19778:19807   */\n      tag_531\n        /* \"#utility.yul\":19803:19806   */\n      dup4\n        /* \"#utility.yul\":19797:19801   */\n      dup4\n        /* \"#utility.yul\":19778:19807   */\n      tag_316\n      jump\t// in\n    tag_531:\n        /* \"#utility.yul\":19770:19807   */\n      swap2\n      pop\n        /* \"#utility.yul\":19840:19843   */\n      dup3\n        /* \"#utility.yul\":19837:19838   */\n      0x02\n        /* \"#utility.yul\":19833:19844   */\n      mul\n        /* \"#utility.yul\":19827:19831   */\n      dup3\n        /* \"#utility.yul\":19824:19845   */\n      or\n        /* \"#utility.yul\":19816:19845   */\n      swap1\n      pop\n        /* \"#utility.yul\":19556:19851   */\n      swap3\n      swap2\n      pop\n      pop\n      jump\t// out\n        /* \"#utility.yul\":19856:21259   */\n    tag_220:\n        /* \"#utility.yul\":19980:20024   */\n      tag_533\n        /* \"#utility.yul\":20020:20023   */\n      dup4\n        /* \"#utility.yul\":20015:20018   */\n      dup4\n        /* \"#utility.yul\":19980:20024   */\n      tag_303\n      jump\t// in\n    tag_533:\n        /* \"#utility.yul\":20089:20107   */\n      0xffffffffffffffff\n        /* \"#utility.yul\":20081:20087   */\n      dup2\n        /* \"#utility.yul\":20078:20108   */\n      gt\n        /* \"#utility.yul\":20075:20131   */\n      iszero\n      tag_534\n      jumpi\n        /* \"#utility.yul\":20111:20129   */\n      tag_535\n      tag_266\n      jump\t// in\n    tag_535:\n        /* \"#utility.yul\":20075:20131   */\n    tag_534:\n        /* \"#utility.yul\":20155:20193   */\n      tag_536\n        /* \"#utility.yul\":20187:20191   */\n      dup3\n        /* \"#utility.yul\":20181:20192   */\n      sload\n        /* \"#utility.yul\":20155:20193   */\n      tag_166\n      jump\t// in\n    tag_536:\n        /* \"#utility.yul\":20240:20307   */\n      tag_537\n        /* \"#utility.yul\":20300:20306   */\n      dup3\n        /* \"#utility.yul\":20292:20298   */\n      dup3\n        /* \"#utility.yul\":20286:20290   */\n      dup6\n        /* \"#utility.yul\":20240:20307   */\n      tag_314\n      jump\t// in\n    tag_537:\n        /* \"#utility.yul\":20334:20335   */\n      0x00\n        /* \"#utility.yul\":20363:20365   */\n      0x1f\n        /* \"#utility.yul\":20355:20361   */\n      dup4\n        /* \"#utility.yul\":20352:20366   */\n      gt\n        /* \"#utility.yul\":20380:20381   */\n      0x01\n        /* \"#utility.yul\":20375:21007   */\n      dup2\n      eq\n      tag_539\n      jumpi\n        /* \"#utility.yul\":21051:21052   */\n      0x00\n        /* \"#utility.yul\":21068:21074   */\n      dup5\n        /* \"#utility.yul\":21065:21149   */\n      iszero\n      tag_540\n      jumpi\n        /* \"#utility.yul\":21124:21133   */\n      dup3\n        /* \"#utility.yul\":21119:21122   */\n      dup8\n        /* \"#utility.yul\":21115:21134   */\n      add\n        /* \"#utility.yul\":21102:21135   */\n      calldataload\n        /* \"#utility.yul\":21093:21135   */\n      swap1\n      pop\n        /* \"#utility.yul\":21065:21149   */\n    tag_540:\n        /* \"#utility.yul\":21175:21242   */\n      tag_541\n        /* \"#utility.yul\":21235:21241   */\n      dup6\n        /* \"#utility.yul\":21228:21233   */\n      dup3\n        /* \"#utility.yul\":21175:21242   */\n      tag_317\n      jump\t// in\n    tag_541:\n        /* \"#utility.yul\":21169:21173   */\n      dup7\n        /* \"#utility.yul\":21162:21243   */\n      sstore\n        /* \"#utility.yul\":21024:21253   */\n      pop\n        /* \"#utility.yul\":20345:21253   */\n      jump(tag_538)\n        /* \"#utility.yul\":20375:21007   */\n    tag_539:\n        /* \"#utility.yul\":20427:20431   */\n      0x1f\n        /* \"#utility.yul\":20423:20432   */\n      not\n        /* \"#utility.yul\":20415:20421   */\n      dup5\n        /* \"#utility.yul\":20411:20433   */\n      and\n        /* \"#utility.yul\":20461:20498   */\n      tag_542\n        /* \"#utility.yul\":20493:20497   */\n      dup7\n        /* \"#utility.yul\":20461:20498   */\n      tag_304\n      jump\t// in\n    tag_542:\n        /* \"#utility.yul\":20520:20521   */\n      0x00\n        /* \"#utility.yul\":20534:20749   */\n    tag_543:\n        /* \"#utility.yul\":20548:20555   */\n      dup3\n        /* \"#utility.yul\":20545:20546   */\n      dup2\n        /* \"#utility.yul\":20542:20556   */\n      lt\n        /* \"#utility.yul\":20534:20749   */\n      iszero\n      tag_545\n      jumpi\n        /* \"#utility.yul\":20634:20643   */\n      dup5\n        /* \"#utility.yul\":20629:20632   */\n      dup10\n        /* \"#utility.yul\":20625:20644   */\n      add\n        /* \"#utility.yul\":20612:20645   */\n      calldataload\n        /* \"#utility.yul\":20604:20610   */\n      dup3\n        /* \"#utility.yul\":20597:20646   */\n      sstore\n        /* \"#utility.yul\":20685:20686   */\n      0x01\n        /* \"#utility.yul\":20677:20683   */\n      dup3\n        /* \"#utility.yul\":20673:20687   */\n      add\n        /* \"#utility.yul\":20663:20687   */\n      swap2\n      pop\n        /* \"#utility.yul\":20732:20734   */\n      0x20\n        /* \"#utility.yul\":20721:20730   */\n      dup6\n        /* \"#utility.yul\":20717:20735   */\n      add\n        /* \"#utility.yul\":20704:20735   */\n      swap5\n      pop\n        /* \"#utility.yul\":20571:20575   */\n      0x20\n        /* \"#utility.yul\":20568:20569   */\n      dup2\n        /* \"#utility.yul\":20564:20576   */\n      add\n        /* \"#utility.yul\":20559:20576   */\n      swap1\n      pop\n        /* \"#utility.yul\":20534:20749   */\n      jump(tag_543)\n    tag_545:\n        /* \"#utility.yul\":20777:20783   */\n      dup7\n        /* \"#utility.yul\":20768:20775   */\n      dup4\n        /* \"#utility.yul\":20765:20784   */\n      lt\n        /* \"#utility.yul\":20762:20948   */\n      iszero\n      tag_546\n      jumpi\n        /* \"#utility.yul\":20842:20851   */\n      dup5\n        /* \"#utility.yul\":20837:20840   */\n      dup10\n        /* \"#utility.yul\":20833:20852   */\n      add\n        /* \"#utility.yul\":20820:20853   */\n      calldataload\n        /* \"#utility.yul\":20885:20933   */\n      tag_547\n        /* \"#utility.yul\":20927:20931   */\n      0x1f\n        /* \"#utility.yul\":20919:20925   */\n      dup10\n        /* \"#utility.yul\":20915:20932   */\n      and\n        /* \"#utility.yul\":20904:20913   */\n      dup3\n        /* \"#utility.yul\":20885:20933   */\n      tag_316\n      jump\t// in\n    tag_547:\n        /* \"#utility.yul\":20877:20883   */\n      dup4\n        /* \"#utility.yul\":20870:20934   */\n      sstore\n        /* \"#utility.yul\":20785:20948   */\n      pop\n        /* \"#utility.yul\":20762:20948   */\n    tag_546:\n        /* \"#utility.yul\":20994:20995   */\n      0x01\n        /* \"#utility.yul\":20990:20991   */\n      0x02\n        /* \"#utility.yul\":20982:20988   */\n      dup9\n        /* \"#utility.yul\":20978:20992   */\n      mul\n        /* \"#utility.yul\":20974:20996   */\n      add\n        /* \"#utility.yul\":20968:20972   */\n      dup9\n        /* \"#utility.yul\":20961:20997   */\n      sstore\n        /* \"#utility.yul\":20382:21007   */\n      pop\n      pop\n      pop\n        /* \"#utility.yul\":20345:21253   */\n    tag_538:\n      pop\n        /* \"#utility.yul\":19955:21259   */\n      pop\n      pop\n      pop\n        /* \"#utility.yul\":19856:21259   */\n      pop\n      pop\n      pop\n      jump\t// out\n        /* \"#utility.yul\":21265:21490   */\n    tag_318:\n        /* \"#utility.yul\":21405:21439   */\n      0x4f776e61626c653a206e6577206f776e657220697320746865207a65726f2061\n        /* \"#utility.yul\":21401:21402   */\n      0x00\n        /* \"#utility.yul\":21393:21399   */\n      dup3\n        /* \"#utility.yul\":21389:21403   */\n      add\n        /* \"#utility.yul\":21382:21440   */\n      mstore\n        /* \"#utility.yul\":21474:21482   */\n      0x6464726573730000000000000000000000000000000000000000000000000000\n        /* \"#utility.yul\":21469:21471   */\n      0x20\n        /* \"#utility.yul\":21461:21467   */\n      dup3\n        /* \"#utility.yul\":21457:21472   */\n      add\n        /* \"#utility.yul\":21450:21483   */\n      mstore\n        /* \"#utility.yul\":21265:21490   */\n      pop\n      jump\t// out\n        /* \"#utility.yul\":21496:21862   */\n    tag_319:\n        /* \"#utility.yul\":21638:21641   */\n      0x00\n        /* \"#utility.yul\":21659:21726   */\n      tag_550\n        /* \"#utility.yul\":21723:21725   */\n      0x26\n        /* \"#utility.yul\":21718:21721   */\n      dup4\n        /* \"#utility.yul\":21659:21726   */\n      tag_282\n      jump\t// in\n    tag_550:\n        /* \"#utility.yul\":21652:21726   */\n      swap2\n      pop\n        /* \"#utility.yul\":21735:21828   */\n      tag_551\n        /* \"#utility.yul\":21824:21827   */\n      dup3\n        /* \"#utility.yul\":21735:21828   */\n      tag_318\n      jump\t// in\n    tag_551:\n        /* \"#utility.yul\":21853:21855   */\n      0x40\n        /* \"#utility.yul\":21848:21851   */\n      dup3\n        /* \"#utility.yul\":21844:21856   */\n      add\n        /* \"#utility.yul\":21837:21856   */\n      swap1\n      pop\n        /* \"#utility.yul\":21496:21862   */\n      swap2\n      swap1\n      pop\n      jump\t// out\n        /* \"#utility.yul\":21868:22287   */\n    tag_241:\n        /* \"#utility.yul\":22034:22038   */\n      0x00\n        /* \"#utility.yul\":22072:22074   */\n      0x20\n        /* \"#utility.yul\":22061:22070   */\n      dup3\n        /* \"#utility.yul\":22057:22075   */\n      add\n        /* \"#utility.yul\":22049:22075   */\n      swap1\n      pop\n        /* \"#utility.yul\":22121:22130   */\n      dup2\n        /* \"#utility.yul\":22115:22119   */\n      dup2\n        /* \"#utility.yul\":22111:22131   */\n      sub\n        /* \"#utility.yul\":22107:22108   */\n      0x00\n        /* \"#utility.yul\":22096:22105   */\n      dup4\n        /* \"#utility.yul\":22092:22109   */\n      add\n        /* \"#utility.yul\":22085:22132   */\n      mstore\n        /* \"#utility.yul\":22149:22280   */\n      tag_553\n        /* \"#utility.yul\":22275:22279   */\n      dup2\n        /* \"#utility.yul\":22149:22280   */\n      tag_319\n      jump\t// in\n    tag_553:\n        /* \"#utility.yul\":22141:22280   */\n      swap1\n      pop\n        /* \"#utility.yul\":21868:22287   */\n      swap2\n      swap1\n      pop\n      jump\t// out\n        /* \"#utility.yul\":22293:22475   */\n    tag_320:\n        /* \"#utility.yul\":22433:22467   */\n      0x4f776e61626c653a2063616c6c6572206973206e6f7420746865206f776e6572\n        /* \"#utility.yul\":22429:22430   */\n      0x00\n        /* \"#utility.yul\":22421:22427   */\n      dup3\n        /* \"#utility.yul\":22417:22431   */\n      add\n        /* \"#utility.yul\":22410:22468   */\n      mstore\n        /* \"#utility.yul\":22293:22475   */\n      pop\n      jump\t// out\n        /* \"#utility.yul\":22481:22847   */\n    tag_321:\n        /* \"#utility.yul\":22623:22626   */\n      0x00\n        /* \"#utility.yul\":22644:22711   */\n      tag_556\n        /* \"#utility.yul\":22708:22710   */\n      0x20\n        /* \"#utility.yul\":22703:22706   */\n      dup4\n        /* \"#utility.yul\":22644:22711   */\n      tag_282\n      jump\t// in\n    tag_556:\n        /* \"#utility.yul\":22637:22711   */\n      swap2\n      pop\n        /* \"#utility.yul\":22720:22813   */\n      tag_557\n        /* \"#utility.yul\":22809:22812   */\n      dup3\n        /* \"#utility.yul\":22720:22813   */\n      tag_320\n      jump\t// in\n    tag_557:\n        /* \"#utility.yul\":22838:22840   */\n      0x20\n        /* \"#utility.yul\":22833:22836   */\n      dup3\n        /* \"#utility.yul\":22829:22841   */\n      add\n        /* \"#utility.yul\":22822:22841   */\n      swap1\n      pop\n        /* \"#utility.yul\":22481:22847   */\n      swap2\n      swap1\n      pop\n      jump\t// out\n        /* \"#utility.yul\":22853:23272   */\n    tag_249:\n        /* \"#utility.yul\":23019:23023   */\n      0x00\n        /* \"#utility.yul\":23057:23059   */\n      0x20\n        /* \"#utility.yul\":23046:23055   */\n      dup3\n        /* \"#utility.yul\":23042:23060   */\n      add\n        /* \"#utility.yul\":23034:23060   */\n      swap1\n      pop\n        /* \"#utility.yul\":23106:23115   */\n      dup2\n        /* \"#utility.yul\":23100:23104   */\n      dup2\n        /* \"#utility.yul\":23096:23116   */\n      sub\n        /* \"#utility.yul\":23092:23093   */\n      0x00\n        /* \"#utility.yul\":23081:23090   */\n      dup4\n        /* \"#utility.yul\":23077:23094   */\n      add\n        /* \"#utility.yul\":23070:23117   */\n      mstore\n        /* \"#utility.yul\":23134:23265   */\n      tag_559\n        /* \"#utility.yul\":23260:23264   */\n      dup2\n        /* \"#utility.yul\":23134:23265   */\n      tag_321\n      jump\t// in\n    tag_559:\n        /* \"#utility.yul\":23126:23265   */\n      swap1\n      pop\n        /* \"#utility.yul\":22853:23272   */\n      swap2\n      swap1\n      pop\n      jump\t// out\n    stop\n\n    sub_0: assembly {\n            /* \"@openzeppelin/contracts/proxy/beacon/BeaconProxy.sol\":580:2095  contract BeaconProxy is Proxy, ERC1967Upgrade {... */\n          mstore(0x40, 0x80)\n            /* \"@openzeppelin/contracts/proxy/beacon/BeaconProxy.sol\":1060:1176  constructor(address beacon, bytes memory data) payable {... */\n          mload(0x40)\n          sub(codesize, bytecodeSize)\n          dup1\n          bytecodeSize\n          dup4\n          codecopy\n          dup2\n          dup2\n          add\n          0x40\n          mstore\n          dup2\n          add\n          swap1\n          tag_1\n          swap2\n          swap1\n          tag_2\n          jump\t// in\n        tag_1:\n            /* \"@openzeppelin/contracts/proxy/beacon/BeaconProxy.sol\":1125:1169  _upgradeBeaconToAndCall(beacon, data, false) */\n          tag_5\n            /* \"@openzeppelin/contracts/proxy/beacon/BeaconProxy.sol\":1149:1155  beacon */\n          dup3\n            /* \"@openzeppelin/contracts/proxy/beacon/BeaconProxy.sol\":1157:1161  data */\n          dup3\n            /* \"@openzeppelin/contracts/proxy/beacon/BeaconProxy.sol\":1163:1168  false */\n          0x00\n            /* \"@openzeppelin/contracts/proxy/beacon/BeaconProxy.sol\":1125:1148  _upgradeBeaconToAndCall */\n          shl(0x20, tag_6)\n            /* \"@openzeppelin/contracts/proxy/beacon/BeaconProxy.sol\":1125:1169  _upgradeBeaconToAndCall(beacon, data, false) */\n          0x20\n          shr\n          jump\t// in\n        tag_5:\n            /* \"@openzeppelin/contracts/proxy/beacon/BeaconProxy.sol\":1060:1176  constructor(address beacon, bytes memory data) payable {... */\n          pop\n          pop\n            /* \"@openzeppelin/contracts/proxy/beacon/BeaconProxy.sol\":580:2095  contract BeaconProxy is Proxy, ERC1967Upgrade {... */\n          jump(tag_7)\n            /* \"@openzeppelin/contracts/proxy/ERC1967/ERC1967Upgrade.sol\":5728:6041  function _upgradeBeaconToAndCall(address newBeacon, bytes memory data, bool forceCall) internal {... */\n        tag_6:\n            /* \"@openzeppelin/contracts/proxy/ERC1967/ERC1967Upgrade.sol\":5834:5855  _setBeacon(newBeacon) */\n          tag_9\n            /* \"@openzeppelin/contracts/proxy/ERC1967/ERC1967Upgrade.sol\":5845:5854  newBeacon */\n          dup4\n            /* \"@openzeppelin/contracts/proxy/ERC1967/ERC1967Upgrade.sol\":5834:5844  _setBeacon */\n          shl(0x20, tag_10)\n            /* \"@openzeppelin/contracts/proxy/ERC1967/ERC1967Upgrade.sol\":5834:5855  _setBeacon(newBeacon) */\n          0x20\n          shr\n          jump\t// in\n        tag_9:\n            /* \"@openzeppelin/contracts/proxy/ERC1967/ERC1967Upgrade.sol\":5885:5894  newBeacon */\n          dup3\n            /* \"@openzeppelin/contracts/proxy/ERC1967/ERC1967Upgrade.sol\":5870:5895  BeaconUpgraded(newBeacon) */\n          0xffffffffffffffffffffffffffffffffffffffff\n          and\n          0x1cf3b03a6cf19fa2baba4df148e9dcabedea7f8a5c07840e207e5c089be95d3e\n          mload(0x40)\n          mload(0x40)\n          dup1\n          swap2\n          sub\n          swap1\n          log2\n            /* \"@openzeppelin/contracts/proxy/ERC1967/ERC1967Upgrade.sol\":5923:5924  0 */\n          0x00\n            /* \"@openzeppelin/contracts/proxy/ERC1967/ERC1967Upgrade.sol\":5909:5913  data */\n          dup3\n            /* \"@openzeppelin/contracts/proxy/ERC1967/ERC1967Upgrade.sol\":5909:5920  data.length */\n          mload\n            /* \"@openzeppelin/contracts/proxy/ERC1967/ERC1967Upgrade.sol\":5909:5924  data.length > 0 */\n          gt\n            /* \"@openzeppelin/contracts/proxy/ERC1967/ERC1967Upgrade.sol\":5909:5937  data.length > 0 || forceCall */\n          dup1\n          tag_11\n          jumpi\n          pop\n            /* \"@openzeppelin/contracts/proxy/ERC1967/ERC1967Upgrade.sol\":5928:5937  forceCall */\n          dup1\n            /* \"@openzeppelin/contracts/proxy/ERC1967/ERC1967Upgrade.sol\":5909:5937  data.length > 0 || forceCall */\n        tag_11:\n            /* \"@openzeppelin/contracts/proxy/ERC1967/ERC1967Upgrade.sol\":5905:6035  if (data.length > 0 || forceCall) {... */\n          iszero\n          tag_12\n          jumpi\n            /* \"@openzeppelin/contracts/proxy/ERC1967/ERC1967Upgrade.sol\":5953:6024  Address.functionDelegateCall(IBeacon(newBeacon).implementation(), data) */\n          tag_13\n            /* \"@openzeppelin/contracts/proxy/ERC1967/ERC1967Upgrade.sol\":5990:5999  newBeacon */\n          dup4\n            /* \"@openzeppelin/contracts/proxy/ERC1967/ERC1967Upgrade.sol\":5982:6015  IBeacon(newBeacon).implementation */\n          0xffffffffffffffffffffffffffffffffffffffff\n          and\n          0x5c60da1b\n            /* \"@openzeppelin/contracts/proxy/ERC1967/ERC1967Upgrade.sol\":5982:6017  IBeacon(newBeacon).implementation() */\n          mload(0x40)\n          dup2\n          0xffffffff\n          and\n          0xe0\n          shl\n          dup2\n          mstore\n          0x04\n          add\n          0x20\n          mload(0x40)\n          dup1\n          dup4\n          sub\n          dup2\n          dup7\n          gas\n          staticcall\n          iszero\n          dup1\n          iszero\n          tag_15\n          jumpi\n          returndatasize\n          0x00\n          dup1\n          returndatacopy\n          revert(0x00, returndatasize)\n        tag_15:\n          pop\n          pop\n          pop\n          pop\n          mload(0x40)\n          returndatasize\n          not(0x1f)\n          0x1f\n          dup3\n          add\n          and\n          dup3\n          add\n          dup1\n          0x40\n          mstore\n          pop\n          dup2\n          add\n          swap1\n          tag_16\n          swap2\n          swap1\n          tag_17\n          jump\t// in\n        tag_16:\n            /* \"@openzeppelin/contracts/proxy/ERC1967/ERC1967Upgrade.sol\":6019:6023  data */\n          dup4\n            /* \"@openzeppelin/contracts/proxy/ERC1967/ERC1967Upgrade.sol\":5953:5981  Address.functionDelegateCall */\n          shl(0x20, tag_18)\n            /* \"@openzeppelin/contracts/proxy/ERC1967/ERC1967Upgrade.sol\":5953:6024  Address.functionDelegateCall(IBeacon(newBeacon).implementation(), data) */\n          0x20\n          shr\n          jump\t// in\n        tag_13:\n          pop\n            /* \"@openzeppelin/contracts/proxy/ERC1967/ERC1967Upgrade.sol\":5905:6035  if (data.length > 0 || forceCall) {... */\n        tag_12:\n            /* \"@openzeppelin/contracts/proxy/ERC1967/ERC1967Upgrade.sol\":5728:6041  function _upgradeBeaconToAndCall(address newBeacon, bytes memory data, bool forceCall) internal {... */\n          pop\n          pop\n          pop\n          jump\t// out\n            /* \"@openzeppelin/contracts/proxy/ERC1967/ERC1967Upgrade.sol\":5054:5425  function _setBeacon(address newBeacon) private {... */\n        tag_10:\n            /* \"@openzeppelin/contracts/proxy/ERC1967/ERC1967Upgrade.sol\":5119:5148  Address.isContract(newBeacon) */\n          tag_20\n            /* \"@openzeppelin/contracts/proxy/ERC1967/ERC1967Upgrade.sol\":5138:5147  newBeacon */\n          dup2\n            /* \"@openzeppelin/contracts/proxy/ERC1967/ERC1967Upgrade.sol\":5119:5137  Address.isContract */\n          shl(0x20, tag_21)\n            /* \"@openzeppelin/contracts/proxy/ERC1967/ERC1967Upgrade.sol\":5119:5148  Address.isContract(newBeacon) */\n          0x20\n          shr\n          jump\t// in\n        tag_20:\n            /* \"@openzeppelin/contracts/proxy/ERC1967/ERC1967Upgrade.sol\":5111:5190  require(Address.isContract(newBeacon), \"ERC1967: new beacon is not a contract\") */\n          tag_22\n          jumpi\n          mload(0x40)\n          0x08c379a000000000000000000000000000000000000000000000000000000000\n          dup2\n          mstore\n          0x04\n          add\n          tag_23\n          swap1\n          tag_24\n          jump\t// in\n        tag_23:\n          mload(0x40)\n          dup1\n          swap2\n          sub\n          swap1\n          revert\n        tag_22:\n            /* \"@openzeppelin/contracts/proxy/ERC1967/ERC1967Upgrade.sol\":5221:5276  Address.isContract(IBeacon(newBeacon).implementation()) */\n          tag_25\n            /* \"@openzeppelin/contracts/proxy/ERC1967/ERC1967Upgrade.sol\":5248:5257  newBeacon */\n          dup2\n            /* \"@openzeppelin/contracts/proxy/ERC1967/ERC1967Upgrade.sol\":5240:5273  IBeacon(newBeacon).implementation */\n          0xffffffffffffffffffffffffffffffffffffffff\n          and\n          0x5c60da1b\n            /* \"@openzeppelin/contracts/proxy/ERC1967/ERC1967Upgrade.sol\":5240:5275  IBeacon(newBeacon).implementation() */\n          mload(0x40)\n          dup2\n          0xffffffff\n          and\n          0xe0\n          shl\n          dup2\n          mstore\n          0x04\n          add\n          0x20\n          mload(0x40)\n          dup1\n          dup4\n          sub\n          dup2\n          dup7\n          gas\n          staticcall\n          iszero\n          dup1\n          iszero\n          tag_27\n          jumpi\n          returndatasize\n          0x00\n          dup1\n          returndatacopy\n          revert(0x00, returndatasize)\n        tag_27:\n          pop\n          pop\n          pop\n          pop\n          mload(0x40)\n          returndatasize\n          not(0x1f)\n          0x1f\n          dup3\n          add\n          and\n          dup3\n          add\n          dup1\n          0x40\n          mstore\n          pop\n          dup2\n          add\n          swap1\n          tag_28\n          swap2\n          swap1\n          tag_17\n          jump\t// in\n        tag_28:\n            /* \"@openzeppelin/contracts/proxy/ERC1967/ERC1967Upgrade.sol\":5221:5239  Address.isContract */\n          shl(0x20, tag_21)\n            /* \"@openzeppelin/contracts/proxy/ERC1967/ERC1967Upgrade.sol\":5221:5276  Address.isContract(IBeacon(newBeacon).implementation()) */\n          0x20\n          shr\n          jump\t// in\n        tag_25:\n            /* \"@openzeppelin/contracts/proxy/ERC1967/ERC1967Upgrade.sol\":5200:5350  require(... */\n          tag_29\n          jumpi\n          mload(0x40)\n          0x08c379a000000000000000000000000000000000000000000000000000000000\n          dup2\n          mstore\n          0x04\n          add\n          tag_30\n          swap1\n          tag_31\n          jump\t// in\n        tag_30:\n          mload(0x40)\n          dup1\n          swap2\n          sub\n          swap1\n          revert\n        tag_29:\n            /* \"@openzeppelin/contracts/proxy/ERC1967/ERC1967Upgrade.sol\":5409:5418  newBeacon */\n          dup1\n            /* \"@openzeppelin/contracts/proxy/ERC1967/ERC1967Upgrade.sol\":5360:5400  StorageSlot.getAddressSlot(_BEACON_SLOT) */\n          tag_32\n            /* \"@openzeppelin/contracts/proxy/ERC1967/ERC1967Upgrade.sol\":4719:4785  0xa3f0ad74e5423aebfd80d3ef4346578335a9a72aeaee59ff6cb3582b35133d50 */\n          0xa3f0ad74e5423aebfd80d3ef4346578335a9a72aeaee59ff6cb3582b35133d50\n            /* \"@openzeppelin/contracts/proxy/ERC1967/ERC1967Upgrade.sol\":5387:5399  _BEACON_SLOT */\n          0x00\n          shl\n            /* \"@openzeppelin/contracts/proxy/ERC1967/ERC1967Upgrade.sol\":5360:5386  StorageSlot.getAddressSlot */\n          shl(0x20, tag_33)\n            /* \"@openzeppelin/contracts/proxy/ERC1967/ERC1967Upgrade.sol\":5360:5400  StorageSlot.getAddressSlot(_BEACON_SLOT) */\n          0x20\n          shr\n          jump\t// in\n        tag_32:\n            /* \"@openzeppelin/contracts/proxy/ERC1967/ERC1967Upgrade.sol\":5360:5406  StorageSlot.getAddressSlot(_BEACON_SLOT).value */\n          0x00\n          add\n          0x00\n            /* \"@openzeppelin/contracts/proxy/ERC1967/ERC1967Upgrade.sol\":5360:5418  StorageSlot.getAddressSlot(_BEACON_SLOT).value = newBeacon */\n          0x0100\n          exp\n          dup2\n          sload\n          dup2\n          0xffffffffffffffffffffffffffffffffffffffff\n          mul\n          not\n          and\n          swap1\n          dup4\n          0xffffffffffffffffffffffffffffffffffffffff\n          and\n          mul\n          or\n          swap1\n          sstore\n          pop\n            /* \"@openzeppelin/contracts/proxy/ERC1967/ERC1967Upgrade.sol\":5054:5425  function _setBeacon(address newBeacon) private {... */\n          pop\n          jump\t// out\n            /* \"@openzeppelin/contracts/utils/Address.sol\":6674:6872  function functionDelegateCall(address target, bytes memory data) internal returns (bytes memory) {... */\n        tag_18:\n            /* \"@openzeppelin/contracts/utils/Address.sol\":6757:6769  bytes memory */\n          0x60\n            /* \"@openzeppelin/contracts/utils/Address.sol\":6788:6865  functionDelegateCall(target, data, \"Address: low-level delegate call failed\") */\n          tag_35\n            /* \"@openzeppelin/contracts/utils/Address.sol\":6809:6815  target */\n          dup4\n            /* \"@openzeppelin/contracts/utils/Address.sol\":6817:6821  data */\n          dup4\n            /* \"@openzeppelin/contracts/utils/Address.sol\":6788:6865  functionDelegateCall(target, data, \"Address: low-level delegate call failed\") */\n          mload(0x40)\n          dup1\n          0x60\n          add\n          0x40\n          mstore\n          dup1\n          0x27\n          dup2\n          mstore\n          0x20\n          add\n          data_9fdcd12e4b726339b32a442b0a448365d5d85c96b2d2cff917b4f66c63110398\n          0x27\n          swap2\n          codecopy\n            /* \"@openzeppelin/contracts/utils/Address.sol\":6788:6808  functionDelegateCall */\n          shl(0x20, tag_36)\n            /* \"@openzeppelin/contracts/utils/Address.sol\":6788:6865  functionDelegateCall(target, data, \"Address: low-level delegate call failed\") */\n          0x20\n          shr\n          jump\t// in\n        tag_35:\n            /* \"@openzeppelin/contracts/utils/Address.sol\":6781:6865  return functionDelegateCall(target, data, \"Address: low-level delegate call failed\") */\n          swap1\n          pop\n            /* \"@openzeppelin/contracts/utils/Address.sol\":6674:6872  function functionDelegateCall(address target, bytes memory data) internal returns (bytes memory) {... */\n          swap3\n          swap2\n          pop\n          pop\n          jump\t// out\n            /* \"@openzeppelin/contracts/utils/Address.sol\":1412:1732  function isContract(address account) internal view returns (bool) {... */\n        tag_21:\n            /* \"@openzeppelin/contracts/utils/Address.sol\":1472:1476  bool */\n          0x00\n            /* \"@openzeppelin/contracts/utils/Address.sol\":1724:1725  0 */\n          dup1\n            /* \"@openzeppelin/contracts/utils/Address.sol\":1702:1709  account */\n          dup3\n            /* \"@openzeppelin/contracts/utils/Address.sol\":1702:1721  account.code.length */\n          0xffffffffffffffffffffffffffffffffffffffff\n          and\n          extcodesize\n            /* \"@openzeppelin/contracts/utils/Address.sol\":1702:1725  account.code.length > 0 */\n          gt\n            /* \"@openzeppelin/contracts/utils/Address.sol\":1695:1725  return account.code.length > 0 */\n          swap1\n          pop\n            /* \"@openzeppelin/contracts/utils/Address.sol\":1412:1732  function isContract(address account) internal view returns (bool) {... */\n          swap2\n          swap1\n          pop\n          jump\t// out\n            /* \"@openzeppelin/contracts/utils/StorageSlot.sol\":1859:2049  function getAddressSlot(bytes32 slot) internal pure returns (AddressSlot storage r) {... */\n        tag_33:\n            /* \"@openzeppelin/contracts/utils/StorageSlot.sol\":1920:1941  AddressSlot storage r */\n          0x00\n            /* \"@openzeppelin/contracts/utils/StorageSlot.sol\":2029:2033  slot */\n          dup2\n            /* \"@openzeppelin/contracts/utils/StorageSlot.sol\":2019:2033  r.slot := slot */\n          swap1\n          pop\n            /* \"@openzeppelin/contracts/utils/StorageSlot.sol\":1859:2049  function getAddressSlot(bytes32 slot) internal pure returns (AddressSlot storage r) {... */\n          swap2\n          swap1\n          pop\n          jump\t// out\n            /* \"@openzeppelin/contracts/utils/Address.sol\":7058:7383  function functionDelegateCall(... */\n        tag_36:\n            /* \"@openzeppelin/contracts/utils/Address.sol\":7199:7211  bytes memory */\n          0x60\n            /* \"@openzeppelin/contracts/utils/Address.sol\":7224:7236  bool success */\n          0x00\n            /* \"@openzeppelin/contracts/utils/Address.sol\":7238:7261  bytes memory returndata */\n          dup1\n            /* \"@openzeppelin/contracts/utils/Address.sol\":7265:7271  target */\n          dup6\n            /* \"@openzeppelin/contracts/utils/Address.sol\":7265:7284  target.delegatecall */\n          0xffffffffffffffffffffffffffffffffffffffff\n          and\n            /* \"@openzeppelin/contracts/utils/Address.sol\":7285:7289  data */\n          dup6\n            /* \"@openzeppelin/contracts/utils/Address.sol\":7265:7290  target.delegatecall(data) */\n          mload(0x40)\n          tag_40\n          swap2\n          swap1\n          tag_41\n          jump\t// in\n        tag_40:\n          0x00\n          mload(0x40)\n          dup1\n          dup4\n          sub\n          dup2\n          dup6\n          gas\n          delegatecall\n          swap2\n          pop\n          pop\n          returndatasize\n          dup1\n          0x00\n          dup2\n          eq\n          tag_44\n          jumpi\n          mload(0x40)\n          swap2\n          pop\n          and(add(returndatasize, 0x3f), not(0x1f))\n          dup3\n          add\n          0x40\n          mstore\n          returndatasize\n          dup3\n          mstore\n          returndatasize\n          0x00\n          0x20\n          dup5\n          add\n          returndatacopy\n          jump(tag_43)\n        tag_44:\n          0x60\n          swap2\n          pop\n        tag_43:\n          pop\n            /* \"@openzeppelin/contracts/utils/Address.sol\":7223:7290  (bool success, bytes memory returndata) = target.delegatecall(data) */\n          swap2\n          pop\n          swap2\n          pop\n            /* \"@openzeppelin/contracts/utils/Address.sol\":7307:7376  verifyCallResultFromTarget(target, success, returndata, errorMessage) */\n          tag_45\n            /* \"@openzeppelin/contracts/utils/Address.sol\":7334:7340  target */\n          dup7\n            /* \"@openzeppelin/contracts/utils/Address.sol\":7342:7349  success */\n          dup4\n            /* \"@openzeppelin/contracts/utils/Address.sol\":7351:7361  returndata */\n          dup4\n            /* \"@openzeppelin/contracts/utils/Address.sol\":7363:7375  errorMessage */\n          dup8\n            /* \"@openzeppelin/contracts/utils/Address.sol\":7307:7333  verifyCallResultFromTarget */\n          shl(0x20, tag_46)\n            /* \"@openzeppelin/contracts/utils/Address.sol\":7307:7376  verifyCallResultFromTarget(target, success, returndata, errorMessage) */\n          0x20\n          shr\n          jump\t// in\n        tag_45:\n            /* \"@openzeppelin/contracts/utils/Address.sol\":7300:7376  return verifyCallResultFromTarget(target, success, returndata, errorMessage) */\n          swap3\n          pop\n          pop\n          pop\n            /* \"@openzeppelin/contracts/utils/Address.sol\":7058:7383  function functionDelegateCall(... */\n          swap4\n          swap3\n          pop\n          pop\n          pop\n          jump\t// out\n            /* \"@openzeppelin/contracts/utils/Address.sol\":7671:8299  function verifyCallResultFromTarget(... */\n        tag_46:\n            /* \"@openzeppelin/contracts/utils/Address.sol\":7851:7863  bytes memory */\n          0x60\n            /* \"@openzeppelin/contracts/utils/Address.sol\":7879:7886  success */\n          dup4\n            /* \"@openzeppelin/contracts/utils/Address.sol\":7875:8293  if (success) {... */\n          iszero\n          tag_48\n          jumpi\n            /* \"@openzeppelin/contracts/utils/Address.sol\":7927:7928  0 */\n          0x00\n            /* \"@openzeppelin/contracts/utils/Address.sol\":7906:7916  returndata */\n          dup4\n            /* \"@openzeppelin/contracts/utils/Address.sol\":7906:7923  returndata.length */\n          mload\n            /* \"@openzeppelin/contracts/utils/Address.sol\":7906:7928  returndata.length == 0 */\n          sub\n            /* \"@openzeppelin/contracts/utils/Address.sol\":7902:8188  if (returndata.length == 0) {... */\n          tag_49\n          jumpi\n            /* \"@openzeppelin/contracts/utils/Address.sol\":8121:8139  isContract(target) */\n          tag_50\n            /* \"@openzeppelin/contracts/utils/Address.sol\":8132:8138  target */\n          dup6\n            /* \"@openzeppelin/contracts/utils/Address.sol\":8121:8131  isContract */\n          shl(0x20, tag_21)\n            /* \"@openzeppelin/contracts/utils/Address.sol\":8121:8139  isContract(target) */\n          0x20\n          shr\n          jump\t// in\n        tag_50:\n            /* \"@openzeppelin/contracts/utils/Address.sol\":8113:8173  require(isContract(target), \"Address: call to non-contract\") */\n          tag_51\n          jumpi\n          mload(0x40)\n          0x08c379a000000000000000000000000000000000000000000000000000000000\n          dup2\n          mstore\n          0x04\n          add\n          tag_52\n          swap1\n          tag_53\n          jump\t// in\n        tag_52:\n          mload(0x40)\n          dup1\n          swap2\n          sub\n          swap1\n          revert\n        tag_51:\n            /* \"@openzeppelin/contracts/utils/Address.sol\":7902:8188  if (returndata.length == 0) {... */\n        tag_49:\n            /* \"@openzeppelin/contracts/utils/Address.sol\":8208:8218  returndata */\n          dup3\n            /* \"@openzeppelin/contracts/utils/Address.sol\":8201:8218  return returndata */\n          swap1\n          pop\n          jump(tag_47)\n            /* \"@openzeppelin/contracts/utils/Address.sol\":7875:8293  if (success) {... */\n        tag_48:\n            /* \"@openzeppelin/contracts/utils/Address.sol\":8249:8282  _revert(returndata, errorMessage) */\n          tag_55\n            /* \"@openzeppelin/contracts/utils/Address.sol\":8257:8267  returndata */\n          dup4\n            /* \"@openzeppelin/contracts/utils/Address.sol\":8269:8281  errorMessage */\n          dup4\n            /* \"@openzeppelin/contracts/utils/Address.sol\":8249:8256  _revert */\n          shl(0x20, tag_56)\n            /* \"@openzeppelin/contracts/utils/Address.sol\":8249:8282  _revert(returndata, errorMessage) */\n          0x20\n          shr\n          jump\t// in\n        tag_55:\n            /* \"@openzeppelin/contracts/utils/Address.sol\":7671:8299  function verifyCallResultFromTarget(... */\n        tag_47:\n          swap5\n          swap4\n          pop\n          pop\n          pop\n          pop\n          jump\t// out\n            /* \"@openzeppelin/contracts/utils/Address.sol\":8821:9361  function _revert(bytes memory returndata, string memory errorMessage) private pure {... */\n        tag_56:\n            /* \"@openzeppelin/contracts/utils/Address.sol\":9000:9001  0 */\n          0x00\n            /* \"@openzeppelin/contracts/utils/Address.sol\":8980:8990  returndata */\n          dup3\n            /* \"@openzeppelin/contracts/utils/Address.sol\":8980:8997  returndata.length */\n          mload\n            /* \"@openzeppelin/contracts/utils/Address.sol\":8980:9001  returndata.length > 0 */\n          gt\n            /* \"@openzeppelin/contracts/utils/Address.sol\":8976:9355  if (returndata.length > 0) {... */\n          iszero\n          tag_58\n          jumpi\n            /* \"@openzeppelin/contracts/utils/Address.sol\":9208:9218  returndata */\n          dup2\n            /* \"@openzeppelin/contracts/utils/Address.sol\":9202:9219  mload(returndata) */\n          mload\n            /* \"@openzeppelin/contracts/utils/Address.sol\":9264:9279  returndata_size */\n          dup1\n            /* \"@openzeppelin/contracts/utils/Address.sol\":9251:9261  returndata */\n          dup4\n            /* \"@openzeppelin/contracts/utils/Address.sol\":9247:9249  32 */\n          0x20\n            /* \"@openzeppelin/contracts/utils/Address.sol\":9243:9262  add(32, returndata) */\n          add\n            /* \"@openzeppelin/contracts/utils/Address.sol\":9236:9280  revert(add(32, returndata), returndata_size) */\n          revert\n            /* \"@openzeppelin/contracts/utils/Address.sol\":8976:9355  if (returndata.length > 0) {... */\n        tag_58:\n            /* \"@openzeppelin/contracts/utils/Address.sol\":9331:9343  errorMessage */\n          dup1\n            /* \"@openzeppelin/contracts/utils/Address.sol\":9324:9344  revert(errorMessage) */\n          mload(0x40)\n          0x08c379a000000000000000000000000000000000000000000000000000000000\n          dup2\n          mstore\n          0x04\n          add\n          tag_60\n          swap2\n          swap1\n          tag_61\n          jump\t// in\n        tag_60:\n          mload(0x40)\n          dup1\n          swap2\n          sub\n          swap1\n          revert\n            /* \"#utility.yul\":7:82   */\n        tag_62:\n            /* \"#utility.yul\":40:46   */\n          0x00\n            /* \"#utility.yul\":73:75   */\n          0x40\n            /* \"#utility.yul\":67:76   */\n          mload\n            /* \"#utility.yul\":57:76   */\n          swap1\n          pop\n            /* \"#utility.yul\":7:82   */\n          swap1\n          jump\t// out\n            /* \"#utility.yul\":88:205   */\n        tag_63:\n            /* \"#utility.yul\":197:198   */\n          0x00\n            /* \"#utility.yul\":194:195   */\n          dup1\n            /* \"#utility.yul\":187:199   */\n          revert\n            /* \"#utility.yul\":211:328   */\n        tag_64:\n            /* \"#utility.yul\":320:321   */\n          0x00\n            /* \"#utility.yul\":317:318   */\n          dup1\n            /* \"#utility.yul\":310:322   */\n          revert\n            /* \"#utility.yul\":334:460   */\n        tag_65:\n            /* \"#utility.yul\":371:378   */\n          0x00\n            /* \"#utility.yul\":411:453   */\n          0xffffffffffffffffffffffffffffffffffffffff\n            /* \"#utility.yul\":404:409   */\n          dup3\n            /* \"#utility.yul\":400:454   */\n          and\n            /* \"#utility.yul\":389:454   */\n          swap1\n          pop\n            /* \"#utility.yul\":334:460   */\n          swap2\n          swap1\n          pop\n          jump\t// out\n            /* \"#utility.yul\":466:562   */\n        tag_66:\n            /* \"#utility.yul\":503:510   */\n          0x00\n            /* \"#utility.yul\":532:556   */\n          tag_97\n            /* \"#utility.yul\":550:555   */\n          dup3\n            /* \"#utility.yul\":532:556   */\n          tag_65\n          jump\t// in\n        tag_97:\n            /* \"#utility.yul\":521:556   */\n          swap1\n          pop\n            /* \"#utility.yul\":466:562   */\n          swap2\n          swap1\n          pop\n          jump\t// out\n            /* \"#utility.yul\":568:690   */\n        tag_67:\n            /* \"#utility.yul\":641:665   */\n          tag_99\n            /* \"#utility.yul\":659:664   */\n          dup2\n            /* \"#utility.yul\":641:665   */\n          tag_66\n          jump\t// in\n        tag_99:\n            /* \"#utility.yul\":634:639   */\n          dup2\n            /* \"#utility.yul\":631:666   */\n          eq\n            /* \"#utility.yul\":621:684   */\n          tag_100\n          jumpi\n            /* \"#utility.yul\":680:681   */\n          0x00\n            /* \"#utility.yul\":677:678   */\n          dup1\n            /* \"#utility.yul\":670:682   */\n          revert\n            /* \"#utility.yul\":621:684   */\n        tag_100:\n            /* \"#utility.yul\":568:690   */\n          pop\n          jump\t// out\n            /* \"#utility.yul\":696:839   */\n        tag_68:\n            /* \"#utility.yul\":753:758   */\n          0x00\n            /* \"#utility.yul\":784:790   */\n          dup2\n            /* \"#utility.yul\":778:791   */\n          mload\n            /* \"#utility.yul\":769:791   */\n          swap1\n          pop\n            /* \"#utility.yul\":800:833   */\n          tag_102\n            /* \"#utility.yul\":827:832   */\n          dup2\n            /* \"#utility.yul\":800:833   */\n          tag_67\n          jump\t// in\n        tag_102:\n            /* \"#utility.yul\":696:839   */\n          swap3\n          swap2\n          pop\n          pop\n          jump\t// out\n            /* \"#utility.yul\":845:962   */\n        tag_69:\n            /* \"#utility.yul\":954:955   */\n          0x00\n            /* \"#utility.yul\":951:952   */\n          dup1\n            /* \"#utility.yul\":944:956   */\n          revert\n            /* \"#utility.yul\":968:1085   */\n        tag_70:\n            /* \"#utility.yul\":1077:1078   */\n          0x00\n            /* \"#utility.yul\":1074:1075   */\n          dup1\n            /* \"#utility.yul\":1067:1079   */\n          revert\n            /* \"#utility.yul\":1091:1193   */\n        tag_71:\n            /* \"#utility.yul\":1132:1138   */\n          0x00\n            /* \"#utility.yul\":1183:1185   */\n          0x1f\n            /* \"#utility.yul\":1179:1186   */\n          not\n            /* \"#utility.yul\":1174:1176   */\n          0x1f\n            /* \"#utility.yul\":1167:1172   */\n          dup4\n            /* \"#utility.yul\":1163:1177   */\n          add\n            /* \"#utility.yul\":1159:1187   */\n          and\n            /* \"#utility.yul\":1149:1187   */\n          swap1\n          pop\n            /* \"#utility.yul\":1091:1193   */\n          swap2\n          swap1\n          pop\n          jump\t// out\n            /* \"#utility.yul\":1199:1379   */\n        tag_72:\n            /* \"#utility.yul\":1247:1324   */\n          0x4e487b7100000000000000000000000000000000000000000000000000000000\n            /* \"#utility.yul\":1244:1245   */\n          0x00\n            /* \"#utility.yul\":1237:1325   */\n          mstore\n            /* \"#utility.yul\":1344:1348   */\n          0x41\n            /* \"#utility.yul\":1341:1342   */\n          0x04\n            /* \"#utility.yul\":1334:1349   */\n          mstore\n            /* \"#utility.yul\":1368:1372   */\n          0x24\n            /* \"#utility.yul\":1365:1366   */\n          0x00\n            /* \"#utility.yul\":1358:1373   */\n          revert\n            /* \"#utility.yul\":1385:1666   */\n        tag_73:\n            /* \"#utility.yul\":1468:1495   */\n          tag_108\n            /* \"#utility.yul\":1490:1494   */\n          dup3\n            /* \"#utility.yul\":1468:1495   */\n          tag_71\n          jump\t// in\n        tag_108:\n            /* \"#utility.yul\":1460:1466   */\n          dup2\n            /* \"#utility.yul\":1456:1496   */\n          add\n            /* \"#utility.yul\":1598:1604   */\n          dup2\n            /* \"#utility.yul\":1586:1596   */\n          dup2\n            /* \"#utility.yul\":1583:1605   */\n          lt\n            /* \"#utility.yul\":1562:1580   */\n          0xffffffffffffffff\n            /* \"#utility.yul\":1550:1560   */\n          dup3\n            /* \"#utility.yul\":1547:1581   */\n          gt\n            /* \"#utility.yul\":1544:1606   */\n          or\n            /* \"#utility.yul\":1541:1629   */\n          iszero\n          tag_109\n          jumpi\n            /* \"#utility.yul\":1609:1627   */\n          tag_110\n          tag_72\n          jump\t// in\n        tag_110:\n            /* \"#utility.yul\":1541:1629   */\n        tag_109:\n            /* \"#utility.yul\":1649:1659   */\n          dup1\n            /* \"#utility.yul\":1645:1647   */\n          0x40\n            /* \"#utility.yul\":1638:1660   */\n          mstore\n            /* \"#utility.yul\":1428:1666   */\n          pop\n            /* \"#utility.yul\":1385:1666   */\n          pop\n          pop\n          jump\t// out\n            /* \"#utility.yul\":1672:1801   */\n        tag_74:\n            /* \"#utility.yul\":1706:1712   */\n          0x00\n            /* \"#utility.yul\":1733:1753   */\n          tag_112\n          tag_62\n          jump\t// in\n        tag_112:\n            /* \"#utility.yul\":1723:1753   */\n          swap1\n          pop\n            /* \"#utility.yul\":1762:1795   */\n          tag_113\n            /* \"#utility.yul\":1790:1794   */\n          dup3\n            /* \"#utility.yul\":1782:1788   */\n          dup3\n            /* \"#utility.yul\":1762:1795   */\n          tag_73\n          jump\t// in\n        tag_113:\n            /* \"#utility.yul\":1672:1801   */\n          swap2\n          swap1\n          pop\n          jump\t// out\n            /* \"#utility.yul\":1807:2114   */\n        tag_75:\n            /* \"#utility.yul\":1868:1872   */\n          0x00\n            /* \"#utility.yul\":1958:1976   */\n          0xffffffffffffffff\n            /* \"#utility.yul\":1950:1956   */\n          dup3\n            /* \"#utility.yul\":1947:1977   */\n          gt\n            /* \"#utility.yul\":1944:2000   */\n          iszero\n          tag_115\n          jumpi\n            /* \"#utility.yul\":1980:1998   */\n          tag_116\n          tag_72\n          jump\t// in\n        tag_116:\n            /* \"#utility.yul\":1944:2000   */\n        tag_115:\n            /* \"#utility.yul\":2018:2047   */\n          tag_117\n            /* \"#utility.yul\":2040:2046   */\n          dup3\n            /* \"#utility.yul\":2018:2047   */\n          tag_71\n          jump\t// in\n        tag_117:\n            /* \"#utility.yul\":2010:2047   */\n          swap1\n          pop\n            /* \"#utility.yul\":2102:2106   */\n          0x20\n            /* \"#utility.yul\":2096:2100   */\n          dup2\n            /* \"#utility.yul\":2092:2107   */\n          add\n            /* \"#utility.yul\":2084:2107   */\n          swap1\n          pop\n            /* \"#utility.yul\":1807:2114   */\n          swap2\n          swap1\n          pop\n          jump\t// out\n            /* \"#utility.yul\":2120:2259   */\n        tag_76:\n            /* \"#utility.yul\":2209:2215   */\n          dup3\n            /* \"#utility.yul\":2204:2207   */\n          dup2\n            /* \"#utility.yul\":2199:2202   */\n          dup4\n            /* \"#utility.yul\":2193:2216   */\n          mcopy\n            /* \"#utility.yul\":2250:2251   */\n          0x00\n            /* \"#utility.yul\":2241:2247   */\n          dup4\n            /* \"#utility.yul\":2236:2239   */\n          dup4\n            /* \"#utility.yul\":2232:2248   */\n          add\n            /* \"#utility.yul\":2225:2252   */\n          mstore\n            /* \"#utility.yul\":2120:2259   */\n          pop\n          pop\n          pop\n          jump\t// out\n            /* \"#utility.yul\":2265:2697   */\n        tag_77:\n            /* \"#utility.yul\":2353:2358   */\n          0x00\n            /* \"#utility.yul\":2378:2443   */\n          tag_120\n            /* \"#utility.yul\":2394:2442   */\n          tag_121\n            /* \"#utility.yul\":2435:2441   */\n          dup5\n            /* \"#utility.yul\":2394:2442   */\n          tag_75\n          jump\t// in\n        tag_121:\n            /* \"#utility.yul\":2378:2443   */\n          tag_74\n          jump\t// in\n        tag_120:\n            /* \"#utility.yul\":2369:2443   */\n          swap1\n          pop\n            /* \"#utility.yul\":2466:2472   */\n          dup3\n            /* \"#utility.yul\":2459:2464   */\n          dup2\n            /* \"#utility.yul\":2452:2473   */\n          mstore\n            /* \"#utility.yul\":2504:2508   */\n          0x20\n            /* \"#utility.yul\":2497:2502   */\n          dup2\n            /* \"#utility.yul\":2493:2509   */\n          add\n            /* \"#utility.yul\":2542:2545   */\n          dup5\n            /* \"#utility.yul\":2533:2539   */\n          dup5\n            /* \"#utility.yul\":2528:2531   */\n          dup5\n            /* \"#utility.yul\":2524:2540   */\n          add\n            /* \"#utility.yul\":2521:2546   */\n          gt\n            /* \"#utility.yul\":2518:2630   */\n          iszero\n          tag_122\n          jumpi\n            /* \"#utility.yul\":2549:2628   */\n          tag_123\n          tag_70\n          jump\t// in\n        tag_123:\n            /* \"#utility.yul\":2518:2630   */\n        tag_122:\n            /* \"#utility.yul\":2639:2691   */\n          tag_124\n            /* \"#utility.yul\":2684:2690   */\n          dup5\n            /* \"#utility.yul\":2679:2682   */\n          dup3\n            /* \"#utility.yul\":2674:2677   */\n          dup6\n            /* \"#utility.yul\":2639:2691   */\n          tag_76\n          jump\t// in\n        tag_124:\n            /* \"#utility.yul\":2359:2697   */\n          pop\n            /* \"#utility.yul\":2265:2697   */\n          swap4\n          swap3\n          pop\n          pop\n          pop\n          jump\t// out\n            /* \"#utility.yul\":2716:3069   */\n        tag_78:\n            /* \"#utility.yul\":2782:2787   */\n          0x00\n            /* \"#utility.yul\":2831:2834   */\n          dup3\n            /* \"#utility.yul\":2824:2828   */\n          0x1f\n            /* \"#utility.yul\":2816:2822   */\n          dup4\n            /* \"#utility.yul\":2812:2829   */\n          add\n            /* \"#utility.yul\":2808:2835   */\n          slt\n            /* \"#utility.yul\":2798:2920   */\n          tag_126\n          jumpi\n            /* \"#utility.yul\":2839:2918   */\n          tag_127\n          tag_69\n          jump\t// in\n        tag_127:\n            /* \"#utility.yul\":2798:2920   */\n        tag_126:\n            /* \"#utility.yul\":2949:2955   */\n          dup2\n            /* \"#utility.yul\":2943:2956   */\n          mload\n            /* \"#utility.yul\":2974:3063   */\n          tag_128\n            /* \"#utility.yul\":3059:3062   */\n          dup5\n            /* \"#utility.yul\":3051:3057   */\n          dup3\n            /* \"#utility.yul\":3044:3048   */\n          0x20\n            /* \"#utility.yul\":3036:3042   */\n          dup7\n            /* \"#utility.yul\":3032:3049   */\n          add\n            /* \"#utility.yul\":2974:3063   */\n          tag_77\n          jump\t// in\n        tag_128:\n            /* \"#utility.yul\":2965:3063   */\n          swap2\n          pop\n            /* \"#utility.yul\":2788:3069   */\n          pop\n            /* \"#utility.yul\":2716:3069   */\n          swap3\n          swap2\n          pop\n          pop\n          jump\t// out\n            /* \"#utility.yul\":3075:3753   */\n        tag_2:\n            /* \"#utility.yul\":3163:3169   */\n          0x00\n            /* \"#utility.yul\":3171:3177   */\n          dup1\n            /* \"#utility.yul\":3220:3222   */\n          0x40\n            /* \"#utility.yul\":3208:3217   */\n          dup4\n            /* \"#utility.yul\":3199:3206   */\n          dup6\n            /* \"#utility.yul\":3195:3218   */\n          sub\n            /* \"#utility.yul\":3191:3223   */\n          slt\n            /* \"#utility.yul\":3188:3307   */\n          iszero\n          tag_130\n          jumpi\n            /* \"#utility.yul\":3226:3305   */\n          tag_131\n          tag_63\n          jump\t// in\n        tag_131:\n            /* \"#utility.yul\":3188:3307   */\n        tag_130:\n            /* \"#utility.yul\":3346:3347   */\n          0x00\n            /* \"#utility.yul\":3371:3435   */\n          tag_132\n            /* \"#utility.yul\":3427:3434   */\n          dup6\n            /* \"#utility.yul\":3418:3424   */\n          dup3\n            /* \"#utility.yul\":3407:3416   */\n          dup7\n            /* \"#utility.yul\":3403:3425   */\n          add\n            /* \"#utility.yul\":3371:3435   */\n          tag_68\n          jump\t// in\n        tag_132:\n            /* \"#utility.yul\":3361:3435   */\n          swap3\n          pop\n            /* \"#utility.yul\":3317:3445   */\n          pop\n            /* \"#utility.yul\":3505:3507   */\n          0x20\n            /* \"#utility.yul\":3494:3503   */\n          dup4\n            /* \"#utility.yul\":3490:3508   */\n          add\n            /* \"#utility.yul\":3484:3509   */\n          mload\n            /* \"#utility.yul\":3536:3554   */\n          0xffffffffffffffff\n            /* \"#utility.yul\":3528:3534   */\n          dup2\n            /* \"#utility.yul\":3525:3555   */\n          gt\n            /* \"#utility.yul\":3522:3639   */\n          iszero\n          tag_133\n          jumpi\n            /* \"#utility.yul\":3558:3637   */\n          tag_134\n          tag_64\n          jump\t// in\n        tag_134:\n            /* \"#utility.yul\":3522:3639   */\n        tag_133:\n            /* \"#utility.yul\":3663:3736   */\n          tag_135\n            /* \"#utility.yul\":3728:3735   */\n          dup6\n            /* \"#utility.yul\":3719:3725   */\n          dup3\n            /* \"#utility.yul\":3708:3717   */\n          dup7\n            /* \"#utility.yul\":3704:3726   */\n          add\n            /* \"#utility.yul\":3663:3736   */\n          tag_78\n          jump\t// in\n        tag_135:\n            /* \"#utility.yul\":3653:3736   */\n          swap2\n          pop\n            /* \"#utility.yul\":3455:3746   */\n          pop\n            /* \"#utility.yul\":3075:3753   */\n          swap3\n          pop\n          swap3\n          swap1\n          pop\n          jump\t// out\n            /* \"#utility.yul\":3759:4110   */\n        tag_17:\n            /* \"#utility.yul\":3829:3835   */\n          0x00\n            /* \"#utility.yul\":3878:3880   */\n          0x20\n            /* \"#utility.yul\":3866:3875   */\n          dup3\n            /* \"#utility.yul\":3857:3864   */\n          dup5\n            /* \"#utility.yul\":3853:3876   */\n          sub\n            /* \"#utility.yul\":3849:3881   */\n          slt\n            /* \"#utility.yul\":3846:3965   */\n          iszero\n          tag_137\n          jumpi\n            /* \"#utility.yul\":3884:3963   */\n          tag_138\n          tag_63\n          jump\t// in\n        tag_138:\n            /* \"#utility.yul\":3846:3965   */\n        tag_137:\n            /* \"#utility.yul\":4004:4005   */\n          0x00\n            /* \"#utility.yul\":4029:4093   */\n          tag_139\n            /* \"#utility.yul\":4085:4092   */\n          dup5\n            /* \"#utility.yul\":4076:4082   */\n          dup3\n            /* \"#utility.yul\":4065:4074   */\n          dup6\n            /* \"#utility.yul\":4061:4083   */\n          add\n            /* \"#utility.yul\":4029:4093   */\n          tag_68\n          jump\t// in\n        tag_139:\n            /* \"#utility.yul\":4019:4093   */\n          swap2\n          pop\n            /* \"#utility.yul\":3975:4103   */\n          pop\n            /* \"#utility.yul\":3759:4110   */\n          swap3\n          swap2\n          pop\n          pop\n          jump\t// out\n            /* \"#utility.yul\":4116:4285   */\n        tag_79:\n            /* \"#utility.yul\":4200:4211   */\n          0x00\n            /* \"#utility.yul\":4234:4240   */\n          dup3\n            /* \"#utility.yul\":4229:4232   */\n          dup3\n            /* \"#utility.yul\":4222:4241   */\n          mstore\n            /* \"#utility.yul\":4274:4278   */\n          0x20\n            /* \"#utility.yul\":4269:4272   */\n          dup3\n            /* \"#utility.yul\":4265:4279   */\n          add\n            /* \"#utility.yul\":4250:4279   */\n          swap1\n          pop\n            /* \"#utility.yul\":4116:4285   */\n          swap3\n          swap2\n          pop\n          pop\n          jump\t// out\n            /* \"#utility.yul\":4291:4515   */\n        tag_80:\n            /* \"#utility.yul\":4431:4465   */\n          0x455243313936373a206e657720626561636f6e206973206e6f74206120636f6e\n            /* \"#utility.yul\":4427:4428   */\n          0x00\n            /* \"#utility.yul\":4419:4425   */\n          dup3\n            /* \"#utility.yul\":4415:4429   */\n          add\n            /* \"#utility.yul\":4408:4466   */\n          mstore\n            /* \"#utility.yul\":4500:4507   */\n          0x7472616374000000000000000000000000000000000000000000000000000000\n            /* \"#utility.yul\":4495:4497   */\n          0x20\n            /* \"#utility.yul\":4487:4493   */\n          dup3\n            /* \"#utility.yul\":4483:4498   */\n          add\n            /* \"#utility.yul\":4476:4508   */\n          mstore\n            /* \"#utility.yul\":4291:4515   */\n          pop\n          jump\t// out\n            /* \"#utility.yul\":4521:4887   */\n        tag_81:\n            /* \"#utility.yul\":4663:4666   */\n          0x00\n            /* \"#utility.yul\":4684:4751   */\n          tag_143\n            /* \"#utility.yul\":4748:4750   */\n          0x25\n            /* \"#utility.yul\":4743:4746   */\n          dup4\n            /* \"#utility.yul\":4684:4751   */\n          tag_79\n          jump\t// in\n        tag_143:\n            /* \"#utility.yul\":4677:4751   */\n          swap2\n          pop\n            /* \"#utility.yul\":4760:4853   */\n          tag_144\n            /* \"#utility.yul\":4849:4852   */\n          dup3\n            /* \"#utility.yul\":4760:4853   */\n          tag_80\n          jump\t// in\n        tag_144:\n            /* \"#utility.yul\":4878:4880   */\n          0x40\n            /* \"#utility.yul\":4873:4876   */\n          dup3\n            /* \"#utility.yul\":4869:4881   */\n          add\n            /* \"#utility.yul\":4862:4881   */\n          swap1\n          pop\n            /* \"#utility.yul\":4521:4887   */\n          swap2\n          swap1\n          pop\n          jump\t// out\n            /* \"#utility.yul\":4893:5312   */\n        tag_24:\n            /* \"#utility.yul\":5059:5063   */\n          0x00\n            /* \"#utility.yul\":5097:5099   */\n          0x20\n            /* \"#utility.yul\":5086:5095   */\n          dup3\n            /* \"#utility.yul\":5082:5100   */\n          add\n            /* \"#utility.yul\":5074:5100   */\n          swap1\n          pop\n            /* \"#utility.yul\":5146:5155   */\n          dup2\n            /* \"#utility.yul\":5140:5144   */\n          dup2\n            /* \"#utility.yul\":5136:5156   */\n          sub\n            /* \"#utility.yul\":5132:5133   */\n          0x00\n            /* \"#utility.yul\":5121:5130   */\n          dup4\n            /* \"#utility.yul\":5117:5134   */\n          add\n            /* \"#utility.yul\":5110:5157   */\n          mstore\n            /* \"#utility.yul\":5174:5305   */\n          tag_146\n            /* \"#utility.yul\":5300:5304   */\n          dup2\n            /* \"#utility.yul\":5174:5305   */\n          tag_81\n          jump\t// in\n        tag_146:\n            /* \"#utility.yul\":5166:5305   */\n          swap1\n          pop\n            /* \"#utility.yul\":4893:5312   */\n          swap2\n          swap1\n          pop\n          jump\t// out\n            /* \"#utility.yul\":5318:5553   */\n        tag_82:\n            /* \"#utility.yul\":5458:5492   */\n          0x455243313936373a20626561636f6e20696d706c656d656e746174696f6e2069\n            /* \"#utility.yul\":5454:5455   */\n          0x00\n            /* \"#utility.yul\":5446:5452   */\n          dup3\n            /* \"#utility.yul\":5442:5456   */\n          add\n            /* \"#utility.yul\":5435:5493   */\n          mstore\n            /* \"#utility.yul\":5527:5545   */\n          0x73206e6f74206120636f6e747261637400000000000000000000000000000000\n            /* \"#utility.yul\":5522:5524   */\n          0x20\n            /* \"#utility.yul\":5514:5520   */\n          dup3\n            /* \"#utility.yul\":5510:5525   */\n          add\n            /* \"#utility.yul\":5503:5546   */\n          mstore\n            /* \"#utility.yul\":5318:5553   */\n          pop\n          jump\t// out\n            /* \"#utility.yul\":5559:5925   */\n        tag_83:\n            /* \"#utility.yul\":5701:5704   */\n          0x00\n            /* \"#utility.yul\":5722:5789   */\n          tag_149\n            /* \"#utility.yul\":5786:5788   */\n          0x30\n            /* \"#utility.yul\":5781:5784   */\n          dup4\n            /* \"#utility.yul\":5722:5789   */\n          tag_79\n          jump\t// in\n        tag_149:\n            /* \"#utility.yul\":5715:5789   */\n          swap2\n          pop\n            /* \"#utility.yul\":5798:5891   */\n          tag_150\n            /* \"#utility.yul\":5887:5890   */\n          dup3\n            /* \"#utility.yul\":5798:5891   */\n          tag_82\n          jump\t// in\n        tag_150:\n            /* \"#utility.yul\":5916:5918   */\n          0x40\n            /* \"#utility.yul\":5911:5914   */\n          dup3\n            /* \"#utility.yul\":5907:5919   */\n          add\n            /* \"#utility.yul\":5900:5919   */\n          swap1\n          pop\n            /* \"#utility.yul\":5559:5925   */\n          swap2\n          swap1\n          pop\n          jump\t// out\n            /* \"#utility.yul\":5931:6350   */\n        tag_31:\n            /* \"#utility.yul\":6097:6101   */\n          0x00\n            /* \"#utility.yul\":6135:6137   */\n          0x20\n            /* \"#utility.yul\":6124:6133   */\n          dup3\n            /* \"#utility.yul\":6120:6138   */\n          add\n            /* \"#utility.yul\":6112:6138   */\n          swap1\n          pop\n            /* \"#utility.yul\":6184:6193   */\n          dup2\n            /* \"#utility.yul\":6178:6182   */\n          dup2\n            /* \"#utility.yul\":6174:6194   */\n          sub\n            /* \"#utility.yul\":6170:6171   */\n          0x00\n            /* \"#utility.yul\":6159:6168   */\n          dup4\n            /* \"#utility.yul\":6155:6172   */\n          add\n            /* \"#utility.yul\":6148:6195   */\n          mstore\n            /* \"#utility.yul\":6212:6343   */\n          tag_152\n            /* \"#utility.yul\":6338:6342   */\n          dup2\n            /* \"#utility.yul\":6212:6343   */\n          tag_83\n          jump\t// in\n        tag_152:\n            /* \"#utility.yul\":6204:6343   */\n          swap1\n          pop\n            /* \"#utility.yul\":5931:6350   */\n          swap2\n          swap1\n          pop\n          jump\t// out\n            /* \"#utility.yul\":6356:6454   */\n        tag_84:\n            /* \"#utility.yul\":6407:6413   */\n          0x00\n            /* \"#utility.yul\":6441:6446   */\n          dup2\n            /* \"#utility.yul\":6435:6447   */\n          mload\n            /* \"#utility.yul\":6425:6447   */\n          swap1\n          pop\n            /* \"#utility.yul\":6356:6454   */\n          swap2\n          swap1\n          pop\n          jump\t// out\n            /* \"#utility.yul\":6460:6607   */\n        tag_85:\n            /* \"#utility.yul\":6561:6572   */\n          0x00\n            /* \"#utility.yul\":6598:6601   */\n          dup2\n            /* \"#utility.yul\":6583:6601   */\n          swap1\n          pop\n            /* \"#utility.yul\":6460:6607   */\n          swap3\n          swap2\n          pop\n          pop\n          jump\t// out\n            /* \"#utility.yul\":6613:6999   */\n        tag_86:\n            /* \"#utility.yul\":6717:6720   */\n          0x00\n            /* \"#utility.yul\":6745:6783   */\n          tag_156\n            /* \"#utility.yul\":6777:6782   */\n          dup3\n            /* \"#utility.yul\":6745:6783   */\n          tag_84\n          jump\t// in\n        tag_156:\n            /* \"#utility.yul\":6799:6887   */\n          tag_157\n            /* \"#utility.yul\":6880:6886   */\n          dup2\n            /* \"#utility.yul\":6875:6878   */\n          dup6\n            /* \"#utility.yul\":6799:6887   */\n          tag_85\n          jump\t// in\n        tag_157:\n            /* \"#utility.yul\":6792:6887   */\n          swap4\n          pop\n            /* \"#utility.yul\":6896:6961   */\n          tag_158\n            /* \"#utility.yul\":6954:6960   */\n          dup2\n            /* \"#utility.yul\":6949:6952   */\n          dup6\n            /* \"#utility.yul\":6942:6946   */\n          0x20\n            /* \"#utility.yul\":6935:6940   */\n          dup7\n            /* \"#utility.yul\":6931:6947   */\n          add\n            /* \"#utility.yul\":6896:6961   */\n          tag_76\n          jump\t// in\n        tag_158:\n            /* \"#utility.yul\":6986:6992   */\n          dup1\n            /* \"#utility.yul\":6981:6984   */\n          dup5\n            /* \"#utility.yul\":6977:6993   */\n          add\n            /* \"#utility.yul\":6970:6993   */\n          swap2\n          pop\n            /* \"#utility.yul\":6721:6999   */\n          pop\n            /* \"#utility.yul\":6613:6999   */\n          swap3\n          swap2\n          pop\n          pop\n          jump\t// out\n            /* \"#utility.yul\":7005:7276   */\n        tag_41:\n            /* \"#utility.yul\":7135:7138   */\n          0x00\n            /* \"#utility.yul\":7157:7250   */\n          tag_160\n            /* \"#utility.yul\":7246:7249   */\n          dup3\n            /* \"#utility.yul\":7237:7243   */\n          dup5\n            /* \"#utility.yul\":7157:7250   */\n          tag_86\n          jump\t// in\n        tag_160:\n            /* \"#utility.yul\":7150:7250   */\n          swap2\n          pop\n            /* \"#utility.yul\":7267:7270   */\n          dup2\n            /* \"#utility.yul\":7260:7270   */\n          swap1\n          pop\n            /* \"#utility.yul\":7005:7276   */\n          swap3\n          swap2\n          pop\n          pop\n          jump\t// out\n            /* \"#utility.yul\":7282:7461   */\n        tag_87:\n            /* \"#utility.yul\":7422:7453   */\n          0x416464726573733a2063616c6c20746f206e6f6e2d636f6e7472616374000000\n            /* \"#utility.yul\":7418:7419   */\n          0x00\n            /* \"#utility.yul\":7410:7416   */\n          dup3\n            /* \"#utility.yul\":7406:7420   */\n          add\n            /* \"#utility.yul\":7399:7454   */\n          mstore\n            /* \"#utility.yul\":7282:7461   */\n          pop\n          jump\t// out\n            /* \"#utility.yul\":7467:7833   */\n        tag_88:\n            /* \"#utility.yul\":7609:7612   */\n          0x00\n            /* \"#utility.yul\":7630:7697   */\n          tag_163\n            /* \"#utility.yul\":7694:7696   */\n          0x1d\n            /* \"#utility.yul\":7689:7692   */\n          dup4\n            /* \"#utility.yul\":7630:7697   */\n          tag_79\n          jump\t// in\n        tag_163:\n            /* \"#utility.yul\":7623:7697   */\n          swap2\n          pop\n            /* \"#utility.yul\":7706:7799   */\n          tag_164\n            /* \"#utility.yul\":7795:7798   */\n          dup3\n            /* \"#utility.yul\":7706:7799   */\n          tag_87\n          jump\t// in\n        tag_164:\n            /* \"#utility.yul\":7824:7826   */\n          0x20\n            /* \"#utility.yul\":7819:7822   */\n          dup3\n            /* \"#utility.yul\":7815:7827   */\n          add\n            /* \"#utility.yul\":7808:7827   */\n          swap1\n          pop\n            /* \"#utility.yul\":7467:7833   */\n          swap2\n          swap1\n          pop\n          jump\t// out\n            /* \"#utility.yul\":7839:8258   */\n        tag_53:\n            /* \"#utility.yul\":8005:8009   */\n          0x00\n            /* \"#utility.yul\":8043:8045   */\n          0x20\n            /* \"#utility.yul\":8032:8041   */\n          dup3\n            /* \"#utility.yul\":8028:8046   */\n          add\n            /* \"#utility.yul\":8020:8046   */\n          swap1\n          pop\n            /* \"#utility.yul\":8092:8101   */\n          dup2\n            /* \"#utility.yul\":8086:8090   */\n          dup2\n            /* \"#utility.yul\":8082:8102   */\n          sub\n            /* \"#utility.yul\":8078:8079   */\n          0x00\n            /* \"#utility.yul\":8067:8076   */\n          dup4\n            /* \"#utility.yul\":8063:8080   */\n          add\n            /* \"#utility.yul\":8056:8103   */\n          mstore\n            /* \"#utility.yul\":8120:8251   */\n          tag_166\n            /* \"#utility.yul\":8246:8250   */\n          dup2\n            /* \"#utility.yul\":8120:8251   */\n          tag_88\n          jump\t// in\n        tag_166:\n            /* \"#utility.yul\":8112:8251   */\n          swap1\n          pop\n            /* \"#utility.yul\":7839:8258   */\n          swap2\n          swap1\n          pop\n          jump\t// out\n            /* \"#utility.yul\":8264:8363   */\n        tag_89:\n            /* \"#utility.yul\":8316:8322   */\n          0x00\n            /* \"#utility.yul\":8350:8355   */\n          dup2\n            /* \"#utility.yul\":8344:8356   */\n          mload\n            /* \"#utility.yul\":8334:8356   */\n          swap1\n          pop\n            /* \"#utility.yul\":8264:8363   */\n          swap2\n          swap1\n          pop\n          jump\t// out\n            /* \"#utility.yul\":8369:8746   */\n        tag_90:\n            /* \"#utility.yul\":8457:8460   */\n          0x00\n            /* \"#utility.yul\":8485:8524   */\n          tag_169\n            /* \"#utility.yul\":8518:8523   */\n          dup3\n            /* \"#utility.yul\":8485:8524   */\n          tag_89\n          jump\t// in\n        tag_169:\n            /* \"#utility.yul\":8540:8611   */\n          tag_170\n            /* \"#utility.yul\":8604:8610   */\n          dup2\n            /* \"#utility.yul\":8599:8602   */\n          dup6\n            /* \"#utility.yul\":8540:8611   */\n          tag_79\n          jump\t// in\n        tag_170:\n            /* \"#utility.yul\":8533:8611   */\n          swap4\n          pop\n            /* \"#utility.yul\":8620:8685   */\n          tag_171\n            /* \"#utility.yul\":8678:8684   */\n          dup2\n            /* \"#utility.yul\":8673:8676   */\n          dup6\n            /* \"#utility.yul\":8666:8670   */\n          0x20\n            /* \"#utility.yul\":8659:8664   */\n          dup7\n            /* \"#utility.yul\":8655:8671   */\n          add\n            /* \"#utility.yul\":8620:8685   */\n          tag_76\n          jump\t// in\n        tag_171:\n            /* \"#utility.yul\":8710:8739   */\n          tag_172\n            /* \"#utility.yul\":8732:8738   */\n          dup2\n            /* \"#utility.yul\":8710:8739   */\n          tag_71\n          jump\t// in\n        tag_172:\n            /* \"#utility.yul\":8705:8708   */\n          dup5\n            /* \"#utility.yul\":8701:8740   */\n          add\n            /* \"#utility.yul\":8694:8740   */\n          swap2\n          pop\n            /* \"#utility.yul\":8461:8746   */\n          pop\n            /* \"#utility.yul\":8369:8746   */\n          swap3\n          swap2\n          pop\n          pop\n          jump\t// out\n            /* \"#utility.yul\":8752:9065   */\n        tag_61:\n            /* \"#utility.yul\":8865:8869   */\n          0x00\n            /* \"#utility.yul\":8903:8905   */\n          0x20\n            /* \"#utility.yul\":8892:8901   */\n          dup3\n            /* \"#utility.yul\":8888:8906   */\n          add\n            /* \"#utility.yul\":8880:8906   */\n          swap1\n          pop\n            /* \"#utility.yul\":8952:8961   */\n          dup2\n            /* \"#utility.yul\":8946:8950   */\n          dup2\n            /* \"#utility.yul\":8942:8962   */\n          sub\n            /* \"#utility.yul\":8938:8939   */\n          0x00\n            /* \"#utility.yul\":8927:8936   */\n          dup4\n            /* \"#utility.yul\":8923:8940   */\n          add\n            /* \"#utility.yul\":8916:8963   */\n          mstore\n            /* \"#utility.yul\":8980:9058   */\n          tag_174\n            /* \"#utility.yul\":9053:9057   */\n          dup2\n            /* \"#utility.yul\":9044:9050   */\n          dup5\n            /* \"#utility.yul\":8980:9058   */\n          tag_90\n          jump\t// in\n        tag_174:\n            /* \"#utility.yul\":8972:9058   */\n          swap1\n          pop\n            /* \"#utility.yul\":8752:9065   */\n          swap3\n          swap2\n          pop\n          pop\n          jump\t// out\n            /* \"@openzeppelin/contracts/proxy/beacon/BeaconProxy.sol\":580:2095  contract BeaconProxy is Proxy, ERC1967Upgrade {... */\n        tag_7:\n          dataSize(sub_0)\n          dup1\n          dataOffset(sub_0)\n          0x00\n          codecopy\n          0x00\n          return\n        stop\n        data_9fdcd12e4b726339b32a442b0a448365d5d85c96b2d2cff917b4f66c63110398 416464726573733a206c6f772d6c6576656c2064656c65676174652063616c6c206661696c6564\n\n        sub_0: assembly {\n                /* \"@openzeppelin/contracts/proxy/beacon/BeaconProxy.sol\":580:2095  contract BeaconProxy is Proxy, ERC1967Upgrade {... */\n              mstore(0x40, 0x80)\n              jumpi(tag_2, calldatasize)\n                /* \"@openzeppelin/contracts/proxy/Proxy.sol\":2898:2909  _fallback() */\n              tag_5\n                /* \"@openzeppelin/contracts/proxy/Proxy.sol\":2898:2907  _fallback */\n              tag_6\n                /* \"@openzeppelin/contracts/proxy/Proxy.sol\":2898:2909  _fallback() */\n              jump\t// in\n            tag_5:\n                /* \"@openzeppelin/contracts/proxy/beacon/BeaconProxy.sol\":580:2095  contract BeaconProxy is Proxy, ERC1967Upgrade {... */\n              stop\n            tag_2:\n                /* \"@openzeppelin/contracts/proxy/Proxy.sol\":2675:2686  _fallback() */\n              tag_9\n                /* \"@openzeppelin/contracts/proxy/Proxy.sol\":2675:2684  _fallback */\n              tag_6\n                /* \"@openzeppelin/contracts/proxy/Proxy.sol\":2675:2686  _fallback() */\n              jump\t// in\n            tag_9:\n                /* \"@openzeppelin/contracts/proxy/beacon/BeaconProxy.sol\":580:2095  contract BeaconProxy is Proxy, ERC1967Upgrade {... */\n              stop\n                /* \"@openzeppelin/contracts/proxy/Proxy.sol\":2322:2432  function _fallback() internal virtual {... */\n            tag_6:\n                /* \"@openzeppelin/contracts/proxy/Proxy.sol\":2370:2387  _beforeFallback() */\n              tag_11\n                /* \"@openzeppelin/contracts/proxy/Proxy.sol\":2370:2385  _beforeFallback */\n              tag_12\n                /* \"@openzeppelin/contracts/proxy/Proxy.sol\":2370:2387  _beforeFallback() */\n              jump\t// in\n            tag_11:\n                /* \"@openzeppelin/contracts/proxy/Proxy.sol\":2397:2425  _delegate(_implementation()) */\n              tag_13\n                /* \"@openzeppelin/contracts/proxy/Proxy.sol\":2407:2424  _implementation() */\n              tag_14\n                /* \"@openzeppelin/contracts/proxy/Proxy.sol\":2407:2422  _implementation */\n              tag_15\n                /* \"@openzeppelin/contracts/proxy/Proxy.sol\":2407:2424  _implementation() */\n              jump\t// in\n            tag_14:\n                /* \"@openzeppelin/contracts/proxy/Proxy.sol\":2397:2406  _delegate */\n              tag_16\n                /* \"@openzeppelin/contracts/proxy/Proxy.sol\":2397:2425  _delegate(_implementation()) */\n              jump\t// in\n            tag_13:\n                /* \"@openzeppelin/contracts/proxy/Proxy.sol\":2322:2432  function _fallback() internal virtual {... */\n              jump\t// out\n                /* \"@openzeppelin/contracts/proxy/Proxy.sol\":3198:3244  function _beforeFallback() internal virtual {} */\n            tag_12:\n              jump\t// out\n                /* \"@openzeppelin/contracts/proxy/beacon/BeaconProxy.sol\":1444:1582  function _implementation() internal view virtual override returns (address) {... */\n            tag_15:\n                /* \"@openzeppelin/contracts/proxy/beacon/BeaconProxy.sol\":1511:1518  address */\n              0x00\n                /* \"@openzeppelin/contracts/proxy/beacon/BeaconProxy.sol\":1545:1557  _getBeacon() */\n              tag_19\n                /* \"@openzeppelin/contracts/proxy/beacon/BeaconProxy.sol\":1545:1555  _getBeacon */\n              tag_20\n                /* \"@openzeppelin/contracts/proxy/beacon/BeaconProxy.sol\":1545:1557  _getBeacon() */\n              jump\t// in\n            tag_19:\n                /* \"@openzeppelin/contracts/proxy/beacon/BeaconProxy.sol\":1537:1573  IBeacon(_getBeacon()).implementation */\n              0xffffffffffffffffffffffffffffffffffffffff\n              and\n              0x5c60da1b\n                /* \"@openzeppelin/contracts/proxy/beacon/BeaconProxy.sol\":1537:1575  IBeacon(_getBeacon()).implementation() */\n              mload(0x40)\n              dup2\n              0xffffffff\n              and\n              0xe0\n              shl\n              dup2\n              mstore\n              0x04\n              add\n              0x20\n              mload(0x40)\n              dup1\n              dup4\n              sub\n              dup2\n              dup7\n              gas\n              staticcall\n              iszero\n              dup1\n              iszero\n              tag_22\n              jumpi\n              returndatasize\n              0x00\n              dup1\n              returndatacopy\n              revert(0x00, returndatasize)\n            tag_22:\n              pop\n              pop\n              pop\n              pop\n              mload(0x40)\n              returndatasize\n              not(0x1f)\n              0x1f\n              dup3\n              add\n              and\n              dup3\n              add\n              dup1\n              0x40\n              mstore\n              pop\n              dup2\n              add\n              swap1\n              tag_23\n              swap2\n              swap1\n              tag_24\n              jump\t// in\n            tag_23:\n                /* \"@openzeppelin/contracts/proxy/beacon/BeaconProxy.sol\":1530:1575  return IBeacon(_getBeacon()).implementation() */\n              swap1\n              pop\n                /* \"@openzeppelin/contracts/proxy/beacon/BeaconProxy.sol\":1444:1582  function _implementation() internal view virtual override returns (address) {... */\n              swap1\n              jump\t// out\n                /* \"@openzeppelin/contracts/proxy/Proxy.sol\":948:1843  function _delegate(address implementation) internal virtual {... */\n            tag_16:\n                /* \"@openzeppelin/contracts/proxy/Proxy.sol\":1286:1300  calldatasize() */\n              calldatasize\n                /* \"@openzeppelin/contracts/proxy/Proxy.sol\":1283:1284  0 */\n              0x00\n                /* \"@openzeppelin/contracts/proxy/Proxy.sol\":1280:1281  0 */\n              dup1\n                /* \"@openzeppelin/contracts/proxy/Proxy.sol\":1267:1301  calldatacopy(0, 0, calldatasize()) */\n              calldatacopy\n                /* \"@openzeppelin/contracts/proxy/Proxy.sol\":1500:1501  0 */\n              0x00\n                /* \"@openzeppelin/contracts/proxy/Proxy.sol\":1497:1498  0 */\n              dup1\n                /* \"@openzeppelin/contracts/proxy/Proxy.sol\":1481:1495  calldatasize() */\n              calldatasize\n                /* \"@openzeppelin/contracts/proxy/Proxy.sol\":1478:1479  0 */\n              0x00\n                /* \"@openzeppelin/contracts/proxy/Proxy.sol\":1462:1476  implementation */\n              dup5\n                /* \"@openzeppelin/contracts/proxy/Proxy.sol\":1455:1460  gas() */\n              gas\n                /* \"@openzeppelin/contracts/proxy/Proxy.sol\":1442:1502  delegatecall(gas(), implementation, 0, calldatasize(), 0, 0) */\n              delegatecall\n                /* \"@openzeppelin/contracts/proxy/Proxy.sol\":1576:1592  returndatasize() */\n              returndatasize\n                /* \"@openzeppelin/contracts/proxy/Proxy.sol\":1573:1574  0 */\n              0x00\n                /* \"@openzeppelin/contracts/proxy/Proxy.sol\":1570:1571  0 */\n              dup1\n                /* \"@openzeppelin/contracts/proxy/Proxy.sol\":1555:1593  returndatacopy(0, 0, returndatasize()) */\n              returndatacopy\n                /* \"@openzeppelin/contracts/proxy/Proxy.sol\":1614:1620  result */\n              dup1\n                /* \"@openzeppelin/contracts/proxy/Proxy.sol\":1686:1687  0 */\n              0x00\n                /* \"@openzeppelin/contracts/proxy/Proxy.sol\":1681:1747  case 0 {... */\n              dup2\n              eq\n              tag_27\n              jumpi\n                /* \"@openzeppelin/contracts/proxy/Proxy.sol\":1796:1812  returndatasize() */\n              returndatasize\n                /* \"@openzeppelin/contracts/proxy/Proxy.sol\":1793:1794  0 */\n              0x00\n                /* \"@openzeppelin/contracts/proxy/Proxy.sol\":1786:1813  return(0, returndatasize()) */\n              return\n                /* \"@openzeppelin/contracts/proxy/Proxy.sol\":1681:1747  case 0 {... */\n            tag_27:\n                /* \"@openzeppelin/contracts/proxy/Proxy.sol\":1716:1732  returndatasize() */\n              returndatasize\n                /* \"@openzeppelin/contracts/proxy/Proxy.sol\":1713:1714  0 */\n              0x00\n                /* \"@openzeppelin/contracts/proxy/Proxy.sol\":1706:1733  revert(0, returndatasize()) */\n              revert\n                /* \"@openzeppelin/contracts/proxy/ERC1967/ERC1967Upgrade.sol\":4848:4972  function _getBeacon() internal view returns (address) {... */\n            tag_20:\n                /* \"@openzeppelin/contracts/proxy/ERC1967/ERC1967Upgrade.sol\":4893:4900  address */\n              0x00\n                /* \"@openzeppelin/contracts/proxy/ERC1967/ERC1967Upgrade.sol\":4919:4959  StorageSlot.getAddressSlot(_BEACON_SLOT) */\n              tag_29\n                /* \"@openzeppelin/contracts/proxy/ERC1967/ERC1967Upgrade.sol\":4719:4785  0xa3f0ad74e5423aebfd80d3ef4346578335a9a72aeaee59ff6cb3582b35133d50 */\n              0xa3f0ad74e5423aebfd80d3ef4346578335a9a72aeaee59ff6cb3582b35133d50\n                /* \"@openzeppelin/contracts/proxy/ERC1967/ERC1967Upgrade.sol\":4946:4958  _BEACON_SLOT */\n              0x00\n              shl\n                /* \"@openzeppelin/contracts/proxy/ERC1967/ERC1967Upgrade.sol\":4919:4945  StorageSlot.getAddressSlot */\n              tag_30\n                /* \"@openzeppelin/contracts/proxy/ERC1967/ERC1967Upgrade.sol\":4919:4959  StorageSlot.getAddressSlot(_BEACON_SLOT) */\n              jump\t// in\n            tag_29:\n                /* \"@openzeppelin/contracts/proxy/ERC1967/ERC1967Upgrade.sol\":4919:4965  StorageSlot.getAddressSlot(_BEACON_SLOT).value */\n              0x00\n              add\n              0x00\n              swap1\n              sload\n              swap1\n              0x0100\n              exp\n              swap1\n              div\n              0xffffffffffffffffffffffffffffffffffffffff\n              and\n                /* \"@openzeppelin/contracts/proxy/ERC1967/ERC1967Upgrade.sol\":4912:4965  return StorageSlot.getAddressSlot(_BEACON_SLOT).value */\n              swap1\n              pop\n                /* \"@openzeppelin/contracts/proxy/ERC1967/ERC1967Upgrade.sol\":4848:4972  function _getBeacon() internal view returns (address) {... */\n              swap1\n              jump\t// out\n                /* \"@openzeppelin/contracts/utils/StorageSlot.sol\":1859:2049  function getAddressSlot(bytes32 slot) internal pure returns (AddressSlot storage r) {... */\n            tag_30:\n                /* \"@openzeppelin/contracts/utils/StorageSlot.sol\":1920:1941  AddressSlot storage r */\n              0x00\n                /* \"@openzeppelin/contracts/utils/StorageSlot.sol\":2029:2033  slot */\n              dup2\n                /* \"@openzeppelin/contracts/utils/StorageSlot.sol\":2019:2033  r.slot := slot */\n              swap1\n              pop\n                /* \"@openzeppelin/contracts/utils/StorageSlot.sol\":1859:2049  function getAddressSlot(bytes32 slot) internal pure returns (AddressSlot storage r) {... */\n              swap2\n              swap1\n              pop\n              jump\t// out\n                /* \"#utility.yul\":88:205   */\n            tag_33:\n                /* \"#utility.yul\":197:198   */\n              0x00\n                /* \"#utility.yul\":194:195   */\n              dup1\n                /* \"#utility.yul\":187:199   */\n              revert\n                /* \"#utility.yul\":334:460   */\n            tag_35:\n                /* \"#utility.yul\":371:378   */\n              0x00\n                /* \"#utility.yul\":411:453   */\n              0xffffffffffffffffffffffffffffffffffffffff\n                /* \"#utility.yul\":404:409   */\n              dup3\n                /* \"#utility.yul\":400:454   */\n              and\n                /* \"#utility.yul\":389:454   */\n              swap1\n              pop\n                /* \"#utility.yul\":334:460   */\n              swap2\n              swap1\n              pop\n              jump\t// out\n                /* \"#utility.yul\":466:562   */\n            tag_36:\n                /* \"#utility.yul\":503:510   */\n              0x00\n                /* \"#utility.yul\":532:556   */\n              tag_45\n                /* \"#utility.yul\":550:555   */\n              dup3\n                /* \"#utility.yul\":532:556   */\n              tag_35\n              jump\t// in\n            tag_45:\n                /* \"#utility.yul\":521:556   */\n              swap1\n              pop\n                /* \"#utility.yul\":466:562   */\n              swap2\n              swap1\n              pop\n              jump\t// out\n                /* \"#utility.yul\":568:690   */\n            tag_37:\n                /* \"#utility.yul\":641:665   */\n              tag_47\n                /* \"#utility.yul\":659:664   */\n              dup2\n                /* \"#utility.yul\":641:665   */\n              tag_36\n              jump\t// in\n            tag_47:\n                /* \"#utility.yul\":634:639   */\n              dup2\n                /* \"#utility.yul\":631:666   */\n              eq\n                /* \"#utility.yul\":621:684   */\n              tag_48\n              jumpi\n                /* \"#utility.yul\":680:681   */\n              0x00\n                /* \"#utility.yul\":677:678   */\n              dup1\n                /* \"#utility.yul\":670:682   */\n              revert\n                /* \"#utility.yul\":621:684   */\n            tag_48:\n                /* \"#utility.yul\":568:690   */\n              pop\n              jump\t// out\n                /* \"#utility.yul\":696:839   */\n            tag_38:\n                /* \"#utility.yul\":753:758   */\n              0x00\n                /* \"#utility.yul\":784:790   */\n              dup2\n                /* \"#utility.yul\":778:791   */\n              mload\n                /* \"#utility.yul\":769:791   */\n              swap1\n              pop\n                /* \"#utility.yul\":800:833   */\n              tag_50\n                /* \"#utility.yul\":827:832   */\n              dup2\n                /* \"#utility.yul\":800:833   */\n              tag_37\n              jump\t// in\n            tag_50:\n                /* \"#utility.yul\":696:839   */\n              swap3\n              swap2\n              pop\n              pop\n              jump\t// out\n                /* \"#utility.yul\":845:1196   */\n            tag_24:\n                /* \"#utility.yul\":915:921   */\n              0x00\n                /* \"#utility.yul\":964:966   */\n              0x20\n                /* \"#utility.yul\":952:961   */\n              dup3\n                /* \"#utility.yul\":943:950   */\n              dup5\n                /* \"#utility.yul\":939:962   */\n              sub\n                /* \"#utility.yul\":935:967   */\n              slt\n                /* \"#utility.yul\":932:1051   */\n              iszero\n              tag_52\n              jumpi\n                /* \"#utility.yul\":970:1049   */\n              tag_53\n              tag_33\n              jump\t// in\n            tag_53:\n                /* \"#utility.yul\":932:1051   */\n            tag_52:\n                /* \"#utility.yul\":1090:1091   */\n              0x00\n                /* \"#utility.yul\":1115:1179   */\n              tag_54\n                /* \"#utility.yul\":1171:1178   */\n              dup5\n                /* \"#utility.yul\":1162:1168   */\n              dup3\n                /* \"#utility.yul\":1151:1160   */\n              dup6\n                /* \"#utility.yul\":1147:1169   */\n              add\n                /* \"#utility.yul\":1115:1179   */\n              tag_38\n              jump\t// in\n            tag_54:\n                /* \"#utility.yul\":1105:1179   */\n              swap2\n              pop\n                /* \"#utility.yul\":1061:1189   */\n              pop\n                /* \"#utility.yul\":845:1196   */\n              swap3\n              swap2\n              pop\n              pop\n              jump\t// out\n\n            auxdata: 0xa264697066735822122021be1fd0db79fd146a1a458cbcaa24f2fd4ad118449c6e24e333c0e44a2ebe5b64736f6c634300081a0033\n        }\n    }\n\n    sub_1: assembly {\n            /* \"@openzeppelin/contracts/proxy/beacon/UpgradeableBeacon.sol\":543:2039  contract UpgradeableBeacon is IBeacon, Ownable {... */\n          mstore(0x40, 0x80)\n            /* \"@openzeppelin/contracts/proxy/beacon/UpgradeableBeacon.sol\":931:1020  constructor(address implementation_) {... */\n          callvalue\n          dup1\n          iszero\n          tag_1\n          jumpi\n          0x00\n          dup1\n          revert\n        tag_1:\n          pop\n          mload(0x40)\n          sub(codesize, bytecodeSize)\n          dup1\n          bytecodeSize\n          dup4\n          codecopy\n          dup2\n          dup2\n          add\n          0x40\n          mstore\n          dup2\n          add\n          swap1\n          tag_2\n          swap2\n          swap1\n          tag_3\n          jump\t// in\n        tag_2:\n            /* \"@openzeppelin/contracts/access/Ownable.sol\":936:968  _transferOwnership(_msgSender()) */\n          tag_7\n            /* \"@openzeppelin/contracts/access/Ownable.sol\":955:967  _msgSender() */\n          tag_8\n            /* \"@openzeppelin/contracts/access/Ownable.sol\":955:965  _msgSender */\n          shl(0x20, tag_9)\n            /* \"@openzeppelin/contracts/access/Ownable.sol\":955:967  _msgSender() */\n          0x20\n          shr\n          jump\t// in\n        tag_8:\n            /* \"@openzeppelin/contracts/access/Ownable.sol\":936:954  _transferOwnership */\n          shl(0x20, tag_10)\n            /* \"@openzeppelin/contracts/access/Ownable.sol\":936:968  _transferOwnership(_msgSender()) */\n          0x20\n          shr\n          jump\t// in\n        tag_7:\n            /* \"@openzeppelin/contracts/proxy/beacon/UpgradeableBeacon.sol\":978:1013  _setImplementation(implementation_) */\n          tag_12\n            /* \"@openzeppelin/contracts/proxy/beacon/UpgradeableBeacon.sol\":997:1012  implementation_ */\n          dup2\n            /* \"@openzeppelin/contracts/proxy/beacon/UpgradeableBeacon.sol\":978:996  _setImplementation */\n          shl(0x20, tag_13)\n            /* \"@openzeppelin/contracts/proxy/beacon/UpgradeableBeacon.sol\":978:1013  _setImplementation(implementation_) */\n          0x20\n          shr\n          jump\t// in\n        tag_12:\n            /* \"@openzeppelin/contracts/proxy/beacon/UpgradeableBeacon.sol\":931:1020  constructor(address implementation_) {... */\n          pop\n            /* \"@openzeppelin/contracts/proxy/beacon/UpgradeableBeacon.sol\":543:2039  contract UpgradeableBeacon is IBeacon, Ownable {... */\n          jump(tag_14)\n            /* \"@openzeppelin/contracts/utils/Context.sol\":655:751  function _msgSender() internal view virtual returns (address) {... */\n        tag_9:\n            /* \"@openzeppelin/contracts/utils/Context.sol\":708:715  address */\n          0x00\n            /* \"@openzeppelin/contracts/utils/Context.sol\":734:744  msg.sender */\n          caller\n            /* \"@openzeppelin/contracts/utils/Context.sol\":727:744  return msg.sender */\n          swap1\n          pop\n            /* \"@openzeppelin/contracts/utils/Context.sol\":655:751  function _msgSender() internal view virtual returns (address) {... */\n          swap1\n          jump\t// out\n            /* \"@openzeppelin/contracts/access/Ownable.sol\":2426:2613  function _transferOwnership(address newOwner) internal virtual {... */\n        tag_10:\n            /* \"@openzeppelin/contracts/access/Ownable.sol\":2499:2515  address oldOwner */\n          0x00\n            /* \"@openzeppelin/contracts/access/Ownable.sol\":2518:2524  _owner */\n          dup1\n          0x00\n          swap1\n          sload\n          swap1\n          0x0100\n          exp\n          swap1\n          div\n          0xffffffffffffffffffffffffffffffffffffffff\n          and\n            /* \"@openzeppelin/contracts/access/Ownable.sol\":2499:2524  address oldOwner = _owner */\n          swap1\n          pop\n            /* \"@openzeppelin/contracts/access/Ownable.sol\":2543:2551  newOwner */\n          dup2\n            /* \"@openzeppelin/contracts/access/Ownable.sol\":2534:2540  _owner */\n          0x00\n          dup1\n            /* \"@openzeppelin/contracts/access/Ownable.sol\":2534:2551  _owner = newOwner */\n          0x0100\n          exp\n          dup2\n          sload\n          dup2\n          0xffffffffffffffffffffffffffffffffffffffff\n          mul\n          not\n          and\n          swap1\n          dup4\n          0xffffffffffffffffffffffffffffffffffffffff\n          and\n          mul\n          or\n          swap1\n          sstore\n          pop\n            /* \"@openzeppelin/contracts/access/Ownable.sol\":2597:2605  newOwner */\n          dup2\n            /* \"@openzeppelin/contracts/access/Ownable.sol\":2566:2606  OwnershipTransferred(oldOwner, newOwner) */\n          0xffffffffffffffffffffffffffffffffffffffff\n          and\n            /* \"@openzeppelin/contracts/access/Ownable.sol\":2587:2595  oldOwner */\n          dup2\n            /* \"@openzeppelin/contracts/access/Ownable.sol\":2566:2606  OwnershipTransferred(oldOwner, newOwner) */\n          0xffffffffffffffffffffffffffffffffffffffff\n          and\n          0x8be0079c531659141344cd1fd0a4f28419497f9722a3daafe3b4186f6b6457e0\n          mload(0x40)\n          mload(0x40)\n          dup1\n          swap2\n          sub\n          swap1\n          log3\n            /* \"@openzeppelin/contracts/access/Ownable.sol\":2489:2613  {... */\n          pop\n            /* \"@openzeppelin/contracts/access/Ownable.sol\":2426:2613  function _transferOwnership(address newOwner) internal virtual {... */\n          pop\n          jump\t// out\n            /* \"@openzeppelin/contracts/proxy/beacon/UpgradeableBeacon.sol\":1811:2037  function _setImplementation(address newImplementation) private {... */\n        tag_13:\n            /* \"@openzeppelin/contracts/proxy/beacon/UpgradeableBeacon.sol\":1892:1929  Address.isContract(newImplementation) */\n          tag_18\n            /* \"@openzeppelin/contracts/proxy/beacon/UpgradeableBeacon.sol\":1911:1928  newImplementation */\n          dup2\n            /* \"@openzeppelin/contracts/proxy/beacon/UpgradeableBeacon.sol\":1892:1910  Address.isContract */\n          shl(0x20, tag_19)\n            /* \"@openzeppelin/contracts/proxy/beacon/UpgradeableBeacon.sol\":1892:1929  Address.isContract(newImplementation) */\n          0x20\n          shr\n          jump\t// in\n        tag_18:\n            /* \"@openzeppelin/contracts/proxy/beacon/UpgradeableBeacon.sol\":1884:1985  require(Address.isContract(newImplementation), \"UpgradeableBeacon: implementation is not a contract\") */\n          tag_20\n          jumpi\n          mload(0x40)\n          0x08c379a000000000000000000000000000000000000000000000000000000000\n          dup2\n          mstore\n          0x04\n          add\n          tag_21\n          swap1\n          tag_22\n          jump\t// in\n        tag_21:\n          mload(0x40)\n          dup1\n          swap2\n          sub\n          swap1\n          revert\n        tag_20:\n            /* \"@openzeppelin/contracts/proxy/beacon/UpgradeableBeacon.sol\":2013:2030  newImplementation */\n          dup1\n            /* \"@openzeppelin/contracts/proxy/beacon/UpgradeableBeacon.sol\":1995:2010  _implementation */\n          0x01\n          0x00\n            /* \"@openzeppelin/contracts/proxy/beacon/UpgradeableBeacon.sol\":1995:2030  _implementation = newImplementation */\n          0x0100\n          exp\n          dup2\n          sload\n          dup2\n          0xffffffffffffffffffffffffffffffffffffffff\n          mul\n          not\n          and\n          swap1\n          dup4\n          0xffffffffffffffffffffffffffffffffffffffff\n          and\n          mul\n          or\n          swap1\n          sstore\n          pop\n            /* \"@openzeppelin/contracts/proxy/beacon/UpgradeableBeacon.sol\":1811:2037  function _setImplementation(address newImplementation) private {... */\n          pop\n          jump\t// out\n            /* \"@openzeppelin/contracts/utils/Address.sol\":1412:1732  function isContract(address account) internal view returns (bool) {... */\n        tag_19:\n            /* \"@openzeppelin/contracts/utils/Address.sol\":1472:1476  bool */\n          0x00\n            /* \"@openzeppelin/contracts/utils/Address.sol\":1724:1725  0 */\n          dup1\n            /* \"@openzeppelin/contracts/utils/Address.sol\":1702:1709  account */\n          dup3\n            /* \"@openzeppelin/contracts/utils/Address.sol\":1702:1721  account.code.length */\n          0xffffffffffffffffffffffffffffffffffffffff\n          and\n          extcodesize\n            /* \"@openzeppelin/contracts/utils/Address.sol\":1702:1725  account.code.length > 0 */\n          gt\n            /* \"@openzeppelin/contracts/utils/Address.sol\":1695:1725  return account.code.length > 0 */\n          swap1\n          pop\n            /* \"@openzeppelin/contracts/utils/Address.sol\":1412:1732  function isContract(address account) internal view returns (bool) {... */\n          swap2\n          swap1\n          pop\n          jump\t// out\n            /* \"#utility.yul\":88:205   */\n        tag_25:\n            /* \"#utility.yul\":197:198   */\n          0x00\n            /* \"#utility.yul\":194:195   */\n          dup1\n            /* \"#utility.yul\":187:199   */\n          revert\n            /* \"#utility.yul\":334:460   */\n        tag_27:\n            /* \"#utility.yul\":371:378   */\n          0x00\n            /* \"#utility.yul\":411:453   */\n          0xffffffffffffffffffffffffffffffffffffffff\n            /* \"#utility.yul\":404:409   */\n          dup3\n            /* \"#utility.yul\":400:454   */\n          and\n            /* \"#utility.yul\":389:454   */\n          swap1\n          pop\n            /* \"#utility.yul\":334:460   */\n          swap2\n          swap1\n          pop\n          jump\t// out\n            /* \"#utility.yul\":466:562   */\n        tag_28:\n            /* \"#utility.yul\":503:510   */\n          0x00\n            /* \"#utility.yul\":532:556   */\n          tag_40\n            /* \"#utility.yul\":550:555   */\n          dup3\n            /* \"#utility.yul\":532:556   */\n          tag_27\n          jump\t// in\n        tag_40:\n            /* \"#utility.yul\":521:556   */\n          swap1\n          pop\n            /* \"#utility.yul\":466:562   */\n          swap2\n          swap1\n          pop\n          jump\t// out\n            /* \"#utility.yul\":568:690   */\n        tag_29:\n            /* \"#utility.yul\":641:665   */\n          tag_42\n            /* \"#utility.yul\":659:664   */\n          dup2\n            /* \"#utility.yul\":641:665   */\n          tag_28\n          jump\t// in\n        tag_42:\n            /* \"#utility.yul\":634:639   */\n          dup2\n            /* \"#utility.yul\":631:666   */\n          eq\n            /* \"#utility.yul\":621:684   */\n          tag_43\n          jumpi\n            /* \"#utility.yul\":680:681   */\n          0x00\n            /* \"#utility.yul\":677:678   */\n          dup1\n            /* \"#utility.yul\":670:682   */\n          revert\n            /* \"#utility.yul\":621:684   */\n        tag_43:\n            /* \"#utility.yul\":568:690   */\n          pop\n          jump\t// out\n            /* \"#utility.yul\":696:839   */\n        tag_30:\n            /* \"#utility.yul\":753:758   */\n          0x00\n            /* \"#utility.yul\":784:790   */\n          dup2\n            /* \"#utility.yul\":778:791   */\n          mload\n            /* \"#utility.yul\":769:791   */\n          swap1\n          pop\n            /* \"#utility.yul\":800:833   */\n          tag_45\n            /* \"#utility.yul\":827:832   */\n          dup2\n            /* \"#utility.yul\":800:833   */\n          tag_29\n          jump\t// in\n        tag_45:\n            /* \"#utility.yul\":696:839   */\n          swap3\n          swap2\n          pop\n          pop\n          jump\t// out\n            /* \"#utility.yul\":845:1196   */\n        tag_3:\n            /* \"#utility.yul\":915:921   */\n          0x00\n            /* \"#utility.yul\":964:966   */\n          0x20\n            /* \"#utility.yul\":952:961   */\n          dup3\n            /* \"#utility.yul\":943:950   */\n          dup5\n            /* \"#utility.yul\":939:962   */\n          sub\n            /* \"#utility.yul\":935:967   */\n          slt\n            /* \"#utility.yul\":932:1051   */\n          iszero\n          tag_47\n          jumpi\n            /* \"#utility.yul\":970:1049   */\n          tag_48\n          tag_25\n          jump\t// in\n        tag_48:\n            /* \"#utility.yul\":932:1051   */\n        tag_47:\n            /* \"#utility.yul\":1090:1091   */\n          0x00\n            /* \"#utility.yul\":1115:1179   */\n          tag_49\n            /* \"#utility.yul\":1171:1178   */\n          dup5\n            /* \"#utility.yul\":1162:1168   */\n          dup3\n            /* \"#utility.yul\":1151:1160   */\n          dup6\n            /* \"#utility.yul\":1147:1169   */\n          add\n            /* \"#utility.yul\":1115:1179   */\n          tag_30\n          jump\t// in\n        tag_49:\n            /* \"#utility.yul\":1105:1179   */\n          swap2\n          pop\n            /* \"#utility.yul\":1061:1189   */\n          pop\n            /* \"#utility.yul\":845:1196   */\n          swap3\n          swap2\n          pop\n          pop\n          jump\t// out\n            /* \"#utility.yul\":1202:1371   */\n        tag_31:\n            /* \"#utility.yul\":1286:1297   */\n          0x00\n            /* \"#utility.yul\":1320:1326   */\n          dup3\n            /* \"#utility.yul\":1315:1318   */\n          dup3\n            /* \"#utility.yul\":1308:1327   */\n          mstore\n            /* \"#utility.yul\":1360:1364   */\n          0x20\n            /* \"#utility.yul\":1355:1358   */\n          dup3\n            /* \"#utility.yul\":1351:1365   */\n          add\n            /* \"#utility.yul\":1336:1365   */\n          swap1\n          pop\n            /* \"#utility.yul\":1202:1371   */\n          swap3\n          swap2\n          pop\n          pop\n          jump\t// out\n            /* \"#utility.yul\":1377:1615   */\n        tag_32:\n            /* \"#utility.yul\":1517:1551   */\n          0x5570677261646561626c65426561636f6e3a20696d706c656d656e746174696f\n            /* \"#utility.yul\":1513:1514   */\n          0x00\n            /* \"#utility.yul\":1505:1511   */\n          dup3\n            /* \"#utility.yul\":1501:1515   */\n          add\n            /* \"#utility.yul\":1494:1552   */\n          mstore\n            /* \"#utility.yul\":1586:1607   */\n          0x6e206973206e6f74206120636f6e747261637400000000000000000000000000\n            /* \"#utility.yul\":1581:1583   */\n          0x20\n            /* \"#utility.yul\":1573:1579   */\n          dup3\n            /* \"#utility.yul\":1569:1584   */\n          add\n            /* \"#utility.yul\":1562:1608   */\n          mstore\n            /* \"#utility.yul\":1377:1615   */\n          pop\n          jump\t// out\n            /* \"#utility.yul\":1621:1987   */\n        tag_33:\n            /* \"#utility.yul\":1763:1766   */\n          0x00\n            /* \"#utility.yul\":1784:1851   */\n          tag_53\n            /* \"#utility.yul\":1848:1850   */\n          0x33\n            /* \"#utility.yul\":1843:1846   */\n          dup4\n            /* \"#utility.yul\":1784:1851   */\n          tag_31\n          jump\t// in\n        tag_53:\n            /* \"#utility.yul\":1777:1851   */\n          swap2\n          pop\n            /* \"#utility.yul\":1860:1953   */\n          tag_54\n            /* \"#utility.yul\":1949:1952   */\n          dup3\n            /* \"#utility.yul\":1860:1953   */\n          tag_32\n          jump\t// in\n        tag_54:\n            /* \"#utility.yul\":1978:1980   */\n          0x40\n            /* \"#utility.yul\":1973:1976   */\n          dup3\n            /* \"#utility.yul\":1969:1981   */\n          add\n            /* \"#utility.yul\":1962:1981   */\n          swap1\n          pop\n            /* \"#utility.yul\":1621:1987   */\n          swap2\n          swap1\n          pop\n          jump\t// out\n            /* \"#utility.yul\":1993:2412   */\n        tag_22:\n            /* \"#utility.yul\":2159:2163   */\n          0x00\n            /* \"#utility.yul\":2197:2199   */\n          0x20\n            /* \"#utility.yul\":2186:2195   */\n          dup3\n            /* \"#utility.yul\":2182:2200   */\n          add\n            /* \"#utility.yul\":2174:2200   */\n          swap1\n          pop\n            /* \"#utility.yul\":2246:2255   */\n          dup2\n            /* \"#utility.yul\":2240:2244   */\n          dup2\n            /* \"#utility.yul\":2236:2256   */\n          sub\n            /* \"#utility.yul\":2232:2233   */\n          0x00\n            /* \"#utility.yul\":2221:2230   */\n          dup4\n            /* \"#utility.yul\":2217:2234   */\n          add\n            /* \"#utility.yul\":2210:2257   */\n          mstore\n            /* \"#utility.yul\":2274:2405   */\n          tag_56\n            /* \"#utility.yul\":2400:2404   */\n          dup2\n            /* \"#utility.yul\":2274:2405   */\n          tag_33\n          jump\t// in\n        tag_56:\n            /* \"#utility.yul\":2266:2405   */\n          swap1\n          pop\n            /* \"#utility.yul\":1993:2412   */\n          swap2\n          swap1\n          pop\n          jump\t// out\n            /* \"@openzeppelin/contracts/proxy/beacon/UpgradeableBeacon.sol\":543:2039  contract UpgradeableBeacon is IBeacon, Ownable {... */\n        tag_14:\n          dataSize(sub_0)\n          dup1\n          dataOffset(sub_0)\n          0x00\n          codecopy\n          0x00\n          return\n        stop\n\n        sub_0: assembly {\n                /* \"@openzeppelin/contracts/proxy/beacon/UpgradeableBeacon.sol\":543:2039  contract UpgradeableBeacon is IBeacon, Ownable {... */\n              mstore(0x40, 0x80)\n              callvalue\n              dup1\n              iszero\n              tag_1\n              jumpi\n              0x00\n              dup1\n              revert\n            tag_1:\n              pop\n              jumpi(tag_2, lt(calldatasize, 0x04))\n              shr(0xe0, calldataload(0x00))\n              dup1\n              0x3659cfe6\n              eq\n              tag_3\n              jumpi\n              dup1\n              0x5c60da1b\n              eq\n              tag_4\n              jumpi\n              dup1\n              0x715018a6\n              eq\n              tag_5\n              jumpi\n              dup1\n              0x8da5cb5b\n              eq\n              tag_6\n              jumpi\n              dup1\n              0xf2fde38b\n              eq\n              tag_7\n              jumpi\n            tag_2:\n              0x00\n              dup1\n              revert\n                /* \"@openzeppelin/contracts/proxy/beacon/UpgradeableBeacon.sol\":1469:1636  function upgradeTo(address newImplementation) public virtual onlyOwner {... */\n            tag_3:\n              tag_8\n              0x04\n              dup1\n              calldatasize\n              sub\n              dup2\n              add\n              swap1\n              tag_9\n              swap2\n              swap1\n              tag_10\n              jump\t// in\n            tag_9:\n              tag_11\n              jump\t// in\n            tag_8:\n              stop\n                /* \"@openzeppelin/contracts/proxy/beacon/UpgradeableBeacon.sol\":1098:1210  function implementation() public view virtual override returns (address) {... */\n            tag_4:\n              tag_12\n              tag_13\n              jump\t// in\n            tag_12:\n              mload(0x40)\n              tag_14\n              swap2\n              swap1\n              tag_15\n              jump\t// in\n            tag_14:\n              mload(0x40)\n              dup1\n              swap2\n              sub\n              swap1\n              return\n                /* \"@openzeppelin/contracts/access/Ownable.sol\":1824:1925  function renounceOwnership() public virtual onlyOwner {... */\n            tag_5:\n              tag_16\n              tag_17\n              jump\t// in\n            tag_16:\n              stop\n                /* \"@openzeppelin/contracts/access/Ownable.sol\":1201:1286  function owner() public view virtual returns (address) {... */\n            tag_6:\n              tag_18\n              tag_19\n              jump\t// in\n            tag_18:\n              mload(0x40)\n              tag_20\n              swap2\n              swap1\n              tag_15\n              jump\t// in\n            tag_20:\n              mload(0x40)\n              dup1\n              swap2\n              sub\n              swap1\n              return\n                /* \"@openzeppelin/contracts/access/Ownable.sol\":2074:2272  function transferOwnership(address newOwner) public virtual onlyOwner {... */\n            tag_7:\n              tag_21\n              0x04\n              dup1\n              calldatasize\n              sub\n              dup2\n              add\n              swap1\n              tag_22\n              swap2\n              swap1\n              tag_10\n              jump\t// in\n            tag_22:\n              tag_23\n              jump\t// in\n            tag_21:\n              stop\n                /* \"@openzeppelin/contracts/proxy/beacon/UpgradeableBeacon.sol\":1469:1636  function upgradeTo(address newImplementation) public virtual onlyOwner {... */\n            tag_11:\n                /* \"@openzeppelin/contracts/access/Ownable.sol\":1094:1107  _checkOwner() */\n              tag_25\n                /* \"@openzeppelin/contracts/access/Ownable.sol\":1094:1105  _checkOwner */\n              tag_26\n                /* \"@openzeppelin/contracts/access/Ownable.sol\":1094:1107  _checkOwner() */\n              jump\t// in\n            tag_25:\n                /* \"@openzeppelin/contracts/proxy/beacon/UpgradeableBeacon.sol\":1550:1587  _setImplementation(newImplementation) */\n              tag_28\n                /* \"@openzeppelin/contracts/proxy/beacon/UpgradeableBeacon.sol\":1569:1586  newImplementation */\n              dup2\n                /* \"@openzeppelin/contracts/proxy/beacon/UpgradeableBeacon.sol\":1550:1568  _setImplementation */\n              tag_29\n                /* \"@openzeppelin/contracts/proxy/beacon/UpgradeableBeacon.sol\":1550:1587  _setImplementation(newImplementation) */\n              jump\t// in\n            tag_28:\n                /* \"@openzeppelin/contracts/proxy/beacon/UpgradeableBeacon.sol\":1611:1628  newImplementation */\n              dup1\n                /* \"@openzeppelin/contracts/proxy/beacon/UpgradeableBeacon.sol\":1602:1629  Upgraded(newImplementation) */\n              0xffffffffffffffffffffffffffffffffffffffff\n              and\n              0xbc7cd75a20ee27fd9adebab32041f755214dbc6bffa90cc0225b39da2e5c2d3b\n              mload(0x40)\n              mload(0x40)\n              dup1\n              swap2\n              sub\n              swap1\n              log2\n                /* \"@openzeppelin/contracts/proxy/beacon/UpgradeableBeacon.sol\":1469:1636  function upgradeTo(address newImplementation) public virtual onlyOwner {... */\n              pop\n              jump\t// out\n                /* \"@openzeppelin/contracts/proxy/beacon/UpgradeableBeacon.sol\":1098:1210  function implementation() public view virtual override returns (address) {... */\n            tag_13:\n                /* \"@openzeppelin/contracts/proxy/beacon/UpgradeableBeacon.sol\":1162:1169  address */\n              0x00\n                /* \"@openzeppelin/contracts/proxy/beacon/UpgradeableBeacon.sol\":1188:1203  _implementation */\n              0x01\n              0x00\n              swap1\n              sload\n              swap1\n              0x0100\n              exp\n              swap1\n              div\n              0xffffffffffffffffffffffffffffffffffffffff\n              and\n                /* \"@openzeppelin/contracts/proxy/beacon/UpgradeableBeacon.sol\":1181:1203  return _implementation */\n              swap1\n              pop\n                /* \"@openzeppelin/contracts/proxy/beacon/UpgradeableBeacon.sol\":1098:1210  function implementation() public view virtual override returns (address) {... */\n              swap1\n              jump\t// out\n                /* \"@openzeppelin/contracts/access/Ownable.sol\":1824:1925  function renounceOwnership() public virtual onlyOwner {... */\n            tag_17:\n                /* \"@openzeppelin/contracts/access/Ownable.sol\":1094:1107  _checkOwner() */\n              tag_32\n                /* \"@openzeppelin/contracts/access/Ownable.sol\":1094:1105  _checkOwner */\n              tag_26\n                /* \"@openzeppelin/contracts/access/Ownable.sol\":1094:1107  _checkOwner() */\n              jump\t// in\n            tag_32:\n                /* \"@openzeppelin/contracts/access/Ownable.sol\":1888:1918  _transferOwnership(address(0)) */\n              tag_34\n                /* \"@openzeppelin/contracts/access/Ownable.sol\":1915:1916  0 */\n              0x00\n                /* \"@openzeppelin/contracts/access/Ownable.sol\":1888:1906  _transferOwnership */\n              tag_35\n                /* \"@openzeppelin/contracts/access/Ownable.sol\":1888:1918  _transferOwnership(address(0)) */\n              jump\t// in\n            tag_34:\n                /* \"@openzeppelin/contracts/access/Ownable.sol\":1824:1925  function renounceOwnership() public virtual onlyOwner {... */\n              jump\t// out\n                /* \"@openzeppelin/contracts/access/Ownable.sol\":1201:1286  function owner() public view virtual returns (address) {... */\n            tag_19:\n                /* \"@openzeppelin/contracts/access/Ownable.sol\":1247:1254  address */\n              0x00\n                /* \"@openzeppelin/contracts/access/Ownable.sol\":1273:1279  _owner */\n              dup1\n              0x00\n              swap1\n              sload\n              swap1\n              0x0100\n              exp\n              swap1\n              div\n              0xffffffffffffffffffffffffffffffffffffffff\n              and\n                /* \"@openzeppelin/contracts/access/Ownable.sol\":1266:1279  return _owner */\n              swap1\n              pop\n                /* \"@openzeppelin/contracts/access/Ownable.sol\":1201:1286  function owner() public view virtual returns (address) {... */\n              swap1\n              jump\t// out\n                /* \"@openzeppelin/contracts/access/Ownable.sol\":2074:2272  function transferOwnership(address newOwner) public virtual onlyOwner {... */\n            tag_23:\n                /* \"@openzeppelin/contracts/access/Ownable.sol\":1094:1107  _checkOwner() */\n              tag_38\n                /* \"@openzeppelin/contracts/access/Ownable.sol\":1094:1105  _checkOwner */\n              tag_26\n                /* \"@openzeppelin/contracts/access/Ownable.sol\":1094:1107  _checkOwner() */\n              jump\t// in\n            tag_38:\n                /* \"@openzeppelin/contracts/access/Ownable.sol\":2182:2183  0 */\n              0x00\n                /* \"@openzeppelin/contracts/access/Ownable.sol\":2162:2184  newOwner != address(0) */\n              0xffffffffffffffffffffffffffffffffffffffff\n              and\n                /* \"@openzeppelin/contracts/access/Ownable.sol\":2162:2170  newOwner */\n              dup2\n                /* \"@openzeppelin/contracts/access/Ownable.sol\":2162:2184  newOwner != address(0) */\n              0xffffffffffffffffffffffffffffffffffffffff\n              and\n              sub\n                /* \"@openzeppelin/contracts/access/Ownable.sol\":2154:2227  require(newOwner != address(0), \"Ownable: new owner is the zero address\") */\n              tag_40\n              jumpi\n              mload(0x40)\n              0x08c379a000000000000000000000000000000000000000000000000000000000\n              dup2\n              mstore\n              0x04\n              add\n              tag_41\n              swap1\n              tag_42\n              jump\t// in\n            tag_41:\n              mload(0x40)\n              dup1\n              swap2\n              sub\n              swap1\n              revert\n            tag_40:\n                /* \"@openzeppelin/contracts/access/Ownable.sol\":2237:2265  _transferOwnership(newOwner) */\n              tag_43\n                /* \"@openzeppelin/contracts/access/Ownable.sol\":2256:2264  newOwner */\n              dup2\n                /* \"@openzeppelin/contracts/access/Ownable.sol\":2237:2255  _transferOwnership */\n              tag_35\n                /* \"@openzeppelin/contracts/access/Ownable.sol\":2237:2265  _transferOwnership(newOwner) */\n              jump\t// in\n            tag_43:\n                /* \"@openzeppelin/contracts/access/Ownable.sol\":2074:2272  function transferOwnership(address newOwner) public virtual onlyOwner {... */\n              pop\n              jump\t// out\n                /* \"@openzeppelin/contracts/access/Ownable.sol\":1359:1489  function _checkOwner() internal view virtual {... */\n            tag_26:\n                /* \"@openzeppelin/contracts/access/Ownable.sol\":1433:1445  _msgSender() */\n              tag_45\n                /* \"@openzeppelin/contracts/access/Ownable.sol\":1433:1443  _msgSender */\n              tag_46\n                /* \"@openzeppelin/contracts/access/Ownable.sol\":1433:1445  _msgSender() */\n              jump\t// in\n            tag_45:\n                /* \"@openzeppelin/contracts/access/Ownable.sol\":1422:1445  owner() == _msgSender() */\n              0xffffffffffffffffffffffffffffffffffffffff\n              and\n                /* \"@openzeppelin/contracts/access/Ownable.sol\":1422:1429  owner() */\n              tag_47\n                /* \"@openzeppelin/contracts/access/Ownable.sol\":1422:1427  owner */\n              tag_19\n                /* \"@openzeppelin/contracts/access/Ownable.sol\":1422:1429  owner() */\n              jump\t// in\n            tag_47:\n                /* \"@openzeppelin/contracts/access/Ownable.sol\":1422:1445  owner() == _msgSender() */\n              0xffffffffffffffffffffffffffffffffffffffff\n              and\n              eq\n                /* \"@openzeppelin/contracts/access/Ownable.sol\":1414:1482  require(owner() == _msgSender(), \"Ownable: caller is not the owner\") */\n              tag_48\n              jumpi\n              mload(0x40)\n              0x08c379a000000000000000000000000000000000000000000000000000000000\n              dup2\n              mstore\n              0x04\n              add\n              tag_49\n              swap1\n              tag_50\n              jump\t// in\n            tag_49:\n              mload(0x40)\n              dup1\n              swap2\n              sub\n              swap1\n              revert\n            tag_48:\n                /* \"@openzeppelin/contracts/access/Ownable.sol\":1359:1489  function _checkOwner() internal view virtual {... */\n              jump\t// out\n                /* \"@openzeppelin/contracts/proxy/beacon/UpgradeableBeacon.sol\":1811:2037  function _setImplementation(address newImplementation) private {... */\n            tag_29:\n                /* \"@openzeppelin/contracts/proxy/beacon/UpgradeableBeacon.sol\":1892:1929  Address.isContract(newImplementation) */\n              tag_52\n                /* \"@openzeppelin/contracts/proxy/beacon/UpgradeableBeacon.sol\":1911:1928  newImplementation */\n              dup2\n                /* \"@openzeppelin/contracts/proxy/beacon/UpgradeableBeacon.sol\":1892:1910  Address.isContract */\n              tag_53\n                /* \"@openzeppelin/contracts/proxy/beacon/UpgradeableBeacon.sol\":1892:1929  Address.isContract(newImplementation) */\n              jump\t// in\n            tag_52:\n                /* \"@openzeppelin/contracts/proxy/beacon/UpgradeableBeacon.sol\":1884:1985  require(Address.isContract(newImplementation), \"UpgradeableBeacon: implementation is not a contract\") */\n              tag_54\n              jumpi\n              mload(0x40)\n              0x08c379a000000000000000000000000000000000000000000000000000000000\n              dup2\n              mstore\n              0x04\n              add\n              tag_55\n              swap1\n              tag_56\n              jump\t// in\n            tag_55:\n              mload(0x40)\n              dup1\n              swap2\n              sub\n              swap1\n              revert\n            tag_54:\n                /* \"@openzeppelin/contracts/proxy/beacon/UpgradeableBeacon.sol\":2013:2030  newImplementation */\n              dup1\n                /* \"@openzeppelin/contracts/proxy/beacon/UpgradeableBeacon.sol\":1995:2010  _implementation */\n              0x01\n              0x00\n                /* \"@openzeppelin/contracts/proxy/beacon/UpgradeableBeacon.sol\":1995:2030  _implementation = newImplementation */\n              0x0100\n              exp\n              dup2\n              sload\n              dup2\n              0xffffffffffffffffffffffffffffffffffffffff\n              mul\n              not\n              and\n              swap1\n              dup4\n              0xffffffffffffffffffffffffffffffffffffffff\n              and\n              mul\n              or\n              swap1\n              sstore\n              pop\n                /* \"@openzeppelin/contracts/proxy/beacon/UpgradeableBeacon.sol\":1811:2037  function _setImplementation(address newImplementation) private {... */\n              pop\n              jump\t// out\n                /* \"@openzeppelin/contracts/access/Ownable.sol\":2426:2613  function _transferOwnership(address newOwner) internal virtual {... */\n            tag_35:\n                /* \"@openzeppelin/contracts/access/Ownable.sol\":2499:2515  address oldOwner */\n              0x00\n                /* \"@openzeppelin/contracts/access/Ownable.sol\":2518:2524  _owner */\n              dup1\n              0x00\n              swap1\n              sload\n              swap1\n              0x0100\n              exp\n              swap1\n              div\n              0xffffffffffffffffffffffffffffffffffffffff\n              and\n                /* \"@openzeppelin/contracts/access/Ownable.sol\":2499:2524  address oldOwner = _owner */\n              swap1\n              pop\n                /* \"@openzeppelin/contracts/access/Ownable.sol\":2543:2551  newOwner */\n              dup2\n                /* \"@openzeppelin/contracts/access/Ownable.sol\":2534:2540  _owner */\n              0x00\n              dup1\n                /* \"@openzeppelin/contracts/access/Ownable.sol\":2534:2551  _owner = newOwner */\n              0x0100\n              exp\n              dup2\n              sload\n              dup2\n              0xffffffffffffffffffffffffffffffffffffffff\n              mul\n              not\n              and\n              swap1\n              dup4\n              0xffffffffffffffffffffffffffffffffffffffff\n              and\n              mul\n              or\n              swap1\n              sstore\n              pop\n                /* \"@openzeppelin/contracts/access/Ownable.sol\":2597:2605  newOwner */\n              dup2\n                /* \"@openzeppelin/contracts/access/Ownable.sol\":2566:2606  OwnershipTransferred(oldOwner, newOwner) */\n              0xffffffffffffffffffffffffffffffffffffffff\n              and\n                /* \"@openzeppelin/contracts/access/Ownable.sol\":2587:2595  oldOwner */\n              dup2\n                /* \"@openzeppelin/contracts/access/Ownable.sol\":2566:2606  OwnershipTransferred(oldOwner, newOwner) */\n              0xffffffffffffffffffffffffffffffffffffffff\n              and\n              0x8be0079c531659141344cd1fd0a4f28419497f9722a3daafe3b4186f6b6457e0\n              mload(0x40)\n              mload(0x40)\n              dup1\n              swap2\n              sub\n              swap1\n              log3\n                /* \"@openzeppelin/contracts/access/Ownable.sol\":2489:2613  {... */\n              pop\n                /* \"@openzeppelin/contracts/access/Ownable.sol\":2426:2613  function _transferOwnership(address newOwner) internal virtual {... */\n              pop\n              jump\t// out\n                /* \"@openzeppelin/contracts/utils/Context.sol\":655:751  function _msgSender() internal view virtual returns (address) {... */\n            tag_46:\n                /* \"@openzeppelin/contracts/utils/Context.sol\":708:715  address */\n              0x00\n                /* \"@openzeppelin/contracts/utils/Context.sol\":734:744  msg.sender */\n              caller\n                /* \"@openzeppelin/contracts/utils/Context.sol\":727:744  return msg.sender */\n              swap1\n              pop\n                /* \"@openzeppelin/contracts/utils/Context.sol\":655:751  function _msgSender() internal view virtual returns (address) {... */\n              swap1\n              jump\t// out\n                /* \"@openzeppelin/contracts/utils/Address.sol\":1412:1732  function isContract(address account) internal view returns (bool) {... */\n            tag_53:\n                /* \"@openzeppelin/contracts/utils/Address.sol\":1472:1476  bool */\n              0x00\n                /* \"@openzeppelin/contracts/utils/Address.sol\":1724:1725  0 */\n              dup1\n                /* \"@openzeppelin/contracts/utils/Address.sol\":1702:1709  account */\n              dup3\n                /* \"@openzeppelin/contracts/utils/Address.sol\":1702:1721  account.code.length */\n              0xffffffffffffffffffffffffffffffffffffffff\n              and\n              extcodesize\n                /* \"@openzeppelin/contracts/utils/Address.sol\":1702:1725  account.code.length > 0 */\n              gt\n                /* \"@openzeppelin/contracts/utils/Address.sol\":1695:1725  return account.code.length > 0 */\n              swap1\n              pop\n                /* \"@openzeppelin/contracts/utils/Address.sol\":1412:1732  function isContract(address account) internal view returns (bool) {... */\n              swap2\n              swap1\n              pop\n              jump\t// out\n                /* \"#utility.yul\":88:205   */\n            tag_61:\n                /* \"#utility.yul\":197:198   */\n              0x00\n                /* \"#utility.yul\":194:195   */\n              dup1\n                /* \"#utility.yul\":187:199   */\n              revert\n                /* \"#utility.yul\":334:460   */\n            tag_63:\n                /* \"#utility.yul\":371:378   */\n              0x00\n                /* \"#utility.yul\":411:453   */\n              0xffffffffffffffffffffffffffffffffffffffff\n                /* \"#utility.yul\":404:409   */\n              dup3\n                /* \"#utility.yul\":400:454   */\n              and\n                /* \"#utility.yul\":389:454   */\n              swap1\n              pop\n                /* \"#utility.yul\":334:460   */\n              swap2\n              swap1\n              pop\n              jump\t// out\n                /* \"#utility.yul\":466:562   */\n            tag_64:\n                /* \"#utility.yul\":503:510   */\n              0x00\n                /* \"#utility.yul\":532:556   */\n              tag_81\n                /* \"#utility.yul\":550:555   */\n              dup3\n                /* \"#utility.yul\":532:556   */\n              tag_63\n              jump\t// in\n            tag_81:\n                /* \"#utility.yul\":521:556   */\n              swap1\n              pop\n                /* \"#utility.yul\":466:562   */\n              swap2\n              swap1\n              pop\n              jump\t// out\n                /* \"#utility.yul\":568:690   */\n            tag_65:\n                /* \"#utility.yul\":641:665   */\n              tag_83\n                /* \"#utility.yul\":659:664   */\n              dup2\n                /* \"#utility.yul\":641:665   */\n              tag_64\n              jump\t// in\n            tag_83:\n                /* \"#utility.yul\":634:639   */\n              dup2\n                /* \"#utility.yul\":631:666   */\n              eq\n                /* \"#utility.yul\":621:684   */\n              tag_84\n              jumpi\n                /* \"#utility.yul\":680:681   */\n              0x00\n                /* \"#utility.yul\":677:678   */\n              dup1\n                /* \"#utility.yul\":670:682   */\n              revert\n                /* \"#utility.yul\":621:684   */\n            tag_84:\n                /* \"#utility.yul\":568:690   */\n              pop\n              jump\t// out\n                /* \"#utility.yul\":696:835   */\n            tag_66:\n                /* \"#utility.yul\":742:747   */\n              0x00\n                /* \"#utility.yul\":780:786   */\n              dup2\n                /* \"#utility.yul\":767:787   */\n              calldataload\n                /* \"#utility.yul\":758:787   */\n              swap1\n              pop\n                /* \"#utility.yul\":796:829   */\n              tag_86\n                /* \"#utility.yul\":823:828   */\n              dup2\n                /* \"#utility.yul\":796:829   */\n              tag_65\n              jump\t// in\n            tag_86:\n                /* \"#utility.yul\":696:835   */\n              swap3\n              swap2\n              pop\n              pop\n              jump\t// out\n                /* \"#utility.yul\":841:1170   */\n            tag_10:\n                /* \"#utility.yul\":900:906   */\n              0x00\n                /* \"#utility.yul\":949:951   */\n              0x20\n                /* \"#utility.yul\":937:946   */\n              dup3\n                /* \"#utility.yul\":928:935   */\n              dup5\n                /* \"#utility.yul\":924:947   */\n              sub\n                /* \"#utility.yul\":920:952   */\n              slt\n                /* \"#utility.yul\":917:1036   */\n              iszero\n              tag_88\n              jumpi\n                /* \"#utility.yul\":955:1034   */\n              tag_89\n              tag_61\n              jump\t// in\n            tag_89:\n                /* \"#utility.yul\":917:1036   */\n            tag_88:\n                /* \"#utility.yul\":1075:1076   */\n              0x00\n                /* \"#utility.yul\":1100:1153   */\n              tag_90\n                /* \"#utility.yul\":1145:1152   */\n              dup5\n                /* \"#utility.yul\":1136:1142   */\n              dup3\n                /* \"#utility.yul\":1125:1134   */\n              dup6\n                /* \"#utility.yul\":1121:1143   */\n              add\n                /* \"#utility.yul\":1100:1153   */\n              tag_66\n              jump\t// in\n            tag_90:\n                /* \"#utility.yul\":1090:1153   */\n              swap2\n              pop\n                /* \"#utility.yul\":1046:1163   */\n              pop\n                /* \"#utility.yul\":841:1170   */\n              swap3\n              swap2\n              pop\n              pop\n              jump\t// out\n                /* \"#utility.yul\":1176:1294   */\n            tag_67:\n                /* \"#utility.yul\":1263:1287   */\n              tag_92\n                /* \"#utility.yul\":1281:1286   */\n              dup2\n                /* \"#utility.yul\":1263:1287   */\n              tag_64\n              jump\t// in\n            tag_92:\n                /* \"#utility.yul\":1258:1261   */\n              dup3\n                /* \"#utility.yul\":1251:1288   */\n              mstore\n                /* \"#utility.yul\":1176:1294   */\n              pop\n              pop\n              jump\t// out\n                /* \"#utility.yul\":1300:1522   */\n            tag_15:\n                /* \"#utility.yul\":1393:1397   */\n              0x00\n                /* \"#utility.yul\":1431:1433   */\n              0x20\n                /* \"#utility.yul\":1420:1429   */\n              dup3\n                /* \"#utility.yul\":1416:1434   */\n              add\n                /* \"#utility.yul\":1408:1434   */\n              swap1\n              pop\n                /* \"#utility.yul\":1444:1515   */\n              tag_94\n                /* \"#utility.yul\":1512:1513   */\n              0x00\n                /* \"#utility.yul\":1501:1510   */\n              dup4\n                /* \"#utility.yul\":1497:1514   */\n              add\n                /* \"#utility.yul\":1488:1494   */\n              dup5\n                /* \"#utility.yul\":1444:1515   */\n              tag_67\n              jump\t// in\n            tag_94:\n                /* \"#utility.yul\":1300:1522   */\n              swap3\n              swap2\n              pop\n              pop\n              jump\t// out\n                /* \"#utility.yul\":1528:1697   */\n            tag_68:\n                /* \"#utility.yul\":1612:1623   */\n              0x00\n                /* \"#utility.yul\":1646:1652   */\n              dup3\n                /* \"#utility.yul\":1641:1644   */\n              dup3\n                /* \"#utility.yul\":1634:1653   */\n              mstore\n                /* \"#utility.yul\":1686:1690   */\n              0x20\n                /* \"#utility.yul\":1681:1684   */\n              dup3\n                /* \"#utility.yul\":1677:1691   */\n              add\n                /* \"#utility.yul\":1662:1691   */\n              swap1\n              pop\n                /* \"#utility.yul\":1528:1697   */\n              swap3\n              swap2\n              pop\n              pop\n              jump\t// out\n                /* \"#utility.yul\":1703:1928   */\n            tag_69:\n                /* \"#utility.yul\":1843:1877   */\n              0x4f776e61626c653a206e6577206f776e657220697320746865207a65726f2061\n                /* \"#utility.yul\":1839:1840   */\n              0x00\n                /* \"#utility.yul\":1831:1837   */\n              dup3\n                /* \"#utility.yul\":1827:1841   */\n              add\n                /* \"#utility.yul\":1820:1878   */\n              mstore\n                /* \"#utility.yul\":1912:1920   */\n              0x6464726573730000000000000000000000000000000000000000000000000000\n                /* \"#utility.yul\":1907:1909   */\n              0x20\n                /* \"#utility.yul\":1899:1905   */\n              dup3\n                /* \"#utility.yul\":1895:1910   */\n              add\n                /* \"#utility.yul\":1888:1921   */\n              mstore\n                /* \"#utility.yul\":1703:1928   */\n              pop\n              jump\t// out\n                /* \"#utility.yul\":1934:2300   */\n            tag_70:\n                /* \"#utility.yul\":2076:2079   */\n              0x00\n                /* \"#utility.yul\":2097:2164   */\n              tag_98\n                /* \"#utility.yul\":2161:2163   */\n              0x26\n                /* \"#utility.yul\":2156:2159   */\n              dup4\n                /* \"#utility.yul\":2097:2164   */\n              tag_68\n              jump\t// in\n            tag_98:\n                /* \"#utility.yul\":2090:2164   */\n              swap2\n              pop\n                /* \"#utility.yul\":2173:2266   */\n              tag_99\n                /* \"#utility.yul\":2262:2265   */\n              dup3\n                /* \"#utility.yul\":2173:2266   */\n              tag_69\n              jump\t// in\n            tag_99:\n                /* \"#utility.yul\":2291:2293   */\n              0x40\n                /* \"#utility.yul\":2286:2289   */\n              dup3\n                /* \"#utility.yul\":2282:2294   */\n              add\n                /* \"#utility.yul\":2275:2294   */\n              swap1\n              pop\n                /* \"#utility.yul\":1934:2300   */\n              swap2\n              swap1\n              pop\n              jump\t// out\n                /* \"#utility.yul\":2306:2725   */\n            tag_42:\n                /* \"#utility.yul\":2472:2476   */\n              0x00\n                /* \"#utility.yul\":2510:2512   */\n              0x20\n                /* \"#utility.yul\":2499:2508   */\n              dup3\n                /* \"#utility.yul\":2495:2513   */\n              add\n                /* \"#utility.yul\":2487:2513   */\n              swap1\n              pop\n                /* \"#utility.yul\":2559:2568   */\n              dup2\n                /* \"#utility.yul\":2553:2557   */\n              dup2\n                /* \"#utility.yul\":2549:2569   */\n              sub\n                /* \"#utility.yul\":2545:2546   */\n              0x00\n                /* \"#utility.yul\":2534:2543   */\n              dup4\n                /* \"#utility.yul\":2530:2547   */\n              add\n                /* \"#utility.yul\":2523:2570   */\n              mstore\n                /* \"#utility.yul\":2587:2718   */\n              tag_101\n                /* \"#utility.yul\":2713:2717   */\n              dup2\n                /* \"#utility.yul\":2587:2718   */\n              tag_70\n              jump\t// in\n            tag_101:\n                /* \"#utility.yul\":2579:2718   */\n              swap1\n              pop\n                /* \"#utility.yul\":2306:2725   */\n              swap2\n              swap1\n              pop\n              jump\t// out\n                /* \"#utility.yul\":2731:2913   */\n            tag_71:\n                /* \"#utility.yul\":2871:2905   */\n              0x4f776e61626c653a2063616c6c6572206973206e6f7420746865206f776e6572\n                /* \"#utility.yul\":2867:2868   */\n              0x00\n                /* \"#utility.yul\":2859:2865   */\n              dup3\n                /* \"#utility.yul\":2855:2869   */\n              add\n                /* \"#utility.yul\":2848:2906   */\n              mstore\n                /* \"#utility.yul\":2731:2913   */\n              pop\n              jump\t// out\n                /* \"#utility.yul\":2919:3285   */\n            tag_72:\n                /* \"#utility.yul\":3061:3064   */\n              0x00\n                /* \"#utility.yul\":3082:3149   */\n              tag_104\n                /* \"#utility.yul\":3146:3148   */\n              0x20\n                /* \"#utility.yul\":3141:3144   */\n              dup4\n                /* \"#utility.yul\":3082:3149   */\n              tag_68\n              jump\t// in\n            tag_104:\n                /* \"#utility.yul\":3075:3149   */\n              swap2\n              pop\n                /* \"#utility.yul\":3158:3251   */\n              tag_105\n                /* \"#utility.yul\":3247:3250   */\n              dup3\n                /* \"#utility.yul\":3158:3251   */\n              tag_71\n              jump\t// in\n            tag_105:\n                /* \"#utility.yul\":3276:3278   */\n              0x20\n                /* \"#utility.yul\":3271:3274   */\n              dup3\n                /* \"#utility.yul\":3267:3279   */\n              add\n                /* \"#utility.yul\":3260:3279   */\n              swap1\n              pop\n                /* \"#utility.yul\":2919:3285   */\n              swap2\n              swap1\n              pop\n              jump\t// out\n                /* \"#utility.yul\":3291:3710   */\n            tag_50:\n                /* \"#utility.yul\":3457:3461   */\n              0x00\n                /* \"#utility.yul\":3495:3497   */\n              0x20\n                /* \"#utility.yul\":3484:3493   */\n              dup3\n                /* \"#utility.yul\":3480:3498   */\n              add\n                /* \"#utility.yul\":3472:3498   */\n              swap1\n              pop\n                /* \"#utility.yul\":3544:3553   */\n              dup2\n                /* \"#utility.yul\":3538:3542   */\n              dup2\n                /* \"#utility.yul\":3534:3554   */\n              sub\n                /* \"#utility.yul\":3530:3531   */\n              0x00\n                /* \"#utility.yul\":3519:3528   */\n              dup4\n                /* \"#utility.yul\":3515:3532   */\n              add\n                /* \"#utility.yul\":3508:3555   */\n              mstore\n                /* \"#utility.yul\":3572:3703   */\n              tag_107\n                /* \"#utility.yul\":3698:3702   */\n              dup2\n                /* \"#utility.yul\":3572:3703   */\n              tag_72\n              jump\t// in\n            tag_107:\n                /* \"#utility.yul\":3564:3703   */\n              swap1\n              pop\n                /* \"#utility.yul\":3291:3710   */\n              swap2\n              swap1\n              pop\n              jump\t// out\n                /* \"#utility.yul\":3716:3954   */\n            tag_73:\n                /* \"#utility.yul\":3856:3890   */\n              0x5570677261646561626c65426561636f6e3a20696d706c656d656e746174696f\n                /* \"#utility.yul\":3852:3853   */\n              0x00\n                /* \"#utility.yul\":3844:3850   */\n              dup3\n                /* \"#utility.yul\":3840:3854   */\n              add\n                /* \"#utility.yul\":3833:3891   */\n              mstore\n                /* \"#utility.yul\":3925:3946   */\n              0x6e206973206e6f74206120636f6e747261637400000000000000000000000000\n                /* \"#utility.yul\":3920:3922   */\n              0x20\n                /* \"#utility.yul\":3912:3918   */\n              dup3\n                /* \"#utility.yul\":3908:3923   */\n              add\n                /* \"#utility.yul\":3901:3947   */\n              mstore\n                /* \"#utility.yul\":3716:3954   */\n              pop\n              jump\t// out\n                /* \"#utility.yul\":3960:4326   */\n            tag_74:\n                /* \"#utility.yul\":4102:4105   */\n              0x00\n                /* \"#utility.yul\":4123:4190   */\n              tag_110\n                /* \"#utility.yul\":4187:4189   */\n              0x33\n                /* \"#utility.yul\":4182:4185   */\n              dup4\n                /* \"#utility.yul\":4123:4190   */\n              tag_68\n              jump\t// in\n            tag_110:\n                /* \"#utility.yul\":4116:4190   */\n              swap2\n              pop\n                /* \"#utility.yul\":4199:4292   */\n              tag_111\n                /* \"#utility.yul\":4288:4291   */\n              dup3\n                /* \"#utility.yul\":4199:4292   */\n              tag_73\n              jump\t// in\n            tag_111:\n                /* \"#utility.yul\":4317:4319   */\n              0x40\n                /* \"#utility.yul\":4312:4315   */\n              dup3\n                /* \"#utility.yul\":4308:4320   */\n              add\n                /* \"#utility.yul\":4301:4320   */\n              swap1\n              pop\n                /* \"#utility.yul\":3960:4326   */\n              swap2\n              swap1\n              pop\n              jump\t// out\n                /* \"#utility.yul\":4332:4751   */\n            tag_56:\n                /* \"#utility.yul\":4498:4502   */\n              0x00\n                /* \"#utility.yul\":4536:4538   */\n              0x20\n                /* \"#utility.yul\":4525:4534   */\n              dup3\n                /* \"#utility.yul\":4521:4539   */\n              add\n                /* \"#utility.yul\":4513:4539   */\n              swap1\n              pop\n                /* \"#utility.yul\":4585:4594   */\n              dup2\n                /* \"#utility.yul\":4579:4583   */\n              dup2\n                /* \"#utility.yul\":4575:4595   */\n              sub\n                /* \"#utility.yul\":4571:4572   */\n              0x00\n                /* \"#utility.yul\":4560:4569   */\n              dup4\n                /* \"#utility.yul\":4556:4573   */\n              add\n                /* \"#utility.yul\":4549:4596   */\n              mstore\n                /* \"#utility.yul\":4613:4744   */\n              tag_113\n                /* \"#utility.yul\":4739:4743   */\n              dup2\n                /* \"#utility.yul\":4613:4744   */\n              tag_74\n              jump\t// in\n            tag_113:\n                /* \"#utility.yul\":4605:4744   */\n              swap1\n              pop\n                /* \"#utility.yul\":4332:4751   */\n              swap2\n              swap1\n              pop\n              jump\t// out\n\n            auxdata: 0xa26469706673582212206a41ca6e6d94870eab77d02568b4ef4edd571320ab7c60ee77bf11579e97c5a464736f6c634300081a0033\n        }\n    }\n\n    auxdata: 0xa26469706673582212209a1d15f9dc7174ae79e37f3a6c2714c82bd0797afc6490eccd5960e2ef41a87364736f6c634300081a0033\n}\n",
				"bytecode": {
					"linkReferences": {},
					"object": "608060405234801561000f575f80fd5b506040516137fb3803806137fb8339818101604052810190610031919061027c565b61004d61004261015660201b60201c565b61015d60201b60201c565b8360055f6101000a81548173ffffffffffffffffffffffffffffffffffffffff021916908373ffffffffffffffffffffffffffffffffffffffff1602179055508260065f6101000a81548173ffffffffffffffffffffffffffffffffffffffff021916908373ffffffffffffffffffffffffffffffffffffffff1602179055508160075f6101000a81548173ffffffffffffffffffffffffffffffffffffffff021916908373ffffffffffffffffffffffffffffffffffffffff1602179055508060085f6101000a81548173ffffffffffffffffffffffffffffffffffffffff021916908373ffffffffffffffffffffffffffffffffffffffff160217905550505050506102e0565b5f33905090565b5f805f9054906101000a900473ffffffffffffffffffffffffffffffffffffffff169050815f806101000a81548173ffffffffffffffffffffffffffffffffffffffff021916908373ffffffffffffffffffffffffffffffffffffffff1602179055508173ffffffffffffffffffffffffffffffffffffffff168173ffffffffffffffffffffffffffffffffffffffff167f8be0079c531659141344cd1fd0a4f28419497f9722a3daafe3b4186f6b6457e060405160405180910390a35050565b5f80fd5b5f73ffffffffffffffffffffffffffffffffffffffff82169050919050565b5f61024b82610222565b9050919050565b61025b81610241565b8114610265575f80fd5b50565b5f8151905061027681610252565b92915050565b5f805f80608085870312156102945761029361021e565b5b5f6102a187828801610268565b94505060206102b287828801610268565b93505060406102c387828801610268565b92505060606102d487828801610268565b91505092959194509250565b61350e806102ed5f395ff3fe608060405234801561000f575f80fd5b506004361061018c575f3560e01c80638683ed5b116100dc578063cdd5d9dd11610095578063e8edd3e81161006f578063e8edd3e814610442578063ed8ea60014610460578063f12d54d81461047e578063f2fde38b1461049c5761018c565b8063cdd5d9dd146103da578063ce903bcc146103f6578063de73a594146104125761018c565b80638683ed5b1461033c5780638da5cb5b1461035a578063940a9fa114610378578063a44d57a014610382578063aced1661146103b2578063c93d7715146103d05761018c565b806341a1914e116101495780635a8b1a9f116101235780635a8b1a9f146102ca5780636b683896146102e6578063715018a614610316578063748747e6146103205761018c565b806341a1914e1461024e57806343bc4b9a1461027e578063517137ee1461029a5761018c565b8063066e4a19146101905780630c979919146101ac578063116fd501146101c8578063194a4108146101f85780631d06ce66146102145780632cebdeb214610230575b5f80fd5b6101aa60048036038101906101a5919061157e565b6104b8565b005b6101c660048036038101906101c1919061157e565b61053a565b005b6101e260048036038101906101dd919061160a565b6105d4565b6040516101ef9190611664565b60405180910390f35b610212600480360381019061020d919061160a565b610692565b005b61022e6004803603810190610229919061157e565b6107d1565b005b610238610853565b6040516102459190611664565b60405180910390f35b610268600480360381019061026391906117b5565b610878565b6040516102759190611857565b60405180910390f35b6102986004803603810190610293919061157e565b6108c0565b005b6102b460048036038101906102af91906118a3565b610a17565b6040516102c1919061192e565b60405180910390f35b6102e460048036038101906102df919061194e565b610abd565b005b61030060048036038101906102fb919061160a565b610baf565b60405161030d9190611664565b60405180910390f35b61031e610c64565b005b61033a6004803603810190610335919061157e565b610c77565b005b610344610cf9565b6040516103519190611664565b60405180910390f35b610362610d1e565b60405161036f9190611664565b60405180910390f35b610380610d45565b005b61039c6004803603810190610397919061157e565b610da0565b6040516103a991906119c5565b60405180910390f35b6103ba610dbd565b6040516103c79190611664565b60405180910390f35b6103d8610de2565b005b6103f460048036038101906103ef919061194e565b610efe565b005b610410600480360381019061040b919061160a565b611172565b005b61042c600480360381019061042791906117b5565b6111f0565b60405161043991906119c5565b60405180910390f35b61044a611225565b6040516104579190611664565b60405180910390f35b61046861124a565b6040516104759190611ae1565b60405180910390f35b61048661131e565b60405161049391906119c5565b60405180910390f35b6104b660048036038101906104b1919061157e565b611331565b005b6104c06113b3565b8060085f6101000a81548173ffffffffffffffffffffffffffffffffffffffff021916908373ffffffffffffffffffffffffffffffffffffffff1602179055507fc6ae9db6ad0e87aaa4f7020ee56278bcc057e08519cf08ce5ecc3b25aa588d4f8160405161052f9190611664565b60405180910390a150565b6105426113b3565b600160025f8373ffffffffffffffffffffffffffffffffffffffff1673ffffffffffffffffffffffffffffffffffffffff1681526020019081526020015f205f6101000a81548160ff0219169083151502179055507fad7caca61f64c5976fc697122c9ff26acc30fc936092716798ff3b43cc54f8008160016040516105c9929190611b01565b60405180910390a150565b5f80600184846040516105e8929190611b56565b90815260200160405180910390205f9054906101000a900473ffffffffffffffffffffffffffffffffffffffff1690505f81604051610626906114f9565b6106309190611ba1565b604051809103905ff080158015610649573d5f803e3d5ffd5b5090507f3699b7de9b98bb64c45028ff3593b0d6159da8016d0f85b6af11d765320c87bb85858360405161067f93929190611bf9565b60405180910390a1809250505092915050565b61069a610d1e565b73ffffffffffffffffffffffffffffffffffffffff163373ffffffffffffffffffffffffffffffffffffffff1614158015610722575060065f9054906101000a900473ffffffffffffffffffffffffffffffffffffffff1673ffffffffffffffffffffffffffffffffffffffff163373ffffffffffffffffffffffffffffffffffffffff1614155b15610759576040517fc0fc8a8a00000000000000000000000000000000000000000000000000000000815260040160405180910390fd5b60016003838360405161076d929190611b56565b90815260200160405180910390205f6101000a81548160ff0219169083151502179055507f32b2ef738db0485a8739f39e50322bb2c617e6a3d2539b4ecf26f199021057a6828260016040516107c593929190611c29565b60405180910390a15050565b6107d96113b3565b8060075f6101000a81548173ffffffffffffffffffffffffffffffffffffffff021916908373ffffffffffffffffffffffffffffffffffffffff1602179055507f3129a3b1a01b54525e947a4b2e7b5a30606b2d68562be910b844f842eeb3cf5a816040516108489190611664565b60405180910390a150565b60055f9054906101000a900473ffffffffffffffffffffffffffffffffffffffff1681565b6001818051602081018201805184825260208301602085012081835280955050505050505f915054906101000a900473ffffffffffffffffffffffffffffffffffffffff1681565b6108c8610d1e565b73ffffffffffffffffffffffffffffffffffffffff163373ffffffffffffffffffffffffffffffffffffffff1614158015610950575060065f9054906101000a900473ffffffffffffffffffffffffffffffffffffffff1673ffffffffffffffffffffffffffffffffffffffff163373ffffffffffffffffffffffffffffffffffffffff1614155b15610987576040517fc0fc8a8a00000000000000000000000000000000000000000000000000000000815260040160405180910390fd5b5f60025f8373ffffffffffffffffffffffffffffffffffffffff1673ffffffffffffffffffffffffffffffffffffffff1681526020019081526020015f205f6101000a81548160ff0219169083151502179055507fad7caca61f64c5976fc697122c9ff26acc30fc936092716798ff3b43cc54f800815f604051610a0c929190611b01565b60405180910390a150565b60048181548110610a26575f80fd5b905f5260205f20015f915090508054610a3e90611c86565b80601f0160208091040260200160405190810160405280929190818152602001828054610a6a90611c86565b8015610ab55780601f10610a8c57610100808354040283529160200191610ab5565b820191905f5260205f20905b815481529060010190602001808311610a9857829003601f168201915b505050505081565b610ac56113b3565b5f60018484604051610ad8929190611b56565b90815260200160405180910390205f9054906101000a900473ffffffffffffffffffffffffffffffffffffffff1690508073ffffffffffffffffffffffffffffffffffffffff16633659cfe6836040518263ffffffff1660e01b8152600401610b419190611664565b5f604051808303815f87803b158015610b58575f80fd5b505af1158015610b6a573d5f803e3d5ffd5b505050507f52a6e00a16a485598386bd39b6aac98ed50e4fbde10ef9b5c18374faecb55010848484604051610ba193929190611bf9565b60405180910390a150505050565b5f60018383604051610bc2929190611b56565b90815260200160405180910390205f9054906101000a900473ffffffffffffffffffffffffffffffffffffffff1673ffffffffffffffffffffffffffffffffffffffff16635c60da1b6040518163ffffffff1660e01b8152600401602060405180830381865afa158015610c38573d5f803e3d5ffd5b505050506040513d601f19601f82011682018060405250810190610c5c9190611cca565b905092915050565b610c6c6113b3565b610c755f611431565b565b610c7f6113b3565b8060065f6101000a81548173ffffffffffffffffffffffffffffffffffffffff021916908373ffffffffffffffffffffffffffffffffffffffff1602179055507fefb5cfa1a8690c124332ab93324539c5c9c4be03f28aeb8be86f2d8a0c9fb99b81604051610cee9190611664565b60405180910390a150565b60075f9054906101000a900473ffffffffffffffffffffffffffffffffffffffff1681565b5f805f9054906101000a900473ffffffffffffffffffffffffffffffffffffffff16905090565b610d4d6113b3565b5f600860146101000a81548160ff0219169083151502179055507fa5fea31b6dbd7aec6098ca4653b1d51af1ef786fcb19031c4c4e55b675535f1e5f604051610d9691906119c5565b60405180910390a1565b6002602052805f5260405f205f915054906101000a900460ff1681565b60065f9054906101000a900473ffffffffffffffffffffffffffffffffffffffff1681565b610dea610d1e565b73ffffffffffffffffffffffffffffffffffffffff163373ffffffffffffffffffffffffffffffffffffffff1614158015610e72575060065f9054906101000a900473ffffffffffffffffffffffffffffffffffffffff1673ffffffffffffffffffffffffffffffffffffffff163373ffffffffffffffffffffffffffffffffffffffff1614155b15610ea9576040517fc0fc8a8a00000000000000000000000000000000000000000000000000000000815260040160405180910390fd5b6001600860146101000a81548160ff0219169083151502179055507fa5fea31b6dbd7aec6098ca4653b1d51af1ef786fcb19031c4c4e55b675535f1e6001604051610ef491906119c5565b60405180910390a1565b610f06610d1e565b73ffffffffffffffffffffffffffffffffffffffff163373ffffffffffffffffffffffffffffffffffffffff1614158015610f8e575060065f9054906101000a900473ffffffffffffffffffffffffffffffffffffffff1673ffffffffffffffffffffffffffffffffffffffff163373ffffffffffffffffffffffffffffffffffffffff1614155b15610fc5576040517fc0fc8a8a00000000000000000000000000000000000000000000000000000000815260040160405180910390fd5b5f73ffffffffffffffffffffffffffffffffffffffff1660018484604051610fee929190611b56565b90815260200160405180910390205f9054906101000a900473ffffffffffffffffffffffffffffffffffffffff1673ffffffffffffffffffffffffffffffffffffffff1614611069576040517f1f93a2cd00000000000000000000000000000000000000000000000000000000815260040160405180910390fd5b8060405161107690611506565b6110809190611664565b604051809103905ff080158015611099573d5f803e3d5ffd5b50600184846040516110ac929190611b56565b90815260200160405180910390205f6101000a81548173ffffffffffffffffffffffffffffffffffffffff021916908373ffffffffffffffffffffffffffffffffffffffff1602179055506004838390918060018154018082558091505060019003905f5260205f20015f909192909192909192909192509182611131929190611e93565b507fa065c3b00cde146f5df407afa0661cfa2c0ed2efd62ac00b3241aaae02ff5d2e83838360405161116593929190611bf9565b60405180910390a1505050565b61117a6113b3565b5f6003838360405161118d929190611b56565b90815260200160405180910390205f6101000a81548160ff0219169083151502179055507f32b2ef738db0485a8739f39e50322bb2c617e6a3d2539b4ecf26f199021057a682825f6040516111e493929190611c29565b60405180910390a15050565b6003818051602081018201805184825260208301602085012081835280955050505050505f915054906101000a900460ff1681565b60085f9054906101000a900473ffffffffffffffffffffffffffffffffffffffff1681565b60606004805480602002602001604051908101604052809291908181526020015f905b82821015611315578382905f5260205f2001805461128a90611c86565b80601f01602080910402602001604051908101604052809291908181526020018280546112b690611c86565b80156113015780601f106112d857610100808354040283529160200191611301565b820191905f5260205f20905b8154815290600101906020018083116112e457829003601f168201915b50505050508152602001906001019061126d565b50505050905090565b600860149054906101000a900460ff1681565b6113396113b3565b5f73ffffffffffffffffffffffffffffffffffffffff168173ffffffffffffffffffffffffffffffffffffffff16036113a7576040517f08c379a000000000000000000000000000000000000000000000000000000000815260040161139e90611fd0565b60405180910390fd5b6113b081611431565b50565b6113bb6114f2565b73ffffffffffffffffffffffffffffffffffffffff166113d9610d1e565b73ffffffffffffffffffffffffffffffffffffffff161461142f576040517f08c379a000000000000000000000000000000000000000000000000000000000815260040161142690612038565b60405180910390fd5b565b5f805f9054906101000a900473ffffffffffffffffffffffffffffffffffffffff169050815f806101000a81548173ffffffffffffffffffffffffffffffffffffffff021916908373ffffffffffffffffffffffffffffffffffffffff1602179055508173ffffffffffffffffffffffffffffffffffffffff168173ffffffffffffffffffffffffffffffffffffffff167f8be0079c531659141344cd1fd0a4f28419497f9722a3daafe3b4186f6b6457e060405160405180910390a35050565b5f33905090565b610af18061205783390190565b61099180612b4883390190565b5f604051905090565b5f80fd5b5f80fd5b5f73ffffffffffffffffffffffffffffffffffffffff82169050919050565b5f61154d82611524565b9050919050565b61155d81611543565b8114611567575f80fd5b50565b5f8135905061157881611554565b92915050565b5f602082840312156115935761159261151c565b5b5f6115a08482850161156a565b91505092915050565b5f80fd5b5f80fd5b5f80fd5b5f8083601f8401126115ca576115c96115a9565b5b8235905067ffffffffffffffff8111156115e7576115e66115ad565b5b602083019150836001820283011115611603576116026115b1565b5b9250929050565b5f80602083850312156116205761161f61151c565b5b5f83013567ffffffffffffffff81111561163d5761163c611520565b5b611649858286016115b5565b92509250509250929050565b61165e81611543565b82525050565b5f6020820190506116775f830184611655565b92915050565b5f80fd5b5f601f19601f8301169050919050565b7f4e487b71000000000000000000000000000000000000000000000000000000005f52604160045260245ffd5b6116c782611681565b810181811067ffffffffffffffff821117156116e6576116e5611691565b5b80604052505050565b5f6116f8611513565b905061170482826116be565b919050565b5f67ffffffffffffffff82111561172357611722611691565b5b61172c82611681565b9050602081019050919050565b828183375f83830152505050565b5f61175961175484611709565b6116ef565b9050828152602081018484840111156117755761177461167d565b5b611780848285611739565b509392505050565b5f82601f83011261179c5761179b6115a9565b5b81356117ac848260208601611747565b91505092915050565b5f602082840312156117ca576117c961151c565b5b5f82013567ffffffffffffffff8111156117e7576117e6611520565b5b6117f384828501611788565b91505092915050565b5f819050919050565b5f61181f61181a61181584611524565b6117fc565b611524565b9050919050565b5f61183082611805565b9050919050565b5f61184182611826565b9050919050565b61185181611837565b82525050565b5f60208201905061186a5f830184611848565b92915050565b5f819050919050565b61188281611870565b811461188c575f80fd5b50565b5f8135905061189d81611879565b92915050565b5f602082840312156118b8576118b761151c565b5b5f6118c58482850161188f565b91505092915050565b5f81519050919050565b5f82825260208201905092915050565b8281835e5f83830152505050565b5f611900826118ce565b61190a81856118d8565b935061191a8185602086016118e8565b61192381611681565b840191505092915050565b5f6020820190508181035f83015261194681846118f6565b905092915050565b5f805f604084860312156119655761196461151c565b5b5f84013567ffffffffffffffff81111561198257611981611520565b5b61198e868287016115b5565b935093505060206119a18682870161156a565b9150509250925092565b5f8115159050919050565b6119bf816119ab565b82525050565b5f6020820190506119d85f8301846119b6565b92915050565b5f81519050919050565b5f82825260208201905092915050565b5f819050602082019050919050565b5f82825260208201905092915050565b5f611a21826118ce565b611a2b8185611a07565b9350611a3b8185602086016118e8565b611a4481611681565b840191505092915050565b5f611a5a8383611a17565b905092915050565b5f602082019050919050565b5f611a78826119de565b611a8281856119e8565b935083602082028501611a94856119f8565b805f5b85811015611acf5784840389528151611ab08582611a4f565b9450611abb83611a62565b925060208a01995050600181019050611a97565b50829750879550505050505092915050565b5f6020820190508181035f830152611af98184611a6e565b905092915050565b5f604082019050611b145f830185611655565b611b2160208301846119b6565b9392505050565b5f81905092915050565b5f611b3d8385611b28565b9350611b4a838584611739565b82840190509392505050565b5f611b62828486611b32565b91508190509392505050565b5f82825260208201905092915050565b50565b5f611b8c5f83611b6e565b9150611b9782611b7e565b5f82019050919050565b5f604082019050611bb45f830184611655565b8181036020830152611bc581611b81565b905092915050565b5f611bd883856118d8565b9350611be5838584611739565b611bee83611681565b840190509392505050565b5f6040820190508181035f830152611c12818587611bcd565b9050611c216020830184611655565b949350505050565b5f6040820190508181035f830152611c42818587611bcd565b9050611c5160208301846119b6565b949350505050565b7f4e487b71000000000000000000000000000000000000000000000000000000005f52602260045260245ffd5b5f6002820490506001821680611c9d57607f821691505b602082108103611cb057611caf611c59565b5b50919050565b5f81519050611cc481611554565b92915050565b5f60208284031215611cdf57611cde61151c565b5b5f611cec84828501611cb6565b91505092915050565b5f82905092915050565b5f819050815f5260205f209050919050565b5f6020601f8301049050919050565b5f82821b905092915050565b5f60088302611d5b7fffffffffffffffffffffffffffffffffffffffffffffffffffffffffffffffff82611d20565b611d658683611d20565b95508019841693508086168417925050509392505050565b5f611d97611d92611d8d84611870565b6117fc565b611870565b9050919050565b5f819050919050565b611db083611d7d565b611dc4611dbc82611d9e565b848454611d2c565b825550505050565b5f90565b611dd8611dcc565b611de3818484611da7565b505050565b5b81811015611e0657611dfb5f82611dd0565b600181019050611de9565b5050565b601f821115611e4b57611e1c81611cff565b611e2584611d11565b81016020851015611e34578190505b611e48611e4085611d11565b830182611de8565b50505b505050565b5f82821c905092915050565b5f611e6b5f1984600802611e50565b1980831691505092915050565b5f611e838383611e5c565b9150826002028217905092915050565b611e9d8383611cf5565b67ffffffffffffffff811115611eb657611eb5611691565b5b611ec08254611c86565b611ecb828285611e0a565b5f601f831160018114611ef8575f8415611ee6578287013590505b611ef08582611e78565b865550611f57565b601f198416611f0686611cff565b5f5b82811015611f2d57848901358255600182019150602085019450602081019050611f08565b86831015611f4a5784890135611f46601f891682611e5c565b8355505b6001600288020188555050505b50505050505050565b7f4f776e61626c653a206e6577206f776e657220697320746865207a65726f20615f8201527f6464726573730000000000000000000000000000000000000000000000000000602082015250565b5f611fba6026836118d8565b9150611fc582611f60565b604082019050919050565b5f6020820190508181035f830152611fe781611fae565b9050919050565b7f4f776e61626c653a2063616c6c6572206973206e6f7420746865206f776e65725f82015250565b5f6120226020836118d8565b915061202d82611fee565b602082019050919050565b5f6020820190508181035f83015261204f81612016565b905091905056fe6080604052604051610af1380380610af1833981810160405281019061002591906105fb565b61003682825f61003d60201b60201c565b50506108d0565b61004c8361012360201b60201c565b8273ffffffffffffffffffffffffffffffffffffffff167f1cf3b03a6cf19fa2baba4df148e9dcabedea7f8a5c07840e207e5c089be95d3e60405160405180910390a25f8251118061009b5750805b1561011e5761011c8373ffffffffffffffffffffffffffffffffffffffff16635c60da1b6040518163ffffffff1660e01b8152600401602060405180830381865afa1580156100ec573d5f803e3d5ffd5b505050506040513d601f19601f820116820180604052508101906101109190610655565b8361029f60201b60201c565b505b505050565b610132816102d260201b60201c565b610171576040517f08c379a000000000000000000000000000000000000000000000000000000000815260040161016890610700565b60405180910390fd5b6101ec8173ffffffffffffffffffffffffffffffffffffffff16635c60da1b6040518163ffffffff1660e01b8152600401602060405180830381865afa1580156101bd573d5f803e3d5ffd5b505050506040513d601f19601f820116820180604052508101906101e19190610655565b6102d260201b60201c565b61022b576040517f08c379a00000000000000000000000000000000000000000000000000000000081526004016102229061078e565b60405180910390fd5b8061025d7fa3f0ad74e5423aebfd80d3ef4346578335a9a72aeaee59ff6cb3582b35133d505f1b6102f460201b60201c565b5f015f6101000a81548173ffffffffffffffffffffffffffffffffffffffff021916908373ffffffffffffffffffffffffffffffffffffffff16021790555050565b60606102ca8383604051806060016040528060278152602001610aca602791396102fd60201b60201c565b905092915050565b5f808273ffffffffffffffffffffffffffffffffffffffff163b119050919050565b5f819050919050565b60605f808573ffffffffffffffffffffffffffffffffffffffff168560405161032691906107f0565b5f60405180830381855af49150503d805f811461035e576040519150601f19603f3d011682016040523d82523d5f602084013e610363565b606091505b509150915061037a8683838761038560201b60201c565b925050509392505050565b606083156103ec575f8351036103e4576103a4856102d260201b60201c565b6103e3576040517f08c379a00000000000000000000000000000000000000000000000000000000081526004016103da90610850565b60405180910390fd5b5b8290506103fd565b6103fc838361040560201b60201c565b5b949350505050565b5f825111156104175781518083602001fd5b806040517f08c379a000000000000000000000000000000000000000000000000000000000815260040161044b91906108b0565b60405180910390fd5b5f604051905090565b5f80fd5b5f80fd5b5f73ffffffffffffffffffffffffffffffffffffffff82169050919050565b5f61048e82610465565b9050919050565b61049e81610484565b81146104a8575f80fd5b50565b5f815190506104b981610495565b92915050565b5f80fd5b5f80fd5b5f601f19601f8301169050919050565b7f4e487b71000000000000000000000000000000000000000000000000000000005f52604160045260245ffd5b61050d826104c7565b810181811067ffffffffffffffff8211171561052c5761052b6104d7565b5b80604052505050565b5f61053e610454565b905061054a8282610504565b919050565b5f67ffffffffffffffff821115610569576105686104d7565b5b610572826104c7565b9050602081019050919050565b8281835e5f83830152505050565b5f61059f61059a8461054f565b610535565b9050828152602081018484840111156105bb576105ba6104c3565b5b6105c684828561057f565b509392505050565b5f82601f8301126105e2576105e16104bf565b5b81516105f284826020860161058d565b91505092915050565b5f80604083850312156106115761061061045d565b5b5f61061e858286016104ab565b925050602083015167ffffffffffffffff81111561063f5761063e610461565b5b61064b858286016105ce565b9150509250929050565b5f6020828403121561066a5761066961045d565b5b5f610677848285016104ab565b91505092915050565b5f82825260208201905092915050565b7f455243313936373a206e657720626561636f6e206973206e6f74206120636f6e5f8201527f7472616374000000000000000000000000000000000000000000000000000000602082015250565b5f6106ea602583610680565b91506106f582610690565b604082019050919050565b5f6020820190508181035f830152610717816106de565b9050919050565b7f455243313936373a20626561636f6e20696d706c656d656e746174696f6e20695f8201527f73206e6f74206120636f6e747261637400000000000000000000000000000000602082015250565b5f610778603083610680565b91506107838261071e565b604082019050919050565b5f6020820190508181035f8301526107a58161076c565b9050919050565b5f81519050919050565b5f81905092915050565b5f6107ca826107ac565b6107d481856107b6565b93506107e481856020860161057f565b80840191505092915050565b5f6107fb82846107c0565b915081905092915050565b7f416464726573733a2063616c6c20746f206e6f6e2d636f6e74726163740000005f82015250565b5f61083a601d83610680565b915061084582610806565b602082019050919050565b5f6020820190508181035f8301526108678161082e565b9050919050565b5f81519050919050565b5f6108828261086e565b61088c8185610680565b935061089c81856020860161057f565b6108a5816104c7565b840191505092915050565b5f6020820190508181035f8301526108c88184610878565b905092915050565b6101ed806108dd5f395ff3fe6080604052366100135761001161001d565b005b61001b61001d565b005b610025610037565b610035610030610039565b6100b3565b565b565b5f6100426100d2565b73ffffffffffffffffffffffffffffffffffffffff16635c60da1b6040518163ffffffff1660e01b8152600401602060405180830381865afa15801561008a573d5f803e3d5ffd5b505050506040513d601f19601f820116820180604052508101906100ae919061018c565b905090565b365f80375f80365f845af43d5f803e805f81146100ce573d5ff35b3d5ffd5b5f6100fe7fa3f0ad74e5423aebfd80d3ef4346578335a9a72aeaee59ff6cb3582b35133d505f1b610125565b5f015f9054906101000a900473ffffffffffffffffffffffffffffffffffffffff16905090565b5f819050919050565b5f80fd5b5f73ffffffffffffffffffffffffffffffffffffffff82169050919050565b5f61015b82610132565b9050919050565b61016b81610151565b8114610175575f80fd5b50565b5f8151905061018681610162565b92915050565b5f602082840312156101a1576101a061012e565b5b5f6101ae84828501610178565b9150509291505056fea264697066735822122021be1fd0db79fd146a1a458cbcaa24f2fd4ad118449c6e24e333c0e44a2ebe5b64736f6c634300081a0033416464726573733a206c6f772d6c6576656c2064656c65676174652063616c6c206661696c6564608060405234801561000f575f80fd5b506040516109913803806109918339818101604052810190610031919061023b565b61004d61004261006260201b60201c565b61006960201b60201c565b61005c8161012a60201b60201c565b50610304565b5f33905090565b5f805f9054906101000a900473ffffffffffffffffffffffffffffffffffffffff169050815f806101000a81548173ffffffffffffffffffffffffffffffffffffffff021916908373ffffffffffffffffffffffffffffffffffffffff1602179055508173ffffffffffffffffffffffffffffffffffffffff168173ffffffffffffffffffffffffffffffffffffffff167f8be0079c531659141344cd1fd0a4f28419497f9722a3daafe3b4186f6b6457e060405160405180910390a35050565b610139816101bb60201b60201c565b610178576040517f08c379a000000000000000000000000000000000000000000000000000000000815260040161016f906102e6565b60405180910390fd5b8060015f6101000a81548173ffffffffffffffffffffffffffffffffffffffff021916908373ffffffffffffffffffffffffffffffffffffffff16021790555050565b5f808273ffffffffffffffffffffffffffffffffffffffff163b119050919050565b5f80fd5b5f73ffffffffffffffffffffffffffffffffffffffff82169050919050565b5f61020a826101e1565b9050919050565b61021a81610200565b8114610224575f80fd5b50565b5f8151905061023581610211565b92915050565b5f602082840312156102505761024f6101dd565b5b5f61025d84828501610227565b91505092915050565b5f82825260208201905092915050565b7f5570677261646561626c65426561636f6e3a20696d706c656d656e746174696f5f8201527f6e206973206e6f74206120636f6e747261637400000000000000000000000000602082015250565b5f6102d0603383610266565b91506102db82610276565b604082019050919050565b5f6020820190508181035f8301526102fd816102c4565b9050919050565b610680806103115f395ff3fe608060405234801561000f575f80fd5b5060043610610055575f3560e01c80633659cfe6146100595780635c60da1b14610075578063715018a6146100935780638da5cb5b1461009d578063f2fde38b146100bb575b5f80fd5b610073600480360381019061006e9190610463565b6100d7565b005b61007d61012e565b60405161008a919061049d565b60405180910390f35b61009b610156565b005b6100a5610169565b6040516100b2919061049d565b60405180910390f35b6100d560048036038101906100d09190610463565b610190565b005b6100df610212565b6100e881610290565b8073ffffffffffffffffffffffffffffffffffffffff167fbc7cd75a20ee27fd9adebab32041f755214dbc6bffa90cc0225b39da2e5c2d3b60405160405180910390a250565b5f60015f9054906101000a900473ffffffffffffffffffffffffffffffffffffffff16905090565b61015e610212565b6101675f61031b565b565b5f805f9054906101000a900473ffffffffffffffffffffffffffffffffffffffff16905090565b610198610212565b5f73ffffffffffffffffffffffffffffffffffffffff168173ffffffffffffffffffffffffffffffffffffffff1603610206576040517f08c379a00000000000000000000000000000000000000000000000000000000081526004016101fd90610536565b60405180910390fd5b61020f8161031b565b50565b61021a6103dc565b73ffffffffffffffffffffffffffffffffffffffff16610238610169565b73ffffffffffffffffffffffffffffffffffffffff161461028e576040517f08c379a00000000000000000000000000000000000000000000000000000000081526004016102859061059e565b60405180910390fd5b565b610299816103e3565b6102d8576040517f08c379a00000000000000000000000000000000000000000000000000000000081526004016102cf9061062c565b60405180910390fd5b8060015f6101000a81548173ffffffffffffffffffffffffffffffffffffffff021916908373ffffffffffffffffffffffffffffffffffffffff16021790555050565b5f805f9054906101000a900473ffffffffffffffffffffffffffffffffffffffff169050815f806101000a81548173ffffffffffffffffffffffffffffffffffffffff021916908373ffffffffffffffffffffffffffffffffffffffff1602179055508173ffffffffffffffffffffffffffffffffffffffff168173ffffffffffffffffffffffffffffffffffffffff167f8be0079c531659141344cd1fd0a4f28419497f9722a3daafe3b4186f6b6457e060405160405180910390a35050565b5f33905090565b5f808273ffffffffffffffffffffffffffffffffffffffff163b119050919050565b5f80fd5b5f73ffffffffffffffffffffffffffffffffffffffff82169050919050565b5f61043282610409565b9050919050565b61044281610428565b811461044c575f80fd5b50565b5f8135905061045d81610439565b92915050565b5f6020828403121561047857610477610405565b5b5f6104858482850161044f565b91505092915050565b61049781610428565b82525050565b5f6020820190506104b05f83018461048e565b92915050565b5f82825260208201905092915050565b7f4f776e61626c653a206e6577206f776e657220697320746865207a65726f20615f8201527f6464726573730000000000000000000000000000000000000000000000000000602082015250565b5f6105206026836104b6565b915061052b826104c6565b604082019050919050565b5f6020820190508181035f83015261054d81610514565b9050919050565b7f4f776e61626c653a2063616c6c6572206973206e6f7420746865206f776e65725f82015250565b5f6105886020836104b6565b915061059382610554565b602082019050919050565b5f6020820190508181035f8301526105b58161057c565b9050919050565b7f5570677261646561626c65426561636f6e3a20696d706c656d656e746174696f5f8201527f6e206973206e6f74206120636f6e747261637400000000000000000000000000602082015250565b5f6106166033836104b6565b9150610621826105bc565b604082019050919050565b5f6020820190508181035f8301526106438161060a565b905091905056fea26469706673582212206a41ca6e6d94870eab77d02568b4ef4edd571320ab7c60ee77bf11579e97c5a464736f6c634300081a0033a26469706673582212209a1d15f9dc7174ae79e37f3a6c2714c82bd0797afc6490eccd5960e2ef41a87364736f6c634300081a0033",
					"opcodes": "PUSH1 0x80 PUSH1 0x40 MSTORE CALLVALUE DUP1 ISZERO PUSH2 0xF JUMPI PUSH0 DUP1 REVERT JUMPDEST POP PUSH1 0x40 MLOAD PUSH2 0x37FB CODESIZE SUB DUP1 PUSH2 0x37FB DUP4 CODECOPY DUP2 DUP2 ADD PUSH1 0x40 MSTORE DUP2 ADD SWAP1 PUSH2 0x31 SWAP2 SWAP1 PUSH2 0x27C JUMP JUMPDEST PUSH2 0x4D PUSH2 0x42 PUSH2 0x156 PUSH1 0x20 SHL PUSH1 0x20 SHR JUMP JUMPDEST PUSH2 0x15D PUSH1 0x20 SHL PUSH1 0x20 SHR JUMP JUMPDEST DUP4 PUSH1 0x5 PUSH0 PUSH2 0x100 EXP DUP2 SLOAD DUP2 PUSH20 0xFFFFFFFFFFFFFFFFFFFFFFFFFFFFFFFFFFFFFFFF MUL NOT AND SWAP1 DUP4 PUSH20 0xFFFFFFFFFFFFFFFFFFFFFFFFFFFFFFFFFFFFFFFF AND MUL OR SWAP1 SSTORE POP DUP3 PUSH1 0x6 PUSH0 PUSH2 0x100 EXP DUP2 SLOAD DUP2 PUSH20 0xFFFFFFFFFFFFFFFFFFFFFFFFFFFFFFFFFFFFFFFF MUL NOT AND SWAP1 DUP4 PUSH20 0xFFFFFFFFFFFFFFFFFFFFFFFFFFFFFFFFFFFFFFFF AND MUL OR SWAP1 SSTORE POP DUP2 PUSH1 0x7 PUSH0 PUSH2 0x100 EXP DUP2 SLOAD DUP2 PUSH20 0xFFFFFFFFFFFFFFFFFFFFFFFFFFFFFFFFFFFFFFFF MUL NOT AND SWAP1 DUP4 PUSH20 0xFFFFFFFFFFFFFFFFFFFFFFFFFFFFFFFFFFFFFFFF AND MUL OR SWAP1 SSTORE POP DUP1 PUSH1 0x8 PUSH0 PUSH2 0x100 EXP DUP2 SLOAD DUP2 PUSH20 0xFFFFFFFFFFFFFFFFFFFFFFFFFFFFFFFFFFFFFFFF MUL NOT AND SWAP1 DUP4 PUSH20 0xFFFFFFFFFFFFFFFFFFFFFFFFFFFFFFFFFFFFFFFF AND MUL OR SWAP1 SSTORE POP POP POP POP POP PUSH2 0x2E0 JUMP JUMPDEST PUSH0 CALLER SWAP1 POP SWAP1 JUMP JUMPDEST PUSH0 DUP1 PUSH0 SWAP1 SLOAD SWAP1 PUSH2 0x100 EXP SWAP1 DIV PUSH20 0xFFFFFFFFFFFFFFFFFFFFFFFFFFFFFFFFFFFFFFFF AND SWAP1 POP DUP2 PUSH0 DUP1 PUSH2 0x100 EXP DUP2 SLOAD DUP2 PUSH20 0xFFFFFFFFFFFFFFFFFFFFFFFFFFFFFFFFFFFFFFFF MUL NOT AND SWAP1 DUP4 PUSH20 0xFFFFFFFFFFFFFFFFFFFFFFFFFFFFFFFFFFFFFFFF AND MUL OR SWAP1 SSTORE POP DUP2 PUSH20 0xFFFFFFFFFFFFFFFFFFFFFFFFFFFFFFFFFFFFFFFF AND DUP2 PUSH20 0xFFFFFFFFFFFFFFFFFFFFFFFFFFFFFFFFFFFFFFFF AND PUSH32 0x8BE0079C531659141344CD1FD0A4F28419497F9722A3DAAFE3B4186F6B6457E0 PUSH1 0x40 MLOAD PUSH1 0x40 MLOAD DUP1 SWAP2 SUB SWAP1 LOG3 POP POP JUMP JUMPDEST PUSH0 DUP1 REVERT JUMPDEST PUSH0 PUSH20 0xFFFFFFFFFFFFFFFFFFFFFFFFFFFFFFFFFFFFFFFF DUP3 AND SWAP1 POP SWAP2 SWAP1 POP JUMP JUMPDEST PUSH0 PUSH2 0x24B DUP3 PUSH2 0x222 JUMP JUMPDEST SWAP1 POP SWAP2 SWAP1 POP JUMP JUMPDEST PUSH2 0x25B DUP2 PUSH2 0x241 JUMP JUMPDEST DUP2 EQ PUSH2 0x265 JUMPI PUSH0 DUP1 REVERT JUMPDEST POP JUMP JUMPDEST PUSH0 DUP2 MLOAD SWAP1 POP PUSH2 0x276 DUP2 PUSH2 0x252 JUMP JUMPDEST SWAP3 SWAP2 POP POP JUMP JUMPDEST PUSH0 DUP1 PUSH0 DUP1 PUSH1 0x80 DUP6 DUP8 SUB SLT ISZERO PUSH2 0x294 JUMPI PUSH2 0x293 PUSH2 0x21E JUMP JUMPDEST JUMPDEST PUSH0 PUSH2 0x2A1 DUP8 DUP3 DUP9 ADD PUSH2 0x268 JUMP JUMPDEST SWAP5 POP POP PUSH1 0x20 PUSH2 0x2B2 DUP8 DUP3 DUP9 ADD PUSH2 0x268 JUMP JUMPDEST SWAP4 POP POP PUSH1 0x40 PUSH2 0x2C3 DUP8 DUP3 DUP9 ADD PUSH2 0x268 JUMP JUMPDEST SWAP3 POP POP PUSH1 0x60 PUSH2 0x2D4 DUP8 DUP3 DUP9 ADD PUSH2 0x268 JUMP JUMPDEST SWAP2 POP POP SWAP3 SWAP6 SWAP2 SWAP5 POP SWAP3 POP JUMP JUMPDEST PUSH2 0x350E DUP1 PUSH2 0x2ED PUSH0 CODECOPY PUSH0 RETURN INVALID PUSH1 0x80 PUSH1 0x40 MSTORE CALLVALUE DUP1 ISZERO PUSH2 0xF JUMPI PUSH0 DUP1 REVERT JUMPDEST POP PUSH1 0x4 CALLDATASIZE LT PUSH2 0x18C JUMPI PUSH0 CALLDATALOAD PUSH1 0xE0 SHR DUP1 PUSH4 0x8683ED5B GT PUSH2 0xDC JUMPI DUP1 PUSH4 0xCDD5D9DD GT PUSH2 0x95 JUMPI DUP1 PUSH4 0xE8EDD3E8 GT PUSH2 0x6F JUMPI DUP1 PUSH4 0xE8EDD3E8 EQ PUSH2 0x442 JUMPI DUP1 PUSH4 0xED8EA600 EQ PUSH2 0x460 JUMPI DUP1 PUSH4 0xF12D54D8 EQ PUSH2 0x47E JUMPI DUP1 PUSH4 0xF2FDE38B EQ PUSH2 0x49C JUMPI PUSH2 0x18C JUMP JUMPDEST DUP1 PUSH4 0xCDD5D9DD EQ PUSH2 0x3DA JUMPI DUP1 PUSH4 0xCE903BCC EQ PUSH2 0x3F6 JUMPI DUP1 PUSH4 0xDE73A594 EQ PUSH2 0x412 JUMPI PUSH2 0x18C JUMP JUMPDEST DUP1 PUSH4 0x8683ED5B EQ PUSH2 0x33C JUMPI DUP1 PUSH4 0x8DA5CB5B EQ PUSH2 0x35A JUMPI DUP1 PUSH4 0x940A9FA1 EQ PUSH2 0x378 JUMPI DUP1 PUSH4 0xA44D57A0 EQ PUSH2 0x382 JUMPI DUP1 PUSH4 0xACED1661 EQ PUSH2 0x3B2 JUMPI DUP1 PUSH4 0xC93D7715 EQ PUSH2 0x3D0 JUMPI PUSH2 0x18C JUMP JUMPDEST DUP1 PUSH4 0x41A1914E GT PUSH2 0x149 JUMPI DUP1 PUSH4 0x5A8B1A9F GT PUSH2 0x123 JUMPI DUP1 PUSH4 0x5A8B1A9F EQ PUSH2 0x2CA JUMPI DUP1 PUSH4 0x6B683896 EQ PUSH2 0x2E6 JUMPI DUP1 PUSH4 0x715018A6 EQ PUSH2 0x316 JUMPI DUP1 PUSH4 0x748747E6 EQ PUSH2 0x320 JUMPI PUSH2 0x18C JUMP JUMPDEST DUP1 PUSH4 0x41A1914E EQ PUSH2 0x24E JUMPI DUP1 PUSH4 0x43BC4B9A EQ PUSH2 0x27E JUMPI DUP1 PUSH4 0x517137EE EQ PUSH2 0x29A JUMPI PUSH2 0x18C JUMP JUMPDEST DUP1 PUSH4 0x66E4A19 EQ PUSH2 0x190 JUMPI DUP1 PUSH4 0xC979919 EQ PUSH2 0x1AC JUMPI DUP1 PUSH4 0x116FD501 EQ PUSH2 0x1C8 JUMPI DUP1 PUSH4 0x194A4108 EQ PUSH2 0x1F8 JUMPI DUP1 PUSH4 0x1D06CE66 EQ PUSH2 0x214 JUMPI DUP1 PUSH4 0x2CEBDEB2 EQ PUSH2 0x230 JUMPI JUMPDEST PUSH0 DUP1 REVERT JUMPDEST PUSH2 0x1AA PUSH1 0x4 DUP1 CALLDATASIZE SUB DUP2 ADD SWAP1 PUSH2 0x1A5 SWAP2 SWAP1 PUSH2 0x157E JUMP JUMPDEST PUSH2 0x4B8 JUMP JUMPDEST STOP JUMPDEST PUSH2 0x1C6 PUSH1 0x4 DUP1 CALLDATASIZE SUB DUP2 ADD SWAP1 PUSH2 0x1C1 SWAP2 SWAP1 PUSH2 0x157E JUMP JUMPDEST PUSH2 0x53A JUMP JUMPDEST STOP JUMPDEST PUSH2 0x1E2 PUSH1 0x4 DUP1 CALLDATASIZE SUB DUP2 ADD SWAP1 PUSH2 0x1DD SWAP2 SWAP1 PUSH2 0x160A JUMP JUMPDEST PUSH2 0x5D4 JUMP JUMPDEST PUSH1 0x40 MLOAD PUSH2 0x1EF SWAP2 SWAP1 PUSH2 0x1664 JUMP JUMPDEST PUSH1 0x40 MLOAD DUP1 SWAP2 SUB SWAP1 RETURN JUMPDEST PUSH2 0x212 PUSH1 0x4 DUP1 CALLDATASIZE SUB DUP2 ADD SWAP1 PUSH2 0x20D SWAP2 SWAP1 PUSH2 0x160A JUMP JUMPDEST PUSH2 0x692 JUMP JUMPDEST STOP JUMPDEST PUSH2 0x22E PUSH1 0x4 DUP1 CALLDATASIZE SUB DUP2 ADD SWAP1 PUSH2 0x229 SWAP2 SWAP1 PUSH2 0x157E JUMP JUMPDEST PUSH2 0x7D1 JUMP JUMPDEST STOP JUMPDEST PUSH2 0x238 PUSH2 0x853 JUMP JUMPDEST PUSH1 0x40 MLOAD PUSH2 0x245 SWAP2 SWAP1 PUSH2 0x1664 JUMP JUMPDEST PUSH1 0x40 MLOAD DUP1 SWAP2 SUB SWAP1 RETURN JUMPDEST PUSH2 0x268 PUSH1 0x4 DUP1 CALLDATASIZE SUB DUP2 ADD SWAP1 PUSH2 0x263 SWAP2 SWAP1 PUSH2 0x17B5 JUMP JUMPDEST PUSH2 0x878 JUMP JUMPDEST PUSH1 0x40 MLOAD PUSH2 0x275 SWAP2 SWAP1 PUSH2 0x1857 JUMP JUMPDEST PUSH1 0x40 MLOAD DUP1 SWAP2 SUB SWAP1 RETURN JUMPDEST PUSH2 0x298 PUSH1 0x4 DUP1 CALLDATASIZE SUB DUP2 ADD SWAP1 PUSH2 0x293 SWAP2 SWAP1 PUSH2 0x157E JUMP JUMPDEST PUSH2 0x8C0 JUMP JUMPDEST STOP JUMPDEST PUSH2 0x2B4 PUSH1 0x4 DUP1 CALLDATASIZE SUB DUP2 ADD SWAP1 PUSH2 0x2AF SWAP2 SWAP1 PUSH2 0x18A3 JUMP JUMPDEST PUSH2 0xA17 JUMP JUMPDEST PUSH1 0x40 MLOAD PUSH2 0x2C1 SWAP2 SWAP1 PUSH2 0x192E JUMP JUMPDEST PUSH1 0x40 MLOAD DUP1 SWAP2 SUB SWAP1 RETURN JUMPDEST PUSH2 0x2E4 PUSH1 0x4 DUP1 CALLDATASIZE SUB DUP2 ADD SWAP1 PUSH2 0x2DF SWAP2 SWAP1 PUSH2 0x194E JUMP JUMPDEST PUSH2 0xABD JUMP JUMPDEST STOP JUMPDEST PUSH2 0x300 PUSH1 0x4 DUP1 CALLDATASIZE SUB DUP2 ADD SWAP1 PUSH2 0x2FB SWAP2 SWAP1 PUSH2 0x160A JUMP JUMPDEST PUSH2 0xBAF JUMP JUMPDEST PUSH1 0x40 MLOAD PUSH2 0x30D SWAP2 SWAP1 PUSH2 0x1664 JUMP JUMPDEST PUSH1 0x40 MLOAD DUP1 SWAP2 SUB SWAP1 RETURN JUMPDEST PUSH2 0x31E PUSH2 0xC64 JUMP JUMPDEST STOP JUMPDEST PUSH2 0x33A PUSH1 0x4 DUP1 CALLDATASIZE SUB DUP2 ADD SWAP1 PUSH2 0x335 SWAP2 SWAP1 PUSH2 0x157E JUMP JUMPDEST PUSH2 0xC77 JUMP JUMPDEST STOP JUMPDEST PUSH2 0x344 PUSH2 0xCF9 JUMP JUMPDEST PUSH1 0x40 MLOAD PUSH2 0x351 SWAP2 SWAP1 PUSH2 0x1664 JUMP JUMPDEST PUSH1 0x40 MLOAD DUP1 SWAP2 SUB SWAP1 RETURN JUMPDEST PUSH2 0x362 PUSH2 0xD1E JUMP JUMPDEST PUSH1 0x40 MLOAD PUSH2 0x36F SWAP2 SWAP1 PUSH2 0x1664 JUMP JUMPDEST PUSH1 0x40 MLOAD DUP1 SWAP2 SUB SWAP1 RETURN JUMPDEST PUSH2 0x380 PUSH2 0xD45 JUMP JUMPDEST STOP JUMPDEST PUSH2 0x39C PUSH1 0x4 DUP1 CALLDATASIZE SUB DUP2 ADD SWAP1 PUSH2 0x397 SWAP2 SWAP1 PUSH2 0x157E JUMP JUMPDEST PUSH2 0xDA0 JUMP JUMPDEST PUSH1 0x40 MLOAD PUSH2 0x3A9 SWAP2 SWAP1 PUSH2 0x19C5 JUMP JUMPDEST PUSH1 0x40 MLOAD DUP1 SWAP2 SUB SWAP1 RETURN JUMPDEST PUSH2 0x3BA PUSH2 0xDBD JUMP JUMPDEST PUSH1 0x40 MLOAD PUSH2 0x3C7 SWAP2 SWAP1 PUSH2 0x1664 JUMP JUMPDEST PUSH1 0x40 MLOAD DUP1 SWAP2 SUB SWAP1 RETURN JUMPDEST PUSH2 0x3D8 PUSH2 0xDE2 JUMP JUMPDEST STOP JUMPDEST PUSH2 0x3F4 PUSH1 0x4 DUP1 CALLDATASIZE SUB DUP2 ADD SWAP1 PUSH2 0x3EF SWAP2 SWAP1 PUSH2 0x194E JUMP JUMPDEST PUSH2 0xEFE JUMP JUMPDEST STOP JUMPDEST PUSH2 0x410 PUSH1 0x4 DUP1 CALLDATASIZE SUB DUP2 ADD SWAP1 PUSH2 0x40B SWAP2 SWAP1 PUSH2 0x160A JUMP JUMPDEST PUSH2 0x1172 JUMP JUMPDEST STOP JUMPDEST PUSH2 0x42C PUSH1 0x4 DUP1 CALLDATASIZE SUB DUP2 ADD SWAP1 PUSH2 0x427 SWAP2 SWAP1 PUSH2 0x17B5 JUMP JUMPDEST PUSH2 0x11F0 JUMP JUMPDEST PUSH1 0x40 MLOAD PUSH2 0x439 SWAP2 SWAP1 PUSH2 0x19C5 JUMP JUMPDEST PUSH1 0x40 MLOAD DUP1 SWAP2 SUB SWAP1 RETURN JUMPDEST PUSH2 0x44A PUSH2 0x1225 JUMP JUMPDEST PUSH1 0x40 MLOAD PUSH2 0x457 SWAP2 SWAP1 PUSH2 0x1664 JUMP JUMPDEST PUSH1 0x40 MLOAD DUP1 SWAP2 SUB SWAP1 RETURN JUMPDEST PUSH2 0x468 PUSH2 0x124A JUMP JUMPDEST PUSH1 0x40 MLOAD PUSH2 0x475 SWAP2 SWAP1 PUSH2 0x1AE1 JUMP JUMPDEST PUSH1 0x40 MLOAD DUP1 SWAP2 SUB SWAP1 RETURN JUMPDEST PUSH2 0x486 PUSH2 0x131E JUMP JUMPDEST PUSH1 0x40 MLOAD PUSH2 0x493 SWAP2 SWAP1 PUSH2 0x19C5 JUMP JUMPDEST PUSH1 0x40 MLOAD DUP1 SWAP2 SUB SWAP1 RETURN JUMPDEST PUSH2 0x4B6 PUSH1 0x4 DUP1 CALLDATASIZE SUB DUP2 ADD SWAP1 PUSH2 0x4B1 SWAP2 SWAP1 PUSH2 0x157E JUMP JUMPDEST PUSH2 0x1331 JUMP JUMPDEST STOP JUMPDEST PUSH2 0x4C0 PUSH2 0x13B3 JUMP JUMPDEST DUP1 PUSH1 0x8 PUSH0 PUSH2 0x100 EXP DUP2 SLOAD DUP2 PUSH20 0xFFFFFFFFFFFFFFFFFFFFFFFFFFFFFFFFFFFFFFFF MUL NOT AND SWAP1 DUP4 PUSH20 0xFFFFFFFFFFFFFFFFFFFFFFFFFFFFFFFFFFFFFFFF AND MUL OR SWAP1 SSTORE POP PUSH32 0xC6AE9DB6AD0E87AAA4F7020EE56278BCC057E08519CF08CE5ECC3B25AA588D4F DUP2 PUSH1 0x40 MLOAD PUSH2 0x52F SWAP2 SWAP1 PUSH2 0x1664 JUMP JUMPDEST PUSH1 0x40 MLOAD DUP1 SWAP2 SUB SWAP1 LOG1 POP JUMP JUMPDEST PUSH2 0x542 PUSH2 0x13B3 JUMP JUMPDEST PUSH1 0x1 PUSH1 0x2 PUSH0 DUP4 PUSH20 0xFFFFFFFFFFFFFFFFFFFFFFFFFFFFFFFFFFFFFFFF AND PUSH20 0xFFFFFFFFFFFFFFFFFFFFFFFFFFFFFFFFFFFFFFFF AND DUP2 MSTORE PUSH1 0x20 ADD SWAP1 DUP2 MSTORE PUSH1 0x20 ADD PUSH0 KECCAK256 PUSH0 PUSH2 0x100 EXP DUP2 SLOAD DUP2 PUSH1 0xFF MUL NOT AND SWAP1 DUP4 ISZERO ISZERO MUL OR SWAP1 SSTORE POP PUSH32 0xAD7CACA61F64C5976FC697122C9FF26ACC30FC936092716798FF3B43CC54F800 DUP2 PUSH1 0x1 PUSH1 0x40 MLOAD PUSH2 0x5C9 SWAP3 SWAP2 SWAP1 PUSH2 0x1B01 JUMP JUMPDEST PUSH1 0x40 MLOAD DUP1 SWAP2 SUB SWAP1 LOG1 POP JUMP JUMPDEST PUSH0 DUP1 PUSH1 0x1 DUP5 DUP5 PUSH1 0x40 MLOAD PUSH2 0x5E8 SWAP3 SWAP2 SWAP1 PUSH2 0x1B56 JUMP JUMPDEST SWAP1 DUP2 MSTORE PUSH1 0x20 ADD PUSH1 0x40 MLOAD DUP1 SWAP2 SUB SWAP1 KECCAK256 PUSH0 SWAP1 SLOAD SWAP1 PUSH2 0x100 EXP SWAP1 DIV PUSH20 0xFFFFFFFFFFFFFFFFFFFFFFFFFFFFFFFFFFFFFFFF AND SWAP1 POP PUSH0 DUP2 PUSH1 0x40 MLOAD PUSH2 0x626 SWAP1 PUSH2 0x14F9 JUMP JUMPDEST PUSH2 0x630 SWAP2 SWAP1 PUSH2 0x1BA1 JUMP JUMPDEST PUSH1 0x40 MLOAD DUP1 SWAP2 SUB SWAP1 PUSH0 CREATE DUP1 ISZERO DUP1 ISZERO PUSH2 0x649 JUMPI RETURNDATASIZE PUSH0 DUP1 RETURNDATACOPY RETURNDATASIZE PUSH0 REVERT JUMPDEST POP SWAP1 POP PUSH32 0x3699B7DE9B98BB64C45028FF3593B0D6159DA8016D0F85B6AF11D765320C87BB DUP6 DUP6 DUP4 PUSH1 0x40 MLOAD PUSH2 0x67F SWAP4 SWAP3 SWAP2 SWAP1 PUSH2 0x1BF9 JUMP JUMPDEST PUSH1 0x40 MLOAD DUP1 SWAP2 SUB SWAP1 LOG1 DUP1 SWAP3 POP POP POP SWAP3 SWAP2 POP POP JUMP JUMPDEST PUSH2 0x69A PUSH2 0xD1E JUMP JUMPDEST PUSH20 0xFFFFFFFFFFFFFFFFFFFFFFFFFFFFFFFFFFFFFFFF AND CALLER PUSH20 0xFFFFFFFFFFFFFFFFFFFFFFFFFFFFFFFFFFFFFFFF AND EQ ISZERO DUP1 ISZERO PUSH2 0x722 JUMPI POP PUSH1 0x6 PUSH0 SWAP1 SLOAD SWAP1 PUSH2 0x100 EXP SWAP1 DIV PUSH20 0xFFFFFFFFFFFFFFFFFFFFFFFFFFFFFFFFFFFFFFFF AND PUSH20 0xFFFFFFFFFFFFFFFFFFFFFFFFFFFFFFFFFFFFFFFF AND CALLER PUSH20 0xFFFFFFFFFFFFFFFFFFFFFFFFFFFFFFFFFFFFFFFF AND EQ ISZERO JUMPDEST ISZERO PUSH2 0x759 JUMPI PUSH1 0x40 MLOAD PUSH32 0xC0FC8A8A00000000000000000000000000000000000000000000000000000000 DUP2 MSTORE PUSH1 0x4 ADD PUSH1 0x40 MLOAD DUP1 SWAP2 SUB SWAP1 REVERT JUMPDEST PUSH1 0x1 PUSH1 0x3 DUP4 DUP4 PUSH1 0x40 MLOAD PUSH2 0x76D SWAP3 SWAP2 SWAP1 PUSH2 0x1B56 JUMP JUMPDEST SWAP1 DUP2 MSTORE PUSH1 0x20 ADD PUSH1 0x40 MLOAD DUP1 SWAP2 SUB SWAP1 KECCAK256 PUSH0 PUSH2 0x100 EXP DUP2 SLOAD DUP2 PUSH1 0xFF MUL NOT AND SWAP1 DUP4 ISZERO ISZERO MUL OR SWAP1 SSTORE POP PUSH32 0x32B2EF738DB0485A8739F39E50322BB2C617E6A3D2539B4ECF26F199021057A6 DUP3 DUP3 PUSH1 0x1 PUSH1 0x40 MLOAD PUSH2 0x7C5 SWAP4 SWAP3 SWAP2 SWAP1 PUSH2 0x1C29 JUMP JUMPDEST PUSH1 0x40 MLOAD DUP1 SWAP2 SUB SWAP1 LOG1 POP POP JUMP JUMPDEST PUSH2 0x7D9 PUSH2 0x13B3 JUMP JUMPDEST DUP1 PUSH1 0x7 PUSH0 PUSH2 0x100 EXP DUP2 SLOAD DUP2 PUSH20 0xFFFFFFFFFFFFFFFFFFFFFFFFFFFFFFFFFFFFFFFF MUL NOT AND SWAP1 DUP4 PUSH20 0xFFFFFFFFFFFFFFFFFFFFFFFFFFFFFFFFFFFFFFFF AND MUL OR SWAP1 SSTORE POP PUSH32 0x3129A3B1A01B54525E947A4B2E7B5A30606B2D68562BE910B844F842EEB3CF5A DUP2 PUSH1 0x40 MLOAD PUSH2 0x848 SWAP2 SWAP1 PUSH2 0x1664 JUMP JUMPDEST PUSH1 0x40 MLOAD DUP1 SWAP2 SUB SWAP1 LOG1 POP JUMP JUMPDEST PUSH1 0x5 PUSH0 SWAP1 SLOAD SWAP1 PUSH2 0x100 EXP SWAP1 DIV PUSH20 0xFFFFFFFFFFFFFFFFFFFFFFFFFFFFFFFFFFFFFFFF AND DUP2 JUMP JUMPDEST PUSH1 0x1 DUP2 DUP1 MLOAD PUSH1 0x20 DUP2 ADD DUP3 ADD DUP1 MLOAD DUP5 DUP3 MSTORE PUSH1 0x20 DUP4 ADD PUSH1 0x20 DUP6 ADD KECCAK256 DUP2 DUP4 MSTORE DUP1 SWAP6 POP POP POP POP POP POP PUSH0 SWAP2 POP SLOAD SWAP1 PUSH2 0x100 EXP SWAP1 DIV PUSH20 0xFFFFFFFFFFFFFFFFFFFFFFFFFFFFFFFFFFFFFFFF AND DUP2 JUMP JUMPDEST PUSH2 0x8C8 PUSH2 0xD1E JUMP JUMPDEST PUSH20 0xFFFFFFFFFFFFFFFFFFFFFFFFFFFFFFFFFFFFFFFF AND CALLER PUSH20 0xFFFFFFFFFFFFFFFFFFFFFFFFFFFFFFFFFFFFFFFF AND EQ ISZERO DUP1 ISZERO PUSH2 0x950 JUMPI POP PUSH1 0x6 PUSH0 SWAP1 SLOAD SWAP1 PUSH2 0x100 EXP SWAP1 DIV PUSH20 0xFFFFFFFFFFFFFFFFFFFFFFFFFFFFFFFFFFFFFFFF AND PUSH20 0xFFFFFFFFFFFFFFFFFFFFFFFFFFFFFFFFFFFFFFFF AND CALLER PUSH20 0xFFFFFFFFFFFFFFFFFFFFFFFFFFFFFFFFFFFFFFFF AND EQ ISZERO JUMPDEST ISZERO PUSH2 0x987 JUMPI PUSH1 0x40 MLOAD PUSH32 0xC0FC8A8A00000000000000000000000000000000000000000000000000000000 DUP2 MSTORE PUSH1 0x4 ADD PUSH1 0x40 MLOAD DUP1 SWAP2 SUB SWAP1 REVERT JUMPDEST PUSH0 PUSH1 0x2 PUSH0 DUP4 PUSH20 0xFFFFFFFFFFFFFFFFFFFFFFFFFFFFFFFFFFFFFFFF AND PUSH20 0xFFFFFFFFFFFFFFFFFFFFFFFFFFFFFFFFFFFFFFFF AND DUP2 MSTORE PUSH1 0x20 ADD SWAP1 DUP2 MSTORE PUSH1 0x20 ADD PUSH0 KECCAK256 PUSH0 PUSH2 0x100 EXP DUP2 SLOAD DUP2 PUSH1 0xFF MUL NOT AND SWAP1 DUP4 ISZERO ISZERO MUL OR SWAP1 SSTORE POP PUSH32 0xAD7CACA61F64C5976FC697122C9FF26ACC30FC936092716798FF3B43CC54F800 DUP2 PUSH0 PUSH1 0x40 MLOAD PUSH2 0xA0C SWAP3 SWAP2 SWAP1 PUSH2 0x1B01 JUMP JUMPDEST PUSH1 0x40 MLOAD DUP1 SWAP2 SUB SWAP1 LOG1 POP JUMP JUMPDEST PUSH1 0x4 DUP2 DUP2 SLOAD DUP2 LT PUSH2 0xA26 JUMPI PUSH0 DUP1 REVERT JUMPDEST SWAP1 PUSH0 MSTORE PUSH1 0x20 PUSH0 KECCAK256 ADD PUSH0 SWAP2 POP SWAP1 POP DUP1 SLOAD PUSH2 0xA3E SWAP1 PUSH2 0x1C86 JUMP JUMPDEST DUP1 PUSH1 0x1F ADD PUSH1 0x20 DUP1 SWAP2 DIV MUL PUSH1 0x20 ADD PUSH1 0x40 MLOAD SWAP1 DUP2 ADD PUSH1 0x40 MSTORE DUP1 SWAP3 SWAP2 SWAP1 DUP2 DUP2 MSTORE PUSH1 0x20 ADD DUP3 DUP1 SLOAD PUSH2 0xA6A SWAP1 PUSH2 0x1C86 JUMP JUMPDEST DUP1 ISZERO PUSH2 0xAB5 JUMPI DUP1 PUSH1 0x1F LT PUSH2 0xA8C JUMPI PUSH2 0x100 DUP1 DUP4 SLOAD DIV MUL DUP4 MSTORE SWAP2 PUSH1 0x20 ADD SWAP2 PUSH2 0xAB5 JUMP JUMPDEST DUP3 ADD SWAP2 SWAP1 PUSH0 MSTORE PUSH1 0x20 PUSH0 KECCAK256 SWAP1 JUMPDEST DUP2 SLOAD DUP2 MSTORE SWAP1 PUSH1 0x1 ADD SWAP1 PUSH1 0x20 ADD DUP1 DUP4 GT PUSH2 0xA98 JUMPI DUP3 SWAP1 SUB PUSH1 0x1F AND DUP3 ADD SWAP2 JUMPDEST POP POP POP POP POP DUP2 JUMP JUMPDEST PUSH2 0xAC5 PUSH2 0x13B3 JUMP JUMPDEST PUSH0 PUSH1 0x1 DUP5 DUP5 PUSH1 0x40 MLOAD PUSH2 0xAD8 SWAP3 SWAP2 SWAP1 PUSH2 0x1B56 JUMP JUMPDEST SWAP1 DUP2 MSTORE PUSH1 0x20 ADD PUSH1 0x40 MLOAD DUP1 SWAP2 SUB SWAP1 KECCAK256 PUSH0 SWAP1 SLOAD SWAP1 PUSH2 0x100 EXP SWAP1 DIV PUSH20 0xFFFFFFFFFFFFFFFFFFFFFFFFFFFFFFFFFFFFFFFF AND SWAP1 POP DUP1 PUSH20 0xFFFFFFFFFFFFFFFFFFFFFFFFFFFFFFFFFFFFFFFF AND PUSH4 0x3659CFE6 DUP4 PUSH1 0x40 MLOAD DUP3 PUSH4 0xFFFFFFFF AND PUSH1 0xE0 SHL DUP2 MSTORE PUSH1 0x4 ADD PUSH2 0xB41 SWAP2 SWAP1 PUSH2 0x1664 JUMP JUMPDEST PUSH0 PUSH1 0x40 MLOAD DUP1 DUP4 SUB DUP2 PUSH0 DUP8 DUP1 EXTCODESIZE ISZERO DUP1 ISZERO PUSH2 0xB58 JUMPI PUSH0 DUP1 REVERT JUMPDEST POP GAS CALL ISZERO DUP1 ISZERO PUSH2 0xB6A JUMPI RETURNDATASIZE PUSH0 DUP1 RETURNDATACOPY RETURNDATASIZE PUSH0 REVERT JUMPDEST POP POP POP POP PUSH32 0x52A6E00A16A485598386BD39B6AAC98ED50E4FBDE10EF9B5C18374FAECB55010 DUP5 DUP5 DUP5 PUSH1 0x40 MLOAD PUSH2 0xBA1 SWAP4 SWAP3 SWAP2 SWAP1 PUSH2 0x1BF9 JUMP JUMPDEST PUSH1 0x40 MLOAD DUP1 SWAP2 SUB SWAP1 LOG1 POP POP POP POP JUMP JUMPDEST PUSH0 PUSH1 0x1 DUP4 DUP4 PUSH1 0x40 MLOAD PUSH2 0xBC2 SWAP3 SWAP2 SWAP1 PUSH2 0x1B56 JUMP JUMPDEST SWAP1 DUP2 MSTORE PUSH1 0x20 ADD PUSH1 0x40 MLOAD DUP1 SWAP2 SUB SWAP1 KECCAK256 PUSH0 SWAP1 SLOAD SWAP1 PUSH2 0x100 EXP SWAP1 DIV PUSH20 0xFFFFFFFFFFFFFFFFFFFFFFFFFFFFFFFFFFFFFFFF AND PUSH20 0xFFFFFFFFFFFFFFFFFFFFFFFFFFFFFFFFFFFFFFFF AND PUSH4 0x5C60DA1B PUSH1 0x40 MLOAD DUP2 PUSH4 0xFFFFFFFF AND PUSH1 0xE0 SHL DUP2 MSTORE PUSH1 0x4 ADD PUSH1 0x20 PUSH1 0x40 MLOAD DUP1 DUP4 SUB DUP2 DUP7 GAS STATICCALL ISZERO DUP1 ISZERO PUSH2 0xC38 JUMPI RETURNDATASIZE PUSH0 DUP1 RETURNDATACOPY RETURNDATASIZE PUSH0 REVERT JUMPDEST POP POP POP POP PUSH1 0x40 MLOAD RETURNDATASIZE PUSH1 0x1F NOT PUSH1 0x1F DUP3 ADD AND DUP3 ADD DUP1 PUSH1 0x40 MSTORE POP DUP2 ADD SWAP1 PUSH2 0xC5C SWAP2 SWAP1 PUSH2 0x1CCA JUMP JUMPDEST SWAP1 POP SWAP3 SWAP2 POP POP JUMP JUMPDEST PUSH2 0xC6C PUSH2 0x13B3 JUMP JUMPDEST PUSH2 0xC75 PUSH0 PUSH2 0x1431 JUMP JUMPDEST JUMP JUMPDEST PUSH2 0xC7F PUSH2 0x13B3 JUMP JUMPDEST DUP1 PUSH1 0x6 PUSH0 PUSH2 0x100 EXP DUP2 SLOAD DUP2 PUSH20 0xFFFFFFFFFFFFFFFFFFFFFFFFFFFFFFFFFFFFFFFF MUL NOT AND SWAP1 DUP4 PUSH20 0xFFFFFFFFFFFFFFFFFFFFFFFFFFFFFFFFFFFFFFFF AND MUL OR SWAP1 SSTORE POP PUSH32 0xEFB5CFA1A8690C124332AB93324539C5C9C4BE03F28AEB8BE86F2D8A0C9FB99B DUP2 PUSH1 0x40 MLOAD PUSH2 0xCEE SWAP2 SWAP1 PUSH2 0x1664 JUMP JUMPDEST PUSH1 0x40 MLOAD DUP1 SWAP2 SUB SWAP1 LOG1 POP JUMP JUMPDEST PUSH1 0x7 PUSH0 SWAP1 SLOAD SWAP1 PUSH2 0x100 EXP SWAP1 DIV PUSH20 0xFFFFFFFFFFFFFFFFFFFFFFFFFFFFFFFFFFFFFFFF AND DUP2 JUMP JUMPDEST PUSH0 DUP1 PUSH0 SWAP1 SLOAD SWAP1 PUSH2 0x100 EXP SWAP1 DIV PUSH20 0xFFFFFFFFFFFFFFFFFFFFFFFFFFFFFFFFFFFFFFFF AND SWAP1 POP SWAP1 JUMP JUMPDEST PUSH2 0xD4D PUSH2 0x13B3 JUMP JUMPDEST PUSH0 PUSH1 0x8 PUSH1 0x14 PUSH2 0x100 EXP DUP2 SLOAD DUP2 PUSH1 0xFF MUL NOT AND SWAP1 DUP4 ISZERO ISZERO MUL OR SWAP1 SSTORE POP PUSH32 0xA5FEA31B6DBD7AEC6098CA4653B1D51AF1EF786FCB19031C4C4E55B675535F1E PUSH0 PUSH1 0x40 MLOAD PUSH2 0xD96 SWAP2 SWAP1 PUSH2 0x19C5 JUMP JUMPDEST PUSH1 0x40 MLOAD DUP1 SWAP2 SUB SWAP1 LOG1 JUMP JUMPDEST PUSH1 0x2 PUSH1 0x20 MSTORE DUP1 PUSH0 MSTORE PUSH1 0x40 PUSH0 KECCAK256 PUSH0 SWAP2 POP SLOAD SWAP1 PUSH2 0x100 EXP SWAP1 DIV PUSH1 0xFF AND DUP2 JUMP JUMPDEST PUSH1 0x6 PUSH0 SWAP1 SLOAD SWAP1 PUSH2 0x100 EXP SWAP1 DIV PUSH20 0xFFFFFFFFFFFFFFFFFFFFFFFFFFFFFFFFFFFFFFFF AND DUP2 JUMP JUMPDEST PUSH2 0xDEA PUSH2 0xD1E JUMP JUMPDEST PUSH20 0xFFFFFFFFFFFFFFFFFFFFFFFFFFFFFFFFFFFFFFFF AND CALLER PUSH20 0xFFFFFFFFFFFFFFFFFFFFFFFFFFFFFFFFFFFFFFFF AND EQ ISZERO DUP1 ISZERO PUSH2 0xE72 JUMPI POP PUSH1 0x6 PUSH0 SWAP1 SLOAD SWAP1 PUSH2 0x100 EXP SWAP1 DIV PUSH20 0xFFFFFFFFFFFFFFFFFFFFFFFFFFFFFFFFFFFFFFFF AND PUSH20 0xFFFFFFFFFFFFFFFFFFFFFFFFFFFFFFFFFFFFFFFF AND CALLER PUSH20 0xFFFFFFFFFFFFFFFFFFFFFFFFFFFFFFFFFFFFFFFF AND EQ ISZERO JUMPDEST ISZERO PUSH2 0xEA9 JUMPI PUSH1 0x40 MLOAD PUSH32 0xC0FC8A8A00000000000000000000000000000000000000000000000000000000 DUP2 MSTORE PUSH1 0x4 ADD PUSH1 0x40 MLOAD DUP1 SWAP2 SUB SWAP1 REVERT JUMPDEST PUSH1 0x1 PUSH1 0x8 PUSH1 0x14 PUSH2 0x100 EXP DUP2 SLOAD DUP2 PUSH1 0xFF MUL NOT AND SWAP1 DUP4 ISZERO ISZERO MUL OR SWAP1 SSTORE POP PUSH32 0xA5FEA31B6DBD7AEC6098CA4653B1D51AF1EF786FCB19031C4C4E55B675535F1E PUSH1 0x1 PUSH1 0x40 MLOAD PUSH2 0xEF4 SWAP2 SWAP1 PUSH2 0x19C5 JUMP JUMPDEST PUSH1 0x40 MLOAD DUP1 SWAP2 SUB SWAP1 LOG1 JUMP JUMPDEST PUSH2 0xF06 PUSH2 0xD1E JUMP JUMPDEST PUSH20 0xFFFFFFFFFFFFFFFFFFFFFFFFFFFFFFFFFFFFFFFF AND CALLER PUSH20 0xFFFFFFFFFFFFFFFFFFFFFFFFFFFFFFFFFFFFFFFF AND EQ ISZERO DUP1 ISZERO PUSH2 0xF8E JUMPI POP PUSH1 0x6 PUSH0 SWAP1 SLOAD SWAP1 PUSH2 0x100 EXP SWAP1 DIV PUSH20 0xFFFFFFFFFFFFFFFFFFFFFFFFFFFFFFFFFFFFFFFF AND PUSH20 0xFFFFFFFFFFFFFFFFFFFFFFFFFFFFFFFFFFFFFFFF AND CALLER PUSH20 0xFFFFFFFFFFFFFFFFFFFFFFFFFFFFFFFFFFFFFFFF AND EQ ISZERO JUMPDEST ISZERO PUSH2 0xFC5 JUMPI PUSH1 0x40 MLOAD PUSH32 0xC0FC8A8A00000000000000000000000000000000000000000000000000000000 DUP2 MSTORE PUSH1 0x4 ADD PUSH1 0x40 MLOAD DUP1 SWAP2 SUB SWAP1 REVERT JUMPDEST PUSH0 PUSH20 0xFFFFFFFFFFFFFFFFFFFFFFFFFFFFFFFFFFFFFFFF AND PUSH1 0x1 DUP5 DUP5 PUSH1 0x40 MLOAD PUSH2 0xFEE SWAP3 SWAP2 SWAP1 PUSH2 0x1B56 JUMP JUMPDEST SWAP1 DUP2 MSTORE PUSH1 0x20 ADD PUSH1 0x40 MLOAD DUP1 SWAP2 SUB SWAP1 KECCAK256 PUSH0 SWAP1 SLOAD SWAP1 PUSH2 0x100 EXP SWAP1 DIV PUSH20 0xFFFFFFFFFFFFFFFFFFFFFFFFFFFFFFFFFFFFFFFF AND PUSH20 0xFFFFFFFFFFFFFFFFFFFFFFFFFFFFFFFFFFFFFFFF AND EQ PUSH2 0x1069 JUMPI PUSH1 0x40 MLOAD PUSH32 0x1F93A2CD00000000000000000000000000000000000000000000000000000000 DUP2 MSTORE PUSH1 0x4 ADD PUSH1 0x40 MLOAD DUP1 SWAP2 SUB SWAP1 REVERT JUMPDEST DUP1 PUSH1 0x40 MLOAD PUSH2 0x1076 SWAP1 PUSH2 0x1506 JUMP JUMPDEST PUSH2 0x1080 SWAP2 SWAP1 PUSH2 0x1664 JUMP JUMPDEST PUSH1 0x40 MLOAD DUP1 SWAP2 SUB SWAP1 PUSH0 CREATE DUP1 ISZERO DUP1 ISZERO PUSH2 0x1099 JUMPI RETURNDATASIZE PUSH0 DUP1 RETURNDATACOPY RETURNDATASIZE PUSH0 REVERT JUMPDEST POP PUSH1 0x1 DUP5 DUP5 PUSH1 0x40 MLOAD PUSH2 0x10AC SWAP3 SWAP2 SWAP1 PUSH2 0x1B56 JUMP JUMPDEST SWAP1 DUP2 MSTORE PUSH1 0x20 ADD PUSH1 0x40 MLOAD DUP1 SWAP2 SUB SWAP1 KECCAK256 PUSH0 PUSH2 0x100 EXP DUP2 SLOAD DUP2 PUSH20 0xFFFFFFFFFFFFFFFFFFFFFFFFFFFFFFFFFFFFFFFF MUL NOT AND SWAP1 DUP4 PUSH20 0xFFFFFFFFFFFFFFFFFFFFFFFFFFFFFFFFFFFFFFFF AND MUL OR SWAP1 SSTORE POP PUSH1 0x4 DUP4 DUP4 SWAP1 SWAP2 DUP1 PUSH1 0x1 DUP2 SLOAD ADD DUP1 DUP3 SSTORE DUP1 SWAP2 POP POP PUSH1 0x1 SWAP1 SUB SWAP1 PUSH0 MSTORE PUSH1 0x20 PUSH0 KECCAK256 ADD PUSH0 SWAP1 SWAP2 SWAP3 SWAP1 SWAP2 SWAP3 SWAP1 SWAP2 SWAP3 SWAP1 SWAP2 SWAP3 POP SWAP2 DUP3 PUSH2 0x1131 SWAP3 SWAP2 SWAP1 PUSH2 0x1E93 JUMP JUMPDEST POP PUSH32 0xA065C3B00CDE146F5DF407AFA0661CFA2C0ED2EFD62AC00B3241AAAE02FF5D2E DUP4 DUP4 DUP4 PUSH1 0x40 MLOAD PUSH2 0x1165 SWAP4 SWAP3 SWAP2 SWAP1 PUSH2 0x1BF9 JUMP JUMPDEST PUSH1 0x40 MLOAD DUP1 SWAP2 SUB SWAP1 LOG1 POP POP POP JUMP JUMPDEST PUSH2 0x117A PUSH2 0x13B3 JUMP JUMPDEST PUSH0 PUSH1 0x3 DUP4 DUP4 PUSH1 0x40 MLOAD PUSH2 0x118D SWAP3 SWAP2 SWAP1 PUSH2 0x1B56 JUMP JUMPDEST SWAP1 DUP2 MSTORE PUSH1 0x20 ADD PUSH1 0x40 MLOAD DUP1 SWAP2 SUB SWAP1 KECCAK256 PUSH0 PUSH2 0x100 EXP DUP2 SLOAD DUP2 PUSH1 0xFF MUL NOT AND SWAP1 DUP4 ISZERO ISZERO MUL OR SWAP1 SSTORE POP PUSH32 0x32B2EF738DB0485A8739F39E50322BB2C617E6A3D2539B4ECF26F199021057A6 DUP3 DUP3 PUSH0 PUSH1 0x40 MLOAD PUSH2 0x11E4 SWAP4 SWAP3 SWAP2 SWAP1 PUSH2 0x1C29 JUMP JUMPDEST PUSH1 0x40 MLOAD DUP1 SWAP2 SUB SWAP1 LOG1 POP POP JUMP JUMPDEST PUSH1 0x3 DUP2 DUP1 MLOAD PUSH1 0x20 DUP2 ADD DUP3 ADD DUP1 MLOAD DUP5 DUP3 MSTORE PUSH1 0x20 DUP4 ADD PUSH1 0x20 DUP6 ADD KECCAK256 DUP2 DUP4 MSTORE DUP1 SWAP6 POP POP POP POP POP POP PUSH0 SWAP2 POP SLOAD SWAP1 PUSH2 0x100 EXP SWAP1 DIV PUSH1 0xFF AND DUP2 JUMP JUMPDEST PUSH1 0x8 PUSH0 SWAP1 SLOAD SWAP1 PUSH2 0x100 EXP SWAP1 DIV PUSH20 0xFFFFFFFFFFFFFFFFFFFFFFFFFFFFFFFFFFFFFFFF AND DUP2 JUMP JUMPDEST PUSH1 0x60 PUSH1 0x4 DUP1 SLOAD DUP1 PUSH1 0x20 MUL PUSH1 0x20 ADD PUSH1 0x40 MLOAD SWAP1 DUP2 ADD PUSH1 0x40 MSTORE DUP1 SWAP3 SWAP2 SWAP1 DUP2 DUP2 MSTORE PUSH1 0x20 ADD PUSH0 SWAP1 JUMPDEST DUP3 DUP3 LT ISZERO PUSH2 0x1315 JUMPI DUP4 DUP3 SWAP1 PUSH0 MSTORE PUSH1 0x20 PUSH0 KECCAK256 ADD DUP1 SLOAD PUSH2 0x128A SWAP1 PUSH2 0x1C86 JUMP JUMPDEST DUP1 PUSH1 0x1F ADD PUSH1 0x20 DUP1 SWAP2 DIV MUL PUSH1 0x20 ADD PUSH1 0x40 MLOAD SWAP1 DUP2 ADD PUSH1 0x40 MSTORE DUP1 SWAP3 SWAP2 SWAP1 DUP2 DUP2 MSTORE PUSH1 0x20 ADD DUP3 DUP1 SLOAD PUSH2 0x12B6 SWAP1 PUSH2 0x1C86 JUMP JUMPDEST DUP1 ISZERO PUSH2 0x1301 JUMPI DUP1 PUSH1 0x1F LT PUSH2 0x12D8 JUMPI PUSH2 0x100 DUP1 DUP4 SLOAD DIV MUL DUP4 MSTORE SWAP2 PUSH1 0x20 ADD SWAP2 PUSH2 0x1301 JUMP JUMPDEST DUP3 ADD SWAP2 SWAP1 PUSH0 MSTORE PUSH1 0x20 PUSH0 KECCAK256 SWAP1 JUMPDEST DUP2 SLOAD DUP2 MSTORE SWAP1 PUSH1 0x1 ADD SWAP1 PUSH1 0x20 ADD DUP1 DUP4 GT PUSH2 0x12E4 JUMPI DUP3 SWAP1 SUB PUSH1 0x1F AND DUP3 ADD SWAP2 JUMPDEST POP POP POP POP POP DUP2 MSTORE PUSH1 0x20 ADD SWAP1 PUSH1 0x1 ADD SWAP1 PUSH2 0x126D JUMP JUMPDEST POP POP POP POP SWAP1 POP SWAP1 JUMP JUMPDEST PUSH1 0x8 PUSH1 0x14 SWAP1 SLOAD SWAP1 PUSH2 0x100 EXP SWAP1 DIV PUSH1 0xFF AND DUP2 JUMP JUMPDEST PUSH2 0x1339 PUSH2 0x13B3 JUMP JUMPDEST PUSH0 PUSH20 0xFFFFFFFFFFFFFFFFFFFFFFFFFFFFFFFFFFFFFFFF AND DUP2 PUSH20 0xFFFFFFFFFFFFFFFFFFFFFFFFFFFFFFFFFFFFFFFF AND SUB PUSH2 0x13A7 JUMPI PUSH1 0x40 MLOAD PUSH32 0x8C379A000000000000000000000000000000000000000000000000000000000 DUP2 MSTORE PUSH1 0x4 ADD PUSH2 0x139E SWAP1 PUSH2 0x1FD0 JUMP JUMPDEST PUSH1 0x40 MLOAD DUP1 SWAP2 SUB SWAP1 REVERT JUMPDEST PUSH2 0x13B0 DUP2 PUSH2 0x1431 JUMP JUMPDEST POP JUMP JUMPDEST PUSH2 0x13BB PUSH2 0x14F2 JUMP JUMPDEST PUSH20 0xFFFFFFFFFFFFFFFFFFFFFFFFFFFFFFFFFFFFFFFF AND PUSH2 0x13D9 PUSH2 0xD1E JUMP JUMPDEST PUSH20 0xFFFFFFFFFFFFFFFFFFFFFFFFFFFFFFFFFFFFFFFF AND EQ PUSH2 0x142F JUMPI PUSH1 0x40 MLOAD PUSH32 0x8C379A000000000000000000000000000000000000000000000000000000000 DUP2 MSTORE PUSH1 0x4 ADD PUSH2 0x1426 SWAP1 PUSH2 0x2038 JUMP JUMPDEST PUSH1 0x40 MLOAD DUP1 SWAP2 SUB SWAP1 REVERT JUMPDEST JUMP JUMPDEST PUSH0 DUP1 PUSH0 SWAP1 SLOAD SWAP1 PUSH2 0x100 EXP SWAP1 DIV PUSH20 0xFFFFFFFFFFFFFFFFFFFFFFFFFFFFFFFFFFFFFFFF AND SWAP1 POP DUP2 PUSH0 DUP1 PUSH2 0x100 EXP DUP2 SLOAD DUP2 PUSH20 0xFFFFFFFFFFFFFFFFFFFFFFFFFFFFFFFFFFFFFFFF MUL NOT AND SWAP1 DUP4 PUSH20 0xFFFFFFFFFFFFFFFFFFFFFFFFFFFFFFFFFFFFFFFF AND MUL OR SWAP1 SSTORE POP DUP2 PUSH20 0xFFFFFFFFFFFFFFFFFFFFFFFFFFFFFFFFFFFFFFFF AND DUP2 PUSH20 0xFFFFFFFFFFFFFFFFFFFFFFFFFFFFFFFFFFFFFFFF AND PUSH32 0x8BE0079C531659141344CD1FD0A4F28419497F9722A3DAAFE3B4186F6B6457E0 PUSH1 0x40 MLOAD PUSH1 0x40 MLOAD DUP1 SWAP2 SUB SWAP1 LOG3 POP POP JUMP JUMPDEST PUSH0 CALLER SWAP1 POP SWAP1 JUMP JUMPDEST PUSH2 0xAF1 DUP1 PUSH2 0x2057 DUP4 CODECOPY ADD SWAP1 JUMP JUMPDEST PUSH2 0x991 DUP1 PUSH2 0x2B48 DUP4 CODECOPY ADD SWAP1 JUMP JUMPDEST PUSH0 PUSH1 0x40 MLOAD SWAP1 POP SWAP1 JUMP JUMPDEST PUSH0 DUP1 REVERT JUMPDEST PUSH0 DUP1 REVERT JUMPDEST PUSH0 PUSH20 0xFFFFFFFFFFFFFFFFFFFFFFFFFFFFFFFFFFFFFFFF DUP3 AND SWAP1 POP SWAP2 SWAP1 POP JUMP JUMPDEST PUSH0 PUSH2 0x154D DUP3 PUSH2 0x1524 JUMP JUMPDEST SWAP1 POP SWAP2 SWAP1 POP JUMP JUMPDEST PUSH2 0x155D DUP2 PUSH2 0x1543 JUMP JUMPDEST DUP2 EQ PUSH2 0x1567 JUMPI PUSH0 DUP1 REVERT JUMPDEST POP JUMP JUMPDEST PUSH0 DUP2 CALLDATALOAD SWAP1 POP PUSH2 0x1578 DUP2 PUSH2 0x1554 JUMP JUMPDEST SWAP3 SWAP2 POP POP JUMP JUMPDEST PUSH0 PUSH1 0x20 DUP3 DUP5 SUB SLT ISZERO PUSH2 0x1593 JUMPI PUSH2 0x1592 PUSH2 0x151C JUMP JUMPDEST JUMPDEST PUSH0 PUSH2 0x15A0 DUP5 DUP3 DUP6 ADD PUSH2 0x156A JUMP JUMPDEST SWAP2 POP POP SWAP3 SWAP2 POP POP JUMP JUMPDEST PUSH0 DUP1 REVERT JUMPDEST PUSH0 DUP1 REVERT JUMPDEST PUSH0 DUP1 REVERT JUMPDEST PUSH0 DUP1 DUP4 PUSH1 0x1F DUP5 ADD SLT PUSH2 0x15CA JUMPI PUSH2 0x15C9 PUSH2 0x15A9 JUMP JUMPDEST JUMPDEST DUP3 CALLDATALOAD SWAP1 POP PUSH8 0xFFFFFFFFFFFFFFFF DUP2 GT ISZERO PUSH2 0x15E7 JUMPI PUSH2 0x15E6 PUSH2 0x15AD JUMP JUMPDEST JUMPDEST PUSH1 0x20 DUP4 ADD SWAP2 POP DUP4 PUSH1 0x1 DUP3 MUL DUP4 ADD GT ISZERO PUSH2 0x1603 JUMPI PUSH2 0x1602 PUSH2 0x15B1 JUMP JUMPDEST JUMPDEST SWAP3 POP SWAP3 SWAP1 POP JUMP JUMPDEST PUSH0 DUP1 PUSH1 0x20 DUP4 DUP6 SUB SLT ISZERO PUSH2 0x1620 JUMPI PUSH2 0x161F PUSH2 0x151C JUMP JUMPDEST JUMPDEST PUSH0 DUP4 ADD CALLDATALOAD PUSH8 0xFFFFFFFFFFFFFFFF DUP2 GT ISZERO PUSH2 0x163D JUMPI PUSH2 0x163C PUSH2 0x1520 JUMP JUMPDEST JUMPDEST PUSH2 0x1649 DUP6 DUP3 DUP7 ADD PUSH2 0x15B5 JUMP JUMPDEST SWAP3 POP SWAP3 POP POP SWAP3 POP SWAP3 SWAP1 POP JUMP JUMPDEST PUSH2 0x165E DUP2 PUSH2 0x1543 JUMP JUMPDEST DUP3 MSTORE POP POP JUMP JUMPDEST PUSH0 PUSH1 0x20 DUP3 ADD SWAP1 POP PUSH2 0x1677 PUSH0 DUP4 ADD DUP5 PUSH2 0x1655 JUMP JUMPDEST SWAP3 SWAP2 POP POP JUMP JUMPDEST PUSH0 DUP1 REVERT JUMPDEST PUSH0 PUSH1 0x1F NOT PUSH1 0x1F DUP4 ADD AND SWAP1 POP SWAP2 SWAP1 POP JUMP JUMPDEST PUSH32 0x4E487B7100000000000000000000000000000000000000000000000000000000 PUSH0 MSTORE PUSH1 0x41 PUSH1 0x4 MSTORE PUSH1 0x24 PUSH0 REVERT JUMPDEST PUSH2 0x16C7 DUP3 PUSH2 0x1681 JUMP JUMPDEST DUP2 ADD DUP2 DUP2 LT PUSH8 0xFFFFFFFFFFFFFFFF DUP3 GT OR ISZERO PUSH2 0x16E6 JUMPI PUSH2 0x16E5 PUSH2 0x1691 JUMP JUMPDEST JUMPDEST DUP1 PUSH1 0x40 MSTORE POP POP POP JUMP JUMPDEST PUSH0 PUSH2 0x16F8 PUSH2 0x1513 JUMP JUMPDEST SWAP1 POP PUSH2 0x1704 DUP3 DUP3 PUSH2 0x16BE JUMP JUMPDEST SWAP2 SWAP1 POP JUMP JUMPDEST PUSH0 PUSH8 0xFFFFFFFFFFFFFFFF DUP3 GT ISZERO PUSH2 0x1723 JUMPI PUSH2 0x1722 PUSH2 0x1691 JUMP JUMPDEST JUMPDEST PUSH2 0x172C DUP3 PUSH2 0x1681 JUMP JUMPDEST SWAP1 POP PUSH1 0x20 DUP2 ADD SWAP1 POP SWAP2 SWAP1 POP JUMP JUMPDEST DUP3 DUP2 DUP4 CALLDATACOPY PUSH0 DUP4 DUP4 ADD MSTORE POP POP POP JUMP JUMPDEST PUSH0 PUSH2 0x1759 PUSH2 0x1754 DUP5 PUSH2 0x1709 JUMP JUMPDEST PUSH2 0x16EF JUMP JUMPDEST SWAP1 POP DUP3 DUP2 MSTORE PUSH1 0x20 DUP2 ADD DUP5 DUP5 DUP5 ADD GT ISZERO PUSH2 0x1775 JUMPI PUSH2 0x1774 PUSH2 0x167D JUMP JUMPDEST JUMPDEST PUSH2 0x1780 DUP5 DUP3 DUP6 PUSH2 0x1739 JUMP JUMPDEST POP SWAP4 SWAP3 POP POP POP JUMP JUMPDEST PUSH0 DUP3 PUSH1 0x1F DUP4 ADD SLT PUSH2 0x179C JUMPI PUSH2 0x179B PUSH2 0x15A9 JUMP JUMPDEST JUMPDEST DUP2 CALLDATALOAD PUSH2 0x17AC DUP5 DUP3 PUSH1 0x20 DUP7 ADD PUSH2 0x1747 JUMP JUMPDEST SWAP2 POP POP SWAP3 SWAP2 POP POP JUMP JUMPDEST PUSH0 PUSH1 0x20 DUP3 DUP5 SUB SLT ISZERO PUSH2 0x17CA JUMPI PUSH2 0x17C9 PUSH2 0x151C JUMP JUMPDEST JUMPDEST PUSH0 DUP3 ADD CALLDATALOAD PUSH8 0xFFFFFFFFFFFFFFFF DUP2 GT ISZERO PUSH2 0x17E7 JUMPI PUSH2 0x17E6 PUSH2 0x1520 JUMP JUMPDEST JUMPDEST PUSH2 0x17F3 DUP5 DUP3 DUP6 ADD PUSH2 0x1788 JUMP JUMPDEST SWAP2 POP POP SWAP3 SWAP2 POP POP JUMP JUMPDEST PUSH0 DUP2 SWAP1 POP SWAP2 SWAP1 POP JUMP JUMPDEST PUSH0 PUSH2 0x181F PUSH2 0x181A PUSH2 0x1815 DUP5 PUSH2 0x1524 JUMP JUMPDEST PUSH2 0x17FC JUMP JUMPDEST PUSH2 0x1524 JUMP JUMPDEST SWAP1 POP SWAP2 SWAP1 POP JUMP JUMPDEST PUSH0 PUSH2 0x1830 DUP3 PUSH2 0x1805 JUMP JUMPDEST SWAP1 POP SWAP2 SWAP1 POP JUMP JUMPDEST PUSH0 PUSH2 0x1841 DUP3 PUSH2 0x1826 JUMP JUMPDEST SWAP1 POP SWAP2 SWAP1 POP JUMP JUMPDEST PUSH2 0x1851 DUP2 PUSH2 0x1837 JUMP JUMPDEST DUP3 MSTORE POP POP JUMP JUMPDEST PUSH0 PUSH1 0x20 DUP3 ADD SWAP1 POP PUSH2 0x186A PUSH0 DUP4 ADD DUP5 PUSH2 0x1848 JUMP JUMPDEST SWAP3 SWAP2 POP POP JUMP JUMPDEST PUSH0 DUP2 SWAP1 POP SWAP2 SWAP1 POP JUMP JUMPDEST PUSH2 0x1882 DUP2 PUSH2 0x1870 JUMP JUMPDEST DUP2 EQ PUSH2 0x188C JUMPI PUSH0 DUP1 REVERT JUMPDEST POP JUMP JUMPDEST PUSH0 DUP2 CALLDATALOAD SWAP1 POP PUSH2 0x189D DUP2 PUSH2 0x1879 JUMP JUMPDEST SWAP3 SWAP2 POP POP JUMP JUMPDEST PUSH0 PUSH1 0x20 DUP3 DUP5 SUB SLT ISZERO PUSH2 0x18B8 JUMPI PUSH2 0x18B7 PUSH2 0x151C JUMP JUMPDEST JUMPDEST PUSH0 PUSH2 0x18C5 DUP5 DUP3 DUP6 ADD PUSH2 0x188F JUMP JUMPDEST SWAP2 POP POP SWAP3 SWAP2 POP POP JUMP JUMPDEST PUSH0 DUP2 MLOAD SWAP1 POP SWAP2 SWAP1 POP JUMP JUMPDEST PUSH0 DUP3 DUP3 MSTORE PUSH1 0x20 DUP3 ADD SWAP1 POP SWAP3 SWAP2 POP POP JUMP JUMPDEST DUP3 DUP2 DUP4 MCOPY PUSH0 DUP4 DUP4 ADD MSTORE POP POP POP JUMP JUMPDEST PUSH0 PUSH2 0x1900 DUP3 PUSH2 0x18CE JUMP JUMPDEST PUSH2 0x190A DUP2 DUP6 PUSH2 0x18D8 JUMP JUMPDEST SWAP4 POP PUSH2 0x191A DUP2 DUP6 PUSH1 0x20 DUP7 ADD PUSH2 0x18E8 JUMP JUMPDEST PUSH2 0x1923 DUP2 PUSH2 0x1681 JUMP JUMPDEST DUP5 ADD SWAP2 POP POP SWAP3 SWAP2 POP POP JUMP JUMPDEST PUSH0 PUSH1 0x20 DUP3 ADD SWAP1 POP DUP2 DUP2 SUB PUSH0 DUP4 ADD MSTORE PUSH2 0x1946 DUP2 DUP5 PUSH2 0x18F6 JUMP JUMPDEST SWAP1 POP SWAP3 SWAP2 POP POP JUMP JUMPDEST PUSH0 DUP1 PUSH0 PUSH1 0x40 DUP5 DUP7 SUB SLT ISZERO PUSH2 0x1965 JUMPI PUSH2 0x1964 PUSH2 0x151C JUMP JUMPDEST JUMPDEST PUSH0 DUP5 ADD CALLDATALOAD PUSH8 0xFFFFFFFFFFFFFFFF DUP2 GT ISZERO PUSH2 0x1982 JUMPI PUSH2 0x1981 PUSH2 0x1520 JUMP JUMPDEST JUMPDEST PUSH2 0x198E DUP7 DUP3 DUP8 ADD PUSH2 0x15B5 JUMP JUMPDEST SWAP4 POP SWAP4 POP POP PUSH1 0x20 PUSH2 0x19A1 DUP7 DUP3 DUP8 ADD PUSH2 0x156A JUMP JUMPDEST SWAP2 POP POP SWAP3 POP SWAP3 POP SWAP3 JUMP JUMPDEST PUSH0 DUP2 ISZERO ISZERO SWAP1 POP SWAP2 SWAP1 POP JUMP JUMPDEST PUSH2 0x19BF DUP2 PUSH2 0x19AB JUMP JUMPDEST DUP3 MSTORE POP POP JUMP JUMPDEST PUSH0 PUSH1 0x20 DUP3 ADD SWAP1 POP PUSH2 0x19D8 PUSH0 DUP4 ADD DUP5 PUSH2 0x19B6 JUMP JUMPDEST SWAP3 SWAP2 POP POP JUMP JUMPDEST PUSH0 DUP2 MLOAD SWAP1 POP SWAP2 SWAP1 POP JUMP JUMPDEST PUSH0 DUP3 DUP3 MSTORE PUSH1 0x20 DUP3 ADD SWAP1 POP SWAP3 SWAP2 POP POP JUMP JUMPDEST PUSH0 DUP2 SWAP1 POP PUSH1 0x20 DUP3 ADD SWAP1 POP SWAP2 SWAP1 POP JUMP JUMPDEST PUSH0 DUP3 DUP3 MSTORE PUSH1 0x20 DUP3 ADD SWAP1 POP SWAP3 SWAP2 POP POP JUMP JUMPDEST PUSH0 PUSH2 0x1A21 DUP3 PUSH2 0x18CE JUMP JUMPDEST PUSH2 0x1A2B DUP2 DUP6 PUSH2 0x1A07 JUMP JUMPDEST SWAP4 POP PUSH2 0x1A3B DUP2 DUP6 PUSH1 0x20 DUP7 ADD PUSH2 0x18E8 JUMP JUMPDEST PUSH2 0x1A44 DUP2 PUSH2 0x1681 JUMP JUMPDEST DUP5 ADD SWAP2 POP POP SWAP3 SWAP2 POP POP JUMP JUMPDEST PUSH0 PUSH2 0x1A5A DUP4 DUP4 PUSH2 0x1A17 JUMP JUMPDEST SWAP1 POP SWAP3 SWAP2 POP POP JUMP JUMPDEST PUSH0 PUSH1 0x20 DUP3 ADD SWAP1 POP SWAP2 SWAP1 POP JUMP JUMPDEST PUSH0 PUSH2 0x1A78 DUP3 PUSH2 0x19DE JUMP JUMPDEST PUSH2 0x1A82 DUP2 DUP6 PUSH2 0x19E8 JUMP JUMPDEST SWAP4 POP DUP4 PUSH1 0x20 DUP3 MUL DUP6 ADD PUSH2 0x1A94 DUP6 PUSH2 0x19F8 JUMP JUMPDEST DUP1 PUSH0 JUMPDEST DUP6 DUP2 LT ISZERO PUSH2 0x1ACF JUMPI DUP5 DUP5 SUB DUP10 MSTORE DUP2 MLOAD PUSH2 0x1AB0 DUP6 DUP3 PUSH2 0x1A4F JUMP JUMPDEST SWAP5 POP PUSH2 0x1ABB DUP4 PUSH2 0x1A62 JUMP JUMPDEST SWAP3 POP PUSH1 0x20 DUP11 ADD SWAP10 POP POP PUSH1 0x1 DUP2 ADD SWAP1 POP PUSH2 0x1A97 JUMP JUMPDEST POP DUP3 SWAP8 POP DUP8 SWAP6 POP POP POP POP POP POP SWAP3 SWAP2 POP POP JUMP JUMPDEST PUSH0 PUSH1 0x20 DUP3 ADD SWAP1 POP DUP2 DUP2 SUB PUSH0 DUP4 ADD MSTORE PUSH2 0x1AF9 DUP2 DUP5 PUSH2 0x1A6E JUMP JUMPDEST SWAP1 POP SWAP3 SWAP2 POP POP JUMP JUMPDEST PUSH0 PUSH1 0x40 DUP3 ADD SWAP1 POP PUSH2 0x1B14 PUSH0 DUP4 ADD DUP6 PUSH2 0x1655 JUMP JUMPDEST PUSH2 0x1B21 PUSH1 0x20 DUP4 ADD DUP5 PUSH2 0x19B6 JUMP JUMPDEST SWAP4 SWAP3 POP POP POP JUMP JUMPDEST PUSH0 DUP2 SWAP1 POP SWAP3 SWAP2 POP POP JUMP JUMPDEST PUSH0 PUSH2 0x1B3D DUP4 DUP6 PUSH2 0x1B28 JUMP JUMPDEST SWAP4 POP PUSH2 0x1B4A DUP4 DUP6 DUP5 PUSH2 0x1739 JUMP JUMPDEST DUP3 DUP5 ADD SWAP1 POP SWAP4 SWAP3 POP POP POP JUMP JUMPDEST PUSH0 PUSH2 0x1B62 DUP3 DUP5 DUP7 PUSH2 0x1B32 JUMP JUMPDEST SWAP2 POP DUP2 SWAP1 POP SWAP4 SWAP3 POP POP POP JUMP JUMPDEST PUSH0 DUP3 DUP3 MSTORE PUSH1 0x20 DUP3 ADD SWAP1 POP SWAP3 SWAP2 POP POP JUMP JUMPDEST POP JUMP JUMPDEST PUSH0 PUSH2 0x1B8C PUSH0 DUP4 PUSH2 0x1B6E JUMP JUMPDEST SWAP2 POP PUSH2 0x1B97 DUP3 PUSH2 0x1B7E JUMP JUMPDEST PUSH0 DUP3 ADD SWAP1 POP SWAP2 SWAP1 POP JUMP JUMPDEST PUSH0 PUSH1 0x40 DUP3 ADD SWAP1 POP PUSH2 0x1BB4 PUSH0 DUP4 ADD DUP5 PUSH2 0x1655 JUMP JUMPDEST DUP2 DUP2 SUB PUSH1 0x20 DUP4 ADD MSTORE PUSH2 0x1BC5 DUP2 PUSH2 0x1B81 JUMP JUMPDEST SWAP1 POP SWAP3 SWAP2 POP POP JUMP JUMPDEST PUSH0 PUSH2 0x1BD8 DUP4 DUP6 PUSH2 0x18D8 JUMP JUMPDEST SWAP4 POP PUSH2 0x1BE5 DUP4 DUP6 DUP5 PUSH2 0x1739 JUMP JUMPDEST PUSH2 0x1BEE DUP4 PUSH2 0x1681 JUMP JUMPDEST DUP5 ADD SWAP1 POP SWAP4 SWAP3 POP POP POP JUMP JUMPDEST PUSH0 PUSH1 0x40 DUP3 ADD SWAP1 POP DUP2 DUP2 SUB PUSH0 DUP4 ADD MSTORE PUSH2 0x1C12 DUP2 DUP6 DUP8 PUSH2 0x1BCD JUMP JUMPDEST SWAP1 POP PUSH2 0x1C21 PUSH1 0x20 DUP4 ADD DUP5 PUSH2 0x1655 JUMP JUMPDEST SWAP5 SWAP4 POP POP POP POP JUMP JUMPDEST PUSH0 PUSH1 0x40 DUP3 ADD SWAP1 POP DUP2 DUP2 SUB PUSH0 DUP4 ADD MSTORE PUSH2 0x1C42 DUP2 DUP6 DUP8 PUSH2 0x1BCD JUMP JUMPDEST SWAP1 POP PUSH2 0x1C51 PUSH1 0x20 DUP4 ADD DUP5 PUSH2 0x19B6 JUMP JUMPDEST SWAP5 SWAP4 POP POP POP POP JUMP JUMPDEST PUSH32 0x4E487B7100000000000000000000000000000000000000000000000000000000 PUSH0 MSTORE PUSH1 0x22 PUSH1 0x4 MSTORE PUSH1 0x24 PUSH0 REVERT JUMPDEST PUSH0 PUSH1 0x2 DUP3 DIV SWAP1 POP PUSH1 0x1 DUP3 AND DUP1 PUSH2 0x1C9D JUMPI PUSH1 0x7F DUP3 AND SWAP2 POP JUMPDEST PUSH1 0x20 DUP3 LT DUP2 SUB PUSH2 0x1CB0 JUMPI PUSH2 0x1CAF PUSH2 0x1C59 JUMP JUMPDEST JUMPDEST POP SWAP2 SWAP1 POP JUMP JUMPDEST PUSH0 DUP2 MLOAD SWAP1 POP PUSH2 0x1CC4 DUP2 PUSH2 0x1554 JUMP JUMPDEST SWAP3 SWAP2 POP POP JUMP JUMPDEST PUSH0 PUSH1 0x20 DUP3 DUP5 SUB SLT ISZERO PUSH2 0x1CDF JUMPI PUSH2 0x1CDE PUSH2 0x151C JUMP JUMPDEST JUMPDEST PUSH0 PUSH2 0x1CEC DUP5 DUP3 DUP6 ADD PUSH2 0x1CB6 JUMP JUMPDEST SWAP2 POP POP SWAP3 SWAP2 POP POP JUMP JUMPDEST PUSH0 DUP3 SWAP1 POP SWAP3 SWAP2 POP POP JUMP JUMPDEST PUSH0 DUP2 SWAP1 POP DUP2 PUSH0 MSTORE PUSH1 0x20 PUSH0 KECCAK256 SWAP1 POP SWAP2 SWAP1 POP JUMP JUMPDEST PUSH0 PUSH1 0x20 PUSH1 0x1F DUP4 ADD DIV SWAP1 POP SWAP2 SWAP1 POP JUMP JUMPDEST PUSH0 DUP3 DUP3 SHL SWAP1 POP SWAP3 SWAP2 POP POP JUMP JUMPDEST PUSH0 PUSH1 0x8 DUP4 MUL PUSH2 0x1D5B PUSH32 0xFFFFFFFFFFFFFFFFFFFFFFFFFFFFFFFFFFFFFFFFFFFFFFFFFFFFFFFFFFFFFFFF DUP3 PUSH2 0x1D20 JUMP JUMPDEST PUSH2 0x1D65 DUP7 DUP4 PUSH2 0x1D20 JUMP JUMPDEST SWAP6 POP DUP1 NOT DUP5 AND SWAP4 POP DUP1 DUP7 AND DUP5 OR SWAP3 POP POP POP SWAP4 SWAP3 POP POP POP JUMP JUMPDEST PUSH0 PUSH2 0x1D97 PUSH2 0x1D92 PUSH2 0x1D8D DUP5 PUSH2 0x1870 JUMP JUMPDEST PUSH2 0x17FC JUMP JUMPDEST PUSH2 0x1870 JUMP JUMPDEST SWAP1 POP SWAP2 SWAP1 POP JUMP JUMPDEST PUSH0 DUP2 SWAP1 POP SWAP2 SWAP1 POP JUMP JUMPDEST PUSH2 0x1DB0 DUP4 PUSH2 0x1D7D JUMP JUMPDEST PUSH2 0x1DC4 PUSH2 0x1DBC DUP3 PUSH2 0x1D9E JUMP JUMPDEST DUP5 DUP5 SLOAD PUSH2 0x1D2C JUMP JUMPDEST DUP3 SSTORE POP POP POP POP JUMP JUMPDEST PUSH0 SWAP1 JUMP JUMPDEST PUSH2 0x1DD8 PUSH2 0x1DCC JUMP JUMPDEST PUSH2 0x1DE3 DUP2 DUP5 DUP5 PUSH2 0x1DA7 JUMP JUMPDEST POP POP POP JUMP JUMPDEST JUMPDEST DUP2 DUP2 LT ISZERO PUSH2 0x1E06 JUMPI PUSH2 0x1DFB PUSH0 DUP3 PUSH2 0x1DD0 JUMP JUMPDEST PUSH1 0x1 DUP2 ADD SWAP1 POP PUSH2 0x1DE9 JUMP JUMPDEST POP POP JUMP JUMPDEST PUSH1 0x1F DUP3 GT ISZERO PUSH2 0x1E4B JUMPI PUSH2 0x1E1C DUP2 PUSH2 0x1CFF JUMP JUMPDEST PUSH2 0x1E25 DUP5 PUSH2 0x1D11 JUMP JUMPDEST DUP2 ADD PUSH1 0x20 DUP6 LT ISZERO PUSH2 0x1E34 JUMPI DUP2 SWAP1 POP JUMPDEST PUSH2 0x1E48 PUSH2 0x1E40 DUP6 PUSH2 0x1D11 JUMP JUMPDEST DUP4 ADD DUP3 PUSH2 0x1DE8 JUMP JUMPDEST POP POP JUMPDEST POP POP POP JUMP JUMPDEST PUSH0 DUP3 DUP3 SHR SWAP1 POP SWAP3 SWAP2 POP POP JUMP JUMPDEST PUSH0 PUSH2 0x1E6B PUSH0 NOT DUP5 PUSH1 0x8 MUL PUSH2 0x1E50 JUMP JUMPDEST NOT DUP1 DUP4 AND SWAP2 POP POP SWAP3 SWAP2 POP POP JUMP JUMPDEST PUSH0 PUSH2 0x1E83 DUP4 DUP4 PUSH2 0x1E5C JUMP JUMPDEST SWAP2 POP DUP3 PUSH1 0x2 MUL DUP3 OR SWAP1 POP SWAP3 SWAP2 POP POP JUMP JUMPDEST PUSH2 0x1E9D DUP4 DUP4 PUSH2 0x1CF5 JUMP JUMPDEST PUSH8 0xFFFFFFFFFFFFFFFF DUP2 GT ISZERO PUSH2 0x1EB6 JUMPI PUSH2 0x1EB5 PUSH2 0x1691 JUMP JUMPDEST JUMPDEST PUSH2 0x1EC0 DUP3 SLOAD PUSH2 0x1C86 JUMP JUMPDEST PUSH2 0x1ECB DUP3 DUP3 DUP6 PUSH2 0x1E0A JUMP JUMPDEST PUSH0 PUSH1 0x1F DUP4 GT PUSH1 0x1 DUP2 EQ PUSH2 0x1EF8 JUMPI PUSH0 DUP5 ISZERO PUSH2 0x1EE6 JUMPI DUP3 DUP8 ADD CALLDATALOAD SWAP1 POP JUMPDEST PUSH2 0x1EF0 DUP6 DUP3 PUSH2 0x1E78 JUMP JUMPDEST DUP7 SSTORE POP PUSH2 0x1F57 JUMP JUMPDEST PUSH1 0x1F NOT DUP5 AND PUSH2 0x1F06 DUP7 PUSH2 0x1CFF JUMP JUMPDEST PUSH0 JUMPDEST DUP3 DUP2 LT ISZERO PUSH2 0x1F2D JUMPI DUP5 DUP10 ADD CALLDATALOAD DUP3 SSTORE PUSH1 0x1 DUP3 ADD SWAP2 POP PUSH1 0x20 DUP6 ADD SWAP5 POP PUSH1 0x20 DUP2 ADD SWAP1 POP PUSH2 0x1F08 JUMP JUMPDEST DUP7 DUP4 LT ISZERO PUSH2 0x1F4A JUMPI DUP5 DUP10 ADD CALLDATALOAD PUSH2 0x1F46 PUSH1 0x1F DUP10 AND DUP3 PUSH2 0x1E5C JUMP JUMPDEST DUP4 SSTORE POP JUMPDEST PUSH1 0x1 PUSH1 0x2 DUP9 MUL ADD DUP9 SSTORE POP POP POP JUMPDEST POP POP POP POP POP POP POP JUMP JUMPDEST PUSH32 0x4F776E61626C653A206E6577206F776E657220697320746865207A65726F2061 PUSH0 DUP3 ADD MSTORE PUSH32 0x6464726573730000000000000000000000000000000000000000000000000000 PUSH1 0x20 DUP3 ADD MSTORE POP JUMP JUMPDEST PUSH0 PUSH2 0x1FBA PUSH1 0x26 DUP4 PUSH2 0x18D8 JUMP JUMPDEST SWAP2 POP PUSH2 0x1FC5 DUP3 PUSH2 0x1F60 JUMP JUMPDEST PUSH1 0x40 DUP3 ADD SWAP1 POP SWAP2 SWAP1 POP JUMP JUMPDEST PUSH0 PUSH1 0x20 DUP3 ADD SWAP1 POP DUP2 DUP2 SUB PUSH0 DUP4 ADD MSTORE PUSH2 0x1FE7 DUP2 PUSH2 0x1FAE JUMP JUMPDEST SWAP1 POP SWAP2 SWAP1 POP JUMP JUMPDEST PUSH32 0x4F776E61626C653A2063616C6C6572206973206E6F7420746865206F776E6572 PUSH0 DUP3 ADD MSTORE POP JUMP JUMPDEST PUSH0 PUSH2 0x2022 PUSH1 0x20 DUP4 PUSH2 0x18D8 JUMP JUMPDEST SWAP2 POP PUSH2 0x202D DUP3 PUSH2 0x1FEE JUMP JUMPDEST PUSH1 0x20 DUP3 ADD SWAP1 POP SWAP2 SWAP1 POP JUMP JUMPDEST PUSH0 PUSH1 0x20 DUP3 ADD SWAP1 POP DUP2 DUP2 SUB PUSH0 DUP4 ADD MSTORE PUSH2 0x204F DUP2 PUSH2 0x2016 JUMP JUMPDEST SWAP1 POP SWAP2 SWAP1 POP JUMP INVALID PUSH1 0x80 PUSH1 0x40 MSTORE PUSH1 0x40 MLOAD PUSH2 0xAF1 CODESIZE SUB DUP1 PUSH2 0xAF1 DUP4 CODECOPY DUP2 DUP2 ADD PUSH1 0x40 MSTORE DUP2 ADD SWAP1 PUSH2 0x25 SWAP2 SWAP1 PUSH2 0x5FB JUMP JUMPDEST PUSH2 0x36 DUP3 DUP3 PUSH0 PUSH2 0x3D PUSH1 0x20 SHL PUSH1 0x20 SHR JUMP JUMPDEST POP POP PUSH2 0x8D0 JUMP JUMPDEST PUSH2 0x4C DUP4 PUSH2 0x123 PUSH1 0x20 SHL PUSH1 0x20 SHR JUMP JUMPDEST DUP3 PUSH20 0xFFFFFFFFFFFFFFFFFFFFFFFFFFFFFFFFFFFFFFFF AND PUSH32 0x1CF3B03A6CF19FA2BABA4DF148E9DCABEDEA7F8A5C07840E207E5C089BE95D3E PUSH1 0x40 MLOAD PUSH1 0x40 MLOAD DUP1 SWAP2 SUB SWAP1 LOG2 PUSH0 DUP3 MLOAD GT DUP1 PUSH2 0x9B JUMPI POP DUP1 JUMPDEST ISZERO PUSH2 0x11E JUMPI PUSH2 0x11C DUP4 PUSH20 0xFFFFFFFFFFFFFFFFFFFFFFFFFFFFFFFFFFFFFFFF AND PUSH4 0x5C60DA1B PUSH1 0x40 MLOAD DUP2 PUSH4 0xFFFFFFFF AND PUSH1 0xE0 SHL DUP2 MSTORE PUSH1 0x4 ADD PUSH1 0x20 PUSH1 0x40 MLOAD DUP1 DUP4 SUB DUP2 DUP7 GAS STATICCALL ISZERO DUP1 ISZERO PUSH2 0xEC JUMPI RETURNDATASIZE PUSH0 DUP1 RETURNDATACOPY RETURNDATASIZE PUSH0 REVERT JUMPDEST POP POP POP POP PUSH1 0x40 MLOAD RETURNDATASIZE PUSH1 0x1F NOT PUSH1 0x1F DUP3 ADD AND DUP3 ADD DUP1 PUSH1 0x40 MSTORE POP DUP2 ADD SWAP1 PUSH2 0x110 SWAP2 SWAP1 PUSH2 0x655 JUMP JUMPDEST DUP4 PUSH2 0x29F PUSH1 0x20 SHL PUSH1 0x20 SHR JUMP JUMPDEST POP JUMPDEST POP POP POP JUMP JUMPDEST PUSH2 0x132 DUP2 PUSH2 0x2D2 PUSH1 0x20 SHL PUSH1 0x20 SHR JUMP JUMPDEST PUSH2 0x171 JUMPI PUSH1 0x40 MLOAD PUSH32 0x8C379A000000000000000000000000000000000000000000000000000000000 DUP2 MSTORE PUSH1 0x4 ADD PUSH2 0x168 SWAP1 PUSH2 0x700 JUMP JUMPDEST PUSH1 0x40 MLOAD DUP1 SWAP2 SUB SWAP1 REVERT JUMPDEST PUSH2 0x1EC DUP2 PUSH20 0xFFFFFFFFFFFFFFFFFFFFFFFFFFFFFFFFFFFFFFFF AND PUSH4 0x5C60DA1B PUSH1 0x40 MLOAD DUP2 PUSH4 0xFFFFFFFF AND PUSH1 0xE0 SHL DUP2 MSTORE PUSH1 0x4 ADD PUSH1 0x20 PUSH1 0x40 MLOAD DUP1 DUP4 SUB DUP2 DUP7 GAS STATICCALL ISZERO DUP1 ISZERO PUSH2 0x1BD JUMPI RETURNDATASIZE PUSH0 DUP1 RETURNDATACOPY RETURNDATASIZE PUSH0 REVERT JUMPDEST POP POP POP POP PUSH1 0x40 MLOAD RETURNDATASIZE PUSH1 0x1F NOT PUSH1 0x1F DUP3 ADD AND DUP3 ADD DUP1 PUSH1 0x40 MSTORE POP DUP2 ADD SWAP1 PUSH2 0x1E1 SWAP2 SWAP1 PUSH2 0x655 JUMP JUMPDEST PUSH2 0x2D2 PUSH1 0x20 SHL PUSH1 0x20 SHR JUMP JUMPDEST PUSH2 0x22B JUMPI PUSH1 0x40 MLOAD PUSH32 0x8C379A000000000000000000000000000000000000000000000000000000000 DUP2 MSTORE PUSH1 0x4 ADD PUSH2 0x222 SWAP1 PUSH2 0x78E JUMP JUMPDEST PUSH1 0x40 MLOAD DUP1 SWAP2 SUB SWAP1 REVERT JUMPDEST DUP1 PUSH2 0x25D PUSH32 0xA3F0AD74E5423AEBFD80D3EF4346578335A9A72AEAEE59FF6CB3582B35133D50 PUSH0 SHL PUSH2 0x2F4 PUSH1 0x20 SHL PUSH1 0x20 SHR JUMP JUMPDEST PUSH0 ADD PUSH0 PUSH2 0x100 EXP DUP2 SLOAD DUP2 PUSH20 0xFFFFFFFFFFFFFFFFFFFFFFFFFFFFFFFFFFFFFFFF MUL NOT AND SWAP1 DUP4 PUSH20 0xFFFFFFFFFFFFFFFFFFFFFFFFFFFFFFFFFFFFFFFF AND MUL OR SWAP1 SSTORE POP POP JUMP JUMPDEST PUSH1 0x60 PUSH2 0x2CA DUP4 DUP4 PUSH1 0x40 MLOAD DUP1 PUSH1 0x60 ADD PUSH1 0x40 MSTORE DUP1 PUSH1 0x27 DUP2 MSTORE PUSH1 0x20 ADD PUSH2 0xACA PUSH1 0x27 SWAP2 CODECOPY PUSH2 0x2FD PUSH1 0x20 SHL PUSH1 0x20 SHR JUMP JUMPDEST SWAP1 POP SWAP3 SWAP2 POP POP JUMP JUMPDEST PUSH0 DUP1 DUP3 PUSH20 0xFFFFFFFFFFFFFFFFFFFFFFFFFFFFFFFFFFFFFFFF AND EXTCODESIZE GT SWAP1 POP SWAP2 SWAP1 POP JUMP JUMPDEST PUSH0 DUP2 SWAP1 POP SWAP2 SWAP1 POP JUMP JUMPDEST PUSH1 0x60 PUSH0 DUP1 DUP6 PUSH20 0xFFFFFFFFFFFFFFFFFFFFFFFFFFFFFFFFFFFFFFFF AND DUP6 PUSH1 0x40 MLOAD PUSH2 0x326 SWAP2 SWAP1 PUSH2 0x7F0 JUMP JUMPDEST PUSH0 PUSH1 0x40 MLOAD DUP1 DUP4 SUB DUP2 DUP6 GAS DELEGATECALL SWAP2 POP POP RETURNDATASIZE DUP1 PUSH0 DUP2 EQ PUSH2 0x35E JUMPI PUSH1 0x40 MLOAD SWAP2 POP PUSH1 0x1F NOT PUSH1 0x3F RETURNDATASIZE ADD AND DUP3 ADD PUSH1 0x40 MSTORE RETURNDATASIZE DUP3 MSTORE RETURNDATASIZE PUSH0 PUSH1 0x20 DUP5 ADD RETURNDATACOPY PUSH2 0x363 JUMP JUMPDEST PUSH1 0x60 SWAP2 POP JUMPDEST POP SWAP2 POP SWAP2 POP PUSH2 0x37A DUP7 DUP4 DUP4 DUP8 PUSH2 0x385 PUSH1 0x20 SHL PUSH1 0x20 SHR JUMP JUMPDEST SWAP3 POP POP POP SWAP4 SWAP3 POP POP POP JUMP JUMPDEST PUSH1 0x60 DUP4 ISZERO PUSH2 0x3EC JUMPI PUSH0 DUP4 MLOAD SUB PUSH2 0x3E4 JUMPI PUSH2 0x3A4 DUP6 PUSH2 0x2D2 PUSH1 0x20 SHL PUSH1 0x20 SHR JUMP JUMPDEST PUSH2 0x3E3 JUMPI PUSH1 0x40 MLOAD PUSH32 0x8C379A000000000000000000000000000000000000000000000000000000000 DUP2 MSTORE PUSH1 0x4 ADD PUSH2 0x3DA SWAP1 PUSH2 0x850 JUMP JUMPDEST PUSH1 0x40 MLOAD DUP1 SWAP2 SUB SWAP1 REVERT JUMPDEST JUMPDEST DUP3 SWAP1 POP PUSH2 0x3FD JUMP JUMPDEST PUSH2 0x3FC DUP4 DUP4 PUSH2 0x405 PUSH1 0x20 SHL PUSH1 0x20 SHR JUMP JUMPDEST JUMPDEST SWAP5 SWAP4 POP POP POP POP JUMP JUMPDEST PUSH0 DUP3 MLOAD GT ISZERO PUSH2 0x417 JUMPI DUP2 MLOAD DUP1 DUP4 PUSH1 0x20 ADD REVERT JUMPDEST DUP1 PUSH1 0x40 MLOAD PUSH32 0x8C379A000000000000000000000000000000000000000000000000000000000 DUP2 MSTORE PUSH1 0x4 ADD PUSH2 0x44B SWAP2 SWAP1 PUSH2 0x8B0 JUMP JUMPDEST PUSH1 0x40 MLOAD DUP1 SWAP2 SUB SWAP1 REVERT JUMPDEST PUSH0 PUSH1 0x40 MLOAD SWAP1 POP SWAP1 JUMP JUMPDEST PUSH0 DUP1 REVERT JUMPDEST PUSH0 DUP1 REVERT JUMPDEST PUSH0 PUSH20 0xFFFFFFFFFFFFFFFFFFFFFFFFFFFFFFFFFFFFFFFF DUP3 AND SWAP1 POP SWAP2 SWAP1 POP JUMP JUMPDEST PUSH0 PUSH2 0x48E DUP3 PUSH2 0x465 JUMP JUMPDEST SWAP1 POP SWAP2 SWAP1 POP JUMP JUMPDEST PUSH2 0x49E DUP2 PUSH2 0x484 JUMP JUMPDEST DUP2 EQ PUSH2 0x4A8 JUMPI PUSH0 DUP1 REVERT JUMPDEST POP JUMP JUMPDEST PUSH0 DUP2 MLOAD SWAP1 POP PUSH2 0x4B9 DUP2 PUSH2 0x495 JUMP JUMPDEST SWAP3 SWAP2 POP POP JUMP JUMPDEST PUSH0 DUP1 REVERT JUMPDEST PUSH0 DUP1 REVERT JUMPDEST PUSH0 PUSH1 0x1F NOT PUSH1 0x1F DUP4 ADD AND SWAP1 POP SWAP2 SWAP1 POP JUMP JUMPDEST PUSH32 0x4E487B7100000000000000000000000000000000000000000000000000000000 PUSH0 MSTORE PUSH1 0x41 PUSH1 0x4 MSTORE PUSH1 0x24 PUSH0 REVERT JUMPDEST PUSH2 0x50D DUP3 PUSH2 0x4C7 JUMP JUMPDEST DUP2 ADD DUP2 DUP2 LT PUSH8 0xFFFFFFFFFFFFFFFF DUP3 GT OR ISZERO PUSH2 0x52C JUMPI PUSH2 0x52B PUSH2 0x4D7 JUMP JUMPDEST JUMPDEST DUP1 PUSH1 0x40 MSTORE POP POP POP JUMP JUMPDEST PUSH0 PUSH2 0x53E PUSH2 0x454 JUMP JUMPDEST SWAP1 POP PUSH2 0x54A DUP3 DUP3 PUSH2 0x504 JUMP JUMPDEST SWAP2 SWAP1 POP JUMP JUMPDEST PUSH0 PUSH8 0xFFFFFFFFFFFFFFFF DUP3 GT ISZERO PUSH2 0x569 JUMPI PUSH2 0x568 PUSH2 0x4D7 JUMP JUMPDEST JUMPDEST PUSH2 0x572 DUP3 PUSH2 0x4C7 JUMP JUMPDEST SWAP1 POP PUSH1 0x20 DUP2 ADD SWAP1 POP SWAP2 SWAP1 POP JUMP JUMPDEST DUP3 DUP2 DUP4 MCOPY PUSH0 DUP4 DUP4 ADD MSTORE POP POP POP JUMP JUMPDEST PUSH0 PUSH2 0x59F PUSH2 0x59A DUP5 PUSH2 0x54F JUMP JUMPDEST PUSH2 0x535 JUMP JUMPDEST SWAP1 POP DUP3 DUP2 MSTORE PUSH1 0x20 DUP2 ADD DUP5 DUP5 DUP5 ADD GT ISZERO PUSH2 0x5BB JUMPI PUSH2 0x5BA PUSH2 0x4C3 JUMP JUMPDEST JUMPDEST PUSH2 0x5C6 DUP5 DUP3 DUP6 PUSH2 0x57F JUMP JUMPDEST POP SWAP4 SWAP3 POP POP POP JUMP JUMPDEST PUSH0 DUP3 PUSH1 0x1F DUP4 ADD SLT PUSH2 0x5E2 JUMPI PUSH2 0x5E1 PUSH2 0x4BF JUMP JUMPDEST JUMPDEST DUP2 MLOAD PUSH2 0x5F2 DUP5 DUP3 PUSH1 0x20 DUP7 ADD PUSH2 0x58D JUMP JUMPDEST SWAP2 POP POP SWAP3 SWAP2 POP POP JUMP JUMPDEST PUSH0 DUP1 PUSH1 0x40 DUP4 DUP6 SUB SLT ISZERO PUSH2 0x611 JUMPI PUSH2 0x610 PUSH2 0x45D JUMP JUMPDEST JUMPDEST PUSH0 PUSH2 0x61E DUP6 DUP3 DUP7 ADD PUSH2 0x4AB JUMP JUMPDEST SWAP3 POP POP PUSH1 0x20 DUP4 ADD MLOAD PUSH8 0xFFFFFFFFFFFFFFFF DUP2 GT ISZERO PUSH2 0x63F JUMPI PUSH2 0x63E PUSH2 0x461 JUMP JUMPDEST JUMPDEST PUSH2 0x64B DUP6 DUP3 DUP7 ADD PUSH2 0x5CE JUMP JUMPDEST SWAP2 POP POP SWAP3 POP SWAP3 SWAP1 POP JUMP JUMPDEST PUSH0 PUSH1 0x20 DUP3 DUP5 SUB SLT ISZERO PUSH2 0x66A JUMPI PUSH2 0x669 PUSH2 0x45D JUMP JUMPDEST JUMPDEST PUSH0 PUSH2 0x677 DUP5 DUP3 DUP6 ADD PUSH2 0x4AB JUMP JUMPDEST SWAP2 POP POP SWAP3 SWAP2 POP POP JUMP JUMPDEST PUSH0 DUP3 DUP3 MSTORE PUSH1 0x20 DUP3 ADD SWAP1 POP SWAP3 SWAP2 POP POP JUMP JUMPDEST PUSH32 0x455243313936373A206E657720626561636F6E206973206E6F74206120636F6E PUSH0 DUP3 ADD MSTORE PUSH32 0x7472616374000000000000000000000000000000000000000000000000000000 PUSH1 0x20 DUP3 ADD MSTORE POP JUMP JUMPDEST PUSH0 PUSH2 0x6EA PUSH1 0x25 DUP4 PUSH2 0x680 JUMP JUMPDEST SWAP2 POP PUSH2 0x6F5 DUP3 PUSH2 0x690 JUMP JUMPDEST PUSH1 0x40 DUP3 ADD SWAP1 POP SWAP2 SWAP1 POP JUMP JUMPDEST PUSH0 PUSH1 0x20 DUP3 ADD SWAP1 POP DUP2 DUP2 SUB PUSH0 DUP4 ADD MSTORE PUSH2 0x717 DUP2 PUSH2 0x6DE JUMP JUMPDEST SWAP1 POP SWAP2 SWAP1 POP JUMP JUMPDEST PUSH32 0x455243313936373A20626561636F6E20696D706C656D656E746174696F6E2069 PUSH0 DUP3 ADD MSTORE PUSH32 0x73206E6F74206120636F6E747261637400000000000000000000000000000000 PUSH1 0x20 DUP3 ADD MSTORE POP JUMP JUMPDEST PUSH0 PUSH2 0x778 PUSH1 0x30 DUP4 PUSH2 0x680 JUMP JUMPDEST SWAP2 POP PUSH2 0x783 DUP3 PUSH2 0x71E JUMP JUMPDEST PUSH1 0x40 DUP3 ADD SWAP1 POP SWAP2 SWAP1 POP JUMP JUMPDEST PUSH0 PUSH1 0x20 DUP3 ADD SWAP1 POP DUP2 DUP2 SUB PUSH0 DUP4 ADD MSTORE PUSH2 0x7A5 DUP2 PUSH2 0x76C JUMP JUMPDEST SWAP1 POP SWAP2 SWAP1 POP JUMP JUMPDEST PUSH0 DUP2 MLOAD SWAP1 POP SWAP2 SWAP1 POP JUMP JUMPDEST PUSH0 DUP2 SWAP1 POP SWAP3 SWAP2 POP POP JUMP JUMPDEST PUSH0 PUSH2 0x7CA DUP3 PUSH2 0x7AC JUMP JUMPDEST PUSH2 0x7D4 DUP2 DUP6 PUSH2 0x7B6 JUMP JUMPDEST SWAP4 POP PUSH2 0x7E4 DUP2 DUP6 PUSH1 0x20 DUP7 ADD PUSH2 0x57F JUMP JUMPDEST DUP1 DUP5 ADD SWAP2 POP POP SWAP3 SWAP2 POP POP JUMP JUMPDEST PUSH0 PUSH2 0x7FB DUP3 DUP5 PUSH2 0x7C0 JUMP JUMPDEST SWAP2 POP DUP2 SWAP1 POP SWAP3 SWAP2 POP POP JUMP JUMPDEST PUSH32 0x416464726573733A2063616C6C20746F206E6F6E2D636F6E7472616374000000 PUSH0 DUP3 ADD MSTORE POP JUMP JUMPDEST PUSH0 PUSH2 0x83A PUSH1 0x1D DUP4 PUSH2 0x680 JUMP JUMPDEST SWAP2 POP PUSH2 0x845 DUP3 PUSH2 0x806 JUMP JUMPDEST PUSH1 0x20 DUP3 ADD SWAP1 POP SWAP2 SWAP1 POP JUMP JUMPDEST PUSH0 PUSH1 0x20 DUP3 ADD SWAP1 POP DUP2 DUP2 SUB PUSH0 DUP4 ADD MSTORE PUSH2 0x867 DUP2 PUSH2 0x82E JUMP JUMPDEST SWAP1 POP SWAP2 SWAP1 POP JUMP JUMPDEST PUSH0 DUP2 MLOAD SWAP1 POP SWAP2 SWAP1 POP JUMP JUMPDEST PUSH0 PUSH2 0x882 DUP3 PUSH2 0x86E JUMP JUMPDEST PUSH2 0x88C DUP2 DUP6 PUSH2 0x680 JUMP JUMPDEST SWAP4 POP PUSH2 0x89C DUP2 DUP6 PUSH1 0x20 DUP7 ADD PUSH2 0x57F JUMP JUMPDEST PUSH2 0x8A5 DUP2 PUSH2 0x4C7 JUMP JUMPDEST DUP5 ADD SWAP2 POP POP SWAP3 SWAP2 POP POP JUMP JUMPDEST PUSH0 PUSH1 0x20 DUP3 ADD SWAP1 POP DUP2 DUP2 SUB PUSH0 DUP4 ADD MSTORE PUSH2 0x8C8 DUP2 DUP5 PUSH2 0x878 JUMP JUMPDEST SWAP1 POP SWAP3 SWAP2 POP POP JUMP JUMPDEST PUSH2 0x1ED DUP1 PUSH2 0x8DD PUSH0 CODECOPY PUSH0 RETURN INVALID PUSH1 0x80 PUSH1 0x40 MSTORE CALLDATASIZE PUSH2 0x13 JUMPI PUSH2 0x11 PUSH2 0x1D JUMP JUMPDEST STOP JUMPDEST PUSH2 0x1B PUSH2 0x1D JUMP JUMPDEST STOP JUMPDEST PUSH2 0x25 PUSH2 0x37 JUMP JUMPDEST PUSH2 0x35 PUSH2 0x30 PUSH2 0x39 JUMP JUMPDEST PUSH2 0xB3 JUMP JUMPDEST JUMP JUMPDEST JUMP JUMPDEST PUSH0 PUSH2 0x42 PUSH2 0xD2 JUMP JUMPDEST PUSH20 0xFFFFFFFFFFFFFFFFFFFFFFFFFFFFFFFFFFFFFFFF AND PUSH4 0x5C60DA1B PUSH1 0x40 MLOAD DUP2 PUSH4 0xFFFFFFFF AND PUSH1 0xE0 SHL DUP2 MSTORE PUSH1 0x4 ADD PUSH1 0x20 PUSH1 0x40 MLOAD DUP1 DUP4 SUB DUP2 DUP7 GAS STATICCALL ISZERO DUP1 ISZERO PUSH2 0x8A JUMPI RETURNDATASIZE PUSH0 DUP1 RETURNDATACOPY RETURNDATASIZE PUSH0 REVERT JUMPDEST POP POP POP POP PUSH1 0x40 MLOAD RETURNDATASIZE PUSH1 0x1F NOT PUSH1 0x1F DUP3 ADD AND DUP3 ADD DUP1 PUSH1 0x40 MSTORE POP DUP2 ADD SWAP1 PUSH2 0xAE SWAP2 SWAP1 PUSH2 0x18C JUMP JUMPDEST SWAP1 POP SWAP1 JUMP JUMPDEST CALLDATASIZE PUSH0 DUP1 CALLDATACOPY PUSH0 DUP1 CALLDATASIZE PUSH0 DUP5 GAS DELEGATECALL RETURNDATASIZE PUSH0 DUP1 RETURNDATACOPY DUP1 PUSH0 DUP2 EQ PUSH2 0xCE JUMPI RETURNDATASIZE PUSH0 RETURN JUMPDEST RETURNDATASIZE PUSH0 REVERT JUMPDEST PUSH0 PUSH2 0xFE PUSH32 0xA3F0AD74E5423AEBFD80D3EF4346578335A9A72AEAEE59FF6CB3582B35133D50 PUSH0 SHL PUSH2 0x125 JUMP JUMPDEST PUSH0 ADD PUSH0 SWAP1 SLOAD SWAP1 PUSH2 0x100 EXP SWAP1 DIV PUSH20 0xFFFFFFFFFFFFFFFFFFFFFFFFFFFFFFFFFFFFFFFF AND SWAP1 POP SWAP1 JUMP JUMPDEST PUSH0 DUP2 SWAP1 POP SWAP2 SWAP1 POP JUMP JUMPDEST PUSH0 DUP1 REVERT JUMPDEST PUSH0 PUSH20 0xFFFFFFFFFFFFFFFFFFFFFFFFFFFFFFFFFFFFFFFF DUP3 AND SWAP1 POP SWAP2 SWAP1 POP JUMP JUMPDEST PUSH0 PUSH2 0x15B DUP3 PUSH2 0x132 JUMP JUMPDEST SWAP1 POP SWAP2 SWAP1 POP JUMP JUMPDEST PUSH2 0x16B DUP2 PUSH2 0x151 JUMP JUMPDEST DUP2 EQ PUSH2 0x175 JUMPI PUSH0 DUP1 REVERT JUMPDEST POP JUMP JUMPDEST PUSH0 DUP2 MLOAD SWAP1 POP PUSH2 0x186 DUP2 PUSH2 0x162 JUMP JUMPDEST SWAP3 SWAP2 POP POP JUMP JUMPDEST PUSH0 PUSH1 0x20 DUP3 DUP5 SUB SLT ISZERO PUSH2 0x1A1 JUMPI PUSH2 0x1A0 PUSH2 0x12E JUMP JUMPDEST JUMPDEST PUSH0 PUSH2 0x1AE DUP5 DUP3 DUP6 ADD PUSH2 0x178 JUMP JUMPDEST SWAP2 POP POP SWAP3 SWAP2 POP POP JUMP INVALID LOG2 PUSH5 0x6970667358 0x22 SLT KECCAK256 0x21 0xBE 0x1F 0xD0 0xDB PUSH26 0xFD146A1A458CBCAA24F2FD4AD118449C6E24E333C0E44A2EBE5B PUSH5 0x736F6C6343 STOP ADDMOD BYTE STOP CALLER COINBASE PUSH5 0x6472657373 GASPRICE KECCAK256 PUSH13 0x6F772D6C6576656C2064656C65 PUSH8 0x6174652063616C6C KECCAK256 PUSH7 0x61696C65646080 PUSH1 0x40 MSTORE CALLVALUE DUP1 ISZERO PUSH2 0xF JUMPI PUSH0 DUP1 REVERT JUMPDEST POP PUSH1 0x40 MLOAD PUSH2 0x991 CODESIZE SUB DUP1 PUSH2 0x991 DUP4 CODECOPY DUP2 DUP2 ADD PUSH1 0x40 MSTORE DUP2 ADD SWAP1 PUSH2 0x31 SWAP2 SWAP1 PUSH2 0x23B JUMP JUMPDEST PUSH2 0x4D PUSH2 0x42 PUSH2 0x62 PUSH1 0x20 SHL PUSH1 0x20 SHR JUMP JUMPDEST PUSH2 0x69 PUSH1 0x20 SHL PUSH1 0x20 SHR JUMP JUMPDEST PUSH2 0x5C DUP2 PUSH2 0x12A PUSH1 0x20 SHL PUSH1 0x20 SHR JUMP JUMPDEST POP PUSH2 0x304 JUMP JUMPDEST PUSH0 CALLER SWAP1 POP SWAP1 JUMP JUMPDEST PUSH0 DUP1 PUSH0 SWAP1 SLOAD SWAP1 PUSH2 0x100 EXP SWAP1 DIV PUSH20 0xFFFFFFFFFFFFFFFFFFFFFFFFFFFFFFFFFFFFFFFF AND SWAP1 POP DUP2 PUSH0 DUP1 PUSH2 0x100 EXP DUP2 SLOAD DUP2 PUSH20 0xFFFFFFFFFFFFFFFFFFFFFFFFFFFFFFFFFFFFFFFF MUL NOT AND SWAP1 DUP4 PUSH20 0xFFFFFFFFFFFFFFFFFFFFFFFFFFFFFFFFFFFFFFFF AND MUL OR SWAP1 SSTORE POP DUP2 PUSH20 0xFFFFFFFFFFFFFFFFFFFFFFFFFFFFFFFFFFFFFFFF AND DUP2 PUSH20 0xFFFFFFFFFFFFFFFFFFFFFFFFFFFFFFFFFFFFFFFF AND PUSH32 0x8BE0079C531659141344CD1FD0A4F28419497F9722A3DAAFE3B4186F6B6457E0 PUSH1 0x40 MLOAD PUSH1 0x40 MLOAD DUP1 SWAP2 SUB SWAP1 LOG3 POP POP JUMP JUMPDEST PUSH2 0x139 DUP2 PUSH2 0x1BB PUSH1 0x20 SHL PUSH1 0x20 SHR JUMP JUMPDEST PUSH2 0x178 JUMPI PUSH1 0x40 MLOAD PUSH32 0x8C379A000000000000000000000000000000000000000000000000000000000 DUP2 MSTORE PUSH1 0x4 ADD PUSH2 0x16F SWAP1 PUSH2 0x2E6 JUMP JUMPDEST PUSH1 0x40 MLOAD DUP1 SWAP2 SUB SWAP1 REVERT JUMPDEST DUP1 PUSH1 0x1 PUSH0 PUSH2 0x100 EXP DUP2 SLOAD DUP2 PUSH20 0xFFFFFFFFFFFFFFFFFFFFFFFFFFFFFFFFFFFFFFFF MUL NOT AND SWAP1 DUP4 PUSH20 0xFFFFFFFFFFFFFFFFFFFFFFFFFFFFFFFFFFFFFFFF AND MUL OR SWAP1 SSTORE POP POP JUMP JUMPDEST PUSH0 DUP1 DUP3 PUSH20 0xFFFFFFFFFFFFFFFFFFFFFFFFFFFFFFFFFFFFFFFF AND EXTCODESIZE GT SWAP1 POP SWAP2 SWAP1 POP JUMP JUMPDEST PUSH0 DUP1 REVERT JUMPDEST PUSH0 PUSH20 0xFFFFFFFFFFFFFFFFFFFFFFFFFFFFFFFFFFFFFFFF DUP3 AND SWAP1 POP SWAP2 SWAP1 POP JUMP JUMPDEST PUSH0 PUSH2 0x20A DUP3 PUSH2 0x1E1 JUMP JUMPDEST SWAP1 POP SWAP2 SWAP1 POP JUMP JUMPDEST PUSH2 0x21A DUP2 PUSH2 0x200 JUMP JUMPDEST DUP2 EQ PUSH2 0x224 JUMPI PUSH0 DUP1 REVERT JUMPDEST POP JUMP JUMPDEST PUSH0 DUP2 MLOAD SWAP1 POP PUSH2 0x235 DUP2 PUSH2 0x211 JUMP JUMPDEST SWAP3 SWAP2 POP POP JUMP JUMPDEST PUSH0 PUSH1 0x20 DUP3 DUP5 SUB SLT ISZERO PUSH2 0x250 JUMPI PUSH2 0x24F PUSH2 0x1DD JUMP JUMPDEST JUMPDEST PUSH0 PUSH2 0x25D DUP5 DUP3 DUP6 ADD PUSH2 0x227 JUMP JUMPDEST SWAP2 POP POP SWAP3 SWAP2 POP POP JUMP JUMPDEST PUSH0 DUP3 DUP3 MSTORE PUSH1 0x20 DUP3 ADD SWAP1 POP SWAP3 SWAP2 POP POP JUMP JUMPDEST PUSH32 0x5570677261646561626C65426561636F6E3A20696D706C656D656E746174696F PUSH0 DUP3 ADD MSTORE PUSH32 0x6E206973206E6F74206120636F6E747261637400000000000000000000000000 PUSH1 0x20 DUP3 ADD MSTORE POP JUMP JUMPDEST PUSH0 PUSH2 0x2D0 PUSH1 0x33 DUP4 PUSH2 0x266 JUMP JUMPDEST SWAP2 POP PUSH2 0x2DB DUP3 PUSH2 0x276 JUMP JUMPDEST PUSH1 0x40 DUP3 ADD SWAP1 POP SWAP2 SWAP1 POP JUMP JUMPDEST PUSH0 PUSH1 0x20 DUP3 ADD SWAP1 POP DUP2 DUP2 SUB PUSH0 DUP4 ADD MSTORE PUSH2 0x2FD DUP2 PUSH2 0x2C4 JUMP JUMPDEST SWAP1 POP SWAP2 SWAP1 POP JUMP JUMPDEST PUSH2 0x680 DUP1 PUSH2 0x311 PUSH0 CODECOPY PUSH0 RETURN INVALID PUSH1 0x80 PUSH1 0x40 MSTORE CALLVALUE DUP1 ISZERO PUSH2 0xF JUMPI PUSH0 DUP1 REVERT JUMPDEST POP PUSH1 0x4 CALLDATASIZE LT PUSH2 0x55 JUMPI PUSH0 CALLDATALOAD PUSH1 0xE0 SHR DUP1 PUSH4 0x3659CFE6 EQ PUSH2 0x59 JUMPI DUP1 PUSH4 0x5C60DA1B EQ PUSH2 0x75 JUMPI DUP1 PUSH4 0x715018A6 EQ PUSH2 0x93 JUMPI DUP1 PUSH4 0x8DA5CB5B EQ PUSH2 0x9D JUMPI DUP1 PUSH4 0xF2FDE38B EQ PUSH2 0xBB JUMPI JUMPDEST PUSH0 DUP1 REVERT JUMPDEST PUSH2 0x73 PUSH1 0x4 DUP1 CALLDATASIZE SUB DUP2 ADD SWAP1 PUSH2 0x6E SWAP2 SWAP1 PUSH2 0x463 JUMP JUMPDEST PUSH2 0xD7 JUMP JUMPDEST STOP JUMPDEST PUSH2 0x7D PUSH2 0x12E JUMP JUMPDEST PUSH1 0x40 MLOAD PUSH2 0x8A SWAP2 SWAP1 PUSH2 0x49D JUMP JUMPDEST PUSH1 0x40 MLOAD DUP1 SWAP2 SUB SWAP1 RETURN JUMPDEST PUSH2 0x9B PUSH2 0x156 JUMP JUMPDEST STOP JUMPDEST PUSH2 0xA5 PUSH2 0x169 JUMP JUMPDEST PUSH1 0x40 MLOAD PUSH2 0xB2 SWAP2 SWAP1 PUSH2 0x49D JUMP JUMPDEST PUSH1 0x40 MLOAD DUP1 SWAP2 SUB SWAP1 RETURN JUMPDEST PUSH2 0xD5 PUSH1 0x4 DUP1 CALLDATASIZE SUB DUP2 ADD SWAP1 PUSH2 0xD0 SWAP2 SWAP1 PUSH2 0x463 JUMP JUMPDEST PUSH2 0x190 JUMP JUMPDEST STOP JUMPDEST PUSH2 0xDF PUSH2 0x212 JUMP JUMPDEST PUSH2 0xE8 DUP2 PUSH2 0x290 JUMP JUMPDEST DUP1 PUSH20 0xFFFFFFFFFFFFFFFFFFFFFFFFFFFFFFFFFFFFFFFF AND PUSH32 0xBC7CD75A20EE27FD9ADEBAB32041F755214DBC6BFFA90CC0225B39DA2E5C2D3B PUSH1 0x40 MLOAD PUSH1 0x40 MLOAD DUP1 SWAP2 SUB SWAP1 LOG2 POP JUMP JUMPDEST PUSH0 PUSH1 0x1 PUSH0 SWAP1 SLOAD SWAP1 PUSH2 0x100 EXP SWAP1 DIV PUSH20 0xFFFFFFFFFFFFFFFFFFFFFFFFFFFFFFFFFFFFFFFF AND SWAP1 POP SWAP1 JUMP JUMPDEST PUSH2 0x15E PUSH2 0x212 JUMP JUMPDEST PUSH2 0x167 PUSH0 PUSH2 0x31B JUMP JUMPDEST JUMP JUMPDEST PUSH0 DUP1 PUSH0 SWAP1 SLOAD SWAP1 PUSH2 0x100 EXP SWAP1 DIV PUSH20 0xFFFFFFFFFFFFFFFFFFFFFFFFFFFFFFFFFFFFFFFF AND SWAP1 POP SWAP1 JUMP JUMPDEST PUSH2 0x198 PUSH2 0x212 JUMP JUMPDEST PUSH0 PUSH20 0xFFFFFFFFFFFFFFFFFFFFFFFFFFFFFFFFFFFFFFFF AND DUP2 PUSH20 0xFFFFFFFFFFFFFFFFFFFFFFFFFFFFFFFFFFFFFFFF AND SUB PUSH2 0x206 JUMPI PUSH1 0x40 MLOAD PUSH32 0x8C379A000000000000000000000000000000000000000000000000000000000 DUP2 MSTORE PUSH1 0x4 ADD PUSH2 0x1FD SWAP1 PUSH2 0x536 JUMP JUMPDEST PUSH1 0x40 MLOAD DUP1 SWAP2 SUB SWAP1 REVERT JUMPDEST PUSH2 0x20F DUP2 PUSH2 0x31B JUMP JUMPDEST POP JUMP JUMPDEST PUSH2 0x21A PUSH2 0x3DC JUMP JUMPDEST PUSH20 0xFFFFFFFFFFFFFFFFFFFFFFFFFFFFFFFFFFFFFFFF AND PUSH2 0x238 PUSH2 0x169 JUMP JUMPDEST PUSH20 0xFFFFFFFFFFFFFFFFFFFFFFFFFFFFFFFFFFFFFFFF AND EQ PUSH2 0x28E JUMPI PUSH1 0x40 MLOAD PUSH32 0x8C379A000000000000000000000000000000000000000000000000000000000 DUP2 MSTORE PUSH1 0x4 ADD PUSH2 0x285 SWAP1 PUSH2 0x59E JUMP JUMPDEST PUSH1 0x40 MLOAD DUP1 SWAP2 SUB SWAP1 REVERT JUMPDEST JUMP JUMPDEST PUSH2 0x299 DUP2 PUSH2 0x3E3 JUMP JUMPDEST PUSH2 0x2D8 JUMPI PUSH1 0x40 MLOAD PUSH32 0x8C379A000000000000000000000000000000000000000000000000000000000 DUP2 MSTORE PUSH1 0x4 ADD PUSH2 0x2CF SWAP1 PUSH2 0x62C JUMP JUMPDEST PUSH1 0x40 MLOAD DUP1 SWAP2 SUB SWAP1 REVERT JUMPDEST DUP1 PUSH1 0x1 PUSH0 PUSH2 0x100 EXP DUP2 SLOAD DUP2 PUSH20 0xFFFFFFFFFFFFFFFFFFFFFFFFFFFFFFFFFFFFFFFF MUL NOT AND SWAP1 DUP4 PUSH20 0xFFFFFFFFFFFFFFFFFFFFFFFFFFFFFFFFFFFFFFFF AND MUL OR SWAP1 SSTORE POP POP JUMP JUMPDEST PUSH0 DUP1 PUSH0 SWAP1 SLOAD SWAP1 PUSH2 0x100 EXP SWAP1 DIV PUSH20 0xFFFFFFFFFFFFFFFFFFFFFFFFFFFFFFFFFFFFFFFF AND SWAP1 POP DUP2 PUSH0 DUP1 PUSH2 0x100 EXP DUP2 SLOAD DUP2 PUSH20 0xFFFFFFFFFFFFFFFFFFFFFFFFFFFFFFFFFFFFFFFF MUL NOT AND SWAP1 DUP4 PUSH20 0xFFFFFFFFFFFFFFFFFFFFFFFFFFFFFFFFFFFFFFFF AND MUL OR SWAP1 SSTORE POP DUP2 PUSH20 0xFFFFFFFFFFFFFFFFFFFFFFFFFFFFFFFFFFFFFFFF AND DUP2 PUSH20 0xFFFFFFFFFFFFFFFFFFFFFFFFFFFFFFFFFFFFFFFF AND PUSH32 0x8BE0079C531659141344CD1FD0A4F28419497F9722A3DAAFE3B4186F6B6457E0 PUSH1 0x40 MLOAD PUSH1 0x40 MLOAD DUP1 SWAP2 SUB SWAP1 LOG3 POP POP JUMP JUMPDEST PUSH0 CALLER SWAP1 POP SWAP1 JUMP JUMPDEST PUSH0 DUP1 DUP3 PUSH20 0xFFFFFFFFFFFFFFFFFFFFFFFFFFFFFFFFFFFFFFFF AND EXTCODESIZE GT SWAP1 POP SWAP2 SWAP1 POP JUMP JUMPDEST PUSH0 DUP1 REVERT JUMPDEST PUSH0 PUSH20 0xFFFFFFFFFFFFFFFFFFFFFFFFFFFFFFFFFFFFFFFF DUP3 AND SWAP1 POP SWAP2 SWAP1 POP JUMP JUMPDEST PUSH0 PUSH2 0x432 DUP3 PUSH2 0x409 JUMP JUMPDEST SWAP1 POP SWAP2 SWAP1 POP JUMP JUMPDEST PUSH2 0x442 DUP2 PUSH2 0x428 JUMP JUMPDEST DUP2 EQ PUSH2 0x44C JUMPI PUSH0 DUP1 REVERT JUMPDEST POP JUMP JUMPDEST PUSH0 DUP2 CALLDATALOAD SWAP1 POP PUSH2 0x45D DUP2 PUSH2 0x439 JUMP JUMPDEST SWAP3 SWAP2 POP POP JUMP JUMPDEST PUSH0 PUSH1 0x20 DUP3 DUP5 SUB SLT ISZERO PUSH2 0x478 JUMPI PUSH2 0x477 PUSH2 0x405 JUMP JUMPDEST JUMPDEST PUSH0 PUSH2 0x485 DUP5 DUP3 DUP6 ADD PUSH2 0x44F JUMP JUMPDEST SWAP2 POP POP SWAP3 SWAP2 POP POP JUMP JUMPDEST PUSH2 0x497 DUP2 PUSH2 0x428 JUMP JUMPDEST DUP3 MSTORE POP POP JUMP JUMPDEST PUSH0 PUSH1 0x20 DUP3 ADD SWAP1 POP PUSH2 0x4B0 PUSH0 DUP4 ADD DUP5 PUSH2 0x48E JUMP JUMPDEST SWAP3 SWAP2 POP POP JUMP JUMPDEST PUSH0 DUP3 DUP3 MSTORE PUSH1 0x20 DUP3 ADD SWAP1 POP SWAP3 SWAP2 POP POP JUMP JUMPDEST PUSH32 0x4F776E61626C653A206E6577206F776E657220697320746865207A65726F2061 PUSH0 DUP3 ADD MSTORE PUSH32 0x6464726573730000000000000000000000000000000000000000000000000000 PUSH1 0x20 DUP3 ADD MSTORE POP JUMP JUMPDEST PUSH0 PUSH2 0x520 PUSH1 0x26 DUP4 PUSH2 0x4B6 JUMP JUMPDEST SWAP2 POP PUSH2 0x52B DUP3 PUSH2 0x4C6 JUMP JUMPDEST PUSH1 0x40 DUP3 ADD SWAP1 POP SWAP2 SWAP1 POP JUMP JUMPDEST PUSH0 PUSH1 0x20 DUP3 ADD SWAP1 POP DUP2 DUP2 SUB PUSH0 DUP4 ADD MSTORE PUSH2 0x54D DUP2 PUSH2 0x514 JUMP JUMPDEST SWAP1 POP SWAP2 SWAP1 POP JUMP JUMPDEST PUSH32 0x4F776E61626C653A2063616C6C6572206973206E6F7420746865206F776E6572 PUSH0 DUP3 ADD MSTORE POP JUMP JUMPDEST PUSH0 PUSH2 0x588 PUSH1 0x20 DUP4 PUSH2 0x4B6 JUMP JUMPDEST SWAP2 POP PUSH2 0x593 DUP3 PUSH2 0x554 JUMP JUMPDEST PUSH1 0x20 DUP3 ADD SWAP1 POP SWAP2 SWAP1 POP JUMP JUMPDEST PUSH0 PUSH1 0x20 DUP3 ADD SWAP1 POP DUP2 DUP2 SUB PUSH0 DUP4 ADD MSTORE PUSH2 0x5B5 DUP2 PUSH2 0x57C JUMP JUMPDEST SWAP1 POP SWAP2 SWAP1 POP JUMP JUMPDEST PUSH32 0x5570677261646561626C65426561636F6E3A20696D706C656D656E746174696F PUSH0 DUP3 ADD MSTORE PUSH32 0x6E206973206E6F74206120636F6E747261637400000000000000000000000000 PUSH1 0x20 DUP3 ADD MSTORE POP JUMP JUMPDEST PUSH0 PUSH2 0x616 PUSH1 0x33 DUP4 PUSH2 0x4B6 JUMP JUMPDEST SWAP2 POP PUSH2 0x621 DUP3 PUSH2 0x5BC JUMP JUMPDEST PUSH1 0x40 DUP3 ADD SWAP1 POP SWAP2 SWAP1 POP JUMP JUMPDEST PUSH0 PUSH1 0x20 DUP3 ADD SWAP1 POP DUP2 DUP2 SUB PUSH0 DUP4 ADD MSTORE PUSH2 0x643 DUP2 PUSH2 0x60A JUMP JUMPDEST SWAP1 POP SWAP2 SWAP1 POP JUMP INVALID LOG2 PUSH5 0x6970667358 0x22 SLT KECCAK256 PUSH11 0x41CA6E6D94870EAB77D025 PUSH9 0xB4EF4EDD571320AB7C PUSH1 0xEE PUSH24 0xBF11579E97C5A464736F6C634300081A0033A26469706673 PC 0x22 SLT KECCAK256 SWAP11 SAR ISZERO 0xF9 0xDC PUSH18 0x74AE79E37F3A6C2714C82BD0797AFC6490EC 0xCD MSIZE PUSH1 0xE2 0xEF COINBASE 0xA8 PUSH20 0x64736F6C634300081A0033000000000000000000 "
				},
				"gasEstimates": {
					"creation": {
						"codeDepositCost": "2716400",
						"executionCost": "infinite",
						"totalCost": "infinite"
					},
					"external": {
						"addRebalancer(address)": "infinite",
						"addStrategy(string,address)": "infinite",
						"createStrategy(string)": "infinite",
						"getImplementation(string)": "infinite",
						"getStrategyTypes()": "infinite",
						"globalPause()": "2605",
						"instances(string)": "infinite",
						"keeper()": "2619",
						"owner()": "2560",
						"pauseAllStrats()": "30176",
						"pauseStrategy(string)": "infinite",
						"plexusFeeConfig()": "2552",
						"plexusFeeRecipient()": "2531",
						"rebalancers(address)": "2922",
						"removeRebalancer(address)": "infinite",
						"renounceOwnership()": "30479",
						"setKeeper(address)": "infinite",
						"setPlexusFeeConfig(address)": "infinite",
						"setPlexusFeeRecipient(address)": "infinite",
						"strategyPause(string)": "infinite",
						"strategyTypes(uint256)": "infinite",
						"transferOwnership(address)": "30841",
						"unpauseAllStrats()": "27980",
						"unpauseStrategy(string)": "infinite",
						"upgradeTo(string,address)": "infinite",
						"wnative()": "2642"
					}
				},
				"methodIdentifiers": {
					"addRebalancer(address)": "0c979919",
					"addStrategy(string,address)": "cdd5d9dd",
					"createStrategy(string)": "116fd501",
					"getImplementation(string)": "6b683896",
					"getStrategyTypes()": "ed8ea600",
					"globalPause()": "f12d54d8",
					"instances(string)": "41a1914e",
					"keeper()": "aced1661",
					"owner()": "8da5cb5b",
					"pauseAllStrats()": "c93d7715",
					"pauseStrategy(string)": "194a4108",
					"plexusFeeConfig()": "e8edd3e8",
					"plexusFeeRecipient()": "8683ed5b",
					"rebalancers(address)": "a44d57a0",
					"removeRebalancer(address)": "43bc4b9a",
					"renounceOwnership()": "715018a6",
					"setKeeper(address)": "748747e6",
					"setPlexusFeeConfig(address)": "066e4a19",
					"setPlexusFeeRecipient(address)": "1d06ce66",
					"strategyPause(string)": "de73a594",
					"strategyTypes(uint256)": "517137ee",
					"transferOwnership(address)": "f2fde38b",
					"unpauseAllStrats()": "940a9fa1",
					"unpauseStrategy(string)": "ce903bcc",
					"upgradeTo(string,address)": "5a8b1a9f",
					"wnative()": "2cebdeb2"
				}
			},
			"storageLayout": {
				"storage": [
					{
						"astId": 7,
						"contract": "contracts/infra/StrategyFactory.sol:StrategyFactory",
						"label": "_owner",
						"offset": 0,
						"slot": "0",
						"type": "t_address"
					},
					{
						"astId": 1133,
						"contract": "contracts/infra/StrategyFactory.sol:StrategyFactory",
						"label": "instances",
						"offset": 0,
						"slot": "1",
						"type": "t_mapping(t_string_memory_ptr,t_contract(UpgradeableBeacon)650)"
					},
					{
						"astId": 1138,
						"contract": "contracts/infra/StrategyFactory.sol:StrategyFactory",
						"label": "rebalancers",
						"offset": 0,
						"slot": "2",
						"type": "t_mapping(t_address,t_bool)"
					},
					{
						"astId": 1143,
						"contract": "contracts/infra/StrategyFactory.sol:StrategyFactory",
						"label": "strategyPause",
						"offset": 0,
						"slot": "3",
						"type": "t_mapping(t_string_memory_ptr,t_bool)"
					},
					{
						"astId": 1147,
						"contract": "contracts/infra/StrategyFactory.sol:StrategyFactory",
						"label": "strategyTypes",
						"offset": 0,
						"slot": "4",
						"type": "t_array(t_string_storage)dyn_storage"
					},
					{
						"astId": 1150,
						"contract": "contracts/infra/StrategyFactory.sol:StrategyFactory",
						"label": "wnative",
						"offset": 0,
						"slot": "5",
						"type": "t_address"
					},
					{
						"astId": 1153,
						"contract": "contracts/infra/StrategyFactory.sol:StrategyFactory",
						"label": "keeper",
						"offset": 0,
						"slot": "6",
						"type": "t_address"
					},
					{
						"astId": 1156,
						"contract": "contracts/infra/StrategyFactory.sol:StrategyFactory",
						"label": "plexusFeeRecipient",
						"offset": 0,
						"slot": "7",
						"type": "t_address"
					},
					{
						"astId": 1159,
						"contract": "contracts/infra/StrategyFactory.sol:StrategyFactory",
						"label": "plexusFeeConfig",
						"offset": 0,
						"slot": "8",
						"type": "t_address"
					},
					{
						"astId": 1162,
						"contract": "contracts/infra/StrategyFactory.sol:StrategyFactory",
						"label": "globalPause",
						"offset": 20,
						"slot": "8",
						"type": "t_bool"
					}
				],
				"types": {
					"t_address": {
						"encoding": "inplace",
						"label": "address",
						"numberOfBytes": "20"
					},
					"t_array(t_string_storage)dyn_storage": {
						"base": "t_string_storage",
						"encoding": "dynamic_array",
						"label": "string[]",
						"numberOfBytes": "32"
					},
					"t_bool": {
						"encoding": "inplace",
						"label": "bool",
						"numberOfBytes": "1"
					},
					"t_contract(UpgradeableBeacon)650": {
						"encoding": "inplace",
						"label": "contract UpgradeableBeacon",
						"numberOfBytes": "20"
					},
					"t_mapping(t_address,t_bool)": {
						"encoding": "mapping",
						"key": "t_address",
						"label": "mapping(address => bool)",
						"numberOfBytes": "32",
						"value": "t_bool"
					},
					"t_mapping(t_string_memory_ptr,t_bool)": {
						"encoding": "mapping",
						"key": "t_string_memory_ptr",
						"label": "mapping(string => bool)",
						"numberOfBytes": "32",
						"value": "t_bool"
					},
					"t_mapping(t_string_memory_ptr,t_contract(UpgradeableBeacon)650)": {
						"encoding": "mapping",
						"key": "t_string_memory_ptr",
						"label": "mapping(string => contract UpgradeableBeacon)",
						"numberOfBytes": "32",
						"value": "t_contract(UpgradeableBeacon)650"
					},
					"t_string_memory_ptr": {
						"encoding": "bytes",
						"label": "string",
						"numberOfBytes": "32"
					},
					"t_string_storage": {
						"encoding": "bytes",
						"label": "string",
						"numberOfBytes": "32"
					}
				}
			},
			"userdoc": {
				"kind": "user",
				"methods": {
					"addRebalancer(address)": {
						"notice": "Adds a rebalancer callable by the owner"
					},
					"addStrategy(string,address)": {
						"notice": "Adds a new strategy to the factory"
					},
					"constructor": {
						"notice": "Constructor initializes the keeper address"
					},
					"createStrategy(string)": {
						"notice": "Creates a new Plexus Strategy as a proxy of the template instance"
					},
					"getImplementation(string)": {
						"notice": "Gets the implementation of a strategy"
					},
					"getStrategyTypes()": {
						"notice": "Gets the array of deployed strategies"
					},
					"globalPause()": {
						"notice": "Global pause state for all strategies that use this"
					},
					"instances(string)": {
						"notice": "instance mapping to strategy name with version."
					},
					"keeper()": {
						"notice": "The address of the keeper"
					},
					"pauseAllStrats()": {
						"notice": "Pauses all strategies"
					},
					"plexusFeeConfig()": {
						"notice": "The plexus fee config"
					},
					"plexusFeeRecipient()": {
						"notice": "The plexus fee recipient"
					},
					"rebalancers(address)": {
						"notice": "approved rebalancer mapping"
					},
					"removeRebalancer(address)": {
						"notice": "Removes a rebalancer callable by a manager"
					},
					"setKeeper(address)": {
						"notice": "set the keeper address"
					},
					"setPlexusFeeConfig(address)": {
						"notice": "set the plexus fee config address"
					},
					"setPlexusFeeRecipient(address)": {
						"notice": "set the plexus fee recipient address"
					},
					"strategyPause(string)": {
						"notice": "Pause state by strategyName"
					},
					"strategyTypes(uint256)": {
						"notice": "deployed strategy types"
					},
					"unpauseAllStrats()": {
						"notice": "Unpauses all strategies"
					},
					"upgradeTo(string,address)": {
						"notice": "Upgrades the implementation of a strategy"
					},
					"wnative()": {
						"notice": "The address of the wnative token"
					}
				},
				"version": 1
			}
		}
	}
}