{
	"contracts/vaults/PlexusVaultNative.sol": {
		"PlexusVaultNative": {
			"abi": [
				{
					"anonymous": false,
					"inputs": [
						{
							"indexed": true,
							"internalType": "address",
							"name": "owner",
							"type": "address"
						},
						{
							"indexed": true,
							"internalType": "address",
							"name": "spender",
							"type": "address"
						},
						{
							"indexed": false,
							"internalType": "uint256",
							"name": "value",
							"type": "uint256"
						}
					],
					"name": "Approval",
					"type": "event"
				},
				{
					"anonymous": false,
					"inputs": [
						{
							"indexed": false,
							"internalType": "uint8",
							"name": "version",
							"type": "uint8"
						}
					],
					"name": "Initialized",
					"type": "event"
				},
				{
					"anonymous": false,
					"inputs": [
						{
							"indexed": false,
							"internalType": "address",
							"name": "implementation",
							"type": "address"
						}
					],
					"name": "NewStratCandidate",
					"type": "event"
				},
				{
					"anonymous": false,
					"inputs": [
						{
							"indexed": true,
							"internalType": "address",
							"name": "previousOwner",
							"type": "address"
						},
						{
							"indexed": true,
							"internalType": "address",
							"name": "newOwner",
							"type": "address"
						}
					],
					"name": "OwnershipTransferred",
					"type": "event"
				},
				{
					"anonymous": false,
					"inputs": [
						{
							"indexed": true,
							"internalType": "address",
							"name": "from",
							"type": "address"
						},
						{
							"indexed": true,
							"internalType": "address",
							"name": "to",
							"type": "address"
						},
						{
							"indexed": false,
							"internalType": "uint256",
							"name": "value",
							"type": "uint256"
						}
					],
					"name": "Transfer",
					"type": "event"
				},
				{
					"anonymous": false,
					"inputs": [
						{
							"indexed": false,
							"internalType": "address",
							"name": "implementation",
							"type": "address"
						}
					],
					"name": "UpgradeStrat",
					"type": "event"
				},
				{
					"inputs": [
						{
							"internalType": "address",
							"name": "owner",
							"type": "address"
						},
						{
							"internalType": "address",
							"name": "spender",
							"type": "address"
						}
					],
					"name": "allowance",
					"outputs": [
						{
							"internalType": "uint256",
							"name": "",
							"type": "uint256"
						}
					],
					"stateMutability": "view",
					"type": "function"
				},
				{
					"inputs": [],
					"name": "approvalDelay",
					"outputs": [
						{
							"internalType": "uint256",
							"name": "",
							"type": "uint256"
						}
					],
					"stateMutability": "view",
					"type": "function"
				},
				{
					"inputs": [
						{
							"internalType": "address",
							"name": "spender",
							"type": "address"
						},
						{
							"internalType": "uint256",
							"name": "amount",
							"type": "uint256"
						}
					],
					"name": "approve",
					"outputs": [
						{
							"internalType": "bool",
							"name": "",
							"type": "bool"
						}
					],
					"stateMutability": "nonpayable",
					"type": "function"
				},
				{
					"inputs": [],
					"name": "available",
					"outputs": [
						{
							"internalType": "uint256",
							"name": "",
							"type": "uint256"
						}
					],
					"stateMutability": "view",
					"type": "function"
				},
				{
					"inputs": [],
					"name": "balance",
					"outputs": [
						{
							"internalType": "uint256",
							"name": "",
							"type": "uint256"
						}
					],
					"stateMutability": "view",
					"type": "function"
				},
				{
					"inputs": [
						{
							"internalType": "address",
							"name": "account",
							"type": "address"
						}
					],
					"name": "balanceOf",
					"outputs": [
						{
							"internalType": "uint256",
							"name": "",
							"type": "uint256"
						}
					],
					"stateMutability": "view",
					"type": "function"
				},
				{
					"inputs": [],
					"name": "decimals",
					"outputs": [
						{
							"internalType": "uint8",
							"name": "",
							"type": "uint8"
						}
					],
					"stateMutability": "view",
					"type": "function"
				},
				{
					"inputs": [
						{
							"internalType": "address",
							"name": "spender",
							"type": "address"
						},
						{
							"internalType": "uint256",
							"name": "subtractedValue",
							"type": "uint256"
						}
					],
					"name": "decreaseAllowance",
					"outputs": [
						{
							"internalType": "bool",
							"name": "",
							"type": "bool"
						}
					],
					"stateMutability": "nonpayable",
					"type": "function"
				},
				{
					"inputs": [
						{
							"internalType": "uint256",
							"name": "_amount",
							"type": "uint256"
						}
					],
					"name": "deposit",
					"outputs": [],
					"stateMutability": "nonpayable",
					"type": "function"
				},
				{
					"inputs": [],
					"name": "depositAll",
					"outputs": [],
					"stateMutability": "nonpayable",
					"type": "function"
				},
				{
					"inputs": [],
					"name": "depositNative",
					"outputs": [],
					"stateMutability": "payable",
					"type": "function"
				},
				{
					"inputs": [],
					"name": "earn",
					"outputs": [],
					"stateMutability": "nonpayable",
					"type": "function"
				},
				{
					"inputs": [],
					"name": "getPricePerFullShare",
					"outputs": [
						{
							"internalType": "uint256",
							"name": "",
							"type": "uint256"
						}
					],
					"stateMutability": "view",
					"type": "function"
				},
				{
					"inputs": [
						{
							"internalType": "address",
							"name": "_token",
							"type": "address"
						}
					],
					"name": "inCaseTokensGetStuck",
					"outputs": [],
					"stateMutability": "nonpayable",
					"type": "function"
				},
				{
					"inputs": [
						{
							"internalType": "address",
							"name": "spender",
							"type": "address"
						},
						{
							"internalType": "uint256",
							"name": "addedValue",
							"type": "uint256"
						}
					],
					"name": "increaseAllowance",
					"outputs": [
						{
							"internalType": "bool",
							"name": "",
							"type": "bool"
						}
					],
					"stateMutability": "nonpayable",
					"type": "function"
				},
				{
					"inputs": [
						{
							"internalType": "contract IStrategy",
							"name": "_strategy",
							"type": "address"
						},
						{
							"internalType": "string",
							"name": "_name",
							"type": "string"
						},
						{
							"internalType": "string",
							"name": "_symbol",
							"type": "string"
						},
						{
							"internalType": "uint256",
							"name": "_approvalDelay",
							"type": "uint256"
						}
					],
					"name": "initialize",
					"outputs": [],
					"stateMutability": "nonpayable",
					"type": "function"
				},
				{
					"inputs": [],
					"name": "name",
					"outputs": [
						{
							"internalType": "string",
							"name": "",
							"type": "string"
						}
					],
					"stateMutability": "view",
					"type": "function"
				},
				{
					"inputs": [],
					"name": "owner",
					"outputs": [
						{
							"internalType": "address",
							"name": "",
							"type": "address"
						}
					],
					"stateMutability": "view",
					"type": "function"
				},
				{
					"inputs": [
						{
							"internalType": "address",
							"name": "_implementation",
							"type": "address"
						}
					],
					"name": "proposeStrat",
					"outputs": [],
					"stateMutability": "nonpayable",
					"type": "function"
				},
				{
					"inputs": [],
					"name": "renounceOwnership",
					"outputs": [],
					"stateMutability": "nonpayable",
					"type": "function"
				},
				{
					"inputs": [],
					"name": "stratCandidate",
					"outputs": [
						{
							"internalType": "address",
							"name": "implementation",
							"type": "address"
						},
						{
							"internalType": "uint256",
							"name": "proposedTime",
							"type": "uint256"
						}
					],
					"stateMutability": "view",
					"type": "function"
				},
				{
					"inputs": [],
					"name": "strategy",
					"outputs": [
						{
							"internalType": "contract IStrategy",
							"name": "",
							"type": "address"
						}
					],
					"stateMutability": "view",
					"type": "function"
				},
				{
					"inputs": [],
					"name": "symbol",
					"outputs": [
						{
							"internalType": "string",
							"name": "",
							"type": "string"
						}
					],
					"stateMutability": "view",
					"type": "function"
				},
				{
					"inputs": [],
					"name": "totalSupply",
					"outputs": [
						{
							"internalType": "uint256",
							"name": "",
							"type": "uint256"
						}
					],
					"stateMutability": "view",
					"type": "function"
				},
				{
					"inputs": [
						{
							"internalType": "address",
							"name": "to",
							"type": "address"
						},
						{
							"internalType": "uint256",
							"name": "amount",
							"type": "uint256"
						}
					],
					"name": "transfer",
					"outputs": [
						{
							"internalType": "bool",
							"name": "",
							"type": "bool"
						}
					],
					"stateMutability": "nonpayable",
					"type": "function"
				},
				{
					"inputs": [
						{
							"internalType": "address",
							"name": "from",
							"type": "address"
						},
						{
							"internalType": "address",
							"name": "to",
							"type": "address"
						},
						{
							"internalType": "uint256",
							"name": "amount",
							"type": "uint256"
						}
					],
					"name": "transferFrom",
					"outputs": [
						{
							"internalType": "bool",
							"name": "",
							"type": "bool"
						}
					],
					"stateMutability": "nonpayable",
					"type": "function"
				},
				{
					"inputs": [
						{
							"internalType": "address",
							"name": "newOwner",
							"type": "address"
						}
					],
					"name": "transferOwnership",
					"outputs": [],
					"stateMutability": "nonpayable",
					"type": "function"
				},
				{
					"inputs": [],
					"name": "upgradeStrat",
					"outputs": [],
					"stateMutability": "nonpayable",
					"type": "function"
				},
				{
					"inputs": [],
					"name": "want",
					"outputs": [
						{
							"internalType": "contract IERC20Upgradeable",
							"name": "",
							"type": "address"
						}
					],
					"stateMutability": "view",
					"type": "function"
				},
				{
					"inputs": [
						{
							"internalType": "uint256",
							"name": "_shares",
							"type": "uint256"
						}
					],
					"name": "withdraw",
					"outputs": [],
					"stateMutability": "nonpayable",
					"type": "function"
				},
				{
					"inputs": [],
					"name": "withdrawAll",
					"outputs": [],
					"stateMutability": "nonpayable",
					"type": "function"
				},
				{
					"inputs": [],
					"name": "withdrawAllNative",
					"outputs": [],
					"stateMutability": "nonpayable",
					"type": "function"
				},
				{
					"inputs": [
						{
							"internalType": "uint256",
							"name": "_shares",
							"type": "uint256"
						}
					],
					"name": "withdrawNative",
					"outputs": [],
					"stateMutability": "nonpayable",
					"type": "function"
				},
				{
					"stateMutability": "payable",
					"type": "receive"
				}
			],
			"devdoc": {
				"details": "Implementation of a vault to deposit funds for yield optimizing. This is the contract that receives funds and that users interface with. The yield optimizing strategy itself is implemented in a separate 'Strategy.sol' contract.",
				"kind": "dev",
				"methods": {
					"allowance(address,address)": {
						"details": "See {IERC20-allowance}."
					},
					"approve(address,uint256)": {
						"details": "See {IERC20-approve}. NOTE: If `amount` is the maximum `uint256`, the allowance is not updated on `transferFrom`. This is semantically equivalent to an infinite approval. Requirements: - `spender` cannot be the zero address."
					},
					"available()": {
						"details": "Custom logic in here for how much the vault allows to be borrowed. We return 100% of tokens for now. Under certain conditions we might want to keep some of the system funds at hand in the vault, instead of putting them to work."
					},
					"balance()": {
						"details": "It calculates the total underlying value of {token} held by the system. It takes into account the vault contract balance, the strategy contract balance  and the balance deployed in other contracts as part of the strategy."
					},
					"balanceOf(address)": {
						"details": "See {IERC20-balanceOf}."
					},
					"decimals()": {
						"details": "Returns the number of decimals used to get its user representation. For example, if `decimals` equals `2`, a balance of `505` tokens should be displayed to a user as `5.05` (`505 / 10 ** 2`). Tokens usually opt for a value of 18, imitating the relationship between Ether and Wei. This is the default value returned by this function, unless it's overridden. NOTE: This information is only used for _display_ purposes: it in no way affects any of the arithmetic of the contract, including {IERC20-balanceOf} and {IERC20-transfer}."
					},
					"decreaseAllowance(address,uint256)": {
						"details": "Atomically decreases the allowance granted to `spender` by the caller. This is an alternative to {approve} that can be used as a mitigation for problems described in {IERC20-approve}. Emits an {Approval} event indicating the updated allowance. Requirements: - `spender` cannot be the zero address. - `spender` must have allowance for the caller of at least `subtractedValue`."
					},
					"deposit(uint256)": {
						"details": "The entrypoint of funds into the system. People deposit with this function into the vault. The vault is then in charge of sending funds into the strategy."
					},
					"depositAll()": {
						"details": "A helper function to call deposit() with all the sender's funds."
					},
					"depositNative()": {
						"details": "Alterwnative entry point into the strat. You can send wnative, and the vault will wrap them before sending them into the strat."
					},
					"earn()": {
						"details": "Function to send funds into the strategy and put them to work. It's primarily called by the vault's deposit() function."
					},
					"getPricePerFullShare()": {
						"details": "Function for various UIs to display the current value of one of our yield tokens. Returns an uint256 with 18 decimals of how much underlying asset one vault share represents."
					},
					"inCaseTokensGetStuck(address)": {
						"details": "Rescues random funds stuck that the strat can't handle.",
						"params": {
							"_token": "address of the token to rescue."
						}
					},
					"increaseAllowance(address,uint256)": {
						"details": "Atomically increases the allowance granted to `spender` by the caller. This is an alternative to {approve} that can be used as a mitigation for problems described in {IERC20-approve}. Emits an {Approval} event indicating the updated allowance. Requirements: - `spender` cannot be the zero address."
					},
					"initialize(address,string,string,uint256)": {
						"details": "Sets the value of {token} to the token that the vault will hold as underlying value. It initializes the vault's own 'plxv' token This token is minted when someone does a deposit. It is burned in order to withdraw the corresponding portion of the underlying assets.",
						"params": {
							"_approvalDelay": "the delay before a new strat can be approved.",
							"_name": "the name of the vault token.",
							"_strategy": "the address of the strategy.",
							"_symbol": "the symbol of the vault token."
						}
					},
					"name()": {
						"details": "Returns the name of the token."
					},
					"owner()": {
						"details": "Returns the address of the current owner."
					},
					"proposeStrat(address)": {
						"details": "Sets the candidate for the new strat to use with this vault.",
						"params": {
							"_implementation": "The address of the candidate strategy."
						}
					},
					"renounceOwnership()": {
						"details": "Leaves the contract without owner. It will not be possible to call `onlyOwner` functions. Can only be called by the current owner. NOTE: Renouncing ownership will leave the contract without an owner, thereby disabling any functionality that is only available to the owner."
					},
					"symbol()": {
						"details": "Returns the symbol of the token, usually a shorter version of the name."
					},
					"totalSupply()": {
						"details": "See {IERC20-totalSupply}."
					},
					"transfer(address,uint256)": {
						"details": "See {IERC20-transfer}. Requirements: - `to` cannot be the zero address. - the caller must have a balance of at least `amount`."
					},
					"transferFrom(address,address,uint256)": {
						"details": "See {IERC20-transferFrom}. Emits an {Approval} event indicating the updated allowance. This is not required by the EIP. See the note at the beginning of {ERC20}. NOTE: Does not update the allowance if the current allowance is the maximum `uint256`. Requirements: - `from` and `to` cannot be the zero address. - `from` must have a balance of at least `amount`. - the caller must have allowance for ``from``'s tokens of at least `amount`."
					},
					"transferOwnership(address)": {
						"details": "Transfers ownership of the contract to a new account (`newOwner`). Can only be called by the current owner."
					},
					"upgradeStrat()": {
						"details": "It switches the active strat for the strat candidate. After upgrading, the candidate implementation is set to the 0x00 address, and proposedTime to a time happening in +100 years for safety."
					},
					"withdraw(uint256)": {
						"details": "Function to exit the system. The vault will withdraw the required tokens from the strategy and pay up the token holder. A proportional number of IOU tokens are burned in the process."
					},
					"withdrawAll()": {
						"details": "A helper function to call withdraw() with all the sender's funds."
					},
					"withdrawAllNative()": {
						"details": "Alterwnative helper function to withdraw all funds in wnative form."
					},
					"withdrawNative(uint256)": {
						"details": "Alterwnative function to exit the system. Works just like 'withdraw(uint256)', but the funds arrive in wnative."
					}
				},
				"version": 1
			},
			"evm": {
				"assembly": "    /* \"contracts/vaults/PlexusVaultNative.sol\":735:9116  contract PlexusVaultNative is ERC20Upgradeable, OwnableUpgradeable, ReentrancyGuardUpgradeable {... */\n  mstore(0x40, 0x80)\n  callvalue\n  dup1\n  iszero\n  tag_1\n  jumpi\n  0x00\n  dup1\n  revert\ntag_1:\n  pop\n  dataSize(sub_0)\n  dup1\n  dataOffset(sub_0)\n  0x00\n  codecopy\n  0x00\n  return\nstop\n\nsub_0: assembly {\n        /* \"contracts/vaults/PlexusVaultNative.sol\":735:9116  contract PlexusVaultNative is ERC20Upgradeable, OwnableUpgradeable, ReentrancyGuardUpgradeable {... */\n      mstore(0x40, 0x80)\n      jumpi(tag_1, lt(calldatasize, 0x04))\n      shr(0xe0, calldataload(0x00))\n      dup1\n      0x84276d81\n      gt\n      tag_36\n      jumpi\n      dup1\n      0xb6b55f25\n      gt\n      tag_37\n      jumpi\n      dup1\n      0xde5f6268\n      gt\n      tag_38\n      jumpi\n      dup1\n      0xde5f6268\n      eq\n      tag_31\n      jumpi\n      dup1\n      0xdef68a9c\n      eq\n      tag_32\n      jumpi\n      dup1\n      0xe2d1e75c\n      eq\n      tag_33\n      jumpi\n      dup1\n      0xe6685244\n      eq\n      tag_34\n      jumpi\n      dup1\n      0xf2fde38b\n      eq\n      tag_35\n      jumpi\n      0x00\n      dup1\n      revert\n    tag_38:\n      dup1\n      0xb6b55f25\n      eq\n      tag_27\n      jumpi\n      dup1\n      0xd389800f\n      eq\n      tag_28\n      jumpi\n      dup1\n      0xdb6b5246\n      eq\n      tag_29\n      jumpi\n      dup1\n      0xdd62ed3e\n      eq\n      tag_30\n      jumpi\n      0x00\n      dup1\n      revert\n    tag_37:\n      dup1\n      0xa457c2d7\n      gt\n      tag_39\n      jumpi\n      dup1\n      0xa457c2d7\n      eq\n      tag_23\n      jumpi\n      dup1\n      0xa8c62e76\n      eq\n      tag_24\n      jumpi\n      dup1\n      0xa9059cbb\n      eq\n      tag_25\n      jumpi\n      dup1\n      0xb69ef8a8\n      eq\n      tag_26\n      jumpi\n      0x00\n      dup1\n      revert\n    tag_39:\n      dup1\n      0x84276d81\n      eq\n      tag_19\n      jumpi\n      dup1\n      0x853828b6\n      eq\n      tag_20\n      jumpi\n      dup1\n      0x8da5cb5b\n      eq\n      tag_21\n      jumpi\n      dup1\n      0x95d89b41\n      eq\n      tag_22\n      jumpi\n      0x00\n      dup1\n      revert\n    tag_36:\n      dup1\n      0x482fe024\n      gt\n      tag_40\n      jumpi\n      dup1\n      0x70a08231\n      gt\n      tag_41\n      jumpi\n      dup1\n      0x70a08231\n      eq\n      tag_15\n      jumpi\n      dup1\n      0x715018a6\n      eq\n      tag_16\n      jumpi\n      dup1\n      0x76dfabb8\n      eq\n      tag_17\n      jumpi\n      dup1\n      0x77c7b8fc\n      eq\n      tag_18\n      jumpi\n      0x00\n      dup1\n      revert\n    tag_41:\n      dup1\n      0x482fe024\n      eq\n      tag_11\n      jumpi\n      dup1\n      0x48a0d754\n      eq\n      tag_12\n      jumpi\n      dup1\n      0x4d12d4b6\n      eq\n      tag_13\n      jumpi\n      dup1\n      0x5b12ff9b\n      eq\n      tag_14\n      jumpi\n      0x00\n      dup1\n      revert\n    tag_40:\n      dup1\n      0x23b872dd\n      gt\n      tag_42\n      jumpi\n      dup1\n      0x23b872dd\n      eq\n      tag_7\n      jumpi\n      dup1\n      0x2e1a7d4d\n      eq\n      tag_8\n      jumpi\n      dup1\n      0x313ce567\n      eq\n      tag_9\n      jumpi\n      dup1\n      0x39509351\n      eq\n      tag_10\n      jumpi\n      0x00\n      dup1\n      revert\n    tag_42:\n      dup1\n      0x06fdde03\n      eq\n      tag_3\n      jumpi\n      dup1\n      0x095ea7b3\n      eq\n      tag_4\n      jumpi\n      dup1\n      0x18160ddd\n      eq\n      tag_5\n      jumpi\n      dup1\n      0x1f1fcd51\n      eq\n      tag_6\n      jumpi\n      0x00\n      dup1\n      revert\n    tag_1:\n      jumpi(tag_2, calldatasize)\n      stop\n    tag_2:\n      0x00\n      dup1\n      revert\n        /* \"@openzeppelin/contracts-upgradeable/token/ERC20/ERC20Upgradeable.sol\":2516:2614  function name() public view virtual override returns (string memory) {... */\n    tag_3:\n      callvalue\n      dup1\n      iszero\n      tag_45\n      jumpi\n      0x00\n      dup1\n      revert\n    tag_45:\n      pop\n      tag_46\n      tag_47\n      jump\t// in\n    tag_46:\n      mload(0x40)\n      tag_48\n      swap2\n      swap1\n      tag_49\n      jump\t// in\n    tag_48:\n      mload(0x40)\n      dup1\n      swap2\n      sub\n      swap1\n      return\n        /* \"@openzeppelin/contracts-upgradeable/token/ERC20/ERC20Upgradeable.sol\":4802:4999  function approve(address spender, uint256 amount) public virtual override returns (bool) {... */\n    tag_4:\n      callvalue\n      dup1\n      iszero\n      tag_50\n      jumpi\n      0x00\n      dup1\n      revert\n    tag_50:\n      pop\n      tag_51\n      tag_52\n      calldatasize\n      0x04\n      tag_53\n      jump\t// in\n    tag_52:\n      tag_54\n      jump\t// in\n    tag_51:\n      mload(0x40)\n        /* \"#utility.yul\":5589:5603   */\n      swap1\n      iszero\n        /* \"#utility.yul\":5582:5604   */\n      iszero\n        /* \"#utility.yul\":5564:5605   */\n      dup2\n      mstore\n        /* \"#utility.yul\":5552:5554   */\n      0x20\n        /* \"#utility.yul\":5537:5555   */\n      add\n        /* \"@openzeppelin/contracts-upgradeable/token/ERC20/ERC20Upgradeable.sol\":4802:4999  function approve(address spender, uint256 amount) public virtual override returns (bool) {... */\n      tag_48\n        /* \"#utility.yul\":5519:5611   */\n      jump\n        /* \"@openzeppelin/contracts-upgradeable/token/ERC20/ERC20Upgradeable.sol\":3613:3719  function totalSupply() public view virtual override returns (uint256) {... */\n    tag_5:\n      callvalue\n      dup1\n      iszero\n      tag_57\n      jumpi\n      0x00\n      dup1\n      revert\n    tag_57:\n      pop\n        /* \"@openzeppelin/contracts-upgradeable/token/ERC20/ERC20Upgradeable.sol\":3700:3712  _totalSupply */\n      sload(0x35)\n        /* \"@openzeppelin/contracts-upgradeable/token/ERC20/ERC20Upgradeable.sol\":3613:3719  function totalSupply() public view virtual override returns (uint256) {... */\n    tag_58:\n      mload(0x40)\n        /* \"#utility.yul\":15672:15697   */\n      swap1\n      dup2\n      mstore\n        /* \"#utility.yul\":15660:15662   */\n      0x20\n        /* \"#utility.yul\":15645:15663   */\n      add\n        /* \"@openzeppelin/contracts-upgradeable/token/ERC20/ERC20Upgradeable.sol\":3613:3719  function totalSupply() public view virtual override returns (uint256) {... */\n      tag_48\n        /* \"#utility.yul\":15627:15703   */\n      jump\n        /* \"contracts/vaults/PlexusVaultNative.sol\":2228:2342  function want() public view returns (IERC20Upgradeable) {... */\n    tag_6:\n      callvalue\n      dup1\n      iszero\n      tag_62\n      jumpi\n      0x00\n      dup1\n      revert\n    tag_62:\n      pop\n      tag_63\n      tag_64\n      jump\t// in\n    tag_63:\n      mload(0x40)\n      sub(shl(0xa0, 0x01), 0x01)\n        /* \"#utility.yul\":4721:4753   */\n      swap1\n      swap2\n      and\n        /* \"#utility.yul\":4703:4754   */\n      dup2\n      mstore\n        /* \"#utility.yul\":4691:4693   */\n      0x20\n        /* \"#utility.yul\":4676:4694   */\n      add\n        /* \"contracts/vaults/PlexusVaultNative.sol\":2228:2342  function want() public view returns (IERC20Upgradeable) {... */\n      tag_48\n        /* \"#utility.yul\":4658:4760   */\n      jump\n        /* \"@openzeppelin/contracts-upgradeable/token/ERC20/ERC20Upgradeable.sol\":5561:5817  function transferFrom(address from, address to, uint256 amount) public virtual override returns (bool) {... */\n    tag_7:\n      callvalue\n      dup1\n      iszero\n      tag_67\n      jumpi\n      0x00\n      dup1\n      revert\n    tag_67:\n      pop\n      tag_51\n      tag_69\n      calldatasize\n      0x04\n      tag_70\n      jump\t// in\n    tag_69:\n      tag_71\n      jump\t// in\n        /* \"contracts/vaults/PlexusVaultNative.sol\":6071:6598  function withdraw(uint256 _shares) public {... */\n    tag_8:\n      callvalue\n      dup1\n      iszero\n      tag_73\n      jumpi\n      0x00\n      dup1\n      revert\n    tag_73:\n      pop\n      tag_74\n      tag_75\n      calldatasize\n      0x04\n      tag_76\n      jump\t// in\n    tag_75:\n      tag_77\n      jump\t// in\n    tag_74:\n      stop\n        /* \"@openzeppelin/contracts-upgradeable/token/ERC20/ERC20Upgradeable.sol\":3462:3553  function decimals() public view virtual override returns (uint8) {... */\n    tag_9:\n      callvalue\n      dup1\n      iszero\n      tag_78\n      jumpi\n      0x00\n      dup1\n      revert\n    tag_78:\n      pop\n      mload(0x40)\n        /* \"@openzeppelin/contracts-upgradeable/token/ERC20/ERC20Upgradeable.sol\":3544:3546  18 */\n      0x12\n        /* \"#utility.yul\":6228:6264   */\n      dup2\n      mstore\n        /* \"#utility.yul\":6216:6218   */\n      0x20\n        /* \"#utility.yul\":6201:6219   */\n      add\n        /* \"@openzeppelin/contracts-upgradeable/token/ERC20/ERC20Upgradeable.sol\":3462:3553  function decimals() public view virtual override returns (uint8) {... */\n      tag_48\n        /* \"#utility.yul\":6183:6270   */\n      jump\n        /* \"@openzeppelin/contracts-upgradeable/token/ERC20/ERC20Upgradeable.sol\":6212:6446  function increaseAllowance(address spender, uint256 addedValue) public virtual returns (bool) {... */\n    tag_10:\n      callvalue\n      dup1\n      iszero\n      tag_83\n      jumpi\n      0x00\n      dup1\n      revert\n    tag_83:\n      pop\n      tag_51\n      tag_85\n      calldatasize\n      0x04\n      tag_53\n      jump\t// in\n    tag_85:\n      tag_86\n      jump\t// in\n        /* \"contracts/vaults/PlexusVaultNative.sol\":5748:5840  function withdrawAllNative() external {... */\n    tag_11:\n      callvalue\n      dup1\n      iszero\n      tag_88\n      jumpi\n      0x00\n      dup1\n      revert\n    tag_88:\n      pop\n      tag_74\n      tag_90\n      jump\t// in\n        /* \"contracts/vaults/PlexusVaultNative.sol\":3030:3136  function available() public view returns (uint256) {... */\n    tag_12:\n      callvalue\n      dup1\n      iszero\n      tag_91\n      jumpi\n      0x00\n      dup1\n      revert\n    tag_91:\n      pop\n      tag_58\n      tag_93\n      jump\t// in\n        /* \"contracts/vaults/PlexusVaultNative.sol\":1919:2222  function initialize(IStrategy _strategy, string memory _name, string memory _symbol, uint256 _approvalDelay) public initializer {... */\n    tag_13:\n      callvalue\n      dup1\n      iszero\n      tag_95\n      jumpi\n      0x00\n      dup1\n      revert\n    tag_95:\n      pop\n      tag_74\n      tag_97\n      calldatasize\n      0x04\n      tag_98\n      jump\t// in\n    tag_97:\n      tag_99\n      jump\t// in\n        /* \"contracts/vaults/PlexusVaultNative.sol\":7498:7913  function proposeStrat(address _implementation) public onlyOwner {... */\n    tag_14:\n      callvalue\n      dup1\n      iszero\n      tag_100\n      jumpi\n      0x00\n      dup1\n      revert\n    tag_100:\n      pop\n      tag_74\n      tag_102\n      calldatasize\n      0x04\n      tag_103\n      jump\t// in\n    tag_102:\n      tag_104\n      jump\t// in\n        /* \"@openzeppelin/contracts-upgradeable/token/ERC20/ERC20Upgradeable.sol\":3777:3902  function balanceOf(address account) public view virtual override returns (uint256) {... */\n    tag_15:\n      callvalue\n      dup1\n      iszero\n      tag_105\n      jumpi\n      0x00\n      dup1\n      revert\n    tag_105:\n      pop\n      tag_58\n      tag_107\n      calldatasize\n      0x04\n      tag_103\n      jump\t// in\n    tag_107:\n      sub(shl(0xa0, 0x01), 0x01)\n        /* \"@openzeppelin/contracts-upgradeable/token/ERC20/ERC20Upgradeable.sol\":3877:3895  _balances[account] */\n      and\n        /* \"@openzeppelin/contracts-upgradeable/token/ERC20/ERC20Upgradeable.sol\":3851:3858  uint256 */\n      0x00\n        /* \"@openzeppelin/contracts-upgradeable/token/ERC20/ERC20Upgradeable.sol\":3877:3895  _balances[account] */\n      swap1\n      dup2\n      mstore\n        /* \"@openzeppelin/contracts-upgradeable/token/ERC20/ERC20Upgradeable.sol\":3877:3886  _balances */\n      0x33\n        /* \"@openzeppelin/contracts-upgradeable/token/ERC20/ERC20Upgradeable.sol\":3877:3895  _balances[account] */\n      0x20\n      mstore\n      0x40\n      swap1\n      keccak256\n      sload\n      swap1\n        /* \"@openzeppelin/contracts-upgradeable/token/ERC20/ERC20Upgradeable.sol\":3777:3902  function balanceOf(address account) public view virtual override returns (uint256) {... */\n      jump\n        /* \"@openzeppelin/contracts-upgradeable/access/OwnableUpgradeable.sol\":2085:2186  function renounceOwnership() public virtual onlyOwner {... */\n    tag_16:\n      callvalue\n      dup1\n      iszero\n      tag_110\n      jumpi\n      0x00\n      dup1\n      revert\n    tag_110:\n      pop\n      tag_74\n      tag_112\n      jump\t// in\n        /* \"contracts/vaults/PlexusVaultNative.sol\":1033:1069  StratCandidate public stratCandidate */\n    tag_17:\n      callvalue\n      dup1\n      iszero\n      tag_113\n      jumpi\n      0x00\n      dup1\n      revert\n    tag_113:\n      pop\n      sload(0xc9)\n      sload(0xca)\n      tag_114\n      swap2\n      sub(shl(0xa0, 0x01), 0x01)\n      and\n      swap1\n      dup3\n      jump\n    tag_114:\n      0x40\n      dup1\n      mload\n      sub(shl(0xa0, 0x01), 0x01)\n        /* \"#utility.yul\":5337:5369   */\n      swap1\n      swap4\n      and\n        /* \"#utility.yul\":5319:5370   */\n      dup4\n      mstore\n        /* \"#utility.yul\":5401:5403   */\n      0x20\n        /* \"#utility.yul\":5386:5404   */\n      dup4\n      add\n        /* \"#utility.yul\":5379:5413   */\n      swap2\n      swap1\n      swap2\n      mstore\n        /* \"#utility.yul\":5292:5310   */\n      add\n        /* \"contracts/vaults/PlexusVaultNative.sol\":1033:1069  StratCandidate public stratCandidate */\n      tag_48\n        /* \"#utility.yul\":5274:5419   */\n      jump\n        /* \"contracts/vaults/PlexusVaultNative.sol\":3352:3500  function getPricePerFullShare() public view returns (uint256) {... */\n    tag_18:\n      callvalue\n      dup1\n      iszero\n      tag_118\n      jumpi\n      0x00\n      dup1\n      revert\n    tag_118:\n      pop\n      tag_58\n      tag_120\n      jump\t// in\n        /* \"contracts/vaults/PlexusVaultNative.sol\":6751:7334  function withdrawNative(uint256 _shares) public {... */\n    tag_19:\n      callvalue\n      dup1\n      iszero\n      tag_122\n      jumpi\n      0x00\n      dup1\n      revert\n    tag_122:\n      pop\n      tag_74\n      tag_124\n      calldatasize\n      0x04\n      tag_76\n      jump\t// in\n    tag_124:\n      tag_125\n      jump\t// in\n        /* \"contracts/vaults/PlexusVaultNative.sol\":5566:5646  function withdrawAll() external {... */\n    tag_20:\n      callvalue\n      dup1\n      iszero\n      tag_126\n      jumpi\n      0x00\n      dup1\n      revert\n    tag_126:\n      pop\n      tag_74\n      tag_128\n      jump\t// in\n        /* \"@openzeppelin/contracts-upgradeable/access/OwnableUpgradeable.sol\":1462:1547  function owner() public view virtual returns (address) {... */\n    tag_21:\n      callvalue\n      dup1\n      iszero\n      tag_129\n      jumpi\n      0x00\n      dup1\n      revert\n    tag_129:\n      pop\n        /* \"@openzeppelin/contracts-upgradeable/access/OwnableUpgradeable.sol\":1534:1540  _owner */\n      and(sub(shl(0xa0, 0x01), 0x01), sload(0x65))\n        /* \"@openzeppelin/contracts-upgradeable/access/OwnableUpgradeable.sol\":1462:1547  function owner() public view virtual returns (address) {... */\n      jump(tag_63)\n        /* \"@openzeppelin/contracts-upgradeable/token/ERC20/ERC20Upgradeable.sol\":2727:2829  function symbol() public view virtual override returns (string memory) {... */\n    tag_22:\n      callvalue\n      dup1\n      iszero\n      tag_134\n      jumpi\n      0x00\n      dup1\n      revert\n    tag_134:\n      pop\n      tag_46\n      tag_136\n      jump\t// in\n        /* \"@openzeppelin/contracts-upgradeable/token/ERC20/ERC20Upgradeable.sol\":6933:7360  function decreaseAllowance(address spender, uint256 subtractedValue) public virtual returns (bool) {... */\n    tag_23:\n      callvalue\n      dup1\n      iszero\n      tag_138\n      jumpi\n      0x00\n      dup1\n      revert\n    tag_138:\n      pop\n      tag_51\n      tag_140\n      calldatasize\n      0x04\n      tag_53\n      jump\t// in\n    tag_140:\n      tag_141\n      jump\t// in\n        /* \"contracts/vaults/PlexusVaultNative.sol\":1126:1151  IStrategy public strategy */\n    tag_24:\n      callvalue\n      dup1\n      iszero\n      tag_143\n      jumpi\n      0x00\n      dup1\n      revert\n    tag_143:\n      pop\n      sload(0xcb)\n      tag_63\n      swap1\n      sub(shl(0xa0, 0x01), 0x01)\n      and\n      dup2\n      jump\n        /* \"@openzeppelin/contracts-upgradeable/token/ERC20/ERC20Upgradeable.sol\":4098:4287  function transfer(address to, uint256 amount) public virtual override returns (bool) {... */\n    tag_25:\n      callvalue\n      dup1\n      iszero\n      tag_148\n      jumpi\n      0x00\n      dup1\n      revert\n    tag_148:\n      pop\n      tag_51\n      tag_150\n      calldatasize\n      0x04\n      tag_53\n      jump\t// in\n    tag_150:\n      tag_151\n      jump\t// in\n        /* \"contracts/vaults/PlexusVaultNative.sol\":2612:2747  function balance() public view returns (uint) {... */\n    tag_26:\n      callvalue\n      dup1\n      iszero\n      tag_153\n      jumpi\n      0x00\n      dup1\n      revert\n    tag_153:\n      pop\n      tag_58\n      tag_155\n      jump\t// in\n        /* \"contracts/vaults/PlexusVaultNative.sol\":3880:4417  function deposit(uint _amount) public nonReentrant {... */\n    tag_27:\n      callvalue\n      dup1\n      iszero\n      tag_157\n      jumpi\n      0x00\n      dup1\n      revert\n    tag_157:\n      pop\n      tag_74\n      tag_159\n      calldatasize\n      0x04\n      tag_76\n      jump\t// in\n    tag_159:\n      tag_160\n      jump\t// in\n        /* \"contracts/vaults/PlexusVaultNative.sol\":5321:5466  function earn() public {... */\n    tag_28:\n      callvalue\n      dup1\n      iszero\n      tag_161\n      jumpi\n      0x00\n      dup1\n      revert\n    tag_161:\n      pop\n      tag_74\n      tag_163\n      jump\t// in\n        /* \"contracts/vaults/PlexusVaultNative.sol\":4586:5160  function depositNative() public payable nonReentrant {... */\n    tag_29:\n      tag_74\n      tag_165\n      jump\t// in\n        /* \"@openzeppelin/contracts-upgradeable/token/ERC20/ERC20Upgradeable.sol\":4345:4494  function allowance(address owner, address spender) public view virtual override returns (uint256) {... */\n    tag_30:\n      callvalue\n      dup1\n      iszero\n      tag_166\n      jumpi\n      0x00\n      dup1\n      revert\n    tag_166:\n      pop\n      tag_58\n      tag_168\n      calldatasize\n      0x04\n      tag_169\n      jump\t// in\n    tag_168:\n      tag_170\n      jump\t// in\n        /* \"contracts/vaults/PlexusVaultNative.sol\":3599:3684  function depositAll() external {... */\n    tag_31:\n      callvalue\n      dup1\n      iszero\n      tag_172\n      jumpi\n      0x00\n      dup1\n      revert\n    tag_172:\n      pop\n      tag_74\n      tag_174\n      jump\t// in\n        /* \"contracts/vaults/PlexusVaultNative.sol\":8807:9079  function inCaseTokensGetStuck(address _token) external onlyOwner {... */\n    tag_32:\n      callvalue\n      dup1\n      iszero\n      tag_175\n      jumpi\n      0x00\n      dup1\n      revert\n    tag_175:\n      pop\n      tag_74\n      tag_177\n      calldatasize\n      0x04\n      tag_103\n      jump\t// in\n    tag_177:\n      tag_178\n      jump\t// in\n        /* \"contracts/vaults/PlexusVaultNative.sol\":1238:1266  uint256 public approvalDelay */\n    tag_33:\n      callvalue\n      dup1\n      iszero\n      tag_179\n      jumpi\n      0x00\n      dup1\n      revert\n    tag_179:\n      pop\n      tag_58\n      sload(0xcc)\n      dup2\n      jump\n        /* \"contracts/vaults/PlexusVaultNative.sol\":8153:8664  function upgradeStrat() public onlyOwner {... */\n    tag_34:\n      callvalue\n      dup1\n      iszero\n      tag_183\n      jumpi\n      0x00\n      dup1\n      revert\n    tag_183:\n      pop\n      tag_74\n      tag_185\n      jump\t// in\n        /* \"@openzeppelin/contracts-upgradeable/access/OwnableUpgradeable.sol\":2335:2533  function transferOwnership(address newOwner) public virtual onlyOwner {... */\n    tag_35:\n      callvalue\n      dup1\n      iszero\n      tag_186\n      jumpi\n      0x00\n      dup1\n      revert\n    tag_186:\n      pop\n      tag_74\n      tag_188\n      calldatasize\n      0x04\n      tag_103\n      jump\t// in\n    tag_188:\n      tag_189\n      jump\t// in\n        /* \"@openzeppelin/contracts-upgradeable/token/ERC20/ERC20Upgradeable.sol\":2516:2614  function name() public view virtual override returns (string memory) {... */\n    tag_47:\n        /* \"@openzeppelin/contracts-upgradeable/token/ERC20/ERC20Upgradeable.sol\":2570:2583  string memory */\n      0x60\n        /* \"@openzeppelin/contracts-upgradeable/token/ERC20/ERC20Upgradeable.sol\":2602:2607  _name */\n      0x36\n        /* \"@openzeppelin/contracts-upgradeable/token/ERC20/ERC20Upgradeable.sol\":2595:2607  return _name */\n      dup1\n      sload\n      tag_191\n      swap1\n      tag_192\n      jump\t// in\n    tag_191:\n      dup1\n      0x1f\n      add\n      0x20\n      dup1\n      swap2\n      div\n      mul\n      0x20\n      add\n      mload(0x40)\n      swap1\n      dup2\n      add\n      0x40\n      mstore\n      dup1\n      swap3\n      swap2\n      swap1\n      dup2\n      dup2\n      mstore\n      0x20\n      add\n      dup3\n      dup1\n      sload\n      tag_193\n      swap1\n      tag_192\n      jump\t// in\n    tag_193:\n      dup1\n      iszero\n      tag_194\n      jumpi\n      dup1\n      0x1f\n      lt\n      tag_195\n      jumpi\n      0x0100\n      dup1\n      dup4\n      sload\n      div\n      mul\n      dup4\n      mstore\n      swap2\n      0x20\n      add\n      swap2\n      jump(tag_194)\n    tag_195:\n      dup3\n      add\n      swap2\n      swap1\n      0x00\n      mstore\n      keccak256(0x00, 0x20)\n      swap1\n    tag_196:\n      dup2\n      sload\n      dup2\n      mstore\n      swap1\n      0x01\n      add\n      swap1\n      0x20\n      add\n      dup1\n      dup4\n      gt\n      tag_196\n      jumpi\n      dup3\n      swap1\n      sub\n      0x1f\n      and\n      dup3\n      add\n      swap2\n    tag_194:\n      pop\n      pop\n      pop\n      pop\n      pop\n      swap1\n      pop\n        /* \"@openzeppelin/contracts-upgradeable/token/ERC20/ERC20Upgradeable.sol\":2516:2614  function name() public view virtual override returns (string memory) {... */\n      swap1\n      jump\t// out\n        /* \"@openzeppelin/contracts-upgradeable/token/ERC20/ERC20Upgradeable.sol\":4802:4999  function approve(address spender, uint256 amount) public virtual override returns (bool) {... */\n    tag_54:\n        /* \"@openzeppelin/contracts-upgradeable/token/ERC20/ERC20Upgradeable.sol\":4885:4889  bool */\n      0x00\n        /* \"@openzeppelin/contracts-upgradeable/utils/ContextUpgradeable.sol\":965:975  msg.sender */\n      caller\n        /* \"@openzeppelin/contracts-upgradeable/token/ERC20/ERC20Upgradeable.sol\":4939:4971  _approve(owner, spender, amount) */\n      tag_200\n        /* \"@openzeppelin/contracts-upgradeable/utils/ContextUpgradeable.sol\":965:975  msg.sender */\n      dup2\n        /* \"@openzeppelin/contracts-upgradeable/token/ERC20/ERC20Upgradeable.sol\":4955:4962  spender */\n      dup6\n        /* \"@openzeppelin/contracts-upgradeable/token/ERC20/ERC20Upgradeable.sol\":4964:4970  amount */\n      dup6\n        /* \"@openzeppelin/contracts-upgradeable/token/ERC20/ERC20Upgradeable.sol\":4939:4947  _approve */\n      tag_201\n        /* \"@openzeppelin/contracts-upgradeable/token/ERC20/ERC20Upgradeable.sol\":4939:4971  _approve(owner, spender, amount) */\n      jump\t// in\n    tag_200:\n      pop\n        /* \"@openzeppelin/contracts-upgradeable/token/ERC20/ERC20Upgradeable.sol\":4988:4992  true */\n      0x01\n      swap4\n        /* \"@openzeppelin/contracts-upgradeable/token/ERC20/ERC20Upgradeable.sol\":4802:4999  function approve(address spender, uint256 amount) public virtual override returns (bool) {... */\n      swap3\n      pop\n      pop\n      pop\n      jump\t// out\n        /* \"contracts/vaults/PlexusVaultNative.sol\":2228:2342  function want() public view returns (IERC20Upgradeable) {... */\n    tag_64:\n        /* \"contracts/vaults/PlexusVaultNative.sol\":2319:2327  strategy */\n      sload(0xcb)\n        /* \"contracts/vaults/PlexusVaultNative.sol\":2319:2334  strategy.want() */\n      0x40\n      dup1\n      mload\n      shl(0xe0, 0x1f1fcd51)\n      dup2\n      mstore\n      swap1\n      mload\n        /* \"contracts/vaults/PlexusVaultNative.sol\":2265:2282  IERC20Upgradeable */\n      0x00\n      swap3\n      sub(shl(0xa0, 0x01), 0x01)\n        /* \"contracts/vaults/PlexusVaultNative.sol\":2319:2327  strategy */\n      and\n      swap2\n        /* \"contracts/vaults/PlexusVaultNative.sol\":2319:2332  strategy.want */\n      0x1f1fcd51\n      swap2\n        /* \"contracts/vaults/PlexusVaultNative.sol\":2319:2334  strategy.want() */\n      0x04\n      dup1\n      dup4\n      add\n      swap3\n      0x20\n      swap3\n      swap2\n      swap1\n      dup3\n      swap1\n      sub\n      add\n      dup2\n        /* \"contracts/vaults/PlexusVaultNative.sol\":2319:2327  strategy */\n      dup7\n        /* \"contracts/vaults/PlexusVaultNative.sol\":2319:2334  strategy.want() */\n      dup1\n      extcodesize\n      iszero\n      dup1\n      iszero\n      tag_204\n      jumpi\n      0x00\n      dup1\n      revert\n    tag_204:\n      pop\n      gas\n      staticcall\n      iszero\n      dup1\n      iszero\n      tag_206\n      jumpi\n      returndatasize\n      0x00\n      dup1\n      returndatacopy\n      revert(0x00, returndatasize)\n    tag_206:\n      pop\n      pop\n      pop\n      pop\n      mload(0x40)\n      returndatasize\n      not(0x1f)\n      0x1f\n      dup3\n      add\n      and\n      dup3\n      add\n      dup1\n      0x40\n      mstore\n      pop\n      dup2\n      add\n      swap1\n      tag_207\n      swap2\n      swap1\n      tag_295\n      jump\t// in\n    tag_207:\n        /* \"contracts/vaults/PlexusVaultNative.sol\":2294:2335  return IERC20Upgradeable(strategy.want()) */\n      swap1\n      pop\n        /* \"contracts/vaults/PlexusVaultNative.sol\":2228:2342  function want() public view returns (IERC20Upgradeable) {... */\n      swap1\n      jump\t// out\n        /* \"@openzeppelin/contracts-upgradeable/token/ERC20/ERC20Upgradeable.sol\":5561:5817  function transferFrom(address from, address to, uint256 amount) public virtual override returns (bool) {... */\n    tag_71:\n        /* \"@openzeppelin/contracts-upgradeable/token/ERC20/ERC20Upgradeable.sol\":5658:5662  bool */\n      0x00\n        /* \"@openzeppelin/contracts-upgradeable/utils/ContextUpgradeable.sol\":965:975  msg.sender */\n      caller\n        /* \"@openzeppelin/contracts-upgradeable/token/ERC20/ERC20Upgradeable.sol\":5714:5752  _spendAllowance(from, spender, amount) */\n      tag_211\n        /* \"@openzeppelin/contracts-upgradeable/token/ERC20/ERC20Upgradeable.sol\":5730:5734  from */\n      dup6\n        /* \"@openzeppelin/contracts-upgradeable/utils/ContextUpgradeable.sol\":965:975  msg.sender */\n      dup3\n        /* \"@openzeppelin/contracts-upgradeable/token/ERC20/ERC20Upgradeable.sol\":5745:5751  amount */\n      dup6\n        /* \"@openzeppelin/contracts-upgradeable/token/ERC20/ERC20Upgradeable.sol\":5714:5729  _spendAllowance */\n      tag_212\n        /* \"@openzeppelin/contracts-upgradeable/token/ERC20/ERC20Upgradeable.sol\":5714:5752  _spendAllowance(from, spender, amount) */\n      jump\t// in\n    tag_211:\n        /* \"@openzeppelin/contracts-upgradeable/token/ERC20/ERC20Upgradeable.sol\":5762:5789  _transfer(from, to, amount) */\n      tag_213\n        /* \"@openzeppelin/contracts-upgradeable/token/ERC20/ERC20Upgradeable.sol\":5772:5776  from */\n      dup6\n        /* \"@openzeppelin/contracts-upgradeable/token/ERC20/ERC20Upgradeable.sol\":5778:5780  to */\n      dup6\n        /* \"@openzeppelin/contracts-upgradeable/token/ERC20/ERC20Upgradeable.sol\":5782:5788  amount */\n      dup6\n        /* \"@openzeppelin/contracts-upgradeable/token/ERC20/ERC20Upgradeable.sol\":5762:5771  _transfer */\n      tag_214\n        /* \"@openzeppelin/contracts-upgradeable/token/ERC20/ERC20Upgradeable.sol\":5762:5789  _transfer(from, to, amount) */\n      jump\t// in\n    tag_213:\n      pop\n        /* \"@openzeppelin/contracts-upgradeable/token/ERC20/ERC20Upgradeable.sol\":5806:5810  true */\n      0x01\n      swap5\n        /* \"@openzeppelin/contracts-upgradeable/token/ERC20/ERC20Upgradeable.sol\":5561:5817  function transferFrom(address from, address to, uint256 amount) public virtual override returns (bool) {... */\n      swap4\n      pop\n      pop\n      pop\n      pop\n      jump\t// out\n        /* \"contracts/vaults/PlexusVaultNative.sol\":6071:6598  function withdraw(uint256 _shares) public {... */\n    tag_77:\n        /* \"contracts/vaults/PlexusVaultNative.sol\":6123:6132  uint256 r */\n      0x00\n        /* \"contracts/vaults/PlexusVaultNative.sol\":6159:6172  totalSupply() */\n      tag_216\n        /* \"@openzeppelin/contracts-upgradeable/token/ERC20/ERC20Upgradeable.sol\":3700:3712  _totalSupply */\n      sload(0x35)\n      swap1\n        /* \"@openzeppelin/contracts-upgradeable/token/ERC20/ERC20Upgradeable.sol\":3613:3719  function totalSupply() public view virtual override returns (uint256) {... */\n      jump\n        /* \"contracts/vaults/PlexusVaultNative.sol\":6159:6172  totalSupply() */\n    tag_216:\n        /* \"contracts/vaults/PlexusVaultNative.sol\":6148:6155  _shares */\n      dup3\n        /* \"contracts/vaults/PlexusVaultNative.sol\":6136:6145  balance() */\n      tag_217\n        /* \"contracts/vaults/PlexusVaultNative.sol\":6136:6143  balance */\n      tag_155\n        /* \"contracts/vaults/PlexusVaultNative.sol\":6136:6145  balance() */\n      jump\t// in\n    tag_217:\n        /* \"contracts/vaults/PlexusVaultNative.sol\":6136:6155  balance() * _shares */\n      tag_218\n      swap2\n      swap1\n      tag_219\n      jump\t// in\n    tag_218:\n        /* \"contracts/vaults/PlexusVaultNative.sol\":6135:6172  (balance() * _shares) / totalSupply() */\n      tag_220\n      swap2\n      swap1\n      tag_221\n      jump\t// in\n    tag_220:\n        /* \"contracts/vaults/PlexusVaultNative.sol\":6123:6172  uint256 r = (balance() * _shares) / totalSupply() */\n      swap1\n      pop\n        /* \"contracts/vaults/PlexusVaultNative.sol\":6182:6208  _burn(msg.sender, _shares) */\n      tag_222\n        /* \"contracts/vaults/PlexusVaultNative.sol\":6188:6198  msg.sender */\n      caller\n        /* \"contracts/vaults/PlexusVaultNative.sol\":6200:6207  _shares */\n      dup4\n        /* \"contracts/vaults/PlexusVaultNative.sol\":6182:6187  _burn */\n      tag_223\n        /* \"contracts/vaults/PlexusVaultNative.sol\":6182:6208  _burn(msg.sender, _shares) */\n      jump\t// in\n    tag_222:\n        /* \"contracts/vaults/PlexusVaultNative.sol\":6219:6225  uint b */\n      0x00\n        /* \"contracts/vaults/PlexusVaultNative.sol\":6228:6234  want() */\n      tag_224\n        /* \"contracts/vaults/PlexusVaultNative.sol\":6228:6232  want */\n      tag_64\n        /* \"contracts/vaults/PlexusVaultNative.sol\":6228:6234  want() */\n      jump\t// in\n    tag_224:\n        /* \"contracts/vaults/PlexusVaultNative.sol\":6228:6259  want().balanceOf(address(this)) */\n      mload(0x40)\n      shl(0xe0, 0x70a08231)\n      dup2\n      mstore\n        /* \"contracts/vaults/PlexusVaultNative.sol\":6253:6257  this */\n      address\n        /* \"contracts/vaults/PlexusVaultNative.sol\":6228:6259  want().balanceOf(address(this)) */\n      0x04\n      dup3\n      add\n        /* \"#utility.yul\":4703:4754   */\n      mstore\n      sub(shl(0xa0, 0x01), 0x01)\n        /* \"contracts/vaults/PlexusVaultNative.sol\":6228:6244  want().balanceOf */\n      swap2\n      swap1\n      swap2\n      and\n      swap1\n      0x70a08231\n      swap1\n        /* \"#utility.yul\":4676:4694   */\n      0x24\n      add\n        /* \"contracts/vaults/PlexusVaultNative.sol\":6228:6259  want().balanceOf(address(this)) */\n      0x20\n      mload(0x40)\n      dup1\n      dup4\n      sub\n      dup2\n      dup7\n      dup1\n      extcodesize\n      iszero\n      dup1\n      iszero\n      tag_226\n      jumpi\n      0x00\n      dup1\n      revert\n    tag_226:\n      pop\n      gas\n      staticcall\n      iszero\n      dup1\n      iszero\n      tag_228\n      jumpi\n      returndatasize\n      0x00\n      dup1\n      returndatacopy\n      revert(0x00, returndatasize)\n    tag_228:\n      pop\n      pop\n      pop\n      pop\n      mload(0x40)\n      returndatasize\n      not(0x1f)\n      0x1f\n      dup3\n      add\n      and\n      dup3\n      add\n      dup1\n      0x40\n      mstore\n      pop\n      dup2\n      add\n      swap1\n      tag_229\n      swap2\n      swap1\n      tag_230\n      jump\t// in\n    tag_229:\n        /* \"contracts/vaults/PlexusVaultNative.sol\":6219:6259  uint b = want().balanceOf(address(this)) */\n      swap1\n      pop\n        /* \"contracts/vaults/PlexusVaultNative.sol\":6277:6278  r */\n      dup2\n        /* \"contracts/vaults/PlexusVaultNative.sol\":6273:6274  b */\n      dup2\n        /* \"contracts/vaults/PlexusVaultNative.sol\":6273:6278  b < r */\n      lt\n        /* \"contracts/vaults/PlexusVaultNative.sol\":6269:6547  if (b < r) {... */\n      iszero\n      tag_231\n      jumpi\n        /* \"contracts/vaults/PlexusVaultNative.sol\":6294:6308  uint _withdraw */\n      0x00\n        /* \"contracts/vaults/PlexusVaultNative.sol\":6311:6316  r - b */\n      tag_232\n        /* \"contracts/vaults/PlexusVaultNative.sol\":6315:6316  b */\n      dup3\n        /* \"contracts/vaults/PlexusVaultNative.sol\":6311:6312  r */\n      dup5\n        /* \"contracts/vaults/PlexusVaultNative.sol\":6311:6316  r - b */\n      tag_233\n      jump\t// in\n    tag_232:\n        /* \"contracts/vaults/PlexusVaultNative.sol\":6330:6338  strategy */\n      sload(0xcb)\n        /* \"contracts/vaults/PlexusVaultNative.sol\":6330:6358  strategy.withdraw(_withdraw) */\n      mload(0x40)\n      shl(0xe0, 0x2e1a7d4d)\n      dup2\n      mstore\n      0x04\n      dup2\n      add\n        /* \"#utility.yul\":15672:15697   */\n      dup4\n      swap1\n      mstore\n        /* \"contracts/vaults/PlexusVaultNative.sol\":6294:6316  uint _withdraw = r - b */\n      swap2\n      swap3\n      pop\n      sub(shl(0xa0, 0x01), 0x01)\n        /* \"contracts/vaults/PlexusVaultNative.sol\":6330:6338  strategy */\n      and\n      swap1\n        /* \"contracts/vaults/PlexusVaultNative.sol\":6330:6347  strategy.withdraw */\n      0x2e1a7d4d\n      swap1\n        /* \"#utility.yul\":15645:15663   */\n      0x24\n      add\n        /* \"contracts/vaults/PlexusVaultNative.sol\":6330:6358  strategy.withdraw(_withdraw) */\n      0x00\n      mload(0x40)\n      dup1\n      dup4\n      sub\n      dup2\n      0x00\n      dup8\n      dup1\n      extcodesize\n      iszero\n      dup1\n      iszero\n      tag_235\n      jumpi\n      0x00\n      dup1\n      revert\n    tag_235:\n      pop\n      gas\n      call\n      iszero\n      dup1\n      iszero\n      tag_237\n      jumpi\n      returndatasize\n      0x00\n      dup1\n      returndatacopy\n      revert(0x00, returndatasize)\n    tag_237:\n      pop\n      pop\n      pop\n      pop\n        /* \"contracts/vaults/PlexusVaultNative.sol\":6372:6383  uint _after */\n      0x00\n        /* \"contracts/vaults/PlexusVaultNative.sol\":6386:6392  want() */\n      tag_238\n        /* \"contracts/vaults/PlexusVaultNative.sol\":6386:6390  want */\n      tag_64\n        /* \"contracts/vaults/PlexusVaultNative.sol\":6386:6392  want() */\n      jump\t// in\n    tag_238:\n        /* \"contracts/vaults/PlexusVaultNative.sol\":6386:6417  want().balanceOf(address(this)) */\n      mload(0x40)\n      shl(0xe0, 0x70a08231)\n      dup2\n      mstore\n        /* \"contracts/vaults/PlexusVaultNative.sol\":6411:6415  this */\n      address\n        /* \"contracts/vaults/PlexusVaultNative.sol\":6386:6417  want().balanceOf(address(this)) */\n      0x04\n      dup3\n      add\n        /* \"#utility.yul\":4703:4754   */\n      mstore\n      sub(shl(0xa0, 0x01), 0x01)\n        /* \"contracts/vaults/PlexusVaultNative.sol\":6386:6402  want().balanceOf */\n      swap2\n      swap1\n      swap2\n      and\n      swap1\n      0x70a08231\n      swap1\n        /* \"#utility.yul\":4676:4694   */\n      0x24\n      add\n        /* \"contracts/vaults/PlexusVaultNative.sol\":6386:6417  want().balanceOf(address(this)) */\n      0x20\n      mload(0x40)\n      dup1\n      dup4\n      sub\n      dup2\n      dup7\n      dup1\n      extcodesize\n      iszero\n      dup1\n      iszero\n      tag_240\n      jumpi\n      0x00\n      dup1\n      revert\n    tag_240:\n      pop\n      gas\n      staticcall\n      iszero\n      dup1\n      iszero\n      tag_242\n      jumpi\n      returndatasize\n      0x00\n      dup1\n      returndatacopy\n      revert(0x00, returndatasize)\n    tag_242:\n      pop\n      pop\n      pop\n      pop\n      mload(0x40)\n      returndatasize\n      not(0x1f)\n      0x1f\n      dup3\n      add\n      and\n      dup3\n      add\n      dup1\n      0x40\n      mstore\n      pop\n      dup2\n      add\n      swap1\n      tag_243\n      swap2\n      swap1\n      tag_230\n      jump\t// in\n    tag_243:\n        /* \"contracts/vaults/PlexusVaultNative.sol\":6372:6417  uint _after = want().balanceOf(address(this)) */\n      swap1\n      pop\n        /* \"contracts/vaults/PlexusVaultNative.sol\":6431:6441  uint _diff */\n      0x00\n        /* \"contracts/vaults/PlexusVaultNative.sol\":6444:6454  _after - b */\n      tag_244\n        /* \"contracts/vaults/PlexusVaultNative.sol\":6453:6454  b */\n      dup5\n        /* \"contracts/vaults/PlexusVaultNative.sol\":6372:6417  uint _after = want().balanceOf(address(this)) */\n      dup4\n        /* \"contracts/vaults/PlexusVaultNative.sol\":6444:6454  _after - b */\n      tag_233\n      jump\t// in\n    tag_244:\n        /* \"contracts/vaults/PlexusVaultNative.sol\":6431:6454  uint _diff = _after - b */\n      swap1\n      pop\n        /* \"contracts/vaults/PlexusVaultNative.sol\":6480:6489  _withdraw */\n      dup3\n        /* \"contracts/vaults/PlexusVaultNative.sol\":6472:6477  _diff */\n      dup2\n        /* \"contracts/vaults/PlexusVaultNative.sol\":6472:6489  _diff < _withdraw */\n      lt\n        /* \"contracts/vaults/PlexusVaultNative.sol\":6468:6537  if (_diff < _withdraw) {... */\n      iszero\n      tag_245\n      jumpi\n        /* \"contracts/vaults/PlexusVaultNative.sol\":6513:6522  b + _diff */\n      tag_246\n        /* \"contracts/vaults/PlexusVaultNative.sol\":6517:6522  _diff */\n      dup2\n        /* \"contracts/vaults/PlexusVaultNative.sol\":6513:6514  b */\n      dup6\n        /* \"contracts/vaults/PlexusVaultNative.sol\":6513:6522  b + _diff */\n      tag_247\n      jump\t// in\n    tag_246:\n        /* \"contracts/vaults/PlexusVaultNative.sol\":6509:6522  r = b + _diff */\n      swap5\n      pop\n        /* \"contracts/vaults/PlexusVaultNative.sol\":6468:6537  if (_diff < _withdraw) {... */\n    tag_245:\n        /* \"contracts/vaults/PlexusVaultNative.sol\":6269:6547  if (b < r) {... */\n      pop\n      pop\n      pop\n    tag_231:\n        /* \"contracts/vaults/PlexusVaultNative.sol\":6557:6591  want().safeTransfer(msg.sender, r) */\n      tag_248\n        /* \"contracts/vaults/PlexusVaultNative.sol\":6577:6587  msg.sender */\n      caller\n        /* \"contracts/vaults/PlexusVaultNative.sol\":6589:6590  r */\n      dup4\n        /* \"contracts/vaults/PlexusVaultNative.sol\":6557:6563  want() */\n      tag_249\n        /* \"contracts/vaults/PlexusVaultNative.sol\":6557:6561  want */\n      tag_64\n        /* \"contracts/vaults/PlexusVaultNative.sol\":6557:6563  want() */\n      jump\t// in\n    tag_249:\n      sub(shl(0xa0, 0x01), 0x01)\n        /* \"contracts/vaults/PlexusVaultNative.sol\":6557:6576  want().safeTransfer */\n      and\n      swap2\n        /* \"contracts/vaults/PlexusVaultNative.sol\":6557:6591  want().safeTransfer(msg.sender, r) */\n      swap1\n        /* \"contracts/vaults/PlexusVaultNative.sol\":6557:6576  want().safeTransfer */\n      tag_250\n        /* \"contracts/vaults/PlexusVaultNative.sol\":6557:6591  want().safeTransfer(msg.sender, r) */\n      jump\t// in\n    tag_248:\n        /* \"contracts/vaults/PlexusVaultNative.sol\":6071:6598  function withdraw(uint256 _shares) public {... */\n      pop\n      pop\n      pop\n      jump\t// out\n        /* \"@openzeppelin/contracts-upgradeable/token/ERC20/ERC20Upgradeable.sol\":6212:6446  function increaseAllowance(address spender, uint256 addedValue) public virtual returns (bool) {... */\n    tag_86:\n        /* \"@openzeppelin/contracts-upgradeable/token/ERC20/ERC20Upgradeable.sol\":6300:6304  bool */\n      0x00\n        /* \"@openzeppelin/contracts-upgradeable/utils/ContextUpgradeable.sol\":965:975  msg.sender */\n      caller\n        /* \"@openzeppelin/contracts-upgradeable/token/ERC20/ERC20Upgradeable.sol\":6354:6418  _approve(owner, spender, allowance(owner, spender) + addedValue) */\n      tag_200\n        /* \"@openzeppelin/contracts-upgradeable/utils/ContextUpgradeable.sol\":965:975  msg.sender */\n      dup2\n        /* \"@openzeppelin/contracts-upgradeable/token/ERC20/ERC20Upgradeable.sol\":6370:6377  spender */\n      dup6\n        /* \"@openzeppelin/contracts-upgradeable/token/ERC20/ERC20Upgradeable.sol\":6407:6417  addedValue */\n      dup6\n        /* \"@openzeppelin/contracts-upgradeable/token/ERC20/ERC20Upgradeable.sol\":6379:6404  allowance(owner, spender) */\n      tag_255\n        /* \"@openzeppelin/contracts-upgradeable/utils/ContextUpgradeable.sol\":965:975  msg.sender */\n      dup4\n        /* \"@openzeppelin/contracts-upgradeable/token/ERC20/ERC20Upgradeable.sol\":6370:6377  spender */\n      dup4\n        /* \"@openzeppelin/contracts-upgradeable/token/ERC20/ERC20Upgradeable.sol\":6379:6388  allowance */\n      tag_170\n        /* \"@openzeppelin/contracts-upgradeable/token/ERC20/ERC20Upgradeable.sol\":6379:6404  allowance(owner, spender) */\n      jump\t// in\n    tag_255:\n        /* \"@openzeppelin/contracts-upgradeable/token/ERC20/ERC20Upgradeable.sol\":6379:6417  allowance(owner, spender) + addedValue */\n      tag_256\n      swap2\n      swap1\n      tag_247\n      jump\t// in\n    tag_256:\n        /* \"@openzeppelin/contracts-upgradeable/token/ERC20/ERC20Upgradeable.sol\":6354:6362  _approve */\n      tag_201\n        /* \"@openzeppelin/contracts-upgradeable/token/ERC20/ERC20Upgradeable.sol\":6354:6418  _approve(owner, spender, allowance(owner, spender) + addedValue) */\n      jump\t// in\n        /* \"contracts/vaults/PlexusVaultNative.sol\":5748:5840  function withdrawAllNative() external {... */\n    tag_90:\n        /* \"contracts/vaults/PlexusVaultNative.sol\":5821:5831  msg.sender */\n      caller\n        /* \"@openzeppelin/contracts-upgradeable/token/ERC20/ERC20Upgradeable.sol\":3851:3858  uint256 */\n      0x00\n        /* \"@openzeppelin/contracts-upgradeable/token/ERC20/ERC20Upgradeable.sol\":3877:3895  _balances[account] */\n      swap1\n      dup2\n      mstore\n        /* \"@openzeppelin/contracts-upgradeable/token/ERC20/ERC20Upgradeable.sol\":3877:3886  _balances */\n      0x33\n        /* \"@openzeppelin/contracts-upgradeable/token/ERC20/ERC20Upgradeable.sol\":3877:3895  _balances[account] */\n      0x20\n      mstore\n      0x40\n      swap1\n      keccak256\n      sload\n        /* \"contracts/vaults/PlexusVaultNative.sol\":5796:5833  withdrawNative(balanceOf(msg.sender)) */\n      tag_258\n      swap1\n        /* \"contracts/vaults/PlexusVaultNative.sol\":6751:7334  function withdrawNative(uint256 _shares) public {... */\n      tag_125\n      jump\t// in\n        /* \"contracts/vaults/PlexusVaultNative.sol\":5796:5833  withdrawNative(balanceOf(msg.sender)) */\n    tag_258:\n        /* \"contracts/vaults/PlexusVaultNative.sol\":5748:5840  function withdrawAllNative() external {... */\n      jump\t// out\n        /* \"contracts/vaults/PlexusVaultNative.sol\":3030:3136  function available() public view returns (uint256) {... */\n    tag_93:\n        /* \"contracts/vaults/PlexusVaultNative.sol\":3072:3079  uint256 */\n      0x00\n        /* \"contracts/vaults/PlexusVaultNative.sol\":3098:3104  want() */\n      tag_261\n        /* \"contracts/vaults/PlexusVaultNative.sol\":3098:3102  want */\n      tag_64\n        /* \"contracts/vaults/PlexusVaultNative.sol\":3098:3104  want() */\n      jump\t// in\n    tag_261:\n        /* \"contracts/vaults/PlexusVaultNative.sol\":3098:3129  want().balanceOf(address(this)) */\n      mload(0x40)\n      shl(0xe0, 0x70a08231)\n      dup2\n      mstore\n        /* \"contracts/vaults/PlexusVaultNative.sol\":3123:3127  this */\n      address\n        /* \"contracts/vaults/PlexusVaultNative.sol\":3098:3129  want().balanceOf(address(this)) */\n      0x04\n      dup3\n      add\n        /* \"#utility.yul\":4703:4754   */\n      mstore\n      sub(shl(0xa0, 0x01), 0x01)\n        /* \"contracts/vaults/PlexusVaultNative.sol\":3098:3114  want().balanceOf */\n      swap2\n      swap1\n      swap2\n      and\n      swap1\n      0x70a08231\n      swap1\n        /* \"#utility.yul\":4676:4694   */\n      0x24\n      add\n        /* \"contracts/vaults/PlexusVaultNative.sol\":3098:3129  want().balanceOf(address(this)) */\n      0x20\n      mload(0x40)\n      dup1\n      dup4\n      sub\n      dup2\n      dup7\n      dup1\n      extcodesize\n      iszero\n      dup1\n      iszero\n      tag_263\n      jumpi\n      0x00\n      dup1\n      revert\n    tag_263:\n      pop\n      gas\n      staticcall\n      iszero\n      dup1\n      iszero\n      tag_265\n      jumpi\n      returndatasize\n      0x00\n      dup1\n      returndatacopy\n      revert(0x00, returndatasize)\n    tag_265:\n      pop\n      pop\n      pop\n      pop\n      mload(0x40)\n      returndatasize\n      not(0x1f)\n      0x1f\n      dup3\n      add\n      and\n      dup3\n      add\n      dup1\n      0x40\n      mstore\n      pop\n      dup2\n      add\n      swap1\n      tag_207\n      swap2\n      swap1\n      tag_230\n      jump\t// in\n        /* \"contracts/vaults/PlexusVaultNative.sol\":1919:2222  function initialize(IStrategy _strategy, string memory _name, string memory _symbol, uint256 _approvalDelay) public initializer {... */\n    tag_99:\n        /* \"@openzeppelin/contracts-upgradeable/proxy/utils/Initializable.sol\":3279:3298  bool isTopLevelCall */\n      0x00\n        /* \"@openzeppelin/contracts-upgradeable/proxy/utils/Initializable.sol\":3302:3315  _initializing */\n      sload\n      0x0100\n      swap1\n      div\n      0xff\n      and\n        /* \"@openzeppelin/contracts-upgradeable/proxy/utils/Initializable.sol\":3301:3315  !_initializing */\n      iszero\n      dup1\n        /* \"@openzeppelin/contracts-upgradeable/proxy/utils/Initializable.sol\":3347:3381  isTopLevelCall && _initialized < 1 */\n      dup1\n      iszero\n      tag_268\n      jumpi\n      pop\n        /* \"@openzeppelin/contracts-upgradeable/proxy/utils/Initializable.sol\":3365:3377  _initialized */\n      sload(0x00)\n        /* \"@openzeppelin/contracts-upgradeable/proxy/utils/Initializable.sol\":3380:3381  1 */\n      0x01\n        /* \"@openzeppelin/contracts-upgradeable/proxy/utils/Initializable.sol\":3365:3377  _initialized */\n      0xff\n      swap1\n      swap2\n      and\n        /* \"@openzeppelin/contracts-upgradeable/proxy/utils/Initializable.sol\":3365:3381  _initialized < 1 */\n      lt\n        /* \"@openzeppelin/contracts-upgradeable/proxy/utils/Initializable.sol\":3347:3381  isTopLevelCall && _initialized < 1 */\n    tag_268:\n        /* \"@openzeppelin/contracts-upgradeable/proxy/utils/Initializable.sol\":3346:3454  (isTopLevelCall && _initialized < 1) || (!AddressUpgradeable.isContract(address(this)) && _initialized == 1) */\n      dup1\n      tag_272\n      jumpi\n      pop\n        /* \"@openzeppelin/contracts-upgradeable/proxy/utils/Initializable.sol\":3426:3430  this */\n      address\n        /* \"@openzeppelin/contracts-upgradeable/utils/AddressUpgradeable.sol\":1713:1732  account.code.length */\n      extcodesize\n        /* \"@openzeppelin/contracts-upgradeable/utils/AddressUpgradeable.sol\":1713:1736  account.code.length > 0 */\n      iszero\n      dup1\n      iszero\n        /* \"@openzeppelin/contracts-upgradeable/proxy/utils/Initializable.sol\":3387:3453  !AddressUpgradeable.isContract(address(this)) && _initialized == 1 */\n      tag_272\n      jumpi\n      pop\n        /* \"@openzeppelin/contracts-upgradeable/proxy/utils/Initializable.sol\":3436:3448  _initialized */\n      and(0xff, sload(0x00))\n      0x01\n        /* \"@openzeppelin/contracts-upgradeable/proxy/utils/Initializable.sol\":3436:3453  _initialized == 1 */\n      eq\n        /* \"@openzeppelin/contracts-upgradeable/proxy/utils/Initializable.sol\":3387:3453  !AddressUpgradeable.isContract(address(this)) && _initialized == 1 */\n    tag_272:\n        /* \"@openzeppelin/contracts-upgradeable/proxy/utils/Initializable.sol\":3325:3526  require(... */\n      tag_273\n      jumpi\n      mload(0x40)\n      shl(0xe5, 0x461bcd)\n      dup2\n      mstore\n        /* \"#utility.yul\":10739:10741   */\n      0x20\n        /* \"@openzeppelin/contracts-upgradeable/proxy/utils/Initializable.sol\":3325:3526  require(... */\n      0x04\n      dup3\n      add\n        /* \"#utility.yul\":10721:10742   */\n      mstore\n        /* \"#utility.yul\":10778:10780   */\n      0x2e\n        /* \"#utility.yul\":10758:10776   */\n      0x24\n      dup3\n      add\n        /* \"#utility.yul\":10751:10781   */\n      mstore\n        /* \"#utility.yul\":10817:10851   */\n      0x496e697469616c697a61626c653a20636f6e747261637420697320616c726561\n        /* \"#utility.yul\":10797:10815   */\n      0x44\n      dup3\n      add\n        /* \"#utility.yul\":10790:10852   */\n      mstore\n      shl(0x92, 0x191e481a5b9a5d1a585b1a5e9959)\n        /* \"#utility.yul\":10868:10886   */\n      0x64\n      dup3\n      add\n        /* \"#utility.yul\":10861:10905   */\n      mstore\n        /* \"#utility.yul\":10922:10941   */\n      0x84\n      add\n        /* \"@openzeppelin/contracts-upgradeable/proxy/utils/Initializable.sol\":3325:3526  require(... */\n    tag_274:\n      mload(0x40)\n      dup1\n      swap2\n      sub\n      swap1\n      revert\n    tag_273:\n        /* \"@openzeppelin/contracts-upgradeable/proxy/utils/Initializable.sol\":3536:3548  _initialized */\n      0x00\n        /* \"@openzeppelin/contracts-upgradeable/proxy/utils/Initializable.sol\":3536:3552  _initialized = 1 */\n      dup1\n      sload\n      not(0xff)\n      and\n        /* \"@openzeppelin/contracts-upgradeable/proxy/utils/Initializable.sol\":3551:3552  1 */\n      0x01\n        /* \"@openzeppelin/contracts-upgradeable/proxy/utils/Initializable.sol\":3536:3552  _initialized = 1 */\n      or\n      swap1\n      sstore\n        /* \"@openzeppelin/contracts-upgradeable/proxy/utils/Initializable.sol\":3562:3627  if (isTopLevelCall) {... */\n      dup1\n      iszero\n      tag_276\n      jumpi\n        /* \"@openzeppelin/contracts-upgradeable/proxy/utils/Initializable.sol\":3596:3609  _initializing */\n      0x00\n        /* \"@openzeppelin/contracts-upgradeable/proxy/utils/Initializable.sol\":3596:3616  _initializing = true */\n      dup1\n      sload\n      not(0xff00)\n      and\n      0x0100\n      or\n      swap1\n      sstore\n        /* \"@openzeppelin/contracts-upgradeable/proxy/utils/Initializable.sol\":3562:3627  if (isTopLevelCall) {... */\n    tag_276:\n        /* \"contracts/vaults/PlexusVaultNative.sol\":2057:2085  __ERC20_init(_name, _symbol) */\n      tag_278\n        /* \"contracts/vaults/PlexusVaultNative.sol\":2070:2075  _name */\n      dup5\n        /* \"contracts/vaults/PlexusVaultNative.sol\":2077:2084  _symbol */\n      dup5\n        /* \"contracts/vaults/PlexusVaultNative.sol\":2057:2069  __ERC20_init */\n      tag_279\n        /* \"contracts/vaults/PlexusVaultNative.sol\":2057:2085  __ERC20_init(_name, _symbol) */\n      jump\t// in\n    tag_278:\n        /* \"contracts/vaults/PlexusVaultNative.sol\":2095:2111  __Ownable_init() */\n      tag_280\n        /* \"contracts/vaults/PlexusVaultNative.sol\":2095:2109  __Ownable_init */\n      tag_281\n        /* \"contracts/vaults/PlexusVaultNative.sol\":2095:2111  __Ownable_init() */\n      jump\t// in\n    tag_280:\n        /* \"contracts/vaults/PlexusVaultNative.sol\":2121:2145  __ReentrancyGuard_init() */\n      tag_282\n        /* \"contracts/vaults/PlexusVaultNative.sol\":2121:2143  __ReentrancyGuard_init */\n      tag_283\n        /* \"contracts/vaults/PlexusVaultNative.sol\":2121:2145  __ReentrancyGuard_init() */\n      jump\t// in\n    tag_282:\n        /* \"contracts/vaults/PlexusVaultNative.sol\":2155:2163  strategy */\n      0xcb\n        /* \"contracts/vaults/PlexusVaultNative.sol\":2155:2175  strategy = _strategy */\n      dup1\n      sload\n      not(sub(shl(0xa0, 0x01), 0x01))\n      and\n      sub(shl(0xa0, 0x01), 0x01)\n      dup8\n      and\n      or\n      swap1\n      sstore\n        /* \"contracts/vaults/PlexusVaultNative.sol\":2185:2198  approvalDelay */\n      0xcc\n        /* \"contracts/vaults/PlexusVaultNative.sol\":2185:2215  approvalDelay = _approvalDelay */\n      dup3\n      swap1\n      sstore\n        /* \"@openzeppelin/contracts-upgradeable/proxy/utils/Initializable.sol\":3647:3746  if (isTopLevelCall) {... */\n      dup1\n      iszero\n      tag_284\n      jumpi\n        /* \"@openzeppelin/contracts-upgradeable/proxy/utils/Initializable.sol\":3697:3702  false */\n      0x00\n        /* \"@openzeppelin/contracts-upgradeable/proxy/utils/Initializable.sol\":3681:3702  _initializing = false */\n      dup1\n      sload\n      not(0xff00)\n      and\n      swap1\n      sstore\n        /* \"@openzeppelin/contracts-upgradeable/proxy/utils/Initializable.sol\":3721:3735  Initialized(1) */\n      mload(0x40)\n      0x01\n        /* \"#utility.yul\":6228:6264   */\n      dup2\n      mstore\n        /* \"@openzeppelin/contracts-upgradeable/proxy/utils/Initializable.sol\":3721:3735  Initialized(1) */\n      0x7f26b83ff96e1f2b6a682f133852f6798a09c465da95921460cefb3847402498\n      swap1\n        /* \"#utility.yul\":6216:6218   */\n      0x20\n        /* \"#utility.yul\":6201:6219   */\n      add\n        /* \"@openzeppelin/contracts-upgradeable/proxy/utils/Initializable.sol\":3721:3735  Initialized(1) */\n      mload(0x40)\n      dup1\n      swap2\n      sub\n      swap1\n      log1\n        /* \"@openzeppelin/contracts-upgradeable/proxy/utils/Initializable.sol\":3647:3746  if (isTopLevelCall) {... */\n    tag_284:\n        /* \"contracts/vaults/PlexusVaultNative.sol\":1919:2222  function initialize(IStrategy _strategy, string memory _name, string memory _symbol, uint256 _approvalDelay) public initializer {... */\n      pop\n      pop\n      pop\n      pop\n      pop\n      jump\t// out\n        /* \"contracts/vaults/PlexusVaultNative.sol\":7498:7913  function proposeStrat(address _implementation) public onlyOwner {... */\n    tag_104:\n        /* \"@openzeppelin/contracts-upgradeable/access/OwnableUpgradeable.sol\":1355:1368  _checkOwner() */\n      tag_288\n        /* \"@openzeppelin/contracts-upgradeable/access/OwnableUpgradeable.sol\":1355:1366  _checkOwner */\n      tag_289\n        /* \"@openzeppelin/contracts-upgradeable/access/OwnableUpgradeable.sol\":1355:1368  _checkOwner() */\n      jump\t// in\n    tag_288:\n        /* \"contracts/vaults/PlexusVaultNative.sol\":7607:7622  _implementation */\n      dup1\n      sub(shl(0xa0, 0x01), 0x01)\n        /* \"contracts/vaults/PlexusVaultNative.sol\":7597:7629  IStrategy(_implementation).vault */\n      and\n      0xfbfa77cf\n        /* \"contracts/vaults/PlexusVaultNative.sol\":7597:7631  IStrategy(_implementation).vault() */\n      mload(0x40)\n      dup2\n      0xffffffff\n      and\n      0xe0\n      shl\n      dup2\n      mstore\n      0x04\n      add\n      0x20\n      mload(0x40)\n      dup1\n      dup4\n      sub\n      dup2\n      dup7\n      dup1\n      extcodesize\n      iszero\n      dup1\n      iszero\n      tag_291\n      jumpi\n      0x00\n      dup1\n      revert\n    tag_291:\n      pop\n      gas\n      staticcall\n      iszero\n      dup1\n      iszero\n      tag_293\n      jumpi\n      returndatasize\n      0x00\n      dup1\n      returndatacopy\n      revert(0x00, returndatasize)\n    tag_293:\n      pop\n      pop\n      pop\n      pop\n      mload(0x40)\n      returndatasize\n      not(0x1f)\n      0x1f\n      dup3\n      add\n      and\n      dup3\n      add\n      dup1\n      0x40\n      mstore\n      pop\n      dup2\n      add\n      swap1\n      tag_294\n      swap2\n      swap1\n      tag_295\n      jump\t// in\n    tag_294:\n      sub(shl(0xa0, 0x01), 0x01)\n        /* \"contracts/vaults/PlexusVaultNative.sol\":7580:7631  address(this) == IStrategy(_implementation).vault() */\n      and\n        /* \"contracts/vaults/PlexusVaultNative.sol\":7588:7592  this */\n      address\n      sub(shl(0xa0, 0x01), 0x01)\n        /* \"contracts/vaults/PlexusVaultNative.sol\":7580:7631  address(this) == IStrategy(_implementation).vault() */\n      and\n      eq\n        /* \"contracts/vaults/PlexusVaultNative.sol\":7572:7669  require(address(this) == IStrategy(_implementation).vault(), \"Proposal not valid for this Vault\") */\n      tag_296\n      jumpi\n      mload(0x40)\n      shl(0xe5, 0x461bcd)\n      dup2\n      mstore\n        /* \"#utility.yul\":10337:10339   */\n      0x20\n        /* \"contracts/vaults/PlexusVaultNative.sol\":7572:7669  require(address(this) == IStrategy(_implementation).vault(), \"Proposal not valid for this Vault\") */\n      0x04\n      dup3\n      add\n        /* \"#utility.yul\":10319:10340   */\n      mstore\n        /* \"#utility.yul\":10376:10378   */\n      0x21\n        /* \"#utility.yul\":10356:10374   */\n      0x24\n      dup3\n      add\n        /* \"#utility.yul\":10349:10379   */\n      mstore\n        /* \"#utility.yul\":10415:10449   */\n      0x50726f706f73616c206e6f742076616c696420666f722074686973205661756c\n        /* \"#utility.yul\":10395:10413   */\n      0x44\n      dup3\n      add\n        /* \"#utility.yul\":10388:10450   */\n      mstore\n      shl(0xfa, 0x1d)\n        /* \"#utility.yul\":10466:10484   */\n      0x64\n      dup3\n      add\n        /* \"#utility.yul\":10459:10490   */\n      mstore\n        /* \"#utility.yul\":10507:10526   */\n      0x84\n      add\n        /* \"contracts/vaults/PlexusVaultNative.sol\":7572:7669  require(address(this) == IStrategy(_implementation).vault(), \"Proposal not valid for this Vault\") */\n      tag_274\n        /* \"#utility.yul\":10309:10532   */\n      jump\n        /* \"contracts/vaults/PlexusVaultNative.sol\":7572:7669  require(address(this) == IStrategy(_implementation).vault(), \"Proposal not valid for this Vault\") */\n    tag_296:\n        /* \"contracts/vaults/PlexusVaultNative.sol\":7707:7722  _implementation */\n      dup1\n      sub(shl(0xa0, 0x01), 0x01)\n        /* \"contracts/vaults/PlexusVaultNative.sol\":7697:7728  IStrategy(_implementation).want */\n      and\n      0x1f1fcd51\n        /* \"contracts/vaults/PlexusVaultNative.sol\":7697:7730  IStrategy(_implementation).want() */\n      mload(0x40)\n      dup2\n      0xffffffff\n      and\n      0xe0\n      shl\n      dup2\n      mstore\n      0x04\n      add\n      0x20\n      mload(0x40)\n      dup1\n      dup4\n      sub\n      dup2\n      dup7\n      dup1\n      extcodesize\n      iszero\n      dup1\n      iszero\n      tag_299\n      jumpi\n      0x00\n      dup1\n      revert\n    tag_299:\n      pop\n      gas\n      staticcall\n      iszero\n      dup1\n      iszero\n      tag_301\n      jumpi\n      returndatasize\n      0x00\n      dup1\n      returndatacopy\n      revert(0x00, returndatasize)\n    tag_301:\n      pop\n      pop\n      pop\n      pop\n      mload(0x40)\n      returndatasize\n      not(0x1f)\n      0x1f\n      dup3\n      add\n      and\n      dup3\n      add\n      dup1\n      0x40\n      mstore\n      pop\n      dup2\n      add\n      swap1\n      tag_302\n      swap2\n      swap1\n      tag_295\n      jump\t// in\n    tag_302:\n      sub(shl(0xa0, 0x01), 0x01)\n        /* \"contracts/vaults/PlexusVaultNative.sol\":7687:7730  want() == IStrategy(_implementation).want() */\n      and\n        /* \"contracts/vaults/PlexusVaultNative.sol\":7687:7693  want() */\n      tag_303\n        /* \"contracts/vaults/PlexusVaultNative.sol\":7687:7691  want */\n      tag_64\n        /* \"contracts/vaults/PlexusVaultNative.sol\":7687:7693  want() */\n      jump\t// in\n    tag_303:\n      sub(shl(0xa0, 0x01), 0x01)\n        /* \"contracts/vaults/PlexusVaultNative.sol\":7687:7730  want() == IStrategy(_implementation).want() */\n      and\n      eq\n        /* \"contracts/vaults/PlexusVaultNative.sol\":7679:7749  require(want() == IStrategy(_implementation).want(), \"Different want\") */\n      tag_304\n      jumpi\n      mload(0x40)\n      shl(0xe5, 0x461bcd)\n      dup2\n      mstore\n        /* \"#utility.yul\":11154:11156   */\n      0x20\n        /* \"contracts/vaults/PlexusVaultNative.sol\":7679:7749  require(want() == IStrategy(_implementation).want(), \"Different want\") */\n      0x04\n      dup3\n      add\n        /* \"#utility.yul\":11136:11157   */\n      mstore\n        /* \"#utility.yul\":11193:11195   */\n      0x0e\n        /* \"#utility.yul\":11173:11191   */\n      0x24\n      dup3\n      add\n        /* \"#utility.yul\":11166:11196   */\n      mstore\n      shl(0x92, 0x111a5999995c995b9d081dd85b9d)\n        /* \"#utility.yul\":11212:11230   */\n      0x44\n      dup3\n      add\n        /* \"#utility.yul\":11205:11249   */\n      mstore\n        /* \"#utility.yul\":11266:11284   */\n      0x64\n      add\n        /* \"contracts/vaults/PlexusVaultNative.sol\":7679:7749  require(want() == IStrategy(_implementation).want(), \"Different want\") */\n      tag_274\n        /* \"#utility.yul\":11126:11290   */\n      jump\n        /* \"contracts/vaults/PlexusVaultNative.sol\":7679:7749  require(want() == IStrategy(_implementation).want(), \"Different want\") */\n    tag_304:\n        /* \"contracts/vaults/PlexusVaultNative.sol\":7776:7856  StratCandidate({implementation: _implementation, proposedTime: block.timestamp}) */\n      0x40\n      dup1\n      mload\n      dup1\n      dup3\n      add\n      dup3\n      mstore\n      sub(shl(0xa0, 0x01), 0x01)\n      dup4\n      and\n      dup1\n      dup3\n      mstore\n        /* \"contracts/vaults/PlexusVaultNative.sol\":7839:7854  block.timestamp */\n      timestamp\n        /* \"contracts/vaults/PlexusVaultNative.sol\":7776:7856  StratCandidate({implementation: _implementation, proposedTime: block.timestamp}) */\n      0x20\n      swap3\n      dup4\n      add\n      dup2\n      swap1\n      mstore\n        /* \"contracts/vaults/PlexusVaultNative.sol\":7759:7773  stratCandidate */\n      0xc9\n        /* \"contracts/vaults/PlexusVaultNative.sol\":7759:7856  stratCandidate = StratCandidate({implementation: _implementation, proposedTime: block.timestamp}) */\n      dup1\n      sload\n      not(sub(shl(0xa0, 0x01), 0x01))\n      and\n      dup4\n      or\n      swap1\n      sstore\n      0xca\n      sstore\n        /* \"contracts/vaults/PlexusVaultNative.sol\":7872:7906  NewStratCandidate(_implementation) */\n      swap2\n      mload\n        /* \"#utility.yul\":4703:4754   */\n      swap2\n      dup3\n      mstore\n        /* \"contracts/vaults/PlexusVaultNative.sol\":7872:7906  NewStratCandidate(_implementation) */\n      0x1aae2ec5647db56da2d513de40528ba3565c6057525637050660c4323bbac7df\n      swap2\n        /* \"#utility.yul\":4676:4694   */\n      add\n        /* \"contracts/vaults/PlexusVaultNative.sol\":7872:7906  NewStratCandidate(_implementation) */\n      mload(0x40)\n      dup1\n      swap2\n      sub\n      swap1\n      log1\n        /* \"contracts/vaults/PlexusVaultNative.sol\":7498:7913  function proposeStrat(address _implementation) public onlyOwner {... */\n      pop\n      jump\t// out\n        /* \"@openzeppelin/contracts-upgradeable/access/OwnableUpgradeable.sol\":2085:2186  function renounceOwnership() public virtual onlyOwner {... */\n    tag_112:\n        /* \"@openzeppelin/contracts-upgradeable/access/OwnableUpgradeable.sol\":1355:1368  _checkOwner() */\n      tag_310\n        /* \"@openzeppelin/contracts-upgradeable/access/OwnableUpgradeable.sol\":1355:1366  _checkOwner */\n      tag_289\n        /* \"@openzeppelin/contracts-upgradeable/access/OwnableUpgradeable.sol\":1355:1368  _checkOwner() */\n      jump\t// in\n    tag_310:\n        /* \"@openzeppelin/contracts-upgradeable/access/OwnableUpgradeable.sol\":2149:2179  _transferOwnership(address(0)) */\n      tag_258\n        /* \"@openzeppelin/contracts-upgradeable/access/OwnableUpgradeable.sol\":2176:2177  0 */\n      0x00\n        /* \"@openzeppelin/contracts-upgradeable/access/OwnableUpgradeable.sol\":2149:2167  _transferOwnership */\n      tag_313\n        /* \"@openzeppelin/contracts-upgradeable/access/OwnableUpgradeable.sol\":2149:2179  _transferOwnership(address(0)) */\n      jump\t// in\n        /* \"contracts/vaults/PlexusVaultNative.sol\":3352:3500  function getPricePerFullShare() public view returns (uint256) {... */\n    tag_120:\n        /* \"contracts/vaults/PlexusVaultNative.sol\":3405:3412  uint256 */\n      0x00\n        /* \"contracts/vaults/PlexusVaultNative.sol\":3431:3444  totalSupply() */\n      tag_315\n        /* \"@openzeppelin/contracts-upgradeable/token/ERC20/ERC20Upgradeable.sol\":3700:3712  _totalSupply */\n      sload(0x35)\n      swap1\n        /* \"@openzeppelin/contracts-upgradeable/token/ERC20/ERC20Upgradeable.sol\":3613:3719  function totalSupply() public view virtual override returns (uint256) {... */\n      jump\n        /* \"contracts/vaults/PlexusVaultNative.sol\":3431:3444  totalSupply() */\n    tag_315:\n        /* \"contracts/vaults/PlexusVaultNative.sol\":3431:3449  totalSupply() == 0 */\n      iszero\n        /* \"contracts/vaults/PlexusVaultNative.sol\":3431:3493  totalSupply() == 0 ? 1e18 : (balance() * 1e18) / totalSupply() */\n      tag_316\n      jumpi\n        /* \"@openzeppelin/contracts-upgradeable/token/ERC20/ERC20Upgradeable.sol\":3700:3712  _totalSupply */\n      sload(0x35)\n        /* \"contracts/vaults/PlexusVaultNative.sol\":3460:3469  balance() */\n      tag_318\n        /* \"contracts/vaults/PlexusVaultNative.sol\":3460:3467  balance */\n      tag_155\n        /* \"contracts/vaults/PlexusVaultNative.sol\":3460:3469  balance() */\n      jump\t// in\n    tag_318:\n        /* \"contracts/vaults/PlexusVaultNative.sol\":3460:3476  balance() * 1e18 */\n      tag_319\n      swap1\n        /* \"contracts/vaults/PlexusVaultNative.sol\":3472:3476  1e18 */\n      0x0de0b6b3a7640000\n        /* \"contracts/vaults/PlexusVaultNative.sol\":3460:3476  balance() * 1e18 */\n      tag_219\n      jump\t// in\n    tag_319:\n        /* \"contracts/vaults/PlexusVaultNative.sol\":3459:3493  (balance() * 1e18) / totalSupply() */\n      tag_207\n      swap2\n      swap1\n      tag_221\n      jump\t// in\n        /* \"contracts/vaults/PlexusVaultNative.sol\":3431:3493  totalSupply() == 0 ? 1e18 : (balance() * 1e18) / totalSupply() */\n    tag_316:\n      pop\n        /* \"contracts/vaults/PlexusVaultNative.sol\":3452:3456  1e18 */\n      0x0de0b6b3a7640000\n      swap1\n        /* \"contracts/vaults/PlexusVaultNative.sol\":3352:3500  function getPricePerFullShare() public view returns (uint256) {... */\n      jump\t// out\n        /* \"contracts/vaults/PlexusVaultNative.sol\":6751:7334  function withdrawNative(uint256 _shares) public {... */\n    tag_125:\n        /* \"contracts/vaults/PlexusVaultNative.sol\":6809:6818  uint256 r */\n      0x00\n        /* \"contracts/vaults/PlexusVaultNative.sol\":6845:6858  totalSupply() */\n      tag_323\n        /* \"@openzeppelin/contracts-upgradeable/token/ERC20/ERC20Upgradeable.sol\":3700:3712  _totalSupply */\n      sload(0x35)\n      swap1\n        /* \"@openzeppelin/contracts-upgradeable/token/ERC20/ERC20Upgradeable.sol\":3613:3719  function totalSupply() public view virtual override returns (uint256) {... */\n      jump\n        /* \"contracts/vaults/PlexusVaultNative.sol\":6845:6858  totalSupply() */\n    tag_323:\n        /* \"contracts/vaults/PlexusVaultNative.sol\":6834:6841  _shares */\n      dup3\n        /* \"contracts/vaults/PlexusVaultNative.sol\":6822:6831  balance() */\n      tag_324\n        /* \"contracts/vaults/PlexusVaultNative.sol\":6822:6829  balance */\n      tag_155\n        /* \"contracts/vaults/PlexusVaultNative.sol\":6822:6831  balance() */\n      jump\t// in\n    tag_324:\n        /* \"contracts/vaults/PlexusVaultNative.sol\":6822:6841  balance() * _shares */\n      tag_325\n      swap2\n      swap1\n      tag_219\n      jump\t// in\n    tag_325:\n        /* \"contracts/vaults/PlexusVaultNative.sol\":6821:6858  (balance() * _shares) / totalSupply() */\n      tag_326\n      swap2\n      swap1\n      tag_221\n      jump\t// in\n    tag_326:\n        /* \"contracts/vaults/PlexusVaultNative.sol\":6809:6858  uint256 r = (balance() * _shares) / totalSupply() */\n      swap1\n      pop\n        /* \"contracts/vaults/PlexusVaultNative.sol\":6868:6894  _burn(msg.sender, _shares) */\n      tag_327\n        /* \"contracts/vaults/PlexusVaultNative.sol\":6874:6884  msg.sender */\n      caller\n        /* \"contracts/vaults/PlexusVaultNative.sol\":6886:6893  _shares */\n      dup4\n        /* \"contracts/vaults/PlexusVaultNative.sol\":6868:6873  _burn */\n      tag_223\n        /* \"contracts/vaults/PlexusVaultNative.sol\":6868:6894  _burn(msg.sender, _shares) */\n      jump\t// in\n    tag_327:\n        /* \"contracts/vaults/PlexusVaultNative.sol\":6905:6911  uint b */\n      0x00\n        /* \"contracts/vaults/PlexusVaultNative.sol\":6914:6920  want() */\n      tag_328\n        /* \"contracts/vaults/PlexusVaultNative.sol\":6914:6918  want */\n      tag_64\n        /* \"contracts/vaults/PlexusVaultNative.sol\":6914:6920  want() */\n      jump\t// in\n    tag_328:\n        /* \"contracts/vaults/PlexusVaultNative.sol\":6914:6945  want().balanceOf(address(this)) */\n      mload(0x40)\n      shl(0xe0, 0x70a08231)\n      dup2\n      mstore\n        /* \"contracts/vaults/PlexusVaultNative.sol\":6939:6943  this */\n      address\n        /* \"contracts/vaults/PlexusVaultNative.sol\":6914:6945  want().balanceOf(address(this)) */\n      0x04\n      dup3\n      add\n        /* \"#utility.yul\":4703:4754   */\n      mstore\n      sub(shl(0xa0, 0x01), 0x01)\n        /* \"contracts/vaults/PlexusVaultNative.sol\":6914:6930  want().balanceOf */\n      swap2\n      swap1\n      swap2\n      and\n      swap1\n      0x70a08231\n      swap1\n        /* \"#utility.yul\":4676:4694   */\n      0x24\n      add\n        /* \"contracts/vaults/PlexusVaultNative.sol\":6914:6945  want().balanceOf(address(this)) */\n      0x20\n      mload(0x40)\n      dup1\n      dup4\n      sub\n      dup2\n      dup7\n      dup1\n      extcodesize\n      iszero\n      dup1\n      iszero\n      tag_330\n      jumpi\n      0x00\n      dup1\n      revert\n    tag_330:\n      pop\n      gas\n      staticcall\n      iszero\n      dup1\n      iszero\n      tag_332\n      jumpi\n      returndatasize\n      0x00\n      dup1\n      returndatacopy\n      revert(0x00, returndatasize)\n    tag_332:\n      pop\n      pop\n      pop\n      pop\n      mload(0x40)\n      returndatasize\n      not(0x1f)\n      0x1f\n      dup3\n      add\n      and\n      dup3\n      add\n      dup1\n      0x40\n      mstore\n      pop\n      dup2\n      add\n      swap1\n      tag_333\n      swap2\n      swap1\n      tag_230\n      jump\t// in\n    tag_333:\n        /* \"contracts/vaults/PlexusVaultNative.sol\":6905:6945  uint b = want().balanceOf(address(this)) */\n      swap1\n      pop\n        /* \"contracts/vaults/PlexusVaultNative.sol\":6963:6964  r */\n      dup2\n        /* \"contracts/vaults/PlexusVaultNative.sol\":6959:6960  b */\n      dup2\n        /* \"contracts/vaults/PlexusVaultNative.sol\":6959:6964  b < r */\n      lt\n        /* \"contracts/vaults/PlexusVaultNative.sol\":6955:7233  if (b < r) {... */\n      iszero\n      tag_334\n      jumpi\n        /* \"contracts/vaults/PlexusVaultNative.sol\":6980:6994  uint _withdraw */\n      0x00\n        /* \"contracts/vaults/PlexusVaultNative.sol\":6997:7002  r - b */\n      tag_335\n        /* \"contracts/vaults/PlexusVaultNative.sol\":7001:7002  b */\n      dup3\n        /* \"contracts/vaults/PlexusVaultNative.sol\":6997:6998  r */\n      dup5\n        /* \"contracts/vaults/PlexusVaultNative.sol\":6997:7002  r - b */\n      tag_233\n      jump\t// in\n    tag_335:\n        /* \"contracts/vaults/PlexusVaultNative.sol\":7016:7024  strategy */\n      sload(0xcb)\n        /* \"contracts/vaults/PlexusVaultNative.sol\":7016:7044  strategy.withdraw(_withdraw) */\n      mload(0x40)\n      shl(0xe0, 0x2e1a7d4d)\n      dup2\n      mstore\n      0x04\n      dup2\n      add\n        /* \"#utility.yul\":15672:15697   */\n      dup4\n      swap1\n      mstore\n        /* \"contracts/vaults/PlexusVaultNative.sol\":6980:7002  uint _withdraw = r - b */\n      swap2\n      swap3\n      pop\n      sub(shl(0xa0, 0x01), 0x01)\n        /* \"contracts/vaults/PlexusVaultNative.sol\":7016:7024  strategy */\n      and\n      swap1\n        /* \"contracts/vaults/PlexusVaultNative.sol\":7016:7033  strategy.withdraw */\n      0x2e1a7d4d\n      swap1\n        /* \"#utility.yul\":15645:15663   */\n      0x24\n      add\n        /* \"contracts/vaults/PlexusVaultNative.sol\":7016:7044  strategy.withdraw(_withdraw) */\n      0x00\n      mload(0x40)\n      dup1\n      dup4\n      sub\n      dup2\n      0x00\n      dup8\n      dup1\n      extcodesize\n      iszero\n      dup1\n      iszero\n      tag_337\n      jumpi\n      0x00\n      dup1\n      revert\n    tag_337:\n      pop\n      gas\n      call\n      iszero\n      dup1\n      iszero\n      tag_339\n      jumpi\n      returndatasize\n      0x00\n      dup1\n      returndatacopy\n      revert(0x00, returndatasize)\n    tag_339:\n      pop\n      pop\n      pop\n      pop\n        /* \"contracts/vaults/PlexusVaultNative.sol\":7058:7069  uint _after */\n      0x00\n        /* \"contracts/vaults/PlexusVaultNative.sol\":7072:7078  want() */\n      tag_340\n        /* \"contracts/vaults/PlexusVaultNative.sol\":7072:7076  want */\n      tag_64\n        /* \"contracts/vaults/PlexusVaultNative.sol\":7072:7078  want() */\n      jump\t// in\n    tag_340:\n        /* \"contracts/vaults/PlexusVaultNative.sol\":7072:7103  want().balanceOf(address(this)) */\n      mload(0x40)\n      shl(0xe0, 0x70a08231)\n      dup2\n      mstore\n        /* \"contracts/vaults/PlexusVaultNative.sol\":7097:7101  this */\n      address\n        /* \"contracts/vaults/PlexusVaultNative.sol\":7072:7103  want().balanceOf(address(this)) */\n      0x04\n      dup3\n      add\n        /* \"#utility.yul\":4703:4754   */\n      mstore\n      sub(shl(0xa0, 0x01), 0x01)\n        /* \"contracts/vaults/PlexusVaultNative.sol\":7072:7088  want().balanceOf */\n      swap2\n      swap1\n      swap2\n      and\n      swap1\n      0x70a08231\n      swap1\n        /* \"#utility.yul\":4676:4694   */\n      0x24\n      add\n        /* \"contracts/vaults/PlexusVaultNative.sol\":7072:7103  want().balanceOf(address(this)) */\n      0x20\n      mload(0x40)\n      dup1\n      dup4\n      sub\n      dup2\n      dup7\n      dup1\n      extcodesize\n      iszero\n      dup1\n      iszero\n      tag_342\n      jumpi\n      0x00\n      dup1\n      revert\n    tag_342:\n      pop\n      gas\n      staticcall\n      iszero\n      dup1\n      iszero\n      tag_344\n      jumpi\n      returndatasize\n      0x00\n      dup1\n      returndatacopy\n      revert(0x00, returndatasize)\n    tag_344:\n      pop\n      pop\n      pop\n      pop\n      mload(0x40)\n      returndatasize\n      not(0x1f)\n      0x1f\n      dup3\n      add\n      and\n      dup3\n      add\n      dup1\n      0x40\n      mstore\n      pop\n      dup2\n      add\n      swap1\n      tag_345\n      swap2\n      swap1\n      tag_230\n      jump\t// in\n    tag_345:\n        /* \"contracts/vaults/PlexusVaultNative.sol\":7058:7103  uint _after = want().balanceOf(address(this)) */\n      swap1\n      pop\n        /* \"contracts/vaults/PlexusVaultNative.sol\":7117:7127  uint _diff */\n      0x00\n        /* \"contracts/vaults/PlexusVaultNative.sol\":7130:7140  _after - b */\n      tag_346\n        /* \"contracts/vaults/PlexusVaultNative.sol\":7139:7140  b */\n      dup5\n        /* \"contracts/vaults/PlexusVaultNative.sol\":7058:7103  uint _after = want().balanceOf(address(this)) */\n      dup4\n        /* \"contracts/vaults/PlexusVaultNative.sol\":7130:7140  _after - b */\n      tag_233\n      jump\t// in\n    tag_346:\n        /* \"contracts/vaults/PlexusVaultNative.sol\":7117:7140  uint _diff = _after - b */\n      swap1\n      pop\n        /* \"contracts/vaults/PlexusVaultNative.sol\":7166:7175  _withdraw */\n      dup3\n        /* \"contracts/vaults/PlexusVaultNative.sol\":7158:7163  _diff */\n      dup2\n        /* \"contracts/vaults/PlexusVaultNative.sol\":7158:7175  _diff < _withdraw */\n      lt\n        /* \"contracts/vaults/PlexusVaultNative.sol\":7154:7223  if (_diff < _withdraw) {... */\n      iszero\n      tag_347\n      jumpi\n        /* \"contracts/vaults/PlexusVaultNative.sol\":7199:7208  b + _diff */\n      tag_348\n        /* \"contracts/vaults/PlexusVaultNative.sol\":7203:7208  _diff */\n      dup2\n        /* \"contracts/vaults/PlexusVaultNative.sol\":7199:7200  b */\n      dup6\n        /* \"contracts/vaults/PlexusVaultNative.sol\":7199:7208  b + _diff */\n      tag_247\n      jump\t// in\n    tag_348:\n        /* \"contracts/vaults/PlexusVaultNative.sol\":7195:7208  r = b + _diff */\n      swap5\n      pop\n        /* \"contracts/vaults/PlexusVaultNative.sol\":7154:7223  if (_diff < _withdraw) {... */\n    tag_347:\n        /* \"contracts/vaults/PlexusVaultNative.sol\":6955:7233  if (b < r) {... */\n      pop\n      pop\n      pop\n    tag_334:\n        /* \"contracts/vaults/PlexusVaultNative.sol\":7266:7272  want() */\n      tag_349\n        /* \"contracts/vaults/PlexusVaultNative.sol\":7266:7270  want */\n      tag_64\n        /* \"contracts/vaults/PlexusVaultNative.sol\":7266:7272  want() */\n      jump\t// in\n    tag_349:\n      sub(shl(0xa0, 0x01), 0x01)\n        /* \"contracts/vaults/PlexusVaultNative.sol\":7243:7283  IWrappedNative(address(want())).withdraw */\n      and\n      0x2e1a7d4d\n        /* \"contracts/vaults/PlexusVaultNative.sol\":7284:7285  r */\n      dup4\n        /* \"contracts/vaults/PlexusVaultNative.sol\":7243:7286  IWrappedNative(address(want())).withdraw(r) */\n      mload(0x40)\n      dup3\n      0xffffffff\n      and\n      0xe0\n      shl\n      dup2\n      mstore\n      0x04\n      add\n      tag_350\n      swap2\n        /* \"#utility.yul\":15672:15697   */\n      dup2\n      mstore\n        /* \"#utility.yul\":15660:15662   */\n      0x20\n        /* \"#utility.yul\":15645:15663   */\n      add\n      swap1\n        /* \"#utility.yul\":15627:15703   */\n      jump\n        /* \"contracts/vaults/PlexusVaultNative.sol\":7243:7286  IWrappedNative(address(want())).withdraw(r) */\n    tag_350:\n      0x00\n      mload(0x40)\n      dup1\n      dup4\n      sub\n      dup2\n      0x00\n      dup8\n      dup1\n      extcodesize\n      iszero\n      dup1\n      iszero\n      tag_351\n      jumpi\n      0x00\n      dup1\n      revert\n    tag_351:\n      pop\n      gas\n      call\n      iszero\n      dup1\n      iszero\n      tag_353\n      jumpi\n      returndatasize\n      0x00\n      dup1\n      returndatacopy\n      revert(0x00, returndatasize)\n    tag_353:\n      pop\n      pop\n        /* \"contracts/vaults/PlexusVaultNative.sol\":7296:7327  payable(msg.sender).transfer(r) */\n      mload(0x40)\n        /* \"contracts/vaults/PlexusVaultNative.sol\":7304:7314  msg.sender */\n      caller\n      swap3\n      pop\n        /* \"contracts/vaults/PlexusVaultNative.sol\":7296:7327  payable(msg.sender).transfer(r) */\n      dup5\n      iszero\n      0x08fc\n      mul\n      swap2\n      pop\n        /* \"contracts/vaults/PlexusVaultNative.sol\":7325:7326  r */\n      dup5\n      swap1\n        /* \"contracts/vaults/PlexusVaultNative.sol\":7296:7327  payable(msg.sender).transfer(r) */\n      0x00\n      dup2\n      dup2\n      dup2\n        /* \"contracts/vaults/PlexusVaultNative.sol\":7325:7326  r */\n      dup6\n        /* \"contracts/vaults/PlexusVaultNative.sol\":7304:7314  msg.sender */\n      dup9\n        /* \"contracts/vaults/PlexusVaultNative.sol\":7296:7327  payable(msg.sender).transfer(r) */\n      dup9\n      call\n      swap4\n      pop\n      pop\n      pop\n      pop\n      iszero\n      dup1\n      iszero\n      tag_355\n      jumpi\n      returndatasize\n      0x00\n      dup1\n      returndatacopy\n      revert(0x00, returndatasize)\n    tag_355:\n      pop\n        /* \"contracts/vaults/PlexusVaultNative.sol\":6751:7334  function withdrawNative(uint256 _shares) public {... */\n      pop\n      pop\n      pop\n      jump\t// out\n        /* \"contracts/vaults/PlexusVaultNative.sol\":5566:5646  function withdrawAll() external {... */\n    tag_128:\n        /* \"contracts/vaults/PlexusVaultNative.sol\":5627:5637  msg.sender */\n      caller\n        /* \"@openzeppelin/contracts-upgradeable/token/ERC20/ERC20Upgradeable.sol\":3851:3858  uint256 */\n      0x00\n        /* \"@openzeppelin/contracts-upgradeable/token/ERC20/ERC20Upgradeable.sol\":3877:3895  _balances[account] */\n      swap1\n      dup2\n      mstore\n        /* \"@openzeppelin/contracts-upgradeable/token/ERC20/ERC20Upgradeable.sol\":3877:3886  _balances */\n      0x33\n        /* \"@openzeppelin/contracts-upgradeable/token/ERC20/ERC20Upgradeable.sol\":3877:3895  _balances[account] */\n      0x20\n      mstore\n      0x40\n      swap1\n      keccak256\n      sload\n        /* \"contracts/vaults/PlexusVaultNative.sol\":5608:5639  withdraw(balanceOf(msg.sender)) */\n      tag_258\n      swap1\n        /* \"contracts/vaults/PlexusVaultNative.sol\":6071:6598  function withdraw(uint256 _shares) public {... */\n      tag_77\n      jump\t// in\n        /* \"@openzeppelin/contracts-upgradeable/token/ERC20/ERC20Upgradeable.sol\":2727:2829  function symbol() public view virtual override returns (string memory) {... */\n    tag_136:\n        /* \"@openzeppelin/contracts-upgradeable/token/ERC20/ERC20Upgradeable.sol\":2783:2796  string memory */\n      0x60\n        /* \"@openzeppelin/contracts-upgradeable/token/ERC20/ERC20Upgradeable.sol\":2815:2822  _symbol */\n      0x37\n        /* \"@openzeppelin/contracts-upgradeable/token/ERC20/ERC20Upgradeable.sol\":2808:2822  return _symbol */\n      dup1\n      sload\n      tag_191\n      swap1\n      tag_192\n      jump\t// in\n        /* \"@openzeppelin/contracts-upgradeable/token/ERC20/ERC20Upgradeable.sol\":6933:7360  function decreaseAllowance(address spender, uint256 subtractedValue) public virtual returns (bool) {... */\n    tag_141:\n        /* \"@openzeppelin/contracts-upgradeable/token/ERC20/ERC20Upgradeable.sol\":7026:7030  bool */\n      0x00\n        /* \"@openzeppelin/contracts-upgradeable/utils/ContextUpgradeable.sol\":965:975  msg.sender */\n      caller\n        /* \"@openzeppelin/contracts-upgradeable/token/ERC20/ERC20Upgradeable.sol\":7026:7030  bool */\n      dup2\n        /* \"@openzeppelin/contracts-upgradeable/token/ERC20/ERC20Upgradeable.sol\":7107:7132  allowance(owner, spender) */\n      tag_368\n        /* \"@openzeppelin/contracts-upgradeable/utils/ContextUpgradeable.sol\":965:975  msg.sender */\n      dup3\n        /* \"@openzeppelin/contracts-upgradeable/token/ERC20/ERC20Upgradeable.sol\":7124:7131  spender */\n      dup7\n        /* \"@openzeppelin/contracts-upgradeable/token/ERC20/ERC20Upgradeable.sol\":7107:7116  allowance */\n      tag_170\n        /* \"@openzeppelin/contracts-upgradeable/token/ERC20/ERC20Upgradeable.sol\":7107:7132  allowance(owner, spender) */\n      jump\t// in\n    tag_368:\n        /* \"@openzeppelin/contracts-upgradeable/token/ERC20/ERC20Upgradeable.sol\":7080:7132  uint256 currentAllowance = allowance(owner, spender) */\n      swap1\n      pop\n        /* \"@openzeppelin/contracts-upgradeable/token/ERC20/ERC20Upgradeable.sol\":7170:7185  subtractedValue */\n      dup4\n        /* \"@openzeppelin/contracts-upgradeable/token/ERC20/ERC20Upgradeable.sol\":7150:7166  currentAllowance */\n      dup2\n        /* \"@openzeppelin/contracts-upgradeable/token/ERC20/ERC20Upgradeable.sol\":7150:7185  currentAllowance >= subtractedValue */\n      lt\n      iszero\n        /* \"@openzeppelin/contracts-upgradeable/token/ERC20/ERC20Upgradeable.sol\":7142:7227  require(currentAllowance >= subtractedValue, \"ERC20: decreased allowance below zero\") */\n      tag_369\n      jumpi\n      mload(0x40)\n      shl(0xe5, 0x461bcd)\n      dup2\n      mstore\n        /* \"#utility.yul\":14962:14964   */\n      0x20\n        /* \"@openzeppelin/contracts-upgradeable/token/ERC20/ERC20Upgradeable.sol\":7142:7227  require(currentAllowance >= subtractedValue, \"ERC20: decreased allowance below zero\") */\n      0x04\n      dup3\n      add\n        /* \"#utility.yul\":14944:14965   */\n      mstore\n        /* \"#utility.yul\":15001:15003   */\n      0x25\n        /* \"#utility.yul\":14981:14999   */\n      0x24\n      dup3\n      add\n        /* \"#utility.yul\":14974:15004   */\n      mstore\n        /* \"#utility.yul\":15040:15074   */\n      0x45524332303a2064656372656173656420616c6c6f77616e63652062656c6f77\n        /* \"#utility.yul\":15020:15038   */\n      0x44\n      dup3\n      add\n        /* \"#utility.yul\":15013:15075   */\n      mstore\n      shl(0xd8, 0x207a65726f)\n        /* \"#utility.yul\":15091:15109   */\n      0x64\n      dup3\n      add\n        /* \"#utility.yul\":15084:15119   */\n      mstore\n        /* \"#utility.yul\":15136:15155   */\n      0x84\n      add\n        /* \"@openzeppelin/contracts-upgradeable/token/ERC20/ERC20Upgradeable.sol\":7142:7227  require(currentAllowance >= subtractedValue, \"ERC20: decreased allowance below zero\") */\n      tag_274\n        /* \"#utility.yul\":14934:15161   */\n      jump\n        /* \"@openzeppelin/contracts-upgradeable/token/ERC20/ERC20Upgradeable.sol\":7142:7227  require(currentAllowance >= subtractedValue, \"ERC20: decreased allowance below zero\") */\n    tag_369:\n        /* \"@openzeppelin/contracts-upgradeable/token/ERC20/ERC20Upgradeable.sol\":7261:7321  _approve(owner, spender, currentAllowance - subtractedValue) */\n      tag_213\n        /* \"@openzeppelin/contracts-upgradeable/token/ERC20/ERC20Upgradeable.sol\":7270:7275  owner */\n      dup3\n        /* \"@openzeppelin/contracts-upgradeable/token/ERC20/ERC20Upgradeable.sol\":7277:7284  spender */\n      dup7\n        /* \"@openzeppelin/contracts-upgradeable/token/ERC20/ERC20Upgradeable.sol\":7305:7320  subtractedValue */\n      dup7\n        /* \"@openzeppelin/contracts-upgradeable/token/ERC20/ERC20Upgradeable.sol\":7286:7302  currentAllowance */\n      dup5\n        /* \"@openzeppelin/contracts-upgradeable/token/ERC20/ERC20Upgradeable.sol\":7286:7320  currentAllowance - subtractedValue */\n      sub\n        /* \"@openzeppelin/contracts-upgradeable/token/ERC20/ERC20Upgradeable.sol\":7261:7269  _approve */\n      tag_201\n        /* \"@openzeppelin/contracts-upgradeable/token/ERC20/ERC20Upgradeable.sol\":7261:7321  _approve(owner, spender, currentAllowance - subtractedValue) */\n      jump\t// in\n        /* \"@openzeppelin/contracts-upgradeable/token/ERC20/ERC20Upgradeable.sol\":4098:4287  function transfer(address to, uint256 amount) public virtual override returns (bool) {... */\n    tag_151:\n        /* \"@openzeppelin/contracts-upgradeable/token/ERC20/ERC20Upgradeable.sol\":4177:4181  bool */\n      0x00\n        /* \"@openzeppelin/contracts-upgradeable/utils/ContextUpgradeable.sol\":965:975  msg.sender */\n      caller\n        /* \"@openzeppelin/contracts-upgradeable/token/ERC20/ERC20Upgradeable.sol\":4231:4259  _transfer(owner, to, amount) */\n      tag_200\n        /* \"@openzeppelin/contracts-upgradeable/utils/ContextUpgradeable.sol\":965:975  msg.sender */\n      dup2\n        /* \"@openzeppelin/contracts-upgradeable/token/ERC20/ERC20Upgradeable.sol\":4248:4250  to */\n      dup6\n        /* \"@openzeppelin/contracts-upgradeable/token/ERC20/ERC20Upgradeable.sol\":4252:4258  amount */\n      dup6\n        /* \"@openzeppelin/contracts-upgradeable/token/ERC20/ERC20Upgradeable.sol\":4231:4240  _transfer */\n      tag_214\n        /* \"@openzeppelin/contracts-upgradeable/token/ERC20/ERC20Upgradeable.sol\":4231:4259  _transfer(owner, to, amount) */\n      jump\t// in\n        /* \"contracts/vaults/PlexusVaultNative.sol\":2612:2747  function balance() public view returns (uint) {... */\n    tag_155:\n        /* \"contracts/vaults/PlexusVaultNative.sol\":2719:2727  strategy */\n      sload(0xcb)\n        /* \"contracts/vaults/PlexusVaultNative.sol\":2709:2740  IStrategy(strategy).balanceOf() */\n      0x40\n      dup1\n      mload\n      shl(0xe0, 0x722713f7)\n      dup2\n      mstore\n      swap1\n      mload\n        /* \"contracts/vaults/PlexusVaultNative.sol\":2652:2656  uint */\n      0x00\n      swap3\n      sub(shl(0xa0, 0x01), 0x01)\n        /* \"contracts/vaults/PlexusVaultNative.sol\":2719:2727  strategy */\n      and\n      swap2\n        /* \"contracts/vaults/PlexusVaultNative.sol\":2709:2738  IStrategy(strategy).balanceOf */\n      0x722713f7\n      swap2\n        /* \"contracts/vaults/PlexusVaultNative.sol\":2709:2740  IStrategy(strategy).balanceOf() */\n      0x04\n      dup1\n      dup4\n      add\n      swap3\n      0x20\n      swap3\n      swap2\n      swap1\n      dup3\n      swap1\n      sub\n      add\n      dup2\n        /* \"contracts/vaults/PlexusVaultNative.sol\":2719:2727  strategy */\n      dup7\n        /* \"contracts/vaults/PlexusVaultNative.sol\":2709:2740  IStrategy(strategy).balanceOf() */\n      dup1\n      extcodesize\n      iszero\n      dup1\n      iszero\n      tag_377\n      jumpi\n      0x00\n      dup1\n      revert\n    tag_377:\n      pop\n      gas\n      staticcall\n      iszero\n      dup1\n      iszero\n      tag_379\n      jumpi\n      returndatasize\n      0x00\n      dup1\n      returndatacopy\n      revert(0x00, returndatasize)\n    tag_379:\n      pop\n      pop\n      pop\n      pop\n      mload(0x40)\n      returndatasize\n      not(0x1f)\n      0x1f\n      dup3\n      add\n      and\n      dup3\n      add\n      dup1\n      0x40\n      mstore\n      pop\n      dup2\n      add\n      swap1\n      tag_380\n      swap2\n      swap1\n      tag_230\n      jump\t// in\n    tag_380:\n        /* \"contracts/vaults/PlexusVaultNative.sol\":2675:2681  want() */\n      tag_381\n        /* \"contracts/vaults/PlexusVaultNative.sol\":2675:2679  want */\n      tag_64\n        /* \"contracts/vaults/PlexusVaultNative.sol\":2675:2681  want() */\n      jump\t// in\n    tag_381:\n        /* \"contracts/vaults/PlexusVaultNative.sol\":2675:2706  want().balanceOf(address(this)) */\n      mload(0x40)\n      shl(0xe0, 0x70a08231)\n      dup2\n      mstore\n        /* \"contracts/vaults/PlexusVaultNative.sol\":2700:2704  this */\n      address\n        /* \"contracts/vaults/PlexusVaultNative.sol\":2675:2706  want().balanceOf(address(this)) */\n      0x04\n      dup3\n      add\n        /* \"#utility.yul\":4703:4754   */\n      mstore\n      sub(shl(0xa0, 0x01), 0x01)\n        /* \"contracts/vaults/PlexusVaultNative.sol\":2675:2691  want().balanceOf */\n      swap2\n      swap1\n      swap2\n      and\n      swap1\n      0x70a08231\n      swap1\n        /* \"#utility.yul\":4676:4694   */\n      0x24\n      add\n        /* \"contracts/vaults/PlexusVaultNative.sol\":2675:2706  want().balanceOf(address(this)) */\n      0x20\n      mload(0x40)\n      dup1\n      dup4\n      sub\n      dup2\n      dup7\n      dup1\n      extcodesize\n      iszero\n      dup1\n      iszero\n      tag_383\n      jumpi\n      0x00\n      dup1\n      revert\n    tag_383:\n      pop\n      gas\n      staticcall\n      iszero\n      dup1\n      iszero\n      tag_385\n      jumpi\n      returndatasize\n      0x00\n      dup1\n      returndatacopy\n      revert(0x00, returndatasize)\n    tag_385:\n      pop\n      pop\n      pop\n      pop\n      mload(0x40)\n      returndatasize\n      not(0x1f)\n      0x1f\n      dup3\n      add\n      and\n      dup3\n      add\n      dup1\n      0x40\n      mstore\n      pop\n      dup2\n      add\n      swap1\n      tag_386\n      swap2\n      swap1\n      tag_230\n      jump\t// in\n    tag_386:\n        /* \"contracts/vaults/PlexusVaultNative.sol\":2675:2740  want().balanceOf(address(this)) + IStrategy(strategy).balanceOf() */\n      tag_207\n      swap2\n      swap1\n      tag_247\n      jump\t// in\n        /* \"contracts/vaults/PlexusVaultNative.sol\":3880:4417  function deposit(uint _amount) public nonReentrant {... */\n    tag_160:\n        /* \"@openzeppelin/contracts-upgradeable/security/ReentrancyGuardUpgradeable.sol\":2526:2547  _nonReentrantBefore() */\n      tag_389\n        /* \"@openzeppelin/contracts-upgradeable/security/ReentrancyGuardUpgradeable.sol\":2526:2545  _nonReentrantBefore */\n      tag_390\n        /* \"@openzeppelin/contracts-upgradeable/security/ReentrancyGuardUpgradeable.sol\":2526:2547  _nonReentrantBefore() */\n      jump\t// in\n    tag_389:\n        /* \"contracts/vaults/PlexusVaultNative.sol\":3941:3949  strategy */\n      0xcb\n      0x00\n      swap1\n      sload\n      swap1\n      0x0100\n      exp\n      swap1\n      div\n      sub(shl(0xa0, 0x01), 0x01)\n      and\n      sub(shl(0xa0, 0x01), 0x01)\n        /* \"contracts/vaults/PlexusVaultNative.sol\":3941:3963  strategy.beforeDeposit */\n      and\n      0x573fef0a\n        /* \"contracts/vaults/PlexusVaultNative.sol\":3941:3965  strategy.beforeDeposit() */\n      mload(0x40)\n      dup2\n      0xffffffff\n      and\n      0xe0\n      shl\n      dup2\n      mstore\n      0x04\n      add\n      0x00\n      mload(0x40)\n      dup1\n      dup4\n      sub\n      dup2\n      0x00\n      dup8\n      dup1\n      extcodesize\n      iszero\n      dup1\n      iszero\n      tag_392\n      jumpi\n      0x00\n      dup1\n      revert\n    tag_392:\n      pop\n      gas\n      call\n      iszero\n      dup1\n      iszero\n      tag_394\n      jumpi\n      returndatasize\n      0x00\n      dup1\n      returndatacopy\n      revert(0x00, returndatasize)\n    tag_394:\n      pop\n      pop\n      pop\n      pop\n        /* \"contracts/vaults/PlexusVaultNative.sol\":3976:3989  uint256 _pool */\n      0x00\n        /* \"contracts/vaults/PlexusVaultNative.sol\":3992:4001  balance() */\n      tag_395\n        /* \"contracts/vaults/PlexusVaultNative.sol\":3992:3999  balance */\n      tag_155\n        /* \"contracts/vaults/PlexusVaultNative.sol\":3992:4001  balance() */\n      jump\t// in\n    tag_395:\n        /* \"contracts/vaults/PlexusVaultNative.sol\":3976:4001  uint256 _pool = balance() */\n      swap1\n      pop\n        /* \"contracts/vaults/PlexusVaultNative.sol\":4011:4070  want().safeTransferFrom(msg.sender, address(this), _amount) */\n      tag_396\n        /* \"contracts/vaults/PlexusVaultNative.sol\":4035:4045  msg.sender */\n      caller\n        /* \"contracts/vaults/PlexusVaultNative.sol\":4055:4059  this */\n      address\n        /* \"contracts/vaults/PlexusVaultNative.sol\":4062:4069  _amount */\n      dup5\n        /* \"contracts/vaults/PlexusVaultNative.sol\":4011:4017  want() */\n      tag_397\n        /* \"contracts/vaults/PlexusVaultNative.sol\":4011:4015  want */\n      tag_64\n        /* \"contracts/vaults/PlexusVaultNative.sol\":4011:4017  want() */\n      jump\t// in\n    tag_397:\n      sub(shl(0xa0, 0x01), 0x01)\n        /* \"contracts/vaults/PlexusVaultNative.sol\":4011:4034  want().safeTransferFrom */\n      and\n      swap3\n        /* \"contracts/vaults/PlexusVaultNative.sol\":4011:4070  want().safeTransferFrom(msg.sender, address(this), _amount) */\n      swap2\n      swap1\n        /* \"contracts/vaults/PlexusVaultNative.sol\":4011:4034  want().safeTransferFrom */\n      tag_398\n        /* \"contracts/vaults/PlexusVaultNative.sol\":4011:4070  want().safeTransferFrom(msg.sender, address(this), _amount) */\n      jump\t// in\n    tag_396:\n        /* \"contracts/vaults/PlexusVaultNative.sol\":4080:4086  earn() */\n      tag_399\n        /* \"contracts/vaults/PlexusVaultNative.sol\":4080:4084  earn */\n      tag_163\n        /* \"contracts/vaults/PlexusVaultNative.sol\":4080:4086  earn() */\n      jump\t// in\n    tag_399:\n        /* \"contracts/vaults/PlexusVaultNative.sol\":4096:4110  uint256 _after */\n      0x00\n        /* \"contracts/vaults/PlexusVaultNative.sol\":4113:4122  balance() */\n      tag_400\n        /* \"contracts/vaults/PlexusVaultNative.sol\":4113:4120  balance */\n      tag_155\n        /* \"contracts/vaults/PlexusVaultNative.sol\":4113:4122  balance() */\n      jump\t// in\n    tag_400:\n        /* \"contracts/vaults/PlexusVaultNative.sol\":4096:4122  uint256 _after = balance() */\n      swap1\n      pop\n        /* \"contracts/vaults/PlexusVaultNative.sol\":4142:4156  _after - _pool */\n      tag_401\n        /* \"contracts/vaults/PlexusVaultNative.sol\":4151:4156  _pool */\n      dup3\n        /* \"contracts/vaults/PlexusVaultNative.sol\":4096:4122  uint256 _after = balance() */\n      dup3\n        /* \"contracts/vaults/PlexusVaultNative.sol\":4142:4156  _after - _pool */\n      tag_233\n      jump\t// in\n    tag_401:\n        /* \"contracts/vaults/PlexusVaultNative.sol\":4132:4156  _amount = _after - _pool */\n      swap3\n      pop\n        /* \"contracts/vaults/PlexusVaultNative.sol\":4210:4224  uint256 shares */\n      0x00\n        /* \"contracts/vaults/PlexusVaultNative.sol\":4242:4255  totalSupply() */\n      tag_402\n        /* \"@openzeppelin/contracts-upgradeable/token/ERC20/ERC20Upgradeable.sol\":3700:3712  _totalSupply */\n      sload(0x35)\n      swap1\n        /* \"@openzeppelin/contracts-upgradeable/token/ERC20/ERC20Upgradeable.sol\":3613:3719  function totalSupply() public view virtual override returns (uint256) {... */\n      jump\n        /* \"contracts/vaults/PlexusVaultNative.sol\":4242:4255  totalSupply() */\n    tag_402:\n        /* \"contracts/vaults/PlexusVaultNative.sol\":4238:4376  if (totalSupply() == 0) {... */\n      tag_403\n      jumpi\n      pop\n        /* \"contracts/vaults/PlexusVaultNative.sol\":4285:4292  _amount */\n      dup3\n        /* \"contracts/vaults/PlexusVaultNative.sol\":4238:4376  if (totalSupply() == 0) {... */\n      jump(tag_404)\n    tag_403:\n        /* \"contracts/vaults/PlexusVaultNative.sol\":4360:4365  _pool */\n      dup3\n        /* \"contracts/vaults/PlexusVaultNative.sol\":4343:4356  totalSupply() */\n      tag_405\n        /* \"@openzeppelin/contracts-upgradeable/token/ERC20/ERC20Upgradeable.sol\":3700:3712  _totalSupply */\n      sload(0x35)\n      swap1\n        /* \"@openzeppelin/contracts-upgradeable/token/ERC20/ERC20Upgradeable.sol\":3613:3719  function totalSupply() public view virtual override returns (uint256) {... */\n      jump\n        /* \"contracts/vaults/PlexusVaultNative.sol\":4343:4356  totalSupply() */\n    tag_405:\n        /* \"contracts/vaults/PlexusVaultNative.sol\":4333:4356  _amount * totalSupply() */\n      tag_406\n      swap1\n        /* \"contracts/vaults/PlexusVaultNative.sol\":4333:4340  _amount */\n      dup7\n        /* \"contracts/vaults/PlexusVaultNative.sol\":4333:4356  _amount * totalSupply() */\n      tag_219\n      jump\t// in\n    tag_406:\n        /* \"contracts/vaults/PlexusVaultNative.sol\":4332:4365  (_amount * totalSupply()) / _pool */\n      tag_407\n      swap2\n      swap1\n      tag_221\n      jump\t// in\n    tag_407:\n        /* \"contracts/vaults/PlexusVaultNative.sol\":4323:4365  shares = (_amount * totalSupply()) / _pool */\n      swap1\n      pop\n        /* \"contracts/vaults/PlexusVaultNative.sol\":4238:4376  if (totalSupply() == 0) {... */\n    tag_404:\n        /* \"contracts/vaults/PlexusVaultNative.sol\":4385:4410  _mint(msg.sender, shares) */\n      tag_408\n        /* \"contracts/vaults/PlexusVaultNative.sol\":4391:4401  msg.sender */\n      caller\n        /* \"contracts/vaults/PlexusVaultNative.sol\":4403:4409  shares */\n      dup3\n        /* \"contracts/vaults/PlexusVaultNative.sol\":4385:4390  _mint */\n      tag_409\n        /* \"contracts/vaults/PlexusVaultNative.sol\":4385:4410  _mint(msg.sender, shares) */\n      jump\t// in\n    tag_408:\n        /* \"@openzeppelin/contracts-upgradeable/security/ReentrancyGuardUpgradeable.sol\":2557:2558  _ */\n      pop\n      pop\n      pop\n        /* \"@openzeppelin/contracts-upgradeable/security/ReentrancyGuardUpgradeable.sol\":2568:2588  _nonReentrantAfter() */\n      tag_410\n        /* \"@openzeppelin/contracts-upgradeable/security/ReentrancyGuardUpgradeable.sol\":1808:1809  1 */\n      0x01\n        /* \"@openzeppelin/contracts-upgradeable/security/ReentrancyGuardUpgradeable.sol\":3074:3081  _status */\n      0x97\n        /* \"@openzeppelin/contracts-upgradeable/security/ReentrancyGuardUpgradeable.sol\":3074:3096  _status = _NOT_ENTERED */\n      sstore\n        /* \"@openzeppelin/contracts-upgradeable/security/ReentrancyGuardUpgradeable.sol\":2894:3103  function _nonReentrantAfter() private {... */\n      jump\n        /* \"@openzeppelin/contracts-upgradeable/security/ReentrancyGuardUpgradeable.sol\":2568:2588  _nonReentrantAfter() */\n    tag_410:\n        /* \"contracts/vaults/PlexusVaultNative.sol\":3880:4417  function deposit(uint _amount) public nonReentrant {... */\n      pop\n      jump\t// out\n        /* \"contracts/vaults/PlexusVaultNative.sol\":5321:5466  function earn() public {... */\n    tag_163:\n        /* \"contracts/vaults/PlexusVaultNative.sol\":5354:5363  uint _bal */\n      0x00\n        /* \"contracts/vaults/PlexusVaultNative.sol\":5366:5377  available() */\n      tag_413\n        /* \"contracts/vaults/PlexusVaultNative.sol\":5366:5375  available */\n      tag_93\n        /* \"contracts/vaults/PlexusVaultNative.sol\":5366:5377  available() */\n      jump\t// in\n    tag_413:\n        /* \"contracts/vaults/PlexusVaultNative.sol\":5415:5423  strategy */\n      sload(0xcb)\n        /* \"contracts/vaults/PlexusVaultNative.sol\":5354:5377  uint _bal = available() */\n      swap1\n      swap2\n      pop\n        /* \"contracts/vaults/PlexusVaultNative.sol\":5387:5431  want().safeTransfer(address(strategy), _bal) */\n      tag_414\n      swap1\n      sub(shl(0xa0, 0x01), 0x01)\n        /* \"contracts/vaults/PlexusVaultNative.sol\":5415:5423  strategy */\n      and\n        /* \"contracts/vaults/PlexusVaultNative.sol\":5354:5377  uint _bal = available() */\n      dup3\n        /* \"contracts/vaults/PlexusVaultNative.sol\":5387:5393  want() */\n      tag_249\n        /* \"contracts/vaults/PlexusVaultNative.sol\":5387:5391  want */\n      tag_64\n        /* \"contracts/vaults/PlexusVaultNative.sol\":5387:5393  want() */\n      jump\t// in\n        /* \"contracts/vaults/PlexusVaultNative.sol\":5387:5431  want().safeTransfer(address(strategy), _bal) */\n    tag_414:\n        /* \"contracts/vaults/PlexusVaultNative.sol\":5441:5449  strategy */\n      0xcb\n      0x00\n      swap1\n      sload\n      swap1\n      0x0100\n      exp\n      swap1\n      div\n      sub(shl(0xa0, 0x01), 0x01)\n      and\n      sub(shl(0xa0, 0x01), 0x01)\n        /* \"contracts/vaults/PlexusVaultNative.sol\":5441:5457  strategy.deposit */\n      and\n      0xd0e30db0\n        /* \"contracts/vaults/PlexusVaultNative.sol\":5441:5459  strategy.deposit() */\n      mload(0x40)\n      dup2\n      0xffffffff\n      and\n      0xe0\n      shl\n      dup2\n      mstore\n      0x04\n      add\n      0x00\n      mload(0x40)\n      dup1\n      dup4\n      sub\n      dup2\n      0x00\n      dup8\n      dup1\n      extcodesize\n      iszero\n      dup1\n      iszero\n      tag_416\n      jumpi\n      0x00\n      dup1\n      revert\n    tag_416:\n      pop\n      gas\n      call\n      iszero\n      dup1\n      iszero\n      tag_284\n      jumpi\n      returndatasize\n      0x00\n      dup1\n      returndatacopy\n      revert(0x00, returndatasize)\n        /* \"contracts/vaults/PlexusVaultNative.sol\":4586:5160  function depositNative() public payable nonReentrant {... */\n    tag_165:\n        /* \"@openzeppelin/contracts-upgradeable/security/ReentrancyGuardUpgradeable.sol\":2526:2547  _nonReentrantBefore() */\n      tag_420\n        /* \"@openzeppelin/contracts-upgradeable/security/ReentrancyGuardUpgradeable.sol\":2526:2545  _nonReentrantBefore */\n      tag_390\n        /* \"@openzeppelin/contracts-upgradeable/security/ReentrancyGuardUpgradeable.sol\":2526:2547  _nonReentrantBefore() */\n      jump\t// in\n    tag_420:\n        /* \"contracts/vaults/PlexusVaultNative.sol\":4649:4657  strategy */\n      0xcb\n      0x00\n      swap1\n      sload\n      swap1\n      0x0100\n      exp\n      swap1\n      div\n      sub(shl(0xa0, 0x01), 0x01)\n      and\n      sub(shl(0xa0, 0x01), 0x01)\n        /* \"contracts/vaults/PlexusVaultNative.sol\":4649:4671  strategy.beforeDeposit */\n      and\n      0x573fef0a\n        /* \"contracts/vaults/PlexusVaultNative.sol\":4649:4673  strategy.beforeDeposit() */\n      mload(0x40)\n      dup2\n      0xffffffff\n      and\n      0xe0\n      shl\n      dup2\n      mstore\n      0x04\n      add\n      0x00\n      mload(0x40)\n      dup1\n      dup4\n      sub\n      dup2\n      0x00\n      dup8\n      dup1\n      extcodesize\n      iszero\n      dup1\n      iszero\n      tag_422\n      jumpi\n      0x00\n      dup1\n      revert\n    tag_422:\n      pop\n      gas\n      call\n      iszero\n      dup1\n      iszero\n      tag_424\n      jumpi\n      returndatasize\n      0x00\n      dup1\n      returndatacopy\n      revert(0x00, returndatasize)\n    tag_424:\n      pop\n      pop\n      pop\n      pop\n        /* \"contracts/vaults/PlexusVaultNative.sol\":4684:4697  uint256 _pool */\n      0x00\n        /* \"contracts/vaults/PlexusVaultNative.sol\":4700:4709  balance() */\n      tag_425\n        /* \"contracts/vaults/PlexusVaultNative.sol\":4700:4707  balance */\n      tag_155\n        /* \"contracts/vaults/PlexusVaultNative.sol\":4700:4709  balance() */\n      jump\t// in\n    tag_425:\n        /* \"contracts/vaults/PlexusVaultNative.sol\":4684:4709  uint256 _pool = balance() */\n      swap1\n      pop\n        /* \"contracts/vaults/PlexusVaultNative.sol\":4737:4746  msg.value */\n      callvalue\n        /* \"contracts/vaults/PlexusVaultNative.sol\":4779:4785  want() */\n      tag_426\n        /* \"contracts/vaults/PlexusVaultNative.sol\":4779:4783  want */\n      tag_64\n        /* \"contracts/vaults/PlexusVaultNative.sol\":4779:4785  want() */\n      jump\t// in\n    tag_426:\n      sub(shl(0xa0, 0x01), 0x01)\n        /* \"contracts/vaults/PlexusVaultNative.sol\":4756:4795  IWrappedNative(address(want())).deposit */\n      and\n      0xd0e30db0\n        /* \"contracts/vaults/PlexusVaultNative.sol\":4803:4810  _amount */\n      dup3\n        /* \"contracts/vaults/PlexusVaultNative.sol\":4756:4813  IWrappedNative(address(want())).deposit{value: _amount}() */\n      mload(0x40)\n      dup3\n      0xffffffff\n      and\n      0xe0\n      shl\n      dup2\n      mstore\n      0x04\n      add\n      0x00\n      mload(0x40)\n      dup1\n      dup4\n      sub\n      dup2\n      dup6\n      dup9\n      dup1\n      extcodesize\n      iszero\n      dup1\n      iszero\n      tag_427\n      jumpi\n      0x00\n      dup1\n      revert\n    tag_427:\n      pop\n      gas\n      call\n      iszero\n      dup1\n      iszero\n      tag_429\n      jumpi\n      returndatasize\n      0x00\n      dup1\n      returndatacopy\n      revert(0x00, returndatasize)\n    tag_429:\n      pop\n      pop\n      pop\n      pop\n      pop\n        /* \"contracts/vaults/PlexusVaultNative.sol\":4823:4829  earn() */\n      tag_430\n        /* \"contracts/vaults/PlexusVaultNative.sol\":4823:4827  earn */\n      tag_163\n        /* \"contracts/vaults/PlexusVaultNative.sol\":4823:4829  earn() */\n      jump\t// in\n    tag_430:\n        /* \"contracts/vaults/PlexusVaultNative.sol\":4839:4853  uint256 _after */\n      0x00\n        /* \"contracts/vaults/PlexusVaultNative.sol\":4856:4865  balance() */\n      tag_431\n        /* \"contracts/vaults/PlexusVaultNative.sol\":4856:4863  balance */\n      tag_155\n        /* \"contracts/vaults/PlexusVaultNative.sol\":4856:4865  balance() */\n      jump\t// in\n    tag_431:\n        /* \"contracts/vaults/PlexusVaultNative.sol\":4839:4865  uint256 _after = balance() */\n      swap1\n      pop\n        /* \"contracts/vaults/PlexusVaultNative.sol\":4885:4899  _after - _pool */\n      tag_432\n        /* \"contracts/vaults/PlexusVaultNative.sol\":4894:4899  _pool */\n      dup4\n        /* \"contracts/vaults/PlexusVaultNative.sol\":4839:4865  uint256 _after = balance() */\n      dup3\n        /* \"contracts/vaults/PlexusVaultNative.sol\":4885:4899  _after - _pool */\n      tag_233\n      jump\t// in\n    tag_432:\n        /* \"contracts/vaults/PlexusVaultNative.sol\":4875:4899  _amount = _after - _pool */\n      swap2\n      pop\n        /* \"contracts/vaults/PlexusVaultNative.sol\":4953:4967  uint256 shares */\n      0x00\n        /* \"contracts/vaults/PlexusVaultNative.sol\":4985:4998  totalSupply() */\n      tag_433\n        /* \"@openzeppelin/contracts-upgradeable/token/ERC20/ERC20Upgradeable.sol\":3700:3712  _totalSupply */\n      sload(0x35)\n      swap1\n        /* \"@openzeppelin/contracts-upgradeable/token/ERC20/ERC20Upgradeable.sol\":3613:3719  function totalSupply() public view virtual override returns (uint256) {... */\n      jump\n        /* \"contracts/vaults/PlexusVaultNative.sol\":4985:4998  totalSupply() */\n    tag_433:\n        /* \"contracts/vaults/PlexusVaultNative.sol\":4981:5119  if (totalSupply() == 0) {... */\n      tag_434\n      jumpi\n      pop\n        /* \"contracts/vaults/PlexusVaultNative.sol\":5028:5035  _amount */\n      dup2\n        /* \"contracts/vaults/PlexusVaultNative.sol\":4981:5119  if (totalSupply() == 0) {... */\n      jump(tag_435)\n    tag_434:\n        /* \"contracts/vaults/PlexusVaultNative.sol\":5103:5108  _pool */\n      dup4\n        /* \"contracts/vaults/PlexusVaultNative.sol\":5086:5099  totalSupply() */\n      tag_436\n        /* \"@openzeppelin/contracts-upgradeable/token/ERC20/ERC20Upgradeable.sol\":3700:3712  _totalSupply */\n      sload(0x35)\n      swap1\n        /* \"@openzeppelin/contracts-upgradeable/token/ERC20/ERC20Upgradeable.sol\":3613:3719  function totalSupply() public view virtual override returns (uint256) {... */\n      jump\n        /* \"contracts/vaults/PlexusVaultNative.sol\":5086:5099  totalSupply() */\n    tag_436:\n        /* \"contracts/vaults/PlexusVaultNative.sol\":5076:5099  _amount * totalSupply() */\n      tag_437\n      swap1\n        /* \"contracts/vaults/PlexusVaultNative.sol\":5076:5083  _amount */\n      dup6\n        /* \"contracts/vaults/PlexusVaultNative.sol\":5076:5099  _amount * totalSupply() */\n      tag_219\n      jump\t// in\n    tag_437:\n        /* \"contracts/vaults/PlexusVaultNative.sol\":5075:5108  (_amount * totalSupply()) / _pool */\n      tag_438\n      swap2\n      swap1\n      tag_221\n      jump\t// in\n    tag_438:\n        /* \"contracts/vaults/PlexusVaultNative.sol\":5066:5108  shares = (_amount * totalSupply()) / _pool */\n      swap1\n      pop\n        /* \"contracts/vaults/PlexusVaultNative.sol\":4981:5119  if (totalSupply() == 0) {... */\n    tag_435:\n        /* \"contracts/vaults/PlexusVaultNative.sol\":5128:5153  _mint(msg.sender, shares) */\n      tag_439\n        /* \"contracts/vaults/PlexusVaultNative.sol\":5134:5144  msg.sender */\n      caller\n        /* \"contracts/vaults/PlexusVaultNative.sol\":5146:5152  shares */\n      dup3\n        /* \"contracts/vaults/PlexusVaultNative.sol\":5128:5133  _mint */\n      tag_409\n        /* \"contracts/vaults/PlexusVaultNative.sol\":5128:5153  _mint(msg.sender, shares) */\n      jump\t// in\n    tag_439:\n        /* \"@openzeppelin/contracts-upgradeable/security/ReentrancyGuardUpgradeable.sol\":2557:2558  _ */\n      pop\n      pop\n      pop\n      pop\n        /* \"@openzeppelin/contracts-upgradeable/security/ReentrancyGuardUpgradeable.sol\":2568:2588  _nonReentrantAfter() */\n      tag_258\n        /* \"@openzeppelin/contracts-upgradeable/security/ReentrancyGuardUpgradeable.sol\":1808:1809  1 */\n      0x01\n        /* \"@openzeppelin/contracts-upgradeable/security/ReentrancyGuardUpgradeable.sol\":3074:3081  _status */\n      0x97\n        /* \"@openzeppelin/contracts-upgradeable/security/ReentrancyGuardUpgradeable.sol\":3074:3096  _status = _NOT_ENTERED */\n      sstore\n        /* \"@openzeppelin/contracts-upgradeable/security/ReentrancyGuardUpgradeable.sol\":2894:3103  function _nonReentrantAfter() private {... */\n      jump\n        /* \"@openzeppelin/contracts-upgradeable/token/ERC20/ERC20Upgradeable.sol\":4345:4494  function allowance(address owner, address spender) public view virtual override returns (uint256) {... */\n    tag_170:\n      sub(shl(0xa0, 0x01), 0x01)\n        /* \"@openzeppelin/contracts-upgradeable/token/ERC20/ERC20Upgradeable.sol\":4460:4478  _allowances[owner] */\n      swap2\n      dup3\n      and\n        /* \"@openzeppelin/contracts-upgradeable/token/ERC20/ERC20Upgradeable.sol\":4434:4441  uint256 */\n      0x00\n        /* \"@openzeppelin/contracts-upgradeable/token/ERC20/ERC20Upgradeable.sol\":4460:4478  _allowances[owner] */\n      swap1\n      dup2\n      mstore\n        /* \"@openzeppelin/contracts-upgradeable/token/ERC20/ERC20Upgradeable.sol\":4460:4471  _allowances */\n      0x34\n        /* \"@openzeppelin/contracts-upgradeable/token/ERC20/ERC20Upgradeable.sol\":4460:4478  _allowances[owner] */\n      0x20\n      swap1\n      dup2\n      mstore\n      0x40\n      dup1\n      dup4\n      keccak256\n        /* \"@openzeppelin/contracts-upgradeable/token/ERC20/ERC20Upgradeable.sol\":4460:4487  _allowances[owner][spender] */\n      swap4\n      swap1\n      swap5\n      and\n      dup3\n      mstore\n      swap2\n      swap1\n      swap2\n      mstore\n      keccak256\n      sload\n      swap1\n        /* \"@openzeppelin/contracts-upgradeable/token/ERC20/ERC20Upgradeable.sol\":4345:4494  function allowance(address owner, address spender) public view virtual override returns (uint256) {... */\n      jump\t// out\n        /* \"contracts/vaults/PlexusVaultNative.sol\":3599:3684  function depositAll() external {... */\n    tag_174:\n        /* \"contracts/vaults/PlexusVaultNative.sol\":3640:3677  deposit(want().balanceOf(msg.sender)) */\n      tag_258\n        /* \"contracts/vaults/PlexusVaultNative.sol\":3648:3654  want() */\n      tag_444\n        /* \"contracts/vaults/PlexusVaultNative.sol\":3648:3652  want */\n      tag_64\n        /* \"contracts/vaults/PlexusVaultNative.sol\":3648:3654  want() */\n      jump\t// in\n    tag_444:\n        /* \"contracts/vaults/PlexusVaultNative.sol\":3648:3676  want().balanceOf(msg.sender) */\n      mload(0x40)\n      shl(0xe0, 0x70a08231)\n      dup2\n      mstore\n        /* \"contracts/vaults/PlexusVaultNative.sol\":3665:3675  msg.sender */\n      caller\n        /* \"contracts/vaults/PlexusVaultNative.sol\":3648:3676  want().balanceOf(msg.sender) */\n      0x04\n      dup3\n      add\n        /* \"#utility.yul\":4703:4754   */\n      mstore\n      sub(shl(0xa0, 0x01), 0x01)\n        /* \"contracts/vaults/PlexusVaultNative.sol\":3648:3664  want().balanceOf */\n      swap2\n      swap1\n      swap2\n      and\n      swap1\n      0x70a08231\n      swap1\n        /* \"#utility.yul\":4676:4694   */\n      0x24\n      add\n        /* \"contracts/vaults/PlexusVaultNative.sol\":3648:3676  want().balanceOf(msg.sender) */\n      0x20\n      mload(0x40)\n      dup1\n      dup4\n      sub\n      dup2\n      dup7\n      dup1\n      extcodesize\n      iszero\n      dup1\n      iszero\n      tag_446\n      jumpi\n      0x00\n      dup1\n      revert\n    tag_446:\n      pop\n      gas\n      staticcall\n      iszero\n      dup1\n      iszero\n      tag_448\n      jumpi\n      returndatasize\n      0x00\n      dup1\n      returndatacopy\n      revert(0x00, returndatasize)\n    tag_448:\n      pop\n      pop\n      pop\n      pop\n      mload(0x40)\n      returndatasize\n      not(0x1f)\n      0x1f\n      dup3\n      add\n      and\n      dup3\n      add\n      dup1\n      0x40\n      mstore\n      pop\n      dup2\n      add\n      swap1\n      tag_159\n      swap2\n      swap1\n      tag_230\n      jump\t// in\n        /* \"contracts/vaults/PlexusVaultNative.sol\":8807:9079  function inCaseTokensGetStuck(address _token) external onlyOwner {... */\n    tag_178:\n        /* \"@openzeppelin/contracts-upgradeable/access/OwnableUpgradeable.sol\":1355:1368  _checkOwner() */\n      tag_451\n        /* \"@openzeppelin/contracts-upgradeable/access/OwnableUpgradeable.sol\":1355:1366  _checkOwner */\n      tag_289\n        /* \"@openzeppelin/contracts-upgradeable/access/OwnableUpgradeable.sol\":1355:1368  _checkOwner() */\n      jump\t// in\n    tag_451:\n        /* \"contracts/vaults/PlexusVaultNative.sol\":8908:8914  want() */\n      tag_453\n        /* \"contracts/vaults/PlexusVaultNative.sol\":8908:8912  want */\n      tag_64\n        /* \"contracts/vaults/PlexusVaultNative.sol\":8908:8914  want() */\n      jump\t// in\n    tag_453:\n      sub(shl(0xa0, 0x01), 0x01)\n        /* \"contracts/vaults/PlexusVaultNative.sol\":8890:8915  _token != address(want()) */\n      and\n        /* \"contracts/vaults/PlexusVaultNative.sol\":8890:8896  _token */\n      dup2\n      sub(shl(0xa0, 0x01), 0x01)\n        /* \"contracts/vaults/PlexusVaultNative.sol\":8890:8915  _token != address(want()) */\n      and\n      eq\n      iszero\n        /* \"contracts/vaults/PlexusVaultNative.sol\":8882:8926  require(_token != address(want()), \"!token\") */\n      tag_454\n      jumpi\n      mload(0x40)\n      shl(0xe5, 0x461bcd)\n      dup2\n      mstore\n        /* \"#utility.yul\":10003:10005   */\n      0x20\n        /* \"contracts/vaults/PlexusVaultNative.sol\":8882:8926  require(_token != address(want()), \"!token\") */\n      0x04\n      dup3\n      add\n        /* \"#utility.yul\":9985:10006   */\n      mstore\n        /* \"#utility.yul\":10042:10043   */\n      0x06\n        /* \"#utility.yul\":10022:10040   */\n      0x24\n      dup3\n      add\n        /* \"#utility.yul\":10015:10044   */\n      mstore\n      shl(0xd1, 0x10ba37b5b2b7)\n        /* \"#utility.yul\":10060:10078   */\n      0x44\n      dup3\n      add\n        /* \"#utility.yul\":10053:10089   */\n      mstore\n        /* \"#utility.yul\":10106:10124   */\n      0x64\n      add\n        /* \"contracts/vaults/PlexusVaultNative.sol\":8882:8926  require(_token != address(want()), \"!token\") */\n      tag_274\n        /* \"#utility.yul\":9975:10130   */\n      jump\n        /* \"contracts/vaults/PlexusVaultNative.sol\":8882:8926  require(_token != address(want()), \"!token\") */\n    tag_454:\n        /* \"contracts/vaults/PlexusVaultNative.sol\":8954:9004  IERC20Upgradeable(_token).balanceOf(address(this)) */\n      mload(0x40)\n      shl(0xe0, 0x70a08231)\n      dup2\n      mstore\n        /* \"contracts/vaults/PlexusVaultNative.sol\":8998:9002  this */\n      address\n        /* \"contracts/vaults/PlexusVaultNative.sol\":8954:9004  IERC20Upgradeable(_token).balanceOf(address(this)) */\n      0x04\n      dup3\n      add\n        /* \"#utility.yul\":4703:4754   */\n      mstore\n        /* \"contracts/vaults/PlexusVaultNative.sol\":8937:8951  uint256 amount */\n      0x00\n      swap1\n      sub(shl(0xa0, 0x01), 0x01)\n        /* \"contracts/vaults/PlexusVaultNative.sol\":8954:8989  IERC20Upgradeable(_token).balanceOf */\n      dup4\n      and\n      swap1\n      0x70a08231\n      swap1\n        /* \"#utility.yul\":4676:4694   */\n      0x24\n      add\n        /* \"contracts/vaults/PlexusVaultNative.sol\":8954:9004  IERC20Upgradeable(_token).balanceOf(address(this)) */\n      0x20\n      mload(0x40)\n      dup1\n      dup4\n      sub\n      dup2\n      dup7\n      dup1\n      extcodesize\n      iszero\n      dup1\n      iszero\n      tag_458\n      jumpi\n      0x00\n      dup1\n      revert\n    tag_458:\n      pop\n      gas\n      staticcall\n      iszero\n      dup1\n      iszero\n      tag_460\n      jumpi\n      returndatasize\n      0x00\n      dup1\n      returndatacopy\n      revert(0x00, returndatasize)\n    tag_460:\n      pop\n      pop\n      pop\n      pop\n      mload(0x40)\n      returndatasize\n      not(0x1f)\n      0x1f\n      dup3\n      add\n      and\n      dup3\n      add\n      dup1\n      0x40\n      mstore\n      pop\n      dup2\n      add\n      swap1\n      tag_461\n      swap2\n      swap1\n      tag_230\n      jump\t// in\n    tag_461:\n        /* \"contracts/vaults/PlexusVaultNative.sol\":8937:9004  uint256 amount = IERC20Upgradeable(_token).balanceOf(address(this)) */\n      swap1\n      pop\n        /* \"contracts/vaults/PlexusVaultNative.sol\":9014:9072  IERC20Upgradeable(_token).safeTransfer(msg.sender, amount) */\n      tag_462\n      sub(shl(0xa0, 0x01), 0x01)\n        /* \"contracts/vaults/PlexusVaultNative.sol\":9014:9052  IERC20Upgradeable(_token).safeTransfer */\n      dup4\n      and\n        /* \"contracts/vaults/PlexusVaultNative.sol\":9053:9063  msg.sender */\n      caller\n        /* \"contracts/vaults/PlexusVaultNative.sol\":8937:9004  uint256 amount = IERC20Upgradeable(_token).balanceOf(address(this)) */\n      dup4\n        /* \"contracts/vaults/PlexusVaultNative.sol\":9014:9052  IERC20Upgradeable(_token).safeTransfer */\n      tag_250\n        /* \"contracts/vaults/PlexusVaultNative.sol\":9014:9072  IERC20Upgradeable(_token).safeTransfer(msg.sender, amount) */\n      jump\t// in\n    tag_462:\n        /* \"@openzeppelin/contracts-upgradeable/access/OwnableUpgradeable.sol\":1378:1379  _ */\n      pop\n        /* \"contracts/vaults/PlexusVaultNative.sol\":8807:9079  function inCaseTokensGetStuck(address _token) external onlyOwner {... */\n      pop\n      jump\t// out\n        /* \"contracts/vaults/PlexusVaultNative.sol\":8153:8664  function upgradeStrat() public onlyOwner {... */\n    tag_185:\n        /* \"@openzeppelin/contracts-upgradeable/access/OwnableUpgradeable.sol\":1355:1368  _checkOwner() */\n      tag_464\n        /* \"@openzeppelin/contracts-upgradeable/access/OwnableUpgradeable.sol\":1355:1366  _checkOwner */\n      tag_289\n        /* \"@openzeppelin/contracts-upgradeable/access/OwnableUpgradeable.sol\":1355:1368  _checkOwner() */\n      jump\t// in\n    tag_464:\n        /* \"contracts/vaults/PlexusVaultNative.sol\":8212:8226  stratCandidate */\n      0xc9\n        /* \"contracts/vaults/PlexusVaultNative.sol\":8212:8241  stratCandidate.implementation */\n      sload\n      sub(shl(0xa0, 0x01), 0x01)\n      and\n        /* \"contracts/vaults/PlexusVaultNative.sol\":8204:8281  require(stratCandidate.implementation != address(0), \"There is no candidate\") */\n      tag_466\n      jumpi\n      mload(0x40)\n      shl(0xe5, 0x461bcd)\n      dup2\n      mstore\n        /* \"#utility.yul\":12666:12668   */\n      0x20\n        /* \"contracts/vaults/PlexusVaultNative.sol\":8204:8281  require(stratCandidate.implementation != address(0), \"There is no candidate\") */\n      0x04\n      dup3\n      add\n        /* \"#utility.yul\":12648:12669   */\n      mstore\n        /* \"#utility.yul\":12705:12707   */\n      0x15\n        /* \"#utility.yul\":12685:12703   */\n      0x24\n      dup3\n      add\n        /* \"#utility.yul\":12678:12708   */\n      mstore\n      shl(0x58, 0x5468657265206973206e6f2063616e646964617465)\n        /* \"#utility.yul\":12724:12742   */\n      0x44\n      dup3\n      add\n        /* \"#utility.yul\":12717:12768   */\n      mstore\n        /* \"#utility.yul\":12785:12803   */\n      0x64\n      add\n        /* \"contracts/vaults/PlexusVaultNative.sol\":8204:8281  require(stratCandidate.implementation != address(0), \"There is no candidate\") */\n      tag_274\n        /* \"#utility.yul\":12638:12809   */\n      jump\n        /* \"contracts/vaults/PlexusVaultNative.sol\":8204:8281  require(stratCandidate.implementation != address(0), \"There is no candidate\") */\n    tag_466:\n        /* \"contracts/vaults/PlexusVaultNative.sol\":8329:8342  approvalDelay */\n      sload(0xcc)\n        /* \"contracts/vaults/PlexusVaultNative.sol\":8299:8326  stratCandidate.proposedTime */\n      sload(0xca)\n        /* \"contracts/vaults/PlexusVaultNative.sol\":8345:8360  block.timestamp */\n      timestamp\n      swap2\n        /* \"contracts/vaults/PlexusVaultNative.sol\":8299:8342  stratCandidate.proposedTime + approvalDelay */\n      tag_469\n      swap2\n      tag_247\n      jump\t// in\n    tag_469:\n        /* \"contracts/vaults/PlexusVaultNative.sol\":8299:8360  stratCandidate.proposedTime + approvalDelay < block.timestamp */\n      lt\n        /* \"contracts/vaults/PlexusVaultNative.sol\":8291:8385  require(stratCandidate.proposedTime + approvalDelay < block.timestamp, \"Delay has not passed\") */\n      tag_470\n      jumpi\n      mload(0x40)\n      shl(0xe5, 0x461bcd)\n      dup2\n      mstore\n        /* \"#utility.yul\":9654:9656   */\n      0x20\n        /* \"contracts/vaults/PlexusVaultNative.sol\":8291:8385  require(stratCandidate.proposedTime + approvalDelay < block.timestamp, \"Delay has not passed\") */\n      0x04\n      dup3\n      add\n        /* \"#utility.yul\":9636:9657   */\n      mstore\n        /* \"#utility.yul\":9693:9695   */\n      0x14\n        /* \"#utility.yul\":9673:9691   */\n      0x24\n      dup3\n      add\n        /* \"#utility.yul\":9666:9696   */\n      mstore\n      shl(0x62, 0x11195b185e481a185cc81b9bdd081c185cdcd959)\n        /* \"#utility.yul\":9712:9730   */\n      0x44\n      dup3\n      add\n        /* \"#utility.yul\":9705:9755   */\n      mstore\n        /* \"#utility.yul\":9772:9790   */\n      0x64\n      add\n        /* \"contracts/vaults/PlexusVaultNative.sol\":8291:8385  require(stratCandidate.proposedTime + approvalDelay < block.timestamp, \"Delay has not passed\") */\n      tag_274\n        /* \"#utility.yul\":9626:9796   */\n      jump\n        /* \"contracts/vaults/PlexusVaultNative.sol\":8291:8385  require(stratCandidate.proposedTime + approvalDelay < block.timestamp, \"Delay has not passed\") */\n    tag_470:\n        /* \"contracts/vaults/PlexusVaultNative.sol\":8414:8428  stratCandidate */\n      0xc9\n        /* \"contracts/vaults/PlexusVaultNative.sol\":8414:8443  stratCandidate.implementation */\n      sload\n        /* \"contracts/vaults/PlexusVaultNative.sol\":8401:8444  UpgradeStrat(stratCandidate.implementation) */\n      mload(0x40)\n      sub(shl(0xa0, 0x01), 0x01)\n        /* \"contracts/vaults/PlexusVaultNative.sol\":8414:8443  stratCandidate.implementation */\n      swap1\n      swap2\n      and\n        /* \"#utility.yul\":4703:4754   */\n      dup2\n      mstore\n        /* \"contracts/vaults/PlexusVaultNative.sol\":8401:8444  UpgradeStrat(stratCandidate.implementation) */\n      0x7f37d440e85aba7fbf641c4bda5ca4ef669a80bffaacde2aa8d9feb1b048c82c\n      swap1\n        /* \"#utility.yul\":4691:4693   */\n      0x20\n        /* \"#utility.yul\":4676:4694   */\n      add\n        /* \"contracts/vaults/PlexusVaultNative.sol\":8401:8444  UpgradeStrat(stratCandidate.implementation) */\n      mload(0x40)\n      dup1\n      swap2\n      sub\n      swap1\n      log1\n        /* \"contracts/vaults/PlexusVaultNative.sol\":8455:8463  strategy */\n      0xcb\n      0x00\n      swap1\n      sload\n      swap1\n      0x0100\n      exp\n      swap1\n      div\n      sub(shl(0xa0, 0x01), 0x01)\n      and\n      sub(shl(0xa0, 0x01), 0x01)\n        /* \"contracts/vaults/PlexusVaultNative.sol\":8455:8475  strategy.retireStrat */\n      and\n      0xfb617787\n        /* \"contracts/vaults/PlexusVaultNative.sol\":8455:8477  strategy.retireStrat() */\n      mload(0x40)\n      dup2\n      0xffffffff\n      and\n      0xe0\n      shl\n      dup2\n      mstore\n      0x04\n      add\n      0x00\n      mload(0x40)\n      dup1\n      dup4\n      sub\n      dup2\n      0x00\n      dup8\n      dup1\n      extcodesize\n      iszero\n      dup1\n      iszero\n      tag_474\n      jumpi\n      0x00\n      dup1\n      revert\n    tag_474:\n      pop\n      gas\n      call\n      iszero\n      dup1\n      iszero\n      tag_476\n      jumpi\n      returndatasize\n      0x00\n      dup1\n      returndatacopy\n      revert(0x00, returndatasize)\n    tag_476:\n      pop\n      pop\n        /* \"contracts/vaults/PlexusVaultNative.sol\":8508:8522  stratCandidate */\n      0xc9\n        /* \"contracts/vaults/PlexusVaultNative.sol\":8508:8537  stratCandidate.implementation */\n      dup1\n      sload\n        /* \"contracts/vaults/PlexusVaultNative.sol\":8487:8495  strategy */\n      0xcb\n        /* \"contracts/vaults/PlexusVaultNative.sol\":8487:8538  strategy = IStrategy(stratCandidate.implementation) */\n      dup1\n      sload\n      not(sub(shl(0xa0, 0x01), 0x01))\n      swap1\n      dup2\n      and\n      sub(shl(0xa0, 0x01), 0x01)\n        /* \"contracts/vaults/PlexusVaultNative.sol\":8508:8537  stratCandidate.implementation */\n      dup5\n      and\n        /* \"contracts/vaults/PlexusVaultNative.sol\":8487:8538  strategy = IStrategy(stratCandidate.implementation) */\n      or\n      swap1\n      swap2\n      sstore\n        /* \"contracts/vaults/PlexusVaultNative.sol\":8548:8590  stratCandidate.implementation = address(0) */\n      and\n      swap1\n      sstore\n      pop\n      pop\n        /* \"contracts/vaults/PlexusVaultNative.sol\":8630:8640  5000000000 */\n      0x012a05f200\n        /* \"contracts/vaults/PlexusVaultNative.sol\":8600:8627  stratCandidate.proposedTime */\n      0xca\n        /* \"contracts/vaults/PlexusVaultNative.sol\":8600:8640  stratCandidate.proposedTime = 5000000000 */\n      sstore\n        /* \"contracts/vaults/PlexusVaultNative.sol\":8651:8657  earn() */\n      tag_258\n        /* \"contracts/vaults/PlexusVaultNative.sol\":8651:8655  earn */\n      tag_163\n        /* \"contracts/vaults/PlexusVaultNative.sol\":8651:8657  earn() */\n      jump\t// in\n        /* \"@openzeppelin/contracts-upgradeable/access/OwnableUpgradeable.sol\":2335:2533  function transferOwnership(address newOwner) public virtual onlyOwner {... */\n    tag_189:\n        /* \"@openzeppelin/contracts-upgradeable/access/OwnableUpgradeable.sol\":1355:1368  _checkOwner() */\n      tag_479\n        /* \"@openzeppelin/contracts-upgradeable/access/OwnableUpgradeable.sol\":1355:1366  _checkOwner */\n      tag_289\n        /* \"@openzeppelin/contracts-upgradeable/access/OwnableUpgradeable.sol\":1355:1368  _checkOwner() */\n      jump\t// in\n    tag_479:\n      sub(shl(0xa0, 0x01), 0x01)\n        /* \"@openzeppelin/contracts-upgradeable/access/OwnableUpgradeable.sol\":2423:2445  newOwner != address(0) */\n      dup2\n      and\n        /* \"@openzeppelin/contracts-upgradeable/access/OwnableUpgradeable.sol\":2415:2488  require(newOwner != address(0), \"Ownable: new owner is the zero address\") */\n      tag_481\n      jumpi\n      mload(0x40)\n      shl(0xe5, 0x461bcd)\n      dup2\n      mstore\n        /* \"#utility.yul\":7672:7674   */\n      0x20\n        /* \"@openzeppelin/contracts-upgradeable/access/OwnableUpgradeable.sol\":2415:2488  require(newOwner != address(0), \"Ownable: new owner is the zero address\") */\n      0x04\n      dup3\n      add\n        /* \"#utility.yul\":7654:7675   */\n      mstore\n        /* \"#utility.yul\":7711:7713   */\n      0x26\n        /* \"#utility.yul\":7691:7709   */\n      0x24\n      dup3\n      add\n        /* \"#utility.yul\":7684:7714   */\n      mstore\n        /* \"#utility.yul\":7750:7784   */\n      0x4f776e61626c653a206e6577206f776e657220697320746865207a65726f2061\n        /* \"#utility.yul\":7730:7748   */\n      0x44\n      dup3\n      add\n        /* \"#utility.yul\":7723:7785   */\n      mstore\n      shl(0xd0, 0x646472657373)\n        /* \"#utility.yul\":7801:7819   */\n      0x64\n      dup3\n      add\n        /* \"#utility.yul\":7794:7830   */\n      mstore\n        /* \"#utility.yul\":7847:7866   */\n      0x84\n      add\n        /* \"@openzeppelin/contracts-upgradeable/access/OwnableUpgradeable.sol\":2415:2488  require(newOwner != address(0), \"Ownable: new owner is the zero address\") */\n      tag_274\n        /* \"#utility.yul\":7644:7872   */\n      jump\n        /* \"@openzeppelin/contracts-upgradeable/access/OwnableUpgradeable.sol\":2415:2488  require(newOwner != address(0), \"Ownable: new owner is the zero address\") */\n    tag_481:\n        /* \"@openzeppelin/contracts-upgradeable/access/OwnableUpgradeable.sol\":2498:2526  _transferOwnership(newOwner) */\n      tag_410\n        /* \"@openzeppelin/contracts-upgradeable/access/OwnableUpgradeable.sol\":2517:2525  newOwner */\n      dup2\n        /* \"@openzeppelin/contracts-upgradeable/access/OwnableUpgradeable.sol\":2498:2516  _transferOwnership */\n      tag_313\n        /* \"@openzeppelin/contracts-upgradeable/access/OwnableUpgradeable.sol\":2498:2526  _transferOwnership(newOwner) */\n      jump\t// in\n        /* \"@openzeppelin/contracts-upgradeable/token/ERC20/ERC20Upgradeable.sol\":10815:11155  function _approve(address owner, address spender, uint256 amount) internal virtual {... */\n    tag_201:\n      sub(shl(0xa0, 0x01), 0x01)\n        /* \"@openzeppelin/contracts-upgradeable/token/ERC20/ERC20Upgradeable.sol\":10916:10935  owner != address(0) */\n      dup4\n      and\n        /* \"@openzeppelin/contracts-upgradeable/token/ERC20/ERC20Upgradeable.sol\":10908:10976  require(owner != address(0), \"ERC20: approve from the zero address\") */\n      tag_487\n      jumpi\n      mload(0x40)\n      shl(0xe5, 0x461bcd)\n      dup2\n      mstore\n        /* \"#utility.yul\":13016:13018   */\n      0x20\n        /* \"@openzeppelin/contracts-upgradeable/token/ERC20/ERC20Upgradeable.sol\":10908:10976  require(owner != address(0), \"ERC20: approve from the zero address\") */\n      0x04\n      dup3\n      add\n        /* \"#utility.yul\":12998:13019   */\n      mstore\n        /* \"#utility.yul\":13055:13057   */\n      0x24\n        /* \"#utility.yul\":13035:13053   */\n      dup1\n      dup3\n      add\n        /* \"#utility.yul\":13028:13058   */\n      mstore\n        /* \"#utility.yul\":13094:13128   */\n      0x45524332303a20617070726f76652066726f6d20746865207a65726f20616464\n        /* \"#utility.yul\":13074:13092   */\n      0x44\n      dup3\n      add\n        /* \"#utility.yul\":13067:13129   */\n      mstore\n      shl(0xe0, 0x72657373)\n        /* \"#utility.yul\":13145:13163   */\n      0x64\n      dup3\n      add\n        /* \"#utility.yul\":13138:13172   */\n      mstore\n        /* \"#utility.yul\":13189:13208   */\n      0x84\n      add\n        /* \"@openzeppelin/contracts-upgradeable/token/ERC20/ERC20Upgradeable.sol\":10908:10976  require(owner != address(0), \"ERC20: approve from the zero address\") */\n      tag_274\n        /* \"#utility.yul\":12988:13214   */\n      jump\n        /* \"@openzeppelin/contracts-upgradeable/token/ERC20/ERC20Upgradeable.sol\":10908:10976  require(owner != address(0), \"ERC20: approve from the zero address\") */\n    tag_487:\n      sub(shl(0xa0, 0x01), 0x01)\n        /* \"@openzeppelin/contracts-upgradeable/token/ERC20/ERC20Upgradeable.sol\":10994:11015  spender != address(0) */\n      dup3\n      and\n        /* \"@openzeppelin/contracts-upgradeable/token/ERC20/ERC20Upgradeable.sol\":10986:11054  require(spender != address(0), \"ERC20: approve to the zero address\") */\n      tag_490\n      jumpi\n      mload(0x40)\n      shl(0xe5, 0x461bcd)\n      dup2\n      mstore\n        /* \"#utility.yul\":8079:8081   */\n      0x20\n        /* \"@openzeppelin/contracts-upgradeable/token/ERC20/ERC20Upgradeable.sol\":10986:11054  require(spender != address(0), \"ERC20: approve to the zero address\") */\n      0x04\n      dup3\n      add\n        /* \"#utility.yul\":8061:8082   */\n      mstore\n        /* \"#utility.yul\":8118:8120   */\n      0x22\n        /* \"#utility.yul\":8098:8116   */\n      0x24\n      dup3\n      add\n        /* \"#utility.yul\":8091:8121   */\n      mstore\n        /* \"#utility.yul\":8157:8191   */\n      0x45524332303a20617070726f766520746f20746865207a65726f206164647265\n        /* \"#utility.yul\":8137:8155   */\n      0x44\n      dup3\n      add\n        /* \"#utility.yul\":8130:8192   */\n      mstore\n      shl(0xf0, 0x7373)\n        /* \"#utility.yul\":8208:8226   */\n      0x64\n      dup3\n      add\n        /* \"#utility.yul\":8201:8233   */\n      mstore\n        /* \"#utility.yul\":8250:8269   */\n      0x84\n      add\n        /* \"@openzeppelin/contracts-upgradeable/token/ERC20/ERC20Upgradeable.sol\":10986:11054  require(spender != address(0), \"ERC20: approve to the zero address\") */\n      tag_274\n        /* \"#utility.yul\":8051:8275   */\n      jump\n        /* \"@openzeppelin/contracts-upgradeable/token/ERC20/ERC20Upgradeable.sol\":10986:11054  require(spender != address(0), \"ERC20: approve to the zero address\") */\n    tag_490:\n      sub(shl(0xa0, 0x01), 0x01)\n        /* \"@openzeppelin/contracts-upgradeable/token/ERC20/ERC20Upgradeable.sol\":11065:11083  _allowances[owner] */\n      dup4\n      dup2\n      and\n      0x00\n      dup2\n      dup2\n      mstore\n        /* \"@openzeppelin/contracts-upgradeable/token/ERC20/ERC20Upgradeable.sol\":11065:11076  _allowances */\n      0x34\n        /* \"@openzeppelin/contracts-upgradeable/token/ERC20/ERC20Upgradeable.sol\":11065:11083  _allowances[owner] */\n      0x20\n      swap1\n      dup2\n      mstore\n      0x40\n      dup1\n      dup4\n      keccak256\n        /* \"@openzeppelin/contracts-upgradeable/token/ERC20/ERC20Upgradeable.sol\":11065:11092  _allowances[owner][spender] */\n      swap5\n      dup8\n      and\n      dup1\n      dup5\n      mstore\n      swap5\n      dup3\n      mstore\n      swap2\n      dup3\n      swap1\n      keccak256\n        /* \"@openzeppelin/contracts-upgradeable/token/ERC20/ERC20Upgradeable.sol\":11065:11101  _allowances[owner][spender] = amount */\n      dup6\n      swap1\n      sstore\n        /* \"@openzeppelin/contracts-upgradeable/token/ERC20/ERC20Upgradeable.sol\":11116:11148  Approval(owner, spender, amount) */\n      swap1\n      mload\n        /* \"#utility.yul\":15672:15697   */\n      dup5\n      dup2\n      mstore\n        /* \"@openzeppelin/contracts-upgradeable/token/ERC20/ERC20Upgradeable.sol\":11116:11148  Approval(owner, spender, amount) */\n      0x8c5be1e5ebec7d5bd14f71427d1e84f3dd0314c0f7b2291e5b200ac8c7c3b925\n      swap2\n        /* \"#utility.yul\":15645:15663   */\n      add\n        /* \"@openzeppelin/contracts-upgradeable/token/ERC20/ERC20Upgradeable.sol\":11116:11148  Approval(owner, spender, amount) */\n      mload(0x40)\n      dup1\n      swap2\n      sub\n      swap1\n      log3\n        /* \"@openzeppelin/contracts-upgradeable/token/ERC20/ERC20Upgradeable.sol\":10815:11155  function _approve(address owner, address spender, uint256 amount) internal virtual {... */\n      pop\n      pop\n      pop\n      jump\t// out\n        /* \"@openzeppelin/contracts-upgradeable/token/ERC20/ERC20Upgradeable.sol\":11436:11847  function _spendAllowance(address owner, address spender, uint256 amount) internal virtual {... */\n    tag_212:\n        /* \"@openzeppelin/contracts-upgradeable/token/ERC20/ERC20Upgradeable.sol\":11536:11560  uint256 currentAllowance */\n      0x00\n        /* \"@openzeppelin/contracts-upgradeable/token/ERC20/ERC20Upgradeable.sol\":11563:11588  allowance(owner, spender) */\n      tag_495\n        /* \"@openzeppelin/contracts-upgradeable/token/ERC20/ERC20Upgradeable.sol\":11573:11578  owner */\n      dup5\n        /* \"@openzeppelin/contracts-upgradeable/token/ERC20/ERC20Upgradeable.sol\":11580:11587  spender */\n      dup5\n        /* \"@openzeppelin/contracts-upgradeable/token/ERC20/ERC20Upgradeable.sol\":11563:11572  allowance */\n      tag_170\n        /* \"@openzeppelin/contracts-upgradeable/token/ERC20/ERC20Upgradeable.sol\":11563:11588  allowance(owner, spender) */\n      jump\t// in\n    tag_495:\n        /* \"@openzeppelin/contracts-upgradeable/token/ERC20/ERC20Upgradeable.sol\":11536:11588  uint256 currentAllowance = allowance(owner, spender) */\n      swap1\n      pop\n      not(0x00)\n        /* \"@openzeppelin/contracts-upgradeable/token/ERC20/ERC20Upgradeable.sol\":11602:11618  currentAllowance */\n      dup2\n        /* \"@openzeppelin/contracts-upgradeable/token/ERC20/ERC20Upgradeable.sol\":11602:11639  currentAllowance != type(uint256).max */\n      eq\n        /* \"@openzeppelin/contracts-upgradeable/token/ERC20/ERC20Upgradeable.sol\":11598:11841  if (currentAllowance != type(uint256).max) {... */\n      tag_355\n      jumpi\n        /* \"@openzeppelin/contracts-upgradeable/token/ERC20/ERC20Upgradeable.sol\":11683:11689  amount */\n      dup2\n        /* \"@openzeppelin/contracts-upgradeable/token/ERC20/ERC20Upgradeable.sol\":11663:11679  currentAllowance */\n      dup2\n        /* \"@openzeppelin/contracts-upgradeable/token/ERC20/ERC20Upgradeable.sol\":11663:11689  currentAllowance >= amount */\n      lt\n      iszero\n        /* \"@openzeppelin/contracts-upgradeable/token/ERC20/ERC20Upgradeable.sol\":11655:11723  require(currentAllowance >= amount, \"ERC20: insufficient allowance\") */\n      tag_497\n      jumpi\n      mload(0x40)\n      shl(0xe5, 0x461bcd)\n      dup2\n      mstore\n        /* \"#utility.yul\":8482:8484   */\n      0x20\n        /* \"@openzeppelin/contracts-upgradeable/token/ERC20/ERC20Upgradeable.sol\":11655:11723  require(currentAllowance >= amount, \"ERC20: insufficient allowance\") */\n      0x04\n      dup3\n      add\n        /* \"#utility.yul\":8464:8485   */\n      mstore\n        /* \"#utility.yul\":8521:8523   */\n      0x1d\n        /* \"#utility.yul\":8501:8519   */\n      0x24\n      dup3\n      add\n        /* \"#utility.yul\":8494:8524   */\n      mstore\n        /* \"#utility.yul\":8560:8591   */\n      0x45524332303a20696e73756666696369656e7420616c6c6f77616e6365000000\n        /* \"#utility.yul\":8540:8558   */\n      0x44\n      dup3\n      add\n        /* \"#utility.yul\":8533:8592   */\n      mstore\n        /* \"#utility.yul\":8609:8627   */\n      0x64\n      add\n        /* \"@openzeppelin/contracts-upgradeable/token/ERC20/ERC20Upgradeable.sol\":11655:11723  require(currentAllowance >= amount, \"ERC20: insufficient allowance\") */\n      tag_274\n        /* \"#utility.yul\":8454:8633   */\n      jump\n        /* \"@openzeppelin/contracts-upgradeable/token/ERC20/ERC20Upgradeable.sol\":11655:11723  require(currentAllowance >= amount, \"ERC20: insufficient allowance\") */\n    tag_497:\n        /* \"@openzeppelin/contracts-upgradeable/token/ERC20/ERC20Upgradeable.sol\":11765:11816  _approve(owner, spender, currentAllowance - amount) */\n      tag_355\n        /* \"@openzeppelin/contracts-upgradeable/token/ERC20/ERC20Upgradeable.sol\":11774:11779  owner */\n      dup5\n        /* \"@openzeppelin/contracts-upgradeable/token/ERC20/ERC20Upgradeable.sol\":11781:11788  spender */\n      dup5\n        /* \"@openzeppelin/contracts-upgradeable/token/ERC20/ERC20Upgradeable.sol\":11809:11815  amount */\n      dup5\n        /* \"@openzeppelin/contracts-upgradeable/token/ERC20/ERC20Upgradeable.sol\":11790:11806  currentAllowance */\n      dup5\n        /* \"@openzeppelin/contracts-upgradeable/token/ERC20/ERC20Upgradeable.sol\":11790:11815  currentAllowance - amount */\n      sub\n        /* \"@openzeppelin/contracts-upgradeable/token/ERC20/ERC20Upgradeable.sol\":11765:11773  _approve */\n      tag_201\n        /* \"@openzeppelin/contracts-upgradeable/token/ERC20/ERC20Upgradeable.sol\":11765:11816  _approve(owner, spender, currentAllowance - amount) */\n      jump\t// in\n        /* \"@openzeppelin/contracts-upgradeable/token/ERC20/ERC20Upgradeable.sol\":7814:8602  function _transfer(address from, address to, uint256 amount) internal virtual {... */\n    tag_214:\n      sub(shl(0xa0, 0x01), 0x01)\n        /* \"@openzeppelin/contracts-upgradeable/token/ERC20/ERC20Upgradeable.sol\":7910:7928  from != address(0) */\n      dup4\n      and\n        /* \"@openzeppelin/contracts-upgradeable/token/ERC20/ERC20Upgradeable.sol\":7902:7970  require(from != address(0), \"ERC20: transfer from the zero address\") */\n      tag_502\n      jumpi\n      mload(0x40)\n      shl(0xe5, 0x461bcd)\n      dup2\n      mstore\n        /* \"#utility.yul\":12260:12262   */\n      0x20\n        /* \"@openzeppelin/contracts-upgradeable/token/ERC20/ERC20Upgradeable.sol\":7902:7970  require(from != address(0), \"ERC20: transfer from the zero address\") */\n      0x04\n      dup3\n      add\n        /* \"#utility.yul\":12242:12263   */\n      mstore\n        /* \"#utility.yul\":12299:12301   */\n      0x25\n        /* \"#utility.yul\":12279:12297   */\n      0x24\n      dup3\n      add\n        /* \"#utility.yul\":12272:12302   */\n      mstore\n        /* \"#utility.yul\":12338:12372   */\n      0x45524332303a207472616e736665722066726f6d20746865207a65726f206164\n        /* \"#utility.yul\":12318:12336   */\n      0x44\n      dup3\n      add\n        /* \"#utility.yul\":12311:12373   */\n      mstore\n      shl(0xd8, 0x6472657373)\n        /* \"#utility.yul\":12389:12407   */\n      0x64\n      dup3\n      add\n        /* \"#utility.yul\":12382:12417   */\n      mstore\n        /* \"#utility.yul\":12434:12453   */\n      0x84\n      add\n        /* \"@openzeppelin/contracts-upgradeable/token/ERC20/ERC20Upgradeable.sol\":7902:7970  require(from != address(0), \"ERC20: transfer from the zero address\") */\n      tag_274\n        /* \"#utility.yul\":12232:12459   */\n      jump\n        /* \"@openzeppelin/contracts-upgradeable/token/ERC20/ERC20Upgradeable.sol\":7902:7970  require(from != address(0), \"ERC20: transfer from the zero address\") */\n    tag_502:\n      sub(shl(0xa0, 0x01), 0x01)\n        /* \"@openzeppelin/contracts-upgradeable/token/ERC20/ERC20Upgradeable.sol\":7988:8004  to != address(0) */\n      dup3\n      and\n        /* \"@openzeppelin/contracts-upgradeable/token/ERC20/ERC20Upgradeable.sol\":7980:8044  require(to != address(0), \"ERC20: transfer to the zero address\") */\n      tag_505\n      jumpi\n      mload(0x40)\n      shl(0xe5, 0x461bcd)\n      dup2\n      mstore\n        /* \"#utility.yul\":6865:6867   */\n      0x20\n        /* \"@openzeppelin/contracts-upgradeable/token/ERC20/ERC20Upgradeable.sol\":7980:8044  require(to != address(0), \"ERC20: transfer to the zero address\") */\n      0x04\n      dup3\n      add\n        /* \"#utility.yul\":6847:6868   */\n      mstore\n        /* \"#utility.yul\":6904:6906   */\n      0x23\n        /* \"#utility.yul\":6884:6902   */\n      0x24\n      dup3\n      add\n        /* \"#utility.yul\":6877:6907   */\n      mstore\n        /* \"#utility.yul\":6943:6977   */\n      0x45524332303a207472616e7366657220746f20746865207a65726f2061646472\n        /* \"#utility.yul\":6923:6941   */\n      0x44\n      dup3\n      add\n        /* \"#utility.yul\":6916:6978   */\n      mstore\n      shl(0xe8, 0x657373)\n        /* \"#utility.yul\":6994:7012   */\n      0x64\n      dup3\n      add\n        /* \"#utility.yul\":6987:7020   */\n      mstore\n        /* \"#utility.yul\":7037:7056   */\n      0x84\n      add\n        /* \"@openzeppelin/contracts-upgradeable/token/ERC20/ERC20Upgradeable.sol\":7980:8044  require(to != address(0), \"ERC20: transfer to the zero address\") */\n      tag_274\n        /* \"#utility.yul\":6837:7062   */\n      jump\n        /* \"@openzeppelin/contracts-upgradeable/token/ERC20/ERC20Upgradeable.sol\":7980:8044  require(to != address(0), \"ERC20: transfer to the zero address\") */\n    tag_505:\n      sub(shl(0xa0, 0x01), 0x01)\n        /* \"@openzeppelin/contracts-upgradeable/token/ERC20/ERC20Upgradeable.sol\":8126:8141  _balances[from] */\n      dup4\n      and\n        /* \"@openzeppelin/contracts-upgradeable/token/ERC20/ERC20Upgradeable.sol\":8104:8123  uint256 fromBalance */\n      0x00\n        /* \"@openzeppelin/contracts-upgradeable/token/ERC20/ERC20Upgradeable.sol\":8126:8141  _balances[from] */\n      swap1\n      dup2\n      mstore\n        /* \"@openzeppelin/contracts-upgradeable/token/ERC20/ERC20Upgradeable.sol\":8126:8135  _balances */\n      0x33\n        /* \"@openzeppelin/contracts-upgradeable/token/ERC20/ERC20Upgradeable.sol\":8126:8141  _balances[from] */\n      0x20\n      mstore\n      0x40\n      swap1\n      keccak256\n      sload\n        /* \"@openzeppelin/contracts-upgradeable/token/ERC20/ERC20Upgradeable.sol\":8159:8180  fromBalance >= amount */\n      dup2\n      dup2\n      lt\n      iszero\n        /* \"@openzeppelin/contracts-upgradeable/token/ERC20/ERC20Upgradeable.sol\":8151:8223  require(fromBalance >= amount, \"ERC20: transfer amount exceeds balance\") */\n      tag_510\n      jumpi\n      mload(0x40)\n      shl(0xe5, 0x461bcd)\n      dup2\n      mstore\n        /* \"#utility.yul\":8840:8842   */\n      0x20\n        /* \"@openzeppelin/contracts-upgradeable/token/ERC20/ERC20Upgradeable.sol\":8151:8223  require(fromBalance >= amount, \"ERC20: transfer amount exceeds balance\") */\n      0x04\n      dup3\n      add\n        /* \"#utility.yul\":8822:8843   */\n      mstore\n        /* \"#utility.yul\":8879:8881   */\n      0x26\n        /* \"#utility.yul\":8859:8877   */\n      0x24\n      dup3\n      add\n        /* \"#utility.yul\":8852:8882   */\n      mstore\n        /* \"#utility.yul\":8918:8952   */\n      0x45524332303a207472616e7366657220616d6f756e7420657863656564732062\n        /* \"#utility.yul\":8898:8916   */\n      0x44\n      dup3\n      add\n        /* \"#utility.yul\":8891:8953   */\n      mstore\n      shl(0xd0, 0x616c616e6365)\n        /* \"#utility.yul\":8969:8987   */\n      0x64\n      dup3\n      add\n        /* \"#utility.yul\":8962:8998   */\n      mstore\n        /* \"#utility.yul\":9015:9034   */\n      0x84\n      add\n        /* \"@openzeppelin/contracts-upgradeable/token/ERC20/ERC20Upgradeable.sol\":8151:8223  require(fromBalance >= amount, \"ERC20: transfer amount exceeds balance\") */\n      tag_274\n        /* \"#utility.yul\":8812:9040   */\n      jump\n        /* \"@openzeppelin/contracts-upgradeable/token/ERC20/ERC20Upgradeable.sol\":8151:8223  require(fromBalance >= amount, \"ERC20: transfer amount exceeds balance\") */\n    tag_510:\n      sub(shl(0xa0, 0x01), 0x01)\n        /* \"@openzeppelin/contracts-upgradeable/token/ERC20/ERC20Upgradeable.sol\":8257:8272  _balances[from] */\n      dup1\n      dup6\n      and\n      0x00\n      dup2\n      dup2\n      mstore\n        /* \"@openzeppelin/contracts-upgradeable/token/ERC20/ERC20Upgradeable.sol\":8257:8266  _balances */\n      0x33\n        /* \"@openzeppelin/contracts-upgradeable/token/ERC20/ERC20Upgradeable.sol\":8257:8272  _balances[from] */\n      0x20\n      mstore\n      0x40\n      dup1\n      dup3\n      keccak256\n        /* \"@openzeppelin/contracts-upgradeable/token/ERC20/ERC20Upgradeable.sol\":8275:8295  fromBalance - amount */\n      dup7\n      dup7\n      sub\n        /* \"@openzeppelin/contracts-upgradeable/token/ERC20/ERC20Upgradeable.sol\":8257:8295  _balances[from] = fromBalance - amount */\n      swap1\n      sstore\n        /* \"@openzeppelin/contracts-upgradeable/token/ERC20/ERC20Upgradeable.sol\":8472:8485  _balances[to] */\n      swap3\n      dup7\n      and\n      dup1\n      dup3\n      mstore\n      swap1\n      dup4\n      swap1\n      keccak256\n        /* \"@openzeppelin/contracts-upgradeable/token/ERC20/ERC20Upgradeable.sol\":8472:8495  _balances[to] += amount */\n      dup1\n      sload\n      dup7\n      add\n      swap1\n      sstore\n        /* \"@openzeppelin/contracts-upgradeable/token/ERC20/ERC20Upgradeable.sol\":8521:8547  Transfer(from, to, amount) */\n      swap2\n      mload\n      0xddf252ad1be2c89b69c2b068fc378daa952ba7f163c4a11628f55a4df523b3ef\n      swap1\n      tag_513\n      swap1\n        /* \"@openzeppelin/contracts-upgradeable/token/ERC20/ERC20Upgradeable.sol\":8289:8295  amount */\n      dup7\n        /* \"#utility.yul\":15672:15697   */\n      dup2\n      mstore\n        /* \"#utility.yul\":15660:15662   */\n      0x20\n        /* \"#utility.yul\":15645:15663   */\n      add\n      swap1\n        /* \"#utility.yul\":15627:15703   */\n      jump\n        /* \"@openzeppelin/contracts-upgradeable/token/ERC20/ERC20Upgradeable.sol\":8521:8547  Transfer(from, to, amount) */\n    tag_513:\n      mload(0x40)\n      dup1\n      swap2\n      sub\n      swap1\n      log3\n        /* \"@openzeppelin/contracts-upgradeable/token/ERC20/ERC20Upgradeable.sol\":8558:8595  _afterTokenTransfer(from, to, amount) */\n      tag_355\n        /* \"contracts/vaults/PlexusVaultNative.sol\":6071:6598  function withdraw(uint256 _shares) public {... */\n      jump\n        /* \"@openzeppelin/contracts-upgradeable/token/ERC20/ERC20Upgradeable.sol\":9733:10392  function _burn(address account, uint256 amount) internal virtual {... */\n    tag_223:\n      sub(shl(0xa0, 0x01), 0x01)\n        /* \"@openzeppelin/contracts-upgradeable/token/ERC20/ERC20Upgradeable.sol\":9816:9837  account != address(0) */\n      dup3\n      and\n        /* \"@openzeppelin/contracts-upgradeable/token/ERC20/ERC20Upgradeable.sol\":9808:9875  require(account != address(0), \"ERC20: burn from the zero address\") */\n      tag_517\n      jumpi\n      mload(0x40)\n      shl(0xe5, 0x461bcd)\n      dup2\n      mstore\n        /* \"#utility.yul\":11858:11860   */\n      0x20\n        /* \"@openzeppelin/contracts-upgradeable/token/ERC20/ERC20Upgradeable.sol\":9808:9875  require(account != address(0), \"ERC20: burn from the zero address\") */\n      0x04\n      dup3\n      add\n        /* \"#utility.yul\":11840:11861   */\n      mstore\n        /* \"#utility.yul\":11897:11899   */\n      0x21\n        /* \"#utility.yul\":11877:11895   */\n      0x24\n      dup3\n      add\n        /* \"#utility.yul\":11870:11900   */\n      mstore\n        /* \"#utility.yul\":11936:11970   */\n      0x45524332303a206275726e2066726f6d20746865207a65726f20616464726573\n        /* \"#utility.yul\":11916:11934   */\n      0x44\n      dup3\n      add\n        /* \"#utility.yul\":11909:11971   */\n      mstore\n      shl(0xf8, 0x73)\n        /* \"#utility.yul\":11987:12005   */\n      0x64\n      dup3\n      add\n        /* \"#utility.yul\":11980:12011   */\n      mstore\n        /* \"#utility.yul\":12028:12047   */\n      0x84\n      add\n        /* \"@openzeppelin/contracts-upgradeable/token/ERC20/ERC20Upgradeable.sol\":9808:9875  require(account != address(0), \"ERC20: burn from the zero address\") */\n      tag_274\n        /* \"#utility.yul\":11830:12053   */\n      jump\n        /* \"@openzeppelin/contracts-upgradeable/token/ERC20/ERC20Upgradeable.sol\":9808:9875  require(account != address(0), \"ERC20: burn from the zero address\") */\n    tag_517:\n      sub(shl(0xa0, 0x01), 0x01)\n        /* \"@openzeppelin/contracts-upgradeable/token/ERC20/ERC20Upgradeable.sol\":9971:9989  _balances[account] */\n      dup3\n      and\n        /* \"@openzeppelin/contracts-upgradeable/token/ERC20/ERC20Upgradeable.sol\":9946:9968  uint256 accountBalance */\n      0x00\n        /* \"@openzeppelin/contracts-upgradeable/token/ERC20/ERC20Upgradeable.sol\":9971:9989  _balances[account] */\n      swap1\n      dup2\n      mstore\n        /* \"@openzeppelin/contracts-upgradeable/token/ERC20/ERC20Upgradeable.sol\":9971:9980  _balances */\n      0x33\n        /* \"@openzeppelin/contracts-upgradeable/token/ERC20/ERC20Upgradeable.sol\":9971:9989  _balances[account] */\n      0x20\n      mstore\n      0x40\n      swap1\n      keccak256\n      sload\n        /* \"@openzeppelin/contracts-upgradeable/token/ERC20/ERC20Upgradeable.sol\":10007:10031  accountBalance >= amount */\n      dup2\n      dup2\n      lt\n      iszero\n        /* \"@openzeppelin/contracts-upgradeable/token/ERC20/ERC20Upgradeable.sol\":9999:10070  require(accountBalance >= amount, \"ERC20: burn amount exceeds balance\") */\n      tag_521\n      jumpi\n      mload(0x40)\n      shl(0xe5, 0x461bcd)\n      dup2\n      mstore\n        /* \"#utility.yul\":7269:7271   */\n      0x20\n        /* \"@openzeppelin/contracts-upgradeable/token/ERC20/ERC20Upgradeable.sol\":9999:10070  require(accountBalance >= amount, \"ERC20: burn amount exceeds balance\") */\n      0x04\n      dup3\n      add\n        /* \"#utility.yul\":7251:7272   */\n      mstore\n        /* \"#utility.yul\":7308:7310   */\n      0x22\n        /* \"#utility.yul\":7288:7306   */\n      0x24\n      dup3\n      add\n        /* \"#utility.yul\":7281:7311   */\n      mstore\n        /* \"#utility.yul\":7347:7381   */\n      0x45524332303a206275726e20616d6f756e7420657863656564732062616c616e\n        /* \"#utility.yul\":7327:7345   */\n      0x44\n      dup3\n      add\n        /* \"#utility.yul\":7320:7382   */\n      mstore\n      shl(0xf0, 0x6365)\n        /* \"#utility.yul\":7398:7416   */\n      0x64\n      dup3\n      add\n        /* \"#utility.yul\":7391:7423   */\n      mstore\n        /* \"#utility.yul\":7440:7459   */\n      0x84\n      add\n        /* \"@openzeppelin/contracts-upgradeable/token/ERC20/ERC20Upgradeable.sol\":9999:10070  require(accountBalance >= amount, \"ERC20: burn amount exceeds balance\") */\n      tag_274\n        /* \"#utility.yul\":7241:7465   */\n      jump\n        /* \"@openzeppelin/contracts-upgradeable/token/ERC20/ERC20Upgradeable.sol\":9999:10070  require(accountBalance >= amount, \"ERC20: burn amount exceeds balance\") */\n    tag_521:\n      sub(shl(0xa0, 0x01), 0x01)\n        /* \"@openzeppelin/contracts-upgradeable/token/ERC20/ERC20Upgradeable.sol\":10104:10122  _balances[account] */\n      dup4\n      and\n      0x00\n      dup2\n      dup2\n      mstore\n        /* \"@openzeppelin/contracts-upgradeable/token/ERC20/ERC20Upgradeable.sol\":10104:10113  _balances */\n      0x33\n        /* \"@openzeppelin/contracts-upgradeable/token/ERC20/ERC20Upgradeable.sol\":10104:10122  _balances[account] */\n      0x20\n      swap1\n      dup2\n      mstore\n      0x40\n      dup1\n      dup4\n      keccak256\n        /* \"@openzeppelin/contracts-upgradeable/token/ERC20/ERC20Upgradeable.sol\":10125:10148  accountBalance - amount */\n      dup7\n      dup7\n      sub\n        /* \"@openzeppelin/contracts-upgradeable/token/ERC20/ERC20Upgradeable.sol\":10104:10148  _balances[account] = accountBalance - amount */\n      swap1\n      sstore\n        /* \"@openzeppelin/contracts-upgradeable/token/ERC20/ERC20Upgradeable.sol\":10241:10253  _totalSupply */\n      0x35\n        /* \"@openzeppelin/contracts-upgradeable/token/ERC20/ERC20Upgradeable.sol\":10241:10263  _totalSupply -= amount */\n      dup1\n      sload\n      dup8\n      swap1\n      sub\n      swap1\n      sstore\n        /* \"@openzeppelin/contracts-upgradeable/token/ERC20/ERC20Upgradeable.sol\":10289:10326  Transfer(account, address(0), amount) */\n      mload\n        /* \"#utility.yul\":15672:15697   */\n      dup6\n      dup2\n      mstore\n        /* \"@openzeppelin/contracts-upgradeable/token/ERC20/ERC20Upgradeable.sol\":10104:10122  _balances[account] */\n      swap2\n      swap3\n      swap2\n        /* \"@openzeppelin/contracts-upgradeable/token/ERC20/ERC20Upgradeable.sol\":10289:10326  Transfer(account, address(0), amount) */\n      0xddf252ad1be2c89b69c2b068fc378daa952ba7f163c4a11628f55a4df523b3ef\n      swap2\n        /* \"#utility.yul\":15645:15663   */\n      add\n        /* \"@openzeppelin/contracts-upgradeable/token/ERC20/ERC20Upgradeable.sol\":10289:10326  Transfer(account, address(0), amount) */\n      mload(0x40)\n      dup1\n      swap2\n      sub\n      swap1\n      log3\n        /* \"contracts/vaults/PlexusVaultNative.sol\":6071:6598  function withdraw(uint256 _shares) public {... */\n      pop\n      pop\n      pop\n      jump\t// out\n        /* \"@openzeppelin/contracts-upgradeable/token/ERC20/utils/SafeERC20Upgradeable.sol\":996:1182  function safeTransfer(IERC20Upgradeable token, address to, uint256 value) internal {... */\n    tag_250:\n        /* \"@openzeppelin/contracts-upgradeable/token/ERC20/utils/SafeERC20Upgradeable.sol\":1116:1174  abi.encodeWithSelector(token.transfer.selector, to, value) */\n      mload(0x40)\n      sub(shl(0xa0, 0x01), 0x01)\n        /* \"#utility.yul\":5337:5369   */\n      dup4\n      and\n        /* \"@openzeppelin/contracts-upgradeable/token/ERC20/utils/SafeERC20Upgradeable.sol\":1116:1174  abi.encodeWithSelector(token.transfer.selector, to, value) */\n      0x24\n      dup3\n      add\n        /* \"#utility.yul\":5319:5370   */\n      mstore\n        /* \"#utility.yul\":5386:5404   */\n      0x44\n      dup2\n      add\n        /* \"#utility.yul\":5379:5413   */\n      dup3\n      swap1\n      mstore\n        /* \"@openzeppelin/contracts-upgradeable/token/ERC20/utils/SafeERC20Upgradeable.sol\":1089:1175  _callOptionalReturn(token, abi.encodeWithSelector(token.transfer.selector, to, value)) */\n      tag_248\n      swap1\n        /* \"@openzeppelin/contracts-upgradeable/token/ERC20/utils/SafeERC20Upgradeable.sol\":1109:1114  token */\n      dup5\n      swap1\n      shl(0xe0, 0xa9059cbb)\n        /* \"@openzeppelin/contracts-upgradeable/token/ERC20/utils/SafeERC20Upgradeable.sol\":1139:1162  token.transfer.selector */\n      swap1\n        /* \"#utility.yul\":5292:5310   */\n      0x64\n      add\n        /* \"@openzeppelin/contracts-upgradeable/token/ERC20/utils/SafeERC20Upgradeable.sol\":1116:1174  abi.encodeWithSelector(token.transfer.selector, to, value) */\n    tag_528:\n      0x40\n      dup1\n      mload\n      not(0x1f)\n      dup2\n      dup5\n      sub\n      add\n      dup2\n      mstore\n      swap2\n      swap1\n      mstore\n      0x20\n      dup2\n      add\n      dup1\n      mload\n      sub(shl(0xe0, 0x01), 0x01)\n      and\n      not(sub(shl(0xe0, 0x01), 0x01))\n      swap1\n      swap4\n      and\n      swap3\n      swap1\n      swap3\n      or\n      swap1\n      swap2\n      mstore\n        /* \"@openzeppelin/contracts-upgradeable/token/ERC20/utils/SafeERC20Upgradeable.sol\":1089:1108  _callOptionalReturn */\n      tag_529\n        /* \"@openzeppelin/contracts-upgradeable/token/ERC20/utils/SafeERC20Upgradeable.sol\":1089:1175  _callOptionalReturn(token, abi.encodeWithSelector(token.transfer.selector, to, value)) */\n      jump\t// in\n        /* \"@openzeppelin/contracts-upgradeable/token/ERC20/ERC20Upgradeable.sol\":2139:2286  function __ERC20_init(string memory name_, string memory symbol_) internal onlyInitializing {... */\n    tag_279:\n        /* \"@openzeppelin/contracts-upgradeable/proxy/utils/Initializable.sol\":5374:5387  _initializing */\n      sload(0x00)\n      0x0100\n      swap1\n      div\n      0xff\n      and\n        /* \"@openzeppelin/contracts-upgradeable/proxy/utils/Initializable.sol\":5366:5435  require(_initializing, \"Initializable: contract is not initializing\") */\n      tag_532\n      jumpi\n      mload(0x40)\n      shl(0xe5, 0x461bcd)\n      dup2\n      mstore\n      0x04\n      add\n      tag_274\n      swap1\n      tag_534\n      jump\t// in\n    tag_532:\n        /* \"@openzeppelin/contracts-upgradeable/token/ERC20/ERC20Upgradeable.sol\":2241:2279  __ERC20_init_unchained(name_, symbol_) */\n      tag_462\n        /* \"@openzeppelin/contracts-upgradeable/token/ERC20/ERC20Upgradeable.sol\":2264:2269  name_ */\n      dup3\n        /* \"@openzeppelin/contracts-upgradeable/token/ERC20/ERC20Upgradeable.sol\":2271:2278  symbol_ */\n      dup3\n        /* \"@openzeppelin/contracts-upgradeable/token/ERC20/ERC20Upgradeable.sol\":2241:2263  __ERC20_init_unchained */\n      tag_537\n        /* \"@openzeppelin/contracts-upgradeable/token/ERC20/ERC20Upgradeable.sol\":2241:2279  __ERC20_init_unchained(name_, symbol_) */\n      jump\t// in\n        /* \"@openzeppelin/contracts-upgradeable/access/OwnableUpgradeable.sol\":1024:1119  function __Ownable_init() internal onlyInitializing {... */\n    tag_281:\n        /* \"@openzeppelin/contracts-upgradeable/proxy/utils/Initializable.sol\":5374:5387  _initializing */\n      sload(0x00)\n      0x0100\n      swap1\n      div\n      0xff\n      and\n        /* \"@openzeppelin/contracts-upgradeable/proxy/utils/Initializable.sol\":5366:5435  require(_initializing, \"Initializable: contract is not initializing\") */\n      tag_539\n      jumpi\n      mload(0x40)\n      shl(0xe5, 0x461bcd)\n      dup2\n      mstore\n      0x04\n      add\n      tag_274\n      swap1\n      tag_534\n      jump\t// in\n    tag_539:\n        /* \"@openzeppelin/contracts-upgradeable/access/OwnableUpgradeable.sol\":1086:1112  __Ownable_init_unchained() */\n      tag_258\n        /* \"@openzeppelin/contracts-upgradeable/access/OwnableUpgradeable.sol\":1086:1110  __Ownable_init_unchained */\n      tag_543\n        /* \"@openzeppelin/contracts-upgradeable/access/OwnableUpgradeable.sol\":1086:1112  __Ownable_init_unchained() */\n      jump\t// in\n        /* \"@openzeppelin/contracts-upgradeable/security/ReentrancyGuardUpgradeable.sol\":1889:2000  function __ReentrancyGuard_init() internal onlyInitializing {... */\n    tag_283:\n        /* \"@openzeppelin/contracts-upgradeable/proxy/utils/Initializable.sol\":5374:5387  _initializing */\n      sload(0x00)\n      0x0100\n      swap1\n      div\n      0xff\n      and\n        /* \"@openzeppelin/contracts-upgradeable/proxy/utils/Initializable.sol\":5366:5435  require(_initializing, \"Initializable: contract is not initializing\") */\n      tag_545\n      jumpi\n      mload(0x40)\n      shl(0xe5, 0x461bcd)\n      dup2\n      mstore\n      0x04\n      add\n      tag_274\n      swap1\n      tag_534\n      jump\t// in\n    tag_545:\n        /* \"@openzeppelin/contracts-upgradeable/security/ReentrancyGuardUpgradeable.sol\":1959:1993  __ReentrancyGuard_init_unchained() */\n      tag_258\n        /* \"@openzeppelin/contracts-upgradeable/security/ReentrancyGuardUpgradeable.sol\":1959:1991  __ReentrancyGuard_init_unchained */\n      tag_549\n        /* \"@openzeppelin/contracts-upgradeable/security/ReentrancyGuardUpgradeable.sol\":1959:1993  __ReentrancyGuard_init_unchained() */\n      jump\t// in\n        /* \"@openzeppelin/contracts-upgradeable/access/OwnableUpgradeable.sol\":1620:1750  function _checkOwner() internal view virtual {... */\n    tag_289:\n        /* \"@openzeppelin/contracts-upgradeable/access/OwnableUpgradeable.sol\":1534:1540  _owner */\n      and(sub(shl(0xa0, 0x01), 0x01), sload(0x65))\n        /* \"@openzeppelin/contracts-upgradeable/utils/ContextUpgradeable.sol\":965:975  msg.sender */\n      caller\n        /* \"@openzeppelin/contracts-upgradeable/access/OwnableUpgradeable.sol\":1683:1706  owner() == _msgSender() */\n      eq\n        /* \"@openzeppelin/contracts-upgradeable/access/OwnableUpgradeable.sol\":1675:1743  require(owner() == _msgSender(), \"Ownable: caller is not the owner\") */\n      tag_258\n      jumpi\n      mload(0x40)\n      shl(0xe5, 0x461bcd)\n      dup2\n      mstore\n        /* \"#utility.yul\":11497:11499   */\n      0x20\n        /* \"@openzeppelin/contracts-upgradeable/access/OwnableUpgradeable.sol\":1675:1743  require(owner() == _msgSender(), \"Ownable: caller is not the owner\") */\n      0x04\n      dup3\n      add\n        /* \"#utility.yul\":11479:11500   */\n      dup2\n      swap1\n      mstore\n        /* \"#utility.yul\":11516:11534   */\n      0x24\n      dup3\n      add\n        /* \"#utility.yul\":11509:11539   */\n      mstore\n        /* \"#utility.yul\":11575:11609   */\n      0x4f776e61626c653a2063616c6c6572206973206e6f7420746865206f776e6572\n        /* \"#utility.yul\":11555:11573   */\n      0x44\n      dup3\n      add\n        /* \"#utility.yul\":11548:11610   */\n      mstore\n        /* \"#utility.yul\":11627:11645   */\n      0x64\n      add\n        /* \"@openzeppelin/contracts-upgradeable/access/OwnableUpgradeable.sol\":1675:1743  require(owner() == _msgSender(), \"Ownable: caller is not the owner\") */\n      tag_274\n        /* \"#utility.yul\":11469:11651   */\n      jump\n        /* \"@openzeppelin/contracts-upgradeable/access/OwnableUpgradeable.sol\":2687:2874  function _transferOwnership(address newOwner) internal virtual {... */\n    tag_313:\n        /* \"@openzeppelin/contracts-upgradeable/access/OwnableUpgradeable.sol\":2779:2785  _owner */\n      0x65\n      dup1\n      sload\n      sub(shl(0xa0, 0x01), 0x01)\n        /* \"@openzeppelin/contracts-upgradeable/access/OwnableUpgradeable.sol\":2795:2812  _owner = newOwner */\n      dup4\n      dup2\n      and\n      not(sub(shl(0xa0, 0x01), 0x01))\n      dup4\n      and\n      dup2\n      or\n      swap1\n      swap4\n      sstore\n        /* \"@openzeppelin/contracts-upgradeable/access/OwnableUpgradeable.sol\":2827:2867  OwnershipTransferred(oldOwner, newOwner) */\n      mload(0x40)\n        /* \"@openzeppelin/contracts-upgradeable/access/OwnableUpgradeable.sol\":2779:2785  _owner */\n      swap2\n      and\n      swap2\n        /* \"@openzeppelin/contracts-upgradeable/access/OwnableUpgradeable.sol\":2795:2812  _owner = newOwner */\n      swap1\n        /* \"@openzeppelin/contracts-upgradeable/access/OwnableUpgradeable.sol\":2779:2785  _owner */\n      dup3\n      swap1\n        /* \"@openzeppelin/contracts-upgradeable/access/OwnableUpgradeable.sol\":2827:2867  OwnershipTransferred(oldOwner, newOwner) */\n      0x8be0079c531659141344cd1fd0a4f28419497f9722a3daafe3b4186f6b6457e0\n      swap1\n        /* \"@openzeppelin/contracts-upgradeable/access/OwnableUpgradeable.sol\":2760:2776  address oldOwner */\n      0x00\n      swap1\n        /* \"@openzeppelin/contracts-upgradeable/access/OwnableUpgradeable.sol\":2827:2867  OwnershipTransferred(oldOwner, newOwner) */\n      log3\n        /* \"@openzeppelin/contracts-upgradeable/access/OwnableUpgradeable.sol\":2687:2874  function _transferOwnership(address newOwner) internal virtual {... */\n      pop\n      pop\n      jump\t// out\n        /* \"@openzeppelin/contracts-upgradeable/security/ReentrancyGuardUpgradeable.sol\":2601:2888  function _nonReentrantBefore() private {... */\n    tag_390:\n        /* \"@openzeppelin/contracts-upgradeable/security/ReentrancyGuardUpgradeable.sol\":1851:1852  2 */\n      0x02\n        /* \"@openzeppelin/contracts-upgradeable/security/ReentrancyGuardUpgradeable.sol\":2733:2740  _status */\n      sload(0x97)\n        /* \"@openzeppelin/contracts-upgradeable/security/ReentrancyGuardUpgradeable.sol\":2733:2752  _status != _ENTERED */\n      eq\n      iszero\n        /* \"@openzeppelin/contracts-upgradeable/security/ReentrancyGuardUpgradeable.sol\":2725:2788  require(_status != _ENTERED, \"ReentrancyGuard: reentrant call\") */\n      tag_558\n      jumpi\n      mload(0x40)\n      shl(0xe5, 0x461bcd)\n      dup2\n      mstore\n        /* \"#utility.yul\":14602:14604   */\n      0x20\n        /* \"@openzeppelin/contracts-upgradeable/security/ReentrancyGuardUpgradeable.sol\":2725:2788  require(_status != _ENTERED, \"ReentrancyGuard: reentrant call\") */\n      0x04\n      dup3\n      add\n        /* \"#utility.yul\":14584:14605   */\n      mstore\n        /* \"#utility.yul\":14641:14643   */\n      0x1f\n        /* \"#utility.yul\":14621:14639   */\n      0x24\n      dup3\n      add\n        /* \"#utility.yul\":14614:14644   */\n      mstore\n        /* \"#utility.yul\":14680:14713   */\n      0x5265656e7472616e637947756172643a207265656e7472616e742063616c6c00\n        /* \"#utility.yul\":14660:14678   */\n      0x44\n      dup3\n      add\n        /* \"#utility.yul\":14653:14714   */\n      mstore\n        /* \"#utility.yul\":14731:14749   */\n      0x64\n      add\n        /* \"@openzeppelin/contracts-upgradeable/security/ReentrancyGuardUpgradeable.sol\":2725:2788  require(_status != _ENTERED, \"ReentrancyGuard: reentrant call\") */\n      tag_274\n        /* \"#utility.yul\":14574:14755   */\n      jump\n        /* \"@openzeppelin/contracts-upgradeable/security/ReentrancyGuardUpgradeable.sol\":2725:2788  require(_status != _ENTERED, \"ReentrancyGuard: reentrant call\") */\n    tag_558:\n        /* \"@openzeppelin/contracts-upgradeable/security/ReentrancyGuardUpgradeable.sol\":1851:1852  2 */\n      0x02\n        /* \"@openzeppelin/contracts-upgradeable/security/ReentrancyGuardUpgradeable.sol\":2863:2870  _status */\n      0x97\n        /* \"@openzeppelin/contracts-upgradeable/security/ReentrancyGuardUpgradeable.sol\":2863:2881  _status = _ENTERED */\n      sstore\n        /* \"@openzeppelin/contracts-upgradeable/security/ReentrancyGuardUpgradeable.sol\":2601:2888  function _nonReentrantBefore() private {... */\n      jump\t// out\n        /* \"@openzeppelin/contracts-upgradeable/token/ERC20/utils/SafeERC20Upgradeable.sol\":1421:1635  function safeTransferFrom(IERC20Upgradeable token, address from, address to, uint256 value) internal {... */\n    tag_398:\n        /* \"@openzeppelin/contracts-upgradeable/token/ERC20/utils/SafeERC20Upgradeable.sol\":1559:1627  abi.encodeWithSelector(token.transferFrom.selector, from, to, value) */\n      mload(0x40)\n      sub(shl(0xa0, 0x01), 0x01)\n        /* \"#utility.yul\":5023:5038   */\n      dup1\n      dup6\n      and\n        /* \"@openzeppelin/contracts-upgradeable/token/ERC20/utils/SafeERC20Upgradeable.sol\":1559:1627  abi.encodeWithSelector(token.transferFrom.selector, from, to, value) */\n      0x24\n      dup4\n      add\n        /* \"#utility.yul\":5005:5039   */\n      mstore\n        /* \"#utility.yul\":5075:5090   */\n      dup4\n      and\n        /* \"#utility.yul\":5055:5073   */\n      0x44\n      dup3\n      add\n        /* \"#utility.yul\":5048:5091   */\n      mstore\n        /* \"#utility.yul\":5107:5125   */\n      0x64\n      dup2\n      add\n        /* \"#utility.yul\":5100:5134   */\n      dup3\n      swap1\n      mstore\n        /* \"@openzeppelin/contracts-upgradeable/token/ERC20/utils/SafeERC20Upgradeable.sol\":1532:1628  _callOptionalReturn(token, abi.encodeWithSelector(token.transferFrom.selector, from, to, value)) */\n      tag_355\n      swap1\n        /* \"@openzeppelin/contracts-upgradeable/token/ERC20/utils/SafeERC20Upgradeable.sol\":1552:1557  token */\n      dup6\n      swap1\n      shl(0xe0, 0x23b872dd)\n        /* \"@openzeppelin/contracts-upgradeable/token/ERC20/utils/SafeERC20Upgradeable.sol\":1582:1609  token.transferFrom.selector */\n      swap1\n        /* \"#utility.yul\":4940:4958   */\n      0x84\n      add\n        /* \"@openzeppelin/contracts-upgradeable/token/ERC20/utils/SafeERC20Upgradeable.sol\":1559:1627  abi.encodeWithSelector(token.transferFrom.selector, from, to, value) */\n      tag_528\n        /* \"#utility.yul\":4922:5140   */\n      jump\n        /* \"@openzeppelin/contracts-upgradeable/token/ERC20/ERC20Upgradeable.sol\":8878:9413  function _mint(address account, uint256 amount) internal virtual {... */\n    tag_409:\n      sub(shl(0xa0, 0x01), 0x01)\n        /* \"@openzeppelin/contracts-upgradeable/token/ERC20/ERC20Upgradeable.sol\":8961:8982  account != address(0) */\n      dup3\n      and\n        /* \"@openzeppelin/contracts-upgradeable/token/ERC20/ERC20Upgradeable.sol\":8953:9018  require(account != address(0), \"ERC20: mint to the zero address\") */\n      tag_566\n      jumpi\n      mload(0x40)\n      shl(0xe5, 0x461bcd)\n      dup2\n      mstore\n        /* \"#utility.yul\":15368:15370   */\n      0x20\n        /* \"@openzeppelin/contracts-upgradeable/token/ERC20/ERC20Upgradeable.sol\":8953:9018  require(account != address(0), \"ERC20: mint to the zero address\") */\n      0x04\n      dup3\n      add\n        /* \"#utility.yul\":15350:15371   */\n      mstore\n        /* \"#utility.yul\":15407:15409   */\n      0x1f\n        /* \"#utility.yul\":15387:15405   */\n      0x24\n      dup3\n      add\n        /* \"#utility.yul\":15380:15410   */\n      mstore\n        /* \"#utility.yul\":15446:15479   */\n      0x45524332303a206d696e7420746f20746865207a65726f206164647265737300\n        /* \"#utility.yul\":15426:15444   */\n      0x44\n      dup3\n      add\n        /* \"#utility.yul\":15419:15480   */\n      mstore\n        /* \"#utility.yul\":15497:15515   */\n      0x64\n      add\n        /* \"@openzeppelin/contracts-upgradeable/token/ERC20/ERC20Upgradeable.sol\":8953:9018  require(account != address(0), \"ERC20: mint to the zero address\") */\n      tag_274\n        /* \"#utility.yul\":15340:15521   */\n      jump\n        /* \"@openzeppelin/contracts-upgradeable/token/ERC20/ERC20Upgradeable.sol\":8953:9018  require(account != address(0), \"ERC20: mint to the zero address\") */\n    tag_566:\n        /* \"@openzeppelin/contracts-upgradeable/token/ERC20/ERC20Upgradeable.sol\":9105:9111  amount */\n      dup1\n        /* \"@openzeppelin/contracts-upgradeable/token/ERC20/ERC20Upgradeable.sol\":9089:9101  _totalSupply */\n      0x35\n      0x00\n        /* \"@openzeppelin/contracts-upgradeable/token/ERC20/ERC20Upgradeable.sol\":9089:9111  _totalSupply += amount */\n      dup3\n      dup3\n      sload\n      tag_570\n      swap2\n      swap1\n      tag_247\n      jump\t// in\n    tag_570:\n      swap1\n      swap2\n      sstore\n      pop\n      pop\n      sub(shl(0xa0, 0x01), 0x01)\n        /* \"@openzeppelin/contracts-upgradeable/token/ERC20/ERC20Upgradeable.sol\":9257:9275  _balances[account] */\n      dup3\n      and\n      0x00\n      dup2\n      dup2\n      mstore\n        /* \"@openzeppelin/contracts-upgradeable/token/ERC20/ERC20Upgradeable.sol\":9257:9266  _balances */\n      0x33\n        /* \"@openzeppelin/contracts-upgradeable/token/ERC20/ERC20Upgradeable.sol\":9257:9275  _balances[account] */\n      0x20\n      swap1\n      dup2\n      mstore\n      0x40\n      dup1\n      dup4\n      keccak256\n        /* \"@openzeppelin/contracts-upgradeable/token/ERC20/ERC20Upgradeable.sol\":9257:9285  _balances[account] += amount */\n      dup1\n      sload\n      dup7\n      add\n      swap1\n      sstore\n        /* \"@openzeppelin/contracts-upgradeable/token/ERC20/ERC20Upgradeable.sol\":9310:9347  Transfer(address(0), account, amount) */\n      mload\n        /* \"#utility.yul\":15672:15697   */\n      dup5\n      dup2\n      mstore\n        /* \"@openzeppelin/contracts-upgradeable/token/ERC20/ERC20Upgradeable.sol\":9310:9347  Transfer(address(0), account, amount) */\n      0xddf252ad1be2c89b69c2b068fc378daa952ba7f163c4a11628f55a4df523b3ef\n      swap2\n        /* \"#utility.yul\":15645:15663   */\n      add\n        /* \"@openzeppelin/contracts-upgradeable/token/ERC20/ERC20Upgradeable.sol\":9310:9347  Transfer(address(0), account, amount) */\n      mload(0x40)\n      dup1\n      swap2\n      sub\n      swap1\n      log3\n        /* \"@openzeppelin/contracts-upgradeable/access/OwnableUpgradeable.sol\":1378:1379  _ */\n      pop\n        /* \"contracts/vaults/PlexusVaultNative.sol\":8807:9079  function inCaseTokensGetStuck(address _token) external onlyOwner {... */\n      pop\n      jump\t// out\n        /* \"@openzeppelin/contracts-upgradeable/security/ReentrancyGuardUpgradeable.sol\":2894:3103  function _nonReentrantAfter() private {... */\n    tag_411:\n        /* \"@openzeppelin/contracts-upgradeable/security/ReentrancyGuardUpgradeable.sol\":1808:1809  1 */\n      0x01\n        /* \"@openzeppelin/contracts-upgradeable/security/ReentrancyGuardUpgradeable.sol\":3074:3081  _status */\n      0x97\n        /* \"@openzeppelin/contracts-upgradeable/security/ReentrancyGuardUpgradeable.sol\":3074:3096  _status = _NOT_ENTERED */\n      sstore\n        /* \"@openzeppelin/contracts-upgradeable/security/ReentrancyGuardUpgradeable.sol\":2894:3103  function _nonReentrantAfter() private {... */\n      jump\t// out\n        /* \"@openzeppelin/contracts-upgradeable/token/ERC20/utils/SafeERC20Upgradeable.sol\":5328:5981  function _callOptionalReturn(IERC20Upgradeable token, bytes memory data) private {... */\n    tag_529:\n        /* \"@openzeppelin/contracts-upgradeable/token/ERC20/utils/SafeERC20Upgradeable.sol\":5758:5781  bytes memory returndata */\n      0x00\n        /* \"@openzeppelin/contracts-upgradeable/token/ERC20/utils/SafeERC20Upgradeable.sol\":5784:5853  address(token).functionCall(data, \"SafeERC20: low-level call failed\") */\n      tag_577\n        /* \"@openzeppelin/contracts-upgradeable/token/ERC20/utils/SafeERC20Upgradeable.sol\":5812:5816  data */\n      dup3\n        /* \"@openzeppelin/contracts-upgradeable/token/ERC20/utils/SafeERC20Upgradeable.sol\":5784:5853  address(token).functionCall(data, \"SafeERC20: low-level call failed\") */\n      mload(0x40)\n      dup1\n      0x40\n      add\n      0x40\n      mstore\n      dup1\n      0x20\n      dup2\n      mstore\n      0x20\n      add\n      0x5361666545524332303a206c6f772d6c6576656c2063616c6c206661696c6564\n      dup2\n      mstore\n      pop\n        /* \"@openzeppelin/contracts-upgradeable/token/ERC20/utils/SafeERC20Upgradeable.sol\":5792:5797  token */\n      dup6\n      sub(shl(0xa0, 0x01), 0x01)\n        /* \"@openzeppelin/contracts-upgradeable/token/ERC20/utils/SafeERC20Upgradeable.sol\":5784:5811  address(token).functionCall */\n      and\n      tag_578\n      swap1\n        /* \"@openzeppelin/contracts-upgradeable/token/ERC20/utils/SafeERC20Upgradeable.sol\":5784:5853  address(token).functionCall(data, \"SafeERC20: low-level call failed\") */\n      swap3\n      swap2\n      swap1\n      0xffffffff\n      and\n      jump\t// in\n    tag_577:\n        /* \"@openzeppelin/contracts-upgradeable/token/ERC20/utils/SafeERC20Upgradeable.sol\":5758:5853  bytes memory returndata = address(token).functionCall(data, \"SafeERC20: low-level call failed\") */\n      swap1\n      pop\n        /* \"@openzeppelin/contracts-upgradeable/token/ERC20/utils/SafeERC20Upgradeable.sol\":5871:5881  returndata */\n      dup1\n        /* \"@openzeppelin/contracts-upgradeable/token/ERC20/utils/SafeERC20Upgradeable.sol\":5871:5888  returndata.length */\n      mload\n        /* \"@openzeppelin/contracts-upgradeable/token/ERC20/utils/SafeERC20Upgradeable.sol\":5892:5893  0 */\n      0x00\n        /* \"@openzeppelin/contracts-upgradeable/token/ERC20/utils/SafeERC20Upgradeable.sol\":5871:5893  returndata.length == 0 */\n      eq\n        /* \"@openzeppelin/contracts-upgradeable/token/ERC20/utils/SafeERC20Upgradeable.sol\":5871:5927  returndata.length == 0 || abi.decode(returndata, (bool)) */\n      dup1\n      tag_580\n      jumpi\n      pop\n        /* \"@openzeppelin/contracts-upgradeable/token/ERC20/utils/SafeERC20Upgradeable.sol\":5908:5918  returndata */\n      dup1\n        /* \"@openzeppelin/contracts-upgradeable/token/ERC20/utils/SafeERC20Upgradeable.sol\":5897:5927  abi.decode(returndata, (bool)) */\n      dup1\n      0x20\n      add\n      swap1\n      mload\n      dup2\n      add\n      swap1\n      tag_580\n      swap2\n      swap1\n      tag_581\n      jump\t// in\n    tag_580:\n        /* \"@openzeppelin/contracts-upgradeable/token/ERC20/utils/SafeERC20Upgradeable.sol\":5863:5974  require(returndata.length == 0 || abi.decode(returndata, (bool)), \"SafeERC20: ERC20 operation did not succeed\") */\n      tag_248\n      jumpi\n      mload(0x40)\n      shl(0xe5, 0x461bcd)\n      dup2\n      mstore\n        /* \"#utility.yul\":14191:14193   */\n      0x20\n        /* \"@openzeppelin/contracts-upgradeable/token/ERC20/utils/SafeERC20Upgradeable.sol\":5863:5974  require(returndata.length == 0 || abi.decode(returndata, (bool)), \"SafeERC20: ERC20 operation did not succeed\") */\n      0x04\n      dup3\n      add\n        /* \"#utility.yul\":14173:14194   */\n      mstore\n        /* \"#utility.yul\":14230:14232   */\n      0x2a\n        /* \"#utility.yul\":14210:14228   */\n      0x24\n      dup3\n      add\n        /* \"#utility.yul\":14203:14233   */\n      mstore\n        /* \"#utility.yul\":14269:14303   */\n      0x5361666545524332303a204552433230206f7065726174696f6e20646964206e\n        /* \"#utility.yul\":14249:14267   */\n      0x44\n      dup3\n      add\n        /* \"#utility.yul\":14242:14304   */\n      mstore\n      shl(0xb2, 0x1bdd081cdd58d8d95959)\n        /* \"#utility.yul\":14320:14338   */\n      0x64\n      dup3\n      add\n        /* \"#utility.yul\":14313:14353   */\n      mstore\n        /* \"#utility.yul\":14370:14389   */\n      0x84\n      add\n        /* \"@openzeppelin/contracts-upgradeable/token/ERC20/utils/SafeERC20Upgradeable.sol\":5863:5974  require(returndata.length == 0 || abi.decode(returndata, (bool)), \"SafeERC20: ERC20 operation did not succeed\") */\n      tag_274\n        /* \"#utility.yul\":14163:14395   */\n      jump\n        /* \"@openzeppelin/contracts-upgradeable/token/ERC20/ERC20Upgradeable.sol\":2292:2451  function __ERC20_init_unchained(string memory name_, string memory symbol_) internal onlyInitializing {... */\n    tag_537:\n        /* \"@openzeppelin/contracts-upgradeable/proxy/utils/Initializable.sol\":5374:5387  _initializing */\n      sload(0x00)\n      0x0100\n      swap1\n      div\n      0xff\n      and\n        /* \"@openzeppelin/contracts-upgradeable/proxy/utils/Initializable.sol\":5366:5435  require(_initializing, \"Initializable: contract is not initializing\") */\n      tag_586\n      jumpi\n      mload(0x40)\n      shl(0xe5, 0x461bcd)\n      dup2\n      mstore\n      0x04\n      add\n      tag_274\n      swap1\n      tag_534\n      jump\t// in\n    tag_586:\n        /* \"@openzeppelin/contracts-upgradeable/token/ERC20/ERC20Upgradeable.sol\":2404:2417  _name = name_ */\n      dup2\n      mload\n      tag_589\n      swap1\n        /* \"@openzeppelin/contracts-upgradeable/token/ERC20/ERC20Upgradeable.sol\":2404:2409  _name */\n      0x36\n      swap1\n        /* \"@openzeppelin/contracts-upgradeable/token/ERC20/ERC20Upgradeable.sol\":2404:2417  _name = name_ */\n      0x20\n      dup6\n      add\n      swap1\n      tag_590\n      jump\t// in\n    tag_589:\n      pop\n        /* \"@openzeppelin/contracts-upgradeable/token/ERC20/ERC20Upgradeable.sol\":2427:2444  _symbol = symbol_ */\n      dup1\n      mload\n      tag_248\n      swap1\n        /* \"@openzeppelin/contracts-upgradeable/token/ERC20/ERC20Upgradeable.sol\":2427:2434  _symbol */\n      0x37\n      swap1\n        /* \"@openzeppelin/contracts-upgradeable/token/ERC20/ERC20Upgradeable.sol\":2427:2444  _symbol = symbol_ */\n      0x20\n      dup5\n      add\n      swap1\n      tag_590\n      jump\t// in\n        /* \"@openzeppelin/contracts-upgradeable/access/OwnableUpgradeable.sol\":1125:1236  function __Ownable_init_unchained() internal onlyInitializing {... */\n    tag_543:\n        /* \"@openzeppelin/contracts-upgradeable/proxy/utils/Initializable.sol\":5374:5387  _initializing */\n      sload(0x00)\n      0x0100\n      swap1\n      div\n      0xff\n      and\n        /* \"@openzeppelin/contracts-upgradeable/proxy/utils/Initializable.sol\":5366:5435  require(_initializing, \"Initializable: contract is not initializing\") */\n      tag_593\n      jumpi\n      mload(0x40)\n      shl(0xe5, 0x461bcd)\n      dup2\n      mstore\n      0x04\n      add\n      tag_274\n      swap1\n      tag_534\n      jump\t// in\n    tag_593:\n        /* \"@openzeppelin/contracts-upgradeable/access/OwnableUpgradeable.sol\":1197:1229  _transferOwnership(_msgSender()) */\n      tag_258\n        /* \"@openzeppelin/contracts-upgradeable/utils/ContextUpgradeable.sol\":965:975  msg.sender */\n      caller\n        /* \"@openzeppelin/contracts-upgradeable/access/OwnableUpgradeable.sol\":1197:1215  _transferOwnership */\n      tag_313\n        /* \"@openzeppelin/contracts-upgradeable/access/OwnableUpgradeable.sol\":1197:1229  _transferOwnership(_msgSender()) */\n      jump\t// in\n        /* \"@openzeppelin/contracts-upgradeable/security/ReentrancyGuardUpgradeable.sol\":2006:2115  function __ReentrancyGuard_init_unchained() internal onlyInitializing {... */\n    tag_549:\n        /* \"@openzeppelin/contracts-upgradeable/proxy/utils/Initializable.sol\":5374:5387  _initializing */\n      sload(0x00)\n      0x0100\n      swap1\n      div\n      0xff\n      and\n        /* \"@openzeppelin/contracts-upgradeable/proxy/utils/Initializable.sol\":5366:5435  require(_initializing, \"Initializable: contract is not initializing\") */\n      tag_411\n      jumpi\n      mload(0x40)\n      shl(0xe5, 0x461bcd)\n      dup2\n      mstore\n      0x04\n      add\n      tag_274\n      swap1\n      tag_534\n      jump\t// in\n        /* \"@openzeppelin/contracts-upgradeable/utils/AddressUpgradeable.sol\":4119:4342  function functionCall(... */\n    tag_578:\n        /* \"@openzeppelin/contracts-upgradeable/utils/AddressUpgradeable.sol\":4252:4264  bytes memory */\n      0x60\n        /* \"@openzeppelin/contracts-upgradeable/utils/AddressUpgradeable.sol\":4283:4335  functionCallWithValue(target, data, 0, errorMessage) */\n      tag_603\n        /* \"@openzeppelin/contracts-upgradeable/utils/AddressUpgradeable.sol\":4305:4311  target */\n      dup5\n        /* \"@openzeppelin/contracts-upgradeable/utils/AddressUpgradeable.sol\":4313:4317  data */\n      dup5\n        /* \"@openzeppelin/contracts-upgradeable/utils/AddressUpgradeable.sol\":4319:4320  0 */\n      0x00\n        /* \"@openzeppelin/contracts-upgradeable/utils/AddressUpgradeable.sol\":4322:4334  errorMessage */\n      dup6\n        /* \"@openzeppelin/contracts-upgradeable/utils/AddressUpgradeable.sol\":4283:4304  functionCallWithValue */\n      tag_604\n        /* \"@openzeppelin/contracts-upgradeable/utils/AddressUpgradeable.sol\":4283:4335  functionCallWithValue(target, data, 0, errorMessage) */\n      jump\t// in\n    tag_603:\n        /* \"@openzeppelin/contracts-upgradeable/utils/AddressUpgradeable.sol\":4276:4335  return functionCallWithValue(target, data, 0, errorMessage) */\n      swap5\n        /* \"@openzeppelin/contracts-upgradeable/utils/AddressUpgradeable.sol\":4119:4342  function functionCall(... */\n      swap4\n      pop\n      pop\n      pop\n      pop\n      jump\t// out\n        /* \"@openzeppelin/contracts-upgradeable/utils/AddressUpgradeable.sol\":5176:5622  function functionCallWithValue(... */\n    tag_604:\n        /* \"@openzeppelin/contracts-upgradeable/utils/AddressUpgradeable.sol\":5341:5353  bytes memory */\n      0x60\n        /* \"@openzeppelin/contracts-upgradeable/utils/AddressUpgradeable.sol\":5398:5403  value */\n      dup3\n        /* \"@openzeppelin/contracts-upgradeable/utils/AddressUpgradeable.sol\":5373:5394  address(this).balance */\n      selfbalance\n        /* \"@openzeppelin/contracts-upgradeable/utils/AddressUpgradeable.sol\":5373:5403  address(this).balance >= value */\n      lt\n      iszero\n        /* \"@openzeppelin/contracts-upgradeable/utils/AddressUpgradeable.sol\":5365:5446  require(address(this).balance >= value, \"Address: insufficient balance for call\") */\n      tag_606\n      jumpi\n      mload(0x40)\n      shl(0xe5, 0x461bcd)\n      dup2\n      mstore\n        /* \"#utility.yul\":9247:9249   */\n      0x20\n        /* \"@openzeppelin/contracts-upgradeable/utils/AddressUpgradeable.sol\":5365:5446  require(address(this).balance >= value, \"Address: insufficient balance for call\") */\n      0x04\n      dup3\n      add\n        /* \"#utility.yul\":9229:9250   */\n      mstore\n        /* \"#utility.yul\":9286:9288   */\n      0x26\n        /* \"#utility.yul\":9266:9284   */\n      0x24\n      dup3\n      add\n        /* \"#utility.yul\":9259:9289   */\n      mstore\n        /* \"#utility.yul\":9325:9359   */\n      0x416464726573733a20696e73756666696369656e742062616c616e636520666f\n        /* \"#utility.yul\":9305:9323   */\n      0x44\n      dup3\n      add\n        /* \"#utility.yul\":9298:9360   */\n      mstore\n      shl(0xd2, 0x1c8818d85b1b)\n        /* \"#utility.yul\":9376:9394   */\n      0x64\n      dup3\n      add\n        /* \"#utility.yul\":9369:9405   */\n      mstore\n        /* \"#utility.yul\":9422:9441   */\n      0x84\n      add\n        /* \"@openzeppelin/contracts-upgradeable/utils/AddressUpgradeable.sol\":5365:5446  require(address(this).balance >= value, \"Address: insufficient balance for call\") */\n      tag_274\n        /* \"#utility.yul\":9219:9447   */\n      jump\n        /* \"@openzeppelin/contracts-upgradeable/utils/AddressUpgradeable.sol\":5365:5446  require(address(this).balance >= value, \"Address: insufficient balance for call\") */\n    tag_606:\n        /* \"@openzeppelin/contracts-upgradeable/utils/AddressUpgradeable.sol\":5457:5469  bool success */\n      0x00\n        /* \"@openzeppelin/contracts-upgradeable/utils/AddressUpgradeable.sol\":5471:5494  bytes memory returndata */\n      dup1\n        /* \"@openzeppelin/contracts-upgradeable/utils/AddressUpgradeable.sol\":5498:5504  target */\n      dup7\n      sub(shl(0xa0, 0x01), 0x01)\n        /* \"@openzeppelin/contracts-upgradeable/utils/AddressUpgradeable.sol\":5498:5509  target.call */\n      and\n        /* \"@openzeppelin/contracts-upgradeable/utils/AddressUpgradeable.sol\":5517:5522  value */\n      dup6\n        /* \"@openzeppelin/contracts-upgradeable/utils/AddressUpgradeable.sol\":5524:5528  data */\n      dup8\n        /* \"@openzeppelin/contracts-upgradeable/utils/AddressUpgradeable.sol\":5498:5529  target.call{value: value}(data) */\n      mload(0x40)\n      tag_609\n      swap2\n      swap1\n      tag_610\n      jump\t// in\n    tag_609:\n      0x00\n      mload(0x40)\n      dup1\n      dup4\n      sub\n      dup2\n      dup6\n      dup8\n      gas\n      call\n      swap3\n      pop\n      pop\n      pop\n      returndatasize\n      dup1\n      0x00\n      dup2\n      eq\n      tag_613\n      jumpi\n      mload(0x40)\n      swap2\n      pop\n      and(add(returndatasize, 0x3f), not(0x1f))\n      dup3\n      add\n      0x40\n      mstore\n      returndatasize\n      dup3\n      mstore\n      returndatasize\n      0x00\n      0x20\n      dup5\n      add\n      returndatacopy\n      jump(tag_612)\n    tag_613:\n      0x60\n      swap2\n      pop\n    tag_612:\n      pop\n        /* \"@openzeppelin/contracts-upgradeable/utils/AddressUpgradeable.sol\":5456:5529  (bool success, bytes memory returndata) = target.call{value: value}(data) */\n      swap2\n      pop\n      swap2\n      pop\n        /* \"@openzeppelin/contracts-upgradeable/utils/AddressUpgradeable.sol\":5546:5615  verifyCallResultFromTarget(target, success, returndata, errorMessage) */\n      tag_614\n        /* \"@openzeppelin/contracts-upgradeable/utils/AddressUpgradeable.sol\":5573:5579  target */\n      dup8\n        /* \"@openzeppelin/contracts-upgradeable/utils/AddressUpgradeable.sol\":5581:5588  success */\n      dup4\n        /* \"@openzeppelin/contracts-upgradeable/utils/AddressUpgradeable.sol\":5590:5600  returndata */\n      dup4\n        /* \"@openzeppelin/contracts-upgradeable/utils/AddressUpgradeable.sol\":5602:5614  errorMessage */\n      dup8\n        /* \"@openzeppelin/contracts-upgradeable/utils/AddressUpgradeable.sol\":5546:5572  verifyCallResultFromTarget */\n      tag_615\n        /* \"@openzeppelin/contracts-upgradeable/utils/AddressUpgradeable.sol\":5546:5615  verifyCallResultFromTarget(target, success, returndata, errorMessage) */\n      jump\t// in\n    tag_614:\n        /* \"@openzeppelin/contracts-upgradeable/utils/AddressUpgradeable.sol\":5539:5615  return verifyCallResultFromTarget(target, success, returndata, errorMessage) */\n      swap8\n        /* \"@openzeppelin/contracts-upgradeable/utils/AddressUpgradeable.sol\":5176:5622  function functionCallWithValue(... */\n      swap7\n      pop\n      pop\n      pop\n      pop\n      pop\n      pop\n      pop\n      jump\t// out\n        /* \"@openzeppelin/contracts-upgradeable/utils/AddressUpgradeable.sol\":7682:8310  function verifyCallResultFromTarget(... */\n    tag_615:\n        /* \"@openzeppelin/contracts-upgradeable/utils/AddressUpgradeable.sol\":7862:7874  bytes memory */\n      0x60\n        /* \"@openzeppelin/contracts-upgradeable/utils/AddressUpgradeable.sol\":7890:7897  success */\n      dup4\n        /* \"@openzeppelin/contracts-upgradeable/utils/AddressUpgradeable.sol\":7886:8304  if (success) {... */\n      iszero\n      tag_617\n      jumpi\n        /* \"@openzeppelin/contracts-upgradeable/utils/AddressUpgradeable.sol\":7917:7934  returndata.length */\n      dup3\n      mload\n        /* \"@openzeppelin/contracts-upgradeable/utils/AddressUpgradeable.sol\":7913:8199  if (returndata.length == 0) {... */\n      tag_620\n      jumpi\n      sub(shl(0xa0, 0x01), 0x01)\n        /* \"@openzeppelin/contracts-upgradeable/utils/AddressUpgradeable.sol\":1713:1732  account.code.length */\n      dup6\n      and\n      extcodesize\n        /* \"@openzeppelin/contracts-upgradeable/utils/AddressUpgradeable.sol\":8124:8184  require(isContract(target), \"Address: call to non-contract\") */\n      tag_620\n      jumpi\n      mload(0x40)\n      shl(0xe5, 0x461bcd)\n      dup2\n      mstore\n        /* \"#utility.yul\":13421:13423   */\n      0x20\n        /* \"@openzeppelin/contracts-upgradeable/utils/AddressUpgradeable.sol\":8124:8184  require(isContract(target), \"Address: call to non-contract\") */\n      0x04\n      dup3\n      add\n        /* \"#utility.yul\":13403:13424   */\n      mstore\n        /* \"#utility.yul\":13460:13462   */\n      0x1d\n        /* \"#utility.yul\":13440:13458   */\n      0x24\n      dup3\n      add\n        /* \"#utility.yul\":13433:13463   */\n      mstore\n        /* \"#utility.yul\":13499:13530   */\n      0x416464726573733a2063616c6c20746f206e6f6e2d636f6e7472616374000000\n        /* \"#utility.yul\":13479:13497   */\n      0x44\n      dup3\n      add\n        /* \"#utility.yul\":13472:13531   */\n      mstore\n        /* \"#utility.yul\":13548:13566   */\n      0x64\n      add\n        /* \"@openzeppelin/contracts-upgradeable/utils/AddressUpgradeable.sol\":8124:8184  require(isContract(target), \"Address: call to non-contract\") */\n      tag_274\n        /* \"#utility.yul\":13393:13572   */\n      jump\n        /* \"@openzeppelin/contracts-upgradeable/utils/AddressUpgradeable.sol\":8124:8184  require(isContract(target), \"Address: call to non-contract\") */\n    tag_620:\n      pop\n        /* \"@openzeppelin/contracts-upgradeable/utils/AddressUpgradeable.sol\":8219:8229  returndata */\n      dup2\n        /* \"@openzeppelin/contracts-upgradeable/utils/AddressUpgradeable.sol\":8212:8229  return returndata */\n      jump(tag_603)\n        /* \"@openzeppelin/contracts-upgradeable/utils/AddressUpgradeable.sol\":7886:8304  if (success) {... */\n    tag_617:\n        /* \"@openzeppelin/contracts-upgradeable/utils/AddressUpgradeable.sol\":8260:8293  _revert(returndata, errorMessage) */\n      tag_603\n        /* \"@openzeppelin/contracts-upgradeable/utils/AddressUpgradeable.sol\":8268:8278  returndata */\n      dup4\n        /* \"@openzeppelin/contracts-upgradeable/utils/AddressUpgradeable.sol\":8280:8292  errorMessage */\n      dup4\n        /* \"@openzeppelin/contracts-upgradeable/utils/AddressUpgradeable.sol\":8991:9008  returndata.length */\n      dup2\n      mload\n        /* \"@openzeppelin/contracts-upgradeable/utils/AddressUpgradeable.sol\":8991:9012  returndata.length > 0 */\n      iszero\n        /* \"@openzeppelin/contracts-upgradeable/utils/AddressUpgradeable.sol\":8987:9366  if (returndata.length > 0) {... */\n      tag_627\n      jumpi\n        /* \"@openzeppelin/contracts-upgradeable/utils/AddressUpgradeable.sol\":9219:9229  returndata */\n      dup2\n        /* \"@openzeppelin/contracts-upgradeable/utils/AddressUpgradeable.sol\":9213:9230  mload(returndata) */\n      mload\n        /* \"@openzeppelin/contracts-upgradeable/utils/AddressUpgradeable.sol\":9275:9290  returndata_size */\n      dup1\n        /* \"@openzeppelin/contracts-upgradeable/utils/AddressUpgradeable.sol\":9262:9272  returndata */\n      dup4\n        /* \"@openzeppelin/contracts-upgradeable/utils/AddressUpgradeable.sol\":9258:9260  32 */\n      0x20\n        /* \"@openzeppelin/contracts-upgradeable/utils/AddressUpgradeable.sol\":9254:9273  add(32, returndata) */\n      add\n        /* \"@openzeppelin/contracts-upgradeable/utils/AddressUpgradeable.sol\":9247:9291  revert(add(32, returndata), returndata_size) */\n      revert\n        /* \"@openzeppelin/contracts-upgradeable/utils/AddressUpgradeable.sol\":9172:9305  {... */\n    tag_627:\n        /* \"@openzeppelin/contracts-upgradeable/utils/AddressUpgradeable.sol\":9342:9354  errorMessage */\n      dup1\n        /* \"@openzeppelin/contracts-upgradeable/utils/AddressUpgradeable.sol\":9335:9355  revert(errorMessage) */\n      mload(0x40)\n      shl(0xe5, 0x461bcd)\n      dup2\n      mstore\n      0x04\n      add\n      tag_274\n      swap2\n      swap1\n      tag_49\n      jump\t// in\n    tag_590:\n      dup3\n      dup1\n      sload\n      tag_630\n      swap1\n      tag_192\n      jump\t// in\n    tag_630:\n      swap1\n      0x00\n      mstore\n      keccak256(0x00, 0x20)\n      swap1\n      0x1f\n      add\n      0x20\n      swap1\n      div\n      dup2\n      add\n      swap3\n      dup3\n      tag_632\n      jumpi\n      0x00\n      dup6\n      sstore\n      jump(tag_635)\n    tag_632:\n      dup3\n      0x1f\n      lt\n      tag_633\n      jumpi\n      dup1\n      mload\n      not(0xff)\n      and\n      dup4\n      dup1\n      add\n      or\n      dup6\n      sstore\n      jump(tag_635)\n    tag_633:\n      dup3\n      dup1\n      add\n      0x01\n      add\n      dup6\n      sstore\n      dup3\n      iszero\n      tag_635\n      jumpi\n      swap2\n      dup3\n      add\n    tag_634:\n      dup3\n      dup2\n      gt\n      iszero\n      tag_635\n      jumpi\n      dup3\n      mload\n      dup3\n      sstore\n      swap2\n      0x20\n      add\n      swap2\n      swap1\n      0x01\n      add\n      swap1\n      jump(tag_634)\n    tag_635:\n      pop\n      tag_636\n      swap3\n      swap2\n      pop\n      tag_637\n      jump\t// in\n    tag_636:\n      pop\n      swap1\n      jump\t// out\n    tag_637:\n    tag_638:\n      dup1\n      dup3\n      gt\n      iszero\n      tag_636\n      jumpi\n      0x00\n      dup2\n      sstore\n      0x01\n      add\n      jump(tag_638)\n        /* \"#utility.yul\":14:753   */\n    tag_641:\n        /* \"#utility.yul\":57:62   */\n      0x00\n        /* \"#utility.yul\":110:113   */\n      dup3\n        /* \"#utility.yul\":103:107   */\n      0x1f\n        /* \"#utility.yul\":95:101   */\n      dup4\n        /* \"#utility.yul\":91:108   */\n      add\n        /* \"#utility.yul\":87:114   */\n      slt\n        /* \"#utility.yul\":77:79   */\n      tag_643\n      jumpi\n        /* \"#utility.yul\":132:137   */\n      dup1\n        /* \"#utility.yul\":125:130   */\n      dup2\n        /* \"#utility.yul\":118:138   */\n      revert\n        /* \"#utility.yul\":77:79   */\n    tag_643:\n        /* \"#utility.yul\":172:178   */\n      dup2\n        /* \"#utility.yul\":159:179   */\n      calldataload\n        /* \"#utility.yul\":198:216   */\n      0xffffffffffffffff\n        /* \"#utility.yul\":235:237   */\n      dup1\n        /* \"#utility.yul\":231:233   */\n      dup3\n        /* \"#utility.yul\":228:238   */\n      gt\n        /* \"#utility.yul\":225:227   */\n      iszero\n      tag_645\n      jumpi\n        /* \"#utility.yul\":241:259   */\n      tag_645\n      tag_646\n      jump\t// in\n    tag_645:\n        /* \"#utility.yul\":316:318   */\n      0x40\n        /* \"#utility.yul\":310:319   */\n      mload\n        /* \"#utility.yul\":284:286   */\n      0x1f\n        /* \"#utility.yul\":370:383   */\n      dup4\n      add\n      not(0x1f)\n        /* \"#utility.yul\":366:388   */\n      swap1\n      dup2\n      and\n        /* \"#utility.yul\":390:392   */\n      0x3f\n        /* \"#utility.yul\":362:393   */\n      add\n        /* \"#utility.yul\":358:398   */\n      and\n        /* \"#utility.yul\":346:399   */\n      dup2\n      add\n      swap1\n        /* \"#utility.yul\":414:432   */\n      dup3\n      dup3\n      gt\n        /* \"#utility.yul\":434:456   */\n      dup2\n      dup4\n      lt\n        /* \"#utility.yul\":411:457   */\n      or\n        /* \"#utility.yul\":408:410   */\n      iszero\n      tag_648\n      jumpi\n        /* \"#utility.yul\":460:478   */\n      tag_648\n      tag_646\n      jump\t// in\n    tag_648:\n        /* \"#utility.yul\":500:510   */\n      dup2\n        /* \"#utility.yul\":496:498   */\n      0x40\n        /* \"#utility.yul\":489:511   */\n      mstore\n        /* \"#utility.yul\":535:537   */\n      dup4\n        /* \"#utility.yul\":527:533   */\n      dup2\n        /* \"#utility.yul\":520:538   */\n      mstore\n        /* \"#utility.yul\":581:584   */\n      dup7\n        /* \"#utility.yul\":574:578   */\n      0x20\n        /* \"#utility.yul\":569:571   */\n      dup6\n        /* \"#utility.yul\":561:567   */\n      dup9\n        /* \"#utility.yul\":557:572   */\n      add\n        /* \"#utility.yul\":553:579   */\n      add\n        /* \"#utility.yul\":550:585   */\n      gt\n        /* \"#utility.yul\":547:549   */\n      iszero\n      tag_649\n      jumpi\n        /* \"#utility.yul\":602:607   */\n      dup5\n        /* \"#utility.yul\":595:600   */\n      dup6\n        /* \"#utility.yul\":588:608   */\n      revert\n        /* \"#utility.yul\":547:549   */\n    tag_649:\n        /* \"#utility.yul\":670:672   */\n      dup4\n        /* \"#utility.yul\":663:667   */\n      0x20\n        /* \"#utility.yul\":655:661   */\n      dup8\n        /* \"#utility.yul\":651:668   */\n      add\n        /* \"#utility.yul\":644:648   */\n      0x20\n        /* \"#utility.yul\":636:642   */\n      dup4\n        /* \"#utility.yul\":632:649   */\n      add\n        /* \"#utility.yul\":619:673   */\n      calldatacopy\n        /* \"#utility.yul\":693:708   */\n      swap3\n      dup4\n      add\n        /* \"#utility.yul\":710:714   */\n      0x20\n        /* \"#utility.yul\":689:715   */\n      add\n        /* \"#utility.yul\":682:723   */\n      swap4\n      swap1\n      swap4\n      mstore\n      pop\n        /* \"#utility.yul\":697:703   */\n      swap4\n        /* \"#utility.yul\":67:753   */\n      swap3\n      pop\n      pop\n      pop\n      jump\t// out\n        /* \"#utility.yul\":758:1015   */\n    tag_103:\n        /* \"#utility.yul\":817:823   */\n      0x00\n        /* \"#utility.yul\":870:872   */\n      0x20\n        /* \"#utility.yul\":858:867   */\n      dup3\n        /* \"#utility.yul\":849:856   */\n      dup5\n        /* \"#utility.yul\":845:868   */\n      sub\n        /* \"#utility.yul\":841:873   */\n      slt\n        /* \"#utility.yul\":838:840   */\n      iszero\n      tag_651\n      jumpi\n        /* \"#utility.yul\":891:897   */\n      dup1\n        /* \"#utility.yul\":883:889   */\n      dup2\n        /* \"#utility.yul\":876:898   */\n      revert\n        /* \"#utility.yul\":838:840   */\n    tag_651:\n        /* \"#utility.yul\":935:944   */\n      dup2\n        /* \"#utility.yul\":922:945   */\n      calldataload\n        /* \"#utility.yul\":954:985   */\n      tag_652\n        /* \"#utility.yul\":979:984   */\n      dup2\n        /* \"#utility.yul\":954:985   */\n      tag_653\n      jump\t// in\n    tag_652:\n        /* \"#utility.yul\":1004:1009   */\n      swap4\n        /* \"#utility.yul\":828:1015   */\n      swap3\n      pop\n      pop\n      pop\n      jump\t// out\n        /* \"#utility.yul\":1020:1281   */\n    tag_295:\n        /* \"#utility.yul\":1090:1096   */\n      0x00\n        /* \"#utility.yul\":1143:1145   */\n      0x20\n        /* \"#utility.yul\":1131:1140   */\n      dup3\n        /* \"#utility.yul\":1122:1129   */\n      dup5\n        /* \"#utility.yul\":1118:1141   */\n      sub\n        /* \"#utility.yul\":1114:1146   */\n      slt\n        /* \"#utility.yul\":1111:1113   */\n      iszero\n      tag_655\n      jumpi\n        /* \"#utility.yul\":1164:1170   */\n      dup1\n        /* \"#utility.yul\":1156:1162   */\n      dup2\n        /* \"#utility.yul\":1149:1171   */\n      revert\n        /* \"#utility.yul\":1111:1113   */\n    tag_655:\n        /* \"#utility.yul\":1201:1210   */\n      dup2\n        /* \"#utility.yul\":1195:1211   */\n      mload\n        /* \"#utility.yul\":1220:1251   */\n      tag_652\n        /* \"#utility.yul\":1245:1250   */\n      dup2\n        /* \"#utility.yul\":1220:1251   */\n      tag_653\n      jump\t// in\n        /* \"#utility.yul\":1286:1684   */\n    tag_169:\n        /* \"#utility.yul\":1354:1360   */\n      0x00\n        /* \"#utility.yul\":1362:1368   */\n      dup1\n        /* \"#utility.yul\":1415:1417   */\n      0x40\n        /* \"#utility.yul\":1403:1412   */\n      dup4\n        /* \"#utility.yul\":1394:1401   */\n      dup6\n        /* \"#utility.yul\":1390:1413   */\n      sub\n        /* \"#utility.yul\":1386:1418   */\n      slt\n        /* \"#utility.yul\":1383:1385   */\n      iszero\n      tag_658\n      jumpi\n        /* \"#utility.yul\":1436:1442   */\n      dup1\n        /* \"#utility.yul\":1428:1434   */\n      dup2\n        /* \"#utility.yul\":1421:1443   */\n      revert\n        /* \"#utility.yul\":1383:1385   */\n    tag_658:\n        /* \"#utility.yul\":1480:1489   */\n      dup3\n        /* \"#utility.yul\":1467:1490   */\n      calldataload\n        /* \"#utility.yul\":1499:1530   */\n      tag_659\n        /* \"#utility.yul\":1524:1529   */\n      dup2\n        /* \"#utility.yul\":1499:1530   */\n      tag_653\n      jump\t// in\n    tag_659:\n        /* \"#utility.yul\":1549:1554   */\n      swap2\n      pop\n        /* \"#utility.yul\":1606:1608   */\n      0x20\n        /* \"#utility.yul\":1591:1609   */\n      dup4\n      add\n        /* \"#utility.yul\":1578:1610   */\n      calldataload\n        /* \"#utility.yul\":1619:1652   */\n      tag_660\n        /* \"#utility.yul\":1578:1610   */\n      dup2\n        /* \"#utility.yul\":1619:1652   */\n      tag_653\n      jump\t// in\n    tag_660:\n        /* \"#utility.yul\":1671:1678   */\n      dup1\n        /* \"#utility.yul\":1661:1678   */\n      swap2\n      pop\n      pop\n        /* \"#utility.yul\":1373:1684   */\n      swap3\n      pop\n      swap3\n      swap1\n      pop\n      jump\t// out\n        /* \"#utility.yul\":1689:2155   */\n    tag_70:\n        /* \"#utility.yul\":1766:1772   */\n      0x00\n        /* \"#utility.yul\":1774:1780   */\n      dup1\n        /* \"#utility.yul\":1782:1788   */\n      0x00\n        /* \"#utility.yul\":1835:1837   */\n      0x60\n        /* \"#utility.yul\":1823:1832   */\n      dup5\n        /* \"#utility.yul\":1814:1821   */\n      dup7\n        /* \"#utility.yul\":1810:1833   */\n      sub\n        /* \"#utility.yul\":1806:1838   */\n      slt\n        /* \"#utility.yul\":1803:1805   */\n      iszero\n      tag_662\n      jumpi\n        /* \"#utility.yul\":1856:1862   */\n      dup1\n        /* \"#utility.yul\":1848:1854   */\n      dup2\n        /* \"#utility.yul\":1841:1863   */\n      revert\n        /* \"#utility.yul\":1803:1805   */\n    tag_662:\n        /* \"#utility.yul\":1900:1909   */\n      dup4\n        /* \"#utility.yul\":1887:1910   */\n      calldataload\n        /* \"#utility.yul\":1919:1950   */\n      tag_663\n        /* \"#utility.yul\":1944:1949   */\n      dup2\n        /* \"#utility.yul\":1919:1950   */\n      tag_653\n      jump\t// in\n    tag_663:\n        /* \"#utility.yul\":1969:1974   */\n      swap3\n      pop\n        /* \"#utility.yul\":2026:2028   */\n      0x20\n        /* \"#utility.yul\":2011:2029   */\n      dup5\n      add\n        /* \"#utility.yul\":1998:2030   */\n      calldataload\n        /* \"#utility.yul\":2039:2072   */\n      tag_664\n        /* \"#utility.yul\":1998:2030   */\n      dup2\n        /* \"#utility.yul\":2039:2072   */\n      tag_653\n      jump\t// in\n    tag_664:\n        /* \"#utility.yul\":1793:2155   */\n      swap3\n      swap6\n        /* \"#utility.yul\":2091:2098   */\n      swap3\n      swap5\n      pop\n      pop\n      pop\n        /* \"#utility.yul\":2145:2147   */\n      0x40\n        /* \"#utility.yul\":2130:2148   */\n      swap2\n      swap1\n      swap2\n      add\n        /* \"#utility.yul\":2117:2149   */\n      calldataload\n      swap1\n        /* \"#utility.yul\":1793:2155   */\n      jump\t// out\n        /* \"#utility.yul\":2160:2485   */\n    tag_53:\n        /* \"#utility.yul\":2228:2234   */\n      0x00\n        /* \"#utility.yul\":2236:2242   */\n      dup1\n        /* \"#utility.yul\":2289:2291   */\n      0x40\n        /* \"#utility.yul\":2277:2286   */\n      dup4\n        /* \"#utility.yul\":2268:2275   */\n      dup6\n        /* \"#utility.yul\":2264:2287   */\n      sub\n        /* \"#utility.yul\":2260:2292   */\n      slt\n        /* \"#utility.yul\":2257:2259   */\n      iszero\n      tag_666\n      jumpi\n        /* \"#utility.yul\":2310:2316   */\n      dup2\n        /* \"#utility.yul\":2302:2308   */\n      dup3\n        /* \"#utility.yul\":2295:2317   */\n      revert\n        /* \"#utility.yul\":2257:2259   */\n    tag_666:\n        /* \"#utility.yul\":2354:2363   */\n      dup3\n        /* \"#utility.yul\":2341:2364   */\n      calldataload\n        /* \"#utility.yul\":2373:2404   */\n      tag_667\n        /* \"#utility.yul\":2398:2403   */\n      dup2\n        /* \"#utility.yul\":2373:2404   */\n      tag_653\n      jump\t// in\n    tag_667:\n        /* \"#utility.yul\":2423:2428   */\n      swap5\n        /* \"#utility.yul\":2475:2477   */\n      0x20\n        /* \"#utility.yul\":2460:2478   */\n      swap4\n      swap1\n      swap4\n      add\n        /* \"#utility.yul\":2447:2479   */\n      calldataload\n      swap4\n      pop\n      pop\n      pop\n        /* \"#utility.yul\":2247:2485   */\n      jump\t// out\n        /* \"#utility.yul\":2490:2787   */\n    tag_581:\n        /* \"#utility.yul\":2557:2563   */\n      0x00\n        /* \"#utility.yul\":2610:2612   */\n      0x20\n        /* \"#utility.yul\":2598:2607   */\n      dup3\n        /* \"#utility.yul\":2589:2596   */\n      dup5\n        /* \"#utility.yul\":2585:2608   */\n      sub\n        /* \"#utility.yul\":2581:2613   */\n      slt\n        /* \"#utility.yul\":2578:2580   */\n      iszero\n      tag_669\n      jumpi\n        /* \"#utility.yul\":2631:2637   */\n      dup1\n        /* \"#utility.yul\":2623:2629   */\n      dup2\n        /* \"#utility.yul\":2616:2638   */\n      revert\n        /* \"#utility.yul\":2578:2580   */\n    tag_669:\n        /* \"#utility.yul\":2668:2677   */\n      dup2\n        /* \"#utility.yul\":2662:2678   */\n      mload\n        /* \"#utility.yul\":2721:2726   */\n      dup1\n        /* \"#utility.yul\":2714:2727   */\n      iszero\n        /* \"#utility.yul\":2707:2728   */\n      iszero\n        /* \"#utility.yul\":2700:2705   */\n      dup2\n        /* \"#utility.yul\":2697:2729   */\n      eq\n        /* \"#utility.yul\":2687:2689   */\n      tag_652\n      jumpi\n        /* \"#utility.yul\":2748:2754   */\n      dup2\n        /* \"#utility.yul\":2740:2746   */\n      dup3\n        /* \"#utility.yul\":2733:2755   */\n      revert\n        /* \"#utility.yul\":3084:3879   */\n    tag_98:\n        /* \"#utility.yul\":3208:3214   */\n      0x00\n        /* \"#utility.yul\":3216:3222   */\n      dup1\n        /* \"#utility.yul\":3224:3230   */\n      0x00\n        /* \"#utility.yul\":3232:3238   */\n      dup1\n        /* \"#utility.yul\":3285:3288   */\n      0x80\n        /* \"#utility.yul\":3273:3282   */\n      dup6\n        /* \"#utility.yul\":3264:3271   */\n      dup8\n        /* \"#utility.yul\":3260:3283   */\n      sub\n        /* \"#utility.yul\":3256:3289   */\n      slt\n        /* \"#utility.yul\":3253:3255   */\n      iszero\n      tag_675\n      jumpi\n        /* \"#utility.yul\":3307:3313   */\n      dup1\n        /* \"#utility.yul\":3299:3305   */\n      dup2\n        /* \"#utility.yul\":3292:3314   */\n      revert\n        /* \"#utility.yul\":3253:3255   */\n    tag_675:\n        /* \"#utility.yul\":3351:3360   */\n      dup5\n        /* \"#utility.yul\":3338:3361   */\n      calldataload\n        /* \"#utility.yul\":3370:3401   */\n      tag_676\n        /* \"#utility.yul\":3395:3400   */\n      dup2\n        /* \"#utility.yul\":3370:3401   */\n      tag_653\n      jump\t// in\n    tag_676:\n        /* \"#utility.yul\":3420:3425   */\n      swap4\n      pop\n        /* \"#utility.yul\":3476:3478   */\n      0x20\n        /* \"#utility.yul\":3461:3479   */\n      dup6\n      add\n        /* \"#utility.yul\":3448:3480   */\n      calldataload\n        /* \"#utility.yul\":3499:3517   */\n      0xffffffffffffffff\n        /* \"#utility.yul\":3529:3543   */\n      dup1\n      dup3\n      gt\n        /* \"#utility.yul\":3526:3528   */\n      iszero\n      tag_677\n      jumpi\n        /* \"#utility.yul\":3561:3567   */\n      dup3\n        /* \"#utility.yul\":3553:3559   */\n      dup4\n        /* \"#utility.yul\":3546:3568   */\n      revert\n        /* \"#utility.yul\":3526:3528   */\n    tag_677:\n        /* \"#utility.yul\":3589:3639   */\n      tag_678\n        /* \"#utility.yul\":3631:3638   */\n      dup9\n        /* \"#utility.yul\":3622:3628   */\n      dup4\n        /* \"#utility.yul\":3611:3620   */\n      dup10\n        /* \"#utility.yul\":3607:3629   */\n      add\n        /* \"#utility.yul\":3589:3639   */\n      tag_641\n      jump\t// in\n    tag_678:\n        /* \"#utility.yul\":3579:3639   */\n      swap5\n      pop\n        /* \"#utility.yul\":3692:3694   */\n      0x40\n        /* \"#utility.yul\":3681:3690   */\n      dup8\n        /* \"#utility.yul\":3677:3695   */\n      add\n        /* \"#utility.yul\":3664:3696   */\n      calldataload\n        /* \"#utility.yul\":3648:3696   */\n      swap2\n      pop\n        /* \"#utility.yul\":3721:3723   */\n      dup1\n        /* \"#utility.yul\":3711:3719   */\n      dup3\n        /* \"#utility.yul\":3708:3724   */\n      gt\n        /* \"#utility.yul\":3705:3707   */\n      iszero\n      tag_679\n      jumpi\n        /* \"#utility.yul\":3742:3748   */\n      dup3\n        /* \"#utility.yul\":3734:3740   */\n      dup4\n        /* \"#utility.yul\":3727:3749   */\n      revert\n        /* \"#utility.yul\":3705:3707   */\n    tag_679:\n      pop\n        /* \"#utility.yul\":3770:3822   */\n      tag_680\n        /* \"#utility.yul\":3814:3821   */\n      dup8\n        /* \"#utility.yul\":3803:3811   */\n      dup3\n        /* \"#utility.yul\":3792:3801   */\n      dup9\n        /* \"#utility.yul\":3788:3812   */\n      add\n        /* \"#utility.yul\":3770:3822   */\n      tag_641\n      jump\t// in\n    tag_680:\n        /* \"#utility.yul\":3243:3879   */\n      swap5\n      swap8\n      swap4\n      swap7\n      pop\n        /* \"#utility.yul\":3760:3822   */\n      swap4\n      swap5\n        /* \"#utility.yul\":3869:3871   */\n      0x60\n        /* \"#utility.yul\":3854:3872   */\n      add\n        /* \"#utility.yul\":3841:3873   */\n      calldataload\n      swap4\n      pop\n      pop\n      pop\n        /* \"#utility.yul\":3243:3879   */\n      jump\t// out\n        /* \"#utility.yul\":3884:4074   */\n    tag_76:\n        /* \"#utility.yul\":3943:3949   */\n      0x00\n        /* \"#utility.yul\":3996:3998   */\n      0x20\n        /* \"#utility.yul\":3984:3993   */\n      dup3\n        /* \"#utility.yul\":3975:3982   */\n      dup5\n        /* \"#utility.yul\":3971:3994   */\n      sub\n        /* \"#utility.yul\":3967:3999   */\n      slt\n        /* \"#utility.yul\":3964:3966   */\n      iszero\n      tag_682\n      jumpi\n        /* \"#utility.yul\":4017:4023   */\n      dup1\n        /* \"#utility.yul\":4009:4015   */\n      dup2\n        /* \"#utility.yul\":4002:4024   */\n      revert\n        /* \"#utility.yul\":3964:3966   */\n    tag_682:\n      pop\n        /* \"#utility.yul\":4045:4068   */\n      calldataload\n      swap2\n        /* \"#utility.yul\":3954:4074   */\n      swap1\n      pop\n      jump\t// out\n        /* \"#utility.yul\":4079:4273   */\n    tag_230:\n        /* \"#utility.yul\":4149:4155   */\n      0x00\n        /* \"#utility.yul\":4202:4204   */\n      0x20\n        /* \"#utility.yul\":4190:4199   */\n      dup3\n        /* \"#utility.yul\":4181:4188   */\n      dup5\n        /* \"#utility.yul\":4177:4200   */\n      sub\n        /* \"#utility.yul\":4173:4205   */\n      slt\n        /* \"#utility.yul\":4170:4172   */\n      iszero\n      tag_684\n      jumpi\n        /* \"#utility.yul\":4223:4229   */\n      dup1\n        /* \"#utility.yul\":4215:4221   */\n      dup2\n        /* \"#utility.yul\":4208:4230   */\n      revert\n        /* \"#utility.yul\":4170:4172   */\n    tag_684:\n      pop\n        /* \"#utility.yul\":4251:4267   */\n      mload\n      swap2\n        /* \"#utility.yul\":4160:4273   */\n      swap1\n      pop\n      jump\t// out\n        /* \"#utility.yul\":4278:4552   */\n    tag_610:\n        /* \"#utility.yul\":4407:4410   */\n      0x00\n        /* \"#utility.yul\":4445:4451   */\n      dup3\n        /* \"#utility.yul\":4439:4452   */\n      mload\n        /* \"#utility.yul\":4461:4514   */\n      tag_686\n        /* \"#utility.yul\":4507:4513   */\n      dup2\n        /* \"#utility.yul\":4502:4505   */\n      dup5\n        /* \"#utility.yul\":4495:4499   */\n      0x20\n        /* \"#utility.yul\":4487:4493   */\n      dup8\n        /* \"#utility.yul\":4483:4500   */\n      add\n        /* \"#utility.yul\":4461:4514   */\n      tag_687\n      jump\t// in\n    tag_686:\n        /* \"#utility.yul\":4530:4546   */\n      swap2\n      swap1\n      swap2\n      add\n      swap3\n        /* \"#utility.yul\":4415:4552   */\n      swap2\n      pop\n      pop\n      jump\t// out\n        /* \"#utility.yul\":6275:6658   */\n    tag_49:\n        /* \"#utility.yul\":6424:6426   */\n      0x20\n        /* \"#utility.yul\":6413:6422   */\n      dup2\n        /* \"#utility.yul\":6406:6427   */\n      mstore\n        /* \"#utility.yul\":6387:6391   */\n      0x00\n        /* \"#utility.yul\":6456:6462   */\n      dup3\n        /* \"#utility.yul\":6450:6463   */\n      mload\n        /* \"#utility.yul\":6499:6505   */\n      dup1\n        /* \"#utility.yul\":6494:6496   */\n      0x20\n        /* \"#utility.yul\":6483:6492   */\n      dup5\n        /* \"#utility.yul\":6479:6497   */\n      add\n        /* \"#utility.yul\":6472:6506   */\n      mstore\n        /* \"#utility.yul\":6515:6581   */\n      tag_696\n        /* \"#utility.yul\":6574:6580   */\n      dup2\n        /* \"#utility.yul\":6569:6571   */\n      0x40\n        /* \"#utility.yul\":6558:6567   */\n      dup6\n        /* \"#utility.yul\":6554:6572   */\n      add\n        /* \"#utility.yul\":6549:6551   */\n      0x20\n        /* \"#utility.yul\":6541:6547   */\n      dup8\n        /* \"#utility.yul\":6537:6552   */\n      add\n        /* \"#utility.yul\":6515:6581   */\n      tag_687\n      jump\t// in\n    tag_696:\n        /* \"#utility.yul\":6642:6644   */\n      0x1f\n        /* \"#utility.yul\":6621:6636   */\n      add\n      not(0x1f)\n        /* \"#utility.yul\":6617:6646   */\n      and\n        /* \"#utility.yul\":6602:6647   */\n      swap2\n      swap1\n      swap2\n      add\n        /* \"#utility.yul\":6649:6651   */\n      0x40\n        /* \"#utility.yul\":6598:6652   */\n      add\n      swap3\n        /* \"#utility.yul\":6396:6658   */\n      swap2\n      pop\n      pop\n      jump\t// out\n        /* \"#utility.yul\":13577:13984   */\n    tag_534:\n        /* \"#utility.yul\":13779:13781   */\n      0x20\n        /* \"#utility.yul\":13761:13782   */\n      dup1\n      dup3\n      mstore\n        /* \"#utility.yul\":13818:13820   */\n      0x2b\n        /* \"#utility.yul\":13798:13816   */\n      swap1\n      dup3\n      add\n        /* \"#utility.yul\":13791:13821   */\n      mstore\n        /* \"#utility.yul\":13857:13891   */\n      0x496e697469616c697a61626c653a20636f6e7472616374206973206e6f742069\n        /* \"#utility.yul\":13852:13854   */\n      0x40\n        /* \"#utility.yul\":13837:13855   */\n      dup3\n      add\n        /* \"#utility.yul\":13830:13892   */\n      mstore\n      shl(0xa8, 0x6e697469616c697a696e67)\n        /* \"#utility.yul\":13923:13925   */\n      0x60\n        /* \"#utility.yul\":13908:13926   */\n      dup3\n      add\n        /* \"#utility.yul\":13901:13942   */\n      mstore\n        /* \"#utility.yul\":13974:13977   */\n      0x80\n        /* \"#utility.yul\":13959:13978   */\n      add\n      swap1\n        /* \"#utility.yul\":13751:13984   */\n      jump\t// out\n        /* \"#utility.yul\":15897:16025   */\n    tag_247:\n        /* \"#utility.yul\":15937:15940   */\n      0x00\n        /* \"#utility.yul\":15968:15969   */\n      dup3\n        /* \"#utility.yul\":15964:15970   */\n      not\n        /* \"#utility.yul\":15961:15962   */\n      dup3\n        /* \"#utility.yul\":15958:15971   */\n      gt\n        /* \"#utility.yul\":15955:15957   */\n      iszero\n      tag_724\n      jumpi\n        /* \"#utility.yul\":15974:15992   */\n      tag_724\n      tag_725\n      jump\t// in\n    tag_724:\n      pop\n        /* \"#utility.yul\":16010:16019   */\n      add\n      swap1\n        /* \"#utility.yul\":15945:16025   */\n      jump\t// out\n        /* \"#utility.yul\":16030:16247   */\n    tag_221:\n        /* \"#utility.yul\":16070:16071   */\n      0x00\n        /* \"#utility.yul\":16096:16097   */\n      dup3\n        /* \"#utility.yul\":16086:16088   */\n      tag_727\n      jumpi\n      shl(0xe0, 0x4e487b71)\n        /* \"#utility.yul\":16121:16152   */\n      dup2\n      mstore\n        /* \"#utility.yul\":16175:16179   */\n      0x12\n        /* \"#utility.yul\":16172:16173   */\n      0x04\n        /* \"#utility.yul\":16165:16180   */\n      mstore\n        /* \"#utility.yul\":16203:16207   */\n      0x24\n        /* \"#utility.yul\":16128:16129   */\n      dup2\n        /* \"#utility.yul\":16193:16208   */\n      revert\n        /* \"#utility.yul\":16086:16088   */\n    tag_727:\n      pop\n        /* \"#utility.yul\":16232:16241   */\n      div\n      swap1\n        /* \"#utility.yul\":16076:16247   */\n      jump\t// out\n        /* \"#utility.yul\":16252:16420   */\n    tag_219:\n        /* \"#utility.yul\":16292:16299   */\n      0x00\n        /* \"#utility.yul\":16358:16359   */\n      dup2\n        /* \"#utility.yul\":16354:16355   */\n      0x00\n        /* \"#utility.yul\":16350:16356   */\n      not\n        /* \"#utility.yul\":16346:16360   */\n      div\n        /* \"#utility.yul\":16343:16344   */\n      dup4\n        /* \"#utility.yul\":16340:16361   */\n      gt\n        /* \"#utility.yul\":16335:16336   */\n      dup3\n        /* \"#utility.yul\":16328:16337   */\n      iszero\n        /* \"#utility.yul\":16321:16338   */\n      iszero\n        /* \"#utility.yul\":16317:16362   */\n      and\n        /* \"#utility.yul\":16314:16316   */\n      iszero\n      tag_730\n      jumpi\n        /* \"#utility.yul\":16365:16383   */\n      tag_730\n      tag_725\n      jump\t// in\n    tag_730:\n      pop\n        /* \"#utility.yul\":16405:16414   */\n      mul\n      swap1\n        /* \"#utility.yul\":16304:16420   */\n      jump\t// out\n        /* \"#utility.yul\":16425:16550   */\n    tag_233:\n        /* \"#utility.yul\":16465:16469   */\n      0x00\n        /* \"#utility.yul\":16493:16494   */\n      dup3\n        /* \"#utility.yul\":16490:16491   */\n      dup3\n        /* \"#utility.yul\":16487:16495   */\n      lt\n        /* \"#utility.yul\":16484:16486   */\n      iszero\n      tag_733\n      jumpi\n        /* \"#utility.yul\":16498:16516   */\n      tag_733\n      tag_725\n      jump\t// in\n    tag_733:\n      pop\n        /* \"#utility.yul\":16535:16544   */\n      sub\n      swap1\n        /* \"#utility.yul\":16474:16550   */\n      jump\t// out\n        /* \"#utility.yul\":16555:16813   */\n    tag_687:\n        /* \"#utility.yul\":16627:16628   */\n      0x00\n        /* \"#utility.yul\":16637:16750   */\n    tag_735:\n        /* \"#utility.yul\":16651:16657   */\n      dup4\n        /* \"#utility.yul\":16648:16649   */\n      dup2\n        /* \"#utility.yul\":16645:16658   */\n      lt\n        /* \"#utility.yul\":16637:16750   */\n      iszero\n      tag_737\n      jumpi\n        /* \"#utility.yul\":16727:16738   */\n      dup2\n      dup2\n      add\n        /* \"#utility.yul\":16721:16739   */\n      mload\n        /* \"#utility.yul\":16708:16719   */\n      dup4\n      dup3\n      add\n        /* \"#utility.yul\":16701:16740   */\n      mstore\n        /* \"#utility.yul\":16673:16675   */\n      0x20\n        /* \"#utility.yul\":16666:16676   */\n      add\n        /* \"#utility.yul\":16637:16750   */\n      jump(tag_735)\n    tag_737:\n        /* \"#utility.yul\":16768:16774   */\n      dup4\n        /* \"#utility.yul\":16765:16766   */\n      dup2\n        /* \"#utility.yul\":16762:16775   */\n      gt\n        /* \"#utility.yul\":16759:16761   */\n      iszero\n      tag_355\n      jumpi\n      pop\n      pop\n        /* \"#utility.yul\":16803:16804   */\n      0x00\n        /* \"#utility.yul\":16785:16801   */\n      swap2\n      add\n        /* \"#utility.yul\":16778:16805   */\n      mstore\n        /* \"#utility.yul\":16608:16813   */\n      jump\t// out\n        /* \"#utility.yul\":16818:17198   */\n    tag_192:\n        /* \"#utility.yul\":16897:16898   */\n      0x01\n        /* \"#utility.yul\":16893:16905   */\n      dup2\n      dup2\n      shr\n      swap1\n        /* \"#utility.yul\":16940:16952   */\n      dup3\n      and\n      dup1\n        /* \"#utility.yul\":16961:16963   */\n      tag_740\n      jumpi\n        /* \"#utility.yul\":17015:17019   */\n      0x7f\n        /* \"#utility.yul\":17007:17013   */\n      dup3\n        /* \"#utility.yul\":17003:17020   */\n      and\n        /* \"#utility.yul\":16993:17020   */\n      swap2\n      pop\n        /* \"#utility.yul\":16961:16963   */\n    tag_740:\n        /* \"#utility.yul\":17068:17070   */\n      0x20\n        /* \"#utility.yul\":17060:17066   */\n      dup3\n        /* \"#utility.yul\":17057:17071   */\n      lt\n        /* \"#utility.yul\":17037:17055   */\n      dup2\n        /* \"#utility.yul\":17034:17072   */\n      eq\n        /* \"#utility.yul\":17031:17033   */\n      iszero\n      tag_741\n      jumpi\n        /* \"#utility.yul\":17114:17124   */\n      0x4e487b71\n        /* \"#utility.yul\":17109:17112   */\n      0xe0\n        /* \"#utility.yul\":17105:17125   */\n      shl\n        /* \"#utility.yul\":17102:17103   */\n      0x00\n        /* \"#utility.yul\":17095:17126   */\n      mstore\n        /* \"#utility.yul\":17149:17153   */\n      0x22\n        /* \"#utility.yul\":17146:17147   */\n      0x04\n        /* \"#utility.yul\":17139:17154   */\n      mstore\n        /* \"#utility.yul\":17177:17181   */\n      0x24\n        /* \"#utility.yul\":17174:17175   */\n      0x00\n        /* \"#utility.yul\":17167:17182   */\n      revert\n        /* \"#utility.yul\":17031:17033   */\n    tag_741:\n      pop\n        /* \"#utility.yul\":16873:17198   */\n      swap2\n      swap1\n      pop\n      jump\t// out\n        /* \"#utility.yul\":17203:17330   */\n    tag_725:\n        /* \"#utility.yul\":17264:17274   */\n      0x4e487b71\n        /* \"#utility.yul\":17259:17262   */\n      0xe0\n        /* \"#utility.yul\":17255:17275   */\n      shl\n        /* \"#utility.yul\":17252:17253   */\n      0x00\n        /* \"#utility.yul\":17245:17276   */\n      mstore\n        /* \"#utility.yul\":17295:17299   */\n      0x11\n        /* \"#utility.yul\":17292:17293   */\n      0x04\n        /* \"#utility.yul\":17285:17300   */\n      mstore\n        /* \"#utility.yul\":17319:17323   */\n      0x24\n        /* \"#utility.yul\":17316:17317   */\n      0x00\n        /* \"#utility.yul\":17309:17324   */\n      revert\n        /* \"#utility.yul\":17335:17462   */\n    tag_646:\n        /* \"#utility.yul\":17396:17406   */\n      0x4e487b71\n        /* \"#utility.yul\":17391:17394   */\n      0xe0\n        /* \"#utility.yul\":17387:17407   */\n      shl\n        /* \"#utility.yul\":17384:17385   */\n      0x00\n        /* \"#utility.yul\":17377:17408   */\n      mstore\n        /* \"#utility.yul\":17427:17431   */\n      0x41\n        /* \"#utility.yul\":17424:17425   */\n      0x04\n        /* \"#utility.yul\":17417:17432   */\n      mstore\n        /* \"#utility.yul\":17451:17455   */\n      0x24\n        /* \"#utility.yul\":17448:17449   */\n      0x00\n        /* \"#utility.yul\":17441:17456   */\n      revert\n        /* \"#utility.yul\":17467:17598   */\n    tag_653:\n      sub(shl(0xa0, 0x01), 0x01)\n        /* \"#utility.yul\":17542:17573   */\n      dup2\n      and\n        /* \"#utility.yul\":17532:17574   */\n      dup2\n      eq\n        /* \"#utility.yul\":17522:17524   */\n      tag_410\n      jumpi\n        /* \"#utility.yul\":17588:17589   */\n      0x00\n        /* \"#utility.yul\":17585:17586   */\n      dup1\n        /* \"#utility.yul\":17578:17590   */\n      revert\n\n    auxdata: 0xa2646970667358221220ac267001eb9a172aebdd86e5e4489fe96e16d560eb3511147be4c85755b4cdf264736f6c63430008040033\n}\n",
				"bytecode": {
					"linkReferences": {},
					"object": "608060405234801561001057600080fd5b50612778806100206000396000f3fe6080604052600436106101f25760003560e01c806384276d811161010d578063b6b55f25116100a0578063de5f62681161006f578063de5f62681461056a578063def68a9c1461057f578063e2d1e75c1461059f578063e6685244146105b5578063f2fde38b146105ca57600080fd5b8063b6b55f251461050d578063d389800f1461052d578063db6b524614610542578063dd62ed3e1461054a57600080fd5b8063a457c2d7116100dc578063a457c2d714610498578063a8c62e76146104b8578063a9059cbb146104d8578063b69ef8a8146104f857600080fd5b806384276d8114610430578063853828b6146104505780638da5cb5b1461046557806395d89b411461048357600080fd5b8063482fe0241161018557806370a082311161015457806370a082311461038d578063715018a6146103c357806376dfabb8146103d857806377c7b8fc1461041b57600080fd5b8063482fe0241461032357806348a0d754146103385780634d12d4b61461034d5780635b12ff9b1461036d57600080fd5b806323b872dd116101c157806323b872dd146102a55780632e1a7d4d146102c5578063313ce567146102e7578063395093511461030357600080fd5b806306fdde03146101fe578063095ea7b31461022957806318160ddd146102595780631f1fcd511461027857600080fd5b366101f957005b600080fd5b34801561020a57600080fd5b506102136105ea565b60405161022091906125ae565b60405180910390f35b34801561023557600080fd5b5061024961024436600461249c565b61067c565b6040519015158152602001610220565b34801561026557600080fd5b506035545b604051908152602001610220565b34801561028457600080fd5b5061028d610694565b6040516001600160a01b039091168152602001610220565b3480156102b157600080fd5b506102496102c036600461245c565b610716565b3480156102d157600080fd5b506102e56102e0366004612562565b61073a565b005b3480156102f357600080fd5b5060405160128152602001610220565b34801561030f57600080fd5b5061024961031e36600461249c565b610934565b34801561032f57600080fd5b506102e5610956565b34801561034457600080fd5b5061026a610971565b34801561035957600080fd5b506102e56103683660046124e7565b6109f4565b34801561037957600080fd5b506102e56103883660046123e5565b610b40565b34801561039957600080fd5b5061026a6103a83660046123e5565b6001600160a01b031660009081526033602052604090205490565b3480156103cf57600080fd5b506102e5610d53565b3480156103e457600080fd5b5060c95460ca546103fc916001600160a01b03169082565b604080516001600160a01b039093168352602083019190915201610220565b34801561042757600080fd5b5061026a610d65565b34801561043c57600080fd5b506102e561044b366004612562565b610da9565b34801561045c57600080fd5b506102e561101b565b34801561047157600080fd5b506065546001600160a01b031661028d565b34801561048f57600080fd5b50610213611034565b3480156104a457600080fd5b506102496104b336600461249c565b611043565b3480156104c457600080fd5b5060cb5461028d906001600160a01b031681565b3480156104e457600080fd5b506102496104f336600461249c565b6110be565b34801561050457600080fd5b5061026a6110cc565b34801561051957600080fd5b506102e5610528366004612562565b6111d4565b34801561053957600080fd5b506102e56112e0565b6102e561136a565b34801561055657600080fd5b5061026a610565366004612424565b6114b1565b34801561057657600080fd5b506102e56114dc565b34801561058b57600080fd5b506102e561059a3660046123e5565b611560565b3480156105ab57600080fd5b5061026a60cc5481565b3480156105c157600080fd5b506102e561164e565b3480156105d657600080fd5b506102e56105e53660046123e5565b6117d9565b6060603680546105f9906126c6565b80601f0160208091040260200160405190810160405280929190818152602001828054610625906126c6565b80156106725780601f1061064757610100808354040283529160200191610672565b820191906000526020600020905b81548152906001019060200180831161065557829003601f168201915b5050505050905090565b60003361068a81858561184f565b5060019392505050565b60cb5460408051631f1fcd5160e01b815290516000926001600160a01b031691631f1fcd51916004808301926020929190829003018186803b1580156106d957600080fd5b505afa1580156106ed573d6000803e3d6000fd5b505050506040513d601f19601f820116820180604052508101906107119190612408565b905090565b600033610724858285611973565b61072f8585856119e7565b506001949350505050565b600061074560355490565b8261074e6110cc565b6107589190612664565b6107629190612644565b905061076e3383611b92565b6000610778610694565b6040516370a0823160e01b81523060048201526001600160a01b0391909116906370a082319060240160206040518083038186803b1580156107b957600080fd5b505afa1580156107cd573d6000803e3d6000fd5b505050506040513d601f19601f820116820180604052508101906107f1919061257a565b9050818110156109125760006108078284612683565b60cb54604051632e1a7d4d60e01b8152600481018390529192506001600160a01b031690632e1a7d4d90602401600060405180830381600087803b15801561084e57600080fd5b505af1158015610862573d6000803e3d6000fd5b505050506000610870610694565b6040516370a0823160e01b81523060048201526001600160a01b0391909116906370a082319060240160206040518083038186803b1580156108b157600080fd5b505afa1580156108c5573d6000803e3d6000fd5b505050506040513d601f19601f820116820180604052508101906108e9919061257a565b905060006108f78483612683565b90508281101561090e5761090b818561262c565b94505b5050505b61092f338361091f610694565b6001600160a01b03169190611cc6565b505050565b60003361068a81858561094783836114b1565b610951919061262c565b61184f565b3360009081526033602052604090205461096f90610da9565b565b600061097b610694565b6040516370a0823160e01b81523060048201526001600160a01b0391909116906370a082319060240160206040518083038186803b1580156109bc57600080fd5b505afa1580156109d0573d6000803e3d6000fd5b505050506040513d601f19601f82011682018060405250810190610711919061257a565b600054610100900460ff1615808015610a145750600054600160ff909116105b80610a2e5750303b158015610a2e575060005460ff166001145b610a965760405162461bcd60e51b815260206004820152602e60248201527f496e697469616c697a61626c653a20636f6e747261637420697320616c72656160448201526d191e481a5b9a5d1a585b1a5e995960921b60648201526084015b60405180910390fd5b6000805460ff191660011790558015610ab9576000805461ff0019166101001790555b610ac38484611d29565b610acb611d5a565b610ad3611d89565b60cb80546001600160a01b0319166001600160a01b03871617905560cc8290558015610b39576000805461ff0019169055604051600181527f7f26b83ff96e1f2b6a682f133852f6798a09c465da95921460cefb38474024989060200160405180910390a15b5050505050565b610b48611db8565b806001600160a01b031663fbfa77cf6040518163ffffffff1660e01b815260040160206040518083038186803b158015610b8157600080fd5b505afa158015610b95573d6000803e3d6000fd5b505050506040513d601f19601f82011682018060405250810190610bb99190612408565b6001600160a01b0316306001600160a01b031614610c235760405162461bcd60e51b815260206004820152602160248201527f50726f706f73616c206e6f742076616c696420666f722074686973205661756c6044820152601d60fa1b6064820152608401610a8d565b806001600160a01b0316631f1fcd516040518163ffffffff1660e01b815260040160206040518083038186803b158015610c5c57600080fd5b505afa158015610c70573d6000803e3d6000fd5b505050506040513d601f19601f82011682018060405250810190610c949190612408565b6001600160a01b0316610ca5610694565b6001600160a01b031614610cec5760405162461bcd60e51b815260206004820152600e60248201526d111a5999995c995b9d081dd85b9d60921b6044820152606401610a8d565b6040805180820182526001600160a01b03831680825242602092830181905260c980546001600160a01b0319168317905560ca5591519182527f1aae2ec5647db56da2d513de40528ba3565c6057525637050660c4323bbac7df910160405180910390a150565b610d5b611db8565b61096f6000611e12565b6000610d7060355490565b15610d9c57603554610d806110cc565b610d9290670de0b6b3a7640000612664565b6107119190612644565b50670de0b6b3a764000090565b6000610db460355490565b82610dbd6110cc565b610dc79190612664565b610dd19190612644565b9050610ddd3383611b92565b6000610de7610694565b6040516370a0823160e01b81523060048201526001600160a01b0391909116906370a082319060240160206040518083038186803b158015610e2857600080fd5b505afa158015610e3c573d6000803e3d6000fd5b505050506040513d601f19601f82011682018060405250810190610e60919061257a565b905081811015610f81576000610e768284612683565b60cb54604051632e1a7d4d60e01b8152600481018390529192506001600160a01b031690632e1a7d4d90602401600060405180830381600087803b158015610ebd57600080fd5b505af1158015610ed1573d6000803e3d6000fd5b505050506000610edf610694565b6040516370a0823160e01b81523060048201526001600160a01b0391909116906370a082319060240160206040518083038186803b158015610f2057600080fd5b505afa158015610f34573d6000803e3d6000fd5b505050506040513d601f19601f82011682018060405250810190610f58919061257a565b90506000610f668483612683565b905082811015610f7d57610f7a818561262c565b94505b5050505b610f89610694565b6001600160a01b0316632e1a7d4d836040518263ffffffff1660e01b8152600401610fb691815260200190565b600060405180830381600087803b158015610fd057600080fd5b505af1158015610fe4573d6000803e3d6000fd5b505060405133925084156108fc02915084906000818181858888f19350505050158015611015573d6000803e3d6000fd5b50505050565b3360009081526033602052604090205461096f9061073a565b6060603780546105f9906126c6565b6000338161105182866114b1565b9050838110156110b15760405162461bcd60e51b815260206004820152602560248201527f45524332303a2064656372656173656420616c6c6f77616e63652062656c6f77604482015264207a65726f60d81b6064820152608401610a8d565b61072f828686840361184f565b60003361068a8185856119e7565b60cb546040805163722713f760e01b815290516000926001600160a01b03169163722713f7916004808301926020929190829003018186803b15801561111157600080fd5b505afa158015611125573d6000803e3d6000fd5b505050506040513d601f19601f82011682018060405250810190611149919061257a565b611151610694565b6040516370a0823160e01b81523060048201526001600160a01b0391909116906370a082319060240160206040518083038186803b15801561119257600080fd5b505afa1580156111a6573d6000803e3d6000fd5b505050506040513d601f19601f820116820180604052508101906111ca919061257a565b610711919061262c565b6111dc611e64565b60cb60009054906101000a90046001600160a01b03166001600160a01b031663573fef0a6040518163ffffffff1660e01b8152600401600060405180830381600087803b15801561122c57600080fd5b505af1158015611240573d6000803e3d6000fd5b50505050600061124e6110cc565b905061126f33308461125e610694565b6001600160a01b0316929190611ebe565b6112776112e0565b60006112816110cc565b905061128d8282612683565b9250600061129a60355490565b6112a55750826112c6565b826112af60355490565b6112b99086612664565b6112c39190612644565b90505b6112d03382611ef6565b5050506112dd6001609755565b50565b60006112ea610971565b60cb54909150611306906001600160a01b03168261091f610694565b60cb60009054906101000a90046001600160a01b03166001600160a01b031663d0e30db06040518163ffffffff1660e01b8152600401600060405180830381600087803b15801561135657600080fd5b505af1158015610b39573d6000803e3d6000fd5b611372611e64565b60cb60009054906101000a90046001600160a01b03166001600160a01b031663573fef0a6040518163ffffffff1660e01b8152600401600060405180830381600087803b1580156113c257600080fd5b505af11580156113d6573d6000803e3d6000fd5b5050505060006113e46110cc565b9050346113ef610694565b6001600160a01b031663d0e30db0826040518263ffffffff1660e01b81526004016000604051808303818588803b15801561142957600080fd5b505af115801561143d573d6000803e3d6000fd5b505050505061144a6112e0565b60006114546110cc565b90506114608382612683565b9150600061146d60355490565b611478575081611499565b8361148260355490565b61148c9085612664565b6114969190612644565b90505b6114a33382611ef6565b5050505061096f6001609755565b6001600160a01b03918216600090815260346020908152604080832093909416825291909152205490565b61096f6114e7610694565b6040516370a0823160e01b81523360048201526001600160a01b0391909116906370a082319060240160206040518083038186803b15801561152857600080fd5b505afa15801561153c573d6000803e3d6000fd5b505050506040513d601f19601f82011682018060405250810190610528919061257a565b611568611db8565b611570610694565b6001600160a01b0316816001600160a01b031614156115ba5760405162461bcd60e51b815260206004820152600660248201526510ba37b5b2b760d11b6044820152606401610a8d565b6040516370a0823160e01b81523060048201526000906001600160a01b038316906370a082319060240160206040518083038186803b1580156115fc57600080fd5b505afa158015611610573d6000803e3d6000fd5b505050506040513d601f19601f82011682018060405250810190611634919061257a565b905061164a6001600160a01b0383163383611cc6565b5050565b611656611db8565b60c9546001600160a01b03166116a65760405162461bcd60e51b81526020600482015260156024820152745468657265206973206e6f2063616e64696461746560581b6044820152606401610a8d565b60cc5460ca5442916116b79161262c565b106116fb5760405162461bcd60e51b815260206004820152601460248201527311195b185e481a185cc81b9bdd081c185cdcd95960621b6044820152606401610a8d565b60c9546040516001600160a01b0390911681527f7f37d440e85aba7fbf641c4bda5ca4ef669a80bffaacde2aa8d9feb1b048c82c9060200160405180910390a160cb60009054906101000a90046001600160a01b03166001600160a01b031663fb6177876040518163ffffffff1660e01b8152600401600060405180830381600087803b15801561178b57600080fd5b505af115801561179f573d6000803e3d6000fd5b505060c9805460cb80546001600160a01b03199081166001600160a01b03841617909155169055505064012a05f20060ca5561096f6112e0565b6117e1611db8565b6001600160a01b0381166118465760405162461bcd60e51b815260206004820152602660248201527f4f776e61626c653a206e6577206f776e657220697320746865207a65726f206160448201526564647265737360d01b6064820152608401610a8d565b6112dd81611e12565b6001600160a01b0383166118b15760405162461bcd60e51b8152602060048201526024808201527f45524332303a20617070726f76652066726f6d20746865207a65726f206164646044820152637265737360e01b6064820152608401610a8d565b6001600160a01b0382166119125760405162461bcd60e51b815260206004820152602260248201527f45524332303a20617070726f766520746f20746865207a65726f206164647265604482015261737360f01b6064820152608401610a8d565b6001600160a01b0383811660008181526034602090815260408083209487168084529482529182902085905590518481527f8c5be1e5ebec7d5bd14f71427d1e84f3dd0314c0f7b2291e5b200ac8c7c3b925910160405180910390a3505050565b600061197f84846114b1565b9050600019811461101557818110156119da5760405162461bcd60e51b815260206004820152601d60248201527f45524332303a20696e73756666696369656e7420616c6c6f77616e63650000006044820152606401610a8d565b611015848484840361184f565b6001600160a01b038316611a4b5760405162461bcd60e51b815260206004820152602560248201527f45524332303a207472616e736665722066726f6d20746865207a65726f206164604482015264647265737360d81b6064820152608401610a8d565b6001600160a01b038216611aad5760405162461bcd60e51b815260206004820152602360248201527f45524332303a207472616e7366657220746f20746865207a65726f206164647260448201526265737360e81b6064820152608401610a8d565b6001600160a01b03831660009081526033602052604090205481811015611b255760405162461bcd60e51b815260206004820152602660248201527f45524332303a207472616e7366657220616d6f756e7420657863656564732062604482015265616c616e636560d01b6064820152608401610a8d565b6001600160a01b0380851660008181526033602052604080822086860390559286168082529083902080548601905591517fddf252ad1be2c89b69c2b068fc378daa952ba7f163c4a11628f55a4df523b3ef90611b859086815260200190565b60405180910390a3611015565b6001600160a01b038216611bf25760405162461bcd60e51b815260206004820152602160248201527f45524332303a206275726e2066726f6d20746865207a65726f206164647265736044820152607360f81b6064820152608401610a8d565b6001600160a01b03821660009081526033602052604090205481811015611c665760405162461bcd60e51b815260206004820152602260248201527f45524332303a206275726e20616d6f756e7420657863656564732062616c616e604482015261636560f01b6064820152608401610a8d565b6001600160a01b03831660008181526033602090815260408083208686039055603580548790039055518581529192917fddf252ad1be2c89b69c2b068fc378daa952ba7f163c4a11628f55a4df523b3ef910160405180910390a3505050565b6040516001600160a01b03831660248201526044810182905261092f90849063a9059cbb60e01b906064015b60408051601f198184030181529190526020810180516001600160e01b03166001600160e01b031990931692909217909152611fbe565b600054610100900460ff16611d505760405162461bcd60e51b8152600401610a8d906125e1565b61164a8282612093565b600054610100900460ff16611d815760405162461bcd60e51b8152600401610a8d906125e1565b61096f6120e1565b600054610100900460ff16611db05760405162461bcd60e51b8152600401610a8d906125e1565b61096f612111565b6065546001600160a01b0316331461096f5760405162461bcd60e51b815260206004820181905260248201527f4f776e61626c653a2063616c6c6572206973206e6f7420746865206f776e65726044820152606401610a8d565b606580546001600160a01b038381166001600160a01b0319831681179093556040519116919082907f8be0079c531659141344cd1fd0a4f28419497f9722a3daafe3b4186f6b6457e090600090a35050565b60026097541415611eb75760405162461bcd60e51b815260206004820152601f60248201527f5265656e7472616e637947756172643a207265656e7472616e742063616c6c006044820152606401610a8d565b6002609755565b6040516001600160a01b03808516602483015283166044820152606481018290526110159085906323b872dd60e01b90608401611cf2565b6001600160a01b038216611f4c5760405162461bcd60e51b815260206004820152601f60248201527f45524332303a206d696e7420746f20746865207a65726f2061646472657373006044820152606401610a8d565b8060356000828254611f5e919061262c565b90915550506001600160a01b0382166000818152603360209081526040808320805486019055518481527fddf252ad1be2c89b69c2b068fc378daa952ba7f163c4a11628f55a4df523b3ef910160405180910390a35050565b6001609755565b6000612013826040518060400160405280602081526020017f5361666545524332303a206c6f772d6c6576656c2063616c6c206661696c6564815250856001600160a01b03166121389092919063ffffffff16565b905080516000148061203457508080602001905181019061203491906124c7565b61092f5760405162461bcd60e51b815260206004820152602a60248201527f5361666545524332303a204552433230206f7065726174696f6e20646964206e6044820152691bdd081cdd58d8d9595960b21b6064820152608401610a8d565b600054610100900460ff166120ba5760405162461bcd60e51b8152600401610a8d906125e1565b81516120cd9060369060208501906122c5565b50805161092f9060379060208401906122c5565b600054610100900460ff166121085760405162461bcd60e51b8152600401610a8d906125e1565b61096f33611e12565b600054610100900460ff16611fb75760405162461bcd60e51b8152600401610a8d906125e1565b6060612147848460008561214f565b949350505050565b6060824710156121b05760405162461bcd60e51b815260206004820152602660248201527f416464726573733a20696e73756666696369656e742062616c616e636520666f6044820152651c8818d85b1b60d21b6064820152608401610a8d565b600080866001600160a01b031685876040516121cc9190612592565b60006040518083038185875af1925050503d8060008114612209576040519150601f19603f3d011682016040523d82523d6000602084013e61220e565b606091505b509150915061221f8783838761222a565b979650505050505050565b6060831561229657825161228f576001600160a01b0385163b61228f5760405162461bcd60e51b815260206004820152601d60248201527f416464726573733a2063616c6c20746f206e6f6e2d636f6e74726163740000006044820152606401610a8d565b5081612147565b61214783838151156122ab5781518083602001fd5b8060405162461bcd60e51b8152600401610a8d91906125ae565b8280546122d1906126c6565b90600052602060002090601f0160209004810192826122f35760008555612339565b82601f1061230c57805160ff1916838001178555612339565b82800160010185558215612339579182015b8281111561233957825182559160200191906001019061231e565b50612345929150612349565b5090565b5b80821115612345576000815560010161234a565b600082601f83011261236e578081fd5b813567ffffffffffffffff8082111561238957612389612717565b604051601f8301601f19908116603f011681019082821181831017156123b1576123b1612717565b816040528381528660208588010111156123c9578485fd5b8360208701602083013792830160200193909352509392505050565b6000602082840312156123f6578081fd5b81356124018161272d565b9392505050565b600060208284031215612419578081fd5b81516124018161272d565b60008060408385031215612436578081fd5b82356124418161272d565b915060208301356124518161272d565b809150509250929050565b600080600060608486031215612470578081fd5b833561247b8161272d565b9250602084013561248b8161272d565b929592945050506040919091013590565b600080604083850312156124ae578182fd5b82356124b98161272d565b946020939093013593505050565b6000602082840312156124d8578081fd5b81518015158114612401578182fd5b600080600080608085870312156124fc578081fd5b84356125078161272d565b9350602085013567ffffffffffffffff80821115612523578283fd5b61252f8883890161235e565b94506040870135915080821115612544578283fd5b506125518782880161235e565b949793965093946060013593505050565b600060208284031215612573578081fd5b5035919050565b60006020828403121561258b578081fd5b5051919050565b600082516125a481846020870161269a565b9190910192915050565b60208152600082518060208401526125cd81604085016020870161269a565b601f01601f19169190910160400192915050565b6020808252602b908201527f496e697469616c697a61626c653a20636f6e7472616374206973206e6f74206960408201526a6e697469616c697a696e6760a81b606082015260800190565b6000821982111561263f5761263f612701565b500190565b60008261265f57634e487b7160e01b81526012600452602481fd5b500490565b600081600019048311821515161561267e5761267e612701565b500290565b60008282101561269557612695612701565b500390565b60005b838110156126b557818101518382015260200161269d565b838111156110155750506000910152565b600181811c908216806126da57607f821691505b602082108114156126fb57634e487b7160e01b600052602260045260246000fd5b50919050565b634e487b7160e01b600052601160045260246000fd5b634e487b7160e01b600052604160045260246000fd5b6001600160a01b03811681146112dd57600080fdfea2646970667358221220ac267001eb9a172aebdd86e5e4489fe96e16d560eb3511147be4c85755b4cdf264736f6c63430008040033",
					"opcodes": "PUSH1 0x80 PUSH1 0x40 MSTORE CALLVALUE DUP1 ISZERO PUSH2 0x10 JUMPI PUSH1 0x0 DUP1 REVERT JUMPDEST POP PUSH2 0x2778 DUP1 PUSH2 0x20 PUSH1 0x0 CODECOPY PUSH1 0x0 RETURN INVALID PUSH1 0x80 PUSH1 0x40 MSTORE PUSH1 0x4 CALLDATASIZE LT PUSH2 0x1F2 JUMPI PUSH1 0x0 CALLDATALOAD PUSH1 0xE0 SHR DUP1 PUSH4 0x84276D81 GT PUSH2 0x10D JUMPI DUP1 PUSH4 0xB6B55F25 GT PUSH2 0xA0 JUMPI DUP1 PUSH4 0xDE5F6268 GT PUSH2 0x6F JUMPI DUP1 PUSH4 0xDE5F6268 EQ PUSH2 0x56A JUMPI DUP1 PUSH4 0xDEF68A9C EQ PUSH2 0x57F JUMPI DUP1 PUSH4 0xE2D1E75C EQ PUSH2 0x59F JUMPI DUP1 PUSH4 0xE6685244 EQ PUSH2 0x5B5 JUMPI DUP1 PUSH4 0xF2FDE38B EQ PUSH2 0x5CA JUMPI PUSH1 0x0 DUP1 REVERT JUMPDEST DUP1 PUSH4 0xB6B55F25 EQ PUSH2 0x50D JUMPI DUP1 PUSH4 0xD389800F EQ PUSH2 0x52D JUMPI DUP1 PUSH4 0xDB6B5246 EQ PUSH2 0x542 JUMPI DUP1 PUSH4 0xDD62ED3E EQ PUSH2 0x54A JUMPI PUSH1 0x0 DUP1 REVERT JUMPDEST DUP1 PUSH4 0xA457C2D7 GT PUSH2 0xDC JUMPI DUP1 PUSH4 0xA457C2D7 EQ PUSH2 0x498 JUMPI DUP1 PUSH4 0xA8C62E76 EQ PUSH2 0x4B8 JUMPI DUP1 PUSH4 0xA9059CBB EQ PUSH2 0x4D8 JUMPI DUP1 PUSH4 0xB69EF8A8 EQ PUSH2 0x4F8 JUMPI PUSH1 0x0 DUP1 REVERT JUMPDEST DUP1 PUSH4 0x84276D81 EQ PUSH2 0x430 JUMPI DUP1 PUSH4 0x853828B6 EQ PUSH2 0x450 JUMPI DUP1 PUSH4 0x8DA5CB5B EQ PUSH2 0x465 JUMPI DUP1 PUSH4 0x95D89B41 EQ PUSH2 0x483 JUMPI PUSH1 0x0 DUP1 REVERT JUMPDEST DUP1 PUSH4 0x482FE024 GT PUSH2 0x185 JUMPI DUP1 PUSH4 0x70A08231 GT PUSH2 0x154 JUMPI DUP1 PUSH4 0x70A08231 EQ PUSH2 0x38D JUMPI DUP1 PUSH4 0x715018A6 EQ PUSH2 0x3C3 JUMPI DUP1 PUSH4 0x76DFABB8 EQ PUSH2 0x3D8 JUMPI DUP1 PUSH4 0x77C7B8FC EQ PUSH2 0x41B JUMPI PUSH1 0x0 DUP1 REVERT JUMPDEST DUP1 PUSH4 0x482FE024 EQ PUSH2 0x323 JUMPI DUP1 PUSH4 0x48A0D754 EQ PUSH2 0x338 JUMPI DUP1 PUSH4 0x4D12D4B6 EQ PUSH2 0x34D JUMPI DUP1 PUSH4 0x5B12FF9B EQ PUSH2 0x36D JUMPI PUSH1 0x0 DUP1 REVERT JUMPDEST DUP1 PUSH4 0x23B872DD GT PUSH2 0x1C1 JUMPI DUP1 PUSH4 0x23B872DD EQ PUSH2 0x2A5 JUMPI DUP1 PUSH4 0x2E1A7D4D EQ PUSH2 0x2C5 JUMPI DUP1 PUSH4 0x313CE567 EQ PUSH2 0x2E7 JUMPI DUP1 PUSH4 0x39509351 EQ PUSH2 0x303 JUMPI PUSH1 0x0 DUP1 REVERT JUMPDEST DUP1 PUSH4 0x6FDDE03 EQ PUSH2 0x1FE JUMPI DUP1 PUSH4 0x95EA7B3 EQ PUSH2 0x229 JUMPI DUP1 PUSH4 0x18160DDD EQ PUSH2 0x259 JUMPI DUP1 PUSH4 0x1F1FCD51 EQ PUSH2 0x278 JUMPI PUSH1 0x0 DUP1 REVERT JUMPDEST CALLDATASIZE PUSH2 0x1F9 JUMPI STOP JUMPDEST PUSH1 0x0 DUP1 REVERT JUMPDEST CALLVALUE DUP1 ISZERO PUSH2 0x20A JUMPI PUSH1 0x0 DUP1 REVERT JUMPDEST POP PUSH2 0x213 PUSH2 0x5EA JUMP JUMPDEST PUSH1 0x40 MLOAD PUSH2 0x220 SWAP2 SWAP1 PUSH2 0x25AE JUMP JUMPDEST PUSH1 0x40 MLOAD DUP1 SWAP2 SUB SWAP1 RETURN JUMPDEST CALLVALUE DUP1 ISZERO PUSH2 0x235 JUMPI PUSH1 0x0 DUP1 REVERT JUMPDEST POP PUSH2 0x249 PUSH2 0x244 CALLDATASIZE PUSH1 0x4 PUSH2 0x249C JUMP JUMPDEST PUSH2 0x67C JUMP JUMPDEST PUSH1 0x40 MLOAD SWAP1 ISZERO ISZERO DUP2 MSTORE PUSH1 0x20 ADD PUSH2 0x220 JUMP JUMPDEST CALLVALUE DUP1 ISZERO PUSH2 0x265 JUMPI PUSH1 0x0 DUP1 REVERT JUMPDEST POP PUSH1 0x35 SLOAD JUMPDEST PUSH1 0x40 MLOAD SWAP1 DUP2 MSTORE PUSH1 0x20 ADD PUSH2 0x220 JUMP JUMPDEST CALLVALUE DUP1 ISZERO PUSH2 0x284 JUMPI PUSH1 0x0 DUP1 REVERT JUMPDEST POP PUSH2 0x28D PUSH2 0x694 JUMP JUMPDEST PUSH1 0x40 MLOAD PUSH1 0x1 PUSH1 0x1 PUSH1 0xA0 SHL SUB SWAP1 SWAP2 AND DUP2 MSTORE PUSH1 0x20 ADD PUSH2 0x220 JUMP JUMPDEST CALLVALUE DUP1 ISZERO PUSH2 0x2B1 JUMPI PUSH1 0x0 DUP1 REVERT JUMPDEST POP PUSH2 0x249 PUSH2 0x2C0 CALLDATASIZE PUSH1 0x4 PUSH2 0x245C JUMP JUMPDEST PUSH2 0x716 JUMP JUMPDEST CALLVALUE DUP1 ISZERO PUSH2 0x2D1 JUMPI PUSH1 0x0 DUP1 REVERT JUMPDEST POP PUSH2 0x2E5 PUSH2 0x2E0 CALLDATASIZE PUSH1 0x4 PUSH2 0x2562 JUMP JUMPDEST PUSH2 0x73A JUMP JUMPDEST STOP JUMPDEST CALLVALUE DUP1 ISZERO PUSH2 0x2F3 JUMPI PUSH1 0x0 DUP1 REVERT JUMPDEST POP PUSH1 0x40 MLOAD PUSH1 0x12 DUP2 MSTORE PUSH1 0x20 ADD PUSH2 0x220 JUMP JUMPDEST CALLVALUE DUP1 ISZERO PUSH2 0x30F JUMPI PUSH1 0x0 DUP1 REVERT JUMPDEST POP PUSH2 0x249 PUSH2 0x31E CALLDATASIZE PUSH1 0x4 PUSH2 0x249C JUMP JUMPDEST PUSH2 0x934 JUMP JUMPDEST CALLVALUE DUP1 ISZERO PUSH2 0x32F JUMPI PUSH1 0x0 DUP1 REVERT JUMPDEST POP PUSH2 0x2E5 PUSH2 0x956 JUMP JUMPDEST CALLVALUE DUP1 ISZERO PUSH2 0x344 JUMPI PUSH1 0x0 DUP1 REVERT JUMPDEST POP PUSH2 0x26A PUSH2 0x971 JUMP JUMPDEST CALLVALUE DUP1 ISZERO PUSH2 0x359 JUMPI PUSH1 0x0 DUP1 REVERT JUMPDEST POP PUSH2 0x2E5 PUSH2 0x368 CALLDATASIZE PUSH1 0x4 PUSH2 0x24E7 JUMP JUMPDEST PUSH2 0x9F4 JUMP JUMPDEST CALLVALUE DUP1 ISZERO PUSH2 0x379 JUMPI PUSH1 0x0 DUP1 REVERT JUMPDEST POP PUSH2 0x2E5 PUSH2 0x388 CALLDATASIZE PUSH1 0x4 PUSH2 0x23E5 JUMP JUMPDEST PUSH2 0xB40 JUMP JUMPDEST CALLVALUE DUP1 ISZERO PUSH2 0x399 JUMPI PUSH1 0x0 DUP1 REVERT JUMPDEST POP PUSH2 0x26A PUSH2 0x3A8 CALLDATASIZE PUSH1 0x4 PUSH2 0x23E5 JUMP JUMPDEST PUSH1 0x1 PUSH1 0x1 PUSH1 0xA0 SHL SUB AND PUSH1 0x0 SWAP1 DUP2 MSTORE PUSH1 0x33 PUSH1 0x20 MSTORE PUSH1 0x40 SWAP1 KECCAK256 SLOAD SWAP1 JUMP JUMPDEST CALLVALUE DUP1 ISZERO PUSH2 0x3CF JUMPI PUSH1 0x0 DUP1 REVERT JUMPDEST POP PUSH2 0x2E5 PUSH2 0xD53 JUMP JUMPDEST CALLVALUE DUP1 ISZERO PUSH2 0x3E4 JUMPI PUSH1 0x0 DUP1 REVERT JUMPDEST POP PUSH1 0xC9 SLOAD PUSH1 0xCA SLOAD PUSH2 0x3FC SWAP2 PUSH1 0x1 PUSH1 0x1 PUSH1 0xA0 SHL SUB AND SWAP1 DUP3 JUMP JUMPDEST PUSH1 0x40 DUP1 MLOAD PUSH1 0x1 PUSH1 0x1 PUSH1 0xA0 SHL SUB SWAP1 SWAP4 AND DUP4 MSTORE PUSH1 0x20 DUP4 ADD SWAP2 SWAP1 SWAP2 MSTORE ADD PUSH2 0x220 JUMP JUMPDEST CALLVALUE DUP1 ISZERO PUSH2 0x427 JUMPI PUSH1 0x0 DUP1 REVERT JUMPDEST POP PUSH2 0x26A PUSH2 0xD65 JUMP JUMPDEST CALLVALUE DUP1 ISZERO PUSH2 0x43C JUMPI PUSH1 0x0 DUP1 REVERT JUMPDEST POP PUSH2 0x2E5 PUSH2 0x44B CALLDATASIZE PUSH1 0x4 PUSH2 0x2562 JUMP JUMPDEST PUSH2 0xDA9 JUMP JUMPDEST CALLVALUE DUP1 ISZERO PUSH2 0x45C JUMPI PUSH1 0x0 DUP1 REVERT JUMPDEST POP PUSH2 0x2E5 PUSH2 0x101B JUMP JUMPDEST CALLVALUE DUP1 ISZERO PUSH2 0x471 JUMPI PUSH1 0x0 DUP1 REVERT JUMPDEST POP PUSH1 0x65 SLOAD PUSH1 0x1 PUSH1 0x1 PUSH1 0xA0 SHL SUB AND PUSH2 0x28D JUMP JUMPDEST CALLVALUE DUP1 ISZERO PUSH2 0x48F JUMPI PUSH1 0x0 DUP1 REVERT JUMPDEST POP PUSH2 0x213 PUSH2 0x1034 JUMP JUMPDEST CALLVALUE DUP1 ISZERO PUSH2 0x4A4 JUMPI PUSH1 0x0 DUP1 REVERT JUMPDEST POP PUSH2 0x249 PUSH2 0x4B3 CALLDATASIZE PUSH1 0x4 PUSH2 0x249C JUMP JUMPDEST PUSH2 0x1043 JUMP JUMPDEST CALLVALUE DUP1 ISZERO PUSH2 0x4C4 JUMPI PUSH1 0x0 DUP1 REVERT JUMPDEST POP PUSH1 0xCB SLOAD PUSH2 0x28D SWAP1 PUSH1 0x1 PUSH1 0x1 PUSH1 0xA0 SHL SUB AND DUP2 JUMP JUMPDEST CALLVALUE DUP1 ISZERO PUSH2 0x4E4 JUMPI PUSH1 0x0 DUP1 REVERT JUMPDEST POP PUSH2 0x249 PUSH2 0x4F3 CALLDATASIZE PUSH1 0x4 PUSH2 0x249C JUMP JUMPDEST PUSH2 0x10BE JUMP JUMPDEST CALLVALUE DUP1 ISZERO PUSH2 0x504 JUMPI PUSH1 0x0 DUP1 REVERT JUMPDEST POP PUSH2 0x26A PUSH2 0x10CC JUMP JUMPDEST CALLVALUE DUP1 ISZERO PUSH2 0x519 JUMPI PUSH1 0x0 DUP1 REVERT JUMPDEST POP PUSH2 0x2E5 PUSH2 0x528 CALLDATASIZE PUSH1 0x4 PUSH2 0x2562 JUMP JUMPDEST PUSH2 0x11D4 JUMP JUMPDEST CALLVALUE DUP1 ISZERO PUSH2 0x539 JUMPI PUSH1 0x0 DUP1 REVERT JUMPDEST POP PUSH2 0x2E5 PUSH2 0x12E0 JUMP JUMPDEST PUSH2 0x2E5 PUSH2 0x136A JUMP JUMPDEST CALLVALUE DUP1 ISZERO PUSH2 0x556 JUMPI PUSH1 0x0 DUP1 REVERT JUMPDEST POP PUSH2 0x26A PUSH2 0x565 CALLDATASIZE PUSH1 0x4 PUSH2 0x2424 JUMP JUMPDEST PUSH2 0x14B1 JUMP JUMPDEST CALLVALUE DUP1 ISZERO PUSH2 0x576 JUMPI PUSH1 0x0 DUP1 REVERT JUMPDEST POP PUSH2 0x2E5 PUSH2 0x14DC JUMP JUMPDEST CALLVALUE DUP1 ISZERO PUSH2 0x58B JUMPI PUSH1 0x0 DUP1 REVERT JUMPDEST POP PUSH2 0x2E5 PUSH2 0x59A CALLDATASIZE PUSH1 0x4 PUSH2 0x23E5 JUMP JUMPDEST PUSH2 0x1560 JUMP JUMPDEST CALLVALUE DUP1 ISZERO PUSH2 0x5AB JUMPI PUSH1 0x0 DUP1 REVERT JUMPDEST POP PUSH2 0x26A PUSH1 0xCC SLOAD DUP2 JUMP JUMPDEST CALLVALUE DUP1 ISZERO PUSH2 0x5C1 JUMPI PUSH1 0x0 DUP1 REVERT JUMPDEST POP PUSH2 0x2E5 PUSH2 0x164E JUMP JUMPDEST CALLVALUE DUP1 ISZERO PUSH2 0x5D6 JUMPI PUSH1 0x0 DUP1 REVERT JUMPDEST POP PUSH2 0x2E5 PUSH2 0x5E5 CALLDATASIZE PUSH1 0x4 PUSH2 0x23E5 JUMP JUMPDEST PUSH2 0x17D9 JUMP JUMPDEST PUSH1 0x60 PUSH1 0x36 DUP1 SLOAD PUSH2 0x5F9 SWAP1 PUSH2 0x26C6 JUMP JUMPDEST DUP1 PUSH1 0x1F ADD PUSH1 0x20 DUP1 SWAP2 DIV MUL PUSH1 0x20 ADD PUSH1 0x40 MLOAD SWAP1 DUP2 ADD PUSH1 0x40 MSTORE DUP1 SWAP3 SWAP2 SWAP1 DUP2 DUP2 MSTORE PUSH1 0x20 ADD DUP3 DUP1 SLOAD PUSH2 0x625 SWAP1 PUSH2 0x26C6 JUMP JUMPDEST DUP1 ISZERO PUSH2 0x672 JUMPI DUP1 PUSH1 0x1F LT PUSH2 0x647 JUMPI PUSH2 0x100 DUP1 DUP4 SLOAD DIV MUL DUP4 MSTORE SWAP2 PUSH1 0x20 ADD SWAP2 PUSH2 0x672 JUMP JUMPDEST DUP3 ADD SWAP2 SWAP1 PUSH1 0x0 MSTORE PUSH1 0x20 PUSH1 0x0 KECCAK256 SWAP1 JUMPDEST DUP2 SLOAD DUP2 MSTORE SWAP1 PUSH1 0x1 ADD SWAP1 PUSH1 0x20 ADD DUP1 DUP4 GT PUSH2 0x655 JUMPI DUP3 SWAP1 SUB PUSH1 0x1F AND DUP3 ADD SWAP2 JUMPDEST POP POP POP POP POP SWAP1 POP SWAP1 JUMP JUMPDEST PUSH1 0x0 CALLER PUSH2 0x68A DUP2 DUP6 DUP6 PUSH2 0x184F JUMP JUMPDEST POP PUSH1 0x1 SWAP4 SWAP3 POP POP POP JUMP JUMPDEST PUSH1 0xCB SLOAD PUSH1 0x40 DUP1 MLOAD PUSH4 0x1F1FCD51 PUSH1 0xE0 SHL DUP2 MSTORE SWAP1 MLOAD PUSH1 0x0 SWAP3 PUSH1 0x1 PUSH1 0x1 PUSH1 0xA0 SHL SUB AND SWAP2 PUSH4 0x1F1FCD51 SWAP2 PUSH1 0x4 DUP1 DUP4 ADD SWAP3 PUSH1 0x20 SWAP3 SWAP2 SWAP1 DUP3 SWAP1 SUB ADD DUP2 DUP7 DUP1 EXTCODESIZE ISZERO DUP1 ISZERO PUSH2 0x6D9 JUMPI PUSH1 0x0 DUP1 REVERT JUMPDEST POP GAS STATICCALL ISZERO DUP1 ISZERO PUSH2 0x6ED JUMPI RETURNDATASIZE PUSH1 0x0 DUP1 RETURNDATACOPY RETURNDATASIZE PUSH1 0x0 REVERT JUMPDEST POP POP POP POP PUSH1 0x40 MLOAD RETURNDATASIZE PUSH1 0x1F NOT PUSH1 0x1F DUP3 ADD AND DUP3 ADD DUP1 PUSH1 0x40 MSTORE POP DUP2 ADD SWAP1 PUSH2 0x711 SWAP2 SWAP1 PUSH2 0x2408 JUMP JUMPDEST SWAP1 POP SWAP1 JUMP JUMPDEST PUSH1 0x0 CALLER PUSH2 0x724 DUP6 DUP3 DUP6 PUSH2 0x1973 JUMP JUMPDEST PUSH2 0x72F DUP6 DUP6 DUP6 PUSH2 0x19E7 JUMP JUMPDEST POP PUSH1 0x1 SWAP5 SWAP4 POP POP POP POP JUMP JUMPDEST PUSH1 0x0 PUSH2 0x745 PUSH1 0x35 SLOAD SWAP1 JUMP JUMPDEST DUP3 PUSH2 0x74E PUSH2 0x10CC JUMP JUMPDEST PUSH2 0x758 SWAP2 SWAP1 PUSH2 0x2664 JUMP JUMPDEST PUSH2 0x762 SWAP2 SWAP1 PUSH2 0x2644 JUMP JUMPDEST SWAP1 POP PUSH2 0x76E CALLER DUP4 PUSH2 0x1B92 JUMP JUMPDEST PUSH1 0x0 PUSH2 0x778 PUSH2 0x694 JUMP JUMPDEST PUSH1 0x40 MLOAD PUSH4 0x70A08231 PUSH1 0xE0 SHL DUP2 MSTORE ADDRESS PUSH1 0x4 DUP3 ADD MSTORE PUSH1 0x1 PUSH1 0x1 PUSH1 0xA0 SHL SUB SWAP2 SWAP1 SWAP2 AND SWAP1 PUSH4 0x70A08231 SWAP1 PUSH1 0x24 ADD PUSH1 0x20 PUSH1 0x40 MLOAD DUP1 DUP4 SUB DUP2 DUP7 DUP1 EXTCODESIZE ISZERO DUP1 ISZERO PUSH2 0x7B9 JUMPI PUSH1 0x0 DUP1 REVERT JUMPDEST POP GAS STATICCALL ISZERO DUP1 ISZERO PUSH2 0x7CD JUMPI RETURNDATASIZE PUSH1 0x0 DUP1 RETURNDATACOPY RETURNDATASIZE PUSH1 0x0 REVERT JUMPDEST POP POP POP POP PUSH1 0x40 MLOAD RETURNDATASIZE PUSH1 0x1F NOT PUSH1 0x1F DUP3 ADD AND DUP3 ADD DUP1 PUSH1 0x40 MSTORE POP DUP2 ADD SWAP1 PUSH2 0x7F1 SWAP2 SWAP1 PUSH2 0x257A JUMP JUMPDEST SWAP1 POP DUP2 DUP2 LT ISZERO PUSH2 0x912 JUMPI PUSH1 0x0 PUSH2 0x807 DUP3 DUP5 PUSH2 0x2683 JUMP JUMPDEST PUSH1 0xCB SLOAD PUSH1 0x40 MLOAD PUSH4 0x2E1A7D4D PUSH1 0xE0 SHL DUP2 MSTORE PUSH1 0x4 DUP2 ADD DUP4 SWAP1 MSTORE SWAP2 SWAP3 POP PUSH1 0x1 PUSH1 0x1 PUSH1 0xA0 SHL SUB AND SWAP1 PUSH4 0x2E1A7D4D SWAP1 PUSH1 0x24 ADD PUSH1 0x0 PUSH1 0x40 MLOAD DUP1 DUP4 SUB DUP2 PUSH1 0x0 DUP8 DUP1 EXTCODESIZE ISZERO DUP1 ISZERO PUSH2 0x84E JUMPI PUSH1 0x0 DUP1 REVERT JUMPDEST POP GAS CALL ISZERO DUP1 ISZERO PUSH2 0x862 JUMPI RETURNDATASIZE PUSH1 0x0 DUP1 RETURNDATACOPY RETURNDATASIZE PUSH1 0x0 REVERT JUMPDEST POP POP POP POP PUSH1 0x0 PUSH2 0x870 PUSH2 0x694 JUMP JUMPDEST PUSH1 0x40 MLOAD PUSH4 0x70A08231 PUSH1 0xE0 SHL DUP2 MSTORE ADDRESS PUSH1 0x4 DUP3 ADD MSTORE PUSH1 0x1 PUSH1 0x1 PUSH1 0xA0 SHL SUB SWAP2 SWAP1 SWAP2 AND SWAP1 PUSH4 0x70A08231 SWAP1 PUSH1 0x24 ADD PUSH1 0x20 PUSH1 0x40 MLOAD DUP1 DUP4 SUB DUP2 DUP7 DUP1 EXTCODESIZE ISZERO DUP1 ISZERO PUSH2 0x8B1 JUMPI PUSH1 0x0 DUP1 REVERT JUMPDEST POP GAS STATICCALL ISZERO DUP1 ISZERO PUSH2 0x8C5 JUMPI RETURNDATASIZE PUSH1 0x0 DUP1 RETURNDATACOPY RETURNDATASIZE PUSH1 0x0 REVERT JUMPDEST POP POP POP POP PUSH1 0x40 MLOAD RETURNDATASIZE PUSH1 0x1F NOT PUSH1 0x1F DUP3 ADD AND DUP3 ADD DUP1 PUSH1 0x40 MSTORE POP DUP2 ADD SWAP1 PUSH2 0x8E9 SWAP2 SWAP1 PUSH2 0x257A JUMP JUMPDEST SWAP1 POP PUSH1 0x0 PUSH2 0x8F7 DUP5 DUP4 PUSH2 0x2683 JUMP JUMPDEST SWAP1 POP DUP3 DUP2 LT ISZERO PUSH2 0x90E JUMPI PUSH2 0x90B DUP2 DUP6 PUSH2 0x262C JUMP JUMPDEST SWAP5 POP JUMPDEST POP POP POP JUMPDEST PUSH2 0x92F CALLER DUP4 PUSH2 0x91F PUSH2 0x694 JUMP JUMPDEST PUSH1 0x1 PUSH1 0x1 PUSH1 0xA0 SHL SUB AND SWAP2 SWAP1 PUSH2 0x1CC6 JUMP JUMPDEST POP POP POP JUMP JUMPDEST PUSH1 0x0 CALLER PUSH2 0x68A DUP2 DUP6 DUP6 PUSH2 0x947 DUP4 DUP4 PUSH2 0x14B1 JUMP JUMPDEST PUSH2 0x951 SWAP2 SWAP1 PUSH2 0x262C JUMP JUMPDEST PUSH2 0x184F JUMP JUMPDEST CALLER PUSH1 0x0 SWAP1 DUP2 MSTORE PUSH1 0x33 PUSH1 0x20 MSTORE PUSH1 0x40 SWAP1 KECCAK256 SLOAD PUSH2 0x96F SWAP1 PUSH2 0xDA9 JUMP JUMPDEST JUMP JUMPDEST PUSH1 0x0 PUSH2 0x97B PUSH2 0x694 JUMP JUMPDEST PUSH1 0x40 MLOAD PUSH4 0x70A08231 PUSH1 0xE0 SHL DUP2 MSTORE ADDRESS PUSH1 0x4 DUP3 ADD MSTORE PUSH1 0x1 PUSH1 0x1 PUSH1 0xA0 SHL SUB SWAP2 SWAP1 SWAP2 AND SWAP1 PUSH4 0x70A08231 SWAP1 PUSH1 0x24 ADD PUSH1 0x20 PUSH1 0x40 MLOAD DUP1 DUP4 SUB DUP2 DUP7 DUP1 EXTCODESIZE ISZERO DUP1 ISZERO PUSH2 0x9BC JUMPI PUSH1 0x0 DUP1 REVERT JUMPDEST POP GAS STATICCALL ISZERO DUP1 ISZERO PUSH2 0x9D0 JUMPI RETURNDATASIZE PUSH1 0x0 DUP1 RETURNDATACOPY RETURNDATASIZE PUSH1 0x0 REVERT JUMPDEST POP POP POP POP PUSH1 0x40 MLOAD RETURNDATASIZE PUSH1 0x1F NOT PUSH1 0x1F DUP3 ADD AND DUP3 ADD DUP1 PUSH1 0x40 MSTORE POP DUP2 ADD SWAP1 PUSH2 0x711 SWAP2 SWAP1 PUSH2 0x257A JUMP JUMPDEST PUSH1 0x0 SLOAD PUSH2 0x100 SWAP1 DIV PUSH1 0xFF AND ISZERO DUP1 DUP1 ISZERO PUSH2 0xA14 JUMPI POP PUSH1 0x0 SLOAD PUSH1 0x1 PUSH1 0xFF SWAP1 SWAP2 AND LT JUMPDEST DUP1 PUSH2 0xA2E JUMPI POP ADDRESS EXTCODESIZE ISZERO DUP1 ISZERO PUSH2 0xA2E JUMPI POP PUSH1 0x0 SLOAD PUSH1 0xFF AND PUSH1 0x1 EQ JUMPDEST PUSH2 0xA96 JUMPI PUSH1 0x40 MLOAD PUSH3 0x461BCD PUSH1 0xE5 SHL DUP2 MSTORE PUSH1 0x20 PUSH1 0x4 DUP3 ADD MSTORE PUSH1 0x2E PUSH1 0x24 DUP3 ADD MSTORE PUSH32 0x496E697469616C697A61626C653A20636F6E747261637420697320616C726561 PUSH1 0x44 DUP3 ADD MSTORE PUSH14 0x191E481A5B9A5D1A585B1A5E9959 PUSH1 0x92 SHL PUSH1 0x64 DUP3 ADD MSTORE PUSH1 0x84 ADD JUMPDEST PUSH1 0x40 MLOAD DUP1 SWAP2 SUB SWAP1 REVERT JUMPDEST PUSH1 0x0 DUP1 SLOAD PUSH1 0xFF NOT AND PUSH1 0x1 OR SWAP1 SSTORE DUP1 ISZERO PUSH2 0xAB9 JUMPI PUSH1 0x0 DUP1 SLOAD PUSH2 0xFF00 NOT AND PUSH2 0x100 OR SWAP1 SSTORE JUMPDEST PUSH2 0xAC3 DUP5 DUP5 PUSH2 0x1D29 JUMP JUMPDEST PUSH2 0xACB PUSH2 0x1D5A JUMP JUMPDEST PUSH2 0xAD3 PUSH2 0x1D89 JUMP JUMPDEST PUSH1 0xCB DUP1 SLOAD PUSH1 0x1 PUSH1 0x1 PUSH1 0xA0 SHL SUB NOT AND PUSH1 0x1 PUSH1 0x1 PUSH1 0xA0 SHL SUB DUP8 AND OR SWAP1 SSTORE PUSH1 0xCC DUP3 SWAP1 SSTORE DUP1 ISZERO PUSH2 0xB39 JUMPI PUSH1 0x0 DUP1 SLOAD PUSH2 0xFF00 NOT AND SWAP1 SSTORE PUSH1 0x40 MLOAD PUSH1 0x1 DUP2 MSTORE PUSH32 0x7F26B83FF96E1F2B6A682F133852F6798A09C465DA95921460CEFB3847402498 SWAP1 PUSH1 0x20 ADD PUSH1 0x40 MLOAD DUP1 SWAP2 SUB SWAP1 LOG1 JUMPDEST POP POP POP POP POP JUMP JUMPDEST PUSH2 0xB48 PUSH2 0x1DB8 JUMP JUMPDEST DUP1 PUSH1 0x1 PUSH1 0x1 PUSH1 0xA0 SHL SUB AND PUSH4 0xFBFA77CF PUSH1 0x40 MLOAD DUP2 PUSH4 0xFFFFFFFF AND PUSH1 0xE0 SHL DUP2 MSTORE PUSH1 0x4 ADD PUSH1 0x20 PUSH1 0x40 MLOAD DUP1 DUP4 SUB DUP2 DUP7 DUP1 EXTCODESIZE ISZERO DUP1 ISZERO PUSH2 0xB81 JUMPI PUSH1 0x0 DUP1 REVERT JUMPDEST POP GAS STATICCALL ISZERO DUP1 ISZERO PUSH2 0xB95 JUMPI RETURNDATASIZE PUSH1 0x0 DUP1 RETURNDATACOPY RETURNDATASIZE PUSH1 0x0 REVERT JUMPDEST POP POP POP POP PUSH1 0x40 MLOAD RETURNDATASIZE PUSH1 0x1F NOT PUSH1 0x1F DUP3 ADD AND DUP3 ADD DUP1 PUSH1 0x40 MSTORE POP DUP2 ADD SWAP1 PUSH2 0xBB9 SWAP2 SWAP1 PUSH2 0x2408 JUMP JUMPDEST PUSH1 0x1 PUSH1 0x1 PUSH1 0xA0 SHL SUB AND ADDRESS PUSH1 0x1 PUSH1 0x1 PUSH1 0xA0 SHL SUB AND EQ PUSH2 0xC23 JUMPI PUSH1 0x40 MLOAD PUSH3 0x461BCD PUSH1 0xE5 SHL DUP2 MSTORE PUSH1 0x20 PUSH1 0x4 DUP3 ADD MSTORE PUSH1 0x21 PUSH1 0x24 DUP3 ADD MSTORE PUSH32 0x50726F706F73616C206E6F742076616C696420666F722074686973205661756C PUSH1 0x44 DUP3 ADD MSTORE PUSH1 0x1D PUSH1 0xFA SHL PUSH1 0x64 DUP3 ADD MSTORE PUSH1 0x84 ADD PUSH2 0xA8D JUMP JUMPDEST DUP1 PUSH1 0x1 PUSH1 0x1 PUSH1 0xA0 SHL SUB AND PUSH4 0x1F1FCD51 PUSH1 0x40 MLOAD DUP2 PUSH4 0xFFFFFFFF AND PUSH1 0xE0 SHL DUP2 MSTORE PUSH1 0x4 ADD PUSH1 0x20 PUSH1 0x40 MLOAD DUP1 DUP4 SUB DUP2 DUP7 DUP1 EXTCODESIZE ISZERO DUP1 ISZERO PUSH2 0xC5C JUMPI PUSH1 0x0 DUP1 REVERT JUMPDEST POP GAS STATICCALL ISZERO DUP1 ISZERO PUSH2 0xC70 JUMPI RETURNDATASIZE PUSH1 0x0 DUP1 RETURNDATACOPY RETURNDATASIZE PUSH1 0x0 REVERT JUMPDEST POP POP POP POP PUSH1 0x40 MLOAD RETURNDATASIZE PUSH1 0x1F NOT PUSH1 0x1F DUP3 ADD AND DUP3 ADD DUP1 PUSH1 0x40 MSTORE POP DUP2 ADD SWAP1 PUSH2 0xC94 SWAP2 SWAP1 PUSH2 0x2408 JUMP JUMPDEST PUSH1 0x1 PUSH1 0x1 PUSH1 0xA0 SHL SUB AND PUSH2 0xCA5 PUSH2 0x694 JUMP JUMPDEST PUSH1 0x1 PUSH1 0x1 PUSH1 0xA0 SHL SUB AND EQ PUSH2 0xCEC JUMPI PUSH1 0x40 MLOAD PUSH3 0x461BCD PUSH1 0xE5 SHL DUP2 MSTORE PUSH1 0x20 PUSH1 0x4 DUP3 ADD MSTORE PUSH1 0xE PUSH1 0x24 DUP3 ADD MSTORE PUSH14 0x111A5999995C995B9D081DD85B9D PUSH1 0x92 SHL PUSH1 0x44 DUP3 ADD MSTORE PUSH1 0x64 ADD PUSH2 0xA8D JUMP JUMPDEST PUSH1 0x40 DUP1 MLOAD DUP1 DUP3 ADD DUP3 MSTORE PUSH1 0x1 PUSH1 0x1 PUSH1 0xA0 SHL SUB DUP4 AND DUP1 DUP3 MSTORE TIMESTAMP PUSH1 0x20 SWAP3 DUP4 ADD DUP2 SWAP1 MSTORE PUSH1 0xC9 DUP1 SLOAD PUSH1 0x1 PUSH1 0x1 PUSH1 0xA0 SHL SUB NOT AND DUP4 OR SWAP1 SSTORE PUSH1 0xCA SSTORE SWAP2 MLOAD SWAP2 DUP3 MSTORE PUSH32 0x1AAE2EC5647DB56DA2D513DE40528BA3565C6057525637050660C4323BBAC7DF SWAP2 ADD PUSH1 0x40 MLOAD DUP1 SWAP2 SUB SWAP1 LOG1 POP JUMP JUMPDEST PUSH2 0xD5B PUSH2 0x1DB8 JUMP JUMPDEST PUSH2 0x96F PUSH1 0x0 PUSH2 0x1E12 JUMP JUMPDEST PUSH1 0x0 PUSH2 0xD70 PUSH1 0x35 SLOAD SWAP1 JUMP JUMPDEST ISZERO PUSH2 0xD9C JUMPI PUSH1 0x35 SLOAD PUSH2 0xD80 PUSH2 0x10CC JUMP JUMPDEST PUSH2 0xD92 SWAP1 PUSH8 0xDE0B6B3A7640000 PUSH2 0x2664 JUMP JUMPDEST PUSH2 0x711 SWAP2 SWAP1 PUSH2 0x2644 JUMP JUMPDEST POP PUSH8 0xDE0B6B3A7640000 SWAP1 JUMP JUMPDEST PUSH1 0x0 PUSH2 0xDB4 PUSH1 0x35 SLOAD SWAP1 JUMP JUMPDEST DUP3 PUSH2 0xDBD PUSH2 0x10CC JUMP JUMPDEST PUSH2 0xDC7 SWAP2 SWAP1 PUSH2 0x2664 JUMP JUMPDEST PUSH2 0xDD1 SWAP2 SWAP1 PUSH2 0x2644 JUMP JUMPDEST SWAP1 POP PUSH2 0xDDD CALLER DUP4 PUSH2 0x1B92 JUMP JUMPDEST PUSH1 0x0 PUSH2 0xDE7 PUSH2 0x694 JUMP JUMPDEST PUSH1 0x40 MLOAD PUSH4 0x70A08231 PUSH1 0xE0 SHL DUP2 MSTORE ADDRESS PUSH1 0x4 DUP3 ADD MSTORE PUSH1 0x1 PUSH1 0x1 PUSH1 0xA0 SHL SUB SWAP2 SWAP1 SWAP2 AND SWAP1 PUSH4 0x70A08231 SWAP1 PUSH1 0x24 ADD PUSH1 0x20 PUSH1 0x40 MLOAD DUP1 DUP4 SUB DUP2 DUP7 DUP1 EXTCODESIZE ISZERO DUP1 ISZERO PUSH2 0xE28 JUMPI PUSH1 0x0 DUP1 REVERT JUMPDEST POP GAS STATICCALL ISZERO DUP1 ISZERO PUSH2 0xE3C JUMPI RETURNDATASIZE PUSH1 0x0 DUP1 RETURNDATACOPY RETURNDATASIZE PUSH1 0x0 REVERT JUMPDEST POP POP POP POP PUSH1 0x40 MLOAD RETURNDATASIZE PUSH1 0x1F NOT PUSH1 0x1F DUP3 ADD AND DUP3 ADD DUP1 PUSH1 0x40 MSTORE POP DUP2 ADD SWAP1 PUSH2 0xE60 SWAP2 SWAP1 PUSH2 0x257A JUMP JUMPDEST SWAP1 POP DUP2 DUP2 LT ISZERO PUSH2 0xF81 JUMPI PUSH1 0x0 PUSH2 0xE76 DUP3 DUP5 PUSH2 0x2683 JUMP JUMPDEST PUSH1 0xCB SLOAD PUSH1 0x40 MLOAD PUSH4 0x2E1A7D4D PUSH1 0xE0 SHL DUP2 MSTORE PUSH1 0x4 DUP2 ADD DUP4 SWAP1 MSTORE SWAP2 SWAP3 POP PUSH1 0x1 PUSH1 0x1 PUSH1 0xA0 SHL SUB AND SWAP1 PUSH4 0x2E1A7D4D SWAP1 PUSH1 0x24 ADD PUSH1 0x0 PUSH1 0x40 MLOAD DUP1 DUP4 SUB DUP2 PUSH1 0x0 DUP8 DUP1 EXTCODESIZE ISZERO DUP1 ISZERO PUSH2 0xEBD JUMPI PUSH1 0x0 DUP1 REVERT JUMPDEST POP GAS CALL ISZERO DUP1 ISZERO PUSH2 0xED1 JUMPI RETURNDATASIZE PUSH1 0x0 DUP1 RETURNDATACOPY RETURNDATASIZE PUSH1 0x0 REVERT JUMPDEST POP POP POP POP PUSH1 0x0 PUSH2 0xEDF PUSH2 0x694 JUMP JUMPDEST PUSH1 0x40 MLOAD PUSH4 0x70A08231 PUSH1 0xE0 SHL DUP2 MSTORE ADDRESS PUSH1 0x4 DUP3 ADD MSTORE PUSH1 0x1 PUSH1 0x1 PUSH1 0xA0 SHL SUB SWAP2 SWAP1 SWAP2 AND SWAP1 PUSH4 0x70A08231 SWAP1 PUSH1 0x24 ADD PUSH1 0x20 PUSH1 0x40 MLOAD DUP1 DUP4 SUB DUP2 DUP7 DUP1 EXTCODESIZE ISZERO DUP1 ISZERO PUSH2 0xF20 JUMPI PUSH1 0x0 DUP1 REVERT JUMPDEST POP GAS STATICCALL ISZERO DUP1 ISZERO PUSH2 0xF34 JUMPI RETURNDATASIZE PUSH1 0x0 DUP1 RETURNDATACOPY RETURNDATASIZE PUSH1 0x0 REVERT JUMPDEST POP POP POP POP PUSH1 0x40 MLOAD RETURNDATASIZE PUSH1 0x1F NOT PUSH1 0x1F DUP3 ADD AND DUP3 ADD DUP1 PUSH1 0x40 MSTORE POP DUP2 ADD SWAP1 PUSH2 0xF58 SWAP2 SWAP1 PUSH2 0x257A JUMP JUMPDEST SWAP1 POP PUSH1 0x0 PUSH2 0xF66 DUP5 DUP4 PUSH2 0x2683 JUMP JUMPDEST SWAP1 POP DUP3 DUP2 LT ISZERO PUSH2 0xF7D JUMPI PUSH2 0xF7A DUP2 DUP6 PUSH2 0x262C JUMP JUMPDEST SWAP5 POP JUMPDEST POP POP POP JUMPDEST PUSH2 0xF89 PUSH2 0x694 JUMP JUMPDEST PUSH1 0x1 PUSH1 0x1 PUSH1 0xA0 SHL SUB AND PUSH4 0x2E1A7D4D DUP4 PUSH1 0x40 MLOAD DUP3 PUSH4 0xFFFFFFFF AND PUSH1 0xE0 SHL DUP2 MSTORE PUSH1 0x4 ADD PUSH2 0xFB6 SWAP2 DUP2 MSTORE PUSH1 0x20 ADD SWAP1 JUMP JUMPDEST PUSH1 0x0 PUSH1 0x40 MLOAD DUP1 DUP4 SUB DUP2 PUSH1 0x0 DUP8 DUP1 EXTCODESIZE ISZERO DUP1 ISZERO PUSH2 0xFD0 JUMPI PUSH1 0x0 DUP1 REVERT JUMPDEST POP GAS CALL ISZERO DUP1 ISZERO PUSH2 0xFE4 JUMPI RETURNDATASIZE PUSH1 0x0 DUP1 RETURNDATACOPY RETURNDATASIZE PUSH1 0x0 REVERT JUMPDEST POP POP PUSH1 0x40 MLOAD CALLER SWAP3 POP DUP5 ISZERO PUSH2 0x8FC MUL SWAP2 POP DUP5 SWAP1 PUSH1 0x0 DUP2 DUP2 DUP2 DUP6 DUP9 DUP9 CALL SWAP4 POP POP POP POP ISZERO DUP1 ISZERO PUSH2 0x1015 JUMPI RETURNDATASIZE PUSH1 0x0 DUP1 RETURNDATACOPY RETURNDATASIZE PUSH1 0x0 REVERT JUMPDEST POP POP POP POP JUMP JUMPDEST CALLER PUSH1 0x0 SWAP1 DUP2 MSTORE PUSH1 0x33 PUSH1 0x20 MSTORE PUSH1 0x40 SWAP1 KECCAK256 SLOAD PUSH2 0x96F SWAP1 PUSH2 0x73A JUMP JUMPDEST PUSH1 0x60 PUSH1 0x37 DUP1 SLOAD PUSH2 0x5F9 SWAP1 PUSH2 0x26C6 JUMP JUMPDEST PUSH1 0x0 CALLER DUP2 PUSH2 0x1051 DUP3 DUP7 PUSH2 0x14B1 JUMP JUMPDEST SWAP1 POP DUP4 DUP2 LT ISZERO PUSH2 0x10B1 JUMPI PUSH1 0x40 MLOAD PUSH3 0x461BCD PUSH1 0xE5 SHL DUP2 MSTORE PUSH1 0x20 PUSH1 0x4 DUP3 ADD MSTORE PUSH1 0x25 PUSH1 0x24 DUP3 ADD MSTORE PUSH32 0x45524332303A2064656372656173656420616C6C6F77616E63652062656C6F77 PUSH1 0x44 DUP3 ADD MSTORE PUSH5 0x207A65726F PUSH1 0xD8 SHL PUSH1 0x64 DUP3 ADD MSTORE PUSH1 0x84 ADD PUSH2 0xA8D JUMP JUMPDEST PUSH2 0x72F DUP3 DUP7 DUP7 DUP5 SUB PUSH2 0x184F JUMP JUMPDEST PUSH1 0x0 CALLER PUSH2 0x68A DUP2 DUP6 DUP6 PUSH2 0x19E7 JUMP JUMPDEST PUSH1 0xCB SLOAD PUSH1 0x40 DUP1 MLOAD PUSH4 0x722713F7 PUSH1 0xE0 SHL DUP2 MSTORE SWAP1 MLOAD PUSH1 0x0 SWAP3 PUSH1 0x1 PUSH1 0x1 PUSH1 0xA0 SHL SUB AND SWAP2 PUSH4 0x722713F7 SWAP2 PUSH1 0x4 DUP1 DUP4 ADD SWAP3 PUSH1 0x20 SWAP3 SWAP2 SWAP1 DUP3 SWAP1 SUB ADD DUP2 DUP7 DUP1 EXTCODESIZE ISZERO DUP1 ISZERO PUSH2 0x1111 JUMPI PUSH1 0x0 DUP1 REVERT JUMPDEST POP GAS STATICCALL ISZERO DUP1 ISZERO PUSH2 0x1125 JUMPI RETURNDATASIZE PUSH1 0x0 DUP1 RETURNDATACOPY RETURNDATASIZE PUSH1 0x0 REVERT JUMPDEST POP POP POP POP PUSH1 0x40 MLOAD RETURNDATASIZE PUSH1 0x1F NOT PUSH1 0x1F DUP3 ADD AND DUP3 ADD DUP1 PUSH1 0x40 MSTORE POP DUP2 ADD SWAP1 PUSH2 0x1149 SWAP2 SWAP1 PUSH2 0x257A JUMP JUMPDEST PUSH2 0x1151 PUSH2 0x694 JUMP JUMPDEST PUSH1 0x40 MLOAD PUSH4 0x70A08231 PUSH1 0xE0 SHL DUP2 MSTORE ADDRESS PUSH1 0x4 DUP3 ADD MSTORE PUSH1 0x1 PUSH1 0x1 PUSH1 0xA0 SHL SUB SWAP2 SWAP1 SWAP2 AND SWAP1 PUSH4 0x70A08231 SWAP1 PUSH1 0x24 ADD PUSH1 0x20 PUSH1 0x40 MLOAD DUP1 DUP4 SUB DUP2 DUP7 DUP1 EXTCODESIZE ISZERO DUP1 ISZERO PUSH2 0x1192 JUMPI PUSH1 0x0 DUP1 REVERT JUMPDEST POP GAS STATICCALL ISZERO DUP1 ISZERO PUSH2 0x11A6 JUMPI RETURNDATASIZE PUSH1 0x0 DUP1 RETURNDATACOPY RETURNDATASIZE PUSH1 0x0 REVERT JUMPDEST POP POP POP POP PUSH1 0x40 MLOAD RETURNDATASIZE PUSH1 0x1F NOT PUSH1 0x1F DUP3 ADD AND DUP3 ADD DUP1 PUSH1 0x40 MSTORE POP DUP2 ADD SWAP1 PUSH2 0x11CA SWAP2 SWAP1 PUSH2 0x257A JUMP JUMPDEST PUSH2 0x711 SWAP2 SWAP1 PUSH2 0x262C JUMP JUMPDEST PUSH2 0x11DC PUSH2 0x1E64 JUMP JUMPDEST PUSH1 0xCB PUSH1 0x0 SWAP1 SLOAD SWAP1 PUSH2 0x100 EXP SWAP1 DIV PUSH1 0x1 PUSH1 0x1 PUSH1 0xA0 SHL SUB AND PUSH1 0x1 PUSH1 0x1 PUSH1 0xA0 SHL SUB AND PUSH4 0x573FEF0A PUSH1 0x40 MLOAD DUP2 PUSH4 0xFFFFFFFF AND PUSH1 0xE0 SHL DUP2 MSTORE PUSH1 0x4 ADD PUSH1 0x0 PUSH1 0x40 MLOAD DUP1 DUP4 SUB DUP2 PUSH1 0x0 DUP8 DUP1 EXTCODESIZE ISZERO DUP1 ISZERO PUSH2 0x122C JUMPI PUSH1 0x0 DUP1 REVERT JUMPDEST POP GAS CALL ISZERO DUP1 ISZERO PUSH2 0x1240 JUMPI RETURNDATASIZE PUSH1 0x0 DUP1 RETURNDATACOPY RETURNDATASIZE PUSH1 0x0 REVERT JUMPDEST POP POP POP POP PUSH1 0x0 PUSH2 0x124E PUSH2 0x10CC JUMP JUMPDEST SWAP1 POP PUSH2 0x126F CALLER ADDRESS DUP5 PUSH2 0x125E PUSH2 0x694 JUMP JUMPDEST PUSH1 0x1 PUSH1 0x1 PUSH1 0xA0 SHL SUB AND SWAP3 SWAP2 SWAP1 PUSH2 0x1EBE JUMP JUMPDEST PUSH2 0x1277 PUSH2 0x12E0 JUMP JUMPDEST PUSH1 0x0 PUSH2 0x1281 PUSH2 0x10CC JUMP JUMPDEST SWAP1 POP PUSH2 0x128D DUP3 DUP3 PUSH2 0x2683 JUMP JUMPDEST SWAP3 POP PUSH1 0x0 PUSH2 0x129A PUSH1 0x35 SLOAD SWAP1 JUMP JUMPDEST PUSH2 0x12A5 JUMPI POP DUP3 PUSH2 0x12C6 JUMP JUMPDEST DUP3 PUSH2 0x12AF PUSH1 0x35 SLOAD SWAP1 JUMP JUMPDEST PUSH2 0x12B9 SWAP1 DUP7 PUSH2 0x2664 JUMP JUMPDEST PUSH2 0x12C3 SWAP2 SWAP1 PUSH2 0x2644 JUMP JUMPDEST SWAP1 POP JUMPDEST PUSH2 0x12D0 CALLER DUP3 PUSH2 0x1EF6 JUMP JUMPDEST POP POP POP PUSH2 0x12DD PUSH1 0x1 PUSH1 0x97 SSTORE JUMP JUMPDEST POP JUMP JUMPDEST PUSH1 0x0 PUSH2 0x12EA PUSH2 0x971 JUMP JUMPDEST PUSH1 0xCB SLOAD SWAP1 SWAP2 POP PUSH2 0x1306 SWAP1 PUSH1 0x1 PUSH1 0x1 PUSH1 0xA0 SHL SUB AND DUP3 PUSH2 0x91F PUSH2 0x694 JUMP JUMPDEST PUSH1 0xCB PUSH1 0x0 SWAP1 SLOAD SWAP1 PUSH2 0x100 EXP SWAP1 DIV PUSH1 0x1 PUSH1 0x1 PUSH1 0xA0 SHL SUB AND PUSH1 0x1 PUSH1 0x1 PUSH1 0xA0 SHL SUB AND PUSH4 0xD0E30DB0 PUSH1 0x40 MLOAD DUP2 PUSH4 0xFFFFFFFF AND PUSH1 0xE0 SHL DUP2 MSTORE PUSH1 0x4 ADD PUSH1 0x0 PUSH1 0x40 MLOAD DUP1 DUP4 SUB DUP2 PUSH1 0x0 DUP8 DUP1 EXTCODESIZE ISZERO DUP1 ISZERO PUSH2 0x1356 JUMPI PUSH1 0x0 DUP1 REVERT JUMPDEST POP GAS CALL ISZERO DUP1 ISZERO PUSH2 0xB39 JUMPI RETURNDATASIZE PUSH1 0x0 DUP1 RETURNDATACOPY RETURNDATASIZE PUSH1 0x0 REVERT JUMPDEST PUSH2 0x1372 PUSH2 0x1E64 JUMP JUMPDEST PUSH1 0xCB PUSH1 0x0 SWAP1 SLOAD SWAP1 PUSH2 0x100 EXP SWAP1 DIV PUSH1 0x1 PUSH1 0x1 PUSH1 0xA0 SHL SUB AND PUSH1 0x1 PUSH1 0x1 PUSH1 0xA0 SHL SUB AND PUSH4 0x573FEF0A PUSH1 0x40 MLOAD DUP2 PUSH4 0xFFFFFFFF AND PUSH1 0xE0 SHL DUP2 MSTORE PUSH1 0x4 ADD PUSH1 0x0 PUSH1 0x40 MLOAD DUP1 DUP4 SUB DUP2 PUSH1 0x0 DUP8 DUP1 EXTCODESIZE ISZERO DUP1 ISZERO PUSH2 0x13C2 JUMPI PUSH1 0x0 DUP1 REVERT JUMPDEST POP GAS CALL ISZERO DUP1 ISZERO PUSH2 0x13D6 JUMPI RETURNDATASIZE PUSH1 0x0 DUP1 RETURNDATACOPY RETURNDATASIZE PUSH1 0x0 REVERT JUMPDEST POP POP POP POP PUSH1 0x0 PUSH2 0x13E4 PUSH2 0x10CC JUMP JUMPDEST SWAP1 POP CALLVALUE PUSH2 0x13EF PUSH2 0x694 JUMP JUMPDEST PUSH1 0x1 PUSH1 0x1 PUSH1 0xA0 SHL SUB AND PUSH4 0xD0E30DB0 DUP3 PUSH1 0x40 MLOAD DUP3 PUSH4 0xFFFFFFFF AND PUSH1 0xE0 SHL DUP2 MSTORE PUSH1 0x4 ADD PUSH1 0x0 PUSH1 0x40 MLOAD DUP1 DUP4 SUB DUP2 DUP6 DUP9 DUP1 EXTCODESIZE ISZERO DUP1 ISZERO PUSH2 0x1429 JUMPI PUSH1 0x0 DUP1 REVERT JUMPDEST POP GAS CALL ISZERO DUP1 ISZERO PUSH2 0x143D JUMPI RETURNDATASIZE PUSH1 0x0 DUP1 RETURNDATACOPY RETURNDATASIZE PUSH1 0x0 REVERT JUMPDEST POP POP POP POP POP PUSH2 0x144A PUSH2 0x12E0 JUMP JUMPDEST PUSH1 0x0 PUSH2 0x1454 PUSH2 0x10CC JUMP JUMPDEST SWAP1 POP PUSH2 0x1460 DUP4 DUP3 PUSH2 0x2683 JUMP JUMPDEST SWAP2 POP PUSH1 0x0 PUSH2 0x146D PUSH1 0x35 SLOAD SWAP1 JUMP JUMPDEST PUSH2 0x1478 JUMPI POP DUP2 PUSH2 0x1499 JUMP JUMPDEST DUP4 PUSH2 0x1482 PUSH1 0x35 SLOAD SWAP1 JUMP JUMPDEST PUSH2 0x148C SWAP1 DUP6 PUSH2 0x2664 JUMP JUMPDEST PUSH2 0x1496 SWAP2 SWAP1 PUSH2 0x2644 JUMP JUMPDEST SWAP1 POP JUMPDEST PUSH2 0x14A3 CALLER DUP3 PUSH2 0x1EF6 JUMP JUMPDEST POP POP POP POP PUSH2 0x96F PUSH1 0x1 PUSH1 0x97 SSTORE JUMP JUMPDEST PUSH1 0x1 PUSH1 0x1 PUSH1 0xA0 SHL SUB SWAP2 DUP3 AND PUSH1 0x0 SWAP1 DUP2 MSTORE PUSH1 0x34 PUSH1 0x20 SWAP1 DUP2 MSTORE PUSH1 0x40 DUP1 DUP4 KECCAK256 SWAP4 SWAP1 SWAP5 AND DUP3 MSTORE SWAP2 SWAP1 SWAP2 MSTORE KECCAK256 SLOAD SWAP1 JUMP JUMPDEST PUSH2 0x96F PUSH2 0x14E7 PUSH2 0x694 JUMP JUMPDEST PUSH1 0x40 MLOAD PUSH4 0x70A08231 PUSH1 0xE0 SHL DUP2 MSTORE CALLER PUSH1 0x4 DUP3 ADD MSTORE PUSH1 0x1 PUSH1 0x1 PUSH1 0xA0 SHL SUB SWAP2 SWAP1 SWAP2 AND SWAP1 PUSH4 0x70A08231 SWAP1 PUSH1 0x24 ADD PUSH1 0x20 PUSH1 0x40 MLOAD DUP1 DUP4 SUB DUP2 DUP7 DUP1 EXTCODESIZE ISZERO DUP1 ISZERO PUSH2 0x1528 JUMPI PUSH1 0x0 DUP1 REVERT JUMPDEST POP GAS STATICCALL ISZERO DUP1 ISZERO PUSH2 0x153C JUMPI RETURNDATASIZE PUSH1 0x0 DUP1 RETURNDATACOPY RETURNDATASIZE PUSH1 0x0 REVERT JUMPDEST POP POP POP POP PUSH1 0x40 MLOAD RETURNDATASIZE PUSH1 0x1F NOT PUSH1 0x1F DUP3 ADD AND DUP3 ADD DUP1 PUSH1 0x40 MSTORE POP DUP2 ADD SWAP1 PUSH2 0x528 SWAP2 SWAP1 PUSH2 0x257A JUMP JUMPDEST PUSH2 0x1568 PUSH2 0x1DB8 JUMP JUMPDEST PUSH2 0x1570 PUSH2 0x694 JUMP JUMPDEST PUSH1 0x1 PUSH1 0x1 PUSH1 0xA0 SHL SUB AND DUP2 PUSH1 0x1 PUSH1 0x1 PUSH1 0xA0 SHL SUB AND EQ ISZERO PUSH2 0x15BA JUMPI PUSH1 0x40 MLOAD PUSH3 0x461BCD PUSH1 0xE5 SHL DUP2 MSTORE PUSH1 0x20 PUSH1 0x4 DUP3 ADD MSTORE PUSH1 0x6 PUSH1 0x24 DUP3 ADD MSTORE PUSH6 0x10BA37B5B2B7 PUSH1 0xD1 SHL PUSH1 0x44 DUP3 ADD MSTORE PUSH1 0x64 ADD PUSH2 0xA8D JUMP JUMPDEST PUSH1 0x40 MLOAD PUSH4 0x70A08231 PUSH1 0xE0 SHL DUP2 MSTORE ADDRESS PUSH1 0x4 DUP3 ADD MSTORE PUSH1 0x0 SWAP1 PUSH1 0x1 PUSH1 0x1 PUSH1 0xA0 SHL SUB DUP4 AND SWAP1 PUSH4 0x70A08231 SWAP1 PUSH1 0x24 ADD PUSH1 0x20 PUSH1 0x40 MLOAD DUP1 DUP4 SUB DUP2 DUP7 DUP1 EXTCODESIZE ISZERO DUP1 ISZERO PUSH2 0x15FC JUMPI PUSH1 0x0 DUP1 REVERT JUMPDEST POP GAS STATICCALL ISZERO DUP1 ISZERO PUSH2 0x1610 JUMPI RETURNDATASIZE PUSH1 0x0 DUP1 RETURNDATACOPY RETURNDATASIZE PUSH1 0x0 REVERT JUMPDEST POP POP POP POP PUSH1 0x40 MLOAD RETURNDATASIZE PUSH1 0x1F NOT PUSH1 0x1F DUP3 ADD AND DUP3 ADD DUP1 PUSH1 0x40 MSTORE POP DUP2 ADD SWAP1 PUSH2 0x1634 SWAP2 SWAP1 PUSH2 0x257A JUMP JUMPDEST SWAP1 POP PUSH2 0x164A PUSH1 0x1 PUSH1 0x1 PUSH1 0xA0 SHL SUB DUP4 AND CALLER DUP4 PUSH2 0x1CC6 JUMP JUMPDEST POP POP JUMP JUMPDEST PUSH2 0x1656 PUSH2 0x1DB8 JUMP JUMPDEST PUSH1 0xC9 SLOAD PUSH1 0x1 PUSH1 0x1 PUSH1 0xA0 SHL SUB AND PUSH2 0x16A6 JUMPI PUSH1 0x40 MLOAD PUSH3 0x461BCD PUSH1 0xE5 SHL DUP2 MSTORE PUSH1 0x20 PUSH1 0x4 DUP3 ADD MSTORE PUSH1 0x15 PUSH1 0x24 DUP3 ADD MSTORE PUSH21 0x5468657265206973206E6F2063616E646964617465 PUSH1 0x58 SHL PUSH1 0x44 DUP3 ADD MSTORE PUSH1 0x64 ADD PUSH2 0xA8D JUMP JUMPDEST PUSH1 0xCC SLOAD PUSH1 0xCA SLOAD TIMESTAMP SWAP2 PUSH2 0x16B7 SWAP2 PUSH2 0x262C JUMP JUMPDEST LT PUSH2 0x16FB JUMPI PUSH1 0x40 MLOAD PUSH3 0x461BCD PUSH1 0xE5 SHL DUP2 MSTORE PUSH1 0x20 PUSH1 0x4 DUP3 ADD MSTORE PUSH1 0x14 PUSH1 0x24 DUP3 ADD MSTORE PUSH20 0x11195B185E481A185CC81B9BDD081C185CDCD959 PUSH1 0x62 SHL PUSH1 0x44 DUP3 ADD MSTORE PUSH1 0x64 ADD PUSH2 0xA8D JUMP JUMPDEST PUSH1 0xC9 SLOAD PUSH1 0x40 MLOAD PUSH1 0x1 PUSH1 0x1 PUSH1 0xA0 SHL SUB SWAP1 SWAP2 AND DUP2 MSTORE PUSH32 0x7F37D440E85ABA7FBF641C4BDA5CA4EF669A80BFFAACDE2AA8D9FEB1B048C82C SWAP1 PUSH1 0x20 ADD PUSH1 0x40 MLOAD DUP1 SWAP2 SUB SWAP1 LOG1 PUSH1 0xCB PUSH1 0x0 SWAP1 SLOAD SWAP1 PUSH2 0x100 EXP SWAP1 DIV PUSH1 0x1 PUSH1 0x1 PUSH1 0xA0 SHL SUB AND PUSH1 0x1 PUSH1 0x1 PUSH1 0xA0 SHL SUB AND PUSH4 0xFB617787 PUSH1 0x40 MLOAD DUP2 PUSH4 0xFFFFFFFF AND PUSH1 0xE0 SHL DUP2 MSTORE PUSH1 0x4 ADD PUSH1 0x0 PUSH1 0x40 MLOAD DUP1 DUP4 SUB DUP2 PUSH1 0x0 DUP8 DUP1 EXTCODESIZE ISZERO DUP1 ISZERO PUSH2 0x178B JUMPI PUSH1 0x0 DUP1 REVERT JUMPDEST POP GAS CALL ISZERO DUP1 ISZERO PUSH2 0x179F JUMPI RETURNDATASIZE PUSH1 0x0 DUP1 RETURNDATACOPY RETURNDATASIZE PUSH1 0x0 REVERT JUMPDEST POP POP PUSH1 0xC9 DUP1 SLOAD PUSH1 0xCB DUP1 SLOAD PUSH1 0x1 PUSH1 0x1 PUSH1 0xA0 SHL SUB NOT SWAP1 DUP2 AND PUSH1 0x1 PUSH1 0x1 PUSH1 0xA0 SHL SUB DUP5 AND OR SWAP1 SWAP2 SSTORE AND SWAP1 SSTORE POP POP PUSH5 0x12A05F200 PUSH1 0xCA SSTORE PUSH2 0x96F PUSH2 0x12E0 JUMP JUMPDEST PUSH2 0x17E1 PUSH2 0x1DB8 JUMP JUMPDEST PUSH1 0x1 PUSH1 0x1 PUSH1 0xA0 SHL SUB DUP2 AND PUSH2 0x1846 JUMPI PUSH1 0x40 MLOAD PUSH3 0x461BCD PUSH1 0xE5 SHL DUP2 MSTORE PUSH1 0x20 PUSH1 0x4 DUP3 ADD MSTORE PUSH1 0x26 PUSH1 0x24 DUP3 ADD MSTORE PUSH32 0x4F776E61626C653A206E6577206F776E657220697320746865207A65726F2061 PUSH1 0x44 DUP3 ADD MSTORE PUSH6 0x646472657373 PUSH1 0xD0 SHL PUSH1 0x64 DUP3 ADD MSTORE PUSH1 0x84 ADD PUSH2 0xA8D JUMP JUMPDEST PUSH2 0x12DD DUP2 PUSH2 0x1E12 JUMP JUMPDEST PUSH1 0x1 PUSH1 0x1 PUSH1 0xA0 SHL SUB DUP4 AND PUSH2 0x18B1 JUMPI PUSH1 0x40 MLOAD PUSH3 0x461BCD PUSH1 0xE5 SHL DUP2 MSTORE PUSH1 0x20 PUSH1 0x4 DUP3 ADD MSTORE PUSH1 0x24 DUP1 DUP3 ADD MSTORE PUSH32 0x45524332303A20617070726F76652066726F6D20746865207A65726F20616464 PUSH1 0x44 DUP3 ADD MSTORE PUSH4 0x72657373 PUSH1 0xE0 SHL PUSH1 0x64 DUP3 ADD MSTORE PUSH1 0x84 ADD PUSH2 0xA8D JUMP JUMPDEST PUSH1 0x1 PUSH1 0x1 PUSH1 0xA0 SHL SUB DUP3 AND PUSH2 0x1912 JUMPI PUSH1 0x40 MLOAD PUSH3 0x461BCD PUSH1 0xE5 SHL DUP2 MSTORE PUSH1 0x20 PUSH1 0x4 DUP3 ADD MSTORE PUSH1 0x22 PUSH1 0x24 DUP3 ADD MSTORE PUSH32 0x45524332303A20617070726F766520746F20746865207A65726F206164647265 PUSH1 0x44 DUP3 ADD MSTORE PUSH2 0x7373 PUSH1 0xF0 SHL PUSH1 0x64 DUP3 ADD MSTORE PUSH1 0x84 ADD PUSH2 0xA8D JUMP JUMPDEST PUSH1 0x1 PUSH1 0x1 PUSH1 0xA0 SHL SUB DUP4 DUP2 AND PUSH1 0x0 DUP2 DUP2 MSTORE PUSH1 0x34 PUSH1 0x20 SWAP1 DUP2 MSTORE PUSH1 0x40 DUP1 DUP4 KECCAK256 SWAP5 DUP8 AND DUP1 DUP5 MSTORE SWAP5 DUP3 MSTORE SWAP2 DUP3 SWAP1 KECCAK256 DUP6 SWAP1 SSTORE SWAP1 MLOAD DUP5 DUP2 MSTORE PUSH32 0x8C5BE1E5EBEC7D5BD14F71427D1E84F3DD0314C0F7B2291E5B200AC8C7C3B925 SWAP2 ADD PUSH1 0x40 MLOAD DUP1 SWAP2 SUB SWAP1 LOG3 POP POP POP JUMP JUMPDEST PUSH1 0x0 PUSH2 0x197F DUP5 DUP5 PUSH2 0x14B1 JUMP JUMPDEST SWAP1 POP PUSH1 0x0 NOT DUP2 EQ PUSH2 0x1015 JUMPI DUP2 DUP2 LT ISZERO PUSH2 0x19DA JUMPI PUSH1 0x40 MLOAD PUSH3 0x461BCD PUSH1 0xE5 SHL DUP2 MSTORE PUSH1 0x20 PUSH1 0x4 DUP3 ADD MSTORE PUSH1 0x1D PUSH1 0x24 DUP3 ADD MSTORE PUSH32 0x45524332303A20696E73756666696369656E7420616C6C6F77616E6365000000 PUSH1 0x44 DUP3 ADD MSTORE PUSH1 0x64 ADD PUSH2 0xA8D JUMP JUMPDEST PUSH2 0x1015 DUP5 DUP5 DUP5 DUP5 SUB PUSH2 0x184F JUMP JUMPDEST PUSH1 0x1 PUSH1 0x1 PUSH1 0xA0 SHL SUB DUP4 AND PUSH2 0x1A4B JUMPI PUSH1 0x40 MLOAD PUSH3 0x461BCD PUSH1 0xE5 SHL DUP2 MSTORE PUSH1 0x20 PUSH1 0x4 DUP3 ADD MSTORE PUSH1 0x25 PUSH1 0x24 DUP3 ADD MSTORE PUSH32 0x45524332303A207472616E736665722066726F6D20746865207A65726F206164 PUSH1 0x44 DUP3 ADD MSTORE PUSH5 0x6472657373 PUSH1 0xD8 SHL PUSH1 0x64 DUP3 ADD MSTORE PUSH1 0x84 ADD PUSH2 0xA8D JUMP JUMPDEST PUSH1 0x1 PUSH1 0x1 PUSH1 0xA0 SHL SUB DUP3 AND PUSH2 0x1AAD JUMPI PUSH1 0x40 MLOAD PUSH3 0x461BCD PUSH1 0xE5 SHL DUP2 MSTORE PUSH1 0x20 PUSH1 0x4 DUP3 ADD MSTORE PUSH1 0x23 PUSH1 0x24 DUP3 ADD MSTORE PUSH32 0x45524332303A207472616E7366657220746F20746865207A65726F2061646472 PUSH1 0x44 DUP3 ADD MSTORE PUSH3 0x657373 PUSH1 0xE8 SHL PUSH1 0x64 DUP3 ADD MSTORE PUSH1 0x84 ADD PUSH2 0xA8D JUMP JUMPDEST PUSH1 0x1 PUSH1 0x1 PUSH1 0xA0 SHL SUB DUP4 AND PUSH1 0x0 SWAP1 DUP2 MSTORE PUSH1 0x33 PUSH1 0x20 MSTORE PUSH1 0x40 SWAP1 KECCAK256 SLOAD DUP2 DUP2 LT ISZERO PUSH2 0x1B25 JUMPI PUSH1 0x40 MLOAD PUSH3 0x461BCD PUSH1 0xE5 SHL DUP2 MSTORE PUSH1 0x20 PUSH1 0x4 DUP3 ADD MSTORE PUSH1 0x26 PUSH1 0x24 DUP3 ADD MSTORE PUSH32 0x45524332303A207472616E7366657220616D6F756E7420657863656564732062 PUSH1 0x44 DUP3 ADD MSTORE PUSH6 0x616C616E6365 PUSH1 0xD0 SHL PUSH1 0x64 DUP3 ADD MSTORE PUSH1 0x84 ADD PUSH2 0xA8D JUMP JUMPDEST PUSH1 0x1 PUSH1 0x1 PUSH1 0xA0 SHL SUB DUP1 DUP6 AND PUSH1 0x0 DUP2 DUP2 MSTORE PUSH1 0x33 PUSH1 0x20 MSTORE PUSH1 0x40 DUP1 DUP3 KECCAK256 DUP7 DUP7 SUB SWAP1 SSTORE SWAP3 DUP7 AND DUP1 DUP3 MSTORE SWAP1 DUP4 SWAP1 KECCAK256 DUP1 SLOAD DUP7 ADD SWAP1 SSTORE SWAP2 MLOAD PUSH32 0xDDF252AD1BE2C89B69C2B068FC378DAA952BA7F163C4A11628F55A4DF523B3EF SWAP1 PUSH2 0x1B85 SWAP1 DUP7 DUP2 MSTORE PUSH1 0x20 ADD SWAP1 JUMP JUMPDEST PUSH1 0x40 MLOAD DUP1 SWAP2 SUB SWAP1 LOG3 PUSH2 0x1015 JUMP JUMPDEST PUSH1 0x1 PUSH1 0x1 PUSH1 0xA0 SHL SUB DUP3 AND PUSH2 0x1BF2 JUMPI PUSH1 0x40 MLOAD PUSH3 0x461BCD PUSH1 0xE5 SHL DUP2 MSTORE PUSH1 0x20 PUSH1 0x4 DUP3 ADD MSTORE PUSH1 0x21 PUSH1 0x24 DUP3 ADD MSTORE PUSH32 0x45524332303A206275726E2066726F6D20746865207A65726F20616464726573 PUSH1 0x44 DUP3 ADD MSTORE PUSH1 0x73 PUSH1 0xF8 SHL PUSH1 0x64 DUP3 ADD MSTORE PUSH1 0x84 ADD PUSH2 0xA8D JUMP JUMPDEST PUSH1 0x1 PUSH1 0x1 PUSH1 0xA0 SHL SUB DUP3 AND PUSH1 0x0 SWAP1 DUP2 MSTORE PUSH1 0x33 PUSH1 0x20 MSTORE PUSH1 0x40 SWAP1 KECCAK256 SLOAD DUP2 DUP2 LT ISZERO PUSH2 0x1C66 JUMPI PUSH1 0x40 MLOAD PUSH3 0x461BCD PUSH1 0xE5 SHL DUP2 MSTORE PUSH1 0x20 PUSH1 0x4 DUP3 ADD MSTORE PUSH1 0x22 PUSH1 0x24 DUP3 ADD MSTORE PUSH32 0x45524332303A206275726E20616D6F756E7420657863656564732062616C616E PUSH1 0x44 DUP3 ADD MSTORE PUSH2 0x6365 PUSH1 0xF0 SHL PUSH1 0x64 DUP3 ADD MSTORE PUSH1 0x84 ADD PUSH2 0xA8D JUMP JUMPDEST PUSH1 0x1 PUSH1 0x1 PUSH1 0xA0 SHL SUB DUP4 AND PUSH1 0x0 DUP2 DUP2 MSTORE PUSH1 0x33 PUSH1 0x20 SWAP1 DUP2 MSTORE PUSH1 0x40 DUP1 DUP4 KECCAK256 DUP7 DUP7 SUB SWAP1 SSTORE PUSH1 0x35 DUP1 SLOAD DUP8 SWAP1 SUB SWAP1 SSTORE MLOAD DUP6 DUP2 MSTORE SWAP2 SWAP3 SWAP2 PUSH32 0xDDF252AD1BE2C89B69C2B068FC378DAA952BA7F163C4A11628F55A4DF523B3EF SWAP2 ADD PUSH1 0x40 MLOAD DUP1 SWAP2 SUB SWAP1 LOG3 POP POP POP JUMP JUMPDEST PUSH1 0x40 MLOAD PUSH1 0x1 PUSH1 0x1 PUSH1 0xA0 SHL SUB DUP4 AND PUSH1 0x24 DUP3 ADD MSTORE PUSH1 0x44 DUP2 ADD DUP3 SWAP1 MSTORE PUSH2 0x92F SWAP1 DUP5 SWAP1 PUSH4 0xA9059CBB PUSH1 0xE0 SHL SWAP1 PUSH1 0x64 ADD JUMPDEST PUSH1 0x40 DUP1 MLOAD PUSH1 0x1F NOT DUP2 DUP5 SUB ADD DUP2 MSTORE SWAP2 SWAP1 MSTORE PUSH1 0x20 DUP2 ADD DUP1 MLOAD PUSH1 0x1 PUSH1 0x1 PUSH1 0xE0 SHL SUB AND PUSH1 0x1 PUSH1 0x1 PUSH1 0xE0 SHL SUB NOT SWAP1 SWAP4 AND SWAP3 SWAP1 SWAP3 OR SWAP1 SWAP2 MSTORE PUSH2 0x1FBE JUMP JUMPDEST PUSH1 0x0 SLOAD PUSH2 0x100 SWAP1 DIV PUSH1 0xFF AND PUSH2 0x1D50 JUMPI PUSH1 0x40 MLOAD PUSH3 0x461BCD PUSH1 0xE5 SHL DUP2 MSTORE PUSH1 0x4 ADD PUSH2 0xA8D SWAP1 PUSH2 0x25E1 JUMP JUMPDEST PUSH2 0x164A DUP3 DUP3 PUSH2 0x2093 JUMP JUMPDEST PUSH1 0x0 SLOAD PUSH2 0x100 SWAP1 DIV PUSH1 0xFF AND PUSH2 0x1D81 JUMPI PUSH1 0x40 MLOAD PUSH3 0x461BCD PUSH1 0xE5 SHL DUP2 MSTORE PUSH1 0x4 ADD PUSH2 0xA8D SWAP1 PUSH2 0x25E1 JUMP JUMPDEST PUSH2 0x96F PUSH2 0x20E1 JUMP JUMPDEST PUSH1 0x0 SLOAD PUSH2 0x100 SWAP1 DIV PUSH1 0xFF AND PUSH2 0x1DB0 JUMPI PUSH1 0x40 MLOAD PUSH3 0x461BCD PUSH1 0xE5 SHL DUP2 MSTORE PUSH1 0x4 ADD PUSH2 0xA8D SWAP1 PUSH2 0x25E1 JUMP JUMPDEST PUSH2 0x96F PUSH2 0x2111 JUMP JUMPDEST PUSH1 0x65 SLOAD PUSH1 0x1 PUSH1 0x1 PUSH1 0xA0 SHL SUB AND CALLER EQ PUSH2 0x96F JUMPI PUSH1 0x40 MLOAD PUSH3 0x461BCD PUSH1 0xE5 SHL DUP2 MSTORE PUSH1 0x20 PUSH1 0x4 DUP3 ADD DUP2 SWAP1 MSTORE PUSH1 0x24 DUP3 ADD MSTORE PUSH32 0x4F776E61626C653A2063616C6C6572206973206E6F7420746865206F776E6572 PUSH1 0x44 DUP3 ADD MSTORE PUSH1 0x64 ADD PUSH2 0xA8D JUMP JUMPDEST PUSH1 0x65 DUP1 SLOAD PUSH1 0x1 PUSH1 0x1 PUSH1 0xA0 SHL SUB DUP4 DUP2 AND PUSH1 0x1 PUSH1 0x1 PUSH1 0xA0 SHL SUB NOT DUP4 AND DUP2 OR SWAP1 SWAP4 SSTORE PUSH1 0x40 MLOAD SWAP2 AND SWAP2 SWAP1 DUP3 SWAP1 PUSH32 0x8BE0079C531659141344CD1FD0A4F28419497F9722A3DAAFE3B4186F6B6457E0 SWAP1 PUSH1 0x0 SWAP1 LOG3 POP POP JUMP JUMPDEST PUSH1 0x2 PUSH1 0x97 SLOAD EQ ISZERO PUSH2 0x1EB7 JUMPI PUSH1 0x40 MLOAD PUSH3 0x461BCD PUSH1 0xE5 SHL DUP2 MSTORE PUSH1 0x20 PUSH1 0x4 DUP3 ADD MSTORE PUSH1 0x1F PUSH1 0x24 DUP3 ADD MSTORE PUSH32 0x5265656E7472616E637947756172643A207265656E7472616E742063616C6C00 PUSH1 0x44 DUP3 ADD MSTORE PUSH1 0x64 ADD PUSH2 0xA8D JUMP JUMPDEST PUSH1 0x2 PUSH1 0x97 SSTORE JUMP JUMPDEST PUSH1 0x40 MLOAD PUSH1 0x1 PUSH1 0x1 PUSH1 0xA0 SHL SUB DUP1 DUP6 AND PUSH1 0x24 DUP4 ADD MSTORE DUP4 AND PUSH1 0x44 DUP3 ADD MSTORE PUSH1 0x64 DUP2 ADD DUP3 SWAP1 MSTORE PUSH2 0x1015 SWAP1 DUP6 SWAP1 PUSH4 0x23B872DD PUSH1 0xE0 SHL SWAP1 PUSH1 0x84 ADD PUSH2 0x1CF2 JUMP JUMPDEST PUSH1 0x1 PUSH1 0x1 PUSH1 0xA0 SHL SUB DUP3 AND PUSH2 0x1F4C JUMPI PUSH1 0x40 MLOAD PUSH3 0x461BCD PUSH1 0xE5 SHL DUP2 MSTORE PUSH1 0x20 PUSH1 0x4 DUP3 ADD MSTORE PUSH1 0x1F PUSH1 0x24 DUP3 ADD MSTORE PUSH32 0x45524332303A206D696E7420746F20746865207A65726F206164647265737300 PUSH1 0x44 DUP3 ADD MSTORE PUSH1 0x64 ADD PUSH2 0xA8D JUMP JUMPDEST DUP1 PUSH1 0x35 PUSH1 0x0 DUP3 DUP3 SLOAD PUSH2 0x1F5E SWAP2 SWAP1 PUSH2 0x262C JUMP JUMPDEST SWAP1 SWAP2 SSTORE POP POP PUSH1 0x1 PUSH1 0x1 PUSH1 0xA0 SHL SUB DUP3 AND PUSH1 0x0 DUP2 DUP2 MSTORE PUSH1 0x33 PUSH1 0x20 SWAP1 DUP2 MSTORE PUSH1 0x40 DUP1 DUP4 KECCAK256 DUP1 SLOAD DUP7 ADD SWAP1 SSTORE MLOAD DUP5 DUP2 MSTORE PUSH32 0xDDF252AD1BE2C89B69C2B068FC378DAA952BA7F163C4A11628F55A4DF523B3EF SWAP2 ADD PUSH1 0x40 MLOAD DUP1 SWAP2 SUB SWAP1 LOG3 POP POP JUMP JUMPDEST PUSH1 0x1 PUSH1 0x97 SSTORE JUMP JUMPDEST PUSH1 0x0 PUSH2 0x2013 DUP3 PUSH1 0x40 MLOAD DUP1 PUSH1 0x40 ADD PUSH1 0x40 MSTORE DUP1 PUSH1 0x20 DUP2 MSTORE PUSH1 0x20 ADD PUSH32 0x5361666545524332303A206C6F772D6C6576656C2063616C6C206661696C6564 DUP2 MSTORE POP DUP6 PUSH1 0x1 PUSH1 0x1 PUSH1 0xA0 SHL SUB AND PUSH2 0x2138 SWAP1 SWAP3 SWAP2 SWAP1 PUSH4 0xFFFFFFFF AND JUMP JUMPDEST SWAP1 POP DUP1 MLOAD PUSH1 0x0 EQ DUP1 PUSH2 0x2034 JUMPI POP DUP1 DUP1 PUSH1 0x20 ADD SWAP1 MLOAD DUP2 ADD SWAP1 PUSH2 0x2034 SWAP2 SWAP1 PUSH2 0x24C7 JUMP JUMPDEST PUSH2 0x92F JUMPI PUSH1 0x40 MLOAD PUSH3 0x461BCD PUSH1 0xE5 SHL DUP2 MSTORE PUSH1 0x20 PUSH1 0x4 DUP3 ADD MSTORE PUSH1 0x2A PUSH1 0x24 DUP3 ADD MSTORE PUSH32 0x5361666545524332303A204552433230206F7065726174696F6E20646964206E PUSH1 0x44 DUP3 ADD MSTORE PUSH10 0x1BDD081CDD58D8D95959 PUSH1 0xB2 SHL PUSH1 0x64 DUP3 ADD MSTORE PUSH1 0x84 ADD PUSH2 0xA8D JUMP JUMPDEST PUSH1 0x0 SLOAD PUSH2 0x100 SWAP1 DIV PUSH1 0xFF AND PUSH2 0x20BA JUMPI PUSH1 0x40 MLOAD PUSH3 0x461BCD PUSH1 0xE5 SHL DUP2 MSTORE PUSH1 0x4 ADD PUSH2 0xA8D SWAP1 PUSH2 0x25E1 JUMP JUMPDEST DUP2 MLOAD PUSH2 0x20CD SWAP1 PUSH1 0x36 SWAP1 PUSH1 0x20 DUP6 ADD SWAP1 PUSH2 0x22C5 JUMP JUMPDEST POP DUP1 MLOAD PUSH2 0x92F SWAP1 PUSH1 0x37 SWAP1 PUSH1 0x20 DUP5 ADD SWAP1 PUSH2 0x22C5 JUMP JUMPDEST PUSH1 0x0 SLOAD PUSH2 0x100 SWAP1 DIV PUSH1 0xFF AND PUSH2 0x2108 JUMPI PUSH1 0x40 MLOAD PUSH3 0x461BCD PUSH1 0xE5 SHL DUP2 MSTORE PUSH1 0x4 ADD PUSH2 0xA8D SWAP1 PUSH2 0x25E1 JUMP JUMPDEST PUSH2 0x96F CALLER PUSH2 0x1E12 JUMP JUMPDEST PUSH1 0x0 SLOAD PUSH2 0x100 SWAP1 DIV PUSH1 0xFF AND PUSH2 0x1FB7 JUMPI PUSH1 0x40 MLOAD PUSH3 0x461BCD PUSH1 0xE5 SHL DUP2 MSTORE PUSH1 0x4 ADD PUSH2 0xA8D SWAP1 PUSH2 0x25E1 JUMP JUMPDEST PUSH1 0x60 PUSH2 0x2147 DUP5 DUP5 PUSH1 0x0 DUP6 PUSH2 0x214F JUMP JUMPDEST SWAP5 SWAP4 POP POP POP POP JUMP JUMPDEST PUSH1 0x60 DUP3 SELFBALANCE LT ISZERO PUSH2 0x21B0 JUMPI PUSH1 0x40 MLOAD PUSH3 0x461BCD PUSH1 0xE5 SHL DUP2 MSTORE PUSH1 0x20 PUSH1 0x4 DUP3 ADD MSTORE PUSH1 0x26 PUSH1 0x24 DUP3 ADD MSTORE PUSH32 0x416464726573733A20696E73756666696369656E742062616C616E636520666F PUSH1 0x44 DUP3 ADD MSTORE PUSH6 0x1C8818D85B1B PUSH1 0xD2 SHL PUSH1 0x64 DUP3 ADD MSTORE PUSH1 0x84 ADD PUSH2 0xA8D JUMP JUMPDEST PUSH1 0x0 DUP1 DUP7 PUSH1 0x1 PUSH1 0x1 PUSH1 0xA0 SHL SUB AND DUP6 DUP8 PUSH1 0x40 MLOAD PUSH2 0x21CC SWAP2 SWAP1 PUSH2 0x2592 JUMP JUMPDEST PUSH1 0x0 PUSH1 0x40 MLOAD DUP1 DUP4 SUB DUP2 DUP6 DUP8 GAS CALL SWAP3 POP POP POP RETURNDATASIZE DUP1 PUSH1 0x0 DUP2 EQ PUSH2 0x2209 JUMPI PUSH1 0x40 MLOAD SWAP2 POP PUSH1 0x1F NOT PUSH1 0x3F RETURNDATASIZE ADD AND DUP3 ADD PUSH1 0x40 MSTORE RETURNDATASIZE DUP3 MSTORE RETURNDATASIZE PUSH1 0x0 PUSH1 0x20 DUP5 ADD RETURNDATACOPY PUSH2 0x220E JUMP JUMPDEST PUSH1 0x60 SWAP2 POP JUMPDEST POP SWAP2 POP SWAP2 POP PUSH2 0x221F DUP8 DUP4 DUP4 DUP8 PUSH2 0x222A JUMP JUMPDEST SWAP8 SWAP7 POP POP POP POP POP POP POP JUMP JUMPDEST PUSH1 0x60 DUP4 ISZERO PUSH2 0x2296 JUMPI DUP3 MLOAD PUSH2 0x228F JUMPI PUSH1 0x1 PUSH1 0x1 PUSH1 0xA0 SHL SUB DUP6 AND EXTCODESIZE PUSH2 0x228F JUMPI PUSH1 0x40 MLOAD PUSH3 0x461BCD PUSH1 0xE5 SHL DUP2 MSTORE PUSH1 0x20 PUSH1 0x4 DUP3 ADD MSTORE PUSH1 0x1D PUSH1 0x24 DUP3 ADD MSTORE PUSH32 0x416464726573733A2063616C6C20746F206E6F6E2D636F6E7472616374000000 PUSH1 0x44 DUP3 ADD MSTORE PUSH1 0x64 ADD PUSH2 0xA8D JUMP JUMPDEST POP DUP2 PUSH2 0x2147 JUMP JUMPDEST PUSH2 0x2147 DUP4 DUP4 DUP2 MLOAD ISZERO PUSH2 0x22AB JUMPI DUP2 MLOAD DUP1 DUP4 PUSH1 0x20 ADD REVERT JUMPDEST DUP1 PUSH1 0x40 MLOAD PUSH3 0x461BCD PUSH1 0xE5 SHL DUP2 MSTORE PUSH1 0x4 ADD PUSH2 0xA8D SWAP2 SWAP1 PUSH2 0x25AE JUMP JUMPDEST DUP3 DUP1 SLOAD PUSH2 0x22D1 SWAP1 PUSH2 0x26C6 JUMP JUMPDEST SWAP1 PUSH1 0x0 MSTORE PUSH1 0x20 PUSH1 0x0 KECCAK256 SWAP1 PUSH1 0x1F ADD PUSH1 0x20 SWAP1 DIV DUP2 ADD SWAP3 DUP3 PUSH2 0x22F3 JUMPI PUSH1 0x0 DUP6 SSTORE PUSH2 0x2339 JUMP JUMPDEST DUP3 PUSH1 0x1F LT PUSH2 0x230C JUMPI DUP1 MLOAD PUSH1 0xFF NOT AND DUP4 DUP1 ADD OR DUP6 SSTORE PUSH2 0x2339 JUMP JUMPDEST DUP3 DUP1 ADD PUSH1 0x1 ADD DUP6 SSTORE DUP3 ISZERO PUSH2 0x2339 JUMPI SWAP2 DUP3 ADD JUMPDEST DUP3 DUP2 GT ISZERO PUSH2 0x2339 JUMPI DUP3 MLOAD DUP3 SSTORE SWAP2 PUSH1 0x20 ADD SWAP2 SWAP1 PUSH1 0x1 ADD SWAP1 PUSH2 0x231E JUMP JUMPDEST POP PUSH2 0x2345 SWAP3 SWAP2 POP PUSH2 0x2349 JUMP JUMPDEST POP SWAP1 JUMP JUMPDEST JUMPDEST DUP1 DUP3 GT ISZERO PUSH2 0x2345 JUMPI PUSH1 0x0 DUP2 SSTORE PUSH1 0x1 ADD PUSH2 0x234A JUMP JUMPDEST PUSH1 0x0 DUP3 PUSH1 0x1F DUP4 ADD SLT PUSH2 0x236E JUMPI DUP1 DUP2 REVERT JUMPDEST DUP2 CALLDATALOAD PUSH8 0xFFFFFFFFFFFFFFFF DUP1 DUP3 GT ISZERO PUSH2 0x2389 JUMPI PUSH2 0x2389 PUSH2 0x2717 JUMP JUMPDEST PUSH1 0x40 MLOAD PUSH1 0x1F DUP4 ADD PUSH1 0x1F NOT SWAP1 DUP2 AND PUSH1 0x3F ADD AND DUP2 ADD SWAP1 DUP3 DUP3 GT DUP2 DUP4 LT OR ISZERO PUSH2 0x23B1 JUMPI PUSH2 0x23B1 PUSH2 0x2717 JUMP JUMPDEST DUP2 PUSH1 0x40 MSTORE DUP4 DUP2 MSTORE DUP7 PUSH1 0x20 DUP6 DUP9 ADD ADD GT ISZERO PUSH2 0x23C9 JUMPI DUP5 DUP6 REVERT JUMPDEST DUP4 PUSH1 0x20 DUP8 ADD PUSH1 0x20 DUP4 ADD CALLDATACOPY SWAP3 DUP4 ADD PUSH1 0x20 ADD SWAP4 SWAP1 SWAP4 MSTORE POP SWAP4 SWAP3 POP POP POP JUMP JUMPDEST PUSH1 0x0 PUSH1 0x20 DUP3 DUP5 SUB SLT ISZERO PUSH2 0x23F6 JUMPI DUP1 DUP2 REVERT JUMPDEST DUP2 CALLDATALOAD PUSH2 0x2401 DUP2 PUSH2 0x272D JUMP JUMPDEST SWAP4 SWAP3 POP POP POP JUMP JUMPDEST PUSH1 0x0 PUSH1 0x20 DUP3 DUP5 SUB SLT ISZERO PUSH2 0x2419 JUMPI DUP1 DUP2 REVERT JUMPDEST DUP2 MLOAD PUSH2 0x2401 DUP2 PUSH2 0x272D JUMP JUMPDEST PUSH1 0x0 DUP1 PUSH1 0x40 DUP4 DUP6 SUB SLT ISZERO PUSH2 0x2436 JUMPI DUP1 DUP2 REVERT JUMPDEST DUP3 CALLDATALOAD PUSH2 0x2441 DUP2 PUSH2 0x272D JUMP JUMPDEST SWAP2 POP PUSH1 0x20 DUP4 ADD CALLDATALOAD PUSH2 0x2451 DUP2 PUSH2 0x272D JUMP JUMPDEST DUP1 SWAP2 POP POP SWAP3 POP SWAP3 SWAP1 POP JUMP JUMPDEST PUSH1 0x0 DUP1 PUSH1 0x0 PUSH1 0x60 DUP5 DUP7 SUB SLT ISZERO PUSH2 0x2470 JUMPI DUP1 DUP2 REVERT JUMPDEST DUP4 CALLDATALOAD PUSH2 0x247B DUP2 PUSH2 0x272D JUMP JUMPDEST SWAP3 POP PUSH1 0x20 DUP5 ADD CALLDATALOAD PUSH2 0x248B DUP2 PUSH2 0x272D JUMP JUMPDEST SWAP3 SWAP6 SWAP3 SWAP5 POP POP POP PUSH1 0x40 SWAP2 SWAP1 SWAP2 ADD CALLDATALOAD SWAP1 JUMP JUMPDEST PUSH1 0x0 DUP1 PUSH1 0x40 DUP4 DUP6 SUB SLT ISZERO PUSH2 0x24AE JUMPI DUP2 DUP3 REVERT JUMPDEST DUP3 CALLDATALOAD PUSH2 0x24B9 DUP2 PUSH2 0x272D JUMP JUMPDEST SWAP5 PUSH1 0x20 SWAP4 SWAP1 SWAP4 ADD CALLDATALOAD SWAP4 POP POP POP JUMP JUMPDEST PUSH1 0x0 PUSH1 0x20 DUP3 DUP5 SUB SLT ISZERO PUSH2 0x24D8 JUMPI DUP1 DUP2 REVERT JUMPDEST DUP2 MLOAD DUP1 ISZERO ISZERO DUP2 EQ PUSH2 0x2401 JUMPI DUP2 DUP3 REVERT JUMPDEST PUSH1 0x0 DUP1 PUSH1 0x0 DUP1 PUSH1 0x80 DUP6 DUP8 SUB SLT ISZERO PUSH2 0x24FC JUMPI DUP1 DUP2 REVERT JUMPDEST DUP5 CALLDATALOAD PUSH2 0x2507 DUP2 PUSH2 0x272D JUMP JUMPDEST SWAP4 POP PUSH1 0x20 DUP6 ADD CALLDATALOAD PUSH8 0xFFFFFFFFFFFFFFFF DUP1 DUP3 GT ISZERO PUSH2 0x2523 JUMPI DUP3 DUP4 REVERT JUMPDEST PUSH2 0x252F DUP9 DUP4 DUP10 ADD PUSH2 0x235E JUMP JUMPDEST SWAP5 POP PUSH1 0x40 DUP8 ADD CALLDATALOAD SWAP2 POP DUP1 DUP3 GT ISZERO PUSH2 0x2544 JUMPI DUP3 DUP4 REVERT JUMPDEST POP PUSH2 0x2551 DUP8 DUP3 DUP9 ADD PUSH2 0x235E JUMP JUMPDEST SWAP5 SWAP8 SWAP4 SWAP7 POP SWAP4 SWAP5 PUSH1 0x60 ADD CALLDATALOAD SWAP4 POP POP POP JUMP JUMPDEST PUSH1 0x0 PUSH1 0x20 DUP3 DUP5 SUB SLT ISZERO PUSH2 0x2573 JUMPI DUP1 DUP2 REVERT JUMPDEST POP CALLDATALOAD SWAP2 SWAP1 POP JUMP JUMPDEST PUSH1 0x0 PUSH1 0x20 DUP3 DUP5 SUB SLT ISZERO PUSH2 0x258B JUMPI DUP1 DUP2 REVERT JUMPDEST POP MLOAD SWAP2 SWAP1 POP JUMP JUMPDEST PUSH1 0x0 DUP3 MLOAD PUSH2 0x25A4 DUP2 DUP5 PUSH1 0x20 DUP8 ADD PUSH2 0x269A JUMP JUMPDEST SWAP2 SWAP1 SWAP2 ADD SWAP3 SWAP2 POP POP JUMP JUMPDEST PUSH1 0x20 DUP2 MSTORE PUSH1 0x0 DUP3 MLOAD DUP1 PUSH1 0x20 DUP5 ADD MSTORE PUSH2 0x25CD DUP2 PUSH1 0x40 DUP6 ADD PUSH1 0x20 DUP8 ADD PUSH2 0x269A JUMP JUMPDEST PUSH1 0x1F ADD PUSH1 0x1F NOT AND SWAP2 SWAP1 SWAP2 ADD PUSH1 0x40 ADD SWAP3 SWAP2 POP POP JUMP JUMPDEST PUSH1 0x20 DUP1 DUP3 MSTORE PUSH1 0x2B SWAP1 DUP3 ADD MSTORE PUSH32 0x496E697469616C697A61626C653A20636F6E7472616374206973206E6F742069 PUSH1 0x40 DUP3 ADD MSTORE PUSH11 0x6E697469616C697A696E67 PUSH1 0xA8 SHL PUSH1 0x60 DUP3 ADD MSTORE PUSH1 0x80 ADD SWAP1 JUMP JUMPDEST PUSH1 0x0 DUP3 NOT DUP3 GT ISZERO PUSH2 0x263F JUMPI PUSH2 0x263F PUSH2 0x2701 JUMP JUMPDEST POP ADD SWAP1 JUMP JUMPDEST PUSH1 0x0 DUP3 PUSH2 0x265F JUMPI PUSH4 0x4E487B71 PUSH1 0xE0 SHL DUP2 MSTORE PUSH1 0x12 PUSH1 0x4 MSTORE PUSH1 0x24 DUP2 REVERT JUMPDEST POP DIV SWAP1 JUMP JUMPDEST PUSH1 0x0 DUP2 PUSH1 0x0 NOT DIV DUP4 GT DUP3 ISZERO ISZERO AND ISZERO PUSH2 0x267E JUMPI PUSH2 0x267E PUSH2 0x2701 JUMP JUMPDEST POP MUL SWAP1 JUMP JUMPDEST PUSH1 0x0 DUP3 DUP3 LT ISZERO PUSH2 0x2695 JUMPI PUSH2 0x2695 PUSH2 0x2701 JUMP JUMPDEST POP SUB SWAP1 JUMP JUMPDEST PUSH1 0x0 JUMPDEST DUP4 DUP2 LT ISZERO PUSH2 0x26B5 JUMPI DUP2 DUP2 ADD MLOAD DUP4 DUP3 ADD MSTORE PUSH1 0x20 ADD PUSH2 0x269D JUMP JUMPDEST DUP4 DUP2 GT ISZERO PUSH2 0x1015 JUMPI POP POP PUSH1 0x0 SWAP2 ADD MSTORE JUMP JUMPDEST PUSH1 0x1 DUP2 DUP2 SHR SWAP1 DUP3 AND DUP1 PUSH2 0x26DA JUMPI PUSH1 0x7F DUP3 AND SWAP2 POP JUMPDEST PUSH1 0x20 DUP3 LT DUP2 EQ ISZERO PUSH2 0x26FB JUMPI PUSH4 0x4E487B71 PUSH1 0xE0 SHL PUSH1 0x0 MSTORE PUSH1 0x22 PUSH1 0x4 MSTORE PUSH1 0x24 PUSH1 0x0 REVERT JUMPDEST POP SWAP2 SWAP1 POP JUMP JUMPDEST PUSH4 0x4E487B71 PUSH1 0xE0 SHL PUSH1 0x0 MSTORE PUSH1 0x11 PUSH1 0x4 MSTORE PUSH1 0x24 PUSH1 0x0 REVERT JUMPDEST PUSH4 0x4E487B71 PUSH1 0xE0 SHL PUSH1 0x0 MSTORE PUSH1 0x41 PUSH1 0x4 MSTORE PUSH1 0x24 PUSH1 0x0 REVERT JUMPDEST PUSH1 0x1 PUSH1 0x1 PUSH1 0xA0 SHL SUB DUP2 AND DUP2 EQ PUSH2 0x12DD JUMPI PUSH1 0x0 DUP1 REVERT INVALID LOG2 PUSH5 0x6970667358 0x22 SLT KECCAK256 0xAC 0x26 PUSH17 0x1EB9A172AEBDD86E5E4489FE96E16D560 0xEB CALLDATALOAD GT EQ PUSH28 0xE4C85755B4CDF264736F6C6343000804003300000000000000000000 "
				},
				"gasEstimates": {
					"creation": {
						"codeDepositCost": "2020800",
						"executionCost": "2142",
						"totalCost": "2022942"
					},
					"external": {
						"allowance(address,address)": "infinite",
						"approvalDelay()": "1083",
						"approve(address,uint256)": "22564",
						"available()": "infinite",
						"balance()": "infinite",
						"balanceOf(address)": "1276",
						"decimals()": "267",
						"decreaseAllowance(address,uint256)": "23589",
						"deposit(uint256)": "infinite",
						"depositAll()": "infinite",
						"depositNative()": "infinite",
						"earn()": "infinite",
						"getPricePerFullShare()": "infinite",
						"inCaseTokensGetStuck(address)": "infinite",
						"increaseAllowance(address,uint256)": "23684",
						"initialize(address,string,string,uint256)": "infinite",
						"name()": "infinite",
						"owner()": "1121",
						"proposeStrat(address)": "infinite",
						"renounceOwnership()": "infinite",
						"stratCandidate()": "1956",
						"strategy()": "1104",
						"symbol()": "infinite",
						"totalSupply()": "1072",
						"transfer(address,uint256)": "44338",
						"transferFrom(address,address,uint256)": "infinite",
						"transferOwnership(address)": "infinite",
						"upgradeStrat()": "infinite",
						"want()": "infinite",
						"withdraw(uint256)": "infinite",
						"withdrawAll()": "infinite",
						"withdrawAllNative()": "infinite",
						"withdrawNative(uint256)": "infinite"
					}
				},
				"methodIdentifiers": {
					"allowance(address,address)": "dd62ed3e",
					"approvalDelay()": "e2d1e75c",
					"approve(address,uint256)": "095ea7b3",
					"available()": "48a0d754",
					"balance()": "b69ef8a8",
					"balanceOf(address)": "70a08231",
					"decimals()": "313ce567",
					"decreaseAllowance(address,uint256)": "a457c2d7",
					"deposit(uint256)": "b6b55f25",
					"depositAll()": "de5f6268",
					"depositNative()": "db6b5246",
					"earn()": "d389800f",
					"getPricePerFullShare()": "77c7b8fc",
					"inCaseTokensGetStuck(address)": "def68a9c",
					"increaseAllowance(address,uint256)": "39509351",
					"initialize(address,string,string,uint256)": "4d12d4b6",
					"name()": "06fdde03",
					"owner()": "8da5cb5b",
					"proposeStrat(address)": "5b12ff9b",
					"renounceOwnership()": "715018a6",
					"stratCandidate()": "76dfabb8",
					"strategy()": "a8c62e76",
					"symbol()": "95d89b41",
					"totalSupply()": "18160ddd",
					"transfer(address,uint256)": "a9059cbb",
					"transferFrom(address,address,uint256)": "23b872dd",
					"transferOwnership(address)": "f2fde38b",
					"upgradeStrat()": "e6685244",
					"want()": "1f1fcd51",
					"withdraw(uint256)": "2e1a7d4d",
					"withdrawAll()": "853828b6",
					"withdrawAllNative()": "482fe024",
					"withdrawNative(uint256)": "84276d81"
				}
			},
			"storageLayout": {
				"storage": [
					{
						"astId": 139,
						"contract": "contracts/vaults/PlexusVaultNative.sol:PlexusVaultNative",
						"label": "_initialized",
						"offset": 0,
						"slot": "0",
						"type": "t_uint8"
					},
					{
						"astId": 142,
						"contract": "contracts/vaults/PlexusVaultNative.sol:PlexusVaultNative",
						"label": "_initializing",
						"offset": 1,
						"slot": "0",
						"type": "t_bool"
					},
					{
						"astId": 1894,
						"contract": "contracts/vaults/PlexusVaultNative.sol:PlexusVaultNative",
						"label": "__gap",
						"offset": 0,
						"slot": "1",
						"type": "t_array(t_uint256)50_storage"
					},
					{
						"astId": 406,
						"contract": "contracts/vaults/PlexusVaultNative.sol:PlexusVaultNative",
						"label": "_balances",
						"offset": 0,
						"slot": "51",
						"type": "t_mapping(t_address,t_uint256)"
					},
					{
						"astId": 412,
						"contract": "contracts/vaults/PlexusVaultNative.sol:PlexusVaultNative",
						"label": "_allowances",
						"offset": 0,
						"slot": "52",
						"type": "t_mapping(t_address,t_mapping(t_address,t_uint256))"
					},
					{
						"astId": 414,
						"contract": "contracts/vaults/PlexusVaultNative.sol:PlexusVaultNative",
						"label": "_totalSupply",
						"offset": 0,
						"slot": "53",
						"type": "t_uint256"
					},
					{
						"astId": 416,
						"contract": "contracts/vaults/PlexusVaultNative.sol:PlexusVaultNative",
						"label": "_name",
						"offset": 0,
						"slot": "54",
						"type": "t_string_storage"
					},
					{
						"astId": 418,
						"contract": "contracts/vaults/PlexusVaultNative.sol:PlexusVaultNative",
						"label": "_symbol",
						"offset": 0,
						"slot": "55",
						"type": "t_string_storage"
					},
					{
						"astId": 998,
						"contract": "contracts/vaults/PlexusVaultNative.sol:PlexusVaultNative",
						"label": "__gap",
						"offset": 0,
						"slot": "56",
						"type": "t_array(t_uint256)45_storage"
					},
					{
						"astId": 11,
						"contract": "contracts/vaults/PlexusVaultNative.sol:PlexusVaultNative",
						"label": "_owner",
						"offset": 0,
						"slot": "101",
						"type": "t_address"
					},
					{
						"astId": 131,
						"contract": "contracts/vaults/PlexusVaultNative.sol:PlexusVaultNative",
						"label": "__gap",
						"offset": 0,
						"slot": "102",
						"type": "t_array(t_uint256)49_storage"
					},
					{
						"astId": 316,
						"contract": "contracts/vaults/PlexusVaultNative.sol:PlexusVaultNative",
						"label": "_status",
						"offset": 0,
						"slot": "151",
						"type": "t_uint256"
					},
					{
						"astId": 385,
						"contract": "contracts/vaults/PlexusVaultNative.sol:PlexusVaultNative",
						"label": "__gap",
						"offset": 0,
						"slot": "152",
						"type": "t_array(t_uint256)49_storage"
					},
					{
						"astId": 1999,
						"contract": "contracts/vaults/PlexusVaultNative.sol:PlexusVaultNative",
						"label": "stratCandidate",
						"offset": 0,
						"slot": "201",
						"type": "t_struct(StratCandidate)1996_storage"
					},
					{
						"astId": 2002,
						"contract": "contracts/vaults/PlexusVaultNative.sol:PlexusVaultNative",
						"label": "strategy",
						"offset": 0,
						"slot": "203",
						"type": "t_contract(IStrategy)1972"
					},
					{
						"astId": 2004,
						"contract": "contracts/vaults/PlexusVaultNative.sol:PlexusVaultNative",
						"label": "approvalDelay",
						"offset": 0,
						"slot": "204",
						"type": "t_uint256"
					}
				],
				"types": {
					"t_address": {
						"encoding": "inplace",
						"label": "address",
						"numberOfBytes": "20"
					},
					"t_array(t_uint256)45_storage": {
						"base": "t_uint256",
						"encoding": "inplace",
						"label": "uint256[45]",
						"numberOfBytes": "1440"
					},
					"t_array(t_uint256)49_storage": {
						"base": "t_uint256",
						"encoding": "inplace",
						"label": "uint256[49]",
						"numberOfBytes": "1568"
					},
					"t_array(t_uint256)50_storage": {
						"base": "t_uint256",
						"encoding": "inplace",
						"label": "uint256[50]",
						"numberOfBytes": "1600"
					},
					"t_bool": {
						"encoding": "inplace",
						"label": "bool",
						"numberOfBytes": "1"
					},
					"t_contract(IStrategy)1972": {
						"encoding": "inplace",
						"label": "contract IStrategy",
						"numberOfBytes": "20"
					},
					"t_mapping(t_address,t_mapping(t_address,t_uint256))": {
						"encoding": "mapping",
						"key": "t_address",
						"label": "mapping(address => mapping(address => uint256))",
						"numberOfBytes": "32",
						"value": "t_mapping(t_address,t_uint256)"
					},
					"t_mapping(t_address,t_uint256)": {
						"encoding": "mapping",
						"key": "t_address",
						"label": "mapping(address => uint256)",
						"numberOfBytes": "32",
						"value": "t_uint256"
					},
					"t_string_storage": {
						"encoding": "bytes",
						"label": "string",
						"numberOfBytes": "32"
					},
					"t_struct(StratCandidate)1996_storage": {
						"encoding": "inplace",
						"label": "struct PlexusVaultNative.StratCandidate",
						"members": [
							{
								"astId": 1993,
								"contract": "contracts/vaults/PlexusVaultNative.sol:PlexusVaultNative",
								"label": "implementation",
								"offset": 0,
								"slot": "0",
								"type": "t_address"
							},
							{
								"astId": 1995,
								"contract": "contracts/vaults/PlexusVaultNative.sol:PlexusVaultNative",
								"label": "proposedTime",
								"offset": 0,
								"slot": "1",
								"type": "t_uint256"
							}
						],
						"numberOfBytes": "64"
					},
					"t_uint256": {
						"encoding": "inplace",
						"label": "uint256",
						"numberOfBytes": "32"
					},
					"t_uint8": {
						"encoding": "inplace",
						"label": "uint8",
						"numberOfBytes": "1"
					}
				}
			},
			"userdoc": {
				"kind": "user",
				"methods": {},
				"version": 1
			}
		}
	}
}