{
	"data": {
		"bytecode": {
			"linkReferences": {},
			"object": "60a06040523480156200001157600080fd5b506200003262000026620000b860201b60201c565b620000c060201b60201c565b60008060146101000a81548160ff02191690831515021790555060018081905550604051620000619062000184565b604051809103906000f0801580156200007e573d6000803e3d6000fd5b5073ffffffffffffffffffffffffffffffffffffffff1660808173ffffffffffffffffffffffffffffffffffffffff168152505062000192565b600033905090565b60008060009054906101000a900473ffffffffffffffffffffffffffffffffffffffff169050816000806101000a81548173ffffffffffffffffffffffffffffffffffffffff021916908373ffffffffffffffffffffffffffffffffffffffff1602179055508173ffffffffffffffffffffffffffffffffffffffff168173ffffffffffffffffffffffffffffffffffffffff167f8be0079c531659141344cd1fd0a4f28419497f9722a3daafe3b4186f6b6457e060405160405180910390a35050565b610acf8062002f5f83390190565b608051612d9c620001c3600039600081816101980152818161035c015281816108cd0152610f610152612d9c6000f3fe60806040526004361061007f5760003560e01c80638456cb591161004e5780638456cb591461010f5780638da5cb5b14610126578063f2fde38b14610151578063f41b2db61461017a57610086565b80632a709b141461008b5780633f4ba83a146100b65780635c975abb146100cd578063715018a6146100f857610086565b3661008657005b600080fd5b34801561009757600080fd5b506100a0610196565b6040516100ad91906118cc565b60405180910390f35b3480156100c257600080fd5b506100cb6101ba565b005b3480156100d957600080fd5b506100e26101cc565b6040516100ef9190611902565b60405180910390f35b34801561010457600080fd5b5061010d6101e2565b005b34801561011b57600080fd5b506101246101f6565b005b34801561013257600080fd5b5061013b610208565b60405161014891906118cc565b60405180910390f35b34801561015d57600080fd5b5061017860048036038101906101739190611953565b610231565b005b610194600480360381019061018f9190611a09565b6102b4565b005b7f000000000000000000000000000000000000000000000000000000000000000081565b6101c2610421565b6101ca61049f565b565b60008060149054906101000a900460ff16905090565b6101ea610421565b6101f46000610501565b565b6101fe610421565b6102066105c5565b565b60008060009054906101000a900473ffffffffffffffffffffffffffffffffffffffff16905090565b610239610421565b600073ffffffffffffffffffffffffffffffffffffffff168173ffffffffffffffffffffffffffffffffffffffff16036102a8576040517f08c379a000000000000000000000000000000000000000000000000000000000815260040161029f90611b08565b60405180910390fd5b6102b181610501565b50565b6102bc610628565b6102c4610677565b8260600160208101906102d79190611953565b73ffffffffffffffffffffffffffffffffffffffff163373ffffffffffffffffffffffffffffffffffffffff161461035a5782606001602081019061031c9190611953565b336040517f16cece48000000000000000000000000000000000000000000000000000000008152600401610351929190611b28565b60405180910390fd5b7f000000000000000000000000000000000000000000000000000000000000000073ffffffffffffffffffffffffffffffffffffffff166377fc3fa88460600160208101906103a99190611953565b8580600001906103b99190611b60565b6040518463ffffffff1660e01b81526004016103d793929190611d2c565b600060405180830381600087803b1580156103f157600080fd5b505af1158015610405573d6000803e3d6000fd5b505050506104148383836106c1565b61041c6107a9565b505050565b6104296107b2565b73ffffffffffffffffffffffffffffffffffffffff16610447610208565b73ffffffffffffffffffffffffffffffffffffffff161461049d576040517f08c379a000000000000000000000000000000000000000000000000000000000815260040161049490611daa565b60405180910390fd5b565b6104a76107ba565b60008060146101000a81548160ff0219169083151502179055507f5db9ee0a495bf2e6ff9c91a7834c1ba4fdd244a5e8aa4e537bd38aeae4b073aa6104ea6107b2565b6040516104f791906118cc565b60405180910390a1565b60008060009054906101000a900473ffffffffffffffffffffffffffffffffffffffff169050816000806101000a81548173ffffffffffffffffffffffffffffffffffffffff021916908373ffffffffffffffffffffffffffffffffffffffff1602179055508173ffffffffffffffffffffffffffffffffffffffff168173ffffffffffffffffffffffffffffffffffffffff167f8be0079c531659141344cd1fd0a4f28419497f9722a3daafe3b4186f6b6457e060405160405180910390a35050565b6105cd610677565b6001600060146101000a81548160ff0219169083151502179055507f62e78cea01bee320cd4e420270b5ea74000d11b0c9f74754ebdbfc544b05a2586106116107b2565b60405161061e91906118cc565b60405180910390a1565b60026001540361066d576040517f08c379a000000000000000000000000000000000000000000000000000000000815260040161066490611e16565b60405180910390fd5b6002600181905550565b61067f6101cc565b156106bf576040517f08c379a00000000000000000000000000000000000000000000000000000000081526004016106b690611e82565b60405180910390fd5b565b6106cb8282610803565b61070a8380602001906106de9190611ea2565b8560800160208101906106f19190611953565b8680604001906107019190611f05565b60200135610be8565b61072283806040019061071d9190611f05565b610ef5565b8260800160208101906107359190611953565b73ffffffffffffffffffffffffffffffffffffffff163373ffffffffffffffffffffffffffffffffffffffff16846040516107709190612419565b60405180910390207f1ba5b6ed656994657175705961138c96bd8ec133c35817fa85903f450129e0b160405160405180910390a4505050565b60018081905550565b600033905090565b6107c26101cc565b610801576040517f08c379a00000000000000000000000000000000000000000000000000000000081526004016107f89061247c565b60405180910390fd5b565b600082829050905060005b81811015610be2573684848381811061082a5761082961249c565b5b905060200281019061083c91906124cb565b905060008060003660008560000160208101906108599190611953565b866020013587806040019061086e91906124f3565b89806060019061087e9190612556565b955095508080601f016020809104026020016040519081016040528093929190818152602001838380828437600081840152601f19601f820116905080830192505050505050509450945094507f000000000000000000000000000000000000000000000000000000000000000073ffffffffffffffffffffffffffffffffffffffff168573ffffffffffffffffffffffffffffffffffffffff160361095b57846040517f781568a400000000000000000000000000000000000000000000000000000000815260040161095291906118cc565b60405180910390fd5b60008084519050600084849050905060005b81811015610b4957368686838181106109895761098861249c565b5b90506040020190506000808260000160208101906109a79190611953565b8360200160208101906109ba91906125f2565b9150915073eeeeeeeeeeeeeeeeeeeeeeeeeeeeeeeeeeeeeeee73ffffffffffffffffffffffffffffffffffffffff168273ffffffffffffffffffffffffffffffffffffffff1603610a0d57479a50610b3b565b8173ffffffffffffffffffffffffffffffffffffffff166370a08231306040518263ffffffff1660e01b8152600401610a4691906118cc565b602060405180830381865afa158015610a63573d6000803e3d6000fd5b505050506040513d601f19601f82011682018060405250810190610a879190612634565b9650610a94828d8961115a565b60008160030b12610b3a5760008160030b9050610abd6000828d61122e9092919063ffffffff16565b88604051602001610ace9190612670565b604051602081830303815290604052610b15602084610aed91906126ba565b602085610afa91906126ba565b8b610b0591906126ee565b8f61122e9092919063ffffffff16565b604051602001610b2793929190612793565b6040516020818303038152906040529a50505b5b83600101935050505061096d565b506000808973ffffffffffffffffffffffffffffffffffffffff168989604051610b7391906127c4565b60006040518083038185875af1925050503d8060008114610bb0576040519150601f19603f3d011682016040523d82523d6000602084013e610bb5565b606091505b509150915081610bcc57610bcb8a8a8a8461134c565b5b8b6001019b50505050505050505050505061080e565b50505050565b60008085859050905060005b81811015610eec5736878783818110610c1057610c0f61249c565b5b9050604002019050600080826000016020810190610c2e9190611953565b83602001359150915073eeeeeeeeeeeeeeeeeeeeeeeeeeeeeeeeeeeeeeee73ffffffffffffffffffffffffffffffffffffffff168273ffffffffffffffffffffffffffffffffffffffff1603610d955747955080861015610cca578181876040517fd4cf45a2000000000000000000000000000000000000000000000000000000008152600401610cc1939291906127db565b60405180910390fd5b86861115610d90578686610cde91906126ee565b955060008873ffffffffffffffffffffffffffffffffffffffff1687604051610d0690612838565b60006040518083038185875af1925050503d8060008114610d43576040519150601f19603f3d011682016040523d82523d6000602084013e610d48565b606091505b5050905080610d8e57886040517f464e254d000000000000000000000000000000000000000000000000000000008152600401610d8591906118cc565b60405180910390fd5b505b610e90565b8173ffffffffffffffffffffffffffffffffffffffff166370a08231306040518263ffffffff1660e01b8152600401610dce91906118cc565b602060405180830381865afa158015610deb573d6000803e3d6000fd5b505050506040513d601f19601f82011682018060405250810190610e0f9190612634565b955080861015610e5a578181876040517fd4cf45a2000000000000000000000000000000000000000000000000000000008152600401610e51939291906127db565b60405180910390fd5b6000861115610e8f57610e8e88878473ffffffffffffffffffffffffffffffffffffffff1661139e9092919063ffffffff16565b5b5b8173ffffffffffffffffffffffffffffffffffffffff167feaf449319c042c9ba3474fa0c5329eb58cd1f23be110cdbf9d697b8d303dac1587604051610ed69190612670565b60405180910390a2836001019350505050610bf4565b50505050505050565b600080366000846000016020810190610f0e9190611953565b8560200135868060400190610f2391906124f3565b9350935093509350600073ffffffffffffffffffffffffffffffffffffffff168473ffffffffffffffffffffffffffffffffffffffff1614611153577f000000000000000000000000000000000000000000000000000000000000000073ffffffffffffffffffffffffffffffffffffffff168473ffffffffffffffffffffffffffffffffffffffff1603610fef57836040517f781568a4000000000000000000000000000000000000000000000000000000008152600401610fe691906118cc565b60405180910390fd5b824710156110365747836040517f74c8cbe600000000000000000000000000000000000000000000000000000000815260040161102d92919061284d565b60405180910390fd5b6000808573ffffffffffffffffffffffffffffffffffffffff1685858560405161106192919061289b565b60006040518083038185875af1925050503d806000811461109e576040519150601f19603f3d011682016040523d82523d6000602084013e6110a3565b606091505b5091509150816110fe576110fd868686868080601f016020809104026020016040519081016040528093929190818152602001838380828437600081840152601f19601f820116905080830192505050505050508461134c565b5b8573ffffffffffffffffffffffffffffffffffffffff167f6c936258f37a22c831493e49cb45429bdf7b6bb0e261f271a15f084e5b08aaff868686604051611148939291906128f2565b60405180910390a250505b5050505050565b808373ffffffffffffffffffffffffffffffffffffffff1663dd62ed3e30856040518363ffffffff1660e01b8152600401611196929190611b28565b602060405180830381865afa1580156111b3573d6000803e3d6000fd5b505050506040513d601f19601f820116820180604052508101906111d79190612634565b101561122957611228827fffffffffffffffffffffffffffffffffffffffffffffffffffffffffffffffff8573ffffffffffffffffffffffffffffffffffffffff166114249092919063ffffffff16565b5b505050565b606081601f8361123e91906126ba565b101561127f576040517f08c379a000000000000000000000000000000000000000000000000000000000815260040161127690612970565b60405180910390fd5b818361128b91906126ba565b845110156112ce576040517f08c379a00000000000000000000000000000000000000000000000000000000081526004016112c5906129dc565b60405180910390fd5b60608215600081146112ef5760405191506000825260208201604052611340565b6040519150601f8416801560200281840101858101878315602002848b0101015b8183101561132d5780518352602083019250602081019050611310565b50868552601f19601f8301166040525050505b50809150509392505050565b6000815103611396578383836040517fe1eec8f100000000000000000000000000000000000000000000000000000000815260040161138d93929190612a35565b60405180910390fd5b805181602001fd5b61141f8363a9059cbb60e01b84846040516024016113bd929190612a73565b604051602081830303815290604052907bffffffffffffffffffffffffffffffffffffffffffffffffffffffff19166020820180517bffffffffffffffffffffffffffffffffffffffffffffffffffffffff8381831617835250505050611541565b505050565b600063095ea7b360e01b8383604051602401611441929190612a73565b604051602081830303815290604052907bffffffffffffffffffffffffffffffffffffffffffffffffffffffff19166020820180517bffffffffffffffffffffffffffffffffffffffffffffffffffffffff838183161783525050505090506114aa8482611609565b61153b576115308463095ea7b360e01b8560006040516024016114ce929190612aee565b604051602081830303815290604052907bffffffffffffffffffffffffffffffffffffffffffffffffffffffff19166020820180517bffffffffffffffffffffffffffffffffffffffffffffffffffffffff8381831617835250505050611541565b61153a8482611541565b5b50505050565b60006115a3826040518060400160405280602081526020017f5361666545524332303a206c6f772d6c6576656c2063616c6c206661696c65648152508573ffffffffffffffffffffffffffffffffffffffff166116be9092919063ffffffff16565b90506000815114806115c55750808060200190518101906115c49190612b43565b5b611604576040517f08c379a00000000000000000000000000000000000000000000000000000000081526004016115fb90612be2565b60405180910390fd5b505050565b60008060008473ffffffffffffffffffffffffffffffffffffffff168460405161163391906127c4565b6000604051808303816000865af19150503d8060008114611670576040519150601f19603f3d011682016040523d82523d6000602084013e611675565b606091505b50915091508180156116a357506000815114806116a25750808060200190518101906116a19190612b43565b5b5b80156116b457506116b3856116d6565b5b9250505092915050565b60606116cd84846000856116f9565b90509392505050565b6000808273ffffffffffffffffffffffffffffffffffffffff163b119050919050565b60608247101561173e576040517f08c379a000000000000000000000000000000000000000000000000000000000815260040161173590612c74565b60405180910390fd5b6000808673ffffffffffffffffffffffffffffffffffffffff16858760405161176791906127c4565b60006040518083038185875af1925050503d80600081146117a4576040519150601f19603f3d011682016040523d82523d6000602084013e6117a9565b606091505b50915091506117ba878383876117c6565b92505050949350505050565b60608315611828576000835103611820576117e0856116d6565b61181f576040517f08c379a000000000000000000000000000000000000000000000000000000000815260040161181690612ce0565b60405180910390fd5b5b829050611833565b611832838361183b565b5b949350505050565b60008251111561184e5781518083602001fd5b806040517f08c379a00000000000000000000000000000000000000000000000000000000081526004016118829190612d44565b60405180910390fd5b600073ffffffffffffffffffffffffffffffffffffffff82169050919050565b60006118b68261188b565b9050919050565b6118c6816118ab565b82525050565b60006020820190506118e160008301846118bd565b92915050565b60008115159050919050565b6118fc816118e7565b82525050565b600060208201905061191760008301846118f3565b92915050565b600080fd5b600080fd5b611930816118ab565b811461193b57600080fd5b50565b60008135905061194d81611927565b92915050565b6000602082840312156119695761196861191d565b5b60006119778482850161193e565b91505092915050565b600080fd5b600060a0828403121561199b5761199a611980565b5b81905092915050565b600080fd5b600080fd5b600080fd5b60008083601f8401126119c9576119c86119a4565b5b8235905067ffffffffffffffff8111156119e6576119e56119a9565b5b602083019150836020820283011115611a0257611a016119ae565b5b9250929050565b600080600060408486031215611a2257611a2161191d565b5b600084013567ffffffffffffffff811115611a4057611a3f611922565b5b611a4c86828701611985565b935050602084013567ffffffffffffffff811115611a6d57611a6c611922565b5b611a79868287016119b3565b92509250509250925092565b600082825260208201905092915050565b7f4f776e61626c653a206e6577206f776e657220697320746865207a65726f206160008201527f6464726573730000000000000000000000000000000000000000000000000000602082015250565b6000611af2602683611a85565b9150611afd82611a96565b604082019050919050565b60006020820190508181036000830152611b2181611ae5565b9050919050565b6000604082019050611b3d60008301856118bd565b611b4a60208301846118bd565b9392505050565b600080fd5b600080fd5b600080fd5b60008083356001602003843603038112611b7d57611b7c611b51565b5b80840192508235915067ffffffffffffffff821115611b9f57611b9e611b56565b5b602083019250604082023603831315611bbb57611bba611b5b565b5b509250929050565b600082825260208201905092915050565b6000819050919050565b6000611bed602084018461193e565b905092915050565b611bfe816118ab565b82525050565b6000819050919050565b611c1781611c04565b8114611c2257600080fd5b50565b600081359050611c3481611c0e565b92915050565b6000611c496020840184611c25565b905092915050565b611c5a81611c04565b82525050565b60408201611c716000830183611bde565b611c7e6000850182611bf5565b50611c8c6020830183611c3a565b611c996020850182611c51565b50505050565b6000611cab8383611c60565b60408301905092915050565b600082905092915050565b6000604082019050919050565b6000611cdb8385611bc3565b9350611ce682611bd4565b8060005b85811015611d1f57611cfc8284611cb7565b611d068882611c9f565b9750611d1183611cc2565b925050600181019050611cea565b5085925050509392505050565b6000604082019050611d4160008301866118bd565b8181036020830152611d54818486611ccf565b9050949350505050565b7f4f776e61626c653a2063616c6c6572206973206e6f7420746865206f776e6572600082015250565b6000611d94602083611a85565b9150611d9f82611d5e565b602082019050919050565b60006020820190508181036000830152611dc381611d87565b9050919050565b7f5265656e7472616e637947756172643a207265656e7472616e742063616c6c00600082015250565b6000611e00601f83611a85565b9150611e0b82611dca565b602082019050919050565b60006020820190508181036000830152611e2f81611df3565b9050919050565b7f5061757361626c653a2070617573656400000000000000000000000000000000600082015250565b6000611e6c601083611a85565b9150611e7782611e36565b602082019050919050565b60006020820190508181036000830152611e9b81611e5f565b9050919050565b60008083356001602003843603038112611ebf57611ebe611b51565b5b80840192508235915067ffffffffffffffff821115611ee157611ee0611b56565b5b602083019250604082023603831315611efd57611efc611b5b565b5b509250929050565b600082356001606003833603038112611f2157611f20611b51565b5b80830191505092915050565b600080fd5b600080fd5b600080fd5b60008083356001602003843603038112611f5957611f58611f37565b5b83810192508235915060208301925067ffffffffffffffff821115611f8157611f80611f2d565b5b604082023603831315611f9757611f96611f32565b5b509250929050565b600081905092915050565b611fb3816118ab565b82525050565b6000611fc58383611faa565b60208301905092915050565b611fda81611c04565b82525050565b6000611fec8383611fd1565b60208301905092915050565b600082016120096000830183611bde565b6120138482611fb9565b9350506120236020830183611c3a565b61202d8482611fe0565b935050505050565b60006120418383611ff8565b60408301905092915050565b60006120598385611f9f565b935061206482611bd4565b8060005b8581101561209d5761207a8284611cb7565b6120848882612035565b975061208f83611cc2565b925050600181019050612068565b5085925050509392505050565b60006120b784848461204d565b90509392505050565b600080833560016020038436030381126120dd576120dc611f37565b5b83810192508235915060208301925067ffffffffffffffff82111561210557612104611f2d565b5b60408202360383131561211b5761211a611f32565b5b509250929050565b600081905092915050565b6000819050919050565b600082016121496000830183611bde565b6121538482611fb9565b9350506121636020830183611c3a565b61216d8482611fe0565b935050505050565b60006121818383612138565b60408301905092915050565b600082905092915050565b6000604082019050919050565b60006121b18385612123565b93506121bc8261212e565b8060005b858110156121f5576121d2828461218d565b6121dc8882612175565b97506121e783612198565b9250506001810190506121c0565b5085925050509392505050565b600061220f8484846121a5565b90509392505050565b60008235600160600383360303811261223457612233611f37565b5b82810191505092915050565b6000808335600160200384360303811261225d5761225c611f37565b5b83810192508235915060208301925067ffffffffffffffff82111561228557612284611f2d565b5b60018202360383131561229b5761229a611f32565b5b509250929050565b600081905092915050565b82818337600083830152505050565b6000601f19601f8301169050919050565b60006122da83856122a3565b93506122e78385846122ae565b6122f0836122bd565b840190509392505050565b60006123088484846122ce565b90509392505050565b60008083016123236000840184611bde565b61232d8582611fb9565b94505061233d6020840184611c3a565b6123478582611fe0565b9450506123576040840184612240565b6123628682846122fb565b955050508391505092915050565b600061237c8383612311565b905092915050565b60008083016123966000840184611f3c565b6123a18682846120aa565b955050506123b260208401846120c0565b6123bd868284612202565b955050506123ce6040840184612218565b6123d88582612370565b9450506123e86060840184611bde565b6123f28582611fb9565b9450506124026080840184611bde565b61240c8582611fb9565b9450508391505092915050565b60006124258284612384565b915081905092915050565b7f5061757361626c653a206e6f7420706175736564000000000000000000000000600082015250565b6000612466601483611a85565b915061247182612430565b602082019050919050565b6000602082019050818103600083015261249581612459565b9050919050565b7f4e487b7100000000000000000000000000000000000000000000000000000000600052603260045260246000fd5b6000823560016080038336030381126124e7576124e6611b51565b5b80830191505092915050565b600080833560016020038436030381126125105761250f611b51565b5b80840192508235915067ffffffffffffffff82111561253257612531611b56565b5b60208301925060018202360383131561254e5761254d611b5b565b5b509250929050565b6000808335600160200384360303811261257357612572611b51565b5b80840192508235915067ffffffffffffffff82111561259557612594611b56565b5b6020830192506040820236038313156125b1576125b0611b5b565b5b509250929050565b60008160030b9050919050565b6125cf816125b9565b81146125da57600080fd5b50565b6000813590506125ec816125c6565b92915050565b6000602082840312156126085761260761191d565b5b6000612616848285016125dd565b91505092915050565b60008151905061262e81611c0e565b92915050565b60006020828403121561264a5761264961191d565b5b60006126588482850161261f565b91505092915050565b61266a81611c04565b82525050565b60006020820190506126856000830184612661565b92915050565b7f4e487b7100000000000000000000000000000000000000000000000000000000600052601160045260246000fd5b60006126c582611c04565b91506126d083611c04565b92508282019050808211156126e8576126e761268b565b5b92915050565b60006126f982611c04565b915061270483611c04565b925082820390508181111561271c5761271b61268b565b5b92915050565b600081519050919050565b600081905092915050565b60005b8381101561275657808201518184015260208101905061273b565b60008484015250505050565b600061276d82612722565b612777818561272d565b9350612787818560208601612738565b80840191505092915050565b600061279f8286612762565b91506127ab8285612762565b91506127b78284612762565b9150819050949350505050565b60006127d08284612762565b915081905092915050565b60006060820190506127f060008301866118bd565b6127fd6020830185612661565b61280a6040830184612661565b949350505050565b50565b600061282260008361272d565b915061282d82612812565b600082019050919050565b600061284382612815565b9150819050919050565b60006040820190506128626000830185612661565b61286f6020830184612661565b9392505050565b6000612882838561272d565b935061288f8385846122ae565b82840190509392505050565b60006128a8828486612876565b91508190509392505050565b600082825260208201905092915050565b60006128d183856128b4565b93506128de8385846122ae565b6128e7836122bd565b840190509392505050565b60006040820190506129076000830186612661565b818103602083015261291a8184866128c5565b9050949350505050565b7f736c6963655f6f766572666c6f77000000000000000000000000000000000000600082015250565b600061295a600e83611a85565b915061296582612924565b602082019050919050565b600060208201905081810360008301526129898161294d565b9050919050565b7f736c6963655f6f75744f66426f756e6473000000000000000000000000000000600082015250565b60006129c6601183611a85565b91506129d182612990565b602082019050919050565b600060208201905081810360008301526129f5816129b9565b9050919050565b6000612a0782612722565b612a1181856128b4565b9350612a21818560208601612738565b612a2a816122bd565b840191505092915050565b6000606082019050612a4a60008301866118bd565b612a576020830185612661565b8181036040830152612a6981846129fc565b9050949350505050565b6000604082019050612a8860008301856118bd565b612a956020830184612661565b9392505050565b6000819050919050565b600060ff82169050919050565b6000819050919050565b6000612ad8612ad3612ace84612a9c565b612ab3565b612aa6565b9050919050565b612ae881612abd565b82525050565b6000604082019050612b0360008301856118bd565b612b106020830184612adf565b9392505050565b612b20816118e7565b8114612b2b57600080fd5b50565b600081519050612b3d81612b17565b92915050565b600060208284031215612b5957612b5861191d565b5b6000612b6784828501612b2e565b91505092915050565b7f5361666545524332303a204552433230206f7065726174696f6e20646964206e60008201527f6f74207375636365656400000000000000000000000000000000000000000000602082015250565b6000612bcc602a83611a85565b9150612bd782612b70565b604082019050919050565b60006020820190508181036000830152612bfb81612bbf565b9050919050565b7f416464726573733a20696e73756666696369656e742062616c616e636520666f60008201527f722063616c6c0000000000000000000000000000000000000000000000000000602082015250565b6000612c5e602683611a85565b9150612c6982612c02565b604082019050919050565b60006020820190508181036000830152612c8d81612c51565b9050919050565b7f416464726573733a2063616c6c20746f206e6f6e2d636f6e7472616374000000600082015250565b6000612cca601d83611a85565b9150612cd582612c94565b602082019050919050565b60006020820190508181036000830152612cf981612cbd565b9050919050565b600081519050919050565b6000612d1682612d00565b612d208185611a85565b9350612d30818560208601612738565b612d39816122bd565b840191505092915050565b60006020820190508181036000830152612d5e8184612d0b565b90509291505056fea2646970667358221220cc0baac646e64feb68414f9aa98fb07596f104beae26b9138fe1f844a8aeab0264736f6c6343000813003360a060405234801561001057600080fd5b503373ffffffffffffffffffffffffffffffffffffffff1660808173ffffffffffffffffffffffffffffffffffffffff1681525050608051610a6a6100656000396000818160770152609b0152610a6a6000f3fe608060405234801561001057600080fd5b50600436106100365760003560e01c8063262d61521461003b57806377fc3fa814610059575b600080fd5b610043610075565b604051610050919061056d565b60405180910390f35b610073600480360381019061006e9190610623565b610099565b005b7f000000000000000000000000000000000000000000000000000000000000000081565b7f000000000000000000000000000000000000000000000000000000000000000073ffffffffffffffffffffffffffffffffffffffff163373ffffffffffffffffffffffffffffffffffffffff161461012957336040517f403e63e9000000000000000000000000000000000000000000000000000000008152600401610120919061056d565b60405180910390fd5b600082829050905060005b8181101561020757368484838181106101505761014f610683565b5b905060400201905081600101915073eeeeeeeeeeeeeeeeeeeeeeeeeeeeeeeeeeeeeeee73ffffffffffffffffffffffffffffffffffffffff1681600001602081019061019c91906106b2565b73ffffffffffffffffffffffffffffffffffffffff16036101bd5750610202565b610200863383602001358460000160208101906101da91906106b2565b73ffffffffffffffffffffffffffffffffffffffff1661020e909392919063ffffffff16565b505b610134565b5050505050565b610291846323b872dd60e01b85858560405160240161022f939291906106f8565b604051602081830303815290604052907bffffffffffffffffffffffffffffffffffffffffffffffffffffffff19166020820180517bffffffffffffffffffffffffffffffffffffffffffffffffffffffff8381831617835250505050610297565b50505050565b60006102f9826040518060400160405280602081526020017f5361666545524332303a206c6f772d6c6576656c2063616c6c206661696c65648152508573ffffffffffffffffffffffffffffffffffffffff1661035f9092919063ffffffff16565b905060008151148061031b57508080602001905181019061031a9190610767565b5b61035a576040517f08c379a000000000000000000000000000000000000000000000000000000000815260040161035190610817565b60405180910390fd5b505050565b606061036e8484600085610377565b90509392505050565b6060824710156103bc576040517f08c379a00000000000000000000000000000000000000000000000000000000081526004016103b3906108a9565b60405180910390fd5b6000808673ffffffffffffffffffffffffffffffffffffffff1685876040516103e5919061093a565b60006040518083038185875af1925050503d8060008114610422576040519150601f19603f3d011682016040523d82523d6000602084013e610427565b606091505b509150915061043887838387610444565b92505050949350505050565b606083156104a657600083510361049e5761045e856104b9565b61049d576040517f08c379a00000000000000000000000000000000000000000000000000000000081526004016104949061099d565b60405180910390fd5b5b8290506104b1565b6104b083836104dc565b5b949350505050565b6000808273ffffffffffffffffffffffffffffffffffffffff163b119050919050565b6000825111156104ef5781518083602001fd5b806040517f08c379a00000000000000000000000000000000000000000000000000000000081526004016105239190610a12565b60405180910390fd5b600073ffffffffffffffffffffffffffffffffffffffff82169050919050565b60006105578261052c565b9050919050565b6105678161054c565b82525050565b6000602082019050610582600083018461055e565b92915050565b600080fd5b600080fd5b61059b8161054c565b81146105a657600080fd5b50565b6000813590506105b881610592565b92915050565b600080fd5b600080fd5b600080fd5b60008083601f8401126105e3576105e26105be565b5b8235905067ffffffffffffffff811115610600576105ff6105c3565b5b60208301915083604082028301111561061c5761061b6105c8565b5b9250929050565b60008060006040848603121561063c5761063b610588565b5b600061064a868287016105a9565b935050602084013567ffffffffffffffff81111561066b5761066a61058d565b5b610677868287016105cd565b92509250509250925092565b7f4e487b7100000000000000000000000000000000000000000000000000000000600052603260045260246000fd5b6000602082840312156106c8576106c7610588565b5b60006106d6848285016105a9565b91505092915050565b6000819050919050565b6106f2816106df565b82525050565b600060608201905061070d600083018661055e565b61071a602083018561055e565b61072760408301846106e9565b949350505050565b60008115159050919050565b6107448161072f565b811461074f57600080fd5b50565b6000815190506107618161073b565b92915050565b60006020828403121561077d5761077c610588565b5b600061078b84828501610752565b91505092915050565b600082825260208201905092915050565b7f5361666545524332303a204552433230206f7065726174696f6e20646964206e60008201527f6f74207375636365656400000000000000000000000000000000000000000000602082015250565b6000610801602a83610794565b915061080c826107a5565b604082019050919050565b60006020820190508181036000830152610830816107f4565b9050919050565b7f416464726573733a20696e73756666696369656e742062616c616e636520666f60008201527f722063616c6c0000000000000000000000000000000000000000000000000000602082015250565b6000610893602683610794565b915061089e82610837565b604082019050919050565b600060208201905081810360008301526108c281610886565b9050919050565b600081519050919050565b600081905092915050565b60005b838110156108fd5780820151818401526020810190506108e2565b60008484015250505050565b6000610914826108c9565b61091e81856108d4565b935061092e8185602086016108df565b80840191505092915050565b60006109468284610909565b915081905092915050565b7f416464726573733a2063616c6c20746f206e6f6e2d636f6e7472616374000000600082015250565b6000610987601d83610794565b915061099282610951565b602082019050919050565b600060208201905081810360008301526109b68161097a565b9050919050565b600081519050919050565b6000601f19601f8301169050919050565b60006109e4826109bd565b6109ee8185610794565b93506109fe8185602086016108df565b610a07816109c8565b840191505092915050565b60006020820190508181036000830152610a2c81846109d9565b90509291505056fea264697066735822122047869631472d1b1257672c0e8803d03f7aba801b1a787922bf0cc9c94aa0c33c64736f6c63430008130033",
			"opcodes": "PUSH1 0xA0 PUSH1 0x40 MSTORE CALLVALUE DUP1 ISZERO PUSH3 0x11 JUMPI PUSH1 0x0 DUP1 REVERT JUMPDEST POP PUSH3 0x32 PUSH3 0x26 PUSH3 0xB8 PUSH1 0x20 SHL PUSH1 0x20 SHR JUMP JUMPDEST PUSH3 0xC0 PUSH1 0x20 SHL PUSH1 0x20 SHR JUMP JUMPDEST PUSH1 0x0 DUP1 PUSH1 0x14 PUSH2 0x100 EXP DUP2 SLOAD DUP2 PUSH1 0xFF MUL NOT AND SWAP1 DUP4 ISZERO ISZERO MUL OR SWAP1 SSTORE POP PUSH1 0x1 DUP1 DUP2 SWAP1 SSTORE POP PUSH1 0x40 MLOAD PUSH3 0x61 SWAP1 PUSH3 0x184 JUMP JUMPDEST PUSH1 0x40 MLOAD DUP1 SWAP2 SUB SWAP1 PUSH1 0x0 CREATE DUP1 ISZERO DUP1 ISZERO PUSH3 0x7E JUMPI RETURNDATASIZE PUSH1 0x0 DUP1 RETURNDATACOPY RETURNDATASIZE PUSH1 0x0 REVERT JUMPDEST POP PUSH20 0xFFFFFFFFFFFFFFFFFFFFFFFFFFFFFFFFFFFFFFFF AND PUSH1 0x80 DUP2 PUSH20 0xFFFFFFFFFFFFFFFFFFFFFFFFFFFFFFFFFFFFFFFF AND DUP2 MSTORE POP POP PUSH3 0x192 JUMP JUMPDEST PUSH1 0x0 CALLER SWAP1 POP SWAP1 JUMP JUMPDEST PUSH1 0x0 DUP1 PUSH1 0x0 SWAP1 SLOAD SWAP1 PUSH2 0x100 EXP SWAP1 DIV PUSH20 0xFFFFFFFFFFFFFFFFFFFFFFFFFFFFFFFFFFFFFFFF AND SWAP1 POP DUP2 PUSH1 0x0 DUP1 PUSH2 0x100 EXP DUP2 SLOAD DUP2 PUSH20 0xFFFFFFFFFFFFFFFFFFFFFFFFFFFFFFFFFFFFFFFF MUL NOT AND SWAP1 DUP4 PUSH20 0xFFFFFFFFFFFFFFFFFFFFFFFFFFFFFFFFFFFFFFFF AND MUL OR SWAP1 SSTORE POP DUP2 PUSH20 0xFFFFFFFFFFFFFFFFFFFFFFFFFFFFFFFFFFFFFFFF AND DUP2 PUSH20 0xFFFFFFFFFFFFFFFFFFFFFFFFFFFFFFFFFFFFFFFF AND PUSH32 0x8BE0079C531659141344CD1FD0A4F28419497F9722A3DAAFE3B4186F6B6457E0 PUSH1 0x40 MLOAD PUSH1 0x40 MLOAD DUP1 SWAP2 SUB SWAP1 LOG3 POP POP JUMP JUMPDEST PUSH2 0xACF DUP1 PUSH3 0x2F5F DUP4 CODECOPY ADD SWAP1 JUMP JUMPDEST PUSH1 0x80 MLOAD PUSH2 0x2D9C PUSH3 0x1C3 PUSH1 0x0 CODECOPY PUSH1 0x0 DUP2 DUP2 PUSH2 0x198 ADD MSTORE DUP2 DUP2 PUSH2 0x35C ADD MSTORE DUP2 DUP2 PUSH2 0x8CD ADD MSTORE PUSH2 0xF61 ADD MSTORE PUSH2 0x2D9C PUSH1 0x0 RETURN INVALID PUSH1 0x80 PUSH1 0x40 MSTORE PUSH1 0x4 CALLDATASIZE LT PUSH2 0x7F JUMPI PUSH1 0x0 CALLDATALOAD PUSH1 0xE0 SHR DUP1 PUSH4 0x8456CB59 GT PUSH2 0x4E JUMPI DUP1 PUSH4 0x8456CB59 EQ PUSH2 0x10F JUMPI DUP1 PUSH4 0x8DA5CB5B EQ PUSH2 0x126 JUMPI DUP1 PUSH4 0xF2FDE38B EQ PUSH2 0x151 JUMPI DUP1 PUSH4 0xF41B2DB6 EQ PUSH2 0x17A JUMPI PUSH2 0x86 JUMP JUMPDEST DUP1 PUSH4 0x2A709B14 EQ PUSH2 0x8B JUMPI DUP1 PUSH4 0x3F4BA83A EQ PUSH2 0xB6 JUMPI DUP1 PUSH4 0x5C975ABB EQ PUSH2 0xCD JUMPI DUP1 PUSH4 0x715018A6 EQ PUSH2 0xF8 JUMPI PUSH2 0x86 JUMP JUMPDEST CALLDATASIZE PUSH2 0x86 JUMPI STOP JUMPDEST PUSH1 0x0 DUP1 REVERT JUMPDEST CALLVALUE DUP1 ISZERO PUSH2 0x97 JUMPI PUSH1 0x0 DUP1 REVERT JUMPDEST POP PUSH2 0xA0 PUSH2 0x196 JUMP JUMPDEST PUSH1 0x40 MLOAD PUSH2 0xAD SWAP2 SWAP1 PUSH2 0x18CC JUMP JUMPDEST PUSH1 0x40 MLOAD DUP1 SWAP2 SUB SWAP1 RETURN JUMPDEST CALLVALUE DUP1 ISZERO PUSH2 0xC2 JUMPI PUSH1 0x0 DUP1 REVERT JUMPDEST POP PUSH2 0xCB PUSH2 0x1BA JUMP JUMPDEST STOP JUMPDEST CALLVALUE DUP1 ISZERO PUSH2 0xD9 JUMPI PUSH1 0x0 DUP1 REVERT JUMPDEST POP PUSH2 0xE2 PUSH2 0x1CC JUMP JUMPDEST PUSH1 0x40 MLOAD PUSH2 0xEF SWAP2 SWAP1 PUSH2 0x1902 JUMP JUMPDEST PUSH1 0x40 MLOAD DUP1 SWAP2 SUB SWAP1 RETURN JUMPDEST CALLVALUE DUP1 ISZERO PUSH2 0x104 JUMPI PUSH1 0x0 DUP1 REVERT JUMPDEST POP PUSH2 0x10D PUSH2 0x1E2 JUMP JUMPDEST STOP JUMPDEST CALLVALUE DUP1 ISZERO PUSH2 0x11B JUMPI PUSH1 0x0 DUP1 REVERT JUMPDEST POP PUSH2 0x124 PUSH2 0x1F6 JUMP JUMPDEST STOP JUMPDEST CALLVALUE DUP1 ISZERO PUSH2 0x132 JUMPI PUSH1 0x0 DUP1 REVERT JUMPDEST POP PUSH2 0x13B PUSH2 0x208 JUMP JUMPDEST PUSH1 0x40 MLOAD PUSH2 0x148 SWAP2 SWAP1 PUSH2 0x18CC JUMP JUMPDEST PUSH1 0x40 MLOAD DUP1 SWAP2 SUB SWAP1 RETURN JUMPDEST CALLVALUE DUP1 ISZERO PUSH2 0x15D JUMPI PUSH1 0x0 DUP1 REVERT JUMPDEST POP PUSH2 0x178 PUSH1 0x4 DUP1 CALLDATASIZE SUB DUP2 ADD SWAP1 PUSH2 0x173 SWAP2 SWAP1 PUSH2 0x1953 JUMP JUMPDEST PUSH2 0x231 JUMP JUMPDEST STOP JUMPDEST PUSH2 0x194 PUSH1 0x4 DUP1 CALLDATASIZE SUB DUP2 ADD SWAP1 PUSH2 0x18F SWAP2 SWAP1 PUSH2 0x1A09 JUMP JUMPDEST PUSH2 0x2B4 JUMP JUMPDEST STOP JUMPDEST PUSH32 0x0 DUP2 JUMP JUMPDEST PUSH2 0x1C2 PUSH2 0x421 JUMP JUMPDEST PUSH2 0x1CA PUSH2 0x49F JUMP JUMPDEST JUMP JUMPDEST PUSH1 0x0 DUP1 PUSH1 0x14 SWAP1 SLOAD SWAP1 PUSH2 0x100 EXP SWAP1 DIV PUSH1 0xFF AND SWAP1 POP SWAP1 JUMP JUMPDEST PUSH2 0x1EA PUSH2 0x421 JUMP JUMPDEST PUSH2 0x1F4 PUSH1 0x0 PUSH2 0x501 JUMP JUMPDEST JUMP JUMPDEST PUSH2 0x1FE PUSH2 0x421 JUMP JUMPDEST PUSH2 0x206 PUSH2 0x5C5 JUMP JUMPDEST JUMP JUMPDEST PUSH1 0x0 DUP1 PUSH1 0x0 SWAP1 SLOAD SWAP1 PUSH2 0x100 EXP SWAP1 DIV PUSH20 0xFFFFFFFFFFFFFFFFFFFFFFFFFFFFFFFFFFFFFFFF AND SWAP1 POP SWAP1 JUMP JUMPDEST PUSH2 0x239 PUSH2 0x421 JUMP JUMPDEST PUSH1 0x0 PUSH20 0xFFFFFFFFFFFFFFFFFFFFFFFFFFFFFFFFFFFFFFFF AND DUP2 PUSH20 0xFFFFFFFFFFFFFFFFFFFFFFFFFFFFFFFFFFFFFFFF AND SUB PUSH2 0x2A8 JUMPI PUSH1 0x40 MLOAD PUSH32 0x8C379A000000000000000000000000000000000000000000000000000000000 DUP2 MSTORE PUSH1 0x4 ADD PUSH2 0x29F SWAP1 PUSH2 0x1B08 JUMP JUMPDEST PUSH1 0x40 MLOAD DUP1 SWAP2 SUB SWAP1 REVERT JUMPDEST PUSH2 0x2B1 DUP2 PUSH2 0x501 JUMP JUMPDEST POP JUMP JUMPDEST PUSH2 0x2BC PUSH2 0x628 JUMP JUMPDEST PUSH2 0x2C4 PUSH2 0x677 JUMP JUMPDEST DUP3 PUSH1 0x60 ADD PUSH1 0x20 DUP2 ADD SWAP1 PUSH2 0x2D7 SWAP2 SWAP1 PUSH2 0x1953 JUMP JUMPDEST PUSH20 0xFFFFFFFFFFFFFFFFFFFFFFFFFFFFFFFFFFFFFFFF AND CALLER PUSH20 0xFFFFFFFFFFFFFFFFFFFFFFFFFFFFFFFFFFFFFFFF AND EQ PUSH2 0x35A JUMPI DUP3 PUSH1 0x60 ADD PUSH1 0x20 DUP2 ADD SWAP1 PUSH2 0x31C SWAP2 SWAP1 PUSH2 0x1953 JUMP JUMPDEST CALLER PUSH1 0x40 MLOAD PUSH32 0x16CECE4800000000000000000000000000000000000000000000000000000000 DUP2 MSTORE PUSH1 0x4 ADD PUSH2 0x351 SWAP3 SWAP2 SWAP1 PUSH2 0x1B28 JUMP JUMPDEST PUSH1 0x40 MLOAD DUP1 SWAP2 SUB SWAP1 REVERT JUMPDEST PUSH32 0x0 PUSH20 0xFFFFFFFFFFFFFFFFFFFFFFFFFFFFFFFFFFFFFFFF AND PUSH4 0x77FC3FA8 DUP5 PUSH1 0x60 ADD PUSH1 0x20 DUP2 ADD SWAP1 PUSH2 0x3A9 SWAP2 SWAP1 PUSH2 0x1953 JUMP JUMPDEST DUP6 DUP1 PUSH1 0x0 ADD SWAP1 PUSH2 0x3B9 SWAP2 SWAP1 PUSH2 0x1B60 JUMP JUMPDEST PUSH1 0x40 MLOAD DUP5 PUSH4 0xFFFFFFFF AND PUSH1 0xE0 SHL DUP2 MSTORE PUSH1 0x4 ADD PUSH2 0x3D7 SWAP4 SWAP3 SWAP2 SWAP1 PUSH2 0x1D2C JUMP JUMPDEST PUSH1 0x0 PUSH1 0x40 MLOAD DUP1 DUP4 SUB DUP2 PUSH1 0x0 DUP8 DUP1 EXTCODESIZE ISZERO DUP1 ISZERO PUSH2 0x3F1 JUMPI PUSH1 0x0 DUP1 REVERT JUMPDEST POP GAS CALL ISZERO DUP1 ISZERO PUSH2 0x405 JUMPI RETURNDATASIZE PUSH1 0x0 DUP1 RETURNDATACOPY RETURNDATASIZE PUSH1 0x0 REVERT JUMPDEST POP POP POP POP PUSH2 0x414 DUP4 DUP4 DUP4 PUSH2 0x6C1 JUMP JUMPDEST PUSH2 0x41C PUSH2 0x7A9 JUMP JUMPDEST POP POP POP JUMP JUMPDEST PUSH2 0x429 PUSH2 0x7B2 JUMP JUMPDEST PUSH20 0xFFFFFFFFFFFFFFFFFFFFFFFFFFFFFFFFFFFFFFFF AND PUSH2 0x447 PUSH2 0x208 JUMP JUMPDEST PUSH20 0xFFFFFFFFFFFFFFFFFFFFFFFFFFFFFFFFFFFFFFFF AND EQ PUSH2 0x49D JUMPI PUSH1 0x40 MLOAD PUSH32 0x8C379A000000000000000000000000000000000000000000000000000000000 DUP2 MSTORE PUSH1 0x4 ADD PUSH2 0x494 SWAP1 PUSH2 0x1DAA JUMP JUMPDEST PUSH1 0x40 MLOAD DUP1 SWAP2 SUB SWAP1 REVERT JUMPDEST JUMP JUMPDEST PUSH2 0x4A7 PUSH2 0x7BA JUMP JUMPDEST PUSH1 0x0 DUP1 PUSH1 0x14 PUSH2 0x100 EXP DUP2 SLOAD DUP2 PUSH1 0xFF MUL NOT AND SWAP1 DUP4 ISZERO ISZERO MUL OR SWAP1 SSTORE POP PUSH32 0x5DB9EE0A495BF2E6FF9C91A7834C1BA4FDD244A5E8AA4E537BD38AEAE4B073AA PUSH2 0x4EA PUSH2 0x7B2 JUMP JUMPDEST PUSH1 0x40 MLOAD PUSH2 0x4F7 SWAP2 SWAP1 PUSH2 0x18CC JUMP JUMPDEST PUSH1 0x40 MLOAD DUP1 SWAP2 SUB SWAP1 LOG1 JUMP JUMPDEST PUSH1 0x0 DUP1 PUSH1 0x0 SWAP1 SLOAD SWAP1 PUSH2 0x100 EXP SWAP1 DIV PUSH20 0xFFFFFFFFFFFFFFFFFFFFFFFFFFFFFFFFFFFFFFFF AND SWAP1 POP DUP2 PUSH1 0x0 DUP1 PUSH2 0x100 EXP DUP2 SLOAD DUP2 PUSH20 0xFFFFFFFFFFFFFFFFFFFFFFFFFFFFFFFFFFFFFFFF MUL NOT AND SWAP1 DUP4 PUSH20 0xFFFFFFFFFFFFFFFFFFFFFFFFFFFFFFFFFFFFFFFF AND MUL OR SWAP1 SSTORE POP DUP2 PUSH20 0xFFFFFFFFFFFFFFFFFFFFFFFFFFFFFFFFFFFFFFFF AND DUP2 PUSH20 0xFFFFFFFFFFFFFFFFFFFFFFFFFFFFFFFFFFFFFFFF AND PUSH32 0x8BE0079C531659141344CD1FD0A4F28419497F9722A3DAAFE3B4186F6B6457E0 PUSH1 0x40 MLOAD PUSH1 0x40 MLOAD DUP1 SWAP2 SUB SWAP1 LOG3 POP POP JUMP JUMPDEST PUSH2 0x5CD PUSH2 0x677 JUMP JUMPDEST PUSH1 0x1 PUSH1 0x0 PUSH1 0x14 PUSH2 0x100 EXP DUP2 SLOAD DUP2 PUSH1 0xFF MUL NOT AND SWAP1 DUP4 ISZERO ISZERO MUL OR SWAP1 SSTORE POP PUSH32 0x62E78CEA01BEE320CD4E420270B5EA74000D11B0C9F74754EBDBFC544B05A258 PUSH2 0x611 PUSH2 0x7B2 JUMP JUMPDEST PUSH1 0x40 MLOAD PUSH2 0x61E SWAP2 SWAP1 PUSH2 0x18CC JUMP JUMPDEST PUSH1 0x40 MLOAD DUP1 SWAP2 SUB SWAP1 LOG1 JUMP JUMPDEST PUSH1 0x2 PUSH1 0x1 SLOAD SUB PUSH2 0x66D JUMPI PUSH1 0x40 MLOAD PUSH32 0x8C379A000000000000000000000000000000000000000000000000000000000 DUP2 MSTORE PUSH1 0x4 ADD PUSH2 0x664 SWAP1 PUSH2 0x1E16 JUMP JUMPDEST PUSH1 0x40 MLOAD DUP1 SWAP2 SUB SWAP1 REVERT JUMPDEST PUSH1 0x2 PUSH1 0x1 DUP2 SWAP1 SSTORE POP JUMP JUMPDEST PUSH2 0x67F PUSH2 0x1CC JUMP JUMPDEST ISZERO PUSH2 0x6BF JUMPI PUSH1 0x40 MLOAD PUSH32 0x8C379A000000000000000000000000000000000000000000000000000000000 DUP2 MSTORE PUSH1 0x4 ADD PUSH2 0x6B6 SWAP1 PUSH2 0x1E82 JUMP JUMPDEST PUSH1 0x40 MLOAD DUP1 SWAP2 SUB SWAP1 REVERT JUMPDEST JUMP JUMPDEST PUSH2 0x6CB DUP3 DUP3 PUSH2 0x803 JUMP JUMPDEST PUSH2 0x70A DUP4 DUP1 PUSH1 0x20 ADD SWAP1 PUSH2 0x6DE SWAP2 SWAP1 PUSH2 0x1EA2 JUMP JUMPDEST DUP6 PUSH1 0x80 ADD PUSH1 0x20 DUP2 ADD SWAP1 PUSH2 0x6F1 SWAP2 SWAP1 PUSH2 0x1953 JUMP JUMPDEST DUP7 DUP1 PUSH1 0x40 ADD SWAP1 PUSH2 0x701 SWAP2 SWAP1 PUSH2 0x1F05 JUMP JUMPDEST PUSH1 0x20 ADD CALLDATALOAD PUSH2 0xBE8 JUMP JUMPDEST PUSH2 0x722 DUP4 DUP1 PUSH1 0x40 ADD SWAP1 PUSH2 0x71D SWAP2 SWAP1 PUSH2 0x1F05 JUMP JUMPDEST PUSH2 0xEF5 JUMP JUMPDEST DUP3 PUSH1 0x80 ADD PUSH1 0x20 DUP2 ADD SWAP1 PUSH2 0x735 SWAP2 SWAP1 PUSH2 0x1953 JUMP JUMPDEST PUSH20 0xFFFFFFFFFFFFFFFFFFFFFFFFFFFFFFFFFFFFFFFF AND CALLER PUSH20 0xFFFFFFFFFFFFFFFFFFFFFFFFFFFFFFFFFFFFFFFF AND DUP5 PUSH1 0x40 MLOAD PUSH2 0x770 SWAP2 SWAP1 PUSH2 0x2419 JUMP JUMPDEST PUSH1 0x40 MLOAD DUP1 SWAP2 SUB SWAP1 KECCAK256 PUSH32 0x1BA5B6ED656994657175705961138C96BD8EC133C35817FA85903F450129E0B1 PUSH1 0x40 MLOAD PUSH1 0x40 MLOAD DUP1 SWAP2 SUB SWAP1 LOG4 POP POP POP JUMP JUMPDEST PUSH1 0x1 DUP1 DUP2 SWAP1 SSTORE POP JUMP JUMPDEST PUSH1 0x0 CALLER SWAP1 POP SWAP1 JUMP JUMPDEST PUSH2 0x7C2 PUSH2 0x1CC JUMP JUMPDEST PUSH2 0x801 JUMPI PUSH1 0x40 MLOAD PUSH32 0x8C379A000000000000000000000000000000000000000000000000000000000 DUP2 MSTORE PUSH1 0x4 ADD PUSH2 0x7F8 SWAP1 PUSH2 0x247C JUMP JUMPDEST PUSH1 0x40 MLOAD DUP1 SWAP2 SUB SWAP1 REVERT JUMPDEST JUMP JUMPDEST PUSH1 0x0 DUP3 DUP3 SWAP1 POP SWAP1 POP PUSH1 0x0 JUMPDEST DUP2 DUP2 LT ISZERO PUSH2 0xBE2 JUMPI CALLDATASIZE DUP5 DUP5 DUP4 DUP2 DUP2 LT PUSH2 0x82A JUMPI PUSH2 0x829 PUSH2 0x249C JUMP JUMPDEST JUMPDEST SWAP1 POP PUSH1 0x20 MUL DUP2 ADD SWAP1 PUSH2 0x83C SWAP2 SWAP1 PUSH2 0x24CB JUMP JUMPDEST SWAP1 POP PUSH1 0x0 DUP1 PUSH1 0x0 CALLDATASIZE PUSH1 0x0 DUP6 PUSH1 0x0 ADD PUSH1 0x20 DUP2 ADD SWAP1 PUSH2 0x859 SWAP2 SWAP1 PUSH2 0x1953 JUMP JUMPDEST DUP7 PUSH1 0x20 ADD CALLDATALOAD DUP8 DUP1 PUSH1 0x40 ADD SWAP1 PUSH2 0x86E SWAP2 SWAP1 PUSH2 0x24F3 JUMP JUMPDEST DUP10 DUP1 PUSH1 0x60 ADD SWAP1 PUSH2 0x87E SWAP2 SWAP1 PUSH2 0x2556 JUMP JUMPDEST SWAP6 POP SWAP6 POP DUP1 DUP1 PUSH1 0x1F ADD PUSH1 0x20 DUP1 SWAP2 DIV MUL PUSH1 0x20 ADD PUSH1 0x40 MLOAD SWAP1 DUP2 ADD PUSH1 0x40 MSTORE DUP1 SWAP4 SWAP3 SWAP2 SWAP1 DUP2 DUP2 MSTORE PUSH1 0x20 ADD DUP4 DUP4 DUP1 DUP3 DUP5 CALLDATACOPY PUSH1 0x0 DUP2 DUP5 ADD MSTORE PUSH1 0x1F NOT PUSH1 0x1F DUP3 ADD AND SWAP1 POP DUP1 DUP4 ADD SWAP3 POP POP POP POP POP POP POP SWAP5 POP SWAP5 POP SWAP5 POP PUSH32 0x0 PUSH20 0xFFFFFFFFFFFFFFFFFFFFFFFFFFFFFFFFFFFFFFFF AND DUP6 PUSH20 0xFFFFFFFFFFFFFFFFFFFFFFFFFFFFFFFFFFFFFFFF AND SUB PUSH2 0x95B JUMPI DUP5 PUSH1 0x40 MLOAD PUSH32 0x781568A400000000000000000000000000000000000000000000000000000000 DUP2 MSTORE PUSH1 0x4 ADD PUSH2 0x952 SWAP2 SWAP1 PUSH2 0x18CC JUMP JUMPDEST PUSH1 0x40 MLOAD DUP1 SWAP2 SUB SWAP1 REVERT JUMPDEST PUSH1 0x0 DUP1 DUP5 MLOAD SWAP1 POP PUSH1 0x0 DUP5 DUP5 SWAP1 POP SWAP1 POP PUSH1 0x0 JUMPDEST DUP2 DUP2 LT ISZERO PUSH2 0xB49 JUMPI CALLDATASIZE DUP7 DUP7 DUP4 DUP2 DUP2 LT PUSH2 0x989 JUMPI PUSH2 0x988 PUSH2 0x249C JUMP JUMPDEST JUMPDEST SWAP1 POP PUSH1 0x40 MUL ADD SWAP1 POP PUSH1 0x0 DUP1 DUP3 PUSH1 0x0 ADD PUSH1 0x20 DUP2 ADD SWAP1 PUSH2 0x9A7 SWAP2 SWAP1 PUSH2 0x1953 JUMP JUMPDEST DUP4 PUSH1 0x20 ADD PUSH1 0x20 DUP2 ADD SWAP1 PUSH2 0x9BA SWAP2 SWAP1 PUSH2 0x25F2 JUMP JUMPDEST SWAP2 POP SWAP2 POP PUSH20 0xEEEEEEEEEEEEEEEEEEEEEEEEEEEEEEEEEEEEEEEE PUSH20 0xFFFFFFFFFFFFFFFFFFFFFFFFFFFFFFFFFFFFFFFF AND DUP3 PUSH20 0xFFFFFFFFFFFFFFFFFFFFFFFFFFFFFFFFFFFFFFFF AND SUB PUSH2 0xA0D JUMPI SELFBALANCE SWAP11 POP PUSH2 0xB3B JUMP JUMPDEST DUP2 PUSH20 0xFFFFFFFFFFFFFFFFFFFFFFFFFFFFFFFFFFFFFFFF AND PUSH4 0x70A08231 ADDRESS PUSH1 0x40 MLOAD DUP3 PUSH4 0xFFFFFFFF AND PUSH1 0xE0 SHL DUP2 MSTORE PUSH1 0x4 ADD PUSH2 0xA46 SWAP2 SWAP1 PUSH2 0x18CC JUMP JUMPDEST PUSH1 0x20 PUSH1 0x40 MLOAD DUP1 DUP4 SUB DUP2 DUP7 GAS STATICCALL ISZERO DUP1 ISZERO PUSH2 0xA63 JUMPI RETURNDATASIZE PUSH1 0x0 DUP1 RETURNDATACOPY RETURNDATASIZE PUSH1 0x0 REVERT JUMPDEST POP POP POP POP PUSH1 0x40 MLOAD RETURNDATASIZE PUSH1 0x1F NOT PUSH1 0x1F DUP3 ADD AND DUP3 ADD DUP1 PUSH1 0x40 MSTORE POP DUP2 ADD SWAP1 PUSH2 0xA87 SWAP2 SWAP1 PUSH2 0x2634 JUMP JUMPDEST SWAP7 POP PUSH2 0xA94 DUP3 DUP14 DUP10 PUSH2 0x115A JUMP JUMPDEST PUSH1 0x0 DUP2 PUSH1 0x3 SIGNEXTEND SLT PUSH2 0xB3A JUMPI PUSH1 0x0 DUP2 PUSH1 0x3 SIGNEXTEND SWAP1 POP PUSH2 0xABD PUSH1 0x0 DUP3 DUP14 PUSH2 0x122E SWAP1 SWAP3 SWAP2 SWAP1 PUSH4 0xFFFFFFFF AND JUMP JUMPDEST DUP9 PUSH1 0x40 MLOAD PUSH1 0x20 ADD PUSH2 0xACE SWAP2 SWAP1 PUSH2 0x2670 JUMP JUMPDEST PUSH1 0x40 MLOAD PUSH1 0x20 DUP2 DUP4 SUB SUB DUP2 MSTORE SWAP1 PUSH1 0x40 MSTORE PUSH2 0xB15 PUSH1 0x20 DUP5 PUSH2 0xAED SWAP2 SWAP1 PUSH2 0x26BA JUMP JUMPDEST PUSH1 0x20 DUP6 PUSH2 0xAFA SWAP2 SWAP1 PUSH2 0x26BA JUMP JUMPDEST DUP12 PUSH2 0xB05 SWAP2 SWAP1 PUSH2 0x26EE JUMP JUMPDEST DUP16 PUSH2 0x122E SWAP1 SWAP3 SWAP2 SWAP1 PUSH4 0xFFFFFFFF AND JUMP JUMPDEST PUSH1 0x40 MLOAD PUSH1 0x20 ADD PUSH2 0xB27 SWAP4 SWAP3 SWAP2 SWAP1 PUSH2 0x2793 JUMP JUMPDEST PUSH1 0x40 MLOAD PUSH1 0x20 DUP2 DUP4 SUB SUB DUP2 MSTORE SWAP1 PUSH1 0x40 MSTORE SWAP11 POP POP JUMPDEST JUMPDEST DUP4 PUSH1 0x1 ADD SWAP4 POP POP POP POP PUSH2 0x96D JUMP JUMPDEST POP PUSH1 0x0 DUP1 DUP10 PUSH20 0xFFFFFFFFFFFFFFFFFFFFFFFFFFFFFFFFFFFFFFFF AND DUP10 DUP10 PUSH1 0x40 MLOAD PUSH2 0xB73 SWAP2 SWAP1 PUSH2 0x27C4 JUMP JUMPDEST PUSH1 0x0 PUSH1 0x40 MLOAD DUP1 DUP4 SUB DUP2 DUP6 DUP8 GAS CALL SWAP3 POP POP POP RETURNDATASIZE DUP1 PUSH1 0x0 DUP2 EQ PUSH2 0xBB0 JUMPI PUSH1 0x40 MLOAD SWAP2 POP PUSH1 0x1F NOT PUSH1 0x3F RETURNDATASIZE ADD AND DUP3 ADD PUSH1 0x40 MSTORE RETURNDATASIZE DUP3 MSTORE RETURNDATASIZE PUSH1 0x0 PUSH1 0x20 DUP5 ADD RETURNDATACOPY PUSH2 0xBB5 JUMP JUMPDEST PUSH1 0x60 SWAP2 POP JUMPDEST POP SWAP2 POP SWAP2 POP DUP2 PUSH2 0xBCC JUMPI PUSH2 0xBCB DUP11 DUP11 DUP11 DUP5 PUSH2 0x134C JUMP JUMPDEST JUMPDEST DUP12 PUSH1 0x1 ADD SWAP12 POP POP POP POP POP POP POP POP POP POP POP POP PUSH2 0x80E JUMP JUMPDEST POP POP POP POP JUMP JUMPDEST PUSH1 0x0 DUP1 DUP6 DUP6 SWAP1 POP SWAP1 POP PUSH1 0x0 JUMPDEST DUP2 DUP2 LT ISZERO PUSH2 0xEEC JUMPI CALLDATASIZE DUP8 DUP8 DUP4 DUP2 DUP2 LT PUSH2 0xC10 JUMPI PUSH2 0xC0F PUSH2 0x249C JUMP JUMPDEST JUMPDEST SWAP1 POP PUSH1 0x40 MUL ADD SWAP1 POP PUSH1 0x0 DUP1 DUP3 PUSH1 0x0 ADD PUSH1 0x20 DUP2 ADD SWAP1 PUSH2 0xC2E SWAP2 SWAP1 PUSH2 0x1953 JUMP JUMPDEST DUP4 PUSH1 0x20 ADD CALLDATALOAD SWAP2 POP SWAP2 POP PUSH20 0xEEEEEEEEEEEEEEEEEEEEEEEEEEEEEEEEEEEEEEEE PUSH20 0xFFFFFFFFFFFFFFFFFFFFFFFFFFFFFFFFFFFFFFFF AND DUP3 PUSH20 0xFFFFFFFFFFFFFFFFFFFFFFFFFFFFFFFFFFFFFFFF AND SUB PUSH2 0xD95 JUMPI SELFBALANCE SWAP6 POP DUP1 DUP7 LT ISZERO PUSH2 0xCCA JUMPI DUP2 DUP2 DUP8 PUSH1 0x40 MLOAD PUSH32 0xD4CF45A200000000000000000000000000000000000000000000000000000000 DUP2 MSTORE PUSH1 0x4 ADD PUSH2 0xCC1 SWAP4 SWAP3 SWAP2 SWAP1 PUSH2 0x27DB JUMP JUMPDEST PUSH1 0x40 MLOAD DUP1 SWAP2 SUB SWAP1 REVERT JUMPDEST DUP7 DUP7 GT ISZERO PUSH2 0xD90 JUMPI DUP7 DUP7 PUSH2 0xCDE SWAP2 SWAP1 PUSH2 0x26EE JUMP JUMPDEST SWAP6 POP PUSH1 0x0 DUP9 PUSH20 0xFFFFFFFFFFFFFFFFFFFFFFFFFFFFFFFFFFFFFFFF AND DUP8 PUSH1 0x40 MLOAD PUSH2 0xD06 SWAP1 PUSH2 0x2838 JUMP JUMPDEST PUSH1 0x0 PUSH1 0x40 MLOAD DUP1 DUP4 SUB DUP2 DUP6 DUP8 GAS CALL SWAP3 POP POP POP RETURNDATASIZE DUP1 PUSH1 0x0 DUP2 EQ PUSH2 0xD43 JUMPI PUSH1 0x40 MLOAD SWAP2 POP PUSH1 0x1F NOT PUSH1 0x3F RETURNDATASIZE ADD AND DUP3 ADD PUSH1 0x40 MSTORE RETURNDATASIZE DUP3 MSTORE RETURNDATASIZE PUSH1 0x0 PUSH1 0x20 DUP5 ADD RETURNDATACOPY PUSH2 0xD48 JUMP JUMPDEST PUSH1 0x60 SWAP2 POP JUMPDEST POP POP SWAP1 POP DUP1 PUSH2 0xD8E JUMPI DUP9 PUSH1 0x40 MLOAD PUSH32 0x464E254D00000000000000000000000000000000000000000000000000000000 DUP2 MSTORE PUSH1 0x4 ADD PUSH2 0xD85 SWAP2 SWAP1 PUSH2 0x18CC JUMP JUMPDEST PUSH1 0x40 MLOAD DUP1 SWAP2 SUB SWAP1 REVERT JUMPDEST POP JUMPDEST PUSH2 0xE90 JUMP JUMPDEST DUP2 PUSH20 0xFFFFFFFFFFFFFFFFFFFFFFFFFFFFFFFFFFFFFFFF AND PUSH4 0x70A08231 ADDRESS PUSH1 0x40 MLOAD DUP3 PUSH4 0xFFFFFFFF AND PUSH1 0xE0 SHL DUP2 MSTORE PUSH1 0x4 ADD PUSH2 0xDCE SWAP2 SWAP1 PUSH2 0x18CC JUMP JUMPDEST PUSH1 0x20 PUSH1 0x40 MLOAD DUP1 DUP4 SUB DUP2 DUP7 GAS STATICCALL ISZERO DUP1 ISZERO PUSH2 0xDEB JUMPI RETURNDATASIZE PUSH1 0x0 DUP1 RETURNDATACOPY RETURNDATASIZE PUSH1 0x0 REVERT JUMPDEST POP POP POP POP PUSH1 0x40 MLOAD RETURNDATASIZE PUSH1 0x1F NOT PUSH1 0x1F DUP3 ADD AND DUP3 ADD DUP1 PUSH1 0x40 MSTORE POP DUP2 ADD SWAP1 PUSH2 0xE0F SWAP2 SWAP1 PUSH2 0x2634 JUMP JUMPDEST SWAP6 POP DUP1 DUP7 LT ISZERO PUSH2 0xE5A JUMPI DUP2 DUP2 DUP8 PUSH1 0x40 MLOAD PUSH32 0xD4CF45A200000000000000000000000000000000000000000000000000000000 DUP2 MSTORE PUSH1 0x4 ADD PUSH2 0xE51 SWAP4 SWAP3 SWAP2 SWAP1 PUSH2 0x27DB JUMP JUMPDEST PUSH1 0x40 MLOAD DUP1 SWAP2 SUB SWAP1 REVERT JUMPDEST PUSH1 0x0 DUP7 GT ISZERO PUSH2 0xE8F JUMPI PUSH2 0xE8E DUP9 DUP8 DUP5 PUSH20 0xFFFFFFFFFFFFFFFFFFFFFFFFFFFFFFFFFFFFFFFF AND PUSH2 0x139E SWAP1 SWAP3 SWAP2 SWAP1 PUSH4 0xFFFFFFFF AND JUMP JUMPDEST JUMPDEST JUMPDEST DUP2 PUSH20 0xFFFFFFFFFFFFFFFFFFFFFFFFFFFFFFFFFFFFFFFF AND PUSH32 0xEAF449319C042C9BA3474FA0C5329EB58CD1F23BE110CDBF9D697B8D303DAC15 DUP8 PUSH1 0x40 MLOAD PUSH2 0xED6 SWAP2 SWAP1 PUSH2 0x2670 JUMP JUMPDEST PUSH1 0x40 MLOAD DUP1 SWAP2 SUB SWAP1 LOG2 DUP4 PUSH1 0x1 ADD SWAP4 POP POP POP POP PUSH2 0xBF4 JUMP JUMPDEST POP POP POP POP POP POP POP JUMP JUMPDEST PUSH1 0x0 DUP1 CALLDATASIZE PUSH1 0x0 DUP5 PUSH1 0x0 ADD PUSH1 0x20 DUP2 ADD SWAP1 PUSH2 0xF0E SWAP2 SWAP1 PUSH2 0x1953 JUMP JUMPDEST DUP6 PUSH1 0x20 ADD CALLDATALOAD DUP7 DUP1 PUSH1 0x40 ADD SWAP1 PUSH2 0xF23 SWAP2 SWAP1 PUSH2 0x24F3 JUMP JUMPDEST SWAP4 POP SWAP4 POP SWAP4 POP SWAP4 POP PUSH1 0x0 PUSH20 0xFFFFFFFFFFFFFFFFFFFFFFFFFFFFFFFFFFFFFFFF AND DUP5 PUSH20 0xFFFFFFFFFFFFFFFFFFFFFFFFFFFFFFFFFFFFFFFF AND EQ PUSH2 0x1153 JUMPI PUSH32 0x0 PUSH20 0xFFFFFFFFFFFFFFFFFFFFFFFFFFFFFFFFFFFFFFFF AND DUP5 PUSH20 0xFFFFFFFFFFFFFFFFFFFFFFFFFFFFFFFFFFFFFFFF AND SUB PUSH2 0xFEF JUMPI DUP4 PUSH1 0x40 MLOAD PUSH32 0x781568A400000000000000000000000000000000000000000000000000000000 DUP2 MSTORE PUSH1 0x4 ADD PUSH2 0xFE6 SWAP2 SWAP1 PUSH2 0x18CC JUMP JUMPDEST PUSH1 0x40 MLOAD DUP1 SWAP2 SUB SWAP1 REVERT JUMPDEST DUP3 SELFBALANCE LT ISZERO PUSH2 0x1036 JUMPI SELFBALANCE DUP4 PUSH1 0x40 MLOAD PUSH32 0x74C8CBE600000000000000000000000000000000000000000000000000000000 DUP2 MSTORE PUSH1 0x4 ADD PUSH2 0x102D SWAP3 SWAP2 SWAP1 PUSH2 0x284D JUMP JUMPDEST PUSH1 0x40 MLOAD DUP1 SWAP2 SUB SWAP1 REVERT JUMPDEST PUSH1 0x0 DUP1 DUP6 PUSH20 0xFFFFFFFFFFFFFFFFFFFFFFFFFFFFFFFFFFFFFFFF AND DUP6 DUP6 DUP6 PUSH1 0x40 MLOAD PUSH2 0x1061 SWAP3 SWAP2 SWAP1 PUSH2 0x289B JUMP JUMPDEST PUSH1 0x0 PUSH1 0x40 MLOAD DUP1 DUP4 SUB DUP2 DUP6 DUP8 GAS CALL SWAP3 POP POP POP RETURNDATASIZE DUP1 PUSH1 0x0 DUP2 EQ PUSH2 0x109E JUMPI PUSH1 0x40 MLOAD SWAP2 POP PUSH1 0x1F NOT PUSH1 0x3F RETURNDATASIZE ADD AND DUP3 ADD PUSH1 0x40 MSTORE RETURNDATASIZE DUP3 MSTORE RETURNDATASIZE PUSH1 0x0 PUSH1 0x20 DUP5 ADD RETURNDATACOPY PUSH2 0x10A3 JUMP JUMPDEST PUSH1 0x60 SWAP2 POP JUMPDEST POP SWAP2 POP SWAP2 POP DUP2 PUSH2 0x10FE JUMPI PUSH2 0x10FD DUP7 DUP7 DUP7 DUP7 DUP1 DUP1 PUSH1 0x1F ADD PUSH1 0x20 DUP1 SWAP2 DIV MUL PUSH1 0x20 ADD PUSH1 0x40 MLOAD SWAP1 DUP2 ADD PUSH1 0x40 MSTORE DUP1 SWAP4 SWAP3 SWAP2 SWAP1 DUP2 DUP2 MSTORE PUSH1 0x20 ADD DUP4 DUP4 DUP1 DUP3 DUP5 CALLDATACOPY PUSH1 0x0 DUP2 DUP5 ADD MSTORE PUSH1 0x1F NOT PUSH1 0x1F DUP3 ADD AND SWAP1 POP DUP1 DUP4 ADD SWAP3 POP POP POP POP POP POP POP DUP5 PUSH2 0x134C JUMP JUMPDEST JUMPDEST DUP6 PUSH20 0xFFFFFFFFFFFFFFFFFFFFFFFFFFFFFFFFFFFFFFFF AND PUSH32 0x6C936258F37A22C831493E49CB45429BDF7B6BB0E261F271A15F084E5B08AAFF DUP7 DUP7 DUP7 PUSH1 0x40 MLOAD PUSH2 0x1148 SWAP4 SWAP3 SWAP2 SWAP1 PUSH2 0x28F2 JUMP JUMPDEST PUSH1 0x40 MLOAD DUP1 SWAP2 SUB SWAP1 LOG2 POP POP JUMPDEST POP POP POP POP POP JUMP JUMPDEST DUP1 DUP4 PUSH20 0xFFFFFFFFFFFFFFFFFFFFFFFFFFFFFFFFFFFFFFFF AND PUSH4 0xDD62ED3E ADDRESS DUP6 PUSH1 0x40 MLOAD DUP4 PUSH4 0xFFFFFFFF AND PUSH1 0xE0 SHL DUP2 MSTORE PUSH1 0x4 ADD PUSH2 0x1196 SWAP3 SWAP2 SWAP1 PUSH2 0x1B28 JUMP JUMPDEST PUSH1 0x20 PUSH1 0x40 MLOAD DUP1 DUP4 SUB DUP2 DUP7 GAS STATICCALL ISZERO DUP1 ISZERO PUSH2 0x11B3 JUMPI RETURNDATASIZE PUSH1 0x0 DUP1 RETURNDATACOPY RETURNDATASIZE PUSH1 0x0 REVERT JUMPDEST POP POP POP POP PUSH1 0x40 MLOAD RETURNDATASIZE PUSH1 0x1F NOT PUSH1 0x1F DUP3 ADD AND DUP3 ADD DUP1 PUSH1 0x40 MSTORE POP DUP2 ADD SWAP1 PUSH2 0x11D7 SWAP2 SWAP1 PUSH2 0x2634 JUMP JUMPDEST LT ISZERO PUSH2 0x1229 JUMPI PUSH2 0x1228 DUP3 PUSH32 0xFFFFFFFFFFFFFFFFFFFFFFFFFFFFFFFFFFFFFFFFFFFFFFFFFFFFFFFFFFFFFFFF DUP6 PUSH20 0xFFFFFFFFFFFFFFFFFFFFFFFFFFFFFFFFFFFFFFFF AND PUSH2 0x1424 SWAP1 SWAP3 SWAP2 SWAP1 PUSH4 0xFFFFFFFF AND JUMP JUMPDEST JUMPDEST POP POP POP JUMP JUMPDEST PUSH1 0x60 DUP2 PUSH1 0x1F DUP4 PUSH2 0x123E SWAP2 SWAP1 PUSH2 0x26BA JUMP JUMPDEST LT ISZERO PUSH2 0x127F JUMPI PUSH1 0x40 MLOAD PUSH32 0x8C379A000000000000000000000000000000000000000000000000000000000 DUP2 MSTORE PUSH1 0x4 ADD PUSH2 0x1276 SWAP1 PUSH2 0x2970 JUMP JUMPDEST PUSH1 0x40 MLOAD DUP1 SWAP2 SUB SWAP1 REVERT JUMPDEST DUP2 DUP4 PUSH2 0x128B SWAP2 SWAP1 PUSH2 0x26BA JUMP JUMPDEST DUP5 MLOAD LT ISZERO PUSH2 0x12CE JUMPI PUSH1 0x40 MLOAD PUSH32 0x8C379A000000000000000000000000000000000000000000000000000000000 DUP2 MSTORE PUSH1 0x4 ADD PUSH2 0x12C5 SWAP1 PUSH2 0x29DC JUMP JUMPDEST PUSH1 0x40 MLOAD DUP1 SWAP2 SUB SWAP1 REVERT JUMPDEST PUSH1 0x60 DUP3 ISZERO PUSH1 0x0 DUP2 EQ PUSH2 0x12EF JUMPI PUSH1 0x40 MLOAD SWAP2 POP PUSH1 0x0 DUP3 MSTORE PUSH1 0x20 DUP3 ADD PUSH1 0x40 MSTORE PUSH2 0x1340 JUMP JUMPDEST PUSH1 0x40 MLOAD SWAP2 POP PUSH1 0x1F DUP5 AND DUP1 ISZERO PUSH1 0x20 MUL DUP2 DUP5 ADD ADD DUP6 DUP2 ADD DUP8 DUP4 ISZERO PUSH1 0x20 MUL DUP5 DUP12 ADD ADD ADD JUMPDEST DUP2 DUP4 LT ISZERO PUSH2 0x132D JUMPI DUP1 MLOAD DUP4 MSTORE PUSH1 0x20 DUP4 ADD SWAP3 POP PUSH1 0x20 DUP2 ADD SWAP1 POP PUSH2 0x1310 JUMP JUMPDEST POP DUP7 DUP6 MSTORE PUSH1 0x1F NOT PUSH1 0x1F DUP4 ADD AND PUSH1 0x40 MSTORE POP POP POP JUMPDEST POP DUP1 SWAP2 POP POP SWAP4 SWAP3 POP POP POP JUMP JUMPDEST PUSH1 0x0 DUP2 MLOAD SUB PUSH2 0x1396 JUMPI DUP4 DUP4 DUP4 PUSH1 0x40 MLOAD PUSH32 0xE1EEC8F100000000000000000000000000000000000000000000000000000000 DUP2 MSTORE PUSH1 0x4 ADD PUSH2 0x138D SWAP4 SWAP3 SWAP2 SWAP1 PUSH2 0x2A35 JUMP JUMPDEST PUSH1 0x40 MLOAD DUP1 SWAP2 SUB SWAP1 REVERT JUMPDEST DUP1 MLOAD DUP2 PUSH1 0x20 ADD REVERT JUMPDEST PUSH2 0x141F DUP4 PUSH4 0xA9059CBB PUSH1 0xE0 SHL DUP5 DUP5 PUSH1 0x40 MLOAD PUSH1 0x24 ADD PUSH2 0x13BD SWAP3 SWAP2 SWAP1 PUSH2 0x2A73 JUMP JUMPDEST PUSH1 0x40 MLOAD PUSH1 0x20 DUP2 DUP4 SUB SUB DUP2 MSTORE SWAP1 PUSH1 0x40 MSTORE SWAP1 PUSH28 0xFFFFFFFFFFFFFFFFFFFFFFFFFFFFFFFFFFFFFFFFFFFFFFFFFFFFFFFF NOT AND PUSH1 0x20 DUP3 ADD DUP1 MLOAD PUSH28 0xFFFFFFFFFFFFFFFFFFFFFFFFFFFFFFFFFFFFFFFFFFFFFFFFFFFFFFFF DUP4 DUP2 DUP4 AND OR DUP4 MSTORE POP POP POP POP PUSH2 0x1541 JUMP JUMPDEST POP POP POP JUMP JUMPDEST PUSH1 0x0 PUSH4 0x95EA7B3 PUSH1 0xE0 SHL DUP4 DUP4 PUSH1 0x40 MLOAD PUSH1 0x24 ADD PUSH2 0x1441 SWAP3 SWAP2 SWAP1 PUSH2 0x2A73 JUMP JUMPDEST PUSH1 0x40 MLOAD PUSH1 0x20 DUP2 DUP4 SUB SUB DUP2 MSTORE SWAP1 PUSH1 0x40 MSTORE SWAP1 PUSH28 0xFFFFFFFFFFFFFFFFFFFFFFFFFFFFFFFFFFFFFFFFFFFFFFFFFFFFFFFF NOT AND PUSH1 0x20 DUP3 ADD DUP1 MLOAD PUSH28 0xFFFFFFFFFFFFFFFFFFFFFFFFFFFFFFFFFFFFFFFFFFFFFFFFFFFFFFFF DUP4 DUP2 DUP4 AND OR DUP4 MSTORE POP POP POP POP SWAP1 POP PUSH2 0x14AA DUP5 DUP3 PUSH2 0x1609 JUMP JUMPDEST PUSH2 0x153B JUMPI PUSH2 0x1530 DUP5 PUSH4 0x95EA7B3 PUSH1 0xE0 SHL DUP6 PUSH1 0x0 PUSH1 0x40 MLOAD PUSH1 0x24 ADD PUSH2 0x14CE SWAP3 SWAP2 SWAP1 PUSH2 0x2AEE JUMP JUMPDEST PUSH1 0x40 MLOAD PUSH1 0x20 DUP2 DUP4 SUB SUB DUP2 MSTORE SWAP1 PUSH1 0x40 MSTORE SWAP1 PUSH28 0xFFFFFFFFFFFFFFFFFFFFFFFFFFFFFFFFFFFFFFFFFFFFFFFFFFFFFFFF NOT AND PUSH1 0x20 DUP3 ADD DUP1 MLOAD PUSH28 0xFFFFFFFFFFFFFFFFFFFFFFFFFFFFFFFFFFFFFFFFFFFFFFFFFFFFFFFF DUP4 DUP2 DUP4 AND OR DUP4 MSTORE POP POP POP POP PUSH2 0x1541 JUMP JUMPDEST PUSH2 0x153A DUP5 DUP3 PUSH2 0x1541 JUMP JUMPDEST JUMPDEST POP POP POP POP JUMP JUMPDEST PUSH1 0x0 PUSH2 0x15A3 DUP3 PUSH1 0x40 MLOAD DUP1 PUSH1 0x40 ADD PUSH1 0x40 MSTORE DUP1 PUSH1 0x20 DUP2 MSTORE PUSH1 0x20 ADD PUSH32 0x5361666545524332303A206C6F772D6C6576656C2063616C6C206661696C6564 DUP2 MSTORE POP DUP6 PUSH20 0xFFFFFFFFFFFFFFFFFFFFFFFFFFFFFFFFFFFFFFFF AND PUSH2 0x16BE SWAP1 SWAP3 SWAP2 SWAP1 PUSH4 0xFFFFFFFF AND JUMP JUMPDEST SWAP1 POP PUSH1 0x0 DUP2 MLOAD EQ DUP1 PUSH2 0x15C5 JUMPI POP DUP1 DUP1 PUSH1 0x20 ADD SWAP1 MLOAD DUP2 ADD SWAP1 PUSH2 0x15C4 SWAP2 SWAP1 PUSH2 0x2B43 JUMP JUMPDEST JUMPDEST PUSH2 0x1604 JUMPI PUSH1 0x40 MLOAD PUSH32 0x8C379A000000000000000000000000000000000000000000000000000000000 DUP2 MSTORE PUSH1 0x4 ADD PUSH2 0x15FB SWAP1 PUSH2 0x2BE2 JUMP JUMPDEST PUSH1 0x40 MLOAD DUP1 SWAP2 SUB SWAP1 REVERT JUMPDEST POP POP POP JUMP JUMPDEST PUSH1 0x0 DUP1 PUSH1 0x0 DUP5 PUSH20 0xFFFFFFFFFFFFFFFFFFFFFFFFFFFFFFFFFFFFFFFF AND DUP5 PUSH1 0x40 MLOAD PUSH2 0x1633 SWAP2 SWAP1 PUSH2 0x27C4 JUMP JUMPDEST PUSH1 0x0 PUSH1 0x40 MLOAD DUP1 DUP4 SUB DUP2 PUSH1 0x0 DUP7 GAS CALL SWAP2 POP POP RETURNDATASIZE DUP1 PUSH1 0x0 DUP2 EQ PUSH2 0x1670 JUMPI PUSH1 0x40 MLOAD SWAP2 POP PUSH1 0x1F NOT PUSH1 0x3F RETURNDATASIZE ADD AND DUP3 ADD PUSH1 0x40 MSTORE RETURNDATASIZE DUP3 MSTORE RETURNDATASIZE PUSH1 0x0 PUSH1 0x20 DUP5 ADD RETURNDATACOPY PUSH2 0x1675 JUMP JUMPDEST PUSH1 0x60 SWAP2 POP JUMPDEST POP SWAP2 POP SWAP2 POP DUP2 DUP1 ISZERO PUSH2 0x16A3 JUMPI POP PUSH1 0x0 DUP2 MLOAD EQ DUP1 PUSH2 0x16A2 JUMPI POP DUP1 DUP1 PUSH1 0x20 ADD SWAP1 MLOAD DUP2 ADD SWAP1 PUSH2 0x16A1 SWAP2 SWAP1 PUSH2 0x2B43 JUMP JUMPDEST JUMPDEST JUMPDEST DUP1 ISZERO PUSH2 0x16B4 JUMPI POP PUSH2 0x16B3 DUP6 PUSH2 0x16D6 JUMP JUMPDEST JUMPDEST SWAP3 POP POP POP SWAP3 SWAP2 POP POP JUMP JUMPDEST PUSH1 0x60 PUSH2 0x16CD DUP5 DUP5 PUSH1 0x0 DUP6 PUSH2 0x16F9 JUMP JUMPDEST SWAP1 POP SWAP4 SWAP3 POP POP POP JUMP JUMPDEST PUSH1 0x0 DUP1 DUP3 PUSH20 0xFFFFFFFFFFFFFFFFFFFFFFFFFFFFFFFFFFFFFFFF AND EXTCODESIZE GT SWAP1 POP SWAP2 SWAP1 POP JUMP JUMPDEST PUSH1 0x60 DUP3 SELFBALANCE LT ISZERO PUSH2 0x173E JUMPI PUSH1 0x40 MLOAD PUSH32 0x8C379A000000000000000000000000000000000000000000000000000000000 DUP2 MSTORE PUSH1 0x4 ADD PUSH2 0x1735 SWAP1 PUSH2 0x2C74 JUMP JUMPDEST PUSH1 0x40 MLOAD DUP1 SWAP2 SUB SWAP1 REVERT JUMPDEST PUSH1 0x0 DUP1 DUP7 PUSH20 0xFFFFFFFFFFFFFFFFFFFFFFFFFFFFFFFFFFFFFFFF AND DUP6 DUP8 PUSH1 0x40 MLOAD PUSH2 0x1767 SWAP2 SWAP1 PUSH2 0x27C4 JUMP JUMPDEST PUSH1 0x0 PUSH1 0x40 MLOAD DUP1 DUP4 SUB DUP2 DUP6 DUP8 GAS CALL SWAP3 POP POP POP RETURNDATASIZE DUP1 PUSH1 0x0 DUP2 EQ PUSH2 0x17A4 JUMPI PUSH1 0x40 MLOAD SWAP2 POP PUSH1 0x1F NOT PUSH1 0x3F RETURNDATASIZE ADD AND DUP3 ADD PUSH1 0x40 MSTORE RETURNDATASIZE DUP3 MSTORE RETURNDATASIZE PUSH1 0x0 PUSH1 0x20 DUP5 ADD RETURNDATACOPY PUSH2 0x17A9 JUMP JUMPDEST PUSH1 0x60 SWAP2 POP JUMPDEST POP SWAP2 POP SWAP2 POP PUSH2 0x17BA DUP8 DUP4 DUP4 DUP8 PUSH2 0x17C6 JUMP JUMPDEST SWAP3 POP POP POP SWAP5 SWAP4 POP POP POP POP JUMP JUMPDEST PUSH1 0x60 DUP4 ISZERO PUSH2 0x1828 JUMPI PUSH1 0x0 DUP4 MLOAD SUB PUSH2 0x1820 JUMPI PUSH2 0x17E0 DUP6 PUSH2 0x16D6 JUMP JUMPDEST PUSH2 0x181F JUMPI PUSH1 0x40 MLOAD PUSH32 0x8C379A000000000000000000000000000000000000000000000000000000000 DUP2 MSTORE PUSH1 0x4 ADD PUSH2 0x1816 SWAP1 PUSH2 0x2CE0 JUMP JUMPDEST PUSH1 0x40 MLOAD DUP1 SWAP2 SUB SWAP1 REVERT JUMPDEST JUMPDEST DUP3 SWAP1 POP PUSH2 0x1833 JUMP JUMPDEST PUSH2 0x1832 DUP4 DUP4 PUSH2 0x183B JUMP JUMPDEST JUMPDEST SWAP5 SWAP4 POP POP POP POP JUMP JUMPDEST PUSH1 0x0 DUP3 MLOAD GT ISZERO PUSH2 0x184E JUMPI DUP2 MLOAD DUP1 DUP4 PUSH1 0x20 ADD REVERT JUMPDEST DUP1 PUSH1 0x40 MLOAD PUSH32 0x8C379A000000000000000000000000000000000000000000000000000000000 DUP2 MSTORE PUSH1 0x4 ADD PUSH2 0x1882 SWAP2 SWAP1 PUSH2 0x2D44 JUMP JUMPDEST PUSH1 0x40 MLOAD DUP1 SWAP2 SUB SWAP1 REVERT JUMPDEST PUSH1 0x0 PUSH20 0xFFFFFFFFFFFFFFFFFFFFFFFFFFFFFFFFFFFFFFFF DUP3 AND SWAP1 POP SWAP2 SWAP1 POP JUMP JUMPDEST PUSH1 0x0 PUSH2 0x18B6 DUP3 PUSH2 0x188B JUMP JUMPDEST SWAP1 POP SWAP2 SWAP1 POP JUMP JUMPDEST PUSH2 0x18C6 DUP2 PUSH2 0x18AB JUMP JUMPDEST DUP3 MSTORE POP POP JUMP JUMPDEST PUSH1 0x0 PUSH1 0x20 DUP3 ADD SWAP1 POP PUSH2 0x18E1 PUSH1 0x0 DUP4 ADD DUP5 PUSH2 0x18BD JUMP JUMPDEST SWAP3 SWAP2 POP POP JUMP JUMPDEST PUSH1 0x0 DUP2 ISZERO ISZERO SWAP1 POP SWAP2 SWAP1 POP JUMP JUMPDEST PUSH2 0x18FC DUP2 PUSH2 0x18E7 JUMP JUMPDEST DUP3 MSTORE POP POP JUMP JUMPDEST PUSH1 0x0 PUSH1 0x20 DUP3 ADD SWAP1 POP PUSH2 0x1917 PUSH1 0x0 DUP4 ADD DUP5 PUSH2 0x18F3 JUMP JUMPDEST SWAP3 SWAP2 POP POP JUMP JUMPDEST PUSH1 0x0 DUP1 REVERT JUMPDEST PUSH1 0x0 DUP1 REVERT JUMPDEST PUSH2 0x1930 DUP2 PUSH2 0x18AB JUMP JUMPDEST DUP2 EQ PUSH2 0x193B JUMPI PUSH1 0x0 DUP1 REVERT JUMPDEST POP JUMP JUMPDEST PUSH1 0x0 DUP2 CALLDATALOAD SWAP1 POP PUSH2 0x194D DUP2 PUSH2 0x1927 JUMP JUMPDEST SWAP3 SWAP2 POP POP JUMP JUMPDEST PUSH1 0x0 PUSH1 0x20 DUP3 DUP5 SUB SLT ISZERO PUSH2 0x1969 JUMPI PUSH2 0x1968 PUSH2 0x191D JUMP JUMPDEST JUMPDEST PUSH1 0x0 PUSH2 0x1977 DUP5 DUP3 DUP6 ADD PUSH2 0x193E JUMP JUMPDEST SWAP2 POP POP SWAP3 SWAP2 POP POP JUMP JUMPDEST PUSH1 0x0 DUP1 REVERT JUMPDEST PUSH1 0x0 PUSH1 0xA0 DUP3 DUP5 SUB SLT ISZERO PUSH2 0x199B JUMPI PUSH2 0x199A PUSH2 0x1980 JUMP JUMPDEST JUMPDEST DUP2 SWAP1 POP SWAP3 SWAP2 POP POP JUMP JUMPDEST PUSH1 0x0 DUP1 REVERT JUMPDEST PUSH1 0x0 DUP1 REVERT JUMPDEST PUSH1 0x0 DUP1 REVERT JUMPDEST PUSH1 0x0 DUP1 DUP4 PUSH1 0x1F DUP5 ADD SLT PUSH2 0x19C9 JUMPI PUSH2 0x19C8 PUSH2 0x19A4 JUMP JUMPDEST JUMPDEST DUP3 CALLDATALOAD SWAP1 POP PUSH8 0xFFFFFFFFFFFFFFFF DUP2 GT ISZERO PUSH2 0x19E6 JUMPI PUSH2 0x19E5 PUSH2 0x19A9 JUMP JUMPDEST JUMPDEST PUSH1 0x20 DUP4 ADD SWAP2 POP DUP4 PUSH1 0x20 DUP3 MUL DUP4 ADD GT ISZERO PUSH2 0x1A02 JUMPI PUSH2 0x1A01 PUSH2 0x19AE JUMP JUMPDEST JUMPDEST SWAP3 POP SWAP3 SWAP1 POP JUMP JUMPDEST PUSH1 0x0 DUP1 PUSH1 0x0 PUSH1 0x40 DUP5 DUP7 SUB SLT ISZERO PUSH2 0x1A22 JUMPI PUSH2 0x1A21 PUSH2 0x191D JUMP JUMPDEST JUMPDEST PUSH1 0x0 DUP5 ADD CALLDATALOAD PUSH8 0xFFFFFFFFFFFFFFFF DUP2 GT ISZERO PUSH2 0x1A40 JUMPI PUSH2 0x1A3F PUSH2 0x1922 JUMP JUMPDEST JUMPDEST PUSH2 0x1A4C DUP7 DUP3 DUP8 ADD PUSH2 0x1985 JUMP JUMPDEST SWAP4 POP POP PUSH1 0x20 DUP5 ADD CALLDATALOAD PUSH8 0xFFFFFFFFFFFFFFFF DUP2 GT ISZERO PUSH2 0x1A6D JUMPI PUSH2 0x1A6C PUSH2 0x1922 JUMP JUMPDEST JUMPDEST PUSH2 0x1A79 DUP7 DUP3 DUP8 ADD PUSH2 0x19B3 JUMP JUMPDEST SWAP3 POP SWAP3 POP POP SWAP3 POP SWAP3 POP SWAP3 JUMP JUMPDEST PUSH1 0x0 DUP3 DUP3 MSTORE PUSH1 0x20 DUP3 ADD SWAP1 POP SWAP3 SWAP2 POP POP JUMP JUMPDEST PUSH32 0x4F776E61626C653A206E6577206F776E657220697320746865207A65726F2061 PUSH1 0x0 DUP3 ADD MSTORE PUSH32 0x6464726573730000000000000000000000000000000000000000000000000000 PUSH1 0x20 DUP3 ADD MSTORE POP JUMP JUMPDEST PUSH1 0x0 PUSH2 0x1AF2 PUSH1 0x26 DUP4 PUSH2 0x1A85 JUMP JUMPDEST SWAP2 POP PUSH2 0x1AFD DUP3 PUSH2 0x1A96 JUMP JUMPDEST PUSH1 0x40 DUP3 ADD SWAP1 POP SWAP2 SWAP1 POP JUMP JUMPDEST PUSH1 0x0 PUSH1 0x20 DUP3 ADD SWAP1 POP DUP2 DUP2 SUB PUSH1 0x0 DUP4 ADD MSTORE PUSH2 0x1B21 DUP2 PUSH2 0x1AE5 JUMP JUMPDEST SWAP1 POP SWAP2 SWAP1 POP JUMP JUMPDEST PUSH1 0x0 PUSH1 0x40 DUP3 ADD SWAP1 POP PUSH2 0x1B3D PUSH1 0x0 DUP4 ADD DUP6 PUSH2 0x18BD JUMP JUMPDEST PUSH2 0x1B4A PUSH1 0x20 DUP4 ADD DUP5 PUSH2 0x18BD JUMP JUMPDEST SWAP4 SWAP3 POP POP POP JUMP JUMPDEST PUSH1 0x0 DUP1 REVERT JUMPDEST PUSH1 0x0 DUP1 REVERT JUMPDEST PUSH1 0x0 DUP1 REVERT JUMPDEST PUSH1 0x0 DUP1 DUP4 CALLDATALOAD PUSH1 0x1 PUSH1 0x20 SUB DUP5 CALLDATASIZE SUB SUB DUP2 SLT PUSH2 0x1B7D JUMPI PUSH2 0x1B7C PUSH2 0x1B51 JUMP JUMPDEST JUMPDEST DUP1 DUP5 ADD SWAP3 POP DUP3 CALLDATALOAD SWAP2 POP PUSH8 0xFFFFFFFFFFFFFFFF DUP3 GT ISZERO PUSH2 0x1B9F JUMPI PUSH2 0x1B9E PUSH2 0x1B56 JUMP JUMPDEST JUMPDEST PUSH1 0x20 DUP4 ADD SWAP3 POP PUSH1 0x40 DUP3 MUL CALLDATASIZE SUB DUP4 SGT ISZERO PUSH2 0x1BBB JUMPI PUSH2 0x1BBA PUSH2 0x1B5B JUMP JUMPDEST JUMPDEST POP SWAP3 POP SWAP3 SWAP1 POP JUMP JUMPDEST PUSH1 0x0 DUP3 DUP3 MSTORE PUSH1 0x20 DUP3 ADD SWAP1 POP SWAP3 SWAP2 POP POP JUMP JUMPDEST PUSH1 0x0 DUP2 SWAP1 POP SWAP2 SWAP1 POP JUMP JUMPDEST PUSH1 0x0 PUSH2 0x1BED PUSH1 0x20 DUP5 ADD DUP5 PUSH2 0x193E JUMP JUMPDEST SWAP1 POP SWAP3 SWAP2 POP POP JUMP JUMPDEST PUSH2 0x1BFE DUP2 PUSH2 0x18AB JUMP JUMPDEST DUP3 MSTORE POP POP JUMP JUMPDEST PUSH1 0x0 DUP2 SWAP1 POP SWAP2 SWAP1 POP JUMP JUMPDEST PUSH2 0x1C17 DUP2 PUSH2 0x1C04 JUMP JUMPDEST DUP2 EQ PUSH2 0x1C22 JUMPI PUSH1 0x0 DUP1 REVERT JUMPDEST POP JUMP JUMPDEST PUSH1 0x0 DUP2 CALLDATALOAD SWAP1 POP PUSH2 0x1C34 DUP2 PUSH2 0x1C0E JUMP JUMPDEST SWAP3 SWAP2 POP POP JUMP JUMPDEST PUSH1 0x0 PUSH2 0x1C49 PUSH1 0x20 DUP5 ADD DUP5 PUSH2 0x1C25 JUMP JUMPDEST SWAP1 POP SWAP3 SWAP2 POP POP JUMP JUMPDEST PUSH2 0x1C5A DUP2 PUSH2 0x1C04 JUMP JUMPDEST DUP3 MSTORE POP POP JUMP JUMPDEST PUSH1 0x40 DUP3 ADD PUSH2 0x1C71 PUSH1 0x0 DUP4 ADD DUP4 PUSH2 0x1BDE JUMP JUMPDEST PUSH2 0x1C7E PUSH1 0x0 DUP6 ADD DUP3 PUSH2 0x1BF5 JUMP JUMPDEST POP PUSH2 0x1C8C PUSH1 0x20 DUP4 ADD DUP4 PUSH2 0x1C3A JUMP JUMPDEST PUSH2 0x1C99 PUSH1 0x20 DUP6 ADD DUP3 PUSH2 0x1C51 JUMP JUMPDEST POP POP POP POP JUMP JUMPDEST PUSH1 0x0 PUSH2 0x1CAB DUP4 DUP4 PUSH2 0x1C60 JUMP JUMPDEST PUSH1 0x40 DUP4 ADD SWAP1 POP SWAP3 SWAP2 POP POP JUMP JUMPDEST PUSH1 0x0 DUP3 SWAP1 POP SWAP3 SWAP2 POP POP JUMP JUMPDEST PUSH1 0x0 PUSH1 0x40 DUP3 ADD SWAP1 POP SWAP2 SWAP1 POP JUMP JUMPDEST PUSH1 0x0 PUSH2 0x1CDB DUP4 DUP6 PUSH2 0x1BC3 JUMP JUMPDEST SWAP4 POP PUSH2 0x1CE6 DUP3 PUSH2 0x1BD4 JUMP JUMPDEST DUP1 PUSH1 0x0 JUMPDEST DUP6 DUP2 LT ISZERO PUSH2 0x1D1F JUMPI PUSH2 0x1CFC DUP3 DUP5 PUSH2 0x1CB7 JUMP JUMPDEST PUSH2 0x1D06 DUP9 DUP3 PUSH2 0x1C9F JUMP JUMPDEST SWAP8 POP PUSH2 0x1D11 DUP4 PUSH2 0x1CC2 JUMP JUMPDEST SWAP3 POP POP PUSH1 0x1 DUP2 ADD SWAP1 POP PUSH2 0x1CEA JUMP JUMPDEST POP DUP6 SWAP3 POP POP POP SWAP4 SWAP3 POP POP POP JUMP JUMPDEST PUSH1 0x0 PUSH1 0x40 DUP3 ADD SWAP1 POP PUSH2 0x1D41 PUSH1 0x0 DUP4 ADD DUP7 PUSH2 0x18BD JUMP JUMPDEST DUP2 DUP2 SUB PUSH1 0x20 DUP4 ADD MSTORE PUSH2 0x1D54 DUP2 DUP5 DUP7 PUSH2 0x1CCF JUMP JUMPDEST SWAP1 POP SWAP5 SWAP4 POP POP POP POP JUMP JUMPDEST PUSH32 0x4F776E61626C653A2063616C6C6572206973206E6F7420746865206F776E6572 PUSH1 0x0 DUP3 ADD MSTORE POP JUMP JUMPDEST PUSH1 0x0 PUSH2 0x1D94 PUSH1 0x20 DUP4 PUSH2 0x1A85 JUMP JUMPDEST SWAP2 POP PUSH2 0x1D9F DUP3 PUSH2 0x1D5E JUMP JUMPDEST PUSH1 0x20 DUP3 ADD SWAP1 POP SWAP2 SWAP1 POP JUMP JUMPDEST PUSH1 0x0 PUSH1 0x20 DUP3 ADD SWAP1 POP DUP2 DUP2 SUB PUSH1 0x0 DUP4 ADD MSTORE PUSH2 0x1DC3 DUP2 PUSH2 0x1D87 JUMP JUMPDEST SWAP1 POP SWAP2 SWAP1 POP JUMP JUMPDEST PUSH32 0x5265656E7472616E637947756172643A207265656E7472616E742063616C6C00 PUSH1 0x0 DUP3 ADD MSTORE POP JUMP JUMPDEST PUSH1 0x0 PUSH2 0x1E00 PUSH1 0x1F DUP4 PUSH2 0x1A85 JUMP JUMPDEST SWAP2 POP PUSH2 0x1E0B DUP3 PUSH2 0x1DCA JUMP JUMPDEST PUSH1 0x20 DUP3 ADD SWAP1 POP SWAP2 SWAP1 POP JUMP JUMPDEST PUSH1 0x0 PUSH1 0x20 DUP3 ADD SWAP1 POP DUP2 DUP2 SUB PUSH1 0x0 DUP4 ADD MSTORE PUSH2 0x1E2F DUP2 PUSH2 0x1DF3 JUMP JUMPDEST SWAP1 POP SWAP2 SWAP1 POP JUMP JUMPDEST PUSH32 0x5061757361626C653A2070617573656400000000000000000000000000000000 PUSH1 0x0 DUP3 ADD MSTORE POP JUMP JUMPDEST PUSH1 0x0 PUSH2 0x1E6C PUSH1 0x10 DUP4 PUSH2 0x1A85 JUMP JUMPDEST SWAP2 POP PUSH2 0x1E77 DUP3 PUSH2 0x1E36 JUMP JUMPDEST PUSH1 0x20 DUP3 ADD SWAP1 POP SWAP2 SWAP1 POP JUMP JUMPDEST PUSH1 0x0 PUSH1 0x20 DUP3 ADD SWAP1 POP DUP2 DUP2 SUB PUSH1 0x0 DUP4 ADD MSTORE PUSH2 0x1E9B DUP2 PUSH2 0x1E5F JUMP JUMPDEST SWAP1 POP SWAP2 SWAP1 POP JUMP JUMPDEST PUSH1 0x0 DUP1 DUP4 CALLDATALOAD PUSH1 0x1 PUSH1 0x20 SUB DUP5 CALLDATASIZE SUB SUB DUP2 SLT PUSH2 0x1EBF JUMPI PUSH2 0x1EBE PUSH2 0x1B51 JUMP JUMPDEST JUMPDEST DUP1 DUP5 ADD SWAP3 POP DUP3 CALLDATALOAD SWAP2 POP PUSH8 0xFFFFFFFFFFFFFFFF DUP3 GT ISZERO PUSH2 0x1EE1 JUMPI PUSH2 0x1EE0 PUSH2 0x1B56 JUMP JUMPDEST JUMPDEST PUSH1 0x20 DUP4 ADD SWAP3 POP PUSH1 0x40 DUP3 MUL CALLDATASIZE SUB DUP4 SGT ISZERO PUSH2 0x1EFD JUMPI PUSH2 0x1EFC PUSH2 0x1B5B JUMP JUMPDEST JUMPDEST POP SWAP3 POP SWAP3 SWAP1 POP JUMP JUMPDEST PUSH1 0x0 DUP3 CALLDATALOAD PUSH1 0x1 PUSH1 0x60 SUB DUP4 CALLDATASIZE SUB SUB DUP2 SLT PUSH2 0x1F21 JUMPI PUSH2 0x1F20 PUSH2 0x1B51 JUMP JUMPDEST JUMPDEST DUP1 DUP4 ADD SWAP2 POP POP SWAP3 SWAP2 POP POP JUMP JUMPDEST PUSH1 0x0 DUP1 REVERT JUMPDEST PUSH1 0x0 DUP1 REVERT JUMPDEST PUSH1 0x0 DUP1 REVERT JUMPDEST PUSH1 0x0 DUP1 DUP4 CALLDATALOAD PUSH1 0x1 PUSH1 0x20 SUB DUP5 CALLDATASIZE SUB SUB DUP2 SLT PUSH2 0x1F59 JUMPI PUSH2 0x1F58 PUSH2 0x1F37 JUMP JUMPDEST JUMPDEST DUP4 DUP2 ADD SWAP3 POP DUP3 CALLDATALOAD SWAP2 POP PUSH1 0x20 DUP4 ADD SWAP3 POP PUSH8 0xFFFFFFFFFFFFFFFF DUP3 GT ISZERO PUSH2 0x1F81 JUMPI PUSH2 0x1F80 PUSH2 0x1F2D JUMP JUMPDEST JUMPDEST PUSH1 0x40 DUP3 MUL CALLDATASIZE SUB DUP4 SGT ISZERO PUSH2 0x1F97 JUMPI PUSH2 0x1F96 PUSH2 0x1F32 JUMP JUMPDEST JUMPDEST POP SWAP3 POP SWAP3 SWAP1 POP JUMP JUMPDEST PUSH1 0x0 DUP2 SWAP1 POP SWAP3 SWAP2 POP POP JUMP JUMPDEST PUSH2 0x1FB3 DUP2 PUSH2 0x18AB JUMP JUMPDEST DUP3 MSTORE POP POP JUMP JUMPDEST PUSH1 0x0 PUSH2 0x1FC5 DUP4 DUP4 PUSH2 0x1FAA JUMP JUMPDEST PUSH1 0x20 DUP4 ADD SWAP1 POP SWAP3 SWAP2 POP POP JUMP JUMPDEST PUSH2 0x1FDA DUP2 PUSH2 0x1C04 JUMP JUMPDEST DUP3 MSTORE POP POP JUMP JUMPDEST PUSH1 0x0 PUSH2 0x1FEC DUP4 DUP4 PUSH2 0x1FD1 JUMP JUMPDEST PUSH1 0x20 DUP4 ADD SWAP1 POP SWAP3 SWAP2 POP POP JUMP JUMPDEST PUSH1 0x0 DUP3 ADD PUSH2 0x2009 PUSH1 0x0 DUP4 ADD DUP4 PUSH2 0x1BDE JUMP JUMPDEST PUSH2 0x2013 DUP5 DUP3 PUSH2 0x1FB9 JUMP JUMPDEST SWAP4 POP POP PUSH2 0x2023 PUSH1 0x20 DUP4 ADD DUP4 PUSH2 0x1C3A JUMP JUMPDEST PUSH2 0x202D DUP5 DUP3 PUSH2 0x1FE0 JUMP JUMPDEST SWAP4 POP POP POP POP POP JUMP JUMPDEST PUSH1 0x0 PUSH2 0x2041 DUP4 DUP4 PUSH2 0x1FF8 JUMP JUMPDEST PUSH1 0x40 DUP4 ADD SWAP1 POP SWAP3 SWAP2 POP POP JUMP JUMPDEST PUSH1 0x0 PUSH2 0x2059 DUP4 DUP6 PUSH2 0x1F9F JUMP JUMPDEST SWAP4 POP PUSH2 0x2064 DUP3 PUSH2 0x1BD4 JUMP JUMPDEST DUP1 PUSH1 0x0 JUMPDEST DUP6 DUP2 LT ISZERO PUSH2 0x209D JUMPI PUSH2 0x207A DUP3 DUP5 PUSH2 0x1CB7 JUMP JUMPDEST PUSH2 0x2084 DUP9 DUP3 PUSH2 0x2035 JUMP JUMPDEST SWAP8 POP PUSH2 0x208F DUP4 PUSH2 0x1CC2 JUMP JUMPDEST SWAP3 POP POP PUSH1 0x1 DUP2 ADD SWAP1 POP PUSH2 0x2068 JUMP JUMPDEST POP DUP6 SWAP3 POP POP POP SWAP4 SWAP3 POP POP POP JUMP JUMPDEST PUSH1 0x0 PUSH2 0x20B7 DUP5 DUP5 DUP5 PUSH2 0x204D JUMP JUMPDEST SWAP1 POP SWAP4 SWAP3 POP POP POP JUMP JUMPDEST PUSH1 0x0 DUP1 DUP4 CALLDATALOAD PUSH1 0x1 PUSH1 0x20 SUB DUP5 CALLDATASIZE SUB SUB DUP2 SLT PUSH2 0x20DD JUMPI PUSH2 0x20DC PUSH2 0x1F37 JUMP JUMPDEST JUMPDEST DUP4 DUP2 ADD SWAP3 POP DUP3 CALLDATALOAD SWAP2 POP PUSH1 0x20 DUP4 ADD SWAP3 POP PUSH8 0xFFFFFFFFFFFFFFFF DUP3 GT ISZERO PUSH2 0x2105 JUMPI PUSH2 0x2104 PUSH2 0x1F2D JUMP JUMPDEST JUMPDEST PUSH1 0x40 DUP3 MUL CALLDATASIZE SUB DUP4 SGT ISZERO PUSH2 0x211B JUMPI PUSH2 0x211A PUSH2 0x1F32 JUMP JUMPDEST JUMPDEST POP SWAP3 POP SWAP3 SWAP1 POP JUMP JUMPDEST PUSH1 0x0 DUP2 SWAP1 POP SWAP3 SWAP2 POP POP JUMP JUMPDEST PUSH1 0x0 DUP2 SWAP1 POP SWAP2 SWAP1 POP JUMP JUMPDEST PUSH1 0x0 DUP3 ADD PUSH2 0x2149 PUSH1 0x0 DUP4 ADD DUP4 PUSH2 0x1BDE JUMP JUMPDEST PUSH2 0x2153 DUP5 DUP3 PUSH2 0x1FB9 JUMP JUMPDEST SWAP4 POP POP PUSH2 0x2163 PUSH1 0x20 DUP4 ADD DUP4 PUSH2 0x1C3A JUMP JUMPDEST PUSH2 0x216D DUP5 DUP3 PUSH2 0x1FE0 JUMP JUMPDEST SWAP4 POP POP POP POP POP JUMP JUMPDEST PUSH1 0x0 PUSH2 0x2181 DUP4 DUP4 PUSH2 0x2138 JUMP JUMPDEST PUSH1 0x40 DUP4 ADD SWAP1 POP SWAP3 SWAP2 POP POP JUMP JUMPDEST PUSH1 0x0 DUP3 SWAP1 POP SWAP3 SWAP2 POP POP JUMP JUMPDEST PUSH1 0x0 PUSH1 0x40 DUP3 ADD SWAP1 POP SWAP2 SWAP1 POP JUMP JUMPDEST PUSH1 0x0 PUSH2 0x21B1 DUP4 DUP6 PUSH2 0x2123 JUMP JUMPDEST SWAP4 POP PUSH2 0x21BC DUP3 PUSH2 0x212E JUMP JUMPDEST DUP1 PUSH1 0x0 JUMPDEST DUP6 DUP2 LT ISZERO PUSH2 0x21F5 JUMPI PUSH2 0x21D2 DUP3 DUP5 PUSH2 0x218D JUMP JUMPDEST PUSH2 0x21DC DUP9 DUP3 PUSH2 0x2175 JUMP JUMPDEST SWAP8 POP PUSH2 0x21E7 DUP4 PUSH2 0x2198 JUMP JUMPDEST SWAP3 POP POP PUSH1 0x1 DUP2 ADD SWAP1 POP PUSH2 0x21C0 JUMP JUMPDEST POP DUP6 SWAP3 POP POP POP SWAP4 SWAP3 POP POP POP JUMP JUMPDEST PUSH1 0x0 PUSH2 0x220F DUP5 DUP5 DUP5 PUSH2 0x21A5 JUMP JUMPDEST SWAP1 POP SWAP4 SWAP3 POP POP POP JUMP JUMPDEST PUSH1 0x0 DUP3 CALLDATALOAD PUSH1 0x1 PUSH1 0x60 SUB DUP4 CALLDATASIZE SUB SUB DUP2 SLT PUSH2 0x2234 JUMPI PUSH2 0x2233 PUSH2 0x1F37 JUMP JUMPDEST JUMPDEST DUP3 DUP2 ADD SWAP2 POP POP SWAP3 SWAP2 POP POP JUMP JUMPDEST PUSH1 0x0 DUP1 DUP4 CALLDATALOAD PUSH1 0x1 PUSH1 0x20 SUB DUP5 CALLDATASIZE SUB SUB DUP2 SLT PUSH2 0x225D JUMPI PUSH2 0x225C PUSH2 0x1F37 JUMP JUMPDEST JUMPDEST DUP4 DUP2 ADD SWAP3 POP DUP3 CALLDATALOAD SWAP2 POP PUSH1 0x20 DUP4 ADD SWAP3 POP PUSH8 0xFFFFFFFFFFFFFFFF DUP3 GT ISZERO PUSH2 0x2285 JUMPI PUSH2 0x2284 PUSH2 0x1F2D JUMP JUMPDEST JUMPDEST PUSH1 0x1 DUP3 MUL CALLDATASIZE SUB DUP4 SGT ISZERO PUSH2 0x229B JUMPI PUSH2 0x229A PUSH2 0x1F32 JUMP JUMPDEST JUMPDEST POP SWAP3 POP SWAP3 SWAP1 POP JUMP JUMPDEST PUSH1 0x0 DUP2 SWAP1 POP SWAP3 SWAP2 POP POP JUMP JUMPDEST DUP3 DUP2 DUP4 CALLDATACOPY PUSH1 0x0 DUP4 DUP4 ADD MSTORE POP POP POP JUMP JUMPDEST PUSH1 0x0 PUSH1 0x1F NOT PUSH1 0x1F DUP4 ADD AND SWAP1 POP SWAP2 SWAP1 POP JUMP JUMPDEST PUSH1 0x0 PUSH2 0x22DA DUP4 DUP6 PUSH2 0x22A3 JUMP JUMPDEST SWAP4 POP PUSH2 0x22E7 DUP4 DUP6 DUP5 PUSH2 0x22AE JUMP JUMPDEST PUSH2 0x22F0 DUP4 PUSH2 0x22BD JUMP JUMPDEST DUP5 ADD SWAP1 POP SWAP4 SWAP3 POP POP POP JUMP JUMPDEST PUSH1 0x0 PUSH2 0x2308 DUP5 DUP5 DUP5 PUSH2 0x22CE JUMP JUMPDEST SWAP1 POP SWAP4 SWAP3 POP POP POP JUMP JUMPDEST PUSH1 0x0 DUP1 DUP4 ADD PUSH2 0x2323 PUSH1 0x0 DUP5 ADD DUP5 PUSH2 0x1BDE JUMP JUMPDEST PUSH2 0x232D DUP6 DUP3 PUSH2 0x1FB9 JUMP JUMPDEST SWAP5 POP POP PUSH2 0x233D PUSH1 0x20 DUP5 ADD DUP5 PUSH2 0x1C3A JUMP JUMPDEST PUSH2 0x2347 DUP6 DUP3 PUSH2 0x1FE0 JUMP JUMPDEST SWAP5 POP POP PUSH2 0x2357 PUSH1 0x40 DUP5 ADD DUP5 PUSH2 0x2240 JUMP JUMPDEST PUSH2 0x2362 DUP7 DUP3 DUP5 PUSH2 0x22FB JUMP JUMPDEST SWAP6 POP POP POP DUP4 SWAP2 POP POP SWAP3 SWAP2 POP POP JUMP JUMPDEST PUSH1 0x0 PUSH2 0x237C DUP4 DUP4 PUSH2 0x2311 JUMP JUMPDEST SWAP1 POP SWAP3 SWAP2 POP POP JUMP JUMPDEST PUSH1 0x0 DUP1 DUP4 ADD PUSH2 0x2396 PUSH1 0x0 DUP5 ADD DUP5 PUSH2 0x1F3C JUMP JUMPDEST PUSH2 0x23A1 DUP7 DUP3 DUP5 PUSH2 0x20AA JUMP JUMPDEST SWAP6 POP POP POP PUSH2 0x23B2 PUSH1 0x20 DUP5 ADD DUP5 PUSH2 0x20C0 JUMP JUMPDEST PUSH2 0x23BD DUP7 DUP3 DUP5 PUSH2 0x2202 JUMP JUMPDEST SWAP6 POP POP POP PUSH2 0x23CE PUSH1 0x40 DUP5 ADD DUP5 PUSH2 0x2218 JUMP JUMPDEST PUSH2 0x23D8 DUP6 DUP3 PUSH2 0x2370 JUMP JUMPDEST SWAP5 POP POP PUSH2 0x23E8 PUSH1 0x60 DUP5 ADD DUP5 PUSH2 0x1BDE JUMP JUMPDEST PUSH2 0x23F2 DUP6 DUP3 PUSH2 0x1FB9 JUMP JUMPDEST SWAP5 POP POP PUSH2 0x2402 PUSH1 0x80 DUP5 ADD DUP5 PUSH2 0x1BDE JUMP JUMPDEST PUSH2 0x240C DUP6 DUP3 PUSH2 0x1FB9 JUMP JUMPDEST SWAP5 POP POP DUP4 SWAP2 POP POP SWAP3 SWAP2 POP POP JUMP JUMPDEST PUSH1 0x0 PUSH2 0x2425 DUP3 DUP5 PUSH2 0x2384 JUMP JUMPDEST SWAP2 POP DUP2 SWAP1 POP SWAP3 SWAP2 POP POP JUMP JUMPDEST PUSH32 0x5061757361626C653A206E6F7420706175736564000000000000000000000000 PUSH1 0x0 DUP3 ADD MSTORE POP JUMP JUMPDEST PUSH1 0x0 PUSH2 0x2466 PUSH1 0x14 DUP4 PUSH2 0x1A85 JUMP JUMPDEST SWAP2 POP PUSH2 0x2471 DUP3 PUSH2 0x2430 JUMP JUMPDEST PUSH1 0x20 DUP3 ADD SWAP1 POP SWAP2 SWAP1 POP JUMP JUMPDEST PUSH1 0x0 PUSH1 0x20 DUP3 ADD SWAP1 POP DUP2 DUP2 SUB PUSH1 0x0 DUP4 ADD MSTORE PUSH2 0x2495 DUP2 PUSH2 0x2459 JUMP JUMPDEST SWAP1 POP SWAP2 SWAP1 POP JUMP JUMPDEST PUSH32 0x4E487B7100000000000000000000000000000000000000000000000000000000 PUSH1 0x0 MSTORE PUSH1 0x32 PUSH1 0x4 MSTORE PUSH1 0x24 PUSH1 0x0 REVERT JUMPDEST PUSH1 0x0 DUP3 CALLDATALOAD PUSH1 0x1 PUSH1 0x80 SUB DUP4 CALLDATASIZE SUB SUB DUP2 SLT PUSH2 0x24E7 JUMPI PUSH2 0x24E6 PUSH2 0x1B51 JUMP JUMPDEST JUMPDEST DUP1 DUP4 ADD SWAP2 POP POP SWAP3 SWAP2 POP POP JUMP JUMPDEST PUSH1 0x0 DUP1 DUP4 CALLDATALOAD PUSH1 0x1 PUSH1 0x20 SUB DUP5 CALLDATASIZE SUB SUB DUP2 SLT PUSH2 0x2510 JUMPI PUSH2 0x250F PUSH2 0x1B51 JUMP JUMPDEST JUMPDEST DUP1 DUP5 ADD SWAP3 POP DUP3 CALLDATALOAD SWAP2 POP PUSH8 0xFFFFFFFFFFFFFFFF DUP3 GT ISZERO PUSH2 0x2532 JUMPI PUSH2 0x2531 PUSH2 0x1B56 JUMP JUMPDEST JUMPDEST PUSH1 0x20 DUP4 ADD SWAP3 POP PUSH1 0x1 DUP3 MUL CALLDATASIZE SUB DUP4 SGT ISZERO PUSH2 0x254E JUMPI PUSH2 0x254D PUSH2 0x1B5B JUMP JUMPDEST JUMPDEST POP SWAP3 POP SWAP3 SWAP1 POP JUMP JUMPDEST PUSH1 0x0 DUP1 DUP4 CALLDATALOAD PUSH1 0x1 PUSH1 0x20 SUB DUP5 CALLDATASIZE SUB SUB DUP2 SLT PUSH2 0x2573 JUMPI PUSH2 0x2572 PUSH2 0x1B51 JUMP JUMPDEST JUMPDEST DUP1 DUP5 ADD SWAP3 POP DUP3 CALLDATALOAD SWAP2 POP PUSH8 0xFFFFFFFFFFFFFFFF DUP3 GT ISZERO PUSH2 0x2595 JUMPI PUSH2 0x2594 PUSH2 0x1B56 JUMP JUMPDEST JUMPDEST PUSH1 0x20 DUP4 ADD SWAP3 POP PUSH1 0x40 DUP3 MUL CALLDATASIZE SUB DUP4 SGT ISZERO PUSH2 0x25B1 JUMPI PUSH2 0x25B0 PUSH2 0x1B5B JUMP JUMPDEST JUMPDEST POP SWAP3 POP SWAP3 SWAP1 POP JUMP JUMPDEST PUSH1 0x0 DUP2 PUSH1 0x3 SIGNEXTEND SWAP1 POP SWAP2 SWAP1 POP JUMP JUMPDEST PUSH2 0x25CF DUP2 PUSH2 0x25B9 JUMP JUMPDEST DUP2 EQ PUSH2 0x25DA JUMPI PUSH1 0x0 DUP1 REVERT JUMPDEST POP JUMP JUMPDEST PUSH1 0x0 DUP2 CALLDATALOAD SWAP1 POP PUSH2 0x25EC DUP2 PUSH2 0x25C6 JUMP JUMPDEST SWAP3 SWAP2 POP POP JUMP JUMPDEST PUSH1 0x0 PUSH1 0x20 DUP3 DUP5 SUB SLT ISZERO PUSH2 0x2608 JUMPI PUSH2 0x2607 PUSH2 0x191D JUMP JUMPDEST JUMPDEST PUSH1 0x0 PUSH2 0x2616 DUP5 DUP3 DUP6 ADD PUSH2 0x25DD JUMP JUMPDEST SWAP2 POP POP SWAP3 SWAP2 POP POP JUMP JUMPDEST PUSH1 0x0 DUP2 MLOAD SWAP1 POP PUSH2 0x262E DUP2 PUSH2 0x1C0E JUMP JUMPDEST SWAP3 SWAP2 POP POP JUMP JUMPDEST PUSH1 0x0 PUSH1 0x20 DUP3 DUP5 SUB SLT ISZERO PUSH2 0x264A JUMPI PUSH2 0x2649 PUSH2 0x191D JUMP JUMPDEST JUMPDEST PUSH1 0x0 PUSH2 0x2658 DUP5 DUP3 DUP6 ADD PUSH2 0x261F JUMP JUMPDEST SWAP2 POP POP SWAP3 SWAP2 POP POP JUMP JUMPDEST PUSH2 0x266A DUP2 PUSH2 0x1C04 JUMP JUMPDEST DUP3 MSTORE POP POP JUMP JUMPDEST PUSH1 0x0 PUSH1 0x20 DUP3 ADD SWAP1 POP PUSH2 0x2685 PUSH1 0x0 DUP4 ADD DUP5 PUSH2 0x2661 JUMP JUMPDEST SWAP3 SWAP2 POP POP JUMP JUMPDEST PUSH32 0x4E487B7100000000000000000000000000000000000000000000000000000000 PUSH1 0x0 MSTORE PUSH1 0x11 PUSH1 0x4 MSTORE PUSH1 0x24 PUSH1 0x0 REVERT JUMPDEST PUSH1 0x0 PUSH2 0x26C5 DUP3 PUSH2 0x1C04 JUMP JUMPDEST SWAP2 POP PUSH2 0x26D0 DUP4 PUSH2 0x1C04 JUMP JUMPDEST SWAP3 POP DUP3 DUP3 ADD SWAP1 POP DUP1 DUP3 GT ISZERO PUSH2 0x26E8 JUMPI PUSH2 0x26E7 PUSH2 0x268B JUMP JUMPDEST JUMPDEST SWAP3 SWAP2 POP POP JUMP JUMPDEST PUSH1 0x0 PUSH2 0x26F9 DUP3 PUSH2 0x1C04 JUMP JUMPDEST SWAP2 POP PUSH2 0x2704 DUP4 PUSH2 0x1C04 JUMP JUMPDEST SWAP3 POP DUP3 DUP3 SUB SWAP1 POP DUP2 DUP2 GT ISZERO PUSH2 0x271C JUMPI PUSH2 0x271B PUSH2 0x268B JUMP JUMPDEST JUMPDEST SWAP3 SWAP2 POP POP JUMP JUMPDEST PUSH1 0x0 DUP2 MLOAD SWAP1 POP SWAP2 SWAP1 POP JUMP JUMPDEST PUSH1 0x0 DUP2 SWAP1 POP SWAP3 SWAP2 POP POP JUMP JUMPDEST PUSH1 0x0 JUMPDEST DUP4 DUP2 LT ISZERO PUSH2 0x2756 JUMPI DUP1 DUP3 ADD MLOAD DUP2 DUP5 ADD MSTORE PUSH1 0x20 DUP2 ADD SWAP1 POP PUSH2 0x273B JUMP JUMPDEST PUSH1 0x0 DUP5 DUP5 ADD MSTORE POP POP POP POP JUMP JUMPDEST PUSH1 0x0 PUSH2 0x276D DUP3 PUSH2 0x2722 JUMP JUMPDEST PUSH2 0x2777 DUP2 DUP6 PUSH2 0x272D JUMP JUMPDEST SWAP4 POP PUSH2 0x2787 DUP2 DUP6 PUSH1 0x20 DUP7 ADD PUSH2 0x2738 JUMP JUMPDEST DUP1 DUP5 ADD SWAP2 POP POP SWAP3 SWAP2 POP POP JUMP JUMPDEST PUSH1 0x0 PUSH2 0x279F DUP3 DUP7 PUSH2 0x2762 JUMP JUMPDEST SWAP2 POP PUSH2 0x27AB DUP3 DUP6 PUSH2 0x2762 JUMP JUMPDEST SWAP2 POP PUSH2 0x27B7 DUP3 DUP5 PUSH2 0x2762 JUMP JUMPDEST SWAP2 POP DUP2 SWAP1 POP SWAP5 SWAP4 POP POP POP POP JUMP JUMPDEST PUSH1 0x0 PUSH2 0x27D0 DUP3 DUP5 PUSH2 0x2762 JUMP JUMPDEST SWAP2 POP DUP2 SWAP1 POP SWAP3 SWAP2 POP POP JUMP JUMPDEST PUSH1 0x0 PUSH1 0x60 DUP3 ADD SWAP1 POP PUSH2 0x27F0 PUSH1 0x0 DUP4 ADD DUP7 PUSH2 0x18BD JUMP JUMPDEST PUSH2 0x27FD PUSH1 0x20 DUP4 ADD DUP6 PUSH2 0x2661 JUMP JUMPDEST PUSH2 0x280A PUSH1 0x40 DUP4 ADD DUP5 PUSH2 0x2661 JUMP JUMPDEST SWAP5 SWAP4 POP POP POP POP JUMP JUMPDEST POP JUMP JUMPDEST PUSH1 0x0 PUSH2 0x2822 PUSH1 0x0 DUP4 PUSH2 0x272D JUMP JUMPDEST SWAP2 POP PUSH2 0x282D DUP3 PUSH2 0x2812 JUMP JUMPDEST PUSH1 0x0 DUP3 ADD SWAP1 POP SWAP2 SWAP1 POP JUMP JUMPDEST PUSH1 0x0 PUSH2 0x2843 DUP3 PUSH2 0x2815 JUMP JUMPDEST SWAP2 POP DUP2 SWAP1 POP SWAP2 SWAP1 POP JUMP JUMPDEST PUSH1 0x0 PUSH1 0x40 DUP3 ADD SWAP1 POP PUSH2 0x2862 PUSH1 0x0 DUP4 ADD DUP6 PUSH2 0x2661 JUMP JUMPDEST PUSH2 0x286F PUSH1 0x20 DUP4 ADD DUP5 PUSH2 0x2661 JUMP JUMPDEST SWAP4 SWAP3 POP POP POP JUMP JUMPDEST PUSH1 0x0 PUSH2 0x2882 DUP4 DUP6 PUSH2 0x272D JUMP JUMPDEST SWAP4 POP PUSH2 0x288F DUP4 DUP6 DUP5 PUSH2 0x22AE JUMP JUMPDEST DUP3 DUP5 ADD SWAP1 POP SWAP4 SWAP3 POP POP POP JUMP JUMPDEST PUSH1 0x0 PUSH2 0x28A8 DUP3 DUP5 DUP7 PUSH2 0x2876 JUMP JUMPDEST SWAP2 POP DUP2 SWAP1 POP SWAP4 SWAP3 POP POP POP JUMP JUMPDEST PUSH1 0x0 DUP3 DUP3 MSTORE PUSH1 0x20 DUP3 ADD SWAP1 POP SWAP3 SWAP2 POP POP JUMP JUMPDEST PUSH1 0x0 PUSH2 0x28D1 DUP4 DUP6 PUSH2 0x28B4 JUMP JUMPDEST SWAP4 POP PUSH2 0x28DE DUP4 DUP6 DUP5 PUSH2 0x22AE JUMP JUMPDEST PUSH2 0x28E7 DUP4 PUSH2 0x22BD JUMP JUMPDEST DUP5 ADD SWAP1 POP SWAP4 SWAP3 POP POP POP JUMP JUMPDEST PUSH1 0x0 PUSH1 0x40 DUP3 ADD SWAP1 POP PUSH2 0x2907 PUSH1 0x0 DUP4 ADD DUP7 PUSH2 0x2661 JUMP JUMPDEST DUP2 DUP2 SUB PUSH1 0x20 DUP4 ADD MSTORE PUSH2 0x291A DUP2 DUP5 DUP7 PUSH2 0x28C5 JUMP JUMPDEST SWAP1 POP SWAP5 SWAP4 POP POP POP POP JUMP JUMPDEST PUSH32 0x736C6963655F6F766572666C6F77000000000000000000000000000000000000 PUSH1 0x0 DUP3 ADD MSTORE POP JUMP JUMPDEST PUSH1 0x0 PUSH2 0x295A PUSH1 0xE DUP4 PUSH2 0x1A85 JUMP JUMPDEST SWAP2 POP PUSH2 0x2965 DUP3 PUSH2 0x2924 JUMP JUMPDEST PUSH1 0x20 DUP3 ADD SWAP1 POP SWAP2 SWAP1 POP JUMP JUMPDEST PUSH1 0x0 PUSH1 0x20 DUP3 ADD SWAP1 POP DUP2 DUP2 SUB PUSH1 0x0 DUP4 ADD MSTORE PUSH2 0x2989 DUP2 PUSH2 0x294D JUMP JUMPDEST SWAP1 POP SWAP2 SWAP1 POP JUMP JUMPDEST PUSH32 0x736C6963655F6F75744F66426F756E6473000000000000000000000000000000 PUSH1 0x0 DUP3 ADD MSTORE POP JUMP JUMPDEST PUSH1 0x0 PUSH2 0x29C6 PUSH1 0x11 DUP4 PUSH2 0x1A85 JUMP JUMPDEST SWAP2 POP PUSH2 0x29D1 DUP3 PUSH2 0x2990 JUMP JUMPDEST PUSH1 0x20 DUP3 ADD SWAP1 POP SWAP2 SWAP1 POP JUMP JUMPDEST PUSH1 0x0 PUSH1 0x20 DUP3 ADD SWAP1 POP DUP2 DUP2 SUB PUSH1 0x0 DUP4 ADD MSTORE PUSH2 0x29F5 DUP2 PUSH2 0x29B9 JUMP JUMPDEST SWAP1 POP SWAP2 SWAP1 POP JUMP JUMPDEST PUSH1 0x0 PUSH2 0x2A07 DUP3 PUSH2 0x2722 JUMP JUMPDEST PUSH2 0x2A11 DUP2 DUP6 PUSH2 0x28B4 JUMP JUMPDEST SWAP4 POP PUSH2 0x2A21 DUP2 DUP6 PUSH1 0x20 DUP7 ADD PUSH2 0x2738 JUMP JUMPDEST PUSH2 0x2A2A DUP2 PUSH2 0x22BD JUMP JUMPDEST DUP5 ADD SWAP2 POP POP SWAP3 SWAP2 POP POP JUMP JUMPDEST PUSH1 0x0 PUSH1 0x60 DUP3 ADD SWAP1 POP PUSH2 0x2A4A PUSH1 0x0 DUP4 ADD DUP7 PUSH2 0x18BD JUMP JUMPDEST PUSH2 0x2A57 PUSH1 0x20 DUP4 ADD DUP6 PUSH2 0x2661 JUMP JUMPDEST DUP2 DUP2 SUB PUSH1 0x40 DUP4 ADD MSTORE PUSH2 0x2A69 DUP2 DUP5 PUSH2 0x29FC JUMP JUMPDEST SWAP1 POP SWAP5 SWAP4 POP POP POP POP JUMP JUMPDEST PUSH1 0x0 PUSH1 0x40 DUP3 ADD SWAP1 POP PUSH2 0x2A88 PUSH1 0x0 DUP4 ADD DUP6 PUSH2 0x18BD JUMP JUMPDEST PUSH2 0x2A95 PUSH1 0x20 DUP4 ADD DUP5 PUSH2 0x2661 JUMP JUMPDEST SWAP4 SWAP3 POP POP POP JUMP JUMPDEST PUSH1 0x0 DUP2 SWAP1 POP SWAP2 SWAP1 POP JUMP JUMPDEST PUSH1 0x0 PUSH1 0xFF DUP3 AND SWAP1 POP SWAP2 SWAP1 POP JUMP JUMPDEST PUSH1 0x0 DUP2 SWAP1 POP SWAP2 SWAP1 POP JUMP JUMPDEST PUSH1 0x0 PUSH2 0x2AD8 PUSH2 0x2AD3 PUSH2 0x2ACE DUP5 PUSH2 0x2A9C JUMP JUMPDEST PUSH2 0x2AB3 JUMP JUMPDEST PUSH2 0x2AA6 JUMP JUMPDEST SWAP1 POP SWAP2 SWAP1 POP JUMP JUMPDEST PUSH2 0x2AE8 DUP2 PUSH2 0x2ABD JUMP JUMPDEST DUP3 MSTORE POP POP JUMP JUMPDEST PUSH1 0x0 PUSH1 0x40 DUP3 ADD SWAP1 POP PUSH2 0x2B03 PUSH1 0x0 DUP4 ADD DUP6 PUSH2 0x18BD JUMP JUMPDEST PUSH2 0x2B10 PUSH1 0x20 DUP4 ADD DUP5 PUSH2 0x2ADF JUMP JUMPDEST SWAP4 SWAP3 POP POP POP JUMP JUMPDEST PUSH2 0x2B20 DUP2 PUSH2 0x18E7 JUMP JUMPDEST DUP2 EQ PUSH2 0x2B2B JUMPI PUSH1 0x0 DUP1 REVERT JUMPDEST POP JUMP JUMPDEST PUSH1 0x0 DUP2 MLOAD SWAP1 POP PUSH2 0x2B3D DUP2 PUSH2 0x2B17 JUMP JUMPDEST SWAP3 SWAP2 POP POP JUMP JUMPDEST PUSH1 0x0 PUSH1 0x20 DUP3 DUP5 SUB SLT ISZERO PUSH2 0x2B59 JUMPI PUSH2 0x2B58 PUSH2 0x191D JUMP JUMPDEST JUMPDEST PUSH1 0x0 PUSH2 0x2B67 DUP5 DUP3 DUP6 ADD PUSH2 0x2B2E JUMP JUMPDEST SWAP2 POP POP SWAP3 SWAP2 POP POP JUMP JUMPDEST PUSH32 0x5361666545524332303A204552433230206F7065726174696F6E20646964206E PUSH1 0x0 DUP3 ADD MSTORE PUSH32 0x6F74207375636365656400000000000000000000000000000000000000000000 PUSH1 0x20 DUP3 ADD MSTORE POP JUMP JUMPDEST PUSH1 0x0 PUSH2 0x2BCC PUSH1 0x2A DUP4 PUSH2 0x1A85 JUMP JUMPDEST SWAP2 POP PUSH2 0x2BD7 DUP3 PUSH2 0x2B70 JUMP JUMPDEST PUSH1 0x40 DUP3 ADD SWAP1 POP SWAP2 SWAP1 POP JUMP JUMPDEST PUSH1 0x0 PUSH1 0x20 DUP3 ADD SWAP1 POP DUP2 DUP2 SUB PUSH1 0x0 DUP4 ADD MSTORE PUSH2 0x2BFB DUP2 PUSH2 0x2BBF JUMP JUMPDEST SWAP1 POP SWAP2 SWAP1 POP JUMP JUMPDEST PUSH32 0x416464726573733A20696E73756666696369656E742062616C616E636520666F PUSH1 0x0 DUP3 ADD MSTORE PUSH32 0x722063616C6C0000000000000000000000000000000000000000000000000000 PUSH1 0x20 DUP3 ADD MSTORE POP JUMP JUMPDEST PUSH1 0x0 PUSH2 0x2C5E PUSH1 0x26 DUP4 PUSH2 0x1A85 JUMP JUMPDEST SWAP2 POP PUSH2 0x2C69 DUP3 PUSH2 0x2C02 JUMP JUMPDEST PUSH1 0x40 DUP3 ADD SWAP1 POP SWAP2 SWAP1 POP JUMP JUMPDEST PUSH1 0x0 PUSH1 0x20 DUP3 ADD SWAP1 POP DUP2 DUP2 SUB PUSH1 0x0 DUP4 ADD MSTORE PUSH2 0x2C8D DUP2 PUSH2 0x2C51 JUMP JUMPDEST SWAP1 POP SWAP2 SWAP1 POP JUMP JUMPDEST PUSH32 0x416464726573733A2063616C6C20746F206E6F6E2D636F6E7472616374000000 PUSH1 0x0 DUP3 ADD MSTORE POP JUMP JUMPDEST PUSH1 0x0 PUSH2 0x2CCA PUSH1 0x1D DUP4 PUSH2 0x1A85 JUMP JUMPDEST SWAP2 POP PUSH2 0x2CD5 DUP3 PUSH2 0x2C94 JUMP JUMPDEST PUSH1 0x20 DUP3 ADD SWAP1 POP SWAP2 SWAP1 POP JUMP JUMPDEST PUSH1 0x0 PUSH1 0x20 DUP3 ADD SWAP1 POP DUP2 DUP2 SUB PUSH1 0x0 DUP4 ADD MSTORE PUSH2 0x2CF9 DUP2 PUSH2 0x2CBD JUMP JUMPDEST SWAP1 POP SWAP2 SWAP1 POP JUMP JUMPDEST PUSH1 0x0 DUP2 MLOAD SWAP1 POP SWAP2 SWAP1 POP JUMP JUMPDEST PUSH1 0x0 PUSH2 0x2D16 DUP3 PUSH2 0x2D00 JUMP JUMPDEST PUSH2 0x2D20 DUP2 DUP6 PUSH2 0x1A85 JUMP JUMPDEST SWAP4 POP PUSH2 0x2D30 DUP2 DUP6 PUSH1 0x20 DUP7 ADD PUSH2 0x2738 JUMP JUMPDEST PUSH2 0x2D39 DUP2 PUSH2 0x22BD JUMP JUMPDEST DUP5 ADD SWAP2 POP POP SWAP3 SWAP2 POP POP JUMP JUMPDEST PUSH1 0x0 PUSH1 0x20 DUP3 ADD SWAP1 POP DUP2 DUP2 SUB PUSH1 0x0 DUP4 ADD MSTORE PUSH2 0x2D5E DUP2 DUP5 PUSH2 0x2D0B JUMP JUMPDEST SWAP1 POP SWAP3 SWAP2 POP POP JUMP INVALID LOG2 PUSH5 0x6970667358 0x22 SLT KECCAK256 0xCC SIGNEXTEND 0xAA 0xC6 CHAINID 0xE6 0x4F 0xEB PUSH9 0x414F9AA98FB07596F1 DIV 0xBE 0xAE 0x26 0xB9 SGT DUP16 0xE1 0xF8 PREVRANDAO 0xA8 0xAE 0xAB MUL PUSH5 0x736F6C6343 STOP ADDMOD SGT STOP CALLER PUSH1 0xA0 PUSH1 0x40 MSTORE CALLVALUE DUP1 ISZERO PUSH2 0x10 JUMPI PUSH1 0x0 DUP1 REVERT JUMPDEST POP CALLER PUSH20 0xFFFFFFFFFFFFFFFFFFFFFFFFFFFFFFFFFFFFFFFF AND PUSH1 0x80 DUP2 PUSH20 0xFFFFFFFFFFFFFFFFFFFFFFFFFFFFFFFFFFFFFFFF AND DUP2 MSTORE POP POP PUSH1 0x80 MLOAD PUSH2 0xA6A PUSH2 0x65 PUSH1 0x0 CODECOPY PUSH1 0x0 DUP2 DUP2 PUSH1 0x77 ADD MSTORE PUSH1 0x9B ADD MSTORE PUSH2 0xA6A PUSH1 0x0 RETURN INVALID PUSH1 0x80 PUSH1 0x40 MSTORE CALLVALUE DUP1 ISZERO PUSH2 0x10 JUMPI PUSH1 0x0 DUP1 REVERT JUMPDEST POP PUSH1 0x4 CALLDATASIZE LT PUSH2 0x36 JUMPI PUSH1 0x0 CALLDATALOAD PUSH1 0xE0 SHR DUP1 PUSH4 0x262D6152 EQ PUSH2 0x3B JUMPI DUP1 PUSH4 0x77FC3FA8 EQ PUSH2 0x59 JUMPI JUMPDEST PUSH1 0x0 DUP1 REVERT JUMPDEST PUSH2 0x43 PUSH2 0x75 JUMP JUMPDEST PUSH1 0x40 MLOAD PUSH2 0x50 SWAP2 SWAP1 PUSH2 0x56D JUMP JUMPDEST PUSH1 0x40 MLOAD DUP1 SWAP2 SUB SWAP1 RETURN JUMPDEST PUSH2 0x73 PUSH1 0x4 DUP1 CALLDATASIZE SUB DUP2 ADD SWAP1 PUSH2 0x6E SWAP2 SWAP1 PUSH2 0x623 JUMP JUMPDEST PUSH2 0x99 JUMP JUMPDEST STOP JUMPDEST PUSH32 0x0 DUP2 JUMP JUMPDEST PUSH32 0x0 PUSH20 0xFFFFFFFFFFFFFFFFFFFFFFFFFFFFFFFFFFFFFFFF AND CALLER PUSH20 0xFFFFFFFFFFFFFFFFFFFFFFFFFFFFFFFFFFFFFFFF AND EQ PUSH2 0x129 JUMPI CALLER PUSH1 0x40 MLOAD PUSH32 0x403E63E900000000000000000000000000000000000000000000000000000000 DUP2 MSTORE PUSH1 0x4 ADD PUSH2 0x120 SWAP2 SWAP1 PUSH2 0x56D JUMP JUMPDEST PUSH1 0x40 MLOAD DUP1 SWAP2 SUB SWAP1 REVERT JUMPDEST PUSH1 0x0 DUP3 DUP3 SWAP1 POP SWAP1 POP PUSH1 0x0 JUMPDEST DUP2 DUP2 LT ISZERO PUSH2 0x207 JUMPI CALLDATASIZE DUP5 DUP5 DUP4 DUP2 DUP2 LT PUSH2 0x150 JUMPI PUSH2 0x14F PUSH2 0x683 JUMP JUMPDEST JUMPDEST SWAP1 POP PUSH1 0x40 MUL ADD SWAP1 POP DUP2 PUSH1 0x1 ADD SWAP2 POP PUSH20 0xEEEEEEEEEEEEEEEEEEEEEEEEEEEEEEEEEEEEEEEE PUSH20 0xFFFFFFFFFFFFFFFFFFFFFFFFFFFFFFFFFFFFFFFF AND DUP2 PUSH1 0x0 ADD PUSH1 0x20 DUP2 ADD SWAP1 PUSH2 0x19C SWAP2 SWAP1 PUSH2 0x6B2 JUMP JUMPDEST PUSH20 0xFFFFFFFFFFFFFFFFFFFFFFFFFFFFFFFFFFFFFFFF AND SUB PUSH2 0x1BD JUMPI POP PUSH2 0x202 JUMP JUMPDEST PUSH2 0x200 DUP7 CALLER DUP4 PUSH1 0x20 ADD CALLDATALOAD DUP5 PUSH1 0x0 ADD PUSH1 0x20 DUP2 ADD SWAP1 PUSH2 0x1DA SWAP2 SWAP1 PUSH2 0x6B2 JUMP JUMPDEST PUSH20 0xFFFFFFFFFFFFFFFFFFFFFFFFFFFFFFFFFFFFFFFF AND PUSH2 0x20E SWAP1 SWAP4 SWAP3 SWAP2 SWAP1 PUSH4 0xFFFFFFFF AND JUMP JUMPDEST POP JUMPDEST PUSH2 0x134 JUMP JUMPDEST POP POP POP POP POP JUMP JUMPDEST PUSH2 0x291 DUP5 PUSH4 0x23B872DD PUSH1 0xE0 SHL DUP6 DUP6 DUP6 PUSH1 0x40 MLOAD PUSH1 0x24 ADD PUSH2 0x22F SWAP4 SWAP3 SWAP2 SWAP1 PUSH2 0x6F8 JUMP JUMPDEST PUSH1 0x40 MLOAD PUSH1 0x20 DUP2 DUP4 SUB SUB DUP2 MSTORE SWAP1 PUSH1 0x40 MSTORE SWAP1 PUSH28 0xFFFFFFFFFFFFFFFFFFFFFFFFFFFFFFFFFFFFFFFFFFFFFFFFFFFFFFFF NOT AND PUSH1 0x20 DUP3 ADD DUP1 MLOAD PUSH28 0xFFFFFFFFFFFFFFFFFFFFFFFFFFFFFFFFFFFFFFFFFFFFFFFFFFFFFFFF DUP4 DUP2 DUP4 AND OR DUP4 MSTORE POP POP POP POP PUSH2 0x297 JUMP JUMPDEST POP POP POP POP JUMP JUMPDEST PUSH1 0x0 PUSH2 0x2F9 DUP3 PUSH1 0x40 MLOAD DUP1 PUSH1 0x40 ADD PUSH1 0x40 MSTORE DUP1 PUSH1 0x20 DUP2 MSTORE PUSH1 0x20 ADD PUSH32 0x5361666545524332303A206C6F772D6C6576656C2063616C6C206661696C6564 DUP2 MSTORE POP DUP6 PUSH20 0xFFFFFFFFFFFFFFFFFFFFFFFFFFFFFFFFFFFFFFFF AND PUSH2 0x35F SWAP1 SWAP3 SWAP2 SWAP1 PUSH4 0xFFFFFFFF AND JUMP JUMPDEST SWAP1 POP PUSH1 0x0 DUP2 MLOAD EQ DUP1 PUSH2 0x31B JUMPI POP DUP1 DUP1 PUSH1 0x20 ADD SWAP1 MLOAD DUP2 ADD SWAP1 PUSH2 0x31A SWAP2 SWAP1 PUSH2 0x767 JUMP JUMPDEST JUMPDEST PUSH2 0x35A JUMPI PUSH1 0x40 MLOAD PUSH32 0x8C379A000000000000000000000000000000000000000000000000000000000 DUP2 MSTORE PUSH1 0x4 ADD PUSH2 0x351 SWAP1 PUSH2 0x817 JUMP JUMPDEST PUSH1 0x40 MLOAD DUP1 SWAP2 SUB SWAP1 REVERT JUMPDEST POP POP POP JUMP JUMPDEST PUSH1 0x60 PUSH2 0x36E DUP5 DUP5 PUSH1 0x0 DUP6 PUSH2 0x377 JUMP JUMPDEST SWAP1 POP SWAP4 SWAP3 POP POP POP JUMP JUMPDEST PUSH1 0x60 DUP3 SELFBALANCE LT ISZERO PUSH2 0x3BC JUMPI PUSH1 0x40 MLOAD PUSH32 0x8C379A000000000000000000000000000000000000000000000000000000000 DUP2 MSTORE PUSH1 0x4 ADD PUSH2 0x3B3 SWAP1 PUSH2 0x8A9 JUMP JUMPDEST PUSH1 0x40 MLOAD DUP1 SWAP2 SUB SWAP1 REVERT JUMPDEST PUSH1 0x0 DUP1 DUP7 PUSH20 0xFFFFFFFFFFFFFFFFFFFFFFFFFFFFFFFFFFFFFFFF AND DUP6 DUP8 PUSH1 0x40 MLOAD PUSH2 0x3E5 SWAP2 SWAP1 PUSH2 0x93A JUMP JUMPDEST PUSH1 0x0 PUSH1 0x40 MLOAD DUP1 DUP4 SUB DUP2 DUP6 DUP8 GAS CALL SWAP3 POP POP POP RETURNDATASIZE DUP1 PUSH1 0x0 DUP2 EQ PUSH2 0x422 JUMPI PUSH1 0x40 MLOAD SWAP2 POP PUSH1 0x1F NOT PUSH1 0x3F RETURNDATASIZE ADD AND DUP3 ADD PUSH1 0x40 MSTORE RETURNDATASIZE DUP3 MSTORE RETURNDATASIZE PUSH1 0x0 PUSH1 0x20 DUP5 ADD RETURNDATACOPY PUSH2 0x427 JUMP JUMPDEST PUSH1 0x60 SWAP2 POP JUMPDEST POP SWAP2 POP SWAP2 POP PUSH2 0x438 DUP8 DUP4 DUP4 DUP8 PUSH2 0x444 JUMP JUMPDEST SWAP3 POP POP POP SWAP5 SWAP4 POP POP POP POP JUMP JUMPDEST PUSH1 0x60 DUP4 ISZERO PUSH2 0x4A6 JUMPI PUSH1 0x0 DUP4 MLOAD SUB PUSH2 0x49E JUMPI PUSH2 0x45E DUP6 PUSH2 0x4B9 JUMP JUMPDEST PUSH2 0x49D JUMPI PUSH1 0x40 MLOAD PUSH32 0x8C379A000000000000000000000000000000000000000000000000000000000 DUP2 MSTORE PUSH1 0x4 ADD PUSH2 0x494 SWAP1 PUSH2 0x99D JUMP JUMPDEST PUSH1 0x40 MLOAD DUP1 SWAP2 SUB SWAP1 REVERT JUMPDEST JUMPDEST DUP3 SWAP1 POP PUSH2 0x4B1 JUMP JUMPDEST PUSH2 0x4B0 DUP4 DUP4 PUSH2 0x4DC JUMP JUMPDEST JUMPDEST SWAP5 SWAP4 POP POP POP POP JUMP JUMPDEST PUSH1 0x0 DUP1 DUP3 PUSH20 0xFFFFFFFFFFFFFFFFFFFFFFFFFFFFFFFFFFFFFFFF AND EXTCODESIZE GT SWAP1 POP SWAP2 SWAP1 POP JUMP JUMPDEST PUSH1 0x0 DUP3 MLOAD GT ISZERO PUSH2 0x4EF JUMPI DUP2 MLOAD DUP1 DUP4 PUSH1 0x20 ADD REVERT JUMPDEST DUP1 PUSH1 0x40 MLOAD PUSH32 0x8C379A000000000000000000000000000000000000000000000000000000000 DUP2 MSTORE PUSH1 0x4 ADD PUSH2 0x523 SWAP2 SWAP1 PUSH2 0xA12 JUMP JUMPDEST PUSH1 0x40 MLOAD DUP1 SWAP2 SUB SWAP1 REVERT JUMPDEST PUSH1 0x0 PUSH20 0xFFFFFFFFFFFFFFFFFFFFFFFFFFFFFFFFFFFFFFFF DUP3 AND SWAP1 POP SWAP2 SWAP1 POP JUMP JUMPDEST PUSH1 0x0 PUSH2 0x557 DUP3 PUSH2 0x52C JUMP JUMPDEST SWAP1 POP SWAP2 SWAP1 POP JUMP JUMPDEST PUSH2 0x567 DUP2 PUSH2 0x54C JUMP JUMPDEST DUP3 MSTORE POP POP JUMP JUMPDEST PUSH1 0x0 PUSH1 0x20 DUP3 ADD SWAP1 POP PUSH2 0x582 PUSH1 0x0 DUP4 ADD DUP5 PUSH2 0x55E JUMP JUMPDEST SWAP3 SWAP2 POP POP JUMP JUMPDEST PUSH1 0x0 DUP1 REVERT JUMPDEST PUSH1 0x0 DUP1 REVERT JUMPDEST PUSH2 0x59B DUP2 PUSH2 0x54C JUMP JUMPDEST DUP2 EQ PUSH2 0x5A6 JUMPI PUSH1 0x0 DUP1 REVERT JUMPDEST POP JUMP JUMPDEST PUSH1 0x0 DUP2 CALLDATALOAD SWAP1 POP PUSH2 0x5B8 DUP2 PUSH2 0x592 JUMP JUMPDEST SWAP3 SWAP2 POP POP JUMP JUMPDEST PUSH1 0x0 DUP1 REVERT JUMPDEST PUSH1 0x0 DUP1 REVERT JUMPDEST PUSH1 0x0 DUP1 REVERT JUMPDEST PUSH1 0x0 DUP1 DUP4 PUSH1 0x1F DUP5 ADD SLT PUSH2 0x5E3 JUMPI PUSH2 0x5E2 PUSH2 0x5BE JUMP JUMPDEST JUMPDEST DUP3 CALLDATALOAD SWAP1 POP PUSH8 0xFFFFFFFFFFFFFFFF DUP2 GT ISZERO PUSH2 0x600 JUMPI PUSH2 0x5FF PUSH2 0x5C3 JUMP JUMPDEST JUMPDEST PUSH1 0x20 DUP4 ADD SWAP2 POP DUP4 PUSH1 0x40 DUP3 MUL DUP4 ADD GT ISZERO PUSH2 0x61C JUMPI PUSH2 0x61B PUSH2 0x5C8 JUMP JUMPDEST JUMPDEST SWAP3 POP SWAP3 SWAP1 POP JUMP JUMPDEST PUSH1 0x0 DUP1 PUSH1 0x0 PUSH1 0x40 DUP5 DUP7 SUB SLT ISZERO PUSH2 0x63C JUMPI PUSH2 0x63B PUSH2 0x588 JUMP JUMPDEST JUMPDEST PUSH1 0x0 PUSH2 0x64A DUP7 DUP3 DUP8 ADD PUSH2 0x5A9 JUMP JUMPDEST SWAP4 POP POP PUSH1 0x20 DUP5 ADD CALLDATALOAD PUSH8 0xFFFFFFFFFFFFFFFF DUP2 GT ISZERO PUSH2 0x66B JUMPI PUSH2 0x66A PUSH2 0x58D JUMP JUMPDEST JUMPDEST PUSH2 0x677 DUP7 DUP3 DUP8 ADD PUSH2 0x5CD JUMP JUMPDEST SWAP3 POP SWAP3 POP POP SWAP3 POP SWAP3 POP SWAP3 JUMP JUMPDEST PUSH32 0x4E487B7100000000000000000000000000000000000000000000000000000000 PUSH1 0x0 MSTORE PUSH1 0x32 PUSH1 0x4 MSTORE PUSH1 0x24 PUSH1 0x0 REVERT JUMPDEST PUSH1 0x0 PUSH1 0x20 DUP3 DUP5 SUB SLT ISZERO PUSH2 0x6C8 JUMPI PUSH2 0x6C7 PUSH2 0x588 JUMP JUMPDEST JUMPDEST PUSH1 0x0 PUSH2 0x6D6 DUP5 DUP3 DUP6 ADD PUSH2 0x5A9 JUMP JUMPDEST SWAP2 POP POP SWAP3 SWAP2 POP POP JUMP JUMPDEST PUSH1 0x0 DUP2 SWAP1 POP SWAP2 SWAP1 POP JUMP JUMPDEST PUSH2 0x6F2 DUP2 PUSH2 0x6DF JUMP JUMPDEST DUP3 MSTORE POP POP JUMP JUMPDEST PUSH1 0x0 PUSH1 0x60 DUP3 ADD SWAP1 POP PUSH2 0x70D PUSH1 0x0 DUP4 ADD DUP7 PUSH2 0x55E JUMP JUMPDEST PUSH2 0x71A PUSH1 0x20 DUP4 ADD DUP6 PUSH2 0x55E JUMP JUMPDEST PUSH2 0x727 PUSH1 0x40 DUP4 ADD DUP5 PUSH2 0x6E9 JUMP JUMPDEST SWAP5 SWAP4 POP POP POP POP JUMP JUMPDEST PUSH1 0x0 DUP2 ISZERO ISZERO SWAP1 POP SWAP2 SWAP1 POP JUMP JUMPDEST PUSH2 0x744 DUP2 PUSH2 0x72F JUMP JUMPDEST DUP2 EQ PUSH2 0x74F JUMPI PUSH1 0x0 DUP1 REVERT JUMPDEST POP JUMP JUMPDEST PUSH1 0x0 DUP2 MLOAD SWAP1 POP PUSH2 0x761 DUP2 PUSH2 0x73B JUMP JUMPDEST SWAP3 SWAP2 POP POP JUMP JUMPDEST PUSH1 0x0 PUSH1 0x20 DUP3 DUP5 SUB SLT ISZERO PUSH2 0x77D JUMPI PUSH2 0x77C PUSH2 0x588 JUMP JUMPDEST JUMPDEST PUSH1 0x0 PUSH2 0x78B DUP5 DUP3 DUP6 ADD PUSH2 0x752 JUMP JUMPDEST SWAP2 POP POP SWAP3 SWAP2 POP POP JUMP JUMPDEST PUSH1 0x0 DUP3 DUP3 MSTORE PUSH1 0x20 DUP3 ADD SWAP1 POP SWAP3 SWAP2 POP POP JUMP JUMPDEST PUSH32 0x5361666545524332303A204552433230206F7065726174696F6E20646964206E PUSH1 0x0 DUP3 ADD MSTORE PUSH32 0x6F74207375636365656400000000000000000000000000000000000000000000 PUSH1 0x20 DUP3 ADD MSTORE POP JUMP JUMPDEST PUSH1 0x0 PUSH2 0x801 PUSH1 0x2A DUP4 PUSH2 0x794 JUMP JUMPDEST SWAP2 POP PUSH2 0x80C DUP3 PUSH2 0x7A5 JUMP JUMPDEST PUSH1 0x40 DUP3 ADD SWAP1 POP SWAP2 SWAP1 POP JUMP JUMPDEST PUSH1 0x0 PUSH1 0x20 DUP3 ADD SWAP1 POP DUP2 DUP2 SUB PUSH1 0x0 DUP4 ADD MSTORE PUSH2 0x830 DUP2 PUSH2 0x7F4 JUMP JUMPDEST SWAP1 POP SWAP2 SWAP1 POP JUMP JUMPDEST PUSH32 0x416464726573733A20696E73756666696369656E742062616C616E636520666F PUSH1 0x0 DUP3 ADD MSTORE PUSH32 0x722063616C6C0000000000000000000000000000000000000000000000000000 PUSH1 0x20 DUP3 ADD MSTORE POP JUMP JUMPDEST PUSH1 0x0 PUSH2 0x893 PUSH1 0x26 DUP4 PUSH2 0x794 JUMP JUMPDEST SWAP2 POP PUSH2 0x89E DUP3 PUSH2 0x837 JUMP JUMPDEST PUSH1 0x40 DUP3 ADD SWAP1 POP SWAP2 SWAP1 POP JUMP JUMPDEST PUSH1 0x0 PUSH1 0x20 DUP3 ADD SWAP1 POP DUP2 DUP2 SUB PUSH1 0x0 DUP4 ADD MSTORE PUSH2 0x8C2 DUP2 PUSH2 0x886 JUMP JUMPDEST SWAP1 POP SWAP2 SWAP1 POP JUMP JUMPDEST PUSH1 0x0 DUP2 MLOAD SWAP1 POP SWAP2 SWAP1 POP JUMP JUMPDEST PUSH1 0x0 DUP2 SWAP1 POP SWAP3 SWAP2 POP POP JUMP JUMPDEST PUSH1 0x0 JUMPDEST DUP4 DUP2 LT ISZERO PUSH2 0x8FD JUMPI DUP1 DUP3 ADD MLOAD DUP2 DUP5 ADD MSTORE PUSH1 0x20 DUP2 ADD SWAP1 POP PUSH2 0x8E2 JUMP JUMPDEST PUSH1 0x0 DUP5 DUP5 ADD MSTORE POP POP POP POP JUMP JUMPDEST PUSH1 0x0 PUSH2 0x914 DUP3 PUSH2 0x8C9 JUMP JUMPDEST PUSH2 0x91E DUP2 DUP6 PUSH2 0x8D4 JUMP JUMPDEST SWAP4 POP PUSH2 0x92E DUP2 DUP6 PUSH1 0x20 DUP7 ADD PUSH2 0x8DF JUMP JUMPDEST DUP1 DUP5 ADD SWAP2 POP POP SWAP3 SWAP2 POP POP JUMP JUMPDEST PUSH1 0x0 PUSH2 0x946 DUP3 DUP5 PUSH2 0x909 JUMP JUMPDEST SWAP2 POP DUP2 SWAP1 POP SWAP3 SWAP2 POP POP JUMP JUMPDEST PUSH32 0x416464726573733A2063616C6C20746F206E6F6E2D636F6E7472616374000000 PUSH1 0x0 DUP3 ADD MSTORE POP JUMP JUMPDEST PUSH1 0x0 PUSH2 0x987 PUSH1 0x1D DUP4 PUSH2 0x794 JUMP JUMPDEST SWAP2 POP PUSH2 0x992 DUP3 PUSH2 0x951 JUMP JUMPDEST PUSH1 0x20 DUP3 ADD SWAP1 POP SWAP2 SWAP1 POP JUMP JUMPDEST PUSH1 0x0 PUSH1 0x20 DUP3 ADD SWAP1 POP DUP2 DUP2 SUB PUSH1 0x0 DUP4 ADD MSTORE PUSH2 0x9B6 DUP2 PUSH2 0x97A JUMP JUMPDEST SWAP1 POP SWAP2 SWAP1 POP JUMP JUMPDEST PUSH1 0x0 DUP2 MLOAD SWAP1 POP SWAP2 SWAP1 POP JUMP JUMPDEST PUSH1 0x0 PUSH1 0x1F NOT PUSH1 0x1F DUP4 ADD AND SWAP1 POP SWAP2 SWAP1 POP JUMP JUMPDEST PUSH1 0x0 PUSH2 0x9E4 DUP3 PUSH2 0x9BD JUMP JUMPDEST PUSH2 0x9EE DUP2 DUP6 PUSH2 0x794 JUMP JUMPDEST SWAP4 POP PUSH2 0x9FE DUP2 DUP6 PUSH1 0x20 DUP7 ADD PUSH2 0x8DF JUMP JUMPDEST PUSH2 0xA07 DUP2 PUSH2 0x9C8 JUMP JUMPDEST DUP5 ADD SWAP2 POP POP SWAP3 SWAP2 POP POP JUMP JUMPDEST PUSH1 0x0 PUSH1 0x20 DUP3 ADD SWAP1 POP DUP2 DUP2 SUB PUSH1 0x0 DUP4 ADD MSTORE PUSH2 0xA2C DUP2 DUP5 PUSH2 0x9D9 JUMP JUMPDEST SWAP1 POP SWAP3 SWAP2 POP POP JUMP INVALID LOG2 PUSH5 0x6970667358 0x22 SLT KECCAK256 SELFBALANCE DUP7 SWAP7 BALANCE SELFBALANCE 0x2D SHL SLT JUMPI PUSH8 0x2C0E8803D03F7ABA DUP1 SHL BYTE PUSH25 0x7922BF0CC9C94AA0C33C64736F6C6343000813003300000000 "
		},
		"gasEstimates": {
			"creation": {
				"codeDepositCost": "2335200",
				"executionCost": "infinite",
				"totalCost": "infinite"
			},
			"external": {
				"executeOrder(((address,uint256)[],(address,uint256)[],(address,uint256,bytes),address,address),(address,uint256,bytes,(address,int32)[])[])": "infinite",
				"owner()": "2544",
				"pause()": "infinite",
				"paused()": "2574",
				"renounceOwnership()": "30465",
				"tokenManager()": "infinite",
				"transferOwnership(address)": "30788",
				"unpause()": "infinite"
			},
			"internal": {
				"_approveToken(address,address,uint256)": "infinite",
				"_executeOrder(struct IPlexusZapRouter.Order calldata,struct IPlexusZapRouter.Step calldata[] calldata)": "infinite",
				"_executeRelay(struct IPlexusZapRouter.Relay calldata)": "infinite",
				"_executeSteps(struct IPlexusZapRouter.Step calldata[] calldata)": "infinite",
				"_propagateError(address,uint256,bytes memory,bytes memory)": "infinite",
				"_returnAssets(struct IPlexusZapRouter.Output calldata[] calldata,address,uint256)": "infinite"
			}
		},
		"methodIdentifiers": {
			"executeOrder(((address,uint256)[],(address,uint256)[],(address,uint256,bytes),address,address),(address,uint256,bytes,(address,int32)[])[])": "f41b2db6",
			"owner()": "8da5cb5b",
			"pause()": "8456cb59",
			"paused()": "5c975abb",
			"renounceOwnership()": "715018a6",
			"tokenManager()": "2a709b14",
			"transferOwnership(address)": "f2fde38b",
			"unpause()": "3f4ba83a"
		}
	},
	"abi": [
		{
			"inputs": [],
			"stateMutability": "nonpayable",
			"type": "constructor"
		},
		{
			"inputs": [
				{
					"internalType": "address",
					"name": "target",
					"type": "address"
				},
				{
					"internalType": "uint256",
					"name": "value",
					"type": "uint256"
				},
				{
					"internalType": "bytes",
					"name": "callData",
					"type": "bytes"
				}
			],
			"name": "CallFailed",
			"type": "error"
		},
		{
			"inputs": [
				{
					"internalType": "address",
					"name": "caller",
					"type": "address"
				}
			],
			"name": "CallerNotZap",
			"type": "error"
		},
		{
			"inputs": [
				{
					"internalType": "address",
					"name": "recipient",
					"type": "address"
				}
			],
			"name": "EtherTransferFailed",
			"type": "error"
		},
		{
			"inputs": [
				{
					"internalType": "uint256",
					"name": "balance",
					"type": "uint256"
				},
				{
					"internalType": "uint256",
					"name": "relayValue",
					"type": "uint256"
				}
			],
			"name": "InsufficientRelayValue",
			"type": "error"
		},
		{
			"inputs": [
				{
					"internalType": "address",
					"name": "owner",
					"type": "address"
				},
				{
					"internalType": "address",
					"name": "caller",
					"type": "address"
				}
			],
			"name": "InvalidCaller",
			"type": "error"
		},
		{
			"inputs": [
				{
					"internalType": "address",
					"name": "token",
					"type": "address"
				},
				{
					"internalType": "uint256",
					"name": "minAmountOut",
					"type": "uint256"
				},
				{
					"internalType": "uint256",
					"name": "balance",
					"type": "uint256"
				}
			],
			"name": "Slippage",
			"type": "error"
		},
		{
			"inputs": [
				{
					"internalType": "address",
					"name": "target",
					"type": "address"
				}
			],
			"name": "TargetingInvalidContract",
			"type": "error"
		},
		{
			"anonymous": false,
			"inputs": [
				{
					"components": [
						{
							"components": [
								{
									"internalType": "address",
									"name": "token",
									"type": "address"
								},
								{
									"internalType": "uint256",
									"name": "amount",
									"type": "uint256"
								}
							],
							"internalType": "struct IPlexusZapRouter.Input[]",
							"name": "inputs",
							"type": "tuple[]"
						},
						{
							"components": [
								{
									"internalType": "address",
									"name": "token",
									"type": "address"
								},
								{
									"internalType": "uint256",
									"name": "minOutputAmount",
									"type": "uint256"
								}
							],
							"internalType": "struct IPlexusZapRouter.Output[]",
							"name": "outputs",
							"type": "tuple[]"
						},
						{
							"components": [
								{
									"internalType": "address",
									"name": "target",
									"type": "address"
								},
								{
									"internalType": "uint256",
									"name": "value",
									"type": "uint256"
								},
								{
									"internalType": "bytes",
									"name": "data",
									"type": "bytes"
								}
							],
							"internalType": "struct IPlexusZapRouter.Relay",
							"name": "relay",
							"type": "tuple"
						},
						{
							"internalType": "address",
							"name": "user",
							"type": "address"
						},
						{
							"internalType": "address",
							"name": "recipient",
							"type": "address"
						}
					],
					"indexed": true,
					"internalType": "struct IPlexusZapRouter.Order",
					"name": "order",
					"type": "tuple"
				},
				{
					"indexed": true,
					"internalType": "address",
					"name": "caller",
					"type": "address"
				},
				{
					"indexed": true,
					"internalType": "address",
					"name": "recipient",
					"type": "address"
				}
			],
			"name": "FulfilledOrder",
			"type": "event"
		},
		{
			"anonymous": false,
			"inputs": [
				{
					"indexed": true,
					"internalType": "address",
					"name": "previousOwner",
					"type": "address"
				},
				{
					"indexed": true,
					"internalType": "address",
					"name": "newOwner",
					"type": "address"
				}
			],
			"name": "OwnershipTransferred",
			"type": "event"
		},
		{
			"anonymous": false,
			"inputs": [
				{
					"indexed": false,
					"internalType": "address",
					"name": "account",
					"type": "address"
				}
			],
			"name": "Paused",
			"type": "event"
		},
		{
			"anonymous": false,
			"inputs": [
				{
					"indexed": true,
					"internalType": "address",
					"name": "target",
					"type": "address"
				},
				{
					"indexed": false,
					"internalType": "uint256",
					"name": "value",
					"type": "uint256"
				},
				{
					"indexed": false,
					"internalType": "bytes",
					"name": "data",
					"type": "bytes"
				}
			],
			"name": "RelayData",
			"type": "event"
		},
		{
			"anonymous": false,
			"inputs": [
				{
					"indexed": true,
					"internalType": "address",
					"name": "token",
					"type": "address"
				},
				{
					"indexed": false,
					"internalType": "uint256",
					"name": "amount",
					"type": "uint256"
				}
			],
			"name": "TokenReturned",
			"type": "event"
		},
		{
			"anonymous": false,
			"inputs": [
				{
					"indexed": false,
					"internalType": "address",
					"name": "account",
					"type": "address"
				}
			],
			"name": "Unpaused",
			"type": "event"
		},
		{
			"inputs": [
				{
					"components": [
						{
							"components": [
								{
									"internalType": "address",
									"name": "token",
									"type": "address"
								},
								{
									"internalType": "uint256",
									"name": "amount",
									"type": "uint256"
								}
							],
							"internalType": "struct IPlexusZapRouter.Input[]",
							"name": "inputs",
							"type": "tuple[]"
						},
						{
							"components": [
								{
									"internalType": "address",
									"name": "token",
									"type": "address"
								},
								{
									"internalType": "uint256",
									"name": "minOutputAmount",
									"type": "uint256"
								}
							],
							"internalType": "struct IPlexusZapRouter.Output[]",
							"name": "outputs",
							"type": "tuple[]"
						},
						{
							"components": [
								{
									"internalType": "address",
									"name": "target",
									"type": "address"
								},
								{
									"internalType": "uint256",
									"name": "value",
									"type": "uint256"
								},
								{
									"internalType": "bytes",
									"name": "data",
									"type": "bytes"
								}
							],
							"internalType": "struct IPlexusZapRouter.Relay",
							"name": "relay",
							"type": "tuple"
						},
						{
							"internalType": "address",
							"name": "user",
							"type": "address"
						},
						{
							"internalType": "address",
							"name": "recipient",
							"type": "address"
						}
					],
					"internalType": "struct IPlexusZapRouter.Order",
					"name": "_order",
					"type": "tuple"
				},
				{
					"components": [
						{
							"internalType": "address",
							"name": "target",
							"type": "address"
						},
						{
							"internalType": "uint256",
							"name": "value",
							"type": "uint256"
						},
						{
							"internalType": "bytes",
							"name": "data",
							"type": "bytes"
						},
						{
							"components": [
								{
									"internalType": "address",
									"name": "token",
									"type": "address"
								},
								{
									"internalType": "int32",
									"name": "index",
									"type": "int32"
								}
							],
							"internalType": "struct IPlexusZapRouter.StepToken[]",
							"name": "tokens",
							"type": "tuple[]"
						}
					],
					"internalType": "struct IPlexusZapRouter.Step[]",
					"name": "_route",
					"type": "tuple[]"
				}
			],
			"name": "executeOrder",
			"outputs": [],
			"stateMutability": "payable",
			"type": "function"
		},
		{
			"inputs": [],
			"name": "owner",
			"outputs": [
				{
					"internalType": "address",
					"name": "",
					"type": "address"
				}
			],
			"stateMutability": "view",
			"type": "function"
		},
		{
			"inputs": [],
			"name": "pause",
			"outputs": [],
			"stateMutability": "nonpayable",
			"type": "function"
		},
		{
			"inputs": [],
			"name": "paused",
			"outputs": [
				{
					"internalType": "bool",
					"name": "",
					"type": "bool"
				}
			],
			"stateMutability": "view",
			"type": "function"
		},
		{
			"inputs": [],
			"name": "renounceOwnership",
			"outputs": [],
			"stateMutability": "nonpayable",
			"type": "function"
		},
		{
			"inputs": [],
			"name": "tokenManager",
			"outputs": [
				{
					"internalType": "address",
					"name": "",
					"type": "address"
				}
			],
			"stateMutability": "view",
			"type": "function"
		},
		{
			"inputs": [
				{
					"internalType": "address",
					"name": "newOwner",
					"type": "address"
				}
			],
			"name": "transferOwnership",
			"outputs": [],
			"stateMutability": "nonpayable",
			"type": "function"
		},
		{
			"inputs": [],
			"name": "unpause",
			"outputs": [],
			"stateMutability": "nonpayable",
			"type": "function"
		},
		{
			"stateMutability": "payable",
			"type": "receive"
		}
	]
}