{
	"contracts/zaps/PlexusTokenManager.sol": {
		"PlexusTokenManager": {
			"abi": [
				{
					"inputs": [],
					"stateMutability": "nonpayable",
					"type": "constructor"
				},
				{
					"inputs": [
						{
							"internalType": "address",
							"name": "target",
							"type": "address"
						},
						{
							"internalType": "uint256",
							"name": "value",
							"type": "uint256"
						},
						{
							"internalType": "bytes",
							"name": "callData",
							"type": "bytes"
						}
					],
					"name": "CallFailed",
					"type": "error"
				},
				{
					"inputs": [
						{
							"internalType": "address",
							"name": "caller",
							"type": "address"
						}
					],
					"name": "CallerNotZap",
					"type": "error"
				},
				{
					"inputs": [
						{
							"internalType": "address",
							"name": "recipient",
							"type": "address"
						}
					],
					"name": "EtherTransferFailed",
					"type": "error"
				},
				{
					"inputs": [
						{
							"internalType": "uint256",
							"name": "balance",
							"type": "uint256"
						},
						{
							"internalType": "uint256",
							"name": "relayValue",
							"type": "uint256"
						}
					],
					"name": "InsufficientRelayValue",
					"type": "error"
				},
				{
					"inputs": [
						{
							"internalType": "address",
							"name": "owner",
							"type": "address"
						},
						{
							"internalType": "address",
							"name": "caller",
							"type": "address"
						}
					],
					"name": "InvalidCaller",
					"type": "error"
				},
				{
					"inputs": [
						{
							"internalType": "address",
							"name": "token",
							"type": "address"
						},
						{
							"internalType": "uint256",
							"name": "minAmountOut",
							"type": "uint256"
						},
						{
							"internalType": "uint256",
							"name": "balance",
							"type": "uint256"
						}
					],
					"name": "Slippage",
					"type": "error"
				},
				{
					"inputs": [
						{
							"internalType": "address",
							"name": "target",
							"type": "address"
						}
					],
					"name": "TargetingInvalidContract",
					"type": "error"
				},
				{
					"inputs": [
						{
							"internalType": "address",
							"name": "_user",
							"type": "address"
						},
						{
							"components": [
								{
									"internalType": "address",
									"name": "token",
									"type": "address"
								},
								{
									"internalType": "uint256",
									"name": "amount",
									"type": "uint256"
								}
							],
							"internalType": "struct IPlexusZapRouter.Input[]",
							"name": "_inputs",
							"type": "tuple[]"
						}
					],
					"name": "pullTokens",
					"outputs": [],
					"stateMutability": "nonpayable",
					"type": "function"
				},
				{
					"inputs": [],
					"name": "zap",
					"outputs": [
						{
							"internalType": "address",
							"name": "",
							"type": "address"
						}
					],
					"stateMutability": "view",
					"type": "function"
				}
			],
			"devdoc": {
				"details": "Users should approve this contract instead of the zap router to handle the input ERC20 tokens",
				"kind": "dev",
				"methods": {
					"constructor": {
						"details": "This contract is created in the constructor of the zap router"
					},
					"pullTokens(address,(address,uint256)[])": {
						"details": "Only the token owner can call this function indirectly via the zap router",
						"params": {
							"_inputs": "Token addresses and amounts to pull",
							"_user": "Address to pull tokens from"
						}
					}
				},
				"title": "Token manager",
				"version": 1
			},
			"evm": {
				"assembly": "    /* \"contracts/zaps/PlexusTokenManager.sol\":482:1614  contract PlexusTokenManager is ZapErrors {... */\n  mstore(0x40, 0xa0)\n    /* \"contracts/zaps/PlexusTokenManager.sol\":747:794  constructor() {... */\n  callvalue\n  dup1\n  iszero\n  tag_1\n  jumpi\n  0x00\n  dup1\n  revert\ntag_1:\n  pop\n    /* \"contracts/zaps/PlexusTokenManager.sol\":777:787  msg.sender */\n  caller\n    /* \"contracts/zaps/PlexusTokenManager.sol\":771:787  zap = msg.sender */\n  0x80\n  mstore\n    /* \"contracts/zaps/PlexusTokenManager.sol\":482:1614  contract PlexusTokenManager is ZapErrors {... */\n  mload(0x80)\n  codecopy(0x00, dataOffset(sub_0), dataSize(sub_0))\n  0x00\n  assignImmutable(\"0x53e5968c39d954ac29155bd721dab3944ae84b54169158b5b8f3d3aaa982aa2f\")\n  return(0x00, dataSize(sub_0))\nstop\n\nsub_0: assembly {\n        /* \"contracts/zaps/PlexusTokenManager.sol\":482:1614  contract PlexusTokenManager is ZapErrors {... */\n      mstore(0x40, 0x80)\n      callvalue\n      dup1\n      iszero\n      tag_1\n      jumpi\n      0x00\n      dup1\n      revert\n    tag_1:\n      pop\n      jumpi(tag_2, lt(calldatasize, 0x04))\n      shr(0xe0, calldataload(0x00))\n      dup1\n      0x262d6152\n      eq\n      tag_3\n      jumpi\n      dup1\n      0x77fc3fa8\n      eq\n      tag_4\n      jumpi\n    tag_2:\n      0x00\n      dup1\n      revert\n        /* \"contracts/zaps/PlexusTokenManager.sol\":622:650  address public immutable zap */\n    tag_3:\n      tag_5\n      immutable(\"0x53e5968c39d954ac29155bd721dab3944ae84b54169158b5b8f3d3aaa982aa2f\")\n      dup2\n      jump\n    tag_5:\n      mload(0x40)\n      sub(shl(0xa0, 0x01), 0x01)\n        /* \"#utility.yul\":178:210   */\n      swap1\n      swap2\n      and\n        /* \"#utility.yul\":160:211   */\n      dup2\n      mstore\n        /* \"#utility.yul\":148:150   */\n      0x20\n        /* \"#utility.yul\":133:151   */\n      add\n        /* \"contracts/zaps/PlexusTokenManager.sol\":622:650  address public immutable zap */\n      mload(0x40)\n      dup1\n      swap2\n      sub\n      swap1\n      return\n        /* \"contracts/zaps/PlexusTokenManager.sol\":1094:1612  function pullTokens(address _user, IPlexusZapRouter.Input[] calldata _inputs) external {... */\n    tag_4:\n      tag_9\n      tag_10\n      calldatasize\n      0x04\n      tag_11\n      jump\t// in\n    tag_10:\n      tag_12\n      jump\t// in\n    tag_9:\n      stop\n    tag_12:\n        /* \"contracts/zaps/PlexusTokenManager.sol\":1195:1205  msg.sender */\n      caller\n      sub(shl(0xa0, 0x01), 0x01)\n        /* \"contracts/zaps/PlexusTokenManager.sol\":1209:1212  zap */\n      immutable(\"0x53e5968c39d954ac29155bd721dab3944ae84b54169158b5b8f3d3aaa982aa2f\")\n        /* \"contracts/zaps/PlexusTokenManager.sol\":1195:1212  msg.sender != zap */\n      and\n      eq\n        /* \"contracts/zaps/PlexusTokenManager.sol\":1191:1245  if (msg.sender != zap) revert CallerNotZap(msg.sender) */\n      tag_14\n      jumpi\n        /* \"contracts/zaps/PlexusTokenManager.sol\":1221:1245  CallerNotZap(msg.sender) */\n      mload(0x40)\n      shl(0xe0, 0x403e63e9)\n      dup2\n      mstore\n        /* \"contracts/zaps/PlexusTokenManager.sol\":1234:1244  msg.sender */\n      caller\n        /* \"contracts/zaps/PlexusTokenManager.sol\":1221:1245  CallerNotZap(msg.sender) */\n      0x04\n      dup3\n      add\n        /* \"#utility.yul\":160:211   */\n      mstore\n        /* \"#utility.yul\":133:151   */\n      0x24\n      add\n        /* \"contracts/zaps/PlexusTokenManager.sol\":1221:1245  CallerNotZap(msg.sender) */\n    tag_15:\n      mload(0x40)\n      dup1\n      swap2\n      sub\n      swap1\n      revert\n        /* \"contracts/zaps/PlexusTokenManager.sol\":1191:1245  if (msg.sender != zap) revert CallerNotZap(msg.sender) */\n    tag_14:\n        /* \"contracts/zaps/PlexusTokenManager.sol\":1277:1284  _inputs */\n      dup1\n        /* \"contracts/zaps/PlexusTokenManager.sol\":1255:1274  uint256 inputLength */\n      0x00\n        /* \"contracts/zaps/PlexusTokenManager.sol\":1301:1606  for (uint256 i; i < inputLength; ) {... */\n    tag_16:\n        /* \"contracts/zaps/PlexusTokenManager.sol\":1321:1332  inputLength */\n      dup2\n        /* \"contracts/zaps/PlexusTokenManager.sol\":1317:1318  i */\n      dup2\n        /* \"contracts/zaps/PlexusTokenManager.sol\":1317:1332  i < inputLength */\n      lt\n        /* \"contracts/zaps/PlexusTokenManager.sol\":1301:1606  for (uint256 i; i < inputLength; ) {... */\n      iszero\n      tag_17\n      jumpi\n        /* \"contracts/zaps/PlexusTokenManager.sol\":1350:1387  IPlexusZapRouter.Input calldata input */\n      calldatasize\n        /* \"contracts/zaps/PlexusTokenManager.sol\":1390:1397  _inputs */\n      dup5\n      dup5\n        /* \"contracts/zaps/PlexusTokenManager.sol\":1398:1399  i */\n      dup4\n        /* \"contracts/zaps/PlexusTokenManager.sol\":1390:1400  _inputs[i] */\n      dup2\n      dup2\n      lt\n      tag_20\n      jumpi\n      tag_20\n      tag_21\n      jump\t// in\n    tag_20:\n        /* \"contracts/zaps/PlexusTokenManager.sol\":1442:1445  ++i */\n      0x01\n      swap1\n      swap5\n      add\n      swap4\n        /* \"contracts/zaps/PlexusTokenManager.sol\":1390:1400  _inputs[i] */\n      0x40\n      mul\n      swap2\n      swap1\n      swap2\n      add\n      swap2\n      pop\n        /* \"contracts/zaps/PlexusTokenManager.sol\":1500:1501  0 */\n      0x00\n      swap1\n      pop\n        /* \"contracts/zaps/PlexusTokenManager.sol\":1477:1488  input.token */\n      tag_22\n      0x20\n      dup4\n      add\n        /* \"contracts/zaps/PlexusTokenManager.sol\":1390:1400  _inputs[i] */\n      dup4\n        /* \"contracts/zaps/PlexusTokenManager.sol\":1477:1488  input.token */\n      tag_23\n      jump\t// in\n    tag_22:\n      sub(shl(0xa0, 0x01), 0x01)\n        /* \"contracts/zaps/PlexusTokenManager.sol\":1477:1502  input.token == address(0) */\n      and\n      sub\n        /* \"contracts/zaps/PlexusTokenManager.sol\":1473:1512  if (input.token == address(0)) continue */\n      tag_24\n      jumpi\n        /* \"contracts/zaps/PlexusTokenManager.sol\":1504:1512  continue */\n      pop\n        /* \"contracts/zaps/PlexusTokenManager.sol\":1301:1606  for (uint256 i; i < inputLength; ) {... */\n      jump(tag_16)\n        /* \"contracts/zaps/PlexusTokenManager.sol\":1473:1512  if (input.token == address(0)) continue */\n    tag_24:\n        /* \"contracts/zaps/PlexusTokenManager.sol\":1526:1595  IERC20(input.token).safeTransferFrom(_user, msg.sender, input.amount) */\n      tag_25\n        /* \"contracts/zaps/PlexusTokenManager.sol\":1563:1568  _user */\n      dup7\n        /* \"contracts/zaps/PlexusTokenManager.sol\":1570:1580  msg.sender */\n      caller\n        /* \"contracts/zaps/PlexusTokenManager.sol\":1582:1594  input.amount */\n      0x20\n      dup5\n      add\n      dup1\n      calldataload\n      swap1\n        /* \"contracts/zaps/PlexusTokenManager.sol\":1533:1544  input.token */\n      tag_26\n      swap1\n        /* \"contracts/zaps/PlexusTokenManager.sol\":1582:1587  input */\n      dup7\n        /* \"contracts/zaps/PlexusTokenManager.sol\":1533:1544  input.token */\n      tag_23\n      jump\t// in\n    tag_26:\n      sub(shl(0xa0, 0x01), 0x01)\n        /* \"contracts/zaps/PlexusTokenManager.sol\":1526:1562  IERC20(input.token).safeTransferFrom */\n      and\n      swap3\n        /* \"contracts/zaps/PlexusTokenManager.sol\":1526:1595  IERC20(input.token).safeTransferFrom(_user, msg.sender, input.amount) */\n      swap2\n      swap1\n        /* \"contracts/zaps/PlexusTokenManager.sol\":1526:1562  IERC20(input.token).safeTransferFrom */\n      tag_27\n        /* \"contracts/zaps/PlexusTokenManager.sol\":1526:1595  IERC20(input.token).safeTransferFrom(_user, msg.sender, input.amount) */\n      jump\t// in\n    tag_25:\n        /* \"contracts/zaps/PlexusTokenManager.sol\":1336:1606  {... */\n      pop\n        /* \"contracts/zaps/PlexusTokenManager.sol\":1301:1606  for (uint256 i; i < inputLength; ) {... */\n      jump(tag_16)\n    tag_17:\n      pop\n        /* \"contracts/zaps/PlexusTokenManager.sol\":1181:1612  {... */\n      pop\n        /* \"contracts/zaps/PlexusTokenManager.sol\":1094:1612  function pullTokens(address _user, IPlexusZapRouter.Input[] calldata _inputs) external {... */\n      pop\n      pop\n      pop\n      jump\t// out\n        /* \"@openzeppelin/contracts/token/ERC20/utils/SafeERC20.sol\":1355:1558  function safeTransferFrom(IERC20 token, address from, address to, uint256 value) internal {... */\n    tag_27:\n        /* \"@openzeppelin/contracts/token/ERC20/utils/SafeERC20.sol\":1482:1550  abi.encodeWithSelector(token.transferFrom.selector, from, to, value) */\n      0x40\n      dup1\n      mload\n      sub(shl(0xa0, 0x01), 0x01)\n        /* \"#utility.yul\":1700:1715   */\n      dup6\n      dup2\n      and\n        /* \"@openzeppelin/contracts/token/ERC20/utils/SafeERC20.sol\":1482:1550  abi.encodeWithSelector(token.transferFrom.selector, from, to, value) */\n      0x24\n      dup4\n      add\n        /* \"#utility.yul\":1682:1716   */\n      mstore\n        /* \"#utility.yul\":1752:1767   */\n      dup5\n      and\n        /* \"#utility.yul\":1732:1750   */\n      0x44\n      dup3\n      add\n        /* \"#utility.yul\":1725:1768   */\n      mstore\n        /* \"#utility.yul\":1784:1802   */\n      0x64\n      dup1\n      dup3\n      add\n        /* \"#utility.yul\":1777:1811   */\n      dup5\n      swap1\n      mstore\n        /* \"@openzeppelin/contracts/token/ERC20/utils/SafeERC20.sol\":1482:1550  abi.encodeWithSelector(token.transferFrom.selector, from, to, value) */\n      dup3\n      mload\n      dup1\n      dup4\n      sub\n      swap1\n      swap2\n      add\n      dup2\n      mstore\n        /* \"#utility.yul\":1617:1635   */\n      0x84\n      swap1\n      swap2\n      add\n        /* \"@openzeppelin/contracts/token/ERC20/utils/SafeERC20.sol\":1482:1550  abi.encodeWithSelector(token.transferFrom.selector, from, to, value) */\n      swap1\n      swap2\n      mstore\n      0x20\n      dup2\n      add\n      dup1\n      mload\n      sub(shl(0xe0, 0x01), 0x01)\n      and\n      shl(0xe0, 0x23b872dd)\n      or\n      swap1\n      mstore\n        /* \"@openzeppelin/contracts/token/ERC20/utils/SafeERC20.sol\":1455:1551  _callOptionalReturn(token, abi.encodeWithSelector(token.transferFrom.selector, from, to, value)) */\n      tag_29\n      swap1\n        /* \"@openzeppelin/contracts/token/ERC20/utils/SafeERC20.sol\":1475:1480  token */\n      dup6\n      swap1\n        /* \"@openzeppelin/contracts/token/ERC20/utils/SafeERC20.sol\":1455:1474  _callOptionalReturn */\n      tag_32\n        /* \"@openzeppelin/contracts/token/ERC20/utils/SafeERC20.sol\":1455:1551  _callOptionalReturn(token, abi.encodeWithSelector(token.transferFrom.selector, from, to, value)) */\n      jump\t// in\n    tag_29:\n        /* \"@openzeppelin/contracts/token/ERC20/utils/SafeERC20.sol\":1355:1558  function safeTransferFrom(IERC20 token, address from, address to, uint256 value) internal {... */\n      pop\n      pop\n      pop\n      pop\n      jump\t// out\n        /* \"@openzeppelin/contracts/token/ERC20/utils/SafeERC20.sol\":5196:5838  function _callOptionalReturn(IERC20 token, bytes memory data) private {... */\n    tag_32:\n        /* \"@openzeppelin/contracts/token/ERC20/utils/SafeERC20.sol\":5615:5638  bytes memory returndata */\n      0x00\n        /* \"@openzeppelin/contracts/token/ERC20/utils/SafeERC20.sol\":5641:5710  address(token).functionCall(data, \"SafeERC20: low-level call failed\") */\n      tag_34\n        /* \"@openzeppelin/contracts/token/ERC20/utils/SafeERC20.sol\":5669:5673  data */\n      dup3\n        /* \"@openzeppelin/contracts/token/ERC20/utils/SafeERC20.sol\":5641:5710  address(token).functionCall(data, \"SafeERC20: low-level call failed\") */\n      mload(0x40)\n      dup1\n      0x40\n      add\n      0x40\n      mstore\n      dup1\n      0x20\n      dup2\n      mstore\n      0x20\n      add\n      0x5361666545524332303a206c6f772d6c6576656c2063616c6c206661696c6564\n      dup2\n      mstore\n      pop\n        /* \"@openzeppelin/contracts/token/ERC20/utils/SafeERC20.sol\":5649:5654  token */\n      dup6\n      sub(shl(0xa0, 0x01), 0x01)\n        /* \"@openzeppelin/contracts/token/ERC20/utils/SafeERC20.sol\":5641:5668  address(token).functionCall */\n      and\n      tag_35\n      swap1\n        /* \"@openzeppelin/contracts/token/ERC20/utils/SafeERC20.sol\":5641:5710  address(token).functionCall(data, \"SafeERC20: low-level call failed\") */\n      swap3\n      swap2\n      swap1\n      0xffffffff\n      and\n      jump\t// in\n    tag_34:\n        /* \"@openzeppelin/contracts/token/ERC20/utils/SafeERC20.sol\":5615:5710  bytes memory returndata = address(token).functionCall(data, \"SafeERC20: low-level call failed\") */\n      swap1\n      pop\n        /* \"@openzeppelin/contracts/token/ERC20/utils/SafeERC20.sol\":5728:5738  returndata */\n      dup1\n        /* \"@openzeppelin/contracts/token/ERC20/utils/SafeERC20.sol\":5728:5745  returndata.length */\n      mload\n        /* \"@openzeppelin/contracts/token/ERC20/utils/SafeERC20.sol\":5749:5750  0 */\n      0x00\n        /* \"@openzeppelin/contracts/token/ERC20/utils/SafeERC20.sol\":5728:5750  returndata.length == 0 */\n      eq\n        /* \"@openzeppelin/contracts/token/ERC20/utils/SafeERC20.sol\":5728:5784  returndata.length == 0 || abi.decode(returndata, (bool)) */\n      dup1\n      tag_37\n      jumpi\n      pop\n        /* \"@openzeppelin/contracts/token/ERC20/utils/SafeERC20.sol\":5765:5775  returndata */\n      dup1\n        /* \"@openzeppelin/contracts/token/ERC20/utils/SafeERC20.sol\":5754:5784  abi.decode(returndata, (bool)) */\n      dup1\n      0x20\n      add\n      swap1\n      mload\n      dup2\n      add\n      swap1\n      tag_37\n      swap2\n      swap1\n      tag_38\n      jump\t// in\n    tag_37:\n        /* \"@openzeppelin/contracts/token/ERC20/utils/SafeERC20.sol\":5720:5831  require(returndata.length == 0 || abi.decode(returndata, (bool)), \"SafeERC20: ERC20 operation did not succeed\") */\n      tag_39\n      jumpi\n      mload(0x40)\n      shl(0xe5, 0x461bcd)\n      dup2\n      mstore\n        /* \"#utility.yul\":2306:2308   */\n      0x20\n        /* \"@openzeppelin/contracts/token/ERC20/utils/SafeERC20.sol\":5720:5831  require(returndata.length == 0 || abi.decode(returndata, (bool)), \"SafeERC20: ERC20 operation did not succeed\") */\n      0x04\n      dup3\n      add\n        /* \"#utility.yul\":2288:2309   */\n      mstore\n        /* \"#utility.yul\":2345:2347   */\n      0x2a\n        /* \"#utility.yul\":2325:2343   */\n      0x24\n      dup3\n      add\n        /* \"#utility.yul\":2318:2348   */\n      mstore\n        /* \"#utility.yul\":2384:2418   */\n      0x5361666545524332303a204552433230206f7065726174696f6e20646964206e\n        /* \"#utility.yul\":2364:2382   */\n      0x44\n      dup3\n      add\n        /* \"#utility.yul\":2357:2419   */\n      mstore\n      shl(0xb2, 0x1bdd081cdd58d8d95959)\n        /* \"#utility.yul\":2435:2453   */\n      0x64\n      dup3\n      add\n        /* \"#utility.yul\":2428:2468   */\n      mstore\n        /* \"#utility.yul\":2485:2504   */\n      0x84\n      add\n        /* \"@openzeppelin/contracts/token/ERC20/utils/SafeERC20.sol\":5720:5831  require(returndata.length == 0 || abi.decode(returndata, (bool)), \"SafeERC20: ERC20 operation did not succeed\") */\n      tag_15\n        /* \"#utility.yul\":2104:2510   */\n      jump\n        /* \"@openzeppelin/contracts/token/ERC20/utils/SafeERC20.sol\":5720:5831  require(returndata.length == 0 || abi.decode(returndata, (bool)), \"SafeERC20: ERC20 operation did not succeed\") */\n    tag_39:\n        /* \"@openzeppelin/contracts/token/ERC20/utils/SafeERC20.sol\":5266:5838  {... */\n      pop\n        /* \"@openzeppelin/contracts/token/ERC20/utils/SafeERC20.sol\":5196:5838  function _callOptionalReturn(IERC20 token, bytes memory data) private {... */\n      pop\n      pop\n      jump\t// out\n        /* \"@openzeppelin/contracts/utils/Address.sol\":4108:4331  function functionCall(... */\n    tag_35:\n        /* \"@openzeppelin/contracts/utils/Address.sol\":4241:4253  bytes memory */\n      0x60\n        /* \"@openzeppelin/contracts/utils/Address.sol\":4272:4324  functionCallWithValue(target, data, 0, errorMessage) */\n      tag_43\n        /* \"@openzeppelin/contracts/utils/Address.sol\":4294:4300  target */\n      dup5\n        /* \"@openzeppelin/contracts/utils/Address.sol\":4302:4306  data */\n      dup5\n        /* \"@openzeppelin/contracts/utils/Address.sol\":4308:4309  0 */\n      0x00\n        /* \"@openzeppelin/contracts/utils/Address.sol\":4311:4323  errorMessage */\n      dup6\n        /* \"@openzeppelin/contracts/utils/Address.sol\":4272:4293  functionCallWithValue */\n      tag_44\n        /* \"@openzeppelin/contracts/utils/Address.sol\":4272:4324  functionCallWithValue(target, data, 0, errorMessage) */\n      jump\t// in\n    tag_43:\n        /* \"@openzeppelin/contracts/utils/Address.sol\":4265:4324  return functionCallWithValue(target, data, 0, errorMessage) */\n      swap5\n        /* \"@openzeppelin/contracts/utils/Address.sol\":4108:4331  function functionCall(... */\n      swap4\n      pop\n      pop\n      pop\n      pop\n      jump\t// out\n        /* \"@openzeppelin/contracts/utils/Address.sol\":5165:5611  function functionCallWithValue(... */\n    tag_44:\n        /* \"@openzeppelin/contracts/utils/Address.sol\":5330:5342  bytes memory */\n      0x60\n        /* \"@openzeppelin/contracts/utils/Address.sol\":5387:5392  value */\n      dup3\n        /* \"@openzeppelin/contracts/utils/Address.sol\":5362:5383  address(this).balance */\n      selfbalance\n        /* \"@openzeppelin/contracts/utils/Address.sol\":5362:5392  address(this).balance >= value */\n      lt\n      iszero\n        /* \"@openzeppelin/contracts/utils/Address.sol\":5354:5435  require(address(this).balance >= value, \"Address: insufficient balance for call\") */\n      tag_46\n      jumpi\n      mload(0x40)\n      shl(0xe5, 0x461bcd)\n      dup2\n      mstore\n        /* \"#utility.yul\":2717:2719   */\n      0x20\n        /* \"@openzeppelin/contracts/utils/Address.sol\":5354:5435  require(address(this).balance >= value, \"Address: insufficient balance for call\") */\n      0x04\n      dup3\n      add\n        /* \"#utility.yul\":2699:2720   */\n      mstore\n        /* \"#utility.yul\":2756:2758   */\n      0x26\n        /* \"#utility.yul\":2736:2754   */\n      0x24\n      dup3\n      add\n        /* \"#utility.yul\":2729:2759   */\n      mstore\n        /* \"#utility.yul\":2795:2829   */\n      0x416464726573733a20696e73756666696369656e742062616c616e636520666f\n        /* \"#utility.yul\":2775:2793   */\n      0x44\n      dup3\n      add\n        /* \"#utility.yul\":2768:2830   */\n      mstore\n      shl(0xd2, 0x1c8818d85b1b)\n        /* \"#utility.yul\":2846:2864   */\n      0x64\n      dup3\n      add\n        /* \"#utility.yul\":2839:2875   */\n      mstore\n        /* \"#utility.yul\":2892:2911   */\n      0x84\n      add\n        /* \"@openzeppelin/contracts/utils/Address.sol\":5354:5435  require(address(this).balance >= value, \"Address: insufficient balance for call\") */\n      tag_15\n        /* \"#utility.yul\":2515:2917   */\n      jump\n        /* \"@openzeppelin/contracts/utils/Address.sol\":5354:5435  require(address(this).balance >= value, \"Address: insufficient balance for call\") */\n    tag_46:\n        /* \"@openzeppelin/contracts/utils/Address.sol\":5446:5458  bool success */\n      0x00\n        /* \"@openzeppelin/contracts/utils/Address.sol\":5460:5483  bytes memory returndata */\n      dup1\n        /* \"@openzeppelin/contracts/utils/Address.sol\":5487:5493  target */\n      dup7\n      sub(shl(0xa0, 0x01), 0x01)\n        /* \"@openzeppelin/contracts/utils/Address.sol\":5487:5498  target.call */\n      and\n        /* \"@openzeppelin/contracts/utils/Address.sol\":5506:5511  value */\n      dup6\n        /* \"@openzeppelin/contracts/utils/Address.sol\":5513:5517  data */\n      dup8\n        /* \"@openzeppelin/contracts/utils/Address.sol\":5487:5518  target.call{value: value}(data) */\n      mload(0x40)\n      tag_49\n      swap2\n      swap1\n      tag_50\n      jump\t// in\n    tag_49:\n      0x00\n      mload(0x40)\n      dup1\n      dup4\n      sub\n      dup2\n      dup6\n      dup8\n      gas\n      call\n      swap3\n      pop\n      pop\n      pop\n      returndatasize\n      dup1\n      0x00\n      dup2\n      eq\n      tag_53\n      jumpi\n      mload(0x40)\n      swap2\n      pop\n      and(add(returndatasize, 0x3f), not(0x1f))\n      dup3\n      add\n      0x40\n      mstore\n      returndatasize\n      dup3\n      mstore\n      returndatasize\n      0x00\n      0x20\n      dup5\n      add\n      returndatacopy\n      jump(tag_52)\n    tag_53:\n      0x60\n      swap2\n      pop\n    tag_52:\n      pop\n        /* \"@openzeppelin/contracts/utils/Address.sol\":5445:5518  (bool success, bytes memory returndata) = target.call{value: value}(data) */\n      swap2\n      pop\n      swap2\n      pop\n        /* \"@openzeppelin/contracts/utils/Address.sol\":5535:5604  verifyCallResultFromTarget(target, success, returndata, errorMessage) */\n      tag_54\n        /* \"@openzeppelin/contracts/utils/Address.sol\":5562:5568  target */\n      dup8\n        /* \"@openzeppelin/contracts/utils/Address.sol\":5570:5577  success */\n      dup4\n        /* \"@openzeppelin/contracts/utils/Address.sol\":5579:5589  returndata */\n      dup4\n        /* \"@openzeppelin/contracts/utils/Address.sol\":5591:5603  errorMessage */\n      dup8\n        /* \"@openzeppelin/contracts/utils/Address.sol\":5535:5561  verifyCallResultFromTarget */\n      tag_55\n        /* \"@openzeppelin/contracts/utils/Address.sol\":5535:5604  verifyCallResultFromTarget(target, success, returndata, errorMessage) */\n      jump\t// in\n    tag_54:\n        /* \"@openzeppelin/contracts/utils/Address.sol\":5528:5604  return verifyCallResultFromTarget(target, success, returndata, errorMessage) */\n      swap8\n        /* \"@openzeppelin/contracts/utils/Address.sol\":5165:5611  function functionCallWithValue(... */\n      swap7\n      pop\n      pop\n      pop\n      pop\n      pop\n      pop\n      pop\n      jump\t// out\n        /* \"@openzeppelin/contracts/utils/Address.sol\":7671:8299  function verifyCallResultFromTarget(... */\n    tag_55:\n        /* \"@openzeppelin/contracts/utils/Address.sol\":7851:7863  bytes memory */\n      0x60\n        /* \"@openzeppelin/contracts/utils/Address.sol\":7879:7886  success */\n      dup4\n        /* \"@openzeppelin/contracts/utils/Address.sol\":7875:8293  if (success) {... */\n      iszero\n      tag_57\n      jumpi\n        /* \"@openzeppelin/contracts/utils/Address.sol\":7906:7916  returndata */\n      dup3\n        /* \"@openzeppelin/contracts/utils/Address.sol\":7906:7923  returndata.length */\n      mload\n        /* \"@openzeppelin/contracts/utils/Address.sol\":7927:7928  0 */\n      0x00\n        /* \"@openzeppelin/contracts/utils/Address.sol\":7906:7928  returndata.length == 0 */\n      sub\n        /* \"@openzeppelin/contracts/utils/Address.sol\":7902:8188  if (returndata.length == 0) {... */\n      tag_61\n      jumpi\n      sub(shl(0xa0, 0x01), 0x01)\n        /* \"@openzeppelin/contracts/utils/Address.sol\":1702:1721  account.code.length */\n      dup6\n      and\n      extcodesize\n        /* \"@openzeppelin/contracts/utils/Address.sol\":8113:8173  require(isContract(target), \"Address: call to non-contract\") */\n      tag_61\n      jumpi\n      mload(0x40)\n      shl(0xe5, 0x461bcd)\n      dup2\n      mstore\n        /* \"#utility.yul\":3671:3673   */\n      0x20\n        /* \"@openzeppelin/contracts/utils/Address.sol\":8113:8173  require(isContract(target), \"Address: call to non-contract\") */\n      0x04\n      dup3\n      add\n        /* \"#utility.yul\":3653:3674   */\n      mstore\n        /* \"#utility.yul\":3710:3712   */\n      0x1d\n        /* \"#utility.yul\":3690:3708   */\n      0x24\n      dup3\n      add\n        /* \"#utility.yul\":3683:3713   */\n      mstore\n        /* \"#utility.yul\":3749:3780   */\n      0x416464726573733a2063616c6c20746f206e6f6e2d636f6e7472616374000000\n        /* \"#utility.yul\":3729:3747   */\n      0x44\n      dup3\n      add\n        /* \"#utility.yul\":3722:3781   */\n      mstore\n        /* \"#utility.yul\":3798:3816   */\n      0x64\n      add\n        /* \"@openzeppelin/contracts/utils/Address.sol\":8113:8173  require(isContract(target), \"Address: call to non-contract\") */\n      tag_15\n        /* \"#utility.yul\":3469:3822   */\n      jump\n        /* \"@openzeppelin/contracts/utils/Address.sol\":8113:8173  require(isContract(target), \"Address: call to non-contract\") */\n    tag_61:\n      pop\n        /* \"@openzeppelin/contracts/utils/Address.sol\":8208:8218  returndata */\n      dup2\n        /* \"@openzeppelin/contracts/utils/Address.sol\":8201:8218  return returndata */\n      jump(tag_43)\n        /* \"@openzeppelin/contracts/utils/Address.sol\":7875:8293  if (success) {... */\n    tag_57:\n        /* \"@openzeppelin/contracts/utils/Address.sol\":8249:8282  _revert(returndata, errorMessage) */\n      tag_43\n        /* \"@openzeppelin/contracts/utils/Address.sol\":8257:8267  returndata */\n      dup4\n        /* \"@openzeppelin/contracts/utils/Address.sol\":8269:8281  errorMessage */\n      dup4\n        /* \"@openzeppelin/contracts/utils/Address.sol\":8980:8997  returndata.length */\n      dup2\n      mload\n        /* \"@openzeppelin/contracts/utils/Address.sol\":8980:9001  returndata.length > 0 */\n      iszero\n        /* \"@openzeppelin/contracts/utils/Address.sol\":8976:9355  if (returndata.length > 0) {... */\n      tag_69\n      jumpi\n        /* \"@openzeppelin/contracts/utils/Address.sol\":9208:9218  returndata */\n      dup2\n        /* \"@openzeppelin/contracts/utils/Address.sol\":9202:9219  mload(returndata) */\n      mload\n        /* \"@openzeppelin/contracts/utils/Address.sol\":9264:9279  returndata_size */\n      dup1\n        /* \"@openzeppelin/contracts/utils/Address.sol\":9251:9261  returndata */\n      dup4\n        /* \"@openzeppelin/contracts/utils/Address.sol\":9247:9249  32 */\n      0x20\n        /* \"@openzeppelin/contracts/utils/Address.sol\":9243:9262  add(32, returndata) */\n      add\n        /* \"@openzeppelin/contracts/utils/Address.sol\":9236:9280  revert(add(32, returndata), returndata_size) */\n      revert\n        /* \"@openzeppelin/contracts/utils/Address.sol\":8976:9355  if (returndata.length > 0) {... */\n    tag_69:\n        /* \"@openzeppelin/contracts/utils/Address.sol\":9331:9343  errorMessage */\n      dup1\n        /* \"@openzeppelin/contracts/utils/Address.sol\":9324:9344  revert(errorMessage) */\n      mload(0x40)\n      shl(0xe5, 0x461bcd)\n      dup2\n      mstore\n      0x04\n      add\n      tag_15\n      swap2\n      swap1\n      tag_72\n      jump\t// in\n        /* \"#utility.yul\":222:395   */\n    tag_73:\n        /* \"#utility.yul\":290:310   */\n      dup1\n      calldataload\n      sub(shl(0xa0, 0x01), 0x01)\n        /* \"#utility.yul\":339:370   */\n      dup2\n      and\n        /* \"#utility.yul\":329:371   */\n      dup2\n      eq\n        /* \"#utility.yul\":319:389   */\n      tag_78\n      jumpi\n        /* \"#utility.yul\":385:386   */\n      0x00\n        /* \"#utility.yul\":382:383   */\n      dup1\n        /* \"#utility.yul\":375:387   */\n      revert\n        /* \"#utility.yul\":319:389   */\n    tag_78:\n        /* \"#utility.yul\":222:395   */\n      swap2\n      swap1\n      pop\n      jump\t// out\n        /* \"#utility.yul\":400:1114   */\n    tag_11:\n        /* \"#utility.yul\":520:526   */\n      0x00\n        /* \"#utility.yul\":528:534   */\n      dup1\n        /* \"#utility.yul\":536:542   */\n      0x00\n        /* \"#utility.yul\":589:591   */\n      0x40\n        /* \"#utility.yul\":577:586   */\n      dup5\n        /* \"#utility.yul\":568:575   */\n      dup7\n        /* \"#utility.yul\":564:587   */\n      sub\n        /* \"#utility.yul\":560:592   */\n      slt\n        /* \"#utility.yul\":557:609   */\n      iszero\n      tag_80\n      jumpi\n        /* \"#utility.yul\":605:606   */\n      0x00\n        /* \"#utility.yul\":602:603   */\n      dup1\n        /* \"#utility.yul\":595:607   */\n      revert\n        /* \"#utility.yul\":557:609   */\n    tag_80:\n        /* \"#utility.yul\":628:657   */\n      tag_81\n        /* \"#utility.yul\":647:656   */\n      dup5\n        /* \"#utility.yul\":628:657   */\n      tag_73\n      jump\t// in\n    tag_81:\n        /* \"#utility.yul\":618:657   */\n      swap3\n      pop\n        /* \"#utility.yul\":708:710   */\n      0x20\n        /* \"#utility.yul\":697:706   */\n      dup5\n        /* \"#utility.yul\":693:711   */\n      add\n        /* \"#utility.yul\":680:712   */\n      calldataload\n        /* \"#utility.yul\":731:749   */\n      0xffffffffffffffff\n        /* \"#utility.yul\":772:774   */\n      dup1\n        /* \"#utility.yul\":764:770   */\n      dup3\n        /* \"#utility.yul\":761:775   */\n      gt\n        /* \"#utility.yul\":758:792   */\n      iszero\n      tag_82\n      jumpi\n        /* \"#utility.yul\":788:789   */\n      0x00\n        /* \"#utility.yul\":785:786   */\n      dup1\n        /* \"#utility.yul\":778:790   */\n      revert\n        /* \"#utility.yul\":758:792   */\n    tag_82:\n        /* \"#utility.yul\":826:832   */\n      dup2\n        /* \"#utility.yul\":815:824   */\n      dup7\n        /* \"#utility.yul\":811:833   */\n      add\n        /* \"#utility.yul\":801:833   */\n      swap2\n      pop\n        /* \"#utility.yul\":871:878   */\n      dup7\n        /* \"#utility.yul\":864:868   */\n      0x1f\n        /* \"#utility.yul\":860:862   */\n      dup4\n        /* \"#utility.yul\":856:869   */\n      add\n        /* \"#utility.yul\":852:879   */\n      slt\n        /* \"#utility.yul\":842:897   */\n      tag_83\n      jumpi\n        /* \"#utility.yul\":893:894   */\n      0x00\n        /* \"#utility.yul\":890:891   */\n      dup1\n        /* \"#utility.yul\":883:895   */\n      revert\n        /* \"#utility.yul\":842:897   */\n    tag_83:\n        /* \"#utility.yul\":933:935   */\n      dup2\n        /* \"#utility.yul\":920:936   */\n      calldataload\n        /* \"#utility.yul\":959:961   */\n      dup2\n        /* \"#utility.yul\":951:957   */\n      dup2\n        /* \"#utility.yul\":948:962   */\n      gt\n        /* \"#utility.yul\":945:979   */\n      iszero\n      tag_84\n      jumpi\n        /* \"#utility.yul\":975:976   */\n      0x00\n        /* \"#utility.yul\":972:973   */\n      dup1\n        /* \"#utility.yul\":965:977   */\n      revert\n        /* \"#utility.yul\":945:979   */\n    tag_84:\n        /* \"#utility.yul\":1028:1035   */\n      dup8\n        /* \"#utility.yul\":1023:1025   */\n      0x20\n        /* \"#utility.yul\":1013:1019   */\n      dup3\n        /* \"#utility.yul\":1010:1011   */\n      0x06\n        /* \"#utility.yul\":1006:1020   */\n      shl\n        /* \"#utility.yul\":1002:1004   */\n      dup6\n        /* \"#utility.yul\":998:1021   */\n      add\n        /* \"#utility.yul\":994:1026   */\n      add\n        /* \"#utility.yul\":991:1036   */\n      gt\n        /* \"#utility.yul\":988:1053   */\n      iszero\n      tag_85\n      jumpi\n        /* \"#utility.yul\":1049:1050   */\n      0x00\n        /* \"#utility.yul\":1046:1047   */\n      dup1\n        /* \"#utility.yul\":1039:1051   */\n      revert\n        /* \"#utility.yul\":988:1053   */\n    tag_85:\n        /* \"#utility.yul\":1080:1082   */\n      0x20\n        /* \"#utility.yul\":1076:1078   */\n      dup4\n        /* \"#utility.yul\":1072:1083   */\n      add\n        /* \"#utility.yul\":1062:1083   */\n      swap5\n      pop\n        /* \"#utility.yul\":1102:1108   */\n      dup1\n        /* \"#utility.yul\":1092:1108   */\n      swap4\n      pop\n      pop\n      pop\n      pop\n        /* \"#utility.yul\":400:1114   */\n      swap3\n      pop\n      swap3\n      pop\n      swap3\n      jump\t// out\n        /* \"#utility.yul\":1119:1246   */\n    tag_21:\n        /* \"#utility.yul\":1180:1190   */\n      0x4e487b71\n        /* \"#utility.yul\":1175:1178   */\n      0xe0\n        /* \"#utility.yul\":1171:1191   */\n      shl\n        /* \"#utility.yul\":1168:1169   */\n      0x00\n        /* \"#utility.yul\":1161:1192   */\n      mstore\n        /* \"#utility.yul\":1211:1215   */\n      0x32\n        /* \"#utility.yul\":1208:1209   */\n      0x04\n        /* \"#utility.yul\":1201:1216   */\n      mstore\n        /* \"#utility.yul\":1235:1239   */\n      0x24\n        /* \"#utility.yul\":1232:1233   */\n      0x00\n        /* \"#utility.yul\":1225:1240   */\n      revert\n        /* \"#utility.yul\":1251:1437   */\n    tag_23:\n        /* \"#utility.yul\":1310:1316   */\n      0x00\n        /* \"#utility.yul\":1363:1365   */\n      0x20\n        /* \"#utility.yul\":1351:1360   */\n      dup3\n        /* \"#utility.yul\":1342:1349   */\n      dup5\n        /* \"#utility.yul\":1338:1361   */\n      sub\n        /* \"#utility.yul\":1334:1366   */\n      slt\n        /* \"#utility.yul\":1331:1383   */\n      iszero\n      tag_88\n      jumpi\n        /* \"#utility.yul\":1379:1380   */\n      0x00\n        /* \"#utility.yul\":1376:1377   */\n      dup1\n        /* \"#utility.yul\":1369:1381   */\n      revert\n        /* \"#utility.yul\":1331:1383   */\n    tag_88:\n        /* \"#utility.yul\":1402:1431   */\n      tag_89\n        /* \"#utility.yul\":1421:1430   */\n      dup3\n        /* \"#utility.yul\":1402:1431   */\n      tag_73\n      jump\t// in\n    tag_89:\n        /* \"#utility.yul\":1392:1431   */\n      swap4\n        /* \"#utility.yul\":1251:1437   */\n      swap3\n      pop\n      pop\n      pop\n      jump\t// out\n        /* \"#utility.yul\":1822:2099   */\n    tag_38:\n        /* \"#utility.yul\":1889:1895   */\n      0x00\n        /* \"#utility.yul\":1942:1944   */\n      0x20\n        /* \"#utility.yul\":1930:1939   */\n      dup3\n        /* \"#utility.yul\":1921:1928   */\n      dup5\n        /* \"#utility.yul\":1917:1940   */\n      sub\n        /* \"#utility.yul\":1913:1945   */\n      slt\n        /* \"#utility.yul\":1910:1962   */\n      iszero\n      tag_92\n      jumpi\n        /* \"#utility.yul\":1958:1959   */\n      0x00\n        /* \"#utility.yul\":1955:1956   */\n      dup1\n        /* \"#utility.yul\":1948:1960   */\n      revert\n        /* \"#utility.yul\":1910:1962   */\n    tag_92:\n        /* \"#utility.yul\":1990:1999   */\n      dup2\n        /* \"#utility.yul\":1984:2000   */\n      mload\n        /* \"#utility.yul\":2043:2048   */\n      dup1\n        /* \"#utility.yul\":2036:2049   */\n      iszero\n        /* \"#utility.yul\":2029:2050   */\n      iszero\n        /* \"#utility.yul\":2022:2027   */\n      dup2\n        /* \"#utility.yul\":2019:2051   */\n      eq\n        /* \"#utility.yul\":2009:2069   */\n      tag_89\n      jumpi\n        /* \"#utility.yul\":2065:2066   */\n      0x00\n        /* \"#utility.yul\":2062:2063   */\n      dup1\n        /* \"#utility.yul\":2055:2067   */\n      revert\n        /* \"#utility.yul\":2922:3172   */\n    tag_74:\n        /* \"#utility.yul\":3007:3008   */\n      0x00\n        /* \"#utility.yul\":3017:3130   */\n    tag_97:\n        /* \"#utility.yul\":3031:3037   */\n      dup4\n        /* \"#utility.yul\":3028:3029   */\n      dup2\n        /* \"#utility.yul\":3025:3038   */\n      lt\n        /* \"#utility.yul\":3017:3130   */\n      iszero\n      tag_99\n      jumpi\n        /* \"#utility.yul\":3107:3118   */\n      dup2\n      dup2\n      add\n        /* \"#utility.yul\":3101:3119   */\n      mload\n        /* \"#utility.yul\":3088:3099   */\n      dup4\n      dup3\n      add\n        /* \"#utility.yul\":3081:3120   */\n      mstore\n        /* \"#utility.yul\":3053:3055   */\n      0x20\n        /* \"#utility.yul\":3046:3056   */\n      add\n        /* \"#utility.yul\":3017:3130   */\n      jump(tag_97)\n    tag_99:\n      pop\n      pop\n        /* \"#utility.yul\":3164:3165   */\n      0x00\n        /* \"#utility.yul\":3146:3162   */\n      swap2\n      add\n        /* \"#utility.yul\":3139:3166   */\n      mstore\n        /* \"#utility.yul\":2922:3172   */\n      jump\t// out\n        /* \"#utility.yul\":3177:3464   */\n    tag_50:\n        /* \"#utility.yul\":3306:3309   */\n      0x00\n        /* \"#utility.yul\":3344:3350   */\n      dup3\n        /* \"#utility.yul\":3338:3351   */\n      mload\n        /* \"#utility.yul\":3360:3426   */\n      tag_101\n        /* \"#utility.yul\":3419:3425   */\n      dup2\n        /* \"#utility.yul\":3414:3417   */\n      dup5\n        /* \"#utility.yul\":3407:3411   */\n      0x20\n        /* \"#utility.yul\":3399:3405   */\n      dup8\n        /* \"#utility.yul\":3395:3412   */\n      add\n        /* \"#utility.yul\":3360:3426   */\n      tag_74\n      jump\t// in\n    tag_101:\n        /* \"#utility.yul\":3442:3458   */\n      swap2\n      swap1\n      swap2\n      add\n      swap3\n        /* \"#utility.yul\":3177:3464   */\n      swap2\n      pop\n      pop\n      jump\t// out\n        /* \"#utility.yul\":3827:4223   */\n    tag_72:\n        /* \"#utility.yul\":3976:3978   */\n      0x20\n        /* \"#utility.yul\":3965:3974   */\n      dup2\n        /* \"#utility.yul\":3958:3979   */\n      mstore\n        /* \"#utility.yul\":3939:3943   */\n      0x00\n        /* \"#utility.yul\":4008:4014   */\n      dup3\n        /* \"#utility.yul\":4002:4015   */\n      mload\n        /* \"#utility.yul\":4051:4057   */\n      dup1\n        /* \"#utility.yul\":4046:4048   */\n      0x20\n        /* \"#utility.yul\":4035:4044   */\n      dup5\n        /* \"#utility.yul\":4031:4049   */\n      add\n        /* \"#utility.yul\":4024:4058   */\n      mstore\n        /* \"#utility.yul\":4067:4146   */\n      tag_104\n        /* \"#utility.yul\":4139:4145   */\n      dup2\n        /* \"#utility.yul\":4134:4136   */\n      0x40\n        /* \"#utility.yul\":4123:4132   */\n      dup6\n        /* \"#utility.yul\":4119:4137   */\n      add\n        /* \"#utility.yul\":4114:4116   */\n      0x20\n        /* \"#utility.yul\":4106:4112   */\n      dup8\n        /* \"#utility.yul\":4102:4117   */\n      add\n        /* \"#utility.yul\":4067:4146   */\n      tag_74\n      jump\t// in\n    tag_104:\n        /* \"#utility.yul\":4207:4209   */\n      0x1f\n        /* \"#utility.yul\":4186:4201   */\n      add\n      not(0x1f)\n        /* \"#utility.yul\":4182:4211   */\n      and\n        /* \"#utility.yul\":4167:4212   */\n      swap2\n      swap1\n      swap2\n      add\n        /* \"#utility.yul\":4214:4216   */\n      0x40\n        /* \"#utility.yul\":4163:4217   */\n      add\n      swap3\n        /* \"#utility.yul\":3827:4223   */\n      swap2\n      pop\n      pop\n      jump\t// out\n\n    auxdata: 0xa2646970667358221220e51d3d4518f4977d917b5c3f797ee153602de0c375d59dc0793b1676cd05b2ed64736f6c63430008130033\n}\n",
				"bytecode": {
					"linkReferences": {},
					"object": "60a060405234801561001057600080fd5b50336080526080516105d96100356000396000818160400152609e01526105d96000f3fe608060405234801561001057600080fd5b50600436106100365760003560e01c8063262d61521461003b57806377fc3fa81461007e575b600080fd5b6100627f000000000000000000000000000000000000000000000000000000000000000081565b6040516001600160a01b03909116815260200160405180910390f35b61009161008c366004610450565b610093565b005b336001600160a01b037f000000000000000000000000000000000000000000000000000000000000000016146100e35760405163403e63e960e01b81523360048201526024015b60405180910390fd5b8060005b818110156101635736848483818110610102576101026104d6565b6001909401936040029190910191506000905061012260208301836104ec565b6001600160a01b03160361013657506100e7565b61015d86336020840180359061014c90866104ec565b6001600160a01b031692919061016a565b506100e7565b5050505050565b604080516001600160a01b0385811660248301528416604482015260648082018490528251808303909101815260849091019091526020810180516001600160e01b03166323b872dd60e01b1790526101c49085906101ca565b50505050565b600061021f826040518060400160405280602081526020017f5361666545524332303a206c6f772d6c6576656c2063616c6c206661696c6564815250856001600160a01b03166102a49092919063ffffffff16565b9050805160001480610240575080806020019051810190610240919061050e565b61029f5760405162461bcd60e51b815260206004820152602a60248201527f5361666545524332303a204552433230206f7065726174696f6e20646964206e6044820152691bdd081cdd58d8d9595960b21b60648201526084016100da565b505050565b60606102b384846000856102bb565b949350505050565b60608247101561031c5760405162461bcd60e51b815260206004820152602660248201527f416464726573733a20696e73756666696369656e742062616c616e636520666f6044820152651c8818d85b1b60d21b60648201526084016100da565b600080866001600160a01b031685876040516103389190610554565b60006040518083038185875af1925050503d8060008114610375576040519150601f19603f3d011682016040523d82523d6000602084013e61037a565b606091505b509150915061038b87838387610396565b979650505050505050565b606083156104055782516000036103fe576001600160a01b0385163b6103fe5760405162461bcd60e51b815260206004820152601d60248201527f416464726573733a2063616c6c20746f206e6f6e2d636f6e747261637400000060448201526064016100da565b50816102b3565b6102b3838381511561041a5781518083602001fd5b8060405162461bcd60e51b81526004016100da9190610570565b80356001600160a01b038116811461044b57600080fd5b919050565b60008060006040848603121561046557600080fd5b61046e84610434565b9250602084013567ffffffffffffffff8082111561048b57600080fd5b818601915086601f83011261049f57600080fd5b8135818111156104ae57600080fd5b8760208260061b85010111156104c357600080fd5b6020830194508093505050509250925092565b634e487b7160e01b600052603260045260246000fd5b6000602082840312156104fe57600080fd5b61050782610434565b9392505050565b60006020828403121561052057600080fd5b8151801515811461050757600080fd5b60005b8381101561054b578181015183820152602001610533565b50506000910152565b60008251610566818460208701610530565b9190910192915050565b602081526000825180602084015261058f816040850160208701610530565b601f01601f1916919091016040019291505056fea2646970667358221220e51d3d4518f4977d917b5c3f797ee153602de0c375d59dc0793b1676cd05b2ed64736f6c63430008130033",
					"opcodes": "PUSH1 0xA0 PUSH1 0x40 MSTORE CALLVALUE DUP1 ISZERO PUSH2 0x10 JUMPI PUSH1 0x0 DUP1 REVERT JUMPDEST POP CALLER PUSH1 0x80 MSTORE PUSH1 0x80 MLOAD PUSH2 0x5D9 PUSH2 0x35 PUSH1 0x0 CODECOPY PUSH1 0x0 DUP2 DUP2 PUSH1 0x40 ADD MSTORE PUSH1 0x9E ADD MSTORE PUSH2 0x5D9 PUSH1 0x0 RETURN INVALID PUSH1 0x80 PUSH1 0x40 MSTORE CALLVALUE DUP1 ISZERO PUSH2 0x10 JUMPI PUSH1 0x0 DUP1 REVERT JUMPDEST POP PUSH1 0x4 CALLDATASIZE LT PUSH2 0x36 JUMPI PUSH1 0x0 CALLDATALOAD PUSH1 0xE0 SHR DUP1 PUSH4 0x262D6152 EQ PUSH2 0x3B JUMPI DUP1 PUSH4 0x77FC3FA8 EQ PUSH2 0x7E JUMPI JUMPDEST PUSH1 0x0 DUP1 REVERT JUMPDEST PUSH2 0x62 PUSH32 0x0 DUP2 JUMP JUMPDEST PUSH1 0x40 MLOAD PUSH1 0x1 PUSH1 0x1 PUSH1 0xA0 SHL SUB SWAP1 SWAP2 AND DUP2 MSTORE PUSH1 0x20 ADD PUSH1 0x40 MLOAD DUP1 SWAP2 SUB SWAP1 RETURN JUMPDEST PUSH2 0x91 PUSH2 0x8C CALLDATASIZE PUSH1 0x4 PUSH2 0x450 JUMP JUMPDEST PUSH2 0x93 JUMP JUMPDEST STOP JUMPDEST CALLER PUSH1 0x1 PUSH1 0x1 PUSH1 0xA0 SHL SUB PUSH32 0x0 AND EQ PUSH2 0xE3 JUMPI PUSH1 0x40 MLOAD PUSH4 0x403E63E9 PUSH1 0xE0 SHL DUP2 MSTORE CALLER PUSH1 0x4 DUP3 ADD MSTORE PUSH1 0x24 ADD JUMPDEST PUSH1 0x40 MLOAD DUP1 SWAP2 SUB SWAP1 REVERT JUMPDEST DUP1 PUSH1 0x0 JUMPDEST DUP2 DUP2 LT ISZERO PUSH2 0x163 JUMPI CALLDATASIZE DUP5 DUP5 DUP4 DUP2 DUP2 LT PUSH2 0x102 JUMPI PUSH2 0x102 PUSH2 0x4D6 JUMP JUMPDEST PUSH1 0x1 SWAP1 SWAP5 ADD SWAP4 PUSH1 0x40 MUL SWAP2 SWAP1 SWAP2 ADD SWAP2 POP PUSH1 0x0 SWAP1 POP PUSH2 0x122 PUSH1 0x20 DUP4 ADD DUP4 PUSH2 0x4EC JUMP JUMPDEST PUSH1 0x1 PUSH1 0x1 PUSH1 0xA0 SHL SUB AND SUB PUSH2 0x136 JUMPI POP PUSH2 0xE7 JUMP JUMPDEST PUSH2 0x15D DUP7 CALLER PUSH1 0x20 DUP5 ADD DUP1 CALLDATALOAD SWAP1 PUSH2 0x14C SWAP1 DUP7 PUSH2 0x4EC JUMP JUMPDEST PUSH1 0x1 PUSH1 0x1 PUSH1 0xA0 SHL SUB AND SWAP3 SWAP2 SWAP1 PUSH2 0x16A JUMP JUMPDEST POP PUSH2 0xE7 JUMP JUMPDEST POP POP POP POP POP JUMP JUMPDEST PUSH1 0x40 DUP1 MLOAD PUSH1 0x1 PUSH1 0x1 PUSH1 0xA0 SHL SUB DUP6 DUP2 AND PUSH1 0x24 DUP4 ADD MSTORE DUP5 AND PUSH1 0x44 DUP3 ADD MSTORE PUSH1 0x64 DUP1 DUP3 ADD DUP5 SWAP1 MSTORE DUP3 MLOAD DUP1 DUP4 SUB SWAP1 SWAP2 ADD DUP2 MSTORE PUSH1 0x84 SWAP1 SWAP2 ADD SWAP1 SWAP2 MSTORE PUSH1 0x20 DUP2 ADD DUP1 MLOAD PUSH1 0x1 PUSH1 0x1 PUSH1 0xE0 SHL SUB AND PUSH4 0x23B872DD PUSH1 0xE0 SHL OR SWAP1 MSTORE PUSH2 0x1C4 SWAP1 DUP6 SWAP1 PUSH2 0x1CA JUMP JUMPDEST POP POP POP POP JUMP JUMPDEST PUSH1 0x0 PUSH2 0x21F DUP3 PUSH1 0x40 MLOAD DUP1 PUSH1 0x40 ADD PUSH1 0x40 MSTORE DUP1 PUSH1 0x20 DUP2 MSTORE PUSH1 0x20 ADD PUSH32 0x5361666545524332303A206C6F772D6C6576656C2063616C6C206661696C6564 DUP2 MSTORE POP DUP6 PUSH1 0x1 PUSH1 0x1 PUSH1 0xA0 SHL SUB AND PUSH2 0x2A4 SWAP1 SWAP3 SWAP2 SWAP1 PUSH4 0xFFFFFFFF AND JUMP JUMPDEST SWAP1 POP DUP1 MLOAD PUSH1 0x0 EQ DUP1 PUSH2 0x240 JUMPI POP DUP1 DUP1 PUSH1 0x20 ADD SWAP1 MLOAD DUP2 ADD SWAP1 PUSH2 0x240 SWAP2 SWAP1 PUSH2 0x50E JUMP JUMPDEST PUSH2 0x29F JUMPI PUSH1 0x40 MLOAD PUSH3 0x461BCD PUSH1 0xE5 SHL DUP2 MSTORE PUSH1 0x20 PUSH1 0x4 DUP3 ADD MSTORE PUSH1 0x2A PUSH1 0x24 DUP3 ADD MSTORE PUSH32 0x5361666545524332303A204552433230206F7065726174696F6E20646964206E PUSH1 0x44 DUP3 ADD MSTORE PUSH10 0x1BDD081CDD58D8D95959 PUSH1 0xB2 SHL PUSH1 0x64 DUP3 ADD MSTORE PUSH1 0x84 ADD PUSH2 0xDA JUMP JUMPDEST POP POP POP JUMP JUMPDEST PUSH1 0x60 PUSH2 0x2B3 DUP5 DUP5 PUSH1 0x0 DUP6 PUSH2 0x2BB JUMP JUMPDEST SWAP5 SWAP4 POP POP POP POP JUMP JUMPDEST PUSH1 0x60 DUP3 SELFBALANCE LT ISZERO PUSH2 0x31C JUMPI PUSH1 0x40 MLOAD PUSH3 0x461BCD PUSH1 0xE5 SHL DUP2 MSTORE PUSH1 0x20 PUSH1 0x4 DUP3 ADD MSTORE PUSH1 0x26 PUSH1 0x24 DUP3 ADD MSTORE PUSH32 0x416464726573733A20696E73756666696369656E742062616C616E636520666F PUSH1 0x44 DUP3 ADD MSTORE PUSH6 0x1C8818D85B1B PUSH1 0xD2 SHL PUSH1 0x64 DUP3 ADD MSTORE PUSH1 0x84 ADD PUSH2 0xDA JUMP JUMPDEST PUSH1 0x0 DUP1 DUP7 PUSH1 0x1 PUSH1 0x1 PUSH1 0xA0 SHL SUB AND DUP6 DUP8 PUSH1 0x40 MLOAD PUSH2 0x338 SWAP2 SWAP1 PUSH2 0x554 JUMP JUMPDEST PUSH1 0x0 PUSH1 0x40 MLOAD DUP1 DUP4 SUB DUP2 DUP6 DUP8 GAS CALL SWAP3 POP POP POP RETURNDATASIZE DUP1 PUSH1 0x0 DUP2 EQ PUSH2 0x375 JUMPI PUSH1 0x40 MLOAD SWAP2 POP PUSH1 0x1F NOT PUSH1 0x3F RETURNDATASIZE ADD AND DUP3 ADD PUSH1 0x40 MSTORE RETURNDATASIZE DUP3 MSTORE RETURNDATASIZE PUSH1 0x0 PUSH1 0x20 DUP5 ADD RETURNDATACOPY PUSH2 0x37A JUMP JUMPDEST PUSH1 0x60 SWAP2 POP JUMPDEST POP SWAP2 POP SWAP2 POP PUSH2 0x38B DUP8 DUP4 DUP4 DUP8 PUSH2 0x396 JUMP JUMPDEST SWAP8 SWAP7 POP POP POP POP POP POP POP JUMP JUMPDEST PUSH1 0x60 DUP4 ISZERO PUSH2 0x405 JUMPI DUP3 MLOAD PUSH1 0x0 SUB PUSH2 0x3FE JUMPI PUSH1 0x1 PUSH1 0x1 PUSH1 0xA0 SHL SUB DUP6 AND EXTCODESIZE PUSH2 0x3FE JUMPI PUSH1 0x40 MLOAD PUSH3 0x461BCD PUSH1 0xE5 SHL DUP2 MSTORE PUSH1 0x20 PUSH1 0x4 DUP3 ADD MSTORE PUSH1 0x1D PUSH1 0x24 DUP3 ADD MSTORE PUSH32 0x416464726573733A2063616C6C20746F206E6F6E2D636F6E7472616374000000 PUSH1 0x44 DUP3 ADD MSTORE PUSH1 0x64 ADD PUSH2 0xDA JUMP JUMPDEST POP DUP2 PUSH2 0x2B3 JUMP JUMPDEST PUSH2 0x2B3 DUP4 DUP4 DUP2 MLOAD ISZERO PUSH2 0x41A JUMPI DUP2 MLOAD DUP1 DUP4 PUSH1 0x20 ADD REVERT JUMPDEST DUP1 PUSH1 0x40 MLOAD PUSH3 0x461BCD PUSH1 0xE5 SHL DUP2 MSTORE PUSH1 0x4 ADD PUSH2 0xDA SWAP2 SWAP1 PUSH2 0x570 JUMP JUMPDEST DUP1 CALLDATALOAD PUSH1 0x1 PUSH1 0x1 PUSH1 0xA0 SHL SUB DUP2 AND DUP2 EQ PUSH2 0x44B JUMPI PUSH1 0x0 DUP1 REVERT JUMPDEST SWAP2 SWAP1 POP JUMP JUMPDEST PUSH1 0x0 DUP1 PUSH1 0x0 PUSH1 0x40 DUP5 DUP7 SUB SLT ISZERO PUSH2 0x465 JUMPI PUSH1 0x0 DUP1 REVERT JUMPDEST PUSH2 0x46E DUP5 PUSH2 0x434 JUMP JUMPDEST SWAP3 POP PUSH1 0x20 DUP5 ADD CALLDATALOAD PUSH8 0xFFFFFFFFFFFFFFFF DUP1 DUP3 GT ISZERO PUSH2 0x48B JUMPI PUSH1 0x0 DUP1 REVERT JUMPDEST DUP2 DUP7 ADD SWAP2 POP DUP7 PUSH1 0x1F DUP4 ADD SLT PUSH2 0x49F JUMPI PUSH1 0x0 DUP1 REVERT JUMPDEST DUP2 CALLDATALOAD DUP2 DUP2 GT ISZERO PUSH2 0x4AE JUMPI PUSH1 0x0 DUP1 REVERT JUMPDEST DUP8 PUSH1 0x20 DUP3 PUSH1 0x6 SHL DUP6 ADD ADD GT ISZERO PUSH2 0x4C3 JUMPI PUSH1 0x0 DUP1 REVERT JUMPDEST PUSH1 0x20 DUP4 ADD SWAP5 POP DUP1 SWAP4 POP POP POP POP SWAP3 POP SWAP3 POP SWAP3 JUMP JUMPDEST PUSH4 0x4E487B71 PUSH1 0xE0 SHL PUSH1 0x0 MSTORE PUSH1 0x32 PUSH1 0x4 MSTORE PUSH1 0x24 PUSH1 0x0 REVERT JUMPDEST PUSH1 0x0 PUSH1 0x20 DUP3 DUP5 SUB SLT ISZERO PUSH2 0x4FE JUMPI PUSH1 0x0 DUP1 REVERT JUMPDEST PUSH2 0x507 DUP3 PUSH2 0x434 JUMP JUMPDEST SWAP4 SWAP3 POP POP POP JUMP JUMPDEST PUSH1 0x0 PUSH1 0x20 DUP3 DUP5 SUB SLT ISZERO PUSH2 0x520 JUMPI PUSH1 0x0 DUP1 REVERT JUMPDEST DUP2 MLOAD DUP1 ISZERO ISZERO DUP2 EQ PUSH2 0x507 JUMPI PUSH1 0x0 DUP1 REVERT JUMPDEST PUSH1 0x0 JUMPDEST DUP4 DUP2 LT ISZERO PUSH2 0x54B JUMPI DUP2 DUP2 ADD MLOAD DUP4 DUP3 ADD MSTORE PUSH1 0x20 ADD PUSH2 0x533 JUMP JUMPDEST POP POP PUSH1 0x0 SWAP2 ADD MSTORE JUMP JUMPDEST PUSH1 0x0 DUP3 MLOAD PUSH2 0x566 DUP2 DUP5 PUSH1 0x20 DUP8 ADD PUSH2 0x530 JUMP JUMPDEST SWAP2 SWAP1 SWAP2 ADD SWAP3 SWAP2 POP POP JUMP JUMPDEST PUSH1 0x20 DUP2 MSTORE PUSH1 0x0 DUP3 MLOAD DUP1 PUSH1 0x20 DUP5 ADD MSTORE PUSH2 0x58F DUP2 PUSH1 0x40 DUP6 ADD PUSH1 0x20 DUP8 ADD PUSH2 0x530 JUMP JUMPDEST PUSH1 0x1F ADD PUSH1 0x1F NOT AND SWAP2 SWAP1 SWAP2 ADD PUSH1 0x40 ADD SWAP3 SWAP2 POP POP JUMP INVALID LOG2 PUSH5 0x6970667358 0x22 SLT KECCAK256 0xE5 SAR RETURNDATASIZE GASLIMIT XOR DELEGATECALL SWAP8 PUSH30 0x917B5C3F797EE153602DE0C375D59DC0793B1676CD05B2ED64736F6C6343 STOP ADDMOD SGT STOP CALLER "
				},
				"gasEstimates": {
					"creation": {
						"codeDepositCost": "299400",
						"executionCost": "infinite",
						"totalCost": "infinite"
					},
					"external": {
						"pullTokens(address,(address,uint256)[])": "infinite",
						"zap()": "infinite"
					}
				},
				"methodIdentifiers": {
					"pullTokens(address,(address,uint256)[])": "77fc3fa8",
					"zap()": "262d6152"
				}
			},
			"storageLayout": {
				"storage": [],
				"types": null
			},
			"userdoc": {
				"kind": "user",
				"methods": {
					"pullTokens(address,(address,uint256)[])": {
						"notice": "Pulls tokens from a user and transfers them directly to the zap router"
					},
					"zap()": {
						"notice": "Zap router immutable address"
					}
				},
				"notice": "Token manager handles the token approvals for the zap router",
				"version": 1
			}
		}
	}
}