{
	"contracts/zaps/PlexusZapRouter.sol": {
		"PlexusZapRouter": {
			"abi": [
				{
					"inputs": [],
					"stateMutability": "nonpayable",
					"type": "constructor"
				},
				{
					"inputs": [
						{
							"internalType": "address",
							"name": "target",
							"type": "address"
						},
						{
							"internalType": "uint256",
							"name": "value",
							"type": "uint256"
						},
						{
							"internalType": "bytes",
							"name": "callData",
							"type": "bytes"
						}
					],
					"name": "CallFailed",
					"type": "error"
				},
				{
					"inputs": [
						{
							"internalType": "address",
							"name": "caller",
							"type": "address"
						}
					],
					"name": "CallerNotZap",
					"type": "error"
				},
				{
					"inputs": [
						{
							"internalType": "address",
							"name": "recipient",
							"type": "address"
						}
					],
					"name": "EtherTransferFailed",
					"type": "error"
				},
				{
					"inputs": [
						{
							"internalType": "uint256",
							"name": "balance",
							"type": "uint256"
						},
						{
							"internalType": "uint256",
							"name": "relayValue",
							"type": "uint256"
						}
					],
					"name": "InsufficientRelayValue",
					"type": "error"
				},
				{
					"inputs": [
						{
							"internalType": "address",
							"name": "owner",
							"type": "address"
						},
						{
							"internalType": "address",
							"name": "caller",
							"type": "address"
						}
					],
					"name": "InvalidCaller",
					"type": "error"
				},
				{
					"inputs": [
						{
							"internalType": "address",
							"name": "token",
							"type": "address"
						},
						{
							"internalType": "uint256",
							"name": "minAmountOut",
							"type": "uint256"
						},
						{
							"internalType": "uint256",
							"name": "balance",
							"type": "uint256"
						}
					],
					"name": "Slippage",
					"type": "error"
				},
				{
					"inputs": [
						{
							"internalType": "address",
							"name": "target",
							"type": "address"
						}
					],
					"name": "TargetingInvalidContract",
					"type": "error"
				},
				{
					"anonymous": false,
					"inputs": [
						{
							"components": [
								{
									"components": [
										{
											"internalType": "address",
											"name": "token",
											"type": "address"
										},
										{
											"internalType": "uint256",
											"name": "amount",
											"type": "uint256"
										}
									],
									"internalType": "struct IPlexusZapRouter.Input[]",
									"name": "inputs",
									"type": "tuple[]"
								},
								{
									"components": [
										{
											"internalType": "address",
											"name": "token",
											"type": "address"
										},
										{
											"internalType": "uint256",
											"name": "minOutputAmount",
											"type": "uint256"
										}
									],
									"internalType": "struct IPlexusZapRouter.Output[]",
									"name": "outputs",
									"type": "tuple[]"
								},
								{
									"components": [
										{
											"internalType": "address",
											"name": "target",
											"type": "address"
										},
										{
											"internalType": "uint256",
											"name": "value",
											"type": "uint256"
										},
										{
											"internalType": "bytes",
											"name": "data",
											"type": "bytes"
										}
									],
									"internalType": "struct IPlexusZapRouter.Relay",
									"name": "relay",
									"type": "tuple"
								},
								{
									"internalType": "address",
									"name": "user",
									"type": "address"
								},
								{
									"internalType": "address",
									"name": "recipient",
									"type": "address"
								}
							],
							"indexed": true,
							"internalType": "struct IPlexusZapRouter.Order",
							"name": "order",
							"type": "tuple"
						},
						{
							"indexed": true,
							"internalType": "address",
							"name": "caller",
							"type": "address"
						},
						{
							"indexed": true,
							"internalType": "address",
							"name": "recipient",
							"type": "address"
						}
					],
					"name": "FulfilledOrder",
					"type": "event"
				},
				{
					"anonymous": false,
					"inputs": [
						{
							"indexed": true,
							"internalType": "address",
							"name": "previousOwner",
							"type": "address"
						},
						{
							"indexed": true,
							"internalType": "address",
							"name": "newOwner",
							"type": "address"
						}
					],
					"name": "OwnershipTransferred",
					"type": "event"
				},
				{
					"anonymous": false,
					"inputs": [
						{
							"indexed": false,
							"internalType": "address",
							"name": "account",
							"type": "address"
						}
					],
					"name": "Paused",
					"type": "event"
				},
				{
					"anonymous": false,
					"inputs": [
						{
							"indexed": true,
							"internalType": "address",
							"name": "target",
							"type": "address"
						},
						{
							"indexed": false,
							"internalType": "uint256",
							"name": "value",
							"type": "uint256"
						},
						{
							"indexed": false,
							"internalType": "bytes",
							"name": "data",
							"type": "bytes"
						}
					],
					"name": "RelayData",
					"type": "event"
				},
				{
					"anonymous": false,
					"inputs": [
						{
							"indexed": true,
							"internalType": "address",
							"name": "token",
							"type": "address"
						},
						{
							"indexed": false,
							"internalType": "uint256",
							"name": "amount",
							"type": "uint256"
						}
					],
					"name": "TokenReturned",
					"type": "event"
				},
				{
					"anonymous": false,
					"inputs": [
						{
							"indexed": false,
							"internalType": "address",
							"name": "account",
							"type": "address"
						}
					],
					"name": "Unpaused",
					"type": "event"
				},
				{
					"inputs": [
						{
							"components": [
								{
									"components": [
										{
											"internalType": "address",
											"name": "token",
											"type": "address"
										},
										{
											"internalType": "uint256",
											"name": "amount",
											"type": "uint256"
										}
									],
									"internalType": "struct IPlexusZapRouter.Input[]",
									"name": "inputs",
									"type": "tuple[]"
								},
								{
									"components": [
										{
											"internalType": "address",
											"name": "token",
											"type": "address"
										},
										{
											"internalType": "uint256",
											"name": "minOutputAmount",
											"type": "uint256"
										}
									],
									"internalType": "struct IPlexusZapRouter.Output[]",
									"name": "outputs",
									"type": "tuple[]"
								},
								{
									"components": [
										{
											"internalType": "address",
											"name": "target",
											"type": "address"
										},
										{
											"internalType": "uint256",
											"name": "value",
											"type": "uint256"
										},
										{
											"internalType": "bytes",
											"name": "data",
											"type": "bytes"
										}
									],
									"internalType": "struct IPlexusZapRouter.Relay",
									"name": "relay",
									"type": "tuple"
								},
								{
									"internalType": "address",
									"name": "user",
									"type": "address"
								},
								{
									"internalType": "address",
									"name": "recipient",
									"type": "address"
								}
							],
							"internalType": "struct IPlexusZapRouter.Order",
							"name": "_order",
							"type": "tuple"
						},
						{
							"components": [
								{
									"internalType": "address",
									"name": "target",
									"type": "address"
								},
								{
									"internalType": "uint256",
									"name": "value",
									"type": "uint256"
								},
								{
									"internalType": "bytes",
									"name": "data",
									"type": "bytes"
								},
								{
									"components": [
										{
											"internalType": "address",
											"name": "token",
											"type": "address"
										},
										{
											"internalType": "int32",
											"name": "index",
											"type": "int32"
										}
									],
									"internalType": "struct IPlexusZapRouter.StepToken[]",
									"name": "tokens",
									"type": "tuple[]"
								}
							],
							"internalType": "struct IPlexusZapRouter.Step[]",
							"name": "_route",
							"type": "tuple[]"
						}
					],
					"name": "executeOrder",
					"outputs": [],
					"stateMutability": "payable",
					"type": "function"
				},
				{
					"inputs": [],
					"name": "owner",
					"outputs": [
						{
							"internalType": "address",
							"name": "",
							"type": "address"
						}
					],
					"stateMutability": "view",
					"type": "function"
				},
				{
					"inputs": [],
					"name": "pause",
					"outputs": [],
					"stateMutability": "nonpayable",
					"type": "function"
				},
				{
					"inputs": [],
					"name": "paused",
					"outputs": [
						{
							"internalType": "bool",
							"name": "",
							"type": "bool"
						}
					],
					"stateMutability": "view",
					"type": "function"
				},
				{
					"inputs": [],
					"name": "renounceOwnership",
					"outputs": [],
					"stateMutability": "nonpayable",
					"type": "function"
				},
				{
					"inputs": [],
					"name": "tokenManager",
					"outputs": [
						{
							"internalType": "address",
							"name": "",
							"type": "address"
						}
					],
					"stateMutability": "view",
					"type": "function"
				},
				{
					"inputs": [
						{
							"internalType": "address",
							"name": "newOwner",
							"type": "address"
						}
					],
					"name": "transferOwnership",
					"outputs": [],
					"stateMutability": "nonpayable",
					"type": "function"
				},
				{
					"inputs": [],
					"name": "unpause",
					"outputs": [],
					"stateMutability": "nonpayable",
					"type": "function"
				},
				{
					"stateMutability": "payable",
					"type": "receive"
				}
			],
			"devdoc": {
				"events": {
					"FulfilledOrder(((address,uint256)[],(address,uint256)[],(address,uint256,bytes),address,address),address,address)": {
						"params": {
							"caller": "Address of the order's executor",
							"order": "Order that has been fulfilled",
							"recipient": "Address of the order's recipient"
						}
					},
					"Paused(address)": {
						"details": "Emitted when the pause is triggered by `account`."
					},
					"RelayData(address,uint256,bytes)": {
						"params": {
							"data": "Payload of the external call",
							"target": "Address of the target",
							"value": "Ether value of the call"
						}
					},
					"TokenReturned(address,uint256)": {
						"params": {
							"amount": "Amount of the token sent to the recipient",
							"token": "Address of the token sent to recipient"
						}
					},
					"Unpaused(address)": {
						"details": "Emitted when the pause is lifted by `account`."
					}
				},
				"kind": "dev",
				"methods": {
					"executeOrder(((address,uint256)[],(address,uint256)[],(address,uint256,bytes),address,address),(address,uint256,bytes,(address,int32)[])[])": {
						"details": "The user executes their own order directly. User must have already approved the token manager to move the tokens",
						"params": {
							"_order": "Order containing how many tokens to pull and the slippage amounts on outputs",
							"_route": "Route containing the steps to reach the output"
						}
					},
					"owner()": {
						"details": "Returns the address of the current owner."
					},
					"pause()": {
						"details": "Only owner can pause"
					},
					"paused()": {
						"details": "Returns true if the contract is paused, and false otherwise."
					},
					"renounceOwnership()": {
						"details": "Leaves the contract without owner. It will not be possible to call `onlyOwner` functions. Can only be called by the current owner. NOTE: Renouncing ownership will leave the contract without an owner, thereby disabling any functionality that is only available to the owner."
					},
					"transferOwnership(address)": {
						"details": "Transfers ownership of the contract to a new account (`newOwner`). Can only be called by the current owner."
					},
					"unpause()": {
						"details": "Only owner can unpause"
					}
				},
				"title": "Zap router for Plexus vaults",
				"version": 1
			},
			"evm": {
				"assembly": "    /* \"contracts/zaps/PlexusZapRouter.sol\":813:9732  contract PlexusZapRouter is IPlexusZapRouter, ZapErrors, Ownable, Pausable, ReentrancyGuard {... */\n  mstore(0x40, 0xa0)\n    /* \"contracts/zaps/PlexusZapRouter.sol\":1931:2010  constructor() {... */\n  callvalue\n  dup1\n  iszero\n  tag_1\n  jumpi\n  0x00\n  dup1\n  revert\ntag_1:\n  pop\n    /* \"@openzeppelin/contracts/access/Ownable.sol\":936:968  _transferOwnership(_msgSender()) */\n  tag_7\n    /* \"@openzeppelin/contracts/utils/Context.sol\":734:744  msg.sender */\n  caller\n    /* \"@openzeppelin/contracts/access/Ownable.sol\":936:954  _transferOwnership */\n  tag_10\n    /* \"@openzeppelin/contracts/access/Ownable.sol\":936:968  _transferOwnership(_msgSender()) */\n  jump\t// in\ntag_7:\n    /* \"@openzeppelin/contracts/security/Pausable.sol\":1006:1011  false */\n  0x00\n    /* \"@openzeppelin/contracts/security/Pausable.sol\":996:1011  _paused = false */\n  dup1\n  sload\n  not(shl(0xa0, 0xff))\n  and\n  swap1\n  sstore\n  0x01\n    /* \"@openzeppelin/contracts/security/ReentrancyGuard.sol\":1821:1843  _status = _NOT_ENTERED */\n  dup1\n  sstore\n    /* \"contracts/zaps/PlexusZapRouter.sol\":1978:2002  new PlexusTokenManager() */\n  mload(0x40)\n  tag_14\n  swap1\n  tag_15\n  jump\t// in\ntag_14:\n  mload(0x40)\n  dup1\n  swap2\n  sub\n  swap1\n  0x00\n  create\n  dup1\n  iszero\n  dup1\n  iszero\n  tag_16\n  jumpi\n  returndatasize\n  0x00\n  dup1\n  returndatacopy\n  revert(0x00, returndatasize)\ntag_16:\n  pop\n  sub(shl(0xa0, 0x01), 0x01)\n    /* \"contracts/zaps/PlexusZapRouter.sol\":1955:2003  tokenManager = address(new PlexusTokenManager()) */\n  and\n  0x80\n  mstore\n    /* \"contracts/zaps/PlexusZapRouter.sol\":813:9732  contract PlexusZapRouter is IPlexusZapRouter, ZapErrors, Ownable, Pausable, ReentrancyGuard {... */\n  jump(tag_17)\n    /* \"@openzeppelin/contracts/access/Ownable.sol\":2426:2613  function _transferOwnership(address newOwner) internal virtual {... */\ntag_10:\n    /* \"@openzeppelin/contracts/access/Ownable.sol\":2499:2515  address oldOwner */\n  0x00\n    /* \"@openzeppelin/contracts/access/Ownable.sol\":2518:2524  _owner */\n  dup1\n  sload\n  sub(shl(0xa0, 0x01), 0x01)\n    /* \"@openzeppelin/contracts/access/Ownable.sol\":2534:2551  _owner = newOwner */\n  dup4\n  dup2\n  and\n  not(sub(shl(0xa0, 0x01), 0x01))\n  dup4\n  and\n  dup2\n  or\n  dup5\n  sstore\n    /* \"@openzeppelin/contracts/access/Ownable.sol\":2566:2606  OwnershipTransferred(oldOwner, newOwner) */\n  mload(0x40)\n    /* \"@openzeppelin/contracts/access/Ownable.sol\":2518:2524  _owner */\n  swap2\n  swap1\n  swap3\n  and\n  swap3\n  dup4\n  swap2\n    /* \"@openzeppelin/contracts/access/Ownable.sol\":2566:2606  OwnershipTransferred(oldOwner, newOwner) */\n  0x8be0079c531659141344cd1fd0a4f28419497f9722a3daafe3b4186f6b6457e0\n  swap2\n    /* \"@openzeppelin/contracts/access/Ownable.sol\":2499:2515  address oldOwner */\n  swap1\n    /* \"@openzeppelin/contracts/access/Ownable.sol\":2566:2606  OwnershipTransferred(oldOwner, newOwner) */\n  log3\n    /* \"@openzeppelin/contracts/access/Ownable.sol\":2489:2613  {... */\n  pop\n    /* \"@openzeppelin/contracts/access/Ownable.sol\":2426:2613  function _transferOwnership(address newOwner) internal virtual {... */\n  pop\n  jump\t// out\n    /* \"contracts/zaps/PlexusZapRouter.sol\":813:9732  contract PlexusZapRouter is IPlexusZapRouter, ZapErrors, Ownable, Pausable, ReentrancyGuard {... */\ntag_15:\n  dataSize(sub_1)\n  dup1\n  dataOffset(sub_1)\n  dup4\n  codecopy\n  add\n  swap1\n  jump\t// out\ntag_17:\n  mload(0x80)\n  codecopy(0x00, dataOffset(sub_0), dataSize(sub_0))\n  0x00\n  assignImmutable(\"0xe7c5a0bc45d8561c9e2074dafed00a1f1402b2bca9dda08f346e43aaa2234456\")\n  return(0x00, dataSize(sub_0))\nstop\n\nsub_0: assembly {\n        /* \"contracts/zaps/PlexusZapRouter.sol\":813:9732  contract PlexusZapRouter is IPlexusZapRouter, ZapErrors, Ownable, Pausable, ReentrancyGuard {... */\n      mstore(0x40, 0x80)\n      jumpi(tag_1, lt(calldatasize, 0x04))\n      shr(0xe0, calldataload(0x00))\n      dup1\n      0x8456cb59\n      gt\n      tag_11\n      jumpi\n      dup1\n      0x8456cb59\n      eq\n      tag_7\n      jumpi\n      dup1\n      0x8da5cb5b\n      eq\n      tag_8\n      jumpi\n      dup1\n      0xf2fde38b\n      eq\n      tag_9\n      jumpi\n      dup1\n      0xf41b2db6\n      eq\n      tag_10\n      jumpi\n      0x00\n      dup1\n      revert\n    tag_11:\n      dup1\n      0x2a709b14\n      eq\n      tag_3\n      jumpi\n      dup1\n      0x3f4ba83a\n      eq\n      tag_4\n      jumpi\n      dup1\n      0x5c975abb\n      eq\n      tag_5\n      jumpi\n      dup1\n      0x715018a6\n      eq\n      tag_6\n      jumpi\n      0x00\n      dup1\n      revert\n    tag_1:\n      jumpi(tag_2, calldatasize)\n      stop\n    tag_2:\n      0x00\n      dup1\n      revert\n        /* \"contracts/zaps/PlexusZapRouter.sol\":1037:1074  address public immutable tokenManager */\n    tag_3:\n      callvalue\n      dup1\n      iszero\n      tag_14\n      jumpi\n      0x00\n      dup1\n      revert\n    tag_14:\n      pop\n      tag_15\n      immutable(\"0xe7c5a0bc45d8561c9e2074dafed00a1f1402b2bca9dda08f346e43aaa2234456\")\n      dup2\n      jump\n    tag_15:\n      mload(0x40)\n      sub(shl(0xa0, 0x01), 0x01)\n        /* \"#utility.yul\":178:210   */\n      swap1\n      swap2\n      and\n        /* \"#utility.yul\":160:211   */\n      dup2\n      mstore\n        /* \"#utility.yul\":148:150   */\n      0x20\n        /* \"#utility.yul\":133:151   */\n      add\n        /* \"contracts/zaps/PlexusZapRouter.sol\":1037:1074  address public immutable tokenManager */\n    tag_17:\n      mload(0x40)\n      dup1\n      swap2\n      sub\n      swap1\n      return\n        /* \"contracts/zaps/PlexusZapRouter.sol\":9568:9633  function unpause() external onlyOwner {... */\n    tag_4:\n      callvalue\n      dup1\n      iszero\n      tag_19\n      jumpi\n      0x00\n      dup1\n      revert\n    tag_19:\n      pop\n      tag_20\n      tag_21\n      jump\t// in\n    tag_20:\n      stop\n        /* \"@openzeppelin/contracts/security/Pausable.sol\":1615:1699  function paused() public view virtual returns (bool) {... */\n    tag_5:\n      callvalue\n      dup1\n      iszero\n      tag_22\n      jumpi\n      0x00\n      dup1\n      revert\n    tag_22:\n      pop\n        /* \"@openzeppelin/contracts/security/Pausable.sol\":1662:1666  bool */\n      0x00\n        /* \"@openzeppelin/contracts/security/Pausable.sol\":1685:1692  _paused */\n      sload\n      shl(0xa0, 0x01)\n      swap1\n      div\n      0xff\n      and\n        /* \"@openzeppelin/contracts/security/Pausable.sol\":1615:1699  function paused() public view virtual returns (bool) {... */\n      mload(0x40)\n        /* \"#utility.yul\":387:401   */\n      swap1\n      iszero\n        /* \"#utility.yul\":380:402   */\n      iszero\n        /* \"#utility.yul\":362:403   */\n      dup2\n      mstore\n        /* \"#utility.yul\":350:352   */\n      0x20\n        /* \"#utility.yul\":335:353   */\n      add\n        /* \"@openzeppelin/contracts/security/Pausable.sol\":1615:1699  function paused() public view virtual returns (bool) {... */\n      tag_17\n        /* \"#utility.yul\":222:409   */\n      jump\n        /* \"@openzeppelin/contracts/access/Ownable.sol\":1824:1925  function renounceOwnership() public virtual onlyOwner {... */\n    tag_6:\n      callvalue\n      dup1\n      iszero\n      tag_27\n      jumpi\n      0x00\n      dup1\n      revert\n    tag_27:\n      pop\n      tag_20\n      tag_29\n      jump\t// in\n        /* \"contracts/zaps/PlexusZapRouter.sol\":9396:9457  function pause() external onlyOwner {... */\n    tag_7:\n      callvalue\n      dup1\n      iszero\n      tag_30\n      jumpi\n      0x00\n      dup1\n      revert\n    tag_30:\n      pop\n      tag_20\n      tag_32\n      jump\t// in\n        /* \"@openzeppelin/contracts/access/Ownable.sol\":1201:1286  function owner() public view virtual returns (address) {... */\n    tag_8:\n      callvalue\n      dup1\n      iszero\n      tag_33\n      jumpi\n      0x00\n      dup1\n      revert\n    tag_33:\n      pop\n        /* \"@openzeppelin/contracts/access/Ownable.sol\":1247:1254  address */\n      0x00\n        /* \"@openzeppelin/contracts/access/Ownable.sol\":1273:1279  _owner */\n      sload\n      sub(shl(0xa0, 0x01), 0x01)\n      and\n        /* \"@openzeppelin/contracts/access/Ownable.sol\":1201:1286  function owner() public view virtual returns (address) {... */\n      jump(tag_15)\n        /* \"@openzeppelin/contracts/access/Ownable.sol\":2074:2272  function transferOwnership(address newOwner) public virtual onlyOwner {... */\n    tag_9:\n      callvalue\n      dup1\n      iszero\n      tag_37\n      jumpi\n      0x00\n      dup1\n      revert\n    tag_37:\n      pop\n      tag_20\n      tag_39\n      calldatasize\n      0x04\n      tag_40\n      jump\t// in\n    tag_39:\n      tag_41\n      jump\t// in\n        /* \"contracts/zaps/PlexusZapRouter.sol\":2371:2698  function executeOrder(Order calldata _order, Step[] calldata _route) external payable nonReentrant whenNotPaused {... */\n    tag_10:\n      tag_20\n      tag_43\n      calldatasize\n      0x04\n      tag_44\n      jump\t// in\n    tag_43:\n      tag_45\n      jump\t// in\n        /* \"contracts/zaps/PlexusZapRouter.sol\":9568:9633  function unpause() external onlyOwner {... */\n    tag_21:\n        /* \"@openzeppelin/contracts/access/Ownable.sol\":1094:1107  _checkOwner() */\n      tag_47\n        /* \"@openzeppelin/contracts/access/Ownable.sol\":1094:1105  _checkOwner */\n      tag_48\n        /* \"@openzeppelin/contracts/access/Ownable.sol\":1094:1107  _checkOwner() */\n      jump\t// in\n    tag_47:\n        /* \"contracts/zaps/PlexusZapRouter.sol\":9616:9626  _unpause() */\n      tag_50\n        /* \"contracts/zaps/PlexusZapRouter.sol\":9616:9624  _unpause */\n      tag_51\n        /* \"contracts/zaps/PlexusZapRouter.sol\":9616:9626  _unpause() */\n      jump\t// in\n    tag_50:\n        /* \"contracts/zaps/PlexusZapRouter.sol\":9568:9633  function unpause() external onlyOwner {... */\n      jump\t// out\n        /* \"@openzeppelin/contracts/access/Ownable.sol\":1824:1925  function renounceOwnership() public virtual onlyOwner {... */\n    tag_29:\n        /* \"@openzeppelin/contracts/access/Ownable.sol\":1094:1107  _checkOwner() */\n      tag_54\n        /* \"@openzeppelin/contracts/access/Ownable.sol\":1094:1105  _checkOwner */\n      tag_48\n        /* \"@openzeppelin/contracts/access/Ownable.sol\":1094:1107  _checkOwner() */\n      jump\t// in\n    tag_54:\n        /* \"@openzeppelin/contracts/access/Ownable.sol\":1888:1918  _transferOwnership(address(0)) */\n      tag_50\n        /* \"@openzeppelin/contracts/access/Ownable.sol\":1915:1916  0 */\n      0x00\n        /* \"@openzeppelin/contracts/access/Ownable.sol\":1888:1906  _transferOwnership */\n      tag_57\n        /* \"@openzeppelin/contracts/access/Ownable.sol\":1888:1918  _transferOwnership(address(0)) */\n      jump\t// in\n        /* \"contracts/zaps/PlexusZapRouter.sol\":9396:9457  function pause() external onlyOwner {... */\n    tag_32:\n        /* \"@openzeppelin/contracts/access/Ownable.sol\":1094:1107  _checkOwner() */\n      tag_59\n        /* \"@openzeppelin/contracts/access/Ownable.sol\":1094:1105  _checkOwner */\n      tag_48\n        /* \"@openzeppelin/contracts/access/Ownable.sol\":1094:1107  _checkOwner() */\n      jump\t// in\n    tag_59:\n        /* \"contracts/zaps/PlexusZapRouter.sol\":9442:9450  _pause() */\n      tag_50\n        /* \"contracts/zaps/PlexusZapRouter.sol\":9442:9448  _pause */\n      tag_62\n        /* \"contracts/zaps/PlexusZapRouter.sol\":9442:9450  _pause() */\n      jump\t// in\n        /* \"@openzeppelin/contracts/access/Ownable.sol\":2074:2272  function transferOwnership(address newOwner) public virtual onlyOwner {... */\n    tag_41:\n        /* \"@openzeppelin/contracts/access/Ownable.sol\":1094:1107  _checkOwner() */\n      tag_65\n        /* \"@openzeppelin/contracts/access/Ownable.sol\":1094:1105  _checkOwner */\n      tag_48\n        /* \"@openzeppelin/contracts/access/Ownable.sol\":1094:1107  _checkOwner() */\n      jump\t// in\n    tag_65:\n      sub(shl(0xa0, 0x01), 0x01)\n        /* \"@openzeppelin/contracts/access/Ownable.sol\":2162:2184  newOwner != address(0) */\n      dup2\n      and\n        /* \"@openzeppelin/contracts/access/Ownable.sol\":2154:2227  require(newOwner != address(0), \"Ownable: new owner is the zero address\") */\n      tag_67\n      jumpi\n      mload(0x40)\n      shl(0xe5, 0x461bcd)\n      dup2\n      mstore\n        /* \"#utility.yul\":1892:1894   */\n      0x20\n        /* \"@openzeppelin/contracts/access/Ownable.sol\":2154:2227  require(newOwner != address(0), \"Ownable: new owner is the zero address\") */\n      0x04\n      dup3\n      add\n        /* \"#utility.yul\":1874:1895   */\n      mstore\n        /* \"#utility.yul\":1931:1933   */\n      0x26\n        /* \"#utility.yul\":1911:1929   */\n      0x24\n      dup3\n      add\n        /* \"#utility.yul\":1904:1934   */\n      mstore\n        /* \"#utility.yul\":1970:2004   */\n      0x4f776e61626c653a206e6577206f776e657220697320746865207a65726f2061\n        /* \"#utility.yul\":1950:1968   */\n      0x44\n      dup3\n      add\n        /* \"#utility.yul\":1943:2005   */\n      mstore\n      shl(0xd0, 0x646472657373)\n        /* \"#utility.yul\":2021:2039   */\n      0x64\n      dup3\n      add\n        /* \"#utility.yul\":2014:2050   */\n      mstore\n        /* \"#utility.yul\":2067:2086   */\n      0x84\n      add\n        /* \"@openzeppelin/contracts/access/Ownable.sol\":2154:2227  require(newOwner != address(0), \"Ownable: new owner is the zero address\") */\n    tag_68:\n      mload(0x40)\n      dup1\n      swap2\n      sub\n      swap1\n      revert\n    tag_67:\n        /* \"@openzeppelin/contracts/access/Ownable.sol\":2237:2265  _transferOwnership(newOwner) */\n      tag_70\n        /* \"@openzeppelin/contracts/access/Ownable.sol\":2256:2264  newOwner */\n      dup2\n        /* \"@openzeppelin/contracts/access/Ownable.sol\":2237:2255  _transferOwnership */\n      tag_57\n        /* \"@openzeppelin/contracts/access/Ownable.sol\":2237:2265  _transferOwnership(newOwner) */\n      jump\t// in\n    tag_70:\n        /* \"@openzeppelin/contracts/access/Ownable.sol\":2074:2272  function transferOwnership(address newOwner) public virtual onlyOwner {... */\n      pop\n      jump\t// out\n        /* \"contracts/zaps/PlexusZapRouter.sol\":2371:2698  function executeOrder(Order calldata _order, Step[] calldata _route) external payable nonReentrant whenNotPaused {... */\n    tag_45:\n        /* \"@openzeppelin/contracts/security/ReentrancyGuard.sol\":2261:2282  _nonReentrantBefore() */\n      tag_72\n        /* \"@openzeppelin/contracts/security/ReentrancyGuard.sol\":2261:2280  _nonReentrantBefore */\n      tag_73\n        /* \"@openzeppelin/contracts/security/ReentrancyGuard.sol\":2261:2282  _nonReentrantBefore() */\n      jump\t// in\n    tag_72:\n        /* \"@openzeppelin/contracts/security/Pausable.sol\":1239:1258  _requireNotPaused() */\n      tag_75\n        /* \"@openzeppelin/contracts/security/Pausable.sol\":1239:1256  _requireNotPaused */\n      tag_76\n        /* \"@openzeppelin/contracts/security/Pausable.sol\":1239:1258  _requireNotPaused() */\n      jump\t// in\n    tag_75:\n        /* \"contracts/zaps/PlexusZapRouter.sol\":2512:2523  _order.user */\n      tag_78\n      0x80\n      dup5\n      add\n      0x60\n      dup6\n      add\n      tag_40\n      jump\t// in\n    tag_78:\n      sub(shl(0xa0, 0x01), 0x01)\n        /* \"contracts/zaps/PlexusZapRouter.sol\":2498:2523  msg.sender != _order.user */\n      and\n        /* \"contracts/zaps/PlexusZapRouter.sol\":2498:2508  msg.sender */\n      caller\n      sub(shl(0xa0, 0x01), 0x01)\n        /* \"contracts/zaps/PlexusZapRouter.sol\":2498:2523  msg.sender != _order.user */\n      and\n      eq\n        /* \"contracts/zaps/PlexusZapRouter.sol\":2494:2570  if (msg.sender != _order.user) revert InvalidCaller(_order.user, msg.sender) */\n      tag_79\n      jumpi\n        /* \"contracts/zaps/PlexusZapRouter.sol\":2546:2557  _order.user */\n      tag_80\n      0x80\n      dup5\n      add\n      0x60\n      dup6\n      add\n      tag_40\n      jump\t// in\n    tag_80:\n        /* \"contracts/zaps/PlexusZapRouter.sol\":2532:2570  InvalidCaller(_order.user, msg.sender) */\n      mload(0x40)\n      shl(0xe3, 0x02d9d9c9)\n      dup2\n      mstore\n      sub(shl(0xa0, 0x01), 0x01)\n        /* \"#utility.yul\":2327:2342   */\n      swap1\n      swap2\n      and\n        /* \"contracts/zaps/PlexusZapRouter.sol\":2532:2570  InvalidCaller(_order.user, msg.sender) */\n      0x04\n      dup3\n      add\n        /* \"#utility.yul\":2309:2343   */\n      mstore\n        /* \"contracts/zaps/PlexusZapRouter.sol\":2559:2569  msg.sender */\n      caller\n        /* \"#utility.yul\":2359:2377   */\n      0x24\n      dup3\n      add\n        /* \"#utility.yul\":2352:2395   */\n      mstore\n        /* \"#utility.yul\":2244:2262   */\n      0x44\n      add\n        /* \"contracts/zaps/PlexusZapRouter.sol\":2532:2570  InvalidCaller(_order.user, msg.sender) */\n      tag_68\n        /* \"#utility.yul\":2097:2401   */\n      jump\n        /* \"contracts/zaps/PlexusZapRouter.sol\":2494:2570  if (msg.sender != _order.user) revert InvalidCaller(_order.user, msg.sender) */\n    tag_79:\n      sub(shl(0xa0, 0x01), 0x01)\n        /* \"contracts/zaps/PlexusZapRouter.sol\":2600:2612  tokenManager */\n      immutable(\"0xe7c5a0bc45d8561c9e2074dafed00a1f1402b2bca9dda08f346e43aaa2234456\")\n        /* \"contracts/zaps/PlexusZapRouter.sol\":2580:2624  IPlexusTokenManager(tokenManager).pullTokens */\n      and\n      0x77fc3fa8\n        /* \"contracts/zaps/PlexusZapRouter.sol\":2625:2636  _order.user */\n      tag_83\n      0x80\n      dup7\n      add\n      0x60\n      dup8\n      add\n      tag_40\n      jump\t// in\n    tag_83:\n        /* \"contracts/zaps/PlexusZapRouter.sol\":2638:2651  _order.inputs */\n      tag_84\n        /* \"contracts/zaps/PlexusZapRouter.sol\":2638:2644  _order */\n      dup7\n      dup1\n        /* \"contracts/zaps/PlexusZapRouter.sol\":2638:2651  _order.inputs */\n      tag_85\n      jump\t// in\n    tag_84:\n        /* \"contracts/zaps/PlexusZapRouter.sol\":2580:2652  IPlexusTokenManager(tokenManager).pullTokens(_order.user, _order.inputs) */\n      mload(0x40)\n      dup5\n      0xffffffff\n      and\n      0xe0\n      shl\n      dup2\n      mstore\n      0x04\n      add\n      tag_86\n      swap4\n      swap3\n      swap2\n      swap1\n      tag_87\n      jump\t// in\n    tag_86:\n      0x00\n      mload(0x40)\n      dup1\n      dup4\n      sub\n      dup2\n      0x00\n      dup8\n      dup1\n      extcodesize\n      iszero\n      dup1\n      iszero\n      tag_88\n      jumpi\n      0x00\n      dup1\n      revert\n    tag_88:\n      pop\n      gas\n      call\n      iszero\n      dup1\n      iszero\n      tag_90\n      jumpi\n      returndatasize\n      0x00\n      dup1\n      returndatacopy\n      revert(0x00, returndatasize)\n    tag_90:\n      pop\n      pop\n      pop\n      pop\n        /* \"contracts/zaps/PlexusZapRouter.sol\":2662:2691  _executeOrder(_order, _route) */\n      tag_91\n        /* \"contracts/zaps/PlexusZapRouter.sol\":2676:2682  _order */\n      dup4\n        /* \"contracts/zaps/PlexusZapRouter.sol\":2684:2690  _route */\n      dup4\n      dup4\n        /* \"contracts/zaps/PlexusZapRouter.sol\":2662:2675  _executeOrder */\n      tag_92\n        /* \"contracts/zaps/PlexusZapRouter.sol\":2662:2691  _executeOrder(_order, _route) */\n      jump\t// in\n    tag_91:\n        /* \"@openzeppelin/contracts/security/ReentrancyGuard.sol\":2303:2323  _nonReentrantAfter() */\n      tag_93\n        /* \"@openzeppelin/contracts/security/ReentrancyGuard.sol\":1716:1717  1 */\n      0x01\n        /* \"@openzeppelin/contracts/security/ReentrancyGuard.sol\":2809:2831  _status = _NOT_ENTERED */\n      dup1\n      sstore\n        /* \"@openzeppelin/contracts/security/ReentrancyGuard.sol\":2629:2838  function _nonReentrantAfter() private {... */\n      jump\n        /* \"@openzeppelin/contracts/security/ReentrancyGuard.sol\":2303:2323  _nonReentrantAfter() */\n    tag_93:\n        /* \"contracts/zaps/PlexusZapRouter.sol\":2371:2698  function executeOrder(Order calldata _order, Step[] calldata _route) external payable nonReentrant whenNotPaused {... */\n      pop\n      pop\n      pop\n      jump\t// out\n        /* \"@openzeppelin/contracts/access/Ownable.sol\":1359:1489  function _checkOwner() internal view virtual {... */\n    tag_48:\n        /* \"@openzeppelin/contracts/access/Ownable.sol\":1247:1254  address */\n      0x00\n        /* \"@openzeppelin/contracts/access/Ownable.sol\":1273:1279  _owner */\n      sload\n      sub(shl(0xa0, 0x01), 0x01)\n      and\n        /* \"@openzeppelin/contracts/utils/Context.sol\":734:744  msg.sender */\n      caller\n        /* \"@openzeppelin/contracts/access/Ownable.sol\":1422:1445  owner() == _msgSender() */\n      eq\n        /* \"@openzeppelin/contracts/access/Ownable.sol\":1414:1482  require(owner() == _msgSender(), \"Ownable: caller is not the owner\") */\n      tag_50\n      jumpi\n      mload(0x40)\n      shl(0xe5, 0x461bcd)\n      dup2\n      mstore\n        /* \"#utility.yul\":4058:4060   */\n      0x20\n        /* \"@openzeppelin/contracts/access/Ownable.sol\":1414:1482  require(owner() == _msgSender(), \"Ownable: caller is not the owner\") */\n      0x04\n      dup3\n      add\n        /* \"#utility.yul\":4040:4061   */\n      dup2\n      swap1\n      mstore\n        /* \"#utility.yul\":4077:4095   */\n      0x24\n      dup3\n      add\n        /* \"#utility.yul\":4070:4100   */\n      mstore\n        /* \"#utility.yul\":4136:4170   */\n      0x4f776e61626c653a2063616c6c6572206973206e6f7420746865206f776e6572\n        /* \"#utility.yul\":4116:4134   */\n      0x44\n      dup3\n      add\n        /* \"#utility.yul\":4109:4171   */\n      mstore\n        /* \"#utility.yul\":4188:4206   */\n      0x64\n      add\n        /* \"@openzeppelin/contracts/access/Ownable.sol\":1414:1482  require(owner() == _msgSender(), \"Ownable: caller is not the owner\") */\n      tag_68\n        /* \"#utility.yul\":3856:4212   */\n      jump\n        /* \"@openzeppelin/contracts/security/Pausable.sol\":2433:2550  function _unpause() internal virtual whenPaused {... */\n    tag_51:\n        /* \"@openzeppelin/contracts/security/Pausable.sol\":1486:1502  _requirePaused() */\n      tag_103\n        /* \"@openzeppelin/contracts/security/Pausable.sol\":1486:1500  _requirePaused */\n      tag_104\n        /* \"@openzeppelin/contracts/security/Pausable.sol\":1486:1502  _requirePaused() */\n      jump\t// in\n    tag_103:\n        /* \"@openzeppelin/contracts/security/Pausable.sol\":2501:2506  false */\n      0x00\n        /* \"@openzeppelin/contracts/security/Pausable.sol\":2491:2506  _paused = false */\n      dup1\n      sload\n      not(shl(0xa0, 0xff))\n      and\n      swap1\n      sstore\n        /* \"@openzeppelin/contracts/security/Pausable.sol\":2521:2543  Unpaused(_msgSender()) */\n      0x5db9ee0a495bf2e6ff9c91a7834c1ba4fdd244a5e8aa4e537bd38aeae4b073aa\n        /* \"@openzeppelin/contracts/utils/Context.sol\":734:744  msg.sender */\n      caller\n        /* \"@openzeppelin/contracts/security/Pausable.sol\":2530:2542  _msgSender() */\n    tag_106:\n        /* \"@openzeppelin/contracts/security/Pausable.sol\":2521:2543  Unpaused(_msgSender()) */\n      mload(0x40)\n      sub(shl(0xa0, 0x01), 0x01)\n        /* \"#utility.yul\":178:210   */\n      swap1\n      swap2\n      and\n        /* \"#utility.yul\":160:211   */\n      dup2\n      mstore\n        /* \"#utility.yul\":148:150   */\n      0x20\n        /* \"#utility.yul\":133:151   */\n      add\n        /* \"@openzeppelin/contracts/security/Pausable.sol\":2521:2543  Unpaused(_msgSender()) */\n      mload(0x40)\n      dup1\n      swap2\n      sub\n      swap1\n      log1\n        /* \"@openzeppelin/contracts/security/Pausable.sol\":2433:2550  function _unpause() internal virtual whenPaused {... */\n      jump\t// out\n        /* \"@openzeppelin/contracts/access/Ownable.sol\":2426:2613  function _transferOwnership(address newOwner) internal virtual {... */\n    tag_57:\n        /* \"@openzeppelin/contracts/access/Ownable.sol\":2499:2515  address oldOwner */\n      0x00\n        /* \"@openzeppelin/contracts/access/Ownable.sol\":2518:2524  _owner */\n      dup1\n      sload\n      sub(shl(0xa0, 0x01), 0x01)\n        /* \"@openzeppelin/contracts/access/Ownable.sol\":2534:2551  _owner = newOwner */\n      dup4\n      dup2\n      and\n      not(sub(shl(0xa0, 0x01), 0x01))\n      dup4\n      and\n      dup2\n      or\n      dup5\n      sstore\n        /* \"@openzeppelin/contracts/access/Ownable.sol\":2566:2606  OwnershipTransferred(oldOwner, newOwner) */\n      mload(0x40)\n        /* \"@openzeppelin/contracts/access/Ownable.sol\":2518:2524  _owner */\n      swap2\n      swap1\n      swap3\n      and\n      swap3\n      dup4\n      swap2\n        /* \"@openzeppelin/contracts/access/Ownable.sol\":2566:2606  OwnershipTransferred(oldOwner, newOwner) */\n      0x8be0079c531659141344cd1fd0a4f28419497f9722a3daafe3b4186f6b6457e0\n      swap2\n        /* \"@openzeppelin/contracts/access/Ownable.sol\":2499:2515  address oldOwner */\n      swap1\n        /* \"@openzeppelin/contracts/access/Ownable.sol\":2566:2606  OwnershipTransferred(oldOwner, newOwner) */\n      log3\n        /* \"@openzeppelin/contracts/access/Ownable.sol\":2489:2613  {... */\n      pop\n        /* \"@openzeppelin/contracts/access/Ownable.sol\":2426:2613  function _transferOwnership(address newOwner) internal virtual {... */\n      pop\n      jump\t// out\n        /* \"@openzeppelin/contracts/security/Pausable.sol\":2186:2301  function _pause() internal virtual whenNotPaused {... */\n    tag_62:\n        /* \"@openzeppelin/contracts/security/Pausable.sol\":1239:1258  _requireNotPaused() */\n      tag_110\n        /* \"@openzeppelin/contracts/security/Pausable.sol\":1239:1256  _requireNotPaused */\n      tag_76\n        /* \"@openzeppelin/contracts/security/Pausable.sol\":1239:1258  _requireNotPaused() */\n      jump\t// in\n    tag_110:\n        /* \"@openzeppelin/contracts/security/Pausable.sol\":2245:2252  _paused */\n      0x00\n        /* \"@openzeppelin/contracts/security/Pausable.sol\":2245:2259  _paused = true */\n      dup1\n      sload\n      not(shl(0xa0, 0xff))\n      and\n      shl(0xa0, 0x01)\n      or\n      swap1\n      sstore\n        /* \"@openzeppelin/contracts/security/Pausable.sol\":2274:2294  Paused(_msgSender()) */\n      0x62e78cea01bee320cd4e420270b5ea74000d11b0c9f74754ebdbfc544b05a258\n        /* \"@openzeppelin/contracts/security/Pausable.sol\":2281:2293  _msgSender() */\n      tag_106\n        /* \"@openzeppelin/contracts/utils/Context.sol\":734:744  msg.sender */\n      caller\n      swap1\n        /* \"@openzeppelin/contracts/utils/Context.sol\":655:751  function _msgSender() internal view virtual returns (address) {... */\n      jump\n        /* \"@openzeppelin/contracts/security/ReentrancyGuard.sol\":2336:2623  function _nonReentrantBefore() private {... */\n    tag_73:\n        /* \"@openzeppelin/contracts/security/ReentrancyGuard.sol\":1759:1760  2 */\n      0x02\n        /* \"@openzeppelin/contracts/security/ReentrancyGuard.sol\":2468:2475  _status */\n      sload(0x01)\n        /* \"@openzeppelin/contracts/security/ReentrancyGuard.sol\":2468:2487  _status != _ENTERED */\n      sub\n        /* \"@openzeppelin/contracts/security/ReentrancyGuard.sol\":2460:2523  require(_status != _ENTERED, \"ReentrancyGuard: reentrant call\") */\n      tag_115\n      jumpi\n      mload(0x40)\n      shl(0xe5, 0x461bcd)\n      dup2\n      mstore\n        /* \"#utility.yul\":4419:4421   */\n      0x20\n        /* \"@openzeppelin/contracts/security/ReentrancyGuard.sol\":2460:2523  require(_status != _ENTERED, \"ReentrancyGuard: reentrant call\") */\n      0x04\n      dup3\n      add\n        /* \"#utility.yul\":4401:4422   */\n      mstore\n        /* \"#utility.yul\":4458:4460   */\n      0x1f\n        /* \"#utility.yul\":4438:4456   */\n      0x24\n      dup3\n      add\n        /* \"#utility.yul\":4431:4461   */\n      mstore\n        /* \"#utility.yul\":4497:4530   */\n      0x5265656e7472616e637947756172643a207265656e7472616e742063616c6c00\n        /* \"#utility.yul\":4477:4495   */\n      0x44\n      dup3\n      add\n        /* \"#utility.yul\":4470:4531   */\n      mstore\n        /* \"#utility.yul\":4548:4566   */\n      0x64\n      add\n        /* \"@openzeppelin/contracts/security/ReentrancyGuard.sol\":2460:2523  require(_status != _ENTERED, \"ReentrancyGuard: reentrant call\") */\n      tag_68\n        /* \"#utility.yul\":4217:4572   */\n      jump\n        /* \"@openzeppelin/contracts/security/ReentrancyGuard.sol\":2460:2523  require(_status != _ENTERED, \"ReentrancyGuard: reentrant call\") */\n    tag_115:\n        /* \"@openzeppelin/contracts/security/ReentrancyGuard.sol\":1759:1760  2 */\n      0x02\n        /* \"@openzeppelin/contracts/security/ReentrancyGuard.sol\":2598:2605  _status */\n      0x01\n        /* \"@openzeppelin/contracts/security/ReentrancyGuard.sol\":2598:2616  _status = _ENTERED */\n      sstore\n        /* \"@openzeppelin/contracts/security/ReentrancyGuard.sol\":2336:2623  function _nonReentrantBefore() private {... */\n      jump\t// out\n        /* \"@openzeppelin/contracts/security/Pausable.sol\":1767:1873  function _requireNotPaused() internal view virtual {... */\n    tag_76:\n        /* \"@openzeppelin/contracts/security/Pausable.sol\":1662:1666  bool */\n      0x00\n        /* \"@openzeppelin/contracts/security/Pausable.sol\":1685:1692  _paused */\n      sload\n      shl(0xa0, 0x01)\n      swap1\n      div\n      0xff\n      and\n        /* \"@openzeppelin/contracts/security/Pausable.sol\":1836:1845  !paused() */\n      iszero\n        /* \"@openzeppelin/contracts/security/Pausable.sol\":1828:1866  require(!paused(), \"Pausable: paused\") */\n      tag_50\n      jumpi\n      mload(0x40)\n      shl(0xe5, 0x461bcd)\n      dup2\n      mstore\n        /* \"#utility.yul\":4779:4781   */\n      0x20\n        /* \"@openzeppelin/contracts/security/Pausable.sol\":1828:1866  require(!paused(), \"Pausable: paused\") */\n      0x04\n      dup3\n      add\n        /* \"#utility.yul\":4761:4782   */\n      mstore\n        /* \"#utility.yul\":4818:4820   */\n      0x10\n        /* \"#utility.yul\":4798:4816   */\n      0x24\n      dup3\n      add\n        /* \"#utility.yul\":4791:4821   */\n      mstore\n      shl(0x82, 0x14185d5cd8589b194e881c185d5cd959)\n        /* \"#utility.yul\":4837:4855   */\n      0x44\n      dup3\n      add\n        /* \"#utility.yul\":4830:4876   */\n      mstore\n        /* \"#utility.yul\":4893:4911   */\n      0x64\n      add\n        /* \"@openzeppelin/contracts/security/Pausable.sol\":1828:1866  require(!paused(), \"Pausable: paused\") */\n      tag_68\n        /* \"#utility.yul\":4577:4917   */\n      jump\n        /* \"contracts/zaps/PlexusZapRouter.sol\":3091:3389  function _executeOrder(Order calldata _order, Step[] calldata _route) private {... */\n    tag_92:\n        /* \"contracts/zaps/PlexusZapRouter.sol\":3179:3200  _executeSteps(_route) */\n      tag_124\n        /* \"contracts/zaps/PlexusZapRouter.sol\":3193:3199  _route */\n      dup3\n      dup3\n        /* \"contracts/zaps/PlexusZapRouter.sol\":3179:3192  _executeSteps */\n      tag_125\n        /* \"contracts/zaps/PlexusZapRouter.sol\":3179:3200  _executeSteps(_route) */\n      jump\t// in\n    tag_124:\n        /* \"contracts/zaps/PlexusZapRouter.sol\":3210:3277  _returnAssets(_order.outputs, _order.recipient, _order.relay.value) */\n      tag_126\n        /* \"contracts/zaps/PlexusZapRouter.sol\":3224:3238  _order.outputs */\n      tag_127\n      0x20\n      dup6\n      add\n        /* \"contracts/zaps/PlexusZapRouter.sol\":3224:3230  _order */\n      dup6\n        /* \"contracts/zaps/PlexusZapRouter.sol\":3224:3238  _order.outputs */\n      tag_85\n      jump\t// in\n    tag_127:\n        /* \"contracts/zaps/PlexusZapRouter.sol\":3240:3256  _order.recipient */\n      tag_129\n      0xa0\n      dup8\n      add\n      0x80\n      dup9\n      add\n      tag_40\n      jump\t// in\n    tag_129:\n        /* \"contracts/zaps/PlexusZapRouter.sol\":3258:3270  _order.relay */\n      tag_130\n      0x40\n      dup9\n      add\n        /* \"contracts/zaps/PlexusZapRouter.sol\":3258:3264  _order */\n      dup9\n        /* \"contracts/zaps/PlexusZapRouter.sol\":3258:3270  _order.relay */\n      tag_131\n      jump\t// in\n    tag_130:\n        /* \"contracts/zaps/PlexusZapRouter.sol\":3258:3276  _order.relay.value */\n      0x20\n      add\n      calldataload\n        /* \"contracts/zaps/PlexusZapRouter.sol\":3210:3223  _returnAssets */\n      tag_132\n        /* \"contracts/zaps/PlexusZapRouter.sol\":3210:3277  _returnAssets(_order.outputs, _order.recipient, _order.relay.value) */\n      jump\t// in\n    tag_126:\n        /* \"contracts/zaps/PlexusZapRouter.sol\":3287:3314  _executeRelay(_order.relay) */\n      tag_133\n        /* \"contracts/zaps/PlexusZapRouter.sol\":3301:3313  _order.relay */\n      tag_134\n      0x40\n      dup6\n      add\n        /* \"contracts/zaps/PlexusZapRouter.sol\":3301:3307  _order */\n      dup6\n        /* \"contracts/zaps/PlexusZapRouter.sol\":3301:3313  _order.relay */\n      tag_131\n      jump\t// in\n    tag_134:\n        /* \"contracts/zaps/PlexusZapRouter.sol\":3287:3300  _executeRelay */\n      tag_135\n        /* \"contracts/zaps/PlexusZapRouter.sol\":3287:3314  _executeRelay(_order.relay) */\n      jump\t// in\n    tag_133:\n        /* \"contracts/zaps/PlexusZapRouter.sol\":3365:3381  _order.recipient */\n      tag_136\n      0xa0\n      dup5\n      add\n      0x80\n      dup6\n      add\n      tag_40\n      jump\t// in\n    tag_136:\n      sub(shl(0xa0, 0x01), 0x01)\n        /* \"contracts/zaps/PlexusZapRouter.sol\":3330:3382  FulfilledOrder(_order, msg.sender, _order.recipient) */\n      and\n        /* \"contracts/zaps/PlexusZapRouter.sol\":3353:3363  msg.sender */\n      caller\n      sub(shl(0xa0, 0x01), 0x01)\n        /* \"contracts/zaps/PlexusZapRouter.sol\":3330:3382  FulfilledOrder(_order, msg.sender, _order.recipient) */\n      and\n        /* \"contracts/zaps/PlexusZapRouter.sol\":3345:3351  _order */\n      dup5\n        /* \"contracts/zaps/PlexusZapRouter.sol\":3330:3382  FulfilledOrder(_order, msg.sender, _order.recipient) */\n      mload(0x40)\n      tag_137\n      swap2\n      swap1\n      tag_138\n      jump\t// in\n    tag_137:\n      mload(0x40)\n      swap1\n      dup2\n      swap1\n      sub\n      dup2\n      keccak256\n      swap1\n      0x1ba5b6ed656994657175705961138c96bd8ec133c35817fa85903f450129e0b1\n      swap1\n      0x00\n      swap1\n      log4\n        /* \"contracts/zaps/PlexusZapRouter.sol\":3091:3389  function _executeOrder(Order calldata _order, Step[] calldata _route) private {... */\n      pop\n      pop\n      pop\n      jump\t// out\n        /* \"@openzeppelin/contracts/security/Pausable.sol\":1945:2051  function _requirePaused() internal view virtual {... */\n    tag_104:\n        /* \"@openzeppelin/contracts/security/Pausable.sol\":1662:1666  bool */\n      0x00\n        /* \"@openzeppelin/contracts/security/Pausable.sol\":1685:1692  _paused */\n      sload\n      shl(0xa0, 0x01)\n      swap1\n      div\n      0xff\n      and\n        /* \"@openzeppelin/contracts/security/Pausable.sol\":2003:2044  require(paused(), \"Pausable: not paused\") */\n      tag_50\n      jumpi\n      mload(0x40)\n      shl(0xe5, 0x461bcd)\n      dup2\n      mstore\n        /* \"#utility.yul\":9426:9428   */\n      0x20\n        /* \"@openzeppelin/contracts/security/Pausable.sol\":2003:2044  require(paused(), \"Pausable: not paused\") */\n      0x04\n      dup3\n      add\n        /* \"#utility.yul\":9408:9429   */\n      mstore\n        /* \"#utility.yul\":9465:9467   */\n      0x14\n        /* \"#utility.yul\":9445:9463   */\n      0x24\n      dup3\n      add\n        /* \"#utility.yul\":9438:9468   */\n      mstore\n      shl(0x62, 0x14185d5cd8589b194e881b9bdd081c185d5cd959)\n        /* \"#utility.yul\":9484:9502   */\n      0x44\n      dup3\n      add\n        /* \"#utility.yul\":9477:9527   */\n      mstore\n        /* \"#utility.yul\":9544:9562   */\n      0x64\n      add\n        /* \"@openzeppelin/contracts/security/Pausable.sol\":2003:2044  require(paused(), \"Pausable: not paused\") */\n      tag_68\n        /* \"#utility.yul\":9224:9568   */\n      jump\n        /* \"contracts/zaps/PlexusZapRouter.sol\":3675:5479  function _executeSteps(Step[] calldata _route) private {... */\n    tag_125:\n        /* \"contracts/zaps/PlexusZapRouter.sol\":3762:3768  _route */\n      dup1\n        /* \"contracts/zaps/PlexusZapRouter.sol\":3740:3759  uint256 routeLength */\n      0x00\n        /* \"contracts/zaps/PlexusZapRouter.sol\":3785:5473  for (uint256 i; i < routeLength; ) {... */\n    tag_147:\n        /* \"contracts/zaps/PlexusZapRouter.sol\":3805:3816  routeLength */\n      dup2\n        /* \"contracts/zaps/PlexusZapRouter.sol\":3801:3802  i */\n      dup2\n        /* \"contracts/zaps/PlexusZapRouter.sol\":3801:3816  i < routeLength */\n      lt\n        /* \"contracts/zaps/PlexusZapRouter.sol\":3785:5473  for (uint256 i; i < routeLength; ) {... */\n      iszero\n      tag_148\n      jumpi\n        /* \"contracts/zaps/PlexusZapRouter.sol\":3834:3852  Step calldata step */\n      calldatasize\n        /* \"contracts/zaps/PlexusZapRouter.sol\":3855:3861  _route */\n      dup5\n      dup5\n        /* \"contracts/zaps/PlexusZapRouter.sol\":3862:3863  i */\n      dup4\n        /* \"contracts/zaps/PlexusZapRouter.sol\":3855:3864  _route[i] */\n      dup2\n      dup2\n      lt\n      tag_151\n      jumpi\n      tag_151\n      tag_152\n      jump\t// in\n    tag_151:\n      swap1\n      pop\n      0x20\n      mul\n      dup2\n      add\n      swap1\n      tag_153\n      swap2\n      swap1\n      tag_154\n      jump\t// in\n    tag_153:\n        /* \"contracts/zaps/PlexusZapRouter.sol\":3834:3864  Step calldata step = _route[i] */\n      swap1\n      pop\n        /* \"contracts/zaps/PlexusZapRouter.sol\":3880:3898  address stepTarget */\n      0x00\n      dup1\n      dup1\n        /* \"contracts/zaps/PlexusZapRouter.sol\":3938:3969  StepToken[] calldata stepTokens */\n      calldatasize\n        /* \"contracts/zaps/PlexusZapRouter.sol\":3880:3898  address stepTarget */\n      dup2\n        /* \"contracts/zaps/PlexusZapRouter.sol\":3991:4002  step.target */\n      tag_155\n      0x20\n      dup8\n      add\n        /* \"contracts/zaps/PlexusZapRouter.sol\":3834:3864  Step calldata step = _route[i] */\n      dup8\n        /* \"contracts/zaps/PlexusZapRouter.sol\":3991:4002  step.target */\n      tag_40\n      jump\t// in\n    tag_155:\n        /* \"contracts/zaps/PlexusZapRouter.sol\":4020:4030  step.value */\n      0x20\n      dup8\n      add\n      calldataload\n        /* \"contracts/zaps/PlexusZapRouter.sol\":4048:4057  step.data */\n      tag_156\n      0x40\n      dup10\n      add\n        /* \"contracts/zaps/PlexusZapRouter.sol\":4020:4024  step */\n      dup10\n        /* \"contracts/zaps/PlexusZapRouter.sol\":4048:4057  step.data */\n      tag_157\n      jump\t// in\n    tag_156:\n        /* \"contracts/zaps/PlexusZapRouter.sol\":4075:4086  step.tokens */\n      tag_158\n      0x60\n      dup12\n      add\n        /* \"contracts/zaps/PlexusZapRouter.sol\":4075:4079  step */\n      dup12\n        /* \"contracts/zaps/PlexusZapRouter.sol\":4075:4086  step.tokens */\n      tag_85\n      jump\t// in\n    tag_158:\n        /* \"contracts/zaps/PlexusZapRouter.sol\":3879:4100  (address stepTarget, uint256 value, bytes memory callData, StepToken[] calldata stepTokens) = (... */\n      swap6\n      pop\n      swap6\n      pop\n      dup1\n      dup1\n      0x1f\n      add\n      0x20\n      dup1\n      swap2\n      div\n      mul\n      0x20\n      add\n      mload(0x40)\n      swap1\n      dup2\n      add\n      0x40\n      mstore\n      dup1\n      swap4\n      swap3\n      swap2\n      swap1\n      dup2\n      dup2\n      mstore\n      0x20\n      add\n      dup4\n      dup4\n      dup1\n      dup3\n      dup5\n      calldatacopy\n      0x00\n      swap3\n      add\n      swap2\n      swap1\n      swap2\n      mstore\n      pop\n      swap5\n      swap10\n      pop\n      swap3\n      swap8\n      pop\n      swap1\n      swap6\n      pop\n      pop\n      pop\n      sub(shl(0xa0, 0x01), 0x01)\n        /* \"contracts/zaps/PlexusZapRouter.sol\":4133:4145  tokenManager */\n      immutable(\"0xe7c5a0bc45d8561c9e2074dafed00a1f1402b2bca9dda08f346e43aaa2234456\")\n        /* \"contracts/zaps/PlexusZapRouter.sol\":4119:4145  stepTarget == tokenManager */\n      dup2\n      and\n      swap1\n      dup8\n      and\n      sub\n      swap1\n      pop\n        /* \"contracts/zaps/PlexusZapRouter.sol\":4115:4190  if (stepTarget == tokenManager) revert TargetingInvalidContract(stepTarget) */\n      tag_160\n      jumpi\n        /* \"contracts/zaps/PlexusZapRouter.sol\":4154:4190  TargetingInvalidContract(stepTarget) */\n      mload(0x40)\n      shl(0xe2, 0x1e055a29)\n      dup2\n      mstore\n      sub(shl(0xa0, 0x01), 0x01)\n        /* \"#utility.yul\":178:210   */\n      dup7\n      and\n        /* \"contracts/zaps/PlexusZapRouter.sol\":4154:4190  TargetingInvalidContract(stepTarget) */\n      0x04\n      dup3\n      add\n        /* \"#utility.yul\":160:211   */\n      mstore\n        /* \"#utility.yul\":133:151   */\n      0x24\n      add\n        /* \"contracts/zaps/PlexusZapRouter.sol\":4154:4190  TargetingInvalidContract(stepTarget) */\n      tag_68\n        /* \"#utility.yul\":14:217   */\n      jump\n        /* \"contracts/zaps/PlexusZapRouter.sol\":4115:4190  if (stepTarget == tokenManager) revert TargetingInvalidContract(stepTarget) */\n    tag_160:\n        /* \"contracts/zaps/PlexusZapRouter.sol\":4259:4274  callData.length */\n      dup3\n      mload\n        /* \"contracts/zaps/PlexusZapRouter.sol\":4205:4220  uint256 balance */\n      0x00\n      swap1\n        /* \"contracts/zaps/PlexusZapRouter.sol\":4315:4325  stepTokens */\n      dup3\n        /* \"contracts/zaps/PlexusZapRouter.sol\":4205:4220  uint256 balance */\n      dup3\n        /* \"contracts/zaps/PlexusZapRouter.sol\":4347:5232  for (uint256 j; j < stepTokensLength; ) {... */\n    tag_162:\n        /* \"contracts/zaps/PlexusZapRouter.sol\":4367:4383  stepTokensLength */\n      dup2\n        /* \"contracts/zaps/PlexusZapRouter.sol\":4363:4364  j */\n      dup2\n        /* \"contracts/zaps/PlexusZapRouter.sol\":4363:4383  j < stepTokensLength */\n      lt\n        /* \"contracts/zaps/PlexusZapRouter.sol\":4347:5232  for (uint256 j; j < stepTokensLength; ) {... */\n      iszero\n      tag_163\n      jumpi\n        /* \"contracts/zaps/PlexusZapRouter.sol\":4405:4433  StepToken calldata stepToken */\n      calldatasize\n        /* \"contracts/zaps/PlexusZapRouter.sol\":4436:4446  stepTokens */\n      dup7\n      dup7\n        /* \"contracts/zaps/PlexusZapRouter.sol\":4447:4448  j */\n      dup4\n        /* \"contracts/zaps/PlexusZapRouter.sol\":4436:4449  stepTokens[j] */\n      dup2\n      dup2\n      lt\n      tag_166\n      jumpi\n      tag_166\n      tag_152\n      jump\t// in\n    tag_166:\n      0x40\n      mul\n      swap2\n      swap1\n      swap2\n      add\n      swap2\n      pop\n        /* \"contracts/zaps/PlexusZapRouter.sol\":4468:4492  address stepTokenAddress */\n      0x00\n      swap1\n      pop\n      dup1\n        /* \"contracts/zaps/PlexusZapRouter.sol\":4519:4534  stepToken.token */\n      tag_167\n      0x20\n      dup5\n      add\n        /* \"contracts/zaps/PlexusZapRouter.sol\":4436:4449  stepTokens[j] */\n      dup5\n        /* \"contracts/zaps/PlexusZapRouter.sol\":4519:4534  stepToken.token */\n      tag_40\n      jump\t// in\n    tag_167:\n        /* \"contracts/zaps/PlexusZapRouter.sol\":4536:4551  stepToken.index */\n      tag_168\n      0x40\n      dup6\n      add\n      0x20\n      dup7\n      add\n      tag_169\n      jump\t// in\n    tag_168:\n        /* \"contracts/zaps/PlexusZapRouter.sol\":4467:4552  (address stepTokenAddress, int32 stepTokenIndex) = (stepToken.token, stepToken.index) */\n      swap1\n      swap3\n      pop\n      swap1\n      pop\n      sub(shl(0xa0, 0x01), 0x01)\n        /* \"contracts/zaps/PlexusZapRouter.sol\":4575:4605  stepTokenAddress == address(0) */\n      dup3\n      and\n        /* \"contracts/zaps/PlexusZapRouter.sol\":4571:5146  if (stepTokenAddress == address(0)) {... */\n      tag_170\n      jumpi\n        /* \"contracts/zaps/PlexusZapRouter.sol\":4637:4658  address(this).balance */\n      selfbalance\n        /* \"contracts/zaps/PlexusZapRouter.sol\":4629:4658  value = address(this).balance */\n      swap11\n      pop\n        /* \"contracts/zaps/PlexusZapRouter.sol\":4571:5146  if (stepTokenAddress == address(0)) {... */\n      jump(tag_179)\n    tag_170:\n        /* \"contracts/zaps/PlexusZapRouter.sol\":4715:4764  IERC20(stepTokenAddress).balanceOf(address(this)) */\n      mload(0x40)\n      shl(0xe0, 0x70a08231)\n      dup2\n      mstore\n        /* \"contracts/zaps/PlexusZapRouter.sol\":4758:4762  this */\n      address\n        /* \"contracts/zaps/PlexusZapRouter.sol\":4715:4764  IERC20(stepTokenAddress).balanceOf(address(this)) */\n      0x04\n      dup3\n      add\n        /* \"#utility.yul\":160:211   */\n      mstore\n      sub(shl(0xa0, 0x01), 0x01)\n        /* \"contracts/zaps/PlexusZapRouter.sol\":4715:4749  IERC20(stepTokenAddress).balanceOf */\n      dup4\n      and\n      swap1\n      0x70a08231\n      swap1\n        /* \"#utility.yul\":133:151   */\n      0x24\n      add\n        /* \"contracts/zaps/PlexusZapRouter.sol\":4715:4764  IERC20(stepTokenAddress).balanceOf(address(this)) */\n      0x20\n      mload(0x40)\n      dup1\n      dup4\n      sub\n      dup2\n      dup7\n      gas\n      staticcall\n      iszero\n      dup1\n      iszero\n      tag_174\n      jumpi\n      returndatasize\n      0x00\n      dup1\n      returndatacopy\n      revert(0x00, returndatasize)\n    tag_174:\n      pop\n      pop\n      pop\n      pop\n      mload(0x40)\n      returndatasize\n      not(0x1f)\n      0x1f\n      dup3\n      add\n      and\n      dup3\n      add\n      dup1\n      0x40\n      mstore\n      pop\n      dup2\n      add\n      swap1\n      tag_175\n      swap2\n      swap1\n      tag_176\n      jump\t// in\n    tag_175:\n        /* \"contracts/zaps/PlexusZapRouter.sol\":4705:4764  balance = IERC20(stepTokenAddress).balanceOf(address(this)) */\n      swap7\n      pop\n        /* \"contracts/zaps/PlexusZapRouter.sol\":4786:4838  _approveToken(stepTokenAddress, stepTarget, balance) */\n      tag_177\n        /* \"contracts/zaps/PlexusZapRouter.sol\":4800:4816  stepTokenAddress */\n      dup3\n        /* \"contracts/zaps/PlexusZapRouter.sol\":4818:4828  stepTarget */\n      dup14\n        /* \"contracts/zaps/PlexusZapRouter.sol\":4830:4837  balance */\n      dup10\n        /* \"contracts/zaps/PlexusZapRouter.sol\":4786:4799  _approveToken */\n      tag_178\n        /* \"contracts/zaps/PlexusZapRouter.sol\":4786:4838  _approveToken(stepTokenAddress, stepTarget, balance) */\n      jump\t// in\n    tag_177:\n        /* \"contracts/zaps/PlexusZapRouter.sol\":4882:4883  0 */\n      0x00\n        /* \"contracts/zaps/PlexusZapRouter.sol\":4864:4878  stepTokenIndex */\n      dup2\n        /* \"contracts/zaps/PlexusZapRouter.sol\":4864:4883  stepTokenIndex >= 0 */\n      0x03\n      signextend\n      slt\n        /* \"contracts/zaps/PlexusZapRouter.sol\":4860:5128  if (stepTokenIndex >= 0) {... */\n      tag_179\n      jumpi\n        /* \"contracts/zaps/PlexusZapRouter.sol\":4933:4955  int256(stepTokenIndex) */\n      0x03\n      dup2\n      swap1\n      signextend\n        /* \"contracts/zaps/PlexusZapRouter.sol\":5006:5028  callData.slice(0, idx) */\n      tag_180\n        /* \"contracts/zaps/PlexusZapRouter.sol\":5006:5014  callData */\n      dup12\n        /* \"contracts/zaps/PlexusZapRouter.sol\":4911:4922  uint256 idx */\n      0x00\n        /* \"contracts/zaps/PlexusZapRouter.sol\":4933:4955  int256(stepTokenIndex) */\n      dup4\n        /* \"contracts/zaps/PlexusZapRouter.sol\":5006:5020  callData.slice */\n      tag_181\n        /* \"contracts/zaps/PlexusZapRouter.sol\":5006:5028  callData.slice(0, idx) */\n      jump\t// in\n    tag_180:\n        /* \"contracts/zaps/PlexusZapRouter.sol\":5030:5049  abi.encode(balance) */\n      0x40\n      dup1\n      mload\n      0x20\n      dup2\n      add\n        /* \"#utility.yul\":11750:11775   */\n      dup12\n      swap1\n      mstore\n        /* \"#utility.yul\":11723:11741   */\n      add\n        /* \"contracts/zaps/PlexusZapRouter.sol\":5030:5049  abi.encode(balance) */\n      0x40\n      dup1\n      mload\n      not(0x1f)\n      dup2\n      dup5\n      sub\n      add\n      dup2\n      mstore\n      swap2\n      swap1\n      mstore\n        /* \"contracts/zaps/PlexusZapRouter.sol\":5051:5104  callData.slice(idx + 32, callDataLength - (idx + 32)) */\n      tag_184\n        /* \"contracts/zaps/PlexusZapRouter.sol\":5066:5074  idx + 32 */\n      tag_185\n        /* \"contracts/zaps/PlexusZapRouter.sol\":5066:5069  idx */\n      dup5\n        /* \"contracts/zaps/PlexusZapRouter.sol\":5030:5049  abi.encode(balance) */\n      0x20\n        /* \"contracts/zaps/PlexusZapRouter.sol\":5066:5074  idx + 32 */\n      tag_186\n      jump\t// in\n    tag_185:\n        /* \"contracts/zaps/PlexusZapRouter.sol\":5094:5102  idx + 32 */\n      tag_187\n        /* \"contracts/zaps/PlexusZapRouter.sol\":5094:5097  idx */\n      dup6\n        /* \"contracts/zaps/PlexusZapRouter.sol\":5100:5102  32 */\n      0x20\n        /* \"contracts/zaps/PlexusZapRouter.sol\":5094:5102  idx + 32 */\n      tag_186\n      jump\t// in\n    tag_187:\n        /* \"contracts/zaps/PlexusZapRouter.sol\":5076:5103  callDataLength - (idx + 32) */\n      tag_188\n      swap1\n        /* \"contracts/zaps/PlexusZapRouter.sol\":5076:5090  callDataLength */\n      dup13\n        /* \"contracts/zaps/PlexusZapRouter.sol\":5076:5103  callDataLength - (idx + 32) */\n      tag_189\n      jump\t// in\n    tag_188:\n        /* \"contracts/zaps/PlexusZapRouter.sol\":5051:5059  callData */\n      dup16\n      swap2\n        /* \"contracts/zaps/PlexusZapRouter.sol\":5051:5104  callData.slice(idx + 32, callDataLength - (idx + 32)) */\n      swap1\n        /* \"contracts/zaps/PlexusZapRouter.sol\":5051:5065  callData.slice */\n      tag_181\n        /* \"contracts/zaps/PlexusZapRouter.sol\":5051:5104  callData.slice(idx + 32, callDataLength - (idx + 32)) */\n      jump\t// in\n    tag_184:\n        /* \"contracts/zaps/PlexusZapRouter.sol\":4993:5105  bytes.concat(callData.slice(0, idx), abi.encode(balance), callData.slice(idx + 32, callDataLength - (idx + 32))) */\n      add(0x20, mload(0x40))\n      tag_190\n      swap4\n      swap3\n      swap2\n      swap1\n      tag_191\n      jump\t// in\n    tag_190:\n      mload(0x40)\n      0x20\n      dup2\n      dup4\n      sub\n      sub\n      dup2\n      mstore\n      swap1\n      0x40\n      mstore\n        /* \"contracts/zaps/PlexusZapRouter.sol\":4982:5105  callData = bytes.concat(callData.slice(0, idx), abi.encode(balance), callData.slice(idx + 32, callDataLength - (idx + 32))) */\n      swap11\n      pop\n        /* \"contracts/zaps/PlexusZapRouter.sol\":4885:5128  {... */\n      pop\n        /* \"contracts/zaps/PlexusZapRouter.sol\":4860:5128  if (stepTokenIndex >= 0) {... */\n    tag_179:\n        /* \"contracts/zaps/PlexusZapRouter.sol\":5196:5199  ++j */\n      dup4\n      0x01\n      add\n      swap4\n      pop\n        /* \"contracts/zaps/PlexusZapRouter.sol\":4387:5232  {... */\n      pop\n      pop\n      pop\n        /* \"contracts/zaps/PlexusZapRouter.sol\":4347:5232  for (uint256 j; j < stepTokensLength; ) {... */\n      jump(tag_162)\n    tag_163:\n      pop\n        /* \"contracts/zaps/PlexusZapRouter.sol\":5246:5258  bool success */\n      0x00\n        /* \"contracts/zaps/PlexusZapRouter.sol\":5260:5279  bytes memory result */\n      dup1\n        /* \"contracts/zaps/PlexusZapRouter.sol\":5283:5293  stepTarget */\n      dup10\n      sub(shl(0xa0, 0x01), 0x01)\n        /* \"contracts/zaps/PlexusZapRouter.sol\":5283:5298  stepTarget.call */\n      and\n        /* \"contracts/zaps/PlexusZapRouter.sol\":5306:5311  value */\n      dup10\n        /* \"contracts/zaps/PlexusZapRouter.sol\":5313:5321  callData */\n      dup10\n        /* \"contracts/zaps/PlexusZapRouter.sol\":5283:5322  stepTarget.call{value: value}(callData) */\n      mload(0x40)\n      tag_192\n      swap2\n      swap1\n      tag_193\n      jump\t// in\n    tag_192:\n      0x00\n      mload(0x40)\n      dup1\n      dup4\n      sub\n      dup2\n      dup6\n      dup8\n      gas\n      call\n      swap3\n      pop\n      pop\n      pop\n      returndatasize\n      dup1\n      0x00\n      dup2\n      eq\n      tag_196\n      jumpi\n      mload(0x40)\n      swap2\n      pop\n      and(add(returndatasize, 0x3f), not(0x1f))\n      dup3\n      add\n      0x40\n      mstore\n      returndatasize\n      dup3\n      mstore\n      returndatasize\n      0x00\n      0x20\n      dup5\n      add\n      returndatacopy\n      jump(tag_195)\n    tag_196:\n      0x60\n      swap2\n      pop\n    tag_195:\n      pop\n        /* \"contracts/zaps/PlexusZapRouter.sol\":5245:5322  (bool success, bytes memory result) = stepTarget.call{value: value}(callData) */\n      swap2\n      pop\n      swap2\n      pop\n        /* \"contracts/zaps/PlexusZapRouter.sol\":5341:5348  success */\n      dup2\n        /* \"contracts/zaps/PlexusZapRouter.sol\":5336:5402  if (!success) _propagateError(stepTarget, value, callData, result) */\n      tag_198\n      jumpi\n        /* \"contracts/zaps/PlexusZapRouter.sol\":5350:5402  _propagateError(stepTarget, value, callData, result) */\n      tag_198\n        /* \"contracts/zaps/PlexusZapRouter.sol\":5366:5376  stepTarget */\n      dup11\n        /* \"contracts/zaps/PlexusZapRouter.sol\":5378:5383  value */\n      dup11\n        /* \"contracts/zaps/PlexusZapRouter.sol\":5385:5393  callData */\n      dup11\n        /* \"contracts/zaps/PlexusZapRouter.sol\":5395:5401  result */\n      dup5\n        /* \"contracts/zaps/PlexusZapRouter.sol\":5350:5365  _propagateError */\n      tag_199\n        /* \"contracts/zaps/PlexusZapRouter.sol\":5350:5402  _propagateError(stepTarget, value, callData, result) */\n      jump\t// in\n    tag_198:\n        /* \"contracts/zaps/PlexusZapRouter.sol\":5445:5448  ++i */\n      dup12\n      0x01\n      add\n      swap12\n      pop\n        /* \"contracts/zaps/PlexusZapRouter.sol\":3820:5473  {... */\n      pop\n      pop\n      pop\n      pop\n      pop\n      pop\n      pop\n      pop\n      pop\n      pop\n      pop\n        /* \"contracts/zaps/PlexusZapRouter.sol\":3785:5473  for (uint256 i; i < routeLength; ) {... */\n      jump(tag_147)\n    tag_148:\n      pop\n        /* \"contracts/zaps/PlexusZapRouter.sol\":3730:5479  {... */\n      pop\n        /* \"contracts/zaps/PlexusZapRouter.sol\":3675:5479  function _executeSteps(Step[] calldata _route) private {... */\n      pop\n      pop\n      jump\t// out\n        /* \"contracts/zaps/PlexusZapRouter.sol\":6970:8336  function _returnAssets(Output[] calldata _outputs, address _recipient, uint256 _relayValue) private {... */\n    tag_132:\n        /* \"contracts/zaps/PlexusZapRouter.sol\":7080:7095  uint256 balance */\n      0x00\n        /* \"contracts/zaps/PlexusZapRouter.sol\":7129:7137  _outputs */\n      dup4\n        /* \"contracts/zaps/PlexusZapRouter.sol\":7080:7095  uint256 balance */\n      dup2\n        /* \"contracts/zaps/PlexusZapRouter.sol\":7154:8330  for (uint256 i; i < outputsLength; ) {... */\n    tag_201:\n        /* \"contracts/zaps/PlexusZapRouter.sol\":7174:7187  outputsLength */\n      dup2\n        /* \"contracts/zaps/PlexusZapRouter.sol\":7170:7171  i */\n      dup2\n        /* \"contracts/zaps/PlexusZapRouter.sol\":7170:7187  i < outputsLength */\n      lt\n        /* \"contracts/zaps/PlexusZapRouter.sol\":7154:8330  for (uint256 i; i < outputsLength; ) {... */\n      iszero\n      tag_202\n      jumpi\n        /* \"contracts/zaps/PlexusZapRouter.sol\":7205:7227  Output calldata output */\n      calldatasize\n        /* \"contracts/zaps/PlexusZapRouter.sol\":7230:7238  _outputs */\n      dup8\n      dup8\n        /* \"contracts/zaps/PlexusZapRouter.sol\":7239:7240  i */\n      dup4\n        /* \"contracts/zaps/PlexusZapRouter.sol\":7230:7241  _outputs[i] */\n      dup2\n      dup2\n      lt\n      tag_205\n      jumpi\n      tag_205\n      tag_152\n      jump\t// in\n    tag_205:\n      0x40\n      mul\n      swap2\n      swap1\n      swap2\n      add\n      swap2\n      pop\n        /* \"contracts/zaps/PlexusZapRouter.sol\":7256:7275  address outputToken */\n      0x00\n      swap1\n      pop\n      dup1\n        /* \"contracts/zaps/PlexusZapRouter.sol\":7305:7317  output.token */\n      tag_206\n      0x20\n      dup5\n      add\n        /* \"contracts/zaps/PlexusZapRouter.sol\":7230:7241  _outputs[i] */\n      dup5\n        /* \"contracts/zaps/PlexusZapRouter.sol\":7305:7317  output.token */\n      tag_40\n      jump\t// in\n    tag_206:\n        /* \"contracts/zaps/PlexusZapRouter.sol\":7255:7342  (address outputToken, uint256 outputMinAmount) = (output.token, output.minOutputAmount) */\n      swap2\n      pop\n      pop\n        /* \"contracts/zaps/PlexusZapRouter.sol\":7319:7341  output.minOutputAmount */\n      0x20\n      dup3\n      add\n      calldataload\n      sub(shl(0xa0, 0x01), 0x01)\n        /* \"contracts/zaps/PlexusZapRouter.sol\":7360:7385  outputToken == address(0) */\n      dup3\n      and\n        /* \"contracts/zaps/PlexusZapRouter.sol\":7356:8205  if (outputToken == address(0)) {... */\n      tag_207\n      jumpi\n        /* \"contracts/zaps/PlexusZapRouter.sol\":7415:7436  address(this).balance */\n      selfbalance\n        /* \"contracts/zaps/PlexusZapRouter.sol\":7405:7436  balance = address(this).balance */\n      swap6\n      pop\n        /* \"contracts/zaps/PlexusZapRouter.sol\":7468:7483  outputMinAmount */\n      dup1\n        /* \"contracts/zaps/PlexusZapRouter.sol\":7458:7465  balance */\n      dup7\n        /* \"contracts/zaps/PlexusZapRouter.sol\":7458:7483  balance < outputMinAmount */\n      lt\n        /* \"contracts/zaps/PlexusZapRouter.sol\":7454:7580  if (balance < outputMinAmount) {... */\n      iszero\n      tag_208\n      jumpi\n        /* \"contracts/zaps/PlexusZapRouter.sol\":7514:7561  Slippage(outputToken, outputMinAmount, balance) */\n      mload(0x40)\n      shl(0xe1, 0x6a67a2d1)\n      dup2\n      mstore\n      sub(shl(0xa0, 0x01), 0x01)\n        /* \"#utility.yul\":13650:13682   */\n      dup4\n      and\n        /* \"contracts/zaps/PlexusZapRouter.sol\":7514:7561  Slippage(outputToken, outputMinAmount, balance) */\n      0x04\n      dup3\n      add\n        /* \"#utility.yul\":13632:13683   */\n      mstore\n        /* \"#utility.yul\":13699:13717   */\n      0x24\n      dup2\n      add\n        /* \"#utility.yul\":13692:13726   */\n      dup3\n      swap1\n      mstore\n        /* \"#utility.yul\":13742:13760   */\n      0x44\n      dup2\n      add\n        /* \"#utility.yul\":13735:13769   */\n      dup8\n      swap1\n      mstore\n        /* \"#utility.yul\":13605:13623   */\n      0x64\n      add\n        /* \"contracts/zaps/PlexusZapRouter.sol\":7514:7561  Slippage(outputToken, outputMinAmount, balance) */\n      tag_68\n        /* \"#utility.yul\":13430:13775   */\n      jump\n        /* \"contracts/zaps/PlexusZapRouter.sol\":7454:7580  if (balance < outputMinAmount) {... */\n    tag_208:\n        /* \"contracts/zaps/PlexusZapRouter.sol\":7611:7622  _relayValue */\n      dup7\n        /* \"contracts/zaps/PlexusZapRouter.sol\":7601:7608  balance */\n      dup7\n        /* \"contracts/zaps/PlexusZapRouter.sol\":7601:7622  balance > _relayValue */\n      gt\n        /* \"contracts/zaps/PlexusZapRouter.sol\":7597:7837  if (balance > _relayValue) {... */\n      iszero\n      tag_211\n      jumpi\n        /* \"contracts/zaps/PlexusZapRouter.sol\":7646:7668  balance -= _relayValue */\n      tag_212\n        /* \"contracts/zaps/PlexusZapRouter.sol\":7657:7668  _relayValue */\n      dup8\n        /* \"contracts/zaps/PlexusZapRouter.sol\":7646:7668  balance -= _relayValue */\n      dup8\n      tag_189\n      jump\t// in\n    tag_212:\n      swap6\n      pop\n        /* \"contracts/zaps/PlexusZapRouter.sol\":7691:7703  bool success */\n      0x00\n        /* \"contracts/zaps/PlexusZapRouter.sol\":7709:7719  _recipient */\n      dup9\n      sub(shl(0xa0, 0x01), 0x01)\n        /* \"contracts/zaps/PlexusZapRouter.sol\":7709:7724  _recipient.call */\n      and\n        /* \"contracts/zaps/PlexusZapRouter.sol\":7732:7739  balance */\n      dup8\n        /* \"contracts/zaps/PlexusZapRouter.sol\":7709:7744  _recipient.call{value: balance}(\"\") */\n      mload(0x40)\n      0x00\n      mload(0x40)\n      dup1\n      dup4\n      sub\n      dup2\n      dup6\n      dup8\n      gas\n      call\n      swap3\n      pop\n      pop\n      pop\n      returndatasize\n      dup1\n      0x00\n      dup2\n      eq\n      tag_217\n      jumpi\n      mload(0x40)\n      swap2\n      pop\n      and(add(returndatasize, 0x3f), not(0x1f))\n      dup3\n      add\n      0x40\n      mstore\n      returndatasize\n      dup3\n      mstore\n      returndatasize\n      0x00\n      0x20\n      dup5\n      add\n      returndatacopy\n      jump(tag_216)\n    tag_217:\n      0x60\n      swap2\n      pop\n    tag_216:\n      pop\n        /* \"contracts/zaps/PlexusZapRouter.sol\":7690:7744  (bool success, ) = _recipient.call{value: balance}(\"\") */\n      pop\n      swap1\n      pop\n        /* \"contracts/zaps/PlexusZapRouter.sol\":7771:7778  success */\n      dup1\n        /* \"contracts/zaps/PlexusZapRouter.sol\":7766:7818  if (!success) revert EtherTransferFailed(_recipient) */\n      tag_218\n      jumpi\n        /* \"contracts/zaps/PlexusZapRouter.sol\":7787:7818  EtherTransferFailed(_recipient) */\n      mload(0x40)\n      shl(0xe0, 0x464e254d)\n      dup2\n      mstore\n      sub(shl(0xa0, 0x01), 0x01)\n        /* \"#utility.yul\":178:210   */\n      dup11\n      and\n        /* \"contracts/zaps/PlexusZapRouter.sol\":7787:7818  EtherTransferFailed(_recipient) */\n      0x04\n      dup3\n      add\n        /* \"#utility.yul\":160:211   */\n      mstore\n        /* \"#utility.yul\":133:151   */\n      0x24\n      add\n        /* \"contracts/zaps/PlexusZapRouter.sol\":7787:7818  EtherTransferFailed(_recipient) */\n      tag_68\n        /* \"#utility.yul\":14:217   */\n      jump\n        /* \"contracts/zaps/PlexusZapRouter.sol\":7766:7818  if (!success) revert EtherTransferFailed(_recipient) */\n    tag_218:\n        /* \"contracts/zaps/PlexusZapRouter.sol\":7624:7837  {... */\n      pop\n        /* \"contracts/zaps/PlexusZapRouter.sol\":7597:7837  if (balance > _relayValue) {... */\n    tag_211:\n        /* \"contracts/zaps/PlexusZapRouter.sol\":7356:8205  if (outputToken == address(0)) {... */\n      jump(tag_229)\n    tag_207:\n        /* \"contracts/zaps/PlexusZapRouter.sol\":7885:7929  IERC20(outputToken).balanceOf(address(this)) */\n      mload(0x40)\n      shl(0xe0, 0x70a08231)\n      dup2\n      mstore\n        /* \"contracts/zaps/PlexusZapRouter.sol\":7923:7927  this */\n      address\n        /* \"contracts/zaps/PlexusZapRouter.sol\":7885:7929  IERC20(outputToken).balanceOf(address(this)) */\n      0x04\n      dup3\n      add\n        /* \"#utility.yul\":160:211   */\n      mstore\n      sub(shl(0xa0, 0x01), 0x01)\n        /* \"contracts/zaps/PlexusZapRouter.sol\":7885:7914  IERC20(outputToken).balanceOf */\n      dup4\n      and\n      swap1\n      0x70a08231\n      swap1\n        /* \"#utility.yul\":133:151   */\n      0x24\n      add\n        /* \"contracts/zaps/PlexusZapRouter.sol\":7885:7929  IERC20(outputToken).balanceOf(address(this)) */\n      0x20\n      mload(0x40)\n      dup1\n      dup4\n      sub\n      dup2\n      dup7\n      gas\n      staticcall\n      iszero\n      dup1\n      iszero\n      tag_223\n      jumpi\n      returndatasize\n      0x00\n      dup1\n      returndatacopy\n      revert(0x00, returndatasize)\n    tag_223:\n      pop\n      pop\n      pop\n      pop\n      mload(0x40)\n      returndatasize\n      not(0x1f)\n      0x1f\n      dup3\n      add\n      and\n      dup3\n      add\n      dup1\n      0x40\n      mstore\n      pop\n      dup2\n      add\n      swap1\n      tag_224\n      swap2\n      swap1\n      tag_176\n      jump\t// in\n    tag_224:\n        /* \"contracts/zaps/PlexusZapRouter.sol\":7875:7929  balance = IERC20(outputToken).balanceOf(address(this)) */\n      swap6\n      pop\n        /* \"contracts/zaps/PlexusZapRouter.sol\":7962:7977  outputMinAmount */\n      dup1\n        /* \"contracts/zaps/PlexusZapRouter.sol\":7952:7959  balance */\n      dup7\n        /* \"contracts/zaps/PlexusZapRouter.sol\":7952:7977  balance < outputMinAmount */\n      lt\n        /* \"contracts/zaps/PlexusZapRouter.sol\":7948:8191  if (balance < outputMinAmount) {... */\n      iszero\n      tag_225\n      jumpi\n        /* \"contracts/zaps/PlexusZapRouter.sol\":8008:8055  Slippage(outputToken, outputMinAmount, balance) */\n      mload(0x40)\n      shl(0xe1, 0x6a67a2d1)\n      dup2\n      mstore\n      sub(shl(0xa0, 0x01), 0x01)\n        /* \"#utility.yul\":13650:13682   */\n      dup4\n      and\n        /* \"contracts/zaps/PlexusZapRouter.sol\":8008:8055  Slippage(outputToken, outputMinAmount, balance) */\n      0x04\n      dup3\n      add\n        /* \"#utility.yul\":13632:13683   */\n      mstore\n        /* \"#utility.yul\":13699:13717   */\n      0x24\n      dup2\n      add\n        /* \"#utility.yul\":13692:13726   */\n      dup3\n      swap1\n      mstore\n        /* \"#utility.yul\":13742:13760   */\n      0x44\n      dup2\n      add\n        /* \"#utility.yul\":13735:13769   */\n      dup8\n      swap1\n      mstore\n        /* \"#utility.yul\":13605:13623   */\n      0x64\n      add\n        /* \"contracts/zaps/PlexusZapRouter.sol\":8008:8055  Slippage(outputToken, outputMinAmount, balance) */\n      tag_68\n        /* \"#utility.yul\":13430:13775   */\n      jump\n        /* \"contracts/zaps/PlexusZapRouter.sol\":7948:8191  if (balance < outputMinAmount) {... */\n    tag_225:\n        /* \"contracts/zaps/PlexusZapRouter.sol\":8084:8095  balance > 0 */\n      dup6\n      iszero\n        /* \"contracts/zaps/PlexusZapRouter.sol\":8080:8191  if (balance > 0) {... */\n      tag_229\n      jumpi\n        /* \"contracts/zaps/PlexusZapRouter.sol\":8119:8172  IERC20(outputToken).safeTransfer(_recipient, balance) */\n      tag_229\n      sub(shl(0xa0, 0x01), 0x01)\n        /* \"contracts/zaps/PlexusZapRouter.sol\":8119:8151  IERC20(outputToken).safeTransfer */\n      dup4\n      and\n        /* \"contracts/zaps/PlexusZapRouter.sol\":8152:8162  _recipient */\n      dup10\n        /* \"contracts/zaps/PlexusZapRouter.sol\":8164:8171  balance */\n      dup9\n        /* \"contracts/zaps/PlexusZapRouter.sol\":8119:8151  IERC20(outputToken).safeTransfer */\n      tag_230\n        /* \"contracts/zaps/PlexusZapRouter.sol\":8119:8172  IERC20(outputToken).safeTransfer(_recipient, balance) */\n      jump\t// in\n    tag_229:\n        /* \"contracts/zaps/PlexusZapRouter.sol\":8238:8249  outputToken */\n      dup2\n      sub(shl(0xa0, 0x01), 0x01)\n        /* \"contracts/zaps/PlexusZapRouter.sol\":8224:8259  TokenReturned(outputToken, balance) */\n      and\n      0xeaf449319c042c9ba3474fa0c5329eb58cd1f23be110cdbf9d697b8d303dac15\n        /* \"contracts/zaps/PlexusZapRouter.sol\":8251:8258  balance */\n      dup8\n        /* \"contracts/zaps/PlexusZapRouter.sol\":8224:8259  TokenReturned(outputToken, balance) */\n      mload(0x40)\n      tag_231\n      swap2\n        /* \"#utility.yul\":11750:11775   */\n      dup2\n      mstore\n        /* \"#utility.yul\":11738:11740   */\n      0x20\n        /* \"#utility.yul\":11723:11741   */\n      add\n      swap1\n        /* \"#utility.yul\":11604:11781   */\n      jump\n        /* \"contracts/zaps/PlexusZapRouter.sol\":8224:8259  TokenReturned(outputToken, balance) */\n    tag_231:\n      mload(0x40)\n      dup1\n      swap2\n      sub\n      swap1\n      log2\n        /* \"contracts/zaps/PlexusZapRouter.sol\":8302:8305  ++i */\n      dup4\n      0x01\n      add\n      swap4\n      pop\n        /* \"contracts/zaps/PlexusZapRouter.sol\":7191:8330  {... */\n      pop\n      pop\n      pop\n        /* \"contracts/zaps/PlexusZapRouter.sol\":7154:8330  for (uint256 i; i < outputsLength; ) {... */\n      jump(tag_201)\n    tag_202:\n      pop\n        /* \"contracts/zaps/PlexusZapRouter.sol\":7070:8336  {... */\n      pop\n      pop\n        /* \"contracts/zaps/PlexusZapRouter.sol\":6970:8336  function _returnAssets(Output[] calldata _outputs, address _recipient, uint256 _relayValue) private {... */\n      pop\n      pop\n      pop\n      pop\n      jump\t// out\n        /* \"contracts/zaps/PlexusZapRouter.sol\":8516:9275  function _executeRelay(Relay calldata _relay) private {... */\n    tag_135:\n        /* \"contracts/zaps/PlexusZapRouter.sol\":8581:8600  address relayTarget */\n      0x00\n      dup1\n        /* \"contracts/zaps/PlexusZapRouter.sol\":8622:8646  bytes calldata relaydata */\n      calldatasize\n        /* \"contracts/zaps/PlexusZapRouter.sol\":8581:8600  address relayTarget */\n      dup2\n        /* \"contracts/zaps/PlexusZapRouter.sol\":8651:8664  _relay.target */\n      tag_233\n      0x20\n      dup7\n      add\n        /* \"contracts/zaps/PlexusZapRouter.sol\":8651:8657  _relay */\n      dup7\n        /* \"contracts/zaps/PlexusZapRouter.sol\":8651:8664  _relay.target */\n      tag_40\n      jump\t// in\n    tag_233:\n        /* \"contracts/zaps/PlexusZapRouter.sol\":8666:8678  _relay.value */\n      0x20\n      dup7\n      add\n      calldataload\n        /* \"contracts/zaps/PlexusZapRouter.sol\":8680:8691  _relay.data */\n      tag_234\n      0x40\n      dup9\n      add\n        /* \"contracts/zaps/PlexusZapRouter.sol\":8666:8672  _relay */\n      dup9\n        /* \"contracts/zaps/PlexusZapRouter.sol\":8680:8691  _relay.data */\n      tag_157\n      jump\t// in\n    tag_234:\n        /* \"contracts/zaps/PlexusZapRouter.sol\":8580:8692  (address relayTarget, uint256 relayValue, bytes calldata relaydata) = (_relay.target, _relay.value, _relay.data) */\n      swap3\n      swap7\n      pop\n      swap1\n      swap5\n      pop\n      swap3\n      pop\n      swap1\n      pop\n      sub(shl(0xa0, 0x01), 0x01)\n        /* \"contracts/zaps/PlexusZapRouter.sol\":8706:8731  relayTarget != address(0) */\n      dup5\n      and\n      iszero\n        /* \"contracts/zaps/PlexusZapRouter.sol\":8702:9269  if (relayTarget != address(0)) {... */\n      tag_235\n      jumpi\n        /* \"contracts/zaps/PlexusZapRouter.sol\":8766:8778  tokenManager */\n      immutable(\"0xe7c5a0bc45d8561c9e2074dafed00a1f1402b2bca9dda08f346e43aaa2234456\")\n      sub(shl(0xa0, 0x01), 0x01)\n        /* \"contracts/zaps/PlexusZapRouter.sol\":8751:8778  relayTarget == tokenManager */\n      and\n        /* \"contracts/zaps/PlexusZapRouter.sol\":8751:8762  relayTarget */\n      dup5\n      sub(shl(0xa0, 0x01), 0x01)\n        /* \"contracts/zaps/PlexusZapRouter.sol\":8751:8778  relayTarget == tokenManager */\n      and\n      sub\n        /* \"contracts/zaps/PlexusZapRouter.sol\":8747:8857  if (relayTarget == tokenManager) {... */\n      tag_236\n      jumpi\n        /* \"contracts/zaps/PlexusZapRouter.sol\":8805:8842  TargetingInvalidContract(relayTarget) */\n      mload(0x40)\n      shl(0xe2, 0x1e055a29)\n      dup2\n      mstore\n      sub(shl(0xa0, 0x01), 0x01)\n        /* \"#utility.yul\":178:210   */\n      dup6\n      and\n        /* \"contracts/zaps/PlexusZapRouter.sol\":8805:8842  TargetingInvalidContract(relayTarget) */\n      0x04\n      dup3\n      add\n        /* \"#utility.yul\":160:211   */\n      mstore\n        /* \"#utility.yul\":133:151   */\n      0x24\n      add\n        /* \"contracts/zaps/PlexusZapRouter.sol\":8805:8842  TargetingInvalidContract(relayTarget) */\n      tag_68\n        /* \"#utility.yul\":14:217   */\n      jump\n        /* \"contracts/zaps/PlexusZapRouter.sol\":8747:8857  if (relayTarget == tokenManager) {... */\n    tag_236:\n        /* \"contracts/zaps/PlexusZapRouter.sol\":8899:8909  relayValue */\n      dup3\n        /* \"contracts/zaps/PlexusZapRouter.sol\":8875:8896  address(this).balance */\n      selfbalance\n        /* \"contracts/zaps/PlexusZapRouter.sol\":8875:8909  address(this).balance < relayValue */\n      lt\n        /* \"contracts/zaps/PlexusZapRouter.sol\":8871:9008  if (address(this).balance < relayValue) {... */\n      iszero\n      tag_238\n      jumpi\n        /* \"contracts/zaps/PlexusZapRouter.sol\":8936:8993  InsufficientRelayValue(address(this).balance, relayValue) */\n      mload(0x40)\n      shl(0xe1, 0x3a6465f3)\n      dup2\n      mstore\n        /* \"contracts/zaps/PlexusZapRouter.sol\":8959:8980  address(this).balance */\n      selfbalance\n        /* \"contracts/zaps/PlexusZapRouter.sol\":8936:8993  InsufficientRelayValue(address(this).balance, relayValue) */\n      0x04\n      dup3\n      add\n        /* \"#utility.yul\":14164:14189   */\n      mstore\n        /* \"#utility.yul\":14205:14223   */\n      0x24\n      dup2\n      add\n        /* \"#utility.yul\":14198:14232   */\n      dup5\n      swap1\n      mstore\n        /* \"#utility.yul\":14137:14155   */\n      0x44\n      add\n        /* \"contracts/zaps/PlexusZapRouter.sol\":8936:8993  InsufficientRelayValue(address(this).balance, relayValue) */\n      tag_68\n        /* \"#utility.yul\":13990:14238   */\n      jump\n        /* \"contracts/zaps/PlexusZapRouter.sol\":8871:9008  if (address(this).balance < relayValue) {... */\n    tag_238:\n        /* \"contracts/zaps/PlexusZapRouter.sol\":9023:9035  bool success */\n      0x00\n        /* \"contracts/zaps/PlexusZapRouter.sol\":9037:9056  bytes memory result */\n      dup1\n        /* \"contracts/zaps/PlexusZapRouter.sol\":9060:9071  relayTarget */\n      dup6\n      sub(shl(0xa0, 0x01), 0x01)\n        /* \"contracts/zaps/PlexusZapRouter.sol\":9060:9076  relayTarget.call */\n      and\n        /* \"contracts/zaps/PlexusZapRouter.sol\":9084:9094  relayValue */\n      dup6\n        /* \"contracts/zaps/PlexusZapRouter.sol\":9096:9105  relaydata */\n      dup6\n      dup6\n        /* \"contracts/zaps/PlexusZapRouter.sol\":9060:9106  relayTarget.call{value: relayValue}(relaydata) */\n      mload(0x40)\n      tag_241\n      swap3\n      swap2\n      swap1\n      tag_242\n      jump\t// in\n    tag_241:\n      0x00\n      mload(0x40)\n      dup1\n      dup4\n      sub\n      dup2\n      dup6\n      dup8\n      gas\n      call\n      swap3\n      pop\n      pop\n      pop\n      returndatasize\n      dup1\n      0x00\n      dup2\n      eq\n      tag_245\n      jumpi\n      mload(0x40)\n      swap2\n      pop\n      and(add(returndatasize, 0x3f), not(0x1f))\n      dup3\n      add\n      0x40\n      mstore\n      returndatasize\n      dup3\n      mstore\n      returndatasize\n      0x00\n      0x20\n      dup5\n      add\n      returndatacopy\n      jump(tag_244)\n    tag_245:\n      0x60\n      swap2\n      pop\n    tag_244:\n      pop\n        /* \"contracts/zaps/PlexusZapRouter.sol\":9022:9106  (bool success, bytes memory result) = relayTarget.call{value: relayValue}(relaydata) */\n      swap2\n      pop\n      swap2\n      pop\n        /* \"contracts/zaps/PlexusZapRouter.sol\":9125:9132  success */\n      dup2\n        /* \"contracts/zaps/PlexusZapRouter.sol\":9120:9193  if (!success) _propagateError(relayTarget, relayValue, relaydata, result) */\n      tag_247\n      jumpi\n        /* \"contracts/zaps/PlexusZapRouter.sol\":9134:9193  _propagateError(relayTarget, relayValue, relaydata, result) */\n      tag_247\n        /* \"contracts/zaps/PlexusZapRouter.sol\":9150:9161  relayTarget */\n      dup7\n        /* \"contracts/zaps/PlexusZapRouter.sol\":9163:9173  relayValue */\n      dup7\n        /* \"contracts/zaps/PlexusZapRouter.sol\":9175:9184  relaydata */\n      dup7\n      dup7\n        /* \"contracts/zaps/PlexusZapRouter.sol\":9134:9193  _propagateError(relayTarget, relayValue, relaydata, result) */\n      dup1\n      dup1\n      0x1f\n      add\n      0x20\n      dup1\n      swap2\n      div\n      mul\n      0x20\n      add\n      mload(0x40)\n      swap1\n      dup2\n      add\n      0x40\n      mstore\n      dup1\n      swap4\n      swap3\n      swap2\n      swap1\n      dup2\n      dup2\n      mstore\n      0x20\n      add\n      dup4\n      dup4\n      dup1\n      dup3\n      dup5\n      calldatacopy\n      0x00\n      swap3\n      add\n      swap2\n      swap1\n      swap2\n      mstore\n      pop\n        /* \"contracts/zaps/PlexusZapRouter.sol\":9186:9192  result */\n      dup8\n      swap3\n      pop\n        /* \"contracts/zaps/PlexusZapRouter.sol\":9134:9149  _propagateError */\n      tag_199\n      swap2\n      pop\n      pop\n        /* \"contracts/zaps/PlexusZapRouter.sol\":9134:9193  _propagateError(relayTarget, relayValue, relaydata, result) */\n      jump\t// in\n    tag_247:\n        /* \"contracts/zaps/PlexusZapRouter.sol\":9223:9234  relayTarget */\n      dup6\n      sub(shl(0xa0, 0x01), 0x01)\n        /* \"contracts/zaps/PlexusZapRouter.sol\":9213:9258  RelayData(relayTarget, relayValue, relaydata) */\n      and\n      0x6c936258f37a22c831493e49cb45429bdf7b6bb0e261f271a15f084e5b08aaff\n        /* \"contracts/zaps/PlexusZapRouter.sol\":9236:9246  relayValue */\n      dup7\n        /* \"contracts/zaps/PlexusZapRouter.sol\":9248:9257  relaydata */\n      dup7\n      dup7\n        /* \"contracts/zaps/PlexusZapRouter.sol\":9213:9258  RelayData(relayTarget, relayValue, relaydata) */\n      mload(0x40)\n      tag_248\n      swap4\n      swap3\n      swap2\n      swap1\n      tag_249\n      jump\t// in\n    tag_248:\n      mload(0x40)\n      dup1\n      swap2\n      sub\n      swap1\n      log2\n        /* \"contracts/zaps/PlexusZapRouter.sol\":8733:9269  {... */\n      pop\n      pop\n        /* \"contracts/zaps/PlexusZapRouter.sol\":8702:9269  if (relayTarget != address(0)) {... */\n    tag_235:\n        /* \"contracts/zaps/PlexusZapRouter.sol\":8570:9275  {... */\n      pop\n      pop\n      pop\n      pop\n        /* \"contracts/zaps/PlexusZapRouter.sol\":8516:9275  function _executeRelay(Relay calldata _relay) private {... */\n      pop\n      jump\t// out\n        /* \"contracts/zaps/PlexusZapRouter.sol\":5783:6027  function _approveToken(address _token, address _spender, uint256 _amount) private {... */\n    tag_178:\n        /* \"contracts/zaps/PlexusZapRouter.sol\":5879:5928  IERC20(_token).allowance(address(this), _spender) */\n      mload(0x40)\n      shl(0xe1, 0x6eb1769f)\n      dup2\n      mstore\n        /* \"contracts/zaps/PlexusZapRouter.sol\":5912:5916  this */\n      address\n        /* \"contracts/zaps/PlexusZapRouter.sol\":5879:5928  IERC20(_token).allowance(address(this), _spender) */\n      0x04\n      dup3\n      add\n        /* \"#utility.yul\":2309:2343   */\n      mstore\n      sub(shl(0xa0, 0x01), 0x01)\n        /* \"#utility.yul\":2379:2394   */\n      dup4\n      dup2\n      and\n        /* \"#utility.yul\":2359:2377   */\n      0x24\n      dup4\n      add\n        /* \"#utility.yul\":2352:2395   */\n      mstore\n        /* \"contracts/zaps/PlexusZapRouter.sol\":5931:5938  _amount */\n      dup3\n      swap2\n        /* \"contracts/zaps/PlexusZapRouter.sol\":5879:5903  IERC20(_token).allowance */\n      swap1\n      dup6\n      and\n      swap1\n      0xdd62ed3e\n      swap1\n        /* \"#utility.yul\":2244:2262   */\n      0x44\n      add\n        /* \"contracts/zaps/PlexusZapRouter.sol\":5879:5928  IERC20(_token).allowance(address(this), _spender) */\n      0x20\n      mload(0x40)\n      dup1\n      dup4\n      sub\n      dup2\n      dup7\n      gas\n      staticcall\n      iszero\n      dup1\n      iszero\n      tag_253\n      jumpi\n      returndatasize\n      0x00\n      dup1\n      returndatacopy\n      revert(0x00, returndatasize)\n    tag_253:\n      pop\n      pop\n      pop\n      pop\n      mload(0x40)\n      returndatasize\n      not(0x1f)\n      0x1f\n      dup3\n      add\n      and\n      dup3\n      add\n      dup1\n      0x40\n      mstore\n      pop\n      dup2\n      add\n      swap1\n      tag_254\n      swap2\n      swap1\n      tag_176\n      jump\t// in\n    tag_254:\n        /* \"contracts/zaps/PlexusZapRouter.sol\":5879:5938  IERC20(_token).allowance(address(this), _spender) < _amount */\n      lt\n        /* \"contracts/zaps/PlexusZapRouter.sol\":5875:6021  if (IERC20(_token).allowance(address(this), _spender) < _amount) {... */\n      iszero\n      tag_93\n      jumpi\n        /* \"contracts/zaps/PlexusZapRouter.sol\":5954:6010  IERC20(_token).forceApprove(_spender, type(uint256).max) */\n      tag_93\n      sub(shl(0xa0, 0x01), 0x01)\n        /* \"contracts/zaps/PlexusZapRouter.sol\":5954:5981  IERC20(_token).forceApprove */\n      dup5\n      and\n        /* \"contracts/zaps/PlexusZapRouter.sol\":5982:5990  _spender */\n      dup4\n      not(0x00)\n        /* \"contracts/zaps/PlexusZapRouter.sol\":5954:5981  IERC20(_token).forceApprove */\n      tag_257\n        /* \"contracts/zaps/PlexusZapRouter.sol\":5954:6010  IERC20(_token).forceApprove(_spender, type(uint256).max) */\n      jump\t// in\n        /* \"contracts/utils/BytesLib.sol\":8814:11526  function slice(... */\n    tag_181:\n        /* \"contracts/utils/BytesLib.sol\":8948:8960  bytes memory */\n      0x60\n        /* \"contracts/utils/BytesLib.sol\":9000:9007  _length */\n      dup2\n        /* \"contracts/utils/BytesLib.sol\":8984:8996  _length + 31 */\n      tag_259\n        /* \"contracts/utils/BytesLib.sol\":9000:9007  _length */\n      dup2\n        /* \"contracts/utils/BytesLib.sol\":8994:8996  31 */\n      0x1f\n        /* \"contracts/utils/BytesLib.sol\":8984:8996  _length + 31 */\n      tag_186\n      jump\t// in\n    tag_259:\n        /* \"contracts/utils/BytesLib.sol\":8984:9007  _length + 31 >= _length */\n      lt\n      iszero\n        /* \"contracts/utils/BytesLib.sol\":8976:9026  require(_length + 31 >= _length, \"slice_overflow\") */\n      tag_260\n      jumpi\n      mload(0x40)\n      shl(0xe5, 0x461bcd)\n      dup2\n      mstore\n        /* \"#utility.yul\":15185:15187   */\n      0x20\n        /* \"contracts/utils/BytesLib.sol\":8976:9026  require(_length + 31 >= _length, \"slice_overflow\") */\n      0x04\n      dup3\n      add\n        /* \"#utility.yul\":15167:15188   */\n      mstore\n        /* \"#utility.yul\":15224:15226   */\n      0x0e\n        /* \"#utility.yul\":15204:15222   */\n      0x24\n      dup3\n      add\n        /* \"#utility.yul\":15197:15227   */\n      mstore\n      shl(0x90, 0x736c6963655f6f766572666c6f77)\n        /* \"#utility.yul\":15243:15261   */\n      0x44\n      dup3\n      add\n        /* \"#utility.yul\":15236:15280   */\n      mstore\n        /* \"#utility.yul\":15297:15315   */\n      0x64\n      add\n        /* \"contracts/utils/BytesLib.sol\":8976:9026  require(_length + 31 >= _length, \"slice_overflow\") */\n      tag_68\n        /* \"#utility.yul\":14983:15321   */\n      jump\n        /* \"contracts/utils/BytesLib.sol\":8976:9026  require(_length + 31 >= _length, \"slice_overflow\") */\n    tag_260:\n        /* \"contracts/utils/BytesLib.sol\":9061:9077  _start + _length */\n      tag_263\n        /* \"contracts/utils/BytesLib.sol\":9070:9077  _length */\n      dup3\n        /* \"contracts/utils/BytesLib.sol\":9061:9067  _start */\n      dup5\n        /* \"contracts/utils/BytesLib.sol\":9061:9077  _start + _length */\n      tag_186\n      jump\t// in\n    tag_263:\n        /* \"contracts/utils/BytesLib.sol\":9044:9050  _bytes */\n      dup5\n        /* \"contracts/utils/BytesLib.sol\":9044:9057  _bytes.length */\n      mload\n        /* \"contracts/utils/BytesLib.sol\":9044:9077  _bytes.length >= _start + _length */\n      lt\n      iszero\n        /* \"contracts/utils/BytesLib.sol\":9036:9099  require(_bytes.length >= _start + _length, \"slice_outOfBounds\") */\n      tag_264\n      jumpi\n      mload(0x40)\n      shl(0xe5, 0x461bcd)\n      dup2\n      mstore\n        /* \"#utility.yul\":15528:15530   */\n      0x20\n        /* \"contracts/utils/BytesLib.sol\":9036:9099  require(_bytes.length >= _start + _length, \"slice_outOfBounds\") */\n      0x04\n      dup3\n      add\n        /* \"#utility.yul\":15510:15531   */\n      mstore\n        /* \"#utility.yul\":15567:15569   */\n      0x11\n        /* \"#utility.yul\":15547:15565   */\n      0x24\n      dup3\n      add\n        /* \"#utility.yul\":15540:15570   */\n      mstore\n      shl(0x78, 0x736c6963655f6f75744f66426f756e6473)\n        /* \"#utility.yul\":15586:15604   */\n      0x44\n      dup3\n      add\n        /* \"#utility.yul\":15579:15626   */\n      mstore\n        /* \"#utility.yul\":15643:15661   */\n      0x64\n      add\n        /* \"contracts/utils/BytesLib.sol\":9036:9099  require(_bytes.length >= _start + _length, \"slice_outOfBounds\") */\n      tag_68\n        /* \"#utility.yul\":15326:15667   */\n      jump\n        /* \"contracts/utils/BytesLib.sol\":9036:9099  require(_bytes.length >= _start + _length, \"slice_outOfBounds\") */\n    tag_264:\n        /* \"contracts/utils/BytesLib.sol\":9110:9132  bytes memory tempBytes */\n      0x60\n        /* \"contracts/utils/BytesLib.sol\":9173:9188  iszero(_length) */\n      dup3\n      iszero\n        /* \"contracts/utils/BytesLib.sol\":9201:11096  case 0 {... */\n      dup1\n      iszero\n      tag_268\n      jumpi\n        /* \"contracts/utils/BytesLib.sol\":11237:11241  0x40 */\n      0x40\n        /* \"contracts/utils/BytesLib.sol\":11231:11242  mload(0x40) */\n      mload\n        /* \"contracts/utils/BytesLib.sol\":11218:11242  tempBytes := mload(0x40) */\n      swap2\n      pop\n        /* \"contracts/utils/BytesLib.sol\":11415:11416  0 */\n      0x00\n        /* \"contracts/utils/BytesLib.sol\":11404:11413  tempBytes */\n      dup3\n        /* \"contracts/utils/BytesLib.sol\":11397:11417  mstore(tempBytes, 0) */\n      mstore\n        /* \"contracts/utils/BytesLib.sol\":11463:11467  0x20 */\n      0x20\n        /* \"contracts/utils/BytesLib.sol\":11452:11461  tempBytes */\n      dup3\n        /* \"contracts/utils/BytesLib.sol\":11448:11468  add(tempBytes, 0x20) */\n      add\n        /* \"contracts/utils/BytesLib.sol\":11442:11446  0x40 */\n      0x40\n        /* \"contracts/utils/BytesLib.sol\":11435:11469  mstore(0x40, add(tempBytes, 0x20)) */\n      mstore\n        /* \"contracts/utils/BytesLib.sol\":9166:11483  switch iszero(_length)... */\n      jump(tag_267)\n        /* \"contracts/utils/BytesLib.sol\":9201:11096  case 0 {... */\n    tag_268:\n        /* \"contracts/utils/BytesLib.sol\":9375:9379  0x40 */\n      0x40\n        /* \"contracts/utils/BytesLib.sol\":9369:9380  mload(0x40) */\n      mload\n        /* \"contracts/utils/BytesLib.sol\":9356:9380  tempBytes := mload(0x40) */\n      swap2\n      pop\n        /* \"contracts/utils/BytesLib.sol\":10002:10004  31 */\n      0x1f\n        /* \"contracts/utils/BytesLib.sol\":9993:10000  _length */\n      dup5\n        /* \"contracts/utils/BytesLib.sol\":9989:10005  and(_length, 31) */\n      and\n        /* \"contracts/utils/BytesLib.sol\":10368:10377  lengthmod */\n      dup1\n        /* \"contracts/utils/BytesLib.sol\":10361:10378  iszero(lengthmod) */\n      iszero\n        /* \"contracts/utils/BytesLib.sol\":10355:10359  0x20 */\n      0x20\n        /* \"contracts/utils/BytesLib.sol\":10351:10379  mul(0x20, iszero(lengthmod)) */\n      mul\n        /* \"contracts/utils/BytesLib.sol\":10339:10348  lengthmod */\n      dup2\n        /* \"contracts/utils/BytesLib.sol\":10328:10337  tempBytes */\n      dup5\n        /* \"contracts/utils/BytesLib.sol\":10324:10349  add(tempBytes, lengthmod) */\n      add\n        /* \"contracts/utils/BytesLib.sol\":10320:10380  add(add(tempBytes, lengthmod), mul(0x20, iszero(lengthmod))) */\n      add\n        /* \"contracts/utils/BytesLib.sol\":10416:10423  _length */\n      dup6\n        /* \"contracts/utils/BytesLib.sol\":10412:10414  mc */\n      dup2\n        /* \"contracts/utils/BytesLib.sol\":10408:10424  add(mc, _length) */\n      add\n        /* \"contracts/utils/BytesLib.sol\":10660:10666  _start */\n      dup8\n        /* \"contracts/utils/BytesLib.sol\":10646:10655  lengthmod */\n      dup4\n        /* \"contracts/utils/BytesLib.sol\":10639:10656  iszero(lengthmod) */\n      iszero\n        /* \"contracts/utils/BytesLib.sol\":10633:10637  0x20 */\n      0x20\n        /* \"contracts/utils/BytesLib.sol\":10629:10657  mul(0x20, iszero(lengthmod)) */\n      mul\n        /* \"contracts/utils/BytesLib.sol\":10617:10626  lengthmod */\n      dup5\n        /* \"contracts/utils/BytesLib.sol\":10609:10615  _bytes */\n      dup12\n        /* \"contracts/utils/BytesLib.sol\":10605:10627  add(_bytes, lengthmod) */\n      add\n        /* \"contracts/utils/BytesLib.sol\":10601:10658  add(add(_bytes, lengthmod), mul(0x20, iszero(lengthmod))) */\n      add\n        /* \"contracts/utils/BytesLib.sol\":10597:10667  add(add(add(_bytes, lengthmod), mul(0x20, iszero(lengthmod))), _start) */\n      add\n        /* \"contracts/utils/BytesLib.sol\":10442:10859  for {... */\n    tag_269:\n        /* \"contracts/utils/BytesLib.sol\":10693:10696  end */\n      dup2\n        /* \"contracts/utils/BytesLib.sol\":10689:10691  mc */\n      dup4\n        /* \"contracts/utils/BytesLib.sol\":10686:10697  lt(mc, end) */\n      lt\n        /* \"contracts/utils/BytesLib.sol\":10442:10859  for {... */\n      iszero\n      tag_271\n      jumpi\n        /* \"contracts/utils/BytesLib.sol\":10831:10840  mload(cc) */\n      dup1\n      mload\n        /* \"contracts/utils/BytesLib.sol\":10820:10841  mstore(mc, mload(cc)) */\n      dup4\n      mstore\n        /* \"contracts/utils/BytesLib.sol\":10734:10738  0x20 */\n      0x20\n        /* \"contracts/utils/BytesLib.sol\":10726:10739  add(mc, 0x20) */\n      swap3\n      dup4\n      add\n      swap3\n        /* \"contracts/utils/BytesLib.sol\":10766:10779  add(cc, 0x20) */\n      add\n        /* \"contracts/utils/BytesLib.sol\":10442:10859  for {... */\n      jump(tag_269)\n    tag_271:\n      pop\n      pop\n        /* \"contracts/utils/BytesLib.sol\":10877:10903  mstore(tempBytes, _length) */\n      dup6\n      dup5\n      mstore\n        /* \"contracts/utils/BytesLib.sol\":11077:11079  31 */\n      0x1f\n        /* \"contracts/utils/BytesLib.sol\":11060:11071  add(mc, 31) */\n      add\n      not(0x1f)\n        /* \"contracts/utils/BytesLib.sol\":11056:11081  and(add(mc, 31), not(31)) */\n      and\n        /* \"contracts/utils/BytesLib.sol\":11050:11054  0x40 */\n      0x40\n        /* \"contracts/utils/BytesLib.sol\":11043:11082  mstore(0x40, and(add(mc, 31), not(31))) */\n      mstore\n      pop\n        /* \"contracts/utils/BytesLib.sol\":9166:11483  switch iszero(_length)... */\n    tag_267:\n      pop\n        /* \"contracts/utils/BytesLib.sol\":11510:11519  tempBytes */\n      swap5\n        /* \"contracts/utils/BytesLib.sol\":8814:11526  function slice(... */\n      swap4\n      pop\n      pop\n      pop\n      pop\n      jump\t// out\n        /* \"contracts/zaps/PlexusZapRouter.sol\":6329:6631  function _propagateError(address _target, uint256 _value, bytes memory _data, bytes memory _returnedData) private pure {... */\n    tag_199:\n        /* \"contracts/zaps/PlexusZapRouter.sol\":6462:6475  _returnedData */\n      dup1\n        /* \"contracts/zaps/PlexusZapRouter.sol\":6462:6482  _returnedData.length */\n      mload\n        /* \"contracts/zaps/PlexusZapRouter.sol\":6486:6487  0 */\n      0x00\n        /* \"contracts/zaps/PlexusZapRouter.sol\":6462:6487  _returnedData.length == 0 */\n      sub\n        /* \"contracts/zaps/PlexusZapRouter.sol\":6458:6530  if (_returnedData.length == 0) revert CallFailed(_target, _value, _data) */\n      tag_273\n      jumpi\n        /* \"contracts/zaps/PlexusZapRouter.sol\":6507:6514  _target */\n      dup4\n        /* \"contracts/zaps/PlexusZapRouter.sol\":6516:6522  _value */\n      dup4\n        /* \"contracts/zaps/PlexusZapRouter.sol\":6524:6529  _data */\n      dup4\n        /* \"contracts/zaps/PlexusZapRouter.sol\":6496:6530  CallFailed(_target, _value, _data) */\n      mload(0x40)\n      shl(0xe0, 0xe1eec8f1)\n      dup2\n      mstore\n      0x04\n      add\n      tag_68\n      swap4\n      swap3\n      swap2\n      swap1\n      tag_275\n      jump\t// in\n        /* \"contracts/zaps/PlexusZapRouter.sol\":6458:6530  if (_returnedData.length == 0) revert CallFailed(_target, _value, _data) */\n    tag_273:\n        /* \"contracts/zaps/PlexusZapRouter.sol\":6600:6613  _returnedData */\n      dup1\n        /* \"contracts/zaps/PlexusZapRouter.sol\":6594:6614  mload(_returnedData) */\n      mload\n        /* \"contracts/zaps/PlexusZapRouter.sol\":6578:6591  _returnedData */\n      dup2\n        /* \"contracts/zaps/PlexusZapRouter.sol\":6574:6576  32 */\n      0x20\n        /* \"contracts/zaps/PlexusZapRouter.sol\":6570:6592  add(32, _returnedData) */\n      add\n        /* \"contracts/zaps/PlexusZapRouter.sol\":6563:6615  revert(add(32, _returnedData), mload(_returnedData)) */\n      revert\n        /* \"@openzeppelin/contracts/token/ERC20/utils/SafeERC20.sol\":941:1116  function safeTransfer(IERC20 token, address to, uint256 value) internal {... */\n    tag_230:\n        /* \"@openzeppelin/contracts/token/ERC20/utils/SafeERC20.sol\":1050:1108  abi.encodeWithSelector(token.transfer.selector, to, value) */\n      mload(0x40)\n      sub(shl(0xa0, 0x01), 0x01)\n        /* \"#utility.yul\":16529:16561   */\n      dup4\n      and\n        /* \"@openzeppelin/contracts/token/ERC20/utils/SafeERC20.sol\":1050:1108  abi.encodeWithSelector(token.transfer.selector, to, value) */\n      0x24\n      dup3\n      add\n        /* \"#utility.yul\":16511:16562   */\n      mstore\n        /* \"#utility.yul\":16578:16596   */\n      0x44\n      dup2\n      add\n        /* \"#utility.yul\":16571:16605   */\n      dup3\n      swap1\n      mstore\n        /* \"@openzeppelin/contracts/token/ERC20/utils/SafeERC20.sol\":1023:1109  _callOptionalReturn(token, abi.encodeWithSelector(token.transfer.selector, to, value)) */\n      tag_93\n      swap1\n        /* \"@openzeppelin/contracts/token/ERC20/utils/SafeERC20.sol\":1043:1048  token */\n      dup5\n      swap1\n      shl(0xe0, 0xa9059cbb)\n        /* \"@openzeppelin/contracts/token/ERC20/utils/SafeERC20.sol\":1073:1096  token.transfer.selector */\n      swap1\n        /* \"#utility.yul\":16484:16502   */\n      0x64\n      add\n        /* \"@openzeppelin/contracts/token/ERC20/utils/SafeERC20.sol\":1050:1108  abi.encodeWithSelector(token.transfer.selector, to, value) */\n    tag_278:\n      0x40\n      dup1\n      mload\n      not(0x1f)\n      dup2\n      dup5\n      sub\n      add\n      dup2\n      mstore\n      swap2\n      swap1\n      mstore\n      0x20\n      dup2\n      add\n      dup1\n      mload\n      sub(shl(0xe0, 0x01), 0x01)\n      and\n      not(sub(shl(0xe0, 0x01), 0x01))\n      swap1\n      swap4\n      and\n      swap3\n      swap1\n      swap3\n      or\n      swap1\n      swap2\n      mstore\n        /* \"@openzeppelin/contracts/token/ERC20/utils/SafeERC20.sol\":1023:1042  _callOptionalReturn */\n      tag_280\n        /* \"@openzeppelin/contracts/token/ERC20/utils/SafeERC20.sol\":1023:1109  _callOptionalReturn(token, abi.encodeWithSelector(token.transfer.selector, to, value)) */\n      jump\t// in\n        /* \"@openzeppelin/contracts/token/ERC20/utils/SafeERC20.sol\":3779:4189  function forceApprove(IERC20 token, address spender, uint256 value) internal {... */\n    tag_257:\n        /* \"@openzeppelin/contracts/token/ERC20/utils/SafeERC20.sol\":3894:3956  abi.encodeWithSelector(token.approve.selector, spender, value) */\n      0x40\n      dup1\n      mload\n      sub(shl(0xa0, 0x01), 0x01)\n        /* \"#utility.yul\":16529:16561   */\n      dup5\n      and\n        /* \"@openzeppelin/contracts/token/ERC20/utils/SafeERC20.sol\":3894:3956  abi.encodeWithSelector(token.approve.selector, spender, value) */\n      0x24\n      dup3\n      add\n        /* \"#utility.yul\":16511:16562   */\n      mstore\n        /* \"#utility.yul\":16578:16596   */\n      0x44\n      dup1\n      dup3\n      add\n        /* \"#utility.yul\":16571:16605   */\n      dup5\n      swap1\n      mstore\n        /* \"@openzeppelin/contracts/token/ERC20/utils/SafeERC20.sol\":3894:3956  abi.encodeWithSelector(token.approve.selector, spender, value) */\n      dup3\n      mload\n      dup1\n      dup4\n      sub\n      swap1\n      swap2\n      add\n      dup2\n      mstore\n        /* \"#utility.yul\":16484:16502   */\n      0x64\n      swap1\n      swap2\n      add\n        /* \"@openzeppelin/contracts/token/ERC20/utils/SafeERC20.sol\":3894:3956  abi.encodeWithSelector(token.approve.selector, spender, value) */\n      swap1\n      swap2\n      mstore\n      0x20\n      dup2\n      add\n      dup1\n      mload\n      sub(shl(0xe0, 0x01), 0x01)\n      and\n      shl(0xe0, 0x095ea7b3)\n      or\n      swap1\n      mstore\n        /* \"@openzeppelin/contracts/token/ERC20/utils/SafeERC20.sol\":3972:4016  _callOptionalReturnBool(token, approvalCall) */\n      tag_283\n        /* \"@openzeppelin/contracts/token/ERC20/utils/SafeERC20.sol\":3996:4001  token */\n      dup5\n        /* \"@openzeppelin/contracts/token/ERC20/utils/SafeERC20.sol\":3894:3956  abi.encodeWithSelector(token.approve.selector, spender, value) */\n      dup3\n        /* \"@openzeppelin/contracts/token/ERC20/utils/SafeERC20.sol\":3972:3995  _callOptionalReturnBool */\n      tag_284\n        /* \"@openzeppelin/contracts/token/ERC20/utils/SafeERC20.sol\":3972:4016  _callOptionalReturnBool(token, approvalCall) */\n      jump\t// in\n    tag_283:\n        /* \"@openzeppelin/contracts/token/ERC20/utils/SafeERC20.sol\":3967:4183  if (!_callOptionalReturnBool(token, approvalCall)) {... */\n      tag_148\n      jumpi\n        /* \"@openzeppelin/contracts/token/ERC20/utils/SafeERC20.sol\":4059:4117  abi.encodeWithSelector(token.approve.selector, spender, 0) */\n      mload(0x40)\n      sub(shl(0xa0, 0x01), 0x01)\n        /* \"#utility.yul\":16814:16846   */\n      dup5\n      and\n        /* \"@openzeppelin/contracts/token/ERC20/utils/SafeERC20.sol\":4059:4117  abi.encodeWithSelector(token.approve.selector, spender, 0) */\n      0x24\n      dup3\n      add\n        /* \"#utility.yul\":16796:16847   */\n      mstore\n        /* \"@openzeppelin/contracts/token/ERC20/utils/SafeERC20.sol\":4115:4116  0 */\n      0x00\n        /* \"#utility.yul\":16863:16881   */\n      0x44\n      dup3\n      add\n        /* \"#utility.yul\":16856:16901   */\n      mstore\n        /* \"@openzeppelin/contracts/token/ERC20/utils/SafeERC20.sol\":4032:4118  _callOptionalReturn(token, abi.encodeWithSelector(token.approve.selector, spender, 0)) */\n      tag_286\n      swap1\n        /* \"@openzeppelin/contracts/token/ERC20/utils/SafeERC20.sol\":4052:4057  token */\n      dup6\n      swap1\n      shl(0xe0, 0x095ea7b3)\n        /* \"@openzeppelin/contracts/token/ERC20/utils/SafeERC20.sol\":4082:4104  token.approve.selector */\n      swap1\n        /* \"#utility.yul\":16769:16787   */\n      0x64\n      add\n        /* \"@openzeppelin/contracts/token/ERC20/utils/SafeERC20.sol\":4059:4117  abi.encodeWithSelector(token.approve.selector, spender, 0) */\n      tag_278\n        /* \"#utility.yul\":16616:16907   */\n      jump\n        /* \"@openzeppelin/contracts/token/ERC20/utils/SafeERC20.sol\":4032:4118  _callOptionalReturn(token, abi.encodeWithSelector(token.approve.selector, spender, 0)) */\n    tag_286:\n        /* \"@openzeppelin/contracts/token/ERC20/utils/SafeERC20.sol\":4132:4172  _callOptionalReturn(token, approvalCall) */\n      tag_148\n        /* \"@openzeppelin/contracts/token/ERC20/utils/SafeERC20.sol\":4152:4157  token */\n      dup5\n        /* \"@openzeppelin/contracts/token/ERC20/utils/SafeERC20.sol\":4159:4171  approvalCall */\n      dup3\n        /* \"@openzeppelin/contracts/token/ERC20/utils/SafeERC20.sol\":5196:5838  function _callOptionalReturn(IERC20 token, bytes memory data) private {... */\n    tag_280:\n        /* \"@openzeppelin/contracts/token/ERC20/utils/SafeERC20.sol\":5615:5638  bytes memory returndata */\n      0x00\n        /* \"@openzeppelin/contracts/token/ERC20/utils/SafeERC20.sol\":5641:5710  address(token).functionCall(data, \"SafeERC20: low-level call failed\") */\n      tag_291\n        /* \"@openzeppelin/contracts/token/ERC20/utils/SafeERC20.sol\":5669:5673  data */\n      dup3\n        /* \"@openzeppelin/contracts/token/ERC20/utils/SafeERC20.sol\":5641:5710  address(token).functionCall(data, \"SafeERC20: low-level call failed\") */\n      mload(0x40)\n      dup1\n      0x40\n      add\n      0x40\n      mstore\n      dup1\n      0x20\n      dup2\n      mstore\n      0x20\n      add\n      0x5361666545524332303a206c6f772d6c6576656c2063616c6c206661696c6564\n      dup2\n      mstore\n      pop\n        /* \"@openzeppelin/contracts/token/ERC20/utils/SafeERC20.sol\":5649:5654  token */\n      dup6\n      sub(shl(0xa0, 0x01), 0x01)\n        /* \"@openzeppelin/contracts/token/ERC20/utils/SafeERC20.sol\":5641:5668  address(token).functionCall */\n      and\n      tag_292\n      swap1\n        /* \"@openzeppelin/contracts/token/ERC20/utils/SafeERC20.sol\":5641:5710  address(token).functionCall(data, \"SafeERC20: low-level call failed\") */\n      swap3\n      swap2\n      swap1\n      0xffffffff\n      and\n      jump\t// in\n    tag_291:\n        /* \"@openzeppelin/contracts/token/ERC20/utils/SafeERC20.sol\":5615:5710  bytes memory returndata = address(token).functionCall(data, \"SafeERC20: low-level call failed\") */\n      swap1\n      pop\n        /* \"@openzeppelin/contracts/token/ERC20/utils/SafeERC20.sol\":5728:5738  returndata */\n      dup1\n        /* \"@openzeppelin/contracts/token/ERC20/utils/SafeERC20.sol\":5728:5745  returndata.length */\n      mload\n        /* \"@openzeppelin/contracts/token/ERC20/utils/SafeERC20.sol\":5749:5750  0 */\n      0x00\n        /* \"@openzeppelin/contracts/token/ERC20/utils/SafeERC20.sol\":5728:5750  returndata.length == 0 */\n      eq\n        /* \"@openzeppelin/contracts/token/ERC20/utils/SafeERC20.sol\":5728:5784  returndata.length == 0 || abi.decode(returndata, (bool)) */\n      dup1\n      tag_294\n      jumpi\n      pop\n        /* \"@openzeppelin/contracts/token/ERC20/utils/SafeERC20.sol\":5765:5775  returndata */\n      dup1\n        /* \"@openzeppelin/contracts/token/ERC20/utils/SafeERC20.sol\":5754:5784  abi.decode(returndata, (bool)) */\n      dup1\n      0x20\n      add\n      swap1\n      mload\n      dup2\n      add\n      swap1\n      tag_294\n      swap2\n      swap1\n      tag_295\n      jump\t// in\n    tag_294:\n        /* \"@openzeppelin/contracts/token/ERC20/utils/SafeERC20.sol\":5720:5831  require(returndata.length == 0 || abi.decode(returndata, (bool)), \"SafeERC20: ERC20 operation did not succeed\") */\n      tag_93\n      jumpi\n      mload(0x40)\n      shl(0xe5, 0x461bcd)\n      dup2\n      mstore\n        /* \"#utility.yul\":17396:17398   */\n      0x20\n        /* \"@openzeppelin/contracts/token/ERC20/utils/SafeERC20.sol\":5720:5831  require(returndata.length == 0 || abi.decode(returndata, (bool)), \"SafeERC20: ERC20 operation did not succeed\") */\n      0x04\n      dup3\n      add\n        /* \"#utility.yul\":17378:17399   */\n      mstore\n        /* \"#utility.yul\":17435:17437   */\n      0x2a\n        /* \"#utility.yul\":17415:17433   */\n      0x24\n      dup3\n      add\n        /* \"#utility.yul\":17408:17438   */\n      mstore\n        /* \"#utility.yul\":17474:17508   */\n      0x5361666545524332303a204552433230206f7065726174696f6e20646964206e\n        /* \"#utility.yul\":17454:17472   */\n      0x44\n      dup3\n      add\n        /* \"#utility.yul\":17447:17509   */\n      mstore\n      shl(0xb2, 0x1bdd081cdd58d8d95959)\n        /* \"#utility.yul\":17525:17543   */\n      0x64\n      dup3\n      add\n        /* \"#utility.yul\":17518:17558   */\n      mstore\n        /* \"#utility.yul\":17575:17594   */\n      0x84\n      add\n        /* \"@openzeppelin/contracts/token/ERC20/utils/SafeERC20.sol\":5720:5831  require(returndata.length == 0 || abi.decode(returndata, (bool)), \"SafeERC20: ERC20 operation did not succeed\") */\n      tag_68\n        /* \"#utility.yul\":17194:17600   */\n      jump\n        /* \"@openzeppelin/contracts/token/ERC20/utils/SafeERC20.sol\":6339:6933  function _callOptionalReturnBool(IERC20 token, bytes memory data) private returns (bool) {... */\n    tag_284:\n        /* \"@openzeppelin/contracts/token/ERC20/utils/SafeERC20.sol\":6422:6426  bool */\n      0x00\n        /* \"@openzeppelin/contracts/token/ERC20/utils/SafeERC20.sol\":6724:6736  bool success */\n      dup1\n        /* \"@openzeppelin/contracts/token/ERC20/utils/SafeERC20.sol\":6738:6761  bytes memory returndata */\n      0x00\n        /* \"@openzeppelin/contracts/token/ERC20/utils/SafeERC20.sol\":6773:6778  token */\n      dup5\n      sub(shl(0xa0, 0x01), 0x01)\n        /* \"@openzeppelin/contracts/token/ERC20/utils/SafeERC20.sol\":6765:6784  address(token).call */\n      and\n        /* \"@openzeppelin/contracts/token/ERC20/utils/SafeERC20.sol\":6785:6789  data */\n      dup5\n        /* \"@openzeppelin/contracts/token/ERC20/utils/SafeERC20.sol\":6765:6790  address(token).call(data) */\n      mload(0x40)\n      tag_300\n      swap2\n      swap1\n      tag_193\n      jump\t// in\n    tag_300:\n      0x00\n      mload(0x40)\n      dup1\n      dup4\n      sub\n      dup2\n      0x00\n      dup7\n      gas\n      call\n      swap2\n      pop\n      pop\n      returndatasize\n      dup1\n      0x00\n      dup2\n      eq\n      tag_303\n      jumpi\n      mload(0x40)\n      swap2\n      pop\n      and(add(returndatasize, 0x3f), not(0x1f))\n      dup3\n      add\n      0x40\n      mstore\n      returndatasize\n      dup3\n      mstore\n      returndatasize\n      0x00\n      0x20\n      dup5\n      add\n      returndatacopy\n      jump(tag_302)\n    tag_303:\n      0x60\n      swap2\n      pop\n    tag_302:\n      pop\n        /* \"@openzeppelin/contracts/token/ERC20/utils/SafeERC20.sol\":6723:6790  (bool success, bytes memory returndata) = address(token).call(data) */\n      swap2\n      pop\n      swap2\n      pop\n        /* \"@openzeppelin/contracts/token/ERC20/utils/SafeERC20.sol\":6819:6826  success */\n      dup2\n        /* \"@openzeppelin/contracts/token/ERC20/utils/SafeERC20.sol\":6819:6888  success && (returndata.length == 0 || abi.decode(returndata, (bool))) */\n      dup1\n      iszero\n      tag_306\n      jumpi\n      pop\n        /* \"@openzeppelin/contracts/token/ERC20/utils/SafeERC20.sol\":6831:6848  returndata.length */\n      dup1\n      mload\n        /* \"@openzeppelin/contracts/token/ERC20/utils/SafeERC20.sol\":6831:6853  returndata.length == 0 */\n      iszero\n      dup1\n        /* \"@openzeppelin/contracts/token/ERC20/utils/SafeERC20.sol\":6831:6887  returndata.length == 0 || abi.decode(returndata, (bool)) */\n      tag_306\n      jumpi\n      pop\n        /* \"@openzeppelin/contracts/token/ERC20/utils/SafeERC20.sol\":6868:6878  returndata */\n      dup1\n        /* \"@openzeppelin/contracts/token/ERC20/utils/SafeERC20.sol\":6857:6887  abi.decode(returndata, (bool)) */\n      dup1\n      0x20\n      add\n      swap1\n      mload\n      dup2\n      add\n      swap1\n      tag_306\n      swap2\n      swap1\n      tag_295\n      jump\t// in\n    tag_306:\n        /* \"@openzeppelin/contracts/token/ERC20/utils/SafeERC20.sol\":6819:6926  success && (returndata.length == 0 || abi.decode(returndata, (bool))) && Address.isContract(address(token)) */\n      dup1\n      iszero\n      tag_308\n      jumpi\n      pop\n      sub(shl(0xa0, 0x01), 0x01)\n        /* \"@openzeppelin/contracts/utils/Address.sol\":1702:1721  account.code.length */\n      dup6\n      and\n      extcodesize\n        /* \"@openzeppelin/contracts/utils/Address.sol\":1702:1725  account.code.length > 0 */\n      iszero\n      iszero\n        /* \"@openzeppelin/contracts/token/ERC20/utils/SafeERC20.sol\":6892:6926  Address.isContract(address(token)) */\n    tag_308:\n        /* \"@openzeppelin/contracts/token/ERC20/utils/SafeERC20.sol\":6800:6926  return... */\n      swap3\n      pop\n      pop\n      pop\n        /* \"@openzeppelin/contracts/token/ERC20/utils/SafeERC20.sol\":6339:6933  function _callOptionalReturnBool(IERC20 token, bytes memory data) private returns (bool) {... */\n    tag_299:\n      swap3\n      swap2\n      pop\n      pop\n      jump\t// out\n        /* \"@openzeppelin/contracts/utils/Address.sol\":4108:4331  function functionCall(... */\n    tag_292:\n        /* \"@openzeppelin/contracts/utils/Address.sol\":4241:4253  bytes memory */\n      0x60\n        /* \"@openzeppelin/contracts/utils/Address.sol\":4272:4324  functionCallWithValue(target, data, 0, errorMessage) */\n      tag_311\n        /* \"@openzeppelin/contracts/utils/Address.sol\":4294:4300  target */\n      dup5\n        /* \"@openzeppelin/contracts/utils/Address.sol\":4302:4306  data */\n      dup5\n        /* \"@openzeppelin/contracts/utils/Address.sol\":4308:4309  0 */\n      0x00\n        /* \"@openzeppelin/contracts/utils/Address.sol\":4311:4323  errorMessage */\n      dup6\n        /* \"@openzeppelin/contracts/utils/Address.sol\":4272:4293  functionCallWithValue */\n      tag_312\n        /* \"@openzeppelin/contracts/utils/Address.sol\":4272:4324  functionCallWithValue(target, data, 0, errorMessage) */\n      jump\t// in\n    tag_311:\n        /* \"@openzeppelin/contracts/utils/Address.sol\":4265:4324  return functionCallWithValue(target, data, 0, errorMessage) */\n      swap5\n        /* \"@openzeppelin/contracts/utils/Address.sol\":4108:4331  function functionCall(... */\n      swap4\n      pop\n      pop\n      pop\n      pop\n      jump\t// out\n        /* \"@openzeppelin/contracts/utils/Address.sol\":5165:5611  function functionCallWithValue(... */\n    tag_312:\n        /* \"@openzeppelin/contracts/utils/Address.sol\":5330:5342  bytes memory */\n      0x60\n        /* \"@openzeppelin/contracts/utils/Address.sol\":5387:5392  value */\n      dup3\n        /* \"@openzeppelin/contracts/utils/Address.sol\":5362:5383  address(this).balance */\n      selfbalance\n        /* \"@openzeppelin/contracts/utils/Address.sol\":5362:5392  address(this).balance >= value */\n      lt\n      iszero\n        /* \"@openzeppelin/contracts/utils/Address.sol\":5354:5435  require(address(this).balance >= value, \"Address: insufficient balance for call\") */\n      tag_315\n      jumpi\n      mload(0x40)\n      shl(0xe5, 0x461bcd)\n      dup2\n      mstore\n        /* \"#utility.yul\":17807:17809   */\n      0x20\n        /* \"@openzeppelin/contracts/utils/Address.sol\":5354:5435  require(address(this).balance >= value, \"Address: insufficient balance for call\") */\n      0x04\n      dup3\n      add\n        /* \"#utility.yul\":17789:17810   */\n      mstore\n        /* \"#utility.yul\":17846:17848   */\n      0x26\n        /* \"#utility.yul\":17826:17844   */\n      0x24\n      dup3\n      add\n        /* \"#utility.yul\":17819:17849   */\n      mstore\n        /* \"#utility.yul\":17885:17919   */\n      0x416464726573733a20696e73756666696369656e742062616c616e636520666f\n        /* \"#utility.yul\":17865:17883   */\n      0x44\n      dup3\n      add\n        /* \"#utility.yul\":17858:17920   */\n      mstore\n      shl(0xd2, 0x1c8818d85b1b)\n        /* \"#utility.yul\":17936:17954   */\n      0x64\n      dup3\n      add\n        /* \"#utility.yul\":17929:17965   */\n      mstore\n        /* \"#utility.yul\":17982:18001   */\n      0x84\n      add\n        /* \"@openzeppelin/contracts/utils/Address.sol\":5354:5435  require(address(this).balance >= value, \"Address: insufficient balance for call\") */\n      tag_68\n        /* \"#utility.yul\":17605:18007   */\n      jump\n        /* \"@openzeppelin/contracts/utils/Address.sol\":5354:5435  require(address(this).balance >= value, \"Address: insufficient balance for call\") */\n    tag_315:\n        /* \"@openzeppelin/contracts/utils/Address.sol\":5446:5458  bool success */\n      0x00\n        /* \"@openzeppelin/contracts/utils/Address.sol\":5460:5483  bytes memory returndata */\n      dup1\n        /* \"@openzeppelin/contracts/utils/Address.sol\":5487:5493  target */\n      dup7\n      sub(shl(0xa0, 0x01), 0x01)\n        /* \"@openzeppelin/contracts/utils/Address.sol\":5487:5498  target.call */\n      and\n        /* \"@openzeppelin/contracts/utils/Address.sol\":5506:5511  value */\n      dup6\n        /* \"@openzeppelin/contracts/utils/Address.sol\":5513:5517  data */\n      dup8\n        /* \"@openzeppelin/contracts/utils/Address.sol\":5487:5518  target.call{value: value}(data) */\n      mload(0x40)\n      tag_318\n      swap2\n      swap1\n      tag_193\n      jump\t// in\n    tag_318:\n      0x00\n      mload(0x40)\n      dup1\n      dup4\n      sub\n      dup2\n      dup6\n      dup8\n      gas\n      call\n      swap3\n      pop\n      pop\n      pop\n      returndatasize\n      dup1\n      0x00\n      dup2\n      eq\n      tag_321\n      jumpi\n      mload(0x40)\n      swap2\n      pop\n      and(add(returndatasize, 0x3f), not(0x1f))\n      dup3\n      add\n      0x40\n      mstore\n      returndatasize\n      dup3\n      mstore\n      returndatasize\n      0x00\n      0x20\n      dup5\n      add\n      returndatacopy\n      jump(tag_320)\n    tag_321:\n      0x60\n      swap2\n      pop\n    tag_320:\n      pop\n        /* \"@openzeppelin/contracts/utils/Address.sol\":5445:5518  (bool success, bytes memory returndata) = target.call{value: value}(data) */\n      swap2\n      pop\n      swap2\n      pop\n        /* \"@openzeppelin/contracts/utils/Address.sol\":5535:5604  verifyCallResultFromTarget(target, success, returndata, errorMessage) */\n      tag_322\n        /* \"@openzeppelin/contracts/utils/Address.sol\":5562:5568  target */\n      dup8\n        /* \"@openzeppelin/contracts/utils/Address.sol\":5570:5577  success */\n      dup4\n        /* \"@openzeppelin/contracts/utils/Address.sol\":5579:5589  returndata */\n      dup4\n        /* \"@openzeppelin/contracts/utils/Address.sol\":5591:5603  errorMessage */\n      dup8\n        /* \"@openzeppelin/contracts/utils/Address.sol\":5535:5561  verifyCallResultFromTarget */\n      tag_323\n        /* \"@openzeppelin/contracts/utils/Address.sol\":5535:5604  verifyCallResultFromTarget(target, success, returndata, errorMessage) */\n      jump\t// in\n    tag_322:\n        /* \"@openzeppelin/contracts/utils/Address.sol\":5528:5604  return verifyCallResultFromTarget(target, success, returndata, errorMessage) */\n      swap8\n        /* \"@openzeppelin/contracts/utils/Address.sol\":5165:5611  function functionCallWithValue(... */\n      swap7\n      pop\n      pop\n      pop\n      pop\n      pop\n      pop\n      pop\n      jump\t// out\n        /* \"@openzeppelin/contracts/utils/Address.sol\":7671:8299  function verifyCallResultFromTarget(... */\n    tag_323:\n        /* \"@openzeppelin/contracts/utils/Address.sol\":7851:7863  bytes memory */\n      0x60\n        /* \"@openzeppelin/contracts/utils/Address.sol\":7879:7886  success */\n      dup4\n        /* \"@openzeppelin/contracts/utils/Address.sol\":7875:8293  if (success) {... */\n      iszero\n      tag_325\n      jumpi\n        /* \"@openzeppelin/contracts/utils/Address.sol\":7906:7916  returndata */\n      dup3\n        /* \"@openzeppelin/contracts/utils/Address.sol\":7906:7923  returndata.length */\n      mload\n        /* \"@openzeppelin/contracts/utils/Address.sol\":7927:7928  0 */\n      0x00\n        /* \"@openzeppelin/contracts/utils/Address.sol\":7906:7928  returndata.length == 0 */\n      sub\n        /* \"@openzeppelin/contracts/utils/Address.sol\":7902:8188  if (returndata.length == 0) {... */\n      tag_328\n      jumpi\n      sub(shl(0xa0, 0x01), 0x01)\n        /* \"@openzeppelin/contracts/utils/Address.sol\":1702:1721  account.code.length */\n      dup6\n      and\n      extcodesize\n        /* \"@openzeppelin/contracts/utils/Address.sol\":8113:8173  require(isContract(target), \"Address: call to non-contract\") */\n      tag_328\n      jumpi\n      mload(0x40)\n      shl(0xe5, 0x461bcd)\n      dup2\n      mstore\n        /* \"#utility.yul\":18214:18216   */\n      0x20\n        /* \"@openzeppelin/contracts/utils/Address.sol\":8113:8173  require(isContract(target), \"Address: call to non-contract\") */\n      0x04\n      dup3\n      add\n        /* \"#utility.yul\":18196:18217   */\n      mstore\n        /* \"#utility.yul\":18253:18255   */\n      0x1d\n        /* \"#utility.yul\":18233:18251   */\n      0x24\n      dup3\n      add\n        /* \"#utility.yul\":18226:18256   */\n      mstore\n        /* \"#utility.yul\":18292:18323   */\n      0x416464726573733a2063616c6c20746f206e6f6e2d636f6e7472616374000000\n        /* \"#utility.yul\":18272:18290   */\n      0x44\n      dup3\n      add\n        /* \"#utility.yul\":18265:18324   */\n      mstore\n        /* \"#utility.yul\":18341:18359   */\n      0x64\n      add\n        /* \"@openzeppelin/contracts/utils/Address.sol\":8113:8173  require(isContract(target), \"Address: call to non-contract\") */\n      tag_68\n        /* \"#utility.yul\":18012:18365   */\n      jump\n        /* \"@openzeppelin/contracts/utils/Address.sol\":8113:8173  require(isContract(target), \"Address: call to non-contract\") */\n    tag_328:\n      pop\n        /* \"@openzeppelin/contracts/utils/Address.sol\":8208:8218  returndata */\n      dup2\n        /* \"@openzeppelin/contracts/utils/Address.sol\":8201:8218  return returndata */\n      jump(tag_311)\n        /* \"@openzeppelin/contracts/utils/Address.sol\":7875:8293  if (success) {... */\n    tag_325:\n        /* \"@openzeppelin/contracts/utils/Address.sol\":8249:8282  _revert(returndata, errorMessage) */\n      tag_311\n        /* \"@openzeppelin/contracts/utils/Address.sol\":8257:8267  returndata */\n      dup4\n        /* \"@openzeppelin/contracts/utils/Address.sol\":8269:8281  errorMessage */\n      dup4\n        /* \"@openzeppelin/contracts/utils/Address.sol\":8980:8997  returndata.length */\n      dup2\n      mload\n        /* \"@openzeppelin/contracts/utils/Address.sol\":8980:9001  returndata.length > 0 */\n      iszero\n        /* \"@openzeppelin/contracts/utils/Address.sol\":8976:9355  if (returndata.length > 0) {... */\n      tag_335\n      jumpi\n        /* \"@openzeppelin/contracts/utils/Address.sol\":9208:9218  returndata */\n      dup2\n        /* \"@openzeppelin/contracts/utils/Address.sol\":9202:9219  mload(returndata) */\n      mload\n        /* \"@openzeppelin/contracts/utils/Address.sol\":9264:9279  returndata_size */\n      dup1\n        /* \"@openzeppelin/contracts/utils/Address.sol\":9251:9261  returndata */\n      dup4\n        /* \"@openzeppelin/contracts/utils/Address.sol\":9247:9249  32 */\n      0x20\n        /* \"@openzeppelin/contracts/utils/Address.sol\":9243:9262  add(32, returndata) */\n      add\n        /* \"@openzeppelin/contracts/utils/Address.sol\":9236:9280  revert(add(32, returndata), returndata_size) */\n      revert\n        /* \"@openzeppelin/contracts/utils/Address.sol\":8976:9355  if (returndata.length > 0) {... */\n    tag_335:\n        /* \"@openzeppelin/contracts/utils/Address.sol\":9331:9343  errorMessage */\n      dup1\n        /* \"@openzeppelin/contracts/utils/Address.sol\":9324:9344  revert(errorMessage) */\n      mload(0x40)\n      shl(0xe5, 0x461bcd)\n      dup2\n      mstore\n      0x04\n      add\n      tag_68\n      swap2\n      swap1\n      tag_338\n      jump\t// in\n        /* \"#utility.yul\":414:587   */\n    tag_339:\n        /* \"#utility.yul\":482:502   */\n      dup1\n      calldataload\n      sub(shl(0xa0, 0x01), 0x01)\n        /* \"#utility.yul\":531:562   */\n      dup2\n      and\n        /* \"#utility.yul\":521:563   */\n      dup2\n      eq\n        /* \"#utility.yul\":511:581   */\n      tag_352\n      jumpi\n        /* \"#utility.yul\":577:578   */\n      0x00\n        /* \"#utility.yul\":574:575   */\n      dup1\n        /* \"#utility.yul\":567:579   */\n      revert\n        /* \"#utility.yul\":511:581   */\n    tag_352:\n        /* \"#utility.yul\":414:587   */\n      swap2\n      swap1\n      pop\n      jump\t// out\n        /* \"#utility.yul\":592:778   */\n    tag_40:\n        /* \"#utility.yul\":651:657   */\n      0x00\n        /* \"#utility.yul\":704:706   */\n      0x20\n        /* \"#utility.yul\":692:701   */\n      dup3\n        /* \"#utility.yul\":683:690   */\n      dup5\n        /* \"#utility.yul\":679:702   */\n      sub\n        /* \"#utility.yul\":675:707   */\n      slt\n        /* \"#utility.yul\":672:724   */\n      iszero\n      tag_354\n      jumpi\n        /* \"#utility.yul\":720:721   */\n      0x00\n        /* \"#utility.yul\":717:718   */\n      dup1\n        /* \"#utility.yul\":710:722   */\n      revert\n        /* \"#utility.yul\":672:724   */\n    tag_354:\n        /* \"#utility.yul\":743:772   */\n      tag_355\n        /* \"#utility.yul\":762:771   */\n      dup3\n        /* \"#utility.yul\":743:772   */\n      tag_339\n      jump\t// in\n    tag_355:\n        /* \"#utility.yul\":733:772   */\n      swap4\n        /* \"#utility.yul\":592:778   */\n      swap3\n      pop\n      pop\n      pop\n      jump\t// out\n        /* \"#utility.yul\":783:1685   */\n    tag_44:\n        /* \"#utility.yul\":927:933   */\n      0x00\n        /* \"#utility.yul\":935:941   */\n      dup1\n        /* \"#utility.yul\":943:949   */\n      0x00\n        /* \"#utility.yul\":996:998   */\n      0x40\n        /* \"#utility.yul\":984:993   */\n      dup5\n        /* \"#utility.yul\":975:982   */\n      dup7\n        /* \"#utility.yul\":971:994   */\n      sub\n        /* \"#utility.yul\":967:999   */\n      slt\n        /* \"#utility.yul\":964:1016   */\n      iszero\n      tag_357\n      jumpi\n        /* \"#utility.yul\":1012:1013   */\n      0x00\n        /* \"#utility.yul\":1009:1010   */\n      dup1\n        /* \"#utility.yul\":1002:1014   */\n      revert\n        /* \"#utility.yul\":964:1016   */\n    tag_357:\n        /* \"#utility.yul\":1052:1061   */\n      dup4\n        /* \"#utility.yul\":1039:1062   */\n      calldataload\n        /* \"#utility.yul\":1081:1099   */\n      0xffffffffffffffff\n        /* \"#utility.yul\":1122:1124   */\n      dup1\n        /* \"#utility.yul\":1114:1120   */\n      dup3\n        /* \"#utility.yul\":1111:1125   */\n      gt\n        /* \"#utility.yul\":1108:1142   */\n      iszero\n      tag_358\n      jumpi\n        /* \"#utility.yul\":1138:1139   */\n      0x00\n        /* \"#utility.yul\":1135:1136   */\n      dup1\n        /* \"#utility.yul\":1128:1140   */\n      revert\n        /* \"#utility.yul\":1108:1142   */\n    tag_358:\n        /* \"#utility.yul\":1161:1183   */\n      swap1\n      dup6\n      add\n      swap1\n        /* \"#utility.yul\":1217:1220   */\n      0xa0\n        /* \"#utility.yul\":1199:1215   */\n      dup3\n      dup9\n      sub\n        /* \"#utility.yul\":1195:1221   */\n      slt\n        /* \"#utility.yul\":1192:1238   */\n      iszero\n      tag_359\n      jumpi\n        /* \"#utility.yul\":1234:1235   */\n      0x00\n        /* \"#utility.yul\":1231:1232   */\n      dup1\n        /* \"#utility.yul\":1224:1236   */\n      revert\n        /* \"#utility.yul\":1192:1238   */\n    tag_359:\n        /* \"#utility.yul\":1257:1259   */\n      swap1\n      swap4\n      pop\n        /* \"#utility.yul\":1312:1314   */\n      0x20\n        /* \"#utility.yul\":1297:1315   */\n      dup6\n      add\n        /* \"#utility.yul\":1284:1316   */\n      calldataload\n      swap1\n        /* \"#utility.yul\":1328:1344   */\n      dup1\n      dup3\n      gt\n        /* \"#utility.yul\":1325:1361   */\n      iszero\n      tag_360\n      jumpi\n        /* \"#utility.yul\":1357:1358   */\n      0x00\n        /* \"#utility.yul\":1354:1355   */\n      dup1\n        /* \"#utility.yul\":1347:1359   */\n      revert\n        /* \"#utility.yul\":1325:1361   */\n    tag_360:\n        /* \"#utility.yul\":1395:1403   */\n      dup2\n        /* \"#utility.yul\":1384:1393   */\n      dup7\n        /* \"#utility.yul\":1380:1404   */\n      add\n        /* \"#utility.yul\":1370:1404   */\n      swap2\n      pop\n        /* \"#utility.yul\":1442:1449   */\n      dup7\n        /* \"#utility.yul\":1435:1439   */\n      0x1f\n        /* \"#utility.yul\":1431:1433   */\n      dup4\n        /* \"#utility.yul\":1427:1440   */\n      add\n        /* \"#utility.yul\":1423:1450   */\n      slt\n        /* \"#utility.yul\":1413:1468   */\n      tag_361\n      jumpi\n        /* \"#utility.yul\":1464:1465   */\n      0x00\n        /* \"#utility.yul\":1461:1462   */\n      dup1\n        /* \"#utility.yul\":1454:1466   */\n      revert\n        /* \"#utility.yul\":1413:1468   */\n    tag_361:\n        /* \"#utility.yul\":1504:1506   */\n      dup2\n        /* \"#utility.yul\":1491:1507   */\n      calldataload\n        /* \"#utility.yul\":1530:1532   */\n      dup2\n        /* \"#utility.yul\":1522:1528   */\n      dup2\n        /* \"#utility.yul\":1519:1533   */\n      gt\n        /* \"#utility.yul\":1516:1550   */\n      iszero\n      tag_362\n      jumpi\n        /* \"#utility.yul\":1546:1547   */\n      0x00\n        /* \"#utility.yul\":1543:1544   */\n      dup1\n        /* \"#utility.yul\":1536:1548   */\n      revert\n        /* \"#utility.yul\":1516:1550   */\n    tag_362:\n        /* \"#utility.yul\":1599:1606   */\n      dup8\n        /* \"#utility.yul\":1594:1596   */\n      0x20\n        /* \"#utility.yul\":1584:1590   */\n      dup3\n        /* \"#utility.yul\":1581:1582   */\n      0x05\n        /* \"#utility.yul\":1577:1591   */\n      shl\n        /* \"#utility.yul\":1573:1575   */\n      dup6\n        /* \"#utility.yul\":1569:1592   */\n      add\n        /* \"#utility.yul\":1565:1597   */\n      add\n        /* \"#utility.yul\":1562:1607   */\n      gt\n        /* \"#utility.yul\":1559:1624   */\n      iszero\n      tag_363\n      jumpi\n        /* \"#utility.yul\":1620:1621   */\n      0x00\n        /* \"#utility.yul\":1617:1618   */\n      dup1\n        /* \"#utility.yul\":1610:1622   */\n      revert\n        /* \"#utility.yul\":1559:1624   */\n    tag_363:\n        /* \"#utility.yul\":1651:1653   */\n      0x20\n        /* \"#utility.yul\":1647:1649   */\n      dup4\n        /* \"#utility.yul\":1643:1654   */\n      add\n        /* \"#utility.yul\":1633:1654   */\n      swap5\n      pop\n        /* \"#utility.yul\":1673:1679   */\n      dup1\n        /* \"#utility.yul\":1663:1679   */\n      swap4\n      pop\n      pop\n      pop\n      pop\n        /* \"#utility.yul\":783:1685   */\n      swap3\n      pop\n      swap3\n      pop\n      swap3\n      jump\t// out\n        /* \"#utility.yul\":2406:2976   */\n    tag_85:\n        /* \"#utility.yul\":2524:2528   */\n      0x00\n        /* \"#utility.yul\":2530:2536   */\n      dup1\n        /* \"#utility.yul\":2590:2601   */\n      dup4\n        /* \"#utility.yul\":2577:2602   */\n      calldataload\n        /* \"#utility.yul\":2684:2686   */\n      0x1e\n        /* \"#utility.yul\":2680:2687   */\n      not\n        /* \"#utility.yul\":2669:2677   */\n      dup5\n        /* \"#utility.yul\":2653:2667   */\n      calldatasize\n        /* \"#utility.yul\":2649:2678   */\n      sub\n        /* \"#utility.yul\":2645:2688   */\n      add\n        /* \"#utility.yul\":2625:2643   */\n      dup2\n        /* \"#utility.yul\":2621:2689   */\n      slt\n        /* \"#utility.yul\":2611:2707   */\n      tag_367\n      jumpi\n        /* \"#utility.yul\":2703:2704   */\n      0x00\n        /* \"#utility.yul\":2700:2701   */\n      dup1\n        /* \"#utility.yul\":2693:2705   */\n      revert\n        /* \"#utility.yul\":2611:2707   */\n    tag_367:\n        /* \"#utility.yul\":2730:2763   */\n      dup4\n      add\n        /* \"#utility.yul\":2782:2802   */\n      dup1\n      calldataload\n      swap2\n      pop\n        /* \"#utility.yul\":2825:2843   */\n      0xffffffffffffffff\n        /* \"#utility.yul\":2814:2844   */\n      dup3\n      gt\n        /* \"#utility.yul\":2811:2861   */\n      iszero\n      tag_368\n      jumpi\n        /* \"#utility.yul\":2857:2858   */\n      0x00\n        /* \"#utility.yul\":2854:2855   */\n      dup1\n        /* \"#utility.yul\":2847:2859   */\n      revert\n        /* \"#utility.yul\":2811:2861   */\n    tag_368:\n        /* \"#utility.yul\":2890:2894   */\n      0x20\n        /* \"#utility.yul\":2878:2895   */\n      add\n      swap2\n      pop\n        /* \"#utility.yul\":2941:2942   */\n      0x06\n        /* \"#utility.yul\":2937:2951   */\n      dup2\n      swap1\n      shl\n        /* \"#utility.yul\":2921:2935   */\n      calldatasize\n        /* \"#utility.yul\":2917:2952   */\n      sub\n        /* \"#utility.yul\":2907:2953   */\n      dup3\n      sgt\n        /* \"#utility.yul\":2904:2970   */\n      iszero\n      tag_369\n      jumpi\n        /* \"#utility.yul\":2966:2967   */\n      0x00\n        /* \"#utility.yul\":2963:2964   */\n      dup1\n        /* \"#utility.yul\":2956:2968   */\n      revert\n        /* \"#utility.yul\":2904:2970   */\n    tag_369:\n        /* \"#utility.yul\":2406:2976   */\n      swap3\n      pop\n      swap3\n      swap1\n      pop\n      jump\t// out\n        /* \"#utility.yul\":2981:3851   */\n    tag_87:\n      sub(shl(0xa0, 0x01), 0x01)\n        /* \"#utility.yul\":3346:3361   */\n      dup5\n      dup2\n      and\n        /* \"#utility.yul\":3328:3362   */\n      dup3\n      mstore\n        /* \"#utility.yul\":3238:3240   */\n      0x40\n        /* \"#utility.yul\":3381:3383   */\n      0x20\n        /* \"#utility.yul\":3399:3417   */\n      dup1\n      dup5\n      add\n        /* \"#utility.yul\":3392:3422   */\n      dup3\n      swap1\n      mstore\n        /* \"#utility.yul\":3263:3281   */\n      dup4\n      dup3\n      add\n        /* \"#utility.yul\":3457:3479   */\n      dup6\n      swap1\n      mstore\n        /* \"#utility.yul\":3209:3213   */\n      0x00\n      swap3\n        /* \"#utility.yul\":3536:3542   */\n      dup7\n      swap2\n        /* \"#utility.yul\":3510:3512   */\n      0x60\n        /* \"#utility.yul\":3495:3513   */\n      dup7\n      add\n        /* \"#utility.yul\":3209:3213   */\n      dup6\n        /* \"#utility.yul\":3570:3825   */\n    tag_371:\n        /* \"#utility.yul\":3584:3590   */\n      dup9\n        /* \"#utility.yul\":3581:3582   */\n      dup2\n        /* \"#utility.yul\":3578:3591   */\n      lt\n        /* \"#utility.yul\":3570:3825   */\n      iszero\n      tag_373\n      jumpi\n        /* \"#utility.yul\":3677:3679   */\n      dup4\n        /* \"#utility.yul\":3649:3675   */\n      tag_374\n        /* \"#utility.yul\":3668:3674   */\n      dup7\n        /* \"#utility.yul\":3649:3675   */\n      tag_339\n      jump\t// in\n    tag_374:\n        /* \"#utility.yul\":3645:3680   */\n      and\n        /* \"#utility.yul\":3633:3681   */\n      dup3\n      mstore\n        /* \"#utility.yul\":3728:3743   */\n      dup5\n      dup4\n      add\n        /* \"#utility.yul\":3715:3744   */\n      calldataload\n        /* \"#utility.yul\":3701:3713   */\n      dup4\n      dup4\n      add\n        /* \"#utility.yul\":3694:3745   */\n      mstore\n        /* \"#utility.yul\":3800:3815   */\n      swap4\n      dup6\n      add\n      swap4\n        /* \"#utility.yul\":3765:3777   */\n      swap1\n      dup6\n      add\n      swap1\n        /* \"#utility.yul\":3606:3607   */\n      0x01\n        /* \"#utility.yul\":3599:3608   */\n      add\n        /* \"#utility.yul\":3570:3825   */\n      jump(tag_371)\n    tag_373:\n      pop\n        /* \"#utility.yul\":3842:3845   */\n      swap10\n        /* \"#utility.yul\":2981:3851   */\n      swap9\n      pop\n      pop\n      pop\n      pop\n      pop\n      pop\n      pop\n      pop\n      pop\n      jump\t// out\n        /* \"#utility.yul\":5498:5820   */\n    tag_131:\n        /* \"#utility.yul\":5589:5593   */\n      0x00\n        /* \"#utility.yul\":5647:5658   */\n      dup3\n        /* \"#utility.yul\":5634:5659   */\n      calldataload\n        /* \"#utility.yul\":5741:5743   */\n      0x5e\n        /* \"#utility.yul\":5737:5744   */\n      not\n        /* \"#utility.yul\":5726:5734   */\n      dup4\n        /* \"#utility.yul\":5710:5724   */\n      calldatasize\n        /* \"#utility.yul\":5706:5735   */\n      sub\n        /* \"#utility.yul\":5702:5745   */\n      add\n        /* \"#utility.yul\":5682:5700   */\n      dup2\n        /* \"#utility.yul\":5678:5746   */\n      slt\n        /* \"#utility.yul\":5668:5764   */\n      tag_383\n      jumpi\n        /* \"#utility.yul\":5760:5761   */\n      0x00\n        /* \"#utility.yul\":5757:5758   */\n      dup1\n        /* \"#utility.yul\":5750:5762   */\n      revert\n        /* \"#utility.yul\":5668:5764   */\n    tag_383:\n        /* \"#utility.yul\":5781:5814   */\n      swap2\n      swap1\n      swap2\n      add\n      swap3\n        /* \"#utility.yul\":5498:5820   */\n      swap2\n      pop\n      pop\n      jump\t// out\n        /* \"#utility.yul\":5825:6359   */\n    tag_340:\n        /* \"#utility.yul\":5909:5914   */\n      0x00\n        /* \"#utility.yul\":5916:5922   */\n      dup1\n        /* \"#utility.yul\":5976:5979   */\n      dup4\n        /* \"#utility.yul\":5963:5980   */\n      calldataload\n        /* \"#utility.yul\":6062:6064   */\n      0x1e\n        /* \"#utility.yul\":6058:6065   */\n      not\n        /* \"#utility.yul\":6047:6055   */\n      dup5\n        /* \"#utility.yul\":6031:6045   */\n      calldatasize\n        /* \"#utility.yul\":6027:6056   */\n      sub\n        /* \"#utility.yul\":6023:6066   */\n      add\n        /* \"#utility.yul\":6003:6021   */\n      dup2\n        /* \"#utility.yul\":5999:6067   */\n      slt\n        /* \"#utility.yul\":5989:6085   */\n      tag_385\n      jumpi\n        /* \"#utility.yul\":6081:6082   */\n      0x00\n        /* \"#utility.yul\":6078:6079   */\n      dup1\n        /* \"#utility.yul\":6071:6083   */\n      revert\n        /* \"#utility.yul\":5989:6085   */\n    tag_385:\n        /* \"#utility.yul\":6109:6142   */\n      dup4\n      add\n        /* \"#utility.yul\":6213:6217   */\n      0x20\n        /* \"#utility.yul\":6200:6218   */\n      dup2\n      add\n      swap3\n      pop\n        /* \"#utility.yul\":6161:6182   */\n      calldataload\n      swap1\n      pop\n        /* \"#utility.yul\":6241:6259   */\n      0xffffffffffffffff\n        /* \"#utility.yul\":6230:6260   */\n      dup2\n      gt\n        /* \"#utility.yul\":6227:6277   */\n      iszero\n      tag_386\n      jumpi\n        /* \"#utility.yul\":6273:6274   */\n      0x00\n        /* \"#utility.yul\":6270:6271   */\n      dup1\n        /* \"#utility.yul\":6263:6275   */\n      revert\n        /* \"#utility.yul\":6227:6277   */\n    tag_386:\n        /* \"#utility.yul\":6327:6333   */\n      dup1\n        /* \"#utility.yul\":6324:6325   */\n      0x06\n        /* \"#utility.yul\":6320:6334   */\n      shl\n        /* \"#utility.yul\":6304:6318   */\n      calldatasize\n        /* \"#utility.yul\":6300:6335   */\n      sub\n        /* \"#utility.yul\":6293:6298   */\n      dup3\n        /* \"#utility.yul\":6289:6336   */\n      sgt\n        /* \"#utility.yul\":6286:6353   */\n      iszero\n      tag_369\n      jumpi\n        /* \"#utility.yul\":6349:6350   */\n      0x00\n        /* \"#utility.yul\":6346:6347   */\n      dup1\n        /* \"#utility.yul\":6339:6351   */\n      revert\n        /* \"#utility.yul\":6536:6737   */\n    tag_342:\n      sub(shl(0xa0, 0x01), 0x01)\n        /* \"#utility.yul\":6620:6645   */\n      tag_390\n        /* \"#utility.yul\":6639:6644   */\n      dup3\n        /* \"#utility.yul\":6620:6645   */\n      tag_339\n      jump\t// in\n    tag_390:\n        /* \"#utility.yul\":6616:6667   */\n      and\n        /* \"#utility.yul\":6604:6668   */\n      dup3\n      mstore\n        /* \"#utility.yul\":6724:6728   */\n      0x20\n        /* \"#utility.yul\":6713:6729   */\n      swap1\n      dup2\n      add\n        /* \"#utility.yul\":6700:6730   */\n      calldataload\n        /* \"#utility.yul\":6684:6698   */\n      swap2\n      add\n        /* \"#utility.yul\":6677:6731   */\n      mstore\n        /* \"#utility.yul\":6536:6737   */\n      jump\t// out\n        /* \"#utility.yul\":6742:7032   */\n    tag_343:\n        /* \"#utility.yul\":6807:6812   */\n      0x00\n        /* \"#utility.yul\":6866:6869   */\n      dup3\n        /* \"#utility.yul\":6853:6870   */\n      calldataload\n        /* \"#utility.yul\":6952:6954   */\n      0x5e\n        /* \"#utility.yul\":6948:6955   */\n      not\n        /* \"#utility.yul\":6937:6945   */\n      dup4\n        /* \"#utility.yul\":6921:6935   */\n      calldatasize\n        /* \"#utility.yul\":6917:6946   */\n      sub\n        /* \"#utility.yul\":6913:6956   */\n      add\n        /* \"#utility.yul\":6893:6911   */\n      dup2\n        /* \"#utility.yul\":6889:6957   */\n      slt\n        /* \"#utility.yul\":6879:6975   */\n      tag_392\n      jumpi\n        /* \"#utility.yul\":6971:6972   */\n      0x00\n        /* \"#utility.yul\":6968:6969   */\n      dup1\n        /* \"#utility.yul\":6961:6973   */\n      revert\n        /* \"#utility.yul\":6879:6975   */\n    tag_392:\n        /* \"#utility.yul\":6993:7026   */\n      swap1\n      swap2\n      add\n      swap3\n        /* \"#utility.yul\":6742:7032   */\n      swap2\n      pop\n      pop\n      jump\t// out\n        /* \"#utility.yul\":7037:7840   */\n    tag_344:\n      sub(shl(0xa0, 0x01), 0x01)\n        /* \"#utility.yul\":7128:7153   */\n      tag_394\n        /* \"#utility.yul\":7147:7152   */\n      dup3\n        /* \"#utility.yul\":7128:7153   */\n      tag_339\n      jump\t// in\n    tag_394:\n        /* \"#utility.yul\":7124:7175   */\n      and\n        /* \"#utility.yul\":7119:7122   */\n      dup3\n        /* \"#utility.yul\":7112:7176   */\n      mstore\n        /* \"#utility.yul\":7232:7236   */\n      0x20\n        /* \"#utility.yul\":7225:7230   */\n      dup2\n        /* \"#utility.yul\":7221:7237   */\n      add\n        /* \"#utility.yul\":7208:7238   */\n      calldataload\n        /* \"#utility.yul\":7201:7205   */\n      0x20\n        /* \"#utility.yul\":7196:7199   */\n      dup4\n        /* \"#utility.yul\":7192:7206   */\n      add\n        /* \"#utility.yul\":7185:7239   */\n      mstore\n        /* \"#utility.yul\":7094:7097   */\n      0x00\n        /* \"#utility.yul\":7298:7300   */\n      0x40\n        /* \"#utility.yul\":7291:7296   */\n      dup3\n        /* \"#utility.yul\":7287:7301   */\n      add\n        /* \"#utility.yul\":7274:7302   */\n      calldataload\n        /* \"#utility.yul\":7381:7383   */\n      0x1e\n        /* \"#utility.yul\":7377:7384   */\n      not\n        /* \"#utility.yul\":7369:7374   */\n      dup4\n        /* \"#utility.yul\":7353:7367   */\n      calldatasize\n        /* \"#utility.yul\":7349:7375   */\n      sub\n        /* \"#utility.yul\":7345:7385   */\n      add\n        /* \"#utility.yul\":7325:7343   */\n      dup2\n        /* \"#utility.yul\":7321:7386   */\n      slt\n        /* \"#utility.yul\":7311:7404   */\n      tag_395\n      jumpi\n        /* \"#utility.yul\":7400:7401   */\n      0x00\n        /* \"#utility.yul\":7397:7398   */\n      dup1\n        /* \"#utility.yul\":7390:7402   */\n      revert\n        /* \"#utility.yul\":7311:7404   */\n    tag_395:\n        /* \"#utility.yul\":7428:7458   */\n      dup3\n      add\n        /* \"#utility.yul\":7539:7543   */\n      0x20\n        /* \"#utility.yul\":7526:7544   */\n      dup2\n      add\n      swap1\n        /* \"#utility.yul\":7481:7502   */\n      calldataload\n        /* \"#utility.yul\":7567:7585   */\n      0xffffffffffffffff\n        /* \"#utility.yul\":7556:7586   */\n      dup2\n      gt\n        /* \"#utility.yul\":7553:7603   */\n      iszero\n      tag_396\n      jumpi\n        /* \"#utility.yul\":7599:7600   */\n      0x00\n        /* \"#utility.yul\":7596:7597   */\n      dup1\n        /* \"#utility.yul\":7589:7601   */\n      revert\n        /* \"#utility.yul\":7553:7603   */\n    tag_396:\n        /* \"#utility.yul\":7648:7654   */\n      dup1\n        /* \"#utility.yul\":7632:7646   */\n      calldatasize\n        /* \"#utility.yul\":7628:7655   */\n      sub\n        /* \"#utility.yul\":7619:7626   */\n      dup3\n        /* \"#utility.yul\":7615:7656   */\n      sgt\n        /* \"#utility.yul\":7612:7673   */\n      iszero\n      tag_397\n      jumpi\n        /* \"#utility.yul\":7669:7670   */\n      0x00\n        /* \"#utility.yul\":7666:7667   */\n      dup1\n        /* \"#utility.yul\":7659:7671   */\n      revert\n        /* \"#utility.yul\":7612:7673   */\n    tag_397:\n        /* \"#utility.yul\":7718:7724   */\n      dup1\n        /* \"#utility.yul\":7709:7716   */\n      dup3\n        /* \"#utility.yul\":7704:7706   */\n      0x40\n        /* \"#utility.yul\":7699:7702   */\n      dup8\n        /* \"#utility.yul\":7695:7707   */\n      add\n        /* \"#utility.yul\":7682:7725   */\n      calldatacopy\n        /* \"#utility.yul\":7768:7769   */\n      0x00\n        /* \"#utility.yul\":7763:7765   */\n      0x40\n        /* \"#utility.yul\":7754:7760   */\n      dup3\n        /* \"#utility.yul\":7749:7752   */\n      dup8\n        /* \"#utility.yul\":7745:7761   */\n      add\n        /* \"#utility.yul\":7741:7766   */\n      add\n        /* \"#utility.yul\":7734:7770   */\n      mstore\n        /* \"#utility.yul\":7831:7833   */\n      0x40\n        /* \"#utility.yul\":7824:7826   */\n      0x1f\n        /* \"#utility.yul\":7820:7827   */\n      not\n        /* \"#utility.yul\":7815:7817   */\n      0x1f\n        /* \"#utility.yul\":7807:7813   */\n      dup4\n        /* \"#utility.yul\":7803:7818   */\n      add\n        /* \"#utility.yul\":7799:7828   */\n      and\n        /* \"#utility.yul\":7794:7797   */\n      dup7\n        /* \"#utility.yul\":7790:7829   */\n      add\n        /* \"#utility.yul\":7786:7834   */\n      add\n        /* \"#utility.yul\":7779:7834   */\n      swap3\n      pop\n      pop\n      pop\n        /* \"#utility.yul\":7037:7840   */\n      swap3\n      swap2\n      pop\n      pop\n      jump\t// out\n        /* \"#utility.yul\":7845:9219   */\n    tag_138:\n        /* \"#utility.yul\":8004:8007   */\n      0x00\n        /* \"#utility.yul\":8056:8128   */\n      tag_399\n        /* \"#utility.yul\":8121:8127   */\n      dup4\n        /* \"#utility.yul\":8113:8119   */\n      dup5\n        /* \"#utility.yul\":8056:8128   */\n      tag_340\n      jump\t// in\n    tag_399:\n        /* \"#utility.yul\":8150:8153   */\n      dup4\n        /* \"#utility.yul\":8227:8228   */\n      0x00\n        /* \"#utility.yul\":8237:8464   */\n    tag_400:\n        /* \"#utility.yul\":8251:8263   */\n      dup3\n        /* \"#utility.yul\":8248:8249   */\n      dup2\n        /* \"#utility.yul\":8245:8264   */\n      lt\n        /* \"#utility.yul\":8237:8464   */\n      iszero\n      tag_402\n      jumpi\n        /* \"#utility.yul\":8306:8353   */\n      tag_403\n        /* \"#utility.yul\":8347:8352   */\n      dup3\n        /* \"#utility.yul\":8339:8345   */\n      dup6\n        /* \"#utility.yul\":8306:8353   */\n      tag_342\n      jump\t// in\n    tag_403:\n        /* \"#utility.yul\":8376:8380   */\n      0x40\n        /* \"#utility.yul\":8439:8454   */\n      swap4\n      dup5\n      add\n      swap4\n        /* \"#utility.yul\":8402:8416   */\n      swap2\n      swap1\n      swap2\n      add\n      swap1\n        /* \"#utility.yul\":8279:8280   */\n      0x01\n        /* \"#utility.yul\":8272:8281   */\n      add\n        /* \"#utility.yul\":8237:8464   */\n      jump(tag_400)\n    tag_402:\n        /* \"#utility.yul\":8241:8244   */\n      pop\n        /* \"#utility.yul\":8511:8594   */\n      tag_404\n        /* \"#utility.yul\":8588:8592   */\n      0x20\n        /* \"#utility.yul\":8580:8586   */\n      dup8\n        /* \"#utility.yul\":8576:8593   */\n      add\n        /* \"#utility.yul\":8568:8574   */\n      dup8\n        /* \"#utility.yul\":8511:8594   */\n      tag_340\n      jump\t// in\n    tag_404:\n        /* \"#utility.yul\":8473:8594   */\n      swap4\n      pop\n      swap2\n      pop\n        /* \"#utility.yul\":8703:8704   */\n      0x00\n      swap1\n        /* \"#utility.yul\":8713:8954   */\n    tag_405:\n        /* \"#utility.yul\":8729:8743   */\n      dup4\n        /* \"#utility.yul\":8724:8727   */\n      dup3\n        /* \"#utility.yul\":8721:8744   */\n      lt\n        /* \"#utility.yul\":8713:8954   */\n      iszero\n      tag_407\n      jumpi\n        /* \"#utility.yul\":8790:8839   */\n      tag_408\n        /* \"#utility.yul\":8833:8838   */\n      dup2\n        /* \"#utility.yul\":8823:8831   */\n      dup5\n        /* \"#utility.yul\":8790:8839   */\n      tag_342\n      jump\t// in\n    tag_408:\n        /* \"#utility.yul\":8862:8866   */\n      0x40\n        /* \"#utility.yul\":8927:8944   */\n      swap3\n      dup4\n      add\n      swap3\n        /* \"#utility.yul\":8763:8764   */\n      0x01\n        /* \"#utility.yul\":8754:8765   */\n      swap3\n      swap1\n      swap3\n      add\n      swap2\n        /* \"#utility.yul\":8888:8902   */\n      add\n        /* \"#utility.yul\":8713:8954   */\n      jump(tag_405)\n    tag_407:\n        /* \"#utility.yul\":8970:9213   */\n      tag_322\n        /* \"#utility.yul\":9038:9212   */\n      tag_410\n        /* \"#utility.yul\":9106:9211   */\n      tag_411\n        /* \"#utility.yul\":9205:9210   */\n      dup4\n        /* \"#utility.yul\":9139:9203   */\n      tag_412\n        /* \"#utility.yul\":9197:9201   */\n      0x40\n        /* \"#utility.yul\":9189:9195   */\n      dup13\n        /* \"#utility.yul\":9185:9202   */\n      add\n        /* \"#utility.yul\":9177:9183   */\n      dup13\n        /* \"#utility.yul\":9139:9203   */\n      tag_343\n      jump\t// in\n    tag_412:\n        /* \"#utility.yul\":9106:9211   */\n      tag_344\n      jump\t// in\n    tag_411:\n        /* \"#utility.yul\":9067:9104   */\n      tag_413\n        /* \"#utility.yul\":9098:9102   */\n      0x60\n        /* \"#utility.yul\":9090:9096   */\n      dup12\n        /* \"#utility.yul\":9086:9103   */\n      add\n        /* \"#utility.yul\":9067:9104   */\n      tag_339\n      jump\t// in\n    tag_413:\n      sub(shl(0xa0, 0x01), 0x01)\n        /* \"#utility.yul\":6455:6487   */\n      and\n        /* \"#utility.yul\":6443:6488   */\n      dup2\n      mstore\n        /* \"#utility.yul\":6520:6524   */\n      0x20\n        /* \"#utility.yul\":6511:6525   */\n      add\n      swap1\n        /* \"#utility.yul\":6364:6531   */\n      jump\n        /* \"#utility.yul\":9038:9212   */\n    tag_410:\n        /* \"#utility.yul\":8999:9036   */\n      tag_413\n        /* \"#utility.yul\":9030:9034   */\n      0x80\n        /* \"#utility.yul\":9022:9028   */\n      dup11\n        /* \"#utility.yul\":9018:9035   */\n      add\n        /* \"#utility.yul\":8999:9036   */\n      tag_339\n      jump\t// in\n        /* \"#utility.yul\":9573:9700   */\n    tag_152:\n        /* \"#utility.yul\":9634:9644   */\n      0x4e487b71\n        /* \"#utility.yul\":9629:9632   */\n      0xe0\n        /* \"#utility.yul\":9625:9645   */\n      shl\n        /* \"#utility.yul\":9622:9623   */\n      0x00\n        /* \"#utility.yul\":9615:9646   */\n      mstore\n        /* \"#utility.yul\":9665:9669   */\n      0x32\n        /* \"#utility.yul\":9662:9663   */\n      0x04\n        /* \"#utility.yul\":9655:9670   */\n      mstore\n        /* \"#utility.yul\":9689:9693   */\n      0x24\n        /* \"#utility.yul\":9686:9687   */\n      0x00\n        /* \"#utility.yul\":9679:9694   */\n      revert\n        /* \"#utility.yul\":9705:10027   */\n    tag_154:\n        /* \"#utility.yul\":9795:9799   */\n      0x00\n        /* \"#utility.yul\":9853:9864   */\n      dup3\n        /* \"#utility.yul\":9840:9865   */\n      calldataload\n        /* \"#utility.yul\":9947:9950   */\n      0x7e\n        /* \"#utility.yul\":9943:9951   */\n      not\n        /* \"#utility.yul\":9932:9940   */\n      dup4\n        /* \"#utility.yul\":9916:9930   */\n      calldatasize\n        /* \"#utility.yul\":9912:9941   */\n      sub\n        /* \"#utility.yul\":9908:9952   */\n      add\n        /* \"#utility.yul\":9888:9906   */\n      dup2\n        /* \"#utility.yul\":9884:9953   */\n      slt\n        /* \"#utility.yul\":9874:9971   */\n      tag_383\n      jumpi\n        /* \"#utility.yul\":9967:9968   */\n      0x00\n        /* \"#utility.yul\":9964:9965   */\n      dup1\n        /* \"#utility.yul\":9957:9969   */\n      revert\n        /* \"#utility.yul\":10032:10553   */\n    tag_157:\n        /* \"#utility.yul\":10109:10113   */\n      0x00\n        /* \"#utility.yul\":10115:10121   */\n      dup1\n        /* \"#utility.yul\":10175:10186   */\n      dup4\n        /* \"#utility.yul\":10162:10187   */\n      calldataload\n        /* \"#utility.yul\":10269:10271   */\n      0x1e\n        /* \"#utility.yul\":10265:10272   */\n      not\n        /* \"#utility.yul\":10254:10262   */\n      dup5\n        /* \"#utility.yul\":10238:10252   */\n      calldatasize\n        /* \"#utility.yul\":10234:10263   */\n      sub\n        /* \"#utility.yul\":10230:10273   */\n      add\n        /* \"#utility.yul\":10210:10228   */\n      dup2\n        /* \"#utility.yul\":10206:10274   */\n      slt\n        /* \"#utility.yul\":10196:10292   */\n      tag_420\n      jumpi\n        /* \"#utility.yul\":10288:10289   */\n      0x00\n        /* \"#utility.yul\":10285:10286   */\n      dup1\n        /* \"#utility.yul\":10278:10290   */\n      revert\n        /* \"#utility.yul\":10196:10292   */\n    tag_420:\n        /* \"#utility.yul\":10315:10348   */\n      dup4\n      add\n        /* \"#utility.yul\":10367:10387   */\n      dup1\n      calldataload\n      swap2\n      pop\n        /* \"#utility.yul\":10410:10428   */\n      0xffffffffffffffff\n        /* \"#utility.yul\":10399:10429   */\n      dup3\n      gt\n        /* \"#utility.yul\":10396:10446   */\n      iszero\n      tag_421\n      jumpi\n        /* \"#utility.yul\":10442:10443   */\n      0x00\n        /* \"#utility.yul\":10439:10440   */\n      dup1\n        /* \"#utility.yul\":10432:10444   */\n      revert\n        /* \"#utility.yul\":10396:10446   */\n    tag_421:\n        /* \"#utility.yul\":10475:10479   */\n      0x20\n        /* \"#utility.yul\":10463:10480   */\n      add\n      swap2\n      pop\n        /* \"#utility.yul\":10506:10520   */\n      calldatasize\n        /* \"#utility.yul\":10502:10529   */\n      dup2\n      swap1\n      sub\n        /* \"#utility.yul\":10492:10530   */\n      dup3\n      sgt\n        /* \"#utility.yul\":10489:10547   */\n      iszero\n      tag_369\n      jumpi\n        /* \"#utility.yul\":10543:10544   */\n      0x00\n        /* \"#utility.yul\":10540:10541   */\n      dup1\n        /* \"#utility.yul\":10533:10545   */\n      revert\n        /* \"#utility.yul\":11137:11410   */\n    tag_169:\n        /* \"#utility.yul\":11194:11200   */\n      0x00\n        /* \"#utility.yul\":11247:11249   */\n      0x20\n        /* \"#utility.yul\":11235:11244   */\n      dup3\n        /* \"#utility.yul\":11226:11233   */\n      dup5\n        /* \"#utility.yul\":11222:11245   */\n      sub\n        /* \"#utility.yul\":11218:11250   */\n      slt\n        /* \"#utility.yul\":11215:11267   */\n      iszero\n      tag_428\n      jumpi\n        /* \"#utility.yul\":11263:11264   */\n      0x00\n        /* \"#utility.yul\":11260:11261   */\n      dup1\n        /* \"#utility.yul\":11253:11265   */\n      revert\n        /* \"#utility.yul\":11215:11267   */\n    tag_428:\n        /* \"#utility.yul\":11302:11311   */\n      dup2\n        /* \"#utility.yul\":11289:11312   */\n      calldataload\n        /* \"#utility.yul\":11355:11360   */\n      dup1\n        /* \"#utility.yul\":11352:11353   */\n      0x03\n        /* \"#utility.yul\":11341:11361   */\n      signextend\n        /* \"#utility.yul\":11334:11339   */\n      dup2\n        /* \"#utility.yul\":11331:11362   */\n      eq\n        /* \"#utility.yul\":11321:11380   */\n      tag_355\n      jumpi\n        /* \"#utility.yul\":11376:11377   */\n      0x00\n        /* \"#utility.yul\":11373:11374   */\n      dup1\n        /* \"#utility.yul\":11366:11378   */\n      revert\n        /* \"#utility.yul\":11415:11599   */\n    tag_176:\n        /* \"#utility.yul\":11485:11491   */\n      0x00\n        /* \"#utility.yul\":11538:11540   */\n      0x20\n        /* \"#utility.yul\":11526:11535   */\n      dup3\n        /* \"#utility.yul\":11517:11524   */\n      dup5\n        /* \"#utility.yul\":11513:11536   */\n      sub\n        /* \"#utility.yul\":11509:11541   */\n      slt\n        /* \"#utility.yul\":11506:11558   */\n      iszero\n      tag_431\n      jumpi\n        /* \"#utility.yul\":11554:11555   */\n      0x00\n        /* \"#utility.yul\":11551:11552   */\n      dup1\n        /* \"#utility.yul\":11544:11556   */\n      revert\n        /* \"#utility.yul\":11506:11558   */\n    tag_431:\n      pop\n        /* \"#utility.yul\":11577:11593   */\n      mload\n      swap2\n        /* \"#utility.yul\":11415:11599   */\n      swap1\n      pop\n      jump\t// out\n        /* \"#utility.yul\":11786:11913   */\n    tag_345:\n        /* \"#utility.yul\":11847:11857   */\n      0x4e487b71\n        /* \"#utility.yul\":11842:11845   */\n      0xe0\n        /* \"#utility.yul\":11838:11858   */\n      shl\n        /* \"#utility.yul\":11835:11836   */\n      0x00\n        /* \"#utility.yul\":11828:11859   */\n      mstore\n        /* \"#utility.yul\":11878:11882   */\n      0x11\n        /* \"#utility.yul\":11875:11876   */\n      0x04\n        /* \"#utility.yul\":11868:11883   */\n      mstore\n        /* \"#utility.yul\":11902:11906   */\n      0x24\n        /* \"#utility.yul\":11899:11900   */\n      0x00\n        /* \"#utility.yul\":11892:11907   */\n      revert\n        /* \"#utility.yul\":11918:12043   */\n    tag_186:\n        /* \"#utility.yul\":11983:11992   */\n      dup1\n      dup3\n      add\n        /* \"#utility.yul\":12004:12014   */\n      dup1\n      dup3\n      gt\n        /* \"#utility.yul\":12001:12037   */\n      iszero\n      tag_299\n      jumpi\n        /* \"#utility.yul\":12017:12035   */\n      tag_299\n      tag_345\n      jump\t// in\n        /* \"#utility.yul\":12048:12176   */\n    tag_189:\n        /* \"#utility.yul\":12115:12124   */\n      dup2\n      dup2\n      sub\n        /* \"#utility.yul\":12136:12147   */\n      dup2\n      dup2\n      gt\n        /* \"#utility.yul\":12133:12170   */\n      iszero\n      tag_299\n      jumpi\n        /* \"#utility.yul\":12150:12168   */\n      tag_299\n      tag_345\n      jump\t// in\n        /* \"#utility.yul\":12181:12431   */\n    tag_346:\n        /* \"#utility.yul\":12266:12267   */\n      0x00\n        /* \"#utility.yul\":12276:12389   */\n    tag_441:\n        /* \"#utility.yul\":12290:12296   */\n      dup4\n        /* \"#utility.yul\":12287:12288   */\n      dup2\n        /* \"#utility.yul\":12284:12297   */\n      lt\n        /* \"#utility.yul\":12276:12389   */\n      iszero\n      tag_443\n      jumpi\n        /* \"#utility.yul\":12366:12377   */\n      dup2\n      dup2\n      add\n        /* \"#utility.yul\":12360:12378   */\n      mload\n        /* \"#utility.yul\":12347:12358   */\n      dup4\n      dup3\n      add\n        /* \"#utility.yul\":12340:12379   */\n      mstore\n        /* \"#utility.yul\":12312:12314   */\n      0x20\n        /* \"#utility.yul\":12305:12315   */\n      add\n        /* \"#utility.yul\":12276:12389   */\n      jump(tag_441)\n    tag_443:\n      pop\n      pop\n        /* \"#utility.yul\":12423:12424   */\n      0x00\n        /* \"#utility.yul\":12405:12421   */\n      swap2\n      add\n        /* \"#utility.yul\":12398:12425   */\n      mstore\n        /* \"#utility.yul\":12181:12431   */\n      jump\t// out\n        /* \"#utility.yul\":12436:13133   */\n    tag_191:\n        /* \"#utility.yul\":12657:12660   */\n      0x00\n        /* \"#utility.yul\":12695:12701   */\n      dup5\n        /* \"#utility.yul\":12689:12702   */\n      mload\n        /* \"#utility.yul\":12711:12777   */\n      tag_445\n        /* \"#utility.yul\":12770:12776   */\n      dup2\n        /* \"#utility.yul\":12765:12768   */\n      dup5\n        /* \"#utility.yul\":12758:12762   */\n      0x20\n        /* \"#utility.yul\":12750:12756   */\n      dup10\n        /* \"#utility.yul\":12746:12763   */\n      add\n        /* \"#utility.yul\":12711:12777   */\n      tag_346\n      jump\t// in\n    tag_445:\n        /* \"#utility.yul\":12840:12853   */\n      dup5\n      mload\n        /* \"#utility.yul\":12799:12815   */\n      swap1\n      dup4\n      add\n      swap1\n        /* \"#utility.yul\":12862:12932   */\n      tag_446\n        /* \"#utility.yul\":12840:12853   */\n      dup2\n        /* \"#utility.yul\":12799:12815   */\n      dup4\n        /* \"#utility.yul\":12909:12913   */\n      0x20\n        /* \"#utility.yul\":12897:12914   */\n      dup10\n      add\n        /* \"#utility.yul\":12862:12932   */\n      tag_346\n      jump\t// in\n    tag_446:\n        /* \"#utility.yul\":12999:13012   */\n      dup5\n      mload\n        /* \"#utility.yul\":12954:12974   */\n      swap2\n      add\n      swap1\n        /* \"#utility.yul\":13021:13091   */\n      tag_447\n        /* \"#utility.yul\":12999:13012   */\n      dup2\n        /* \"#utility.yul\":12954:12974   */\n      dup4\n        /* \"#utility.yul\":13068:13072   */\n      0x20\n        /* \"#utility.yul\":13056:13073   */\n      dup9\n      add\n        /* \"#utility.yul\":13021:13091   */\n      tag_346\n      jump\t// in\n    tag_447:\n        /* \"#utility.yul\":13107:13127   */\n      add\n      swap6\n        /* \"#utility.yul\":12436:13133   */\n      swap5\n      pop\n      pop\n      pop\n      pop\n      pop\n      jump\t// out\n        /* \"#utility.yul\":13138:13425   */\n    tag_193:\n        /* \"#utility.yul\":13267:13270   */\n      0x00\n        /* \"#utility.yul\":13305:13311   */\n      dup3\n        /* \"#utility.yul\":13299:13312   */\n      mload\n        /* \"#utility.yul\":13321:13387   */\n      tag_383\n        /* \"#utility.yul\":13380:13386   */\n      dup2\n        /* \"#utility.yul\":13375:13378   */\n      dup5\n        /* \"#utility.yul\":13368:13372   */\n      0x20\n        /* \"#utility.yul\":13360:13366   */\n      dup8\n        /* \"#utility.yul\":13356:13373   */\n      add\n        /* \"#utility.yul\":13321:13387   */\n      tag_346\n      jump\t// in\n        /* \"#utility.yul\":14243:14514   */\n    tag_242:\n        /* \"#utility.yul\":14426:14432   */\n      dup2\n        /* \"#utility.yul\":14418:14424   */\n      dup4\n        /* \"#utility.yul\":14413:14416   */\n      dup3\n        /* \"#utility.yul\":14400:14433   */\n      calldatacopy\n        /* \"#utility.yul\":14382:14385   */\n      0x00\n        /* \"#utility.yul\":14452:14468   */\n      swap2\n      add\n        /* \"#utility.yul\":14477:14490   */\n      swap1\n      dup2\n      mstore\n        /* \"#utility.yul\":14452:14468   */\n      swap2\n        /* \"#utility.yul\":14243:14514   */\n      swap1\n      pop\n      jump\t// out\n        /* \"#utility.yul\":14519:14978   */\n    tag_249:\n        /* \"#utility.yul\":14704:14710   */\n      dup4\n        /* \"#utility.yul\":14693:14702   */\n      dup2\n        /* \"#utility.yul\":14686:14711   */\n      mstore\n        /* \"#utility.yul\":14747:14749   */\n      0x40\n        /* \"#utility.yul\":14742:14744   */\n      0x20\n        /* \"#utility.yul\":14731:14740   */\n      dup3\n        /* \"#utility.yul\":14727:14745   */\n      add\n        /* \"#utility.yul\":14720:14750   */\n      mstore\n        /* \"#utility.yul\":14786:14792   */\n      dup2\n        /* \"#utility.yul\":14781:14783   */\n      0x40\n        /* \"#utility.yul\":14770:14779   */\n      dup3\n        /* \"#utility.yul\":14766:14784   */\n      add\n        /* \"#utility.yul\":14759:14793   */\n      mstore\n        /* \"#utility.yul\":14843:14849   */\n      dup2\n        /* \"#utility.yul\":14835:14841   */\n      dup4\n        /* \"#utility.yul\":14830:14832   */\n      0x60\n        /* \"#utility.yul\":14819:14828   */\n      dup4\n        /* \"#utility.yul\":14815:14833   */\n      add\n        /* \"#utility.yul\":14802:14850   */\n      calldatacopy\n        /* \"#utility.yul\":14899:14900   */\n      0x00\n        /* \"#utility.yul\":14870:14892   */\n      dup2\n      dup4\n      add\n        /* \"#utility.yul\":14894:14896   */\n      0x60\n        /* \"#utility.yul\":14866:14897   */\n      swap1\n      dup2\n      add\n        /* \"#utility.yul\":14859:14901   */\n      swap2\n      swap1\n      swap2\n      mstore\n        /* \"#utility.yul\":14962:14964   */\n      0x1f\n        /* \"#utility.yul\":14941:14956   */\n      swap1\n      swap3\n      add\n      not(0x1f)\n        /* \"#utility.yul\":14937:14966   */\n      and\n        /* \"#utility.yul\":14922:14967   */\n      add\n        /* \"#utility.yul\":14918:14972   */\n      add\n      swap3\n        /* \"#utility.yul\":14519:14978   */\n      swap2\n      pop\n      pop\n      jump\t// out\n        /* \"#utility.yul\":15672:15942   */\n    tag_347:\n        /* \"#utility.yul\":15713:15716   */\n      0x00\n        /* \"#utility.yul\":15751:15756   */\n      dup2\n        /* \"#utility.yul\":15745:15757   */\n      mload\n        /* \"#utility.yul\":15778:15784   */\n      dup1\n        /* \"#utility.yul\":15773:15776   */\n      dup5\n        /* \"#utility.yul\":15766:15785   */\n      mstore\n        /* \"#utility.yul\":15794:15870   */\n      tag_458\n        /* \"#utility.yul\":15863:15869   */\n      dup2\n        /* \"#utility.yul\":15856:15860   */\n      0x20\n        /* \"#utility.yul\":15851:15854   */\n      dup7\n        /* \"#utility.yul\":15847:15861   */\n      add\n        /* \"#utility.yul\":15840:15844   */\n      0x20\n        /* \"#utility.yul\":15833:15838   */\n      dup7\n        /* \"#utility.yul\":15829:15845   */\n      add\n        /* \"#utility.yul\":15794:15870   */\n      tag_346\n      jump\t// in\n    tag_458:\n        /* \"#utility.yul\":15924:15926   */\n      0x1f\n        /* \"#utility.yul\":15903:15918   */\n      add\n      not(0x1f)\n        /* \"#utility.yul\":15899:15928   */\n      and\n        /* \"#utility.yul\":15890:15929   */\n      swap3\n      swap1\n      swap3\n      add\n        /* \"#utility.yul\":15931:15935   */\n      0x20\n        /* \"#utility.yul\":15886:15936   */\n      add\n      swap3\n        /* \"#utility.yul\":15672:15942   */\n      swap2\n      pop\n      pop\n      jump\t// out\n        /* \"#utility.yul\":15947:16332   */\n    tag_275:\n        /* \"#utility.yul\":16179:16180   */\n      0x01\n        /* \"#utility.yul\":16175:16176   */\n      dup1\n        /* \"#utility.yul\":16170:16173   */\n      0xa0\n        /* \"#utility.yul\":16166:16177   */\n      shl\n        /* \"#utility.yul\":16162:16181   */\n      sub\n        /* \"#utility.yul\":16154:16160   */\n      dup5\n        /* \"#utility.yul\":16150:16182   */\n      and\n        /* \"#utility.yul\":16139:16148   */\n      dup2\n        /* \"#utility.yul\":16132:16183   */\n      mstore\n        /* \"#utility.yul\":16219:16225   */\n      dup3\n        /* \"#utility.yul\":16214:16216   */\n      0x20\n        /* \"#utility.yul\":16203:16212   */\n      dup3\n        /* \"#utility.yul\":16199:16217   */\n      add\n        /* \"#utility.yul\":16192:16226   */\n      mstore\n        /* \"#utility.yul\":16262:16264   */\n      0x60\n        /* \"#utility.yul\":16257:16259   */\n      0x40\n        /* \"#utility.yul\":16246:16255   */\n      dup3\n        /* \"#utility.yul\":16242:16260   */\n      add\n        /* \"#utility.yul\":16235:16265   */\n      mstore\n        /* \"#utility.yul\":16113:16117   */\n      0x00\n        /* \"#utility.yul\":16282:16326   */\n      tag_460\n        /* \"#utility.yul\":16322:16324   */\n      0x60\n        /* \"#utility.yul\":16311:16320   */\n      dup4\n        /* \"#utility.yul\":16307:16325   */\n      add\n        /* \"#utility.yul\":16299:16305   */\n      dup5\n        /* \"#utility.yul\":16282:16326   */\n      tag_347\n      jump\t// in\n    tag_460:\n        /* \"#utility.yul\":16274:16326   */\n      swap6\n        /* \"#utility.yul\":15947:16332   */\n      swap5\n      pop\n      pop\n      pop\n      pop\n      pop\n      jump\t// out\n        /* \"#utility.yul\":16912:17189   */\n    tag_295:\n        /* \"#utility.yul\":16979:16985   */\n      0x00\n        /* \"#utility.yul\":17032:17034   */\n      0x20\n        /* \"#utility.yul\":17020:17029   */\n      dup3\n        /* \"#utility.yul\":17011:17018   */\n      dup5\n        /* \"#utility.yul\":17007:17030   */\n      sub\n        /* \"#utility.yul\":17003:17035   */\n      slt\n        /* \"#utility.yul\":17000:17052   */\n      iszero\n      tag_464\n      jumpi\n        /* \"#utility.yul\":17048:17049   */\n      0x00\n        /* \"#utility.yul\":17045:17046   */\n      dup1\n        /* \"#utility.yul\":17038:17050   */\n      revert\n        /* \"#utility.yul\":17000:17052   */\n    tag_464:\n        /* \"#utility.yul\":17080:17089   */\n      dup2\n        /* \"#utility.yul\":17074:17090   */\n      mload\n        /* \"#utility.yul\":17133:17138   */\n      dup1\n        /* \"#utility.yul\":17126:17139   */\n      iszero\n        /* \"#utility.yul\":17119:17140   */\n      iszero\n        /* \"#utility.yul\":17112:17117   */\n      dup2\n        /* \"#utility.yul\":17109:17141   */\n      eq\n        /* \"#utility.yul\":17099:17159   */\n      tag_355\n      jumpi\n        /* \"#utility.yul\":17155:17156   */\n      0x00\n        /* \"#utility.yul\":17152:17153   */\n      dup1\n        /* \"#utility.yul\":17145:17157   */\n      revert\n        /* \"#utility.yul\":18370:18589   */\n    tag_338:\n        /* \"#utility.yul\":18519:18521   */\n      0x20\n        /* \"#utility.yul\":18508:18517   */\n      dup2\n        /* \"#utility.yul\":18501:18522   */\n      mstore\n        /* \"#utility.yul\":18482:18486   */\n      0x00\n        /* \"#utility.yul\":18539:18583   */\n      tag_355\n        /* \"#utility.yul\":18579:18581   */\n      0x20\n        /* \"#utility.yul\":18568:18577   */\n      dup4\n        /* \"#utility.yul\":18564:18582   */\n      add\n        /* \"#utility.yul\":18556:18562   */\n      dup5\n        /* \"#utility.yul\":18539:18583   */\n      tag_347\n      jump\t// in\n\n    auxdata: 0xa26469706673582212201cbe5bfd2b08d57a41371e0142e93556670e8e453f85acb5f7c10afeca0a13f764736f6c63430008130033\n}\n\nsub_1: assembly {\n        /* \"contracts/zaps/PlexusTokenManager.sol\":482:1614  contract PlexusTokenManager is ZapErrors {... */\n      mstore(0x40, 0xa0)\n        /* \"contracts/zaps/PlexusTokenManager.sol\":747:794  constructor() {... */\n      callvalue\n      dup1\n      iszero\n      tag_1\n      jumpi\n      0x00\n      dup1\n      revert\n    tag_1:\n      pop\n        /* \"contracts/zaps/PlexusTokenManager.sol\":777:787  msg.sender */\n      caller\n        /* \"contracts/zaps/PlexusTokenManager.sol\":771:787  zap = msg.sender */\n      0x80\n      mstore\n        /* \"contracts/zaps/PlexusTokenManager.sol\":482:1614  contract PlexusTokenManager is ZapErrors {... */\n      mload(0x80)\n      codecopy(0x00, dataOffset(sub_0), dataSize(sub_0))\n      0x00\n      assignImmutable(\"0x53e5968c39d954ac29155bd721dab3944ae84b54169158b5b8f3d3aaa982aa2f\")\n      return(0x00, dataSize(sub_0))\n    stop\n\n    sub_0: assembly {\n            /* \"contracts/zaps/PlexusTokenManager.sol\":482:1614  contract PlexusTokenManager is ZapErrors {... */\n          mstore(0x40, 0x80)\n          callvalue\n          dup1\n          iszero\n          tag_1\n          jumpi\n          0x00\n          dup1\n          revert\n        tag_1:\n          pop\n          jumpi(tag_2, lt(calldatasize, 0x04))\n          shr(0xe0, calldataload(0x00))\n          dup1\n          0x262d6152\n          eq\n          tag_3\n          jumpi\n          dup1\n          0x77fc3fa8\n          eq\n          tag_4\n          jumpi\n        tag_2:\n          0x00\n          dup1\n          revert\n            /* \"contracts/zaps/PlexusTokenManager.sol\":622:650  address public immutable zap */\n        tag_3:\n          tag_5\n          immutable(\"0x53e5968c39d954ac29155bd721dab3944ae84b54169158b5b8f3d3aaa982aa2f\")\n          dup2\n          jump\n        tag_5:\n          mload(0x40)\n          sub(shl(0xa0, 0x01), 0x01)\n            /* \"#utility.yul\":178:210   */\n          swap1\n          swap2\n          and\n            /* \"#utility.yul\":160:211   */\n          dup2\n          mstore\n            /* \"#utility.yul\":148:150   */\n          0x20\n            /* \"#utility.yul\":133:151   */\n          add\n            /* \"contracts/zaps/PlexusTokenManager.sol\":622:650  address public immutable zap */\n          mload(0x40)\n          dup1\n          swap2\n          sub\n          swap1\n          return\n            /* \"contracts/zaps/PlexusTokenManager.sol\":1094:1612  function pullTokens(address _user, IPlexusZapRouter.Input[] calldata _inputs) external {... */\n        tag_4:\n          tag_9\n          tag_10\n          calldatasize\n          0x04\n          tag_11\n          jump\t// in\n        tag_10:\n          tag_12\n          jump\t// in\n        tag_9:\n          stop\n        tag_12:\n            /* \"contracts/zaps/PlexusTokenManager.sol\":1195:1205  msg.sender */\n          caller\n          sub(shl(0xa0, 0x01), 0x01)\n            /* \"contracts/zaps/PlexusTokenManager.sol\":1209:1212  zap */\n          immutable(\"0x53e5968c39d954ac29155bd721dab3944ae84b54169158b5b8f3d3aaa982aa2f\")\n            /* \"contracts/zaps/PlexusTokenManager.sol\":1195:1212  msg.sender != zap */\n          and\n          eq\n            /* \"contracts/zaps/PlexusTokenManager.sol\":1191:1245  if (msg.sender != zap) revert CallerNotZap(msg.sender) */\n          tag_14\n          jumpi\n            /* \"contracts/zaps/PlexusTokenManager.sol\":1221:1245  CallerNotZap(msg.sender) */\n          mload(0x40)\n          shl(0xe0, 0x403e63e9)\n          dup2\n          mstore\n            /* \"contracts/zaps/PlexusTokenManager.sol\":1234:1244  msg.sender */\n          caller\n            /* \"contracts/zaps/PlexusTokenManager.sol\":1221:1245  CallerNotZap(msg.sender) */\n          0x04\n          dup3\n          add\n            /* \"#utility.yul\":160:211   */\n          mstore\n            /* \"#utility.yul\":133:151   */\n          0x24\n          add\n            /* \"contracts/zaps/PlexusTokenManager.sol\":1221:1245  CallerNotZap(msg.sender) */\n        tag_15:\n          mload(0x40)\n          dup1\n          swap2\n          sub\n          swap1\n          revert\n            /* \"contracts/zaps/PlexusTokenManager.sol\":1191:1245  if (msg.sender != zap) revert CallerNotZap(msg.sender) */\n        tag_14:\n            /* \"contracts/zaps/PlexusTokenManager.sol\":1277:1284  _inputs */\n          dup1\n            /* \"contracts/zaps/PlexusTokenManager.sol\":1255:1274  uint256 inputLength */\n          0x00\n            /* \"contracts/zaps/PlexusTokenManager.sol\":1301:1606  for (uint256 i; i < inputLength; ) {... */\n        tag_16:\n            /* \"contracts/zaps/PlexusTokenManager.sol\":1321:1332  inputLength */\n          dup2\n            /* \"contracts/zaps/PlexusTokenManager.sol\":1317:1318  i */\n          dup2\n            /* \"contracts/zaps/PlexusTokenManager.sol\":1317:1332  i < inputLength */\n          lt\n            /* \"contracts/zaps/PlexusTokenManager.sol\":1301:1606  for (uint256 i; i < inputLength; ) {... */\n          iszero\n          tag_17\n          jumpi\n            /* \"contracts/zaps/PlexusTokenManager.sol\":1350:1387  IPlexusZapRouter.Input calldata input */\n          calldatasize\n            /* \"contracts/zaps/PlexusTokenManager.sol\":1390:1397  _inputs */\n          dup5\n          dup5\n            /* \"contracts/zaps/PlexusTokenManager.sol\":1398:1399  i */\n          dup4\n            /* \"contracts/zaps/PlexusTokenManager.sol\":1390:1400  _inputs[i] */\n          dup2\n          dup2\n          lt\n          tag_20\n          jumpi\n          tag_20\n          tag_21\n          jump\t// in\n        tag_20:\n            /* \"contracts/zaps/PlexusTokenManager.sol\":1442:1445  ++i */\n          0x01\n          swap1\n          swap5\n          add\n          swap4\n            /* \"contracts/zaps/PlexusTokenManager.sol\":1390:1400  _inputs[i] */\n          0x40\n          mul\n          swap2\n          swap1\n          swap2\n          add\n          swap2\n          pop\n            /* \"contracts/zaps/PlexusTokenManager.sol\":1500:1501  0 */\n          0x00\n          swap1\n          pop\n            /* \"contracts/zaps/PlexusTokenManager.sol\":1477:1488  input.token */\n          tag_22\n          0x20\n          dup4\n          add\n            /* \"contracts/zaps/PlexusTokenManager.sol\":1390:1400  _inputs[i] */\n          dup4\n            /* \"contracts/zaps/PlexusTokenManager.sol\":1477:1488  input.token */\n          tag_23\n          jump\t// in\n        tag_22:\n          sub(shl(0xa0, 0x01), 0x01)\n            /* \"contracts/zaps/PlexusTokenManager.sol\":1477:1502  input.token == address(0) */\n          and\n          sub\n            /* \"contracts/zaps/PlexusTokenManager.sol\":1473:1512  if (input.token == address(0)) continue */\n          tag_24\n          jumpi\n            /* \"contracts/zaps/PlexusTokenManager.sol\":1504:1512  continue */\n          pop\n            /* \"contracts/zaps/PlexusTokenManager.sol\":1301:1606  for (uint256 i; i < inputLength; ) {... */\n          jump(tag_16)\n            /* \"contracts/zaps/PlexusTokenManager.sol\":1473:1512  if (input.token == address(0)) continue */\n        tag_24:\n            /* \"contracts/zaps/PlexusTokenManager.sol\":1526:1595  IERC20(input.token).safeTransferFrom(_user, msg.sender, input.amount) */\n          tag_25\n            /* \"contracts/zaps/PlexusTokenManager.sol\":1563:1568  _user */\n          dup7\n            /* \"contracts/zaps/PlexusTokenManager.sol\":1570:1580  msg.sender */\n          caller\n            /* \"contracts/zaps/PlexusTokenManager.sol\":1582:1594  input.amount */\n          0x20\n          dup5\n          add\n          dup1\n          calldataload\n          swap1\n            /* \"contracts/zaps/PlexusTokenManager.sol\":1533:1544  input.token */\n          tag_26\n          swap1\n            /* \"contracts/zaps/PlexusTokenManager.sol\":1582:1587  input */\n          dup7\n            /* \"contracts/zaps/PlexusTokenManager.sol\":1533:1544  input.token */\n          tag_23\n          jump\t// in\n        tag_26:\n          sub(shl(0xa0, 0x01), 0x01)\n            /* \"contracts/zaps/PlexusTokenManager.sol\":1526:1562  IERC20(input.token).safeTransferFrom */\n          and\n          swap3\n            /* \"contracts/zaps/PlexusTokenManager.sol\":1526:1595  IERC20(input.token).safeTransferFrom(_user, msg.sender, input.amount) */\n          swap2\n          swap1\n            /* \"contracts/zaps/PlexusTokenManager.sol\":1526:1562  IERC20(input.token).safeTransferFrom */\n          tag_27\n            /* \"contracts/zaps/PlexusTokenManager.sol\":1526:1595  IERC20(input.token).safeTransferFrom(_user, msg.sender, input.amount) */\n          jump\t// in\n        tag_25:\n            /* \"contracts/zaps/PlexusTokenManager.sol\":1336:1606  {... */\n          pop\n            /* \"contracts/zaps/PlexusTokenManager.sol\":1301:1606  for (uint256 i; i < inputLength; ) {... */\n          jump(tag_16)\n        tag_17:\n          pop\n            /* \"contracts/zaps/PlexusTokenManager.sol\":1181:1612  {... */\n          pop\n            /* \"contracts/zaps/PlexusTokenManager.sol\":1094:1612  function pullTokens(address _user, IPlexusZapRouter.Input[] calldata _inputs) external {... */\n          pop\n          pop\n          pop\n          jump\t// out\n            /* \"@openzeppelin/contracts/token/ERC20/utils/SafeERC20.sol\":1355:1558  function safeTransferFrom(IERC20 token, address from, address to, uint256 value) internal {... */\n        tag_27:\n            /* \"@openzeppelin/contracts/token/ERC20/utils/SafeERC20.sol\":1482:1550  abi.encodeWithSelector(token.transferFrom.selector, from, to, value) */\n          0x40\n          dup1\n          mload\n          sub(shl(0xa0, 0x01), 0x01)\n            /* \"#utility.yul\":1700:1715   */\n          dup6\n          dup2\n          and\n            /* \"@openzeppelin/contracts/token/ERC20/utils/SafeERC20.sol\":1482:1550  abi.encodeWithSelector(token.transferFrom.selector, from, to, value) */\n          0x24\n          dup4\n          add\n            /* \"#utility.yul\":1682:1716   */\n          mstore\n            /* \"#utility.yul\":1752:1767   */\n          dup5\n          and\n            /* \"#utility.yul\":1732:1750   */\n          0x44\n          dup3\n          add\n            /* \"#utility.yul\":1725:1768   */\n          mstore\n            /* \"#utility.yul\":1784:1802   */\n          0x64\n          dup1\n          dup3\n          add\n            /* \"#utility.yul\":1777:1811   */\n          dup5\n          swap1\n          mstore\n            /* \"@openzeppelin/contracts/token/ERC20/utils/SafeERC20.sol\":1482:1550  abi.encodeWithSelector(token.transferFrom.selector, from, to, value) */\n          dup3\n          mload\n          dup1\n          dup4\n          sub\n          swap1\n          swap2\n          add\n          dup2\n          mstore\n            /* \"#utility.yul\":1617:1635   */\n          0x84\n          swap1\n          swap2\n          add\n            /* \"@openzeppelin/contracts/token/ERC20/utils/SafeERC20.sol\":1482:1550  abi.encodeWithSelector(token.transferFrom.selector, from, to, value) */\n          swap1\n          swap2\n          mstore\n          0x20\n          dup2\n          add\n          dup1\n          mload\n          sub(shl(0xe0, 0x01), 0x01)\n          and\n          shl(0xe0, 0x23b872dd)\n          or\n          swap1\n          mstore\n            /* \"@openzeppelin/contracts/token/ERC20/utils/SafeERC20.sol\":1455:1551  _callOptionalReturn(token, abi.encodeWithSelector(token.transferFrom.selector, from, to, value)) */\n          tag_29\n          swap1\n            /* \"@openzeppelin/contracts/token/ERC20/utils/SafeERC20.sol\":1475:1480  token */\n          dup6\n          swap1\n            /* \"@openzeppelin/contracts/token/ERC20/utils/SafeERC20.sol\":1455:1474  _callOptionalReturn */\n          tag_32\n            /* \"@openzeppelin/contracts/token/ERC20/utils/SafeERC20.sol\":1455:1551  _callOptionalReturn(token, abi.encodeWithSelector(token.transferFrom.selector, from, to, value)) */\n          jump\t// in\n        tag_29:\n            /* \"@openzeppelin/contracts/token/ERC20/utils/SafeERC20.sol\":1355:1558  function safeTransferFrom(IERC20 token, address from, address to, uint256 value) internal {... */\n          pop\n          pop\n          pop\n          pop\n          jump\t// out\n            /* \"@openzeppelin/contracts/token/ERC20/utils/SafeERC20.sol\":5196:5838  function _callOptionalReturn(IERC20 token, bytes memory data) private {... */\n        tag_32:\n            /* \"@openzeppelin/contracts/token/ERC20/utils/SafeERC20.sol\":5615:5638  bytes memory returndata */\n          0x00\n            /* \"@openzeppelin/contracts/token/ERC20/utils/SafeERC20.sol\":5641:5710  address(token).functionCall(data, \"SafeERC20: low-level call failed\") */\n          tag_34\n            /* \"@openzeppelin/contracts/token/ERC20/utils/SafeERC20.sol\":5669:5673  data */\n          dup3\n            /* \"@openzeppelin/contracts/token/ERC20/utils/SafeERC20.sol\":5641:5710  address(token).functionCall(data, \"SafeERC20: low-level call failed\") */\n          mload(0x40)\n          dup1\n          0x40\n          add\n          0x40\n          mstore\n          dup1\n          0x20\n          dup2\n          mstore\n          0x20\n          add\n          0x5361666545524332303a206c6f772d6c6576656c2063616c6c206661696c6564\n          dup2\n          mstore\n          pop\n            /* \"@openzeppelin/contracts/token/ERC20/utils/SafeERC20.sol\":5649:5654  token */\n          dup6\n          sub(shl(0xa0, 0x01), 0x01)\n            /* \"@openzeppelin/contracts/token/ERC20/utils/SafeERC20.sol\":5641:5668  address(token).functionCall */\n          and\n          tag_35\n          swap1\n            /* \"@openzeppelin/contracts/token/ERC20/utils/SafeERC20.sol\":5641:5710  address(token).functionCall(data, \"SafeERC20: low-level call failed\") */\n          swap3\n          swap2\n          swap1\n          0xffffffff\n          and\n          jump\t// in\n        tag_34:\n            /* \"@openzeppelin/contracts/token/ERC20/utils/SafeERC20.sol\":5615:5710  bytes memory returndata = address(token).functionCall(data, \"SafeERC20: low-level call failed\") */\n          swap1\n          pop\n            /* \"@openzeppelin/contracts/token/ERC20/utils/SafeERC20.sol\":5728:5738  returndata */\n          dup1\n            /* \"@openzeppelin/contracts/token/ERC20/utils/SafeERC20.sol\":5728:5745  returndata.length */\n          mload\n            /* \"@openzeppelin/contracts/token/ERC20/utils/SafeERC20.sol\":5749:5750  0 */\n          0x00\n            /* \"@openzeppelin/contracts/token/ERC20/utils/SafeERC20.sol\":5728:5750  returndata.length == 0 */\n          eq\n            /* \"@openzeppelin/contracts/token/ERC20/utils/SafeERC20.sol\":5728:5784  returndata.length == 0 || abi.decode(returndata, (bool)) */\n          dup1\n          tag_37\n          jumpi\n          pop\n            /* \"@openzeppelin/contracts/token/ERC20/utils/SafeERC20.sol\":5765:5775  returndata */\n          dup1\n            /* \"@openzeppelin/contracts/token/ERC20/utils/SafeERC20.sol\":5754:5784  abi.decode(returndata, (bool)) */\n          dup1\n          0x20\n          add\n          swap1\n          mload\n          dup2\n          add\n          swap1\n          tag_37\n          swap2\n          swap1\n          tag_38\n          jump\t// in\n        tag_37:\n            /* \"@openzeppelin/contracts/token/ERC20/utils/SafeERC20.sol\":5720:5831  require(returndata.length == 0 || abi.decode(returndata, (bool)), \"SafeERC20: ERC20 operation did not succeed\") */\n          tag_39\n          jumpi\n          mload(0x40)\n          shl(0xe5, 0x461bcd)\n          dup2\n          mstore\n            /* \"#utility.yul\":2306:2308   */\n          0x20\n            /* \"@openzeppelin/contracts/token/ERC20/utils/SafeERC20.sol\":5720:5831  require(returndata.length == 0 || abi.decode(returndata, (bool)), \"SafeERC20: ERC20 operation did not succeed\") */\n          0x04\n          dup3\n          add\n            /* \"#utility.yul\":2288:2309   */\n          mstore\n            /* \"#utility.yul\":2345:2347   */\n          0x2a\n            /* \"#utility.yul\":2325:2343   */\n          0x24\n          dup3\n          add\n            /* \"#utility.yul\":2318:2348   */\n          mstore\n            /* \"#utility.yul\":2384:2418   */\n          0x5361666545524332303a204552433230206f7065726174696f6e20646964206e\n            /* \"#utility.yul\":2364:2382   */\n          0x44\n          dup3\n          add\n            /* \"#utility.yul\":2357:2419   */\n          mstore\n          shl(0xb2, 0x1bdd081cdd58d8d95959)\n            /* \"#utility.yul\":2435:2453   */\n          0x64\n          dup3\n          add\n            /* \"#utility.yul\":2428:2468   */\n          mstore\n            /* \"#utility.yul\":2485:2504   */\n          0x84\n          add\n            /* \"@openzeppelin/contracts/token/ERC20/utils/SafeERC20.sol\":5720:5831  require(returndata.length == 0 || abi.decode(returndata, (bool)), \"SafeERC20: ERC20 operation did not succeed\") */\n          tag_15\n            /* \"#utility.yul\":2104:2510   */\n          jump\n            /* \"@openzeppelin/contracts/token/ERC20/utils/SafeERC20.sol\":5720:5831  require(returndata.length == 0 || abi.decode(returndata, (bool)), \"SafeERC20: ERC20 operation did not succeed\") */\n        tag_39:\n            /* \"@openzeppelin/contracts/token/ERC20/utils/SafeERC20.sol\":5266:5838  {... */\n          pop\n            /* \"@openzeppelin/contracts/token/ERC20/utils/SafeERC20.sol\":5196:5838  function _callOptionalReturn(IERC20 token, bytes memory data) private {... */\n          pop\n          pop\n          jump\t// out\n            /* \"@openzeppelin/contracts/utils/Address.sol\":4108:4331  function functionCall(... */\n        tag_35:\n            /* \"@openzeppelin/contracts/utils/Address.sol\":4241:4253  bytes memory */\n          0x60\n            /* \"@openzeppelin/contracts/utils/Address.sol\":4272:4324  functionCallWithValue(target, data, 0, errorMessage) */\n          tag_43\n            /* \"@openzeppelin/contracts/utils/Address.sol\":4294:4300  target */\n          dup5\n            /* \"@openzeppelin/contracts/utils/Address.sol\":4302:4306  data */\n          dup5\n            /* \"@openzeppelin/contracts/utils/Address.sol\":4308:4309  0 */\n          0x00\n            /* \"@openzeppelin/contracts/utils/Address.sol\":4311:4323  errorMessage */\n          dup6\n            /* \"@openzeppelin/contracts/utils/Address.sol\":4272:4293  functionCallWithValue */\n          tag_44\n            /* \"@openzeppelin/contracts/utils/Address.sol\":4272:4324  functionCallWithValue(target, data, 0, errorMessage) */\n          jump\t// in\n        tag_43:\n            /* \"@openzeppelin/contracts/utils/Address.sol\":4265:4324  return functionCallWithValue(target, data, 0, errorMessage) */\n          swap5\n            /* \"@openzeppelin/contracts/utils/Address.sol\":4108:4331  function functionCall(... */\n          swap4\n          pop\n          pop\n          pop\n          pop\n          jump\t// out\n            /* \"@openzeppelin/contracts/utils/Address.sol\":5165:5611  function functionCallWithValue(... */\n        tag_44:\n            /* \"@openzeppelin/contracts/utils/Address.sol\":5330:5342  bytes memory */\n          0x60\n            /* \"@openzeppelin/contracts/utils/Address.sol\":5387:5392  value */\n          dup3\n            /* \"@openzeppelin/contracts/utils/Address.sol\":5362:5383  address(this).balance */\n          selfbalance\n            /* \"@openzeppelin/contracts/utils/Address.sol\":5362:5392  address(this).balance >= value */\n          lt\n          iszero\n            /* \"@openzeppelin/contracts/utils/Address.sol\":5354:5435  require(address(this).balance >= value, \"Address: insufficient balance for call\") */\n          tag_46\n          jumpi\n          mload(0x40)\n          shl(0xe5, 0x461bcd)\n          dup2\n          mstore\n            /* \"#utility.yul\":2717:2719   */\n          0x20\n            /* \"@openzeppelin/contracts/utils/Address.sol\":5354:5435  require(address(this).balance >= value, \"Address: insufficient balance for call\") */\n          0x04\n          dup3\n          add\n            /* \"#utility.yul\":2699:2720   */\n          mstore\n            /* \"#utility.yul\":2756:2758   */\n          0x26\n            /* \"#utility.yul\":2736:2754   */\n          0x24\n          dup3\n          add\n            /* \"#utility.yul\":2729:2759   */\n          mstore\n            /* \"#utility.yul\":2795:2829   */\n          0x416464726573733a20696e73756666696369656e742062616c616e636520666f\n            /* \"#utility.yul\":2775:2793   */\n          0x44\n          dup3\n          add\n            /* \"#utility.yul\":2768:2830   */\n          mstore\n          shl(0xd2, 0x1c8818d85b1b)\n            /* \"#utility.yul\":2846:2864   */\n          0x64\n          dup3\n          add\n            /* \"#utility.yul\":2839:2875   */\n          mstore\n            /* \"#utility.yul\":2892:2911   */\n          0x84\n          add\n            /* \"@openzeppelin/contracts/utils/Address.sol\":5354:5435  require(address(this).balance >= value, \"Address: insufficient balance for call\") */\n          tag_15\n            /* \"#utility.yul\":2515:2917   */\n          jump\n            /* \"@openzeppelin/contracts/utils/Address.sol\":5354:5435  require(address(this).balance >= value, \"Address: insufficient balance for call\") */\n        tag_46:\n            /* \"@openzeppelin/contracts/utils/Address.sol\":5446:5458  bool success */\n          0x00\n            /* \"@openzeppelin/contracts/utils/Address.sol\":5460:5483  bytes memory returndata */\n          dup1\n            /* \"@openzeppelin/contracts/utils/Address.sol\":5487:5493  target */\n          dup7\n          sub(shl(0xa0, 0x01), 0x01)\n            /* \"@openzeppelin/contracts/utils/Address.sol\":5487:5498  target.call */\n          and\n            /* \"@openzeppelin/contracts/utils/Address.sol\":5506:5511  value */\n          dup6\n            /* \"@openzeppelin/contracts/utils/Address.sol\":5513:5517  data */\n          dup8\n            /* \"@openzeppelin/contracts/utils/Address.sol\":5487:5518  target.call{value: value}(data) */\n          mload(0x40)\n          tag_49\n          swap2\n          swap1\n          tag_50\n          jump\t// in\n        tag_49:\n          0x00\n          mload(0x40)\n          dup1\n          dup4\n          sub\n          dup2\n          dup6\n          dup8\n          gas\n          call\n          swap3\n          pop\n          pop\n          pop\n          returndatasize\n          dup1\n          0x00\n          dup2\n          eq\n          tag_53\n          jumpi\n          mload(0x40)\n          swap2\n          pop\n          and(add(returndatasize, 0x3f), not(0x1f))\n          dup3\n          add\n          0x40\n          mstore\n          returndatasize\n          dup3\n          mstore\n          returndatasize\n          0x00\n          0x20\n          dup5\n          add\n          returndatacopy\n          jump(tag_52)\n        tag_53:\n          0x60\n          swap2\n          pop\n        tag_52:\n          pop\n            /* \"@openzeppelin/contracts/utils/Address.sol\":5445:5518  (bool success, bytes memory returndata) = target.call{value: value}(data) */\n          swap2\n          pop\n          swap2\n          pop\n            /* \"@openzeppelin/contracts/utils/Address.sol\":5535:5604  verifyCallResultFromTarget(target, success, returndata, errorMessage) */\n          tag_54\n            /* \"@openzeppelin/contracts/utils/Address.sol\":5562:5568  target */\n          dup8\n            /* \"@openzeppelin/contracts/utils/Address.sol\":5570:5577  success */\n          dup4\n            /* \"@openzeppelin/contracts/utils/Address.sol\":5579:5589  returndata */\n          dup4\n            /* \"@openzeppelin/contracts/utils/Address.sol\":5591:5603  errorMessage */\n          dup8\n            /* \"@openzeppelin/contracts/utils/Address.sol\":5535:5561  verifyCallResultFromTarget */\n          tag_55\n            /* \"@openzeppelin/contracts/utils/Address.sol\":5535:5604  verifyCallResultFromTarget(target, success, returndata, errorMessage) */\n          jump\t// in\n        tag_54:\n            /* \"@openzeppelin/contracts/utils/Address.sol\":5528:5604  return verifyCallResultFromTarget(target, success, returndata, errorMessage) */\n          swap8\n            /* \"@openzeppelin/contracts/utils/Address.sol\":5165:5611  function functionCallWithValue(... */\n          swap7\n          pop\n          pop\n          pop\n          pop\n          pop\n          pop\n          pop\n          jump\t// out\n            /* \"@openzeppelin/contracts/utils/Address.sol\":7671:8299  function verifyCallResultFromTarget(... */\n        tag_55:\n            /* \"@openzeppelin/contracts/utils/Address.sol\":7851:7863  bytes memory */\n          0x60\n            /* \"@openzeppelin/contracts/utils/Address.sol\":7879:7886  success */\n          dup4\n            /* \"@openzeppelin/contracts/utils/Address.sol\":7875:8293  if (success) {... */\n          iszero\n          tag_57\n          jumpi\n            /* \"@openzeppelin/contracts/utils/Address.sol\":7906:7916  returndata */\n          dup3\n            /* \"@openzeppelin/contracts/utils/Address.sol\":7906:7923  returndata.length */\n          mload\n            /* \"@openzeppelin/contracts/utils/Address.sol\":7927:7928  0 */\n          0x00\n            /* \"@openzeppelin/contracts/utils/Address.sol\":7906:7928  returndata.length == 0 */\n          sub\n            /* \"@openzeppelin/contracts/utils/Address.sol\":7902:8188  if (returndata.length == 0) {... */\n          tag_61\n          jumpi\n          sub(shl(0xa0, 0x01), 0x01)\n            /* \"@openzeppelin/contracts/utils/Address.sol\":1702:1721  account.code.length */\n          dup6\n          and\n          extcodesize\n            /* \"@openzeppelin/contracts/utils/Address.sol\":8113:8173  require(isContract(target), \"Address: call to non-contract\") */\n          tag_61\n          jumpi\n          mload(0x40)\n          shl(0xe5, 0x461bcd)\n          dup2\n          mstore\n            /* \"#utility.yul\":3671:3673   */\n          0x20\n            /* \"@openzeppelin/contracts/utils/Address.sol\":8113:8173  require(isContract(target), \"Address: call to non-contract\") */\n          0x04\n          dup3\n          add\n            /* \"#utility.yul\":3653:3674   */\n          mstore\n            /* \"#utility.yul\":3710:3712   */\n          0x1d\n            /* \"#utility.yul\":3690:3708   */\n          0x24\n          dup3\n          add\n            /* \"#utility.yul\":3683:3713   */\n          mstore\n            /* \"#utility.yul\":3749:3780   */\n          0x416464726573733a2063616c6c20746f206e6f6e2d636f6e7472616374000000\n            /* \"#utility.yul\":3729:3747   */\n          0x44\n          dup3\n          add\n            /* \"#utility.yul\":3722:3781   */\n          mstore\n            /* \"#utility.yul\":3798:3816   */\n          0x64\n          add\n            /* \"@openzeppelin/contracts/utils/Address.sol\":8113:8173  require(isContract(target), \"Address: call to non-contract\") */\n          tag_15\n            /* \"#utility.yul\":3469:3822   */\n          jump\n            /* \"@openzeppelin/contracts/utils/Address.sol\":8113:8173  require(isContract(target), \"Address: call to non-contract\") */\n        tag_61:\n          pop\n            /* \"@openzeppelin/contracts/utils/Address.sol\":8208:8218  returndata */\n          dup2\n            /* \"@openzeppelin/contracts/utils/Address.sol\":8201:8218  return returndata */\n          jump(tag_43)\n            /* \"@openzeppelin/contracts/utils/Address.sol\":7875:8293  if (success) {... */\n        tag_57:\n            /* \"@openzeppelin/contracts/utils/Address.sol\":8249:8282  _revert(returndata, errorMessage) */\n          tag_43\n            /* \"@openzeppelin/contracts/utils/Address.sol\":8257:8267  returndata */\n          dup4\n            /* \"@openzeppelin/contracts/utils/Address.sol\":8269:8281  errorMessage */\n          dup4\n            /* \"@openzeppelin/contracts/utils/Address.sol\":8980:8997  returndata.length */\n          dup2\n          mload\n            /* \"@openzeppelin/contracts/utils/Address.sol\":8980:9001  returndata.length > 0 */\n          iszero\n            /* \"@openzeppelin/contracts/utils/Address.sol\":8976:9355  if (returndata.length > 0) {... */\n          tag_69\n          jumpi\n            /* \"@openzeppelin/contracts/utils/Address.sol\":9208:9218  returndata */\n          dup2\n            /* \"@openzeppelin/contracts/utils/Address.sol\":9202:9219  mload(returndata) */\n          mload\n            /* \"@openzeppelin/contracts/utils/Address.sol\":9264:9279  returndata_size */\n          dup1\n            /* \"@openzeppelin/contracts/utils/Address.sol\":9251:9261  returndata */\n          dup4\n            /* \"@openzeppelin/contracts/utils/Address.sol\":9247:9249  32 */\n          0x20\n            /* \"@openzeppelin/contracts/utils/Address.sol\":9243:9262  add(32, returndata) */\n          add\n            /* \"@openzeppelin/contracts/utils/Address.sol\":9236:9280  revert(add(32, returndata), returndata_size) */\n          revert\n            /* \"@openzeppelin/contracts/utils/Address.sol\":8976:9355  if (returndata.length > 0) {... */\n        tag_69:\n            /* \"@openzeppelin/contracts/utils/Address.sol\":9331:9343  errorMessage */\n          dup1\n            /* \"@openzeppelin/contracts/utils/Address.sol\":9324:9344  revert(errorMessage) */\n          mload(0x40)\n          shl(0xe5, 0x461bcd)\n          dup2\n          mstore\n          0x04\n          add\n          tag_15\n          swap2\n          swap1\n          tag_72\n          jump\t// in\n            /* \"#utility.yul\":222:395   */\n        tag_73:\n            /* \"#utility.yul\":290:310   */\n          dup1\n          calldataload\n          sub(shl(0xa0, 0x01), 0x01)\n            /* \"#utility.yul\":339:370   */\n          dup2\n          and\n            /* \"#utility.yul\":329:371   */\n          dup2\n          eq\n            /* \"#utility.yul\":319:389   */\n          tag_78\n          jumpi\n            /* \"#utility.yul\":385:386   */\n          0x00\n            /* \"#utility.yul\":382:383   */\n          dup1\n            /* \"#utility.yul\":375:387   */\n          revert\n            /* \"#utility.yul\":319:389   */\n        tag_78:\n            /* \"#utility.yul\":222:395   */\n          swap2\n          swap1\n          pop\n          jump\t// out\n            /* \"#utility.yul\":400:1114   */\n        tag_11:\n            /* \"#utility.yul\":520:526   */\n          0x00\n            /* \"#utility.yul\":528:534   */\n          dup1\n            /* \"#utility.yul\":536:542   */\n          0x00\n            /* \"#utility.yul\":589:591   */\n          0x40\n            /* \"#utility.yul\":577:586   */\n          dup5\n            /* \"#utility.yul\":568:575   */\n          dup7\n            /* \"#utility.yul\":564:587   */\n          sub\n            /* \"#utility.yul\":560:592   */\n          slt\n            /* \"#utility.yul\":557:609   */\n          iszero\n          tag_80\n          jumpi\n            /* \"#utility.yul\":605:606   */\n          0x00\n            /* \"#utility.yul\":602:603   */\n          dup1\n            /* \"#utility.yul\":595:607   */\n          revert\n            /* \"#utility.yul\":557:609   */\n        tag_80:\n            /* \"#utility.yul\":628:657   */\n          tag_81\n            /* \"#utility.yul\":647:656   */\n          dup5\n            /* \"#utility.yul\":628:657   */\n          tag_73\n          jump\t// in\n        tag_81:\n            /* \"#utility.yul\":618:657   */\n          swap3\n          pop\n            /* \"#utility.yul\":708:710   */\n          0x20\n            /* \"#utility.yul\":697:706   */\n          dup5\n            /* \"#utility.yul\":693:711   */\n          add\n            /* \"#utility.yul\":680:712   */\n          calldataload\n            /* \"#utility.yul\":731:749   */\n          0xffffffffffffffff\n            /* \"#utility.yul\":772:774   */\n          dup1\n            /* \"#utility.yul\":764:770   */\n          dup3\n            /* \"#utility.yul\":761:775   */\n          gt\n            /* \"#utility.yul\":758:792   */\n          iszero\n          tag_82\n          jumpi\n            /* \"#utility.yul\":788:789   */\n          0x00\n            /* \"#utility.yul\":785:786   */\n          dup1\n            /* \"#utility.yul\":778:790   */\n          revert\n            /* \"#utility.yul\":758:792   */\n        tag_82:\n            /* \"#utility.yul\":826:832   */\n          dup2\n            /* \"#utility.yul\":815:824   */\n          dup7\n            /* \"#utility.yul\":811:833   */\n          add\n            /* \"#utility.yul\":801:833   */\n          swap2\n          pop\n            /* \"#utility.yul\":871:878   */\n          dup7\n            /* \"#utility.yul\":864:868   */\n          0x1f\n            /* \"#utility.yul\":860:862   */\n          dup4\n            /* \"#utility.yul\":856:869   */\n          add\n            /* \"#utility.yul\":852:879   */\n          slt\n            /* \"#utility.yul\":842:897   */\n          tag_83\n          jumpi\n            /* \"#utility.yul\":893:894   */\n          0x00\n            /* \"#utility.yul\":890:891   */\n          dup1\n            /* \"#utility.yul\":883:895   */\n          revert\n            /* \"#utility.yul\":842:897   */\n        tag_83:\n            /* \"#utility.yul\":933:935   */\n          dup2\n            /* \"#utility.yul\":920:936   */\n          calldataload\n            /* \"#utility.yul\":959:961   */\n          dup2\n            /* \"#utility.yul\":951:957   */\n          dup2\n            /* \"#utility.yul\":948:962   */\n          gt\n            /* \"#utility.yul\":945:979   */\n          iszero\n          tag_84\n          jumpi\n            /* \"#utility.yul\":975:976   */\n          0x00\n            /* \"#utility.yul\":972:973   */\n          dup1\n            /* \"#utility.yul\":965:977   */\n          revert\n            /* \"#utility.yul\":945:979   */\n        tag_84:\n            /* \"#utility.yul\":1028:1035   */\n          dup8\n            /* \"#utility.yul\":1023:1025   */\n          0x20\n            /* \"#utility.yul\":1013:1019   */\n          dup3\n            /* \"#utility.yul\":1010:1011   */\n          0x06\n            /* \"#utility.yul\":1006:1020   */\n          shl\n            /* \"#utility.yul\":1002:1004   */\n          dup6\n            /* \"#utility.yul\":998:1021   */\n          add\n            /* \"#utility.yul\":994:1026   */\n          add\n            /* \"#utility.yul\":991:1036   */\n          gt\n            /* \"#utility.yul\":988:1053   */\n          iszero\n          tag_85\n          jumpi\n            /* \"#utility.yul\":1049:1050   */\n          0x00\n            /* \"#utility.yul\":1046:1047   */\n          dup1\n            /* \"#utility.yul\":1039:1051   */\n          revert\n            /* \"#utility.yul\":988:1053   */\n        tag_85:\n            /* \"#utility.yul\":1080:1082   */\n          0x20\n            /* \"#utility.yul\":1076:1078   */\n          dup4\n            /* \"#utility.yul\":1072:1083   */\n          add\n            /* \"#utility.yul\":1062:1083   */\n          swap5\n          pop\n            /* \"#utility.yul\":1102:1108   */\n          dup1\n            /* \"#utility.yul\":1092:1108   */\n          swap4\n          pop\n          pop\n          pop\n          pop\n            /* \"#utility.yul\":400:1114   */\n          swap3\n          pop\n          swap3\n          pop\n          swap3\n          jump\t// out\n            /* \"#utility.yul\":1119:1246   */\n        tag_21:\n            /* \"#utility.yul\":1180:1190   */\n          0x4e487b71\n            /* \"#utility.yul\":1175:1178   */\n          0xe0\n            /* \"#utility.yul\":1171:1191   */\n          shl\n            /* \"#utility.yul\":1168:1169   */\n          0x00\n            /* \"#utility.yul\":1161:1192   */\n          mstore\n            /* \"#utility.yul\":1211:1215   */\n          0x32\n            /* \"#utility.yul\":1208:1209   */\n          0x04\n            /* \"#utility.yul\":1201:1216   */\n          mstore\n            /* \"#utility.yul\":1235:1239   */\n          0x24\n            /* \"#utility.yul\":1232:1233   */\n          0x00\n            /* \"#utility.yul\":1225:1240   */\n          revert\n            /* \"#utility.yul\":1251:1437   */\n        tag_23:\n            /* \"#utility.yul\":1310:1316   */\n          0x00\n            /* \"#utility.yul\":1363:1365   */\n          0x20\n            /* \"#utility.yul\":1351:1360   */\n          dup3\n            /* \"#utility.yul\":1342:1349   */\n          dup5\n            /* \"#utility.yul\":1338:1361   */\n          sub\n            /* \"#utility.yul\":1334:1366   */\n          slt\n            /* \"#utility.yul\":1331:1383   */\n          iszero\n          tag_88\n          jumpi\n            /* \"#utility.yul\":1379:1380   */\n          0x00\n            /* \"#utility.yul\":1376:1377   */\n          dup1\n            /* \"#utility.yul\":1369:1381   */\n          revert\n            /* \"#utility.yul\":1331:1383   */\n        tag_88:\n            /* \"#utility.yul\":1402:1431   */\n          tag_89\n            /* \"#utility.yul\":1421:1430   */\n          dup3\n            /* \"#utility.yul\":1402:1431   */\n          tag_73\n          jump\t// in\n        tag_89:\n            /* \"#utility.yul\":1392:1431   */\n          swap4\n            /* \"#utility.yul\":1251:1437   */\n          swap3\n          pop\n          pop\n          pop\n          jump\t// out\n            /* \"#utility.yul\":1822:2099   */\n        tag_38:\n            /* \"#utility.yul\":1889:1895   */\n          0x00\n            /* \"#utility.yul\":1942:1944   */\n          0x20\n            /* \"#utility.yul\":1930:1939   */\n          dup3\n            /* \"#utility.yul\":1921:1928   */\n          dup5\n            /* \"#utility.yul\":1917:1940   */\n          sub\n            /* \"#utility.yul\":1913:1945   */\n          slt\n            /* \"#utility.yul\":1910:1962   */\n          iszero\n          tag_92\n          jumpi\n            /* \"#utility.yul\":1958:1959   */\n          0x00\n            /* \"#utility.yul\":1955:1956   */\n          dup1\n            /* \"#utility.yul\":1948:1960   */\n          revert\n            /* \"#utility.yul\":1910:1962   */\n        tag_92:\n            /* \"#utility.yul\":1990:1999   */\n          dup2\n            /* \"#utility.yul\":1984:2000   */\n          mload\n            /* \"#utility.yul\":2043:2048   */\n          dup1\n            /* \"#utility.yul\":2036:2049   */\n          iszero\n            /* \"#utility.yul\":2029:2050   */\n          iszero\n            /* \"#utility.yul\":2022:2027   */\n          dup2\n            /* \"#utility.yul\":2019:2051   */\n          eq\n            /* \"#utility.yul\":2009:2069   */\n          tag_89\n          jumpi\n            /* \"#utility.yul\":2065:2066   */\n          0x00\n            /* \"#utility.yul\":2062:2063   */\n          dup1\n            /* \"#utility.yul\":2055:2067   */\n          revert\n            /* \"#utility.yul\":2922:3172   */\n        tag_74:\n            /* \"#utility.yul\":3007:3008   */\n          0x00\n            /* \"#utility.yul\":3017:3130   */\n        tag_97:\n            /* \"#utility.yul\":3031:3037   */\n          dup4\n            /* \"#utility.yul\":3028:3029   */\n          dup2\n            /* \"#utility.yul\":3025:3038   */\n          lt\n            /* \"#utility.yul\":3017:3130   */\n          iszero\n          tag_99\n          jumpi\n            /* \"#utility.yul\":3107:3118   */\n          dup2\n          dup2\n          add\n            /* \"#utility.yul\":3101:3119   */\n          mload\n            /* \"#utility.yul\":3088:3099   */\n          dup4\n          dup3\n          add\n            /* \"#utility.yul\":3081:3120   */\n          mstore\n            /* \"#utility.yul\":3053:3055   */\n          0x20\n            /* \"#utility.yul\":3046:3056   */\n          add\n            /* \"#utility.yul\":3017:3130   */\n          jump(tag_97)\n        tag_99:\n          pop\n          pop\n            /* \"#utility.yul\":3164:3165   */\n          0x00\n            /* \"#utility.yul\":3146:3162   */\n          swap2\n          add\n            /* \"#utility.yul\":3139:3166   */\n          mstore\n            /* \"#utility.yul\":2922:3172   */\n          jump\t// out\n            /* \"#utility.yul\":3177:3464   */\n        tag_50:\n            /* \"#utility.yul\":3306:3309   */\n          0x00\n            /* \"#utility.yul\":3344:3350   */\n          dup3\n            /* \"#utility.yul\":3338:3351   */\n          mload\n            /* \"#utility.yul\":3360:3426   */\n          tag_101\n            /* \"#utility.yul\":3419:3425   */\n          dup2\n            /* \"#utility.yul\":3414:3417   */\n          dup5\n            /* \"#utility.yul\":3407:3411   */\n          0x20\n            /* \"#utility.yul\":3399:3405   */\n          dup8\n            /* \"#utility.yul\":3395:3412   */\n          add\n            /* \"#utility.yul\":3360:3426   */\n          tag_74\n          jump\t// in\n        tag_101:\n            /* \"#utility.yul\":3442:3458   */\n          swap2\n          swap1\n          swap2\n          add\n          swap3\n            /* \"#utility.yul\":3177:3464   */\n          swap2\n          pop\n          pop\n          jump\t// out\n            /* \"#utility.yul\":3827:4223   */\n        tag_72:\n            /* \"#utility.yul\":3976:3978   */\n          0x20\n            /* \"#utility.yul\":3965:3974   */\n          dup2\n            /* \"#utility.yul\":3958:3979   */\n          mstore\n            /* \"#utility.yul\":3939:3943   */\n          0x00\n            /* \"#utility.yul\":4008:4014   */\n          dup3\n            /* \"#utility.yul\":4002:4015   */\n          mload\n            /* \"#utility.yul\":4051:4057   */\n          dup1\n            /* \"#utility.yul\":4046:4048   */\n          0x20\n            /* \"#utility.yul\":4035:4044   */\n          dup5\n            /* \"#utility.yul\":4031:4049   */\n          add\n            /* \"#utility.yul\":4024:4058   */\n          mstore\n            /* \"#utility.yul\":4067:4146   */\n          tag_104\n            /* \"#utility.yul\":4139:4145   */\n          dup2\n            /* \"#utility.yul\":4134:4136   */\n          0x40\n            /* \"#utility.yul\":4123:4132   */\n          dup6\n            /* \"#utility.yul\":4119:4137   */\n          add\n            /* \"#utility.yul\":4114:4116   */\n          0x20\n            /* \"#utility.yul\":4106:4112   */\n          dup8\n            /* \"#utility.yul\":4102:4117   */\n          add\n            /* \"#utility.yul\":4067:4146   */\n          tag_74\n          jump\t// in\n        tag_104:\n            /* \"#utility.yul\":4207:4209   */\n          0x1f\n            /* \"#utility.yul\":4186:4201   */\n          add\n          not(0x1f)\n            /* \"#utility.yul\":4182:4211   */\n          and\n            /* \"#utility.yul\":4167:4212   */\n          swap2\n          swap1\n          swap2\n          add\n            /* \"#utility.yul\":4214:4216   */\n          0x40\n            /* \"#utility.yul\":4163:4217   */\n          add\n          swap3\n            /* \"#utility.yul\":3827:4223   */\n          swap2\n          pop\n          pop\n          jump\t// out\n\n        auxdata: 0xa2646970667358221220e51d3d4518f4977d917b5c3f797ee153602de0c375d59dc0793b1676cd05b2ed64736f6c63430008130033\n    }\n}\n",
				"bytecode": {
					"linkReferences": {},
					"object": "60a060405234801561001057600080fd5b5061001a33610065565b6000805460ff60a01b1916905560018055604051610037906100b5565b604051809103906000f080158015610053573d6000803e3d6000fd5b506001600160a01b03166080526100c2565b600080546001600160a01b038381166001600160a01b0319831681178455604051919092169283917f8be0079c531659141344cd1fd0a4f28419497f9722a3daafe3b4186f6b6457e09190a35050565b61060e80611a0983390190565b6080516119186100f160003960008181609d015281816102c7015281816107110152610be401526119186000f3fe60806040526004361061007f5760003560e01c80638456cb591161004e5780638456cb59146101325780638da5cb5b14610147578063f2fde38b14610165578063f41b2db61461018557600080fd5b80632a709b141461008b5780633f4ba83a146100dc5780635c975abb146100f3578063715018a61461011d57600080fd5b3661008657005b600080fd5b34801561009757600080fd5b506100bf7f000000000000000000000000000000000000000000000000000000000000000081565b6040516001600160a01b0390911681526020015b60405180910390f35b3480156100e857600080fd5b506100f1610198565b005b3480156100ff57600080fd5b50600054600160a01b900460ff1660405190151581526020016100d3565b34801561012957600080fd5b506100f16101aa565b34801561013e57600080fd5b506100f16101bc565b34801561015357600080fd5b506000546001600160a01b03166100bf565b34801561017157600080fd5b506100f1610180366004611349565b6101cc565b6100f161019336600461136b565b61024a565b6101a061036f565b6101a86103c9565b565b6101b261036f565b6101a8600061041e565b6101c461036f565b6101a861046e565b6101d461036f565b6001600160a01b03811661023e5760405162461bcd60e51b815260206004820152602660248201527f4f776e61626c653a206e6577206f776e657220697320746865207a65726f206160448201526564647265737360d01b60648201526084015b60405180910390fd5b6102478161041e565b50565b6102526104b1565b61025a61050a565b61026a6080840160608501611349565b6001600160a01b0316336001600160a01b0316146102bd576102926080840160608501611349565b6040516302d9d9c960e31b81526001600160a01b039091166004820152336024820152604401610235565b6001600160a01b037f0000000000000000000000000000000000000000000000000000000000000000166377fc3fa86102fc6080860160608701611349565b610306868061140d565b6040518463ffffffff1660e01b81526004016103249392919061145e565b600060405180830381600087803b15801561033e57600080fd5b505af1158015610352573d6000803e3d6000fd5b50505050610361838383610557565b61036a60018055565b505050565b6000546001600160a01b031633146101a85760405162461bcd60e51b815260206004820181905260248201527f4f776e61626c653a2063616c6c6572206973206e6f7420746865206f776e65726044820152606401610235565b6103d1610612565b6000805460ff60a01b191690557f5db9ee0a495bf2e6ff9c91a7834c1ba4fdd244a5e8aa4e537bd38aeae4b073aa335b6040516001600160a01b03909116815260200160405180910390a1565b600080546001600160a01b038381166001600160a01b0319831681178455604051919092169283917f8be0079c531659141344cd1fd0a4f28419497f9722a3daafe3b4186f6b6457e09190a35050565b61047661050a565b6000805460ff60a01b1916600160a01b1790557f62e78cea01bee320cd4e420270b5ea74000d11b0c9f74754ebdbfc544b05a2586104013390565b6002600154036105035760405162461bcd60e51b815260206004820152601f60248201527f5265656e7472616e637947756172643a207265656e7472616e742063616c6c006044820152606401610235565b6002600155565b600054600160a01b900460ff16156101a85760405162461bcd60e51b815260206004820152601060248201526f14185d5cd8589b194e881c185d5cd95960821b6044820152606401610235565b6105618282610662565b610597610571602085018561140d565b61058160a0870160808801611349565b61058e60408801886114c1565b60200135610965565b6105ac6105a760408501856114c1565b610ba5565b6105bc60a0840160808501611349565b6001600160a01b0316336001600160a01b0316846040516105dd91906115f2565b604051908190038120907f1ba5b6ed656994657175705961138c96bd8ec133c35817fa85903f450129e0b190600090a4505050565b600054600160a01b900460ff166101a85760405162461bcd60e51b815260206004820152601460248201527314185d5cd8589b194e881b9bdd081c185d5cd95960621b6044820152606401610235565b8060005b8181101561095f5736848483818110610681576106816116a7565b905060200281019061069391906116bd565b90506000808036816106a86020870187611349565b60208701356106ba60408901896116d3565b6106c760608b018b61140d565b955095508080601f01602080910402602001604051908101604052809392919081815260200183838082843760009201919091525094995092975090955050506001600160a01b037f0000000000000000000000000000000000000000000000000000000000000000811690871603905061076057604051631e055a2960e21b81526001600160a01b0386166004820152602401610235565b825160009082825b818110156108d45736868683818110610783576107836116a7565b604002919091019150600090508061079e6020840184611349565b6107ae604085016020860161171a565b90925090506001600160a01b0382166107c957479a506108c6565b6040516370a0823160e01b81523060048201526001600160a01b038316906370a0823190602401602060405180830381865afa15801561080d573d6000803e3d6000fd5b505050506040513d601f19601f82011682018060405250810190610831919061173d565b965061083e828d89610d65565b60008160030b126108c657600381900b61085a8b600083610df4565b60408051602081018b90520160408051601f198184030181529190526108a161088484602061176c565b61088f85602061176c565b610899908c61177f565b8f9190610df4565b6040516020016108b3939291906117b6565b6040516020818303038152906040529a50505b836001019350505050610768565b50600080896001600160a01b031689896040516108f191906117f9565b60006040518083038185875af1925050503d806000811461092e576040519150601f19603f3d011682016040523d82523d6000602084013e610933565b606091505b509150915081610949576109498a8a8a84610f01565b8b6001019b505050505050505050505050610666565b50505050565b600083815b81811015610b9c5736878783818110610985576109856116a7565b60400291909101915060009050806109a06020840184611349565b91505060208201356001600160a01b038216610a8d57479550808610156109f357604051636a67a2d160e11b81526001600160a01b03831660048201526024810182905260448101879052606401610235565b86861115610a8857610a05878761177f565b95506000886001600160a01b03168760405160006040518083038185875af1925050503d8060008114610a54576040519150601f19603f3d011682016040523d82523d6000602084013e610a59565b606091505b5050905080610a865760405163464e254d60e01b81526001600160a01b038a166004820152602401610235565b505b610b4b565b6040516370a0823160e01b81523060048201526001600160a01b038316906370a0823190602401602060405180830381865afa158015610ad1573d6000803e3d6000fd5b505050506040513d601f19601f82011682018060405250810190610af5919061173d565b955080861015610b3157604051636a67a2d160e11b81526001600160a01b03831660048201526024810182905260448101879052606401610235565b8515610b4b57610b4b6001600160a01b0383168988610f31565b816001600160a01b03167feaf449319c042c9ba3474fa0c5329eb58cd1f23be110cdbf9d697b8d303dac1587604051610b8691815260200190565b60405180910390a283600101935050505061096a565b50505050505050565b6000803681610bb76020860186611349565b6020860135610bc960408801886116d3565b929650909450925090506001600160a01b03841615610d5e577f00000000000000000000000000000000000000000000000000000000000000006001600160a01b0316846001600160a01b031603610c3f57604051631e055a2960e21b81526001600160a01b0385166004820152602401610235565b82471015610c6957604051633a6465f360e11b815247600482015260248101849052604401610235565b600080856001600160a01b0316858585604051610c8792919061180b565b60006040518083038185875af1925050503d8060008114610cc4576040519150601f19603f3d011682016040523d82523d6000602084013e610cc9565b606091505b509150915081610d1657610d16868686868080601f016020809104026020016040519081016040528093929190818152602001838380828437600092019190915250879250610f01915050565b856001600160a01b03167f6c936258f37a22c831493e49cb45429bdf7b6bb0e261f271a15f084e5b08aaff868686604051610d539392919061181b565b60405180910390a250505b5050505050565b604051636eb1769f60e11b81523060048201526001600160a01b03838116602483015282919085169063dd62ed3e90604401602060405180830381865afa158015610db4573d6000803e3d6000fd5b505050506040513d601f19601f82011682018060405250810190610dd8919061173d565b101561036a5761036a6001600160a01b03841683600019610f94565b606081610e0281601f61176c565b1015610e415760405162461bcd60e51b815260206004820152600e60248201526d736c6963655f6f766572666c6f7760901b6044820152606401610235565b610e4b828461176c565b84511015610e8f5760405162461bcd60e51b8152602060048201526011602482015270736c6963655f6f75744f66426f756e647360781b6044820152606401610235565b606082158015610eae5760405191506000825260208201604052610ef8565b6040519150601f8416801560200281840101858101878315602002848b0101015b81831015610ee7578051835260209283019201610ecf565b5050858452601f01601f1916604052505b50949350505050565b8051600003610f295783838360405163e1eec8f160e01b81526004016102359392919061187d565b805181602001fd5b6040516001600160a01b03831660248201526044810182905261036a90849063a9059cbb60e01b906064015b60408051601f198184030181529190526020810180516001600160e01b03166001600160e01b03199093169290921790915261101f565b604080516001600160a01b038416602482015260448082018490528251808303909101815260649091019091526020810180516001600160e01b031663095ea7b360e01b179052610fe584826110f4565b61095f576040516001600160a01b03841660248201526000604482015261101990859063095ea7b360e01b90606401610f5d565b61095f84825b6000611074826040518060400160405280602081526020017f5361666545524332303a206c6f772d6c6576656c2063616c6c206661696c6564815250856001600160a01b031661119d9092919063ffffffff16565b905080516000148061109557508080602001905181019061109591906118ad565b61036a5760405162461bcd60e51b815260206004820152602a60248201527f5361666545524332303a204552433230206f7065726174696f6e20646964206e6044820152691bdd081cdd58d8d9595960b21b6064820152608401610235565b6000806000846001600160a01b03168460405161111191906117f9565b6000604051808303816000865af19150503d806000811461114e576040519150601f19603f3d011682016040523d82523d6000602084013e611153565b606091505b509150915081801561117d57508051158061117d57508080602001905181019061117d91906118ad565b801561119257506001600160a01b0385163b15155b925050505b92915050565b60606111ac84846000856111b4565b949350505050565b6060824710156112155760405162461bcd60e51b815260206004820152602660248201527f416464726573733a20696e73756666696369656e742062616c616e636520666f6044820152651c8818d85b1b60d21b6064820152608401610235565b600080866001600160a01b0316858760405161123191906117f9565b60006040518083038185875af1925050503d806000811461126e576040519150601f19603f3d011682016040523d82523d6000602084013e611273565b606091505b50915091506112848783838761128f565b979650505050505050565b606083156112fe5782516000036112f7576001600160a01b0385163b6112f75760405162461bcd60e51b815260206004820152601d60248201527f416464726573733a2063616c6c20746f206e6f6e2d636f6e74726163740000006044820152606401610235565b50816111ac565b6111ac83838151156113135781518083602001fd5b8060405162461bcd60e51b815260040161023591906118cf565b80356001600160a01b038116811461134457600080fd5b919050565b60006020828403121561135b57600080fd5b6113648261132d565b9392505050565b60008060006040848603121561138057600080fd5b833567ffffffffffffffff8082111561139857600080fd5b9085019060a082880312156113ac57600080fd5b909350602085013590808211156113c257600080fd5b818601915086601f8301126113d657600080fd5b8135818111156113e557600080fd5b8760208260051b85010111156113fa57600080fd5b6020830194508093505050509250925092565b6000808335601e1984360301811261142457600080fd5b83018035915067ffffffffffffffff82111561143f57600080fd5b6020019150600681901b360382131561145757600080fd5b9250929050565b6001600160a01b03848116825260406020808401829052838201859052600092869160608601855b888110156114b357836114988661132d565b16825284830135838301529385019390850190600101611486565b509998505050505050505050565b60008235605e198336030181126114d757600080fd5b9190910192915050565b6000808335601e198436030181126114f857600080fd5b830160208101925035905067ffffffffffffffff81111561151857600080fd5b8060061b360382131561145757600080fd5b6001600160a01b0361153b8261132d565b168252602090810135910152565b60008235605e1983360301811261155f57600080fd5b90910192915050565b6001600160a01b036115798261132d565b1682526020810135602083015260006040820135601e1983360301811261159f57600080fd5b820160208101903567ffffffffffffffff8111156115bc57600080fd5b8036038213156115cb57600080fd5b808260408701376000604082870101526040601f19601f8301168601019250505092915050565b60006115fe83846114e1565b8360005b8281101561162757611614828561152a565b6040938401939190910190600101611602565b5061163560208701876114e1565b935091506000905b838210156116625761164f818461152a565b604092830192600192909201910161163d565b61128461169b61167e8361167960408c018c611549565b611568565b61168a60608b0161132d565b6001600160a01b0316815260200190565b61168a60808a0161132d565b634e487b7160e01b600052603260045260246000fd5b60008235607e198336030181126114d757600080fd5b6000808335601e198436030181126116ea57600080fd5b83018035915067ffffffffffffffff82111561170557600080fd5b60200191503681900382131561145757600080fd5b60006020828403121561172c57600080fd5b81358060030b811461136457600080fd5b60006020828403121561174f57600080fd5b5051919050565b634e487b7160e01b600052601160045260246000fd5b8082018082111561119757611197611756565b8181038181111561119757611197611756565b60005b838110156117ad578181015183820152602001611795565b50506000910152565b600084516117c8818460208901611792565b8451908301906117dc818360208901611792565b84519101906117ef818360208801611792565b0195945050505050565b600082516114d7818460208701611792565b8183823760009101908152919050565b83815260406020820152816040820152818360608301376000818301606090810191909152601f909201601f1916010192915050565b60008151808452611869816020860160208601611792565b601f01601f19169290920160200192915050565b60018060a01b03841681528260208201526060604082015260006118a46060830184611851565b95945050505050565b6000602082840312156118bf57600080fd5b8151801515811461136457600080fd5b602081526000611364602083018461185156fea26469706673582212201cbe5bfd2b08d57a41371e0142e93556670e8e453f85acb5f7c10afeca0a13f764736f6c6343000813003360a060405234801561001057600080fd5b50336080526080516105d96100356000396000818160400152609e01526105d96000f3fe608060405234801561001057600080fd5b50600436106100365760003560e01c8063262d61521461003b57806377fc3fa81461007e575b600080fd5b6100627f000000000000000000000000000000000000000000000000000000000000000081565b6040516001600160a01b03909116815260200160405180910390f35b61009161008c366004610450565b610093565b005b336001600160a01b037f000000000000000000000000000000000000000000000000000000000000000016146100e35760405163403e63e960e01b81523360048201526024015b60405180910390fd5b8060005b818110156101635736848483818110610102576101026104d6565b6001909401936040029190910191506000905061012260208301836104ec565b6001600160a01b03160361013657506100e7565b61015d86336020840180359061014c90866104ec565b6001600160a01b031692919061016a565b506100e7565b5050505050565b604080516001600160a01b0385811660248301528416604482015260648082018490528251808303909101815260849091019091526020810180516001600160e01b03166323b872dd60e01b1790526101c49085906101ca565b50505050565b600061021f826040518060400160405280602081526020017f5361666545524332303a206c6f772d6c6576656c2063616c6c206661696c6564815250856001600160a01b03166102a49092919063ffffffff16565b9050805160001480610240575080806020019051810190610240919061050e565b61029f5760405162461bcd60e51b815260206004820152602a60248201527f5361666545524332303a204552433230206f7065726174696f6e20646964206e6044820152691bdd081cdd58d8d9595960b21b60648201526084016100da565b505050565b60606102b384846000856102bb565b949350505050565b60608247101561031c5760405162461bcd60e51b815260206004820152602660248201527f416464726573733a20696e73756666696369656e742062616c616e636520666f6044820152651c8818d85b1b60d21b60648201526084016100da565b600080866001600160a01b031685876040516103389190610554565b60006040518083038185875af1925050503d8060008114610375576040519150601f19603f3d011682016040523d82523d6000602084013e61037a565b606091505b509150915061038b87838387610396565b979650505050505050565b606083156104055782516000036103fe576001600160a01b0385163b6103fe5760405162461bcd60e51b815260206004820152601d60248201527f416464726573733a2063616c6c20746f206e6f6e2d636f6e747261637400000060448201526064016100da565b50816102b3565b6102b3838381511561041a5781518083602001fd5b8060405162461bcd60e51b81526004016100da9190610570565b80356001600160a01b038116811461044b57600080fd5b919050565b60008060006040848603121561046557600080fd5b61046e84610434565b9250602084013567ffffffffffffffff8082111561048b57600080fd5b818601915086601f83011261049f57600080fd5b8135818111156104ae57600080fd5b8760208260061b85010111156104c357600080fd5b6020830194508093505050509250925092565b634e487b7160e01b600052603260045260246000fd5b6000602082840312156104fe57600080fd5b61050782610434565b9392505050565b60006020828403121561052057600080fd5b8151801515811461050757600080fd5b60005b8381101561054b578181015183820152602001610533565b50506000910152565b60008251610566818460208701610530565b9190910192915050565b602081526000825180602084015261058f816040850160208701610530565b601f01601f1916919091016040019291505056fea2646970667358221220e51d3d4518f4977d917b5c3f797ee153602de0c375d59dc0793b1676cd05b2ed64736f6c63430008130033",
					"opcodes": "PUSH1 0xA0 PUSH1 0x40 MSTORE CALLVALUE DUP1 ISZERO PUSH2 0x10 JUMPI PUSH1 0x0 DUP1 REVERT JUMPDEST POP PUSH2 0x1A CALLER PUSH2 0x65 JUMP JUMPDEST PUSH1 0x0 DUP1 SLOAD PUSH1 0xFF PUSH1 0xA0 SHL NOT AND SWAP1 SSTORE PUSH1 0x1 DUP1 SSTORE PUSH1 0x40 MLOAD PUSH2 0x37 SWAP1 PUSH2 0xB5 JUMP JUMPDEST PUSH1 0x40 MLOAD DUP1 SWAP2 SUB SWAP1 PUSH1 0x0 CREATE DUP1 ISZERO DUP1 ISZERO PUSH2 0x53 JUMPI RETURNDATASIZE PUSH1 0x0 DUP1 RETURNDATACOPY RETURNDATASIZE PUSH1 0x0 REVERT JUMPDEST POP PUSH1 0x1 PUSH1 0x1 PUSH1 0xA0 SHL SUB AND PUSH1 0x80 MSTORE PUSH2 0xC2 JUMP JUMPDEST PUSH1 0x0 DUP1 SLOAD PUSH1 0x1 PUSH1 0x1 PUSH1 0xA0 SHL SUB DUP4 DUP2 AND PUSH1 0x1 PUSH1 0x1 PUSH1 0xA0 SHL SUB NOT DUP4 AND DUP2 OR DUP5 SSTORE PUSH1 0x40 MLOAD SWAP2 SWAP1 SWAP3 AND SWAP3 DUP4 SWAP2 PUSH32 0x8BE0079C531659141344CD1FD0A4F28419497F9722A3DAAFE3B4186F6B6457E0 SWAP2 SWAP1 LOG3 POP POP JUMP JUMPDEST PUSH2 0x60E DUP1 PUSH2 0x1A09 DUP4 CODECOPY ADD SWAP1 JUMP JUMPDEST PUSH1 0x80 MLOAD PUSH2 0x1918 PUSH2 0xF1 PUSH1 0x0 CODECOPY PUSH1 0x0 DUP2 DUP2 PUSH1 0x9D ADD MSTORE DUP2 DUP2 PUSH2 0x2C7 ADD MSTORE DUP2 DUP2 PUSH2 0x711 ADD MSTORE PUSH2 0xBE4 ADD MSTORE PUSH2 0x1918 PUSH1 0x0 RETURN INVALID PUSH1 0x80 PUSH1 0x40 MSTORE PUSH1 0x4 CALLDATASIZE LT PUSH2 0x7F JUMPI PUSH1 0x0 CALLDATALOAD PUSH1 0xE0 SHR DUP1 PUSH4 0x8456CB59 GT PUSH2 0x4E JUMPI DUP1 PUSH4 0x8456CB59 EQ PUSH2 0x132 JUMPI DUP1 PUSH4 0x8DA5CB5B EQ PUSH2 0x147 JUMPI DUP1 PUSH4 0xF2FDE38B EQ PUSH2 0x165 JUMPI DUP1 PUSH4 0xF41B2DB6 EQ PUSH2 0x185 JUMPI PUSH1 0x0 DUP1 REVERT JUMPDEST DUP1 PUSH4 0x2A709B14 EQ PUSH2 0x8B JUMPI DUP1 PUSH4 0x3F4BA83A EQ PUSH2 0xDC JUMPI DUP1 PUSH4 0x5C975ABB EQ PUSH2 0xF3 JUMPI DUP1 PUSH4 0x715018A6 EQ PUSH2 0x11D JUMPI PUSH1 0x0 DUP1 REVERT JUMPDEST CALLDATASIZE PUSH2 0x86 JUMPI STOP JUMPDEST PUSH1 0x0 DUP1 REVERT JUMPDEST CALLVALUE DUP1 ISZERO PUSH2 0x97 JUMPI PUSH1 0x0 DUP1 REVERT JUMPDEST POP PUSH2 0xBF PUSH32 0x0 DUP2 JUMP JUMPDEST PUSH1 0x40 MLOAD PUSH1 0x1 PUSH1 0x1 PUSH1 0xA0 SHL SUB SWAP1 SWAP2 AND DUP2 MSTORE PUSH1 0x20 ADD JUMPDEST PUSH1 0x40 MLOAD DUP1 SWAP2 SUB SWAP1 RETURN JUMPDEST CALLVALUE DUP1 ISZERO PUSH2 0xE8 JUMPI PUSH1 0x0 DUP1 REVERT JUMPDEST POP PUSH2 0xF1 PUSH2 0x198 JUMP JUMPDEST STOP JUMPDEST CALLVALUE DUP1 ISZERO PUSH2 0xFF JUMPI PUSH1 0x0 DUP1 REVERT JUMPDEST POP PUSH1 0x0 SLOAD PUSH1 0x1 PUSH1 0xA0 SHL SWAP1 DIV PUSH1 0xFF AND PUSH1 0x40 MLOAD SWAP1 ISZERO ISZERO DUP2 MSTORE PUSH1 0x20 ADD PUSH2 0xD3 JUMP JUMPDEST CALLVALUE DUP1 ISZERO PUSH2 0x129 JUMPI PUSH1 0x0 DUP1 REVERT JUMPDEST POP PUSH2 0xF1 PUSH2 0x1AA JUMP JUMPDEST CALLVALUE DUP1 ISZERO PUSH2 0x13E JUMPI PUSH1 0x0 DUP1 REVERT JUMPDEST POP PUSH2 0xF1 PUSH2 0x1BC JUMP JUMPDEST CALLVALUE DUP1 ISZERO PUSH2 0x153 JUMPI PUSH1 0x0 DUP1 REVERT JUMPDEST POP PUSH1 0x0 SLOAD PUSH1 0x1 PUSH1 0x1 PUSH1 0xA0 SHL SUB AND PUSH2 0xBF JUMP JUMPDEST CALLVALUE DUP1 ISZERO PUSH2 0x171 JUMPI PUSH1 0x0 DUP1 REVERT JUMPDEST POP PUSH2 0xF1 PUSH2 0x180 CALLDATASIZE PUSH1 0x4 PUSH2 0x1349 JUMP JUMPDEST PUSH2 0x1CC JUMP JUMPDEST PUSH2 0xF1 PUSH2 0x193 CALLDATASIZE PUSH1 0x4 PUSH2 0x136B JUMP JUMPDEST PUSH2 0x24A JUMP JUMPDEST PUSH2 0x1A0 PUSH2 0x36F JUMP JUMPDEST PUSH2 0x1A8 PUSH2 0x3C9 JUMP JUMPDEST JUMP JUMPDEST PUSH2 0x1B2 PUSH2 0x36F JUMP JUMPDEST PUSH2 0x1A8 PUSH1 0x0 PUSH2 0x41E JUMP JUMPDEST PUSH2 0x1C4 PUSH2 0x36F JUMP JUMPDEST PUSH2 0x1A8 PUSH2 0x46E JUMP JUMPDEST PUSH2 0x1D4 PUSH2 0x36F JUMP JUMPDEST PUSH1 0x1 PUSH1 0x1 PUSH1 0xA0 SHL SUB DUP2 AND PUSH2 0x23E JUMPI PUSH1 0x40 MLOAD PUSH3 0x461BCD PUSH1 0xE5 SHL DUP2 MSTORE PUSH1 0x20 PUSH1 0x4 DUP3 ADD MSTORE PUSH1 0x26 PUSH1 0x24 DUP3 ADD MSTORE PUSH32 0x4F776E61626C653A206E6577206F776E657220697320746865207A65726F2061 PUSH1 0x44 DUP3 ADD MSTORE PUSH6 0x646472657373 PUSH1 0xD0 SHL PUSH1 0x64 DUP3 ADD MSTORE PUSH1 0x84 ADD JUMPDEST PUSH1 0x40 MLOAD DUP1 SWAP2 SUB SWAP1 REVERT JUMPDEST PUSH2 0x247 DUP2 PUSH2 0x41E JUMP JUMPDEST POP JUMP JUMPDEST PUSH2 0x252 PUSH2 0x4B1 JUMP JUMPDEST PUSH2 0x25A PUSH2 0x50A JUMP JUMPDEST PUSH2 0x26A PUSH1 0x80 DUP5 ADD PUSH1 0x60 DUP6 ADD PUSH2 0x1349 JUMP JUMPDEST PUSH1 0x1 PUSH1 0x1 PUSH1 0xA0 SHL SUB AND CALLER PUSH1 0x1 PUSH1 0x1 PUSH1 0xA0 SHL SUB AND EQ PUSH2 0x2BD JUMPI PUSH2 0x292 PUSH1 0x80 DUP5 ADD PUSH1 0x60 DUP6 ADD PUSH2 0x1349 JUMP JUMPDEST PUSH1 0x40 MLOAD PUSH4 0x2D9D9C9 PUSH1 0xE3 SHL DUP2 MSTORE PUSH1 0x1 PUSH1 0x1 PUSH1 0xA0 SHL SUB SWAP1 SWAP2 AND PUSH1 0x4 DUP3 ADD MSTORE CALLER PUSH1 0x24 DUP3 ADD MSTORE PUSH1 0x44 ADD PUSH2 0x235 JUMP JUMPDEST PUSH1 0x1 PUSH1 0x1 PUSH1 0xA0 SHL SUB PUSH32 0x0 AND PUSH4 0x77FC3FA8 PUSH2 0x2FC PUSH1 0x80 DUP7 ADD PUSH1 0x60 DUP8 ADD PUSH2 0x1349 JUMP JUMPDEST PUSH2 0x306 DUP7 DUP1 PUSH2 0x140D JUMP JUMPDEST PUSH1 0x40 MLOAD DUP5 PUSH4 0xFFFFFFFF AND PUSH1 0xE0 SHL DUP2 MSTORE PUSH1 0x4 ADD PUSH2 0x324 SWAP4 SWAP3 SWAP2 SWAP1 PUSH2 0x145E JUMP JUMPDEST PUSH1 0x0 PUSH1 0x40 MLOAD DUP1 DUP4 SUB DUP2 PUSH1 0x0 DUP8 DUP1 EXTCODESIZE ISZERO DUP1 ISZERO PUSH2 0x33E JUMPI PUSH1 0x0 DUP1 REVERT JUMPDEST POP GAS CALL ISZERO DUP1 ISZERO PUSH2 0x352 JUMPI RETURNDATASIZE PUSH1 0x0 DUP1 RETURNDATACOPY RETURNDATASIZE PUSH1 0x0 REVERT JUMPDEST POP POP POP POP PUSH2 0x361 DUP4 DUP4 DUP4 PUSH2 0x557 JUMP JUMPDEST PUSH2 0x36A PUSH1 0x1 DUP1 SSTORE JUMP JUMPDEST POP POP POP JUMP JUMPDEST PUSH1 0x0 SLOAD PUSH1 0x1 PUSH1 0x1 PUSH1 0xA0 SHL SUB AND CALLER EQ PUSH2 0x1A8 JUMPI PUSH1 0x40 MLOAD PUSH3 0x461BCD PUSH1 0xE5 SHL DUP2 MSTORE PUSH1 0x20 PUSH1 0x4 DUP3 ADD DUP2 SWAP1 MSTORE PUSH1 0x24 DUP3 ADD MSTORE PUSH32 0x4F776E61626C653A2063616C6C6572206973206E6F7420746865206F776E6572 PUSH1 0x44 DUP3 ADD MSTORE PUSH1 0x64 ADD PUSH2 0x235 JUMP JUMPDEST PUSH2 0x3D1 PUSH2 0x612 JUMP JUMPDEST PUSH1 0x0 DUP1 SLOAD PUSH1 0xFF PUSH1 0xA0 SHL NOT AND SWAP1 SSTORE PUSH32 0x5DB9EE0A495BF2E6FF9C91A7834C1BA4FDD244A5E8AA4E537BD38AEAE4B073AA CALLER JUMPDEST PUSH1 0x40 MLOAD PUSH1 0x1 PUSH1 0x1 PUSH1 0xA0 SHL SUB SWAP1 SWAP2 AND DUP2 MSTORE PUSH1 0x20 ADD PUSH1 0x40 MLOAD DUP1 SWAP2 SUB SWAP1 LOG1 JUMP JUMPDEST PUSH1 0x0 DUP1 SLOAD PUSH1 0x1 PUSH1 0x1 PUSH1 0xA0 SHL SUB DUP4 DUP2 AND PUSH1 0x1 PUSH1 0x1 PUSH1 0xA0 SHL SUB NOT DUP4 AND DUP2 OR DUP5 SSTORE PUSH1 0x40 MLOAD SWAP2 SWAP1 SWAP3 AND SWAP3 DUP4 SWAP2 PUSH32 0x8BE0079C531659141344CD1FD0A4F28419497F9722A3DAAFE3B4186F6B6457E0 SWAP2 SWAP1 LOG3 POP POP JUMP JUMPDEST PUSH2 0x476 PUSH2 0x50A JUMP JUMPDEST PUSH1 0x0 DUP1 SLOAD PUSH1 0xFF PUSH1 0xA0 SHL NOT AND PUSH1 0x1 PUSH1 0xA0 SHL OR SWAP1 SSTORE PUSH32 0x62E78CEA01BEE320CD4E420270B5EA74000D11B0C9F74754EBDBFC544B05A258 PUSH2 0x401 CALLER SWAP1 JUMP JUMPDEST PUSH1 0x2 PUSH1 0x1 SLOAD SUB PUSH2 0x503 JUMPI PUSH1 0x40 MLOAD PUSH3 0x461BCD PUSH1 0xE5 SHL DUP2 MSTORE PUSH1 0x20 PUSH1 0x4 DUP3 ADD MSTORE PUSH1 0x1F PUSH1 0x24 DUP3 ADD MSTORE PUSH32 0x5265656E7472616E637947756172643A207265656E7472616E742063616C6C00 PUSH1 0x44 DUP3 ADD MSTORE PUSH1 0x64 ADD PUSH2 0x235 JUMP JUMPDEST PUSH1 0x2 PUSH1 0x1 SSTORE JUMP JUMPDEST PUSH1 0x0 SLOAD PUSH1 0x1 PUSH1 0xA0 SHL SWAP1 DIV PUSH1 0xFF AND ISZERO PUSH2 0x1A8 JUMPI PUSH1 0x40 MLOAD PUSH3 0x461BCD PUSH1 0xE5 SHL DUP2 MSTORE PUSH1 0x20 PUSH1 0x4 DUP3 ADD MSTORE PUSH1 0x10 PUSH1 0x24 DUP3 ADD MSTORE PUSH16 0x14185D5CD8589B194E881C185D5CD959 PUSH1 0x82 SHL PUSH1 0x44 DUP3 ADD MSTORE PUSH1 0x64 ADD PUSH2 0x235 JUMP JUMPDEST PUSH2 0x561 DUP3 DUP3 PUSH2 0x662 JUMP JUMPDEST PUSH2 0x597 PUSH2 0x571 PUSH1 0x20 DUP6 ADD DUP6 PUSH2 0x140D JUMP JUMPDEST PUSH2 0x581 PUSH1 0xA0 DUP8 ADD PUSH1 0x80 DUP9 ADD PUSH2 0x1349 JUMP JUMPDEST PUSH2 0x58E PUSH1 0x40 DUP9 ADD DUP9 PUSH2 0x14C1 JUMP JUMPDEST PUSH1 0x20 ADD CALLDATALOAD PUSH2 0x965 JUMP JUMPDEST PUSH2 0x5AC PUSH2 0x5A7 PUSH1 0x40 DUP6 ADD DUP6 PUSH2 0x14C1 JUMP JUMPDEST PUSH2 0xBA5 JUMP JUMPDEST PUSH2 0x5BC PUSH1 0xA0 DUP5 ADD PUSH1 0x80 DUP6 ADD PUSH2 0x1349 JUMP JUMPDEST PUSH1 0x1 PUSH1 0x1 PUSH1 0xA0 SHL SUB AND CALLER PUSH1 0x1 PUSH1 0x1 PUSH1 0xA0 SHL SUB AND DUP5 PUSH1 0x40 MLOAD PUSH2 0x5DD SWAP2 SWAP1 PUSH2 0x15F2 JUMP JUMPDEST PUSH1 0x40 MLOAD SWAP1 DUP2 SWAP1 SUB DUP2 KECCAK256 SWAP1 PUSH32 0x1BA5B6ED656994657175705961138C96BD8EC133C35817FA85903F450129E0B1 SWAP1 PUSH1 0x0 SWAP1 LOG4 POP POP POP JUMP JUMPDEST PUSH1 0x0 SLOAD PUSH1 0x1 PUSH1 0xA0 SHL SWAP1 DIV PUSH1 0xFF AND PUSH2 0x1A8 JUMPI PUSH1 0x40 MLOAD PUSH3 0x461BCD PUSH1 0xE5 SHL DUP2 MSTORE PUSH1 0x20 PUSH1 0x4 DUP3 ADD MSTORE PUSH1 0x14 PUSH1 0x24 DUP3 ADD MSTORE PUSH20 0x14185D5CD8589B194E881B9BDD081C185D5CD959 PUSH1 0x62 SHL PUSH1 0x44 DUP3 ADD MSTORE PUSH1 0x64 ADD PUSH2 0x235 JUMP JUMPDEST DUP1 PUSH1 0x0 JUMPDEST DUP2 DUP2 LT ISZERO PUSH2 0x95F JUMPI CALLDATASIZE DUP5 DUP5 DUP4 DUP2 DUP2 LT PUSH2 0x681 JUMPI PUSH2 0x681 PUSH2 0x16A7 JUMP JUMPDEST SWAP1 POP PUSH1 0x20 MUL DUP2 ADD SWAP1 PUSH2 0x693 SWAP2 SWAP1 PUSH2 0x16BD JUMP JUMPDEST SWAP1 POP PUSH1 0x0 DUP1 DUP1 CALLDATASIZE DUP2 PUSH2 0x6A8 PUSH1 0x20 DUP8 ADD DUP8 PUSH2 0x1349 JUMP JUMPDEST PUSH1 0x20 DUP8 ADD CALLDATALOAD PUSH2 0x6BA PUSH1 0x40 DUP10 ADD DUP10 PUSH2 0x16D3 JUMP JUMPDEST PUSH2 0x6C7 PUSH1 0x60 DUP12 ADD DUP12 PUSH2 0x140D JUMP JUMPDEST SWAP6 POP SWAP6 POP DUP1 DUP1 PUSH1 0x1F ADD PUSH1 0x20 DUP1 SWAP2 DIV MUL PUSH1 0x20 ADD PUSH1 0x40 MLOAD SWAP1 DUP2 ADD PUSH1 0x40 MSTORE DUP1 SWAP4 SWAP3 SWAP2 SWAP1 DUP2 DUP2 MSTORE PUSH1 0x20 ADD DUP4 DUP4 DUP1 DUP3 DUP5 CALLDATACOPY PUSH1 0x0 SWAP3 ADD SWAP2 SWAP1 SWAP2 MSTORE POP SWAP5 SWAP10 POP SWAP3 SWAP8 POP SWAP1 SWAP6 POP POP POP PUSH1 0x1 PUSH1 0x1 PUSH1 0xA0 SHL SUB PUSH32 0x0 DUP2 AND SWAP1 DUP8 AND SUB SWAP1 POP PUSH2 0x760 JUMPI PUSH1 0x40 MLOAD PUSH4 0x1E055A29 PUSH1 0xE2 SHL DUP2 MSTORE PUSH1 0x1 PUSH1 0x1 PUSH1 0xA0 SHL SUB DUP7 AND PUSH1 0x4 DUP3 ADD MSTORE PUSH1 0x24 ADD PUSH2 0x235 JUMP JUMPDEST DUP3 MLOAD PUSH1 0x0 SWAP1 DUP3 DUP3 JUMPDEST DUP2 DUP2 LT ISZERO PUSH2 0x8D4 JUMPI CALLDATASIZE DUP7 DUP7 DUP4 DUP2 DUP2 LT PUSH2 0x783 JUMPI PUSH2 0x783 PUSH2 0x16A7 JUMP JUMPDEST PUSH1 0x40 MUL SWAP2 SWAP1 SWAP2 ADD SWAP2 POP PUSH1 0x0 SWAP1 POP DUP1 PUSH2 0x79E PUSH1 0x20 DUP5 ADD DUP5 PUSH2 0x1349 JUMP JUMPDEST PUSH2 0x7AE PUSH1 0x40 DUP6 ADD PUSH1 0x20 DUP7 ADD PUSH2 0x171A JUMP JUMPDEST SWAP1 SWAP3 POP SWAP1 POP PUSH1 0x1 PUSH1 0x1 PUSH1 0xA0 SHL SUB DUP3 AND PUSH2 0x7C9 JUMPI SELFBALANCE SWAP11 POP PUSH2 0x8C6 JUMP JUMPDEST PUSH1 0x40 MLOAD PUSH4 0x70A08231 PUSH1 0xE0 SHL DUP2 MSTORE ADDRESS PUSH1 0x4 DUP3 ADD MSTORE PUSH1 0x1 PUSH1 0x1 PUSH1 0xA0 SHL SUB DUP4 AND SWAP1 PUSH4 0x70A08231 SWAP1 PUSH1 0x24 ADD PUSH1 0x20 PUSH1 0x40 MLOAD DUP1 DUP4 SUB DUP2 DUP7 GAS STATICCALL ISZERO DUP1 ISZERO PUSH2 0x80D JUMPI RETURNDATASIZE PUSH1 0x0 DUP1 RETURNDATACOPY RETURNDATASIZE PUSH1 0x0 REVERT JUMPDEST POP POP POP POP PUSH1 0x40 MLOAD RETURNDATASIZE PUSH1 0x1F NOT PUSH1 0x1F DUP3 ADD AND DUP3 ADD DUP1 PUSH1 0x40 MSTORE POP DUP2 ADD SWAP1 PUSH2 0x831 SWAP2 SWAP1 PUSH2 0x173D JUMP JUMPDEST SWAP7 POP PUSH2 0x83E DUP3 DUP14 DUP10 PUSH2 0xD65 JUMP JUMPDEST PUSH1 0x0 DUP2 PUSH1 0x3 SIGNEXTEND SLT PUSH2 0x8C6 JUMPI PUSH1 0x3 DUP2 SWAP1 SIGNEXTEND PUSH2 0x85A DUP12 PUSH1 0x0 DUP4 PUSH2 0xDF4 JUMP JUMPDEST PUSH1 0x40 DUP1 MLOAD PUSH1 0x20 DUP2 ADD DUP12 SWAP1 MSTORE ADD PUSH1 0x40 DUP1 MLOAD PUSH1 0x1F NOT DUP2 DUP5 SUB ADD DUP2 MSTORE SWAP2 SWAP1 MSTORE PUSH2 0x8A1 PUSH2 0x884 DUP5 PUSH1 0x20 PUSH2 0x176C JUMP JUMPDEST PUSH2 0x88F DUP6 PUSH1 0x20 PUSH2 0x176C JUMP JUMPDEST PUSH2 0x899 SWAP1 DUP13 PUSH2 0x177F JUMP JUMPDEST DUP16 SWAP2 SWAP1 PUSH2 0xDF4 JUMP JUMPDEST PUSH1 0x40 MLOAD PUSH1 0x20 ADD PUSH2 0x8B3 SWAP4 SWAP3 SWAP2 SWAP1 PUSH2 0x17B6 JUMP JUMPDEST PUSH1 0x40 MLOAD PUSH1 0x20 DUP2 DUP4 SUB SUB DUP2 MSTORE SWAP1 PUSH1 0x40 MSTORE SWAP11 POP POP JUMPDEST DUP4 PUSH1 0x1 ADD SWAP4 POP POP POP POP PUSH2 0x768 JUMP JUMPDEST POP PUSH1 0x0 DUP1 DUP10 PUSH1 0x1 PUSH1 0x1 PUSH1 0xA0 SHL SUB AND DUP10 DUP10 PUSH1 0x40 MLOAD PUSH2 0x8F1 SWAP2 SWAP1 PUSH2 0x17F9 JUMP JUMPDEST PUSH1 0x0 PUSH1 0x40 MLOAD DUP1 DUP4 SUB DUP2 DUP6 DUP8 GAS CALL SWAP3 POP POP POP RETURNDATASIZE DUP1 PUSH1 0x0 DUP2 EQ PUSH2 0x92E JUMPI PUSH1 0x40 MLOAD SWAP2 POP PUSH1 0x1F NOT PUSH1 0x3F RETURNDATASIZE ADD AND DUP3 ADD PUSH1 0x40 MSTORE RETURNDATASIZE DUP3 MSTORE RETURNDATASIZE PUSH1 0x0 PUSH1 0x20 DUP5 ADD RETURNDATACOPY PUSH2 0x933 JUMP JUMPDEST PUSH1 0x60 SWAP2 POP JUMPDEST POP SWAP2 POP SWAP2 POP DUP2 PUSH2 0x949 JUMPI PUSH2 0x949 DUP11 DUP11 DUP11 DUP5 PUSH2 0xF01 JUMP JUMPDEST DUP12 PUSH1 0x1 ADD SWAP12 POP POP POP POP POP POP POP POP POP POP POP POP PUSH2 0x666 JUMP JUMPDEST POP POP POP POP JUMP JUMPDEST PUSH1 0x0 DUP4 DUP2 JUMPDEST DUP2 DUP2 LT ISZERO PUSH2 0xB9C JUMPI CALLDATASIZE DUP8 DUP8 DUP4 DUP2 DUP2 LT PUSH2 0x985 JUMPI PUSH2 0x985 PUSH2 0x16A7 JUMP JUMPDEST PUSH1 0x40 MUL SWAP2 SWAP1 SWAP2 ADD SWAP2 POP PUSH1 0x0 SWAP1 POP DUP1 PUSH2 0x9A0 PUSH1 0x20 DUP5 ADD DUP5 PUSH2 0x1349 JUMP JUMPDEST SWAP2 POP POP PUSH1 0x20 DUP3 ADD CALLDATALOAD PUSH1 0x1 PUSH1 0x1 PUSH1 0xA0 SHL SUB DUP3 AND PUSH2 0xA8D JUMPI SELFBALANCE SWAP6 POP DUP1 DUP7 LT ISZERO PUSH2 0x9F3 JUMPI PUSH1 0x40 MLOAD PUSH4 0x6A67A2D1 PUSH1 0xE1 SHL DUP2 MSTORE PUSH1 0x1 PUSH1 0x1 PUSH1 0xA0 SHL SUB DUP4 AND PUSH1 0x4 DUP3 ADD MSTORE PUSH1 0x24 DUP2 ADD DUP3 SWAP1 MSTORE PUSH1 0x44 DUP2 ADD DUP8 SWAP1 MSTORE PUSH1 0x64 ADD PUSH2 0x235 JUMP JUMPDEST DUP7 DUP7 GT ISZERO PUSH2 0xA88 JUMPI PUSH2 0xA05 DUP8 DUP8 PUSH2 0x177F JUMP JUMPDEST SWAP6 POP PUSH1 0x0 DUP9 PUSH1 0x1 PUSH1 0x1 PUSH1 0xA0 SHL SUB AND DUP8 PUSH1 0x40 MLOAD PUSH1 0x0 PUSH1 0x40 MLOAD DUP1 DUP4 SUB DUP2 DUP6 DUP8 GAS CALL SWAP3 POP POP POP RETURNDATASIZE DUP1 PUSH1 0x0 DUP2 EQ PUSH2 0xA54 JUMPI PUSH1 0x40 MLOAD SWAP2 POP PUSH1 0x1F NOT PUSH1 0x3F RETURNDATASIZE ADD AND DUP3 ADD PUSH1 0x40 MSTORE RETURNDATASIZE DUP3 MSTORE RETURNDATASIZE PUSH1 0x0 PUSH1 0x20 DUP5 ADD RETURNDATACOPY PUSH2 0xA59 JUMP JUMPDEST PUSH1 0x60 SWAP2 POP JUMPDEST POP POP SWAP1 POP DUP1 PUSH2 0xA86 JUMPI PUSH1 0x40 MLOAD PUSH4 0x464E254D PUSH1 0xE0 SHL DUP2 MSTORE PUSH1 0x1 PUSH1 0x1 PUSH1 0xA0 SHL SUB DUP11 AND PUSH1 0x4 DUP3 ADD MSTORE PUSH1 0x24 ADD PUSH2 0x235 JUMP JUMPDEST POP JUMPDEST PUSH2 0xB4B JUMP JUMPDEST PUSH1 0x40 MLOAD PUSH4 0x70A08231 PUSH1 0xE0 SHL DUP2 MSTORE ADDRESS PUSH1 0x4 DUP3 ADD MSTORE PUSH1 0x1 PUSH1 0x1 PUSH1 0xA0 SHL SUB DUP4 AND SWAP1 PUSH4 0x70A08231 SWAP1 PUSH1 0x24 ADD PUSH1 0x20 PUSH1 0x40 MLOAD DUP1 DUP4 SUB DUP2 DUP7 GAS STATICCALL ISZERO DUP1 ISZERO PUSH2 0xAD1 JUMPI RETURNDATASIZE PUSH1 0x0 DUP1 RETURNDATACOPY RETURNDATASIZE PUSH1 0x0 REVERT JUMPDEST POP POP POP POP PUSH1 0x40 MLOAD RETURNDATASIZE PUSH1 0x1F NOT PUSH1 0x1F DUP3 ADD AND DUP3 ADD DUP1 PUSH1 0x40 MSTORE POP DUP2 ADD SWAP1 PUSH2 0xAF5 SWAP2 SWAP1 PUSH2 0x173D JUMP JUMPDEST SWAP6 POP DUP1 DUP7 LT ISZERO PUSH2 0xB31 JUMPI PUSH1 0x40 MLOAD PUSH4 0x6A67A2D1 PUSH1 0xE1 SHL DUP2 MSTORE PUSH1 0x1 PUSH1 0x1 PUSH1 0xA0 SHL SUB DUP4 AND PUSH1 0x4 DUP3 ADD MSTORE PUSH1 0x24 DUP2 ADD DUP3 SWAP1 MSTORE PUSH1 0x44 DUP2 ADD DUP8 SWAP1 MSTORE PUSH1 0x64 ADD PUSH2 0x235 JUMP JUMPDEST DUP6 ISZERO PUSH2 0xB4B JUMPI PUSH2 0xB4B PUSH1 0x1 PUSH1 0x1 PUSH1 0xA0 SHL SUB DUP4 AND DUP10 DUP9 PUSH2 0xF31 JUMP JUMPDEST DUP2 PUSH1 0x1 PUSH1 0x1 PUSH1 0xA0 SHL SUB AND PUSH32 0xEAF449319C042C9BA3474FA0C5329EB58CD1F23BE110CDBF9D697B8D303DAC15 DUP8 PUSH1 0x40 MLOAD PUSH2 0xB86 SWAP2 DUP2 MSTORE PUSH1 0x20 ADD SWAP1 JUMP JUMPDEST PUSH1 0x40 MLOAD DUP1 SWAP2 SUB SWAP1 LOG2 DUP4 PUSH1 0x1 ADD SWAP4 POP POP POP POP PUSH2 0x96A JUMP JUMPDEST POP POP POP POP POP POP POP JUMP JUMPDEST PUSH1 0x0 DUP1 CALLDATASIZE DUP2 PUSH2 0xBB7 PUSH1 0x20 DUP7 ADD DUP7 PUSH2 0x1349 JUMP JUMPDEST PUSH1 0x20 DUP7 ADD CALLDATALOAD PUSH2 0xBC9 PUSH1 0x40 DUP9 ADD DUP9 PUSH2 0x16D3 JUMP JUMPDEST SWAP3 SWAP7 POP SWAP1 SWAP5 POP SWAP3 POP SWAP1 POP PUSH1 0x1 PUSH1 0x1 PUSH1 0xA0 SHL SUB DUP5 AND ISZERO PUSH2 0xD5E JUMPI PUSH32 0x0 PUSH1 0x1 PUSH1 0x1 PUSH1 0xA0 SHL SUB AND DUP5 PUSH1 0x1 PUSH1 0x1 PUSH1 0xA0 SHL SUB AND SUB PUSH2 0xC3F JUMPI PUSH1 0x40 MLOAD PUSH4 0x1E055A29 PUSH1 0xE2 SHL DUP2 MSTORE PUSH1 0x1 PUSH1 0x1 PUSH1 0xA0 SHL SUB DUP6 AND PUSH1 0x4 DUP3 ADD MSTORE PUSH1 0x24 ADD PUSH2 0x235 JUMP JUMPDEST DUP3 SELFBALANCE LT ISZERO PUSH2 0xC69 JUMPI PUSH1 0x40 MLOAD PUSH4 0x3A6465F3 PUSH1 0xE1 SHL DUP2 MSTORE SELFBALANCE PUSH1 0x4 DUP3 ADD MSTORE PUSH1 0x24 DUP2 ADD DUP5 SWAP1 MSTORE PUSH1 0x44 ADD PUSH2 0x235 JUMP JUMPDEST PUSH1 0x0 DUP1 DUP6 PUSH1 0x1 PUSH1 0x1 PUSH1 0xA0 SHL SUB AND DUP6 DUP6 DUP6 PUSH1 0x40 MLOAD PUSH2 0xC87 SWAP3 SWAP2 SWAP1 PUSH2 0x180B JUMP JUMPDEST PUSH1 0x0 PUSH1 0x40 MLOAD DUP1 DUP4 SUB DUP2 DUP6 DUP8 GAS CALL SWAP3 POP POP POP RETURNDATASIZE DUP1 PUSH1 0x0 DUP2 EQ PUSH2 0xCC4 JUMPI PUSH1 0x40 MLOAD SWAP2 POP PUSH1 0x1F NOT PUSH1 0x3F RETURNDATASIZE ADD AND DUP3 ADD PUSH1 0x40 MSTORE RETURNDATASIZE DUP3 MSTORE RETURNDATASIZE PUSH1 0x0 PUSH1 0x20 DUP5 ADD RETURNDATACOPY PUSH2 0xCC9 JUMP JUMPDEST PUSH1 0x60 SWAP2 POP JUMPDEST POP SWAP2 POP SWAP2 POP DUP2 PUSH2 0xD16 JUMPI PUSH2 0xD16 DUP7 DUP7 DUP7 DUP7 DUP1 DUP1 PUSH1 0x1F ADD PUSH1 0x20 DUP1 SWAP2 DIV MUL PUSH1 0x20 ADD PUSH1 0x40 MLOAD SWAP1 DUP2 ADD PUSH1 0x40 MSTORE DUP1 SWAP4 SWAP3 SWAP2 SWAP1 DUP2 DUP2 MSTORE PUSH1 0x20 ADD DUP4 DUP4 DUP1 DUP3 DUP5 CALLDATACOPY PUSH1 0x0 SWAP3 ADD SWAP2 SWAP1 SWAP2 MSTORE POP DUP8 SWAP3 POP PUSH2 0xF01 SWAP2 POP POP JUMP JUMPDEST DUP6 PUSH1 0x1 PUSH1 0x1 PUSH1 0xA0 SHL SUB AND PUSH32 0x6C936258F37A22C831493E49CB45429BDF7B6BB0E261F271A15F084E5B08AAFF DUP7 DUP7 DUP7 PUSH1 0x40 MLOAD PUSH2 0xD53 SWAP4 SWAP3 SWAP2 SWAP1 PUSH2 0x181B JUMP JUMPDEST PUSH1 0x40 MLOAD DUP1 SWAP2 SUB SWAP1 LOG2 POP POP JUMPDEST POP POP POP POP POP JUMP JUMPDEST PUSH1 0x40 MLOAD PUSH4 0x6EB1769F PUSH1 0xE1 SHL DUP2 MSTORE ADDRESS PUSH1 0x4 DUP3 ADD MSTORE PUSH1 0x1 PUSH1 0x1 PUSH1 0xA0 SHL SUB DUP4 DUP2 AND PUSH1 0x24 DUP4 ADD MSTORE DUP3 SWAP2 SWAP1 DUP6 AND SWAP1 PUSH4 0xDD62ED3E SWAP1 PUSH1 0x44 ADD PUSH1 0x20 PUSH1 0x40 MLOAD DUP1 DUP4 SUB DUP2 DUP7 GAS STATICCALL ISZERO DUP1 ISZERO PUSH2 0xDB4 JUMPI RETURNDATASIZE PUSH1 0x0 DUP1 RETURNDATACOPY RETURNDATASIZE PUSH1 0x0 REVERT JUMPDEST POP POP POP POP PUSH1 0x40 MLOAD RETURNDATASIZE PUSH1 0x1F NOT PUSH1 0x1F DUP3 ADD AND DUP3 ADD DUP1 PUSH1 0x40 MSTORE POP DUP2 ADD SWAP1 PUSH2 0xDD8 SWAP2 SWAP1 PUSH2 0x173D JUMP JUMPDEST LT ISZERO PUSH2 0x36A JUMPI PUSH2 0x36A PUSH1 0x1 PUSH1 0x1 PUSH1 0xA0 SHL SUB DUP5 AND DUP4 PUSH1 0x0 NOT PUSH2 0xF94 JUMP JUMPDEST PUSH1 0x60 DUP2 PUSH2 0xE02 DUP2 PUSH1 0x1F PUSH2 0x176C JUMP JUMPDEST LT ISZERO PUSH2 0xE41 JUMPI PUSH1 0x40 MLOAD PUSH3 0x461BCD PUSH1 0xE5 SHL DUP2 MSTORE PUSH1 0x20 PUSH1 0x4 DUP3 ADD MSTORE PUSH1 0xE PUSH1 0x24 DUP3 ADD MSTORE PUSH14 0x736C6963655F6F766572666C6F77 PUSH1 0x90 SHL PUSH1 0x44 DUP3 ADD MSTORE PUSH1 0x64 ADD PUSH2 0x235 JUMP JUMPDEST PUSH2 0xE4B DUP3 DUP5 PUSH2 0x176C JUMP JUMPDEST DUP5 MLOAD LT ISZERO PUSH2 0xE8F JUMPI PUSH1 0x40 MLOAD PUSH3 0x461BCD PUSH1 0xE5 SHL DUP2 MSTORE PUSH1 0x20 PUSH1 0x4 DUP3 ADD MSTORE PUSH1 0x11 PUSH1 0x24 DUP3 ADD MSTORE PUSH17 0x736C6963655F6F75744F66426F756E6473 PUSH1 0x78 SHL PUSH1 0x44 DUP3 ADD MSTORE PUSH1 0x64 ADD PUSH2 0x235 JUMP JUMPDEST PUSH1 0x60 DUP3 ISZERO DUP1 ISZERO PUSH2 0xEAE JUMPI PUSH1 0x40 MLOAD SWAP2 POP PUSH1 0x0 DUP3 MSTORE PUSH1 0x20 DUP3 ADD PUSH1 0x40 MSTORE PUSH2 0xEF8 JUMP JUMPDEST PUSH1 0x40 MLOAD SWAP2 POP PUSH1 0x1F DUP5 AND DUP1 ISZERO PUSH1 0x20 MUL DUP2 DUP5 ADD ADD DUP6 DUP2 ADD DUP8 DUP4 ISZERO PUSH1 0x20 MUL DUP5 DUP12 ADD ADD ADD JUMPDEST DUP2 DUP4 LT ISZERO PUSH2 0xEE7 JUMPI DUP1 MLOAD DUP4 MSTORE PUSH1 0x20 SWAP3 DUP4 ADD SWAP3 ADD PUSH2 0xECF JUMP JUMPDEST POP POP DUP6 DUP5 MSTORE PUSH1 0x1F ADD PUSH1 0x1F NOT AND PUSH1 0x40 MSTORE POP JUMPDEST POP SWAP5 SWAP4 POP POP POP POP JUMP JUMPDEST DUP1 MLOAD PUSH1 0x0 SUB PUSH2 0xF29 JUMPI DUP4 DUP4 DUP4 PUSH1 0x40 MLOAD PUSH4 0xE1EEC8F1 PUSH1 0xE0 SHL DUP2 MSTORE PUSH1 0x4 ADD PUSH2 0x235 SWAP4 SWAP3 SWAP2 SWAP1 PUSH2 0x187D JUMP JUMPDEST DUP1 MLOAD DUP2 PUSH1 0x20 ADD REVERT JUMPDEST PUSH1 0x40 MLOAD PUSH1 0x1 PUSH1 0x1 PUSH1 0xA0 SHL SUB DUP4 AND PUSH1 0x24 DUP3 ADD MSTORE PUSH1 0x44 DUP2 ADD DUP3 SWAP1 MSTORE PUSH2 0x36A SWAP1 DUP5 SWAP1 PUSH4 0xA9059CBB PUSH1 0xE0 SHL SWAP1 PUSH1 0x64 ADD JUMPDEST PUSH1 0x40 DUP1 MLOAD PUSH1 0x1F NOT DUP2 DUP5 SUB ADD DUP2 MSTORE SWAP2 SWAP1 MSTORE PUSH1 0x20 DUP2 ADD DUP1 MLOAD PUSH1 0x1 PUSH1 0x1 PUSH1 0xE0 SHL SUB AND PUSH1 0x1 PUSH1 0x1 PUSH1 0xE0 SHL SUB NOT SWAP1 SWAP4 AND SWAP3 SWAP1 SWAP3 OR SWAP1 SWAP2 MSTORE PUSH2 0x101F JUMP JUMPDEST PUSH1 0x40 DUP1 MLOAD PUSH1 0x1 PUSH1 0x1 PUSH1 0xA0 SHL SUB DUP5 AND PUSH1 0x24 DUP3 ADD MSTORE PUSH1 0x44 DUP1 DUP3 ADD DUP5 SWAP1 MSTORE DUP3 MLOAD DUP1 DUP4 SUB SWAP1 SWAP2 ADD DUP2 MSTORE PUSH1 0x64 SWAP1 SWAP2 ADD SWAP1 SWAP2 MSTORE PUSH1 0x20 DUP2 ADD DUP1 MLOAD PUSH1 0x1 PUSH1 0x1 PUSH1 0xE0 SHL SUB AND PUSH4 0x95EA7B3 PUSH1 0xE0 SHL OR SWAP1 MSTORE PUSH2 0xFE5 DUP5 DUP3 PUSH2 0x10F4 JUMP JUMPDEST PUSH2 0x95F JUMPI PUSH1 0x40 MLOAD PUSH1 0x1 PUSH1 0x1 PUSH1 0xA0 SHL SUB DUP5 AND PUSH1 0x24 DUP3 ADD MSTORE PUSH1 0x0 PUSH1 0x44 DUP3 ADD MSTORE PUSH2 0x1019 SWAP1 DUP6 SWAP1 PUSH4 0x95EA7B3 PUSH1 0xE0 SHL SWAP1 PUSH1 0x64 ADD PUSH2 0xF5D JUMP JUMPDEST PUSH2 0x95F DUP5 DUP3 JUMPDEST PUSH1 0x0 PUSH2 0x1074 DUP3 PUSH1 0x40 MLOAD DUP1 PUSH1 0x40 ADD PUSH1 0x40 MSTORE DUP1 PUSH1 0x20 DUP2 MSTORE PUSH1 0x20 ADD PUSH32 0x5361666545524332303A206C6F772D6C6576656C2063616C6C206661696C6564 DUP2 MSTORE POP DUP6 PUSH1 0x1 PUSH1 0x1 PUSH1 0xA0 SHL SUB AND PUSH2 0x119D SWAP1 SWAP3 SWAP2 SWAP1 PUSH4 0xFFFFFFFF AND JUMP JUMPDEST SWAP1 POP DUP1 MLOAD PUSH1 0x0 EQ DUP1 PUSH2 0x1095 JUMPI POP DUP1 DUP1 PUSH1 0x20 ADD SWAP1 MLOAD DUP2 ADD SWAP1 PUSH2 0x1095 SWAP2 SWAP1 PUSH2 0x18AD JUMP JUMPDEST PUSH2 0x36A JUMPI PUSH1 0x40 MLOAD PUSH3 0x461BCD PUSH1 0xE5 SHL DUP2 MSTORE PUSH1 0x20 PUSH1 0x4 DUP3 ADD MSTORE PUSH1 0x2A PUSH1 0x24 DUP3 ADD MSTORE PUSH32 0x5361666545524332303A204552433230206F7065726174696F6E20646964206E PUSH1 0x44 DUP3 ADD MSTORE PUSH10 0x1BDD081CDD58D8D95959 PUSH1 0xB2 SHL PUSH1 0x64 DUP3 ADD MSTORE PUSH1 0x84 ADD PUSH2 0x235 JUMP JUMPDEST PUSH1 0x0 DUP1 PUSH1 0x0 DUP5 PUSH1 0x1 PUSH1 0x1 PUSH1 0xA0 SHL SUB AND DUP5 PUSH1 0x40 MLOAD PUSH2 0x1111 SWAP2 SWAP1 PUSH2 0x17F9 JUMP JUMPDEST PUSH1 0x0 PUSH1 0x40 MLOAD DUP1 DUP4 SUB DUP2 PUSH1 0x0 DUP7 GAS CALL SWAP2 POP POP RETURNDATASIZE DUP1 PUSH1 0x0 DUP2 EQ PUSH2 0x114E JUMPI PUSH1 0x40 MLOAD SWAP2 POP PUSH1 0x1F NOT PUSH1 0x3F RETURNDATASIZE ADD AND DUP3 ADD PUSH1 0x40 MSTORE RETURNDATASIZE DUP3 MSTORE RETURNDATASIZE PUSH1 0x0 PUSH1 0x20 DUP5 ADD RETURNDATACOPY PUSH2 0x1153 JUMP JUMPDEST PUSH1 0x60 SWAP2 POP JUMPDEST POP SWAP2 POP SWAP2 POP DUP2 DUP1 ISZERO PUSH2 0x117D JUMPI POP DUP1 MLOAD ISZERO DUP1 PUSH2 0x117D JUMPI POP DUP1 DUP1 PUSH1 0x20 ADD SWAP1 MLOAD DUP2 ADD SWAP1 PUSH2 0x117D SWAP2 SWAP1 PUSH2 0x18AD JUMP JUMPDEST DUP1 ISZERO PUSH2 0x1192 JUMPI POP PUSH1 0x1 PUSH1 0x1 PUSH1 0xA0 SHL SUB DUP6 AND EXTCODESIZE ISZERO ISZERO JUMPDEST SWAP3 POP POP POP JUMPDEST SWAP3 SWAP2 POP POP JUMP JUMPDEST PUSH1 0x60 PUSH2 0x11AC DUP5 DUP5 PUSH1 0x0 DUP6 PUSH2 0x11B4 JUMP JUMPDEST SWAP5 SWAP4 POP POP POP POP JUMP JUMPDEST PUSH1 0x60 DUP3 SELFBALANCE LT ISZERO PUSH2 0x1215 JUMPI PUSH1 0x40 MLOAD PUSH3 0x461BCD PUSH1 0xE5 SHL DUP2 MSTORE PUSH1 0x20 PUSH1 0x4 DUP3 ADD MSTORE PUSH1 0x26 PUSH1 0x24 DUP3 ADD MSTORE PUSH32 0x416464726573733A20696E73756666696369656E742062616C616E636520666F PUSH1 0x44 DUP3 ADD MSTORE PUSH6 0x1C8818D85B1B PUSH1 0xD2 SHL PUSH1 0x64 DUP3 ADD MSTORE PUSH1 0x84 ADD PUSH2 0x235 JUMP JUMPDEST PUSH1 0x0 DUP1 DUP7 PUSH1 0x1 PUSH1 0x1 PUSH1 0xA0 SHL SUB AND DUP6 DUP8 PUSH1 0x40 MLOAD PUSH2 0x1231 SWAP2 SWAP1 PUSH2 0x17F9 JUMP JUMPDEST PUSH1 0x0 PUSH1 0x40 MLOAD DUP1 DUP4 SUB DUP2 DUP6 DUP8 GAS CALL SWAP3 POP POP POP RETURNDATASIZE DUP1 PUSH1 0x0 DUP2 EQ PUSH2 0x126E JUMPI PUSH1 0x40 MLOAD SWAP2 POP PUSH1 0x1F NOT PUSH1 0x3F RETURNDATASIZE ADD AND DUP3 ADD PUSH1 0x40 MSTORE RETURNDATASIZE DUP3 MSTORE RETURNDATASIZE PUSH1 0x0 PUSH1 0x20 DUP5 ADD RETURNDATACOPY PUSH2 0x1273 JUMP JUMPDEST PUSH1 0x60 SWAP2 POP JUMPDEST POP SWAP2 POP SWAP2 POP PUSH2 0x1284 DUP8 DUP4 DUP4 DUP8 PUSH2 0x128F JUMP JUMPDEST SWAP8 SWAP7 POP POP POP POP POP POP POP JUMP JUMPDEST PUSH1 0x60 DUP4 ISZERO PUSH2 0x12FE JUMPI DUP3 MLOAD PUSH1 0x0 SUB PUSH2 0x12F7 JUMPI PUSH1 0x1 PUSH1 0x1 PUSH1 0xA0 SHL SUB DUP6 AND EXTCODESIZE PUSH2 0x12F7 JUMPI PUSH1 0x40 MLOAD PUSH3 0x461BCD PUSH1 0xE5 SHL DUP2 MSTORE PUSH1 0x20 PUSH1 0x4 DUP3 ADD MSTORE PUSH1 0x1D PUSH1 0x24 DUP3 ADD MSTORE PUSH32 0x416464726573733A2063616C6C20746F206E6F6E2D636F6E7472616374000000 PUSH1 0x44 DUP3 ADD MSTORE PUSH1 0x64 ADD PUSH2 0x235 JUMP JUMPDEST POP DUP2 PUSH2 0x11AC JUMP JUMPDEST PUSH2 0x11AC DUP4 DUP4 DUP2 MLOAD ISZERO PUSH2 0x1313 JUMPI DUP2 MLOAD DUP1 DUP4 PUSH1 0x20 ADD REVERT JUMPDEST DUP1 PUSH1 0x40 MLOAD PUSH3 0x461BCD PUSH1 0xE5 SHL DUP2 MSTORE PUSH1 0x4 ADD PUSH2 0x235 SWAP2 SWAP1 PUSH2 0x18CF JUMP JUMPDEST DUP1 CALLDATALOAD PUSH1 0x1 PUSH1 0x1 PUSH1 0xA0 SHL SUB DUP2 AND DUP2 EQ PUSH2 0x1344 JUMPI PUSH1 0x0 DUP1 REVERT JUMPDEST SWAP2 SWAP1 POP JUMP JUMPDEST PUSH1 0x0 PUSH1 0x20 DUP3 DUP5 SUB SLT ISZERO PUSH2 0x135B JUMPI PUSH1 0x0 DUP1 REVERT JUMPDEST PUSH2 0x1364 DUP3 PUSH2 0x132D JUMP JUMPDEST SWAP4 SWAP3 POP POP POP JUMP JUMPDEST PUSH1 0x0 DUP1 PUSH1 0x0 PUSH1 0x40 DUP5 DUP7 SUB SLT ISZERO PUSH2 0x1380 JUMPI PUSH1 0x0 DUP1 REVERT JUMPDEST DUP4 CALLDATALOAD PUSH8 0xFFFFFFFFFFFFFFFF DUP1 DUP3 GT ISZERO PUSH2 0x1398 JUMPI PUSH1 0x0 DUP1 REVERT JUMPDEST SWAP1 DUP6 ADD SWAP1 PUSH1 0xA0 DUP3 DUP9 SUB SLT ISZERO PUSH2 0x13AC JUMPI PUSH1 0x0 DUP1 REVERT JUMPDEST SWAP1 SWAP4 POP PUSH1 0x20 DUP6 ADD CALLDATALOAD SWAP1 DUP1 DUP3 GT ISZERO PUSH2 0x13C2 JUMPI PUSH1 0x0 DUP1 REVERT JUMPDEST DUP2 DUP7 ADD SWAP2 POP DUP7 PUSH1 0x1F DUP4 ADD SLT PUSH2 0x13D6 JUMPI PUSH1 0x0 DUP1 REVERT JUMPDEST DUP2 CALLDATALOAD DUP2 DUP2 GT ISZERO PUSH2 0x13E5 JUMPI PUSH1 0x0 DUP1 REVERT JUMPDEST DUP8 PUSH1 0x20 DUP3 PUSH1 0x5 SHL DUP6 ADD ADD GT ISZERO PUSH2 0x13FA JUMPI PUSH1 0x0 DUP1 REVERT JUMPDEST PUSH1 0x20 DUP4 ADD SWAP5 POP DUP1 SWAP4 POP POP POP POP SWAP3 POP SWAP3 POP SWAP3 JUMP JUMPDEST PUSH1 0x0 DUP1 DUP4 CALLDATALOAD PUSH1 0x1E NOT DUP5 CALLDATASIZE SUB ADD DUP2 SLT PUSH2 0x1424 JUMPI PUSH1 0x0 DUP1 REVERT JUMPDEST DUP4 ADD DUP1 CALLDATALOAD SWAP2 POP PUSH8 0xFFFFFFFFFFFFFFFF DUP3 GT ISZERO PUSH2 0x143F JUMPI PUSH1 0x0 DUP1 REVERT JUMPDEST PUSH1 0x20 ADD SWAP2 POP PUSH1 0x6 DUP2 SWAP1 SHL CALLDATASIZE SUB DUP3 SGT ISZERO PUSH2 0x1457 JUMPI PUSH1 0x0 DUP1 REVERT JUMPDEST SWAP3 POP SWAP3 SWAP1 POP JUMP JUMPDEST PUSH1 0x1 PUSH1 0x1 PUSH1 0xA0 SHL SUB DUP5 DUP2 AND DUP3 MSTORE PUSH1 0x40 PUSH1 0x20 DUP1 DUP5 ADD DUP3 SWAP1 MSTORE DUP4 DUP3 ADD DUP6 SWAP1 MSTORE PUSH1 0x0 SWAP3 DUP7 SWAP2 PUSH1 0x60 DUP7 ADD DUP6 JUMPDEST DUP9 DUP2 LT ISZERO PUSH2 0x14B3 JUMPI DUP4 PUSH2 0x1498 DUP7 PUSH2 0x132D JUMP JUMPDEST AND DUP3 MSTORE DUP5 DUP4 ADD CALLDATALOAD DUP4 DUP4 ADD MSTORE SWAP4 DUP6 ADD SWAP4 SWAP1 DUP6 ADD SWAP1 PUSH1 0x1 ADD PUSH2 0x1486 JUMP JUMPDEST POP SWAP10 SWAP9 POP POP POP POP POP POP POP POP POP JUMP JUMPDEST PUSH1 0x0 DUP3 CALLDATALOAD PUSH1 0x5E NOT DUP4 CALLDATASIZE SUB ADD DUP2 SLT PUSH2 0x14D7 JUMPI PUSH1 0x0 DUP1 REVERT JUMPDEST SWAP2 SWAP1 SWAP2 ADD SWAP3 SWAP2 POP POP JUMP JUMPDEST PUSH1 0x0 DUP1 DUP4 CALLDATALOAD PUSH1 0x1E NOT DUP5 CALLDATASIZE SUB ADD DUP2 SLT PUSH2 0x14F8 JUMPI PUSH1 0x0 DUP1 REVERT JUMPDEST DUP4 ADD PUSH1 0x20 DUP2 ADD SWAP3 POP CALLDATALOAD SWAP1 POP PUSH8 0xFFFFFFFFFFFFFFFF DUP2 GT ISZERO PUSH2 0x1518 JUMPI PUSH1 0x0 DUP1 REVERT JUMPDEST DUP1 PUSH1 0x6 SHL CALLDATASIZE SUB DUP3 SGT ISZERO PUSH2 0x1457 JUMPI PUSH1 0x0 DUP1 REVERT JUMPDEST PUSH1 0x1 PUSH1 0x1 PUSH1 0xA0 SHL SUB PUSH2 0x153B DUP3 PUSH2 0x132D JUMP JUMPDEST AND DUP3 MSTORE PUSH1 0x20 SWAP1 DUP2 ADD CALLDATALOAD SWAP2 ADD MSTORE JUMP JUMPDEST PUSH1 0x0 DUP3 CALLDATALOAD PUSH1 0x5E NOT DUP4 CALLDATASIZE SUB ADD DUP2 SLT PUSH2 0x155F JUMPI PUSH1 0x0 DUP1 REVERT JUMPDEST SWAP1 SWAP2 ADD SWAP3 SWAP2 POP POP JUMP JUMPDEST PUSH1 0x1 PUSH1 0x1 PUSH1 0xA0 SHL SUB PUSH2 0x1579 DUP3 PUSH2 0x132D JUMP JUMPDEST AND DUP3 MSTORE PUSH1 0x20 DUP2 ADD CALLDATALOAD PUSH1 0x20 DUP4 ADD MSTORE PUSH1 0x0 PUSH1 0x40 DUP3 ADD CALLDATALOAD PUSH1 0x1E NOT DUP4 CALLDATASIZE SUB ADD DUP2 SLT PUSH2 0x159F JUMPI PUSH1 0x0 DUP1 REVERT JUMPDEST DUP3 ADD PUSH1 0x20 DUP2 ADD SWAP1 CALLDATALOAD PUSH8 0xFFFFFFFFFFFFFFFF DUP2 GT ISZERO PUSH2 0x15BC JUMPI PUSH1 0x0 DUP1 REVERT JUMPDEST DUP1 CALLDATASIZE SUB DUP3 SGT ISZERO PUSH2 0x15CB JUMPI PUSH1 0x0 DUP1 REVERT JUMPDEST DUP1 DUP3 PUSH1 0x40 DUP8 ADD CALLDATACOPY PUSH1 0x0 PUSH1 0x40 DUP3 DUP8 ADD ADD MSTORE PUSH1 0x40 PUSH1 0x1F NOT PUSH1 0x1F DUP4 ADD AND DUP7 ADD ADD SWAP3 POP POP POP SWAP3 SWAP2 POP POP JUMP JUMPDEST PUSH1 0x0 PUSH2 0x15FE DUP4 DUP5 PUSH2 0x14E1 JUMP JUMPDEST DUP4 PUSH1 0x0 JUMPDEST DUP3 DUP2 LT ISZERO PUSH2 0x1627 JUMPI PUSH2 0x1614 DUP3 DUP6 PUSH2 0x152A JUMP JUMPDEST PUSH1 0x40 SWAP4 DUP5 ADD SWAP4 SWAP2 SWAP1 SWAP2 ADD SWAP1 PUSH1 0x1 ADD PUSH2 0x1602 JUMP JUMPDEST POP PUSH2 0x1635 PUSH1 0x20 DUP8 ADD DUP8 PUSH2 0x14E1 JUMP JUMPDEST SWAP4 POP SWAP2 POP PUSH1 0x0 SWAP1 JUMPDEST DUP4 DUP3 LT ISZERO PUSH2 0x1662 JUMPI PUSH2 0x164F DUP2 DUP5 PUSH2 0x152A JUMP JUMPDEST PUSH1 0x40 SWAP3 DUP4 ADD SWAP3 PUSH1 0x1 SWAP3 SWAP1 SWAP3 ADD SWAP2 ADD PUSH2 0x163D JUMP JUMPDEST PUSH2 0x1284 PUSH2 0x169B PUSH2 0x167E DUP4 PUSH2 0x1679 PUSH1 0x40 DUP13 ADD DUP13 PUSH2 0x1549 JUMP JUMPDEST PUSH2 0x1568 JUMP JUMPDEST PUSH2 0x168A PUSH1 0x60 DUP12 ADD PUSH2 0x132D JUMP JUMPDEST PUSH1 0x1 PUSH1 0x1 PUSH1 0xA0 SHL SUB AND DUP2 MSTORE PUSH1 0x20 ADD SWAP1 JUMP JUMPDEST PUSH2 0x168A PUSH1 0x80 DUP11 ADD PUSH2 0x132D JUMP JUMPDEST PUSH4 0x4E487B71 PUSH1 0xE0 SHL PUSH1 0x0 MSTORE PUSH1 0x32 PUSH1 0x4 MSTORE PUSH1 0x24 PUSH1 0x0 REVERT JUMPDEST PUSH1 0x0 DUP3 CALLDATALOAD PUSH1 0x7E NOT DUP4 CALLDATASIZE SUB ADD DUP2 SLT PUSH2 0x14D7 JUMPI PUSH1 0x0 DUP1 REVERT JUMPDEST PUSH1 0x0 DUP1 DUP4 CALLDATALOAD PUSH1 0x1E NOT DUP5 CALLDATASIZE SUB ADD DUP2 SLT PUSH2 0x16EA JUMPI PUSH1 0x0 DUP1 REVERT JUMPDEST DUP4 ADD DUP1 CALLDATALOAD SWAP2 POP PUSH8 0xFFFFFFFFFFFFFFFF DUP3 GT ISZERO PUSH2 0x1705 JUMPI PUSH1 0x0 DUP1 REVERT JUMPDEST PUSH1 0x20 ADD SWAP2 POP CALLDATASIZE DUP2 SWAP1 SUB DUP3 SGT ISZERO PUSH2 0x1457 JUMPI PUSH1 0x0 DUP1 REVERT JUMPDEST PUSH1 0x0 PUSH1 0x20 DUP3 DUP5 SUB SLT ISZERO PUSH2 0x172C JUMPI PUSH1 0x0 DUP1 REVERT JUMPDEST DUP2 CALLDATALOAD DUP1 PUSH1 0x3 SIGNEXTEND DUP2 EQ PUSH2 0x1364 JUMPI PUSH1 0x0 DUP1 REVERT JUMPDEST PUSH1 0x0 PUSH1 0x20 DUP3 DUP5 SUB SLT ISZERO PUSH2 0x174F JUMPI PUSH1 0x0 DUP1 REVERT JUMPDEST POP MLOAD SWAP2 SWAP1 POP JUMP JUMPDEST PUSH4 0x4E487B71 PUSH1 0xE0 SHL PUSH1 0x0 MSTORE PUSH1 0x11 PUSH1 0x4 MSTORE PUSH1 0x24 PUSH1 0x0 REVERT JUMPDEST DUP1 DUP3 ADD DUP1 DUP3 GT ISZERO PUSH2 0x1197 JUMPI PUSH2 0x1197 PUSH2 0x1756 JUMP JUMPDEST DUP2 DUP2 SUB DUP2 DUP2 GT ISZERO PUSH2 0x1197 JUMPI PUSH2 0x1197 PUSH2 0x1756 JUMP JUMPDEST PUSH1 0x0 JUMPDEST DUP4 DUP2 LT ISZERO PUSH2 0x17AD JUMPI DUP2 DUP2 ADD MLOAD DUP4 DUP3 ADD MSTORE PUSH1 0x20 ADD PUSH2 0x1795 JUMP JUMPDEST POP POP PUSH1 0x0 SWAP2 ADD MSTORE JUMP JUMPDEST PUSH1 0x0 DUP5 MLOAD PUSH2 0x17C8 DUP2 DUP5 PUSH1 0x20 DUP10 ADD PUSH2 0x1792 JUMP JUMPDEST DUP5 MLOAD SWAP1 DUP4 ADD SWAP1 PUSH2 0x17DC DUP2 DUP4 PUSH1 0x20 DUP10 ADD PUSH2 0x1792 JUMP JUMPDEST DUP5 MLOAD SWAP2 ADD SWAP1 PUSH2 0x17EF DUP2 DUP4 PUSH1 0x20 DUP9 ADD PUSH2 0x1792 JUMP JUMPDEST ADD SWAP6 SWAP5 POP POP POP POP POP JUMP JUMPDEST PUSH1 0x0 DUP3 MLOAD PUSH2 0x14D7 DUP2 DUP5 PUSH1 0x20 DUP8 ADD PUSH2 0x1792 JUMP JUMPDEST DUP2 DUP4 DUP3 CALLDATACOPY PUSH1 0x0 SWAP2 ADD SWAP1 DUP2 MSTORE SWAP2 SWAP1 POP JUMP JUMPDEST DUP4 DUP2 MSTORE PUSH1 0x40 PUSH1 0x20 DUP3 ADD MSTORE DUP2 PUSH1 0x40 DUP3 ADD MSTORE DUP2 DUP4 PUSH1 0x60 DUP4 ADD CALLDATACOPY PUSH1 0x0 DUP2 DUP4 ADD PUSH1 0x60 SWAP1 DUP2 ADD SWAP2 SWAP1 SWAP2 MSTORE PUSH1 0x1F SWAP1 SWAP3 ADD PUSH1 0x1F NOT AND ADD ADD SWAP3 SWAP2 POP POP JUMP JUMPDEST PUSH1 0x0 DUP2 MLOAD DUP1 DUP5 MSTORE PUSH2 0x1869 DUP2 PUSH1 0x20 DUP7 ADD PUSH1 0x20 DUP7 ADD PUSH2 0x1792 JUMP JUMPDEST PUSH1 0x1F ADD PUSH1 0x1F NOT AND SWAP3 SWAP1 SWAP3 ADD PUSH1 0x20 ADD SWAP3 SWAP2 POP POP JUMP JUMPDEST PUSH1 0x1 DUP1 PUSH1 0xA0 SHL SUB DUP5 AND DUP2 MSTORE DUP3 PUSH1 0x20 DUP3 ADD MSTORE PUSH1 0x60 PUSH1 0x40 DUP3 ADD MSTORE PUSH1 0x0 PUSH2 0x18A4 PUSH1 0x60 DUP4 ADD DUP5 PUSH2 0x1851 JUMP JUMPDEST SWAP6 SWAP5 POP POP POP POP POP JUMP JUMPDEST PUSH1 0x0 PUSH1 0x20 DUP3 DUP5 SUB SLT ISZERO PUSH2 0x18BF JUMPI PUSH1 0x0 DUP1 REVERT JUMPDEST DUP2 MLOAD DUP1 ISZERO ISZERO DUP2 EQ PUSH2 0x1364 JUMPI PUSH1 0x0 DUP1 REVERT JUMPDEST PUSH1 0x20 DUP2 MSTORE PUSH1 0x0 PUSH2 0x1364 PUSH1 0x20 DUP4 ADD DUP5 PUSH2 0x1851 JUMP INVALID LOG2 PUSH5 0x6970667358 0x22 SLT KECCAK256 SHR 0xBE JUMPDEST REVERT 0x2B ADDMOD 0xD5 PUSH27 0x41371E0142E93556670E8E453F85ACB5F7C10AFECA0A13F764736F PUSH13 0x6343000813003360A060405234 DUP1 ISZERO PUSH2 0x10 JUMPI PUSH1 0x0 DUP1 REVERT JUMPDEST POP CALLER PUSH1 0x80 MSTORE PUSH1 0x80 MLOAD PUSH2 0x5D9 PUSH2 0x35 PUSH1 0x0 CODECOPY PUSH1 0x0 DUP2 DUP2 PUSH1 0x40 ADD MSTORE PUSH1 0x9E ADD MSTORE PUSH2 0x5D9 PUSH1 0x0 RETURN INVALID PUSH1 0x80 PUSH1 0x40 MSTORE CALLVALUE DUP1 ISZERO PUSH2 0x10 JUMPI PUSH1 0x0 DUP1 REVERT JUMPDEST POP PUSH1 0x4 CALLDATASIZE LT PUSH2 0x36 JUMPI PUSH1 0x0 CALLDATALOAD PUSH1 0xE0 SHR DUP1 PUSH4 0x262D6152 EQ PUSH2 0x3B JUMPI DUP1 PUSH4 0x77FC3FA8 EQ PUSH2 0x7E JUMPI JUMPDEST PUSH1 0x0 DUP1 REVERT JUMPDEST PUSH2 0x62 PUSH32 0x0 DUP2 JUMP JUMPDEST PUSH1 0x40 MLOAD PUSH1 0x1 PUSH1 0x1 PUSH1 0xA0 SHL SUB SWAP1 SWAP2 AND DUP2 MSTORE PUSH1 0x20 ADD PUSH1 0x40 MLOAD DUP1 SWAP2 SUB SWAP1 RETURN JUMPDEST PUSH2 0x91 PUSH2 0x8C CALLDATASIZE PUSH1 0x4 PUSH2 0x450 JUMP JUMPDEST PUSH2 0x93 JUMP JUMPDEST STOP JUMPDEST CALLER PUSH1 0x1 PUSH1 0x1 PUSH1 0xA0 SHL SUB PUSH32 0x0 AND EQ PUSH2 0xE3 JUMPI PUSH1 0x40 MLOAD PUSH4 0x403E63E9 PUSH1 0xE0 SHL DUP2 MSTORE CALLER PUSH1 0x4 DUP3 ADD MSTORE PUSH1 0x24 ADD JUMPDEST PUSH1 0x40 MLOAD DUP1 SWAP2 SUB SWAP1 REVERT JUMPDEST DUP1 PUSH1 0x0 JUMPDEST DUP2 DUP2 LT ISZERO PUSH2 0x163 JUMPI CALLDATASIZE DUP5 DUP5 DUP4 DUP2 DUP2 LT PUSH2 0x102 JUMPI PUSH2 0x102 PUSH2 0x4D6 JUMP JUMPDEST PUSH1 0x1 SWAP1 SWAP5 ADD SWAP4 PUSH1 0x40 MUL SWAP2 SWAP1 SWAP2 ADD SWAP2 POP PUSH1 0x0 SWAP1 POP PUSH2 0x122 PUSH1 0x20 DUP4 ADD DUP4 PUSH2 0x4EC JUMP JUMPDEST PUSH1 0x1 PUSH1 0x1 PUSH1 0xA0 SHL SUB AND SUB PUSH2 0x136 JUMPI POP PUSH2 0xE7 JUMP JUMPDEST PUSH2 0x15D DUP7 CALLER PUSH1 0x20 DUP5 ADD DUP1 CALLDATALOAD SWAP1 PUSH2 0x14C SWAP1 DUP7 PUSH2 0x4EC JUMP JUMPDEST PUSH1 0x1 PUSH1 0x1 PUSH1 0xA0 SHL SUB AND SWAP3 SWAP2 SWAP1 PUSH2 0x16A JUMP JUMPDEST POP PUSH2 0xE7 JUMP JUMPDEST POP POP POP POP POP JUMP JUMPDEST PUSH1 0x40 DUP1 MLOAD PUSH1 0x1 PUSH1 0x1 PUSH1 0xA0 SHL SUB DUP6 DUP2 AND PUSH1 0x24 DUP4 ADD MSTORE DUP5 AND PUSH1 0x44 DUP3 ADD MSTORE PUSH1 0x64 DUP1 DUP3 ADD DUP5 SWAP1 MSTORE DUP3 MLOAD DUP1 DUP4 SUB SWAP1 SWAP2 ADD DUP2 MSTORE PUSH1 0x84 SWAP1 SWAP2 ADD SWAP1 SWAP2 MSTORE PUSH1 0x20 DUP2 ADD DUP1 MLOAD PUSH1 0x1 PUSH1 0x1 PUSH1 0xE0 SHL SUB AND PUSH4 0x23B872DD PUSH1 0xE0 SHL OR SWAP1 MSTORE PUSH2 0x1C4 SWAP1 DUP6 SWAP1 PUSH2 0x1CA JUMP JUMPDEST POP POP POP POP JUMP JUMPDEST PUSH1 0x0 PUSH2 0x21F DUP3 PUSH1 0x40 MLOAD DUP1 PUSH1 0x40 ADD PUSH1 0x40 MSTORE DUP1 PUSH1 0x20 DUP2 MSTORE PUSH1 0x20 ADD PUSH32 0x5361666545524332303A206C6F772D6C6576656C2063616C6C206661696C6564 DUP2 MSTORE POP DUP6 PUSH1 0x1 PUSH1 0x1 PUSH1 0xA0 SHL SUB AND PUSH2 0x2A4 SWAP1 SWAP3 SWAP2 SWAP1 PUSH4 0xFFFFFFFF AND JUMP JUMPDEST SWAP1 POP DUP1 MLOAD PUSH1 0x0 EQ DUP1 PUSH2 0x240 JUMPI POP DUP1 DUP1 PUSH1 0x20 ADD SWAP1 MLOAD DUP2 ADD SWAP1 PUSH2 0x240 SWAP2 SWAP1 PUSH2 0x50E JUMP JUMPDEST PUSH2 0x29F JUMPI PUSH1 0x40 MLOAD PUSH3 0x461BCD PUSH1 0xE5 SHL DUP2 MSTORE PUSH1 0x20 PUSH1 0x4 DUP3 ADD MSTORE PUSH1 0x2A PUSH1 0x24 DUP3 ADD MSTORE PUSH32 0x5361666545524332303A204552433230206F7065726174696F6E20646964206E PUSH1 0x44 DUP3 ADD MSTORE PUSH10 0x1BDD081CDD58D8D95959 PUSH1 0xB2 SHL PUSH1 0x64 DUP3 ADD MSTORE PUSH1 0x84 ADD PUSH2 0xDA JUMP JUMPDEST POP POP POP JUMP JUMPDEST PUSH1 0x60 PUSH2 0x2B3 DUP5 DUP5 PUSH1 0x0 DUP6 PUSH2 0x2BB JUMP JUMPDEST SWAP5 SWAP4 POP POP POP POP JUMP JUMPDEST PUSH1 0x60 DUP3 SELFBALANCE LT ISZERO PUSH2 0x31C JUMPI PUSH1 0x40 MLOAD PUSH3 0x461BCD PUSH1 0xE5 SHL DUP2 MSTORE PUSH1 0x20 PUSH1 0x4 DUP3 ADD MSTORE PUSH1 0x26 PUSH1 0x24 DUP3 ADD MSTORE PUSH32 0x416464726573733A20696E73756666696369656E742062616C616E636520666F PUSH1 0x44 DUP3 ADD MSTORE PUSH6 0x1C8818D85B1B PUSH1 0xD2 SHL PUSH1 0x64 DUP3 ADD MSTORE PUSH1 0x84 ADD PUSH2 0xDA JUMP JUMPDEST PUSH1 0x0 DUP1 DUP7 PUSH1 0x1 PUSH1 0x1 PUSH1 0xA0 SHL SUB AND DUP6 DUP8 PUSH1 0x40 MLOAD PUSH2 0x338 SWAP2 SWAP1 PUSH2 0x554 JUMP JUMPDEST PUSH1 0x0 PUSH1 0x40 MLOAD DUP1 DUP4 SUB DUP2 DUP6 DUP8 GAS CALL SWAP3 POP POP POP RETURNDATASIZE DUP1 PUSH1 0x0 DUP2 EQ PUSH2 0x375 JUMPI PUSH1 0x40 MLOAD SWAP2 POP PUSH1 0x1F NOT PUSH1 0x3F RETURNDATASIZE ADD AND DUP3 ADD PUSH1 0x40 MSTORE RETURNDATASIZE DUP3 MSTORE RETURNDATASIZE PUSH1 0x0 PUSH1 0x20 DUP5 ADD RETURNDATACOPY PUSH2 0x37A JUMP JUMPDEST PUSH1 0x60 SWAP2 POP JUMPDEST POP SWAP2 POP SWAP2 POP PUSH2 0x38B DUP8 DUP4 DUP4 DUP8 PUSH2 0x396 JUMP JUMPDEST SWAP8 SWAP7 POP POP POP POP POP POP POP JUMP JUMPDEST PUSH1 0x60 DUP4 ISZERO PUSH2 0x405 JUMPI DUP3 MLOAD PUSH1 0x0 SUB PUSH2 0x3FE JUMPI PUSH1 0x1 PUSH1 0x1 PUSH1 0xA0 SHL SUB DUP6 AND EXTCODESIZE PUSH2 0x3FE JUMPI PUSH1 0x40 MLOAD PUSH3 0x461BCD PUSH1 0xE5 SHL DUP2 MSTORE PUSH1 0x20 PUSH1 0x4 DUP3 ADD MSTORE PUSH1 0x1D PUSH1 0x24 DUP3 ADD MSTORE PUSH32 0x416464726573733A2063616C6C20746F206E6F6E2D636F6E7472616374000000 PUSH1 0x44 DUP3 ADD MSTORE PUSH1 0x64 ADD PUSH2 0xDA JUMP JUMPDEST POP DUP2 PUSH2 0x2B3 JUMP JUMPDEST PUSH2 0x2B3 DUP4 DUP4 DUP2 MLOAD ISZERO PUSH2 0x41A JUMPI DUP2 MLOAD DUP1 DUP4 PUSH1 0x20 ADD REVERT JUMPDEST DUP1 PUSH1 0x40 MLOAD PUSH3 0x461BCD PUSH1 0xE5 SHL DUP2 MSTORE PUSH1 0x4 ADD PUSH2 0xDA SWAP2 SWAP1 PUSH2 0x570 JUMP JUMPDEST DUP1 CALLDATALOAD PUSH1 0x1 PUSH1 0x1 PUSH1 0xA0 SHL SUB DUP2 AND DUP2 EQ PUSH2 0x44B JUMPI PUSH1 0x0 DUP1 REVERT JUMPDEST SWAP2 SWAP1 POP JUMP JUMPDEST PUSH1 0x0 DUP1 PUSH1 0x0 PUSH1 0x40 DUP5 DUP7 SUB SLT ISZERO PUSH2 0x465 JUMPI PUSH1 0x0 DUP1 REVERT JUMPDEST PUSH2 0x46E DUP5 PUSH2 0x434 JUMP JUMPDEST SWAP3 POP PUSH1 0x20 DUP5 ADD CALLDATALOAD PUSH8 0xFFFFFFFFFFFFFFFF DUP1 DUP3 GT ISZERO PUSH2 0x48B JUMPI PUSH1 0x0 DUP1 REVERT JUMPDEST DUP2 DUP7 ADD SWAP2 POP DUP7 PUSH1 0x1F DUP4 ADD SLT PUSH2 0x49F JUMPI PUSH1 0x0 DUP1 REVERT JUMPDEST DUP2 CALLDATALOAD DUP2 DUP2 GT ISZERO PUSH2 0x4AE JUMPI PUSH1 0x0 DUP1 REVERT JUMPDEST DUP8 PUSH1 0x20 DUP3 PUSH1 0x6 SHL DUP6 ADD ADD GT ISZERO PUSH2 0x4C3 JUMPI PUSH1 0x0 DUP1 REVERT JUMPDEST PUSH1 0x20 DUP4 ADD SWAP5 POP DUP1 SWAP4 POP POP POP POP SWAP3 POP SWAP3 POP SWAP3 JUMP JUMPDEST PUSH4 0x4E487B71 PUSH1 0xE0 SHL PUSH1 0x0 MSTORE PUSH1 0x32 PUSH1 0x4 MSTORE PUSH1 0x24 PUSH1 0x0 REVERT JUMPDEST PUSH1 0x0 PUSH1 0x20 DUP3 DUP5 SUB SLT ISZERO PUSH2 0x4FE JUMPI PUSH1 0x0 DUP1 REVERT JUMPDEST PUSH2 0x507 DUP3 PUSH2 0x434 JUMP JUMPDEST SWAP4 SWAP3 POP POP POP JUMP JUMPDEST PUSH1 0x0 PUSH1 0x20 DUP3 DUP5 SUB SLT ISZERO PUSH2 0x520 JUMPI PUSH1 0x0 DUP1 REVERT JUMPDEST DUP2 MLOAD DUP1 ISZERO ISZERO DUP2 EQ PUSH2 0x507 JUMPI PUSH1 0x0 DUP1 REVERT JUMPDEST PUSH1 0x0 JUMPDEST DUP4 DUP2 LT ISZERO PUSH2 0x54B JUMPI DUP2 DUP2 ADD MLOAD DUP4 DUP3 ADD MSTORE PUSH1 0x20 ADD PUSH2 0x533 JUMP JUMPDEST POP POP PUSH1 0x0 SWAP2 ADD MSTORE JUMP JUMPDEST PUSH1 0x0 DUP3 MLOAD PUSH2 0x566 DUP2 DUP5 PUSH1 0x20 DUP8 ADD PUSH2 0x530 JUMP JUMPDEST SWAP2 SWAP1 SWAP2 ADD SWAP3 SWAP2 POP POP JUMP JUMPDEST PUSH1 0x20 DUP2 MSTORE PUSH1 0x0 DUP3 MLOAD DUP1 PUSH1 0x20 DUP5 ADD MSTORE PUSH2 0x58F DUP2 PUSH1 0x40 DUP6 ADD PUSH1 0x20 DUP8 ADD PUSH2 0x530 JUMP JUMPDEST PUSH1 0x1F ADD PUSH1 0x1F NOT AND SWAP2 SWAP1 SWAP2 ADD PUSH1 0x40 ADD SWAP3 SWAP2 POP POP JUMP INVALID LOG2 PUSH5 0x6970667358 0x22 SLT KECCAK256 0xE5 SAR RETURNDATASIZE GASLIMIT XOR DELEGATECALL SWAP8 PUSH30 0x917B5C3F797EE153602DE0C375D59DC0793B1676CD05B2ED64736F6C6343 STOP ADDMOD SGT STOP CALLER "
				},
				"gasEstimates": {
					"creation": {
						"codeDepositCost": "1284800",
						"executionCost": "infinite",
						"totalCost": "infinite"
					},
					"external": {
						"executeOrder(((address,uint256)[],(address,uint256)[],(address,uint256,bytes),address,address),(address,uint256,bytes,(address,int32)[])[])": "infinite",
						"owner()": "2342",
						"pause()": "infinite",
						"paused()": "2354",
						"renounceOwnership()": "infinite",
						"tokenManager()": "infinite",
						"transferOwnership(address)": "28377",
						"unpause()": "infinite"
					},
					"internal": {
						"_approveToken(address,address,uint256)": "infinite",
						"_executeOrder(struct IPlexusZapRouter.Order calldata,struct IPlexusZapRouter.Step calldata[] calldata)": "infinite",
						"_executeRelay(struct IPlexusZapRouter.Relay calldata)": "infinite",
						"_executeSteps(struct IPlexusZapRouter.Step calldata[] calldata)": "infinite",
						"_propagateError(address,uint256,bytes memory,bytes memory)": "infinite",
						"_returnAssets(struct IPlexusZapRouter.Output calldata[] calldata,address,uint256)": "infinite"
					}
				},
				"methodIdentifiers": {
					"executeOrder(((address,uint256)[],(address,uint256)[],(address,uint256,bytes),address,address),(address,uint256,bytes,(address,int32)[])[])": "f41b2db6",
					"owner()": "8da5cb5b",
					"pause()": "8456cb59",
					"paused()": "5c975abb",
					"renounceOwnership()": "715018a6",
					"tokenManager()": "2a709b14",
					"transferOwnership(address)": "f2fde38b",
					"unpause()": "3f4ba83a"
				}
			},
			"storageLayout": {
				"storage": [
					{
						"astId": 7,
						"contract": "contracts/zaps/PlexusZapRouter.sol:PlexusZapRouter",
						"label": "_owner",
						"offset": 0,
						"slot": "0",
						"type": "t_address"
					},
					{
						"astId": 130,
						"contract": "contracts/zaps/PlexusZapRouter.sol:PlexusZapRouter",
						"label": "_paused",
						"offset": 20,
						"slot": "0",
						"type": "t_bool"
					},
					{
						"astId": 231,
						"contract": "contracts/zaps/PlexusZapRouter.sol:PlexusZapRouter",
						"label": "_status",
						"offset": 0,
						"slot": "1",
						"type": "t_uint256"
					}
				],
				"types": {
					"t_address": {
						"encoding": "inplace",
						"label": "address",
						"numberOfBytes": "20"
					},
					"t_bool": {
						"encoding": "inplace",
						"label": "bool",
						"numberOfBytes": "1"
					},
					"t_uint256": {
						"encoding": "inplace",
						"label": "uint256",
						"numberOfBytes": "32"
					}
				}
			},
			"userdoc": {
				"events": {
					"FulfilledOrder(((address,uint256)[],(address,uint256)[],(address,uint256,bytes),address,address),address,address)": {
						"notice": "Completed order"
					},
					"RelayData(address,uint256,bytes)": {
						"notice": "External relay call at end of zap"
					},
					"TokenReturned(address,uint256)": {
						"notice": "Token and amount sent to the recipient at end of a zap"
					}
				},
				"kind": "user",
				"methods": {
					"executeOrder(((address,uint256)[],(address,uint256)[],(address,uint256,bytes),address,address),(address,uint256,bytes,(address,int32)[])[])": {
						"notice": "Execute an order directly"
					},
					"pause()": {
						"notice": "Pause the contract from carrying out any more zaps"
					},
					"tokenManager()": {
						"notice": "Token manager immutable address"
					},
					"unpause()": {
						"notice": "Unpause the contract to allow new zaps"
					}
				},
				"notice": "Adaptable router for zapping tokens to and from Plexus vaults",
				"version": 1
			}
		}
	}
}