{
	"data": {
		"bytecode": {
			"linkReferences": {},
			"object": "608060405234801562000010575f80fd5b50620000216200002760201b60201c565b620001c6565b5f60019054906101000a900460ff161562000079576040517f08c379a000000000000000000000000000000000000000000000000000000000815260040162000070906200016e565b60405180910390fd5b60ff80165f8054906101000a900460ff1660ff1614620000e85760ff5f806101000a81548160ff021916908360ff1602179055507f7f26b83ff96e1f2b6a682f133852f6798a09c465da95921460cefb384740249860ff604051620000df9190620001ab565b60405180910390a15b565b5f82825260208201905092915050565b7f496e697469616c697a61626c653a20636f6e747261637420697320696e6974695f8201527f616c697a696e6700000000000000000000000000000000000000000000000000602082015250565b5f62000156602783620000ea565b91506200016382620000fa565b604082019050919050565b5f6020820190508181035f830152620001878162000148565b9050919050565b5f60ff82169050919050565b620001a5816200018e565b82525050565b5f602082019050620001c05f8301846200019a565b92915050565b61532c80620001d45f395ff3fe608060405234801561000f575f80fd5b50600436106101e2575f3560e01c80637aff49d71161010d578063a41fe49f116100a0578063d505accf1161006f578063d505accf146105a3578063dd62ed3e146105bf578063def68a9c146105ef578063f2fde38b1461060b576101e2565b8063a41fe49f14610509578063a457c2d714610525578063a8c62e7614610555578063a9059cbb14610573576101e2565b80638da5cb5b116100dc5780638da5cb5b1461049357806390657147146104b157806395d89b41146104cd5780639bdde46b146104eb576101e2565b80637aff49d7146104045780637bb98a68146104205780637ecebe001461043f57806384b0196e1461046f576101e2565b8063313ce567116101855780636584493411610154578063658449341461037757806370a0823114610396578063715018a6146103c65780637a7af70d146103d0576101e2565b8063313ce567146102ed5780633644e5151461030b578063395093511461032957806354cf2aeb14610359576101e2565b80630a28a477116101c15780630a28a4771461025057806318160ddd146102815780631f1fcd511461029f57806323b872dd146102bd576101e2565b8062aeef8a146101e657806306fdde0314610202578063095ea7b314610220575b5f80fd5b61020060048036038101906101fb9190613791565b610627565b005b61020a610b09565b604051610217919061386b565b60405180910390f35b61023a600480360381019061023591906138e5565b610b99565b604051610247919061393d565b60405180910390f35b61026a60048036038101906102659190613956565b610bbb565b604051610278929190613990565b60405180910390f35b610289610c10565b60405161029691906139b7565b60405180910390f35b6102a7610c19565b6040516102b491906139df565b60405180910390f35b6102d760048036038101906102d291906139f8565b610cae565b6040516102e4919061393d565b60405180910390f35b6102f5610cdc565b6040516103029190613a63565b60405180910390f35b610313610ce4565b6040516103209190613a94565b60405180910390f35b610343600480360381019061033e91906138e5565b610cf2565b604051610350919061393d565b60405180910390f35b610361610d28565b60405161036e91906139b7565b60405180910390f35b61037f610dbd565b60405161038d929190613aad565b60405180910390f35b6103b060048036038101906103ab9190613ad4565b610ee5565b6040516103bd91906139b7565b60405180910390f35b6103ce610f2b565b005b6103ea60048036038101906103e59190613aff565b610f3e565b6040516103fb959493929190613b3d565b60405180910390f35b61041e60048036038101906104199190613aff565b611120565b005b610428611137565b604051610436929190613990565b60405180910390f35b61045960048036038101906104549190613ad4565b6111d3565b60405161046691906139b7565b60405180910390f35b610477611220565b60405161048a9796959493929190613c7f565b60405180910390f35b61049b61131a565b6040516104a891906139df565b60405180910390f35b6104cb60048036038101906104c69190613d62565b611342565b005b6104d56115a4565b6040516104e2919061386b565b60405180910390f35b6104f3611634565b604051610500919061393d565b60405180910390f35b610523600480360381019061051e9190613791565b6116c9565b005b61053f600480360381019061053a91906138e5565b61197b565b60405161054c919061393d565b60405180910390f35b61055d6119f0565b60405161056a9190613e4e565b60405180910390f35b61058d600480360381019061058891906138e5565b611a16565b60405161059a919061393d565b60405180910390f35b6105bd60048036038101906105b89190613ebb565b611a38565b005b6105d960048036038101906105d49190613f58565b611b77565b6040516105e691906139b7565b60405180910390f35b61060960048036038101906106049190613ad4565b611bf9565b005b61062560048036038101906106209190613ad4565b611cab565b005b61062f611d2d565b5f80610639610dbd565b915091506101305f9054906101000a900473ffffffffffffffffffffffffffffffffffffffff1673ffffffffffffffffffffffffffffffffffffffff166317dd7a726040518163ffffffff1660e01b81526004015f604051808303815f87803b1580156106a4575f80fd5b505af11580156106b6573d5f803e3d5ffd5b505050505f806106c4611137565b915091505f6101305f9054906101000a900473ffffffffffffffffffffffffffffffffffffffff1673ffffffffffffffffffffffffffffffffffffffff1663a035b1fe6040518163ffffffff1660e01b8152600401602060405180830381865afa158015610734573d5f803e3d5ffd5b505050506040513d601f19601f820116820180604052508101906107589190613faa565b90505f805f80610773858d8d8a8a61076e610d28565b611d7c565b93509350935093508b84118061078857508a83115b156107bf576040517f22bbb43c00000000000000000000000000000000000000000000000000000000815260040160405180910390fd5b5f84111561081757610816336101305f9054906101000a900473ffffffffffffffffffffffffffffffffffffffff16868c73ffffffffffffffffffffffffffffffffffffffff166121ac909392919063ffffffff16565b5b5f83111561086f5761086e336101305f9054906101000a900473ffffffffffffffffffffffffffffffffffffffff16858b73ffffffffffffffffffffffffffffffffffffffff166121ac909392919063ffffffff16565b5b5f80610879611137565b9150915088826108899190614002565b955087816108979190614002565b945050506101305f9054906101000a900473ffffffffffffffffffffffffffffffffffffffff1673ffffffffffffffffffffffffffffffffffffffff1663d0e30db06040518163ffffffff1660e01b81526004015f604051808303815f87803b158015610902575f80fd5b505af1158015610914573d5f803e3d5ffd5b505050505f6ec097ce7bc90715b34b9f10000000008684876109369190614002565b6109409190614035565b61094a91906140a3565b82856109569190614002565b61096091906140d3565b90505f61096b610c10565b90505f8111156109ff57828861098191906140d3565b6ec097ce7bc90715b34b9f100000000060016ec097ce7bc90715b34b9f10000000008a888e6109b091906140d3565b6109ba9190614035565b6109c491906140d3565b6109ce9190614002565b6109d891906140a3565b6109e291906140d3565b81836109ee9190614035565b6109f891906140a3565b9150610a1e565b6103e882610a0d9190614002565b9150610a1d61dead6103e8612235565b5b8b821015610a58576040517ffa6ad35500000000000000000000000000000000000000000000000000000000815260040160405180910390fd5b5f8203610a91576040517fb317087b00000000000000000000000000000000000000000000000000000000815260040160405180910390fd5b610a9b3383612235565b3373ffffffffffffffffffffffffffffffffffffffff167ff943cf10ef4d1e3239f4716ddecdf546e8ba8ab0e41deafd9a71a99936827e458388888888604051610ae9959493929190613b3d565b60405180910390a25050505050505050505050610b04612384565b505050565b606060368054610b1890614133565b80601f0160208091040260200160405190810160405280929190818152602001828054610b4490614133565b8015610b8f5780601f10610b6657610100808354040283529160200191610b8f565b820191905f5260205f20905b815481529060010190602001808311610b7257829003601f168201915b5050505050905090565b5f80610ba361238e565b9050610bb0818585612395565b600191505092915050565b5f805f80610bc7611137565b915091505f610bd4610c10565b9050808684610be39190614035565b610bed91906140a3565b9450808683610bfc9190614035565b610c0691906140a3565b9350505050915091565b5f603554905090565b5f6101305f9054906101000a900473ffffffffffffffffffffffffffffffffffffffff1673ffffffffffffffffffffffffffffffffffffffff166316f0115b6040518163ffffffff1660e01b8152600401602060405180830381865afa158015610c85573d5f803e3d5ffd5b505050506040513d601f19601f82011682018060405250810190610ca99190614177565b905090565b5f80610cb861238e565b9050610cc5858285612558565b610cd08585856125e3565b60019150509392505050565b5f6012905090565b5f610ced612852565b905090565b5f80610cfc61238e565b9050610d1d818585610d0e8589611b77565b610d1891906140d3565b612395565b600191505092915050565b5f6101305f9054906101000a900473ffffffffffffffffffffffffffffffffffffffff1673ffffffffffffffffffffffffffffffffffffffff166354cf2aeb6040518163ffffffff1660e01b8152600401602060405180830381865afa158015610d94573d5f803e3d5ffd5b505050506040513d601f19601f82011682018060405250810190610db89190613faa565b905090565b5f806101305f9054906101000a900473ffffffffffffffffffffffffffffffffffffffff1673ffffffffffffffffffffffffffffffffffffffff16635ee167c06040518163ffffffff1660e01b8152600401602060405180830381865afa158015610e2a573d5f803e3d5ffd5b505050506040513d601f19601f82011682018060405250810190610e4e9190614177565b91506101305f9054906101000a900473ffffffffffffffffffffffffffffffffffffffff1673ffffffffffffffffffffffffffffffffffffffff1663877562b66040518163ffffffff1660e01b8152600401602060405180830381865afa158015610ebb573d5f803e3d5ffd5b505050506040513d601f19601f82011682018060405250810190610edf9190614177565b90509091565b5f60335f8373ffffffffffffffffffffffffffffffffffffffff1673ffffffffffffffffffffffffffffffffffffffff1681526020019081526020015f20549050919050565b610f33612860565b610f3c5f6128de565b565b5f805f805f806101305f9054906101000a900473ffffffffffffffffffffffffffffffffffffffff1673ffffffffffffffffffffffffffffffffffffffff1663a035b1fe6040518163ffffffff1660e01b8152600401602060405180830381865afa158015610faf573d5f803e3d5ffd5b505050506040513d601f19601f82011682018060405250810190610fd39190613faa565b90505f80610fdf611137565b91509150610ff8838b8b8585610ff3610d28565b611d7c565b809750819850829950839a50505050505f611011610c10565b90505f8103611021578a92508991505b6ec097ce7bc90715b34b9f100000000084878a61103e9190614002565b6110489190614035565b61105291906140a3565b858861105e9190614002565b61106891906140d3565b98505f811115611101575f858361107f91906140d3565b6ec097ce7bc90715b34b9f100000000060016ec097ce7bc90715b34b9f1000000000888b896110ae91906140d3565b6110b89190614035565b6110c291906140d3565b6110cc9190614002565b6110d691906140a3565b6110e091906140d3565b905080828b6110ef9190614035565b6110f991906140a3565b995050611112565b6103e88961110f9190614002565b98505b505050509295509295909350565b61113361112c33610ee5565b83836116c9565b5050565b5f806101305f9054906101000a900473ffffffffffffffffffffffffffffffffffffffff1673ffffffffffffffffffffffffffffffffffffffff16637bb98a686040518163ffffffff1660e01b81526004016040805180830381865afa1580156111a3573d5f803e3d5ffd5b505050506040513d601f19601f820116820180604052508101906111c791906141a2565b80925081935050509091565b5f61121960995f8473ffffffffffffffffffffffffffffffffffffffff1673ffffffffffffffffffffffffffffffffffffffff1681526020019081526020015f206129a1565b9050919050565b5f6060805f805f60605f801b60655414801561123f57505f801b606654145b61127e576040517f08c379a00000000000000000000000000000000000000000000000000000000081526004016112759061422a565b60405180910390fd5b6112866129ad565b61128e612a3d565b46305f801b5f67ffffffffffffffff8111156112ad576112ac614248565b5b6040519080825280602002602001820160405280156112db5781602001602082028036833780820191505090505b507f0f00000000000000000000000000000000000000000000000000000000000000959493929190965096509650965096509650965090919293949596565b5f60cc5f9054906101000a900473ffffffffffffffffffffffffffffffffffffffff16905090565b5f8060019054906101000a900460ff16159050808015611371575060015f8054906101000a900460ff1660ff16105b8061139d575061138030612acd565b15801561139c575060015f8054906101000a900460ff1660ff16145b5b6113dc576040517f08c379a00000000000000000000000000000000000000000000000000000000081526004016113d3906142e5565b60405180910390fd5b60015f806101000a81548160ff021916908360ff16021790555080156114175760015f60016101000a81548160ff0219169083151502179055505b6114a785858080601f0160208091040260200160405190810160405280939291908181526020018383808284375f81840152601f19601f8201169050808301925050505050505084848080601f0160208091040260200160405190810160405280939291908181526020018383808284375f81840152601f19601f82011690508083019250505050505050612aef565b6114f385858080601f0160208091040260200160405190810160405280939291908181526020018383808284375f81840152601f19601f82011690508083019250505050505050612b4b565b6114fb612bdb565b611503612c33565b856101305f6101000a81548173ffffffffffffffffffffffffffffffffffffffff021916908373ffffffffffffffffffffffffffffffffffffffff160217905550801561159c575f8060016101000a81548160ff0219169083151502179055507f7f26b83ff96e1f2b6a682f133852f6798a09c465da95921460cefb38474024986001604051611593919061433c565b60405180910390a15b505050505050565b6060603780546115b390614133565b80601f01602080910402602001604051908101604052809291908181526020018280546115df90614133565b801561162a5780601f106116015761010080835404028352916020019161162a565b820191905f5260205f20905b81548152906001019060200180831161160d57829003601f168201915b5050505050905090565b5f6101305f9054906101000a900473ffffffffffffffffffffffffffffffffffffffff1673ffffffffffffffffffffffffffffffffffffffff16639bdde46b6040518163ffffffff1660e01b8152600401602060405180830381865afa1580156116a0573d5f803e3d5ffd5b505050506040513d601f19601f820116820180604052508101906116c4919061437f565b905090565b5f8303611702576040517fb317087b00000000000000000000000000000000000000000000000000000000815260040160405180910390fd5b6101305f9054906101000a900473ffffffffffffffffffffffffffffffffffffffff1673ffffffffffffffffffffffffffffffffffffffff166317dd7a726040518163ffffffff1660e01b81526004015f604051808303815f87803b158015611769575f80fd5b505af115801561177b573d5f803e3d5ffd5b505050505f611788610c10565b90506117943385612c8b565b5f8061179e611137565b915091505f8387846117b09190614035565b6117ba91906140a3565b90505f8488846117ca9190614035565b6117d491906140a3565b90506101305f9054906101000a900473ffffffffffffffffffffffffffffffffffffffff1673ffffffffffffffffffffffffffffffffffffffff1663441a3e7083836040518363ffffffff1660e01b8152600401611833929190613990565b5f604051808303815f87803b15801561184a575f80fd5b505af115801561185c573d5f803e3d5ffd5b505050508682108061186d57508581105b8061188257505f8214801561188157505f81145b5b156118b9576040517ffa6ad35500000000000000000000000000000000000000000000000000000000815260040160405180910390fd5b5f806118c3610dbd565b915091506118f233858473ffffffffffffffffffffffffffffffffffffffff16612e509092919063ffffffff16565b61191d33848373ffffffffffffffffffffffffffffffffffffffff16612e509092919063ffffffff16565b3373ffffffffffffffffffffffffffffffffffffffff167f02f25270a4d87bea75db541cdfe559334a275b4a233520ed6c0a2429667cca948b8686604051611967939291906143aa565b60405180910390a250505050505050505050565b5f8061198561238e565b90505f6119928286611b77565b9050838110156119d7576040517f08c379a00000000000000000000000000000000000000000000000000000000081526004016119ce9061444f565b60405180910390fd5b6119e48286868403612395565b60019250505092915050565b6101305f9054906101000a900473ffffffffffffffffffffffffffffffffffffffff1681565b5f80611a2061238e565b9050611a2d8185856125e3565b600191505092915050565b83421115611a7b576040517f08c379a0000000000000000000000000000000000000000000000000000000008152600401611a72906144b7565b60405180910390fd5b5f7f6e71edae12b1b97f4d1f60370fef10105fa2faae0126114a169c64845d6126c9888888611aa98c612ed6565b89604051602001611abf969594939291906144d5565b6040516020818303038152906040528051906020012090505f611ae182612f31565b90505f611af082878787612f4a565b90508973ffffffffffffffffffffffffffffffffffffffff168173ffffffffffffffffffffffffffffffffffffffff1614611b60576040517f08c379a0000000000000000000000000000000000000000000000000000000008152600401611b579061457e565b60405180910390fd5b611b6b8a8a8a612395565b50505050505050505050565b5f60345f8473ffffffffffffffffffffffffffffffffffffffff1673ffffffffffffffffffffffffffffffffffffffff1681526020019081526020015f205f8373ffffffffffffffffffffffffffffffffffffffff1673ffffffffffffffffffffffffffffffffffffffff1681526020019081526020015f2054905092915050565b611c01612860565b5f8173ffffffffffffffffffffffffffffffffffffffff166370a08231306040518263ffffffff1660e01b8152600401611c3b91906139df565b602060405180830381865afa158015611c56573d5f803e3d5ffd5b505050506040513d601f19601f82011682018060405250810190611c7a9190613faa565b9050611ca733828473ffffffffffffffffffffffffffffffffffffffff16612e509092919063ffffffff16565b5050565b611cb3612860565b5f73ffffffffffffffffffffffffffffffffffffffff168173ffffffffffffffffffffffffffffffffffffffff1603611d21576040517f08c379a0000000000000000000000000000000000000000000000000000000008152600401611d189061460c565b60405180910390fd5b611d2a816128de565b50565b600260fe5403611d72576040517f08c379a0000000000000000000000000000000000000000000000000000000008152600401611d6990614674565b60405180910390fd5b600260fe81905550565b5f805f805f87148015611d8e57505f86145b15611da45788885f80935093509350935061219f565b5f6ec097ce7bc90715b34b9f10000000008b89611dc19190614035565b611dcb91906140a3565b905080871015611f89575f818a89611de391906140d3565b11611dee575f611e2b565b8b6ec097ce7bc90715b34b9f1000000000838c8b611e0c91906140d3565b611e169190614002565b611e209190614035565b611e2a91906140a3565b5b90508a811115611e7b578a95506ec097ce7bc90715b34b9f10000000008c8c83611e559190614002565b611e5f9190614035565b611e6991906140a3565b8a611e749190614002565b9450611e82565b8095508994505b5f8883611e8f9190614002565b8b10611ea6578883611ea19190614002565b611ea8565b8a5b90505f6ec097ce7bc90715b34b9f10000000008e846002611ec99190614035565b611ed39190614035565b611edd91906140a3565b828b86611eea91906140d3565b611ef491906140d3565b611efe91906140d3565b8e84611f0a9190614035565b6ec097ce7bc90715b34b9f100000000086611f259190614035565b611f2f91906140d3565b611f3991906140a3565b9050670de0b6b3a76400006ec097ce7bc90715b34b9f1000000000828b611f609190614035565b611f6a91906140a3565b83611f759190614035565b611f7f91906140a3565b945050505061219d565b5f876ec097ce7bc90715b34b9f10000000008d8d611fa79190614035565b611fb191906140a3565b83611fbc91906140d3565b11611fc7575f612004565b876ec097ce7bc90715b34b9f10000000008d8d611fe49190614035565b611fee91906140a3565b83611ff991906140d3565b6120039190614002565b5b905089811115612054578b6ec097ce7bc90715b34b9f10000000008b8361202b9190614002565b6120359190614035565b61203f91906140a3565b8b61204a9190614002565b955089945061205b565b8a95508094505b5f8c6ec097ce7bc90715b34b9f1000000000848b6120799190614002565b6120839190614035565b61208d91906140a3565b8c106120c9578c6ec097ce7bc90715b34b9f1000000000848b6120b09190614002565b6120ba9190614035565b6120c491906140a3565b6120cb565b8b5b90505f8260026120db9190614035565b6ec097ce7bc90715b34b9f10000000008f846120f79190614035565b61210191906140a3565b8b8661210d91906140d3565b61211791906140d3565b61212191906140d3565b6ec097ce7bc90715b34b9f1000000000848c61213d91906140d3565b6121479190614035565b61215191906140a3565b9050670de0b6b3a76400006ec097ce7bc90715b34b9f1000000000828b6121789190614035565b61218291906140a3565b8361218d9190614035565b61219791906140a3565b95505050505b505b9650965096509692505050565b61222f846323b872dd60e01b8585856040516024016121cd93929190614692565b604051602081830303815290604052907bffffffffffffffffffffffffffffffffffffffffffffffffffffffff19166020820180517bffffffffffffffffffffffffffffffffffffffffffffffffffffffff8381831617835250505050612f73565b50505050565b5f73ffffffffffffffffffffffffffffffffffffffff168273ffffffffffffffffffffffffffffffffffffffff16036122a3576040517f08c379a000000000000000000000000000000000000000000000000000000000815260040161229a90614711565b60405180910390fd5b6122ae5f8383613039565b8060355f8282546122bf91906140d3565b925050819055508060335f8473ffffffffffffffffffffffffffffffffffffffff1673ffffffffffffffffffffffffffffffffffffffff1681526020019081526020015f205f82825401925050819055508173ffffffffffffffffffffffffffffffffffffffff165f73ffffffffffffffffffffffffffffffffffffffff167fddf252ad1be2c89b69c2b068fc378daa952ba7f163c4a11628f55a4df523b3ef8360405161236d91906139b7565b60405180910390a36123805f838361303e565b5050565b600160fe81905550565b5f33905090565b5f73ffffffffffffffffffffffffffffffffffffffff168373ffffffffffffffffffffffffffffffffffffffff1603612403576040517f08c379a00000000000000000000000000000000000000000000000000000000081526004016123fa9061479f565b60405180910390fd5b5f73ffffffffffffffffffffffffffffffffffffffff168273ffffffffffffffffffffffffffffffffffffffff1603612471576040517f08c379a00000000000000000000000000000000000000000000000000000000081526004016124689061482d565b60405180910390fd5b8060345f8573ffffffffffffffffffffffffffffffffffffffff1673ffffffffffffffffffffffffffffffffffffffff1681526020019081526020015f205f8473ffffffffffffffffffffffffffffffffffffffff1673ffffffffffffffffffffffffffffffffffffffff1681526020019081526020015f20819055508173ffffffffffffffffffffffffffffffffffffffff168373ffffffffffffffffffffffffffffffffffffffff167f8c5be1e5ebec7d5bd14f71427d1e84f3dd0314c0f7b2291e5b200ac8c7c3b9258360405161254b91906139b7565b60405180910390a3505050565b5f6125638484611b77565b90507fffffffffffffffffffffffffffffffffffffffffffffffffffffffffffffffff81146125dd57818110156125cf576040517f08c379a00000000000000000000000000000000000000000000000000000000081526004016125c690614895565b60405180910390fd5b6125dc8484848403612395565b5b50505050565b5f73ffffffffffffffffffffffffffffffffffffffff168373ffffffffffffffffffffffffffffffffffffffff1603612651576040517f08c379a000000000000000000000000000000000000000000000000000000000815260040161264890614923565b60405180910390fd5b5f73ffffffffffffffffffffffffffffffffffffffff168273ffffffffffffffffffffffffffffffffffffffff16036126bf576040517f08c379a00000000000000000000000000000000000000000000000000000000081526004016126b6906149b1565b60405180910390fd5b6126ca838383613039565b5f60335f8573ffffffffffffffffffffffffffffffffffffffff1673ffffffffffffffffffffffffffffffffffffffff1681526020019081526020015f205490508181101561274e576040517f08c379a000000000000000000000000000000000000000000000000000000000815260040161274590614a3f565b60405180910390fd5b81810360335f8673ffffffffffffffffffffffffffffffffffffffff1673ffffffffffffffffffffffffffffffffffffffff1681526020019081526020015f20819055508160335f8573ffffffffffffffffffffffffffffffffffffffff1673ffffffffffffffffffffffffffffffffffffffff1681526020019081526020015f205f82825401925050819055508273ffffffffffffffffffffffffffffffffffffffff168473ffffffffffffffffffffffffffffffffffffffff167fddf252ad1be2c89b69c2b068fc378daa952ba7f163c4a11628f55a4df523b3ef8460405161283991906139b7565b60405180910390a361284c84848461303e565b50505050565b5f61285b613043565b905090565b61286861238e565b73ffffffffffffffffffffffffffffffffffffffff1661288661131a565b73ffffffffffffffffffffffffffffffffffffffff16146128dc576040517f08c379a00000000000000000000000000000000000000000000000000000000081526004016128d390614aa7565b60405180910390fd5b565b5f60cc5f9054906101000a900473ffffffffffffffffffffffffffffffffffffffff1690508160cc5f6101000a81548173ffffffffffffffffffffffffffffffffffffffff021916908373ffffffffffffffffffffffffffffffffffffffff1602179055508173ffffffffffffffffffffffffffffffffffffffff168173ffffffffffffffffffffffffffffffffffffffff167f8be0079c531659141344cd1fd0a4f28419497f9722a3daafe3b4186f6b6457e060405160405180910390a35050565b5f815f01549050919050565b6060606780546129bc90614133565b80601f01602080910402602001604051908101604052809291908181526020018280546129e890614133565b8015612a335780601f10612a0a57610100808354040283529160200191612a33565b820191905f5260205f20905b815481529060010190602001808311612a1657829003601f168201915b5050505050905090565b606060688054612a4c90614133565b80601f0160208091040260200160405190810160405280929190818152602001828054612a7890614133565b8015612ac35780601f10612a9a57610100808354040283529160200191612ac3565b820191905f5260205f20905b815481529060010190602001808311612aa657829003601f168201915b5050505050905090565b5f808273ffffffffffffffffffffffffffffffffffffffff163b119050919050565b5f60019054906101000a900460ff16612b3d576040517f08c379a0000000000000000000000000000000000000000000000000000000008152600401612b3490614b35565b60405180910390fd5b612b4782826130a6565b5050565b5f60019054906101000a900460ff16612b99576040517f08c379a0000000000000000000000000000000000000000000000000000000008152600401612b9090614b35565b60405180910390fd5b612bd8816040518060400160405280600181526020017f3100000000000000000000000000000000000000000000000000000000000000815250613118565b50565b5f60019054906101000a900460ff16612c29576040517f08c379a0000000000000000000000000000000000000000000000000000000008152600401612c2090614b35565b60405180910390fd5b612c3161319c565b565b5f60019054906101000a900460ff16612c81576040517f08c379a0000000000000000000000000000000000000000000000000000000008152600401612c7890614b35565b60405180910390fd5b612c896131fc565b565b5f73ffffffffffffffffffffffffffffffffffffffff168273ffffffffffffffffffffffffffffffffffffffff1603612cf9576040517f08c379a0000000000000000000000000000000000000000000000000000000008152600401612cf090614bc3565b60405180910390fd5b612d04825f83613039565b5f60335f8473ffffffffffffffffffffffffffffffffffffffff1673ffffffffffffffffffffffffffffffffffffffff1681526020019081526020015f2054905081811015612d88576040517f08c379a0000000000000000000000000000000000000000000000000000000008152600401612d7f90614c51565b60405180910390fd5b81810360335f8573ffffffffffffffffffffffffffffffffffffffff1673ffffffffffffffffffffffffffffffffffffffff1681526020019081526020015f20819055508160355f82825403925050819055505f73ffffffffffffffffffffffffffffffffffffffff168373ffffffffffffffffffffffffffffffffffffffff167fddf252ad1be2c89b69c2b068fc378daa952ba7f163c4a11628f55a4df523b3ef84604051612e3891906139b7565b60405180910390a3612e4b835f8461303e565b505050565b612ed18363a9059cbb60e01b8484604051602401612e6f929190614c6f565b604051602081830303815290604052907bffffffffffffffffffffffffffffffffffffffffffffffffffffffff19166020820180517bffffffffffffffffffffffffffffffffffffffffffffffffffffffff8381831617835250505050612f73565b505050565b5f8060995f8473ffffffffffffffffffffffffffffffffffffffff1673ffffffffffffffffffffffffffffffffffffffff1681526020019081526020015f209050612f20816129a1565b9150612f2b81613254565b50919050565b5f612f43612f3d612852565b83613268565b9050919050565b5f805f612f59878787876132a8565b91509150612f6681613380565b8192505050949350505050565b5f612fd4826040518060400160405280602081526020017f5361666545524332303a206c6f772d6c6576656c2063616c6c206661696c65648152508573ffffffffffffffffffffffffffffffffffffffff166134e59092919063ffffffff16565b90505f81511480612ff5575080806020019051810190612ff4919061437f565b5b613034576040517f08c379a000000000000000000000000000000000000000000000000000000000815260040161302b90614d06565b60405180910390fd5b505050565b505050565b505050565b5f7f8b73c3c69bb8fe3d512ecc4cf759cc79239f7b179b0ffacaa9a75d522b39400f61306d6134fc565b613075613563565b463060405160200161308b959493929190614d24565b60405160208183030381529060405280519060200120905090565b5f60019054906101000a900460ff166130f4576040517f08c379a00000000000000000000000000000000000000000000000000000000081526004016130eb90614b35565b60405180910390fd5b81603690816131039190614f09565b5080603790816131139190614f09565b505050565b5f60019054906101000a900460ff16613166576040517f08c379a000000000000000000000000000000000000000000000000000000000815260040161315d90614b35565b60405180910390fd5b81606790816131759190614f09565b5080606890816131859190614f09565b505f801b6065819055505f801b6066819055505050565b5f60019054906101000a900460ff166131ea576040517f08c379a00000000000000000000000000000000000000000000000000000000081526004016131e190614b35565b60405180910390fd5b6131fa6131f561238e565b6128de565b565b5f60019054906101000a900460ff1661324a576040517f08c379a000000000000000000000000000000000000000000000000000000000815260040161324190614b35565b60405180910390fd5b600160fe81905550565b6001815f015f828254019250508190555050565b5f6040517f190100000000000000000000000000000000000000000000000000000000000081528360028201528260228201526042812091505092915050565b5f807f7fffffffffffffffffffffffffffffff5d576e7357a4501ddfe92f46681b20a0835f1c11156132e0575f600391509150613377565b5f6001878787876040515f81526020016040526040516133039493929190614fd8565b6020604051602081039080840390855afa158015613323573d5f803e3d5ffd5b5050506020604051035190505f73ffffffffffffffffffffffffffffffffffffffff168173ffffffffffffffffffffffffffffffffffffffff160361336f575f60019250925050613377565b805f92509250505b94509492505050565b5f60048111156133935761339261501b565b5b8160048111156133a6576133a561501b565b5b03156134e257600160048111156133c0576133bf61501b565b5b8160048111156133d3576133d261501b565b5b03613413576040517f08c379a000000000000000000000000000000000000000000000000000000000815260040161340a90615092565b60405180910390fd5b600260048111156134275761342661501b565b5b81600481111561343a5761343961501b565b5b0361347a576040517f08c379a0000000000000000000000000000000000000000000000000000000008152600401613471906150fa565b60405180910390fd5b6003600481111561348e5761348d61501b565b5b8160048111156134a1576134a061501b565b5b036134e1576040517f08c379a00000000000000000000000000000000000000000000000000000000081526004016134d890615188565b60405180910390fd5b5b50565b60606134f384845f856135ca565b90509392505050565b5f806135066129ad565b90505f81511115613521578080519060200120915050613560565b5f60655490505f801b811461353a578092505050613560565b7fc5d2460186f7233c927e7db2dcc703c0e500b653ca82273b7bfad8045d85a470925050505b90565b5f8061356d612a3d565b90505f815111156135885780805190602001209150506135c7565b5f60665490505f801b81146135a15780925050506135c7565b7fc5d2460186f7233c927e7db2dcc703c0e500b653ca82273b7bfad8045d85a470925050505b90565b60608247101561360f576040517f08c379a000000000000000000000000000000000000000000000000000000000815260040161360690615216565b60405180910390fd5b5f808673ffffffffffffffffffffffffffffffffffffffff1685876040516136379190615278565b5f6040518083038185875af1925050503d805f8114613671576040519150601f19603f3d011682016040523d82523d5f602084013e613676565b606091505b509150915061368787838387613693565b92505050949350505050565b606083156136f4575f8351036136ec576136ac85612acd565b6136eb576040517f08c379a00000000000000000000000000000000000000000000000000000000081526004016136e2906152d8565b60405180910390fd5b5b8290506136ff565b6136fe8383613707565b5b949350505050565b5f825111156137195781518083602001fd5b806040517f08c379a000000000000000000000000000000000000000000000000000000000815260040161374d919061386b565b60405180910390fd5b5f80fd5b5f80fd5b5f819050919050565b6137708161375e565b811461377a575f80fd5b50565b5f8135905061378b81613767565b92915050565b5f805f606084860312156137a8576137a7613756565b5b5f6137b58682870161377d565b93505060206137c68682870161377d565b92505060406137d78682870161377d565b9150509250925092565b5f81519050919050565b5f82825260208201905092915050565b5f5b838110156138185780820151818401526020810190506137fd565b5f8484015250505050565b5f601f19601f8301169050919050565b5f61383d826137e1565b61384781856137eb565b93506138578185602086016137fb565b61386081613823565b840191505092915050565b5f6020820190508181035f8301526138838184613833565b905092915050565b5f73ffffffffffffffffffffffffffffffffffffffff82169050919050565b5f6138b48261388b565b9050919050565b6138c4816138aa565b81146138ce575f80fd5b50565b5f813590506138df816138bb565b92915050565b5f80604083850312156138fb576138fa613756565b5b5f613908858286016138d1565b92505060206139198582860161377d565b9150509250929050565b5f8115159050919050565b61393781613923565b82525050565b5f6020820190506139505f83018461392e565b92915050565b5f6020828403121561396b5761396a613756565b5b5f6139788482850161377d565b91505092915050565b61398a8161375e565b82525050565b5f6040820190506139a35f830185613981565b6139b06020830184613981565b9392505050565b5f6020820190506139ca5f830184613981565b92915050565b6139d9816138aa565b82525050565b5f6020820190506139f25f8301846139d0565b92915050565b5f805f60608486031215613a0f57613a0e613756565b5b5f613a1c868287016138d1565b9350506020613a2d868287016138d1565b9250506040613a3e8682870161377d565b9150509250925092565b5f60ff82169050919050565b613a5d81613a48565b82525050565b5f602082019050613a765f830184613a54565b92915050565b5f819050919050565b613a8e81613a7c565b82525050565b5f602082019050613aa75f830184613a85565b92915050565b5f604082019050613ac05f8301856139d0565b613acd60208301846139d0565b9392505050565b5f60208284031215613ae957613ae8613756565b5b5f613af6848285016138d1565b91505092915050565b5f8060408385031215613b1557613b14613756565b5b5f613b228582860161377d565b9250506020613b338582860161377d565b9150509250929050565b5f60a082019050613b505f830188613981565b613b5d6020830187613981565b613b6a6040830186613981565b613b776060830185613981565b613b846080830184613981565b9695505050505050565b5f7fff0000000000000000000000000000000000000000000000000000000000000082169050919050565b613bc281613b8e565b82525050565b5f81519050919050565b5f82825260208201905092915050565b5f819050602082019050919050565b613bfa8161375e565b82525050565b5f613c0b8383613bf1565b60208301905092915050565b5f602082019050919050565b5f613c2d82613bc8565b613c378185613bd2565b9350613c4283613be2565b805f5b83811015613c72578151613c598882613c00565b9750613c6483613c17565b925050600181019050613c45565b5085935050505092915050565b5f60e082019050613c925f83018a613bb9565b8181036020830152613ca48189613833565b90508181036040830152613cb88188613833565b9050613cc76060830187613981565b613cd460808301866139d0565b613ce160a0830185613a85565b81810360c0830152613cf38184613c23565b905098975050505050505050565b5f80fd5b5f80fd5b5f80fd5b5f8083601f840112613d2257613d21613d01565b5b8235905067ffffffffffffffff811115613d3f57613d3e613d05565b5b602083019150836001820283011115613d5b57613d5a613d09565b5b9250929050565b5f805f805f60608688031215613d7b57613d7a613756565b5b5f613d88888289016138d1565b955050602086013567ffffffffffffffff811115613da957613da861375a565b5b613db588828901613d0d565b9450945050604086013567ffffffffffffffff811115613dd857613dd761375a565b5b613de488828901613d0d565b92509250509295509295909350565b5f819050919050565b5f613e16613e11613e0c8461388b565b613df3565b61388b565b9050919050565b5f613e2782613dfc565b9050919050565b5f613e3882613e1d565b9050919050565b613e4881613e2e565b82525050565b5f602082019050613e615f830184613e3f565b92915050565b613e7081613a48565b8114613e7a575f80fd5b50565b5f81359050613e8b81613e67565b92915050565b613e9a81613a7c565b8114613ea4575f80fd5b50565b5f81359050613eb581613e91565b92915050565b5f805f805f805f60e0888a031215613ed657613ed5613756565b5b5f613ee38a828b016138d1565b9750506020613ef48a828b016138d1565b9650506040613f058a828b0161377d565b9550506060613f168a828b0161377d565b9450506080613f278a828b01613e7d565b93505060a0613f388a828b01613ea7565b92505060c0613f498a828b01613ea7565b91505092959891949750929550565b5f8060408385031215613f6e57613f6d613756565b5b5f613f7b858286016138d1565b9250506020613f8c858286016138d1565b9150509250929050565b5f81519050613fa481613767565b92915050565b5f60208284031215613fbf57613fbe613756565b5b5f613fcc84828501613f96565b91505092915050565b7f4e487b71000000000000000000000000000000000000000000000000000000005f52601160045260245ffd5b5f61400c8261375e565b91506140178361375e565b925082820390508181111561402f5761402e613fd5565b5b92915050565b5f61403f8261375e565b915061404a8361375e565b92508282026140588161375e565b9150828204841483151761406f5761406e613fd5565b5b5092915050565b7f4e487b71000000000000000000000000000000000000000000000000000000005f52601260045260245ffd5b5f6140ad8261375e565b91506140b88361375e565b9250826140c8576140c7614076565b5b828204905092915050565b5f6140dd8261375e565b91506140e88361375e565b9250828201905080821115614100576140ff613fd5565b5b92915050565b7f4e487b71000000000000000000000000000000000000000000000000000000005f52602260045260245ffd5b5f600282049050600182168061414a57607f821691505b60208210810361415d5761415c614106565b5b50919050565b5f81519050614171816138bb565b92915050565b5f6020828403121561418c5761418b613756565b5b5f61419984828501614163565b91505092915050565b5f80604083850312156141b8576141b7613756565b5b5f6141c585828601613f96565b92505060206141d685828601613f96565b9150509250929050565b7f4549503731323a20556e696e697469616c697a656400000000000000000000005f82015250565b5f6142146015836137eb565b915061421f826141e0565b602082019050919050565b5f6020820190508181035f83015261424181614208565b9050919050565b7f4e487b71000000000000000000000000000000000000000000000000000000005f52604160045260245ffd5b7f496e697469616c697a61626c653a20636f6e747261637420697320616c7265615f8201527f647920696e697469616c697a6564000000000000000000000000000000000000602082015250565b5f6142cf602e836137eb565b91506142da82614275565b604082019050919050565b5f6020820190508181035f8301526142fc816142c3565b9050919050565b5f819050919050565b5f61432661432161431c84614303565b613df3565b613a48565b9050919050565b6143368161430c565b82525050565b5f60208201905061434f5f83018461432d565b92915050565b61435e81613923565b8114614368575f80fd5b50565b5f8151905061437981614355565b92915050565b5f6020828403121561439457614393613756565b5b5f6143a18482850161436b565b91505092915050565b5f6060820190506143bd5f830186613981565b6143ca6020830185613981565b6143d76040830184613981565b949350505050565b7f45524332303a2064656372656173656420616c6c6f77616e63652062656c6f775f8201527f207a65726f000000000000000000000000000000000000000000000000000000602082015250565b5f6144396025836137eb565b9150614444826143df565b604082019050919050565b5f6020820190508181035f8301526144668161442d565b9050919050565b7f45524332305065726d69743a206578706972656420646561646c696e650000005f82015250565b5f6144a1601d836137eb565b91506144ac8261446d565b602082019050919050565b5f6020820190508181035f8301526144ce81614495565b9050919050565b5f60c0820190506144e85f830189613a85565b6144f560208301886139d0565b61450260408301876139d0565b61450f6060830186613981565b61451c6080830185613981565b61452960a0830184613981565b979650505050505050565b7f45524332305065726d69743a20696e76616c6964207369676e617475726500005f82015250565b5f614568601e836137eb565b915061457382614534565b602082019050919050565b5f6020820190508181035f8301526145958161455c565b9050919050565b7f4f776e61626c653a206e6577206f776e657220697320746865207a65726f20615f8201527f6464726573730000000000000000000000000000000000000000000000000000602082015250565b5f6145f66026836137eb565b91506146018261459c565b604082019050919050565b5f6020820190508181035f830152614623816145ea565b9050919050565b7f5265656e7472616e637947756172643a207265656e7472616e742063616c6c005f82015250565b5f61465e601f836137eb565b91506146698261462a565b602082019050919050565b5f6020820190508181035f83015261468b81614652565b9050919050565b5f6060820190506146a55f8301866139d0565b6146b260208301856139d0565b6146bf6040830184613981565b949350505050565b7f45524332303a206d696e7420746f20746865207a65726f2061646472657373005f82015250565b5f6146fb601f836137eb565b9150614706826146c7565b602082019050919050565b5f6020820190508181035f830152614728816146ef565b9050919050565b7f45524332303a20617070726f76652066726f6d20746865207a65726f206164645f8201527f7265737300000000000000000000000000000000000000000000000000000000602082015250565b5f6147896024836137eb565b91506147948261472f565b604082019050919050565b5f6020820190508181035f8301526147b68161477d565b9050919050565b7f45524332303a20617070726f766520746f20746865207a65726f2061646472655f8201527f7373000000000000000000000000000000000000000000000000000000000000602082015250565b5f6148176022836137eb565b9150614822826147bd565b604082019050919050565b5f6020820190508181035f8301526148448161480b565b9050919050565b7f45524332303a20696e73756666696369656e7420616c6c6f77616e63650000005f82015250565b5f61487f601d836137eb565b915061488a8261484b565b602082019050919050565b5f6020820190508181035f8301526148ac81614873565b9050919050565b7f45524332303a207472616e736665722066726f6d20746865207a65726f2061645f8201527f6472657373000000000000000000000000000000000000000000000000000000602082015250565b5f61490d6025836137eb565b9150614918826148b3565b604082019050919050565b5f6020820190508181035f83015261493a81614901565b9050919050565b7f45524332303a207472616e7366657220746f20746865207a65726f20616464725f8201527f6573730000000000000000000000000000000000000000000000000000000000602082015250565b5f61499b6023836137eb565b91506149a682614941565b604082019050919050565b5f6020820190508181035f8301526149c88161498f565b9050919050565b7f45524332303a207472616e7366657220616d6f756e74206578636565647320625f8201527f616c616e63650000000000000000000000000000000000000000000000000000602082015250565b5f614a296026836137eb565b9150614a34826149cf565b604082019050919050565b5f6020820190508181035f830152614a5681614a1d565b9050919050565b7f4f776e61626c653a2063616c6c6572206973206e6f7420746865206f776e65725f82015250565b5f614a916020836137eb565b9150614a9c82614a5d565b602082019050919050565b5f6020820190508181035f830152614abe81614a85565b9050919050565b7f496e697469616c697a61626c653a20636f6e7472616374206973206e6f7420695f8201527f6e697469616c697a696e67000000000000000000000000000000000000000000602082015250565b5f614b1f602b836137eb565b9150614b2a82614ac5565b604082019050919050565b5f6020820190508181035f830152614b4c81614b13565b9050919050565b7f45524332303a206275726e2066726f6d20746865207a65726f206164647265735f8201527f7300000000000000000000000000000000000000000000000000000000000000602082015250565b5f614bad6021836137eb565b9150614bb882614b53565b604082019050919050565b5f6020820190508181035f830152614bda81614ba1565b9050919050565b7f45524332303a206275726e20616d6f756e7420657863656564732062616c616e5f8201527f6365000000000000000000000000000000000000000000000000000000000000602082015250565b5f614c3b6022836137eb565b9150614c4682614be1565b604082019050919050565b5f6020820190508181035f830152614c6881614c2f565b9050919050565b5f604082019050614c825f8301856139d0565b614c8f6020830184613981565b9392505050565b7f5361666545524332303a204552433230206f7065726174696f6e20646964206e5f8201527f6f74207375636365656400000000000000000000000000000000000000000000602082015250565b5f614cf0602a836137eb565b9150614cfb82614c96565b604082019050919050565b5f6020820190508181035f830152614d1d81614ce4565b9050919050565b5f60a082019050614d375f830188613a85565b614d446020830187613a85565b614d516040830186613a85565b614d5e6060830185613981565b614d6b60808301846139d0565b9695505050505050565b5f819050815f5260205f209050919050565b5f6020601f8301049050919050565b5f82821b905092915050565b5f60088302614dd17fffffffffffffffffffffffffffffffffffffffffffffffffffffffffffffffff82614d96565b614ddb8683614d96565b95508019841693508086168417925050509392505050565b5f614e0d614e08614e038461375e565b613df3565b61375e565b9050919050565b5f819050919050565b614e2683614df3565b614e3a614e3282614e14565b848454614da2565b825550505050565b5f90565b614e4e614e42565b614e59818484614e1d565b505050565b5b81811015614e7c57614e715f82614e46565b600181019050614e5f565b5050565b601f821115614ec157614e9281614d75565b614e9b84614d87565b81016020851015614eaa578190505b614ebe614eb685614d87565b830182614e5e565b50505b505050565b5f82821c905092915050565b5f614ee15f1984600802614ec6565b1980831691505092915050565b5f614ef98383614ed2565b9150826002028217905092915050565b614f12826137e1565b67ffffffffffffffff811115614f2b57614f2a614248565b5b614f358254614133565b614f40828285614e80565b5f60209050601f831160018114614f71575f8415614f5f578287015190505b614f698582614eee565b865550614fd0565b601f198416614f7f86614d75565b5f5b82811015614fa657848901518255600182019150602085019450602081019050614f81565b86831015614fc35784890151614fbf601f891682614ed2565b8355505b6001600288020188555050505b505050505050565b5f608082019050614feb5f830187613a85565b614ff86020830186613a54565b6150056040830185613a85565b6150126060830184613a85565b95945050505050565b7f4e487b71000000000000000000000000000000000000000000000000000000005f52602160045260245ffd5b7f45434453413a20696e76616c6964207369676e617475726500000000000000005f82015250565b5f61507c6018836137eb565b915061508782615048565b602082019050919050565b5f6020820190508181035f8301526150a981615070565b9050919050565b7f45434453413a20696e76616c6964207369676e6174757265206c656e677468005f82015250565b5f6150e4601f836137eb565b91506150ef826150b0565b602082019050919050565b5f6020820190508181035f830152615111816150d8565b9050919050565b7f45434453413a20696e76616c6964207369676e6174757265202773272076616c5f8201527f7565000000000000000000000000000000000000000000000000000000000000602082015250565b5f6151726022836137eb565b915061517d82615118565b604082019050919050565b5f6020820190508181035f83015261519f81615166565b9050919050565b7f416464726573733a20696e73756666696369656e742062616c616e636520666f5f8201527f722063616c6c0000000000000000000000000000000000000000000000000000602082015250565b5f6152006026836137eb565b915061520b826151a6565b604082019050919050565b5f6020820190508181035f83015261522d816151f4565b9050919050565b5f81519050919050565b5f81905092915050565b5f61525282615234565b61525c818561523e565b935061526c8185602086016137fb565b80840191505092915050565b5f6152838284615248565b915081905092915050565b7f416464726573733a2063616c6c20746f206e6f6e2d636f6e74726163740000005f82015250565b5f6152c2601d836137eb565b91506152cd8261528e565b602082019050919050565b5f6020820190508181035f8301526152ef816152b6565b905091905056fea264697066735822122087dba1ad3e5817185157410fc49e65b353fd86948a2db7f201607e0d73618ed964736f6c63430008170033",
			"opcodes": "PUSH1 0x80 PUSH1 0x40 MSTORE CALLVALUE DUP1 ISZERO PUSH3 0x10 JUMPI PUSH0 DUP1 REVERT JUMPDEST POP PUSH3 0x21 PUSH3 0x27 PUSH1 0x20 SHL PUSH1 0x20 SHR JUMP JUMPDEST PUSH3 0x1C6 JUMP JUMPDEST PUSH0 PUSH1 0x1 SWAP1 SLOAD SWAP1 PUSH2 0x100 EXP SWAP1 DIV PUSH1 0xFF AND ISZERO PUSH3 0x79 JUMPI PUSH1 0x40 MLOAD PUSH32 0x8C379A000000000000000000000000000000000000000000000000000000000 DUP2 MSTORE PUSH1 0x4 ADD PUSH3 0x70 SWAP1 PUSH3 0x16E JUMP JUMPDEST PUSH1 0x40 MLOAD DUP1 SWAP2 SUB SWAP1 REVERT JUMPDEST PUSH1 0xFF DUP1 AND PUSH0 DUP1 SLOAD SWAP1 PUSH2 0x100 EXP SWAP1 DIV PUSH1 0xFF AND PUSH1 0xFF AND EQ PUSH3 0xE8 JUMPI PUSH1 0xFF PUSH0 DUP1 PUSH2 0x100 EXP DUP2 SLOAD DUP2 PUSH1 0xFF MUL NOT AND SWAP1 DUP4 PUSH1 0xFF AND MUL OR SWAP1 SSTORE POP PUSH32 0x7F26B83FF96E1F2B6A682F133852F6798A09C465DA95921460CEFB3847402498 PUSH1 0xFF PUSH1 0x40 MLOAD PUSH3 0xDF SWAP2 SWAP1 PUSH3 0x1AB JUMP JUMPDEST PUSH1 0x40 MLOAD DUP1 SWAP2 SUB SWAP1 LOG1 JUMPDEST JUMP JUMPDEST PUSH0 DUP3 DUP3 MSTORE PUSH1 0x20 DUP3 ADD SWAP1 POP SWAP3 SWAP2 POP POP JUMP JUMPDEST PUSH32 0x496E697469616C697A61626C653A20636F6E747261637420697320696E697469 PUSH0 DUP3 ADD MSTORE PUSH32 0x616C697A696E6700000000000000000000000000000000000000000000000000 PUSH1 0x20 DUP3 ADD MSTORE POP JUMP JUMPDEST PUSH0 PUSH3 0x156 PUSH1 0x27 DUP4 PUSH3 0xEA JUMP JUMPDEST SWAP2 POP PUSH3 0x163 DUP3 PUSH3 0xFA JUMP JUMPDEST PUSH1 0x40 DUP3 ADD SWAP1 POP SWAP2 SWAP1 POP JUMP JUMPDEST PUSH0 PUSH1 0x20 DUP3 ADD SWAP1 POP DUP2 DUP2 SUB PUSH0 DUP4 ADD MSTORE PUSH3 0x187 DUP2 PUSH3 0x148 JUMP JUMPDEST SWAP1 POP SWAP2 SWAP1 POP JUMP JUMPDEST PUSH0 PUSH1 0xFF DUP3 AND SWAP1 POP SWAP2 SWAP1 POP JUMP JUMPDEST PUSH3 0x1A5 DUP2 PUSH3 0x18E JUMP JUMPDEST DUP3 MSTORE POP POP JUMP JUMPDEST PUSH0 PUSH1 0x20 DUP3 ADD SWAP1 POP PUSH3 0x1C0 PUSH0 DUP4 ADD DUP5 PUSH3 0x19A JUMP JUMPDEST SWAP3 SWAP2 POP POP JUMP JUMPDEST PUSH2 0x532C DUP1 PUSH3 0x1D4 PUSH0 CODECOPY PUSH0 RETURN INVALID PUSH1 0x80 PUSH1 0x40 MSTORE CALLVALUE DUP1 ISZERO PUSH2 0xF JUMPI PUSH0 DUP1 REVERT JUMPDEST POP PUSH1 0x4 CALLDATASIZE LT PUSH2 0x1E2 JUMPI PUSH0 CALLDATALOAD PUSH1 0xE0 SHR DUP1 PUSH4 0x7AFF49D7 GT PUSH2 0x10D JUMPI DUP1 PUSH4 0xA41FE49F GT PUSH2 0xA0 JUMPI DUP1 PUSH4 0xD505ACCF GT PUSH2 0x6F JUMPI DUP1 PUSH4 0xD505ACCF EQ PUSH2 0x5A3 JUMPI DUP1 PUSH4 0xDD62ED3E EQ PUSH2 0x5BF JUMPI DUP1 PUSH4 0xDEF68A9C EQ PUSH2 0x5EF JUMPI DUP1 PUSH4 0xF2FDE38B EQ PUSH2 0x60B JUMPI PUSH2 0x1E2 JUMP JUMPDEST DUP1 PUSH4 0xA41FE49F EQ PUSH2 0x509 JUMPI DUP1 PUSH4 0xA457C2D7 EQ PUSH2 0x525 JUMPI DUP1 PUSH4 0xA8C62E76 EQ PUSH2 0x555 JUMPI DUP1 PUSH4 0xA9059CBB EQ PUSH2 0x573 JUMPI PUSH2 0x1E2 JUMP JUMPDEST DUP1 PUSH4 0x8DA5CB5B GT PUSH2 0xDC JUMPI DUP1 PUSH4 0x8DA5CB5B EQ PUSH2 0x493 JUMPI DUP1 PUSH4 0x90657147 EQ PUSH2 0x4B1 JUMPI DUP1 PUSH4 0x95D89B41 EQ PUSH2 0x4CD JUMPI DUP1 PUSH4 0x9BDDE46B EQ PUSH2 0x4EB JUMPI PUSH2 0x1E2 JUMP JUMPDEST DUP1 PUSH4 0x7AFF49D7 EQ PUSH2 0x404 JUMPI DUP1 PUSH4 0x7BB98A68 EQ PUSH2 0x420 JUMPI DUP1 PUSH4 0x7ECEBE00 EQ PUSH2 0x43F JUMPI DUP1 PUSH4 0x84B0196E EQ PUSH2 0x46F JUMPI PUSH2 0x1E2 JUMP JUMPDEST DUP1 PUSH4 0x313CE567 GT PUSH2 0x185 JUMPI DUP1 PUSH4 0x65844934 GT PUSH2 0x154 JUMPI DUP1 PUSH4 0x65844934 EQ PUSH2 0x377 JUMPI DUP1 PUSH4 0x70A08231 EQ PUSH2 0x396 JUMPI DUP1 PUSH4 0x715018A6 EQ PUSH2 0x3C6 JUMPI DUP1 PUSH4 0x7A7AF70D EQ PUSH2 0x3D0 JUMPI PUSH2 0x1E2 JUMP JUMPDEST DUP1 PUSH4 0x313CE567 EQ PUSH2 0x2ED JUMPI DUP1 PUSH4 0x3644E515 EQ PUSH2 0x30B JUMPI DUP1 PUSH4 0x39509351 EQ PUSH2 0x329 JUMPI DUP1 PUSH4 0x54CF2AEB EQ PUSH2 0x359 JUMPI PUSH2 0x1E2 JUMP JUMPDEST DUP1 PUSH4 0xA28A477 GT PUSH2 0x1C1 JUMPI DUP1 PUSH4 0xA28A477 EQ PUSH2 0x250 JUMPI DUP1 PUSH4 0x18160DDD EQ PUSH2 0x281 JUMPI DUP1 PUSH4 0x1F1FCD51 EQ PUSH2 0x29F JUMPI DUP1 PUSH4 0x23B872DD EQ PUSH2 0x2BD JUMPI PUSH2 0x1E2 JUMP JUMPDEST DUP1 PUSH3 0xAEEF8A EQ PUSH2 0x1E6 JUMPI DUP1 PUSH4 0x6FDDE03 EQ PUSH2 0x202 JUMPI DUP1 PUSH4 0x95EA7B3 EQ PUSH2 0x220 JUMPI JUMPDEST PUSH0 DUP1 REVERT JUMPDEST PUSH2 0x200 PUSH1 0x4 DUP1 CALLDATASIZE SUB DUP2 ADD SWAP1 PUSH2 0x1FB SWAP2 SWAP1 PUSH2 0x3791 JUMP JUMPDEST PUSH2 0x627 JUMP JUMPDEST STOP JUMPDEST PUSH2 0x20A PUSH2 0xB09 JUMP JUMPDEST PUSH1 0x40 MLOAD PUSH2 0x217 SWAP2 SWAP1 PUSH2 0x386B JUMP JUMPDEST PUSH1 0x40 MLOAD DUP1 SWAP2 SUB SWAP1 RETURN JUMPDEST PUSH2 0x23A PUSH1 0x4 DUP1 CALLDATASIZE SUB DUP2 ADD SWAP1 PUSH2 0x235 SWAP2 SWAP1 PUSH2 0x38E5 JUMP JUMPDEST PUSH2 0xB99 JUMP JUMPDEST PUSH1 0x40 MLOAD PUSH2 0x247 SWAP2 SWAP1 PUSH2 0x393D JUMP JUMPDEST PUSH1 0x40 MLOAD DUP1 SWAP2 SUB SWAP1 RETURN JUMPDEST PUSH2 0x26A PUSH1 0x4 DUP1 CALLDATASIZE SUB DUP2 ADD SWAP1 PUSH2 0x265 SWAP2 SWAP1 PUSH2 0x3956 JUMP JUMPDEST PUSH2 0xBBB JUMP JUMPDEST PUSH1 0x40 MLOAD PUSH2 0x278 SWAP3 SWAP2 SWAP1 PUSH2 0x3990 JUMP JUMPDEST PUSH1 0x40 MLOAD DUP1 SWAP2 SUB SWAP1 RETURN JUMPDEST PUSH2 0x289 PUSH2 0xC10 JUMP JUMPDEST PUSH1 0x40 MLOAD PUSH2 0x296 SWAP2 SWAP1 PUSH2 0x39B7 JUMP JUMPDEST PUSH1 0x40 MLOAD DUP1 SWAP2 SUB SWAP1 RETURN JUMPDEST PUSH2 0x2A7 PUSH2 0xC19 JUMP JUMPDEST PUSH1 0x40 MLOAD PUSH2 0x2B4 SWAP2 SWAP1 PUSH2 0x39DF JUMP JUMPDEST PUSH1 0x40 MLOAD DUP1 SWAP2 SUB SWAP1 RETURN JUMPDEST PUSH2 0x2D7 PUSH1 0x4 DUP1 CALLDATASIZE SUB DUP2 ADD SWAP1 PUSH2 0x2D2 SWAP2 SWAP1 PUSH2 0x39F8 JUMP JUMPDEST PUSH2 0xCAE JUMP JUMPDEST PUSH1 0x40 MLOAD PUSH2 0x2E4 SWAP2 SWAP1 PUSH2 0x393D JUMP JUMPDEST PUSH1 0x40 MLOAD DUP1 SWAP2 SUB SWAP1 RETURN JUMPDEST PUSH2 0x2F5 PUSH2 0xCDC JUMP JUMPDEST PUSH1 0x40 MLOAD PUSH2 0x302 SWAP2 SWAP1 PUSH2 0x3A63 JUMP JUMPDEST PUSH1 0x40 MLOAD DUP1 SWAP2 SUB SWAP1 RETURN JUMPDEST PUSH2 0x313 PUSH2 0xCE4 JUMP JUMPDEST PUSH1 0x40 MLOAD PUSH2 0x320 SWAP2 SWAP1 PUSH2 0x3A94 JUMP JUMPDEST PUSH1 0x40 MLOAD DUP1 SWAP2 SUB SWAP1 RETURN JUMPDEST PUSH2 0x343 PUSH1 0x4 DUP1 CALLDATASIZE SUB DUP2 ADD SWAP1 PUSH2 0x33E SWAP2 SWAP1 PUSH2 0x38E5 JUMP JUMPDEST PUSH2 0xCF2 JUMP JUMPDEST PUSH1 0x40 MLOAD PUSH2 0x350 SWAP2 SWAP1 PUSH2 0x393D JUMP JUMPDEST PUSH1 0x40 MLOAD DUP1 SWAP2 SUB SWAP1 RETURN JUMPDEST PUSH2 0x361 PUSH2 0xD28 JUMP JUMPDEST PUSH1 0x40 MLOAD PUSH2 0x36E SWAP2 SWAP1 PUSH2 0x39B7 JUMP JUMPDEST PUSH1 0x40 MLOAD DUP1 SWAP2 SUB SWAP1 RETURN JUMPDEST PUSH2 0x37F PUSH2 0xDBD JUMP JUMPDEST PUSH1 0x40 MLOAD PUSH2 0x38D SWAP3 SWAP2 SWAP1 PUSH2 0x3AAD JUMP JUMPDEST PUSH1 0x40 MLOAD DUP1 SWAP2 SUB SWAP1 RETURN JUMPDEST PUSH2 0x3B0 PUSH1 0x4 DUP1 CALLDATASIZE SUB DUP2 ADD SWAP1 PUSH2 0x3AB SWAP2 SWAP1 PUSH2 0x3AD4 JUMP JUMPDEST PUSH2 0xEE5 JUMP JUMPDEST PUSH1 0x40 MLOAD PUSH2 0x3BD SWAP2 SWAP1 PUSH2 0x39B7 JUMP JUMPDEST PUSH1 0x40 MLOAD DUP1 SWAP2 SUB SWAP1 RETURN JUMPDEST PUSH2 0x3CE PUSH2 0xF2B JUMP JUMPDEST STOP JUMPDEST PUSH2 0x3EA PUSH1 0x4 DUP1 CALLDATASIZE SUB DUP2 ADD SWAP1 PUSH2 0x3E5 SWAP2 SWAP1 PUSH2 0x3AFF JUMP JUMPDEST PUSH2 0xF3E JUMP JUMPDEST PUSH1 0x40 MLOAD PUSH2 0x3FB SWAP6 SWAP5 SWAP4 SWAP3 SWAP2 SWAP1 PUSH2 0x3B3D JUMP JUMPDEST PUSH1 0x40 MLOAD DUP1 SWAP2 SUB SWAP1 RETURN JUMPDEST PUSH2 0x41E PUSH1 0x4 DUP1 CALLDATASIZE SUB DUP2 ADD SWAP1 PUSH2 0x419 SWAP2 SWAP1 PUSH2 0x3AFF JUMP JUMPDEST PUSH2 0x1120 JUMP JUMPDEST STOP JUMPDEST PUSH2 0x428 PUSH2 0x1137 JUMP JUMPDEST PUSH1 0x40 MLOAD PUSH2 0x436 SWAP3 SWAP2 SWAP1 PUSH2 0x3990 JUMP JUMPDEST PUSH1 0x40 MLOAD DUP1 SWAP2 SUB SWAP1 RETURN JUMPDEST PUSH2 0x459 PUSH1 0x4 DUP1 CALLDATASIZE SUB DUP2 ADD SWAP1 PUSH2 0x454 SWAP2 SWAP1 PUSH2 0x3AD4 JUMP JUMPDEST PUSH2 0x11D3 JUMP JUMPDEST PUSH1 0x40 MLOAD PUSH2 0x466 SWAP2 SWAP1 PUSH2 0x39B7 JUMP JUMPDEST PUSH1 0x40 MLOAD DUP1 SWAP2 SUB SWAP1 RETURN JUMPDEST PUSH2 0x477 PUSH2 0x1220 JUMP JUMPDEST PUSH1 0x40 MLOAD PUSH2 0x48A SWAP8 SWAP7 SWAP6 SWAP5 SWAP4 SWAP3 SWAP2 SWAP1 PUSH2 0x3C7F JUMP JUMPDEST PUSH1 0x40 MLOAD DUP1 SWAP2 SUB SWAP1 RETURN JUMPDEST PUSH2 0x49B PUSH2 0x131A JUMP JUMPDEST PUSH1 0x40 MLOAD PUSH2 0x4A8 SWAP2 SWAP1 PUSH2 0x39DF JUMP JUMPDEST PUSH1 0x40 MLOAD DUP1 SWAP2 SUB SWAP1 RETURN JUMPDEST PUSH2 0x4CB PUSH1 0x4 DUP1 CALLDATASIZE SUB DUP2 ADD SWAP1 PUSH2 0x4C6 SWAP2 SWAP1 PUSH2 0x3D62 JUMP JUMPDEST PUSH2 0x1342 JUMP JUMPDEST STOP JUMPDEST PUSH2 0x4D5 PUSH2 0x15A4 JUMP JUMPDEST PUSH1 0x40 MLOAD PUSH2 0x4E2 SWAP2 SWAP1 PUSH2 0x386B JUMP JUMPDEST PUSH1 0x40 MLOAD DUP1 SWAP2 SUB SWAP1 RETURN JUMPDEST PUSH2 0x4F3 PUSH2 0x1634 JUMP JUMPDEST PUSH1 0x40 MLOAD PUSH2 0x500 SWAP2 SWAP1 PUSH2 0x393D JUMP JUMPDEST PUSH1 0x40 MLOAD DUP1 SWAP2 SUB SWAP1 RETURN JUMPDEST PUSH2 0x523 PUSH1 0x4 DUP1 CALLDATASIZE SUB DUP2 ADD SWAP1 PUSH2 0x51E SWAP2 SWAP1 PUSH2 0x3791 JUMP JUMPDEST PUSH2 0x16C9 JUMP JUMPDEST STOP JUMPDEST PUSH2 0x53F PUSH1 0x4 DUP1 CALLDATASIZE SUB DUP2 ADD SWAP1 PUSH2 0x53A SWAP2 SWAP1 PUSH2 0x38E5 JUMP JUMPDEST PUSH2 0x197B JUMP JUMPDEST PUSH1 0x40 MLOAD PUSH2 0x54C SWAP2 SWAP1 PUSH2 0x393D JUMP JUMPDEST PUSH1 0x40 MLOAD DUP1 SWAP2 SUB SWAP1 RETURN JUMPDEST PUSH2 0x55D PUSH2 0x19F0 JUMP JUMPDEST PUSH1 0x40 MLOAD PUSH2 0x56A SWAP2 SWAP1 PUSH2 0x3E4E JUMP JUMPDEST PUSH1 0x40 MLOAD DUP1 SWAP2 SUB SWAP1 RETURN JUMPDEST PUSH2 0x58D PUSH1 0x4 DUP1 CALLDATASIZE SUB DUP2 ADD SWAP1 PUSH2 0x588 SWAP2 SWAP1 PUSH2 0x38E5 JUMP JUMPDEST PUSH2 0x1A16 JUMP JUMPDEST PUSH1 0x40 MLOAD PUSH2 0x59A SWAP2 SWAP1 PUSH2 0x393D JUMP JUMPDEST PUSH1 0x40 MLOAD DUP1 SWAP2 SUB SWAP1 RETURN JUMPDEST PUSH2 0x5BD PUSH1 0x4 DUP1 CALLDATASIZE SUB DUP2 ADD SWAP1 PUSH2 0x5B8 SWAP2 SWAP1 PUSH2 0x3EBB JUMP JUMPDEST PUSH2 0x1A38 JUMP JUMPDEST STOP JUMPDEST PUSH2 0x5D9 PUSH1 0x4 DUP1 CALLDATASIZE SUB DUP2 ADD SWAP1 PUSH2 0x5D4 SWAP2 SWAP1 PUSH2 0x3F58 JUMP JUMPDEST PUSH2 0x1B77 JUMP JUMPDEST PUSH1 0x40 MLOAD PUSH2 0x5E6 SWAP2 SWAP1 PUSH2 0x39B7 JUMP JUMPDEST PUSH1 0x40 MLOAD DUP1 SWAP2 SUB SWAP1 RETURN JUMPDEST PUSH2 0x609 PUSH1 0x4 DUP1 CALLDATASIZE SUB DUP2 ADD SWAP1 PUSH2 0x604 SWAP2 SWAP1 PUSH2 0x3AD4 JUMP JUMPDEST PUSH2 0x1BF9 JUMP JUMPDEST STOP JUMPDEST PUSH2 0x625 PUSH1 0x4 DUP1 CALLDATASIZE SUB DUP2 ADD SWAP1 PUSH2 0x620 SWAP2 SWAP1 PUSH2 0x3AD4 JUMP JUMPDEST PUSH2 0x1CAB JUMP JUMPDEST STOP JUMPDEST PUSH2 0x62F PUSH2 0x1D2D JUMP JUMPDEST PUSH0 DUP1 PUSH2 0x639 PUSH2 0xDBD JUMP JUMPDEST SWAP2 POP SWAP2 POP PUSH2 0x130 PUSH0 SWAP1 SLOAD SWAP1 PUSH2 0x100 EXP SWAP1 DIV PUSH20 0xFFFFFFFFFFFFFFFFFFFFFFFFFFFFFFFFFFFFFFFF AND PUSH20 0xFFFFFFFFFFFFFFFFFFFFFFFFFFFFFFFFFFFFFFFF AND PUSH4 0x17DD7A72 PUSH1 0x40 MLOAD DUP2 PUSH4 0xFFFFFFFF AND PUSH1 0xE0 SHL DUP2 MSTORE PUSH1 0x4 ADD PUSH0 PUSH1 0x40 MLOAD DUP1 DUP4 SUB DUP2 PUSH0 DUP8 DUP1 EXTCODESIZE ISZERO DUP1 ISZERO PUSH2 0x6A4 JUMPI PUSH0 DUP1 REVERT JUMPDEST POP GAS CALL ISZERO DUP1 ISZERO PUSH2 0x6B6 JUMPI RETURNDATASIZE PUSH0 DUP1 RETURNDATACOPY RETURNDATASIZE PUSH0 REVERT JUMPDEST POP POP POP POP PUSH0 DUP1 PUSH2 0x6C4 PUSH2 0x1137 JUMP JUMPDEST SWAP2 POP SWAP2 POP PUSH0 PUSH2 0x130 PUSH0 SWAP1 SLOAD SWAP1 PUSH2 0x100 EXP SWAP1 DIV PUSH20 0xFFFFFFFFFFFFFFFFFFFFFFFFFFFFFFFFFFFFFFFF AND PUSH20 0xFFFFFFFFFFFFFFFFFFFFFFFFFFFFFFFFFFFFFFFF AND PUSH4 0xA035B1FE PUSH1 0x40 MLOAD DUP2 PUSH4 0xFFFFFFFF AND PUSH1 0xE0 SHL DUP2 MSTORE PUSH1 0x4 ADD PUSH1 0x20 PUSH1 0x40 MLOAD DUP1 DUP4 SUB DUP2 DUP7 GAS STATICCALL ISZERO DUP1 ISZERO PUSH2 0x734 JUMPI RETURNDATASIZE PUSH0 DUP1 RETURNDATACOPY RETURNDATASIZE PUSH0 REVERT JUMPDEST POP POP POP POP PUSH1 0x40 MLOAD RETURNDATASIZE PUSH1 0x1F NOT PUSH1 0x1F DUP3 ADD AND DUP3 ADD DUP1 PUSH1 0x40 MSTORE POP DUP2 ADD SWAP1 PUSH2 0x758 SWAP2 SWAP1 PUSH2 0x3FAA JUMP JUMPDEST SWAP1 POP PUSH0 DUP1 PUSH0 DUP1 PUSH2 0x773 DUP6 DUP14 DUP14 DUP11 DUP11 PUSH2 0x76E PUSH2 0xD28 JUMP JUMPDEST PUSH2 0x1D7C JUMP JUMPDEST SWAP4 POP SWAP4 POP SWAP4 POP SWAP4 POP DUP12 DUP5 GT DUP1 PUSH2 0x788 JUMPI POP DUP11 DUP4 GT JUMPDEST ISZERO PUSH2 0x7BF JUMPI PUSH1 0x40 MLOAD PUSH32 0x22BBB43C00000000000000000000000000000000000000000000000000000000 DUP2 MSTORE PUSH1 0x4 ADD PUSH1 0x40 MLOAD DUP1 SWAP2 SUB SWAP1 REVERT JUMPDEST PUSH0 DUP5 GT ISZERO PUSH2 0x817 JUMPI PUSH2 0x816 CALLER PUSH2 0x130 PUSH0 SWAP1 SLOAD SWAP1 PUSH2 0x100 EXP SWAP1 DIV PUSH20 0xFFFFFFFFFFFFFFFFFFFFFFFFFFFFFFFFFFFFFFFF AND DUP7 DUP13 PUSH20 0xFFFFFFFFFFFFFFFFFFFFFFFFFFFFFFFFFFFFFFFF AND PUSH2 0x21AC SWAP1 SWAP4 SWAP3 SWAP2 SWAP1 PUSH4 0xFFFFFFFF AND JUMP JUMPDEST JUMPDEST PUSH0 DUP4 GT ISZERO PUSH2 0x86F JUMPI PUSH2 0x86E CALLER PUSH2 0x130 PUSH0 SWAP1 SLOAD SWAP1 PUSH2 0x100 EXP SWAP1 DIV PUSH20 0xFFFFFFFFFFFFFFFFFFFFFFFFFFFFFFFFFFFFFFFF AND DUP6 DUP12 PUSH20 0xFFFFFFFFFFFFFFFFFFFFFFFFFFFFFFFFFFFFFFFF AND PUSH2 0x21AC SWAP1 SWAP4 SWAP3 SWAP2 SWAP1 PUSH4 0xFFFFFFFF AND JUMP JUMPDEST JUMPDEST PUSH0 DUP1 PUSH2 0x879 PUSH2 0x1137 JUMP JUMPDEST SWAP2 POP SWAP2 POP DUP9 DUP3 PUSH2 0x889 SWAP2 SWAP1 PUSH2 0x4002 JUMP JUMPDEST SWAP6 POP DUP8 DUP2 PUSH2 0x897 SWAP2 SWAP1 PUSH2 0x4002 JUMP JUMPDEST SWAP5 POP POP POP PUSH2 0x130 PUSH0 SWAP1 SLOAD SWAP1 PUSH2 0x100 EXP SWAP1 DIV PUSH20 0xFFFFFFFFFFFFFFFFFFFFFFFFFFFFFFFFFFFFFFFF AND PUSH20 0xFFFFFFFFFFFFFFFFFFFFFFFFFFFFFFFFFFFFFFFF AND PUSH4 0xD0E30DB0 PUSH1 0x40 MLOAD DUP2 PUSH4 0xFFFFFFFF AND PUSH1 0xE0 SHL DUP2 MSTORE PUSH1 0x4 ADD PUSH0 PUSH1 0x40 MLOAD DUP1 DUP4 SUB DUP2 PUSH0 DUP8 DUP1 EXTCODESIZE ISZERO DUP1 ISZERO PUSH2 0x902 JUMPI PUSH0 DUP1 REVERT JUMPDEST POP GAS CALL ISZERO DUP1 ISZERO PUSH2 0x914 JUMPI RETURNDATASIZE PUSH0 DUP1 RETURNDATACOPY RETURNDATASIZE PUSH0 REVERT JUMPDEST POP POP POP POP PUSH0 PUSH15 0xC097CE7BC90715B34B9F1000000000 DUP7 DUP5 DUP8 PUSH2 0x936 SWAP2 SWAP1 PUSH2 0x4002 JUMP JUMPDEST PUSH2 0x940 SWAP2 SWAP1 PUSH2 0x4035 JUMP JUMPDEST PUSH2 0x94A SWAP2 SWAP1 PUSH2 0x40A3 JUMP JUMPDEST DUP3 DUP6 PUSH2 0x956 SWAP2 SWAP1 PUSH2 0x4002 JUMP JUMPDEST PUSH2 0x960 SWAP2 SWAP1 PUSH2 0x40D3 JUMP JUMPDEST SWAP1 POP PUSH0 PUSH2 0x96B PUSH2 0xC10 JUMP JUMPDEST SWAP1 POP PUSH0 DUP2 GT ISZERO PUSH2 0x9FF JUMPI DUP3 DUP9 PUSH2 0x981 SWAP2 SWAP1 PUSH2 0x40D3 JUMP JUMPDEST PUSH15 0xC097CE7BC90715B34B9F1000000000 PUSH1 0x1 PUSH15 0xC097CE7BC90715B34B9F1000000000 DUP11 DUP9 DUP15 PUSH2 0x9B0 SWAP2 SWAP1 PUSH2 0x40D3 JUMP JUMPDEST PUSH2 0x9BA SWAP2 SWAP1 PUSH2 0x4035 JUMP JUMPDEST PUSH2 0x9C4 SWAP2 SWAP1 PUSH2 0x40D3 JUMP JUMPDEST PUSH2 0x9CE SWAP2 SWAP1 PUSH2 0x4002 JUMP JUMPDEST PUSH2 0x9D8 SWAP2 SWAP1 PUSH2 0x40A3 JUMP JUMPDEST PUSH2 0x9E2 SWAP2 SWAP1 PUSH2 0x40D3 JUMP JUMPDEST DUP2 DUP4 PUSH2 0x9EE SWAP2 SWAP1 PUSH2 0x4035 JUMP JUMPDEST PUSH2 0x9F8 SWAP2 SWAP1 PUSH2 0x40A3 JUMP JUMPDEST SWAP2 POP PUSH2 0xA1E JUMP JUMPDEST PUSH2 0x3E8 DUP3 PUSH2 0xA0D SWAP2 SWAP1 PUSH2 0x4002 JUMP JUMPDEST SWAP2 POP PUSH2 0xA1D PUSH2 0xDEAD PUSH2 0x3E8 PUSH2 0x2235 JUMP JUMPDEST JUMPDEST DUP12 DUP3 LT ISZERO PUSH2 0xA58 JUMPI PUSH1 0x40 MLOAD PUSH32 0xFA6AD35500000000000000000000000000000000000000000000000000000000 DUP2 MSTORE PUSH1 0x4 ADD PUSH1 0x40 MLOAD DUP1 SWAP2 SUB SWAP1 REVERT JUMPDEST PUSH0 DUP3 SUB PUSH2 0xA91 JUMPI PUSH1 0x40 MLOAD PUSH32 0xB317087B00000000000000000000000000000000000000000000000000000000 DUP2 MSTORE PUSH1 0x4 ADD PUSH1 0x40 MLOAD DUP1 SWAP2 SUB SWAP1 REVERT JUMPDEST PUSH2 0xA9B CALLER DUP4 PUSH2 0x2235 JUMP JUMPDEST CALLER PUSH20 0xFFFFFFFFFFFFFFFFFFFFFFFFFFFFFFFFFFFFFFFF AND PUSH32 0xF943CF10EF4D1E3239F4716DDECDF546E8BA8AB0E41DEAFD9A71A99936827E45 DUP4 DUP9 DUP9 DUP9 DUP9 PUSH1 0x40 MLOAD PUSH2 0xAE9 SWAP6 SWAP5 SWAP4 SWAP3 SWAP2 SWAP1 PUSH2 0x3B3D JUMP JUMPDEST PUSH1 0x40 MLOAD DUP1 SWAP2 SUB SWAP1 LOG2 POP POP POP POP POP POP POP POP POP POP POP PUSH2 0xB04 PUSH2 0x2384 JUMP JUMPDEST POP POP POP JUMP JUMPDEST PUSH1 0x60 PUSH1 0x36 DUP1 SLOAD PUSH2 0xB18 SWAP1 PUSH2 0x4133 JUMP JUMPDEST DUP1 PUSH1 0x1F ADD PUSH1 0x20 DUP1 SWAP2 DIV MUL PUSH1 0x20 ADD PUSH1 0x40 MLOAD SWAP1 DUP2 ADD PUSH1 0x40 MSTORE DUP1 SWAP3 SWAP2 SWAP1 DUP2 DUP2 MSTORE PUSH1 0x20 ADD DUP3 DUP1 SLOAD PUSH2 0xB44 SWAP1 PUSH2 0x4133 JUMP JUMPDEST DUP1 ISZERO PUSH2 0xB8F JUMPI DUP1 PUSH1 0x1F LT PUSH2 0xB66 JUMPI PUSH2 0x100 DUP1 DUP4 SLOAD DIV MUL DUP4 MSTORE SWAP2 PUSH1 0x20 ADD SWAP2 PUSH2 0xB8F JUMP JUMPDEST DUP3 ADD SWAP2 SWAP1 PUSH0 MSTORE PUSH1 0x20 PUSH0 KECCAK256 SWAP1 JUMPDEST DUP2 SLOAD DUP2 MSTORE SWAP1 PUSH1 0x1 ADD SWAP1 PUSH1 0x20 ADD DUP1 DUP4 GT PUSH2 0xB72 JUMPI DUP3 SWAP1 SUB PUSH1 0x1F AND DUP3 ADD SWAP2 JUMPDEST POP POP POP POP POP SWAP1 POP SWAP1 JUMP JUMPDEST PUSH0 DUP1 PUSH2 0xBA3 PUSH2 0x238E JUMP JUMPDEST SWAP1 POP PUSH2 0xBB0 DUP2 DUP6 DUP6 PUSH2 0x2395 JUMP JUMPDEST PUSH1 0x1 SWAP2 POP POP SWAP3 SWAP2 POP POP JUMP JUMPDEST PUSH0 DUP1 PUSH0 DUP1 PUSH2 0xBC7 PUSH2 0x1137 JUMP JUMPDEST SWAP2 POP SWAP2 POP PUSH0 PUSH2 0xBD4 PUSH2 0xC10 JUMP JUMPDEST SWAP1 POP DUP1 DUP7 DUP5 PUSH2 0xBE3 SWAP2 SWAP1 PUSH2 0x4035 JUMP JUMPDEST PUSH2 0xBED SWAP2 SWAP1 PUSH2 0x40A3 JUMP JUMPDEST SWAP5 POP DUP1 DUP7 DUP4 PUSH2 0xBFC SWAP2 SWAP1 PUSH2 0x4035 JUMP JUMPDEST PUSH2 0xC06 SWAP2 SWAP1 PUSH2 0x40A3 JUMP JUMPDEST SWAP4 POP POP POP POP SWAP2 POP SWAP2 JUMP JUMPDEST PUSH0 PUSH1 0x35 SLOAD SWAP1 POP SWAP1 JUMP JUMPDEST PUSH0 PUSH2 0x130 PUSH0 SWAP1 SLOAD SWAP1 PUSH2 0x100 EXP SWAP1 DIV PUSH20 0xFFFFFFFFFFFFFFFFFFFFFFFFFFFFFFFFFFFFFFFF AND PUSH20 0xFFFFFFFFFFFFFFFFFFFFFFFFFFFFFFFFFFFFFFFF AND PUSH4 0x16F0115B PUSH1 0x40 MLOAD DUP2 PUSH4 0xFFFFFFFF AND PUSH1 0xE0 SHL DUP2 MSTORE PUSH1 0x4 ADD PUSH1 0x20 PUSH1 0x40 MLOAD DUP1 DUP4 SUB DUP2 DUP7 GAS STATICCALL ISZERO DUP1 ISZERO PUSH2 0xC85 JUMPI RETURNDATASIZE PUSH0 DUP1 RETURNDATACOPY RETURNDATASIZE PUSH0 REVERT JUMPDEST POP POP POP POP PUSH1 0x40 MLOAD RETURNDATASIZE PUSH1 0x1F NOT PUSH1 0x1F DUP3 ADD AND DUP3 ADD DUP1 PUSH1 0x40 MSTORE POP DUP2 ADD SWAP1 PUSH2 0xCA9 SWAP2 SWAP1 PUSH2 0x4177 JUMP JUMPDEST SWAP1 POP SWAP1 JUMP JUMPDEST PUSH0 DUP1 PUSH2 0xCB8 PUSH2 0x238E JUMP JUMPDEST SWAP1 POP PUSH2 0xCC5 DUP6 DUP3 DUP6 PUSH2 0x2558 JUMP JUMPDEST PUSH2 0xCD0 DUP6 DUP6 DUP6 PUSH2 0x25E3 JUMP JUMPDEST PUSH1 0x1 SWAP2 POP POP SWAP4 SWAP3 POP POP POP JUMP JUMPDEST PUSH0 PUSH1 0x12 SWAP1 POP SWAP1 JUMP JUMPDEST PUSH0 PUSH2 0xCED PUSH2 0x2852 JUMP JUMPDEST SWAP1 POP SWAP1 JUMP JUMPDEST PUSH0 DUP1 PUSH2 0xCFC PUSH2 0x238E JUMP JUMPDEST SWAP1 POP PUSH2 0xD1D DUP2 DUP6 DUP6 PUSH2 0xD0E DUP6 DUP10 PUSH2 0x1B77 JUMP JUMPDEST PUSH2 0xD18 SWAP2 SWAP1 PUSH2 0x40D3 JUMP JUMPDEST PUSH2 0x2395 JUMP JUMPDEST PUSH1 0x1 SWAP2 POP POP SWAP3 SWAP2 POP POP JUMP JUMPDEST PUSH0 PUSH2 0x130 PUSH0 SWAP1 SLOAD SWAP1 PUSH2 0x100 EXP SWAP1 DIV PUSH20 0xFFFFFFFFFFFFFFFFFFFFFFFFFFFFFFFFFFFFFFFF AND PUSH20 0xFFFFFFFFFFFFFFFFFFFFFFFFFFFFFFFFFFFFFFFF AND PUSH4 0x54CF2AEB PUSH1 0x40 MLOAD DUP2 PUSH4 0xFFFFFFFF AND PUSH1 0xE0 SHL DUP2 MSTORE PUSH1 0x4 ADD PUSH1 0x20 PUSH1 0x40 MLOAD DUP1 DUP4 SUB DUP2 DUP7 GAS STATICCALL ISZERO DUP1 ISZERO PUSH2 0xD94 JUMPI RETURNDATASIZE PUSH0 DUP1 RETURNDATACOPY RETURNDATASIZE PUSH0 REVERT JUMPDEST POP POP POP POP PUSH1 0x40 MLOAD RETURNDATASIZE PUSH1 0x1F NOT PUSH1 0x1F DUP3 ADD AND DUP3 ADD DUP1 PUSH1 0x40 MSTORE POP DUP2 ADD SWAP1 PUSH2 0xDB8 SWAP2 SWAP1 PUSH2 0x3FAA JUMP JUMPDEST SWAP1 POP SWAP1 JUMP JUMPDEST PUSH0 DUP1 PUSH2 0x130 PUSH0 SWAP1 SLOAD SWAP1 PUSH2 0x100 EXP SWAP1 DIV PUSH20 0xFFFFFFFFFFFFFFFFFFFFFFFFFFFFFFFFFFFFFFFF AND PUSH20 0xFFFFFFFFFFFFFFFFFFFFFFFFFFFFFFFFFFFFFFFF AND PUSH4 0x5EE167C0 PUSH1 0x40 MLOAD DUP2 PUSH4 0xFFFFFFFF AND PUSH1 0xE0 SHL DUP2 MSTORE PUSH1 0x4 ADD PUSH1 0x20 PUSH1 0x40 MLOAD DUP1 DUP4 SUB DUP2 DUP7 GAS STATICCALL ISZERO DUP1 ISZERO PUSH2 0xE2A JUMPI RETURNDATASIZE PUSH0 DUP1 RETURNDATACOPY RETURNDATASIZE PUSH0 REVERT JUMPDEST POP POP POP POP PUSH1 0x40 MLOAD RETURNDATASIZE PUSH1 0x1F NOT PUSH1 0x1F DUP3 ADD AND DUP3 ADD DUP1 PUSH1 0x40 MSTORE POP DUP2 ADD SWAP1 PUSH2 0xE4E SWAP2 SWAP1 PUSH2 0x4177 JUMP JUMPDEST SWAP2 POP PUSH2 0x130 PUSH0 SWAP1 SLOAD SWAP1 PUSH2 0x100 EXP SWAP1 DIV PUSH20 0xFFFFFFFFFFFFFFFFFFFFFFFFFFFFFFFFFFFFFFFF AND PUSH20 0xFFFFFFFFFFFFFFFFFFFFFFFFFFFFFFFFFFFFFFFF AND PUSH4 0x877562B6 PUSH1 0x40 MLOAD DUP2 PUSH4 0xFFFFFFFF AND PUSH1 0xE0 SHL DUP2 MSTORE PUSH1 0x4 ADD PUSH1 0x20 PUSH1 0x40 MLOAD DUP1 DUP4 SUB DUP2 DUP7 GAS STATICCALL ISZERO DUP1 ISZERO PUSH2 0xEBB JUMPI RETURNDATASIZE PUSH0 DUP1 RETURNDATACOPY RETURNDATASIZE PUSH0 REVERT JUMPDEST POP POP POP POP PUSH1 0x40 MLOAD RETURNDATASIZE PUSH1 0x1F NOT PUSH1 0x1F DUP3 ADD AND DUP3 ADD DUP1 PUSH1 0x40 MSTORE POP DUP2 ADD SWAP1 PUSH2 0xEDF SWAP2 SWAP1 PUSH2 0x4177 JUMP JUMPDEST SWAP1 POP SWAP1 SWAP2 JUMP JUMPDEST PUSH0 PUSH1 0x33 PUSH0 DUP4 PUSH20 0xFFFFFFFFFFFFFFFFFFFFFFFFFFFFFFFFFFFFFFFF AND PUSH20 0xFFFFFFFFFFFFFFFFFFFFFFFFFFFFFFFFFFFFFFFF AND DUP2 MSTORE PUSH1 0x20 ADD SWAP1 DUP2 MSTORE PUSH1 0x20 ADD PUSH0 KECCAK256 SLOAD SWAP1 POP SWAP2 SWAP1 POP JUMP JUMPDEST PUSH2 0xF33 PUSH2 0x2860 JUMP JUMPDEST PUSH2 0xF3C PUSH0 PUSH2 0x28DE JUMP JUMPDEST JUMP JUMPDEST PUSH0 DUP1 PUSH0 DUP1 PUSH0 DUP1 PUSH2 0x130 PUSH0 SWAP1 SLOAD SWAP1 PUSH2 0x100 EXP SWAP1 DIV PUSH20 0xFFFFFFFFFFFFFFFFFFFFFFFFFFFFFFFFFFFFFFFF AND PUSH20 0xFFFFFFFFFFFFFFFFFFFFFFFFFFFFFFFFFFFFFFFF AND PUSH4 0xA035B1FE PUSH1 0x40 MLOAD DUP2 PUSH4 0xFFFFFFFF AND PUSH1 0xE0 SHL DUP2 MSTORE PUSH1 0x4 ADD PUSH1 0x20 PUSH1 0x40 MLOAD DUP1 DUP4 SUB DUP2 DUP7 GAS STATICCALL ISZERO DUP1 ISZERO PUSH2 0xFAF JUMPI RETURNDATASIZE PUSH0 DUP1 RETURNDATACOPY RETURNDATASIZE PUSH0 REVERT JUMPDEST POP POP POP POP PUSH1 0x40 MLOAD RETURNDATASIZE PUSH1 0x1F NOT PUSH1 0x1F DUP3 ADD AND DUP3 ADD DUP1 PUSH1 0x40 MSTORE POP DUP2 ADD SWAP1 PUSH2 0xFD3 SWAP2 SWAP1 PUSH2 0x3FAA JUMP JUMPDEST SWAP1 POP PUSH0 DUP1 PUSH2 0xFDF PUSH2 0x1137 JUMP JUMPDEST SWAP2 POP SWAP2 POP PUSH2 0xFF8 DUP4 DUP12 DUP12 DUP6 DUP6 PUSH2 0xFF3 PUSH2 0xD28 JUMP JUMPDEST PUSH2 0x1D7C JUMP JUMPDEST DUP1 SWAP8 POP DUP2 SWAP9 POP DUP3 SWAP10 POP DUP4 SWAP11 POP POP POP POP POP PUSH0 PUSH2 0x1011 PUSH2 0xC10 JUMP JUMPDEST SWAP1 POP PUSH0 DUP2 SUB PUSH2 0x1021 JUMPI DUP11 SWAP3 POP DUP10 SWAP2 POP JUMPDEST PUSH15 0xC097CE7BC90715B34B9F1000000000 DUP5 DUP8 DUP11 PUSH2 0x103E SWAP2 SWAP1 PUSH2 0x4002 JUMP JUMPDEST PUSH2 0x1048 SWAP2 SWAP1 PUSH2 0x4035 JUMP JUMPDEST PUSH2 0x1052 SWAP2 SWAP1 PUSH2 0x40A3 JUMP JUMPDEST DUP6 DUP9 PUSH2 0x105E SWAP2 SWAP1 PUSH2 0x4002 JUMP JUMPDEST PUSH2 0x1068 SWAP2 SWAP1 PUSH2 0x40D3 JUMP JUMPDEST SWAP9 POP PUSH0 DUP2 GT ISZERO PUSH2 0x1101 JUMPI PUSH0 DUP6 DUP4 PUSH2 0x107F SWAP2 SWAP1 PUSH2 0x40D3 JUMP JUMPDEST PUSH15 0xC097CE7BC90715B34B9F1000000000 PUSH1 0x1 PUSH15 0xC097CE7BC90715B34B9F1000000000 DUP9 DUP12 DUP10 PUSH2 0x10AE SWAP2 SWAP1 PUSH2 0x40D3 JUMP JUMPDEST PUSH2 0x10B8 SWAP2 SWAP1 PUSH2 0x4035 JUMP JUMPDEST PUSH2 0x10C2 SWAP2 SWAP1 PUSH2 0x40D3 JUMP JUMPDEST PUSH2 0x10CC SWAP2 SWAP1 PUSH2 0x4002 JUMP JUMPDEST PUSH2 0x10D6 SWAP2 SWAP1 PUSH2 0x40A3 JUMP JUMPDEST PUSH2 0x10E0 SWAP2 SWAP1 PUSH2 0x40D3 JUMP JUMPDEST SWAP1 POP DUP1 DUP3 DUP12 PUSH2 0x10EF SWAP2 SWAP1 PUSH2 0x4035 JUMP JUMPDEST PUSH2 0x10F9 SWAP2 SWAP1 PUSH2 0x40A3 JUMP JUMPDEST SWAP10 POP POP PUSH2 0x1112 JUMP JUMPDEST PUSH2 0x3E8 DUP10 PUSH2 0x110F SWAP2 SWAP1 PUSH2 0x4002 JUMP JUMPDEST SWAP9 POP JUMPDEST POP POP POP POP SWAP3 SWAP6 POP SWAP3 SWAP6 SWAP1 SWAP4 POP JUMP JUMPDEST PUSH2 0x1133 PUSH2 0x112C CALLER PUSH2 0xEE5 JUMP JUMPDEST DUP4 DUP4 PUSH2 0x16C9 JUMP JUMPDEST POP POP JUMP JUMPDEST PUSH0 DUP1 PUSH2 0x130 PUSH0 SWAP1 SLOAD SWAP1 PUSH2 0x100 EXP SWAP1 DIV PUSH20 0xFFFFFFFFFFFFFFFFFFFFFFFFFFFFFFFFFFFFFFFF AND PUSH20 0xFFFFFFFFFFFFFFFFFFFFFFFFFFFFFFFFFFFFFFFF AND PUSH4 0x7BB98A68 PUSH1 0x40 MLOAD DUP2 PUSH4 0xFFFFFFFF AND PUSH1 0xE0 SHL DUP2 MSTORE PUSH1 0x4 ADD PUSH1 0x40 DUP1 MLOAD DUP1 DUP4 SUB DUP2 DUP7 GAS STATICCALL ISZERO DUP1 ISZERO PUSH2 0x11A3 JUMPI RETURNDATASIZE PUSH0 DUP1 RETURNDATACOPY RETURNDATASIZE PUSH0 REVERT JUMPDEST POP POP POP POP PUSH1 0x40 MLOAD RETURNDATASIZE PUSH1 0x1F NOT PUSH1 0x1F DUP3 ADD AND DUP3 ADD DUP1 PUSH1 0x40 MSTORE POP DUP2 ADD SWAP1 PUSH2 0x11C7 SWAP2 SWAP1 PUSH2 0x41A2 JUMP JUMPDEST DUP1 SWAP3 POP DUP2 SWAP4 POP POP POP SWAP1 SWAP2 JUMP JUMPDEST PUSH0 PUSH2 0x1219 PUSH1 0x99 PUSH0 DUP5 PUSH20 0xFFFFFFFFFFFFFFFFFFFFFFFFFFFFFFFFFFFFFFFF AND PUSH20 0xFFFFFFFFFFFFFFFFFFFFFFFFFFFFFFFFFFFFFFFF AND DUP2 MSTORE PUSH1 0x20 ADD SWAP1 DUP2 MSTORE PUSH1 0x20 ADD PUSH0 KECCAK256 PUSH2 0x29A1 JUMP JUMPDEST SWAP1 POP SWAP2 SWAP1 POP JUMP JUMPDEST PUSH0 PUSH1 0x60 DUP1 PUSH0 DUP1 PUSH0 PUSH1 0x60 PUSH0 DUP1 SHL PUSH1 0x65 SLOAD EQ DUP1 ISZERO PUSH2 0x123F JUMPI POP PUSH0 DUP1 SHL PUSH1 0x66 SLOAD EQ JUMPDEST PUSH2 0x127E JUMPI PUSH1 0x40 MLOAD PUSH32 0x8C379A000000000000000000000000000000000000000000000000000000000 DUP2 MSTORE PUSH1 0x4 ADD PUSH2 0x1275 SWAP1 PUSH2 0x422A JUMP JUMPDEST PUSH1 0x40 MLOAD DUP1 SWAP2 SUB SWAP1 REVERT JUMPDEST PUSH2 0x1286 PUSH2 0x29AD JUMP JUMPDEST PUSH2 0x128E PUSH2 0x2A3D JUMP JUMPDEST CHAINID ADDRESS PUSH0 DUP1 SHL PUSH0 PUSH8 0xFFFFFFFFFFFFFFFF DUP2 GT ISZERO PUSH2 0x12AD JUMPI PUSH2 0x12AC PUSH2 0x4248 JUMP JUMPDEST JUMPDEST PUSH1 0x40 MLOAD SWAP1 DUP1 DUP3 MSTORE DUP1 PUSH1 0x20 MUL PUSH1 0x20 ADD DUP3 ADD PUSH1 0x40 MSTORE DUP1 ISZERO PUSH2 0x12DB JUMPI DUP2 PUSH1 0x20 ADD PUSH1 0x20 DUP3 MUL DUP1 CALLDATASIZE DUP4 CALLDATACOPY DUP1 DUP3 ADD SWAP2 POP POP SWAP1 POP JUMPDEST POP PUSH32 0xF00000000000000000000000000000000000000000000000000000000000000 SWAP6 SWAP5 SWAP4 SWAP3 SWAP2 SWAP1 SWAP7 POP SWAP7 POP SWAP7 POP SWAP7 POP SWAP7 POP SWAP7 POP SWAP7 POP SWAP1 SWAP2 SWAP3 SWAP4 SWAP5 SWAP6 SWAP7 JUMP JUMPDEST PUSH0 PUSH1 0xCC PUSH0 SWAP1 SLOAD SWAP1 PUSH2 0x100 EXP SWAP1 DIV PUSH20 0xFFFFFFFFFFFFFFFFFFFFFFFFFFFFFFFFFFFFFFFF AND SWAP1 POP SWAP1 JUMP JUMPDEST PUSH0 DUP1 PUSH1 0x1 SWAP1 SLOAD SWAP1 PUSH2 0x100 EXP SWAP1 DIV PUSH1 0xFF AND ISZERO SWAP1 POP DUP1 DUP1 ISZERO PUSH2 0x1371 JUMPI POP PUSH1 0x1 PUSH0 DUP1 SLOAD SWAP1 PUSH2 0x100 EXP SWAP1 DIV PUSH1 0xFF AND PUSH1 0xFF AND LT JUMPDEST DUP1 PUSH2 0x139D JUMPI POP PUSH2 0x1380 ADDRESS PUSH2 0x2ACD JUMP JUMPDEST ISZERO DUP1 ISZERO PUSH2 0x139C JUMPI POP PUSH1 0x1 PUSH0 DUP1 SLOAD SWAP1 PUSH2 0x100 EXP SWAP1 DIV PUSH1 0xFF AND PUSH1 0xFF AND EQ JUMPDEST JUMPDEST PUSH2 0x13DC JUMPI PUSH1 0x40 MLOAD PUSH32 0x8C379A000000000000000000000000000000000000000000000000000000000 DUP2 MSTORE PUSH1 0x4 ADD PUSH2 0x13D3 SWAP1 PUSH2 0x42E5 JUMP JUMPDEST PUSH1 0x40 MLOAD DUP1 SWAP2 SUB SWAP1 REVERT JUMPDEST PUSH1 0x1 PUSH0 DUP1 PUSH2 0x100 EXP DUP2 SLOAD DUP2 PUSH1 0xFF MUL NOT AND SWAP1 DUP4 PUSH1 0xFF AND MUL OR SWAP1 SSTORE POP DUP1 ISZERO PUSH2 0x1417 JUMPI PUSH1 0x1 PUSH0 PUSH1 0x1 PUSH2 0x100 EXP DUP2 SLOAD DUP2 PUSH1 0xFF MUL NOT AND SWAP1 DUP4 ISZERO ISZERO MUL OR SWAP1 SSTORE POP JUMPDEST PUSH2 0x14A7 DUP6 DUP6 DUP1 DUP1 PUSH1 0x1F ADD PUSH1 0x20 DUP1 SWAP2 DIV MUL PUSH1 0x20 ADD PUSH1 0x40 MLOAD SWAP1 DUP2 ADD PUSH1 0x40 MSTORE DUP1 SWAP4 SWAP3 SWAP2 SWAP1 DUP2 DUP2 MSTORE PUSH1 0x20 ADD DUP4 DUP4 DUP1 DUP3 DUP5 CALLDATACOPY PUSH0 DUP2 DUP5 ADD MSTORE PUSH1 0x1F NOT PUSH1 0x1F DUP3 ADD AND SWAP1 POP DUP1 DUP4 ADD SWAP3 POP POP POP POP POP POP POP DUP5 DUP5 DUP1 DUP1 PUSH1 0x1F ADD PUSH1 0x20 DUP1 SWAP2 DIV MUL PUSH1 0x20 ADD PUSH1 0x40 MLOAD SWAP1 DUP2 ADD PUSH1 0x40 MSTORE DUP1 SWAP4 SWAP3 SWAP2 SWAP1 DUP2 DUP2 MSTORE PUSH1 0x20 ADD DUP4 DUP4 DUP1 DUP3 DUP5 CALLDATACOPY PUSH0 DUP2 DUP5 ADD MSTORE PUSH1 0x1F NOT PUSH1 0x1F DUP3 ADD AND SWAP1 POP DUP1 DUP4 ADD SWAP3 POP POP POP POP POP POP POP PUSH2 0x2AEF JUMP JUMPDEST PUSH2 0x14F3 DUP6 DUP6 DUP1 DUP1 PUSH1 0x1F ADD PUSH1 0x20 DUP1 SWAP2 DIV MUL PUSH1 0x20 ADD PUSH1 0x40 MLOAD SWAP1 DUP2 ADD PUSH1 0x40 MSTORE DUP1 SWAP4 SWAP3 SWAP2 SWAP1 DUP2 DUP2 MSTORE PUSH1 0x20 ADD DUP4 DUP4 DUP1 DUP3 DUP5 CALLDATACOPY PUSH0 DUP2 DUP5 ADD MSTORE PUSH1 0x1F NOT PUSH1 0x1F DUP3 ADD AND SWAP1 POP DUP1 DUP4 ADD SWAP3 POP POP POP POP POP POP POP PUSH2 0x2B4B JUMP JUMPDEST PUSH2 0x14FB PUSH2 0x2BDB JUMP JUMPDEST PUSH2 0x1503 PUSH2 0x2C33 JUMP JUMPDEST DUP6 PUSH2 0x130 PUSH0 PUSH2 0x100 EXP DUP2 SLOAD DUP2 PUSH20 0xFFFFFFFFFFFFFFFFFFFFFFFFFFFFFFFFFFFFFFFF MUL NOT AND SWAP1 DUP4 PUSH20 0xFFFFFFFFFFFFFFFFFFFFFFFFFFFFFFFFFFFFFFFF AND MUL OR SWAP1 SSTORE POP DUP1 ISZERO PUSH2 0x159C JUMPI PUSH0 DUP1 PUSH1 0x1 PUSH2 0x100 EXP DUP2 SLOAD DUP2 PUSH1 0xFF MUL NOT AND SWAP1 DUP4 ISZERO ISZERO MUL OR SWAP1 SSTORE POP PUSH32 0x7F26B83FF96E1F2B6A682F133852F6798A09C465DA95921460CEFB3847402498 PUSH1 0x1 PUSH1 0x40 MLOAD PUSH2 0x1593 SWAP2 SWAP1 PUSH2 0x433C JUMP JUMPDEST PUSH1 0x40 MLOAD DUP1 SWAP2 SUB SWAP1 LOG1 JUMPDEST POP POP POP POP POP POP JUMP JUMPDEST PUSH1 0x60 PUSH1 0x37 DUP1 SLOAD PUSH2 0x15B3 SWAP1 PUSH2 0x4133 JUMP JUMPDEST DUP1 PUSH1 0x1F ADD PUSH1 0x20 DUP1 SWAP2 DIV MUL PUSH1 0x20 ADD PUSH1 0x40 MLOAD SWAP1 DUP2 ADD PUSH1 0x40 MSTORE DUP1 SWAP3 SWAP2 SWAP1 DUP2 DUP2 MSTORE PUSH1 0x20 ADD DUP3 DUP1 SLOAD PUSH2 0x15DF SWAP1 PUSH2 0x4133 JUMP JUMPDEST DUP1 ISZERO PUSH2 0x162A JUMPI DUP1 PUSH1 0x1F LT PUSH2 0x1601 JUMPI PUSH2 0x100 DUP1 DUP4 SLOAD DIV MUL DUP4 MSTORE SWAP2 PUSH1 0x20 ADD SWAP2 PUSH2 0x162A JUMP JUMPDEST DUP3 ADD SWAP2 SWAP1 PUSH0 MSTORE PUSH1 0x20 PUSH0 KECCAK256 SWAP1 JUMPDEST DUP2 SLOAD DUP2 MSTORE SWAP1 PUSH1 0x1 ADD SWAP1 PUSH1 0x20 ADD DUP1 DUP4 GT PUSH2 0x160D JUMPI DUP3 SWAP1 SUB PUSH1 0x1F AND DUP3 ADD SWAP2 JUMPDEST POP POP POP POP POP SWAP1 POP SWAP1 JUMP JUMPDEST PUSH0 PUSH2 0x130 PUSH0 SWAP1 SLOAD SWAP1 PUSH2 0x100 EXP SWAP1 DIV PUSH20 0xFFFFFFFFFFFFFFFFFFFFFFFFFFFFFFFFFFFFFFFF AND PUSH20 0xFFFFFFFFFFFFFFFFFFFFFFFFFFFFFFFFFFFFFFFF AND PUSH4 0x9BDDE46B PUSH1 0x40 MLOAD DUP2 PUSH4 0xFFFFFFFF AND PUSH1 0xE0 SHL DUP2 MSTORE PUSH1 0x4 ADD PUSH1 0x20 PUSH1 0x40 MLOAD DUP1 DUP4 SUB DUP2 DUP7 GAS STATICCALL ISZERO DUP1 ISZERO PUSH2 0x16A0 JUMPI RETURNDATASIZE PUSH0 DUP1 RETURNDATACOPY RETURNDATASIZE PUSH0 REVERT JUMPDEST POP POP POP POP PUSH1 0x40 MLOAD RETURNDATASIZE PUSH1 0x1F NOT PUSH1 0x1F DUP3 ADD AND DUP3 ADD DUP1 PUSH1 0x40 MSTORE POP DUP2 ADD SWAP1 PUSH2 0x16C4 SWAP2 SWAP1 PUSH2 0x437F JUMP JUMPDEST SWAP1 POP SWAP1 JUMP JUMPDEST PUSH0 DUP4 SUB PUSH2 0x1702 JUMPI PUSH1 0x40 MLOAD PUSH32 0xB317087B00000000000000000000000000000000000000000000000000000000 DUP2 MSTORE PUSH1 0x4 ADD PUSH1 0x40 MLOAD DUP1 SWAP2 SUB SWAP1 REVERT JUMPDEST PUSH2 0x130 PUSH0 SWAP1 SLOAD SWAP1 PUSH2 0x100 EXP SWAP1 DIV PUSH20 0xFFFFFFFFFFFFFFFFFFFFFFFFFFFFFFFFFFFFFFFF AND PUSH20 0xFFFFFFFFFFFFFFFFFFFFFFFFFFFFFFFFFFFFFFFF AND PUSH4 0x17DD7A72 PUSH1 0x40 MLOAD DUP2 PUSH4 0xFFFFFFFF AND PUSH1 0xE0 SHL DUP2 MSTORE PUSH1 0x4 ADD PUSH0 PUSH1 0x40 MLOAD DUP1 DUP4 SUB DUP2 PUSH0 DUP8 DUP1 EXTCODESIZE ISZERO DUP1 ISZERO PUSH2 0x1769 JUMPI PUSH0 DUP1 REVERT JUMPDEST POP GAS CALL ISZERO DUP1 ISZERO PUSH2 0x177B JUMPI RETURNDATASIZE PUSH0 DUP1 RETURNDATACOPY RETURNDATASIZE PUSH0 REVERT JUMPDEST POP POP POP POP PUSH0 PUSH2 0x1788 PUSH2 0xC10 JUMP JUMPDEST SWAP1 POP PUSH2 0x1794 CALLER DUP6 PUSH2 0x2C8B JUMP JUMPDEST PUSH0 DUP1 PUSH2 0x179E PUSH2 0x1137 JUMP JUMPDEST SWAP2 POP SWAP2 POP PUSH0 DUP4 DUP8 DUP5 PUSH2 0x17B0 SWAP2 SWAP1 PUSH2 0x4035 JUMP JUMPDEST PUSH2 0x17BA SWAP2 SWAP1 PUSH2 0x40A3 JUMP JUMPDEST SWAP1 POP PUSH0 DUP5 DUP9 DUP5 PUSH2 0x17CA SWAP2 SWAP1 PUSH2 0x4035 JUMP JUMPDEST PUSH2 0x17D4 SWAP2 SWAP1 PUSH2 0x40A3 JUMP JUMPDEST SWAP1 POP PUSH2 0x130 PUSH0 SWAP1 SLOAD SWAP1 PUSH2 0x100 EXP SWAP1 DIV PUSH20 0xFFFFFFFFFFFFFFFFFFFFFFFFFFFFFFFFFFFFFFFF AND PUSH20 0xFFFFFFFFFFFFFFFFFFFFFFFFFFFFFFFFFFFFFFFF AND PUSH4 0x441A3E70 DUP4 DUP4 PUSH1 0x40 MLOAD DUP4 PUSH4 0xFFFFFFFF AND PUSH1 0xE0 SHL DUP2 MSTORE PUSH1 0x4 ADD PUSH2 0x1833 SWAP3 SWAP2 SWAP1 PUSH2 0x3990 JUMP JUMPDEST PUSH0 PUSH1 0x40 MLOAD DUP1 DUP4 SUB DUP2 PUSH0 DUP8 DUP1 EXTCODESIZE ISZERO DUP1 ISZERO PUSH2 0x184A JUMPI PUSH0 DUP1 REVERT JUMPDEST POP GAS CALL ISZERO DUP1 ISZERO PUSH2 0x185C JUMPI RETURNDATASIZE PUSH0 DUP1 RETURNDATACOPY RETURNDATASIZE PUSH0 REVERT JUMPDEST POP POP POP POP DUP7 DUP3 LT DUP1 PUSH2 0x186D JUMPI POP DUP6 DUP2 LT JUMPDEST DUP1 PUSH2 0x1882 JUMPI POP PUSH0 DUP3 EQ DUP1 ISZERO PUSH2 0x1881 JUMPI POP PUSH0 DUP2 EQ JUMPDEST JUMPDEST ISZERO PUSH2 0x18B9 JUMPI PUSH1 0x40 MLOAD PUSH32 0xFA6AD35500000000000000000000000000000000000000000000000000000000 DUP2 MSTORE PUSH1 0x4 ADD PUSH1 0x40 MLOAD DUP1 SWAP2 SUB SWAP1 REVERT JUMPDEST PUSH0 DUP1 PUSH2 0x18C3 PUSH2 0xDBD JUMP JUMPDEST SWAP2 POP SWAP2 POP PUSH2 0x18F2 CALLER DUP6 DUP5 PUSH20 0xFFFFFFFFFFFFFFFFFFFFFFFFFFFFFFFFFFFFFFFF AND PUSH2 0x2E50 SWAP1 SWAP3 SWAP2 SWAP1 PUSH4 0xFFFFFFFF AND JUMP JUMPDEST PUSH2 0x191D CALLER DUP5 DUP4 PUSH20 0xFFFFFFFFFFFFFFFFFFFFFFFFFFFFFFFFFFFFFFFF AND PUSH2 0x2E50 SWAP1 SWAP3 SWAP2 SWAP1 PUSH4 0xFFFFFFFF AND JUMP JUMPDEST CALLER PUSH20 0xFFFFFFFFFFFFFFFFFFFFFFFFFFFFFFFFFFFFFFFF AND PUSH32 0x2F25270A4D87BEA75DB541CDFE559334A275B4A233520ED6C0A2429667CCA94 DUP12 DUP7 DUP7 PUSH1 0x40 MLOAD PUSH2 0x1967 SWAP4 SWAP3 SWAP2 SWAP1 PUSH2 0x43AA JUMP JUMPDEST PUSH1 0x40 MLOAD DUP1 SWAP2 SUB SWAP1 LOG2 POP POP POP POP POP POP POP POP POP POP JUMP JUMPDEST PUSH0 DUP1 PUSH2 0x1985 PUSH2 0x238E JUMP JUMPDEST SWAP1 POP PUSH0 PUSH2 0x1992 DUP3 DUP7 PUSH2 0x1B77 JUMP JUMPDEST SWAP1 POP DUP4 DUP2 LT ISZERO PUSH2 0x19D7 JUMPI PUSH1 0x40 MLOAD PUSH32 0x8C379A000000000000000000000000000000000000000000000000000000000 DUP2 MSTORE PUSH1 0x4 ADD PUSH2 0x19CE SWAP1 PUSH2 0x444F JUMP JUMPDEST PUSH1 0x40 MLOAD DUP1 SWAP2 SUB SWAP1 REVERT JUMPDEST PUSH2 0x19E4 DUP3 DUP7 DUP7 DUP5 SUB PUSH2 0x2395 JUMP JUMPDEST PUSH1 0x1 SWAP3 POP POP POP SWAP3 SWAP2 POP POP JUMP JUMPDEST PUSH2 0x130 PUSH0 SWAP1 SLOAD SWAP1 PUSH2 0x100 EXP SWAP1 DIV PUSH20 0xFFFFFFFFFFFFFFFFFFFFFFFFFFFFFFFFFFFFFFFF AND DUP2 JUMP JUMPDEST PUSH0 DUP1 PUSH2 0x1A20 PUSH2 0x238E JUMP JUMPDEST SWAP1 POP PUSH2 0x1A2D DUP2 DUP6 DUP6 PUSH2 0x25E3 JUMP JUMPDEST PUSH1 0x1 SWAP2 POP POP SWAP3 SWAP2 POP POP JUMP JUMPDEST DUP4 TIMESTAMP GT ISZERO PUSH2 0x1A7B JUMPI PUSH1 0x40 MLOAD PUSH32 0x8C379A000000000000000000000000000000000000000000000000000000000 DUP2 MSTORE PUSH1 0x4 ADD PUSH2 0x1A72 SWAP1 PUSH2 0x44B7 JUMP JUMPDEST PUSH1 0x40 MLOAD DUP1 SWAP2 SUB SWAP1 REVERT JUMPDEST PUSH0 PUSH32 0x6E71EDAE12B1B97F4D1F60370FEF10105FA2FAAE0126114A169C64845D6126C9 DUP9 DUP9 DUP9 PUSH2 0x1AA9 DUP13 PUSH2 0x2ED6 JUMP JUMPDEST DUP10 PUSH1 0x40 MLOAD PUSH1 0x20 ADD PUSH2 0x1ABF SWAP7 SWAP6 SWAP5 SWAP4 SWAP3 SWAP2 SWAP1 PUSH2 0x44D5 JUMP JUMPDEST PUSH1 0x40 MLOAD PUSH1 0x20 DUP2 DUP4 SUB SUB DUP2 MSTORE SWAP1 PUSH1 0x40 MSTORE DUP1 MLOAD SWAP1 PUSH1 0x20 ADD KECCAK256 SWAP1 POP PUSH0 PUSH2 0x1AE1 DUP3 PUSH2 0x2F31 JUMP JUMPDEST SWAP1 POP PUSH0 PUSH2 0x1AF0 DUP3 DUP8 DUP8 DUP8 PUSH2 0x2F4A JUMP JUMPDEST SWAP1 POP DUP10 PUSH20 0xFFFFFFFFFFFFFFFFFFFFFFFFFFFFFFFFFFFFFFFF AND DUP2 PUSH20 0xFFFFFFFFFFFFFFFFFFFFFFFFFFFFFFFFFFFFFFFF AND EQ PUSH2 0x1B60 JUMPI PUSH1 0x40 MLOAD PUSH32 0x8C379A000000000000000000000000000000000000000000000000000000000 DUP2 MSTORE PUSH1 0x4 ADD PUSH2 0x1B57 SWAP1 PUSH2 0x457E JUMP JUMPDEST PUSH1 0x40 MLOAD DUP1 SWAP2 SUB SWAP1 REVERT JUMPDEST PUSH2 0x1B6B DUP11 DUP11 DUP11 PUSH2 0x2395 JUMP JUMPDEST POP POP POP POP POP POP POP POP POP POP JUMP JUMPDEST PUSH0 PUSH1 0x34 PUSH0 DUP5 PUSH20 0xFFFFFFFFFFFFFFFFFFFFFFFFFFFFFFFFFFFFFFFF AND PUSH20 0xFFFFFFFFFFFFFFFFFFFFFFFFFFFFFFFFFFFFFFFF AND DUP2 MSTORE PUSH1 0x20 ADD SWAP1 DUP2 MSTORE PUSH1 0x20 ADD PUSH0 KECCAK256 PUSH0 DUP4 PUSH20 0xFFFFFFFFFFFFFFFFFFFFFFFFFFFFFFFFFFFFFFFF AND PUSH20 0xFFFFFFFFFFFFFFFFFFFFFFFFFFFFFFFFFFFFFFFF AND DUP2 MSTORE PUSH1 0x20 ADD SWAP1 DUP2 MSTORE PUSH1 0x20 ADD PUSH0 KECCAK256 SLOAD SWAP1 POP SWAP3 SWAP2 POP POP JUMP JUMPDEST PUSH2 0x1C01 PUSH2 0x2860 JUMP JUMPDEST PUSH0 DUP2 PUSH20 0xFFFFFFFFFFFFFFFFFFFFFFFFFFFFFFFFFFFFFFFF AND PUSH4 0x70A08231 ADDRESS PUSH1 0x40 MLOAD DUP3 PUSH4 0xFFFFFFFF AND PUSH1 0xE0 SHL DUP2 MSTORE PUSH1 0x4 ADD PUSH2 0x1C3B SWAP2 SWAP1 PUSH2 0x39DF JUMP JUMPDEST PUSH1 0x20 PUSH1 0x40 MLOAD DUP1 DUP4 SUB DUP2 DUP7 GAS STATICCALL ISZERO DUP1 ISZERO PUSH2 0x1C56 JUMPI RETURNDATASIZE PUSH0 DUP1 RETURNDATACOPY RETURNDATASIZE PUSH0 REVERT JUMPDEST POP POP POP POP PUSH1 0x40 MLOAD RETURNDATASIZE PUSH1 0x1F NOT PUSH1 0x1F DUP3 ADD AND DUP3 ADD DUP1 PUSH1 0x40 MSTORE POP DUP2 ADD SWAP1 PUSH2 0x1C7A SWAP2 SWAP1 PUSH2 0x3FAA JUMP JUMPDEST SWAP1 POP PUSH2 0x1CA7 CALLER DUP3 DUP5 PUSH20 0xFFFFFFFFFFFFFFFFFFFFFFFFFFFFFFFFFFFFFFFF AND PUSH2 0x2E50 SWAP1 SWAP3 SWAP2 SWAP1 PUSH4 0xFFFFFFFF AND JUMP JUMPDEST POP POP JUMP JUMPDEST PUSH2 0x1CB3 PUSH2 0x2860 JUMP JUMPDEST PUSH0 PUSH20 0xFFFFFFFFFFFFFFFFFFFFFFFFFFFFFFFFFFFFFFFF AND DUP2 PUSH20 0xFFFFFFFFFFFFFFFFFFFFFFFFFFFFFFFFFFFFFFFF AND SUB PUSH2 0x1D21 JUMPI PUSH1 0x40 MLOAD PUSH32 0x8C379A000000000000000000000000000000000000000000000000000000000 DUP2 MSTORE PUSH1 0x4 ADD PUSH2 0x1D18 SWAP1 PUSH2 0x460C JUMP JUMPDEST PUSH1 0x40 MLOAD DUP1 SWAP2 SUB SWAP1 REVERT JUMPDEST PUSH2 0x1D2A DUP2 PUSH2 0x28DE JUMP JUMPDEST POP JUMP JUMPDEST PUSH1 0x2 PUSH1 0xFE SLOAD SUB PUSH2 0x1D72 JUMPI PUSH1 0x40 MLOAD PUSH32 0x8C379A000000000000000000000000000000000000000000000000000000000 DUP2 MSTORE PUSH1 0x4 ADD PUSH2 0x1D69 SWAP1 PUSH2 0x4674 JUMP JUMPDEST PUSH1 0x40 MLOAD DUP1 SWAP2 SUB SWAP1 REVERT JUMPDEST PUSH1 0x2 PUSH1 0xFE DUP2 SWAP1 SSTORE POP JUMP JUMPDEST PUSH0 DUP1 PUSH0 DUP1 PUSH0 DUP8 EQ DUP1 ISZERO PUSH2 0x1D8E JUMPI POP PUSH0 DUP7 EQ JUMPDEST ISZERO PUSH2 0x1DA4 JUMPI DUP9 DUP9 PUSH0 DUP1 SWAP4 POP SWAP4 POP SWAP4 POP SWAP4 POP PUSH2 0x219F JUMP JUMPDEST PUSH0 PUSH15 0xC097CE7BC90715B34B9F1000000000 DUP12 DUP10 PUSH2 0x1DC1 SWAP2 SWAP1 PUSH2 0x4035 JUMP JUMPDEST PUSH2 0x1DCB SWAP2 SWAP1 PUSH2 0x40A3 JUMP JUMPDEST SWAP1 POP DUP1 DUP8 LT ISZERO PUSH2 0x1F89 JUMPI PUSH0 DUP2 DUP11 DUP10 PUSH2 0x1DE3 SWAP2 SWAP1 PUSH2 0x40D3 JUMP JUMPDEST GT PUSH2 0x1DEE JUMPI PUSH0 PUSH2 0x1E2B JUMP JUMPDEST DUP12 PUSH15 0xC097CE7BC90715B34B9F1000000000 DUP4 DUP13 DUP12 PUSH2 0x1E0C SWAP2 SWAP1 PUSH2 0x40D3 JUMP JUMPDEST PUSH2 0x1E16 SWAP2 SWAP1 PUSH2 0x4002 JUMP JUMPDEST PUSH2 0x1E20 SWAP2 SWAP1 PUSH2 0x4035 JUMP JUMPDEST PUSH2 0x1E2A SWAP2 SWAP1 PUSH2 0x40A3 JUMP JUMPDEST JUMPDEST SWAP1 POP DUP11 DUP2 GT ISZERO PUSH2 0x1E7B JUMPI DUP11 SWAP6 POP PUSH15 0xC097CE7BC90715B34B9F1000000000 DUP13 DUP13 DUP4 PUSH2 0x1E55 SWAP2 SWAP1 PUSH2 0x4002 JUMP JUMPDEST PUSH2 0x1E5F SWAP2 SWAP1 PUSH2 0x4035 JUMP JUMPDEST PUSH2 0x1E69 SWAP2 SWAP1 PUSH2 0x40A3 JUMP JUMPDEST DUP11 PUSH2 0x1E74 SWAP2 SWAP1 PUSH2 0x4002 JUMP JUMPDEST SWAP5 POP PUSH2 0x1E82 JUMP JUMPDEST DUP1 SWAP6 POP DUP10 SWAP5 POP JUMPDEST PUSH0 DUP9 DUP4 PUSH2 0x1E8F SWAP2 SWAP1 PUSH2 0x4002 JUMP JUMPDEST DUP12 LT PUSH2 0x1EA6 JUMPI DUP9 DUP4 PUSH2 0x1EA1 SWAP2 SWAP1 PUSH2 0x4002 JUMP JUMPDEST PUSH2 0x1EA8 JUMP JUMPDEST DUP11 JUMPDEST SWAP1 POP PUSH0 PUSH15 0xC097CE7BC90715B34B9F1000000000 DUP15 DUP5 PUSH1 0x2 PUSH2 0x1EC9 SWAP2 SWAP1 PUSH2 0x4035 JUMP JUMPDEST PUSH2 0x1ED3 SWAP2 SWAP1 PUSH2 0x4035 JUMP JUMPDEST PUSH2 0x1EDD SWAP2 SWAP1 PUSH2 0x40A3 JUMP JUMPDEST DUP3 DUP12 DUP7 PUSH2 0x1EEA SWAP2 SWAP1 PUSH2 0x40D3 JUMP JUMPDEST PUSH2 0x1EF4 SWAP2 SWAP1 PUSH2 0x40D3 JUMP JUMPDEST PUSH2 0x1EFE SWAP2 SWAP1 PUSH2 0x40D3 JUMP JUMPDEST DUP15 DUP5 PUSH2 0x1F0A SWAP2 SWAP1 PUSH2 0x4035 JUMP JUMPDEST PUSH15 0xC097CE7BC90715B34B9F1000000000 DUP7 PUSH2 0x1F25 SWAP2 SWAP1 PUSH2 0x4035 JUMP JUMPDEST PUSH2 0x1F2F SWAP2 SWAP1 PUSH2 0x40D3 JUMP JUMPDEST PUSH2 0x1F39 SWAP2 SWAP1 PUSH2 0x40A3 JUMP JUMPDEST SWAP1 POP PUSH8 0xDE0B6B3A7640000 PUSH15 0xC097CE7BC90715B34B9F1000000000 DUP3 DUP12 PUSH2 0x1F60 SWAP2 SWAP1 PUSH2 0x4035 JUMP JUMPDEST PUSH2 0x1F6A SWAP2 SWAP1 PUSH2 0x40A3 JUMP JUMPDEST DUP4 PUSH2 0x1F75 SWAP2 SWAP1 PUSH2 0x4035 JUMP JUMPDEST PUSH2 0x1F7F SWAP2 SWAP1 PUSH2 0x40A3 JUMP JUMPDEST SWAP5 POP POP POP POP PUSH2 0x219D JUMP JUMPDEST PUSH0 DUP8 PUSH15 0xC097CE7BC90715B34B9F1000000000 DUP14 DUP14 PUSH2 0x1FA7 SWAP2 SWAP1 PUSH2 0x4035 JUMP JUMPDEST PUSH2 0x1FB1 SWAP2 SWAP1 PUSH2 0x40A3 JUMP JUMPDEST DUP4 PUSH2 0x1FBC SWAP2 SWAP1 PUSH2 0x40D3 JUMP JUMPDEST GT PUSH2 0x1FC7 JUMPI PUSH0 PUSH2 0x2004 JUMP JUMPDEST DUP8 PUSH15 0xC097CE7BC90715B34B9F1000000000 DUP14 DUP14 PUSH2 0x1FE4 SWAP2 SWAP1 PUSH2 0x4035 JUMP JUMPDEST PUSH2 0x1FEE SWAP2 SWAP1 PUSH2 0x40A3 JUMP JUMPDEST DUP4 PUSH2 0x1FF9 SWAP2 SWAP1 PUSH2 0x40D3 JUMP JUMPDEST PUSH2 0x2003 SWAP2 SWAP1 PUSH2 0x4002 JUMP JUMPDEST JUMPDEST SWAP1 POP DUP10 DUP2 GT ISZERO PUSH2 0x2054 JUMPI DUP12 PUSH15 0xC097CE7BC90715B34B9F1000000000 DUP12 DUP4 PUSH2 0x202B SWAP2 SWAP1 PUSH2 0x4002 JUMP JUMPDEST PUSH2 0x2035 SWAP2 SWAP1 PUSH2 0x4035 JUMP JUMPDEST PUSH2 0x203F SWAP2 SWAP1 PUSH2 0x40A3 JUMP JUMPDEST DUP12 PUSH2 0x204A SWAP2 SWAP1 PUSH2 0x4002 JUMP JUMPDEST SWAP6 POP DUP10 SWAP5 POP PUSH2 0x205B JUMP JUMPDEST DUP11 SWAP6 POP DUP1 SWAP5 POP JUMPDEST PUSH0 DUP13 PUSH15 0xC097CE7BC90715B34B9F1000000000 DUP5 DUP12 PUSH2 0x2079 SWAP2 SWAP1 PUSH2 0x4002 JUMP JUMPDEST PUSH2 0x2083 SWAP2 SWAP1 PUSH2 0x4035 JUMP JUMPDEST PUSH2 0x208D SWAP2 SWAP1 PUSH2 0x40A3 JUMP JUMPDEST DUP13 LT PUSH2 0x20C9 JUMPI DUP13 PUSH15 0xC097CE7BC90715B34B9F1000000000 DUP5 DUP12 PUSH2 0x20B0 SWAP2 SWAP1 PUSH2 0x4002 JUMP JUMPDEST PUSH2 0x20BA SWAP2 SWAP1 PUSH2 0x4035 JUMP JUMPDEST PUSH2 0x20C4 SWAP2 SWAP1 PUSH2 0x40A3 JUMP JUMPDEST PUSH2 0x20CB JUMP JUMPDEST DUP12 JUMPDEST SWAP1 POP PUSH0 DUP3 PUSH1 0x2 PUSH2 0x20DB SWAP2 SWAP1 PUSH2 0x4035 JUMP JUMPDEST PUSH15 0xC097CE7BC90715B34B9F1000000000 DUP16 DUP5 PUSH2 0x20F7 SWAP2 SWAP1 PUSH2 0x4035 JUMP JUMPDEST PUSH2 0x2101 SWAP2 SWAP1 PUSH2 0x40A3 JUMP JUMPDEST DUP12 DUP7 PUSH2 0x210D SWAP2 SWAP1 PUSH2 0x40D3 JUMP JUMPDEST PUSH2 0x2117 SWAP2 SWAP1 PUSH2 0x40D3 JUMP JUMPDEST PUSH2 0x2121 SWAP2 SWAP1 PUSH2 0x40D3 JUMP JUMPDEST PUSH15 0xC097CE7BC90715B34B9F1000000000 DUP5 DUP13 PUSH2 0x213D SWAP2 SWAP1 PUSH2 0x40D3 JUMP JUMPDEST PUSH2 0x2147 SWAP2 SWAP1 PUSH2 0x4035 JUMP JUMPDEST PUSH2 0x2151 SWAP2 SWAP1 PUSH2 0x40A3 JUMP JUMPDEST SWAP1 POP PUSH8 0xDE0B6B3A7640000 PUSH15 0xC097CE7BC90715B34B9F1000000000 DUP3 DUP12 PUSH2 0x2178 SWAP2 SWAP1 PUSH2 0x4035 JUMP JUMPDEST PUSH2 0x2182 SWAP2 SWAP1 PUSH2 0x40A3 JUMP JUMPDEST DUP4 PUSH2 0x218D SWAP2 SWAP1 PUSH2 0x4035 JUMP JUMPDEST PUSH2 0x2197 SWAP2 SWAP1 PUSH2 0x40A3 JUMP JUMPDEST SWAP6 POP POP POP POP JUMPDEST POP JUMPDEST SWAP7 POP SWAP7 POP SWAP7 POP SWAP7 SWAP3 POP POP POP JUMP JUMPDEST PUSH2 0x222F DUP5 PUSH4 0x23B872DD PUSH1 0xE0 SHL DUP6 DUP6 DUP6 PUSH1 0x40 MLOAD PUSH1 0x24 ADD PUSH2 0x21CD SWAP4 SWAP3 SWAP2 SWAP1 PUSH2 0x4692 JUMP JUMPDEST PUSH1 0x40 MLOAD PUSH1 0x20 DUP2 DUP4 SUB SUB DUP2 MSTORE SWAP1 PUSH1 0x40 MSTORE SWAP1 PUSH28 0xFFFFFFFFFFFFFFFFFFFFFFFFFFFFFFFFFFFFFFFFFFFFFFFFFFFFFFFF NOT AND PUSH1 0x20 DUP3 ADD DUP1 MLOAD PUSH28 0xFFFFFFFFFFFFFFFFFFFFFFFFFFFFFFFFFFFFFFFFFFFFFFFFFFFFFFFF DUP4 DUP2 DUP4 AND OR DUP4 MSTORE POP POP POP POP PUSH2 0x2F73 JUMP JUMPDEST POP POP POP POP JUMP JUMPDEST PUSH0 PUSH20 0xFFFFFFFFFFFFFFFFFFFFFFFFFFFFFFFFFFFFFFFF AND DUP3 PUSH20 0xFFFFFFFFFFFFFFFFFFFFFFFFFFFFFFFFFFFFFFFF AND SUB PUSH2 0x22A3 JUMPI PUSH1 0x40 MLOAD PUSH32 0x8C379A000000000000000000000000000000000000000000000000000000000 DUP2 MSTORE PUSH1 0x4 ADD PUSH2 0x229A SWAP1 PUSH2 0x4711 JUMP JUMPDEST PUSH1 0x40 MLOAD DUP1 SWAP2 SUB SWAP1 REVERT JUMPDEST PUSH2 0x22AE PUSH0 DUP4 DUP4 PUSH2 0x3039 JUMP JUMPDEST DUP1 PUSH1 0x35 PUSH0 DUP3 DUP3 SLOAD PUSH2 0x22BF SWAP2 SWAP1 PUSH2 0x40D3 JUMP JUMPDEST SWAP3 POP POP DUP2 SWAP1 SSTORE POP DUP1 PUSH1 0x33 PUSH0 DUP5 PUSH20 0xFFFFFFFFFFFFFFFFFFFFFFFFFFFFFFFFFFFFFFFF AND PUSH20 0xFFFFFFFFFFFFFFFFFFFFFFFFFFFFFFFFFFFFFFFF AND DUP2 MSTORE PUSH1 0x20 ADD SWAP1 DUP2 MSTORE PUSH1 0x20 ADD PUSH0 KECCAK256 PUSH0 DUP3 DUP3 SLOAD ADD SWAP3 POP POP DUP2 SWAP1 SSTORE POP DUP2 PUSH20 0xFFFFFFFFFFFFFFFFFFFFFFFFFFFFFFFFFFFFFFFF AND PUSH0 PUSH20 0xFFFFFFFFFFFFFFFFFFFFFFFFFFFFFFFFFFFFFFFF AND PUSH32 0xDDF252AD1BE2C89B69C2B068FC378DAA952BA7F163C4A11628F55A4DF523B3EF DUP4 PUSH1 0x40 MLOAD PUSH2 0x236D SWAP2 SWAP1 PUSH2 0x39B7 JUMP JUMPDEST PUSH1 0x40 MLOAD DUP1 SWAP2 SUB SWAP1 LOG3 PUSH2 0x2380 PUSH0 DUP4 DUP4 PUSH2 0x303E JUMP JUMPDEST POP POP JUMP JUMPDEST PUSH1 0x1 PUSH1 0xFE DUP2 SWAP1 SSTORE POP JUMP JUMPDEST PUSH0 CALLER SWAP1 POP SWAP1 JUMP JUMPDEST PUSH0 PUSH20 0xFFFFFFFFFFFFFFFFFFFFFFFFFFFFFFFFFFFFFFFF AND DUP4 PUSH20 0xFFFFFFFFFFFFFFFFFFFFFFFFFFFFFFFFFFFFFFFF AND SUB PUSH2 0x2403 JUMPI PUSH1 0x40 MLOAD PUSH32 0x8C379A000000000000000000000000000000000000000000000000000000000 DUP2 MSTORE PUSH1 0x4 ADD PUSH2 0x23FA SWAP1 PUSH2 0x479F JUMP JUMPDEST PUSH1 0x40 MLOAD DUP1 SWAP2 SUB SWAP1 REVERT JUMPDEST PUSH0 PUSH20 0xFFFFFFFFFFFFFFFFFFFFFFFFFFFFFFFFFFFFFFFF AND DUP3 PUSH20 0xFFFFFFFFFFFFFFFFFFFFFFFFFFFFFFFFFFFFFFFF AND SUB PUSH2 0x2471 JUMPI PUSH1 0x40 MLOAD PUSH32 0x8C379A000000000000000000000000000000000000000000000000000000000 DUP2 MSTORE PUSH1 0x4 ADD PUSH2 0x2468 SWAP1 PUSH2 0x482D JUMP JUMPDEST PUSH1 0x40 MLOAD DUP1 SWAP2 SUB SWAP1 REVERT JUMPDEST DUP1 PUSH1 0x34 PUSH0 DUP6 PUSH20 0xFFFFFFFFFFFFFFFFFFFFFFFFFFFFFFFFFFFFFFFF AND PUSH20 0xFFFFFFFFFFFFFFFFFFFFFFFFFFFFFFFFFFFFFFFF AND DUP2 MSTORE PUSH1 0x20 ADD SWAP1 DUP2 MSTORE PUSH1 0x20 ADD PUSH0 KECCAK256 PUSH0 DUP5 PUSH20 0xFFFFFFFFFFFFFFFFFFFFFFFFFFFFFFFFFFFFFFFF AND PUSH20 0xFFFFFFFFFFFFFFFFFFFFFFFFFFFFFFFFFFFFFFFF AND DUP2 MSTORE PUSH1 0x20 ADD SWAP1 DUP2 MSTORE PUSH1 0x20 ADD PUSH0 KECCAK256 DUP2 SWAP1 SSTORE POP DUP2 PUSH20 0xFFFFFFFFFFFFFFFFFFFFFFFFFFFFFFFFFFFFFFFF AND DUP4 PUSH20 0xFFFFFFFFFFFFFFFFFFFFFFFFFFFFFFFFFFFFFFFF AND PUSH32 0x8C5BE1E5EBEC7D5BD14F71427D1E84F3DD0314C0F7B2291E5B200AC8C7C3B925 DUP4 PUSH1 0x40 MLOAD PUSH2 0x254B SWAP2 SWAP1 PUSH2 0x39B7 JUMP JUMPDEST PUSH1 0x40 MLOAD DUP1 SWAP2 SUB SWAP1 LOG3 POP POP POP JUMP JUMPDEST PUSH0 PUSH2 0x2563 DUP5 DUP5 PUSH2 0x1B77 JUMP JUMPDEST SWAP1 POP PUSH32 0xFFFFFFFFFFFFFFFFFFFFFFFFFFFFFFFFFFFFFFFFFFFFFFFFFFFFFFFFFFFFFFFF DUP2 EQ PUSH2 0x25DD JUMPI DUP2 DUP2 LT ISZERO PUSH2 0x25CF JUMPI PUSH1 0x40 MLOAD PUSH32 0x8C379A000000000000000000000000000000000000000000000000000000000 DUP2 MSTORE PUSH1 0x4 ADD PUSH2 0x25C6 SWAP1 PUSH2 0x4895 JUMP JUMPDEST PUSH1 0x40 MLOAD DUP1 SWAP2 SUB SWAP1 REVERT JUMPDEST PUSH2 0x25DC DUP5 DUP5 DUP5 DUP5 SUB PUSH2 0x2395 JUMP JUMPDEST JUMPDEST POP POP POP POP JUMP JUMPDEST PUSH0 PUSH20 0xFFFFFFFFFFFFFFFFFFFFFFFFFFFFFFFFFFFFFFFF AND DUP4 PUSH20 0xFFFFFFFFFFFFFFFFFFFFFFFFFFFFFFFFFFFFFFFF AND SUB PUSH2 0x2651 JUMPI PUSH1 0x40 MLOAD PUSH32 0x8C379A000000000000000000000000000000000000000000000000000000000 DUP2 MSTORE PUSH1 0x4 ADD PUSH2 0x2648 SWAP1 PUSH2 0x4923 JUMP JUMPDEST PUSH1 0x40 MLOAD DUP1 SWAP2 SUB SWAP1 REVERT JUMPDEST PUSH0 PUSH20 0xFFFFFFFFFFFFFFFFFFFFFFFFFFFFFFFFFFFFFFFF AND DUP3 PUSH20 0xFFFFFFFFFFFFFFFFFFFFFFFFFFFFFFFFFFFFFFFF AND SUB PUSH2 0x26BF JUMPI PUSH1 0x40 MLOAD PUSH32 0x8C379A000000000000000000000000000000000000000000000000000000000 DUP2 MSTORE PUSH1 0x4 ADD PUSH2 0x26B6 SWAP1 PUSH2 0x49B1 JUMP JUMPDEST PUSH1 0x40 MLOAD DUP1 SWAP2 SUB SWAP1 REVERT JUMPDEST PUSH2 0x26CA DUP4 DUP4 DUP4 PUSH2 0x3039 JUMP JUMPDEST PUSH0 PUSH1 0x33 PUSH0 DUP6 PUSH20 0xFFFFFFFFFFFFFFFFFFFFFFFFFFFFFFFFFFFFFFFF AND PUSH20 0xFFFFFFFFFFFFFFFFFFFFFFFFFFFFFFFFFFFFFFFF AND DUP2 MSTORE PUSH1 0x20 ADD SWAP1 DUP2 MSTORE PUSH1 0x20 ADD PUSH0 KECCAK256 SLOAD SWAP1 POP DUP2 DUP2 LT ISZERO PUSH2 0x274E JUMPI PUSH1 0x40 MLOAD PUSH32 0x8C379A000000000000000000000000000000000000000000000000000000000 DUP2 MSTORE PUSH1 0x4 ADD PUSH2 0x2745 SWAP1 PUSH2 0x4A3F JUMP JUMPDEST PUSH1 0x40 MLOAD DUP1 SWAP2 SUB SWAP1 REVERT JUMPDEST DUP2 DUP2 SUB PUSH1 0x33 PUSH0 DUP7 PUSH20 0xFFFFFFFFFFFFFFFFFFFFFFFFFFFFFFFFFFFFFFFF AND PUSH20 0xFFFFFFFFFFFFFFFFFFFFFFFFFFFFFFFFFFFFFFFF AND DUP2 MSTORE PUSH1 0x20 ADD SWAP1 DUP2 MSTORE PUSH1 0x20 ADD PUSH0 KECCAK256 DUP2 SWAP1 SSTORE POP DUP2 PUSH1 0x33 PUSH0 DUP6 PUSH20 0xFFFFFFFFFFFFFFFFFFFFFFFFFFFFFFFFFFFFFFFF AND PUSH20 0xFFFFFFFFFFFFFFFFFFFFFFFFFFFFFFFFFFFFFFFF AND DUP2 MSTORE PUSH1 0x20 ADD SWAP1 DUP2 MSTORE PUSH1 0x20 ADD PUSH0 KECCAK256 PUSH0 DUP3 DUP3 SLOAD ADD SWAP3 POP POP DUP2 SWAP1 SSTORE POP DUP3 PUSH20 0xFFFFFFFFFFFFFFFFFFFFFFFFFFFFFFFFFFFFFFFF AND DUP5 PUSH20 0xFFFFFFFFFFFFFFFFFFFFFFFFFFFFFFFFFFFFFFFF AND PUSH32 0xDDF252AD1BE2C89B69C2B068FC378DAA952BA7F163C4A11628F55A4DF523B3EF DUP5 PUSH1 0x40 MLOAD PUSH2 0x2839 SWAP2 SWAP1 PUSH2 0x39B7 JUMP JUMPDEST PUSH1 0x40 MLOAD DUP1 SWAP2 SUB SWAP1 LOG3 PUSH2 0x284C DUP5 DUP5 DUP5 PUSH2 0x303E JUMP JUMPDEST POP POP POP POP JUMP JUMPDEST PUSH0 PUSH2 0x285B PUSH2 0x3043 JUMP JUMPDEST SWAP1 POP SWAP1 JUMP JUMPDEST PUSH2 0x2868 PUSH2 0x238E JUMP JUMPDEST PUSH20 0xFFFFFFFFFFFFFFFFFFFFFFFFFFFFFFFFFFFFFFFF AND PUSH2 0x2886 PUSH2 0x131A JUMP JUMPDEST PUSH20 0xFFFFFFFFFFFFFFFFFFFFFFFFFFFFFFFFFFFFFFFF AND EQ PUSH2 0x28DC JUMPI PUSH1 0x40 MLOAD PUSH32 0x8C379A000000000000000000000000000000000000000000000000000000000 DUP2 MSTORE PUSH1 0x4 ADD PUSH2 0x28D3 SWAP1 PUSH2 0x4AA7 JUMP JUMPDEST PUSH1 0x40 MLOAD DUP1 SWAP2 SUB SWAP1 REVERT JUMPDEST JUMP JUMPDEST PUSH0 PUSH1 0xCC PUSH0 SWAP1 SLOAD SWAP1 PUSH2 0x100 EXP SWAP1 DIV PUSH20 0xFFFFFFFFFFFFFFFFFFFFFFFFFFFFFFFFFFFFFFFF AND SWAP1 POP DUP2 PUSH1 0xCC PUSH0 PUSH2 0x100 EXP DUP2 SLOAD DUP2 PUSH20 0xFFFFFFFFFFFFFFFFFFFFFFFFFFFFFFFFFFFFFFFF MUL NOT AND SWAP1 DUP4 PUSH20 0xFFFFFFFFFFFFFFFFFFFFFFFFFFFFFFFFFFFFFFFF AND MUL OR SWAP1 SSTORE POP DUP2 PUSH20 0xFFFFFFFFFFFFFFFFFFFFFFFFFFFFFFFFFFFFFFFF AND DUP2 PUSH20 0xFFFFFFFFFFFFFFFFFFFFFFFFFFFFFFFFFFFFFFFF AND PUSH32 0x8BE0079C531659141344CD1FD0A4F28419497F9722A3DAAFE3B4186F6B6457E0 PUSH1 0x40 MLOAD PUSH1 0x40 MLOAD DUP1 SWAP2 SUB SWAP1 LOG3 POP POP JUMP JUMPDEST PUSH0 DUP2 PUSH0 ADD SLOAD SWAP1 POP SWAP2 SWAP1 POP JUMP JUMPDEST PUSH1 0x60 PUSH1 0x67 DUP1 SLOAD PUSH2 0x29BC SWAP1 PUSH2 0x4133 JUMP JUMPDEST DUP1 PUSH1 0x1F ADD PUSH1 0x20 DUP1 SWAP2 DIV MUL PUSH1 0x20 ADD PUSH1 0x40 MLOAD SWAP1 DUP2 ADD PUSH1 0x40 MSTORE DUP1 SWAP3 SWAP2 SWAP1 DUP2 DUP2 MSTORE PUSH1 0x20 ADD DUP3 DUP1 SLOAD PUSH2 0x29E8 SWAP1 PUSH2 0x4133 JUMP JUMPDEST DUP1 ISZERO PUSH2 0x2A33 JUMPI DUP1 PUSH1 0x1F LT PUSH2 0x2A0A JUMPI PUSH2 0x100 DUP1 DUP4 SLOAD DIV MUL DUP4 MSTORE SWAP2 PUSH1 0x20 ADD SWAP2 PUSH2 0x2A33 JUMP JUMPDEST DUP3 ADD SWAP2 SWAP1 PUSH0 MSTORE PUSH1 0x20 PUSH0 KECCAK256 SWAP1 JUMPDEST DUP2 SLOAD DUP2 MSTORE SWAP1 PUSH1 0x1 ADD SWAP1 PUSH1 0x20 ADD DUP1 DUP4 GT PUSH2 0x2A16 JUMPI DUP3 SWAP1 SUB PUSH1 0x1F AND DUP3 ADD SWAP2 JUMPDEST POP POP POP POP POP SWAP1 POP SWAP1 JUMP JUMPDEST PUSH1 0x60 PUSH1 0x68 DUP1 SLOAD PUSH2 0x2A4C SWAP1 PUSH2 0x4133 JUMP JUMPDEST DUP1 PUSH1 0x1F ADD PUSH1 0x20 DUP1 SWAP2 DIV MUL PUSH1 0x20 ADD PUSH1 0x40 MLOAD SWAP1 DUP2 ADD PUSH1 0x40 MSTORE DUP1 SWAP3 SWAP2 SWAP1 DUP2 DUP2 MSTORE PUSH1 0x20 ADD DUP3 DUP1 SLOAD PUSH2 0x2A78 SWAP1 PUSH2 0x4133 JUMP JUMPDEST DUP1 ISZERO PUSH2 0x2AC3 JUMPI DUP1 PUSH1 0x1F LT PUSH2 0x2A9A JUMPI PUSH2 0x100 DUP1 DUP4 SLOAD DIV MUL DUP4 MSTORE SWAP2 PUSH1 0x20 ADD SWAP2 PUSH2 0x2AC3 JUMP JUMPDEST DUP3 ADD SWAP2 SWAP1 PUSH0 MSTORE PUSH1 0x20 PUSH0 KECCAK256 SWAP1 JUMPDEST DUP2 SLOAD DUP2 MSTORE SWAP1 PUSH1 0x1 ADD SWAP1 PUSH1 0x20 ADD DUP1 DUP4 GT PUSH2 0x2AA6 JUMPI DUP3 SWAP1 SUB PUSH1 0x1F AND DUP3 ADD SWAP2 JUMPDEST POP POP POP POP POP SWAP1 POP SWAP1 JUMP JUMPDEST PUSH0 DUP1 DUP3 PUSH20 0xFFFFFFFFFFFFFFFFFFFFFFFFFFFFFFFFFFFFFFFF AND EXTCODESIZE GT SWAP1 POP SWAP2 SWAP1 POP JUMP JUMPDEST PUSH0 PUSH1 0x1 SWAP1 SLOAD SWAP1 PUSH2 0x100 EXP SWAP1 DIV PUSH1 0xFF AND PUSH2 0x2B3D JUMPI PUSH1 0x40 MLOAD PUSH32 0x8C379A000000000000000000000000000000000000000000000000000000000 DUP2 MSTORE PUSH1 0x4 ADD PUSH2 0x2B34 SWAP1 PUSH2 0x4B35 JUMP JUMPDEST PUSH1 0x40 MLOAD DUP1 SWAP2 SUB SWAP1 REVERT JUMPDEST PUSH2 0x2B47 DUP3 DUP3 PUSH2 0x30A6 JUMP JUMPDEST POP POP JUMP JUMPDEST PUSH0 PUSH1 0x1 SWAP1 SLOAD SWAP1 PUSH2 0x100 EXP SWAP1 DIV PUSH1 0xFF AND PUSH2 0x2B99 JUMPI PUSH1 0x40 MLOAD PUSH32 0x8C379A000000000000000000000000000000000000000000000000000000000 DUP2 MSTORE PUSH1 0x4 ADD PUSH2 0x2B90 SWAP1 PUSH2 0x4B35 JUMP JUMPDEST PUSH1 0x40 MLOAD DUP1 SWAP2 SUB SWAP1 REVERT JUMPDEST PUSH2 0x2BD8 DUP2 PUSH1 0x40 MLOAD DUP1 PUSH1 0x40 ADD PUSH1 0x40 MSTORE DUP1 PUSH1 0x1 DUP2 MSTORE PUSH1 0x20 ADD PUSH32 0x3100000000000000000000000000000000000000000000000000000000000000 DUP2 MSTORE POP PUSH2 0x3118 JUMP JUMPDEST POP JUMP JUMPDEST PUSH0 PUSH1 0x1 SWAP1 SLOAD SWAP1 PUSH2 0x100 EXP SWAP1 DIV PUSH1 0xFF AND PUSH2 0x2C29 JUMPI PUSH1 0x40 MLOAD PUSH32 0x8C379A000000000000000000000000000000000000000000000000000000000 DUP2 MSTORE PUSH1 0x4 ADD PUSH2 0x2C20 SWAP1 PUSH2 0x4B35 JUMP JUMPDEST PUSH1 0x40 MLOAD DUP1 SWAP2 SUB SWAP1 REVERT JUMPDEST PUSH2 0x2C31 PUSH2 0x319C JUMP JUMPDEST JUMP JUMPDEST PUSH0 PUSH1 0x1 SWAP1 SLOAD SWAP1 PUSH2 0x100 EXP SWAP1 DIV PUSH1 0xFF AND PUSH2 0x2C81 JUMPI PUSH1 0x40 MLOAD PUSH32 0x8C379A000000000000000000000000000000000000000000000000000000000 DUP2 MSTORE PUSH1 0x4 ADD PUSH2 0x2C78 SWAP1 PUSH2 0x4B35 JUMP JUMPDEST PUSH1 0x40 MLOAD DUP1 SWAP2 SUB SWAP1 REVERT JUMPDEST PUSH2 0x2C89 PUSH2 0x31FC JUMP JUMPDEST JUMP JUMPDEST PUSH0 PUSH20 0xFFFFFFFFFFFFFFFFFFFFFFFFFFFFFFFFFFFFFFFF AND DUP3 PUSH20 0xFFFFFFFFFFFFFFFFFFFFFFFFFFFFFFFFFFFFFFFF AND SUB PUSH2 0x2CF9 JUMPI PUSH1 0x40 MLOAD PUSH32 0x8C379A000000000000000000000000000000000000000000000000000000000 DUP2 MSTORE PUSH1 0x4 ADD PUSH2 0x2CF0 SWAP1 PUSH2 0x4BC3 JUMP JUMPDEST PUSH1 0x40 MLOAD DUP1 SWAP2 SUB SWAP1 REVERT JUMPDEST PUSH2 0x2D04 DUP3 PUSH0 DUP4 PUSH2 0x3039 JUMP JUMPDEST PUSH0 PUSH1 0x33 PUSH0 DUP5 PUSH20 0xFFFFFFFFFFFFFFFFFFFFFFFFFFFFFFFFFFFFFFFF AND PUSH20 0xFFFFFFFFFFFFFFFFFFFFFFFFFFFFFFFFFFFFFFFF AND DUP2 MSTORE PUSH1 0x20 ADD SWAP1 DUP2 MSTORE PUSH1 0x20 ADD PUSH0 KECCAK256 SLOAD SWAP1 POP DUP2 DUP2 LT ISZERO PUSH2 0x2D88 JUMPI PUSH1 0x40 MLOAD PUSH32 0x8C379A000000000000000000000000000000000000000000000000000000000 DUP2 MSTORE PUSH1 0x4 ADD PUSH2 0x2D7F SWAP1 PUSH2 0x4C51 JUMP JUMPDEST PUSH1 0x40 MLOAD DUP1 SWAP2 SUB SWAP1 REVERT JUMPDEST DUP2 DUP2 SUB PUSH1 0x33 PUSH0 DUP6 PUSH20 0xFFFFFFFFFFFFFFFFFFFFFFFFFFFFFFFFFFFFFFFF AND PUSH20 0xFFFFFFFFFFFFFFFFFFFFFFFFFFFFFFFFFFFFFFFF AND DUP2 MSTORE PUSH1 0x20 ADD SWAP1 DUP2 MSTORE PUSH1 0x20 ADD PUSH0 KECCAK256 DUP2 SWAP1 SSTORE POP DUP2 PUSH1 0x35 PUSH0 DUP3 DUP3 SLOAD SUB SWAP3 POP POP DUP2 SWAP1 SSTORE POP PUSH0 PUSH20 0xFFFFFFFFFFFFFFFFFFFFFFFFFFFFFFFFFFFFFFFF AND DUP4 PUSH20 0xFFFFFFFFFFFFFFFFFFFFFFFFFFFFFFFFFFFFFFFF AND PUSH32 0xDDF252AD1BE2C89B69C2B068FC378DAA952BA7F163C4A11628F55A4DF523B3EF DUP5 PUSH1 0x40 MLOAD PUSH2 0x2E38 SWAP2 SWAP1 PUSH2 0x39B7 JUMP JUMPDEST PUSH1 0x40 MLOAD DUP1 SWAP2 SUB SWAP1 LOG3 PUSH2 0x2E4B DUP4 PUSH0 DUP5 PUSH2 0x303E JUMP JUMPDEST POP POP POP JUMP JUMPDEST PUSH2 0x2ED1 DUP4 PUSH4 0xA9059CBB PUSH1 0xE0 SHL DUP5 DUP5 PUSH1 0x40 MLOAD PUSH1 0x24 ADD PUSH2 0x2E6F SWAP3 SWAP2 SWAP1 PUSH2 0x4C6F JUMP JUMPDEST PUSH1 0x40 MLOAD PUSH1 0x20 DUP2 DUP4 SUB SUB DUP2 MSTORE SWAP1 PUSH1 0x40 MSTORE SWAP1 PUSH28 0xFFFFFFFFFFFFFFFFFFFFFFFFFFFFFFFFFFFFFFFFFFFFFFFFFFFFFFFF NOT AND PUSH1 0x20 DUP3 ADD DUP1 MLOAD PUSH28 0xFFFFFFFFFFFFFFFFFFFFFFFFFFFFFFFFFFFFFFFFFFFFFFFFFFFFFFFF DUP4 DUP2 DUP4 AND OR DUP4 MSTORE POP POP POP POP PUSH2 0x2F73 JUMP JUMPDEST POP POP POP JUMP JUMPDEST PUSH0 DUP1 PUSH1 0x99 PUSH0 DUP5 PUSH20 0xFFFFFFFFFFFFFFFFFFFFFFFFFFFFFFFFFFFFFFFF AND PUSH20 0xFFFFFFFFFFFFFFFFFFFFFFFFFFFFFFFFFFFFFFFF AND DUP2 MSTORE PUSH1 0x20 ADD SWAP1 DUP2 MSTORE PUSH1 0x20 ADD PUSH0 KECCAK256 SWAP1 POP PUSH2 0x2F20 DUP2 PUSH2 0x29A1 JUMP JUMPDEST SWAP2 POP PUSH2 0x2F2B DUP2 PUSH2 0x3254 JUMP JUMPDEST POP SWAP2 SWAP1 POP JUMP JUMPDEST PUSH0 PUSH2 0x2F43 PUSH2 0x2F3D PUSH2 0x2852 JUMP JUMPDEST DUP4 PUSH2 0x3268 JUMP JUMPDEST SWAP1 POP SWAP2 SWAP1 POP JUMP JUMPDEST PUSH0 DUP1 PUSH0 PUSH2 0x2F59 DUP8 DUP8 DUP8 DUP8 PUSH2 0x32A8 JUMP JUMPDEST SWAP2 POP SWAP2 POP PUSH2 0x2F66 DUP2 PUSH2 0x3380 JUMP JUMPDEST DUP2 SWAP3 POP POP POP SWAP5 SWAP4 POP POP POP POP JUMP JUMPDEST PUSH0 PUSH2 0x2FD4 DUP3 PUSH1 0x40 MLOAD DUP1 PUSH1 0x40 ADD PUSH1 0x40 MSTORE DUP1 PUSH1 0x20 DUP2 MSTORE PUSH1 0x20 ADD PUSH32 0x5361666545524332303A206C6F772D6C6576656C2063616C6C206661696C6564 DUP2 MSTORE POP DUP6 PUSH20 0xFFFFFFFFFFFFFFFFFFFFFFFFFFFFFFFFFFFFFFFF AND PUSH2 0x34E5 SWAP1 SWAP3 SWAP2 SWAP1 PUSH4 0xFFFFFFFF AND JUMP JUMPDEST SWAP1 POP PUSH0 DUP2 MLOAD EQ DUP1 PUSH2 0x2FF5 JUMPI POP DUP1 DUP1 PUSH1 0x20 ADD SWAP1 MLOAD DUP2 ADD SWAP1 PUSH2 0x2FF4 SWAP2 SWAP1 PUSH2 0x437F JUMP JUMPDEST JUMPDEST PUSH2 0x3034 JUMPI PUSH1 0x40 MLOAD PUSH32 0x8C379A000000000000000000000000000000000000000000000000000000000 DUP2 MSTORE PUSH1 0x4 ADD PUSH2 0x302B SWAP1 PUSH2 0x4D06 JUMP JUMPDEST PUSH1 0x40 MLOAD DUP1 SWAP2 SUB SWAP1 REVERT JUMPDEST POP POP POP JUMP JUMPDEST POP POP POP JUMP JUMPDEST POP POP POP JUMP JUMPDEST PUSH0 PUSH32 0x8B73C3C69BB8FE3D512ECC4CF759CC79239F7B179B0FFACAA9A75D522B39400F PUSH2 0x306D PUSH2 0x34FC JUMP JUMPDEST PUSH2 0x3075 PUSH2 0x3563 JUMP JUMPDEST CHAINID ADDRESS PUSH1 0x40 MLOAD PUSH1 0x20 ADD PUSH2 0x308B SWAP6 SWAP5 SWAP4 SWAP3 SWAP2 SWAP1 PUSH2 0x4D24 JUMP JUMPDEST PUSH1 0x40 MLOAD PUSH1 0x20 DUP2 DUP4 SUB SUB DUP2 MSTORE SWAP1 PUSH1 0x40 MSTORE DUP1 MLOAD SWAP1 PUSH1 0x20 ADD KECCAK256 SWAP1 POP SWAP1 JUMP JUMPDEST PUSH0 PUSH1 0x1 SWAP1 SLOAD SWAP1 PUSH2 0x100 EXP SWAP1 DIV PUSH1 0xFF AND PUSH2 0x30F4 JUMPI PUSH1 0x40 MLOAD PUSH32 0x8C379A000000000000000000000000000000000000000000000000000000000 DUP2 MSTORE PUSH1 0x4 ADD PUSH2 0x30EB SWAP1 PUSH2 0x4B35 JUMP JUMPDEST PUSH1 0x40 MLOAD DUP1 SWAP2 SUB SWAP1 REVERT JUMPDEST DUP2 PUSH1 0x36 SWAP1 DUP2 PUSH2 0x3103 SWAP2 SWAP1 PUSH2 0x4F09 JUMP JUMPDEST POP DUP1 PUSH1 0x37 SWAP1 DUP2 PUSH2 0x3113 SWAP2 SWAP1 PUSH2 0x4F09 JUMP JUMPDEST POP POP POP JUMP JUMPDEST PUSH0 PUSH1 0x1 SWAP1 SLOAD SWAP1 PUSH2 0x100 EXP SWAP1 DIV PUSH1 0xFF AND PUSH2 0x3166 JUMPI PUSH1 0x40 MLOAD PUSH32 0x8C379A000000000000000000000000000000000000000000000000000000000 DUP2 MSTORE PUSH1 0x4 ADD PUSH2 0x315D SWAP1 PUSH2 0x4B35 JUMP JUMPDEST PUSH1 0x40 MLOAD DUP1 SWAP2 SUB SWAP1 REVERT JUMPDEST DUP2 PUSH1 0x67 SWAP1 DUP2 PUSH2 0x3175 SWAP2 SWAP1 PUSH2 0x4F09 JUMP JUMPDEST POP DUP1 PUSH1 0x68 SWAP1 DUP2 PUSH2 0x3185 SWAP2 SWAP1 PUSH2 0x4F09 JUMP JUMPDEST POP PUSH0 DUP1 SHL PUSH1 0x65 DUP2 SWAP1 SSTORE POP PUSH0 DUP1 SHL PUSH1 0x66 DUP2 SWAP1 SSTORE POP POP POP JUMP JUMPDEST PUSH0 PUSH1 0x1 SWAP1 SLOAD SWAP1 PUSH2 0x100 EXP SWAP1 DIV PUSH1 0xFF AND PUSH2 0x31EA JUMPI PUSH1 0x40 MLOAD PUSH32 0x8C379A000000000000000000000000000000000000000000000000000000000 DUP2 MSTORE PUSH1 0x4 ADD PUSH2 0x31E1 SWAP1 PUSH2 0x4B35 JUMP JUMPDEST PUSH1 0x40 MLOAD DUP1 SWAP2 SUB SWAP1 REVERT JUMPDEST PUSH2 0x31FA PUSH2 0x31F5 PUSH2 0x238E JUMP JUMPDEST PUSH2 0x28DE JUMP JUMPDEST JUMP JUMPDEST PUSH0 PUSH1 0x1 SWAP1 SLOAD SWAP1 PUSH2 0x100 EXP SWAP1 DIV PUSH1 0xFF AND PUSH2 0x324A JUMPI PUSH1 0x40 MLOAD PUSH32 0x8C379A000000000000000000000000000000000000000000000000000000000 DUP2 MSTORE PUSH1 0x4 ADD PUSH2 0x3241 SWAP1 PUSH2 0x4B35 JUMP JUMPDEST PUSH1 0x40 MLOAD DUP1 SWAP2 SUB SWAP1 REVERT JUMPDEST PUSH1 0x1 PUSH1 0xFE DUP2 SWAP1 SSTORE POP JUMP JUMPDEST PUSH1 0x1 DUP2 PUSH0 ADD PUSH0 DUP3 DUP3 SLOAD ADD SWAP3 POP POP DUP2 SWAP1 SSTORE POP POP JUMP JUMPDEST PUSH0 PUSH1 0x40 MLOAD PUSH32 0x1901000000000000000000000000000000000000000000000000000000000000 DUP2 MSTORE DUP4 PUSH1 0x2 DUP3 ADD MSTORE DUP3 PUSH1 0x22 DUP3 ADD MSTORE PUSH1 0x42 DUP2 KECCAK256 SWAP2 POP POP SWAP3 SWAP2 POP POP JUMP JUMPDEST PUSH0 DUP1 PUSH32 0x7FFFFFFFFFFFFFFFFFFFFFFFFFFFFFFF5D576E7357A4501DDFE92F46681B20A0 DUP4 PUSH0 SHR GT ISZERO PUSH2 0x32E0 JUMPI PUSH0 PUSH1 0x3 SWAP2 POP SWAP2 POP PUSH2 0x3377 JUMP JUMPDEST PUSH0 PUSH1 0x1 DUP8 DUP8 DUP8 DUP8 PUSH1 0x40 MLOAD PUSH0 DUP2 MSTORE PUSH1 0x20 ADD PUSH1 0x40 MSTORE PUSH1 0x40 MLOAD PUSH2 0x3303 SWAP5 SWAP4 SWAP3 SWAP2 SWAP1 PUSH2 0x4FD8 JUMP JUMPDEST PUSH1 0x20 PUSH1 0x40 MLOAD PUSH1 0x20 DUP2 SUB SWAP1 DUP1 DUP5 SUB SWAP1 DUP6 GAS STATICCALL ISZERO DUP1 ISZERO PUSH2 0x3323 JUMPI RETURNDATASIZE PUSH0 DUP1 RETURNDATACOPY RETURNDATASIZE PUSH0 REVERT JUMPDEST POP POP POP PUSH1 0x20 PUSH1 0x40 MLOAD SUB MLOAD SWAP1 POP PUSH0 PUSH20 0xFFFFFFFFFFFFFFFFFFFFFFFFFFFFFFFFFFFFFFFF AND DUP2 PUSH20 0xFFFFFFFFFFFFFFFFFFFFFFFFFFFFFFFFFFFFFFFF AND SUB PUSH2 0x336F JUMPI PUSH0 PUSH1 0x1 SWAP3 POP SWAP3 POP POP PUSH2 0x3377 JUMP JUMPDEST DUP1 PUSH0 SWAP3 POP SWAP3 POP POP JUMPDEST SWAP5 POP SWAP5 SWAP3 POP POP POP JUMP JUMPDEST PUSH0 PUSH1 0x4 DUP2 GT ISZERO PUSH2 0x3393 JUMPI PUSH2 0x3392 PUSH2 0x501B JUMP JUMPDEST JUMPDEST DUP2 PUSH1 0x4 DUP2 GT ISZERO PUSH2 0x33A6 JUMPI PUSH2 0x33A5 PUSH2 0x501B JUMP JUMPDEST JUMPDEST SUB ISZERO PUSH2 0x34E2 JUMPI PUSH1 0x1 PUSH1 0x4 DUP2 GT ISZERO PUSH2 0x33C0 JUMPI PUSH2 0x33BF PUSH2 0x501B JUMP JUMPDEST JUMPDEST DUP2 PUSH1 0x4 DUP2 GT ISZERO PUSH2 0x33D3 JUMPI PUSH2 0x33D2 PUSH2 0x501B JUMP JUMPDEST JUMPDEST SUB PUSH2 0x3413 JUMPI PUSH1 0x40 MLOAD PUSH32 0x8C379A000000000000000000000000000000000000000000000000000000000 DUP2 MSTORE PUSH1 0x4 ADD PUSH2 0x340A SWAP1 PUSH2 0x5092 JUMP JUMPDEST PUSH1 0x40 MLOAD DUP1 SWAP2 SUB SWAP1 REVERT JUMPDEST PUSH1 0x2 PUSH1 0x4 DUP2 GT ISZERO PUSH2 0x3427 JUMPI PUSH2 0x3426 PUSH2 0x501B JUMP JUMPDEST JUMPDEST DUP2 PUSH1 0x4 DUP2 GT ISZERO PUSH2 0x343A JUMPI PUSH2 0x3439 PUSH2 0x501B JUMP JUMPDEST JUMPDEST SUB PUSH2 0x347A JUMPI PUSH1 0x40 MLOAD PUSH32 0x8C379A000000000000000000000000000000000000000000000000000000000 DUP2 MSTORE PUSH1 0x4 ADD PUSH2 0x3471 SWAP1 PUSH2 0x50FA JUMP JUMPDEST PUSH1 0x40 MLOAD DUP1 SWAP2 SUB SWAP1 REVERT JUMPDEST PUSH1 0x3 PUSH1 0x4 DUP2 GT ISZERO PUSH2 0x348E JUMPI PUSH2 0x348D PUSH2 0x501B JUMP JUMPDEST JUMPDEST DUP2 PUSH1 0x4 DUP2 GT ISZERO PUSH2 0x34A1 JUMPI PUSH2 0x34A0 PUSH2 0x501B JUMP JUMPDEST JUMPDEST SUB PUSH2 0x34E1 JUMPI PUSH1 0x40 MLOAD PUSH32 0x8C379A000000000000000000000000000000000000000000000000000000000 DUP2 MSTORE PUSH1 0x4 ADD PUSH2 0x34D8 SWAP1 PUSH2 0x5188 JUMP JUMPDEST PUSH1 0x40 MLOAD DUP1 SWAP2 SUB SWAP1 REVERT JUMPDEST JUMPDEST POP JUMP JUMPDEST PUSH1 0x60 PUSH2 0x34F3 DUP5 DUP5 PUSH0 DUP6 PUSH2 0x35CA JUMP JUMPDEST SWAP1 POP SWAP4 SWAP3 POP POP POP JUMP JUMPDEST PUSH0 DUP1 PUSH2 0x3506 PUSH2 0x29AD JUMP JUMPDEST SWAP1 POP PUSH0 DUP2 MLOAD GT ISZERO PUSH2 0x3521 JUMPI DUP1 DUP1 MLOAD SWAP1 PUSH1 0x20 ADD KECCAK256 SWAP2 POP POP PUSH2 0x3560 JUMP JUMPDEST PUSH0 PUSH1 0x65 SLOAD SWAP1 POP PUSH0 DUP1 SHL DUP2 EQ PUSH2 0x353A JUMPI DUP1 SWAP3 POP POP POP PUSH2 0x3560 JUMP JUMPDEST PUSH32 0xC5D2460186F7233C927E7DB2DCC703C0E500B653CA82273B7BFAD8045D85A470 SWAP3 POP POP POP JUMPDEST SWAP1 JUMP JUMPDEST PUSH0 DUP1 PUSH2 0x356D PUSH2 0x2A3D JUMP JUMPDEST SWAP1 POP PUSH0 DUP2 MLOAD GT ISZERO PUSH2 0x3588 JUMPI DUP1 DUP1 MLOAD SWAP1 PUSH1 0x20 ADD KECCAK256 SWAP2 POP POP PUSH2 0x35C7 JUMP JUMPDEST PUSH0 PUSH1 0x66 SLOAD SWAP1 POP PUSH0 DUP1 SHL DUP2 EQ PUSH2 0x35A1 JUMPI DUP1 SWAP3 POP POP POP PUSH2 0x35C7 JUMP JUMPDEST PUSH32 0xC5D2460186F7233C927E7DB2DCC703C0E500B653CA82273B7BFAD8045D85A470 SWAP3 POP POP POP JUMPDEST SWAP1 JUMP JUMPDEST PUSH1 0x60 DUP3 SELFBALANCE LT ISZERO PUSH2 0x360F JUMPI PUSH1 0x40 MLOAD PUSH32 0x8C379A000000000000000000000000000000000000000000000000000000000 DUP2 MSTORE PUSH1 0x4 ADD PUSH2 0x3606 SWAP1 PUSH2 0x5216 JUMP JUMPDEST PUSH1 0x40 MLOAD DUP1 SWAP2 SUB SWAP1 REVERT JUMPDEST PUSH0 DUP1 DUP7 PUSH20 0xFFFFFFFFFFFFFFFFFFFFFFFFFFFFFFFFFFFFFFFF AND DUP6 DUP8 PUSH1 0x40 MLOAD PUSH2 0x3637 SWAP2 SWAP1 PUSH2 0x5278 JUMP JUMPDEST PUSH0 PUSH1 0x40 MLOAD DUP1 DUP4 SUB DUP2 DUP6 DUP8 GAS CALL SWAP3 POP POP POP RETURNDATASIZE DUP1 PUSH0 DUP2 EQ PUSH2 0x3671 JUMPI PUSH1 0x40 MLOAD SWAP2 POP PUSH1 0x1F NOT PUSH1 0x3F RETURNDATASIZE ADD AND DUP3 ADD PUSH1 0x40 MSTORE RETURNDATASIZE DUP3 MSTORE RETURNDATASIZE PUSH0 PUSH1 0x20 DUP5 ADD RETURNDATACOPY PUSH2 0x3676 JUMP JUMPDEST PUSH1 0x60 SWAP2 POP JUMPDEST POP SWAP2 POP SWAP2 POP PUSH2 0x3687 DUP8 DUP4 DUP4 DUP8 PUSH2 0x3693 JUMP JUMPDEST SWAP3 POP POP POP SWAP5 SWAP4 POP POP POP POP JUMP JUMPDEST PUSH1 0x60 DUP4 ISZERO PUSH2 0x36F4 JUMPI PUSH0 DUP4 MLOAD SUB PUSH2 0x36EC JUMPI PUSH2 0x36AC DUP6 PUSH2 0x2ACD JUMP JUMPDEST PUSH2 0x36EB JUMPI PUSH1 0x40 MLOAD PUSH32 0x8C379A000000000000000000000000000000000000000000000000000000000 DUP2 MSTORE PUSH1 0x4 ADD PUSH2 0x36E2 SWAP1 PUSH2 0x52D8 JUMP JUMPDEST PUSH1 0x40 MLOAD DUP1 SWAP2 SUB SWAP1 REVERT JUMPDEST JUMPDEST DUP3 SWAP1 POP PUSH2 0x36FF JUMP JUMPDEST PUSH2 0x36FE DUP4 DUP4 PUSH2 0x3707 JUMP JUMPDEST JUMPDEST SWAP5 SWAP4 POP POP POP POP JUMP JUMPDEST PUSH0 DUP3 MLOAD GT ISZERO PUSH2 0x3719 JUMPI DUP2 MLOAD DUP1 DUP4 PUSH1 0x20 ADD REVERT JUMPDEST DUP1 PUSH1 0x40 MLOAD PUSH32 0x8C379A000000000000000000000000000000000000000000000000000000000 DUP2 MSTORE PUSH1 0x4 ADD PUSH2 0x374D SWAP2 SWAP1 PUSH2 0x386B JUMP JUMPDEST PUSH1 0x40 MLOAD DUP1 SWAP2 SUB SWAP1 REVERT JUMPDEST PUSH0 DUP1 REVERT JUMPDEST PUSH0 DUP1 REVERT JUMPDEST PUSH0 DUP2 SWAP1 POP SWAP2 SWAP1 POP JUMP JUMPDEST PUSH2 0x3770 DUP2 PUSH2 0x375E JUMP JUMPDEST DUP2 EQ PUSH2 0x377A JUMPI PUSH0 DUP1 REVERT JUMPDEST POP JUMP JUMPDEST PUSH0 DUP2 CALLDATALOAD SWAP1 POP PUSH2 0x378B DUP2 PUSH2 0x3767 JUMP JUMPDEST SWAP3 SWAP2 POP POP JUMP JUMPDEST PUSH0 DUP1 PUSH0 PUSH1 0x60 DUP5 DUP7 SUB SLT ISZERO PUSH2 0x37A8 JUMPI PUSH2 0x37A7 PUSH2 0x3756 JUMP JUMPDEST JUMPDEST PUSH0 PUSH2 0x37B5 DUP7 DUP3 DUP8 ADD PUSH2 0x377D JUMP JUMPDEST SWAP4 POP POP PUSH1 0x20 PUSH2 0x37C6 DUP7 DUP3 DUP8 ADD PUSH2 0x377D JUMP JUMPDEST SWAP3 POP POP PUSH1 0x40 PUSH2 0x37D7 DUP7 DUP3 DUP8 ADD PUSH2 0x377D JUMP JUMPDEST SWAP2 POP POP SWAP3 POP SWAP3 POP SWAP3 JUMP JUMPDEST PUSH0 DUP2 MLOAD SWAP1 POP SWAP2 SWAP1 POP JUMP JUMPDEST PUSH0 DUP3 DUP3 MSTORE PUSH1 0x20 DUP3 ADD SWAP1 POP SWAP3 SWAP2 POP POP JUMP JUMPDEST PUSH0 JUMPDEST DUP4 DUP2 LT ISZERO PUSH2 0x3818 JUMPI DUP1 DUP3 ADD MLOAD DUP2 DUP5 ADD MSTORE PUSH1 0x20 DUP2 ADD SWAP1 POP PUSH2 0x37FD JUMP JUMPDEST PUSH0 DUP5 DUP5 ADD MSTORE POP POP POP POP JUMP JUMPDEST PUSH0 PUSH1 0x1F NOT PUSH1 0x1F DUP4 ADD AND SWAP1 POP SWAP2 SWAP1 POP JUMP JUMPDEST PUSH0 PUSH2 0x383D DUP3 PUSH2 0x37E1 JUMP JUMPDEST PUSH2 0x3847 DUP2 DUP6 PUSH2 0x37EB JUMP JUMPDEST SWAP4 POP PUSH2 0x3857 DUP2 DUP6 PUSH1 0x20 DUP7 ADD PUSH2 0x37FB JUMP JUMPDEST PUSH2 0x3860 DUP2 PUSH2 0x3823 JUMP JUMPDEST DUP5 ADD SWAP2 POP POP SWAP3 SWAP2 POP POP JUMP JUMPDEST PUSH0 PUSH1 0x20 DUP3 ADD SWAP1 POP DUP2 DUP2 SUB PUSH0 DUP4 ADD MSTORE PUSH2 0x3883 DUP2 DUP5 PUSH2 0x3833 JUMP JUMPDEST SWAP1 POP SWAP3 SWAP2 POP POP JUMP JUMPDEST PUSH0 PUSH20 0xFFFFFFFFFFFFFFFFFFFFFFFFFFFFFFFFFFFFFFFF DUP3 AND SWAP1 POP SWAP2 SWAP1 POP JUMP JUMPDEST PUSH0 PUSH2 0x38B4 DUP3 PUSH2 0x388B JUMP JUMPDEST SWAP1 POP SWAP2 SWAP1 POP JUMP JUMPDEST PUSH2 0x38C4 DUP2 PUSH2 0x38AA JUMP JUMPDEST DUP2 EQ PUSH2 0x38CE JUMPI PUSH0 DUP1 REVERT JUMPDEST POP JUMP JUMPDEST PUSH0 DUP2 CALLDATALOAD SWAP1 POP PUSH2 0x38DF DUP2 PUSH2 0x38BB JUMP JUMPDEST SWAP3 SWAP2 POP POP JUMP JUMPDEST PUSH0 DUP1 PUSH1 0x40 DUP4 DUP6 SUB SLT ISZERO PUSH2 0x38FB JUMPI PUSH2 0x38FA PUSH2 0x3756 JUMP JUMPDEST JUMPDEST PUSH0 PUSH2 0x3908 DUP6 DUP3 DUP7 ADD PUSH2 0x38D1 JUMP JUMPDEST SWAP3 POP POP PUSH1 0x20 PUSH2 0x3919 DUP6 DUP3 DUP7 ADD PUSH2 0x377D JUMP JUMPDEST SWAP2 POP POP SWAP3 POP SWAP3 SWAP1 POP JUMP JUMPDEST PUSH0 DUP2 ISZERO ISZERO SWAP1 POP SWAP2 SWAP1 POP JUMP JUMPDEST PUSH2 0x3937 DUP2 PUSH2 0x3923 JUMP JUMPDEST DUP3 MSTORE POP POP JUMP JUMPDEST PUSH0 PUSH1 0x20 DUP3 ADD SWAP1 POP PUSH2 0x3950 PUSH0 DUP4 ADD DUP5 PUSH2 0x392E JUMP JUMPDEST SWAP3 SWAP2 POP POP JUMP JUMPDEST PUSH0 PUSH1 0x20 DUP3 DUP5 SUB SLT ISZERO PUSH2 0x396B JUMPI PUSH2 0x396A PUSH2 0x3756 JUMP JUMPDEST JUMPDEST PUSH0 PUSH2 0x3978 DUP5 DUP3 DUP6 ADD PUSH2 0x377D JUMP JUMPDEST SWAP2 POP POP SWAP3 SWAP2 POP POP JUMP JUMPDEST PUSH2 0x398A DUP2 PUSH2 0x375E JUMP JUMPDEST DUP3 MSTORE POP POP JUMP JUMPDEST PUSH0 PUSH1 0x40 DUP3 ADD SWAP1 POP PUSH2 0x39A3 PUSH0 DUP4 ADD DUP6 PUSH2 0x3981 JUMP JUMPDEST PUSH2 0x39B0 PUSH1 0x20 DUP4 ADD DUP5 PUSH2 0x3981 JUMP JUMPDEST SWAP4 SWAP3 POP POP POP JUMP JUMPDEST PUSH0 PUSH1 0x20 DUP3 ADD SWAP1 POP PUSH2 0x39CA PUSH0 DUP4 ADD DUP5 PUSH2 0x3981 JUMP JUMPDEST SWAP3 SWAP2 POP POP JUMP JUMPDEST PUSH2 0x39D9 DUP2 PUSH2 0x38AA JUMP JUMPDEST DUP3 MSTORE POP POP JUMP JUMPDEST PUSH0 PUSH1 0x20 DUP3 ADD SWAP1 POP PUSH2 0x39F2 PUSH0 DUP4 ADD DUP5 PUSH2 0x39D0 JUMP JUMPDEST SWAP3 SWAP2 POP POP JUMP JUMPDEST PUSH0 DUP1 PUSH0 PUSH1 0x60 DUP5 DUP7 SUB SLT ISZERO PUSH2 0x3A0F JUMPI PUSH2 0x3A0E PUSH2 0x3756 JUMP JUMPDEST JUMPDEST PUSH0 PUSH2 0x3A1C DUP7 DUP3 DUP8 ADD PUSH2 0x38D1 JUMP JUMPDEST SWAP4 POP POP PUSH1 0x20 PUSH2 0x3A2D DUP7 DUP3 DUP8 ADD PUSH2 0x38D1 JUMP JUMPDEST SWAP3 POP POP PUSH1 0x40 PUSH2 0x3A3E DUP7 DUP3 DUP8 ADD PUSH2 0x377D JUMP JUMPDEST SWAP2 POP POP SWAP3 POP SWAP3 POP SWAP3 JUMP JUMPDEST PUSH0 PUSH1 0xFF DUP3 AND SWAP1 POP SWAP2 SWAP1 POP JUMP JUMPDEST PUSH2 0x3A5D DUP2 PUSH2 0x3A48 JUMP JUMPDEST DUP3 MSTORE POP POP JUMP JUMPDEST PUSH0 PUSH1 0x20 DUP3 ADD SWAP1 POP PUSH2 0x3A76 PUSH0 DUP4 ADD DUP5 PUSH2 0x3A54 JUMP JUMPDEST SWAP3 SWAP2 POP POP JUMP JUMPDEST PUSH0 DUP2 SWAP1 POP SWAP2 SWAP1 POP JUMP JUMPDEST PUSH2 0x3A8E DUP2 PUSH2 0x3A7C JUMP JUMPDEST DUP3 MSTORE POP POP JUMP JUMPDEST PUSH0 PUSH1 0x20 DUP3 ADD SWAP1 POP PUSH2 0x3AA7 PUSH0 DUP4 ADD DUP5 PUSH2 0x3A85 JUMP JUMPDEST SWAP3 SWAP2 POP POP JUMP JUMPDEST PUSH0 PUSH1 0x40 DUP3 ADD SWAP1 POP PUSH2 0x3AC0 PUSH0 DUP4 ADD DUP6 PUSH2 0x39D0 JUMP JUMPDEST PUSH2 0x3ACD PUSH1 0x20 DUP4 ADD DUP5 PUSH2 0x39D0 JUMP JUMPDEST SWAP4 SWAP3 POP POP POP JUMP JUMPDEST PUSH0 PUSH1 0x20 DUP3 DUP5 SUB SLT ISZERO PUSH2 0x3AE9 JUMPI PUSH2 0x3AE8 PUSH2 0x3756 JUMP JUMPDEST JUMPDEST PUSH0 PUSH2 0x3AF6 DUP5 DUP3 DUP6 ADD PUSH2 0x38D1 JUMP JUMPDEST SWAP2 POP POP SWAP3 SWAP2 POP POP JUMP JUMPDEST PUSH0 DUP1 PUSH1 0x40 DUP4 DUP6 SUB SLT ISZERO PUSH2 0x3B15 JUMPI PUSH2 0x3B14 PUSH2 0x3756 JUMP JUMPDEST JUMPDEST PUSH0 PUSH2 0x3B22 DUP6 DUP3 DUP7 ADD PUSH2 0x377D JUMP JUMPDEST SWAP3 POP POP PUSH1 0x20 PUSH2 0x3B33 DUP6 DUP3 DUP7 ADD PUSH2 0x377D JUMP JUMPDEST SWAP2 POP POP SWAP3 POP SWAP3 SWAP1 POP JUMP JUMPDEST PUSH0 PUSH1 0xA0 DUP3 ADD SWAP1 POP PUSH2 0x3B50 PUSH0 DUP4 ADD DUP9 PUSH2 0x3981 JUMP JUMPDEST PUSH2 0x3B5D PUSH1 0x20 DUP4 ADD DUP8 PUSH2 0x3981 JUMP JUMPDEST PUSH2 0x3B6A PUSH1 0x40 DUP4 ADD DUP7 PUSH2 0x3981 JUMP JUMPDEST PUSH2 0x3B77 PUSH1 0x60 DUP4 ADD DUP6 PUSH2 0x3981 JUMP JUMPDEST PUSH2 0x3B84 PUSH1 0x80 DUP4 ADD DUP5 PUSH2 0x3981 JUMP JUMPDEST SWAP7 SWAP6 POP POP POP POP POP POP JUMP JUMPDEST PUSH0 PUSH32 0xFF00000000000000000000000000000000000000000000000000000000000000 DUP3 AND SWAP1 POP SWAP2 SWAP1 POP JUMP JUMPDEST PUSH2 0x3BC2 DUP2 PUSH2 0x3B8E JUMP JUMPDEST DUP3 MSTORE POP POP JUMP JUMPDEST PUSH0 DUP2 MLOAD SWAP1 POP SWAP2 SWAP1 POP JUMP JUMPDEST PUSH0 DUP3 DUP3 MSTORE PUSH1 0x20 DUP3 ADD SWAP1 POP SWAP3 SWAP2 POP POP JUMP JUMPDEST PUSH0 DUP2 SWAP1 POP PUSH1 0x20 DUP3 ADD SWAP1 POP SWAP2 SWAP1 POP JUMP JUMPDEST PUSH2 0x3BFA DUP2 PUSH2 0x375E JUMP JUMPDEST DUP3 MSTORE POP POP JUMP JUMPDEST PUSH0 PUSH2 0x3C0B DUP4 DUP4 PUSH2 0x3BF1 JUMP JUMPDEST PUSH1 0x20 DUP4 ADD SWAP1 POP SWAP3 SWAP2 POP POP JUMP JUMPDEST PUSH0 PUSH1 0x20 DUP3 ADD SWAP1 POP SWAP2 SWAP1 POP JUMP JUMPDEST PUSH0 PUSH2 0x3C2D DUP3 PUSH2 0x3BC8 JUMP JUMPDEST PUSH2 0x3C37 DUP2 DUP6 PUSH2 0x3BD2 JUMP JUMPDEST SWAP4 POP PUSH2 0x3C42 DUP4 PUSH2 0x3BE2 JUMP JUMPDEST DUP1 PUSH0 JUMPDEST DUP4 DUP2 LT ISZERO PUSH2 0x3C72 JUMPI DUP2 MLOAD PUSH2 0x3C59 DUP9 DUP3 PUSH2 0x3C00 JUMP JUMPDEST SWAP8 POP PUSH2 0x3C64 DUP4 PUSH2 0x3C17 JUMP JUMPDEST SWAP3 POP POP PUSH1 0x1 DUP2 ADD SWAP1 POP PUSH2 0x3C45 JUMP JUMPDEST POP DUP6 SWAP4 POP POP POP POP SWAP3 SWAP2 POP POP JUMP JUMPDEST PUSH0 PUSH1 0xE0 DUP3 ADD SWAP1 POP PUSH2 0x3C92 PUSH0 DUP4 ADD DUP11 PUSH2 0x3BB9 JUMP JUMPDEST DUP2 DUP2 SUB PUSH1 0x20 DUP4 ADD MSTORE PUSH2 0x3CA4 DUP2 DUP10 PUSH2 0x3833 JUMP JUMPDEST SWAP1 POP DUP2 DUP2 SUB PUSH1 0x40 DUP4 ADD MSTORE PUSH2 0x3CB8 DUP2 DUP9 PUSH2 0x3833 JUMP JUMPDEST SWAP1 POP PUSH2 0x3CC7 PUSH1 0x60 DUP4 ADD DUP8 PUSH2 0x3981 JUMP JUMPDEST PUSH2 0x3CD4 PUSH1 0x80 DUP4 ADD DUP7 PUSH2 0x39D0 JUMP JUMPDEST PUSH2 0x3CE1 PUSH1 0xA0 DUP4 ADD DUP6 PUSH2 0x3A85 JUMP JUMPDEST DUP2 DUP2 SUB PUSH1 0xC0 DUP4 ADD MSTORE PUSH2 0x3CF3 DUP2 DUP5 PUSH2 0x3C23 JUMP JUMPDEST SWAP1 POP SWAP9 SWAP8 POP POP POP POP POP POP POP POP JUMP JUMPDEST PUSH0 DUP1 REVERT JUMPDEST PUSH0 DUP1 REVERT JUMPDEST PUSH0 DUP1 REVERT JUMPDEST PUSH0 DUP1 DUP4 PUSH1 0x1F DUP5 ADD SLT PUSH2 0x3D22 JUMPI PUSH2 0x3D21 PUSH2 0x3D01 JUMP JUMPDEST JUMPDEST DUP3 CALLDATALOAD SWAP1 POP PUSH8 0xFFFFFFFFFFFFFFFF DUP2 GT ISZERO PUSH2 0x3D3F JUMPI PUSH2 0x3D3E PUSH2 0x3D05 JUMP JUMPDEST JUMPDEST PUSH1 0x20 DUP4 ADD SWAP2 POP DUP4 PUSH1 0x1 DUP3 MUL DUP4 ADD GT ISZERO PUSH2 0x3D5B JUMPI PUSH2 0x3D5A PUSH2 0x3D09 JUMP JUMPDEST JUMPDEST SWAP3 POP SWAP3 SWAP1 POP JUMP JUMPDEST PUSH0 DUP1 PUSH0 DUP1 PUSH0 PUSH1 0x60 DUP7 DUP9 SUB SLT ISZERO PUSH2 0x3D7B JUMPI PUSH2 0x3D7A PUSH2 0x3756 JUMP JUMPDEST JUMPDEST PUSH0 PUSH2 0x3D88 DUP9 DUP3 DUP10 ADD PUSH2 0x38D1 JUMP JUMPDEST SWAP6 POP POP PUSH1 0x20 DUP7 ADD CALLDATALOAD PUSH8 0xFFFFFFFFFFFFFFFF DUP2 GT ISZERO PUSH2 0x3DA9 JUMPI PUSH2 0x3DA8 PUSH2 0x375A JUMP JUMPDEST JUMPDEST PUSH2 0x3DB5 DUP9 DUP3 DUP10 ADD PUSH2 0x3D0D JUMP JUMPDEST SWAP5 POP SWAP5 POP POP PUSH1 0x40 DUP7 ADD CALLDATALOAD PUSH8 0xFFFFFFFFFFFFFFFF DUP2 GT ISZERO PUSH2 0x3DD8 JUMPI PUSH2 0x3DD7 PUSH2 0x375A JUMP JUMPDEST JUMPDEST PUSH2 0x3DE4 DUP9 DUP3 DUP10 ADD PUSH2 0x3D0D JUMP JUMPDEST SWAP3 POP SWAP3 POP POP SWAP3 SWAP6 POP SWAP3 SWAP6 SWAP1 SWAP4 POP JUMP JUMPDEST PUSH0 DUP2 SWAP1 POP SWAP2 SWAP1 POP JUMP JUMPDEST PUSH0 PUSH2 0x3E16 PUSH2 0x3E11 PUSH2 0x3E0C DUP5 PUSH2 0x388B JUMP JUMPDEST PUSH2 0x3DF3 JUMP JUMPDEST PUSH2 0x388B JUMP JUMPDEST SWAP1 POP SWAP2 SWAP1 POP JUMP JUMPDEST PUSH0 PUSH2 0x3E27 DUP3 PUSH2 0x3DFC JUMP JUMPDEST SWAP1 POP SWAP2 SWAP1 POP JUMP JUMPDEST PUSH0 PUSH2 0x3E38 DUP3 PUSH2 0x3E1D JUMP JUMPDEST SWAP1 POP SWAP2 SWAP1 POP JUMP JUMPDEST PUSH2 0x3E48 DUP2 PUSH2 0x3E2E JUMP JUMPDEST DUP3 MSTORE POP POP JUMP JUMPDEST PUSH0 PUSH1 0x20 DUP3 ADD SWAP1 POP PUSH2 0x3E61 PUSH0 DUP4 ADD DUP5 PUSH2 0x3E3F JUMP JUMPDEST SWAP3 SWAP2 POP POP JUMP JUMPDEST PUSH2 0x3E70 DUP2 PUSH2 0x3A48 JUMP JUMPDEST DUP2 EQ PUSH2 0x3E7A JUMPI PUSH0 DUP1 REVERT JUMPDEST POP JUMP JUMPDEST PUSH0 DUP2 CALLDATALOAD SWAP1 POP PUSH2 0x3E8B DUP2 PUSH2 0x3E67 JUMP JUMPDEST SWAP3 SWAP2 POP POP JUMP JUMPDEST PUSH2 0x3E9A DUP2 PUSH2 0x3A7C JUMP JUMPDEST DUP2 EQ PUSH2 0x3EA4 JUMPI PUSH0 DUP1 REVERT JUMPDEST POP JUMP JUMPDEST PUSH0 DUP2 CALLDATALOAD SWAP1 POP PUSH2 0x3EB5 DUP2 PUSH2 0x3E91 JUMP JUMPDEST SWAP3 SWAP2 POP POP JUMP JUMPDEST PUSH0 DUP1 PUSH0 DUP1 PUSH0 DUP1 PUSH0 PUSH1 0xE0 DUP9 DUP11 SUB SLT ISZERO PUSH2 0x3ED6 JUMPI PUSH2 0x3ED5 PUSH2 0x3756 JUMP JUMPDEST JUMPDEST PUSH0 PUSH2 0x3EE3 DUP11 DUP3 DUP12 ADD PUSH2 0x38D1 JUMP JUMPDEST SWAP8 POP POP PUSH1 0x20 PUSH2 0x3EF4 DUP11 DUP3 DUP12 ADD PUSH2 0x38D1 JUMP JUMPDEST SWAP7 POP POP PUSH1 0x40 PUSH2 0x3F05 DUP11 DUP3 DUP12 ADD PUSH2 0x377D JUMP JUMPDEST SWAP6 POP POP PUSH1 0x60 PUSH2 0x3F16 DUP11 DUP3 DUP12 ADD PUSH2 0x377D JUMP JUMPDEST SWAP5 POP POP PUSH1 0x80 PUSH2 0x3F27 DUP11 DUP3 DUP12 ADD PUSH2 0x3E7D JUMP JUMPDEST SWAP4 POP POP PUSH1 0xA0 PUSH2 0x3F38 DUP11 DUP3 DUP12 ADD PUSH2 0x3EA7 JUMP JUMPDEST SWAP3 POP POP PUSH1 0xC0 PUSH2 0x3F49 DUP11 DUP3 DUP12 ADD PUSH2 0x3EA7 JUMP JUMPDEST SWAP2 POP POP SWAP3 SWAP6 SWAP9 SWAP2 SWAP5 SWAP8 POP SWAP3 SWAP6 POP JUMP JUMPDEST PUSH0 DUP1 PUSH1 0x40 DUP4 DUP6 SUB SLT ISZERO PUSH2 0x3F6E JUMPI PUSH2 0x3F6D PUSH2 0x3756 JUMP JUMPDEST JUMPDEST PUSH0 PUSH2 0x3F7B DUP6 DUP3 DUP7 ADD PUSH2 0x38D1 JUMP JUMPDEST SWAP3 POP POP PUSH1 0x20 PUSH2 0x3F8C DUP6 DUP3 DUP7 ADD PUSH2 0x38D1 JUMP JUMPDEST SWAP2 POP POP SWAP3 POP SWAP3 SWAP1 POP JUMP JUMPDEST PUSH0 DUP2 MLOAD SWAP1 POP PUSH2 0x3FA4 DUP2 PUSH2 0x3767 JUMP JUMPDEST SWAP3 SWAP2 POP POP JUMP JUMPDEST PUSH0 PUSH1 0x20 DUP3 DUP5 SUB SLT ISZERO PUSH2 0x3FBF JUMPI PUSH2 0x3FBE PUSH2 0x3756 JUMP JUMPDEST JUMPDEST PUSH0 PUSH2 0x3FCC DUP5 DUP3 DUP6 ADD PUSH2 0x3F96 JUMP JUMPDEST SWAP2 POP POP SWAP3 SWAP2 POP POP JUMP JUMPDEST PUSH32 0x4E487B7100000000000000000000000000000000000000000000000000000000 PUSH0 MSTORE PUSH1 0x11 PUSH1 0x4 MSTORE PUSH1 0x24 PUSH0 REVERT JUMPDEST PUSH0 PUSH2 0x400C DUP3 PUSH2 0x375E JUMP JUMPDEST SWAP2 POP PUSH2 0x4017 DUP4 PUSH2 0x375E JUMP JUMPDEST SWAP3 POP DUP3 DUP3 SUB SWAP1 POP DUP2 DUP2 GT ISZERO PUSH2 0x402F JUMPI PUSH2 0x402E PUSH2 0x3FD5 JUMP JUMPDEST JUMPDEST SWAP3 SWAP2 POP POP JUMP JUMPDEST PUSH0 PUSH2 0x403F DUP3 PUSH2 0x375E JUMP JUMPDEST SWAP2 POP PUSH2 0x404A DUP4 PUSH2 0x375E JUMP JUMPDEST SWAP3 POP DUP3 DUP3 MUL PUSH2 0x4058 DUP2 PUSH2 0x375E JUMP JUMPDEST SWAP2 POP DUP3 DUP3 DIV DUP5 EQ DUP4 ISZERO OR PUSH2 0x406F JUMPI PUSH2 0x406E PUSH2 0x3FD5 JUMP JUMPDEST JUMPDEST POP SWAP3 SWAP2 POP POP JUMP JUMPDEST PUSH32 0x4E487B7100000000000000000000000000000000000000000000000000000000 PUSH0 MSTORE PUSH1 0x12 PUSH1 0x4 MSTORE PUSH1 0x24 PUSH0 REVERT JUMPDEST PUSH0 PUSH2 0x40AD DUP3 PUSH2 0x375E JUMP JUMPDEST SWAP2 POP PUSH2 0x40B8 DUP4 PUSH2 0x375E JUMP JUMPDEST SWAP3 POP DUP3 PUSH2 0x40C8 JUMPI PUSH2 0x40C7 PUSH2 0x4076 JUMP JUMPDEST JUMPDEST DUP3 DUP3 DIV SWAP1 POP SWAP3 SWAP2 POP POP JUMP JUMPDEST PUSH0 PUSH2 0x40DD DUP3 PUSH2 0x375E JUMP JUMPDEST SWAP2 POP PUSH2 0x40E8 DUP4 PUSH2 0x375E JUMP JUMPDEST SWAP3 POP DUP3 DUP3 ADD SWAP1 POP DUP1 DUP3 GT ISZERO PUSH2 0x4100 JUMPI PUSH2 0x40FF PUSH2 0x3FD5 JUMP JUMPDEST JUMPDEST SWAP3 SWAP2 POP POP JUMP JUMPDEST PUSH32 0x4E487B7100000000000000000000000000000000000000000000000000000000 PUSH0 MSTORE PUSH1 0x22 PUSH1 0x4 MSTORE PUSH1 0x24 PUSH0 REVERT JUMPDEST PUSH0 PUSH1 0x2 DUP3 DIV SWAP1 POP PUSH1 0x1 DUP3 AND DUP1 PUSH2 0x414A JUMPI PUSH1 0x7F DUP3 AND SWAP2 POP JUMPDEST PUSH1 0x20 DUP3 LT DUP2 SUB PUSH2 0x415D JUMPI PUSH2 0x415C PUSH2 0x4106 JUMP JUMPDEST JUMPDEST POP SWAP2 SWAP1 POP JUMP JUMPDEST PUSH0 DUP2 MLOAD SWAP1 POP PUSH2 0x4171 DUP2 PUSH2 0x38BB JUMP JUMPDEST SWAP3 SWAP2 POP POP JUMP JUMPDEST PUSH0 PUSH1 0x20 DUP3 DUP5 SUB SLT ISZERO PUSH2 0x418C JUMPI PUSH2 0x418B PUSH2 0x3756 JUMP JUMPDEST JUMPDEST PUSH0 PUSH2 0x4199 DUP5 DUP3 DUP6 ADD PUSH2 0x4163 JUMP JUMPDEST SWAP2 POP POP SWAP3 SWAP2 POP POP JUMP JUMPDEST PUSH0 DUP1 PUSH1 0x40 DUP4 DUP6 SUB SLT ISZERO PUSH2 0x41B8 JUMPI PUSH2 0x41B7 PUSH2 0x3756 JUMP JUMPDEST JUMPDEST PUSH0 PUSH2 0x41C5 DUP6 DUP3 DUP7 ADD PUSH2 0x3F96 JUMP JUMPDEST SWAP3 POP POP PUSH1 0x20 PUSH2 0x41D6 DUP6 DUP3 DUP7 ADD PUSH2 0x3F96 JUMP JUMPDEST SWAP2 POP POP SWAP3 POP SWAP3 SWAP1 POP JUMP JUMPDEST PUSH32 0x4549503731323A20556E696E697469616C697A65640000000000000000000000 PUSH0 DUP3 ADD MSTORE POP JUMP JUMPDEST PUSH0 PUSH2 0x4214 PUSH1 0x15 DUP4 PUSH2 0x37EB JUMP JUMPDEST SWAP2 POP PUSH2 0x421F DUP3 PUSH2 0x41E0 JUMP JUMPDEST PUSH1 0x20 DUP3 ADD SWAP1 POP SWAP2 SWAP1 POP JUMP JUMPDEST PUSH0 PUSH1 0x20 DUP3 ADD SWAP1 POP DUP2 DUP2 SUB PUSH0 DUP4 ADD MSTORE PUSH2 0x4241 DUP2 PUSH2 0x4208 JUMP JUMPDEST SWAP1 POP SWAP2 SWAP1 POP JUMP JUMPDEST PUSH32 0x4E487B7100000000000000000000000000000000000000000000000000000000 PUSH0 MSTORE PUSH1 0x41 PUSH1 0x4 MSTORE PUSH1 0x24 PUSH0 REVERT JUMPDEST PUSH32 0x496E697469616C697A61626C653A20636F6E747261637420697320616C726561 PUSH0 DUP3 ADD MSTORE PUSH32 0x647920696E697469616C697A6564000000000000000000000000000000000000 PUSH1 0x20 DUP3 ADD MSTORE POP JUMP JUMPDEST PUSH0 PUSH2 0x42CF PUSH1 0x2E DUP4 PUSH2 0x37EB JUMP JUMPDEST SWAP2 POP PUSH2 0x42DA DUP3 PUSH2 0x4275 JUMP JUMPDEST PUSH1 0x40 DUP3 ADD SWAP1 POP SWAP2 SWAP1 POP JUMP JUMPDEST PUSH0 PUSH1 0x20 DUP3 ADD SWAP1 POP DUP2 DUP2 SUB PUSH0 DUP4 ADD MSTORE PUSH2 0x42FC DUP2 PUSH2 0x42C3 JUMP JUMPDEST SWAP1 POP SWAP2 SWAP1 POP JUMP JUMPDEST PUSH0 DUP2 SWAP1 POP SWAP2 SWAP1 POP JUMP JUMPDEST PUSH0 PUSH2 0x4326 PUSH2 0x4321 PUSH2 0x431C DUP5 PUSH2 0x4303 JUMP JUMPDEST PUSH2 0x3DF3 JUMP JUMPDEST PUSH2 0x3A48 JUMP JUMPDEST SWAP1 POP SWAP2 SWAP1 POP JUMP JUMPDEST PUSH2 0x4336 DUP2 PUSH2 0x430C JUMP JUMPDEST DUP3 MSTORE POP POP JUMP JUMPDEST PUSH0 PUSH1 0x20 DUP3 ADD SWAP1 POP PUSH2 0x434F PUSH0 DUP4 ADD DUP5 PUSH2 0x432D JUMP JUMPDEST SWAP3 SWAP2 POP POP JUMP JUMPDEST PUSH2 0x435E DUP2 PUSH2 0x3923 JUMP JUMPDEST DUP2 EQ PUSH2 0x4368 JUMPI PUSH0 DUP1 REVERT JUMPDEST POP JUMP JUMPDEST PUSH0 DUP2 MLOAD SWAP1 POP PUSH2 0x4379 DUP2 PUSH2 0x4355 JUMP JUMPDEST SWAP3 SWAP2 POP POP JUMP JUMPDEST PUSH0 PUSH1 0x20 DUP3 DUP5 SUB SLT ISZERO PUSH2 0x4394 JUMPI PUSH2 0x4393 PUSH2 0x3756 JUMP JUMPDEST JUMPDEST PUSH0 PUSH2 0x43A1 DUP5 DUP3 DUP6 ADD PUSH2 0x436B JUMP JUMPDEST SWAP2 POP POP SWAP3 SWAP2 POP POP JUMP JUMPDEST PUSH0 PUSH1 0x60 DUP3 ADD SWAP1 POP PUSH2 0x43BD PUSH0 DUP4 ADD DUP7 PUSH2 0x3981 JUMP JUMPDEST PUSH2 0x43CA PUSH1 0x20 DUP4 ADD DUP6 PUSH2 0x3981 JUMP JUMPDEST PUSH2 0x43D7 PUSH1 0x40 DUP4 ADD DUP5 PUSH2 0x3981 JUMP JUMPDEST SWAP5 SWAP4 POP POP POP POP JUMP JUMPDEST PUSH32 0x45524332303A2064656372656173656420616C6C6F77616E63652062656C6F77 PUSH0 DUP3 ADD MSTORE PUSH32 0x207A65726F000000000000000000000000000000000000000000000000000000 PUSH1 0x20 DUP3 ADD MSTORE POP JUMP JUMPDEST PUSH0 PUSH2 0x4439 PUSH1 0x25 DUP4 PUSH2 0x37EB JUMP JUMPDEST SWAP2 POP PUSH2 0x4444 DUP3 PUSH2 0x43DF JUMP JUMPDEST PUSH1 0x40 DUP3 ADD SWAP1 POP SWAP2 SWAP1 POP JUMP JUMPDEST PUSH0 PUSH1 0x20 DUP3 ADD SWAP1 POP DUP2 DUP2 SUB PUSH0 DUP4 ADD MSTORE PUSH2 0x4466 DUP2 PUSH2 0x442D JUMP JUMPDEST SWAP1 POP SWAP2 SWAP1 POP JUMP JUMPDEST PUSH32 0x45524332305065726D69743A206578706972656420646561646C696E65000000 PUSH0 DUP3 ADD MSTORE POP JUMP JUMPDEST PUSH0 PUSH2 0x44A1 PUSH1 0x1D DUP4 PUSH2 0x37EB JUMP JUMPDEST SWAP2 POP PUSH2 0x44AC DUP3 PUSH2 0x446D JUMP JUMPDEST PUSH1 0x20 DUP3 ADD SWAP1 POP SWAP2 SWAP1 POP JUMP JUMPDEST PUSH0 PUSH1 0x20 DUP3 ADD SWAP1 POP DUP2 DUP2 SUB PUSH0 DUP4 ADD MSTORE PUSH2 0x44CE DUP2 PUSH2 0x4495 JUMP JUMPDEST SWAP1 POP SWAP2 SWAP1 POP JUMP JUMPDEST PUSH0 PUSH1 0xC0 DUP3 ADD SWAP1 POP PUSH2 0x44E8 PUSH0 DUP4 ADD DUP10 PUSH2 0x3A85 JUMP JUMPDEST PUSH2 0x44F5 PUSH1 0x20 DUP4 ADD DUP9 PUSH2 0x39D0 JUMP JUMPDEST PUSH2 0x4502 PUSH1 0x40 DUP4 ADD DUP8 PUSH2 0x39D0 JUMP JUMPDEST PUSH2 0x450F PUSH1 0x60 DUP4 ADD DUP7 PUSH2 0x3981 JUMP JUMPDEST PUSH2 0x451C PUSH1 0x80 DUP4 ADD DUP6 PUSH2 0x3981 JUMP JUMPDEST PUSH2 0x4529 PUSH1 0xA0 DUP4 ADD DUP5 PUSH2 0x3981 JUMP JUMPDEST SWAP8 SWAP7 POP POP POP POP POP POP POP JUMP JUMPDEST PUSH32 0x45524332305065726D69743A20696E76616C6964207369676E61747572650000 PUSH0 DUP3 ADD MSTORE POP JUMP JUMPDEST PUSH0 PUSH2 0x4568 PUSH1 0x1E DUP4 PUSH2 0x37EB JUMP JUMPDEST SWAP2 POP PUSH2 0x4573 DUP3 PUSH2 0x4534 JUMP JUMPDEST PUSH1 0x20 DUP3 ADD SWAP1 POP SWAP2 SWAP1 POP JUMP JUMPDEST PUSH0 PUSH1 0x20 DUP3 ADD SWAP1 POP DUP2 DUP2 SUB PUSH0 DUP4 ADD MSTORE PUSH2 0x4595 DUP2 PUSH2 0x455C JUMP JUMPDEST SWAP1 POP SWAP2 SWAP1 POP JUMP JUMPDEST PUSH32 0x4F776E61626C653A206E6577206F776E657220697320746865207A65726F2061 PUSH0 DUP3 ADD MSTORE PUSH32 0x6464726573730000000000000000000000000000000000000000000000000000 PUSH1 0x20 DUP3 ADD MSTORE POP JUMP JUMPDEST PUSH0 PUSH2 0x45F6 PUSH1 0x26 DUP4 PUSH2 0x37EB JUMP JUMPDEST SWAP2 POP PUSH2 0x4601 DUP3 PUSH2 0x459C JUMP JUMPDEST PUSH1 0x40 DUP3 ADD SWAP1 POP SWAP2 SWAP1 POP JUMP JUMPDEST PUSH0 PUSH1 0x20 DUP3 ADD SWAP1 POP DUP2 DUP2 SUB PUSH0 DUP4 ADD MSTORE PUSH2 0x4623 DUP2 PUSH2 0x45EA JUMP JUMPDEST SWAP1 POP SWAP2 SWAP1 POP JUMP JUMPDEST PUSH32 0x5265656E7472616E637947756172643A207265656E7472616E742063616C6C00 PUSH0 DUP3 ADD MSTORE POP JUMP JUMPDEST PUSH0 PUSH2 0x465E PUSH1 0x1F DUP4 PUSH2 0x37EB JUMP JUMPDEST SWAP2 POP PUSH2 0x4669 DUP3 PUSH2 0x462A JUMP JUMPDEST PUSH1 0x20 DUP3 ADD SWAP1 POP SWAP2 SWAP1 POP JUMP JUMPDEST PUSH0 PUSH1 0x20 DUP3 ADD SWAP1 POP DUP2 DUP2 SUB PUSH0 DUP4 ADD MSTORE PUSH2 0x468B DUP2 PUSH2 0x4652 JUMP JUMPDEST SWAP1 POP SWAP2 SWAP1 POP JUMP JUMPDEST PUSH0 PUSH1 0x60 DUP3 ADD SWAP1 POP PUSH2 0x46A5 PUSH0 DUP4 ADD DUP7 PUSH2 0x39D0 JUMP JUMPDEST PUSH2 0x46B2 PUSH1 0x20 DUP4 ADD DUP6 PUSH2 0x39D0 JUMP JUMPDEST PUSH2 0x46BF PUSH1 0x40 DUP4 ADD DUP5 PUSH2 0x3981 JUMP JUMPDEST SWAP5 SWAP4 POP POP POP POP JUMP JUMPDEST PUSH32 0x45524332303A206D696E7420746F20746865207A65726F206164647265737300 PUSH0 DUP3 ADD MSTORE POP JUMP JUMPDEST PUSH0 PUSH2 0x46FB PUSH1 0x1F DUP4 PUSH2 0x37EB JUMP JUMPDEST SWAP2 POP PUSH2 0x4706 DUP3 PUSH2 0x46C7 JUMP JUMPDEST PUSH1 0x20 DUP3 ADD SWAP1 POP SWAP2 SWAP1 POP JUMP JUMPDEST PUSH0 PUSH1 0x20 DUP3 ADD SWAP1 POP DUP2 DUP2 SUB PUSH0 DUP4 ADD MSTORE PUSH2 0x4728 DUP2 PUSH2 0x46EF JUMP JUMPDEST SWAP1 POP SWAP2 SWAP1 POP JUMP JUMPDEST PUSH32 0x45524332303A20617070726F76652066726F6D20746865207A65726F20616464 PUSH0 DUP3 ADD MSTORE PUSH32 0x7265737300000000000000000000000000000000000000000000000000000000 PUSH1 0x20 DUP3 ADD MSTORE POP JUMP JUMPDEST PUSH0 PUSH2 0x4789 PUSH1 0x24 DUP4 PUSH2 0x37EB JUMP JUMPDEST SWAP2 POP PUSH2 0x4794 DUP3 PUSH2 0x472F JUMP JUMPDEST PUSH1 0x40 DUP3 ADD SWAP1 POP SWAP2 SWAP1 POP JUMP JUMPDEST PUSH0 PUSH1 0x20 DUP3 ADD SWAP1 POP DUP2 DUP2 SUB PUSH0 DUP4 ADD MSTORE PUSH2 0x47B6 DUP2 PUSH2 0x477D JUMP JUMPDEST SWAP1 POP SWAP2 SWAP1 POP JUMP JUMPDEST PUSH32 0x45524332303A20617070726F766520746F20746865207A65726F206164647265 PUSH0 DUP3 ADD MSTORE PUSH32 0x7373000000000000000000000000000000000000000000000000000000000000 PUSH1 0x20 DUP3 ADD MSTORE POP JUMP JUMPDEST PUSH0 PUSH2 0x4817 PUSH1 0x22 DUP4 PUSH2 0x37EB JUMP JUMPDEST SWAP2 POP PUSH2 0x4822 DUP3 PUSH2 0x47BD JUMP JUMPDEST PUSH1 0x40 DUP3 ADD SWAP1 POP SWAP2 SWAP1 POP JUMP JUMPDEST PUSH0 PUSH1 0x20 DUP3 ADD SWAP1 POP DUP2 DUP2 SUB PUSH0 DUP4 ADD MSTORE PUSH2 0x4844 DUP2 PUSH2 0x480B JUMP JUMPDEST SWAP1 POP SWAP2 SWAP1 POP JUMP JUMPDEST PUSH32 0x45524332303A20696E73756666696369656E7420616C6C6F77616E6365000000 PUSH0 DUP3 ADD MSTORE POP JUMP JUMPDEST PUSH0 PUSH2 0x487F PUSH1 0x1D DUP4 PUSH2 0x37EB JUMP JUMPDEST SWAP2 POP PUSH2 0x488A DUP3 PUSH2 0x484B JUMP JUMPDEST PUSH1 0x20 DUP3 ADD SWAP1 POP SWAP2 SWAP1 POP JUMP JUMPDEST PUSH0 PUSH1 0x20 DUP3 ADD SWAP1 POP DUP2 DUP2 SUB PUSH0 DUP4 ADD MSTORE PUSH2 0x48AC DUP2 PUSH2 0x4873 JUMP JUMPDEST SWAP1 POP SWAP2 SWAP1 POP JUMP JUMPDEST PUSH32 0x45524332303A207472616E736665722066726F6D20746865207A65726F206164 PUSH0 DUP3 ADD MSTORE PUSH32 0x6472657373000000000000000000000000000000000000000000000000000000 PUSH1 0x20 DUP3 ADD MSTORE POP JUMP JUMPDEST PUSH0 PUSH2 0x490D PUSH1 0x25 DUP4 PUSH2 0x37EB JUMP JUMPDEST SWAP2 POP PUSH2 0x4918 DUP3 PUSH2 0x48B3 JUMP JUMPDEST PUSH1 0x40 DUP3 ADD SWAP1 POP SWAP2 SWAP1 POP JUMP JUMPDEST PUSH0 PUSH1 0x20 DUP3 ADD SWAP1 POP DUP2 DUP2 SUB PUSH0 DUP4 ADD MSTORE PUSH2 0x493A DUP2 PUSH2 0x4901 JUMP JUMPDEST SWAP1 POP SWAP2 SWAP1 POP JUMP JUMPDEST PUSH32 0x45524332303A207472616E7366657220746F20746865207A65726F2061646472 PUSH0 DUP3 ADD MSTORE PUSH32 0x6573730000000000000000000000000000000000000000000000000000000000 PUSH1 0x20 DUP3 ADD MSTORE POP JUMP JUMPDEST PUSH0 PUSH2 0x499B PUSH1 0x23 DUP4 PUSH2 0x37EB JUMP JUMPDEST SWAP2 POP PUSH2 0x49A6 DUP3 PUSH2 0x4941 JUMP JUMPDEST PUSH1 0x40 DUP3 ADD SWAP1 POP SWAP2 SWAP1 POP JUMP JUMPDEST PUSH0 PUSH1 0x20 DUP3 ADD SWAP1 POP DUP2 DUP2 SUB PUSH0 DUP4 ADD MSTORE PUSH2 0x49C8 DUP2 PUSH2 0x498F JUMP JUMPDEST SWAP1 POP SWAP2 SWAP1 POP JUMP JUMPDEST PUSH32 0x45524332303A207472616E7366657220616D6F756E7420657863656564732062 PUSH0 DUP3 ADD MSTORE PUSH32 0x616C616E63650000000000000000000000000000000000000000000000000000 PUSH1 0x20 DUP3 ADD MSTORE POP JUMP JUMPDEST PUSH0 PUSH2 0x4A29 PUSH1 0x26 DUP4 PUSH2 0x37EB JUMP JUMPDEST SWAP2 POP PUSH2 0x4A34 DUP3 PUSH2 0x49CF JUMP JUMPDEST PUSH1 0x40 DUP3 ADD SWAP1 POP SWAP2 SWAP1 POP JUMP JUMPDEST PUSH0 PUSH1 0x20 DUP3 ADD SWAP1 POP DUP2 DUP2 SUB PUSH0 DUP4 ADD MSTORE PUSH2 0x4A56 DUP2 PUSH2 0x4A1D JUMP JUMPDEST SWAP1 POP SWAP2 SWAP1 POP JUMP JUMPDEST PUSH32 0x4F776E61626C653A2063616C6C6572206973206E6F7420746865206F776E6572 PUSH0 DUP3 ADD MSTORE POP JUMP JUMPDEST PUSH0 PUSH2 0x4A91 PUSH1 0x20 DUP4 PUSH2 0x37EB JUMP JUMPDEST SWAP2 POP PUSH2 0x4A9C DUP3 PUSH2 0x4A5D JUMP JUMPDEST PUSH1 0x20 DUP3 ADD SWAP1 POP SWAP2 SWAP1 POP JUMP JUMPDEST PUSH0 PUSH1 0x20 DUP3 ADD SWAP1 POP DUP2 DUP2 SUB PUSH0 DUP4 ADD MSTORE PUSH2 0x4ABE DUP2 PUSH2 0x4A85 JUMP JUMPDEST SWAP1 POP SWAP2 SWAP1 POP JUMP JUMPDEST PUSH32 0x496E697469616C697A61626C653A20636F6E7472616374206973206E6F742069 PUSH0 DUP3 ADD MSTORE PUSH32 0x6E697469616C697A696E67000000000000000000000000000000000000000000 PUSH1 0x20 DUP3 ADD MSTORE POP JUMP JUMPDEST PUSH0 PUSH2 0x4B1F PUSH1 0x2B DUP4 PUSH2 0x37EB JUMP JUMPDEST SWAP2 POP PUSH2 0x4B2A DUP3 PUSH2 0x4AC5 JUMP JUMPDEST PUSH1 0x40 DUP3 ADD SWAP1 POP SWAP2 SWAP1 POP JUMP JUMPDEST PUSH0 PUSH1 0x20 DUP3 ADD SWAP1 POP DUP2 DUP2 SUB PUSH0 DUP4 ADD MSTORE PUSH2 0x4B4C DUP2 PUSH2 0x4B13 JUMP JUMPDEST SWAP1 POP SWAP2 SWAP1 POP JUMP JUMPDEST PUSH32 0x45524332303A206275726E2066726F6D20746865207A65726F20616464726573 PUSH0 DUP3 ADD MSTORE PUSH32 0x7300000000000000000000000000000000000000000000000000000000000000 PUSH1 0x20 DUP3 ADD MSTORE POP JUMP JUMPDEST PUSH0 PUSH2 0x4BAD PUSH1 0x21 DUP4 PUSH2 0x37EB JUMP JUMPDEST SWAP2 POP PUSH2 0x4BB8 DUP3 PUSH2 0x4B53 JUMP JUMPDEST PUSH1 0x40 DUP3 ADD SWAP1 POP SWAP2 SWAP1 POP JUMP JUMPDEST PUSH0 PUSH1 0x20 DUP3 ADD SWAP1 POP DUP2 DUP2 SUB PUSH0 DUP4 ADD MSTORE PUSH2 0x4BDA DUP2 PUSH2 0x4BA1 JUMP JUMPDEST SWAP1 POP SWAP2 SWAP1 POP JUMP JUMPDEST PUSH32 0x45524332303A206275726E20616D6F756E7420657863656564732062616C616E PUSH0 DUP3 ADD MSTORE PUSH32 0x6365000000000000000000000000000000000000000000000000000000000000 PUSH1 0x20 DUP3 ADD MSTORE POP JUMP JUMPDEST PUSH0 PUSH2 0x4C3B PUSH1 0x22 DUP4 PUSH2 0x37EB JUMP JUMPDEST SWAP2 POP PUSH2 0x4C46 DUP3 PUSH2 0x4BE1 JUMP JUMPDEST PUSH1 0x40 DUP3 ADD SWAP1 POP SWAP2 SWAP1 POP JUMP JUMPDEST PUSH0 PUSH1 0x20 DUP3 ADD SWAP1 POP DUP2 DUP2 SUB PUSH0 DUP4 ADD MSTORE PUSH2 0x4C68 DUP2 PUSH2 0x4C2F JUMP JUMPDEST SWAP1 POP SWAP2 SWAP1 POP JUMP JUMPDEST PUSH0 PUSH1 0x40 DUP3 ADD SWAP1 POP PUSH2 0x4C82 PUSH0 DUP4 ADD DUP6 PUSH2 0x39D0 JUMP JUMPDEST PUSH2 0x4C8F PUSH1 0x20 DUP4 ADD DUP5 PUSH2 0x3981 JUMP JUMPDEST SWAP4 SWAP3 POP POP POP JUMP JUMPDEST PUSH32 0x5361666545524332303A204552433230206F7065726174696F6E20646964206E PUSH0 DUP3 ADD MSTORE PUSH32 0x6F74207375636365656400000000000000000000000000000000000000000000 PUSH1 0x20 DUP3 ADD MSTORE POP JUMP JUMPDEST PUSH0 PUSH2 0x4CF0 PUSH1 0x2A DUP4 PUSH2 0x37EB JUMP JUMPDEST SWAP2 POP PUSH2 0x4CFB DUP3 PUSH2 0x4C96 JUMP JUMPDEST PUSH1 0x40 DUP3 ADD SWAP1 POP SWAP2 SWAP1 POP JUMP JUMPDEST PUSH0 PUSH1 0x20 DUP3 ADD SWAP1 POP DUP2 DUP2 SUB PUSH0 DUP4 ADD MSTORE PUSH2 0x4D1D DUP2 PUSH2 0x4CE4 JUMP JUMPDEST SWAP1 POP SWAP2 SWAP1 POP JUMP JUMPDEST PUSH0 PUSH1 0xA0 DUP3 ADD SWAP1 POP PUSH2 0x4D37 PUSH0 DUP4 ADD DUP9 PUSH2 0x3A85 JUMP JUMPDEST PUSH2 0x4D44 PUSH1 0x20 DUP4 ADD DUP8 PUSH2 0x3A85 JUMP JUMPDEST PUSH2 0x4D51 PUSH1 0x40 DUP4 ADD DUP7 PUSH2 0x3A85 JUMP JUMPDEST PUSH2 0x4D5E PUSH1 0x60 DUP4 ADD DUP6 PUSH2 0x3981 JUMP JUMPDEST PUSH2 0x4D6B PUSH1 0x80 DUP4 ADD DUP5 PUSH2 0x39D0 JUMP JUMPDEST SWAP7 SWAP6 POP POP POP POP POP POP JUMP JUMPDEST PUSH0 DUP2 SWAP1 POP DUP2 PUSH0 MSTORE PUSH1 0x20 PUSH0 KECCAK256 SWAP1 POP SWAP2 SWAP1 POP JUMP JUMPDEST PUSH0 PUSH1 0x20 PUSH1 0x1F DUP4 ADD DIV SWAP1 POP SWAP2 SWAP1 POP JUMP JUMPDEST PUSH0 DUP3 DUP3 SHL SWAP1 POP SWAP3 SWAP2 POP POP JUMP JUMPDEST PUSH0 PUSH1 0x8 DUP4 MUL PUSH2 0x4DD1 PUSH32 0xFFFFFFFFFFFFFFFFFFFFFFFFFFFFFFFFFFFFFFFFFFFFFFFFFFFFFFFFFFFFFFFF DUP3 PUSH2 0x4D96 JUMP JUMPDEST PUSH2 0x4DDB DUP7 DUP4 PUSH2 0x4D96 JUMP JUMPDEST SWAP6 POP DUP1 NOT DUP5 AND SWAP4 POP DUP1 DUP7 AND DUP5 OR SWAP3 POP POP POP SWAP4 SWAP3 POP POP POP JUMP JUMPDEST PUSH0 PUSH2 0x4E0D PUSH2 0x4E08 PUSH2 0x4E03 DUP5 PUSH2 0x375E JUMP JUMPDEST PUSH2 0x3DF3 JUMP JUMPDEST PUSH2 0x375E JUMP JUMPDEST SWAP1 POP SWAP2 SWAP1 POP JUMP JUMPDEST PUSH0 DUP2 SWAP1 POP SWAP2 SWAP1 POP JUMP JUMPDEST PUSH2 0x4E26 DUP4 PUSH2 0x4DF3 JUMP JUMPDEST PUSH2 0x4E3A PUSH2 0x4E32 DUP3 PUSH2 0x4E14 JUMP JUMPDEST DUP5 DUP5 SLOAD PUSH2 0x4DA2 JUMP JUMPDEST DUP3 SSTORE POP POP POP POP JUMP JUMPDEST PUSH0 SWAP1 JUMP JUMPDEST PUSH2 0x4E4E PUSH2 0x4E42 JUMP JUMPDEST PUSH2 0x4E59 DUP2 DUP5 DUP5 PUSH2 0x4E1D JUMP JUMPDEST POP POP POP JUMP JUMPDEST JUMPDEST DUP2 DUP2 LT ISZERO PUSH2 0x4E7C JUMPI PUSH2 0x4E71 PUSH0 DUP3 PUSH2 0x4E46 JUMP JUMPDEST PUSH1 0x1 DUP2 ADD SWAP1 POP PUSH2 0x4E5F JUMP JUMPDEST POP POP JUMP JUMPDEST PUSH1 0x1F DUP3 GT ISZERO PUSH2 0x4EC1 JUMPI PUSH2 0x4E92 DUP2 PUSH2 0x4D75 JUMP JUMPDEST PUSH2 0x4E9B DUP5 PUSH2 0x4D87 JUMP JUMPDEST DUP2 ADD PUSH1 0x20 DUP6 LT ISZERO PUSH2 0x4EAA JUMPI DUP2 SWAP1 POP JUMPDEST PUSH2 0x4EBE PUSH2 0x4EB6 DUP6 PUSH2 0x4D87 JUMP JUMPDEST DUP4 ADD DUP3 PUSH2 0x4E5E JUMP JUMPDEST POP POP JUMPDEST POP POP POP JUMP JUMPDEST PUSH0 DUP3 DUP3 SHR SWAP1 POP SWAP3 SWAP2 POP POP JUMP JUMPDEST PUSH0 PUSH2 0x4EE1 PUSH0 NOT DUP5 PUSH1 0x8 MUL PUSH2 0x4EC6 JUMP JUMPDEST NOT DUP1 DUP4 AND SWAP2 POP POP SWAP3 SWAP2 POP POP JUMP JUMPDEST PUSH0 PUSH2 0x4EF9 DUP4 DUP4 PUSH2 0x4ED2 JUMP JUMPDEST SWAP2 POP DUP3 PUSH1 0x2 MUL DUP3 OR SWAP1 POP SWAP3 SWAP2 POP POP JUMP JUMPDEST PUSH2 0x4F12 DUP3 PUSH2 0x37E1 JUMP JUMPDEST PUSH8 0xFFFFFFFFFFFFFFFF DUP2 GT ISZERO PUSH2 0x4F2B JUMPI PUSH2 0x4F2A PUSH2 0x4248 JUMP JUMPDEST JUMPDEST PUSH2 0x4F35 DUP3 SLOAD PUSH2 0x4133 JUMP JUMPDEST PUSH2 0x4F40 DUP3 DUP3 DUP6 PUSH2 0x4E80 JUMP JUMPDEST PUSH0 PUSH1 0x20 SWAP1 POP PUSH1 0x1F DUP4 GT PUSH1 0x1 DUP2 EQ PUSH2 0x4F71 JUMPI PUSH0 DUP5 ISZERO PUSH2 0x4F5F JUMPI DUP3 DUP8 ADD MLOAD SWAP1 POP JUMPDEST PUSH2 0x4F69 DUP6 DUP3 PUSH2 0x4EEE JUMP JUMPDEST DUP7 SSTORE POP PUSH2 0x4FD0 JUMP JUMPDEST PUSH1 0x1F NOT DUP5 AND PUSH2 0x4F7F DUP7 PUSH2 0x4D75 JUMP JUMPDEST PUSH0 JUMPDEST DUP3 DUP2 LT ISZERO PUSH2 0x4FA6 JUMPI DUP5 DUP10 ADD MLOAD DUP3 SSTORE PUSH1 0x1 DUP3 ADD SWAP2 POP PUSH1 0x20 DUP6 ADD SWAP5 POP PUSH1 0x20 DUP2 ADD SWAP1 POP PUSH2 0x4F81 JUMP JUMPDEST DUP7 DUP4 LT ISZERO PUSH2 0x4FC3 JUMPI DUP5 DUP10 ADD MLOAD PUSH2 0x4FBF PUSH1 0x1F DUP10 AND DUP3 PUSH2 0x4ED2 JUMP JUMPDEST DUP4 SSTORE POP JUMPDEST PUSH1 0x1 PUSH1 0x2 DUP9 MUL ADD DUP9 SSTORE POP POP POP JUMPDEST POP POP POP POP POP POP JUMP JUMPDEST PUSH0 PUSH1 0x80 DUP3 ADD SWAP1 POP PUSH2 0x4FEB PUSH0 DUP4 ADD DUP8 PUSH2 0x3A85 JUMP JUMPDEST PUSH2 0x4FF8 PUSH1 0x20 DUP4 ADD DUP7 PUSH2 0x3A54 JUMP JUMPDEST PUSH2 0x5005 PUSH1 0x40 DUP4 ADD DUP6 PUSH2 0x3A85 JUMP JUMPDEST PUSH2 0x5012 PUSH1 0x60 DUP4 ADD DUP5 PUSH2 0x3A85 JUMP JUMPDEST SWAP6 SWAP5 POP POP POP POP POP JUMP JUMPDEST PUSH32 0x4E487B7100000000000000000000000000000000000000000000000000000000 PUSH0 MSTORE PUSH1 0x21 PUSH1 0x4 MSTORE PUSH1 0x24 PUSH0 REVERT JUMPDEST PUSH32 0x45434453413A20696E76616C6964207369676E61747572650000000000000000 PUSH0 DUP3 ADD MSTORE POP JUMP JUMPDEST PUSH0 PUSH2 0x507C PUSH1 0x18 DUP4 PUSH2 0x37EB JUMP JUMPDEST SWAP2 POP PUSH2 0x5087 DUP3 PUSH2 0x5048 JUMP JUMPDEST PUSH1 0x20 DUP3 ADD SWAP1 POP SWAP2 SWAP1 POP JUMP JUMPDEST PUSH0 PUSH1 0x20 DUP3 ADD SWAP1 POP DUP2 DUP2 SUB PUSH0 DUP4 ADD MSTORE PUSH2 0x50A9 DUP2 PUSH2 0x5070 JUMP JUMPDEST SWAP1 POP SWAP2 SWAP1 POP JUMP JUMPDEST PUSH32 0x45434453413A20696E76616C6964207369676E6174757265206C656E67746800 PUSH0 DUP3 ADD MSTORE POP JUMP JUMPDEST PUSH0 PUSH2 0x50E4 PUSH1 0x1F DUP4 PUSH2 0x37EB JUMP JUMPDEST SWAP2 POP PUSH2 0x50EF DUP3 PUSH2 0x50B0 JUMP JUMPDEST PUSH1 0x20 DUP3 ADD SWAP1 POP SWAP2 SWAP1 POP JUMP JUMPDEST PUSH0 PUSH1 0x20 DUP3 ADD SWAP1 POP DUP2 DUP2 SUB PUSH0 DUP4 ADD MSTORE PUSH2 0x5111 DUP2 PUSH2 0x50D8 JUMP JUMPDEST SWAP1 POP SWAP2 SWAP1 POP JUMP JUMPDEST PUSH32 0x45434453413A20696E76616C6964207369676E6174757265202773272076616C PUSH0 DUP3 ADD MSTORE PUSH32 0x7565000000000000000000000000000000000000000000000000000000000000 PUSH1 0x20 DUP3 ADD MSTORE POP JUMP JUMPDEST PUSH0 PUSH2 0x5172 PUSH1 0x22 DUP4 PUSH2 0x37EB JUMP JUMPDEST SWAP2 POP PUSH2 0x517D DUP3 PUSH2 0x5118 JUMP JUMPDEST PUSH1 0x40 DUP3 ADD SWAP1 POP SWAP2 SWAP1 POP JUMP JUMPDEST PUSH0 PUSH1 0x20 DUP3 ADD SWAP1 POP DUP2 DUP2 SUB PUSH0 DUP4 ADD MSTORE PUSH2 0x519F DUP2 PUSH2 0x5166 JUMP JUMPDEST SWAP1 POP SWAP2 SWAP1 POP JUMP JUMPDEST PUSH32 0x416464726573733A20696E73756666696369656E742062616C616E636520666F PUSH0 DUP3 ADD MSTORE PUSH32 0x722063616C6C0000000000000000000000000000000000000000000000000000 PUSH1 0x20 DUP3 ADD MSTORE POP JUMP JUMPDEST PUSH0 PUSH2 0x5200 PUSH1 0x26 DUP4 PUSH2 0x37EB JUMP JUMPDEST SWAP2 POP PUSH2 0x520B DUP3 PUSH2 0x51A6 JUMP JUMPDEST PUSH1 0x40 DUP3 ADD SWAP1 POP SWAP2 SWAP1 POP JUMP JUMPDEST PUSH0 PUSH1 0x20 DUP3 ADD SWAP1 POP DUP2 DUP2 SUB PUSH0 DUP4 ADD MSTORE PUSH2 0x522D DUP2 PUSH2 0x51F4 JUMP JUMPDEST SWAP1 POP SWAP2 SWAP1 POP JUMP JUMPDEST PUSH0 DUP2 MLOAD SWAP1 POP SWAP2 SWAP1 POP JUMP JUMPDEST PUSH0 DUP2 SWAP1 POP SWAP3 SWAP2 POP POP JUMP JUMPDEST PUSH0 PUSH2 0x5252 DUP3 PUSH2 0x5234 JUMP JUMPDEST PUSH2 0x525C DUP2 DUP6 PUSH2 0x523E JUMP JUMPDEST SWAP4 POP PUSH2 0x526C DUP2 DUP6 PUSH1 0x20 DUP7 ADD PUSH2 0x37FB JUMP JUMPDEST DUP1 DUP5 ADD SWAP2 POP POP SWAP3 SWAP2 POP POP JUMP JUMPDEST PUSH0 PUSH2 0x5283 DUP3 DUP5 PUSH2 0x5248 JUMP JUMPDEST SWAP2 POP DUP2 SWAP1 POP SWAP3 SWAP2 POP POP JUMP JUMPDEST PUSH32 0x416464726573733A2063616C6C20746F206E6F6E2D636F6E7472616374000000 PUSH0 DUP3 ADD MSTORE POP JUMP JUMPDEST PUSH0 PUSH2 0x52C2 PUSH1 0x1D DUP4 PUSH2 0x37EB JUMP JUMPDEST SWAP2 POP PUSH2 0x52CD DUP3 PUSH2 0x528E JUMP JUMPDEST PUSH1 0x20 DUP3 ADD SWAP1 POP SWAP2 SWAP1 POP JUMP JUMPDEST PUSH0 PUSH1 0x20 DUP3 ADD SWAP1 POP DUP2 DUP2 SUB PUSH0 DUP4 ADD MSTORE PUSH2 0x52EF DUP2 PUSH2 0x52B6 JUMP JUMPDEST SWAP1 POP SWAP2 SWAP1 POP JUMP INVALID LOG2 PUSH5 0x6970667358 0x22 SLT KECCAK256 DUP8 0xDB LOG1 0xAD RETURNDATACOPY PC OR XOR MLOAD JUMPI COINBASE 0xF 0xC4 SWAP15 PUSH6 0xB353FD86948A 0x2D 0xB7 CALLCODE ADD PUSH1 0x7E 0xD PUSH20 0x618ED964736F6C63430008170033000000000000 "
		},
		"gasEstimates": {
			"creation": {
				"codeDepositCost": "4258400",
				"executionCost": "infinite",
				"totalCost": "infinite"
			},
			"external": {
				"DOMAIN_SEPARATOR()": "infinite",
				"allowance(address,address)": "infinite",
				"approve(address,uint256)": "infinite",
				"balanceOf(address)": "2896",
				"balances()": "infinite",
				"decimals()": "384",
				"decreaseAllowance(address,uint256)": "infinite",
				"deposit(uint256,uint256,uint256)": "infinite",
				"eip712Domain()": "infinite",
				"inCaseTokensGetStuck(address)": "infinite",
				"increaseAllowance(address,uint256)": "infinite",
				"initialize(address,string,string)": "infinite",
				"isCalm()": "infinite",
				"name()": "infinite",
				"nonces(address)": "2966",
				"owner()": "2560",
				"permit(address,address,uint256,uint256,uint8,bytes32,bytes32)": "infinite",
				"previewDeposit(uint256,uint256)": "infinite",
				"previewWithdraw(uint256)": "infinite",
				"renounceOwnership()": "30479",
				"strategy()": "infinite",
				"swapFee()": "infinite",
				"symbol()": "infinite",
				"totalSupply()": "2500",
				"transfer(address,uint256)": "infinite",
				"transferFrom(address,address,uint256)": "infinite",
				"transferOwnership(address)": "30841",
				"want()": "infinite",
				"wants()": "infinite",
				"withdraw(uint256,uint256,uint256)": "infinite",
				"withdrawAll(uint256,uint256)": "infinite"
			},
			"internal": {
				"_getTokensRequired(uint256,uint256,uint256,uint256,uint256,uint256)": "infinite"
			}
		},
		"methodIdentifiers": {
			"DOMAIN_SEPARATOR()": "3644e515",
			"allowance(address,address)": "dd62ed3e",
			"approve(address,uint256)": "095ea7b3",
			"balanceOf(address)": "70a08231",
			"balances()": "7bb98a68",
			"decimals()": "313ce567",
			"decreaseAllowance(address,uint256)": "a457c2d7",
			"deposit(uint256,uint256,uint256)": "00aeef8a",
			"eip712Domain()": "84b0196e",
			"inCaseTokensGetStuck(address)": "def68a9c",
			"increaseAllowance(address,uint256)": "39509351",
			"initialize(address,string,string)": "90657147",
			"isCalm()": "9bdde46b",
			"name()": "06fdde03",
			"nonces(address)": "7ecebe00",
			"owner()": "8da5cb5b",
			"permit(address,address,uint256,uint256,uint8,bytes32,bytes32)": "d505accf",
			"previewDeposit(uint256,uint256)": "7a7af70d",
			"previewWithdraw(uint256)": "0a28a477",
			"renounceOwnership()": "715018a6",
			"strategy()": "a8c62e76",
			"swapFee()": "54cf2aeb",
			"symbol()": "95d89b41",
			"totalSupply()": "18160ddd",
			"transfer(address,uint256)": "a9059cbb",
			"transferFrom(address,address,uint256)": "23b872dd",
			"transferOwnership(address)": "f2fde38b",
			"want()": "1f1fcd51",
			"wants()": "65844934",
			"withdraw(uint256,uint256,uint256)": "a41fe49f",
			"withdrawAll(uint256,uint256)": "7aff49d7"
		}
	},
	"abi": [
		{
			"inputs": [],
			"stateMutability": "nonpayable",
			"type": "constructor"
		},
		{
			"inputs": [],
			"name": "NoShares",
			"type": "error"
		},
		{
			"inputs": [],
			"name": "NotEnoughTokens",
			"type": "error"
		},
		{
			"inputs": [],
			"name": "TooMuchSlippage",
			"type": "error"
		},
		{
			"anonymous": false,
			"inputs": [
				{
					"indexed": true,
					"internalType": "address",
					"name": "owner",
					"type": "address"
				},
				{
					"indexed": true,
					"internalType": "address",
					"name": "spender",
					"type": "address"
				},
				{
					"indexed": false,
					"internalType": "uint256",
					"name": "value",
					"type": "uint256"
				}
			],
			"name": "Approval",
			"type": "event"
		},
		{
			"anonymous": false,
			"inputs": [
				{
					"indexed": true,
					"internalType": "address",
					"name": "user",
					"type": "address"
				},
				{
					"indexed": false,
					"internalType": "uint256",
					"name": "shares",
					"type": "uint256"
				},
				{
					"indexed": false,
					"internalType": "uint256",
					"name": "amount0",
					"type": "uint256"
				},
				{
					"indexed": false,
					"internalType": "uint256",
					"name": "amount1",
					"type": "uint256"
				},
				{
					"indexed": false,
					"internalType": "uint256",
					"name": "fee0",
					"type": "uint256"
				},
				{
					"indexed": false,
					"internalType": "uint256",
					"name": "fee1",
					"type": "uint256"
				}
			],
			"name": "Deposit",
			"type": "event"
		},
		{
			"anonymous": false,
			"inputs": [],
			"name": "EIP712DomainChanged",
			"type": "event"
		},
		{
			"anonymous": false,
			"inputs": [
				{
					"indexed": false,
					"internalType": "uint8",
					"name": "version",
					"type": "uint8"
				}
			],
			"name": "Initialized",
			"type": "event"
		},
		{
			"anonymous": false,
			"inputs": [
				{
					"indexed": true,
					"internalType": "address",
					"name": "previousOwner",
					"type": "address"
				},
				{
					"indexed": true,
					"internalType": "address",
					"name": "newOwner",
					"type": "address"
				}
			],
			"name": "OwnershipTransferred",
			"type": "event"
		},
		{
			"anonymous": false,
			"inputs": [
				{
					"indexed": true,
					"internalType": "address",
					"name": "from",
					"type": "address"
				},
				{
					"indexed": true,
					"internalType": "address",
					"name": "to",
					"type": "address"
				},
				{
					"indexed": false,
					"internalType": "uint256",
					"name": "value",
					"type": "uint256"
				}
			],
			"name": "Transfer",
			"type": "event"
		},
		{
			"anonymous": false,
			"inputs": [
				{
					"indexed": true,
					"internalType": "address",
					"name": "user",
					"type": "address"
				},
				{
					"indexed": false,
					"internalType": "uint256",
					"name": "shares",
					"type": "uint256"
				},
				{
					"indexed": false,
					"internalType": "uint256",
					"name": "amount0",
					"type": "uint256"
				},
				{
					"indexed": false,
					"internalType": "uint256",
					"name": "amount1",
					"type": "uint256"
				}
			],
			"name": "Withdraw",
			"type": "event"
		},
		{
			"inputs": [],
			"name": "DOMAIN_SEPARATOR",
			"outputs": [
				{
					"internalType": "bytes32",
					"name": "",
					"type": "bytes32"
				}
			],
			"stateMutability": "view",
			"type": "function"
		},
		{
			"inputs": [
				{
					"internalType": "address",
					"name": "owner",
					"type": "address"
				},
				{
					"internalType": "address",
					"name": "spender",
					"type": "address"
				}
			],
			"name": "allowance",
			"outputs": [
				{
					"internalType": "uint256",
					"name": "",
					"type": "uint256"
				}
			],
			"stateMutability": "view",
			"type": "function"
		},
		{
			"inputs": [
				{
					"internalType": "address",
					"name": "spender",
					"type": "address"
				},
				{
					"internalType": "uint256",
					"name": "amount",
					"type": "uint256"
				}
			],
			"name": "approve",
			"outputs": [
				{
					"internalType": "bool",
					"name": "",
					"type": "bool"
				}
			],
			"stateMutability": "nonpayable",
			"type": "function"
		},
		{
			"inputs": [
				{
					"internalType": "address",
					"name": "account",
					"type": "address"
				}
			],
			"name": "balanceOf",
			"outputs": [
				{
					"internalType": "uint256",
					"name": "",
					"type": "uint256"
				}
			],
			"stateMutability": "view",
			"type": "function"
		},
		{
			"inputs": [],
			"name": "balances",
			"outputs": [
				{
					"internalType": "uint256",
					"name": "amount0",
					"type": "uint256"
				},
				{
					"internalType": "uint256",
					"name": "amount1",
					"type": "uint256"
				}
			],
			"stateMutability": "view",
			"type": "function"
		},
		{
			"inputs": [],
			"name": "decimals",
			"outputs": [
				{
					"internalType": "uint8",
					"name": "",
					"type": "uint8"
				}
			],
			"stateMutability": "view",
			"type": "function"
		},
		{
			"inputs": [
				{
					"internalType": "address",
					"name": "spender",
					"type": "address"
				},
				{
					"internalType": "uint256",
					"name": "subtractedValue",
					"type": "uint256"
				}
			],
			"name": "decreaseAllowance",
			"outputs": [
				{
					"internalType": "bool",
					"name": "",
					"type": "bool"
				}
			],
			"stateMutability": "nonpayable",
			"type": "function"
		},
		{
			"inputs": [
				{
					"internalType": "uint256",
					"name": "_amount0",
					"type": "uint256"
				},
				{
					"internalType": "uint256",
					"name": "_amount1",
					"type": "uint256"
				},
				{
					"internalType": "uint256",
					"name": "_minShares",
					"type": "uint256"
				}
			],
			"name": "deposit",
			"outputs": [],
			"stateMutability": "nonpayable",
			"type": "function"
		},
		{
			"inputs": [],
			"name": "eip712Domain",
			"outputs": [
				{
					"internalType": "bytes1",
					"name": "fields",
					"type": "bytes1"
				},
				{
					"internalType": "string",
					"name": "name",
					"type": "string"
				},
				{
					"internalType": "string",
					"name": "version",
					"type": "string"
				},
				{
					"internalType": "uint256",
					"name": "chainId",
					"type": "uint256"
				},
				{
					"internalType": "address",
					"name": "verifyingContract",
					"type": "address"
				},
				{
					"internalType": "bytes32",
					"name": "salt",
					"type": "bytes32"
				},
				{
					"internalType": "uint256[]",
					"name": "extensions",
					"type": "uint256[]"
				}
			],
			"stateMutability": "view",
			"type": "function"
		},
		{
			"inputs": [
				{
					"internalType": "address",
					"name": "_token",
					"type": "address"
				}
			],
			"name": "inCaseTokensGetStuck",
			"outputs": [],
			"stateMutability": "nonpayable",
			"type": "function"
		},
		{
			"inputs": [
				{
					"internalType": "address",
					"name": "spender",
					"type": "address"
				},
				{
					"internalType": "uint256",
					"name": "addedValue",
					"type": "uint256"
				}
			],
			"name": "increaseAllowance",
			"outputs": [
				{
					"internalType": "bool",
					"name": "",
					"type": "bool"
				}
			],
			"stateMutability": "nonpayable",
			"type": "function"
		},
		{
			"inputs": [
				{
					"internalType": "address",
					"name": "_strategy",
					"type": "address"
				},
				{
					"internalType": "string",
					"name": "_name",
					"type": "string"
				},
				{
					"internalType": "string",
					"name": "_symbol",
					"type": "string"
				}
			],
			"name": "initialize",
			"outputs": [],
			"stateMutability": "nonpayable",
			"type": "function"
		},
		{
			"inputs": [],
			"name": "isCalm",
			"outputs": [
				{
					"internalType": "bool",
					"name": "",
					"type": "bool"
				}
			],
			"stateMutability": "view",
			"type": "function"
		},
		{
			"inputs": [],
			"name": "name",
			"outputs": [
				{
					"internalType": "string",
					"name": "",
					"type": "string"
				}
			],
			"stateMutability": "view",
			"type": "function"
		},
		{
			"inputs": [
				{
					"internalType": "address",
					"name": "owner",
					"type": "address"
				}
			],
			"name": "nonces",
			"outputs": [
				{
					"internalType": "uint256",
					"name": "",
					"type": "uint256"
				}
			],
			"stateMutability": "view",
			"type": "function"
		},
		{
			"inputs": [],
			"name": "owner",
			"outputs": [
				{
					"internalType": "address",
					"name": "",
					"type": "address"
				}
			],
			"stateMutability": "view",
			"type": "function"
		},
		{
			"inputs": [
				{
					"internalType": "address",
					"name": "owner",
					"type": "address"
				},
				{
					"internalType": "address",
					"name": "spender",
					"type": "address"
				},
				{
					"internalType": "uint256",
					"name": "value",
					"type": "uint256"
				},
				{
					"internalType": "uint256",
					"name": "deadline",
					"type": "uint256"
				},
				{
					"internalType": "uint8",
					"name": "v",
					"type": "uint8"
				},
				{
					"internalType": "bytes32",
					"name": "r",
					"type": "bytes32"
				},
				{
					"internalType": "bytes32",
					"name": "s",
					"type": "bytes32"
				}
			],
			"name": "permit",
			"outputs": [],
			"stateMutability": "nonpayable",
			"type": "function"
		},
		{
			"inputs": [
				{
					"internalType": "uint256",
					"name": "_amount0",
					"type": "uint256"
				},
				{
					"internalType": "uint256",
					"name": "_amount1",
					"type": "uint256"
				}
			],
			"name": "previewDeposit",
			"outputs": [
				{
					"internalType": "uint256",
					"name": "shares",
					"type": "uint256"
				},
				{
					"internalType": "uint256",
					"name": "amount0",
					"type": "uint256"
				},
				{
					"internalType": "uint256",
					"name": "amount1",
					"type": "uint256"
				},
				{
					"internalType": "uint256",
					"name": "fee0",
					"type": "uint256"
				},
				{
					"internalType": "uint256",
					"name": "fee1",
					"type": "uint256"
				}
			],
			"stateMutability": "view",
			"type": "function"
		},
		{
			"inputs": [
				{
					"internalType": "uint256",
					"name": "_shares",
					"type": "uint256"
				}
			],
			"name": "previewWithdraw",
			"outputs": [
				{
					"internalType": "uint256",
					"name": "amount0",
					"type": "uint256"
				},
				{
					"internalType": "uint256",
					"name": "amount1",
					"type": "uint256"
				}
			],
			"stateMutability": "view",
			"type": "function"
		},
		{
			"inputs": [],
			"name": "renounceOwnership",
			"outputs": [],
			"stateMutability": "nonpayable",
			"type": "function"
		},
		{
			"inputs": [],
			"name": "strategy",
			"outputs": [
				{
					"internalType": "contract IStrategyConcLiq",
					"name": "",
					"type": "address"
				}
			],
			"stateMutability": "view",
			"type": "function"
		},
		{
			"inputs": [],
			"name": "swapFee",
			"outputs": [
				{
					"internalType": "uint256",
					"name": "",
					"type": "uint256"
				}
			],
			"stateMutability": "view",
			"type": "function"
		},
		{
			"inputs": [],
			"name": "symbol",
			"outputs": [
				{
					"internalType": "string",
					"name": "",
					"type": "string"
				}
			],
			"stateMutability": "view",
			"type": "function"
		},
		{
			"inputs": [],
			"name": "totalSupply",
			"outputs": [
				{
					"internalType": "uint256",
					"name": "",
					"type": "uint256"
				}
			],
			"stateMutability": "view",
			"type": "function"
		},
		{
			"inputs": [
				{
					"internalType": "address",
					"name": "to",
					"type": "address"
				},
				{
					"internalType": "uint256",
					"name": "amount",
					"type": "uint256"
				}
			],
			"name": "transfer",
			"outputs": [
				{
					"internalType": "bool",
					"name": "",
					"type": "bool"
				}
			],
			"stateMutability": "nonpayable",
			"type": "function"
		},
		{
			"inputs": [
				{
					"internalType": "address",
					"name": "from",
					"type": "address"
				},
				{
					"internalType": "address",
					"name": "to",
					"type": "address"
				},
				{
					"internalType": "uint256",
					"name": "amount",
					"type": "uint256"
				}
			],
			"name": "transferFrom",
			"outputs": [
				{
					"internalType": "bool",
					"name": "",
					"type": "bool"
				}
			],
			"stateMutability": "nonpayable",
			"type": "function"
		},
		{
			"inputs": [
				{
					"internalType": "address",
					"name": "newOwner",
					"type": "address"
				}
			],
			"name": "transferOwnership",
			"outputs": [],
			"stateMutability": "nonpayable",
			"type": "function"
		},
		{
			"inputs": [],
			"name": "want",
			"outputs": [
				{
					"internalType": "address",
					"name": "_want",
					"type": "address"
				}
			],
			"stateMutability": "view",
			"type": "function"
		},
		{
			"inputs": [],
			"name": "wants",
			"outputs": [
				{
					"internalType": "address",
					"name": "token0",
					"type": "address"
				},
				{
					"internalType": "address",
					"name": "token1",
					"type": "address"
				}
			],
			"stateMutability": "view",
			"type": "function"
		},
		{
			"inputs": [
				{
					"internalType": "uint256",
					"name": "_shares",
					"type": "uint256"
				},
				{
					"internalType": "uint256",
					"name": "_minAmount0",
					"type": "uint256"
				},
				{
					"internalType": "uint256",
					"name": "_minAmount1",
					"type": "uint256"
				}
			],
			"name": "withdraw",
			"outputs": [],
			"stateMutability": "nonpayable",
			"type": "function"
		},
		{
			"inputs": [
				{
					"internalType": "uint256",
					"name": "_minAmount0",
					"type": "uint256"
				},
				{
					"internalType": "uint256",
					"name": "_minAmount1",
					"type": "uint256"
				}
			],
			"name": "withdrawAll",
			"outputs": [],
			"stateMutability": "nonpayable",
			"type": "function"
		}
	]
}