{
	"data": {
		"bytecode": {
			"linkReferences": {},
			"object": "608060405234801562000010575f80fd5b50620000216200002760201b60201c565b620001c6565b5f60019054906101000a900460ff161562000079576040517f08c379a000000000000000000000000000000000000000000000000000000000815260040162000070906200016e565b60405180910390fd5b60ff80165f8054906101000a900460ff1660ff1614620000e85760ff5f806101000a81548160ff021916908360ff1602179055507f7f26b83ff96e1f2b6a682f133852f6798a09c465da95921460cefb384740249860ff604051620000df9190620001ab565b60405180910390a15b565b5f82825260208201905092915050565b7f496e697469616c697a61626c653a20636f6e747261637420697320696e6974695f8201527f616c697a696e6700000000000000000000000000000000000000000000000000602082015250565b5f62000156602783620000ea565b91506200016382620000fa565b604082019050919050565b5f6020820190508181035f830152620001878162000148565b9050919050565b5f60ff82169050919050565b620001a5816200018e565b82525050565b5f602082019050620001c05f8301846200019a565b92915050565b6199be80620001d45f395ff3fe608060405234801561000f575f80fd5b5060043610610404575f3560e01c80637bb98a681161021e578063b83d26831161012e578063d92f3d73116100b6578063e97206a911610085578063e97206a914610aeb578063f1a392da14610b0a578063f2fde38b14610b28578063fbfa77cf14610b44578063fcc25e1314610b6257610404565b8063d92f3d7314610a72578063d9ceab1314610a8e578063e8edd3e814610aaf578063e941fa7814610acd57610404565b8063c6ebd4ae116100fd578063c6ebd4ae14610a08578063c7b9d53014610a26578063c7d5413214610a42578063d0e30db014610a4c578063d348799714610a5657610404565b8063b83d26831461098f578063bc415d8a146109ad578063c45a0155146109cc578063c6bbd5a7146109ea57610404565b806393f1c442116101b15780639c6d4904116101805780639c6d49041461090d578063a035b1fe1461092b578063aced166114610949578063b20feaaf14610967578063b3a60cb31461098557610404565b806393f1c44214610894578063953d329f146108b257806399cd2446146108d05780639bdde46b146108ef57610404565b80638683ed5b116101ed5780638683ed5b1461081c578063877562b61461083a5780638cfc0250146108585780638da5cb5b1461087657610404565b80637bb98a68146107a55780637f10e4b9146107c45780638097e249146107e0578063865238d4146107fe57610404565b80632b950b66116103195780634641257d116102ac5780635ee167c01161027b5780635ee167c014610725578063609913461461074357806367a527931461075f578063696c58e51461077d578063715018a61461079b57610404565b80634641257d146106c15780634c02a21c146106cb57806354cf2aeb146106e95780635c975abb1461070757610404565b80633e55f932116102e85780633e55f932146106605780633f4ba83a1461067c578063441a3e701461068657806344b81396146106a257610404565b80632b950b66146105ea5780632e773d3214610608578063362c28c6146106265780633c1d5df01461064257610404565b806316b9cd9c1161039c5780631dcfeddd1161036b5780631dcfeddd146105555780631fe4a686146105735780632150c51814610591578063236db042146105b0578063257ae0de146105cc57610404565b806316b9cd9c146104f357806316f0115b1461051157806317dd7a721461052f5780631d27050f1461053957610404565b80630e5c011e116103d85780630e5c011e1461047f57806311b0b42d1461049b5780631208aa18146104b957806312cf1381146104d757610404565b8062a4b5c91461040857806304c404b314610427578063065e53601461044557806308898ea014610463575b5f80fd5b610410610b85565b60405161041e929190616ff0565b60405180910390f35b61042f610cc1565b60405161043c9190617017565b60405180910390f35b61044d610cc7565b60405161045a919061704b565b60405180910390f35b61047d600480360381019061047891906170d6565b610d73565b005b6104996004803603810190610494919061717b565b610f73565b005b6104a3610f7f565b6040516104b091906171b5565b60405180910390f35b6104c1610fa4565b6040516104ce91906171e9565b60405180910390f35b6104f160048036038101906104ec919061722c565b611169565b005b6104fb611200565b6040516105089190617017565b60405180910390f35b6105196113e4565b60405161052691906171b5565b60405180910390f35b610537611409565b005b610553600480360381019061054e9190617290565b611427565b005b61055d6114df565b60405161056a9190617345565b60405180910390f35b61057b61156b565b60405161058891906171b5565b60405180910390f35b610599611590565b6040516105a792919061737d565b60405180910390f35b6105ca60048036038101906105c591906170d6565b611632565b005b6105d4611832565b6040516105e191906171b5565b60405180910390f35b6105f2611857565b6040516105ff9190617017565b60405180910390f35b61061061185d565b60405161061d919061745b565b60405180910390f35b610640600480360381019061063b91906174a5565b61195b565b005b61064a611a19565b60405161065791906174df565b60405180910390f35b61067a60048036038101906106759190617522565b611a2f565b005b610684611b83565b005b6106a0600480360381019061069b919061754d565b611cbe565b005b6106aa611e14565b6040516106b8929190616ff0565b60405180910390f35b6106c9611f22565b005b6106d3611f2d565b6040516106e09190617017565b60405180910390f35b6106f1611f33565b6040516106fe9190617017565b60405180910390f35b61070f611fed565b60405161071c91906175a5565b60405180910390f35b61072d612002565b60405161073a91906171b5565b60405180910390f35b61075d6004803603810190610758919061754d565b612027565b005b610767612150565b6040516107749190617017565b60405180910390f35b610785612154565b60405161079291906171e9565b60405180910390f35b6107a3612167565b005b6107ad61217a565b6040516107bb929190616ff0565b60405180910390f35b6107de60048036038101906107d991906175e0565b61222c565b005b6107e86125a4565b6040516107f5919061704b565b60405180910390f35b6108066125b6565b6040516108139190617017565b60405180910390f35b6108246125bc565b60405161083191906171b5565b60405180910390f35b610842612650565b60405161084f91906171b5565b60405180910390f35b610860612675565b60405161086d9190617017565b60405180910390f35b61087e6126fa565b60405161088b91906171b5565b60405180910390f35b61089c612722565b6040516108a99190617017565b60405180910390f35b6108ba612728565b6040516108c79190617345565b60405180910390f35b6108d86127b4565b6040516108e69291906176ab565b60405180910390f35b6108f76127dd565b60405161090491906175a5565b60405180910390f35b6109156128a7565b6040516109229190617017565b60405180910390f35b610933612a8b565b6040516109409190617017565b60405180910390f35b610951612adf565b60405161095e91906171b5565b60405180910390f35b61096f612b73565b60405161097c9190617815565b60405180910390f35b61098d612bb0565b005b610997612e8b565b6040516109a49190617844565b60405180910390f35b6109b5612f36565b6040516109c39291906176ab565b60405180910390f35b6109d4612f5f565b6040516109e191906178b8565b60405180910390f35b6109f2612f84565b6040516109ff91906171b5565b60405180910390f35b610a10612fa9565b604051610a1d919061745b565b60405180910390f35b610a406004803603810190610a3b919061717b565b6130a7565b005b610a4a6131a7565b005b610a546132ed565b005b610a706004803603810190610a6b91906179f9565b613388565b005b610a8c6004803603810190610a87919061717b565b61355f565b005b610a966135f1565b604051610aa69493929190617a65565b60405180910390f35b610ab7613613565b604051610ac49190617ac8565b60405180910390f35b610ad56136a7565b604051610ae29190617017565b60405180910390f35b610af36136ab565b604051610b01929190616ff0565b60405180910390f35b610b1261376a565b604051610b1f9190617017565b60405180910390f35b610b426004803603810190610b3d919061717b565b613770565b005b610b4c6137f2565b604051610b5991906171b5565b60405180910390f35b610b6a613817565b604051610b7c96959493929190617ae1565b60405180910390f35b5f8060d35f9054906101000a900473ffffffffffffffffffffffffffffffffffffffff1673ffffffffffffffffffffffffffffffffffffffff166370a08231306040518263ffffffff1660e01b8152600401610be191906171b5565b602060405180830381865afa158015610bfc573d5f803e3d5ffd5b505050506040513d601f19601f82011682018060405250810190610c209190617b54565b60d45f9054906101000a900473ffffffffffffffffffffffffffffffffffffffff1673ffffffffffffffffffffffffffffffffffffffff166370a08231306040518263ffffffff1660e01b8152600401610c7a91906171b5565b602060405180830381865afa158015610c95573d5f803e3d5ffd5b505050506040513d601f19601f82011682018060405250810190610cb99190617b54565b915091509091565b609d5481565b5f60d15f9054906101000a900473ffffffffffffffffffffffffffffffffffffffff1673ffffffffffffffffffffffffffffffffffffffff16633850c7bd6040518163ffffffff1660e01b815260040160e060405180830381865afa158015610d32573d5f803e3d5ffd5b505050506040513d601f19601f82011682018060405250810190610d569190617c32565b909192939495509091929350909192509091509050508091505090565b610d7b613ab5565b5f828290501115610f6f575f610dd383838080601f0160208091040260200160405190810160405280939291908181526020018383808284375f81840152601f19601f82011690508083019250505050505050613b33565b905060d45f9054906101000a900473ffffffffffffffffffffffffffffffffffffffff1673ffffffffffffffffffffffffffffffffffffffff16815f81518110610e2057610e1f617ccf565b5b602002602001015173ffffffffffffffffffffffffffffffffffffffff1614610e75576040517fb4fa3fb300000000000000000000000000000000000000000000000000000000815260040160405180910390fd5b60975f9054906101000a900473ffffffffffffffffffffffffffffffffffffffff1673ffffffffffffffffffffffffffffffffffffffff168160018351610ebc9190617d29565b81518110610ecd57610ecc617ccf565b5b602002602001015173ffffffffffffffffffffffffffffffffffffffff1614610f22576040517f98f7360900000000000000000000000000000000000000000000000000000000815260040160405180910390fd5b828260d89182610f33929190617f57565b507f1b9728f4ac995937074d8e70e21a1660544fb7c16be984e1c289f262f2be9c748383604051610f65929190618050565b60405180910390a1505b5050565b610f7c81613c80565b50565b60975f9054906101000a900473ffffffffffffffffffffffffffffffffffffffff1681565b5f80600267ffffffffffffffff811115610fc157610fc06178d5565b5b604051908082528060200260200182016040528015610fef5781602001602082028036833780820191505090505b50905060db600a9054906101000a900463ffffffff16815f8151811061101857611017617ccf565b5b602002602001019063ffffffff16908163ffffffff16815250505f8160018151811061104757611046617ccf565b5b602002602001019063ffffffff16908163ffffffff16815250505f60d15f9054906101000a900473ffffffffffffffffffffffffffffffffffffffff1673ffffffffffffffffffffffffffffffffffffffff1663883bdbfd836040518263ffffffff1660e01b81526004016110bc9190618129565b5f60405180830381865afa1580156110d6573d5f803e3d5ffd5b505050506040513d5f823e3d601f19601f820116820180604052508101906110fe91906182dd565b50905060db600a9054906101000a900463ffffffff1660030b815f8151811061112a57611129617ccf565b5b60200260200101518260018151811061114657611145617ccf565b5b60200260200101516111589190618353565b61116291906183de565b9250505090565b611171613ab5565b7f69d927977053f4ff4a26e8d792564e367e844a869cda4df12630bf7b62a632de60db5f9054906101000a900460020b826040516111b09291906176ab565b60405180910390a16111c0613d38565b505050506111cc6142cd565b8060db5f6101000a81548162ffffff021916908360020b62ffffff1602179055506111f561477f565b6111fd6147dc565b50565b5f80600a60d45f9054906101000a900473ffffffffffffffffffffffffffffffffffffffff1673ffffffffffffffffffffffffffffffffffffffff1663313ce5676040518163ffffffff1660e01b8152600401602060405180830381865afa15801561126e573d5f803e3d5ffd5b505050506040513d601f19601f82011682018060405250810190611292919061847c565b600a61129e91906185d6565b6112a89190618620565b905060975f9054906101000a900473ffffffffffffffffffffffffffffffffffffffff1673ffffffffffffffffffffffffffffffffffffffff1660d45f9054906101000a900473ffffffffffffffffffffffffffffffffffffffff1673ffffffffffffffffffffffffffffffffffffffff160361133457600a8161132c9190618650565b9150506113e1565b600a60d25f9054906101000a900473ffffffffffffffffffffffffffffffffffffffff1673ffffffffffffffffffffffffffffffffffffffff1663cdca175360d8846040518363ffffffff1660e01b8152600401611393929190618712565b6020604051808303815f875af11580156113af573d5f803e3d5ffd5b505050506040513d601f19601f820116820180604052508101906113d39190617b54565b6113dd9190618650565b9150505b90565b60d15f9054906101000a900473ffffffffffffffffffffffffffffffffffffffff1681565b611411614abd565b611419613d38565b505050506114256142cd565b565b61142f613ab5565b7f86139943149914833c057d2c24f3a3967cce8e6aba2eb12e422500d8a51ffc7b60db600a9054906101000a900463ffffffff1682604051611472929190618740565b60405180910390a1603c8163ffffffff1610156114bb576040517fb4fa3fb300000000000000000000000000000000000000000000000000000000815260040160405180910390fd5b8060db600a6101000a81548163ffffffff021916908363ffffffff16021790555050565b60d780546114ec90617d93565b80601f016020809104026020016040519081016040528092919081815260200182805461151890617d93565b80156115635780601f1061153a57610100808354040283529160200191611563565b820191905f5260205f20905b81548152906001019060200180831161154657829003601f168201915b505050505081565b609a5f9054906101000a900473ffffffffffffffffffffffffffffffffffffffff1681565b5f803060d95f015f9054906101000a900460020b60d95f0160039054906101000a900460020b6040516020016115c8939291906187e0565b6040516020818303038152906040528051906020012091503060da5f015f9054906101000a900460020b60da5f0160039054906101000a900460020b604051602001611616939291906187e0565b6040516020818303038152906040528051906020012090509091565b61163a613ab5565b5f82829050111561182e575f61169283838080601f0160208091040260200160405190810160405280939291908181526020018383808284375f81840152601f19601f82011690508083019250505050505050613b33565b905060d35f9054906101000a900473ffffffffffffffffffffffffffffffffffffffff1673ffffffffffffffffffffffffffffffffffffffff16815f815181106116df576116de617ccf565b5b602002602001015173ffffffffffffffffffffffffffffffffffffffff1614611734576040517fb4fa3fb300000000000000000000000000000000000000000000000000000000815260040160405180910390fd5b60975f9054906101000a900473ffffffffffffffffffffffffffffffffffffffff1673ffffffffffffffffffffffffffffffffffffffff16816001835161177b9190617d29565b8151811061178c5761178b617ccf565b5b602002602001015173ffffffffffffffffffffffffffffffffffffffff16146117e1576040517f98f7360900000000000000000000000000000000000000000000000000000000815260040160405180910390fd5b828260d791826117f2929190617f57565b507f203244158601764729526c0736d6b833b1f3da905ae0a631a059bbb9040541f08383604051611824929190618050565b60405180910390a1505b5050565b60995f9054906101000a900473ffffffffffffffffffffffffffffffffffffffff1681565b609c5481565b60605f60d7805461186d90617d93565b9050036118c4575f67ffffffffffffffff81111561188e5761188d6178d5565b5b6040519080825280602002602001820160405280156118bc5781602001602082028036833780820191505090505b509050611958565b61195560d780546118d490617d93565b80601f016020809104026020016040519081016040528092919081815260200182805461190090617d93565b801561194b5780601f106119225761010080835404028352916020019161194b565b820191905f5260205f20905b81548152906001019060200180831161192e57829003601f168201915b5050505050613b33565b90505b90565b611963613ab5565b7f69d3f73bfb3c2f0de63dc1de2ed486cf45d88ebfff8cb1e8f124b085d2bafb978160405161199291906171e9565b60405180910390a160046119a4614b45565b6119ae919061881c565b60020b8160060b126119ec576040517fb4fa3fb300000000000000000000000000000000000000000000000000000000815260040160405180910390fd5b8060db60036101000a81548166ffffffffffffff021916908360060b66ffffffffffffff16021790555050565b60db600a9054906101000a900463ffffffff1681565b611a376126fa565b73ffffffffffffffffffffffffffffffffffffffff163373ffffffffffffffffffffffffffffffffffffffff1614158015611aa55750611a75612adf565b73ffffffffffffffffffffffffffffffffffffffff163373ffffffffffffffffffffffffffffffffffffffff1614155b15611adc576040517fc0fc8a8a00000000000000000000000000000000000000000000000000000000815260040160405180910390fd5b611ae4613613565b73ffffffffffffffffffffffffffffffffffffffff16633e55f932826040518263ffffffff1660e01b8152600401611b1c9190617017565b5f604051808303815f87803b158015611b33575f80fd5b505af1158015611b45573d5f803e3d5ffd5b505050507f9163810ee1e29168d4ce900e48a333fb8fbd3fd070d2bef67f6d4db0846a469f81604051611b789190617017565b60405180910390a150565b611b8b6126fa565b73ffffffffffffffffffffffffffffffffffffffff163373ffffffffffffffffffffffffffffffffffffffff1614158015611bf95750611bc9612adf565b73ffffffffffffffffffffffffffffffffffffffff163373ffffffffffffffffffffffffffffffffffffffff1614155b15611c30576040517fc0fc8a8a00000000000000000000000000000000000000000000000000000000815260040160405180910390fd5b5f73ffffffffffffffffffffffffffffffffffffffff16611c4f6126fa565b73ffffffffffffffffffffffffffffffffffffffff1603611c9c576040517fea8e4eb500000000000000000000000000000000000000000000000000000000815260040160405180910390fd5b611ca4614bd9565b611cac614cf5565b611cb461477f565b611cbc6147dc565b565b611cc6614abd565b5f821115611d3c57611d3b60985f9054906101000a900473ffffffffffffffffffffffffffffffffffffffff168360d35f9054906101000a900473ffffffffffffffffffffffffffffffffffffffff1673ffffffffffffffffffffffffffffffffffffffff16614d569092919063ffffffff16565b5b5f811115611db257611db160985f9054906101000a900473ffffffffffffffffffffffffffffffffffffffff168260d45f9054906101000a900473ffffffffffffffffffffffffffffffffffffffff1673ffffffffffffffffffffffffffffffffffffffff16614d569092919063ffffffff16565b5b611dba614ddc565b611dc757611dc66147dc565b5b5f80611dd161217a565b915091507f631c4f79c14099a717f4be2f25e6cef89e310b3944ef0e44ea2c0811ebb982a88282604051611e06929190616ff0565b60405180910390a150505050565b5f805f80611e20610b85565b915091505f80611e2e613817565b50505050915091505f8285611e439190618858565b90505f8285611e529190618858565b90505f609e5442611e639190617d29565b90505f610e108210611e75575f611e84565b81610e10611e839190617d29565b5b9050609c54841115611eb257610e1081609c54611ea19190618650565b611eab9190618620565b9950611ece565b610e108185611ec19190618650565b611ecb9190618620565b99505b609d54831115611efa57610e1081609d54611ee99190618650565b611ef39190618620565b9850611f16565b610e108184611f099190618650565b611f139190618620565b98505b50505050505050509091565b611f2b32613c80565b565b60d65481565b5f620f4240670de0b6b3a764000060d15f9054906101000a900473ffffffffffffffffffffffffffffffffffffffff1673ffffffffffffffffffffffffffffffffffffffff1663ddca3f436040518163ffffffff1660e01b8152600401602060405180830381865afa158015611fab573d5f803e3d5ffd5b505050506040513d601f19601f82011682018060405250810190611fcf91906188c3565b62ffffff16611fde9190618650565b611fe89190618620565b905090565b5f60655f9054906101000a900460ff16905090565b60d35f9054906101000a900473ffffffffffffffffffffffffffffffffffffffff1681565b61202f6126fa565b73ffffffffffffffffffffffffffffffffffffffff163373ffffffffffffffffffffffffffffffffffffffff161415801561209d575061206d612adf565b73ffffffffffffffffffffffffffffffffffffffff163373ffffffffffffffffffffffffffffffffffffffff1614155b156120d4576040517fc0fc8a8a00000000000000000000000000000000000000000000000000000000815260040160405180910390fd5b6120dc613d38565b505050506120e86142cd565b6120f0614e7f565b6120f8614f5b565b5f8061210261217a565b915091508382108061211357508281105b1561214a576040517ffa6ad35500000000000000000000000000000000000000000000000000000000815260040160405180910390fd5b50505050565b5f90565b60db60039054906101000a900460060b81565b61216f613ab5565b6121785f614fbd565b565b5f805f80612186610b85565b915091505f80612194613817565b50505050915091505f806121a6611e14565b915091505f8285886121b89190618858565b6121c29190617d29565b90505f8285886121d29190618858565b6121dc9190617d29565b90505f60d55490505f60d6549050838211156121f6578391505b82811115612202578290505b818461220e9190617d29565b818461221a9190617d29565b9b509b50505050505050505050509091565b5f8060019054906101000a900460ff1615905080801561225b575060015f8054906101000a900460ff1660ff16105b80612287575061226a30615080565b158015612286575060015f8054906101000a900460ff1660ff16145b5b6122c6576040517f08c379a00000000000000000000000000000000000000000000000000000000081526004016122bd9061896e565b60405180910390fd5b60015f806101000a81548160ff021916908360ff16021790555080156123015760015f60016101000a81548160ff0219169083151502179055505b61230a826150a2565b8860d15f6101000a81548173ffffffffffffffffffffffffffffffffffffffff021916908373ffffffffffffffffffffffffffffffffffffffff1602179055508760d25f6101000a81548173ffffffffffffffffffffffffffffffffffffffff021916908373ffffffffffffffffffffffffffffffffffffffff1602179055508873ffffffffffffffffffffffffffffffffffffffff16630dfe16816040518163ffffffff1660e01b8152600401602060405180830381865afa1580156123d3573d5f803e3d5ffd5b505050506040513d601f19601f820116820180604052508101906123f791906189a0565b60d35f6101000a81548173ffffffffffffffffffffffffffffffffffffffff021916908373ffffffffffffffffffffffffffffffffffffffff1602179055508873ffffffffffffffffffffffffffffffffffffffff1663d21220a76040518163ffffffff1660e01b8152600401602060405180830381865afa15801561247f573d5f803e3d5ffd5b505050506040513d601f19601f820116820180604052508101906124a391906189a0565b60d45f6101000a81548173ffffffffffffffffffffffffffffffffffffffff021916908373ffffffffffffffffffffffffffffffffffffffff1602179055508660db5f6101000a81548162ffffff021916908360020b62ffffff16021790555061250d8686611632565b6125178484610d73565b607860db600a6101000a81548163ffffffff021916908363ffffffff160217905550612541614bd9565b8015612599575f8060016101000a81548160ff0219169083151502179055507f7f26b83ff96e1f2b6a682f133852f6798a09c465da95921460cefb384740249860016040516125909190618a04565b60405180910390a15b505050505050505050565b60db5f9054906101000a900460020b81565b609f5481565b5f609b5f9054906101000a900473ffffffffffffffffffffffffffffffffffffffff1673ffffffffffffffffffffffffffffffffffffffff16638683ed5b6040518163ffffffff1660e01b8152600401602060405180830381865afa158015612627573d5f803e3d5ffd5b505050506040513d601f19601f8201168201806040525081019061264b91906189a0565b905090565b60d45f9054906101000a900473ffffffffffffffffffffffffffffffffffffffff1681565b5f61267e613613565b73ffffffffffffffffffffffffffffffffffffffff1663cf104622306040518263ffffffff1660e01b81526004016126b691906171b5565b602060405180830381865afa1580156126d1573d5f803e3d5ffd5b505050506040513d601f19601f820116820180604052508101906126f59190617b54565b905090565b5f60335f9054906101000a900473ffffffffffffffffffffffffffffffffffffffff16905090565b60d55481565b60d8805461273590617d93565b80601f016020809104026020016040519081016040528092919081815260200182805461276190617d93565b80156127ac5780601f10612783576101008083540402835291602001916127ac565b820191905f5260205f20905b81548152906001019060200180831161278f57829003601f168201915b505050505081565b60da805f015f9054906101000a900460020b90805f0160039054906101000a900460020b905082565b5f806127e7610cc7565b90505f6127f2610fa4565b90505f61283f60db60039054906101000a900460060b836128139190618353565b60060b7ffffffffffffffffffffffffffffffffffffffffffffffffffffffffffff2761860060b615317565b90505f61286f60db60039054906101000a900460060b846128609190618a1d565b60060b620d89e860060b61532f565b90508360020b8260060b138061288a57508360020b8160060b125b1561289b575f9450505050506128a4565b60019450505050505b90565b5f80600a60d35f9054906101000a900473ffffffffffffffffffffffffffffffffffffffff1673ffffffffffffffffffffffffffffffffffffffff1663313ce5676040518163ffffffff1660e01b8152600401602060405180830381865afa158015612915573d5f803e3d5ffd5b505050506040513d601f19601f82011682018060405250810190612939919061847c565b600a61294591906185d6565b61294f9190618620565b905060975f9054906101000a900473ffffffffffffffffffffffffffffffffffffffff1673ffffffffffffffffffffffffffffffffffffffff1660d35f9054906101000a900473ffffffffffffffffffffffffffffffffffffffff1673ffffffffffffffffffffffffffffffffffffffff16036129db57600a816129d39190618650565b915050612a88565b600a60d25f9054906101000a900473ffffffffffffffffffffffffffffffffffffffff1673ffffffffffffffffffffffffffffffffffffffff1663cdca175360d7846040518363ffffffff1660e01b8152600401612a3a929190618712565b6020604051808303815f875af1158015612a56573d5f803e3d5ffd5b505050506040513d601f19601f82011682018060405250810190612a7a9190617b54565b612a849190618650565b9150505b90565b5f80612a95612e8b565b90506002612acf8273ffffffffffffffffffffffffffffffffffffffff16670de0b6b3a76400006c01000000000000000000000000615347565b612ad991906185d6565b91505090565b5f609b5f9054906101000a900473ffffffffffffffffffffffffffffffffffffffff1673ffffffffffffffffffffffffffffffffffffffff1663aced16616040518163ffffffff1660e01b8152600401602060405180830381865afa158015612b4a573d5f803e3d5ffd5b505050506040513d601f19601f82011682018060405250810190612b6e91906189a0565b905090565b612b7b616f80565b6040518060600160405280612b8e615417565b8152602001612b9b612150565b8152602001612ba86136a7565b815250905090565b612bb8613ab5565b6103e860985f9054906101000a900473ffffffffffffffffffffffffffffffffffffffff1673ffffffffffffffffffffffffffffffffffffffff166318160ddd6040518163ffffffff1660e01b8152600401602060405180830381865afa158015612c25573d5f803e3d5ffd5b505050506040513d601f19601f82011682018060405250810190612c499190617b54565b14612c80576040517fea8e4eb500000000000000000000000000000000000000000000000000000000815260040160405180910390fd5b612c8a5f80612027565b5f612c936125bc565b90505f80612c9f610b85565b915091505f821115612d9057612d8f8360d35f9054906101000a900473ffffffffffffffffffffffffffffffffffffffff1673ffffffffffffffffffffffffffffffffffffffff166370a08231306040518263ffffffff1660e01b8152600401612d0991906171b5565b602060405180830381865afa158015612d24573d5f803e3d5ffd5b505050506040513d601f19601f82011682018060405250810190612d489190617b54565b60d35f9054906101000a900473ffffffffffffffffffffffffffffffffffffffff1673ffffffffffffffffffffffffffffffffffffffff16614d569092919063ffffffff16565b5b5f811115612e7d57612e7c8360d45f9054906101000a900473ffffffffffffffffffffffffffffffffffffffff1673ffffffffffffffffffffffffffffffffffffffff166370a08231306040518263ffffffff1660e01b8152600401612df691906171b5565b602060405180830381865afa158015612e11573d5f803e3d5ffd5b505050506040513d601f19601f82011682018060405250810190612e359190617b54565b60d45f9054906101000a900473ffffffffffffffffffffffffffffffffffffffff1673ffffffffffffffffffffffffffffffffffffffff16614d569092919063ffffffff16565b5b612e865f614fbd565b505050565b5f60d15f9054906101000a900473ffffffffffffffffffffffffffffffffffffffff1673ffffffffffffffffffffffffffffffffffffffff16633850c7bd6040518163ffffffff1660e01b815260040160e060405180830381865afa158015612ef6573d5f803e3d5ffd5b505050506040513d601f19601f82011682018060405250810190612f1a9190617c32565b9091929394509091929350909192509091509050508091505090565b60d9805f015f9054906101000a900460020b90805f0160039054906101000a900460020b905082565b609b5f9054906101000a900473ffffffffffffffffffffffffffffffffffffffff1681565b60d25f9054906101000a900473ffffffffffffffffffffffffffffffffffffffff1681565b60605f60d88054612fb990617d93565b905003613010575f67ffffffffffffffff811115612fda57612fd96178d5565b5b6040519080825280602002602001820160405280156130085781602001602082028036833780820191505090505b5090506130a4565b6130a160d8805461302090617d93565b80601f016020809104026020016040519081016040528092919081815260200182805461304c90617d93565b80156130975780601f1061306e57610100808354040283529160200191613097565b820191905f5260205f20905b81548152906001019060200180831161307a57829003601f168201915b5050505050613b33565b90505b90565b609a5f9054906101000a900473ffffffffffffffffffffffffffffffffffffffff1673ffffffffffffffffffffffffffffffffffffffff163373ffffffffffffffffffffffffffffffffffffffff161461312d576040517f62c774da00000000000000000000000000000000000000000000000000000000815260040160405180910390fd5b80609a5f6101000a81548173ffffffffffffffffffffffffffffffffffffffff021916908373ffffffffffffffffffffffffffffffffffffffff1602179055507f46d58e3fa07bf19b1d27240f0e286b27e9f7c1b0d88933333fe833b60eec54128160405161319c91906171b5565b60405180910390a150565b6131af6154a6565b609b5f9054906101000a900473ffffffffffffffffffffffffffffffffffffffff1673ffffffffffffffffffffffffffffffffffffffff1663a44d57a0336040518263ffffffff1660e01b815260040161320991906171b5565b602060405180830381865afa158015613224573d5f803e3d5ffd5b505050506040513d601f19601f820116820180604052508101906132489190618a7b565b61327e576040517fea8e4eb500000000000000000000000000000000000000000000000000000000815260040160405180910390fd5b613286613d38565b505050506132926142cd565b61329a61477f565b6132a26147dc565b5f806132ac61217a565b915091507f631c4f79c14099a717f4be2f25e6cef89e310b3944ef0e44ea2c0811ebb982a882826040516132e1929190616ff0565b60405180910390a15050565b6132f56154a6565b6132fd614abd565b60db600f9054906101000a900460ff166133355761331961477f565b600160db600f6101000a81548160ff0219169083151502179055505b61333d6147dc565b5f8061334761217a565b915091507f631c4f79c14099a717f4be2f25e6cef89e310b3944ef0e44ea2c0811ebb982a8828260405161337c929190616ff0565b60405180910390a15050565b60d15f9054906101000a900473ffffffffffffffffffffffffffffffffffffffff1673ffffffffffffffffffffffffffffffffffffffff163373ffffffffffffffffffffffffffffffffffffffff161461340e576040517f6f61f64100000000000000000000000000000000000000000000000000000000815260040160405180910390fd5b60db600e9054906101000a900460ff16613454576040517f887efaa500000000000000000000000000000000000000000000000000000000815260040160405180910390fd5b5f8311156134ca576134c960d15f9054906101000a900473ffffffffffffffffffffffffffffffffffffffff168460d35f9054906101000a900473ffffffffffffffffffffffffffffffffffffffff1673ffffffffffffffffffffffffffffffffffffffff16614d569092919063ffffffff16565b5b5f8211156135405761353f60d15f9054906101000a900473ffffffffffffffffffffffffffffffffffffffff168360d45f9054906101000a900473ffffffffffffffffffffffffffffffffffffffff1673ffffffffffffffffffffffffffffffffffffffff16614d569092919063ffffffff16565b5b5f60db600e6101000a81548160ff021916908315150217905550505050565b613567613ab5565b61356f614e7f565b8060995f6101000a81548173ffffffffffffffffffffffffffffffffffffffff021916908373ffffffffffffffffffffffffffffffffffffffff1602179055506135b7614bd9565b7f5ca6e64c4522e68e154aa9372f2c5969cd37d9640e59f66953dc472f54ee86fa816040516135e691906171b5565b60405180910390a150565b5f805f806135fd613d38565b8094508195508296508397505050505090919293565b5f609b5f9054906101000a900473ffffffffffffffffffffffffffffffffffffffff1673ffffffffffffffffffffffffffffffffffffffff1663e8edd3e86040518163ffffffff1660e01b8152600401602060405180830381865afa15801561367e573d5f803e3d5ffd5b505050506040513d601f19601f820116820180604052508101906136a291906189a0565b905090565b5f90565b5f8060026136fd6136cb60d95f015f9054906101000a900460020b6154e6565b73ffffffffffffffffffffffffffffffffffffffff16670de0b6b3a76400006c01000000000000000000000000615347565b61370791906185d6565b9150600261375a61372860d95f0160039054906101000a900460020b6154e6565b73ffffffffffffffffffffffffffffffffffffffff16670de0b6b3a76400006c01000000000000000000000000615347565b61376491906185d6565b90509091565b609e5481565b613778613ab5565b5f73ffffffffffffffffffffffffffffffffffffffff168173ffffffffffffffffffffffffffffffffffffffff16036137e6576040517f08c379a00000000000000000000000000000000000000000000000000000000081526004016137dd90618b16565b60405180910390fd5b6137ef81614fbd565b50565b60985f9054906101000a900473ffffffffffffffffffffffffffffffffffffffff1681565b5f805f805f805f80613827611590565b915091505f613834612e8b565b90505f805f60d15f9054906101000a900473ffffffffffffffffffffffffffffffffffffffff1673ffffffffffffffffffffffffffffffffffffffff1663514ea4bf876040518263ffffffff1660e01b81526004016138939190618b34565b60a060405180830381865afa1580156138ae573d5f803e3d5ffd5b505050506040513d601f19601f820116820180604052508101906138d29190618b92565b6fffffffffffffffffffffffffffffffff1694506fffffffffffffffffffffffffffffffff169450505092505f805f60d15f9054906101000a900473ffffffffffffffffffffffffffffffffffffffff1673ffffffffffffffffffffffffffffffffffffffff1663514ea4bf896040518263ffffffff1660e01b815260040161395b9190618b34565b60a060405180830381865afa158015613976573d5f803e3d5ffd5b505050506040513d601f19601f8201168201806040525081019061399a9190618b92565b6fffffffffffffffffffffffffffffffff1694506fffffffffffffffffffffffffffffffff16945050509250613a03876139e360d95f015f9054906101000a900460020b6154e6565b6139fd60d95f0160039054906101000a900460020b6154e6565b896158e0565b809d50819e505050613a4887613a2860da5f015f9054906101000a900460020b6154e6565b613a4260da5f0160039054906101000a900460020b6154e6565b866158e0565b809b50819c505050848d613a5c9190618858565b9c50838c613a6a9190618858565b9b50818b613a789190618858565b9a50808a613a869190618858565b99508a8d613a949190618858565b9e50898c613aa29190618858565b9d50505050505050505050909192939495565b613abd6159d1565b73ffffffffffffffffffffffffffffffffffffffff16613adb6126fa565b73ffffffffffffffffffffffffffffffffffffffff1614613b31576040517f08c379a0000000000000000000000000000000000000000000000000000000008152600401613b2890618c53565b60405180910390fd5b565b60605f613b3f836159d8565b90505f600182613b4f9190618858565b67ffffffffffffffff811115613b6857613b676178d5565b5b604051908082528060200260200182016040528015613b965781602001602082028036833780820191505090505b5090505f5b82811015613c75575f80613bae87615a06565b509150915081848481518110613bc757613bc6617ccf565b5b602002602001019073ffffffffffffffffffffffffffffffffffffffff16908173ffffffffffffffffffffffffffffffffffffffff16815250508084600185613c109190618858565b81518110613c2157613c20617ccf565b5b602002602001019073ffffffffffffffffffffffffffffffffffffffff16908173ffffffffffffffffffffffffffffffffffffffff1681525050613c6487615a5d565b965050508080600101915050613b9b565b508092505050919050565b613c88613d38565b50505050613c946142cd565b5f80613ca58360d55460d654615aa1565b91509150613cb16147dc565b5f60d5819055505f60d6819055505f80613cc9611e14565b915091508184613cd99190618858565b609c819055508083613ceb9190618858565b609d8190555042609e819055507f6c8433a8e155f0af04dba058d4e4695f7da554578963d876bdf4a6d8d6399d9c8484604051613d29929190616ff0565b60405180910390a15050505050565b5f805f805f80613d46611590565b915091505f60d15f9054906101000a900473ffffffffffffffffffffffffffffffffffffffff1673ffffffffffffffffffffffffffffffffffffffff1663514ea4bf846040518263ffffffff1660e01b8152600401613da59190618b34565b60a060405180830381865afa158015613dc0573d5f803e3d5ffd5b505050506040513d601f19601f82011682018060405250810190613de49190618b92565b5050505090505f60d15f9054906101000a900473ffffffffffffffffffffffffffffffffffffffff1673ffffffffffffffffffffffffffffffffffffffff1663514ea4bf846040518263ffffffff1660e01b8152600401613e459190618b34565b60a060405180830381865afa158015613e60573d5f803e3d5ffd5b505050506040513d601f19601f82011682018060405250810190613e849190618b92565b5050505090505f826fffffffffffffffffffffffffffffffff161115613f655760d15f9054906101000a900473ffffffffffffffffffffffffffffffffffffffff1673ffffffffffffffffffffffffffffffffffffffff1663a34123a760d95f015f9054906101000a900460020b60d95f0160039054906101000a900460020b5f6040518463ffffffff1660e01b8152600401613f2393929190618caa565b60408051808303815f875af1158015613f3e573d5f803e3d5ffd5b505050506040513d601f19601f82011682018060405250810190613f629190618cdf565b50505b5f816fffffffffffffffffffffffffffffffff1611156140405760d15f9054906101000a900473ffffffffffffffffffffffffffffffffffffffff1673ffffffffffffffffffffffffffffffffffffffff1663a34123a760da5f015f9054906101000a900460020b60da5f0160039054906101000a900460020b5f6040518463ffffffff1660e01b8152600401613ffe93929190618caa565b60408051808303815f875af1158015614019573d5f803e3d5ffd5b505050506040513d601f19601f8201168201806040525081019061403d9190618cdf565b50505b60d15f9054906101000a900473ffffffffffffffffffffffffffffffffffffffff1673ffffffffffffffffffffffffffffffffffffffff16634f1eb3d83060d95f015f9054906101000a900460020b60d95f0160039054906101000a900460020b6fffffffffffffffffffffffffffffffff806040518663ffffffff1660e01b81526004016140d3959493929190618d2c565b60408051808303815f875af11580156140ee573d5f803e3d5ffd5b505050506040513d601f19601f820116820180604052508101906141129190618d7d565b816fffffffffffffffffffffffffffffffff169150806fffffffffffffffffffffffffffffffff169050809850819950505060d15f9054906101000a900473ffffffffffffffffffffffffffffffffffffffff1673ffffffffffffffffffffffffffffffffffffffff16634f1eb3d83060da5f015f9054906101000a900460020b60da5f0160039054906101000a900460020b6fffffffffffffffffffffffffffffffff806040518663ffffffff1660e01b81526004016141d7959493929190618d2c565b60408051808303815f875af11580156141f2573d5f803e3d5ffd5b505050506040513d601f19601f820116820180604052508101906142169190618d7d565b816fffffffffffffffffffffffffffffffff169150806fffffffffffffffffffffffffffffffff1690508096508197505050858860d5546142579190618858565b6142619190618858565b60d581905550848760d6546142769190618858565b6142809190618858565b60d6819055507f6fe7c663aa15def6e80578b76ddd894fcefeabf14a0106afbec24da4a6c57872888888886040516142bb9493929190617a65565b60405180910390a15050505090919293565b5f806142d7611590565b915091505f60d15f9054906101000a900473ffffffffffffffffffffffffffffffffffffffff1673ffffffffffffffffffffffffffffffffffffffff1663514ea4bf846040518263ffffffff1660e01b81526004016143369190618b34565b60a060405180830381865afa158015614351573d5f803e3d5ffd5b505050506040513d601f19601f820116820180604052508101906143759190618b92565b5050505090505f60d15f9054906101000a900473ffffffffffffffffffffffffffffffffffffffff1673ffffffffffffffffffffffffffffffffffffffff1663514ea4bf846040518263ffffffff1660e01b81526004016143d69190618b34565b60a060405180830381865afa1580156143f1573d5f803e3d5ffd5b505050506040513d601f19601f820116820180604052508101906144159190618b92565b5050505090505f826fffffffffffffffffffffffffffffffff1611156145ca5760d15f9054906101000a900473ffffffffffffffffffffffffffffffffffffffff1673ffffffffffffffffffffffffffffffffffffffff1663a34123a760d95f015f9054906101000a900460020b60d95f0160039054906101000a900460020b856040518463ffffffff1660e01b81526004016144b493929190618dbb565b60408051808303815f875af11580156144cf573d5f803e3d5ffd5b505050506040513d601f19601f820116820180604052508101906144f39190618cdf565b505060d15f9054906101000a900473ffffffffffffffffffffffffffffffffffffffff1673ffffffffffffffffffffffffffffffffffffffff16634f1eb3d83060d95f015f9054906101000a900460020b60d95f0160039054906101000a900460020b6fffffffffffffffffffffffffffffffff806040518663ffffffff1660e01b8152600401614588959493929190618d2c565b60408051808303815f875af11580156145a3573d5f803e3d5ffd5b505050506040513d601f19601f820116820180604052508101906145c79190618d7d565b50505b5f816fffffffffffffffffffffffffffffffff1611156147795760d15f9054906101000a900473ffffffffffffffffffffffffffffffffffffffff1673ffffffffffffffffffffffffffffffffffffffff1663a34123a760da5f015f9054906101000a900460020b60da5f0160039054906101000a900460020b846040518463ffffffff1660e01b815260040161466393929190618dbb565b60408051808303815f875af115801561467e573d5f803e3d5ffd5b505050506040513d601f19601f820116820180604052508101906146a29190618cdf565b505060d15f9054906101000a900473ffffffffffffffffffffffffffffffffffffffff1673ffffffffffffffffffffffffffffffffffffffff16634f1eb3d83060da5f015f9054906101000a900460020b60da5f0160039054906101000a900460020b6fffffffffffffffffffffffffffffffff806040518663ffffffff1660e01b8152600401614737959493929190618d2c565b60408051808303815f875af1158015614752573d5f803e3d5ffd5b505050506040513d601f19601f820116820180604052508101906147769190618d7d565b50505b50505050565b6147876154a6565b5f614790610cc7565b90505f61479b614b45565b90505f8160db5f9054906101000a900460020b6147b8919061881c565b90506147c5838383615f9f565b6147d0838383615ffc565b42609f81905550505050565b6147e461612e565b5f806147ee610b85565b915091505f6147fb612e8b565b90505f61483c8261481b60d95f015f9054906101000a900460020b6154e6565b61483560d95f0160039054906101000a900460020b6154e6565b8787616204565b90505f61486b8260d95f015f9054906101000a900460020b60d95f0160039054906101000a900460020b61632d565b90505f826fffffffffffffffffffffffffffffffff1611801561488b5750805b1561496e57600160db600e6101000a81548160ff02191690831515021790555060d15f9054906101000a900473ffffffffffffffffffffffffffffffffffffffff1673ffffffffffffffffffffffffffffffffffffffff16633c8a7d8d3060d95f015f9054906101000a900460020b60d95f0160039054906101000a900460020b866040518563ffffffff1660e01b815260040161492c9493929190618e3a565b60408051808303815f875af1158015614947573d5f803e3d5ffd5b505050506040513d601f19601f8201168201806040525081019061496b9190618cdf565b50505b614976610b85565b80955081965050506149bc8361499b60da5f015f9054906101000a900460020b6154e6565b6149b560da5f0160039054906101000a900460020b6154e6565b8888616204565b91505f826fffffffffffffffffffffffffffffffff161115614ab657600160db600e6101000a81548160ff02191690831515021790555060d15f9054906101000a900473ffffffffffffffffffffffffffffffffffffffff1673ffffffffffffffffffffffffffffffffffffffff16633c8a7d8d3060da5f015f9054906101000a900460020b60da5f0160039054906101000a900460020b866040518563ffffffff1660e01b8152600401614a749493929190618eda565b60408051808303815f875af1158015614a8f573d5f803e3d5ffd5b505050506040513d601f19601f82011682018060405250810190614ab39190618cdf565b50505b5050505050565b60985f9054906101000a900473ffffffffffffffffffffffffffffffffffffffff1673ffffffffffffffffffffffffffffffffffffffff163373ffffffffffffffffffffffffffffffffffffffff1614614b43576040517f62df054500000000000000000000000000000000000000000000000000000000815260040160405180910390fd5b565b5f60d15f9054906101000a900473ffffffffffffffffffffffffffffffffffffffff1673ffffffffffffffffffffffffffffffffffffffff1663d0c93a7c6040518163ffffffff1660e01b8152600401602060405180830381865afa158015614bb0573d5f803e3d5ffd5b505050506040513d601f19601f82011682018060405250810190614bd49190618f30565b905090565b614c6660995f9054906101000a900473ffffffffffffffffffffffffffffffffffffffff167fffffffffffffffffffffffffffffffffffffffffffffffffffffffffffffffff60d35f9054906101000a900473ffffffffffffffffffffffffffffffffffffffff1673ffffffffffffffffffffffffffffffffffffffff166163819092919063ffffffff16565b614cf360995f9054906101000a900473ffffffffffffffffffffffffffffffffffffffff167fffffffffffffffffffffffffffffffffffffffffffffffffffffffffffffffff60d45f9054906101000a900473ffffffffffffffffffffffffffffffffffffffff1673ffffffffffffffffffffffffffffffffffffffff166163819092919063ffffffff16565b565b614cfd61649c565b5f60655f6101000a81548160ff0219169083151502179055507f5db9ee0a495bf2e6ff9c91a7834c1ba4fdd244a5e8aa4e537bd38aeae4b073aa614d3f6159d1565b604051614d4c91906171b5565b60405180910390a1565b614dd78363a9059cbb60e01b8484604051602401614d75929190618f5b565b604051602081830303815290604052907bffffffffffffffffffffffffffffffffffffffffffffffffffffffff19166020820180517bffffffffffffffffffffffffffffffffffffffffffffffffffffffff83818316178352505050506164e5565b505050565b5f614de5611fed565b80614e7a5750609b5f9054906101000a900473ffffffffffffffffffffffffffffffffffffffff1673ffffffffffffffffffffffffffffffffffffffff1663f12d54d86040518163ffffffff1660e01b8152600401602060405180830381865afa158015614e55573d5f803e3d5ffd5b505050506040513d601f19601f82011682018060405250810190614e799190618a7b565b5b905090565b614eec60995f9054906101000a900473ffffffffffffffffffffffffffffffffffffffff165f60d35f9054906101000a900473ffffffffffffffffffffffffffffffffffffffff1673ffffffffffffffffffffffffffffffffffffffff166163819092919063ffffffff16565b614f5960995f9054906101000a900473ffffffffffffffffffffffffffffffffffffffff165f60d45f9054906101000a900473ffffffffffffffffffffffffffffffffffffffff1673ffffffffffffffffffffffffffffffffffffffff166163819092919063ffffffff16565b565b614f636165ab565b600160655f6101000a81548160ff0219169083151502179055507f62e78cea01bee320cd4e420270b5ea74000d11b0c9f74754ebdbfc544b05a258614fa66159d1565b604051614fb391906171b5565b60405180910390a1565b5f60335f9054906101000a900473ffffffffffffffffffffffffffffffffffffffff1690508160335f6101000a81548173ffffffffffffffffffffffffffffffffffffffff021916908373ffffffffffffffffffffffffffffffffffffffff1602179055508173ffffffffffffffffffffffffffffffffffffffff168173ffffffffffffffffffffffffffffffffffffffff167f8be0079c531659141344cd1fd0a4f28419497f9722a3daafe3b4186f6b6457e060405160405180910390a35050565b5f808273ffffffffffffffffffffffffffffffffffffffff163b119050919050565b5f60019054906101000a900460ff166150f0576040517f08c379a00000000000000000000000000000000000000000000000000000000081526004016150e790618ff2565b60405180910390fd5b6150f86165f5565b61510061664d565b805f016020810190615112919061717b565b60985f6101000a81548173ffffffffffffffffffffffffffffffffffffffff021916908373ffffffffffffffffffffffffffffffffffffffff160217905550806020016020810190615164919061717b565b60995f6101000a81548173ffffffffffffffffffffffffffffffffffffffff021916908373ffffffffffffffffffffffffffffffffffffffff1602179055508060400160208101906151b6919061717b565b609a5f6101000a81548173ffffffffffffffffffffffffffffffffffffffff021916908373ffffffffffffffffffffffffffffffffffffffff160217905550806060016020810190615208919061717b565b609b5f6101000a81548173ffffffffffffffffffffffffffffffffffffffff021916908373ffffffffffffffffffffffffffffffffffffffff160217905550609b5f9054906101000a900473ffffffffffffffffffffffffffffffffffffffff1673ffffffffffffffffffffffffffffffffffffffff166311b0b42d6040518163ffffffff1660e01b8152600401602060405180830381865afa1580156152b1573d5f803e3d5ffd5b505050506040513d601f19601f820116820180604052508101906152d591906189a0565b60975f6101000a81548173ffffffffffffffffffffffffffffffffffffffff021916908373ffffffffffffffffffffffffffffffffffffffff16021790555050565b5f8183136153255781615327565b825b905092915050565b5f81831261533d578161533f565b825b905092915050565b5f805f80198587098587029250828110838203039150505f810361537c575f8411615370575f80fd5b83820492505050615410565b808411615387575f80fd5b5f8486880990508281118203915080830392505f60018619018616905080860495508084049350600181825f0304019050808302841793505f600287600302189050808702600203810290508087026002038102905080870260020381029050808702600203810290508087026002038102905080870260020381029050808502955050505050505b9392505050565b61541f616fa5565b615427613613565b73ffffffffffffffffffffffffffffffffffffffff16639af608c9306040518263ffffffff1660e01b815260040161545f91906171b5565b5f60405180830381865afa158015615479573d5f803e3d5ffd5b505050506040513d5f823e3d601f19601f820116820180604052508101906154a1919061916f565b905090565b6154ae6127dd565b6154e4576040517f26c8787600000000000000000000000000000000000000000000000000000000815260040160405180910390fd5b565b5f805f8360020b126154fb578260020b615502565b8260020b5f035b90507ffffffffffffffffffffffffffffffffffffffffffffffffffffffffffff276185f0360020b81111561556c576040517f08c379a000000000000000000000000000000000000000000000000000000000815260040161556390619200565b60405180910390fd5b5f80600183160361558e577001000000000000000000000000000000006155a0565b6ffffcb933bd6fad37aa2d162d1a5940015b70ffffffffffffffffffffffffffffffffff1690505f60028316146155d95760806ffff97272373d413259a46990580e213a8202901c90505b5f60048316146155fd5760806ffff2e50f5f656932ef12357cf3c7fdcc8202901c90505b5f60088316146156215760806fffe5caca7e10e4e61c3624eaa0941cd08202901c90505b5f60108316146156455760806fffcb9843d60f6159c9db58835c9266448202901c90505b5f60208316146156695760806fff973b41fa98c081472e6896dfb254c08202901c90505b5f604083161461568d5760806fff2ea16466c96a3843ec78b326b528618202901c90505b5f60808316146156b15760806ffe5dee046a99a2a811c461f1969c30538202901c90505b5f6101008316146156d65760806ffcbe86c7900a88aedcffc83b479aa3a48202901c90505b5f6102008316146156fb5760806ff987a7253ac413176f2b074cf7815e548202901c90505b5f6104008316146157205760806ff3392b0822b70005940c7a398e4b70f38202901c90505b5f6108008316146157455760806fe7159475a2c29b7443b29c7fa6e889d98202901c90505b5f61100083161461576a5760806fd097f3bdfd2022b8845ad8f792aa58258202901c90505b5f61200083161461578f5760806fa9f746462d870fdf8a65dc1f90e061e58202901c90505b5f6140008316146157b45760806f70d869a156d2a1b890bb3df62baf32f78202901c90505b5f6180008316146157d95760806f31be135f97d08fd981231505542fcfa68202901c90505b5f620100008316146157ff5760806f09aa508b5b7a84e1c677de54f3e99bc98202901c90505b5f620200008316146158245760806e5d6af8dedb81196699c329225ee6048202901c90505b5f620400008316146158485760806d2216e584f5fa1ea926041bedfe988202901c90505b5f6208000083161461586a5760806b048a170391f7dc42444e8fa28202901c90505b5f8460020b13156158a957807fffffffffffffffffffffffffffffffffffffffffffffffffffffffffffffffff816158a5576158a46183b1565b5b0490505b5f64010000000082816158bf576158be6183b1565b5b06146158cc5760016158ce565b5f5b60ff16602082901c0192505050919050565b5f808373ffffffffffffffffffffffffffffffffffffffff168573ffffffffffffffffffffffffffffffffffffffff16111561592157838580955081965050505b8473ffffffffffffffffffffffffffffffffffffffff168673ffffffffffffffffffffffffffffffffffffffff16116159665761595f8585856166a5565b91506159c8565b8373ffffffffffffffffffffffffffffffffffffffff168673ffffffffffffffffffffffffffffffffffffffff1610156159b9576159a58685856166a5565b91506159b285878561676a565b90506159c7565b6159c485858561676a565b90505b5b94509492505050565b5f33905090565b5f600360146159e79190618858565b601483516159f59190617d29565b6159ff9190618620565b9050919050565b5f805f615a1c5f856167fe90919063ffffffff16565b9250615a3260148561687290919063ffffffff16565b9050615a5460036014615a459190618858565b856167fe90919063ffffffff16565b91509193909250565b6060615a9a60036014615a709190618858565b60036014615a7e9190618858565b8451615a8a9190617d29565b846169269092919063ffffffff16565b9050919050565b5f805f615aac615417565b90505f80861115615cdd575f670de0b6b3a7640000835f015188615ad09190618650565b615ada9190618620565b90508087615ae89190617d29565b94505f60975f9054906101000a900473ffffffffffffffffffffffffffffffffffffffff1673ffffffffffffffffffffffffffffffffffffffff1660d35f9054906101000a900473ffffffffffffffffffffffffffffffffffffffff1673ffffffffffffffffffffffffffffffffffffffff1614615c435760995f9054906101000a900473ffffffffffffffffffffffffffffffffffffffff1673ffffffffffffffffffffffffffffffffffffffff1663df791e5060d35f9054906101000a900473ffffffffffffffffffffffffffffffffffffffff1660975f9054906101000a900473ffffffffffffffffffffffffffffffffffffffff16856040518463ffffffff1660e01b8152600401615c009392919061921e565b6020604051808303815f875af1158015615c1c573d5f803e3d5ffd5b505050506040513d601f19601f82011682018060405250810190615c409190617b54565b90505b60975f9054906101000a900473ffffffffffffffffffffffffffffffffffffffff1673ffffffffffffffffffffffffffffffffffffffff1660d35f9054906101000a900473ffffffffffffffffffffffffffffffffffffffff1673ffffffffffffffffffffffffffffffffffffffff1603615ccb578183615cc49190618858565b9250615cda565b8083615cd79190618858565b92505b50505b5f851115615f0b575f670de0b6b3a7640000835f015187615cfe9190618650565b615d089190618620565b90508086615d169190617d29565b93505f60975f9054906101000a900473ffffffffffffffffffffffffffffffffffffffff1673ffffffffffffffffffffffffffffffffffffffff1660d45f9054906101000a900473ffffffffffffffffffffffffffffffffffffffff1673ffffffffffffffffffffffffffffffffffffffff1614615e715760995f9054906101000a900473ffffffffffffffffffffffffffffffffffffffff1673ffffffffffffffffffffffffffffffffffffffff1663df791e5060d45f9054906101000a900473ffffffffffffffffffffffffffffffffffffffff1660975f9054906101000a900473ffffffffffffffffffffffffffffffffffffffff16856040518463ffffffff1660e01b8152600401615e2e9392919061921e565b6020604051808303815f875af1158015615e4a573d5f803e3d5ffd5b505050506040513d601f19601f82011682018060405250810190615e6e9190617b54565b90505b60975f9054906101000a900473ffffffffffffffffffffffffffffffffffffffff1673ffffffffffffffffffffffffffffffffffffffff1660d45f9054906101000a900473ffffffffffffffffffffffffffffffffffffffff1673ffffffffffffffffffffffffffffffffffffffff1603615ef9578183615ef29190618858565b9250615f08565b8083615f059190618858565b92505b50505b615f5e615f166125bc565b8260975f9054906101000a900473ffffffffffffffffffffffffffffffffffffffff1673ffffffffffffffffffffffffffffffffffffffff16614d569092919063ffffffff16565b7fed7213cd9fc239cb29c12591c13ac4d331a3c9bc3078df030f89266f66aa3f6d81604051615f8d9190617017565b60405180910390a15050935093915050565b615faa838284616a42565b60d95f015f60d95f0160038491906101000a81548162ffffff021916908360020b62ffffff1602179055508391906101000a81548162ffffff021916908360020b62ffffff1602179055505050505050565b5f80616006610b85565b915091505f80831115616043576ec097ce7bc90715b34b9f100000000061602b612a8b565b846160369190618650565b6160409190618620565b90505b818110156160b557616056868587616a42565b5060da5f015f8291906101000a81548162ffffff021916908360020b62ffffff16021790555050616088868687616a42565b5060da5f0160038291906101000a81548162ffffff021916908360020b62ffffff16021790555050616126565b80821015616125576160c8868687616a42565b905060da5f015f8291906101000a81548162ffffff021916908360020b62ffffff160217905550506160fb868587616a42565b905060da5f0160038291906101000a81548162ffffff021916908360020b62ffffff160217905550505b5b505050505050565b616136611fed565b806161cb5750609b5f9054906101000a900473ffffffffffffffffffffffffffffffffffffffff1673ffffffffffffffffffffffffffffffffffffffff1663f12d54d86040518163ffffffff1660e01b8152600401602060405180830381865afa1580156161a6573d5f803e3d5ffd5b505050506040513d601f19601f820116820180604052508101906161ca9190618a7b565b5b15616202576040517fe628b94900000000000000000000000000000000000000000000000000000000815260040160405180910390fd5b565b5f8373ffffffffffffffffffffffffffffffffffffffff168573ffffffffffffffffffffffffffffffffffffffff16111561624457838580955081965050505b8473ffffffffffffffffffffffffffffffffffffffff168673ffffffffffffffffffffffffffffffffffffffff161161628957616282858585616a76565b9050616324565b8373ffffffffffffffffffffffffffffffffffffffff168673ffffffffffffffffffffffffffffffffffffffff161015616315575f6162c9878686616a76565b90505f6162d7878986616b3b565b9050806fffffffffffffffffffffffffffffffff16826fffffffffffffffffffffffffffffffff161061630a578061630c565b815b92505050616323565b616320858584616b3b565b90505b5b95945050505050565b5f805f61635361633b612e8b565b616344876154e6565b61634d876154e6565b896158e0565b915091505f82148061636457505f81145b15616373575f9250505061637a565b6001925050505b9392505050565b5f63095ea7b360e01b838360405160240161639d929190618f5b565b604051602081830303815290604052907bffffffffffffffffffffffffffffffffffffffffffffffffffffffff19166020820180517bffffffffffffffffffffffffffffffffffffffffffffffffffffffff838183161783525050505090506164068482616bc5565b6164965761648b8463095ea7b360e01b855f604051602401616429929190619283565b604051602081830303815290604052907bffffffffffffffffffffffffffffffffffffffffffffffffffffffff19166020820180517bffffffffffffffffffffffffffffffffffffffffffffffffffffffff83818316178352505050506164e5565b61649584826164e5565b5b50505050565b6164a4611fed565b6164e3576040517f08c379a00000000000000000000000000000000000000000000000000000000081526004016164da906192f4565b60405180910390fd5b565b5f616546826040518060400160405280602081526020017f5361666545524332303a206c6f772d6c6576656c2063616c6c206661696c65648152508573ffffffffffffffffffffffffffffffffffffffff16616c739092919063ffffffff16565b90505f815114806165675750808060200190518101906165669190618a7b565b5b6165a6576040517f08c379a000000000000000000000000000000000000000000000000000000000815260040161659d90619382565b60405180910390fd5b505050565b6165b3611fed565b156165f3576040517f08c379a00000000000000000000000000000000000000000000000000000000081526004016165ea906193ea565b60405180910390fd5b565b5f60019054906101000a900460ff16616643576040517f08c379a000000000000000000000000000000000000000000000000000000000815260040161663a90618ff2565b60405180910390fd5b61664b616c8a565b565b5f60019054906101000a900460ff1661669b576040517f08c379a000000000000000000000000000000000000000000000000000000000815260040161669290618ff2565b60405180910390fd5b6166a3616cea565b565b5f8273ffffffffffffffffffffffffffffffffffffffff168473ffffffffffffffffffffffffffffffffffffffff1611156166e557828480945081955050505b8373ffffffffffffffffffffffffffffffffffffffff16616757606060ff16846fffffffffffffffffffffffffffffffff16901b86866167259190619408565b73ffffffffffffffffffffffffffffffffffffffff168673ffffffffffffffffffffffffffffffffffffffff16615347565b6167619190618620565b90509392505050565b5f8273ffffffffffffffffffffffffffffffffffffffff168473ffffffffffffffffffffffffffffffffffffffff1611156167aa57828480945081955050505b6167f5826fffffffffffffffffffffffffffffffff1685856167cc9190619408565b73ffffffffffffffffffffffffffffffffffffffff166c01000000000000000000000000615347565b90509392505050565b5f60148261680c9190618858565b8351101561684f576040517f08c379a000000000000000000000000000000000000000000000000000000000815260040161684690619499565b60405180910390fd5b5f6c01000000000000000000000000836020860101510490508091505092915050565b5f816003836168819190618858565b10156168c2576040517f08c379a00000000000000000000000000000000000000000000000000000000081526004016168b990619501565b60405180910390fd5b6003826168cf9190618858565b83511015616912576040517f08c379a000000000000000000000000000000000000000000000000000000000815260040161690990619569565b60405180910390fd5b5f8260038501015190508091505092915050565b606081601f836169369190618858565b1015616977576040517f08c379a000000000000000000000000000000000000000000000000000000000815260040161696e906195d1565b60405180910390fd5b81836169839190618858565b845110156169c6576040517f08c379a00000000000000000000000000000000000000000000000000000000081526004016169bd90619639565b60405180910390fd5b606082155f81146169e55760405191505f825260208201604052616a36565b6040519150601f8416801560200281840101858101878315602002848b0101015b81831015616a235780518352602083019250602081019050616a06565b50868552601f19601f8301166040525050505b50809150509392505050565b5f805f616a4f8685616d53565b90508481616a5d9190619657565b92508481616a6b91906196b1565b915050935093915050565b5f8273ffffffffffffffffffffffffffffffffffffffff168473ffffffffffffffffffffffffffffffffffffffff161115616ab657828480945081955050505b5f616afb8573ffffffffffffffffffffffffffffffffffffffff168573ffffffffffffffffffffffffffffffffffffffff166c01000000000000000000000000615347565b9050616b31616b2c84838888616b119190619408565b73ffffffffffffffffffffffffffffffffffffffff16615347565b616dac565b9150509392505050565b5f8273ffffffffffffffffffffffffffffffffffffffff168473ffffffffffffffffffffffffffffffffffffffff161115616b7b57828480945081955050505b616bbc616bb7836c010000000000000000000000008787616b9c9190619408565b73ffffffffffffffffffffffffffffffffffffffff16615347565b616dac565b90509392505050565b5f805f8473ffffffffffffffffffffffffffffffffffffffff1684604051616bed9190619745565b5f604051808303815f865af19150503d805f8114616c26576040519150601f19603f3d011682016040523d82523d5f602084013e616c2b565b606091505b5091509150818015616c5857505f81511480616c57575080806020019051810190616c569190618a7b565b5b5b8015616c695750616c6885616dd2565b5b9250505092915050565b6060616c8184845f85616df4565b90509392505050565b5f60019054906101000a900460ff16616cd8576040517f08c379a0000000000000000000000000000000000000000000000000000000008152600401616ccf90618ff2565b60405180910390fd5b616ce8616ce36159d1565b614fbd565b565b5f60019054906101000a900460ff16616d38576040517f08c379a0000000000000000000000000000000000000000000000000000000008152600401616d2f90618ff2565b60405180910390fd5b5f60655f6101000a81548160ff021916908315150217905550565b5f808284616d61919061975b565b90505f8460020b128015616d8357505f8385616d7d91906197c3565b60020b14155b15616d97578080616d93906197f3565b9150505b8281616da3919061881c565b91505092915050565b5f81829150816fffffffffffffffffffffffffffffffff1614616dcd575f80fd5b919050565b5f808273ffffffffffffffffffffffffffffffffffffffff163b119050919050565b606082471015616e39576040517f08c379a0000000000000000000000000000000000000000000000000000000008152600401616e30906198aa565b60405180910390fd5b5f808673ffffffffffffffffffffffffffffffffffffffff168587604051616e619190619745565b5f6040518083038185875af1925050503d805f8114616e9b576040519150601f19603f3d011682016040523d82523d5f602084013e616ea0565b606091505b5091509150616eb187838387616ebd565b92505050949350505050565b60608315616f1e575f835103616f1657616ed685616dd2565b616f15576040517f08c379a0000000000000000000000000000000000000000000000000000000008152600401616f0c90619912565b60405180910390fd5b5b829050616f29565b616f288383616f31565b5b949350505050565b5f82511115616f435781518083602001fd5b806040517f08c379a0000000000000000000000000000000000000000000000000000000008152600401616f779190619968565b60405180910390fd5b6040518060600160405280616f93616fa5565b81526020015f81526020015f81525090565b6040518060c001604052805f81526020015f81526020015f81526020015f8152602001606081526020015f151581525090565b5f819050919050565b616fea81616fd8565b82525050565b5f6040820190506170035f830185616fe1565b6170106020830184616fe1565b9392505050565b5f60208201905061702a5f830184616fe1565b92915050565b5f8160020b9050919050565b61704581617030565b82525050565b5f60208201905061705e5f83018461703c565b92915050565b5f604051905090565b5f80fd5b5f80fd5b5f80fd5b5f80fd5b5f80fd5b5f8083601f84011261709657617095617075565b5b8235905067ffffffffffffffff8111156170b3576170b2617079565b5b6020830191508360018202830111156170cf576170ce61707d565b5b9250929050565b5f80602083850312156170ec576170eb61706d565b5b5f83013567ffffffffffffffff81111561710957617108617071565b5b61711585828601617081565b92509250509250929050565b5f73ffffffffffffffffffffffffffffffffffffffff82169050919050565b5f61714a82617121565b9050919050565b61715a81617140565b8114617164575f80fd5b50565b5f8135905061717581617151565b92915050565b5f602082840312156171905761718f61706d565b5b5f61719d84828501617167565b91505092915050565b6171af81617140565b82525050565b5f6020820190506171c85f8301846171a6565b92915050565b5f8160060b9050919050565b6171e3816171ce565b82525050565b5f6020820190506171fc5f8301846171da565b92915050565b61720b81617030565b8114617215575f80fd5b50565b5f8135905061722681617202565b92915050565b5f602082840312156172415761724061706d565b5b5f61724e84828501617218565b91505092915050565b5f63ffffffff82169050919050565b61726f81617257565b8114617279575f80fd5b50565b5f8135905061728a81617266565b92915050565b5f602082840312156172a5576172a461706d565b5b5f6172b28482850161727c565b91505092915050565b5f81519050919050565b5f82825260208201905092915050565b5f5b838110156172f25780820151818401526020810190506172d7565b5f8484015250505050565b5f601f19601f8301169050919050565b5f617317826172bb565b61732181856172c5565b93506173318185602086016172d5565b61733a816172fd565b840191505092915050565b5f6020820190508181035f83015261735d818461730d565b905092915050565b5f819050919050565b61737781617365565b82525050565b5f6040820190506173905f83018561736e565b61739d602083018461736e565b9392505050565b5f81519050919050565b5f82825260208201905092915050565b5f819050602082019050919050565b6173d681617140565b82525050565b5f6173e783836173cd565b60208301905092915050565b5f602082019050919050565b5f617409826173a4565b61741381856173ae565b935061741e836173be565b805f5b8381101561744e57815161743588826173dc565b9750617440836173f3565b925050600181019050617421565b5085935050505092915050565b5f6020820190508181035f83015261747381846173ff565b905092915050565b617484816171ce565b811461748e575f80fd5b50565b5f8135905061749f8161747b565b92915050565b5f602082840312156174ba576174b961706d565b5b5f6174c784828501617491565b91505092915050565b6174d981617257565b82525050565b5f6020820190506174f25f8301846174d0565b92915050565b61750181616fd8565b811461750b575f80fd5b50565b5f8135905061751c816174f8565b92915050565b5f602082840312156175375761753661706d565b5b5f6175448482850161750e565b91505092915050565b5f80604083850312156175635761756261706d565b5b5f6175708582860161750e565b92505060206175818582860161750e565b9150509250929050565b5f8115159050919050565b61759f8161758b565b82525050565b5f6020820190506175b85f830184617596565b92915050565b5f80fd5b5f608082840312156175d7576175d66175be565b5b81905092915050565b5f805f805f805f80610120898b0312156175fd576175fc61706d565b5b5f61760a8b828c01617167565b985050602061761b8b828c01617167565b975050604061762c8b828c01617218565b965050606089013567ffffffffffffffff81111561764d5761764c617071565b5b6176598b828c01617081565b9550955050608089013567ffffffffffffffff81111561767c5761767b617071565b5b6176888b828c01617081565b935093505060a061769b8b828c016175c2565b9150509295985092959890939650565b5f6040820190506176be5f83018561703c565b6176cb602083018461703c565b9392505050565b6176db81616fd8565b82525050565b5f81519050919050565b5f82825260208201905092915050565b5f617705826176e1565b61770f81856176eb565b935061771f8185602086016172d5565b617728816172fd565b840191505092915050565b61773c8161758b565b82525050565b5f60c083015f8301516177575f8601826176d2565b50602083015161776a60208601826176d2565b50604083015161777d60408601826176d2565b50606083015161779060608601826176d2565b50608083015184820360808601526177a882826176fb565b91505060a08301516177bd60a0860182617733565b508091505092915050565b5f606083015f8301518482035f8601526177e28282617742565b91505060208301516177f760208601826176d2565b50604083015161780a60408601826176d2565b508091505092915050565b5f6020820190508181035f83015261782d81846177c8565b905092915050565b61783e81617121565b82525050565b5f6020820190506178575f830184617835565b92915050565b5f819050919050565b5f61788061787b61787684617121565b61785d565b617121565b9050919050565b5f61789182617866565b9050919050565b5f6178a282617887565b9050919050565b6178b281617898565b82525050565b5f6020820190506178cb5f8301846178a9565b92915050565b5f80fd5b7f4e487b71000000000000000000000000000000000000000000000000000000005f52604160045260245ffd5b61790b826172fd565b810181811067ffffffffffffffff8211171561792a576179296178d5565b5b80604052505050565b5f61793c617064565b90506179488282617902565b919050565b5f67ffffffffffffffff821115617967576179666178d5565b5b617970826172fd565b9050602081019050919050565b828183375f83830152505050565b5f61799d6179988461794d565b617933565b9050828152602081018484840111156179b9576179b86178d1565b5b6179c484828561797d565b509392505050565b5f82601f8301126179e0576179df617075565b5b81356179f084826020860161798b565b91505092915050565b5f805f60608486031215617a1057617a0f61706d565b5b5f617a1d8682870161750e565b9350506020617a2e8682870161750e565b925050604084013567ffffffffffffffff811115617a4f57617a4e617071565b5b617a5b868287016179cc565b9150509250925092565b5f608082019050617a785f830187616fe1565b617a856020830186616fe1565b617a926040830185616fe1565b617a9f6060830184616fe1565b95945050505050565b5f617ab282617887565b9050919050565b617ac281617aa8565b82525050565b5f602082019050617adb5f830184617ab9565b92915050565b5f60c082019050617af45f830189616fe1565b617b016020830188616fe1565b617b0e6040830187616fe1565b617b1b6060830186616fe1565b617b286080830185616fe1565b617b3560a0830184616fe1565b979650505050505050565b5f81519050617b4e816174f8565b92915050565b5f60208284031215617b6957617b6861706d565b5b5f617b7684828501617b40565b91505092915050565b617b8881617121565b8114617b92575f80fd5b50565b5f81519050617ba381617b7f565b92915050565b5f81519050617bb781617202565b92915050565b5f61ffff82169050919050565b617bd381617bbd565b8114617bdd575f80fd5b50565b5f81519050617bee81617bca565b92915050565b5f81519050617c0281617266565b92915050565b617c118161758b565b8114617c1b575f80fd5b50565b5f81519050617c2c81617c08565b92915050565b5f805f805f805f60e0888a031215617c4d57617c4c61706d565b5b5f617c5a8a828b01617b95565b9750506020617c6b8a828b01617ba9565b9650506040617c7c8a828b01617be0565b9550506060617c8d8a828b01617be0565b9450506080617c9e8a828b01617be0565b93505060a0617caf8a828b01617bf4565b92505060c0617cc08a828b01617c1e565b91505092959891949750929550565b7f4e487b71000000000000000000000000000000000000000000000000000000005f52603260045260245ffd5b7f4e487b71000000000000000000000000000000000000000000000000000000005f52601160045260245ffd5b5f617d3382616fd8565b9150617d3e83616fd8565b9250828203905081811115617d5657617d55617cfc565b5b92915050565b5f82905092915050565b7f4e487b71000000000000000000000000000000000000000000000000000000005f52602260045260245ffd5b5f6002820490506001821680617daa57607f821691505b602082108103617dbd57617dbc617d66565b5b50919050565b5f819050815f5260205f209050919050565b5f6020601f8301049050919050565b5f82821b905092915050565b5f60088302617e1f7fffffffffffffffffffffffffffffffffffffffffffffffffffffffffffffffff82617de4565b617e298683617de4565b95508019841693508086168417925050509392505050565b5f617e5b617e56617e5184616fd8565b61785d565b616fd8565b9050919050565b5f819050919050565b617e7483617e41565b617e88617e8082617e62565b848454617df0565b825550505050565b5f90565b617e9c617e90565b617ea7818484617e6b565b505050565b5b81811015617eca57617ebf5f82617e94565b600181019050617ead565b5050565b601f821115617f0f57617ee081617dc3565b617ee984617dd5565b81016020851015617ef8578190505b617f0c617f0485617dd5565b830182617eac565b50505b505050565b5f82821c905092915050565b5f617f2f5f1984600802617f14565b1980831691505092915050565b5f617f478383617f20565b9150826002028217905092915050565b617f618383617d5c565b67ffffffffffffffff811115617f7a57617f796178d5565b5b617f848254617d93565b617f8f828285617ece565b5f601f831160018114617fbc575f8415617faa578287013590505b617fb48582617f3c565b86555061801b565b601f198416617fca86617dc3565b5f5b82811015617ff157848901358255600182019150602085019450602081019050617fcc565b8683101561800e578489013561800a601f891682617f20565b8355505b6001600288020188555050505b50505050505050565b5f61802f83856172c5565b935061803c83858461797d565b618045836172fd565b840190509392505050565b5f6020820190508181035f830152618069818486618024565b90509392505050565b5f81519050919050565b5f82825260208201905092915050565b5f819050602082019050919050565b6180a481617257565b82525050565b5f6180b5838361809b565b60208301905092915050565b5f602082019050919050565b5f6180d782618072565b6180e1818561807c565b93506180ec8361808c565b805f5b8381101561811c57815161810388826180aa565b975061810e836180c1565b9250506001810190506180ef565b5085935050505092915050565b5f6020820190508181035f83015261814181846180cd565b905092915050565b5f67ffffffffffffffff821115618163576181626178d5565b5b602082029050602081019050919050565b5f815190506181828161747b565b92915050565b5f61819a61819584618149565b617933565b905080838252602082019050602084028301858111156181bd576181bc61707d565b5b835b818110156181e657806181d28882618174565b8452602084019350506020810190506181bf565b5050509392505050565b5f82601f83011261820457618203617075565b5b8151618214848260208601618188565b91505092915050565b5f67ffffffffffffffff821115618237576182366178d5565b5b602082029050602081019050919050565b5f61825a6182558461821d565b617933565b9050808382526020820190506020840283018581111561827d5761827c61707d565b5b835b818110156182a657806182928882617b95565b84526020840193505060208101905061827f565b5050509392505050565b5f82601f8301126182c4576182c3617075565b5b81516182d4848260208601618248565b91505092915050565b5f80604083850312156182f3576182f261706d565b5b5f83015167ffffffffffffffff8111156183105761830f617071565b5b61831c858286016181f0565b925050602083015167ffffffffffffffff81111561833d5761833c617071565b5b618349858286016182b0565b9150509250929050565b5f61835d826171ce565b9150618368836171ce565b92508282039050667fffffffffffff81137fffffffffffffffffffffffffffffffffffffffffffffffffff80000000000000821217156183ab576183aa617cfc565b5b92915050565b7f4e487b71000000000000000000000000000000000000000000000000000000005f52601260045260245ffd5b5f6183e8826171ce565b91506183f3836171ce565b925082618403576184026183b1565b5b60015f0383147fffffffffffffffffffffffffffffffffffffffffffffffffff800000000000008314161561843b5761843a617cfc565b5b828205905092915050565b5f60ff82169050919050565b61845b81618446565b8114618465575f80fd5b50565b5f8151905061847681618452565b92915050565b5f602082840312156184915761849061706d565b5b5f61849e84828501618468565b91505092915050565b5f8160011c9050919050565b5f808291508390505b60018511156184fc578086048111156184d8576184d7617cfc565b5b60018516156184e75780820291505b80810290506184f5856184a7565b94506184bc565b94509492505050565b5f8261851457600190506185cf565b81618521575f90506185cf565b8160018114618537576002811461854157618570565b60019150506185cf565b60ff84111561855357618552617cfc565b5b8360020a91508482111561856a57618569617cfc565b5b506185cf565b5060208310610133831016604e8410600b84101617156185a55782820a9050838111156185a05761859f617cfc565b5b6185cf565b6185b284848460016184b3565b925090508184048111156185c9576185c8617cfc565b5b81810290505b9392505050565b5f6185e082616fd8565b91506185eb83618446565b92506186187fffffffffffffffffffffffffffffffffffffffffffffffffffffffffffffffff8484618505565b905092915050565b5f61862a82616fd8565b915061863583616fd8565b925082618645576186446183b1565b5b828204905092915050565b5f61865a82616fd8565b915061866583616fd8565b925082820261867381616fd8565b9150828204841483151761868a57618689617cfc565b5b5092915050565b5f815461869d81617d93565b6186a781866172c5565b9450600182165f81146186c157600181146186d757618709565b60ff198316865281151560200286019350618709565b6186e085617dc3565b5f5b83811015618701578154818901526001820191506020810190506186e2565b808801955050505b50505092915050565b5f6040820190508181035f83015261872a8185618691565b90506187396020830184616fe1565b9392505050565b5f6040820190506187535f8301856174d0565b61876060208301846174d0565b9392505050565b5f8160601b9050919050565b5f61877d82618767565b9050919050565b5f61878e82618773565b9050919050565b6187a66187a182617140565b618784565b82525050565b5f8160e81b9050919050565b5f6187c2826187ac565b9050919050565b6187da6187d582617030565b6187b8565b82525050565b5f6187eb8286618795565b6014820191506187fb82856187c9565b60038201915061880b82846187c9565b600382019150819050949350505050565b5f61882682617030565b915061883183617030565b925082820261883f81617030565b915080821461885157618850617cfc565b5b5092915050565b5f61886282616fd8565b915061886d83616fd8565b925082820190508082111561888557618884617cfc565b5b92915050565b5f62ffffff82169050919050565b6188a28161888b565b81146188ac575f80fd5b50565b5f815190506188bd81618899565b92915050565b5f602082840312156188d8576188d761706d565b5b5f6188e5848285016188af565b91505092915050565b5f82825260208201905092915050565b7f496e697469616c697a61626c653a20636f6e747261637420697320616c7265615f8201527f647920696e697469616c697a6564000000000000000000000000000000000000602082015250565b5f618958602e836188ee565b9150618963826188fe565b604082019050919050565b5f6020820190508181035f8301526189858161894c565b9050919050565b5f8151905061899a81617151565b92915050565b5f602082840312156189b5576189b461706d565b5b5f6189c28482850161898c565b91505092915050565b5f819050919050565b5f6189ee6189e96189e4846189cb565b61785d565b618446565b9050919050565b6189fe816189d4565b82525050565b5f602082019050618a175f8301846189f5565b92915050565b5f618a27826171ce565b9150618a32836171ce565b925082820190507fffffffffffffffffffffffffffffffffffffffffffffffffff800000000000008112667fffffffffffff82131715618a7557618a74617cfc565b5b92915050565b5f60208284031215618a9057618a8f61706d565b5b5f618a9d84828501617c1e565b91505092915050565b7f4f776e61626c653a206e6577206f776e657220697320746865207a65726f20615f8201527f6464726573730000000000000000000000000000000000000000000000000000602082015250565b5f618b006026836188ee565b9150618b0b82618aa6565b604082019050919050565b5f6020820190508181035f830152618b2d81618af4565b9050919050565b5f602082019050618b475f83018461736e565b92915050565b5f6fffffffffffffffffffffffffffffffff82169050919050565b618b7181618b4d565b8114618b7b575f80fd5b50565b5f81519050618b8c81618b68565b92915050565b5f805f805f60a08688031215618bab57618baa61706d565b5b5f618bb888828901618b7e565b9550506020618bc988828901617b40565b9450506040618bda88828901617b40565b9350506060618beb88828901618b7e565b9250506080618bfc88828901618b7e565b9150509295509295909350565b7f4f776e61626c653a2063616c6c6572206973206e6f7420746865206f776e65725f82015250565b5f618c3d6020836188ee565b9150618c4882618c09565b602082019050919050565b5f6020820190508181035f830152618c6a81618c31565b9050919050565b5f819050919050565b5f618c94618c8f618c8a84618c71565b61785d565b618b4d565b9050919050565b618ca481618c7a565b82525050565b5f606082019050618cbd5f83018661703c565b618cca602083018561703c565b618cd76040830184618c9b565b949350505050565b5f8060408385031215618cf557618cf461706d565b5b5f618d0285828601617b40565b9250506020618d1385828601617b40565b9150509250929050565b618d2681618b4d565b82525050565b5f60a082019050618d3f5f8301886171a6565b618d4c602083018761703c565b618d59604083018661703c565b618d666060830185618d1d565b618d736080830184618d1d565b9695505050505050565b5f8060408385031215618d9357618d9261706d565b5b5f618da085828601618b7e565b9250506020618db185828601618b7e565b9150509250929050565b5f606082019050618dce5f83018661703c565b618ddb602083018561703c565b618de86040830184618d1d565b949350505050565b7f506c65787573204d61696e0000000000000000000000000000000000000000005f82015250565b5f618e24600b836172c5565b9150618e2f82618df0565b602082019050919050565b5f60a082019050618e4d5f8301876171a6565b618e5a602083018661703c565b618e67604083018561703c565b618e746060830184618d1d565b8181036080830152618e8581618e18565b905095945050505050565b7f506c6578757320416c74000000000000000000000000000000000000000000005f82015250565b5f618ec4600a836172c5565b9150618ecf82618e90565b602082019050919050565b5f60a082019050618eed5f8301876171a6565b618efa602083018661703c565b618f07604083018561703c565b618f146060830184618d1d565b8181036080830152618f2581618eb8565b905095945050505050565b5f60208284031215618f4557618f4461706d565b5b5f618f5284828501617ba9565b91505092915050565b5f604082019050618f6e5f8301856171a6565b618f7b6020830184616fe1565b9392505050565b7f496e697469616c697a61626c653a20636f6e7472616374206973206e6f7420695f8201527f6e697469616c697a696e67000000000000000000000000000000000000000000602082015250565b5f618fdc602b836188ee565b9150618fe782618f82565b604082019050919050565b5f6020820190508181035f83015261900981618fd0565b9050919050565b5f80fd5b5f80fd5b5f67ffffffffffffffff821115619032576190316178d5565b5b61903b826172fd565b9050602081019050919050565b5f61905a61905584619018565b617933565b905082815260208101848484011115619076576190756178d1565b5b6190818482856172d5565b509392505050565b5f82601f83011261909d5761909c617075565b5b81516190ad848260208601619048565b91505092915050565b5f60c082840312156190cb576190ca619010565b5b6190d560c0617933565b90505f6190e484828501617b40565b5f8301525060206190f784828501617b40565b602083015250604061910b84828501617b40565b604083015250606061911f84828501617b40565b606083015250608082015167ffffffffffffffff81111561914357619142619014565b5b61914f84828501619089565b60808301525060a061916384828501617c1e565b60a08301525092915050565b5f602082840312156191845761918361706d565b5b5f82015167ffffffffffffffff8111156191a1576191a0617071565b5b6191ad848285016190b6565b91505092915050565b7f54000000000000000000000000000000000000000000000000000000000000005f82015250565b5f6191ea6001836188ee565b91506191f5826191b6565b602082019050919050565b5f6020820190508181035f830152619217816191de565b9050919050565b5f6060820190506192315f8301866171a6565b61923e60208301856171a6565b61924b6040830184616fe1565b949350505050565b5f61926d61926861926384618c71565b61785d565b618446565b9050919050565b61927d81619253565b82525050565b5f6040820190506192965f8301856171a6565b6192a36020830184619274565b9392505050565b7f5061757361626c653a206e6f74207061757365640000000000000000000000005f82015250565b5f6192de6014836188ee565b91506192e9826192aa565b602082019050919050565b5f6020820190508181035f83015261930b816192d2565b9050919050565b7f5361666545524332303a204552433230206f7065726174696f6e20646964206e5f8201527f6f74207375636365656400000000000000000000000000000000000000000000602082015250565b5f61936c602a836188ee565b915061937782619312565b604082019050919050565b5f6020820190508181035f83015261939981619360565b9050919050565b7f5061757361626c653a20706175736564000000000000000000000000000000005f82015250565b5f6193d46010836188ee565b91506193df826193a0565b602082019050919050565b5f6020820190508181035f830152619401816193c8565b9050919050565b5f61941282617121565b915061941d83617121565b9250828203905073ffffffffffffffffffffffffffffffffffffffff81111561944957619448617cfc565b5b92915050565b7f746f416464726573735f6f75744f66426f756e647300000000000000000000005f82015250565b5f6194836015836188ee565b915061948e8261944f565b602082019050919050565b5f6020820190508181035f8301526194b081619477565b9050919050565b7f746f55696e7432345f6f766572666c6f770000000000000000000000000000005f82015250565b5f6194eb6011836188ee565b91506194f6826194b7565b602082019050919050565b5f6020820190508181035f830152619518816194df565b9050919050565b7f746f55696e7432345f6f75744f66426f756e64730000000000000000000000005f82015250565b5f6195536014836188ee565b915061955e8261951f565b602082019050919050565b5f6020820190508181035f83015261958081619547565b9050919050565b7f736c6963655f6f766572666c6f770000000000000000000000000000000000005f82015250565b5f6195bb600e836188ee565b91506195c682619587565b602082019050919050565b5f6020820190508181035f8301526195e8816195af565b9050919050565b7f736c6963655f6f75744f66426f756e64730000000000000000000000000000005f82015250565b5f6196236011836188ee565b915061962e826195ef565b602082019050919050565b5f6020820190508181035f83015261965081619617565b9050919050565b5f61966182617030565b915061966c83617030565b92508282039050627fffff81137fffffffffffffffffffffffffffffffffffffffffffffffffffffffffff800000821217156196ab576196aa617cfc565b5b92915050565b5f6196bb82617030565b91506196c683617030565b925082820190507fffffffffffffffffffffffffffffffffffffffffffffffffffffffffff8000008112627fffff8213171561970557619704617cfc565b5b92915050565b5f81905092915050565b5f61971f826172bb565b619729818561970b565b93506197398185602086016172d5565b80840191505092915050565b5f6197508284619715565b915081905092915050565b5f61976582617030565b915061977083617030565b9250826197805761977f6183b1565b5b60015f0383147fffffffffffffffffffffffffffffffffffffffffffffffffffffffffff800000831416156197b8576197b7617cfc565b5b828205905092915050565b5f6197cd82617030565b91506197d883617030565b9250826197e8576197e76183b1565b5b828207905092915050565b5f6197fd82617030565b91507fffffffffffffffffffffffffffffffffffffffffffffffffffffffffff800000820361982f5761982e617cfc565b5b600182039050919050565b7f416464726573733a20696e73756666696369656e742062616c616e636520666f5f8201527f722063616c6c0000000000000000000000000000000000000000000000000000602082015250565b5f6198946026836188ee565b915061989f8261983a565b604082019050919050565b5f6020820190508181035f8301526198c181619888565b9050919050565b7f416464726573733a2063616c6c20746f206e6f6e2d636f6e74726163740000005f82015250565b5f6198fc601d836188ee565b9150619907826198c8565b602082019050919050565b5f6020820190508181035f830152619929816198f0565b9050919050565b5f61993a826176e1565b61994481856188ee565b93506199548185602086016172d5565b61995d816172fd565b840191505092915050565b5f6020820190508181035f8301526199808184619930565b90509291505056fea2646970667358221220ff6119f077d6b85def1b6c70c9a1f3f4496ffab6cc8df3586c2fc435f1a394f564736f6c63430008170033",
			"opcodes": "PUSH1 0x80 PUSH1 0x40 MSTORE CALLVALUE DUP1 ISZERO PUSH3 0x10 JUMPI PUSH0 DUP1 REVERT JUMPDEST POP PUSH3 0x21 PUSH3 0x27 PUSH1 0x20 SHL PUSH1 0x20 SHR JUMP JUMPDEST PUSH3 0x1C6 JUMP JUMPDEST PUSH0 PUSH1 0x1 SWAP1 SLOAD SWAP1 PUSH2 0x100 EXP SWAP1 DIV PUSH1 0xFF AND ISZERO PUSH3 0x79 JUMPI PUSH1 0x40 MLOAD PUSH32 0x8C379A000000000000000000000000000000000000000000000000000000000 DUP2 MSTORE PUSH1 0x4 ADD PUSH3 0x70 SWAP1 PUSH3 0x16E JUMP JUMPDEST PUSH1 0x40 MLOAD DUP1 SWAP2 SUB SWAP1 REVERT JUMPDEST PUSH1 0xFF DUP1 AND PUSH0 DUP1 SLOAD SWAP1 PUSH2 0x100 EXP SWAP1 DIV PUSH1 0xFF AND PUSH1 0xFF AND EQ PUSH3 0xE8 JUMPI PUSH1 0xFF PUSH0 DUP1 PUSH2 0x100 EXP DUP2 SLOAD DUP2 PUSH1 0xFF MUL NOT AND SWAP1 DUP4 PUSH1 0xFF AND MUL OR SWAP1 SSTORE POP PUSH32 0x7F26B83FF96E1F2B6A682F133852F6798A09C465DA95921460CEFB3847402498 PUSH1 0xFF PUSH1 0x40 MLOAD PUSH3 0xDF SWAP2 SWAP1 PUSH3 0x1AB JUMP JUMPDEST PUSH1 0x40 MLOAD DUP1 SWAP2 SUB SWAP1 LOG1 JUMPDEST JUMP JUMPDEST PUSH0 DUP3 DUP3 MSTORE PUSH1 0x20 DUP3 ADD SWAP1 POP SWAP3 SWAP2 POP POP JUMP JUMPDEST PUSH32 0x496E697469616C697A61626C653A20636F6E747261637420697320696E697469 PUSH0 DUP3 ADD MSTORE PUSH32 0x616C697A696E6700000000000000000000000000000000000000000000000000 PUSH1 0x20 DUP3 ADD MSTORE POP JUMP JUMPDEST PUSH0 PUSH3 0x156 PUSH1 0x27 DUP4 PUSH3 0xEA JUMP JUMPDEST SWAP2 POP PUSH3 0x163 DUP3 PUSH3 0xFA JUMP JUMPDEST PUSH1 0x40 DUP3 ADD SWAP1 POP SWAP2 SWAP1 POP JUMP JUMPDEST PUSH0 PUSH1 0x20 DUP3 ADD SWAP1 POP DUP2 DUP2 SUB PUSH0 DUP4 ADD MSTORE PUSH3 0x187 DUP2 PUSH3 0x148 JUMP JUMPDEST SWAP1 POP SWAP2 SWAP1 POP JUMP JUMPDEST PUSH0 PUSH1 0xFF DUP3 AND SWAP1 POP SWAP2 SWAP1 POP JUMP JUMPDEST PUSH3 0x1A5 DUP2 PUSH3 0x18E JUMP JUMPDEST DUP3 MSTORE POP POP JUMP JUMPDEST PUSH0 PUSH1 0x20 DUP3 ADD SWAP1 POP PUSH3 0x1C0 PUSH0 DUP4 ADD DUP5 PUSH3 0x19A JUMP JUMPDEST SWAP3 SWAP2 POP POP JUMP JUMPDEST PUSH2 0x99BE DUP1 PUSH3 0x1D4 PUSH0 CODECOPY PUSH0 RETURN INVALID PUSH1 0x80 PUSH1 0x40 MSTORE CALLVALUE DUP1 ISZERO PUSH2 0xF JUMPI PUSH0 DUP1 REVERT JUMPDEST POP PUSH1 0x4 CALLDATASIZE LT PUSH2 0x404 JUMPI PUSH0 CALLDATALOAD PUSH1 0xE0 SHR DUP1 PUSH4 0x7BB98A68 GT PUSH2 0x21E JUMPI DUP1 PUSH4 0xB83D2683 GT PUSH2 0x12E JUMPI DUP1 PUSH4 0xD92F3D73 GT PUSH2 0xB6 JUMPI DUP1 PUSH4 0xE97206A9 GT PUSH2 0x85 JUMPI DUP1 PUSH4 0xE97206A9 EQ PUSH2 0xAEB JUMPI DUP1 PUSH4 0xF1A392DA EQ PUSH2 0xB0A JUMPI DUP1 PUSH4 0xF2FDE38B EQ PUSH2 0xB28 JUMPI DUP1 PUSH4 0xFBFA77CF EQ PUSH2 0xB44 JUMPI DUP1 PUSH4 0xFCC25E13 EQ PUSH2 0xB62 JUMPI PUSH2 0x404 JUMP JUMPDEST DUP1 PUSH4 0xD92F3D73 EQ PUSH2 0xA72 JUMPI DUP1 PUSH4 0xD9CEAB13 EQ PUSH2 0xA8E JUMPI DUP1 PUSH4 0xE8EDD3E8 EQ PUSH2 0xAAF JUMPI DUP1 PUSH4 0xE941FA78 EQ PUSH2 0xACD JUMPI PUSH2 0x404 JUMP JUMPDEST DUP1 PUSH4 0xC6EBD4AE GT PUSH2 0xFD JUMPI DUP1 PUSH4 0xC6EBD4AE EQ PUSH2 0xA08 JUMPI DUP1 PUSH4 0xC7B9D530 EQ PUSH2 0xA26 JUMPI DUP1 PUSH4 0xC7D54132 EQ PUSH2 0xA42 JUMPI DUP1 PUSH4 0xD0E30DB0 EQ PUSH2 0xA4C JUMPI DUP1 PUSH4 0xD3487997 EQ PUSH2 0xA56 JUMPI PUSH2 0x404 JUMP JUMPDEST DUP1 PUSH4 0xB83D2683 EQ PUSH2 0x98F JUMPI DUP1 PUSH4 0xBC415D8A EQ PUSH2 0x9AD JUMPI DUP1 PUSH4 0xC45A0155 EQ PUSH2 0x9CC JUMPI DUP1 PUSH4 0xC6BBD5A7 EQ PUSH2 0x9EA JUMPI PUSH2 0x404 JUMP JUMPDEST DUP1 PUSH4 0x93F1C442 GT PUSH2 0x1B1 JUMPI DUP1 PUSH4 0x9C6D4904 GT PUSH2 0x180 JUMPI DUP1 PUSH4 0x9C6D4904 EQ PUSH2 0x90D JUMPI DUP1 PUSH4 0xA035B1FE EQ PUSH2 0x92B JUMPI DUP1 PUSH4 0xACED1661 EQ PUSH2 0x949 JUMPI DUP1 PUSH4 0xB20FEAAF EQ PUSH2 0x967 JUMPI DUP1 PUSH4 0xB3A60CB3 EQ PUSH2 0x985 JUMPI PUSH2 0x404 JUMP JUMPDEST DUP1 PUSH4 0x93F1C442 EQ PUSH2 0x894 JUMPI DUP1 PUSH4 0x953D329F EQ PUSH2 0x8B2 JUMPI DUP1 PUSH4 0x99CD2446 EQ PUSH2 0x8D0 JUMPI DUP1 PUSH4 0x9BDDE46B EQ PUSH2 0x8EF JUMPI PUSH2 0x404 JUMP JUMPDEST DUP1 PUSH4 0x8683ED5B GT PUSH2 0x1ED JUMPI DUP1 PUSH4 0x8683ED5B EQ PUSH2 0x81C JUMPI DUP1 PUSH4 0x877562B6 EQ PUSH2 0x83A JUMPI DUP1 PUSH4 0x8CFC0250 EQ PUSH2 0x858 JUMPI DUP1 PUSH4 0x8DA5CB5B EQ PUSH2 0x876 JUMPI PUSH2 0x404 JUMP JUMPDEST DUP1 PUSH4 0x7BB98A68 EQ PUSH2 0x7A5 JUMPI DUP1 PUSH4 0x7F10E4B9 EQ PUSH2 0x7C4 JUMPI DUP1 PUSH4 0x8097E249 EQ PUSH2 0x7E0 JUMPI DUP1 PUSH4 0x865238D4 EQ PUSH2 0x7FE JUMPI PUSH2 0x404 JUMP JUMPDEST DUP1 PUSH4 0x2B950B66 GT PUSH2 0x319 JUMPI DUP1 PUSH4 0x4641257D GT PUSH2 0x2AC JUMPI DUP1 PUSH4 0x5EE167C0 GT PUSH2 0x27B JUMPI DUP1 PUSH4 0x5EE167C0 EQ PUSH2 0x725 JUMPI DUP1 PUSH4 0x60991346 EQ PUSH2 0x743 JUMPI DUP1 PUSH4 0x67A52793 EQ PUSH2 0x75F JUMPI DUP1 PUSH4 0x696C58E5 EQ PUSH2 0x77D JUMPI DUP1 PUSH4 0x715018A6 EQ PUSH2 0x79B JUMPI PUSH2 0x404 JUMP JUMPDEST DUP1 PUSH4 0x4641257D EQ PUSH2 0x6C1 JUMPI DUP1 PUSH4 0x4C02A21C EQ PUSH2 0x6CB JUMPI DUP1 PUSH4 0x54CF2AEB EQ PUSH2 0x6E9 JUMPI DUP1 PUSH4 0x5C975ABB EQ PUSH2 0x707 JUMPI PUSH2 0x404 JUMP JUMPDEST DUP1 PUSH4 0x3E55F932 GT PUSH2 0x2E8 JUMPI DUP1 PUSH4 0x3E55F932 EQ PUSH2 0x660 JUMPI DUP1 PUSH4 0x3F4BA83A EQ PUSH2 0x67C JUMPI DUP1 PUSH4 0x441A3E70 EQ PUSH2 0x686 JUMPI DUP1 PUSH4 0x44B81396 EQ PUSH2 0x6A2 JUMPI PUSH2 0x404 JUMP JUMPDEST DUP1 PUSH4 0x2B950B66 EQ PUSH2 0x5EA JUMPI DUP1 PUSH4 0x2E773D32 EQ PUSH2 0x608 JUMPI DUP1 PUSH4 0x362C28C6 EQ PUSH2 0x626 JUMPI DUP1 PUSH4 0x3C1D5DF0 EQ PUSH2 0x642 JUMPI PUSH2 0x404 JUMP JUMPDEST DUP1 PUSH4 0x16B9CD9C GT PUSH2 0x39C JUMPI DUP1 PUSH4 0x1DCFEDDD GT PUSH2 0x36B JUMPI DUP1 PUSH4 0x1DCFEDDD EQ PUSH2 0x555 JUMPI DUP1 PUSH4 0x1FE4A686 EQ PUSH2 0x573 JUMPI DUP1 PUSH4 0x2150C518 EQ PUSH2 0x591 JUMPI DUP1 PUSH4 0x236DB042 EQ PUSH2 0x5B0 JUMPI DUP1 PUSH4 0x257AE0DE EQ PUSH2 0x5CC JUMPI PUSH2 0x404 JUMP JUMPDEST DUP1 PUSH4 0x16B9CD9C EQ PUSH2 0x4F3 JUMPI DUP1 PUSH4 0x16F0115B EQ PUSH2 0x511 JUMPI DUP1 PUSH4 0x17DD7A72 EQ PUSH2 0x52F JUMPI DUP1 PUSH4 0x1D27050F EQ PUSH2 0x539 JUMPI PUSH2 0x404 JUMP JUMPDEST DUP1 PUSH4 0xE5C011E GT PUSH2 0x3D8 JUMPI DUP1 PUSH4 0xE5C011E EQ PUSH2 0x47F JUMPI DUP1 PUSH4 0x11B0B42D EQ PUSH2 0x49B JUMPI DUP1 PUSH4 0x1208AA18 EQ PUSH2 0x4B9 JUMPI DUP1 PUSH4 0x12CF1381 EQ PUSH2 0x4D7 JUMPI PUSH2 0x404 JUMP JUMPDEST DUP1 PUSH3 0xA4B5C9 EQ PUSH2 0x408 JUMPI DUP1 PUSH4 0x4C404B3 EQ PUSH2 0x427 JUMPI DUP1 PUSH4 0x65E5360 EQ PUSH2 0x445 JUMPI DUP1 PUSH4 0x8898EA0 EQ PUSH2 0x463 JUMPI JUMPDEST PUSH0 DUP1 REVERT JUMPDEST PUSH2 0x410 PUSH2 0xB85 JUMP JUMPDEST PUSH1 0x40 MLOAD PUSH2 0x41E SWAP3 SWAP2 SWAP1 PUSH2 0x6FF0 JUMP JUMPDEST PUSH1 0x40 MLOAD DUP1 SWAP2 SUB SWAP1 RETURN JUMPDEST PUSH2 0x42F PUSH2 0xCC1 JUMP JUMPDEST PUSH1 0x40 MLOAD PUSH2 0x43C SWAP2 SWAP1 PUSH2 0x7017 JUMP JUMPDEST PUSH1 0x40 MLOAD DUP1 SWAP2 SUB SWAP1 RETURN JUMPDEST PUSH2 0x44D PUSH2 0xCC7 JUMP JUMPDEST PUSH1 0x40 MLOAD PUSH2 0x45A SWAP2 SWAP1 PUSH2 0x704B JUMP JUMPDEST PUSH1 0x40 MLOAD DUP1 SWAP2 SUB SWAP1 RETURN JUMPDEST PUSH2 0x47D PUSH1 0x4 DUP1 CALLDATASIZE SUB DUP2 ADD SWAP1 PUSH2 0x478 SWAP2 SWAP1 PUSH2 0x70D6 JUMP JUMPDEST PUSH2 0xD73 JUMP JUMPDEST STOP JUMPDEST PUSH2 0x499 PUSH1 0x4 DUP1 CALLDATASIZE SUB DUP2 ADD SWAP1 PUSH2 0x494 SWAP2 SWAP1 PUSH2 0x717B JUMP JUMPDEST PUSH2 0xF73 JUMP JUMPDEST STOP JUMPDEST PUSH2 0x4A3 PUSH2 0xF7F JUMP JUMPDEST PUSH1 0x40 MLOAD PUSH2 0x4B0 SWAP2 SWAP1 PUSH2 0x71B5 JUMP JUMPDEST PUSH1 0x40 MLOAD DUP1 SWAP2 SUB SWAP1 RETURN JUMPDEST PUSH2 0x4C1 PUSH2 0xFA4 JUMP JUMPDEST PUSH1 0x40 MLOAD PUSH2 0x4CE SWAP2 SWAP1 PUSH2 0x71E9 JUMP JUMPDEST PUSH1 0x40 MLOAD DUP1 SWAP2 SUB SWAP1 RETURN JUMPDEST PUSH2 0x4F1 PUSH1 0x4 DUP1 CALLDATASIZE SUB DUP2 ADD SWAP1 PUSH2 0x4EC SWAP2 SWAP1 PUSH2 0x722C JUMP JUMPDEST PUSH2 0x1169 JUMP JUMPDEST STOP JUMPDEST PUSH2 0x4FB PUSH2 0x1200 JUMP JUMPDEST PUSH1 0x40 MLOAD PUSH2 0x508 SWAP2 SWAP1 PUSH2 0x7017 JUMP JUMPDEST PUSH1 0x40 MLOAD DUP1 SWAP2 SUB SWAP1 RETURN JUMPDEST PUSH2 0x519 PUSH2 0x13E4 JUMP JUMPDEST PUSH1 0x40 MLOAD PUSH2 0x526 SWAP2 SWAP1 PUSH2 0x71B5 JUMP JUMPDEST PUSH1 0x40 MLOAD DUP1 SWAP2 SUB SWAP1 RETURN JUMPDEST PUSH2 0x537 PUSH2 0x1409 JUMP JUMPDEST STOP JUMPDEST PUSH2 0x553 PUSH1 0x4 DUP1 CALLDATASIZE SUB DUP2 ADD SWAP1 PUSH2 0x54E SWAP2 SWAP1 PUSH2 0x7290 JUMP JUMPDEST PUSH2 0x1427 JUMP JUMPDEST STOP JUMPDEST PUSH2 0x55D PUSH2 0x14DF JUMP JUMPDEST PUSH1 0x40 MLOAD PUSH2 0x56A SWAP2 SWAP1 PUSH2 0x7345 JUMP JUMPDEST PUSH1 0x40 MLOAD DUP1 SWAP2 SUB SWAP1 RETURN JUMPDEST PUSH2 0x57B PUSH2 0x156B JUMP JUMPDEST PUSH1 0x40 MLOAD PUSH2 0x588 SWAP2 SWAP1 PUSH2 0x71B5 JUMP JUMPDEST PUSH1 0x40 MLOAD DUP1 SWAP2 SUB SWAP1 RETURN JUMPDEST PUSH2 0x599 PUSH2 0x1590 JUMP JUMPDEST PUSH1 0x40 MLOAD PUSH2 0x5A7 SWAP3 SWAP2 SWAP1 PUSH2 0x737D JUMP JUMPDEST PUSH1 0x40 MLOAD DUP1 SWAP2 SUB SWAP1 RETURN JUMPDEST PUSH2 0x5CA PUSH1 0x4 DUP1 CALLDATASIZE SUB DUP2 ADD SWAP1 PUSH2 0x5C5 SWAP2 SWAP1 PUSH2 0x70D6 JUMP JUMPDEST PUSH2 0x1632 JUMP JUMPDEST STOP JUMPDEST PUSH2 0x5D4 PUSH2 0x1832 JUMP JUMPDEST PUSH1 0x40 MLOAD PUSH2 0x5E1 SWAP2 SWAP1 PUSH2 0x71B5 JUMP JUMPDEST PUSH1 0x40 MLOAD DUP1 SWAP2 SUB SWAP1 RETURN JUMPDEST PUSH2 0x5F2 PUSH2 0x1857 JUMP JUMPDEST PUSH1 0x40 MLOAD PUSH2 0x5FF SWAP2 SWAP1 PUSH2 0x7017 JUMP JUMPDEST PUSH1 0x40 MLOAD DUP1 SWAP2 SUB SWAP1 RETURN JUMPDEST PUSH2 0x610 PUSH2 0x185D JUMP JUMPDEST PUSH1 0x40 MLOAD PUSH2 0x61D SWAP2 SWAP1 PUSH2 0x745B JUMP JUMPDEST PUSH1 0x40 MLOAD DUP1 SWAP2 SUB SWAP1 RETURN JUMPDEST PUSH2 0x640 PUSH1 0x4 DUP1 CALLDATASIZE SUB DUP2 ADD SWAP1 PUSH2 0x63B SWAP2 SWAP1 PUSH2 0x74A5 JUMP JUMPDEST PUSH2 0x195B JUMP JUMPDEST STOP JUMPDEST PUSH2 0x64A PUSH2 0x1A19 JUMP JUMPDEST PUSH1 0x40 MLOAD PUSH2 0x657 SWAP2 SWAP1 PUSH2 0x74DF JUMP JUMPDEST PUSH1 0x40 MLOAD DUP1 SWAP2 SUB SWAP1 RETURN JUMPDEST PUSH2 0x67A PUSH1 0x4 DUP1 CALLDATASIZE SUB DUP2 ADD SWAP1 PUSH2 0x675 SWAP2 SWAP1 PUSH2 0x7522 JUMP JUMPDEST PUSH2 0x1A2F JUMP JUMPDEST STOP JUMPDEST PUSH2 0x684 PUSH2 0x1B83 JUMP JUMPDEST STOP JUMPDEST PUSH2 0x6A0 PUSH1 0x4 DUP1 CALLDATASIZE SUB DUP2 ADD SWAP1 PUSH2 0x69B SWAP2 SWAP1 PUSH2 0x754D JUMP JUMPDEST PUSH2 0x1CBE JUMP JUMPDEST STOP JUMPDEST PUSH2 0x6AA PUSH2 0x1E14 JUMP JUMPDEST PUSH1 0x40 MLOAD PUSH2 0x6B8 SWAP3 SWAP2 SWAP1 PUSH2 0x6FF0 JUMP JUMPDEST PUSH1 0x40 MLOAD DUP1 SWAP2 SUB SWAP1 RETURN JUMPDEST PUSH2 0x6C9 PUSH2 0x1F22 JUMP JUMPDEST STOP JUMPDEST PUSH2 0x6D3 PUSH2 0x1F2D JUMP JUMPDEST PUSH1 0x40 MLOAD PUSH2 0x6E0 SWAP2 SWAP1 PUSH2 0x7017 JUMP JUMPDEST PUSH1 0x40 MLOAD DUP1 SWAP2 SUB SWAP1 RETURN JUMPDEST PUSH2 0x6F1 PUSH2 0x1F33 JUMP JUMPDEST PUSH1 0x40 MLOAD PUSH2 0x6FE SWAP2 SWAP1 PUSH2 0x7017 JUMP JUMPDEST PUSH1 0x40 MLOAD DUP1 SWAP2 SUB SWAP1 RETURN JUMPDEST PUSH2 0x70F PUSH2 0x1FED JUMP JUMPDEST PUSH1 0x40 MLOAD PUSH2 0x71C SWAP2 SWAP1 PUSH2 0x75A5 JUMP JUMPDEST PUSH1 0x40 MLOAD DUP1 SWAP2 SUB SWAP1 RETURN JUMPDEST PUSH2 0x72D PUSH2 0x2002 JUMP JUMPDEST PUSH1 0x40 MLOAD PUSH2 0x73A SWAP2 SWAP1 PUSH2 0x71B5 JUMP JUMPDEST PUSH1 0x40 MLOAD DUP1 SWAP2 SUB SWAP1 RETURN JUMPDEST PUSH2 0x75D PUSH1 0x4 DUP1 CALLDATASIZE SUB DUP2 ADD SWAP1 PUSH2 0x758 SWAP2 SWAP1 PUSH2 0x754D JUMP JUMPDEST PUSH2 0x2027 JUMP JUMPDEST STOP JUMPDEST PUSH2 0x767 PUSH2 0x2150 JUMP JUMPDEST PUSH1 0x40 MLOAD PUSH2 0x774 SWAP2 SWAP1 PUSH2 0x7017 JUMP JUMPDEST PUSH1 0x40 MLOAD DUP1 SWAP2 SUB SWAP1 RETURN JUMPDEST PUSH2 0x785 PUSH2 0x2154 JUMP JUMPDEST PUSH1 0x40 MLOAD PUSH2 0x792 SWAP2 SWAP1 PUSH2 0x71E9 JUMP JUMPDEST PUSH1 0x40 MLOAD DUP1 SWAP2 SUB SWAP1 RETURN JUMPDEST PUSH2 0x7A3 PUSH2 0x2167 JUMP JUMPDEST STOP JUMPDEST PUSH2 0x7AD PUSH2 0x217A JUMP JUMPDEST PUSH1 0x40 MLOAD PUSH2 0x7BB SWAP3 SWAP2 SWAP1 PUSH2 0x6FF0 JUMP JUMPDEST PUSH1 0x40 MLOAD DUP1 SWAP2 SUB SWAP1 RETURN JUMPDEST PUSH2 0x7DE PUSH1 0x4 DUP1 CALLDATASIZE SUB DUP2 ADD SWAP1 PUSH2 0x7D9 SWAP2 SWAP1 PUSH2 0x75E0 JUMP JUMPDEST PUSH2 0x222C JUMP JUMPDEST STOP JUMPDEST PUSH2 0x7E8 PUSH2 0x25A4 JUMP JUMPDEST PUSH1 0x40 MLOAD PUSH2 0x7F5 SWAP2 SWAP1 PUSH2 0x704B JUMP JUMPDEST PUSH1 0x40 MLOAD DUP1 SWAP2 SUB SWAP1 RETURN JUMPDEST PUSH2 0x806 PUSH2 0x25B6 JUMP JUMPDEST PUSH1 0x40 MLOAD PUSH2 0x813 SWAP2 SWAP1 PUSH2 0x7017 JUMP JUMPDEST PUSH1 0x40 MLOAD DUP1 SWAP2 SUB SWAP1 RETURN JUMPDEST PUSH2 0x824 PUSH2 0x25BC JUMP JUMPDEST PUSH1 0x40 MLOAD PUSH2 0x831 SWAP2 SWAP1 PUSH2 0x71B5 JUMP JUMPDEST PUSH1 0x40 MLOAD DUP1 SWAP2 SUB SWAP1 RETURN JUMPDEST PUSH2 0x842 PUSH2 0x2650 JUMP JUMPDEST PUSH1 0x40 MLOAD PUSH2 0x84F SWAP2 SWAP1 PUSH2 0x71B5 JUMP JUMPDEST PUSH1 0x40 MLOAD DUP1 SWAP2 SUB SWAP1 RETURN JUMPDEST PUSH2 0x860 PUSH2 0x2675 JUMP JUMPDEST PUSH1 0x40 MLOAD PUSH2 0x86D SWAP2 SWAP1 PUSH2 0x7017 JUMP JUMPDEST PUSH1 0x40 MLOAD DUP1 SWAP2 SUB SWAP1 RETURN JUMPDEST PUSH2 0x87E PUSH2 0x26FA JUMP JUMPDEST PUSH1 0x40 MLOAD PUSH2 0x88B SWAP2 SWAP1 PUSH2 0x71B5 JUMP JUMPDEST PUSH1 0x40 MLOAD DUP1 SWAP2 SUB SWAP1 RETURN JUMPDEST PUSH2 0x89C PUSH2 0x2722 JUMP JUMPDEST PUSH1 0x40 MLOAD PUSH2 0x8A9 SWAP2 SWAP1 PUSH2 0x7017 JUMP JUMPDEST PUSH1 0x40 MLOAD DUP1 SWAP2 SUB SWAP1 RETURN JUMPDEST PUSH2 0x8BA PUSH2 0x2728 JUMP JUMPDEST PUSH1 0x40 MLOAD PUSH2 0x8C7 SWAP2 SWAP1 PUSH2 0x7345 JUMP JUMPDEST PUSH1 0x40 MLOAD DUP1 SWAP2 SUB SWAP1 RETURN JUMPDEST PUSH2 0x8D8 PUSH2 0x27B4 JUMP JUMPDEST PUSH1 0x40 MLOAD PUSH2 0x8E6 SWAP3 SWAP2 SWAP1 PUSH2 0x76AB JUMP JUMPDEST PUSH1 0x40 MLOAD DUP1 SWAP2 SUB SWAP1 RETURN JUMPDEST PUSH2 0x8F7 PUSH2 0x27DD JUMP JUMPDEST PUSH1 0x40 MLOAD PUSH2 0x904 SWAP2 SWAP1 PUSH2 0x75A5 JUMP JUMPDEST PUSH1 0x40 MLOAD DUP1 SWAP2 SUB SWAP1 RETURN JUMPDEST PUSH2 0x915 PUSH2 0x28A7 JUMP JUMPDEST PUSH1 0x40 MLOAD PUSH2 0x922 SWAP2 SWAP1 PUSH2 0x7017 JUMP JUMPDEST PUSH1 0x40 MLOAD DUP1 SWAP2 SUB SWAP1 RETURN JUMPDEST PUSH2 0x933 PUSH2 0x2A8B JUMP JUMPDEST PUSH1 0x40 MLOAD PUSH2 0x940 SWAP2 SWAP1 PUSH2 0x7017 JUMP JUMPDEST PUSH1 0x40 MLOAD DUP1 SWAP2 SUB SWAP1 RETURN JUMPDEST PUSH2 0x951 PUSH2 0x2ADF JUMP JUMPDEST PUSH1 0x40 MLOAD PUSH2 0x95E SWAP2 SWAP1 PUSH2 0x71B5 JUMP JUMPDEST PUSH1 0x40 MLOAD DUP1 SWAP2 SUB SWAP1 RETURN JUMPDEST PUSH2 0x96F PUSH2 0x2B73 JUMP JUMPDEST PUSH1 0x40 MLOAD PUSH2 0x97C SWAP2 SWAP1 PUSH2 0x7815 JUMP JUMPDEST PUSH1 0x40 MLOAD DUP1 SWAP2 SUB SWAP1 RETURN JUMPDEST PUSH2 0x98D PUSH2 0x2BB0 JUMP JUMPDEST STOP JUMPDEST PUSH2 0x997 PUSH2 0x2E8B JUMP JUMPDEST PUSH1 0x40 MLOAD PUSH2 0x9A4 SWAP2 SWAP1 PUSH2 0x7844 JUMP JUMPDEST PUSH1 0x40 MLOAD DUP1 SWAP2 SUB SWAP1 RETURN JUMPDEST PUSH2 0x9B5 PUSH2 0x2F36 JUMP JUMPDEST PUSH1 0x40 MLOAD PUSH2 0x9C3 SWAP3 SWAP2 SWAP1 PUSH2 0x76AB JUMP JUMPDEST PUSH1 0x40 MLOAD DUP1 SWAP2 SUB SWAP1 RETURN JUMPDEST PUSH2 0x9D4 PUSH2 0x2F5F JUMP JUMPDEST PUSH1 0x40 MLOAD PUSH2 0x9E1 SWAP2 SWAP1 PUSH2 0x78B8 JUMP JUMPDEST PUSH1 0x40 MLOAD DUP1 SWAP2 SUB SWAP1 RETURN JUMPDEST PUSH2 0x9F2 PUSH2 0x2F84 JUMP JUMPDEST PUSH1 0x40 MLOAD PUSH2 0x9FF SWAP2 SWAP1 PUSH2 0x71B5 JUMP JUMPDEST PUSH1 0x40 MLOAD DUP1 SWAP2 SUB SWAP1 RETURN JUMPDEST PUSH2 0xA10 PUSH2 0x2FA9 JUMP JUMPDEST PUSH1 0x40 MLOAD PUSH2 0xA1D SWAP2 SWAP1 PUSH2 0x745B JUMP JUMPDEST PUSH1 0x40 MLOAD DUP1 SWAP2 SUB SWAP1 RETURN JUMPDEST PUSH2 0xA40 PUSH1 0x4 DUP1 CALLDATASIZE SUB DUP2 ADD SWAP1 PUSH2 0xA3B SWAP2 SWAP1 PUSH2 0x717B JUMP JUMPDEST PUSH2 0x30A7 JUMP JUMPDEST STOP JUMPDEST PUSH2 0xA4A PUSH2 0x31A7 JUMP JUMPDEST STOP JUMPDEST PUSH2 0xA54 PUSH2 0x32ED JUMP JUMPDEST STOP JUMPDEST PUSH2 0xA70 PUSH1 0x4 DUP1 CALLDATASIZE SUB DUP2 ADD SWAP1 PUSH2 0xA6B SWAP2 SWAP1 PUSH2 0x79F9 JUMP JUMPDEST PUSH2 0x3388 JUMP JUMPDEST STOP JUMPDEST PUSH2 0xA8C PUSH1 0x4 DUP1 CALLDATASIZE SUB DUP2 ADD SWAP1 PUSH2 0xA87 SWAP2 SWAP1 PUSH2 0x717B JUMP JUMPDEST PUSH2 0x355F JUMP JUMPDEST STOP JUMPDEST PUSH2 0xA96 PUSH2 0x35F1 JUMP JUMPDEST PUSH1 0x40 MLOAD PUSH2 0xAA6 SWAP5 SWAP4 SWAP3 SWAP2 SWAP1 PUSH2 0x7A65 JUMP JUMPDEST PUSH1 0x40 MLOAD DUP1 SWAP2 SUB SWAP1 RETURN JUMPDEST PUSH2 0xAB7 PUSH2 0x3613 JUMP JUMPDEST PUSH1 0x40 MLOAD PUSH2 0xAC4 SWAP2 SWAP1 PUSH2 0x7AC8 JUMP JUMPDEST PUSH1 0x40 MLOAD DUP1 SWAP2 SUB SWAP1 RETURN JUMPDEST PUSH2 0xAD5 PUSH2 0x36A7 JUMP JUMPDEST PUSH1 0x40 MLOAD PUSH2 0xAE2 SWAP2 SWAP1 PUSH2 0x7017 JUMP JUMPDEST PUSH1 0x40 MLOAD DUP1 SWAP2 SUB SWAP1 RETURN JUMPDEST PUSH2 0xAF3 PUSH2 0x36AB JUMP JUMPDEST PUSH1 0x40 MLOAD PUSH2 0xB01 SWAP3 SWAP2 SWAP1 PUSH2 0x6FF0 JUMP JUMPDEST PUSH1 0x40 MLOAD DUP1 SWAP2 SUB SWAP1 RETURN JUMPDEST PUSH2 0xB12 PUSH2 0x376A JUMP JUMPDEST PUSH1 0x40 MLOAD PUSH2 0xB1F SWAP2 SWAP1 PUSH2 0x7017 JUMP JUMPDEST PUSH1 0x40 MLOAD DUP1 SWAP2 SUB SWAP1 RETURN JUMPDEST PUSH2 0xB42 PUSH1 0x4 DUP1 CALLDATASIZE SUB DUP2 ADD SWAP1 PUSH2 0xB3D SWAP2 SWAP1 PUSH2 0x717B JUMP JUMPDEST PUSH2 0x3770 JUMP JUMPDEST STOP JUMPDEST PUSH2 0xB4C PUSH2 0x37F2 JUMP JUMPDEST PUSH1 0x40 MLOAD PUSH2 0xB59 SWAP2 SWAP1 PUSH2 0x71B5 JUMP JUMPDEST PUSH1 0x40 MLOAD DUP1 SWAP2 SUB SWAP1 RETURN JUMPDEST PUSH2 0xB6A PUSH2 0x3817 JUMP JUMPDEST PUSH1 0x40 MLOAD PUSH2 0xB7C SWAP7 SWAP6 SWAP5 SWAP4 SWAP3 SWAP2 SWAP1 PUSH2 0x7AE1 JUMP JUMPDEST PUSH1 0x40 MLOAD DUP1 SWAP2 SUB SWAP1 RETURN JUMPDEST PUSH0 DUP1 PUSH1 0xD3 PUSH0 SWAP1 SLOAD SWAP1 PUSH2 0x100 EXP SWAP1 DIV PUSH20 0xFFFFFFFFFFFFFFFFFFFFFFFFFFFFFFFFFFFFFFFF AND PUSH20 0xFFFFFFFFFFFFFFFFFFFFFFFFFFFFFFFFFFFFFFFF AND PUSH4 0x70A08231 ADDRESS PUSH1 0x40 MLOAD DUP3 PUSH4 0xFFFFFFFF AND PUSH1 0xE0 SHL DUP2 MSTORE PUSH1 0x4 ADD PUSH2 0xBE1 SWAP2 SWAP1 PUSH2 0x71B5 JUMP JUMPDEST PUSH1 0x20 PUSH1 0x40 MLOAD DUP1 DUP4 SUB DUP2 DUP7 GAS STATICCALL ISZERO DUP1 ISZERO PUSH2 0xBFC JUMPI RETURNDATASIZE PUSH0 DUP1 RETURNDATACOPY RETURNDATASIZE PUSH0 REVERT JUMPDEST POP POP POP POP PUSH1 0x40 MLOAD RETURNDATASIZE PUSH1 0x1F NOT PUSH1 0x1F DUP3 ADD AND DUP3 ADD DUP1 PUSH1 0x40 MSTORE POP DUP2 ADD SWAP1 PUSH2 0xC20 SWAP2 SWAP1 PUSH2 0x7B54 JUMP JUMPDEST PUSH1 0xD4 PUSH0 SWAP1 SLOAD SWAP1 PUSH2 0x100 EXP SWAP1 DIV PUSH20 0xFFFFFFFFFFFFFFFFFFFFFFFFFFFFFFFFFFFFFFFF AND PUSH20 0xFFFFFFFFFFFFFFFFFFFFFFFFFFFFFFFFFFFFFFFF AND PUSH4 0x70A08231 ADDRESS PUSH1 0x40 MLOAD DUP3 PUSH4 0xFFFFFFFF AND PUSH1 0xE0 SHL DUP2 MSTORE PUSH1 0x4 ADD PUSH2 0xC7A SWAP2 SWAP1 PUSH2 0x71B5 JUMP JUMPDEST PUSH1 0x20 PUSH1 0x40 MLOAD DUP1 DUP4 SUB DUP2 DUP7 GAS STATICCALL ISZERO DUP1 ISZERO PUSH2 0xC95 JUMPI RETURNDATASIZE PUSH0 DUP1 RETURNDATACOPY RETURNDATASIZE PUSH0 REVERT JUMPDEST POP POP POP POP PUSH1 0x40 MLOAD RETURNDATASIZE PUSH1 0x1F NOT PUSH1 0x1F DUP3 ADD AND DUP3 ADD DUP1 PUSH1 0x40 MSTORE POP DUP2 ADD SWAP1 PUSH2 0xCB9 SWAP2 SWAP1 PUSH2 0x7B54 JUMP JUMPDEST SWAP2 POP SWAP2 POP SWAP1 SWAP2 JUMP JUMPDEST PUSH1 0x9D SLOAD DUP2 JUMP JUMPDEST PUSH0 PUSH1 0xD1 PUSH0 SWAP1 SLOAD SWAP1 PUSH2 0x100 EXP SWAP1 DIV PUSH20 0xFFFFFFFFFFFFFFFFFFFFFFFFFFFFFFFFFFFFFFFF AND PUSH20 0xFFFFFFFFFFFFFFFFFFFFFFFFFFFFFFFFFFFFFFFF AND PUSH4 0x3850C7BD PUSH1 0x40 MLOAD DUP2 PUSH4 0xFFFFFFFF AND PUSH1 0xE0 SHL DUP2 MSTORE PUSH1 0x4 ADD PUSH1 0xE0 PUSH1 0x40 MLOAD DUP1 DUP4 SUB DUP2 DUP7 GAS STATICCALL ISZERO DUP1 ISZERO PUSH2 0xD32 JUMPI RETURNDATASIZE PUSH0 DUP1 RETURNDATACOPY RETURNDATASIZE PUSH0 REVERT JUMPDEST POP POP POP POP PUSH1 0x40 MLOAD RETURNDATASIZE PUSH1 0x1F NOT PUSH1 0x1F DUP3 ADD AND DUP3 ADD DUP1 PUSH1 0x40 MSTORE POP DUP2 ADD SWAP1 PUSH2 0xD56 SWAP2 SWAP1 PUSH2 0x7C32 JUMP JUMPDEST SWAP1 SWAP2 SWAP3 SWAP4 SWAP5 SWAP6 POP SWAP1 SWAP2 SWAP3 SWAP4 POP SWAP1 SWAP2 SWAP3 POP SWAP1 SWAP2 POP SWAP1 POP POP DUP1 SWAP2 POP POP SWAP1 JUMP JUMPDEST PUSH2 0xD7B PUSH2 0x3AB5 JUMP JUMPDEST PUSH0 DUP3 DUP3 SWAP1 POP GT ISZERO PUSH2 0xF6F JUMPI PUSH0 PUSH2 0xDD3 DUP4 DUP4 DUP1 DUP1 PUSH1 0x1F ADD PUSH1 0x20 DUP1 SWAP2 DIV MUL PUSH1 0x20 ADD PUSH1 0x40 MLOAD SWAP1 DUP2 ADD PUSH1 0x40 MSTORE DUP1 SWAP4 SWAP3 SWAP2 SWAP1 DUP2 DUP2 MSTORE PUSH1 0x20 ADD DUP4 DUP4 DUP1 DUP3 DUP5 CALLDATACOPY PUSH0 DUP2 DUP5 ADD MSTORE PUSH1 0x1F NOT PUSH1 0x1F DUP3 ADD AND SWAP1 POP DUP1 DUP4 ADD SWAP3 POP POP POP POP POP POP POP PUSH2 0x3B33 JUMP JUMPDEST SWAP1 POP PUSH1 0xD4 PUSH0 SWAP1 SLOAD SWAP1 PUSH2 0x100 EXP SWAP1 DIV PUSH20 0xFFFFFFFFFFFFFFFFFFFFFFFFFFFFFFFFFFFFFFFF AND PUSH20 0xFFFFFFFFFFFFFFFFFFFFFFFFFFFFFFFFFFFFFFFF AND DUP2 PUSH0 DUP2 MLOAD DUP2 LT PUSH2 0xE20 JUMPI PUSH2 0xE1F PUSH2 0x7CCF JUMP JUMPDEST JUMPDEST PUSH1 0x20 MUL PUSH1 0x20 ADD ADD MLOAD PUSH20 0xFFFFFFFFFFFFFFFFFFFFFFFFFFFFFFFFFFFFFFFF AND EQ PUSH2 0xE75 JUMPI PUSH1 0x40 MLOAD PUSH32 0xB4FA3FB300000000000000000000000000000000000000000000000000000000 DUP2 MSTORE PUSH1 0x4 ADD PUSH1 0x40 MLOAD DUP1 SWAP2 SUB SWAP1 REVERT JUMPDEST PUSH1 0x97 PUSH0 SWAP1 SLOAD SWAP1 PUSH2 0x100 EXP SWAP1 DIV PUSH20 0xFFFFFFFFFFFFFFFFFFFFFFFFFFFFFFFFFFFFFFFF AND PUSH20 0xFFFFFFFFFFFFFFFFFFFFFFFFFFFFFFFFFFFFFFFF AND DUP2 PUSH1 0x1 DUP4 MLOAD PUSH2 0xEBC SWAP2 SWAP1 PUSH2 0x7D29 JUMP JUMPDEST DUP2 MLOAD DUP2 LT PUSH2 0xECD JUMPI PUSH2 0xECC PUSH2 0x7CCF JUMP JUMPDEST JUMPDEST PUSH1 0x20 MUL PUSH1 0x20 ADD ADD MLOAD PUSH20 0xFFFFFFFFFFFFFFFFFFFFFFFFFFFFFFFFFFFFFFFF AND EQ PUSH2 0xF22 JUMPI PUSH1 0x40 MLOAD PUSH32 0x98F7360900000000000000000000000000000000000000000000000000000000 DUP2 MSTORE PUSH1 0x4 ADD PUSH1 0x40 MLOAD DUP1 SWAP2 SUB SWAP1 REVERT JUMPDEST DUP3 DUP3 PUSH1 0xD8 SWAP2 DUP3 PUSH2 0xF33 SWAP3 SWAP2 SWAP1 PUSH2 0x7F57 JUMP JUMPDEST POP PUSH32 0x1B9728F4AC995937074D8E70E21A1660544FB7C16BE984E1C289F262F2BE9C74 DUP4 DUP4 PUSH1 0x40 MLOAD PUSH2 0xF65 SWAP3 SWAP2 SWAP1 PUSH2 0x8050 JUMP JUMPDEST PUSH1 0x40 MLOAD DUP1 SWAP2 SUB SWAP1 LOG1 POP JUMPDEST POP POP JUMP JUMPDEST PUSH2 0xF7C DUP2 PUSH2 0x3C80 JUMP JUMPDEST POP JUMP JUMPDEST PUSH1 0x97 PUSH0 SWAP1 SLOAD SWAP1 PUSH2 0x100 EXP SWAP1 DIV PUSH20 0xFFFFFFFFFFFFFFFFFFFFFFFFFFFFFFFFFFFFFFFF AND DUP2 JUMP JUMPDEST PUSH0 DUP1 PUSH1 0x2 PUSH8 0xFFFFFFFFFFFFFFFF DUP2 GT ISZERO PUSH2 0xFC1 JUMPI PUSH2 0xFC0 PUSH2 0x78D5 JUMP JUMPDEST JUMPDEST PUSH1 0x40 MLOAD SWAP1 DUP1 DUP3 MSTORE DUP1 PUSH1 0x20 MUL PUSH1 0x20 ADD DUP3 ADD PUSH1 0x40 MSTORE DUP1 ISZERO PUSH2 0xFEF JUMPI DUP2 PUSH1 0x20 ADD PUSH1 0x20 DUP3 MUL DUP1 CALLDATASIZE DUP4 CALLDATACOPY DUP1 DUP3 ADD SWAP2 POP POP SWAP1 POP JUMPDEST POP SWAP1 POP PUSH1 0xDB PUSH1 0xA SWAP1 SLOAD SWAP1 PUSH2 0x100 EXP SWAP1 DIV PUSH4 0xFFFFFFFF AND DUP2 PUSH0 DUP2 MLOAD DUP2 LT PUSH2 0x1018 JUMPI PUSH2 0x1017 PUSH2 0x7CCF JUMP JUMPDEST JUMPDEST PUSH1 0x20 MUL PUSH1 0x20 ADD ADD SWAP1 PUSH4 0xFFFFFFFF AND SWAP1 DUP2 PUSH4 0xFFFFFFFF AND DUP2 MSTORE POP POP PUSH0 DUP2 PUSH1 0x1 DUP2 MLOAD DUP2 LT PUSH2 0x1047 JUMPI PUSH2 0x1046 PUSH2 0x7CCF JUMP JUMPDEST JUMPDEST PUSH1 0x20 MUL PUSH1 0x20 ADD ADD SWAP1 PUSH4 0xFFFFFFFF AND SWAP1 DUP2 PUSH4 0xFFFFFFFF AND DUP2 MSTORE POP POP PUSH0 PUSH1 0xD1 PUSH0 SWAP1 SLOAD SWAP1 PUSH2 0x100 EXP SWAP1 DIV PUSH20 0xFFFFFFFFFFFFFFFFFFFFFFFFFFFFFFFFFFFFFFFF AND PUSH20 0xFFFFFFFFFFFFFFFFFFFFFFFFFFFFFFFFFFFFFFFF AND PUSH4 0x883BDBFD DUP4 PUSH1 0x40 MLOAD DUP3 PUSH4 0xFFFFFFFF AND PUSH1 0xE0 SHL DUP2 MSTORE PUSH1 0x4 ADD PUSH2 0x10BC SWAP2 SWAP1 PUSH2 0x8129 JUMP JUMPDEST PUSH0 PUSH1 0x40 MLOAD DUP1 DUP4 SUB DUP2 DUP7 GAS STATICCALL ISZERO DUP1 ISZERO PUSH2 0x10D6 JUMPI RETURNDATASIZE PUSH0 DUP1 RETURNDATACOPY RETURNDATASIZE PUSH0 REVERT JUMPDEST POP POP POP POP PUSH1 0x40 MLOAD RETURNDATASIZE PUSH0 DUP3 RETURNDATACOPY RETURNDATASIZE PUSH1 0x1F NOT PUSH1 0x1F DUP3 ADD AND DUP3 ADD DUP1 PUSH1 0x40 MSTORE POP DUP2 ADD SWAP1 PUSH2 0x10FE SWAP2 SWAP1 PUSH2 0x82DD JUMP JUMPDEST POP SWAP1 POP PUSH1 0xDB PUSH1 0xA SWAP1 SLOAD SWAP1 PUSH2 0x100 EXP SWAP1 DIV PUSH4 0xFFFFFFFF AND PUSH1 0x3 SIGNEXTEND DUP2 PUSH0 DUP2 MLOAD DUP2 LT PUSH2 0x112A JUMPI PUSH2 0x1129 PUSH2 0x7CCF JUMP JUMPDEST JUMPDEST PUSH1 0x20 MUL PUSH1 0x20 ADD ADD MLOAD DUP3 PUSH1 0x1 DUP2 MLOAD DUP2 LT PUSH2 0x1146 JUMPI PUSH2 0x1145 PUSH2 0x7CCF JUMP JUMPDEST JUMPDEST PUSH1 0x20 MUL PUSH1 0x20 ADD ADD MLOAD PUSH2 0x1158 SWAP2 SWAP1 PUSH2 0x8353 JUMP JUMPDEST PUSH2 0x1162 SWAP2 SWAP1 PUSH2 0x83DE JUMP JUMPDEST SWAP3 POP POP POP SWAP1 JUMP JUMPDEST PUSH2 0x1171 PUSH2 0x3AB5 JUMP JUMPDEST PUSH32 0x69D927977053F4FF4A26E8D792564E367E844A869CDA4DF12630BF7B62A632DE PUSH1 0xDB PUSH0 SWAP1 SLOAD SWAP1 PUSH2 0x100 EXP SWAP1 DIV PUSH1 0x2 SIGNEXTEND DUP3 PUSH1 0x40 MLOAD PUSH2 0x11B0 SWAP3 SWAP2 SWAP1 PUSH2 0x76AB JUMP JUMPDEST PUSH1 0x40 MLOAD DUP1 SWAP2 SUB SWAP1 LOG1 PUSH2 0x11C0 PUSH2 0x3D38 JUMP JUMPDEST POP POP POP POP PUSH2 0x11CC PUSH2 0x42CD JUMP JUMPDEST DUP1 PUSH1 0xDB PUSH0 PUSH2 0x100 EXP DUP2 SLOAD DUP2 PUSH3 0xFFFFFF MUL NOT AND SWAP1 DUP4 PUSH1 0x2 SIGNEXTEND PUSH3 0xFFFFFF AND MUL OR SWAP1 SSTORE POP PUSH2 0x11F5 PUSH2 0x477F JUMP JUMPDEST PUSH2 0x11FD PUSH2 0x47DC JUMP JUMPDEST POP JUMP JUMPDEST PUSH0 DUP1 PUSH1 0xA PUSH1 0xD4 PUSH0 SWAP1 SLOAD SWAP1 PUSH2 0x100 EXP SWAP1 DIV PUSH20 0xFFFFFFFFFFFFFFFFFFFFFFFFFFFFFFFFFFFFFFFF AND PUSH20 0xFFFFFFFFFFFFFFFFFFFFFFFFFFFFFFFFFFFFFFFF AND PUSH4 0x313CE567 PUSH1 0x40 MLOAD DUP2 PUSH4 0xFFFFFFFF AND PUSH1 0xE0 SHL DUP2 MSTORE PUSH1 0x4 ADD PUSH1 0x20 PUSH1 0x40 MLOAD DUP1 DUP4 SUB DUP2 DUP7 GAS STATICCALL ISZERO DUP1 ISZERO PUSH2 0x126E JUMPI RETURNDATASIZE PUSH0 DUP1 RETURNDATACOPY RETURNDATASIZE PUSH0 REVERT JUMPDEST POP POP POP POP PUSH1 0x40 MLOAD RETURNDATASIZE PUSH1 0x1F NOT PUSH1 0x1F DUP3 ADD AND DUP3 ADD DUP1 PUSH1 0x40 MSTORE POP DUP2 ADD SWAP1 PUSH2 0x1292 SWAP2 SWAP1 PUSH2 0x847C JUMP JUMPDEST PUSH1 0xA PUSH2 0x129E SWAP2 SWAP1 PUSH2 0x85D6 JUMP JUMPDEST PUSH2 0x12A8 SWAP2 SWAP1 PUSH2 0x8620 JUMP JUMPDEST SWAP1 POP PUSH1 0x97 PUSH0 SWAP1 SLOAD SWAP1 PUSH2 0x100 EXP SWAP1 DIV PUSH20 0xFFFFFFFFFFFFFFFFFFFFFFFFFFFFFFFFFFFFFFFF AND PUSH20 0xFFFFFFFFFFFFFFFFFFFFFFFFFFFFFFFFFFFFFFFF AND PUSH1 0xD4 PUSH0 SWAP1 SLOAD SWAP1 PUSH2 0x100 EXP SWAP1 DIV PUSH20 0xFFFFFFFFFFFFFFFFFFFFFFFFFFFFFFFFFFFFFFFF AND PUSH20 0xFFFFFFFFFFFFFFFFFFFFFFFFFFFFFFFFFFFFFFFF AND SUB PUSH2 0x1334 JUMPI PUSH1 0xA DUP2 PUSH2 0x132C SWAP2 SWAP1 PUSH2 0x8650 JUMP JUMPDEST SWAP2 POP POP PUSH2 0x13E1 JUMP JUMPDEST PUSH1 0xA PUSH1 0xD2 PUSH0 SWAP1 SLOAD SWAP1 PUSH2 0x100 EXP SWAP1 DIV PUSH20 0xFFFFFFFFFFFFFFFFFFFFFFFFFFFFFFFFFFFFFFFF AND PUSH20 0xFFFFFFFFFFFFFFFFFFFFFFFFFFFFFFFFFFFFFFFF AND PUSH4 0xCDCA1753 PUSH1 0xD8 DUP5 PUSH1 0x40 MLOAD DUP4 PUSH4 0xFFFFFFFF AND PUSH1 0xE0 SHL DUP2 MSTORE PUSH1 0x4 ADD PUSH2 0x1393 SWAP3 SWAP2 SWAP1 PUSH2 0x8712 JUMP JUMPDEST PUSH1 0x20 PUSH1 0x40 MLOAD DUP1 DUP4 SUB DUP2 PUSH0 DUP8 GAS CALL ISZERO DUP1 ISZERO PUSH2 0x13AF JUMPI RETURNDATASIZE PUSH0 DUP1 RETURNDATACOPY RETURNDATASIZE PUSH0 REVERT JUMPDEST POP POP POP POP PUSH1 0x40 MLOAD RETURNDATASIZE PUSH1 0x1F NOT PUSH1 0x1F DUP3 ADD AND DUP3 ADD DUP1 PUSH1 0x40 MSTORE POP DUP2 ADD SWAP1 PUSH2 0x13D3 SWAP2 SWAP1 PUSH2 0x7B54 JUMP JUMPDEST PUSH2 0x13DD SWAP2 SWAP1 PUSH2 0x8650 JUMP JUMPDEST SWAP2 POP POP JUMPDEST SWAP1 JUMP JUMPDEST PUSH1 0xD1 PUSH0 SWAP1 SLOAD SWAP1 PUSH2 0x100 EXP SWAP1 DIV PUSH20 0xFFFFFFFFFFFFFFFFFFFFFFFFFFFFFFFFFFFFFFFF AND DUP2 JUMP JUMPDEST PUSH2 0x1411 PUSH2 0x4ABD JUMP JUMPDEST PUSH2 0x1419 PUSH2 0x3D38 JUMP JUMPDEST POP POP POP POP PUSH2 0x1425 PUSH2 0x42CD JUMP JUMPDEST JUMP JUMPDEST PUSH2 0x142F PUSH2 0x3AB5 JUMP JUMPDEST PUSH32 0x86139943149914833C057D2C24F3A3967CCE8E6ABA2EB12E422500D8A51FFC7B PUSH1 0xDB PUSH1 0xA SWAP1 SLOAD SWAP1 PUSH2 0x100 EXP SWAP1 DIV PUSH4 0xFFFFFFFF AND DUP3 PUSH1 0x40 MLOAD PUSH2 0x1472 SWAP3 SWAP2 SWAP1 PUSH2 0x8740 JUMP JUMPDEST PUSH1 0x40 MLOAD DUP1 SWAP2 SUB SWAP1 LOG1 PUSH1 0x3C DUP2 PUSH4 0xFFFFFFFF AND LT ISZERO PUSH2 0x14BB JUMPI PUSH1 0x40 MLOAD PUSH32 0xB4FA3FB300000000000000000000000000000000000000000000000000000000 DUP2 MSTORE PUSH1 0x4 ADD PUSH1 0x40 MLOAD DUP1 SWAP2 SUB SWAP1 REVERT JUMPDEST DUP1 PUSH1 0xDB PUSH1 0xA PUSH2 0x100 EXP DUP2 SLOAD DUP2 PUSH4 0xFFFFFFFF MUL NOT AND SWAP1 DUP4 PUSH4 0xFFFFFFFF AND MUL OR SWAP1 SSTORE POP POP JUMP JUMPDEST PUSH1 0xD7 DUP1 SLOAD PUSH2 0x14EC SWAP1 PUSH2 0x7D93 JUMP JUMPDEST DUP1 PUSH1 0x1F ADD PUSH1 0x20 DUP1 SWAP2 DIV MUL PUSH1 0x20 ADD PUSH1 0x40 MLOAD SWAP1 DUP2 ADD PUSH1 0x40 MSTORE DUP1 SWAP3 SWAP2 SWAP1 DUP2 DUP2 MSTORE PUSH1 0x20 ADD DUP3 DUP1 SLOAD PUSH2 0x1518 SWAP1 PUSH2 0x7D93 JUMP JUMPDEST DUP1 ISZERO PUSH2 0x1563 JUMPI DUP1 PUSH1 0x1F LT PUSH2 0x153A JUMPI PUSH2 0x100 DUP1 DUP4 SLOAD DIV MUL DUP4 MSTORE SWAP2 PUSH1 0x20 ADD SWAP2 PUSH2 0x1563 JUMP JUMPDEST DUP3 ADD SWAP2 SWAP1 PUSH0 MSTORE PUSH1 0x20 PUSH0 KECCAK256 SWAP1 JUMPDEST DUP2 SLOAD DUP2 MSTORE SWAP1 PUSH1 0x1 ADD SWAP1 PUSH1 0x20 ADD DUP1 DUP4 GT PUSH2 0x1546 JUMPI DUP3 SWAP1 SUB PUSH1 0x1F AND DUP3 ADD SWAP2 JUMPDEST POP POP POP POP POP DUP2 JUMP JUMPDEST PUSH1 0x9A PUSH0 SWAP1 SLOAD SWAP1 PUSH2 0x100 EXP SWAP1 DIV PUSH20 0xFFFFFFFFFFFFFFFFFFFFFFFFFFFFFFFFFFFFFFFF AND DUP2 JUMP JUMPDEST PUSH0 DUP1 ADDRESS PUSH1 0xD9 PUSH0 ADD PUSH0 SWAP1 SLOAD SWAP1 PUSH2 0x100 EXP SWAP1 DIV PUSH1 0x2 SIGNEXTEND PUSH1 0xD9 PUSH0 ADD PUSH1 0x3 SWAP1 SLOAD SWAP1 PUSH2 0x100 EXP SWAP1 DIV PUSH1 0x2 SIGNEXTEND PUSH1 0x40 MLOAD PUSH1 0x20 ADD PUSH2 0x15C8 SWAP4 SWAP3 SWAP2 SWAP1 PUSH2 0x87E0 JUMP JUMPDEST PUSH1 0x40 MLOAD PUSH1 0x20 DUP2 DUP4 SUB SUB DUP2 MSTORE SWAP1 PUSH1 0x40 MSTORE DUP1 MLOAD SWAP1 PUSH1 0x20 ADD KECCAK256 SWAP2 POP ADDRESS PUSH1 0xDA PUSH0 ADD PUSH0 SWAP1 SLOAD SWAP1 PUSH2 0x100 EXP SWAP1 DIV PUSH1 0x2 SIGNEXTEND PUSH1 0xDA PUSH0 ADD PUSH1 0x3 SWAP1 SLOAD SWAP1 PUSH2 0x100 EXP SWAP1 DIV PUSH1 0x2 SIGNEXTEND PUSH1 0x40 MLOAD PUSH1 0x20 ADD PUSH2 0x1616 SWAP4 SWAP3 SWAP2 SWAP1 PUSH2 0x87E0 JUMP JUMPDEST PUSH1 0x40 MLOAD PUSH1 0x20 DUP2 DUP4 SUB SUB DUP2 MSTORE SWAP1 PUSH1 0x40 MSTORE DUP1 MLOAD SWAP1 PUSH1 0x20 ADD KECCAK256 SWAP1 POP SWAP1 SWAP2 JUMP JUMPDEST PUSH2 0x163A PUSH2 0x3AB5 JUMP JUMPDEST PUSH0 DUP3 DUP3 SWAP1 POP GT ISZERO PUSH2 0x182E JUMPI PUSH0 PUSH2 0x1692 DUP4 DUP4 DUP1 DUP1 PUSH1 0x1F ADD PUSH1 0x20 DUP1 SWAP2 DIV MUL PUSH1 0x20 ADD PUSH1 0x40 MLOAD SWAP1 DUP2 ADD PUSH1 0x40 MSTORE DUP1 SWAP4 SWAP3 SWAP2 SWAP1 DUP2 DUP2 MSTORE PUSH1 0x20 ADD DUP4 DUP4 DUP1 DUP3 DUP5 CALLDATACOPY PUSH0 DUP2 DUP5 ADD MSTORE PUSH1 0x1F NOT PUSH1 0x1F DUP3 ADD AND SWAP1 POP DUP1 DUP4 ADD SWAP3 POP POP POP POP POP POP POP PUSH2 0x3B33 JUMP JUMPDEST SWAP1 POP PUSH1 0xD3 PUSH0 SWAP1 SLOAD SWAP1 PUSH2 0x100 EXP SWAP1 DIV PUSH20 0xFFFFFFFFFFFFFFFFFFFFFFFFFFFFFFFFFFFFFFFF AND PUSH20 0xFFFFFFFFFFFFFFFFFFFFFFFFFFFFFFFFFFFFFFFF AND DUP2 PUSH0 DUP2 MLOAD DUP2 LT PUSH2 0x16DF JUMPI PUSH2 0x16DE PUSH2 0x7CCF JUMP JUMPDEST JUMPDEST PUSH1 0x20 MUL PUSH1 0x20 ADD ADD MLOAD PUSH20 0xFFFFFFFFFFFFFFFFFFFFFFFFFFFFFFFFFFFFFFFF AND EQ PUSH2 0x1734 JUMPI PUSH1 0x40 MLOAD PUSH32 0xB4FA3FB300000000000000000000000000000000000000000000000000000000 DUP2 MSTORE PUSH1 0x4 ADD PUSH1 0x40 MLOAD DUP1 SWAP2 SUB SWAP1 REVERT JUMPDEST PUSH1 0x97 PUSH0 SWAP1 SLOAD SWAP1 PUSH2 0x100 EXP SWAP1 DIV PUSH20 0xFFFFFFFFFFFFFFFFFFFFFFFFFFFFFFFFFFFFFFFF AND PUSH20 0xFFFFFFFFFFFFFFFFFFFFFFFFFFFFFFFFFFFFFFFF AND DUP2 PUSH1 0x1 DUP4 MLOAD PUSH2 0x177B SWAP2 SWAP1 PUSH2 0x7D29 JUMP JUMPDEST DUP2 MLOAD DUP2 LT PUSH2 0x178C JUMPI PUSH2 0x178B PUSH2 0x7CCF JUMP JUMPDEST JUMPDEST PUSH1 0x20 MUL PUSH1 0x20 ADD ADD MLOAD PUSH20 0xFFFFFFFFFFFFFFFFFFFFFFFFFFFFFFFFFFFFFFFF AND EQ PUSH2 0x17E1 JUMPI PUSH1 0x40 MLOAD PUSH32 0x98F7360900000000000000000000000000000000000000000000000000000000 DUP2 MSTORE PUSH1 0x4 ADD PUSH1 0x40 MLOAD DUP1 SWAP2 SUB SWAP1 REVERT JUMPDEST DUP3 DUP3 PUSH1 0xD7 SWAP2 DUP3 PUSH2 0x17F2 SWAP3 SWAP2 SWAP1 PUSH2 0x7F57 JUMP JUMPDEST POP PUSH32 0x203244158601764729526C0736D6B833B1F3DA905AE0A631A059BBB9040541F0 DUP4 DUP4 PUSH1 0x40 MLOAD PUSH2 0x1824 SWAP3 SWAP2 SWAP1 PUSH2 0x8050 JUMP JUMPDEST PUSH1 0x40 MLOAD DUP1 SWAP2 SUB SWAP1 LOG1 POP JUMPDEST POP POP JUMP JUMPDEST PUSH1 0x99 PUSH0 SWAP1 SLOAD SWAP1 PUSH2 0x100 EXP SWAP1 DIV PUSH20 0xFFFFFFFFFFFFFFFFFFFFFFFFFFFFFFFFFFFFFFFF AND DUP2 JUMP JUMPDEST PUSH1 0x9C SLOAD DUP2 JUMP JUMPDEST PUSH1 0x60 PUSH0 PUSH1 0xD7 DUP1 SLOAD PUSH2 0x186D SWAP1 PUSH2 0x7D93 JUMP JUMPDEST SWAP1 POP SUB PUSH2 0x18C4 JUMPI PUSH0 PUSH8 0xFFFFFFFFFFFFFFFF DUP2 GT ISZERO PUSH2 0x188E JUMPI PUSH2 0x188D PUSH2 0x78D5 JUMP JUMPDEST JUMPDEST PUSH1 0x40 MLOAD SWAP1 DUP1 DUP3 MSTORE DUP1 PUSH1 0x20 MUL PUSH1 0x20 ADD DUP3 ADD PUSH1 0x40 MSTORE DUP1 ISZERO PUSH2 0x18BC JUMPI DUP2 PUSH1 0x20 ADD PUSH1 0x20 DUP3 MUL DUP1 CALLDATASIZE DUP4 CALLDATACOPY DUP1 DUP3 ADD SWAP2 POP POP SWAP1 POP JUMPDEST POP SWAP1 POP PUSH2 0x1958 JUMP JUMPDEST PUSH2 0x1955 PUSH1 0xD7 DUP1 SLOAD PUSH2 0x18D4 SWAP1 PUSH2 0x7D93 JUMP JUMPDEST DUP1 PUSH1 0x1F ADD PUSH1 0x20 DUP1 SWAP2 DIV MUL PUSH1 0x20 ADD PUSH1 0x40 MLOAD SWAP1 DUP2 ADD PUSH1 0x40 MSTORE DUP1 SWAP3 SWAP2 SWAP1 DUP2 DUP2 MSTORE PUSH1 0x20 ADD DUP3 DUP1 SLOAD PUSH2 0x1900 SWAP1 PUSH2 0x7D93 JUMP JUMPDEST DUP1 ISZERO PUSH2 0x194B JUMPI DUP1 PUSH1 0x1F LT PUSH2 0x1922 JUMPI PUSH2 0x100 DUP1 DUP4 SLOAD DIV MUL DUP4 MSTORE SWAP2 PUSH1 0x20 ADD SWAP2 PUSH2 0x194B JUMP JUMPDEST DUP3 ADD SWAP2 SWAP1 PUSH0 MSTORE PUSH1 0x20 PUSH0 KECCAK256 SWAP1 JUMPDEST DUP2 SLOAD DUP2 MSTORE SWAP1 PUSH1 0x1 ADD SWAP1 PUSH1 0x20 ADD DUP1 DUP4 GT PUSH2 0x192E JUMPI DUP3 SWAP1 SUB PUSH1 0x1F AND DUP3 ADD SWAP2 JUMPDEST POP POP POP POP POP PUSH2 0x3B33 JUMP JUMPDEST SWAP1 POP JUMPDEST SWAP1 JUMP JUMPDEST PUSH2 0x1963 PUSH2 0x3AB5 JUMP JUMPDEST PUSH32 0x69D3F73BFB3C2F0DE63DC1DE2ED486CF45D88EBFFF8CB1E8F124B085D2BAFB97 DUP2 PUSH1 0x40 MLOAD PUSH2 0x1992 SWAP2 SWAP1 PUSH2 0x71E9 JUMP JUMPDEST PUSH1 0x40 MLOAD DUP1 SWAP2 SUB SWAP1 LOG1 PUSH1 0x4 PUSH2 0x19A4 PUSH2 0x4B45 JUMP JUMPDEST PUSH2 0x19AE SWAP2 SWAP1 PUSH2 0x881C JUMP JUMPDEST PUSH1 0x2 SIGNEXTEND DUP2 PUSH1 0x6 SIGNEXTEND SLT PUSH2 0x19EC JUMPI PUSH1 0x40 MLOAD PUSH32 0xB4FA3FB300000000000000000000000000000000000000000000000000000000 DUP2 MSTORE PUSH1 0x4 ADD PUSH1 0x40 MLOAD DUP1 SWAP2 SUB SWAP1 REVERT JUMPDEST DUP1 PUSH1 0xDB PUSH1 0x3 PUSH2 0x100 EXP DUP2 SLOAD DUP2 PUSH7 0xFFFFFFFFFFFFFF MUL NOT AND SWAP1 DUP4 PUSH1 0x6 SIGNEXTEND PUSH7 0xFFFFFFFFFFFFFF AND MUL OR SWAP1 SSTORE POP POP JUMP JUMPDEST PUSH1 0xDB PUSH1 0xA SWAP1 SLOAD SWAP1 PUSH2 0x100 EXP SWAP1 DIV PUSH4 0xFFFFFFFF AND DUP2 JUMP JUMPDEST PUSH2 0x1A37 PUSH2 0x26FA JUMP JUMPDEST PUSH20 0xFFFFFFFFFFFFFFFFFFFFFFFFFFFFFFFFFFFFFFFF AND CALLER PUSH20 0xFFFFFFFFFFFFFFFFFFFFFFFFFFFFFFFFFFFFFFFF AND EQ ISZERO DUP1 ISZERO PUSH2 0x1AA5 JUMPI POP PUSH2 0x1A75 PUSH2 0x2ADF JUMP JUMPDEST PUSH20 0xFFFFFFFFFFFFFFFFFFFFFFFFFFFFFFFFFFFFFFFF AND CALLER PUSH20 0xFFFFFFFFFFFFFFFFFFFFFFFFFFFFFFFFFFFFFFFF AND EQ ISZERO JUMPDEST ISZERO PUSH2 0x1ADC JUMPI PUSH1 0x40 MLOAD PUSH32 0xC0FC8A8A00000000000000000000000000000000000000000000000000000000 DUP2 MSTORE PUSH1 0x4 ADD PUSH1 0x40 MLOAD DUP1 SWAP2 SUB SWAP1 REVERT JUMPDEST PUSH2 0x1AE4 PUSH2 0x3613 JUMP JUMPDEST PUSH20 0xFFFFFFFFFFFFFFFFFFFFFFFFFFFFFFFFFFFFFFFF AND PUSH4 0x3E55F932 DUP3 PUSH1 0x40 MLOAD DUP3 PUSH4 0xFFFFFFFF AND PUSH1 0xE0 SHL DUP2 MSTORE PUSH1 0x4 ADD PUSH2 0x1B1C SWAP2 SWAP1 PUSH2 0x7017 JUMP JUMPDEST PUSH0 PUSH1 0x40 MLOAD DUP1 DUP4 SUB DUP2 PUSH0 DUP8 DUP1 EXTCODESIZE ISZERO DUP1 ISZERO PUSH2 0x1B33 JUMPI PUSH0 DUP1 REVERT JUMPDEST POP GAS CALL ISZERO DUP1 ISZERO PUSH2 0x1B45 JUMPI RETURNDATASIZE PUSH0 DUP1 RETURNDATACOPY RETURNDATASIZE PUSH0 REVERT JUMPDEST POP POP POP POP PUSH32 0x9163810EE1E29168D4CE900E48A333FB8FBD3FD070D2BEF67F6D4DB0846A469F DUP2 PUSH1 0x40 MLOAD PUSH2 0x1B78 SWAP2 SWAP1 PUSH2 0x7017 JUMP JUMPDEST PUSH1 0x40 MLOAD DUP1 SWAP2 SUB SWAP1 LOG1 POP JUMP JUMPDEST PUSH2 0x1B8B PUSH2 0x26FA JUMP JUMPDEST PUSH20 0xFFFFFFFFFFFFFFFFFFFFFFFFFFFFFFFFFFFFFFFF AND CALLER PUSH20 0xFFFFFFFFFFFFFFFFFFFFFFFFFFFFFFFFFFFFFFFF AND EQ ISZERO DUP1 ISZERO PUSH2 0x1BF9 JUMPI POP PUSH2 0x1BC9 PUSH2 0x2ADF JUMP JUMPDEST PUSH20 0xFFFFFFFFFFFFFFFFFFFFFFFFFFFFFFFFFFFFFFFF AND CALLER PUSH20 0xFFFFFFFFFFFFFFFFFFFFFFFFFFFFFFFFFFFFFFFF AND EQ ISZERO JUMPDEST ISZERO PUSH2 0x1C30 JUMPI PUSH1 0x40 MLOAD PUSH32 0xC0FC8A8A00000000000000000000000000000000000000000000000000000000 DUP2 MSTORE PUSH1 0x4 ADD PUSH1 0x40 MLOAD DUP1 SWAP2 SUB SWAP1 REVERT JUMPDEST PUSH0 PUSH20 0xFFFFFFFFFFFFFFFFFFFFFFFFFFFFFFFFFFFFFFFF AND PUSH2 0x1C4F PUSH2 0x26FA JUMP JUMPDEST PUSH20 0xFFFFFFFFFFFFFFFFFFFFFFFFFFFFFFFFFFFFFFFF AND SUB PUSH2 0x1C9C JUMPI PUSH1 0x40 MLOAD PUSH32 0xEA8E4EB500000000000000000000000000000000000000000000000000000000 DUP2 MSTORE PUSH1 0x4 ADD PUSH1 0x40 MLOAD DUP1 SWAP2 SUB SWAP1 REVERT JUMPDEST PUSH2 0x1CA4 PUSH2 0x4BD9 JUMP JUMPDEST PUSH2 0x1CAC PUSH2 0x4CF5 JUMP JUMPDEST PUSH2 0x1CB4 PUSH2 0x477F JUMP JUMPDEST PUSH2 0x1CBC PUSH2 0x47DC JUMP JUMPDEST JUMP JUMPDEST PUSH2 0x1CC6 PUSH2 0x4ABD JUMP JUMPDEST PUSH0 DUP3 GT ISZERO PUSH2 0x1D3C JUMPI PUSH2 0x1D3B PUSH1 0x98 PUSH0 SWAP1 SLOAD SWAP1 PUSH2 0x100 EXP SWAP1 DIV PUSH20 0xFFFFFFFFFFFFFFFFFFFFFFFFFFFFFFFFFFFFFFFF AND DUP4 PUSH1 0xD3 PUSH0 SWAP1 SLOAD SWAP1 PUSH2 0x100 EXP SWAP1 DIV PUSH20 0xFFFFFFFFFFFFFFFFFFFFFFFFFFFFFFFFFFFFFFFF AND PUSH20 0xFFFFFFFFFFFFFFFFFFFFFFFFFFFFFFFFFFFFFFFF AND PUSH2 0x4D56 SWAP1 SWAP3 SWAP2 SWAP1 PUSH4 0xFFFFFFFF AND JUMP JUMPDEST JUMPDEST PUSH0 DUP2 GT ISZERO PUSH2 0x1DB2 JUMPI PUSH2 0x1DB1 PUSH1 0x98 PUSH0 SWAP1 SLOAD SWAP1 PUSH2 0x100 EXP SWAP1 DIV PUSH20 0xFFFFFFFFFFFFFFFFFFFFFFFFFFFFFFFFFFFFFFFF AND DUP3 PUSH1 0xD4 PUSH0 SWAP1 SLOAD SWAP1 PUSH2 0x100 EXP SWAP1 DIV PUSH20 0xFFFFFFFFFFFFFFFFFFFFFFFFFFFFFFFFFFFFFFFF AND PUSH20 0xFFFFFFFFFFFFFFFFFFFFFFFFFFFFFFFFFFFFFFFF AND PUSH2 0x4D56 SWAP1 SWAP3 SWAP2 SWAP1 PUSH4 0xFFFFFFFF AND JUMP JUMPDEST JUMPDEST PUSH2 0x1DBA PUSH2 0x4DDC JUMP JUMPDEST PUSH2 0x1DC7 JUMPI PUSH2 0x1DC6 PUSH2 0x47DC JUMP JUMPDEST JUMPDEST PUSH0 DUP1 PUSH2 0x1DD1 PUSH2 0x217A JUMP JUMPDEST SWAP2 POP SWAP2 POP PUSH32 0x631C4F79C14099A717F4BE2F25E6CEF89E310B3944EF0E44EA2C0811EBB982A8 DUP3 DUP3 PUSH1 0x40 MLOAD PUSH2 0x1E06 SWAP3 SWAP2 SWAP1 PUSH2 0x6FF0 JUMP JUMPDEST PUSH1 0x40 MLOAD DUP1 SWAP2 SUB SWAP1 LOG1 POP POP POP POP JUMP JUMPDEST PUSH0 DUP1 PUSH0 DUP1 PUSH2 0x1E20 PUSH2 0xB85 JUMP JUMPDEST SWAP2 POP SWAP2 POP PUSH0 DUP1 PUSH2 0x1E2E PUSH2 0x3817 JUMP JUMPDEST POP POP POP POP SWAP2 POP SWAP2 POP PUSH0 DUP3 DUP6 PUSH2 0x1E43 SWAP2 SWAP1 PUSH2 0x8858 JUMP JUMPDEST SWAP1 POP PUSH0 DUP3 DUP6 PUSH2 0x1E52 SWAP2 SWAP1 PUSH2 0x8858 JUMP JUMPDEST SWAP1 POP PUSH0 PUSH1 0x9E SLOAD TIMESTAMP PUSH2 0x1E63 SWAP2 SWAP1 PUSH2 0x7D29 JUMP JUMPDEST SWAP1 POP PUSH0 PUSH2 0xE10 DUP3 LT PUSH2 0x1E75 JUMPI PUSH0 PUSH2 0x1E84 JUMP JUMPDEST DUP2 PUSH2 0xE10 PUSH2 0x1E83 SWAP2 SWAP1 PUSH2 0x7D29 JUMP JUMPDEST JUMPDEST SWAP1 POP PUSH1 0x9C SLOAD DUP5 GT ISZERO PUSH2 0x1EB2 JUMPI PUSH2 0xE10 DUP2 PUSH1 0x9C SLOAD PUSH2 0x1EA1 SWAP2 SWAP1 PUSH2 0x8650 JUMP JUMPDEST PUSH2 0x1EAB SWAP2 SWAP1 PUSH2 0x8620 JUMP JUMPDEST SWAP10 POP PUSH2 0x1ECE JUMP JUMPDEST PUSH2 0xE10 DUP2 DUP6 PUSH2 0x1EC1 SWAP2 SWAP1 PUSH2 0x8650 JUMP JUMPDEST PUSH2 0x1ECB SWAP2 SWAP1 PUSH2 0x8620 JUMP JUMPDEST SWAP10 POP JUMPDEST PUSH1 0x9D SLOAD DUP4 GT ISZERO PUSH2 0x1EFA JUMPI PUSH2 0xE10 DUP2 PUSH1 0x9D SLOAD PUSH2 0x1EE9 SWAP2 SWAP1 PUSH2 0x8650 JUMP JUMPDEST PUSH2 0x1EF3 SWAP2 SWAP1 PUSH2 0x8620 JUMP JUMPDEST SWAP9 POP PUSH2 0x1F16 JUMP JUMPDEST PUSH2 0xE10 DUP2 DUP5 PUSH2 0x1F09 SWAP2 SWAP1 PUSH2 0x8650 JUMP JUMPDEST PUSH2 0x1F13 SWAP2 SWAP1 PUSH2 0x8620 JUMP JUMPDEST SWAP9 POP JUMPDEST POP POP POP POP POP POP POP POP SWAP1 SWAP2 JUMP JUMPDEST PUSH2 0x1F2B ORIGIN PUSH2 0x3C80 JUMP JUMPDEST JUMP JUMPDEST PUSH1 0xD6 SLOAD DUP2 JUMP JUMPDEST PUSH0 PUSH3 0xF4240 PUSH8 0xDE0B6B3A7640000 PUSH1 0xD1 PUSH0 SWAP1 SLOAD SWAP1 PUSH2 0x100 EXP SWAP1 DIV PUSH20 0xFFFFFFFFFFFFFFFFFFFFFFFFFFFFFFFFFFFFFFFF AND PUSH20 0xFFFFFFFFFFFFFFFFFFFFFFFFFFFFFFFFFFFFFFFF AND PUSH4 0xDDCA3F43 PUSH1 0x40 MLOAD DUP2 PUSH4 0xFFFFFFFF AND PUSH1 0xE0 SHL DUP2 MSTORE PUSH1 0x4 ADD PUSH1 0x20 PUSH1 0x40 MLOAD DUP1 DUP4 SUB DUP2 DUP7 GAS STATICCALL ISZERO DUP1 ISZERO PUSH2 0x1FAB JUMPI RETURNDATASIZE PUSH0 DUP1 RETURNDATACOPY RETURNDATASIZE PUSH0 REVERT JUMPDEST POP POP POP POP PUSH1 0x40 MLOAD RETURNDATASIZE PUSH1 0x1F NOT PUSH1 0x1F DUP3 ADD AND DUP3 ADD DUP1 PUSH1 0x40 MSTORE POP DUP2 ADD SWAP1 PUSH2 0x1FCF SWAP2 SWAP1 PUSH2 0x88C3 JUMP JUMPDEST PUSH3 0xFFFFFF AND PUSH2 0x1FDE SWAP2 SWAP1 PUSH2 0x8650 JUMP JUMPDEST PUSH2 0x1FE8 SWAP2 SWAP1 PUSH2 0x8620 JUMP JUMPDEST SWAP1 POP SWAP1 JUMP JUMPDEST PUSH0 PUSH1 0x65 PUSH0 SWAP1 SLOAD SWAP1 PUSH2 0x100 EXP SWAP1 DIV PUSH1 0xFF AND SWAP1 POP SWAP1 JUMP JUMPDEST PUSH1 0xD3 PUSH0 SWAP1 SLOAD SWAP1 PUSH2 0x100 EXP SWAP1 DIV PUSH20 0xFFFFFFFFFFFFFFFFFFFFFFFFFFFFFFFFFFFFFFFF AND DUP2 JUMP JUMPDEST PUSH2 0x202F PUSH2 0x26FA JUMP JUMPDEST PUSH20 0xFFFFFFFFFFFFFFFFFFFFFFFFFFFFFFFFFFFFFFFF AND CALLER PUSH20 0xFFFFFFFFFFFFFFFFFFFFFFFFFFFFFFFFFFFFFFFF AND EQ ISZERO DUP1 ISZERO PUSH2 0x209D JUMPI POP PUSH2 0x206D PUSH2 0x2ADF JUMP JUMPDEST PUSH20 0xFFFFFFFFFFFFFFFFFFFFFFFFFFFFFFFFFFFFFFFF AND CALLER PUSH20 0xFFFFFFFFFFFFFFFFFFFFFFFFFFFFFFFFFFFFFFFF AND EQ ISZERO JUMPDEST ISZERO PUSH2 0x20D4 JUMPI PUSH1 0x40 MLOAD PUSH32 0xC0FC8A8A00000000000000000000000000000000000000000000000000000000 DUP2 MSTORE PUSH1 0x4 ADD PUSH1 0x40 MLOAD DUP1 SWAP2 SUB SWAP1 REVERT JUMPDEST PUSH2 0x20DC PUSH2 0x3D38 JUMP JUMPDEST POP POP POP POP PUSH2 0x20E8 PUSH2 0x42CD JUMP JUMPDEST PUSH2 0x20F0 PUSH2 0x4E7F JUMP JUMPDEST PUSH2 0x20F8 PUSH2 0x4F5B JUMP JUMPDEST PUSH0 DUP1 PUSH2 0x2102 PUSH2 0x217A JUMP JUMPDEST SWAP2 POP SWAP2 POP DUP4 DUP3 LT DUP1 PUSH2 0x2113 JUMPI POP DUP3 DUP2 LT JUMPDEST ISZERO PUSH2 0x214A JUMPI PUSH1 0x40 MLOAD PUSH32 0xFA6AD35500000000000000000000000000000000000000000000000000000000 DUP2 MSTORE PUSH1 0x4 ADD PUSH1 0x40 MLOAD DUP1 SWAP2 SUB SWAP1 REVERT JUMPDEST POP POP POP POP JUMP JUMPDEST PUSH0 SWAP1 JUMP JUMPDEST PUSH1 0xDB PUSH1 0x3 SWAP1 SLOAD SWAP1 PUSH2 0x100 EXP SWAP1 DIV PUSH1 0x6 SIGNEXTEND DUP2 JUMP JUMPDEST PUSH2 0x216F PUSH2 0x3AB5 JUMP JUMPDEST PUSH2 0x2178 PUSH0 PUSH2 0x4FBD JUMP JUMPDEST JUMP JUMPDEST PUSH0 DUP1 PUSH0 DUP1 PUSH2 0x2186 PUSH2 0xB85 JUMP JUMPDEST SWAP2 POP SWAP2 POP PUSH0 DUP1 PUSH2 0x2194 PUSH2 0x3817 JUMP JUMPDEST POP POP POP POP SWAP2 POP SWAP2 POP PUSH0 DUP1 PUSH2 0x21A6 PUSH2 0x1E14 JUMP JUMPDEST SWAP2 POP SWAP2 POP PUSH0 DUP3 DUP6 DUP9 PUSH2 0x21B8 SWAP2 SWAP1 PUSH2 0x8858 JUMP JUMPDEST PUSH2 0x21C2 SWAP2 SWAP1 PUSH2 0x7D29 JUMP JUMPDEST SWAP1 POP PUSH0 DUP3 DUP6 DUP9 PUSH2 0x21D2 SWAP2 SWAP1 PUSH2 0x8858 JUMP JUMPDEST PUSH2 0x21DC SWAP2 SWAP1 PUSH2 0x7D29 JUMP JUMPDEST SWAP1 POP PUSH0 PUSH1 0xD5 SLOAD SWAP1 POP PUSH0 PUSH1 0xD6 SLOAD SWAP1 POP DUP4 DUP3 GT ISZERO PUSH2 0x21F6 JUMPI DUP4 SWAP2 POP JUMPDEST DUP3 DUP2 GT ISZERO PUSH2 0x2202 JUMPI DUP3 SWAP1 POP JUMPDEST DUP2 DUP5 PUSH2 0x220E SWAP2 SWAP1 PUSH2 0x7D29 JUMP JUMPDEST DUP2 DUP5 PUSH2 0x221A SWAP2 SWAP1 PUSH2 0x7D29 JUMP JUMPDEST SWAP12 POP SWAP12 POP POP POP POP POP POP POP POP POP POP POP SWAP1 SWAP2 JUMP JUMPDEST PUSH0 DUP1 PUSH1 0x1 SWAP1 SLOAD SWAP1 PUSH2 0x100 EXP SWAP1 DIV PUSH1 0xFF AND ISZERO SWAP1 POP DUP1 DUP1 ISZERO PUSH2 0x225B JUMPI POP PUSH1 0x1 PUSH0 DUP1 SLOAD SWAP1 PUSH2 0x100 EXP SWAP1 DIV PUSH1 0xFF AND PUSH1 0xFF AND LT JUMPDEST DUP1 PUSH2 0x2287 JUMPI POP PUSH2 0x226A ADDRESS PUSH2 0x5080 JUMP JUMPDEST ISZERO DUP1 ISZERO PUSH2 0x2286 JUMPI POP PUSH1 0x1 PUSH0 DUP1 SLOAD SWAP1 PUSH2 0x100 EXP SWAP1 DIV PUSH1 0xFF AND PUSH1 0xFF AND EQ JUMPDEST JUMPDEST PUSH2 0x22C6 JUMPI PUSH1 0x40 MLOAD PUSH32 0x8C379A000000000000000000000000000000000000000000000000000000000 DUP2 MSTORE PUSH1 0x4 ADD PUSH2 0x22BD SWAP1 PUSH2 0x896E JUMP JUMPDEST PUSH1 0x40 MLOAD DUP1 SWAP2 SUB SWAP1 REVERT JUMPDEST PUSH1 0x1 PUSH0 DUP1 PUSH2 0x100 EXP DUP2 SLOAD DUP2 PUSH1 0xFF MUL NOT AND SWAP1 DUP4 PUSH1 0xFF AND MUL OR SWAP1 SSTORE POP DUP1 ISZERO PUSH2 0x2301 JUMPI PUSH1 0x1 PUSH0 PUSH1 0x1 PUSH2 0x100 EXP DUP2 SLOAD DUP2 PUSH1 0xFF MUL NOT AND SWAP1 DUP4 ISZERO ISZERO MUL OR SWAP1 SSTORE POP JUMPDEST PUSH2 0x230A DUP3 PUSH2 0x50A2 JUMP JUMPDEST DUP9 PUSH1 0xD1 PUSH0 PUSH2 0x100 EXP DUP2 SLOAD DUP2 PUSH20 0xFFFFFFFFFFFFFFFFFFFFFFFFFFFFFFFFFFFFFFFF MUL NOT AND SWAP1 DUP4 PUSH20 0xFFFFFFFFFFFFFFFFFFFFFFFFFFFFFFFFFFFFFFFF AND MUL OR SWAP1 SSTORE POP DUP8 PUSH1 0xD2 PUSH0 PUSH2 0x100 EXP DUP2 SLOAD DUP2 PUSH20 0xFFFFFFFFFFFFFFFFFFFFFFFFFFFFFFFFFFFFFFFF MUL NOT AND SWAP1 DUP4 PUSH20 0xFFFFFFFFFFFFFFFFFFFFFFFFFFFFFFFFFFFFFFFF AND MUL OR SWAP1 SSTORE POP DUP9 PUSH20 0xFFFFFFFFFFFFFFFFFFFFFFFFFFFFFFFFFFFFFFFF AND PUSH4 0xDFE1681 PUSH1 0x40 MLOAD DUP2 PUSH4 0xFFFFFFFF AND PUSH1 0xE0 SHL DUP2 MSTORE PUSH1 0x4 ADD PUSH1 0x20 PUSH1 0x40 MLOAD DUP1 DUP4 SUB DUP2 DUP7 GAS STATICCALL ISZERO DUP1 ISZERO PUSH2 0x23D3 JUMPI RETURNDATASIZE PUSH0 DUP1 RETURNDATACOPY RETURNDATASIZE PUSH0 REVERT JUMPDEST POP POP POP POP PUSH1 0x40 MLOAD RETURNDATASIZE PUSH1 0x1F NOT PUSH1 0x1F DUP3 ADD AND DUP3 ADD DUP1 PUSH1 0x40 MSTORE POP DUP2 ADD SWAP1 PUSH2 0x23F7 SWAP2 SWAP1 PUSH2 0x89A0 JUMP JUMPDEST PUSH1 0xD3 PUSH0 PUSH2 0x100 EXP DUP2 SLOAD DUP2 PUSH20 0xFFFFFFFFFFFFFFFFFFFFFFFFFFFFFFFFFFFFFFFF MUL NOT AND SWAP1 DUP4 PUSH20 0xFFFFFFFFFFFFFFFFFFFFFFFFFFFFFFFFFFFFFFFF AND MUL OR SWAP1 SSTORE POP DUP9 PUSH20 0xFFFFFFFFFFFFFFFFFFFFFFFFFFFFFFFFFFFFFFFF AND PUSH4 0xD21220A7 PUSH1 0x40 MLOAD DUP2 PUSH4 0xFFFFFFFF AND PUSH1 0xE0 SHL DUP2 MSTORE PUSH1 0x4 ADD PUSH1 0x20 PUSH1 0x40 MLOAD DUP1 DUP4 SUB DUP2 DUP7 GAS STATICCALL ISZERO DUP1 ISZERO PUSH2 0x247F JUMPI RETURNDATASIZE PUSH0 DUP1 RETURNDATACOPY RETURNDATASIZE PUSH0 REVERT JUMPDEST POP POP POP POP PUSH1 0x40 MLOAD RETURNDATASIZE PUSH1 0x1F NOT PUSH1 0x1F DUP3 ADD AND DUP3 ADD DUP1 PUSH1 0x40 MSTORE POP DUP2 ADD SWAP1 PUSH2 0x24A3 SWAP2 SWAP1 PUSH2 0x89A0 JUMP JUMPDEST PUSH1 0xD4 PUSH0 PUSH2 0x100 EXP DUP2 SLOAD DUP2 PUSH20 0xFFFFFFFFFFFFFFFFFFFFFFFFFFFFFFFFFFFFFFFF MUL NOT AND SWAP1 DUP4 PUSH20 0xFFFFFFFFFFFFFFFFFFFFFFFFFFFFFFFFFFFFFFFF AND MUL OR SWAP1 SSTORE POP DUP7 PUSH1 0xDB PUSH0 PUSH2 0x100 EXP DUP2 SLOAD DUP2 PUSH3 0xFFFFFF MUL NOT AND SWAP1 DUP4 PUSH1 0x2 SIGNEXTEND PUSH3 0xFFFFFF AND MUL OR SWAP1 SSTORE POP PUSH2 0x250D DUP7 DUP7 PUSH2 0x1632 JUMP JUMPDEST PUSH2 0x2517 DUP5 DUP5 PUSH2 0xD73 JUMP JUMPDEST PUSH1 0x78 PUSH1 0xDB PUSH1 0xA PUSH2 0x100 EXP DUP2 SLOAD DUP2 PUSH4 0xFFFFFFFF MUL NOT AND SWAP1 DUP4 PUSH4 0xFFFFFFFF AND MUL OR SWAP1 SSTORE POP PUSH2 0x2541 PUSH2 0x4BD9 JUMP JUMPDEST DUP1 ISZERO PUSH2 0x2599 JUMPI PUSH0 DUP1 PUSH1 0x1 PUSH2 0x100 EXP DUP2 SLOAD DUP2 PUSH1 0xFF MUL NOT AND SWAP1 DUP4 ISZERO ISZERO MUL OR SWAP1 SSTORE POP PUSH32 0x7F26B83FF96E1F2B6A682F133852F6798A09C465DA95921460CEFB3847402498 PUSH1 0x1 PUSH1 0x40 MLOAD PUSH2 0x2590 SWAP2 SWAP1 PUSH2 0x8A04 JUMP JUMPDEST PUSH1 0x40 MLOAD DUP1 SWAP2 SUB SWAP1 LOG1 JUMPDEST POP POP POP POP POP POP POP POP POP JUMP JUMPDEST PUSH1 0xDB PUSH0 SWAP1 SLOAD SWAP1 PUSH2 0x100 EXP SWAP1 DIV PUSH1 0x2 SIGNEXTEND DUP2 JUMP JUMPDEST PUSH1 0x9F SLOAD DUP2 JUMP JUMPDEST PUSH0 PUSH1 0x9B PUSH0 SWAP1 SLOAD SWAP1 PUSH2 0x100 EXP SWAP1 DIV PUSH20 0xFFFFFFFFFFFFFFFFFFFFFFFFFFFFFFFFFFFFFFFF AND PUSH20 0xFFFFFFFFFFFFFFFFFFFFFFFFFFFFFFFFFFFFFFFF AND PUSH4 0x8683ED5B PUSH1 0x40 MLOAD DUP2 PUSH4 0xFFFFFFFF AND PUSH1 0xE0 SHL DUP2 MSTORE PUSH1 0x4 ADD PUSH1 0x20 PUSH1 0x40 MLOAD DUP1 DUP4 SUB DUP2 DUP7 GAS STATICCALL ISZERO DUP1 ISZERO PUSH2 0x2627 JUMPI RETURNDATASIZE PUSH0 DUP1 RETURNDATACOPY RETURNDATASIZE PUSH0 REVERT JUMPDEST POP POP POP POP PUSH1 0x40 MLOAD RETURNDATASIZE PUSH1 0x1F NOT PUSH1 0x1F DUP3 ADD AND DUP3 ADD DUP1 PUSH1 0x40 MSTORE POP DUP2 ADD SWAP1 PUSH2 0x264B SWAP2 SWAP1 PUSH2 0x89A0 JUMP JUMPDEST SWAP1 POP SWAP1 JUMP JUMPDEST PUSH1 0xD4 PUSH0 SWAP1 SLOAD SWAP1 PUSH2 0x100 EXP SWAP1 DIV PUSH20 0xFFFFFFFFFFFFFFFFFFFFFFFFFFFFFFFFFFFFFFFF AND DUP2 JUMP JUMPDEST PUSH0 PUSH2 0x267E PUSH2 0x3613 JUMP JUMPDEST PUSH20 0xFFFFFFFFFFFFFFFFFFFFFFFFFFFFFFFFFFFFFFFF AND PUSH4 0xCF104622 ADDRESS PUSH1 0x40 MLOAD DUP3 PUSH4 0xFFFFFFFF AND PUSH1 0xE0 SHL DUP2 MSTORE PUSH1 0x4 ADD PUSH2 0x26B6 SWAP2 SWAP1 PUSH2 0x71B5 JUMP JUMPDEST PUSH1 0x20 PUSH1 0x40 MLOAD DUP1 DUP4 SUB DUP2 DUP7 GAS STATICCALL ISZERO DUP1 ISZERO PUSH2 0x26D1 JUMPI RETURNDATASIZE PUSH0 DUP1 RETURNDATACOPY RETURNDATASIZE PUSH0 REVERT JUMPDEST POP POP POP POP PUSH1 0x40 MLOAD RETURNDATASIZE PUSH1 0x1F NOT PUSH1 0x1F DUP3 ADD AND DUP3 ADD DUP1 PUSH1 0x40 MSTORE POP DUP2 ADD SWAP1 PUSH2 0x26F5 SWAP2 SWAP1 PUSH2 0x7B54 JUMP JUMPDEST SWAP1 POP SWAP1 JUMP JUMPDEST PUSH0 PUSH1 0x33 PUSH0 SWAP1 SLOAD SWAP1 PUSH2 0x100 EXP SWAP1 DIV PUSH20 0xFFFFFFFFFFFFFFFFFFFFFFFFFFFFFFFFFFFFFFFF AND SWAP1 POP SWAP1 JUMP JUMPDEST PUSH1 0xD5 SLOAD DUP2 JUMP JUMPDEST PUSH1 0xD8 DUP1 SLOAD PUSH2 0x2735 SWAP1 PUSH2 0x7D93 JUMP JUMPDEST DUP1 PUSH1 0x1F ADD PUSH1 0x20 DUP1 SWAP2 DIV MUL PUSH1 0x20 ADD PUSH1 0x40 MLOAD SWAP1 DUP2 ADD PUSH1 0x40 MSTORE DUP1 SWAP3 SWAP2 SWAP1 DUP2 DUP2 MSTORE PUSH1 0x20 ADD DUP3 DUP1 SLOAD PUSH2 0x2761 SWAP1 PUSH2 0x7D93 JUMP JUMPDEST DUP1 ISZERO PUSH2 0x27AC JUMPI DUP1 PUSH1 0x1F LT PUSH2 0x2783 JUMPI PUSH2 0x100 DUP1 DUP4 SLOAD DIV MUL DUP4 MSTORE SWAP2 PUSH1 0x20 ADD SWAP2 PUSH2 0x27AC JUMP JUMPDEST DUP3 ADD SWAP2 SWAP1 PUSH0 MSTORE PUSH1 0x20 PUSH0 KECCAK256 SWAP1 JUMPDEST DUP2 SLOAD DUP2 MSTORE SWAP1 PUSH1 0x1 ADD SWAP1 PUSH1 0x20 ADD DUP1 DUP4 GT PUSH2 0x278F JUMPI DUP3 SWAP1 SUB PUSH1 0x1F AND DUP3 ADD SWAP2 JUMPDEST POP POP POP POP POP DUP2 JUMP JUMPDEST PUSH1 0xDA DUP1 PUSH0 ADD PUSH0 SWAP1 SLOAD SWAP1 PUSH2 0x100 EXP SWAP1 DIV PUSH1 0x2 SIGNEXTEND SWAP1 DUP1 PUSH0 ADD PUSH1 0x3 SWAP1 SLOAD SWAP1 PUSH2 0x100 EXP SWAP1 DIV PUSH1 0x2 SIGNEXTEND SWAP1 POP DUP3 JUMP JUMPDEST PUSH0 DUP1 PUSH2 0x27E7 PUSH2 0xCC7 JUMP JUMPDEST SWAP1 POP PUSH0 PUSH2 0x27F2 PUSH2 0xFA4 JUMP JUMPDEST SWAP1 POP PUSH0 PUSH2 0x283F PUSH1 0xDB PUSH1 0x3 SWAP1 SLOAD SWAP1 PUSH2 0x100 EXP SWAP1 DIV PUSH1 0x6 SIGNEXTEND DUP4 PUSH2 0x2813 SWAP2 SWAP1 PUSH2 0x8353 JUMP JUMPDEST PUSH1 0x6 SIGNEXTEND PUSH32 0xFFFFFFFFFFFFFFFFFFFFFFFFFFFFFFFFFFFFFFFFFFFFFFFFFFFFFFFFFFF27618 PUSH1 0x6 SIGNEXTEND PUSH2 0x5317 JUMP JUMPDEST SWAP1 POP PUSH0 PUSH2 0x286F PUSH1 0xDB PUSH1 0x3 SWAP1 SLOAD SWAP1 PUSH2 0x100 EXP SWAP1 DIV PUSH1 0x6 SIGNEXTEND DUP5 PUSH2 0x2860 SWAP2 SWAP1 PUSH2 0x8A1D JUMP JUMPDEST PUSH1 0x6 SIGNEXTEND PUSH3 0xD89E8 PUSH1 0x6 SIGNEXTEND PUSH2 0x532F JUMP JUMPDEST SWAP1 POP DUP4 PUSH1 0x2 SIGNEXTEND DUP3 PUSH1 0x6 SIGNEXTEND SGT DUP1 PUSH2 0x288A JUMPI POP DUP4 PUSH1 0x2 SIGNEXTEND DUP2 PUSH1 0x6 SIGNEXTEND SLT JUMPDEST ISZERO PUSH2 0x289B JUMPI PUSH0 SWAP5 POP POP POP POP POP PUSH2 0x28A4 JUMP JUMPDEST PUSH1 0x1 SWAP5 POP POP POP POP POP JUMPDEST SWAP1 JUMP JUMPDEST PUSH0 DUP1 PUSH1 0xA PUSH1 0xD3 PUSH0 SWAP1 SLOAD SWAP1 PUSH2 0x100 EXP SWAP1 DIV PUSH20 0xFFFFFFFFFFFFFFFFFFFFFFFFFFFFFFFFFFFFFFFF AND PUSH20 0xFFFFFFFFFFFFFFFFFFFFFFFFFFFFFFFFFFFFFFFF AND PUSH4 0x313CE567 PUSH1 0x40 MLOAD DUP2 PUSH4 0xFFFFFFFF AND PUSH1 0xE0 SHL DUP2 MSTORE PUSH1 0x4 ADD PUSH1 0x20 PUSH1 0x40 MLOAD DUP1 DUP4 SUB DUP2 DUP7 GAS STATICCALL ISZERO DUP1 ISZERO PUSH2 0x2915 JUMPI RETURNDATASIZE PUSH0 DUP1 RETURNDATACOPY RETURNDATASIZE PUSH0 REVERT JUMPDEST POP POP POP POP PUSH1 0x40 MLOAD RETURNDATASIZE PUSH1 0x1F NOT PUSH1 0x1F DUP3 ADD AND DUP3 ADD DUP1 PUSH1 0x40 MSTORE POP DUP2 ADD SWAP1 PUSH2 0x2939 SWAP2 SWAP1 PUSH2 0x847C JUMP JUMPDEST PUSH1 0xA PUSH2 0x2945 SWAP2 SWAP1 PUSH2 0x85D6 JUMP JUMPDEST PUSH2 0x294F SWAP2 SWAP1 PUSH2 0x8620 JUMP JUMPDEST SWAP1 POP PUSH1 0x97 PUSH0 SWAP1 SLOAD SWAP1 PUSH2 0x100 EXP SWAP1 DIV PUSH20 0xFFFFFFFFFFFFFFFFFFFFFFFFFFFFFFFFFFFFFFFF AND PUSH20 0xFFFFFFFFFFFFFFFFFFFFFFFFFFFFFFFFFFFFFFFF AND PUSH1 0xD3 PUSH0 SWAP1 SLOAD SWAP1 PUSH2 0x100 EXP SWAP1 DIV PUSH20 0xFFFFFFFFFFFFFFFFFFFFFFFFFFFFFFFFFFFFFFFF AND PUSH20 0xFFFFFFFFFFFFFFFFFFFFFFFFFFFFFFFFFFFFFFFF AND SUB PUSH2 0x29DB JUMPI PUSH1 0xA DUP2 PUSH2 0x29D3 SWAP2 SWAP1 PUSH2 0x8650 JUMP JUMPDEST SWAP2 POP POP PUSH2 0x2A88 JUMP JUMPDEST PUSH1 0xA PUSH1 0xD2 PUSH0 SWAP1 SLOAD SWAP1 PUSH2 0x100 EXP SWAP1 DIV PUSH20 0xFFFFFFFFFFFFFFFFFFFFFFFFFFFFFFFFFFFFFFFF AND PUSH20 0xFFFFFFFFFFFFFFFFFFFFFFFFFFFFFFFFFFFFFFFF AND PUSH4 0xCDCA1753 PUSH1 0xD7 DUP5 PUSH1 0x40 MLOAD DUP4 PUSH4 0xFFFFFFFF AND PUSH1 0xE0 SHL DUP2 MSTORE PUSH1 0x4 ADD PUSH2 0x2A3A SWAP3 SWAP2 SWAP1 PUSH2 0x8712 JUMP JUMPDEST PUSH1 0x20 PUSH1 0x40 MLOAD DUP1 DUP4 SUB DUP2 PUSH0 DUP8 GAS CALL ISZERO DUP1 ISZERO PUSH2 0x2A56 JUMPI RETURNDATASIZE PUSH0 DUP1 RETURNDATACOPY RETURNDATASIZE PUSH0 REVERT JUMPDEST POP POP POP POP PUSH1 0x40 MLOAD RETURNDATASIZE PUSH1 0x1F NOT PUSH1 0x1F DUP3 ADD AND DUP3 ADD DUP1 PUSH1 0x40 MSTORE POP DUP2 ADD SWAP1 PUSH2 0x2A7A SWAP2 SWAP1 PUSH2 0x7B54 JUMP JUMPDEST PUSH2 0x2A84 SWAP2 SWAP1 PUSH2 0x8650 JUMP JUMPDEST SWAP2 POP POP JUMPDEST SWAP1 JUMP JUMPDEST PUSH0 DUP1 PUSH2 0x2A95 PUSH2 0x2E8B JUMP JUMPDEST SWAP1 POP PUSH1 0x2 PUSH2 0x2ACF DUP3 PUSH20 0xFFFFFFFFFFFFFFFFFFFFFFFFFFFFFFFFFFFFFFFF AND PUSH8 0xDE0B6B3A7640000 PUSH13 0x1000000000000000000000000 PUSH2 0x5347 JUMP JUMPDEST PUSH2 0x2AD9 SWAP2 SWAP1 PUSH2 0x85D6 JUMP JUMPDEST SWAP2 POP POP SWAP1 JUMP JUMPDEST PUSH0 PUSH1 0x9B PUSH0 SWAP1 SLOAD SWAP1 PUSH2 0x100 EXP SWAP1 DIV PUSH20 0xFFFFFFFFFFFFFFFFFFFFFFFFFFFFFFFFFFFFFFFF AND PUSH20 0xFFFFFFFFFFFFFFFFFFFFFFFFFFFFFFFFFFFFFFFF AND PUSH4 0xACED1661 PUSH1 0x40 MLOAD DUP2 PUSH4 0xFFFFFFFF AND PUSH1 0xE0 SHL DUP2 MSTORE PUSH1 0x4 ADD PUSH1 0x20 PUSH1 0x40 MLOAD DUP1 DUP4 SUB DUP2 DUP7 GAS STATICCALL ISZERO DUP1 ISZERO PUSH2 0x2B4A JUMPI RETURNDATASIZE PUSH0 DUP1 RETURNDATACOPY RETURNDATASIZE PUSH0 REVERT JUMPDEST POP POP POP POP PUSH1 0x40 MLOAD RETURNDATASIZE PUSH1 0x1F NOT PUSH1 0x1F DUP3 ADD AND DUP3 ADD DUP1 PUSH1 0x40 MSTORE POP DUP2 ADD SWAP1 PUSH2 0x2B6E SWAP2 SWAP1 PUSH2 0x89A0 JUMP JUMPDEST SWAP1 POP SWAP1 JUMP JUMPDEST PUSH2 0x2B7B PUSH2 0x6F80 JUMP JUMPDEST PUSH1 0x40 MLOAD DUP1 PUSH1 0x60 ADD PUSH1 0x40 MSTORE DUP1 PUSH2 0x2B8E PUSH2 0x5417 JUMP JUMPDEST DUP2 MSTORE PUSH1 0x20 ADD PUSH2 0x2B9B PUSH2 0x2150 JUMP JUMPDEST DUP2 MSTORE PUSH1 0x20 ADD PUSH2 0x2BA8 PUSH2 0x36A7 JUMP JUMPDEST DUP2 MSTORE POP SWAP1 POP SWAP1 JUMP JUMPDEST PUSH2 0x2BB8 PUSH2 0x3AB5 JUMP JUMPDEST PUSH2 0x3E8 PUSH1 0x98 PUSH0 SWAP1 SLOAD SWAP1 PUSH2 0x100 EXP SWAP1 DIV PUSH20 0xFFFFFFFFFFFFFFFFFFFFFFFFFFFFFFFFFFFFFFFF AND PUSH20 0xFFFFFFFFFFFFFFFFFFFFFFFFFFFFFFFFFFFFFFFF AND PUSH4 0x18160DDD PUSH1 0x40 MLOAD DUP2 PUSH4 0xFFFFFFFF AND PUSH1 0xE0 SHL DUP2 MSTORE PUSH1 0x4 ADD PUSH1 0x20 PUSH1 0x40 MLOAD DUP1 DUP4 SUB DUP2 DUP7 GAS STATICCALL ISZERO DUP1 ISZERO PUSH2 0x2C25 JUMPI RETURNDATASIZE PUSH0 DUP1 RETURNDATACOPY RETURNDATASIZE PUSH0 REVERT JUMPDEST POP POP POP POP PUSH1 0x40 MLOAD RETURNDATASIZE PUSH1 0x1F NOT PUSH1 0x1F DUP3 ADD AND DUP3 ADD DUP1 PUSH1 0x40 MSTORE POP DUP2 ADD SWAP1 PUSH2 0x2C49 SWAP2 SWAP1 PUSH2 0x7B54 JUMP JUMPDEST EQ PUSH2 0x2C80 JUMPI PUSH1 0x40 MLOAD PUSH32 0xEA8E4EB500000000000000000000000000000000000000000000000000000000 DUP2 MSTORE PUSH1 0x4 ADD PUSH1 0x40 MLOAD DUP1 SWAP2 SUB SWAP1 REVERT JUMPDEST PUSH2 0x2C8A PUSH0 DUP1 PUSH2 0x2027 JUMP JUMPDEST PUSH0 PUSH2 0x2C93 PUSH2 0x25BC JUMP JUMPDEST SWAP1 POP PUSH0 DUP1 PUSH2 0x2C9F PUSH2 0xB85 JUMP JUMPDEST SWAP2 POP SWAP2 POP PUSH0 DUP3 GT ISZERO PUSH2 0x2D90 JUMPI PUSH2 0x2D8F DUP4 PUSH1 0xD3 PUSH0 SWAP1 SLOAD SWAP1 PUSH2 0x100 EXP SWAP1 DIV PUSH20 0xFFFFFFFFFFFFFFFFFFFFFFFFFFFFFFFFFFFFFFFF AND PUSH20 0xFFFFFFFFFFFFFFFFFFFFFFFFFFFFFFFFFFFFFFFF AND PUSH4 0x70A08231 ADDRESS PUSH1 0x40 MLOAD DUP3 PUSH4 0xFFFFFFFF AND PUSH1 0xE0 SHL DUP2 MSTORE PUSH1 0x4 ADD PUSH2 0x2D09 SWAP2 SWAP1 PUSH2 0x71B5 JUMP JUMPDEST PUSH1 0x20 PUSH1 0x40 MLOAD DUP1 DUP4 SUB DUP2 DUP7 GAS STATICCALL ISZERO DUP1 ISZERO PUSH2 0x2D24 JUMPI RETURNDATASIZE PUSH0 DUP1 RETURNDATACOPY RETURNDATASIZE PUSH0 REVERT JUMPDEST POP POP POP POP PUSH1 0x40 MLOAD RETURNDATASIZE PUSH1 0x1F NOT PUSH1 0x1F DUP3 ADD AND DUP3 ADD DUP1 PUSH1 0x40 MSTORE POP DUP2 ADD SWAP1 PUSH2 0x2D48 SWAP2 SWAP1 PUSH2 0x7B54 JUMP JUMPDEST PUSH1 0xD3 PUSH0 SWAP1 SLOAD SWAP1 PUSH2 0x100 EXP SWAP1 DIV PUSH20 0xFFFFFFFFFFFFFFFFFFFFFFFFFFFFFFFFFFFFFFFF AND PUSH20 0xFFFFFFFFFFFFFFFFFFFFFFFFFFFFFFFFFFFFFFFF AND PUSH2 0x4D56 SWAP1 SWAP3 SWAP2 SWAP1 PUSH4 0xFFFFFFFF AND JUMP JUMPDEST JUMPDEST PUSH0 DUP2 GT ISZERO PUSH2 0x2E7D JUMPI PUSH2 0x2E7C DUP4 PUSH1 0xD4 PUSH0 SWAP1 SLOAD SWAP1 PUSH2 0x100 EXP SWAP1 DIV PUSH20 0xFFFFFFFFFFFFFFFFFFFFFFFFFFFFFFFFFFFFFFFF AND PUSH20 0xFFFFFFFFFFFFFFFFFFFFFFFFFFFFFFFFFFFFFFFF AND PUSH4 0x70A08231 ADDRESS PUSH1 0x40 MLOAD DUP3 PUSH4 0xFFFFFFFF AND PUSH1 0xE0 SHL DUP2 MSTORE PUSH1 0x4 ADD PUSH2 0x2DF6 SWAP2 SWAP1 PUSH2 0x71B5 JUMP JUMPDEST PUSH1 0x20 PUSH1 0x40 MLOAD DUP1 DUP4 SUB DUP2 DUP7 GAS STATICCALL ISZERO DUP1 ISZERO PUSH2 0x2E11 JUMPI RETURNDATASIZE PUSH0 DUP1 RETURNDATACOPY RETURNDATASIZE PUSH0 REVERT JUMPDEST POP POP POP POP PUSH1 0x40 MLOAD RETURNDATASIZE PUSH1 0x1F NOT PUSH1 0x1F DUP3 ADD AND DUP3 ADD DUP1 PUSH1 0x40 MSTORE POP DUP2 ADD SWAP1 PUSH2 0x2E35 SWAP2 SWAP1 PUSH2 0x7B54 JUMP JUMPDEST PUSH1 0xD4 PUSH0 SWAP1 SLOAD SWAP1 PUSH2 0x100 EXP SWAP1 DIV PUSH20 0xFFFFFFFFFFFFFFFFFFFFFFFFFFFFFFFFFFFFFFFF AND PUSH20 0xFFFFFFFFFFFFFFFFFFFFFFFFFFFFFFFFFFFFFFFF AND PUSH2 0x4D56 SWAP1 SWAP3 SWAP2 SWAP1 PUSH4 0xFFFFFFFF AND JUMP JUMPDEST JUMPDEST PUSH2 0x2E86 PUSH0 PUSH2 0x4FBD JUMP JUMPDEST POP POP POP JUMP JUMPDEST PUSH0 PUSH1 0xD1 PUSH0 SWAP1 SLOAD SWAP1 PUSH2 0x100 EXP SWAP1 DIV PUSH20 0xFFFFFFFFFFFFFFFFFFFFFFFFFFFFFFFFFFFFFFFF AND PUSH20 0xFFFFFFFFFFFFFFFFFFFFFFFFFFFFFFFFFFFFFFFF AND PUSH4 0x3850C7BD PUSH1 0x40 MLOAD DUP2 PUSH4 0xFFFFFFFF AND PUSH1 0xE0 SHL DUP2 MSTORE PUSH1 0x4 ADD PUSH1 0xE0 PUSH1 0x40 MLOAD DUP1 DUP4 SUB DUP2 DUP7 GAS STATICCALL ISZERO DUP1 ISZERO PUSH2 0x2EF6 JUMPI RETURNDATASIZE PUSH0 DUP1 RETURNDATACOPY RETURNDATASIZE PUSH0 REVERT JUMPDEST POP POP POP POP PUSH1 0x40 MLOAD RETURNDATASIZE PUSH1 0x1F NOT PUSH1 0x1F DUP3 ADD AND DUP3 ADD DUP1 PUSH1 0x40 MSTORE POP DUP2 ADD SWAP1 PUSH2 0x2F1A SWAP2 SWAP1 PUSH2 0x7C32 JUMP JUMPDEST SWAP1 SWAP2 SWAP3 SWAP4 SWAP5 POP SWAP1 SWAP2 SWAP3 SWAP4 POP SWAP1 SWAP2 SWAP3 POP SWAP1 SWAP2 POP SWAP1 POP POP DUP1 SWAP2 POP POP SWAP1 JUMP JUMPDEST PUSH1 0xD9 DUP1 PUSH0 ADD PUSH0 SWAP1 SLOAD SWAP1 PUSH2 0x100 EXP SWAP1 DIV PUSH1 0x2 SIGNEXTEND SWAP1 DUP1 PUSH0 ADD PUSH1 0x3 SWAP1 SLOAD SWAP1 PUSH2 0x100 EXP SWAP1 DIV PUSH1 0x2 SIGNEXTEND SWAP1 POP DUP3 JUMP JUMPDEST PUSH1 0x9B PUSH0 SWAP1 SLOAD SWAP1 PUSH2 0x100 EXP SWAP1 DIV PUSH20 0xFFFFFFFFFFFFFFFFFFFFFFFFFFFFFFFFFFFFFFFF AND DUP2 JUMP JUMPDEST PUSH1 0xD2 PUSH0 SWAP1 SLOAD SWAP1 PUSH2 0x100 EXP SWAP1 DIV PUSH20 0xFFFFFFFFFFFFFFFFFFFFFFFFFFFFFFFFFFFFFFFF AND DUP2 JUMP JUMPDEST PUSH1 0x60 PUSH0 PUSH1 0xD8 DUP1 SLOAD PUSH2 0x2FB9 SWAP1 PUSH2 0x7D93 JUMP JUMPDEST SWAP1 POP SUB PUSH2 0x3010 JUMPI PUSH0 PUSH8 0xFFFFFFFFFFFFFFFF DUP2 GT ISZERO PUSH2 0x2FDA JUMPI PUSH2 0x2FD9 PUSH2 0x78D5 JUMP JUMPDEST JUMPDEST PUSH1 0x40 MLOAD SWAP1 DUP1 DUP3 MSTORE DUP1 PUSH1 0x20 MUL PUSH1 0x20 ADD DUP3 ADD PUSH1 0x40 MSTORE DUP1 ISZERO PUSH2 0x3008 JUMPI DUP2 PUSH1 0x20 ADD PUSH1 0x20 DUP3 MUL DUP1 CALLDATASIZE DUP4 CALLDATACOPY DUP1 DUP3 ADD SWAP2 POP POP SWAP1 POP JUMPDEST POP SWAP1 POP PUSH2 0x30A4 JUMP JUMPDEST PUSH2 0x30A1 PUSH1 0xD8 DUP1 SLOAD PUSH2 0x3020 SWAP1 PUSH2 0x7D93 JUMP JUMPDEST DUP1 PUSH1 0x1F ADD PUSH1 0x20 DUP1 SWAP2 DIV MUL PUSH1 0x20 ADD PUSH1 0x40 MLOAD SWAP1 DUP2 ADD PUSH1 0x40 MSTORE DUP1 SWAP3 SWAP2 SWAP1 DUP2 DUP2 MSTORE PUSH1 0x20 ADD DUP3 DUP1 SLOAD PUSH2 0x304C SWAP1 PUSH2 0x7D93 JUMP JUMPDEST DUP1 ISZERO PUSH2 0x3097 JUMPI DUP1 PUSH1 0x1F LT PUSH2 0x306E JUMPI PUSH2 0x100 DUP1 DUP4 SLOAD DIV MUL DUP4 MSTORE SWAP2 PUSH1 0x20 ADD SWAP2 PUSH2 0x3097 JUMP JUMPDEST DUP3 ADD SWAP2 SWAP1 PUSH0 MSTORE PUSH1 0x20 PUSH0 KECCAK256 SWAP1 JUMPDEST DUP2 SLOAD DUP2 MSTORE SWAP1 PUSH1 0x1 ADD SWAP1 PUSH1 0x20 ADD DUP1 DUP4 GT PUSH2 0x307A JUMPI DUP3 SWAP1 SUB PUSH1 0x1F AND DUP3 ADD SWAP2 JUMPDEST POP POP POP POP POP PUSH2 0x3B33 JUMP JUMPDEST SWAP1 POP JUMPDEST SWAP1 JUMP JUMPDEST PUSH1 0x9A PUSH0 SWAP1 SLOAD SWAP1 PUSH2 0x100 EXP SWAP1 DIV PUSH20 0xFFFFFFFFFFFFFFFFFFFFFFFFFFFFFFFFFFFFFFFF AND PUSH20 0xFFFFFFFFFFFFFFFFFFFFFFFFFFFFFFFFFFFFFFFF AND CALLER PUSH20 0xFFFFFFFFFFFFFFFFFFFFFFFFFFFFFFFFFFFFFFFF AND EQ PUSH2 0x312D JUMPI PUSH1 0x40 MLOAD PUSH32 0x62C774DA00000000000000000000000000000000000000000000000000000000 DUP2 MSTORE PUSH1 0x4 ADD PUSH1 0x40 MLOAD DUP1 SWAP2 SUB SWAP1 REVERT JUMPDEST DUP1 PUSH1 0x9A PUSH0 PUSH2 0x100 EXP DUP2 SLOAD DUP2 PUSH20 0xFFFFFFFFFFFFFFFFFFFFFFFFFFFFFFFFFFFFFFFF MUL NOT AND SWAP1 DUP4 PUSH20 0xFFFFFFFFFFFFFFFFFFFFFFFFFFFFFFFFFFFFFFFF AND MUL OR SWAP1 SSTORE POP PUSH32 0x46D58E3FA07BF19B1D27240F0E286B27E9F7C1B0D88933333FE833B60EEC5412 DUP2 PUSH1 0x40 MLOAD PUSH2 0x319C SWAP2 SWAP1 PUSH2 0x71B5 JUMP JUMPDEST PUSH1 0x40 MLOAD DUP1 SWAP2 SUB SWAP1 LOG1 POP JUMP JUMPDEST PUSH2 0x31AF PUSH2 0x54A6 JUMP JUMPDEST PUSH1 0x9B PUSH0 SWAP1 SLOAD SWAP1 PUSH2 0x100 EXP SWAP1 DIV PUSH20 0xFFFFFFFFFFFFFFFFFFFFFFFFFFFFFFFFFFFFFFFF AND PUSH20 0xFFFFFFFFFFFFFFFFFFFFFFFFFFFFFFFFFFFFFFFF AND PUSH4 0xA44D57A0 CALLER PUSH1 0x40 MLOAD DUP3 PUSH4 0xFFFFFFFF AND PUSH1 0xE0 SHL DUP2 MSTORE PUSH1 0x4 ADD PUSH2 0x3209 SWAP2 SWAP1 PUSH2 0x71B5 JUMP JUMPDEST PUSH1 0x20 PUSH1 0x40 MLOAD DUP1 DUP4 SUB DUP2 DUP7 GAS STATICCALL ISZERO DUP1 ISZERO PUSH2 0x3224 JUMPI RETURNDATASIZE PUSH0 DUP1 RETURNDATACOPY RETURNDATASIZE PUSH0 REVERT JUMPDEST POP POP POP POP PUSH1 0x40 MLOAD RETURNDATASIZE PUSH1 0x1F NOT PUSH1 0x1F DUP3 ADD AND DUP3 ADD DUP1 PUSH1 0x40 MSTORE POP DUP2 ADD SWAP1 PUSH2 0x3248 SWAP2 SWAP1 PUSH2 0x8A7B JUMP JUMPDEST PUSH2 0x327E JUMPI PUSH1 0x40 MLOAD PUSH32 0xEA8E4EB500000000000000000000000000000000000000000000000000000000 DUP2 MSTORE PUSH1 0x4 ADD PUSH1 0x40 MLOAD DUP1 SWAP2 SUB SWAP1 REVERT JUMPDEST PUSH2 0x3286 PUSH2 0x3D38 JUMP JUMPDEST POP POP POP POP PUSH2 0x3292 PUSH2 0x42CD JUMP JUMPDEST PUSH2 0x329A PUSH2 0x477F JUMP JUMPDEST PUSH2 0x32A2 PUSH2 0x47DC JUMP JUMPDEST PUSH0 DUP1 PUSH2 0x32AC PUSH2 0x217A JUMP JUMPDEST SWAP2 POP SWAP2 POP PUSH32 0x631C4F79C14099A717F4BE2F25E6CEF89E310B3944EF0E44EA2C0811EBB982A8 DUP3 DUP3 PUSH1 0x40 MLOAD PUSH2 0x32E1 SWAP3 SWAP2 SWAP1 PUSH2 0x6FF0 JUMP JUMPDEST PUSH1 0x40 MLOAD DUP1 SWAP2 SUB SWAP1 LOG1 POP POP JUMP JUMPDEST PUSH2 0x32F5 PUSH2 0x54A6 JUMP JUMPDEST PUSH2 0x32FD PUSH2 0x4ABD JUMP JUMPDEST PUSH1 0xDB PUSH1 0xF SWAP1 SLOAD SWAP1 PUSH2 0x100 EXP SWAP1 DIV PUSH1 0xFF AND PUSH2 0x3335 JUMPI PUSH2 0x3319 PUSH2 0x477F JUMP JUMPDEST PUSH1 0x1 PUSH1 0xDB PUSH1 0xF PUSH2 0x100 EXP DUP2 SLOAD DUP2 PUSH1 0xFF MUL NOT AND SWAP1 DUP4 ISZERO ISZERO MUL OR SWAP1 SSTORE POP JUMPDEST PUSH2 0x333D PUSH2 0x47DC JUMP JUMPDEST PUSH0 DUP1 PUSH2 0x3347 PUSH2 0x217A JUMP JUMPDEST SWAP2 POP SWAP2 POP PUSH32 0x631C4F79C14099A717F4BE2F25E6CEF89E310B3944EF0E44EA2C0811EBB982A8 DUP3 DUP3 PUSH1 0x40 MLOAD PUSH2 0x337C SWAP3 SWAP2 SWAP1 PUSH2 0x6FF0 JUMP JUMPDEST PUSH1 0x40 MLOAD DUP1 SWAP2 SUB SWAP1 LOG1 POP POP JUMP JUMPDEST PUSH1 0xD1 PUSH0 SWAP1 SLOAD SWAP1 PUSH2 0x100 EXP SWAP1 DIV PUSH20 0xFFFFFFFFFFFFFFFFFFFFFFFFFFFFFFFFFFFFFFFF AND PUSH20 0xFFFFFFFFFFFFFFFFFFFFFFFFFFFFFFFFFFFFFFFF AND CALLER PUSH20 0xFFFFFFFFFFFFFFFFFFFFFFFFFFFFFFFFFFFFFFFF AND EQ PUSH2 0x340E JUMPI PUSH1 0x40 MLOAD PUSH32 0x6F61F64100000000000000000000000000000000000000000000000000000000 DUP2 MSTORE PUSH1 0x4 ADD PUSH1 0x40 MLOAD DUP1 SWAP2 SUB SWAP1 REVERT JUMPDEST PUSH1 0xDB PUSH1 0xE SWAP1 SLOAD SWAP1 PUSH2 0x100 EXP SWAP1 DIV PUSH1 0xFF AND PUSH2 0x3454 JUMPI PUSH1 0x40 MLOAD PUSH32 0x887EFAA500000000000000000000000000000000000000000000000000000000 DUP2 MSTORE PUSH1 0x4 ADD PUSH1 0x40 MLOAD DUP1 SWAP2 SUB SWAP1 REVERT JUMPDEST PUSH0 DUP4 GT ISZERO PUSH2 0x34CA JUMPI PUSH2 0x34C9 PUSH1 0xD1 PUSH0 SWAP1 SLOAD SWAP1 PUSH2 0x100 EXP SWAP1 DIV PUSH20 0xFFFFFFFFFFFFFFFFFFFFFFFFFFFFFFFFFFFFFFFF AND DUP5 PUSH1 0xD3 PUSH0 SWAP1 SLOAD SWAP1 PUSH2 0x100 EXP SWAP1 DIV PUSH20 0xFFFFFFFFFFFFFFFFFFFFFFFFFFFFFFFFFFFFFFFF AND PUSH20 0xFFFFFFFFFFFFFFFFFFFFFFFFFFFFFFFFFFFFFFFF AND PUSH2 0x4D56 SWAP1 SWAP3 SWAP2 SWAP1 PUSH4 0xFFFFFFFF AND JUMP JUMPDEST JUMPDEST PUSH0 DUP3 GT ISZERO PUSH2 0x3540 JUMPI PUSH2 0x353F PUSH1 0xD1 PUSH0 SWAP1 SLOAD SWAP1 PUSH2 0x100 EXP SWAP1 DIV PUSH20 0xFFFFFFFFFFFFFFFFFFFFFFFFFFFFFFFFFFFFFFFF AND DUP4 PUSH1 0xD4 PUSH0 SWAP1 SLOAD SWAP1 PUSH2 0x100 EXP SWAP1 DIV PUSH20 0xFFFFFFFFFFFFFFFFFFFFFFFFFFFFFFFFFFFFFFFF AND PUSH20 0xFFFFFFFFFFFFFFFFFFFFFFFFFFFFFFFFFFFFFFFF AND PUSH2 0x4D56 SWAP1 SWAP3 SWAP2 SWAP1 PUSH4 0xFFFFFFFF AND JUMP JUMPDEST JUMPDEST PUSH0 PUSH1 0xDB PUSH1 0xE PUSH2 0x100 EXP DUP2 SLOAD DUP2 PUSH1 0xFF MUL NOT AND SWAP1 DUP4 ISZERO ISZERO MUL OR SWAP1 SSTORE POP POP POP POP JUMP JUMPDEST PUSH2 0x3567 PUSH2 0x3AB5 JUMP JUMPDEST PUSH2 0x356F PUSH2 0x4E7F JUMP JUMPDEST DUP1 PUSH1 0x99 PUSH0 PUSH2 0x100 EXP DUP2 SLOAD DUP2 PUSH20 0xFFFFFFFFFFFFFFFFFFFFFFFFFFFFFFFFFFFFFFFF MUL NOT AND SWAP1 DUP4 PUSH20 0xFFFFFFFFFFFFFFFFFFFFFFFFFFFFFFFFFFFFFFFF AND MUL OR SWAP1 SSTORE POP PUSH2 0x35B7 PUSH2 0x4BD9 JUMP JUMPDEST PUSH32 0x5CA6E64C4522E68E154AA9372F2C5969CD37D9640E59F66953DC472F54EE86FA DUP2 PUSH1 0x40 MLOAD PUSH2 0x35E6 SWAP2 SWAP1 PUSH2 0x71B5 JUMP JUMPDEST PUSH1 0x40 MLOAD DUP1 SWAP2 SUB SWAP1 LOG1 POP JUMP JUMPDEST PUSH0 DUP1 PUSH0 DUP1 PUSH2 0x35FD PUSH2 0x3D38 JUMP JUMPDEST DUP1 SWAP5 POP DUP2 SWAP6 POP DUP3 SWAP7 POP DUP4 SWAP8 POP POP POP POP POP SWAP1 SWAP2 SWAP3 SWAP4 JUMP JUMPDEST PUSH0 PUSH1 0x9B PUSH0 SWAP1 SLOAD SWAP1 PUSH2 0x100 EXP SWAP1 DIV PUSH20 0xFFFFFFFFFFFFFFFFFFFFFFFFFFFFFFFFFFFFFFFF AND PUSH20 0xFFFFFFFFFFFFFFFFFFFFFFFFFFFFFFFFFFFFFFFF AND PUSH4 0xE8EDD3E8 PUSH1 0x40 MLOAD DUP2 PUSH4 0xFFFFFFFF AND PUSH1 0xE0 SHL DUP2 MSTORE PUSH1 0x4 ADD PUSH1 0x20 PUSH1 0x40 MLOAD DUP1 DUP4 SUB DUP2 DUP7 GAS STATICCALL ISZERO DUP1 ISZERO PUSH2 0x367E JUMPI RETURNDATASIZE PUSH0 DUP1 RETURNDATACOPY RETURNDATASIZE PUSH0 REVERT JUMPDEST POP POP POP POP PUSH1 0x40 MLOAD RETURNDATASIZE PUSH1 0x1F NOT PUSH1 0x1F DUP3 ADD AND DUP3 ADD DUP1 PUSH1 0x40 MSTORE POP DUP2 ADD SWAP1 PUSH2 0x36A2 SWAP2 SWAP1 PUSH2 0x89A0 JUMP JUMPDEST SWAP1 POP SWAP1 JUMP JUMPDEST PUSH0 SWAP1 JUMP JUMPDEST PUSH0 DUP1 PUSH1 0x2 PUSH2 0x36FD PUSH2 0x36CB PUSH1 0xD9 PUSH0 ADD PUSH0 SWAP1 SLOAD SWAP1 PUSH2 0x100 EXP SWAP1 DIV PUSH1 0x2 SIGNEXTEND PUSH2 0x54E6 JUMP JUMPDEST PUSH20 0xFFFFFFFFFFFFFFFFFFFFFFFFFFFFFFFFFFFFFFFF AND PUSH8 0xDE0B6B3A7640000 PUSH13 0x1000000000000000000000000 PUSH2 0x5347 JUMP JUMPDEST PUSH2 0x3707 SWAP2 SWAP1 PUSH2 0x85D6 JUMP JUMPDEST SWAP2 POP PUSH1 0x2 PUSH2 0x375A PUSH2 0x3728 PUSH1 0xD9 PUSH0 ADD PUSH1 0x3 SWAP1 SLOAD SWAP1 PUSH2 0x100 EXP SWAP1 DIV PUSH1 0x2 SIGNEXTEND PUSH2 0x54E6 JUMP JUMPDEST PUSH20 0xFFFFFFFFFFFFFFFFFFFFFFFFFFFFFFFFFFFFFFFF AND PUSH8 0xDE0B6B3A7640000 PUSH13 0x1000000000000000000000000 PUSH2 0x5347 JUMP JUMPDEST PUSH2 0x3764 SWAP2 SWAP1 PUSH2 0x85D6 JUMP JUMPDEST SWAP1 POP SWAP1 SWAP2 JUMP JUMPDEST PUSH1 0x9E SLOAD DUP2 JUMP JUMPDEST PUSH2 0x3778 PUSH2 0x3AB5 JUMP JUMPDEST PUSH0 PUSH20 0xFFFFFFFFFFFFFFFFFFFFFFFFFFFFFFFFFFFFFFFF AND DUP2 PUSH20 0xFFFFFFFFFFFFFFFFFFFFFFFFFFFFFFFFFFFFFFFF AND SUB PUSH2 0x37E6 JUMPI PUSH1 0x40 MLOAD PUSH32 0x8C379A000000000000000000000000000000000000000000000000000000000 DUP2 MSTORE PUSH1 0x4 ADD PUSH2 0x37DD SWAP1 PUSH2 0x8B16 JUMP JUMPDEST PUSH1 0x40 MLOAD DUP1 SWAP2 SUB SWAP1 REVERT JUMPDEST PUSH2 0x37EF DUP2 PUSH2 0x4FBD JUMP JUMPDEST POP JUMP JUMPDEST PUSH1 0x98 PUSH0 SWAP1 SLOAD SWAP1 PUSH2 0x100 EXP SWAP1 DIV PUSH20 0xFFFFFFFFFFFFFFFFFFFFFFFFFFFFFFFFFFFFFFFF AND DUP2 JUMP JUMPDEST PUSH0 DUP1 PUSH0 DUP1 PUSH0 DUP1 PUSH0 DUP1 PUSH2 0x3827 PUSH2 0x1590 JUMP JUMPDEST SWAP2 POP SWAP2 POP PUSH0 PUSH2 0x3834 PUSH2 0x2E8B JUMP JUMPDEST SWAP1 POP PUSH0 DUP1 PUSH0 PUSH1 0xD1 PUSH0 SWAP1 SLOAD SWAP1 PUSH2 0x100 EXP SWAP1 DIV PUSH20 0xFFFFFFFFFFFFFFFFFFFFFFFFFFFFFFFFFFFFFFFF AND PUSH20 0xFFFFFFFFFFFFFFFFFFFFFFFFFFFFFFFFFFFFFFFF AND PUSH4 0x514EA4BF DUP8 PUSH1 0x40 MLOAD DUP3 PUSH4 0xFFFFFFFF AND PUSH1 0xE0 SHL DUP2 MSTORE PUSH1 0x4 ADD PUSH2 0x3893 SWAP2 SWAP1 PUSH2 0x8B34 JUMP JUMPDEST PUSH1 0xA0 PUSH1 0x40 MLOAD DUP1 DUP4 SUB DUP2 DUP7 GAS STATICCALL ISZERO DUP1 ISZERO PUSH2 0x38AE JUMPI RETURNDATASIZE PUSH0 DUP1 RETURNDATACOPY RETURNDATASIZE PUSH0 REVERT JUMPDEST POP POP POP POP PUSH1 0x40 MLOAD RETURNDATASIZE PUSH1 0x1F NOT PUSH1 0x1F DUP3 ADD AND DUP3 ADD DUP1 PUSH1 0x40 MSTORE POP DUP2 ADD SWAP1 PUSH2 0x38D2 SWAP2 SWAP1 PUSH2 0x8B92 JUMP JUMPDEST PUSH16 0xFFFFFFFFFFFFFFFFFFFFFFFFFFFFFFFF AND SWAP5 POP PUSH16 0xFFFFFFFFFFFFFFFFFFFFFFFFFFFFFFFF AND SWAP5 POP POP POP SWAP3 POP PUSH0 DUP1 PUSH0 PUSH1 0xD1 PUSH0 SWAP1 SLOAD SWAP1 PUSH2 0x100 EXP SWAP1 DIV PUSH20 0xFFFFFFFFFFFFFFFFFFFFFFFFFFFFFFFFFFFFFFFF AND PUSH20 0xFFFFFFFFFFFFFFFFFFFFFFFFFFFFFFFFFFFFFFFF AND PUSH4 0x514EA4BF DUP10 PUSH1 0x40 MLOAD DUP3 PUSH4 0xFFFFFFFF AND PUSH1 0xE0 SHL DUP2 MSTORE PUSH1 0x4 ADD PUSH2 0x395B SWAP2 SWAP1 PUSH2 0x8B34 JUMP JUMPDEST PUSH1 0xA0 PUSH1 0x40 MLOAD DUP1 DUP4 SUB DUP2 DUP7 GAS STATICCALL ISZERO DUP1 ISZERO PUSH2 0x3976 JUMPI RETURNDATASIZE PUSH0 DUP1 RETURNDATACOPY RETURNDATASIZE PUSH0 REVERT JUMPDEST POP POP POP POP PUSH1 0x40 MLOAD RETURNDATASIZE PUSH1 0x1F NOT PUSH1 0x1F DUP3 ADD AND DUP3 ADD DUP1 PUSH1 0x40 MSTORE POP DUP2 ADD SWAP1 PUSH2 0x399A SWAP2 SWAP1 PUSH2 0x8B92 JUMP JUMPDEST PUSH16 0xFFFFFFFFFFFFFFFFFFFFFFFFFFFFFFFF AND SWAP5 POP PUSH16 0xFFFFFFFFFFFFFFFFFFFFFFFFFFFFFFFF AND SWAP5 POP POP POP SWAP3 POP PUSH2 0x3A03 DUP8 PUSH2 0x39E3 PUSH1 0xD9 PUSH0 ADD PUSH0 SWAP1 SLOAD SWAP1 PUSH2 0x100 EXP SWAP1 DIV PUSH1 0x2 SIGNEXTEND PUSH2 0x54E6 JUMP JUMPDEST PUSH2 0x39FD PUSH1 0xD9 PUSH0 ADD PUSH1 0x3 SWAP1 SLOAD SWAP1 PUSH2 0x100 EXP SWAP1 DIV PUSH1 0x2 SIGNEXTEND PUSH2 0x54E6 JUMP JUMPDEST DUP10 PUSH2 0x58E0 JUMP JUMPDEST DUP1 SWAP14 POP DUP2 SWAP15 POP POP POP PUSH2 0x3A48 DUP8 PUSH2 0x3A28 PUSH1 0xDA PUSH0 ADD PUSH0 SWAP1 SLOAD SWAP1 PUSH2 0x100 EXP SWAP1 DIV PUSH1 0x2 SIGNEXTEND PUSH2 0x54E6 JUMP JUMPDEST PUSH2 0x3A42 PUSH1 0xDA PUSH0 ADD PUSH1 0x3 SWAP1 SLOAD SWAP1 PUSH2 0x100 EXP SWAP1 DIV PUSH1 0x2 SIGNEXTEND PUSH2 0x54E6 JUMP JUMPDEST DUP7 PUSH2 0x58E0 JUMP JUMPDEST DUP1 SWAP12 POP DUP2 SWAP13 POP POP POP DUP5 DUP14 PUSH2 0x3A5C SWAP2 SWAP1 PUSH2 0x8858 JUMP JUMPDEST SWAP13 POP DUP4 DUP13 PUSH2 0x3A6A SWAP2 SWAP1 PUSH2 0x8858 JUMP JUMPDEST SWAP12 POP DUP2 DUP12 PUSH2 0x3A78 SWAP2 SWAP1 PUSH2 0x8858 JUMP JUMPDEST SWAP11 POP DUP1 DUP11 PUSH2 0x3A86 SWAP2 SWAP1 PUSH2 0x8858 JUMP JUMPDEST SWAP10 POP DUP11 DUP14 PUSH2 0x3A94 SWAP2 SWAP1 PUSH2 0x8858 JUMP JUMPDEST SWAP15 POP DUP10 DUP13 PUSH2 0x3AA2 SWAP2 SWAP1 PUSH2 0x8858 JUMP JUMPDEST SWAP14 POP POP POP POP POP POP POP POP POP POP SWAP1 SWAP2 SWAP3 SWAP4 SWAP5 SWAP6 JUMP JUMPDEST PUSH2 0x3ABD PUSH2 0x59D1 JUMP JUMPDEST PUSH20 0xFFFFFFFFFFFFFFFFFFFFFFFFFFFFFFFFFFFFFFFF AND PUSH2 0x3ADB PUSH2 0x26FA JUMP JUMPDEST PUSH20 0xFFFFFFFFFFFFFFFFFFFFFFFFFFFFFFFFFFFFFFFF AND EQ PUSH2 0x3B31 JUMPI PUSH1 0x40 MLOAD PUSH32 0x8C379A000000000000000000000000000000000000000000000000000000000 DUP2 MSTORE PUSH1 0x4 ADD PUSH2 0x3B28 SWAP1 PUSH2 0x8C53 JUMP JUMPDEST PUSH1 0x40 MLOAD DUP1 SWAP2 SUB SWAP1 REVERT JUMPDEST JUMP JUMPDEST PUSH1 0x60 PUSH0 PUSH2 0x3B3F DUP4 PUSH2 0x59D8 JUMP JUMPDEST SWAP1 POP PUSH0 PUSH1 0x1 DUP3 PUSH2 0x3B4F SWAP2 SWAP1 PUSH2 0x8858 JUMP JUMPDEST PUSH8 0xFFFFFFFFFFFFFFFF DUP2 GT ISZERO PUSH2 0x3B68 JUMPI PUSH2 0x3B67 PUSH2 0x78D5 JUMP JUMPDEST JUMPDEST PUSH1 0x40 MLOAD SWAP1 DUP1 DUP3 MSTORE DUP1 PUSH1 0x20 MUL PUSH1 0x20 ADD DUP3 ADD PUSH1 0x40 MSTORE DUP1 ISZERO PUSH2 0x3B96 JUMPI DUP2 PUSH1 0x20 ADD PUSH1 0x20 DUP3 MUL DUP1 CALLDATASIZE DUP4 CALLDATACOPY DUP1 DUP3 ADD SWAP2 POP POP SWAP1 POP JUMPDEST POP SWAP1 POP PUSH0 JUMPDEST DUP3 DUP2 LT ISZERO PUSH2 0x3C75 JUMPI PUSH0 DUP1 PUSH2 0x3BAE DUP8 PUSH2 0x5A06 JUMP JUMPDEST POP SWAP2 POP SWAP2 POP DUP2 DUP5 DUP5 DUP2 MLOAD DUP2 LT PUSH2 0x3BC7 JUMPI PUSH2 0x3BC6 PUSH2 0x7CCF JUMP JUMPDEST JUMPDEST PUSH1 0x20 MUL PUSH1 0x20 ADD ADD SWAP1 PUSH20 0xFFFFFFFFFFFFFFFFFFFFFFFFFFFFFFFFFFFFFFFF AND SWAP1 DUP2 PUSH20 0xFFFFFFFFFFFFFFFFFFFFFFFFFFFFFFFFFFFFFFFF AND DUP2 MSTORE POP POP DUP1 DUP5 PUSH1 0x1 DUP6 PUSH2 0x3C10 SWAP2 SWAP1 PUSH2 0x8858 JUMP JUMPDEST DUP2 MLOAD DUP2 LT PUSH2 0x3C21 JUMPI PUSH2 0x3C20 PUSH2 0x7CCF JUMP JUMPDEST JUMPDEST PUSH1 0x20 MUL PUSH1 0x20 ADD ADD SWAP1 PUSH20 0xFFFFFFFFFFFFFFFFFFFFFFFFFFFFFFFFFFFFFFFF AND SWAP1 DUP2 PUSH20 0xFFFFFFFFFFFFFFFFFFFFFFFFFFFFFFFFFFFFFFFF AND DUP2 MSTORE POP POP PUSH2 0x3C64 DUP8 PUSH2 0x5A5D JUMP JUMPDEST SWAP7 POP POP POP DUP1 DUP1 PUSH1 0x1 ADD SWAP2 POP POP PUSH2 0x3B9B JUMP JUMPDEST POP DUP1 SWAP3 POP POP POP SWAP2 SWAP1 POP JUMP JUMPDEST PUSH2 0x3C88 PUSH2 0x3D38 JUMP JUMPDEST POP POP POP POP PUSH2 0x3C94 PUSH2 0x42CD JUMP JUMPDEST PUSH0 DUP1 PUSH2 0x3CA5 DUP4 PUSH1 0xD5 SLOAD PUSH1 0xD6 SLOAD PUSH2 0x5AA1 JUMP JUMPDEST SWAP2 POP SWAP2 POP PUSH2 0x3CB1 PUSH2 0x47DC JUMP JUMPDEST PUSH0 PUSH1 0xD5 DUP2 SWAP1 SSTORE POP PUSH0 PUSH1 0xD6 DUP2 SWAP1 SSTORE POP PUSH0 DUP1 PUSH2 0x3CC9 PUSH2 0x1E14 JUMP JUMPDEST SWAP2 POP SWAP2 POP DUP2 DUP5 PUSH2 0x3CD9 SWAP2 SWAP1 PUSH2 0x8858 JUMP JUMPDEST PUSH1 0x9C DUP2 SWAP1 SSTORE POP DUP1 DUP4 PUSH2 0x3CEB SWAP2 SWAP1 PUSH2 0x8858 JUMP JUMPDEST PUSH1 0x9D DUP2 SWAP1 SSTORE POP TIMESTAMP PUSH1 0x9E DUP2 SWAP1 SSTORE POP PUSH32 0x6C8433A8E155F0AF04DBA058D4E4695F7DA554578963D876BDF4A6D8D6399D9C DUP5 DUP5 PUSH1 0x40 MLOAD PUSH2 0x3D29 SWAP3 SWAP2 SWAP1 PUSH2 0x6FF0 JUMP JUMPDEST PUSH1 0x40 MLOAD DUP1 SWAP2 SUB SWAP1 LOG1 POP POP POP POP POP JUMP JUMPDEST PUSH0 DUP1 PUSH0 DUP1 PUSH0 DUP1 PUSH2 0x3D46 PUSH2 0x1590 JUMP JUMPDEST SWAP2 POP SWAP2 POP PUSH0 PUSH1 0xD1 PUSH0 SWAP1 SLOAD SWAP1 PUSH2 0x100 EXP SWAP1 DIV PUSH20 0xFFFFFFFFFFFFFFFFFFFFFFFFFFFFFFFFFFFFFFFF AND PUSH20 0xFFFFFFFFFFFFFFFFFFFFFFFFFFFFFFFFFFFFFFFF AND PUSH4 0x514EA4BF DUP5 PUSH1 0x40 MLOAD DUP3 PUSH4 0xFFFFFFFF AND PUSH1 0xE0 SHL DUP2 MSTORE PUSH1 0x4 ADD PUSH2 0x3DA5 SWAP2 SWAP1 PUSH2 0x8B34 JUMP JUMPDEST PUSH1 0xA0 PUSH1 0x40 MLOAD DUP1 DUP4 SUB DUP2 DUP7 GAS STATICCALL ISZERO DUP1 ISZERO PUSH2 0x3DC0 JUMPI RETURNDATASIZE PUSH0 DUP1 RETURNDATACOPY RETURNDATASIZE PUSH0 REVERT JUMPDEST POP POP POP POP PUSH1 0x40 MLOAD RETURNDATASIZE PUSH1 0x1F NOT PUSH1 0x1F DUP3 ADD AND DUP3 ADD DUP1 PUSH1 0x40 MSTORE POP DUP2 ADD SWAP1 PUSH2 0x3DE4 SWAP2 SWAP1 PUSH2 0x8B92 JUMP JUMPDEST POP POP POP POP SWAP1 POP PUSH0 PUSH1 0xD1 PUSH0 SWAP1 SLOAD SWAP1 PUSH2 0x100 EXP SWAP1 DIV PUSH20 0xFFFFFFFFFFFFFFFFFFFFFFFFFFFFFFFFFFFFFFFF AND PUSH20 0xFFFFFFFFFFFFFFFFFFFFFFFFFFFFFFFFFFFFFFFF AND PUSH4 0x514EA4BF DUP5 PUSH1 0x40 MLOAD DUP3 PUSH4 0xFFFFFFFF AND PUSH1 0xE0 SHL DUP2 MSTORE PUSH1 0x4 ADD PUSH2 0x3E45 SWAP2 SWAP1 PUSH2 0x8B34 JUMP JUMPDEST PUSH1 0xA0 PUSH1 0x40 MLOAD DUP1 DUP4 SUB DUP2 DUP7 GAS STATICCALL ISZERO DUP1 ISZERO PUSH2 0x3E60 JUMPI RETURNDATASIZE PUSH0 DUP1 RETURNDATACOPY RETURNDATASIZE PUSH0 REVERT JUMPDEST POP POP POP POP PUSH1 0x40 MLOAD RETURNDATASIZE PUSH1 0x1F NOT PUSH1 0x1F DUP3 ADD AND DUP3 ADD DUP1 PUSH1 0x40 MSTORE POP DUP2 ADD SWAP1 PUSH2 0x3E84 SWAP2 SWAP1 PUSH2 0x8B92 JUMP JUMPDEST POP POP POP POP SWAP1 POP PUSH0 DUP3 PUSH16 0xFFFFFFFFFFFFFFFFFFFFFFFFFFFFFFFF AND GT ISZERO PUSH2 0x3F65 JUMPI PUSH1 0xD1 PUSH0 SWAP1 SLOAD SWAP1 PUSH2 0x100 EXP SWAP1 DIV PUSH20 0xFFFFFFFFFFFFFFFFFFFFFFFFFFFFFFFFFFFFFFFF AND PUSH20 0xFFFFFFFFFFFFFFFFFFFFFFFFFFFFFFFFFFFFFFFF AND PUSH4 0xA34123A7 PUSH1 0xD9 PUSH0 ADD PUSH0 SWAP1 SLOAD SWAP1 PUSH2 0x100 EXP SWAP1 DIV PUSH1 0x2 SIGNEXTEND PUSH1 0xD9 PUSH0 ADD PUSH1 0x3 SWAP1 SLOAD SWAP1 PUSH2 0x100 EXP SWAP1 DIV PUSH1 0x2 SIGNEXTEND PUSH0 PUSH1 0x40 MLOAD DUP5 PUSH4 0xFFFFFFFF AND PUSH1 0xE0 SHL DUP2 MSTORE PUSH1 0x4 ADD PUSH2 0x3F23 SWAP4 SWAP3 SWAP2 SWAP1 PUSH2 0x8CAA JUMP JUMPDEST PUSH1 0x40 DUP1 MLOAD DUP1 DUP4 SUB DUP2 PUSH0 DUP8 GAS CALL ISZERO DUP1 ISZERO PUSH2 0x3F3E JUMPI RETURNDATASIZE PUSH0 DUP1 RETURNDATACOPY RETURNDATASIZE PUSH0 REVERT JUMPDEST POP POP POP POP PUSH1 0x40 MLOAD RETURNDATASIZE PUSH1 0x1F NOT PUSH1 0x1F DUP3 ADD AND DUP3 ADD DUP1 PUSH1 0x40 MSTORE POP DUP2 ADD SWAP1 PUSH2 0x3F62 SWAP2 SWAP1 PUSH2 0x8CDF JUMP JUMPDEST POP POP JUMPDEST PUSH0 DUP2 PUSH16 0xFFFFFFFFFFFFFFFFFFFFFFFFFFFFFFFF AND GT ISZERO PUSH2 0x4040 JUMPI PUSH1 0xD1 PUSH0 SWAP1 SLOAD SWAP1 PUSH2 0x100 EXP SWAP1 DIV PUSH20 0xFFFFFFFFFFFFFFFFFFFFFFFFFFFFFFFFFFFFFFFF AND PUSH20 0xFFFFFFFFFFFFFFFFFFFFFFFFFFFFFFFFFFFFFFFF AND PUSH4 0xA34123A7 PUSH1 0xDA PUSH0 ADD PUSH0 SWAP1 SLOAD SWAP1 PUSH2 0x100 EXP SWAP1 DIV PUSH1 0x2 SIGNEXTEND PUSH1 0xDA PUSH0 ADD PUSH1 0x3 SWAP1 SLOAD SWAP1 PUSH2 0x100 EXP SWAP1 DIV PUSH1 0x2 SIGNEXTEND PUSH0 PUSH1 0x40 MLOAD DUP5 PUSH4 0xFFFFFFFF AND PUSH1 0xE0 SHL DUP2 MSTORE PUSH1 0x4 ADD PUSH2 0x3FFE SWAP4 SWAP3 SWAP2 SWAP1 PUSH2 0x8CAA JUMP JUMPDEST PUSH1 0x40 DUP1 MLOAD DUP1 DUP4 SUB DUP2 PUSH0 DUP8 GAS CALL ISZERO DUP1 ISZERO PUSH2 0x4019 JUMPI RETURNDATASIZE PUSH0 DUP1 RETURNDATACOPY RETURNDATASIZE PUSH0 REVERT JUMPDEST POP POP POP POP PUSH1 0x40 MLOAD RETURNDATASIZE PUSH1 0x1F NOT PUSH1 0x1F DUP3 ADD AND DUP3 ADD DUP1 PUSH1 0x40 MSTORE POP DUP2 ADD SWAP1 PUSH2 0x403D SWAP2 SWAP1 PUSH2 0x8CDF JUMP JUMPDEST POP POP JUMPDEST PUSH1 0xD1 PUSH0 SWAP1 SLOAD SWAP1 PUSH2 0x100 EXP SWAP1 DIV PUSH20 0xFFFFFFFFFFFFFFFFFFFFFFFFFFFFFFFFFFFFFFFF AND PUSH20 0xFFFFFFFFFFFFFFFFFFFFFFFFFFFFFFFFFFFFFFFF AND PUSH4 0x4F1EB3D8 ADDRESS PUSH1 0xD9 PUSH0 ADD PUSH0 SWAP1 SLOAD SWAP1 PUSH2 0x100 EXP SWAP1 DIV PUSH1 0x2 SIGNEXTEND PUSH1 0xD9 PUSH0 ADD PUSH1 0x3 SWAP1 SLOAD SWAP1 PUSH2 0x100 EXP SWAP1 DIV PUSH1 0x2 SIGNEXTEND PUSH16 0xFFFFFFFFFFFFFFFFFFFFFFFFFFFFFFFF DUP1 PUSH1 0x40 MLOAD DUP7 PUSH4 0xFFFFFFFF AND PUSH1 0xE0 SHL DUP2 MSTORE PUSH1 0x4 ADD PUSH2 0x40D3 SWAP6 SWAP5 SWAP4 SWAP3 SWAP2 SWAP1 PUSH2 0x8D2C JUMP JUMPDEST PUSH1 0x40 DUP1 MLOAD DUP1 DUP4 SUB DUP2 PUSH0 DUP8 GAS CALL ISZERO DUP1 ISZERO PUSH2 0x40EE JUMPI RETURNDATASIZE PUSH0 DUP1 RETURNDATACOPY RETURNDATASIZE PUSH0 REVERT JUMPDEST POP POP POP POP PUSH1 0x40 MLOAD RETURNDATASIZE PUSH1 0x1F NOT PUSH1 0x1F DUP3 ADD AND DUP3 ADD DUP1 PUSH1 0x40 MSTORE POP DUP2 ADD SWAP1 PUSH2 0x4112 SWAP2 SWAP1 PUSH2 0x8D7D JUMP JUMPDEST DUP2 PUSH16 0xFFFFFFFFFFFFFFFFFFFFFFFFFFFFFFFF AND SWAP2 POP DUP1 PUSH16 0xFFFFFFFFFFFFFFFFFFFFFFFFFFFFFFFF AND SWAP1 POP DUP1 SWAP9 POP DUP2 SWAP10 POP POP POP PUSH1 0xD1 PUSH0 SWAP1 SLOAD SWAP1 PUSH2 0x100 EXP SWAP1 DIV PUSH20 0xFFFFFFFFFFFFFFFFFFFFFFFFFFFFFFFFFFFFFFFF AND PUSH20 0xFFFFFFFFFFFFFFFFFFFFFFFFFFFFFFFFFFFFFFFF AND PUSH4 0x4F1EB3D8 ADDRESS PUSH1 0xDA PUSH0 ADD PUSH0 SWAP1 SLOAD SWAP1 PUSH2 0x100 EXP SWAP1 DIV PUSH1 0x2 SIGNEXTEND PUSH1 0xDA PUSH0 ADD PUSH1 0x3 SWAP1 SLOAD SWAP1 PUSH2 0x100 EXP SWAP1 DIV PUSH1 0x2 SIGNEXTEND PUSH16 0xFFFFFFFFFFFFFFFFFFFFFFFFFFFFFFFF DUP1 PUSH1 0x40 MLOAD DUP7 PUSH4 0xFFFFFFFF AND PUSH1 0xE0 SHL DUP2 MSTORE PUSH1 0x4 ADD PUSH2 0x41D7 SWAP6 SWAP5 SWAP4 SWAP3 SWAP2 SWAP1 PUSH2 0x8D2C JUMP JUMPDEST PUSH1 0x40 DUP1 MLOAD DUP1 DUP4 SUB DUP2 PUSH0 DUP8 GAS CALL ISZERO DUP1 ISZERO PUSH2 0x41F2 JUMPI RETURNDATASIZE PUSH0 DUP1 RETURNDATACOPY RETURNDATASIZE PUSH0 REVERT JUMPDEST POP POP POP POP PUSH1 0x40 MLOAD RETURNDATASIZE PUSH1 0x1F NOT PUSH1 0x1F DUP3 ADD AND DUP3 ADD DUP1 PUSH1 0x40 MSTORE POP DUP2 ADD SWAP1 PUSH2 0x4216 SWAP2 SWAP1 PUSH2 0x8D7D JUMP JUMPDEST DUP2 PUSH16 0xFFFFFFFFFFFFFFFFFFFFFFFFFFFFFFFF AND SWAP2 POP DUP1 PUSH16 0xFFFFFFFFFFFFFFFFFFFFFFFFFFFFFFFF AND SWAP1 POP DUP1 SWAP7 POP DUP2 SWAP8 POP POP POP DUP6 DUP9 PUSH1 0xD5 SLOAD PUSH2 0x4257 SWAP2 SWAP1 PUSH2 0x8858 JUMP JUMPDEST PUSH2 0x4261 SWAP2 SWAP1 PUSH2 0x8858 JUMP JUMPDEST PUSH1 0xD5 DUP2 SWAP1 SSTORE POP DUP5 DUP8 PUSH1 0xD6 SLOAD PUSH2 0x4276 SWAP2 SWAP1 PUSH2 0x8858 JUMP JUMPDEST PUSH2 0x4280 SWAP2 SWAP1 PUSH2 0x8858 JUMP JUMPDEST PUSH1 0xD6 DUP2 SWAP1 SSTORE POP PUSH32 0x6FE7C663AA15DEF6E80578B76DDD894FCEFEABF14A0106AFBEC24DA4A6C57872 DUP9 DUP9 DUP9 DUP9 PUSH1 0x40 MLOAD PUSH2 0x42BB SWAP5 SWAP4 SWAP3 SWAP2 SWAP1 PUSH2 0x7A65 JUMP JUMPDEST PUSH1 0x40 MLOAD DUP1 SWAP2 SUB SWAP1 LOG1 POP POP POP POP SWAP1 SWAP2 SWAP3 SWAP4 JUMP JUMPDEST PUSH0 DUP1 PUSH2 0x42D7 PUSH2 0x1590 JUMP JUMPDEST SWAP2 POP SWAP2 POP PUSH0 PUSH1 0xD1 PUSH0 SWAP1 SLOAD SWAP1 PUSH2 0x100 EXP SWAP1 DIV PUSH20 0xFFFFFFFFFFFFFFFFFFFFFFFFFFFFFFFFFFFFFFFF AND PUSH20 0xFFFFFFFFFFFFFFFFFFFFFFFFFFFFFFFFFFFFFFFF AND PUSH4 0x514EA4BF DUP5 PUSH1 0x40 MLOAD DUP3 PUSH4 0xFFFFFFFF AND PUSH1 0xE0 SHL DUP2 MSTORE PUSH1 0x4 ADD PUSH2 0x4336 SWAP2 SWAP1 PUSH2 0x8B34 JUMP JUMPDEST PUSH1 0xA0 PUSH1 0x40 MLOAD DUP1 DUP4 SUB DUP2 DUP7 GAS STATICCALL ISZERO DUP1 ISZERO PUSH2 0x4351 JUMPI RETURNDATASIZE PUSH0 DUP1 RETURNDATACOPY RETURNDATASIZE PUSH0 REVERT JUMPDEST POP POP POP POP PUSH1 0x40 MLOAD RETURNDATASIZE PUSH1 0x1F NOT PUSH1 0x1F DUP3 ADD AND DUP3 ADD DUP1 PUSH1 0x40 MSTORE POP DUP2 ADD SWAP1 PUSH2 0x4375 SWAP2 SWAP1 PUSH2 0x8B92 JUMP JUMPDEST POP POP POP POP SWAP1 POP PUSH0 PUSH1 0xD1 PUSH0 SWAP1 SLOAD SWAP1 PUSH2 0x100 EXP SWAP1 DIV PUSH20 0xFFFFFFFFFFFFFFFFFFFFFFFFFFFFFFFFFFFFFFFF AND PUSH20 0xFFFFFFFFFFFFFFFFFFFFFFFFFFFFFFFFFFFFFFFF AND PUSH4 0x514EA4BF DUP5 PUSH1 0x40 MLOAD DUP3 PUSH4 0xFFFFFFFF AND PUSH1 0xE0 SHL DUP2 MSTORE PUSH1 0x4 ADD PUSH2 0x43D6 SWAP2 SWAP1 PUSH2 0x8B34 JUMP JUMPDEST PUSH1 0xA0 PUSH1 0x40 MLOAD DUP1 DUP4 SUB DUP2 DUP7 GAS STATICCALL ISZERO DUP1 ISZERO PUSH2 0x43F1 JUMPI RETURNDATASIZE PUSH0 DUP1 RETURNDATACOPY RETURNDATASIZE PUSH0 REVERT JUMPDEST POP POP POP POP PUSH1 0x40 MLOAD RETURNDATASIZE PUSH1 0x1F NOT PUSH1 0x1F DUP3 ADD AND DUP3 ADD DUP1 PUSH1 0x40 MSTORE POP DUP2 ADD SWAP1 PUSH2 0x4415 SWAP2 SWAP1 PUSH2 0x8B92 JUMP JUMPDEST POP POP POP POP SWAP1 POP PUSH0 DUP3 PUSH16 0xFFFFFFFFFFFFFFFFFFFFFFFFFFFFFFFF AND GT ISZERO PUSH2 0x45CA JUMPI PUSH1 0xD1 PUSH0 SWAP1 SLOAD SWAP1 PUSH2 0x100 EXP SWAP1 DIV PUSH20 0xFFFFFFFFFFFFFFFFFFFFFFFFFFFFFFFFFFFFFFFF AND PUSH20 0xFFFFFFFFFFFFFFFFFFFFFFFFFFFFFFFFFFFFFFFF AND PUSH4 0xA34123A7 PUSH1 0xD9 PUSH0 ADD PUSH0 SWAP1 SLOAD SWAP1 PUSH2 0x100 EXP SWAP1 DIV PUSH1 0x2 SIGNEXTEND PUSH1 0xD9 PUSH0 ADD PUSH1 0x3 SWAP1 SLOAD SWAP1 PUSH2 0x100 EXP SWAP1 DIV PUSH1 0x2 SIGNEXTEND DUP6 PUSH1 0x40 MLOAD DUP5 PUSH4 0xFFFFFFFF AND PUSH1 0xE0 SHL DUP2 MSTORE PUSH1 0x4 ADD PUSH2 0x44B4 SWAP4 SWAP3 SWAP2 SWAP1 PUSH2 0x8DBB JUMP JUMPDEST PUSH1 0x40 DUP1 MLOAD DUP1 DUP4 SUB DUP2 PUSH0 DUP8 GAS CALL ISZERO DUP1 ISZERO PUSH2 0x44CF JUMPI RETURNDATASIZE PUSH0 DUP1 RETURNDATACOPY RETURNDATASIZE PUSH0 REVERT JUMPDEST POP POP POP POP PUSH1 0x40 MLOAD RETURNDATASIZE PUSH1 0x1F NOT PUSH1 0x1F DUP3 ADD AND DUP3 ADD DUP1 PUSH1 0x40 MSTORE POP DUP2 ADD SWAP1 PUSH2 0x44F3 SWAP2 SWAP1 PUSH2 0x8CDF JUMP JUMPDEST POP POP PUSH1 0xD1 PUSH0 SWAP1 SLOAD SWAP1 PUSH2 0x100 EXP SWAP1 DIV PUSH20 0xFFFFFFFFFFFFFFFFFFFFFFFFFFFFFFFFFFFFFFFF AND PUSH20 0xFFFFFFFFFFFFFFFFFFFFFFFFFFFFFFFFFFFFFFFF AND PUSH4 0x4F1EB3D8 ADDRESS PUSH1 0xD9 PUSH0 ADD PUSH0 SWAP1 SLOAD SWAP1 PUSH2 0x100 EXP SWAP1 DIV PUSH1 0x2 SIGNEXTEND PUSH1 0xD9 PUSH0 ADD PUSH1 0x3 SWAP1 SLOAD SWAP1 PUSH2 0x100 EXP SWAP1 DIV PUSH1 0x2 SIGNEXTEND PUSH16 0xFFFFFFFFFFFFFFFFFFFFFFFFFFFFFFFF DUP1 PUSH1 0x40 MLOAD DUP7 PUSH4 0xFFFFFFFF AND PUSH1 0xE0 SHL DUP2 MSTORE PUSH1 0x4 ADD PUSH2 0x4588 SWAP6 SWAP5 SWAP4 SWAP3 SWAP2 SWAP1 PUSH2 0x8D2C JUMP JUMPDEST PUSH1 0x40 DUP1 MLOAD DUP1 DUP4 SUB DUP2 PUSH0 DUP8 GAS CALL ISZERO DUP1 ISZERO PUSH2 0x45A3 JUMPI RETURNDATASIZE PUSH0 DUP1 RETURNDATACOPY RETURNDATASIZE PUSH0 REVERT JUMPDEST POP POP POP POP PUSH1 0x40 MLOAD RETURNDATASIZE PUSH1 0x1F NOT PUSH1 0x1F DUP3 ADD AND DUP3 ADD DUP1 PUSH1 0x40 MSTORE POP DUP2 ADD SWAP1 PUSH2 0x45C7 SWAP2 SWAP1 PUSH2 0x8D7D JUMP JUMPDEST POP POP JUMPDEST PUSH0 DUP2 PUSH16 0xFFFFFFFFFFFFFFFFFFFFFFFFFFFFFFFF AND GT ISZERO PUSH2 0x4779 JUMPI PUSH1 0xD1 PUSH0 SWAP1 SLOAD SWAP1 PUSH2 0x100 EXP SWAP1 DIV PUSH20 0xFFFFFFFFFFFFFFFFFFFFFFFFFFFFFFFFFFFFFFFF AND PUSH20 0xFFFFFFFFFFFFFFFFFFFFFFFFFFFFFFFFFFFFFFFF AND PUSH4 0xA34123A7 PUSH1 0xDA PUSH0 ADD PUSH0 SWAP1 SLOAD SWAP1 PUSH2 0x100 EXP SWAP1 DIV PUSH1 0x2 SIGNEXTEND PUSH1 0xDA PUSH0 ADD PUSH1 0x3 SWAP1 SLOAD SWAP1 PUSH2 0x100 EXP SWAP1 DIV PUSH1 0x2 SIGNEXTEND DUP5 PUSH1 0x40 MLOAD DUP5 PUSH4 0xFFFFFFFF AND PUSH1 0xE0 SHL DUP2 MSTORE PUSH1 0x4 ADD PUSH2 0x4663 SWAP4 SWAP3 SWAP2 SWAP1 PUSH2 0x8DBB JUMP JUMPDEST PUSH1 0x40 DUP1 MLOAD DUP1 DUP4 SUB DUP2 PUSH0 DUP8 GAS CALL ISZERO DUP1 ISZERO PUSH2 0x467E JUMPI RETURNDATASIZE PUSH0 DUP1 RETURNDATACOPY RETURNDATASIZE PUSH0 REVERT JUMPDEST POP POP POP POP PUSH1 0x40 MLOAD RETURNDATASIZE PUSH1 0x1F NOT PUSH1 0x1F DUP3 ADD AND DUP3 ADD DUP1 PUSH1 0x40 MSTORE POP DUP2 ADD SWAP1 PUSH2 0x46A2 SWAP2 SWAP1 PUSH2 0x8CDF JUMP JUMPDEST POP POP PUSH1 0xD1 PUSH0 SWAP1 SLOAD SWAP1 PUSH2 0x100 EXP SWAP1 DIV PUSH20 0xFFFFFFFFFFFFFFFFFFFFFFFFFFFFFFFFFFFFFFFF AND PUSH20 0xFFFFFFFFFFFFFFFFFFFFFFFFFFFFFFFFFFFFFFFF AND PUSH4 0x4F1EB3D8 ADDRESS PUSH1 0xDA PUSH0 ADD PUSH0 SWAP1 SLOAD SWAP1 PUSH2 0x100 EXP SWAP1 DIV PUSH1 0x2 SIGNEXTEND PUSH1 0xDA PUSH0 ADD PUSH1 0x3 SWAP1 SLOAD SWAP1 PUSH2 0x100 EXP SWAP1 DIV PUSH1 0x2 SIGNEXTEND PUSH16 0xFFFFFFFFFFFFFFFFFFFFFFFFFFFFFFFF DUP1 PUSH1 0x40 MLOAD DUP7 PUSH4 0xFFFFFFFF AND PUSH1 0xE0 SHL DUP2 MSTORE PUSH1 0x4 ADD PUSH2 0x4737 SWAP6 SWAP5 SWAP4 SWAP3 SWAP2 SWAP1 PUSH2 0x8D2C JUMP JUMPDEST PUSH1 0x40 DUP1 MLOAD DUP1 DUP4 SUB DUP2 PUSH0 DUP8 GAS CALL ISZERO DUP1 ISZERO PUSH2 0x4752 JUMPI RETURNDATASIZE PUSH0 DUP1 RETURNDATACOPY RETURNDATASIZE PUSH0 REVERT JUMPDEST POP POP POP POP PUSH1 0x40 MLOAD RETURNDATASIZE PUSH1 0x1F NOT PUSH1 0x1F DUP3 ADD AND DUP3 ADD DUP1 PUSH1 0x40 MSTORE POP DUP2 ADD SWAP1 PUSH2 0x4776 SWAP2 SWAP1 PUSH2 0x8D7D JUMP JUMPDEST POP POP JUMPDEST POP POP POP POP JUMP JUMPDEST PUSH2 0x4787 PUSH2 0x54A6 JUMP JUMPDEST PUSH0 PUSH2 0x4790 PUSH2 0xCC7 JUMP JUMPDEST SWAP1 POP PUSH0 PUSH2 0x479B PUSH2 0x4B45 JUMP JUMPDEST SWAP1 POP PUSH0 DUP2 PUSH1 0xDB PUSH0 SWAP1 SLOAD SWAP1 PUSH2 0x100 EXP SWAP1 DIV PUSH1 0x2 SIGNEXTEND PUSH2 0x47B8 SWAP2 SWAP1 PUSH2 0x881C JUMP JUMPDEST SWAP1 POP PUSH2 0x47C5 DUP4 DUP4 DUP4 PUSH2 0x5F9F JUMP JUMPDEST PUSH2 0x47D0 DUP4 DUP4 DUP4 PUSH2 0x5FFC JUMP JUMPDEST TIMESTAMP PUSH1 0x9F DUP2 SWAP1 SSTORE POP POP POP POP JUMP JUMPDEST PUSH2 0x47E4 PUSH2 0x612E JUMP JUMPDEST PUSH0 DUP1 PUSH2 0x47EE PUSH2 0xB85 JUMP JUMPDEST SWAP2 POP SWAP2 POP PUSH0 PUSH2 0x47FB PUSH2 0x2E8B JUMP JUMPDEST SWAP1 POP PUSH0 PUSH2 0x483C DUP3 PUSH2 0x481B PUSH1 0xD9 PUSH0 ADD PUSH0 SWAP1 SLOAD SWAP1 PUSH2 0x100 EXP SWAP1 DIV PUSH1 0x2 SIGNEXTEND PUSH2 0x54E6 JUMP JUMPDEST PUSH2 0x4835 PUSH1 0xD9 PUSH0 ADD PUSH1 0x3 SWAP1 SLOAD SWAP1 PUSH2 0x100 EXP SWAP1 DIV PUSH1 0x2 SIGNEXTEND PUSH2 0x54E6 JUMP JUMPDEST DUP8 DUP8 PUSH2 0x6204 JUMP JUMPDEST SWAP1 POP PUSH0 PUSH2 0x486B DUP3 PUSH1 0xD9 PUSH0 ADD PUSH0 SWAP1 SLOAD SWAP1 PUSH2 0x100 EXP SWAP1 DIV PUSH1 0x2 SIGNEXTEND PUSH1 0xD9 PUSH0 ADD PUSH1 0x3 SWAP1 SLOAD SWAP1 PUSH2 0x100 EXP SWAP1 DIV PUSH1 0x2 SIGNEXTEND PUSH2 0x632D JUMP JUMPDEST SWAP1 POP PUSH0 DUP3 PUSH16 0xFFFFFFFFFFFFFFFFFFFFFFFFFFFFFFFF AND GT DUP1 ISZERO PUSH2 0x488B JUMPI POP DUP1 JUMPDEST ISZERO PUSH2 0x496E JUMPI PUSH1 0x1 PUSH1 0xDB PUSH1 0xE PUSH2 0x100 EXP DUP2 SLOAD DUP2 PUSH1 0xFF MUL NOT AND SWAP1 DUP4 ISZERO ISZERO MUL OR SWAP1 SSTORE POP PUSH1 0xD1 PUSH0 SWAP1 SLOAD SWAP1 PUSH2 0x100 EXP SWAP1 DIV PUSH20 0xFFFFFFFFFFFFFFFFFFFFFFFFFFFFFFFFFFFFFFFF AND PUSH20 0xFFFFFFFFFFFFFFFFFFFFFFFFFFFFFFFFFFFFFFFF AND PUSH4 0x3C8A7D8D ADDRESS PUSH1 0xD9 PUSH0 ADD PUSH0 SWAP1 SLOAD SWAP1 PUSH2 0x100 EXP SWAP1 DIV PUSH1 0x2 SIGNEXTEND PUSH1 0xD9 PUSH0 ADD PUSH1 0x3 SWAP1 SLOAD SWAP1 PUSH2 0x100 EXP SWAP1 DIV PUSH1 0x2 SIGNEXTEND DUP7 PUSH1 0x40 MLOAD DUP6 PUSH4 0xFFFFFFFF AND PUSH1 0xE0 SHL DUP2 MSTORE PUSH1 0x4 ADD PUSH2 0x492C SWAP5 SWAP4 SWAP3 SWAP2 SWAP1 PUSH2 0x8E3A JUMP JUMPDEST PUSH1 0x40 DUP1 MLOAD DUP1 DUP4 SUB DUP2 PUSH0 DUP8 GAS CALL ISZERO DUP1 ISZERO PUSH2 0x4947 JUMPI RETURNDATASIZE PUSH0 DUP1 RETURNDATACOPY RETURNDATASIZE PUSH0 REVERT JUMPDEST POP POP POP POP PUSH1 0x40 MLOAD RETURNDATASIZE PUSH1 0x1F NOT PUSH1 0x1F DUP3 ADD AND DUP3 ADD DUP1 PUSH1 0x40 MSTORE POP DUP2 ADD SWAP1 PUSH2 0x496B SWAP2 SWAP1 PUSH2 0x8CDF JUMP JUMPDEST POP POP JUMPDEST PUSH2 0x4976 PUSH2 0xB85 JUMP JUMPDEST DUP1 SWAP6 POP DUP2 SWAP7 POP POP POP PUSH2 0x49BC DUP4 PUSH2 0x499B PUSH1 0xDA PUSH0 ADD PUSH0 SWAP1 SLOAD SWAP1 PUSH2 0x100 EXP SWAP1 DIV PUSH1 0x2 SIGNEXTEND PUSH2 0x54E6 JUMP JUMPDEST PUSH2 0x49B5 PUSH1 0xDA PUSH0 ADD PUSH1 0x3 SWAP1 SLOAD SWAP1 PUSH2 0x100 EXP SWAP1 DIV PUSH1 0x2 SIGNEXTEND PUSH2 0x54E6 JUMP JUMPDEST DUP9 DUP9 PUSH2 0x6204 JUMP JUMPDEST SWAP2 POP PUSH0 DUP3 PUSH16 0xFFFFFFFFFFFFFFFFFFFFFFFFFFFFFFFF AND GT ISZERO PUSH2 0x4AB6 JUMPI PUSH1 0x1 PUSH1 0xDB PUSH1 0xE PUSH2 0x100 EXP DUP2 SLOAD DUP2 PUSH1 0xFF MUL NOT AND SWAP1 DUP4 ISZERO ISZERO MUL OR SWAP1 SSTORE POP PUSH1 0xD1 PUSH0 SWAP1 SLOAD SWAP1 PUSH2 0x100 EXP SWAP1 DIV PUSH20 0xFFFFFFFFFFFFFFFFFFFFFFFFFFFFFFFFFFFFFFFF AND PUSH20 0xFFFFFFFFFFFFFFFFFFFFFFFFFFFFFFFFFFFFFFFF AND PUSH4 0x3C8A7D8D ADDRESS PUSH1 0xDA PUSH0 ADD PUSH0 SWAP1 SLOAD SWAP1 PUSH2 0x100 EXP SWAP1 DIV PUSH1 0x2 SIGNEXTEND PUSH1 0xDA PUSH0 ADD PUSH1 0x3 SWAP1 SLOAD SWAP1 PUSH2 0x100 EXP SWAP1 DIV PUSH1 0x2 SIGNEXTEND DUP7 PUSH1 0x40 MLOAD DUP6 PUSH4 0xFFFFFFFF AND PUSH1 0xE0 SHL DUP2 MSTORE PUSH1 0x4 ADD PUSH2 0x4A74 SWAP5 SWAP4 SWAP3 SWAP2 SWAP1 PUSH2 0x8EDA JUMP JUMPDEST PUSH1 0x40 DUP1 MLOAD DUP1 DUP4 SUB DUP2 PUSH0 DUP8 GAS CALL ISZERO DUP1 ISZERO PUSH2 0x4A8F JUMPI RETURNDATASIZE PUSH0 DUP1 RETURNDATACOPY RETURNDATASIZE PUSH0 REVERT JUMPDEST POP POP POP POP PUSH1 0x40 MLOAD RETURNDATASIZE PUSH1 0x1F NOT PUSH1 0x1F DUP3 ADD AND DUP3 ADD DUP1 PUSH1 0x40 MSTORE POP DUP2 ADD SWAP1 PUSH2 0x4AB3 SWAP2 SWAP1 PUSH2 0x8CDF JUMP JUMPDEST POP POP JUMPDEST POP POP POP POP POP JUMP JUMPDEST PUSH1 0x98 PUSH0 SWAP1 SLOAD SWAP1 PUSH2 0x100 EXP SWAP1 DIV PUSH20 0xFFFFFFFFFFFFFFFFFFFFFFFFFFFFFFFFFFFFFFFF AND PUSH20 0xFFFFFFFFFFFFFFFFFFFFFFFFFFFFFFFFFFFFFFFF AND CALLER PUSH20 0xFFFFFFFFFFFFFFFFFFFFFFFFFFFFFFFFFFFFFFFF AND EQ PUSH2 0x4B43 JUMPI PUSH1 0x40 MLOAD PUSH32 0x62DF054500000000000000000000000000000000000000000000000000000000 DUP2 MSTORE PUSH1 0x4 ADD PUSH1 0x40 MLOAD DUP1 SWAP2 SUB SWAP1 REVERT JUMPDEST JUMP JUMPDEST PUSH0 PUSH1 0xD1 PUSH0 SWAP1 SLOAD SWAP1 PUSH2 0x100 EXP SWAP1 DIV PUSH20 0xFFFFFFFFFFFFFFFFFFFFFFFFFFFFFFFFFFFFFFFF AND PUSH20 0xFFFFFFFFFFFFFFFFFFFFFFFFFFFFFFFFFFFFFFFF AND PUSH4 0xD0C93A7C PUSH1 0x40 MLOAD DUP2 PUSH4 0xFFFFFFFF AND PUSH1 0xE0 SHL DUP2 MSTORE PUSH1 0x4 ADD PUSH1 0x20 PUSH1 0x40 MLOAD DUP1 DUP4 SUB DUP2 DUP7 GAS STATICCALL ISZERO DUP1 ISZERO PUSH2 0x4BB0 JUMPI RETURNDATASIZE PUSH0 DUP1 RETURNDATACOPY RETURNDATASIZE PUSH0 REVERT JUMPDEST POP POP POP POP PUSH1 0x40 MLOAD RETURNDATASIZE PUSH1 0x1F NOT PUSH1 0x1F DUP3 ADD AND DUP3 ADD DUP1 PUSH1 0x40 MSTORE POP DUP2 ADD SWAP1 PUSH2 0x4BD4 SWAP2 SWAP1 PUSH2 0x8F30 JUMP JUMPDEST SWAP1 POP SWAP1 JUMP JUMPDEST PUSH2 0x4C66 PUSH1 0x99 PUSH0 SWAP1 SLOAD SWAP1 PUSH2 0x100 EXP SWAP1 DIV PUSH20 0xFFFFFFFFFFFFFFFFFFFFFFFFFFFFFFFFFFFFFFFF AND PUSH32 0xFFFFFFFFFFFFFFFFFFFFFFFFFFFFFFFFFFFFFFFFFFFFFFFFFFFFFFFFFFFFFFFF PUSH1 0xD3 PUSH0 SWAP1 SLOAD SWAP1 PUSH2 0x100 EXP SWAP1 DIV PUSH20 0xFFFFFFFFFFFFFFFFFFFFFFFFFFFFFFFFFFFFFFFF AND PUSH20 0xFFFFFFFFFFFFFFFFFFFFFFFFFFFFFFFFFFFFFFFF AND PUSH2 0x6381 SWAP1 SWAP3 SWAP2 SWAP1 PUSH4 0xFFFFFFFF AND JUMP JUMPDEST PUSH2 0x4CF3 PUSH1 0x99 PUSH0 SWAP1 SLOAD SWAP1 PUSH2 0x100 EXP SWAP1 DIV PUSH20 0xFFFFFFFFFFFFFFFFFFFFFFFFFFFFFFFFFFFFFFFF AND PUSH32 0xFFFFFFFFFFFFFFFFFFFFFFFFFFFFFFFFFFFFFFFFFFFFFFFFFFFFFFFFFFFFFFFF PUSH1 0xD4 PUSH0 SWAP1 SLOAD SWAP1 PUSH2 0x100 EXP SWAP1 DIV PUSH20 0xFFFFFFFFFFFFFFFFFFFFFFFFFFFFFFFFFFFFFFFF AND PUSH20 0xFFFFFFFFFFFFFFFFFFFFFFFFFFFFFFFFFFFFFFFF AND PUSH2 0x6381 SWAP1 SWAP3 SWAP2 SWAP1 PUSH4 0xFFFFFFFF AND JUMP JUMPDEST JUMP JUMPDEST PUSH2 0x4CFD PUSH2 0x649C JUMP JUMPDEST PUSH0 PUSH1 0x65 PUSH0 PUSH2 0x100 EXP DUP2 SLOAD DUP2 PUSH1 0xFF MUL NOT AND SWAP1 DUP4 ISZERO ISZERO MUL OR SWAP1 SSTORE POP PUSH32 0x5DB9EE0A495BF2E6FF9C91A7834C1BA4FDD244A5E8AA4E537BD38AEAE4B073AA PUSH2 0x4D3F PUSH2 0x59D1 JUMP JUMPDEST PUSH1 0x40 MLOAD PUSH2 0x4D4C SWAP2 SWAP1 PUSH2 0x71B5 JUMP JUMPDEST PUSH1 0x40 MLOAD DUP1 SWAP2 SUB SWAP1 LOG1 JUMP JUMPDEST PUSH2 0x4DD7 DUP4 PUSH4 0xA9059CBB PUSH1 0xE0 SHL DUP5 DUP5 PUSH1 0x40 MLOAD PUSH1 0x24 ADD PUSH2 0x4D75 SWAP3 SWAP2 SWAP1 PUSH2 0x8F5B JUMP JUMPDEST PUSH1 0x40 MLOAD PUSH1 0x20 DUP2 DUP4 SUB SUB DUP2 MSTORE SWAP1 PUSH1 0x40 MSTORE SWAP1 PUSH28 0xFFFFFFFFFFFFFFFFFFFFFFFFFFFFFFFFFFFFFFFFFFFFFFFFFFFFFFFF NOT AND PUSH1 0x20 DUP3 ADD DUP1 MLOAD PUSH28 0xFFFFFFFFFFFFFFFFFFFFFFFFFFFFFFFFFFFFFFFFFFFFFFFFFFFFFFFF DUP4 DUP2 DUP4 AND OR DUP4 MSTORE POP POP POP POP PUSH2 0x64E5 JUMP JUMPDEST POP POP POP JUMP JUMPDEST PUSH0 PUSH2 0x4DE5 PUSH2 0x1FED JUMP JUMPDEST DUP1 PUSH2 0x4E7A JUMPI POP PUSH1 0x9B PUSH0 SWAP1 SLOAD SWAP1 PUSH2 0x100 EXP SWAP1 DIV PUSH20 0xFFFFFFFFFFFFFFFFFFFFFFFFFFFFFFFFFFFFFFFF AND PUSH20 0xFFFFFFFFFFFFFFFFFFFFFFFFFFFFFFFFFFFFFFFF AND PUSH4 0xF12D54D8 PUSH1 0x40 MLOAD DUP2 PUSH4 0xFFFFFFFF AND PUSH1 0xE0 SHL DUP2 MSTORE PUSH1 0x4 ADD PUSH1 0x20 PUSH1 0x40 MLOAD DUP1 DUP4 SUB DUP2 DUP7 GAS STATICCALL ISZERO DUP1 ISZERO PUSH2 0x4E55 JUMPI RETURNDATASIZE PUSH0 DUP1 RETURNDATACOPY RETURNDATASIZE PUSH0 REVERT JUMPDEST POP POP POP POP PUSH1 0x40 MLOAD RETURNDATASIZE PUSH1 0x1F NOT PUSH1 0x1F DUP3 ADD AND DUP3 ADD DUP1 PUSH1 0x40 MSTORE POP DUP2 ADD SWAP1 PUSH2 0x4E79 SWAP2 SWAP1 PUSH2 0x8A7B JUMP JUMPDEST JUMPDEST SWAP1 POP SWAP1 JUMP JUMPDEST PUSH2 0x4EEC PUSH1 0x99 PUSH0 SWAP1 SLOAD SWAP1 PUSH2 0x100 EXP SWAP1 DIV PUSH20 0xFFFFFFFFFFFFFFFFFFFFFFFFFFFFFFFFFFFFFFFF AND PUSH0 PUSH1 0xD3 PUSH0 SWAP1 SLOAD SWAP1 PUSH2 0x100 EXP SWAP1 DIV PUSH20 0xFFFFFFFFFFFFFFFFFFFFFFFFFFFFFFFFFFFFFFFF AND PUSH20 0xFFFFFFFFFFFFFFFFFFFFFFFFFFFFFFFFFFFFFFFF AND PUSH2 0x6381 SWAP1 SWAP3 SWAP2 SWAP1 PUSH4 0xFFFFFFFF AND JUMP JUMPDEST PUSH2 0x4F59 PUSH1 0x99 PUSH0 SWAP1 SLOAD SWAP1 PUSH2 0x100 EXP SWAP1 DIV PUSH20 0xFFFFFFFFFFFFFFFFFFFFFFFFFFFFFFFFFFFFFFFF AND PUSH0 PUSH1 0xD4 PUSH0 SWAP1 SLOAD SWAP1 PUSH2 0x100 EXP SWAP1 DIV PUSH20 0xFFFFFFFFFFFFFFFFFFFFFFFFFFFFFFFFFFFFFFFF AND PUSH20 0xFFFFFFFFFFFFFFFFFFFFFFFFFFFFFFFFFFFFFFFF AND PUSH2 0x6381 SWAP1 SWAP3 SWAP2 SWAP1 PUSH4 0xFFFFFFFF AND JUMP JUMPDEST JUMP JUMPDEST PUSH2 0x4F63 PUSH2 0x65AB JUMP JUMPDEST PUSH1 0x1 PUSH1 0x65 PUSH0 PUSH2 0x100 EXP DUP2 SLOAD DUP2 PUSH1 0xFF MUL NOT AND SWAP1 DUP4 ISZERO ISZERO MUL OR SWAP1 SSTORE POP PUSH32 0x62E78CEA01BEE320CD4E420270B5EA74000D11B0C9F74754EBDBFC544B05A258 PUSH2 0x4FA6 PUSH2 0x59D1 JUMP JUMPDEST PUSH1 0x40 MLOAD PUSH2 0x4FB3 SWAP2 SWAP1 PUSH2 0x71B5 JUMP JUMPDEST PUSH1 0x40 MLOAD DUP1 SWAP2 SUB SWAP1 LOG1 JUMP JUMPDEST PUSH0 PUSH1 0x33 PUSH0 SWAP1 SLOAD SWAP1 PUSH2 0x100 EXP SWAP1 DIV PUSH20 0xFFFFFFFFFFFFFFFFFFFFFFFFFFFFFFFFFFFFFFFF AND SWAP1 POP DUP2 PUSH1 0x33 PUSH0 PUSH2 0x100 EXP DUP2 SLOAD DUP2 PUSH20 0xFFFFFFFFFFFFFFFFFFFFFFFFFFFFFFFFFFFFFFFF MUL NOT AND SWAP1 DUP4 PUSH20 0xFFFFFFFFFFFFFFFFFFFFFFFFFFFFFFFFFFFFFFFF AND MUL OR SWAP1 SSTORE POP DUP2 PUSH20 0xFFFFFFFFFFFFFFFFFFFFFFFFFFFFFFFFFFFFFFFF AND DUP2 PUSH20 0xFFFFFFFFFFFFFFFFFFFFFFFFFFFFFFFFFFFFFFFF AND PUSH32 0x8BE0079C531659141344CD1FD0A4F28419497F9722A3DAAFE3B4186F6B6457E0 PUSH1 0x40 MLOAD PUSH1 0x40 MLOAD DUP1 SWAP2 SUB SWAP1 LOG3 POP POP JUMP JUMPDEST PUSH0 DUP1 DUP3 PUSH20 0xFFFFFFFFFFFFFFFFFFFFFFFFFFFFFFFFFFFFFFFF AND EXTCODESIZE GT SWAP1 POP SWAP2 SWAP1 POP JUMP JUMPDEST PUSH0 PUSH1 0x1 SWAP1 SLOAD SWAP1 PUSH2 0x100 EXP SWAP1 DIV PUSH1 0xFF AND PUSH2 0x50F0 JUMPI PUSH1 0x40 MLOAD PUSH32 0x8C379A000000000000000000000000000000000000000000000000000000000 DUP2 MSTORE PUSH1 0x4 ADD PUSH2 0x50E7 SWAP1 PUSH2 0x8FF2 JUMP JUMPDEST PUSH1 0x40 MLOAD DUP1 SWAP2 SUB SWAP1 REVERT JUMPDEST PUSH2 0x50F8 PUSH2 0x65F5 JUMP JUMPDEST PUSH2 0x5100 PUSH2 0x664D JUMP JUMPDEST DUP1 PUSH0 ADD PUSH1 0x20 DUP2 ADD SWAP1 PUSH2 0x5112 SWAP2 SWAP1 PUSH2 0x717B JUMP JUMPDEST PUSH1 0x98 PUSH0 PUSH2 0x100 EXP DUP2 SLOAD DUP2 PUSH20 0xFFFFFFFFFFFFFFFFFFFFFFFFFFFFFFFFFFFFFFFF MUL NOT AND SWAP1 DUP4 PUSH20 0xFFFFFFFFFFFFFFFFFFFFFFFFFFFFFFFFFFFFFFFF AND MUL OR SWAP1 SSTORE POP DUP1 PUSH1 0x20 ADD PUSH1 0x20 DUP2 ADD SWAP1 PUSH2 0x5164 SWAP2 SWAP1 PUSH2 0x717B JUMP JUMPDEST PUSH1 0x99 PUSH0 PUSH2 0x100 EXP DUP2 SLOAD DUP2 PUSH20 0xFFFFFFFFFFFFFFFFFFFFFFFFFFFFFFFFFFFFFFFF MUL NOT AND SWAP1 DUP4 PUSH20 0xFFFFFFFFFFFFFFFFFFFFFFFFFFFFFFFFFFFFFFFF AND MUL OR SWAP1 SSTORE POP DUP1 PUSH1 0x40 ADD PUSH1 0x20 DUP2 ADD SWAP1 PUSH2 0x51B6 SWAP2 SWAP1 PUSH2 0x717B JUMP JUMPDEST PUSH1 0x9A PUSH0 PUSH2 0x100 EXP DUP2 SLOAD DUP2 PUSH20 0xFFFFFFFFFFFFFFFFFFFFFFFFFFFFFFFFFFFFFFFF MUL NOT AND SWAP1 DUP4 PUSH20 0xFFFFFFFFFFFFFFFFFFFFFFFFFFFFFFFFFFFFFFFF AND MUL OR SWAP1 SSTORE POP DUP1 PUSH1 0x60 ADD PUSH1 0x20 DUP2 ADD SWAP1 PUSH2 0x5208 SWAP2 SWAP1 PUSH2 0x717B JUMP JUMPDEST PUSH1 0x9B PUSH0 PUSH2 0x100 EXP DUP2 SLOAD DUP2 PUSH20 0xFFFFFFFFFFFFFFFFFFFFFFFFFFFFFFFFFFFFFFFF MUL NOT AND SWAP1 DUP4 PUSH20 0xFFFFFFFFFFFFFFFFFFFFFFFFFFFFFFFFFFFFFFFF AND MUL OR SWAP1 SSTORE POP PUSH1 0x9B PUSH0 SWAP1 SLOAD SWAP1 PUSH2 0x100 EXP SWAP1 DIV PUSH20 0xFFFFFFFFFFFFFFFFFFFFFFFFFFFFFFFFFFFFFFFF AND PUSH20 0xFFFFFFFFFFFFFFFFFFFFFFFFFFFFFFFFFFFFFFFF AND PUSH4 0x11B0B42D PUSH1 0x40 MLOAD DUP2 PUSH4 0xFFFFFFFF AND PUSH1 0xE0 SHL DUP2 MSTORE PUSH1 0x4 ADD PUSH1 0x20 PUSH1 0x40 MLOAD DUP1 DUP4 SUB DUP2 DUP7 GAS STATICCALL ISZERO DUP1 ISZERO PUSH2 0x52B1 JUMPI RETURNDATASIZE PUSH0 DUP1 RETURNDATACOPY RETURNDATASIZE PUSH0 REVERT JUMPDEST POP POP POP POP PUSH1 0x40 MLOAD RETURNDATASIZE PUSH1 0x1F NOT PUSH1 0x1F DUP3 ADD AND DUP3 ADD DUP1 PUSH1 0x40 MSTORE POP DUP2 ADD SWAP1 PUSH2 0x52D5 SWAP2 SWAP1 PUSH2 0x89A0 JUMP JUMPDEST PUSH1 0x97 PUSH0 PUSH2 0x100 EXP DUP2 SLOAD DUP2 PUSH20 0xFFFFFFFFFFFFFFFFFFFFFFFFFFFFFFFFFFFFFFFF MUL NOT AND SWAP1 DUP4 PUSH20 0xFFFFFFFFFFFFFFFFFFFFFFFFFFFFFFFFFFFFFFFF AND MUL OR SWAP1 SSTORE POP POP JUMP JUMPDEST PUSH0 DUP2 DUP4 SGT PUSH2 0x5325 JUMPI DUP2 PUSH2 0x5327 JUMP JUMPDEST DUP3 JUMPDEST SWAP1 POP SWAP3 SWAP2 POP POP JUMP JUMPDEST PUSH0 DUP2 DUP4 SLT PUSH2 0x533D JUMPI DUP2 PUSH2 0x533F JUMP JUMPDEST DUP3 JUMPDEST SWAP1 POP SWAP3 SWAP2 POP POP JUMP JUMPDEST PUSH0 DUP1 PUSH0 DUP1 NOT DUP6 DUP8 MULMOD DUP6 DUP8 MUL SWAP3 POP DUP3 DUP2 LT DUP4 DUP3 SUB SUB SWAP2 POP POP PUSH0 DUP2 SUB PUSH2 0x537C JUMPI PUSH0 DUP5 GT PUSH2 0x5370 JUMPI PUSH0 DUP1 REVERT JUMPDEST DUP4 DUP3 DIV SWAP3 POP POP POP PUSH2 0x5410 JUMP JUMPDEST DUP1 DUP5 GT PUSH2 0x5387 JUMPI PUSH0 DUP1 REVERT JUMPDEST PUSH0 DUP5 DUP7 DUP9 MULMOD SWAP1 POP DUP3 DUP2 GT DUP3 SUB SWAP2 POP DUP1 DUP4 SUB SWAP3 POP PUSH0 PUSH1 0x1 DUP7 NOT ADD DUP7 AND SWAP1 POP DUP1 DUP7 DIV SWAP6 POP DUP1 DUP5 DIV SWAP4 POP PUSH1 0x1 DUP2 DUP3 PUSH0 SUB DIV ADD SWAP1 POP DUP1 DUP4 MUL DUP5 OR SWAP4 POP PUSH0 PUSH1 0x2 DUP8 PUSH1 0x3 MUL XOR SWAP1 POP DUP1 DUP8 MUL PUSH1 0x2 SUB DUP2 MUL SWAP1 POP DUP1 DUP8 MUL PUSH1 0x2 SUB DUP2 MUL SWAP1 POP DUP1 DUP8 MUL PUSH1 0x2 SUB DUP2 MUL SWAP1 POP DUP1 DUP8 MUL PUSH1 0x2 SUB DUP2 MUL SWAP1 POP DUP1 DUP8 MUL PUSH1 0x2 SUB DUP2 MUL SWAP1 POP DUP1 DUP8 MUL PUSH1 0x2 SUB DUP2 MUL SWAP1 POP DUP1 DUP6 MUL SWAP6 POP POP POP POP POP POP JUMPDEST SWAP4 SWAP3 POP POP POP JUMP JUMPDEST PUSH2 0x541F PUSH2 0x6FA5 JUMP JUMPDEST PUSH2 0x5427 PUSH2 0x3613 JUMP JUMPDEST PUSH20 0xFFFFFFFFFFFFFFFFFFFFFFFFFFFFFFFFFFFFFFFF AND PUSH4 0x9AF608C9 ADDRESS PUSH1 0x40 MLOAD DUP3 PUSH4 0xFFFFFFFF AND PUSH1 0xE0 SHL DUP2 MSTORE PUSH1 0x4 ADD PUSH2 0x545F SWAP2 SWAP1 PUSH2 0x71B5 JUMP JUMPDEST PUSH0 PUSH1 0x40 MLOAD DUP1 DUP4 SUB DUP2 DUP7 GAS STATICCALL ISZERO DUP1 ISZERO PUSH2 0x5479 JUMPI RETURNDATASIZE PUSH0 DUP1 RETURNDATACOPY RETURNDATASIZE PUSH0 REVERT JUMPDEST POP POP POP POP PUSH1 0x40 MLOAD RETURNDATASIZE PUSH0 DUP3 RETURNDATACOPY RETURNDATASIZE PUSH1 0x1F NOT PUSH1 0x1F DUP3 ADD AND DUP3 ADD DUP1 PUSH1 0x40 MSTORE POP DUP2 ADD SWAP1 PUSH2 0x54A1 SWAP2 SWAP1 PUSH2 0x916F JUMP JUMPDEST SWAP1 POP SWAP1 JUMP JUMPDEST PUSH2 0x54AE PUSH2 0x27DD JUMP JUMPDEST PUSH2 0x54E4 JUMPI PUSH1 0x40 MLOAD PUSH32 0x26C8787600000000000000000000000000000000000000000000000000000000 DUP2 MSTORE PUSH1 0x4 ADD PUSH1 0x40 MLOAD DUP1 SWAP2 SUB SWAP1 REVERT JUMPDEST JUMP JUMPDEST PUSH0 DUP1 PUSH0 DUP4 PUSH1 0x2 SIGNEXTEND SLT PUSH2 0x54FB JUMPI DUP3 PUSH1 0x2 SIGNEXTEND PUSH2 0x5502 JUMP JUMPDEST DUP3 PUSH1 0x2 SIGNEXTEND PUSH0 SUB JUMPDEST SWAP1 POP PUSH32 0xFFFFFFFFFFFFFFFFFFFFFFFFFFFFFFFFFFFFFFFFFFFFFFFFFFFFFFFFFFF27618 PUSH0 SUB PUSH1 0x2 SIGNEXTEND DUP2 GT ISZERO PUSH2 0x556C JUMPI PUSH1 0x40 MLOAD PUSH32 0x8C379A000000000000000000000000000000000000000000000000000000000 DUP2 MSTORE PUSH1 0x4 ADD PUSH2 0x5563 SWAP1 PUSH2 0x9200 JUMP JUMPDEST PUSH1 0x40 MLOAD DUP1 SWAP2 SUB SWAP1 REVERT JUMPDEST PUSH0 DUP1 PUSH1 0x1 DUP4 AND SUB PUSH2 0x558E JUMPI PUSH17 0x100000000000000000000000000000000 PUSH2 0x55A0 JUMP JUMPDEST PUSH16 0xFFFCB933BD6FAD37AA2D162D1A594001 JUMPDEST PUSH17 0xFFFFFFFFFFFFFFFFFFFFFFFFFFFFFFFFFF AND SWAP1 POP PUSH0 PUSH1 0x2 DUP4 AND EQ PUSH2 0x55D9 JUMPI PUSH1 0x80 PUSH16 0xFFF97272373D413259A46990580E213A DUP3 MUL SWAP1 SHR SWAP1 POP JUMPDEST PUSH0 PUSH1 0x4 DUP4 AND EQ PUSH2 0x55FD JUMPI PUSH1 0x80 PUSH16 0xFFF2E50F5F656932EF12357CF3C7FDCC DUP3 MUL SWAP1 SHR SWAP1 POP JUMPDEST PUSH0 PUSH1 0x8 DUP4 AND EQ PUSH2 0x5621 JUMPI PUSH1 0x80 PUSH16 0xFFE5CACA7E10E4E61C3624EAA0941CD0 DUP3 MUL SWAP1 SHR SWAP1 POP JUMPDEST PUSH0 PUSH1 0x10 DUP4 AND EQ PUSH2 0x5645 JUMPI PUSH1 0x80 PUSH16 0xFFCB9843D60F6159C9DB58835C926644 DUP3 MUL SWAP1 SHR SWAP1 POP JUMPDEST PUSH0 PUSH1 0x20 DUP4 AND EQ PUSH2 0x5669 JUMPI PUSH1 0x80 PUSH16 0xFF973B41FA98C081472E6896DFB254C0 DUP3 MUL SWAP1 SHR SWAP1 POP JUMPDEST PUSH0 PUSH1 0x40 DUP4 AND EQ PUSH2 0x568D JUMPI PUSH1 0x80 PUSH16 0xFF2EA16466C96A3843EC78B326B52861 DUP3 MUL SWAP1 SHR SWAP1 POP JUMPDEST PUSH0 PUSH1 0x80 DUP4 AND EQ PUSH2 0x56B1 JUMPI PUSH1 0x80 PUSH16 0xFE5DEE046A99A2A811C461F1969C3053 DUP3 MUL SWAP1 SHR SWAP1 POP JUMPDEST PUSH0 PUSH2 0x100 DUP4 AND EQ PUSH2 0x56D6 JUMPI PUSH1 0x80 PUSH16 0xFCBE86C7900A88AEDCFFC83B479AA3A4 DUP3 MUL SWAP1 SHR SWAP1 POP JUMPDEST PUSH0 PUSH2 0x200 DUP4 AND EQ PUSH2 0x56FB JUMPI PUSH1 0x80 PUSH16 0xF987A7253AC413176F2B074CF7815E54 DUP3 MUL SWAP1 SHR SWAP1 POP JUMPDEST PUSH0 PUSH2 0x400 DUP4 AND EQ PUSH2 0x5720 JUMPI PUSH1 0x80 PUSH16 0xF3392B0822B70005940C7A398E4B70F3 DUP3 MUL SWAP1 SHR SWAP1 POP JUMPDEST PUSH0 PUSH2 0x800 DUP4 AND EQ PUSH2 0x5745 JUMPI PUSH1 0x80 PUSH16 0xE7159475A2C29B7443B29C7FA6E889D9 DUP3 MUL SWAP1 SHR SWAP1 POP JUMPDEST PUSH0 PUSH2 0x1000 DUP4 AND EQ PUSH2 0x576A JUMPI PUSH1 0x80 PUSH16 0xD097F3BDFD2022B8845AD8F792AA5825 DUP3 MUL SWAP1 SHR SWAP1 POP JUMPDEST PUSH0 PUSH2 0x2000 DUP4 AND EQ PUSH2 0x578F JUMPI PUSH1 0x80 PUSH16 0xA9F746462D870FDF8A65DC1F90E061E5 DUP3 MUL SWAP1 SHR SWAP1 POP JUMPDEST PUSH0 PUSH2 0x4000 DUP4 AND EQ PUSH2 0x57B4 JUMPI PUSH1 0x80 PUSH16 0x70D869A156D2A1B890BB3DF62BAF32F7 DUP3 MUL SWAP1 SHR SWAP1 POP JUMPDEST PUSH0 PUSH2 0x8000 DUP4 AND EQ PUSH2 0x57D9 JUMPI PUSH1 0x80 PUSH16 0x31BE135F97D08FD981231505542FCFA6 DUP3 MUL SWAP1 SHR SWAP1 POP JUMPDEST PUSH0 PUSH3 0x10000 DUP4 AND EQ PUSH2 0x57FF JUMPI PUSH1 0x80 PUSH16 0x9AA508B5B7A84E1C677DE54F3E99BC9 DUP3 MUL SWAP1 SHR SWAP1 POP JUMPDEST PUSH0 PUSH3 0x20000 DUP4 AND EQ PUSH2 0x5824 JUMPI PUSH1 0x80 PUSH15 0x5D6AF8DEDB81196699C329225EE604 DUP3 MUL SWAP1 SHR SWAP1 POP JUMPDEST PUSH0 PUSH3 0x40000 DUP4 AND EQ PUSH2 0x5848 JUMPI PUSH1 0x80 PUSH14 0x2216E584F5FA1EA926041BEDFE98 DUP3 MUL SWAP1 SHR SWAP1 POP JUMPDEST PUSH0 PUSH3 0x80000 DUP4 AND EQ PUSH2 0x586A JUMPI PUSH1 0x80 PUSH12 0x48A170391F7DC42444E8FA2 DUP3 MUL SWAP1 SHR SWAP1 POP JUMPDEST PUSH0 DUP5 PUSH1 0x2 SIGNEXTEND SGT ISZERO PUSH2 0x58A9 JUMPI DUP1 PUSH32 0xFFFFFFFFFFFFFFFFFFFFFFFFFFFFFFFFFFFFFFFFFFFFFFFFFFFFFFFFFFFFFFFF DUP2 PUSH2 0x58A5 JUMPI PUSH2 0x58A4 PUSH2 0x83B1 JUMP JUMPDEST JUMPDEST DIV SWAP1 POP JUMPDEST PUSH0 PUSH5 0x100000000 DUP3 DUP2 PUSH2 0x58BF JUMPI PUSH2 0x58BE PUSH2 0x83B1 JUMP JUMPDEST JUMPDEST MOD EQ PUSH2 0x58CC JUMPI PUSH1 0x1 PUSH2 0x58CE JUMP JUMPDEST PUSH0 JUMPDEST PUSH1 0xFF AND PUSH1 0x20 DUP3 SWAP1 SHR ADD SWAP3 POP POP POP SWAP2 SWAP1 POP JUMP JUMPDEST PUSH0 DUP1 DUP4 PUSH20 0xFFFFFFFFFFFFFFFFFFFFFFFFFFFFFFFFFFFFFFFF AND DUP6 PUSH20 0xFFFFFFFFFFFFFFFFFFFFFFFFFFFFFFFFFFFFFFFF AND GT ISZERO PUSH2 0x5921 JUMPI DUP4 DUP6 DUP1 SWAP6 POP DUP2 SWAP7 POP POP POP JUMPDEST DUP5 PUSH20 0xFFFFFFFFFFFFFFFFFFFFFFFFFFFFFFFFFFFFFFFF AND DUP7 PUSH20 0xFFFFFFFFFFFFFFFFFFFFFFFFFFFFFFFFFFFFFFFF AND GT PUSH2 0x5966 JUMPI PUSH2 0x595F DUP6 DUP6 DUP6 PUSH2 0x66A5 JUMP JUMPDEST SWAP2 POP PUSH2 0x59C8 JUMP JUMPDEST DUP4 PUSH20 0xFFFFFFFFFFFFFFFFFFFFFFFFFFFFFFFFFFFFFFFF AND DUP7 PUSH20 0xFFFFFFFFFFFFFFFFFFFFFFFFFFFFFFFFFFFFFFFF AND LT ISZERO PUSH2 0x59B9 JUMPI PUSH2 0x59A5 DUP7 DUP6 DUP6 PUSH2 0x66A5 JUMP JUMPDEST SWAP2 POP PUSH2 0x59B2 DUP6 DUP8 DUP6 PUSH2 0x676A JUMP JUMPDEST SWAP1 POP PUSH2 0x59C7 JUMP JUMPDEST PUSH2 0x59C4 DUP6 DUP6 DUP6 PUSH2 0x676A JUMP JUMPDEST SWAP1 POP JUMPDEST JUMPDEST SWAP5 POP SWAP5 SWAP3 POP POP POP JUMP JUMPDEST PUSH0 CALLER SWAP1 POP SWAP1 JUMP JUMPDEST PUSH0 PUSH1 0x3 PUSH1 0x14 PUSH2 0x59E7 SWAP2 SWAP1 PUSH2 0x8858 JUMP JUMPDEST PUSH1 0x14 DUP4 MLOAD PUSH2 0x59F5 SWAP2 SWAP1 PUSH2 0x7D29 JUMP JUMPDEST PUSH2 0x59FF SWAP2 SWAP1 PUSH2 0x8620 JUMP JUMPDEST SWAP1 POP SWAP2 SWAP1 POP JUMP JUMPDEST PUSH0 DUP1 PUSH0 PUSH2 0x5A1C PUSH0 DUP6 PUSH2 0x67FE SWAP1 SWAP2 SWAP1 PUSH4 0xFFFFFFFF AND JUMP JUMPDEST SWAP3 POP PUSH2 0x5A32 PUSH1 0x14 DUP6 PUSH2 0x6872 SWAP1 SWAP2 SWAP1 PUSH4 0xFFFFFFFF AND JUMP JUMPDEST SWAP1 POP PUSH2 0x5A54 PUSH1 0x3 PUSH1 0x14 PUSH2 0x5A45 SWAP2 SWAP1 PUSH2 0x8858 JUMP JUMPDEST DUP6 PUSH2 0x67FE SWAP1 SWAP2 SWAP1 PUSH4 0xFFFFFFFF AND JUMP JUMPDEST SWAP2 POP SWAP2 SWAP4 SWAP1 SWAP3 POP JUMP JUMPDEST PUSH1 0x60 PUSH2 0x5A9A PUSH1 0x3 PUSH1 0x14 PUSH2 0x5A70 SWAP2 SWAP1 PUSH2 0x8858 JUMP JUMPDEST PUSH1 0x3 PUSH1 0x14 PUSH2 0x5A7E SWAP2 SWAP1 PUSH2 0x8858 JUMP JUMPDEST DUP5 MLOAD PUSH2 0x5A8A SWAP2 SWAP1 PUSH2 0x7D29 JUMP JUMPDEST DUP5 PUSH2 0x6926 SWAP1 SWAP3 SWAP2 SWAP1 PUSH4 0xFFFFFFFF AND JUMP JUMPDEST SWAP1 POP SWAP2 SWAP1 POP JUMP JUMPDEST PUSH0 DUP1 PUSH0 PUSH2 0x5AAC PUSH2 0x5417 JUMP JUMPDEST SWAP1 POP PUSH0 DUP1 DUP7 GT ISZERO PUSH2 0x5CDD JUMPI PUSH0 PUSH8 0xDE0B6B3A7640000 DUP4 PUSH0 ADD MLOAD DUP9 PUSH2 0x5AD0 SWAP2 SWAP1 PUSH2 0x8650 JUMP JUMPDEST PUSH2 0x5ADA SWAP2 SWAP1 PUSH2 0x8620 JUMP JUMPDEST SWAP1 POP DUP1 DUP8 PUSH2 0x5AE8 SWAP2 SWAP1 PUSH2 0x7D29 JUMP JUMPDEST SWAP5 POP PUSH0 PUSH1 0x97 PUSH0 SWAP1 SLOAD SWAP1 PUSH2 0x100 EXP SWAP1 DIV PUSH20 0xFFFFFFFFFFFFFFFFFFFFFFFFFFFFFFFFFFFFFFFF AND PUSH20 0xFFFFFFFFFFFFFFFFFFFFFFFFFFFFFFFFFFFFFFFF AND PUSH1 0xD3 PUSH0 SWAP1 SLOAD SWAP1 PUSH2 0x100 EXP SWAP1 DIV PUSH20 0xFFFFFFFFFFFFFFFFFFFFFFFFFFFFFFFFFFFFFFFF AND PUSH20 0xFFFFFFFFFFFFFFFFFFFFFFFFFFFFFFFFFFFFFFFF AND EQ PUSH2 0x5C43 JUMPI PUSH1 0x99 PUSH0 SWAP1 SLOAD SWAP1 PUSH2 0x100 EXP SWAP1 DIV PUSH20 0xFFFFFFFFFFFFFFFFFFFFFFFFFFFFFFFFFFFFFFFF AND PUSH20 0xFFFFFFFFFFFFFFFFFFFFFFFFFFFFFFFFFFFFFFFF AND PUSH4 0xDF791E50 PUSH1 0xD3 PUSH0 SWAP1 SLOAD SWAP1 PUSH2 0x100 EXP SWAP1 DIV PUSH20 0xFFFFFFFFFFFFFFFFFFFFFFFFFFFFFFFFFFFFFFFF AND PUSH1 0x97 PUSH0 SWAP1 SLOAD SWAP1 PUSH2 0x100 EXP SWAP1 DIV PUSH20 0xFFFFFFFFFFFFFFFFFFFFFFFFFFFFFFFFFFFFFFFF AND DUP6 PUSH1 0x40 MLOAD DUP5 PUSH4 0xFFFFFFFF AND PUSH1 0xE0 SHL DUP2 MSTORE PUSH1 0x4 ADD PUSH2 0x5C00 SWAP4 SWAP3 SWAP2 SWAP1 PUSH2 0x921E JUMP JUMPDEST PUSH1 0x20 PUSH1 0x40 MLOAD DUP1 DUP4 SUB DUP2 PUSH0 DUP8 GAS CALL ISZERO DUP1 ISZERO PUSH2 0x5C1C JUMPI RETURNDATASIZE PUSH0 DUP1 RETURNDATACOPY RETURNDATASIZE PUSH0 REVERT JUMPDEST POP POP POP POP PUSH1 0x40 MLOAD RETURNDATASIZE PUSH1 0x1F NOT PUSH1 0x1F DUP3 ADD AND DUP3 ADD DUP1 PUSH1 0x40 MSTORE POP DUP2 ADD SWAP1 PUSH2 0x5C40 SWAP2 SWAP1 PUSH2 0x7B54 JUMP JUMPDEST SWAP1 POP JUMPDEST PUSH1 0x97 PUSH0 SWAP1 SLOAD SWAP1 PUSH2 0x100 EXP SWAP1 DIV PUSH20 0xFFFFFFFFFFFFFFFFFFFFFFFFFFFFFFFFFFFFFFFF AND PUSH20 0xFFFFFFFFFFFFFFFFFFFFFFFFFFFFFFFFFFFFFFFF AND PUSH1 0xD3 PUSH0 SWAP1 SLOAD SWAP1 PUSH2 0x100 EXP SWAP1 DIV PUSH20 0xFFFFFFFFFFFFFFFFFFFFFFFFFFFFFFFFFFFFFFFF AND PUSH20 0xFFFFFFFFFFFFFFFFFFFFFFFFFFFFFFFFFFFFFFFF AND SUB PUSH2 0x5CCB JUMPI DUP2 DUP4 PUSH2 0x5CC4 SWAP2 SWAP1 PUSH2 0x8858 JUMP JUMPDEST SWAP3 POP PUSH2 0x5CDA JUMP JUMPDEST DUP1 DUP4 PUSH2 0x5CD7 SWAP2 SWAP1 PUSH2 0x8858 JUMP JUMPDEST SWAP3 POP JUMPDEST POP POP JUMPDEST PUSH0 DUP6 GT ISZERO PUSH2 0x5F0B JUMPI PUSH0 PUSH8 0xDE0B6B3A7640000 DUP4 PUSH0 ADD MLOAD DUP8 PUSH2 0x5CFE SWAP2 SWAP1 PUSH2 0x8650 JUMP JUMPDEST PUSH2 0x5D08 SWAP2 SWAP1 PUSH2 0x8620 JUMP JUMPDEST SWAP1 POP DUP1 DUP7 PUSH2 0x5D16 SWAP2 SWAP1 PUSH2 0x7D29 JUMP JUMPDEST SWAP4 POP PUSH0 PUSH1 0x97 PUSH0 SWAP1 SLOAD SWAP1 PUSH2 0x100 EXP SWAP1 DIV PUSH20 0xFFFFFFFFFFFFFFFFFFFFFFFFFFFFFFFFFFFFFFFF AND PUSH20 0xFFFFFFFFFFFFFFFFFFFFFFFFFFFFFFFFFFFFFFFF AND PUSH1 0xD4 PUSH0 SWAP1 SLOAD SWAP1 PUSH2 0x100 EXP SWAP1 DIV PUSH20 0xFFFFFFFFFFFFFFFFFFFFFFFFFFFFFFFFFFFFFFFF AND PUSH20 0xFFFFFFFFFFFFFFFFFFFFFFFFFFFFFFFFFFFFFFFF AND EQ PUSH2 0x5E71 JUMPI PUSH1 0x99 PUSH0 SWAP1 SLOAD SWAP1 PUSH2 0x100 EXP SWAP1 DIV PUSH20 0xFFFFFFFFFFFFFFFFFFFFFFFFFFFFFFFFFFFFFFFF AND PUSH20 0xFFFFFFFFFFFFFFFFFFFFFFFFFFFFFFFFFFFFFFFF AND PUSH4 0xDF791E50 PUSH1 0xD4 PUSH0 SWAP1 SLOAD SWAP1 PUSH2 0x100 EXP SWAP1 DIV PUSH20 0xFFFFFFFFFFFFFFFFFFFFFFFFFFFFFFFFFFFFFFFF AND PUSH1 0x97 PUSH0 SWAP1 SLOAD SWAP1 PUSH2 0x100 EXP SWAP1 DIV PUSH20 0xFFFFFFFFFFFFFFFFFFFFFFFFFFFFFFFFFFFFFFFF AND DUP6 PUSH1 0x40 MLOAD DUP5 PUSH4 0xFFFFFFFF AND PUSH1 0xE0 SHL DUP2 MSTORE PUSH1 0x4 ADD PUSH2 0x5E2E SWAP4 SWAP3 SWAP2 SWAP1 PUSH2 0x921E JUMP JUMPDEST PUSH1 0x20 PUSH1 0x40 MLOAD DUP1 DUP4 SUB DUP2 PUSH0 DUP8 GAS CALL ISZERO DUP1 ISZERO PUSH2 0x5E4A JUMPI RETURNDATASIZE PUSH0 DUP1 RETURNDATACOPY RETURNDATASIZE PUSH0 REVERT JUMPDEST POP POP POP POP PUSH1 0x40 MLOAD RETURNDATASIZE PUSH1 0x1F NOT PUSH1 0x1F DUP3 ADD AND DUP3 ADD DUP1 PUSH1 0x40 MSTORE POP DUP2 ADD SWAP1 PUSH2 0x5E6E SWAP2 SWAP1 PUSH2 0x7B54 JUMP JUMPDEST SWAP1 POP JUMPDEST PUSH1 0x97 PUSH0 SWAP1 SLOAD SWAP1 PUSH2 0x100 EXP SWAP1 DIV PUSH20 0xFFFFFFFFFFFFFFFFFFFFFFFFFFFFFFFFFFFFFFFF AND PUSH20 0xFFFFFFFFFFFFFFFFFFFFFFFFFFFFFFFFFFFFFFFF AND PUSH1 0xD4 PUSH0 SWAP1 SLOAD SWAP1 PUSH2 0x100 EXP SWAP1 DIV PUSH20 0xFFFFFFFFFFFFFFFFFFFFFFFFFFFFFFFFFFFFFFFF AND PUSH20 0xFFFFFFFFFFFFFFFFFFFFFFFFFFFFFFFFFFFFFFFF AND SUB PUSH2 0x5EF9 JUMPI DUP2 DUP4 PUSH2 0x5EF2 SWAP2 SWAP1 PUSH2 0x8858 JUMP JUMPDEST SWAP3 POP PUSH2 0x5F08 JUMP JUMPDEST DUP1 DUP4 PUSH2 0x5F05 SWAP2 SWAP1 PUSH2 0x8858 JUMP JUMPDEST SWAP3 POP JUMPDEST POP POP JUMPDEST PUSH2 0x5F5E PUSH2 0x5F16 PUSH2 0x25BC JUMP JUMPDEST DUP3 PUSH1 0x97 PUSH0 SWAP1 SLOAD SWAP1 PUSH2 0x100 EXP SWAP1 DIV PUSH20 0xFFFFFFFFFFFFFFFFFFFFFFFFFFFFFFFFFFFFFFFF AND PUSH20 0xFFFFFFFFFFFFFFFFFFFFFFFFFFFFFFFFFFFFFFFF AND PUSH2 0x4D56 SWAP1 SWAP3 SWAP2 SWAP1 PUSH4 0xFFFFFFFF AND JUMP JUMPDEST PUSH32 0xED7213CD9FC239CB29C12591C13AC4D331A3C9BC3078DF030F89266F66AA3F6D DUP2 PUSH1 0x40 MLOAD PUSH2 0x5F8D SWAP2 SWAP1 PUSH2 0x7017 JUMP JUMPDEST PUSH1 0x40 MLOAD DUP1 SWAP2 SUB SWAP1 LOG1 POP POP SWAP4 POP SWAP4 SWAP2 POP POP JUMP JUMPDEST PUSH2 0x5FAA DUP4 DUP3 DUP5 PUSH2 0x6A42 JUMP JUMPDEST PUSH1 0xD9 PUSH0 ADD PUSH0 PUSH1 0xD9 PUSH0 ADD PUSH1 0x3 DUP5 SWAP2 SWAP1 PUSH2 0x100 EXP DUP2 SLOAD DUP2 PUSH3 0xFFFFFF MUL NOT AND SWAP1 DUP4 PUSH1 0x2 SIGNEXTEND PUSH3 0xFFFFFF AND MUL OR SWAP1 SSTORE POP DUP4 SWAP2 SWAP1 PUSH2 0x100 EXP DUP2 SLOAD DUP2 PUSH3 0xFFFFFF MUL NOT AND SWAP1 DUP4 PUSH1 0x2 SIGNEXTEND PUSH3 0xFFFFFF AND MUL OR SWAP1 SSTORE POP POP POP POP POP POP JUMP JUMPDEST PUSH0 DUP1 PUSH2 0x6006 PUSH2 0xB85 JUMP JUMPDEST SWAP2 POP SWAP2 POP PUSH0 DUP1 DUP4 GT ISZERO PUSH2 0x6043 JUMPI PUSH15 0xC097CE7BC90715B34B9F1000000000 PUSH2 0x602B PUSH2 0x2A8B JUMP JUMPDEST DUP5 PUSH2 0x6036 SWAP2 SWAP1 PUSH2 0x8650 JUMP JUMPDEST PUSH2 0x6040 SWAP2 SWAP1 PUSH2 0x8620 JUMP JUMPDEST SWAP1 POP JUMPDEST DUP2 DUP2 LT ISZERO PUSH2 0x60B5 JUMPI PUSH2 0x6056 DUP7 DUP6 DUP8 PUSH2 0x6A42 JUMP JUMPDEST POP PUSH1 0xDA PUSH0 ADD PUSH0 DUP3 SWAP2 SWAP1 PUSH2 0x100 EXP DUP2 SLOAD DUP2 PUSH3 0xFFFFFF MUL NOT AND SWAP1 DUP4 PUSH1 0x2 SIGNEXTEND PUSH3 0xFFFFFF AND MUL OR SWAP1 SSTORE POP POP PUSH2 0x6088 DUP7 DUP7 DUP8 PUSH2 0x6A42 JUMP JUMPDEST POP PUSH1 0xDA PUSH0 ADD PUSH1 0x3 DUP3 SWAP2 SWAP1 PUSH2 0x100 EXP DUP2 SLOAD DUP2 PUSH3 0xFFFFFF MUL NOT AND SWAP1 DUP4 PUSH1 0x2 SIGNEXTEND PUSH3 0xFFFFFF AND MUL OR SWAP1 SSTORE POP POP PUSH2 0x6126 JUMP JUMPDEST DUP1 DUP3 LT ISZERO PUSH2 0x6125 JUMPI PUSH2 0x60C8 DUP7 DUP7 DUP8 PUSH2 0x6A42 JUMP JUMPDEST SWAP1 POP PUSH1 0xDA PUSH0 ADD PUSH0 DUP3 SWAP2 SWAP1 PUSH2 0x100 EXP DUP2 SLOAD DUP2 PUSH3 0xFFFFFF MUL NOT AND SWAP1 DUP4 PUSH1 0x2 SIGNEXTEND PUSH3 0xFFFFFF AND MUL OR SWAP1 SSTORE POP POP PUSH2 0x60FB DUP7 DUP6 DUP8 PUSH2 0x6A42 JUMP JUMPDEST SWAP1 POP PUSH1 0xDA PUSH0 ADD PUSH1 0x3 DUP3 SWAP2 SWAP1 PUSH2 0x100 EXP DUP2 SLOAD DUP2 PUSH3 0xFFFFFF MUL NOT AND SWAP1 DUP4 PUSH1 0x2 SIGNEXTEND PUSH3 0xFFFFFF AND MUL OR SWAP1 SSTORE POP POP JUMPDEST JUMPDEST POP POP POP POP POP POP JUMP JUMPDEST PUSH2 0x6136 PUSH2 0x1FED JUMP JUMPDEST DUP1 PUSH2 0x61CB JUMPI POP PUSH1 0x9B PUSH0 SWAP1 SLOAD SWAP1 PUSH2 0x100 EXP SWAP1 DIV PUSH20 0xFFFFFFFFFFFFFFFFFFFFFFFFFFFFFFFFFFFFFFFF AND PUSH20 0xFFFFFFFFFFFFFFFFFFFFFFFFFFFFFFFFFFFFFFFF AND PUSH4 0xF12D54D8 PUSH1 0x40 MLOAD DUP2 PUSH4 0xFFFFFFFF AND PUSH1 0xE0 SHL DUP2 MSTORE PUSH1 0x4 ADD PUSH1 0x20 PUSH1 0x40 MLOAD DUP1 DUP4 SUB DUP2 DUP7 GAS STATICCALL ISZERO DUP1 ISZERO PUSH2 0x61A6 JUMPI RETURNDATASIZE PUSH0 DUP1 RETURNDATACOPY RETURNDATASIZE PUSH0 REVERT JUMPDEST POP POP POP POP PUSH1 0x40 MLOAD RETURNDATASIZE PUSH1 0x1F NOT PUSH1 0x1F DUP3 ADD AND DUP3 ADD DUP1 PUSH1 0x40 MSTORE POP DUP2 ADD SWAP1 PUSH2 0x61CA SWAP2 SWAP1 PUSH2 0x8A7B JUMP JUMPDEST JUMPDEST ISZERO PUSH2 0x6202 JUMPI PUSH1 0x40 MLOAD PUSH32 0xE628B94900000000000000000000000000000000000000000000000000000000 DUP2 MSTORE PUSH1 0x4 ADD PUSH1 0x40 MLOAD DUP1 SWAP2 SUB SWAP1 REVERT JUMPDEST JUMP JUMPDEST PUSH0 DUP4 PUSH20 0xFFFFFFFFFFFFFFFFFFFFFFFFFFFFFFFFFFFFFFFF AND DUP6 PUSH20 0xFFFFFFFFFFFFFFFFFFFFFFFFFFFFFFFFFFFFFFFF AND GT ISZERO PUSH2 0x6244 JUMPI DUP4 DUP6 DUP1 SWAP6 POP DUP2 SWAP7 POP POP POP JUMPDEST DUP5 PUSH20 0xFFFFFFFFFFFFFFFFFFFFFFFFFFFFFFFFFFFFFFFF AND DUP7 PUSH20 0xFFFFFFFFFFFFFFFFFFFFFFFFFFFFFFFFFFFFFFFF AND GT PUSH2 0x6289 JUMPI PUSH2 0x6282 DUP6 DUP6 DUP6 PUSH2 0x6A76 JUMP JUMPDEST SWAP1 POP PUSH2 0x6324 JUMP JUMPDEST DUP4 PUSH20 0xFFFFFFFFFFFFFFFFFFFFFFFFFFFFFFFFFFFFFFFF AND DUP7 PUSH20 0xFFFFFFFFFFFFFFFFFFFFFFFFFFFFFFFFFFFFFFFF AND LT ISZERO PUSH2 0x6315 JUMPI PUSH0 PUSH2 0x62C9 DUP8 DUP7 DUP7 PUSH2 0x6A76 JUMP JUMPDEST SWAP1 POP PUSH0 PUSH2 0x62D7 DUP8 DUP10 DUP7 PUSH2 0x6B3B JUMP JUMPDEST SWAP1 POP DUP1 PUSH16 0xFFFFFFFFFFFFFFFFFFFFFFFFFFFFFFFF AND DUP3 PUSH16 0xFFFFFFFFFFFFFFFFFFFFFFFFFFFFFFFF AND LT PUSH2 0x630A JUMPI DUP1 PUSH2 0x630C JUMP JUMPDEST DUP2 JUMPDEST SWAP3 POP POP POP PUSH2 0x6323 JUMP JUMPDEST PUSH2 0x6320 DUP6 DUP6 DUP5 PUSH2 0x6B3B JUMP JUMPDEST SWAP1 POP JUMPDEST JUMPDEST SWAP6 SWAP5 POP POP POP POP POP JUMP JUMPDEST PUSH0 DUP1 PUSH0 PUSH2 0x6353 PUSH2 0x633B PUSH2 0x2E8B JUMP JUMPDEST PUSH2 0x6344 DUP8 PUSH2 0x54E6 JUMP JUMPDEST PUSH2 0x634D DUP8 PUSH2 0x54E6 JUMP JUMPDEST DUP10 PUSH2 0x58E0 JUMP JUMPDEST SWAP2 POP SWAP2 POP PUSH0 DUP3 EQ DUP1 PUSH2 0x6364 JUMPI POP PUSH0 DUP2 EQ JUMPDEST ISZERO PUSH2 0x6373 JUMPI PUSH0 SWAP3 POP POP POP PUSH2 0x637A JUMP JUMPDEST PUSH1 0x1 SWAP3 POP POP POP JUMPDEST SWAP4 SWAP3 POP POP POP JUMP JUMPDEST PUSH0 PUSH4 0x95EA7B3 PUSH1 0xE0 SHL DUP4 DUP4 PUSH1 0x40 MLOAD PUSH1 0x24 ADD PUSH2 0x639D SWAP3 SWAP2 SWAP1 PUSH2 0x8F5B JUMP JUMPDEST PUSH1 0x40 MLOAD PUSH1 0x20 DUP2 DUP4 SUB SUB DUP2 MSTORE SWAP1 PUSH1 0x40 MSTORE SWAP1 PUSH28 0xFFFFFFFFFFFFFFFFFFFFFFFFFFFFFFFFFFFFFFFFFFFFFFFFFFFFFFFF NOT AND PUSH1 0x20 DUP3 ADD DUP1 MLOAD PUSH28 0xFFFFFFFFFFFFFFFFFFFFFFFFFFFFFFFFFFFFFFFFFFFFFFFFFFFFFFFF DUP4 DUP2 DUP4 AND OR DUP4 MSTORE POP POP POP POP SWAP1 POP PUSH2 0x6406 DUP5 DUP3 PUSH2 0x6BC5 JUMP JUMPDEST PUSH2 0x6496 JUMPI PUSH2 0x648B DUP5 PUSH4 0x95EA7B3 PUSH1 0xE0 SHL DUP6 PUSH0 PUSH1 0x40 MLOAD PUSH1 0x24 ADD PUSH2 0x6429 SWAP3 SWAP2 SWAP1 PUSH2 0x9283 JUMP JUMPDEST PUSH1 0x40 MLOAD PUSH1 0x20 DUP2 DUP4 SUB SUB DUP2 MSTORE SWAP1 PUSH1 0x40 MSTORE SWAP1 PUSH28 0xFFFFFFFFFFFFFFFFFFFFFFFFFFFFFFFFFFFFFFFFFFFFFFFFFFFFFFFF NOT AND PUSH1 0x20 DUP3 ADD DUP1 MLOAD PUSH28 0xFFFFFFFFFFFFFFFFFFFFFFFFFFFFFFFFFFFFFFFFFFFFFFFFFFFFFFFF DUP4 DUP2 DUP4 AND OR DUP4 MSTORE POP POP POP POP PUSH2 0x64E5 JUMP JUMPDEST PUSH2 0x6495 DUP5 DUP3 PUSH2 0x64E5 JUMP JUMPDEST JUMPDEST POP POP POP POP JUMP JUMPDEST PUSH2 0x64A4 PUSH2 0x1FED JUMP JUMPDEST PUSH2 0x64E3 JUMPI PUSH1 0x40 MLOAD PUSH32 0x8C379A000000000000000000000000000000000000000000000000000000000 DUP2 MSTORE PUSH1 0x4 ADD PUSH2 0x64DA SWAP1 PUSH2 0x92F4 JUMP JUMPDEST PUSH1 0x40 MLOAD DUP1 SWAP2 SUB SWAP1 REVERT JUMPDEST JUMP JUMPDEST PUSH0 PUSH2 0x6546 DUP3 PUSH1 0x40 MLOAD DUP1 PUSH1 0x40 ADD PUSH1 0x40 MSTORE DUP1 PUSH1 0x20 DUP2 MSTORE PUSH1 0x20 ADD PUSH32 0x5361666545524332303A206C6F772D6C6576656C2063616C6C206661696C6564 DUP2 MSTORE POP DUP6 PUSH20 0xFFFFFFFFFFFFFFFFFFFFFFFFFFFFFFFFFFFFFFFF AND PUSH2 0x6C73 SWAP1 SWAP3 SWAP2 SWAP1 PUSH4 0xFFFFFFFF AND JUMP JUMPDEST SWAP1 POP PUSH0 DUP2 MLOAD EQ DUP1 PUSH2 0x6567 JUMPI POP DUP1 DUP1 PUSH1 0x20 ADD SWAP1 MLOAD DUP2 ADD SWAP1 PUSH2 0x6566 SWAP2 SWAP1 PUSH2 0x8A7B JUMP JUMPDEST JUMPDEST PUSH2 0x65A6 JUMPI PUSH1 0x40 MLOAD PUSH32 0x8C379A000000000000000000000000000000000000000000000000000000000 DUP2 MSTORE PUSH1 0x4 ADD PUSH2 0x659D SWAP1 PUSH2 0x9382 JUMP JUMPDEST PUSH1 0x40 MLOAD DUP1 SWAP2 SUB SWAP1 REVERT JUMPDEST POP POP POP JUMP JUMPDEST PUSH2 0x65B3 PUSH2 0x1FED JUMP JUMPDEST ISZERO PUSH2 0x65F3 JUMPI PUSH1 0x40 MLOAD PUSH32 0x8C379A000000000000000000000000000000000000000000000000000000000 DUP2 MSTORE PUSH1 0x4 ADD PUSH2 0x65EA SWAP1 PUSH2 0x93EA JUMP JUMPDEST PUSH1 0x40 MLOAD DUP1 SWAP2 SUB SWAP1 REVERT JUMPDEST JUMP JUMPDEST PUSH0 PUSH1 0x1 SWAP1 SLOAD SWAP1 PUSH2 0x100 EXP SWAP1 DIV PUSH1 0xFF AND PUSH2 0x6643 JUMPI PUSH1 0x40 MLOAD PUSH32 0x8C379A000000000000000000000000000000000000000000000000000000000 DUP2 MSTORE PUSH1 0x4 ADD PUSH2 0x663A SWAP1 PUSH2 0x8FF2 JUMP JUMPDEST PUSH1 0x40 MLOAD DUP1 SWAP2 SUB SWAP1 REVERT JUMPDEST PUSH2 0x664B PUSH2 0x6C8A JUMP JUMPDEST JUMP JUMPDEST PUSH0 PUSH1 0x1 SWAP1 SLOAD SWAP1 PUSH2 0x100 EXP SWAP1 DIV PUSH1 0xFF AND PUSH2 0x669B JUMPI PUSH1 0x40 MLOAD PUSH32 0x8C379A000000000000000000000000000000000000000000000000000000000 DUP2 MSTORE PUSH1 0x4 ADD PUSH2 0x6692 SWAP1 PUSH2 0x8FF2 JUMP JUMPDEST PUSH1 0x40 MLOAD DUP1 SWAP2 SUB SWAP1 REVERT JUMPDEST PUSH2 0x66A3 PUSH2 0x6CEA JUMP JUMPDEST JUMP JUMPDEST PUSH0 DUP3 PUSH20 0xFFFFFFFFFFFFFFFFFFFFFFFFFFFFFFFFFFFFFFFF AND DUP5 PUSH20 0xFFFFFFFFFFFFFFFFFFFFFFFFFFFFFFFFFFFFFFFF AND GT ISZERO PUSH2 0x66E5 JUMPI DUP3 DUP5 DUP1 SWAP5 POP DUP2 SWAP6 POP POP POP JUMPDEST DUP4 PUSH20 0xFFFFFFFFFFFFFFFFFFFFFFFFFFFFFFFFFFFFFFFF AND PUSH2 0x6757 PUSH1 0x60 PUSH1 0xFF AND DUP5 PUSH16 0xFFFFFFFFFFFFFFFFFFFFFFFFFFFFFFFF AND SWAP1 SHL DUP7 DUP7 PUSH2 0x6725 SWAP2 SWAP1 PUSH2 0x9408 JUMP JUMPDEST PUSH20 0xFFFFFFFFFFFFFFFFFFFFFFFFFFFFFFFFFFFFFFFF AND DUP7 PUSH20 0xFFFFFFFFFFFFFFFFFFFFFFFFFFFFFFFFFFFFFFFF AND PUSH2 0x5347 JUMP JUMPDEST PUSH2 0x6761 SWAP2 SWAP1 PUSH2 0x8620 JUMP JUMPDEST SWAP1 POP SWAP4 SWAP3 POP POP POP JUMP JUMPDEST PUSH0 DUP3 PUSH20 0xFFFFFFFFFFFFFFFFFFFFFFFFFFFFFFFFFFFFFFFF AND DUP5 PUSH20 0xFFFFFFFFFFFFFFFFFFFFFFFFFFFFFFFFFFFFFFFF AND GT ISZERO PUSH2 0x67AA JUMPI DUP3 DUP5 DUP1 SWAP5 POP DUP2 SWAP6 POP POP POP JUMPDEST PUSH2 0x67F5 DUP3 PUSH16 0xFFFFFFFFFFFFFFFFFFFFFFFFFFFFFFFF AND DUP6 DUP6 PUSH2 0x67CC SWAP2 SWAP1 PUSH2 0x9408 JUMP JUMPDEST PUSH20 0xFFFFFFFFFFFFFFFFFFFFFFFFFFFFFFFFFFFFFFFF AND PUSH13 0x1000000000000000000000000 PUSH2 0x5347 JUMP JUMPDEST SWAP1 POP SWAP4 SWAP3 POP POP POP JUMP JUMPDEST PUSH0 PUSH1 0x14 DUP3 PUSH2 0x680C SWAP2 SWAP1 PUSH2 0x8858 JUMP JUMPDEST DUP4 MLOAD LT ISZERO PUSH2 0x684F JUMPI PUSH1 0x40 MLOAD PUSH32 0x8C379A000000000000000000000000000000000000000000000000000000000 DUP2 MSTORE PUSH1 0x4 ADD PUSH2 0x6846 SWAP1 PUSH2 0x9499 JUMP JUMPDEST PUSH1 0x40 MLOAD DUP1 SWAP2 SUB SWAP1 REVERT JUMPDEST PUSH0 PUSH13 0x1000000000000000000000000 DUP4 PUSH1 0x20 DUP7 ADD ADD MLOAD DIV SWAP1 POP DUP1 SWAP2 POP POP SWAP3 SWAP2 POP POP JUMP JUMPDEST PUSH0 DUP2 PUSH1 0x3 DUP4 PUSH2 0x6881 SWAP2 SWAP1 PUSH2 0x8858 JUMP JUMPDEST LT ISZERO PUSH2 0x68C2 JUMPI PUSH1 0x40 MLOAD PUSH32 0x8C379A000000000000000000000000000000000000000000000000000000000 DUP2 MSTORE PUSH1 0x4 ADD PUSH2 0x68B9 SWAP1 PUSH2 0x9501 JUMP JUMPDEST PUSH1 0x40 MLOAD DUP1 SWAP2 SUB SWAP1 REVERT JUMPDEST PUSH1 0x3 DUP3 PUSH2 0x68CF SWAP2 SWAP1 PUSH2 0x8858 JUMP JUMPDEST DUP4 MLOAD LT ISZERO PUSH2 0x6912 JUMPI PUSH1 0x40 MLOAD PUSH32 0x8C379A000000000000000000000000000000000000000000000000000000000 DUP2 MSTORE PUSH1 0x4 ADD PUSH2 0x6909 SWAP1 PUSH2 0x9569 JUMP JUMPDEST PUSH1 0x40 MLOAD DUP1 SWAP2 SUB SWAP1 REVERT JUMPDEST PUSH0 DUP3 PUSH1 0x3 DUP6 ADD ADD MLOAD SWAP1 POP DUP1 SWAP2 POP POP SWAP3 SWAP2 POP POP JUMP JUMPDEST PUSH1 0x60 DUP2 PUSH1 0x1F DUP4 PUSH2 0x6936 SWAP2 SWAP1 PUSH2 0x8858 JUMP JUMPDEST LT ISZERO PUSH2 0x6977 JUMPI PUSH1 0x40 MLOAD PUSH32 0x8C379A000000000000000000000000000000000000000000000000000000000 DUP2 MSTORE PUSH1 0x4 ADD PUSH2 0x696E SWAP1 PUSH2 0x95D1 JUMP JUMPDEST PUSH1 0x40 MLOAD DUP1 SWAP2 SUB SWAP1 REVERT JUMPDEST DUP2 DUP4 PUSH2 0x6983 SWAP2 SWAP1 PUSH2 0x8858 JUMP JUMPDEST DUP5 MLOAD LT ISZERO PUSH2 0x69C6 JUMPI PUSH1 0x40 MLOAD PUSH32 0x8C379A000000000000000000000000000000000000000000000000000000000 DUP2 MSTORE PUSH1 0x4 ADD PUSH2 0x69BD SWAP1 PUSH2 0x9639 JUMP JUMPDEST PUSH1 0x40 MLOAD DUP1 SWAP2 SUB SWAP1 REVERT JUMPDEST PUSH1 0x60 DUP3 ISZERO PUSH0 DUP2 EQ PUSH2 0x69E5 JUMPI PUSH1 0x40 MLOAD SWAP2 POP PUSH0 DUP3 MSTORE PUSH1 0x20 DUP3 ADD PUSH1 0x40 MSTORE PUSH2 0x6A36 JUMP JUMPDEST PUSH1 0x40 MLOAD SWAP2 POP PUSH1 0x1F DUP5 AND DUP1 ISZERO PUSH1 0x20 MUL DUP2 DUP5 ADD ADD DUP6 DUP2 ADD DUP8 DUP4 ISZERO PUSH1 0x20 MUL DUP5 DUP12 ADD ADD ADD JUMPDEST DUP2 DUP4 LT ISZERO PUSH2 0x6A23 JUMPI DUP1 MLOAD DUP4 MSTORE PUSH1 0x20 DUP4 ADD SWAP3 POP PUSH1 0x20 DUP2 ADD SWAP1 POP PUSH2 0x6A06 JUMP JUMPDEST POP DUP7 DUP6 MSTORE PUSH1 0x1F NOT PUSH1 0x1F DUP4 ADD AND PUSH1 0x40 MSTORE POP POP POP JUMPDEST POP DUP1 SWAP2 POP POP SWAP4 SWAP3 POP POP POP JUMP JUMPDEST PUSH0 DUP1 PUSH0 PUSH2 0x6A4F DUP7 DUP6 PUSH2 0x6D53 JUMP JUMPDEST SWAP1 POP DUP5 DUP2 PUSH2 0x6A5D SWAP2 SWAP1 PUSH2 0x9657 JUMP JUMPDEST SWAP3 POP DUP5 DUP2 PUSH2 0x6A6B SWAP2 SWAP1 PUSH2 0x96B1 JUMP JUMPDEST SWAP2 POP POP SWAP4 POP SWAP4 SWAP2 POP POP JUMP JUMPDEST PUSH0 DUP3 PUSH20 0xFFFFFFFFFFFFFFFFFFFFFFFFFFFFFFFFFFFFFFFF AND DUP5 PUSH20 0xFFFFFFFFFFFFFFFFFFFFFFFFFFFFFFFFFFFFFFFF AND GT ISZERO PUSH2 0x6AB6 JUMPI DUP3 DUP5 DUP1 SWAP5 POP DUP2 SWAP6 POP POP POP JUMPDEST PUSH0 PUSH2 0x6AFB DUP6 PUSH20 0xFFFFFFFFFFFFFFFFFFFFFFFFFFFFFFFFFFFFFFFF AND DUP6 PUSH20 0xFFFFFFFFFFFFFFFFFFFFFFFFFFFFFFFFFFFFFFFF AND PUSH13 0x1000000000000000000000000 PUSH2 0x5347 JUMP JUMPDEST SWAP1 POP PUSH2 0x6B31 PUSH2 0x6B2C DUP5 DUP4 DUP9 DUP9 PUSH2 0x6B11 SWAP2 SWAP1 PUSH2 0x9408 JUMP JUMPDEST PUSH20 0xFFFFFFFFFFFFFFFFFFFFFFFFFFFFFFFFFFFFFFFF AND PUSH2 0x5347 JUMP JUMPDEST PUSH2 0x6DAC JUMP JUMPDEST SWAP2 POP POP SWAP4 SWAP3 POP POP POP JUMP JUMPDEST PUSH0 DUP3 PUSH20 0xFFFFFFFFFFFFFFFFFFFFFFFFFFFFFFFFFFFFFFFF AND DUP5 PUSH20 0xFFFFFFFFFFFFFFFFFFFFFFFFFFFFFFFFFFFFFFFF AND GT ISZERO PUSH2 0x6B7B JUMPI DUP3 DUP5 DUP1 SWAP5 POP DUP2 SWAP6 POP POP POP JUMPDEST PUSH2 0x6BBC PUSH2 0x6BB7 DUP4 PUSH13 0x1000000000000000000000000 DUP8 DUP8 PUSH2 0x6B9C SWAP2 SWAP1 PUSH2 0x9408 JUMP JUMPDEST PUSH20 0xFFFFFFFFFFFFFFFFFFFFFFFFFFFFFFFFFFFFFFFF AND PUSH2 0x5347 JUMP JUMPDEST PUSH2 0x6DAC JUMP JUMPDEST SWAP1 POP SWAP4 SWAP3 POP POP POP JUMP JUMPDEST PUSH0 DUP1 PUSH0 DUP5 PUSH20 0xFFFFFFFFFFFFFFFFFFFFFFFFFFFFFFFFFFFFFFFF AND DUP5 PUSH1 0x40 MLOAD PUSH2 0x6BED SWAP2 SWAP1 PUSH2 0x9745 JUMP JUMPDEST PUSH0 PUSH1 0x40 MLOAD DUP1 DUP4 SUB DUP2 PUSH0 DUP7 GAS CALL SWAP2 POP POP RETURNDATASIZE DUP1 PUSH0 DUP2 EQ PUSH2 0x6C26 JUMPI PUSH1 0x40 MLOAD SWAP2 POP PUSH1 0x1F NOT PUSH1 0x3F RETURNDATASIZE ADD AND DUP3 ADD PUSH1 0x40 MSTORE RETURNDATASIZE DUP3 MSTORE RETURNDATASIZE PUSH0 PUSH1 0x20 DUP5 ADD RETURNDATACOPY PUSH2 0x6C2B JUMP JUMPDEST PUSH1 0x60 SWAP2 POP JUMPDEST POP SWAP2 POP SWAP2 POP DUP2 DUP1 ISZERO PUSH2 0x6C58 JUMPI POP PUSH0 DUP2 MLOAD EQ DUP1 PUSH2 0x6C57 JUMPI POP DUP1 DUP1 PUSH1 0x20 ADD SWAP1 MLOAD DUP2 ADD SWAP1 PUSH2 0x6C56 SWAP2 SWAP1 PUSH2 0x8A7B JUMP JUMPDEST JUMPDEST JUMPDEST DUP1 ISZERO PUSH2 0x6C69 JUMPI POP PUSH2 0x6C68 DUP6 PUSH2 0x6DD2 JUMP JUMPDEST JUMPDEST SWAP3 POP POP POP SWAP3 SWAP2 POP POP JUMP JUMPDEST PUSH1 0x60 PUSH2 0x6C81 DUP5 DUP5 PUSH0 DUP6 PUSH2 0x6DF4 JUMP JUMPDEST SWAP1 POP SWAP4 SWAP3 POP POP POP JUMP JUMPDEST PUSH0 PUSH1 0x1 SWAP1 SLOAD SWAP1 PUSH2 0x100 EXP SWAP1 DIV PUSH1 0xFF AND PUSH2 0x6CD8 JUMPI PUSH1 0x40 MLOAD PUSH32 0x8C379A000000000000000000000000000000000000000000000000000000000 DUP2 MSTORE PUSH1 0x4 ADD PUSH2 0x6CCF SWAP1 PUSH2 0x8FF2 JUMP JUMPDEST PUSH1 0x40 MLOAD DUP1 SWAP2 SUB SWAP1 REVERT JUMPDEST PUSH2 0x6CE8 PUSH2 0x6CE3 PUSH2 0x59D1 JUMP JUMPDEST PUSH2 0x4FBD JUMP JUMPDEST JUMP JUMPDEST PUSH0 PUSH1 0x1 SWAP1 SLOAD SWAP1 PUSH2 0x100 EXP SWAP1 DIV PUSH1 0xFF AND PUSH2 0x6D38 JUMPI PUSH1 0x40 MLOAD PUSH32 0x8C379A000000000000000000000000000000000000000000000000000000000 DUP2 MSTORE PUSH1 0x4 ADD PUSH2 0x6D2F SWAP1 PUSH2 0x8FF2 JUMP JUMPDEST PUSH1 0x40 MLOAD DUP1 SWAP2 SUB SWAP1 REVERT JUMPDEST PUSH0 PUSH1 0x65 PUSH0 PUSH2 0x100 EXP DUP2 SLOAD DUP2 PUSH1 0xFF MUL NOT AND SWAP1 DUP4 ISZERO ISZERO MUL OR SWAP1 SSTORE POP JUMP JUMPDEST PUSH0 DUP1 DUP3 DUP5 PUSH2 0x6D61 SWAP2 SWAP1 PUSH2 0x975B JUMP JUMPDEST SWAP1 POP PUSH0 DUP5 PUSH1 0x2 SIGNEXTEND SLT DUP1 ISZERO PUSH2 0x6D83 JUMPI POP PUSH0 DUP4 DUP6 PUSH2 0x6D7D SWAP2 SWAP1 PUSH2 0x97C3 JUMP JUMPDEST PUSH1 0x2 SIGNEXTEND EQ ISZERO JUMPDEST ISZERO PUSH2 0x6D97 JUMPI DUP1 DUP1 PUSH2 0x6D93 SWAP1 PUSH2 0x97F3 JUMP JUMPDEST SWAP2 POP POP JUMPDEST DUP3 DUP2 PUSH2 0x6DA3 SWAP2 SWAP1 PUSH2 0x881C JUMP JUMPDEST SWAP2 POP POP SWAP3 SWAP2 POP POP JUMP JUMPDEST PUSH0 DUP2 DUP3 SWAP2 POP DUP2 PUSH16 0xFFFFFFFFFFFFFFFFFFFFFFFFFFFFFFFF AND EQ PUSH2 0x6DCD JUMPI PUSH0 DUP1 REVERT JUMPDEST SWAP2 SWAP1 POP JUMP JUMPDEST PUSH0 DUP1 DUP3 PUSH20 0xFFFFFFFFFFFFFFFFFFFFFFFFFFFFFFFFFFFFFFFF AND EXTCODESIZE GT SWAP1 POP SWAP2 SWAP1 POP JUMP JUMPDEST PUSH1 0x60 DUP3 SELFBALANCE LT ISZERO PUSH2 0x6E39 JUMPI PUSH1 0x40 MLOAD PUSH32 0x8C379A000000000000000000000000000000000000000000000000000000000 DUP2 MSTORE PUSH1 0x4 ADD PUSH2 0x6E30 SWAP1 PUSH2 0x98AA JUMP JUMPDEST PUSH1 0x40 MLOAD DUP1 SWAP2 SUB SWAP1 REVERT JUMPDEST PUSH0 DUP1 DUP7 PUSH20 0xFFFFFFFFFFFFFFFFFFFFFFFFFFFFFFFFFFFFFFFF AND DUP6 DUP8 PUSH1 0x40 MLOAD PUSH2 0x6E61 SWAP2 SWAP1 PUSH2 0x9745 JUMP JUMPDEST PUSH0 PUSH1 0x40 MLOAD DUP1 DUP4 SUB DUP2 DUP6 DUP8 GAS CALL SWAP3 POP POP POP RETURNDATASIZE DUP1 PUSH0 DUP2 EQ PUSH2 0x6E9B JUMPI PUSH1 0x40 MLOAD SWAP2 POP PUSH1 0x1F NOT PUSH1 0x3F RETURNDATASIZE ADD AND DUP3 ADD PUSH1 0x40 MSTORE RETURNDATASIZE DUP3 MSTORE RETURNDATASIZE PUSH0 PUSH1 0x20 DUP5 ADD RETURNDATACOPY PUSH2 0x6EA0 JUMP JUMPDEST PUSH1 0x60 SWAP2 POP JUMPDEST POP SWAP2 POP SWAP2 POP PUSH2 0x6EB1 DUP8 DUP4 DUP4 DUP8 PUSH2 0x6EBD JUMP JUMPDEST SWAP3 POP POP POP SWAP5 SWAP4 POP POP POP POP JUMP JUMPDEST PUSH1 0x60 DUP4 ISZERO PUSH2 0x6F1E JUMPI PUSH0 DUP4 MLOAD SUB PUSH2 0x6F16 JUMPI PUSH2 0x6ED6 DUP6 PUSH2 0x6DD2 JUMP JUMPDEST PUSH2 0x6F15 JUMPI PUSH1 0x40 MLOAD PUSH32 0x8C379A000000000000000000000000000000000000000000000000000000000 DUP2 MSTORE PUSH1 0x4 ADD PUSH2 0x6F0C SWAP1 PUSH2 0x9912 JUMP JUMPDEST PUSH1 0x40 MLOAD DUP1 SWAP2 SUB SWAP1 REVERT JUMPDEST JUMPDEST DUP3 SWAP1 POP PUSH2 0x6F29 JUMP JUMPDEST PUSH2 0x6F28 DUP4 DUP4 PUSH2 0x6F31 JUMP JUMPDEST JUMPDEST SWAP5 SWAP4 POP POP POP POP JUMP JUMPDEST PUSH0 DUP3 MLOAD GT ISZERO PUSH2 0x6F43 JUMPI DUP2 MLOAD DUP1 DUP4 PUSH1 0x20 ADD REVERT JUMPDEST DUP1 PUSH1 0x40 MLOAD PUSH32 0x8C379A000000000000000000000000000000000000000000000000000000000 DUP2 MSTORE PUSH1 0x4 ADD PUSH2 0x6F77 SWAP2 SWAP1 PUSH2 0x9968 JUMP JUMPDEST PUSH1 0x40 MLOAD DUP1 SWAP2 SUB SWAP1 REVERT JUMPDEST PUSH1 0x40 MLOAD DUP1 PUSH1 0x60 ADD PUSH1 0x40 MSTORE DUP1 PUSH2 0x6F93 PUSH2 0x6FA5 JUMP JUMPDEST DUP2 MSTORE PUSH1 0x20 ADD PUSH0 DUP2 MSTORE PUSH1 0x20 ADD PUSH0 DUP2 MSTORE POP SWAP1 JUMP JUMPDEST PUSH1 0x40 MLOAD DUP1 PUSH1 0xC0 ADD PUSH1 0x40 MSTORE DUP1 PUSH0 DUP2 MSTORE PUSH1 0x20 ADD PUSH0 DUP2 MSTORE PUSH1 0x20 ADD PUSH0 DUP2 MSTORE PUSH1 0x20 ADD PUSH0 DUP2 MSTORE PUSH1 0x20 ADD PUSH1 0x60 DUP2 MSTORE PUSH1 0x20 ADD PUSH0 ISZERO ISZERO DUP2 MSTORE POP SWAP1 JUMP JUMPDEST PUSH0 DUP2 SWAP1 POP SWAP2 SWAP1 POP JUMP JUMPDEST PUSH2 0x6FEA DUP2 PUSH2 0x6FD8 JUMP JUMPDEST DUP3 MSTORE POP POP JUMP JUMPDEST PUSH0 PUSH1 0x40 DUP3 ADD SWAP1 POP PUSH2 0x7003 PUSH0 DUP4 ADD DUP6 PUSH2 0x6FE1 JUMP JUMPDEST PUSH2 0x7010 PUSH1 0x20 DUP4 ADD DUP5 PUSH2 0x6FE1 JUMP JUMPDEST SWAP4 SWAP3 POP POP POP JUMP JUMPDEST PUSH0 PUSH1 0x20 DUP3 ADD SWAP1 POP PUSH2 0x702A PUSH0 DUP4 ADD DUP5 PUSH2 0x6FE1 JUMP JUMPDEST SWAP3 SWAP2 POP POP JUMP JUMPDEST PUSH0 DUP2 PUSH1 0x2 SIGNEXTEND SWAP1 POP SWAP2 SWAP1 POP JUMP JUMPDEST PUSH2 0x7045 DUP2 PUSH2 0x7030 JUMP JUMPDEST DUP3 MSTORE POP POP JUMP JUMPDEST PUSH0 PUSH1 0x20 DUP3 ADD SWAP1 POP PUSH2 0x705E PUSH0 DUP4 ADD DUP5 PUSH2 0x703C JUMP JUMPDEST SWAP3 SWAP2 POP POP JUMP JUMPDEST PUSH0 PUSH1 0x40 MLOAD SWAP1 POP SWAP1 JUMP JUMPDEST PUSH0 DUP1 REVERT JUMPDEST PUSH0 DUP1 REVERT JUMPDEST PUSH0 DUP1 REVERT JUMPDEST PUSH0 DUP1 REVERT JUMPDEST PUSH0 DUP1 REVERT JUMPDEST PUSH0 DUP1 DUP4 PUSH1 0x1F DUP5 ADD SLT PUSH2 0x7096 JUMPI PUSH2 0x7095 PUSH2 0x7075 JUMP JUMPDEST JUMPDEST DUP3 CALLDATALOAD SWAP1 POP PUSH8 0xFFFFFFFFFFFFFFFF DUP2 GT ISZERO PUSH2 0x70B3 JUMPI PUSH2 0x70B2 PUSH2 0x7079 JUMP JUMPDEST JUMPDEST PUSH1 0x20 DUP4 ADD SWAP2 POP DUP4 PUSH1 0x1 DUP3 MUL DUP4 ADD GT ISZERO PUSH2 0x70CF JUMPI PUSH2 0x70CE PUSH2 0x707D JUMP JUMPDEST JUMPDEST SWAP3 POP SWAP3 SWAP1 POP JUMP JUMPDEST PUSH0 DUP1 PUSH1 0x20 DUP4 DUP6 SUB SLT ISZERO PUSH2 0x70EC JUMPI PUSH2 0x70EB PUSH2 0x706D JUMP JUMPDEST JUMPDEST PUSH0 DUP4 ADD CALLDATALOAD PUSH8 0xFFFFFFFFFFFFFFFF DUP2 GT ISZERO PUSH2 0x7109 JUMPI PUSH2 0x7108 PUSH2 0x7071 JUMP JUMPDEST JUMPDEST PUSH2 0x7115 DUP6 DUP3 DUP7 ADD PUSH2 0x7081 JUMP JUMPDEST SWAP3 POP SWAP3 POP POP SWAP3 POP SWAP3 SWAP1 POP JUMP JUMPDEST PUSH0 PUSH20 0xFFFFFFFFFFFFFFFFFFFFFFFFFFFFFFFFFFFFFFFF DUP3 AND SWAP1 POP SWAP2 SWAP1 POP JUMP JUMPDEST PUSH0 PUSH2 0x714A DUP3 PUSH2 0x7121 JUMP JUMPDEST SWAP1 POP SWAP2 SWAP1 POP JUMP JUMPDEST PUSH2 0x715A DUP2 PUSH2 0x7140 JUMP JUMPDEST DUP2 EQ PUSH2 0x7164 JUMPI PUSH0 DUP1 REVERT JUMPDEST POP JUMP JUMPDEST PUSH0 DUP2 CALLDATALOAD SWAP1 POP PUSH2 0x7175 DUP2 PUSH2 0x7151 JUMP JUMPDEST SWAP3 SWAP2 POP POP JUMP JUMPDEST PUSH0 PUSH1 0x20 DUP3 DUP5 SUB SLT ISZERO PUSH2 0x7190 JUMPI PUSH2 0x718F PUSH2 0x706D JUMP JUMPDEST JUMPDEST PUSH0 PUSH2 0x719D DUP5 DUP3 DUP6 ADD PUSH2 0x7167 JUMP JUMPDEST SWAP2 POP POP SWAP3 SWAP2 POP POP JUMP JUMPDEST PUSH2 0x71AF DUP2 PUSH2 0x7140 JUMP JUMPDEST DUP3 MSTORE POP POP JUMP JUMPDEST PUSH0 PUSH1 0x20 DUP3 ADD SWAP1 POP PUSH2 0x71C8 PUSH0 DUP4 ADD DUP5 PUSH2 0x71A6 JUMP JUMPDEST SWAP3 SWAP2 POP POP JUMP JUMPDEST PUSH0 DUP2 PUSH1 0x6 SIGNEXTEND SWAP1 POP SWAP2 SWAP1 POP JUMP JUMPDEST PUSH2 0x71E3 DUP2 PUSH2 0x71CE JUMP JUMPDEST DUP3 MSTORE POP POP JUMP JUMPDEST PUSH0 PUSH1 0x20 DUP3 ADD SWAP1 POP PUSH2 0x71FC PUSH0 DUP4 ADD DUP5 PUSH2 0x71DA JUMP JUMPDEST SWAP3 SWAP2 POP POP JUMP JUMPDEST PUSH2 0x720B DUP2 PUSH2 0x7030 JUMP JUMPDEST DUP2 EQ PUSH2 0x7215 JUMPI PUSH0 DUP1 REVERT JUMPDEST POP JUMP JUMPDEST PUSH0 DUP2 CALLDATALOAD SWAP1 POP PUSH2 0x7226 DUP2 PUSH2 0x7202 JUMP JUMPDEST SWAP3 SWAP2 POP POP JUMP JUMPDEST PUSH0 PUSH1 0x20 DUP3 DUP5 SUB SLT ISZERO PUSH2 0x7241 JUMPI PUSH2 0x7240 PUSH2 0x706D JUMP JUMPDEST JUMPDEST PUSH0 PUSH2 0x724E DUP5 DUP3 DUP6 ADD PUSH2 0x7218 JUMP JUMPDEST SWAP2 POP POP SWAP3 SWAP2 POP POP JUMP JUMPDEST PUSH0 PUSH4 0xFFFFFFFF DUP3 AND SWAP1 POP SWAP2 SWAP1 POP JUMP JUMPDEST PUSH2 0x726F DUP2 PUSH2 0x7257 JUMP JUMPDEST DUP2 EQ PUSH2 0x7279 JUMPI PUSH0 DUP1 REVERT JUMPDEST POP JUMP JUMPDEST PUSH0 DUP2 CALLDATALOAD SWAP1 POP PUSH2 0x728A DUP2 PUSH2 0x7266 JUMP JUMPDEST SWAP3 SWAP2 POP POP JUMP JUMPDEST PUSH0 PUSH1 0x20 DUP3 DUP5 SUB SLT ISZERO PUSH2 0x72A5 JUMPI PUSH2 0x72A4 PUSH2 0x706D JUMP JUMPDEST JUMPDEST PUSH0 PUSH2 0x72B2 DUP5 DUP3 DUP6 ADD PUSH2 0x727C JUMP JUMPDEST SWAP2 POP POP SWAP3 SWAP2 POP POP JUMP JUMPDEST PUSH0 DUP2 MLOAD SWAP1 POP SWAP2 SWAP1 POP JUMP JUMPDEST PUSH0 DUP3 DUP3 MSTORE PUSH1 0x20 DUP3 ADD SWAP1 POP SWAP3 SWAP2 POP POP JUMP JUMPDEST PUSH0 JUMPDEST DUP4 DUP2 LT ISZERO PUSH2 0x72F2 JUMPI DUP1 DUP3 ADD MLOAD DUP2 DUP5 ADD MSTORE PUSH1 0x20 DUP2 ADD SWAP1 POP PUSH2 0x72D7 JUMP JUMPDEST PUSH0 DUP5 DUP5 ADD MSTORE POP POP POP POP JUMP JUMPDEST PUSH0 PUSH1 0x1F NOT PUSH1 0x1F DUP4 ADD AND SWAP1 POP SWAP2 SWAP1 POP JUMP JUMPDEST PUSH0 PUSH2 0x7317 DUP3 PUSH2 0x72BB JUMP JUMPDEST PUSH2 0x7321 DUP2 DUP6 PUSH2 0x72C5 JUMP JUMPDEST SWAP4 POP PUSH2 0x7331 DUP2 DUP6 PUSH1 0x20 DUP7 ADD PUSH2 0x72D5 JUMP JUMPDEST PUSH2 0x733A DUP2 PUSH2 0x72FD JUMP JUMPDEST DUP5 ADD SWAP2 POP POP SWAP3 SWAP2 POP POP JUMP JUMPDEST PUSH0 PUSH1 0x20 DUP3 ADD SWAP1 POP DUP2 DUP2 SUB PUSH0 DUP4 ADD MSTORE PUSH2 0x735D DUP2 DUP5 PUSH2 0x730D JUMP JUMPDEST SWAP1 POP SWAP3 SWAP2 POP POP JUMP JUMPDEST PUSH0 DUP2 SWAP1 POP SWAP2 SWAP1 POP JUMP JUMPDEST PUSH2 0x7377 DUP2 PUSH2 0x7365 JUMP JUMPDEST DUP3 MSTORE POP POP JUMP JUMPDEST PUSH0 PUSH1 0x40 DUP3 ADD SWAP1 POP PUSH2 0x7390 PUSH0 DUP4 ADD DUP6 PUSH2 0x736E JUMP JUMPDEST PUSH2 0x739D PUSH1 0x20 DUP4 ADD DUP5 PUSH2 0x736E JUMP JUMPDEST SWAP4 SWAP3 POP POP POP JUMP JUMPDEST PUSH0 DUP2 MLOAD SWAP1 POP SWAP2 SWAP1 POP JUMP JUMPDEST PUSH0 DUP3 DUP3 MSTORE PUSH1 0x20 DUP3 ADD SWAP1 POP SWAP3 SWAP2 POP POP JUMP JUMPDEST PUSH0 DUP2 SWAP1 POP PUSH1 0x20 DUP3 ADD SWAP1 POP SWAP2 SWAP1 POP JUMP JUMPDEST PUSH2 0x73D6 DUP2 PUSH2 0x7140 JUMP JUMPDEST DUP3 MSTORE POP POP JUMP JUMPDEST PUSH0 PUSH2 0x73E7 DUP4 DUP4 PUSH2 0x73CD JUMP JUMPDEST PUSH1 0x20 DUP4 ADD SWAP1 POP SWAP3 SWAP2 POP POP JUMP JUMPDEST PUSH0 PUSH1 0x20 DUP3 ADD SWAP1 POP SWAP2 SWAP1 POP JUMP JUMPDEST PUSH0 PUSH2 0x7409 DUP3 PUSH2 0x73A4 JUMP JUMPDEST PUSH2 0x7413 DUP2 DUP6 PUSH2 0x73AE JUMP JUMPDEST SWAP4 POP PUSH2 0x741E DUP4 PUSH2 0x73BE JUMP JUMPDEST DUP1 PUSH0 JUMPDEST DUP4 DUP2 LT ISZERO PUSH2 0x744E JUMPI DUP2 MLOAD PUSH2 0x7435 DUP9 DUP3 PUSH2 0x73DC JUMP JUMPDEST SWAP8 POP PUSH2 0x7440 DUP4 PUSH2 0x73F3 JUMP JUMPDEST SWAP3 POP POP PUSH1 0x1 DUP2 ADD SWAP1 POP PUSH2 0x7421 JUMP JUMPDEST POP DUP6 SWAP4 POP POP POP POP SWAP3 SWAP2 POP POP JUMP JUMPDEST PUSH0 PUSH1 0x20 DUP3 ADD SWAP1 POP DUP2 DUP2 SUB PUSH0 DUP4 ADD MSTORE PUSH2 0x7473 DUP2 DUP5 PUSH2 0x73FF JUMP JUMPDEST SWAP1 POP SWAP3 SWAP2 POP POP JUMP JUMPDEST PUSH2 0x7484 DUP2 PUSH2 0x71CE JUMP JUMPDEST DUP2 EQ PUSH2 0x748E JUMPI PUSH0 DUP1 REVERT JUMPDEST POP JUMP JUMPDEST PUSH0 DUP2 CALLDATALOAD SWAP1 POP PUSH2 0x749F DUP2 PUSH2 0x747B JUMP JUMPDEST SWAP3 SWAP2 POP POP JUMP JUMPDEST PUSH0 PUSH1 0x20 DUP3 DUP5 SUB SLT ISZERO PUSH2 0x74BA JUMPI PUSH2 0x74B9 PUSH2 0x706D JUMP JUMPDEST JUMPDEST PUSH0 PUSH2 0x74C7 DUP5 DUP3 DUP6 ADD PUSH2 0x7491 JUMP JUMPDEST SWAP2 POP POP SWAP3 SWAP2 POP POP JUMP JUMPDEST PUSH2 0x74D9 DUP2 PUSH2 0x7257 JUMP JUMPDEST DUP3 MSTORE POP POP JUMP JUMPDEST PUSH0 PUSH1 0x20 DUP3 ADD SWAP1 POP PUSH2 0x74F2 PUSH0 DUP4 ADD DUP5 PUSH2 0x74D0 JUMP JUMPDEST SWAP3 SWAP2 POP POP JUMP JUMPDEST PUSH2 0x7501 DUP2 PUSH2 0x6FD8 JUMP JUMPDEST DUP2 EQ PUSH2 0x750B JUMPI PUSH0 DUP1 REVERT JUMPDEST POP JUMP JUMPDEST PUSH0 DUP2 CALLDATALOAD SWAP1 POP PUSH2 0x751C DUP2 PUSH2 0x74F8 JUMP JUMPDEST SWAP3 SWAP2 POP POP JUMP JUMPDEST PUSH0 PUSH1 0x20 DUP3 DUP5 SUB SLT ISZERO PUSH2 0x7537 JUMPI PUSH2 0x7536 PUSH2 0x706D JUMP JUMPDEST JUMPDEST PUSH0 PUSH2 0x7544 DUP5 DUP3 DUP6 ADD PUSH2 0x750E JUMP JUMPDEST SWAP2 POP POP SWAP3 SWAP2 POP POP JUMP JUMPDEST PUSH0 DUP1 PUSH1 0x40 DUP4 DUP6 SUB SLT ISZERO PUSH2 0x7563 JUMPI PUSH2 0x7562 PUSH2 0x706D JUMP JUMPDEST JUMPDEST PUSH0 PUSH2 0x7570 DUP6 DUP3 DUP7 ADD PUSH2 0x750E JUMP JUMPDEST SWAP3 POP POP PUSH1 0x20 PUSH2 0x7581 DUP6 DUP3 DUP7 ADD PUSH2 0x750E JUMP JUMPDEST SWAP2 POP POP SWAP3 POP SWAP3 SWAP1 POP JUMP JUMPDEST PUSH0 DUP2 ISZERO ISZERO SWAP1 POP SWAP2 SWAP1 POP JUMP JUMPDEST PUSH2 0x759F DUP2 PUSH2 0x758B JUMP JUMPDEST DUP3 MSTORE POP POP JUMP JUMPDEST PUSH0 PUSH1 0x20 DUP3 ADD SWAP1 POP PUSH2 0x75B8 PUSH0 DUP4 ADD DUP5 PUSH2 0x7596 JUMP JUMPDEST SWAP3 SWAP2 POP POP JUMP JUMPDEST PUSH0 DUP1 REVERT JUMPDEST PUSH0 PUSH1 0x80 DUP3 DUP5 SUB SLT ISZERO PUSH2 0x75D7 JUMPI PUSH2 0x75D6 PUSH2 0x75BE JUMP JUMPDEST JUMPDEST DUP2 SWAP1 POP SWAP3 SWAP2 POP POP JUMP JUMPDEST PUSH0 DUP1 PUSH0 DUP1 PUSH0 DUP1 PUSH0 DUP1 PUSH2 0x120 DUP10 DUP12 SUB SLT ISZERO PUSH2 0x75FD JUMPI PUSH2 0x75FC PUSH2 0x706D JUMP JUMPDEST JUMPDEST PUSH0 PUSH2 0x760A DUP12 DUP3 DUP13 ADD PUSH2 0x7167 JUMP JUMPDEST SWAP9 POP POP PUSH1 0x20 PUSH2 0x761B DUP12 DUP3 DUP13 ADD PUSH2 0x7167 JUMP JUMPDEST SWAP8 POP POP PUSH1 0x40 PUSH2 0x762C DUP12 DUP3 DUP13 ADD PUSH2 0x7218 JUMP JUMPDEST SWAP7 POP POP PUSH1 0x60 DUP10 ADD CALLDATALOAD PUSH8 0xFFFFFFFFFFFFFFFF DUP2 GT ISZERO PUSH2 0x764D JUMPI PUSH2 0x764C PUSH2 0x7071 JUMP JUMPDEST JUMPDEST PUSH2 0x7659 DUP12 DUP3 DUP13 ADD PUSH2 0x7081 JUMP JUMPDEST SWAP6 POP SWAP6 POP POP PUSH1 0x80 DUP10 ADD CALLDATALOAD PUSH8 0xFFFFFFFFFFFFFFFF DUP2 GT ISZERO PUSH2 0x767C JUMPI PUSH2 0x767B PUSH2 0x7071 JUMP JUMPDEST JUMPDEST PUSH2 0x7688 DUP12 DUP3 DUP13 ADD PUSH2 0x7081 JUMP JUMPDEST SWAP4 POP SWAP4 POP POP PUSH1 0xA0 PUSH2 0x769B DUP12 DUP3 DUP13 ADD PUSH2 0x75C2 JUMP JUMPDEST SWAP2 POP POP SWAP3 SWAP6 SWAP9 POP SWAP3 SWAP6 SWAP9 SWAP1 SWAP4 SWAP7 POP JUMP JUMPDEST PUSH0 PUSH1 0x40 DUP3 ADD SWAP1 POP PUSH2 0x76BE PUSH0 DUP4 ADD DUP6 PUSH2 0x703C JUMP JUMPDEST PUSH2 0x76CB PUSH1 0x20 DUP4 ADD DUP5 PUSH2 0x703C JUMP JUMPDEST SWAP4 SWAP3 POP POP POP JUMP JUMPDEST PUSH2 0x76DB DUP2 PUSH2 0x6FD8 JUMP JUMPDEST DUP3 MSTORE POP POP JUMP JUMPDEST PUSH0 DUP2 MLOAD SWAP1 POP SWAP2 SWAP1 POP JUMP JUMPDEST PUSH0 DUP3 DUP3 MSTORE PUSH1 0x20 DUP3 ADD SWAP1 POP SWAP3 SWAP2 POP POP JUMP JUMPDEST PUSH0 PUSH2 0x7705 DUP3 PUSH2 0x76E1 JUMP JUMPDEST PUSH2 0x770F DUP2 DUP6 PUSH2 0x76EB JUMP JUMPDEST SWAP4 POP PUSH2 0x771F DUP2 DUP6 PUSH1 0x20 DUP7 ADD PUSH2 0x72D5 JUMP JUMPDEST PUSH2 0x7728 DUP2 PUSH2 0x72FD JUMP JUMPDEST DUP5 ADD SWAP2 POP POP SWAP3 SWAP2 POP POP JUMP JUMPDEST PUSH2 0x773C DUP2 PUSH2 0x758B JUMP JUMPDEST DUP3 MSTORE POP POP JUMP JUMPDEST PUSH0 PUSH1 0xC0 DUP4 ADD PUSH0 DUP4 ADD MLOAD PUSH2 0x7757 PUSH0 DUP7 ADD DUP3 PUSH2 0x76D2 JUMP JUMPDEST POP PUSH1 0x20 DUP4 ADD MLOAD PUSH2 0x776A PUSH1 0x20 DUP7 ADD DUP3 PUSH2 0x76D2 JUMP JUMPDEST POP PUSH1 0x40 DUP4 ADD MLOAD PUSH2 0x777D PUSH1 0x40 DUP7 ADD DUP3 PUSH2 0x76D2 JUMP JUMPDEST POP PUSH1 0x60 DUP4 ADD MLOAD PUSH2 0x7790 PUSH1 0x60 DUP7 ADD DUP3 PUSH2 0x76D2 JUMP JUMPDEST POP PUSH1 0x80 DUP4 ADD MLOAD DUP5 DUP3 SUB PUSH1 0x80 DUP7 ADD MSTORE PUSH2 0x77A8 DUP3 DUP3 PUSH2 0x76FB JUMP JUMPDEST SWAP2 POP POP PUSH1 0xA0 DUP4 ADD MLOAD PUSH2 0x77BD PUSH1 0xA0 DUP7 ADD DUP3 PUSH2 0x7733 JUMP JUMPDEST POP DUP1 SWAP2 POP POP SWAP3 SWAP2 POP POP JUMP JUMPDEST PUSH0 PUSH1 0x60 DUP4 ADD PUSH0 DUP4 ADD MLOAD DUP5 DUP3 SUB PUSH0 DUP7 ADD MSTORE PUSH2 0x77E2 DUP3 DUP3 PUSH2 0x7742 JUMP JUMPDEST SWAP2 POP POP PUSH1 0x20 DUP4 ADD MLOAD PUSH2 0x77F7 PUSH1 0x20 DUP7 ADD DUP3 PUSH2 0x76D2 JUMP JUMPDEST POP PUSH1 0x40 DUP4 ADD MLOAD PUSH2 0x780A PUSH1 0x40 DUP7 ADD DUP3 PUSH2 0x76D2 JUMP JUMPDEST POP DUP1 SWAP2 POP POP SWAP3 SWAP2 POP POP JUMP JUMPDEST PUSH0 PUSH1 0x20 DUP3 ADD SWAP1 POP DUP2 DUP2 SUB PUSH0 DUP4 ADD MSTORE PUSH2 0x782D DUP2 DUP5 PUSH2 0x77C8 JUMP JUMPDEST SWAP1 POP SWAP3 SWAP2 POP POP JUMP JUMPDEST PUSH2 0x783E DUP2 PUSH2 0x7121 JUMP JUMPDEST DUP3 MSTORE POP POP JUMP JUMPDEST PUSH0 PUSH1 0x20 DUP3 ADD SWAP1 POP PUSH2 0x7857 PUSH0 DUP4 ADD DUP5 PUSH2 0x7835 JUMP JUMPDEST SWAP3 SWAP2 POP POP JUMP JUMPDEST PUSH0 DUP2 SWAP1 POP SWAP2 SWAP1 POP JUMP JUMPDEST PUSH0 PUSH2 0x7880 PUSH2 0x787B PUSH2 0x7876 DUP5 PUSH2 0x7121 JUMP JUMPDEST PUSH2 0x785D JUMP JUMPDEST PUSH2 0x7121 JUMP JUMPDEST SWAP1 POP SWAP2 SWAP1 POP JUMP JUMPDEST PUSH0 PUSH2 0x7891 DUP3 PUSH2 0x7866 JUMP JUMPDEST SWAP1 POP SWAP2 SWAP1 POP JUMP JUMPDEST PUSH0 PUSH2 0x78A2 DUP3 PUSH2 0x7887 JUMP JUMPDEST SWAP1 POP SWAP2 SWAP1 POP JUMP JUMPDEST PUSH2 0x78B2 DUP2 PUSH2 0x7898 JUMP JUMPDEST DUP3 MSTORE POP POP JUMP JUMPDEST PUSH0 PUSH1 0x20 DUP3 ADD SWAP1 POP PUSH2 0x78CB PUSH0 DUP4 ADD DUP5 PUSH2 0x78A9 JUMP JUMPDEST SWAP3 SWAP2 POP POP JUMP JUMPDEST PUSH0 DUP1 REVERT JUMPDEST PUSH32 0x4E487B7100000000000000000000000000000000000000000000000000000000 PUSH0 MSTORE PUSH1 0x41 PUSH1 0x4 MSTORE PUSH1 0x24 PUSH0 REVERT JUMPDEST PUSH2 0x790B DUP3 PUSH2 0x72FD JUMP JUMPDEST DUP2 ADD DUP2 DUP2 LT PUSH8 0xFFFFFFFFFFFFFFFF DUP3 GT OR ISZERO PUSH2 0x792A JUMPI PUSH2 0x7929 PUSH2 0x78D5 JUMP JUMPDEST JUMPDEST DUP1 PUSH1 0x40 MSTORE POP POP POP JUMP JUMPDEST PUSH0 PUSH2 0x793C PUSH2 0x7064 JUMP JUMPDEST SWAP1 POP PUSH2 0x7948 DUP3 DUP3 PUSH2 0x7902 JUMP JUMPDEST SWAP2 SWAP1 POP JUMP JUMPDEST PUSH0 PUSH8 0xFFFFFFFFFFFFFFFF DUP3 GT ISZERO PUSH2 0x7967 JUMPI PUSH2 0x7966 PUSH2 0x78D5 JUMP JUMPDEST JUMPDEST PUSH2 0x7970 DUP3 PUSH2 0x72FD JUMP JUMPDEST SWAP1 POP PUSH1 0x20 DUP2 ADD SWAP1 POP SWAP2 SWAP1 POP JUMP JUMPDEST DUP3 DUP2 DUP4 CALLDATACOPY PUSH0 DUP4 DUP4 ADD MSTORE POP POP POP JUMP JUMPDEST PUSH0 PUSH2 0x799D PUSH2 0x7998 DUP5 PUSH2 0x794D JUMP JUMPDEST PUSH2 0x7933 JUMP JUMPDEST SWAP1 POP DUP3 DUP2 MSTORE PUSH1 0x20 DUP2 ADD DUP5 DUP5 DUP5 ADD GT ISZERO PUSH2 0x79B9 JUMPI PUSH2 0x79B8 PUSH2 0x78D1 JUMP JUMPDEST JUMPDEST PUSH2 0x79C4 DUP5 DUP3 DUP6 PUSH2 0x797D JUMP JUMPDEST POP SWAP4 SWAP3 POP POP POP JUMP JUMPDEST PUSH0 DUP3 PUSH1 0x1F DUP4 ADD SLT PUSH2 0x79E0 JUMPI PUSH2 0x79DF PUSH2 0x7075 JUMP JUMPDEST JUMPDEST DUP2 CALLDATALOAD PUSH2 0x79F0 DUP5 DUP3 PUSH1 0x20 DUP7 ADD PUSH2 0x798B JUMP JUMPDEST SWAP2 POP POP SWAP3 SWAP2 POP POP JUMP JUMPDEST PUSH0 DUP1 PUSH0 PUSH1 0x60 DUP5 DUP7 SUB SLT ISZERO PUSH2 0x7A10 JUMPI PUSH2 0x7A0F PUSH2 0x706D JUMP JUMPDEST JUMPDEST PUSH0 PUSH2 0x7A1D DUP7 DUP3 DUP8 ADD PUSH2 0x750E JUMP JUMPDEST SWAP4 POP POP PUSH1 0x20 PUSH2 0x7A2E DUP7 DUP3 DUP8 ADD PUSH2 0x750E JUMP JUMPDEST SWAP3 POP POP PUSH1 0x40 DUP5 ADD CALLDATALOAD PUSH8 0xFFFFFFFFFFFFFFFF DUP2 GT ISZERO PUSH2 0x7A4F JUMPI PUSH2 0x7A4E PUSH2 0x7071 JUMP JUMPDEST JUMPDEST PUSH2 0x7A5B DUP7 DUP3 DUP8 ADD PUSH2 0x79CC JUMP JUMPDEST SWAP2 POP POP SWAP3 POP SWAP3 POP SWAP3 JUMP JUMPDEST PUSH0 PUSH1 0x80 DUP3 ADD SWAP1 POP PUSH2 0x7A78 PUSH0 DUP4 ADD DUP8 PUSH2 0x6FE1 JUMP JUMPDEST PUSH2 0x7A85 PUSH1 0x20 DUP4 ADD DUP7 PUSH2 0x6FE1 JUMP JUMPDEST PUSH2 0x7A92 PUSH1 0x40 DUP4 ADD DUP6 PUSH2 0x6FE1 JUMP JUMPDEST PUSH2 0x7A9F PUSH1 0x60 DUP4 ADD DUP5 PUSH2 0x6FE1 JUMP JUMPDEST SWAP6 SWAP5 POP POP POP POP POP JUMP JUMPDEST PUSH0 PUSH2 0x7AB2 DUP3 PUSH2 0x7887 JUMP JUMPDEST SWAP1 POP SWAP2 SWAP1 POP JUMP JUMPDEST PUSH2 0x7AC2 DUP2 PUSH2 0x7AA8 JUMP JUMPDEST DUP3 MSTORE POP POP JUMP JUMPDEST PUSH0 PUSH1 0x20 DUP3 ADD SWAP1 POP PUSH2 0x7ADB PUSH0 DUP4 ADD DUP5 PUSH2 0x7AB9 JUMP JUMPDEST SWAP3 SWAP2 POP POP JUMP JUMPDEST PUSH0 PUSH1 0xC0 DUP3 ADD SWAP1 POP PUSH2 0x7AF4 PUSH0 DUP4 ADD DUP10 PUSH2 0x6FE1 JUMP JUMPDEST PUSH2 0x7B01 PUSH1 0x20 DUP4 ADD DUP9 PUSH2 0x6FE1 JUMP JUMPDEST PUSH2 0x7B0E PUSH1 0x40 DUP4 ADD DUP8 PUSH2 0x6FE1 JUMP JUMPDEST PUSH2 0x7B1B PUSH1 0x60 DUP4 ADD DUP7 PUSH2 0x6FE1 JUMP JUMPDEST PUSH2 0x7B28 PUSH1 0x80 DUP4 ADD DUP6 PUSH2 0x6FE1 JUMP JUMPDEST PUSH2 0x7B35 PUSH1 0xA0 DUP4 ADD DUP5 PUSH2 0x6FE1 JUMP JUMPDEST SWAP8 SWAP7 POP POP POP POP POP POP POP JUMP JUMPDEST PUSH0 DUP2 MLOAD SWAP1 POP PUSH2 0x7B4E DUP2 PUSH2 0x74F8 JUMP JUMPDEST SWAP3 SWAP2 POP POP JUMP JUMPDEST PUSH0 PUSH1 0x20 DUP3 DUP5 SUB SLT ISZERO PUSH2 0x7B69 JUMPI PUSH2 0x7B68 PUSH2 0x706D JUMP JUMPDEST JUMPDEST PUSH0 PUSH2 0x7B76 DUP5 DUP3 DUP6 ADD PUSH2 0x7B40 JUMP JUMPDEST SWAP2 POP POP SWAP3 SWAP2 POP POP JUMP JUMPDEST PUSH2 0x7B88 DUP2 PUSH2 0x7121 JUMP JUMPDEST DUP2 EQ PUSH2 0x7B92 JUMPI PUSH0 DUP1 REVERT JUMPDEST POP JUMP JUMPDEST PUSH0 DUP2 MLOAD SWAP1 POP PUSH2 0x7BA3 DUP2 PUSH2 0x7B7F JUMP JUMPDEST SWAP3 SWAP2 POP POP JUMP JUMPDEST PUSH0 DUP2 MLOAD SWAP1 POP PUSH2 0x7BB7 DUP2 PUSH2 0x7202 JUMP JUMPDEST SWAP3 SWAP2 POP POP JUMP JUMPDEST PUSH0 PUSH2 0xFFFF DUP3 AND SWAP1 POP SWAP2 SWAP1 POP JUMP JUMPDEST PUSH2 0x7BD3 DUP2 PUSH2 0x7BBD JUMP JUMPDEST DUP2 EQ PUSH2 0x7BDD JUMPI PUSH0 DUP1 REVERT JUMPDEST POP JUMP JUMPDEST PUSH0 DUP2 MLOAD SWAP1 POP PUSH2 0x7BEE DUP2 PUSH2 0x7BCA JUMP JUMPDEST SWAP3 SWAP2 POP POP JUMP JUMPDEST PUSH0 DUP2 MLOAD SWAP1 POP PUSH2 0x7C02 DUP2 PUSH2 0x7266 JUMP JUMPDEST SWAP3 SWAP2 POP POP JUMP JUMPDEST PUSH2 0x7C11 DUP2 PUSH2 0x758B JUMP JUMPDEST DUP2 EQ PUSH2 0x7C1B JUMPI PUSH0 DUP1 REVERT JUMPDEST POP JUMP JUMPDEST PUSH0 DUP2 MLOAD SWAP1 POP PUSH2 0x7C2C DUP2 PUSH2 0x7C08 JUMP JUMPDEST SWAP3 SWAP2 POP POP JUMP JUMPDEST PUSH0 DUP1 PUSH0 DUP1 PUSH0 DUP1 PUSH0 PUSH1 0xE0 DUP9 DUP11 SUB SLT ISZERO PUSH2 0x7C4D JUMPI PUSH2 0x7C4C PUSH2 0x706D JUMP JUMPDEST JUMPDEST PUSH0 PUSH2 0x7C5A DUP11 DUP3 DUP12 ADD PUSH2 0x7B95 JUMP JUMPDEST SWAP8 POP POP PUSH1 0x20 PUSH2 0x7C6B DUP11 DUP3 DUP12 ADD PUSH2 0x7BA9 JUMP JUMPDEST SWAP7 POP POP PUSH1 0x40 PUSH2 0x7C7C DUP11 DUP3 DUP12 ADD PUSH2 0x7BE0 JUMP JUMPDEST SWAP6 POP POP PUSH1 0x60 PUSH2 0x7C8D DUP11 DUP3 DUP12 ADD PUSH2 0x7BE0 JUMP JUMPDEST SWAP5 POP POP PUSH1 0x80 PUSH2 0x7C9E DUP11 DUP3 DUP12 ADD PUSH2 0x7BE0 JUMP JUMPDEST SWAP4 POP POP PUSH1 0xA0 PUSH2 0x7CAF DUP11 DUP3 DUP12 ADD PUSH2 0x7BF4 JUMP JUMPDEST SWAP3 POP POP PUSH1 0xC0 PUSH2 0x7CC0 DUP11 DUP3 DUP12 ADD PUSH2 0x7C1E JUMP JUMPDEST SWAP2 POP POP SWAP3 SWAP6 SWAP9 SWAP2 SWAP5 SWAP8 POP SWAP3 SWAP6 POP JUMP JUMPDEST PUSH32 0x4E487B7100000000000000000000000000000000000000000000000000000000 PUSH0 MSTORE PUSH1 0x32 PUSH1 0x4 MSTORE PUSH1 0x24 PUSH0 REVERT JUMPDEST PUSH32 0x4E487B7100000000000000000000000000000000000000000000000000000000 PUSH0 MSTORE PUSH1 0x11 PUSH1 0x4 MSTORE PUSH1 0x24 PUSH0 REVERT JUMPDEST PUSH0 PUSH2 0x7D33 DUP3 PUSH2 0x6FD8 JUMP JUMPDEST SWAP2 POP PUSH2 0x7D3E DUP4 PUSH2 0x6FD8 JUMP JUMPDEST SWAP3 POP DUP3 DUP3 SUB SWAP1 POP DUP2 DUP2 GT ISZERO PUSH2 0x7D56 JUMPI PUSH2 0x7D55 PUSH2 0x7CFC JUMP JUMPDEST JUMPDEST SWAP3 SWAP2 POP POP JUMP JUMPDEST PUSH0 DUP3 SWAP1 POP SWAP3 SWAP2 POP POP JUMP JUMPDEST PUSH32 0x4E487B7100000000000000000000000000000000000000000000000000000000 PUSH0 MSTORE PUSH1 0x22 PUSH1 0x4 MSTORE PUSH1 0x24 PUSH0 REVERT JUMPDEST PUSH0 PUSH1 0x2 DUP3 DIV SWAP1 POP PUSH1 0x1 DUP3 AND DUP1 PUSH2 0x7DAA JUMPI PUSH1 0x7F DUP3 AND SWAP2 POP JUMPDEST PUSH1 0x20 DUP3 LT DUP2 SUB PUSH2 0x7DBD JUMPI PUSH2 0x7DBC PUSH2 0x7D66 JUMP JUMPDEST JUMPDEST POP SWAP2 SWAP1 POP JUMP JUMPDEST PUSH0 DUP2 SWAP1 POP DUP2 PUSH0 MSTORE PUSH1 0x20 PUSH0 KECCAK256 SWAP1 POP SWAP2 SWAP1 POP JUMP JUMPDEST PUSH0 PUSH1 0x20 PUSH1 0x1F DUP4 ADD DIV SWAP1 POP SWAP2 SWAP1 POP JUMP JUMPDEST PUSH0 DUP3 DUP3 SHL SWAP1 POP SWAP3 SWAP2 POP POP JUMP JUMPDEST PUSH0 PUSH1 0x8 DUP4 MUL PUSH2 0x7E1F PUSH32 0xFFFFFFFFFFFFFFFFFFFFFFFFFFFFFFFFFFFFFFFFFFFFFFFFFFFFFFFFFFFFFFFF DUP3 PUSH2 0x7DE4 JUMP JUMPDEST PUSH2 0x7E29 DUP7 DUP4 PUSH2 0x7DE4 JUMP JUMPDEST SWAP6 POP DUP1 NOT DUP5 AND SWAP4 POP DUP1 DUP7 AND DUP5 OR SWAP3 POP POP POP SWAP4 SWAP3 POP POP POP JUMP JUMPDEST PUSH0 PUSH2 0x7E5B PUSH2 0x7E56 PUSH2 0x7E51 DUP5 PUSH2 0x6FD8 JUMP JUMPDEST PUSH2 0x785D JUMP JUMPDEST PUSH2 0x6FD8 JUMP JUMPDEST SWAP1 POP SWAP2 SWAP1 POP JUMP JUMPDEST PUSH0 DUP2 SWAP1 POP SWAP2 SWAP1 POP JUMP JUMPDEST PUSH2 0x7E74 DUP4 PUSH2 0x7E41 JUMP JUMPDEST PUSH2 0x7E88 PUSH2 0x7E80 DUP3 PUSH2 0x7E62 JUMP JUMPDEST DUP5 DUP5 SLOAD PUSH2 0x7DF0 JUMP JUMPDEST DUP3 SSTORE POP POP POP POP JUMP JUMPDEST PUSH0 SWAP1 JUMP JUMPDEST PUSH2 0x7E9C PUSH2 0x7E90 JUMP JUMPDEST PUSH2 0x7EA7 DUP2 DUP5 DUP5 PUSH2 0x7E6B JUMP JUMPDEST POP POP POP JUMP JUMPDEST JUMPDEST DUP2 DUP2 LT ISZERO PUSH2 0x7ECA JUMPI PUSH2 0x7EBF PUSH0 DUP3 PUSH2 0x7E94 JUMP JUMPDEST PUSH1 0x1 DUP2 ADD SWAP1 POP PUSH2 0x7EAD JUMP JUMPDEST POP POP JUMP JUMPDEST PUSH1 0x1F DUP3 GT ISZERO PUSH2 0x7F0F JUMPI PUSH2 0x7EE0 DUP2 PUSH2 0x7DC3 JUMP JUMPDEST PUSH2 0x7EE9 DUP5 PUSH2 0x7DD5 JUMP JUMPDEST DUP2 ADD PUSH1 0x20 DUP6 LT ISZERO PUSH2 0x7EF8 JUMPI DUP2 SWAP1 POP JUMPDEST PUSH2 0x7F0C PUSH2 0x7F04 DUP6 PUSH2 0x7DD5 JUMP JUMPDEST DUP4 ADD DUP3 PUSH2 0x7EAC JUMP JUMPDEST POP POP JUMPDEST POP POP POP JUMP JUMPDEST PUSH0 DUP3 DUP3 SHR SWAP1 POP SWAP3 SWAP2 POP POP JUMP JUMPDEST PUSH0 PUSH2 0x7F2F PUSH0 NOT DUP5 PUSH1 0x8 MUL PUSH2 0x7F14 JUMP JUMPDEST NOT DUP1 DUP4 AND SWAP2 POP POP SWAP3 SWAP2 POP POP JUMP JUMPDEST PUSH0 PUSH2 0x7F47 DUP4 DUP4 PUSH2 0x7F20 JUMP JUMPDEST SWAP2 POP DUP3 PUSH1 0x2 MUL DUP3 OR SWAP1 POP SWAP3 SWAP2 POP POP JUMP JUMPDEST PUSH2 0x7F61 DUP4 DUP4 PUSH2 0x7D5C JUMP JUMPDEST PUSH8 0xFFFFFFFFFFFFFFFF DUP2 GT ISZERO PUSH2 0x7F7A JUMPI PUSH2 0x7F79 PUSH2 0x78D5 JUMP JUMPDEST JUMPDEST PUSH2 0x7F84 DUP3 SLOAD PUSH2 0x7D93 JUMP JUMPDEST PUSH2 0x7F8F DUP3 DUP3 DUP6 PUSH2 0x7ECE JUMP JUMPDEST PUSH0 PUSH1 0x1F DUP4 GT PUSH1 0x1 DUP2 EQ PUSH2 0x7FBC JUMPI PUSH0 DUP5 ISZERO PUSH2 0x7FAA JUMPI DUP3 DUP8 ADD CALLDATALOAD SWAP1 POP JUMPDEST PUSH2 0x7FB4 DUP6 DUP3 PUSH2 0x7F3C JUMP JUMPDEST DUP7 SSTORE POP PUSH2 0x801B JUMP JUMPDEST PUSH1 0x1F NOT DUP5 AND PUSH2 0x7FCA DUP7 PUSH2 0x7DC3 JUMP JUMPDEST PUSH0 JUMPDEST DUP3 DUP2 LT ISZERO PUSH2 0x7FF1 JUMPI DUP5 DUP10 ADD CALLDATALOAD DUP3 SSTORE PUSH1 0x1 DUP3 ADD SWAP2 POP PUSH1 0x20 DUP6 ADD SWAP5 POP PUSH1 0x20 DUP2 ADD SWAP1 POP PUSH2 0x7FCC JUMP JUMPDEST DUP7 DUP4 LT ISZERO PUSH2 0x800E JUMPI DUP5 DUP10 ADD CALLDATALOAD PUSH2 0x800A PUSH1 0x1F DUP10 AND DUP3 PUSH2 0x7F20 JUMP JUMPDEST DUP4 SSTORE POP JUMPDEST PUSH1 0x1 PUSH1 0x2 DUP9 MUL ADD DUP9 SSTORE POP POP POP JUMPDEST POP POP POP POP POP POP POP JUMP JUMPDEST PUSH0 PUSH2 0x802F DUP4 DUP6 PUSH2 0x72C5 JUMP JUMPDEST SWAP4 POP PUSH2 0x803C DUP4 DUP6 DUP5 PUSH2 0x797D JUMP JUMPDEST PUSH2 0x8045 DUP4 PUSH2 0x72FD JUMP JUMPDEST DUP5 ADD SWAP1 POP SWAP4 SWAP3 POP POP POP JUMP JUMPDEST PUSH0 PUSH1 0x20 DUP3 ADD SWAP1 POP DUP2 DUP2 SUB PUSH0 DUP4 ADD MSTORE PUSH2 0x8069 DUP2 DUP5 DUP7 PUSH2 0x8024 JUMP JUMPDEST SWAP1 POP SWAP4 SWAP3 POP POP POP JUMP JUMPDEST PUSH0 DUP2 MLOAD SWAP1 POP SWAP2 SWAP1 POP JUMP JUMPDEST PUSH0 DUP3 DUP3 MSTORE PUSH1 0x20 DUP3 ADD SWAP1 POP SWAP3 SWAP2 POP POP JUMP JUMPDEST PUSH0 DUP2 SWAP1 POP PUSH1 0x20 DUP3 ADD SWAP1 POP SWAP2 SWAP1 POP JUMP JUMPDEST PUSH2 0x80A4 DUP2 PUSH2 0x7257 JUMP JUMPDEST DUP3 MSTORE POP POP JUMP JUMPDEST PUSH0 PUSH2 0x80B5 DUP4 DUP4 PUSH2 0x809B JUMP JUMPDEST PUSH1 0x20 DUP4 ADD SWAP1 POP SWAP3 SWAP2 POP POP JUMP JUMPDEST PUSH0 PUSH1 0x20 DUP3 ADD SWAP1 POP SWAP2 SWAP1 POP JUMP JUMPDEST PUSH0 PUSH2 0x80D7 DUP3 PUSH2 0x8072 JUMP JUMPDEST PUSH2 0x80E1 DUP2 DUP6 PUSH2 0x807C JUMP JUMPDEST SWAP4 POP PUSH2 0x80EC DUP4 PUSH2 0x808C JUMP JUMPDEST DUP1 PUSH0 JUMPDEST DUP4 DUP2 LT ISZERO PUSH2 0x811C JUMPI DUP2 MLOAD PUSH2 0x8103 DUP9 DUP3 PUSH2 0x80AA JUMP JUMPDEST SWAP8 POP PUSH2 0x810E DUP4 PUSH2 0x80C1 JUMP JUMPDEST SWAP3 POP POP PUSH1 0x1 DUP2 ADD SWAP1 POP PUSH2 0x80EF JUMP JUMPDEST POP DUP6 SWAP4 POP POP POP POP SWAP3 SWAP2 POP POP JUMP JUMPDEST PUSH0 PUSH1 0x20 DUP3 ADD SWAP1 POP DUP2 DUP2 SUB PUSH0 DUP4 ADD MSTORE PUSH2 0x8141 DUP2 DUP5 PUSH2 0x80CD JUMP JUMPDEST SWAP1 POP SWAP3 SWAP2 POP POP JUMP JUMPDEST PUSH0 PUSH8 0xFFFFFFFFFFFFFFFF DUP3 GT ISZERO PUSH2 0x8163 JUMPI PUSH2 0x8162 PUSH2 0x78D5 JUMP JUMPDEST JUMPDEST PUSH1 0x20 DUP3 MUL SWAP1 POP PUSH1 0x20 DUP2 ADD SWAP1 POP SWAP2 SWAP1 POP JUMP JUMPDEST PUSH0 DUP2 MLOAD SWAP1 POP PUSH2 0x8182 DUP2 PUSH2 0x747B JUMP JUMPDEST SWAP3 SWAP2 POP POP JUMP JUMPDEST PUSH0 PUSH2 0x819A PUSH2 0x8195 DUP5 PUSH2 0x8149 JUMP JUMPDEST PUSH2 0x7933 JUMP JUMPDEST SWAP1 POP DUP1 DUP4 DUP3 MSTORE PUSH1 0x20 DUP3 ADD SWAP1 POP PUSH1 0x20 DUP5 MUL DUP4 ADD DUP6 DUP2 GT ISZERO PUSH2 0x81BD JUMPI PUSH2 0x81BC PUSH2 0x707D JUMP JUMPDEST JUMPDEST DUP4 JUMPDEST DUP2 DUP2 LT ISZERO PUSH2 0x81E6 JUMPI DUP1 PUSH2 0x81D2 DUP9 DUP3 PUSH2 0x8174 JUMP JUMPDEST DUP5 MSTORE PUSH1 0x20 DUP5 ADD SWAP4 POP POP PUSH1 0x20 DUP2 ADD SWAP1 POP PUSH2 0x81BF JUMP JUMPDEST POP POP POP SWAP4 SWAP3 POP POP POP JUMP JUMPDEST PUSH0 DUP3 PUSH1 0x1F DUP4 ADD SLT PUSH2 0x8204 JUMPI PUSH2 0x8203 PUSH2 0x7075 JUMP JUMPDEST JUMPDEST DUP2 MLOAD PUSH2 0x8214 DUP5 DUP3 PUSH1 0x20 DUP7 ADD PUSH2 0x8188 JUMP JUMPDEST SWAP2 POP POP SWAP3 SWAP2 POP POP JUMP JUMPDEST PUSH0 PUSH8 0xFFFFFFFFFFFFFFFF DUP3 GT ISZERO PUSH2 0x8237 JUMPI PUSH2 0x8236 PUSH2 0x78D5 JUMP JUMPDEST JUMPDEST PUSH1 0x20 DUP3 MUL SWAP1 POP PUSH1 0x20 DUP2 ADD SWAP1 POP SWAP2 SWAP1 POP JUMP JUMPDEST PUSH0 PUSH2 0x825A PUSH2 0x8255 DUP5 PUSH2 0x821D JUMP JUMPDEST PUSH2 0x7933 JUMP JUMPDEST SWAP1 POP DUP1 DUP4 DUP3 MSTORE PUSH1 0x20 DUP3 ADD SWAP1 POP PUSH1 0x20 DUP5 MUL DUP4 ADD DUP6 DUP2 GT ISZERO PUSH2 0x827D JUMPI PUSH2 0x827C PUSH2 0x707D JUMP JUMPDEST JUMPDEST DUP4 JUMPDEST DUP2 DUP2 LT ISZERO PUSH2 0x82A6 JUMPI DUP1 PUSH2 0x8292 DUP9 DUP3 PUSH2 0x7B95 JUMP JUMPDEST DUP5 MSTORE PUSH1 0x20 DUP5 ADD SWAP4 POP POP PUSH1 0x20 DUP2 ADD SWAP1 POP PUSH2 0x827F JUMP JUMPDEST POP POP POP SWAP4 SWAP3 POP POP POP JUMP JUMPDEST PUSH0 DUP3 PUSH1 0x1F DUP4 ADD SLT PUSH2 0x82C4 JUMPI PUSH2 0x82C3 PUSH2 0x7075 JUMP JUMPDEST JUMPDEST DUP2 MLOAD PUSH2 0x82D4 DUP5 DUP3 PUSH1 0x20 DUP7 ADD PUSH2 0x8248 JUMP JUMPDEST SWAP2 POP POP SWAP3 SWAP2 POP POP JUMP JUMPDEST PUSH0 DUP1 PUSH1 0x40 DUP4 DUP6 SUB SLT ISZERO PUSH2 0x82F3 JUMPI PUSH2 0x82F2 PUSH2 0x706D JUMP JUMPDEST JUMPDEST PUSH0 DUP4 ADD MLOAD PUSH8 0xFFFFFFFFFFFFFFFF DUP2 GT ISZERO PUSH2 0x8310 JUMPI PUSH2 0x830F PUSH2 0x7071 JUMP JUMPDEST JUMPDEST PUSH2 0x831C DUP6 DUP3 DUP7 ADD PUSH2 0x81F0 JUMP JUMPDEST SWAP3 POP POP PUSH1 0x20 DUP4 ADD MLOAD PUSH8 0xFFFFFFFFFFFFFFFF DUP2 GT ISZERO PUSH2 0x833D JUMPI PUSH2 0x833C PUSH2 0x7071 JUMP JUMPDEST JUMPDEST PUSH2 0x8349 DUP6 DUP3 DUP7 ADD PUSH2 0x82B0 JUMP JUMPDEST SWAP2 POP POP SWAP3 POP SWAP3 SWAP1 POP JUMP JUMPDEST PUSH0 PUSH2 0x835D DUP3 PUSH2 0x71CE JUMP JUMPDEST SWAP2 POP PUSH2 0x8368 DUP4 PUSH2 0x71CE JUMP JUMPDEST SWAP3 POP DUP3 DUP3 SUB SWAP1 POP PUSH7 0x7FFFFFFFFFFFFF DUP2 SGT PUSH32 0xFFFFFFFFFFFFFFFFFFFFFFFFFFFFFFFFFFFFFFFFFFFFFFFFFF80000000000000 DUP3 SLT OR ISZERO PUSH2 0x83AB JUMPI PUSH2 0x83AA PUSH2 0x7CFC JUMP JUMPDEST JUMPDEST SWAP3 SWAP2 POP POP JUMP JUMPDEST PUSH32 0x4E487B7100000000000000000000000000000000000000000000000000000000 PUSH0 MSTORE PUSH1 0x12 PUSH1 0x4 MSTORE PUSH1 0x24 PUSH0 REVERT JUMPDEST PUSH0 PUSH2 0x83E8 DUP3 PUSH2 0x71CE JUMP JUMPDEST SWAP2 POP PUSH2 0x83F3 DUP4 PUSH2 0x71CE JUMP JUMPDEST SWAP3 POP DUP3 PUSH2 0x8403 JUMPI PUSH2 0x8402 PUSH2 0x83B1 JUMP JUMPDEST JUMPDEST PUSH1 0x1 PUSH0 SUB DUP4 EQ PUSH32 0xFFFFFFFFFFFFFFFFFFFFFFFFFFFFFFFFFFFFFFFFFFFFFFFFFF80000000000000 DUP4 EQ AND ISZERO PUSH2 0x843B JUMPI PUSH2 0x843A PUSH2 0x7CFC JUMP JUMPDEST JUMPDEST DUP3 DUP3 SDIV SWAP1 POP SWAP3 SWAP2 POP POP JUMP JUMPDEST PUSH0 PUSH1 0xFF DUP3 AND SWAP1 POP SWAP2 SWAP1 POP JUMP JUMPDEST PUSH2 0x845B DUP2 PUSH2 0x8446 JUMP JUMPDEST DUP2 EQ PUSH2 0x8465 JUMPI PUSH0 DUP1 REVERT JUMPDEST POP JUMP JUMPDEST PUSH0 DUP2 MLOAD SWAP1 POP PUSH2 0x8476 DUP2 PUSH2 0x8452 JUMP JUMPDEST SWAP3 SWAP2 POP POP JUMP JUMPDEST PUSH0 PUSH1 0x20 DUP3 DUP5 SUB SLT ISZERO PUSH2 0x8491 JUMPI PUSH2 0x8490 PUSH2 0x706D JUMP JUMPDEST JUMPDEST PUSH0 PUSH2 0x849E DUP5 DUP3 DUP6 ADD PUSH2 0x8468 JUMP JUMPDEST SWAP2 POP POP SWAP3 SWAP2 POP POP JUMP JUMPDEST PUSH0 DUP2 PUSH1 0x1 SHR SWAP1 POP SWAP2 SWAP1 POP JUMP JUMPDEST PUSH0 DUP1 DUP3 SWAP2 POP DUP4 SWAP1 POP JUMPDEST PUSH1 0x1 DUP6 GT ISZERO PUSH2 0x84FC JUMPI DUP1 DUP7 DIV DUP2 GT ISZERO PUSH2 0x84D8 JUMPI PUSH2 0x84D7 PUSH2 0x7CFC JUMP JUMPDEST JUMPDEST PUSH1 0x1 DUP6 AND ISZERO PUSH2 0x84E7 JUMPI DUP1 DUP3 MUL SWAP2 POP JUMPDEST DUP1 DUP2 MUL SWAP1 POP PUSH2 0x84F5 DUP6 PUSH2 0x84A7 JUMP JUMPDEST SWAP5 POP PUSH2 0x84BC JUMP JUMPDEST SWAP5 POP SWAP5 SWAP3 POP POP POP JUMP JUMPDEST PUSH0 DUP3 PUSH2 0x8514 JUMPI PUSH1 0x1 SWAP1 POP PUSH2 0x85CF JUMP JUMPDEST DUP2 PUSH2 0x8521 JUMPI PUSH0 SWAP1 POP PUSH2 0x85CF JUMP JUMPDEST DUP2 PUSH1 0x1 DUP2 EQ PUSH2 0x8537 JUMPI PUSH1 0x2 DUP2 EQ PUSH2 0x8541 JUMPI PUSH2 0x8570 JUMP JUMPDEST PUSH1 0x1 SWAP2 POP POP PUSH2 0x85CF JUMP JUMPDEST PUSH1 0xFF DUP5 GT ISZERO PUSH2 0x8553 JUMPI PUSH2 0x8552 PUSH2 0x7CFC JUMP JUMPDEST JUMPDEST DUP4 PUSH1 0x2 EXP SWAP2 POP DUP5 DUP3 GT ISZERO PUSH2 0x856A JUMPI PUSH2 0x8569 PUSH2 0x7CFC JUMP JUMPDEST JUMPDEST POP PUSH2 0x85CF JUMP JUMPDEST POP PUSH1 0x20 DUP4 LT PUSH2 0x133 DUP4 LT AND PUSH1 0x4E DUP5 LT PUSH1 0xB DUP5 LT AND OR ISZERO PUSH2 0x85A5 JUMPI DUP3 DUP3 EXP SWAP1 POP DUP4 DUP2 GT ISZERO PUSH2 0x85A0 JUMPI PUSH2 0x859F PUSH2 0x7CFC JUMP JUMPDEST JUMPDEST PUSH2 0x85CF JUMP JUMPDEST PUSH2 0x85B2 DUP5 DUP5 DUP5 PUSH1 0x1 PUSH2 0x84B3 JUMP JUMPDEST SWAP3 POP SWAP1 POP DUP2 DUP5 DIV DUP2 GT ISZERO PUSH2 0x85C9 JUMPI PUSH2 0x85C8 PUSH2 0x7CFC JUMP JUMPDEST JUMPDEST DUP2 DUP2 MUL SWAP1 POP JUMPDEST SWAP4 SWAP3 POP POP POP JUMP JUMPDEST PUSH0 PUSH2 0x85E0 DUP3 PUSH2 0x6FD8 JUMP JUMPDEST SWAP2 POP PUSH2 0x85EB DUP4 PUSH2 0x8446 JUMP JUMPDEST SWAP3 POP PUSH2 0x8618 PUSH32 0xFFFFFFFFFFFFFFFFFFFFFFFFFFFFFFFFFFFFFFFFFFFFFFFFFFFFFFFFFFFFFFFF DUP5 DUP5 PUSH2 0x8505 JUMP JUMPDEST SWAP1 POP SWAP3 SWAP2 POP POP JUMP JUMPDEST PUSH0 PUSH2 0x862A DUP3 PUSH2 0x6FD8 JUMP JUMPDEST SWAP2 POP PUSH2 0x8635 DUP4 PUSH2 0x6FD8 JUMP JUMPDEST SWAP3 POP DUP3 PUSH2 0x8645 JUMPI PUSH2 0x8644 PUSH2 0x83B1 JUMP JUMPDEST JUMPDEST DUP3 DUP3 DIV SWAP1 POP SWAP3 SWAP2 POP POP JUMP JUMPDEST PUSH0 PUSH2 0x865A DUP3 PUSH2 0x6FD8 JUMP JUMPDEST SWAP2 POP PUSH2 0x8665 DUP4 PUSH2 0x6FD8 JUMP JUMPDEST SWAP3 POP DUP3 DUP3 MUL PUSH2 0x8673 DUP2 PUSH2 0x6FD8 JUMP JUMPDEST SWAP2 POP DUP3 DUP3 DIV DUP5 EQ DUP4 ISZERO OR PUSH2 0x868A JUMPI PUSH2 0x8689 PUSH2 0x7CFC JUMP JUMPDEST JUMPDEST POP SWAP3 SWAP2 POP POP JUMP JUMPDEST PUSH0 DUP2 SLOAD PUSH2 0x869D DUP2 PUSH2 0x7D93 JUMP JUMPDEST PUSH2 0x86A7 DUP2 DUP7 PUSH2 0x72C5 JUMP JUMPDEST SWAP5 POP PUSH1 0x1 DUP3 AND PUSH0 DUP2 EQ PUSH2 0x86C1 JUMPI PUSH1 0x1 DUP2 EQ PUSH2 0x86D7 JUMPI PUSH2 0x8709 JUMP JUMPDEST PUSH1 0xFF NOT DUP4 AND DUP7 MSTORE DUP2 ISZERO ISZERO PUSH1 0x20 MUL DUP7 ADD SWAP4 POP PUSH2 0x8709 JUMP JUMPDEST PUSH2 0x86E0 DUP6 PUSH2 0x7DC3 JUMP JUMPDEST PUSH0 JUMPDEST DUP4 DUP2 LT ISZERO PUSH2 0x8701 JUMPI DUP2 SLOAD DUP2 DUP10 ADD MSTORE PUSH1 0x1 DUP3 ADD SWAP2 POP PUSH1 0x20 DUP2 ADD SWAP1 POP PUSH2 0x86E2 JUMP JUMPDEST DUP1 DUP9 ADD SWAP6 POP POP POP JUMPDEST POP POP POP SWAP3 SWAP2 POP POP JUMP JUMPDEST PUSH0 PUSH1 0x40 DUP3 ADD SWAP1 POP DUP2 DUP2 SUB PUSH0 DUP4 ADD MSTORE PUSH2 0x872A DUP2 DUP6 PUSH2 0x8691 JUMP JUMPDEST SWAP1 POP PUSH2 0x8739 PUSH1 0x20 DUP4 ADD DUP5 PUSH2 0x6FE1 JUMP JUMPDEST SWAP4 SWAP3 POP POP POP JUMP JUMPDEST PUSH0 PUSH1 0x40 DUP3 ADD SWAP1 POP PUSH2 0x8753 PUSH0 DUP4 ADD DUP6 PUSH2 0x74D0 JUMP JUMPDEST PUSH2 0x8760 PUSH1 0x20 DUP4 ADD DUP5 PUSH2 0x74D0 JUMP JUMPDEST SWAP4 SWAP3 POP POP POP JUMP JUMPDEST PUSH0 DUP2 PUSH1 0x60 SHL SWAP1 POP SWAP2 SWAP1 POP JUMP JUMPDEST PUSH0 PUSH2 0x877D DUP3 PUSH2 0x8767 JUMP JUMPDEST SWAP1 POP SWAP2 SWAP1 POP JUMP JUMPDEST PUSH0 PUSH2 0x878E DUP3 PUSH2 0x8773 JUMP JUMPDEST SWAP1 POP SWAP2 SWAP1 POP JUMP JUMPDEST PUSH2 0x87A6 PUSH2 0x87A1 DUP3 PUSH2 0x7140 JUMP JUMPDEST PUSH2 0x8784 JUMP JUMPDEST DUP3 MSTORE POP POP JUMP JUMPDEST PUSH0 DUP2 PUSH1 0xE8 SHL SWAP1 POP SWAP2 SWAP1 POP JUMP JUMPDEST PUSH0 PUSH2 0x87C2 DUP3 PUSH2 0x87AC JUMP JUMPDEST SWAP1 POP SWAP2 SWAP1 POP JUMP JUMPDEST PUSH2 0x87DA PUSH2 0x87D5 DUP3 PUSH2 0x7030 JUMP JUMPDEST PUSH2 0x87B8 JUMP JUMPDEST DUP3 MSTORE POP POP JUMP JUMPDEST PUSH0 PUSH2 0x87EB DUP3 DUP7 PUSH2 0x8795 JUMP JUMPDEST PUSH1 0x14 DUP3 ADD SWAP2 POP PUSH2 0x87FB DUP3 DUP6 PUSH2 0x87C9 JUMP JUMPDEST PUSH1 0x3 DUP3 ADD SWAP2 POP PUSH2 0x880B DUP3 DUP5 PUSH2 0x87C9 JUMP JUMPDEST PUSH1 0x3 DUP3 ADD SWAP2 POP DUP2 SWAP1 POP SWAP5 SWAP4 POP POP POP POP JUMP JUMPDEST PUSH0 PUSH2 0x8826 DUP3 PUSH2 0x7030 JUMP JUMPDEST SWAP2 POP PUSH2 0x8831 DUP4 PUSH2 0x7030 JUMP JUMPDEST SWAP3 POP DUP3 DUP3 MUL PUSH2 0x883F DUP2 PUSH2 0x7030 JUMP JUMPDEST SWAP2 POP DUP1 DUP3 EQ PUSH2 0x8851 JUMPI PUSH2 0x8850 PUSH2 0x7CFC JUMP JUMPDEST JUMPDEST POP SWAP3 SWAP2 POP POP JUMP JUMPDEST PUSH0 PUSH2 0x8862 DUP3 PUSH2 0x6FD8 JUMP JUMPDEST SWAP2 POP PUSH2 0x886D DUP4 PUSH2 0x6FD8 JUMP JUMPDEST SWAP3 POP DUP3 DUP3 ADD SWAP1 POP DUP1 DUP3 GT ISZERO PUSH2 0x8885 JUMPI PUSH2 0x8884 PUSH2 0x7CFC JUMP JUMPDEST JUMPDEST SWAP3 SWAP2 POP POP JUMP JUMPDEST PUSH0 PUSH3 0xFFFFFF DUP3 AND SWAP1 POP SWAP2 SWAP1 POP JUMP JUMPDEST PUSH2 0x88A2 DUP2 PUSH2 0x888B JUMP JUMPDEST DUP2 EQ PUSH2 0x88AC JUMPI PUSH0 DUP1 REVERT JUMPDEST POP JUMP JUMPDEST PUSH0 DUP2 MLOAD SWAP1 POP PUSH2 0x88BD DUP2 PUSH2 0x8899 JUMP JUMPDEST SWAP3 SWAP2 POP POP JUMP JUMPDEST PUSH0 PUSH1 0x20 DUP3 DUP5 SUB SLT ISZERO PUSH2 0x88D8 JUMPI PUSH2 0x88D7 PUSH2 0x706D JUMP JUMPDEST JUMPDEST PUSH0 PUSH2 0x88E5 DUP5 DUP3 DUP6 ADD PUSH2 0x88AF JUMP JUMPDEST SWAP2 POP POP SWAP3 SWAP2 POP POP JUMP JUMPDEST PUSH0 DUP3 DUP3 MSTORE PUSH1 0x20 DUP3 ADD SWAP1 POP SWAP3 SWAP2 POP POP JUMP JUMPDEST PUSH32 0x496E697469616C697A61626C653A20636F6E747261637420697320616C726561 PUSH0 DUP3 ADD MSTORE PUSH32 0x647920696E697469616C697A6564000000000000000000000000000000000000 PUSH1 0x20 DUP3 ADD MSTORE POP JUMP JUMPDEST PUSH0 PUSH2 0x8958 PUSH1 0x2E DUP4 PUSH2 0x88EE JUMP JUMPDEST SWAP2 POP PUSH2 0x8963 DUP3 PUSH2 0x88FE JUMP JUMPDEST PUSH1 0x40 DUP3 ADD SWAP1 POP SWAP2 SWAP1 POP JUMP JUMPDEST PUSH0 PUSH1 0x20 DUP3 ADD SWAP1 POP DUP2 DUP2 SUB PUSH0 DUP4 ADD MSTORE PUSH2 0x8985 DUP2 PUSH2 0x894C JUMP JUMPDEST SWAP1 POP SWAP2 SWAP1 POP JUMP JUMPDEST PUSH0 DUP2 MLOAD SWAP1 POP PUSH2 0x899A DUP2 PUSH2 0x7151 JUMP JUMPDEST SWAP3 SWAP2 POP POP JUMP JUMPDEST PUSH0 PUSH1 0x20 DUP3 DUP5 SUB SLT ISZERO PUSH2 0x89B5 JUMPI PUSH2 0x89B4 PUSH2 0x706D JUMP JUMPDEST JUMPDEST PUSH0 PUSH2 0x89C2 DUP5 DUP3 DUP6 ADD PUSH2 0x898C JUMP JUMPDEST SWAP2 POP POP SWAP3 SWAP2 POP POP JUMP JUMPDEST PUSH0 DUP2 SWAP1 POP SWAP2 SWAP1 POP JUMP JUMPDEST PUSH0 PUSH2 0x89EE PUSH2 0x89E9 PUSH2 0x89E4 DUP5 PUSH2 0x89CB JUMP JUMPDEST PUSH2 0x785D JUMP JUMPDEST PUSH2 0x8446 JUMP JUMPDEST SWAP1 POP SWAP2 SWAP1 POP JUMP JUMPDEST PUSH2 0x89FE DUP2 PUSH2 0x89D4 JUMP JUMPDEST DUP3 MSTORE POP POP JUMP JUMPDEST PUSH0 PUSH1 0x20 DUP3 ADD SWAP1 POP PUSH2 0x8A17 PUSH0 DUP4 ADD DUP5 PUSH2 0x89F5 JUMP JUMPDEST SWAP3 SWAP2 POP POP JUMP JUMPDEST PUSH0 PUSH2 0x8A27 DUP3 PUSH2 0x71CE JUMP JUMPDEST SWAP2 POP PUSH2 0x8A32 DUP4 PUSH2 0x71CE JUMP JUMPDEST SWAP3 POP DUP3 DUP3 ADD SWAP1 POP PUSH32 0xFFFFFFFFFFFFFFFFFFFFFFFFFFFFFFFFFFFFFFFFFFFFFFFFFF80000000000000 DUP2 SLT PUSH7 0x7FFFFFFFFFFFFF DUP3 SGT OR ISZERO PUSH2 0x8A75 JUMPI PUSH2 0x8A74 PUSH2 0x7CFC JUMP JUMPDEST JUMPDEST SWAP3 SWAP2 POP POP JUMP JUMPDEST PUSH0 PUSH1 0x20 DUP3 DUP5 SUB SLT ISZERO PUSH2 0x8A90 JUMPI PUSH2 0x8A8F PUSH2 0x706D JUMP JUMPDEST JUMPDEST PUSH0 PUSH2 0x8A9D DUP5 DUP3 DUP6 ADD PUSH2 0x7C1E JUMP JUMPDEST SWAP2 POP POP SWAP3 SWAP2 POP POP JUMP JUMPDEST PUSH32 0x4F776E61626C653A206E6577206F776E657220697320746865207A65726F2061 PUSH0 DUP3 ADD MSTORE PUSH32 0x6464726573730000000000000000000000000000000000000000000000000000 PUSH1 0x20 DUP3 ADD MSTORE POP JUMP JUMPDEST PUSH0 PUSH2 0x8B00 PUSH1 0x26 DUP4 PUSH2 0x88EE JUMP JUMPDEST SWAP2 POP PUSH2 0x8B0B DUP3 PUSH2 0x8AA6 JUMP JUMPDEST PUSH1 0x40 DUP3 ADD SWAP1 POP SWAP2 SWAP1 POP JUMP JUMPDEST PUSH0 PUSH1 0x20 DUP3 ADD SWAP1 POP DUP2 DUP2 SUB PUSH0 DUP4 ADD MSTORE PUSH2 0x8B2D DUP2 PUSH2 0x8AF4 JUMP JUMPDEST SWAP1 POP SWAP2 SWAP1 POP JUMP JUMPDEST PUSH0 PUSH1 0x20 DUP3 ADD SWAP1 POP PUSH2 0x8B47 PUSH0 DUP4 ADD DUP5 PUSH2 0x736E JUMP JUMPDEST SWAP3 SWAP2 POP POP JUMP JUMPDEST PUSH0 PUSH16 0xFFFFFFFFFFFFFFFFFFFFFFFFFFFFFFFF DUP3 AND SWAP1 POP SWAP2 SWAP1 POP JUMP JUMPDEST PUSH2 0x8B71 DUP2 PUSH2 0x8B4D JUMP JUMPDEST DUP2 EQ PUSH2 0x8B7B JUMPI PUSH0 DUP1 REVERT JUMPDEST POP JUMP JUMPDEST PUSH0 DUP2 MLOAD SWAP1 POP PUSH2 0x8B8C DUP2 PUSH2 0x8B68 JUMP JUMPDEST SWAP3 SWAP2 POP POP JUMP JUMPDEST PUSH0 DUP1 PUSH0 DUP1 PUSH0 PUSH1 0xA0 DUP7 DUP9 SUB SLT ISZERO PUSH2 0x8BAB JUMPI PUSH2 0x8BAA PUSH2 0x706D JUMP JUMPDEST JUMPDEST PUSH0 PUSH2 0x8BB8 DUP9 DUP3 DUP10 ADD PUSH2 0x8B7E JUMP JUMPDEST SWAP6 POP POP PUSH1 0x20 PUSH2 0x8BC9 DUP9 DUP3 DUP10 ADD PUSH2 0x7B40 JUMP JUMPDEST SWAP5 POP POP PUSH1 0x40 PUSH2 0x8BDA DUP9 DUP3 DUP10 ADD PUSH2 0x7B40 JUMP JUMPDEST SWAP4 POP POP PUSH1 0x60 PUSH2 0x8BEB DUP9 DUP3 DUP10 ADD PUSH2 0x8B7E JUMP JUMPDEST SWAP3 POP POP PUSH1 0x80 PUSH2 0x8BFC DUP9 DUP3 DUP10 ADD PUSH2 0x8B7E JUMP JUMPDEST SWAP2 POP POP SWAP3 SWAP6 POP SWAP3 SWAP6 SWAP1 SWAP4 POP JUMP JUMPDEST PUSH32 0x4F776E61626C653A2063616C6C6572206973206E6F7420746865206F776E6572 PUSH0 DUP3 ADD MSTORE POP JUMP JUMPDEST PUSH0 PUSH2 0x8C3D PUSH1 0x20 DUP4 PUSH2 0x88EE JUMP JUMPDEST SWAP2 POP PUSH2 0x8C48 DUP3 PUSH2 0x8C09 JUMP JUMPDEST PUSH1 0x20 DUP3 ADD SWAP1 POP SWAP2 SWAP1 POP JUMP JUMPDEST PUSH0 PUSH1 0x20 DUP3 ADD SWAP1 POP DUP2 DUP2 SUB PUSH0 DUP4 ADD MSTORE PUSH2 0x8C6A DUP2 PUSH2 0x8C31 JUMP JUMPDEST SWAP1 POP SWAP2 SWAP1 POP JUMP JUMPDEST PUSH0 DUP2 SWAP1 POP SWAP2 SWAP1 POP JUMP JUMPDEST PUSH0 PUSH2 0x8C94 PUSH2 0x8C8F PUSH2 0x8C8A DUP5 PUSH2 0x8C71 JUMP JUMPDEST PUSH2 0x785D JUMP JUMPDEST PUSH2 0x8B4D JUMP JUMPDEST SWAP1 POP SWAP2 SWAP1 POP JUMP JUMPDEST PUSH2 0x8CA4 DUP2 PUSH2 0x8C7A JUMP JUMPDEST DUP3 MSTORE POP POP JUMP JUMPDEST PUSH0 PUSH1 0x60 DUP3 ADD SWAP1 POP PUSH2 0x8CBD PUSH0 DUP4 ADD DUP7 PUSH2 0x703C JUMP JUMPDEST PUSH2 0x8CCA PUSH1 0x20 DUP4 ADD DUP6 PUSH2 0x703C JUMP JUMPDEST PUSH2 0x8CD7 PUSH1 0x40 DUP4 ADD DUP5 PUSH2 0x8C9B JUMP JUMPDEST SWAP5 SWAP4 POP POP POP POP JUMP JUMPDEST PUSH0 DUP1 PUSH1 0x40 DUP4 DUP6 SUB SLT ISZERO PUSH2 0x8CF5 JUMPI PUSH2 0x8CF4 PUSH2 0x706D JUMP JUMPDEST JUMPDEST PUSH0 PUSH2 0x8D02 DUP6 DUP3 DUP7 ADD PUSH2 0x7B40 JUMP JUMPDEST SWAP3 POP POP PUSH1 0x20 PUSH2 0x8D13 DUP6 DUP3 DUP7 ADD PUSH2 0x7B40 JUMP JUMPDEST SWAP2 POP POP SWAP3 POP SWAP3 SWAP1 POP JUMP JUMPDEST PUSH2 0x8D26 DUP2 PUSH2 0x8B4D JUMP JUMPDEST DUP3 MSTORE POP POP JUMP JUMPDEST PUSH0 PUSH1 0xA0 DUP3 ADD SWAP1 POP PUSH2 0x8D3F PUSH0 DUP4 ADD DUP9 PUSH2 0x71A6 JUMP JUMPDEST PUSH2 0x8D4C PUSH1 0x20 DUP4 ADD DUP8 PUSH2 0x703C JUMP JUMPDEST PUSH2 0x8D59 PUSH1 0x40 DUP4 ADD DUP7 PUSH2 0x703C JUMP JUMPDEST PUSH2 0x8D66 PUSH1 0x60 DUP4 ADD DUP6 PUSH2 0x8D1D JUMP JUMPDEST PUSH2 0x8D73 PUSH1 0x80 DUP4 ADD DUP5 PUSH2 0x8D1D JUMP JUMPDEST SWAP7 SWAP6 POP POP POP POP POP POP JUMP JUMPDEST PUSH0 DUP1 PUSH1 0x40 DUP4 DUP6 SUB SLT ISZERO PUSH2 0x8D93 JUMPI PUSH2 0x8D92 PUSH2 0x706D JUMP JUMPDEST JUMPDEST PUSH0 PUSH2 0x8DA0 DUP6 DUP3 DUP7 ADD PUSH2 0x8B7E JUMP JUMPDEST SWAP3 POP POP PUSH1 0x20 PUSH2 0x8DB1 DUP6 DUP3 DUP7 ADD PUSH2 0x8B7E JUMP JUMPDEST SWAP2 POP POP SWAP3 POP SWAP3 SWAP1 POP JUMP JUMPDEST PUSH0 PUSH1 0x60 DUP3 ADD SWAP1 POP PUSH2 0x8DCE PUSH0 DUP4 ADD DUP7 PUSH2 0x703C JUMP JUMPDEST PUSH2 0x8DDB PUSH1 0x20 DUP4 ADD DUP6 PUSH2 0x703C JUMP JUMPDEST PUSH2 0x8DE8 PUSH1 0x40 DUP4 ADD DUP5 PUSH2 0x8D1D JUMP JUMPDEST SWAP5 SWAP4 POP POP POP POP JUMP JUMPDEST PUSH32 0x506C65787573204D61696E000000000000000000000000000000000000000000 PUSH0 DUP3 ADD MSTORE POP JUMP JUMPDEST PUSH0 PUSH2 0x8E24 PUSH1 0xB DUP4 PUSH2 0x72C5 JUMP JUMPDEST SWAP2 POP PUSH2 0x8E2F DUP3 PUSH2 0x8DF0 JUMP JUMPDEST PUSH1 0x20 DUP3 ADD SWAP1 POP SWAP2 SWAP1 POP JUMP JUMPDEST PUSH0 PUSH1 0xA0 DUP3 ADD SWAP1 POP PUSH2 0x8E4D PUSH0 DUP4 ADD DUP8 PUSH2 0x71A6 JUMP JUMPDEST PUSH2 0x8E5A PUSH1 0x20 DUP4 ADD DUP7 PUSH2 0x703C JUMP JUMPDEST PUSH2 0x8E67 PUSH1 0x40 DUP4 ADD DUP6 PUSH2 0x703C JUMP JUMPDEST PUSH2 0x8E74 PUSH1 0x60 DUP4 ADD DUP5 PUSH2 0x8D1D JUMP JUMPDEST DUP2 DUP2 SUB PUSH1 0x80 DUP4 ADD MSTORE PUSH2 0x8E85 DUP2 PUSH2 0x8E18 JUMP JUMPDEST SWAP1 POP SWAP6 SWAP5 POP POP POP POP POP JUMP JUMPDEST PUSH32 0x506C6578757320416C7400000000000000000000000000000000000000000000 PUSH0 DUP3 ADD MSTORE POP JUMP JUMPDEST PUSH0 PUSH2 0x8EC4 PUSH1 0xA DUP4 PUSH2 0x72C5 JUMP JUMPDEST SWAP2 POP PUSH2 0x8ECF DUP3 PUSH2 0x8E90 JUMP JUMPDEST PUSH1 0x20 DUP3 ADD SWAP1 POP SWAP2 SWAP1 POP JUMP JUMPDEST PUSH0 PUSH1 0xA0 DUP3 ADD SWAP1 POP PUSH2 0x8EED PUSH0 DUP4 ADD DUP8 PUSH2 0x71A6 JUMP JUMPDEST PUSH2 0x8EFA PUSH1 0x20 DUP4 ADD DUP7 PUSH2 0x703C JUMP JUMPDEST PUSH2 0x8F07 PUSH1 0x40 DUP4 ADD DUP6 PUSH2 0x703C JUMP JUMPDEST PUSH2 0x8F14 PUSH1 0x60 DUP4 ADD DUP5 PUSH2 0x8D1D JUMP JUMPDEST DUP2 DUP2 SUB PUSH1 0x80 DUP4 ADD MSTORE PUSH2 0x8F25 DUP2 PUSH2 0x8EB8 JUMP JUMPDEST SWAP1 POP SWAP6 SWAP5 POP POP POP POP POP JUMP JUMPDEST PUSH0 PUSH1 0x20 DUP3 DUP5 SUB SLT ISZERO PUSH2 0x8F45 JUMPI PUSH2 0x8F44 PUSH2 0x706D JUMP JUMPDEST JUMPDEST PUSH0 PUSH2 0x8F52 DUP5 DUP3 DUP6 ADD PUSH2 0x7BA9 JUMP JUMPDEST SWAP2 POP POP SWAP3 SWAP2 POP POP JUMP JUMPDEST PUSH0 PUSH1 0x40 DUP3 ADD SWAP1 POP PUSH2 0x8F6E PUSH0 DUP4 ADD DUP6 PUSH2 0x71A6 JUMP JUMPDEST PUSH2 0x8F7B PUSH1 0x20 DUP4 ADD DUP5 PUSH2 0x6FE1 JUMP JUMPDEST SWAP4 SWAP3 POP POP POP JUMP JUMPDEST PUSH32 0x496E697469616C697A61626C653A20636F6E7472616374206973206E6F742069 PUSH0 DUP3 ADD MSTORE PUSH32 0x6E697469616C697A696E67000000000000000000000000000000000000000000 PUSH1 0x20 DUP3 ADD MSTORE POP JUMP JUMPDEST PUSH0 PUSH2 0x8FDC PUSH1 0x2B DUP4 PUSH2 0x88EE JUMP JUMPDEST SWAP2 POP PUSH2 0x8FE7 DUP3 PUSH2 0x8F82 JUMP JUMPDEST PUSH1 0x40 DUP3 ADD SWAP1 POP SWAP2 SWAP1 POP JUMP JUMPDEST PUSH0 PUSH1 0x20 DUP3 ADD SWAP1 POP DUP2 DUP2 SUB PUSH0 DUP4 ADD MSTORE PUSH2 0x9009 DUP2 PUSH2 0x8FD0 JUMP JUMPDEST SWAP1 POP SWAP2 SWAP1 POP JUMP JUMPDEST PUSH0 DUP1 REVERT JUMPDEST PUSH0 DUP1 REVERT JUMPDEST PUSH0 PUSH8 0xFFFFFFFFFFFFFFFF DUP3 GT ISZERO PUSH2 0x9032 JUMPI PUSH2 0x9031 PUSH2 0x78D5 JUMP JUMPDEST JUMPDEST PUSH2 0x903B DUP3 PUSH2 0x72FD JUMP JUMPDEST SWAP1 POP PUSH1 0x20 DUP2 ADD SWAP1 POP SWAP2 SWAP1 POP JUMP JUMPDEST PUSH0 PUSH2 0x905A PUSH2 0x9055 DUP5 PUSH2 0x9018 JUMP JUMPDEST PUSH2 0x7933 JUMP JUMPDEST SWAP1 POP DUP3 DUP2 MSTORE PUSH1 0x20 DUP2 ADD DUP5 DUP5 DUP5 ADD GT ISZERO PUSH2 0x9076 JUMPI PUSH2 0x9075 PUSH2 0x78D1 JUMP JUMPDEST JUMPDEST PUSH2 0x9081 DUP5 DUP3 DUP6 PUSH2 0x72D5 JUMP JUMPDEST POP SWAP4 SWAP3 POP POP POP JUMP JUMPDEST PUSH0 DUP3 PUSH1 0x1F DUP4 ADD SLT PUSH2 0x909D JUMPI PUSH2 0x909C PUSH2 0x7075 JUMP JUMPDEST JUMPDEST DUP2 MLOAD PUSH2 0x90AD DUP5 DUP3 PUSH1 0x20 DUP7 ADD PUSH2 0x9048 JUMP JUMPDEST SWAP2 POP POP SWAP3 SWAP2 POP POP JUMP JUMPDEST PUSH0 PUSH1 0xC0 DUP3 DUP5 SUB SLT ISZERO PUSH2 0x90CB JUMPI PUSH2 0x90CA PUSH2 0x9010 JUMP JUMPDEST JUMPDEST PUSH2 0x90D5 PUSH1 0xC0 PUSH2 0x7933 JUMP JUMPDEST SWAP1 POP PUSH0 PUSH2 0x90E4 DUP5 DUP3 DUP6 ADD PUSH2 0x7B40 JUMP JUMPDEST PUSH0 DUP4 ADD MSTORE POP PUSH1 0x20 PUSH2 0x90F7 DUP5 DUP3 DUP6 ADD PUSH2 0x7B40 JUMP JUMPDEST PUSH1 0x20 DUP4 ADD MSTORE POP PUSH1 0x40 PUSH2 0x910B DUP5 DUP3 DUP6 ADD PUSH2 0x7B40 JUMP JUMPDEST PUSH1 0x40 DUP4 ADD MSTORE POP PUSH1 0x60 PUSH2 0x911F DUP5 DUP3 DUP6 ADD PUSH2 0x7B40 JUMP JUMPDEST PUSH1 0x60 DUP4 ADD MSTORE POP PUSH1 0x80 DUP3 ADD MLOAD PUSH8 0xFFFFFFFFFFFFFFFF DUP2 GT ISZERO PUSH2 0x9143 JUMPI PUSH2 0x9142 PUSH2 0x9014 JUMP JUMPDEST JUMPDEST PUSH2 0x914F DUP5 DUP3 DUP6 ADD PUSH2 0x9089 JUMP JUMPDEST PUSH1 0x80 DUP4 ADD MSTORE POP PUSH1 0xA0 PUSH2 0x9163 DUP5 DUP3 DUP6 ADD PUSH2 0x7C1E JUMP JUMPDEST PUSH1 0xA0 DUP4 ADD MSTORE POP SWAP3 SWAP2 POP POP JUMP JUMPDEST PUSH0 PUSH1 0x20 DUP3 DUP5 SUB SLT ISZERO PUSH2 0x9184 JUMPI PUSH2 0x9183 PUSH2 0x706D JUMP JUMPDEST JUMPDEST PUSH0 DUP3 ADD MLOAD PUSH8 0xFFFFFFFFFFFFFFFF DUP2 GT ISZERO PUSH2 0x91A1 JUMPI PUSH2 0x91A0 PUSH2 0x7071 JUMP JUMPDEST JUMPDEST PUSH2 0x91AD DUP5 DUP3 DUP6 ADD PUSH2 0x90B6 JUMP JUMPDEST SWAP2 POP POP SWAP3 SWAP2 POP POP JUMP JUMPDEST PUSH32 0x5400000000000000000000000000000000000000000000000000000000000000 PUSH0 DUP3 ADD MSTORE POP JUMP JUMPDEST PUSH0 PUSH2 0x91EA PUSH1 0x1 DUP4 PUSH2 0x88EE JUMP JUMPDEST SWAP2 POP PUSH2 0x91F5 DUP3 PUSH2 0x91B6 JUMP JUMPDEST PUSH1 0x20 DUP3 ADD SWAP1 POP SWAP2 SWAP1 POP JUMP JUMPDEST PUSH0 PUSH1 0x20 DUP3 ADD SWAP1 POP DUP2 DUP2 SUB PUSH0 DUP4 ADD MSTORE PUSH2 0x9217 DUP2 PUSH2 0x91DE JUMP JUMPDEST SWAP1 POP SWAP2 SWAP1 POP JUMP JUMPDEST PUSH0 PUSH1 0x60 DUP3 ADD SWAP1 POP PUSH2 0x9231 PUSH0 DUP4 ADD DUP7 PUSH2 0x71A6 JUMP JUMPDEST PUSH2 0x923E PUSH1 0x20 DUP4 ADD DUP6 PUSH2 0x71A6 JUMP JUMPDEST PUSH2 0x924B PUSH1 0x40 DUP4 ADD DUP5 PUSH2 0x6FE1 JUMP JUMPDEST SWAP5 SWAP4 POP POP POP POP JUMP JUMPDEST PUSH0 PUSH2 0x926D PUSH2 0x9268 PUSH2 0x9263 DUP5 PUSH2 0x8C71 JUMP JUMPDEST PUSH2 0x785D JUMP JUMPDEST PUSH2 0x8446 JUMP JUMPDEST SWAP1 POP SWAP2 SWAP1 POP JUMP JUMPDEST PUSH2 0x927D DUP2 PUSH2 0x9253 JUMP JUMPDEST DUP3 MSTORE POP POP JUMP JUMPDEST PUSH0 PUSH1 0x40 DUP3 ADD SWAP1 POP PUSH2 0x9296 PUSH0 DUP4 ADD DUP6 PUSH2 0x71A6 JUMP JUMPDEST PUSH2 0x92A3 PUSH1 0x20 DUP4 ADD DUP5 PUSH2 0x9274 JUMP JUMPDEST SWAP4 SWAP3 POP POP POP JUMP JUMPDEST PUSH32 0x5061757361626C653A206E6F7420706175736564000000000000000000000000 PUSH0 DUP3 ADD MSTORE POP JUMP JUMPDEST PUSH0 PUSH2 0x92DE PUSH1 0x14 DUP4 PUSH2 0x88EE JUMP JUMPDEST SWAP2 POP PUSH2 0x92E9 DUP3 PUSH2 0x92AA JUMP JUMPDEST PUSH1 0x20 DUP3 ADD SWAP1 POP SWAP2 SWAP1 POP JUMP JUMPDEST PUSH0 PUSH1 0x20 DUP3 ADD SWAP1 POP DUP2 DUP2 SUB PUSH0 DUP4 ADD MSTORE PUSH2 0x930B DUP2 PUSH2 0x92D2 JUMP JUMPDEST SWAP1 POP SWAP2 SWAP1 POP JUMP JUMPDEST PUSH32 0x5361666545524332303A204552433230206F7065726174696F6E20646964206E PUSH0 DUP3 ADD MSTORE PUSH32 0x6F74207375636365656400000000000000000000000000000000000000000000 PUSH1 0x20 DUP3 ADD MSTORE POP JUMP JUMPDEST PUSH0 PUSH2 0x936C PUSH1 0x2A DUP4 PUSH2 0x88EE JUMP JUMPDEST SWAP2 POP PUSH2 0x9377 DUP3 PUSH2 0x9312 JUMP JUMPDEST PUSH1 0x40 DUP3 ADD SWAP1 POP SWAP2 SWAP1 POP JUMP JUMPDEST PUSH0 PUSH1 0x20 DUP3 ADD SWAP1 POP DUP2 DUP2 SUB PUSH0 DUP4 ADD MSTORE PUSH2 0x9399 DUP2 PUSH2 0x9360 JUMP JUMPDEST SWAP1 POP SWAP2 SWAP1 POP JUMP JUMPDEST PUSH32 0x5061757361626C653A2070617573656400000000000000000000000000000000 PUSH0 DUP3 ADD MSTORE POP JUMP JUMPDEST PUSH0 PUSH2 0x93D4 PUSH1 0x10 DUP4 PUSH2 0x88EE JUMP JUMPDEST SWAP2 POP PUSH2 0x93DF DUP3 PUSH2 0x93A0 JUMP JUMPDEST PUSH1 0x20 DUP3 ADD SWAP1 POP SWAP2 SWAP1 POP JUMP JUMPDEST PUSH0 PUSH1 0x20 DUP3 ADD SWAP1 POP DUP2 DUP2 SUB PUSH0 DUP4 ADD MSTORE PUSH2 0x9401 DUP2 PUSH2 0x93C8 JUMP JUMPDEST SWAP1 POP SWAP2 SWAP1 POP JUMP JUMPDEST PUSH0 PUSH2 0x9412 DUP3 PUSH2 0x7121 JUMP JUMPDEST SWAP2 POP PUSH2 0x941D DUP4 PUSH2 0x7121 JUMP JUMPDEST SWAP3 POP DUP3 DUP3 SUB SWAP1 POP PUSH20 0xFFFFFFFFFFFFFFFFFFFFFFFFFFFFFFFFFFFFFFFF DUP2 GT ISZERO PUSH2 0x9449 JUMPI PUSH2 0x9448 PUSH2 0x7CFC JUMP JUMPDEST JUMPDEST SWAP3 SWAP2 POP POP JUMP JUMPDEST PUSH32 0x746F416464726573735F6F75744F66426F756E64730000000000000000000000 PUSH0 DUP3 ADD MSTORE POP JUMP JUMPDEST PUSH0 PUSH2 0x9483 PUSH1 0x15 DUP4 PUSH2 0x88EE JUMP JUMPDEST SWAP2 POP PUSH2 0x948E DUP3 PUSH2 0x944F JUMP JUMPDEST PUSH1 0x20 DUP3 ADD SWAP1 POP SWAP2 SWAP1 POP JUMP JUMPDEST PUSH0 PUSH1 0x20 DUP3 ADD SWAP1 POP DUP2 DUP2 SUB PUSH0 DUP4 ADD MSTORE PUSH2 0x94B0 DUP2 PUSH2 0x9477 JUMP JUMPDEST SWAP1 POP SWAP2 SWAP1 POP JUMP JUMPDEST PUSH32 0x746F55696E7432345F6F766572666C6F77000000000000000000000000000000 PUSH0 DUP3 ADD MSTORE POP JUMP JUMPDEST PUSH0 PUSH2 0x94EB PUSH1 0x11 DUP4 PUSH2 0x88EE JUMP JUMPDEST SWAP2 POP PUSH2 0x94F6 DUP3 PUSH2 0x94B7 JUMP JUMPDEST PUSH1 0x20 DUP3 ADD SWAP1 POP SWAP2 SWAP1 POP JUMP JUMPDEST PUSH0 PUSH1 0x20 DUP3 ADD SWAP1 POP DUP2 DUP2 SUB PUSH0 DUP4 ADD MSTORE PUSH2 0x9518 DUP2 PUSH2 0x94DF JUMP JUMPDEST SWAP1 POP SWAP2 SWAP1 POP JUMP JUMPDEST PUSH32 0x746F55696E7432345F6F75744F66426F756E6473000000000000000000000000 PUSH0 DUP3 ADD MSTORE POP JUMP JUMPDEST PUSH0 PUSH2 0x9553 PUSH1 0x14 DUP4 PUSH2 0x88EE JUMP JUMPDEST SWAP2 POP PUSH2 0x955E DUP3 PUSH2 0x951F JUMP JUMPDEST PUSH1 0x20 DUP3 ADD SWAP1 POP SWAP2 SWAP1 POP JUMP JUMPDEST PUSH0 PUSH1 0x20 DUP3 ADD SWAP1 POP DUP2 DUP2 SUB PUSH0 DUP4 ADD MSTORE PUSH2 0x9580 DUP2 PUSH2 0x9547 JUMP JUMPDEST SWAP1 POP SWAP2 SWAP1 POP JUMP JUMPDEST PUSH32 0x736C6963655F6F766572666C6F77000000000000000000000000000000000000 PUSH0 DUP3 ADD MSTORE POP JUMP JUMPDEST PUSH0 PUSH2 0x95BB PUSH1 0xE DUP4 PUSH2 0x88EE JUMP JUMPDEST SWAP2 POP PUSH2 0x95C6 DUP3 PUSH2 0x9587 JUMP JUMPDEST PUSH1 0x20 DUP3 ADD SWAP1 POP SWAP2 SWAP1 POP JUMP JUMPDEST PUSH0 PUSH1 0x20 DUP3 ADD SWAP1 POP DUP2 DUP2 SUB PUSH0 DUP4 ADD MSTORE PUSH2 0x95E8 DUP2 PUSH2 0x95AF JUMP JUMPDEST SWAP1 POP SWAP2 SWAP1 POP JUMP JUMPDEST PUSH32 0x736C6963655F6F75744F66426F756E6473000000000000000000000000000000 PUSH0 DUP3 ADD MSTORE POP JUMP JUMPDEST PUSH0 PUSH2 0x9623 PUSH1 0x11 DUP4 PUSH2 0x88EE JUMP JUMPDEST SWAP2 POP PUSH2 0x962E DUP3 PUSH2 0x95EF JUMP JUMPDEST PUSH1 0x20 DUP3 ADD SWAP1 POP SWAP2 SWAP1 POP JUMP JUMPDEST PUSH0 PUSH1 0x20 DUP3 ADD SWAP1 POP DUP2 DUP2 SUB PUSH0 DUP4 ADD MSTORE PUSH2 0x9650 DUP2 PUSH2 0x9617 JUMP JUMPDEST SWAP1 POP SWAP2 SWAP1 POP JUMP JUMPDEST PUSH0 PUSH2 0x9661 DUP3 PUSH2 0x7030 JUMP JUMPDEST SWAP2 POP PUSH2 0x966C DUP4 PUSH2 0x7030 JUMP JUMPDEST SWAP3 POP DUP3 DUP3 SUB SWAP1 POP PUSH3 0x7FFFFF DUP2 SGT PUSH32 0xFFFFFFFFFFFFFFFFFFFFFFFFFFFFFFFFFFFFFFFFFFFFFFFFFFFFFFFFFF800000 DUP3 SLT OR ISZERO PUSH2 0x96AB JUMPI PUSH2 0x96AA PUSH2 0x7CFC JUMP JUMPDEST JUMPDEST SWAP3 SWAP2 POP POP JUMP JUMPDEST PUSH0 PUSH2 0x96BB DUP3 PUSH2 0x7030 JUMP JUMPDEST SWAP2 POP PUSH2 0x96C6 DUP4 PUSH2 0x7030 JUMP JUMPDEST SWAP3 POP DUP3 DUP3 ADD SWAP1 POP PUSH32 0xFFFFFFFFFFFFFFFFFFFFFFFFFFFFFFFFFFFFFFFFFFFFFFFFFFFFFFFFFF800000 DUP2 SLT PUSH3 0x7FFFFF DUP3 SGT OR ISZERO PUSH2 0x9705 JUMPI PUSH2 0x9704 PUSH2 0x7CFC JUMP JUMPDEST JUMPDEST SWAP3 SWAP2 POP POP JUMP JUMPDEST PUSH0 DUP2 SWAP1 POP SWAP3 SWAP2 POP POP JUMP JUMPDEST PUSH0 PUSH2 0x971F DUP3 PUSH2 0x72BB JUMP JUMPDEST PUSH2 0x9729 DUP2 DUP6 PUSH2 0x970B JUMP JUMPDEST SWAP4 POP PUSH2 0x9739 DUP2 DUP6 PUSH1 0x20 DUP7 ADD PUSH2 0x72D5 JUMP JUMPDEST DUP1 DUP5 ADD SWAP2 POP POP SWAP3 SWAP2 POP POP JUMP JUMPDEST PUSH0 PUSH2 0x9750 DUP3 DUP5 PUSH2 0x9715 JUMP JUMPDEST SWAP2 POP DUP2 SWAP1 POP SWAP3 SWAP2 POP POP JUMP JUMPDEST PUSH0 PUSH2 0x9765 DUP3 PUSH2 0x7030 JUMP JUMPDEST SWAP2 POP PUSH2 0x9770 DUP4 PUSH2 0x7030 JUMP JUMPDEST SWAP3 POP DUP3 PUSH2 0x9780 JUMPI PUSH2 0x977F PUSH2 0x83B1 JUMP JUMPDEST JUMPDEST PUSH1 0x1 PUSH0 SUB DUP4 EQ PUSH32 0xFFFFFFFFFFFFFFFFFFFFFFFFFFFFFFFFFFFFFFFFFFFFFFFFFFFFFFFFFF800000 DUP4 EQ AND ISZERO PUSH2 0x97B8 JUMPI PUSH2 0x97B7 PUSH2 0x7CFC JUMP JUMPDEST JUMPDEST DUP3 DUP3 SDIV SWAP1 POP SWAP3 SWAP2 POP POP JUMP JUMPDEST PUSH0 PUSH2 0x97CD DUP3 PUSH2 0x7030 JUMP JUMPDEST SWAP2 POP PUSH2 0x97D8 DUP4 PUSH2 0x7030 JUMP JUMPDEST SWAP3 POP DUP3 PUSH2 0x97E8 JUMPI PUSH2 0x97E7 PUSH2 0x83B1 JUMP JUMPDEST JUMPDEST DUP3 DUP3 SMOD SWAP1 POP SWAP3 SWAP2 POP POP JUMP JUMPDEST PUSH0 PUSH2 0x97FD DUP3 PUSH2 0x7030 JUMP JUMPDEST SWAP2 POP PUSH32 0xFFFFFFFFFFFFFFFFFFFFFFFFFFFFFFFFFFFFFFFFFFFFFFFFFFFFFFFFFF800000 DUP3 SUB PUSH2 0x982F JUMPI PUSH2 0x982E PUSH2 0x7CFC JUMP JUMPDEST JUMPDEST PUSH1 0x1 DUP3 SUB SWAP1 POP SWAP2 SWAP1 POP JUMP JUMPDEST PUSH32 0x416464726573733A20696E73756666696369656E742062616C616E636520666F PUSH0 DUP3 ADD MSTORE PUSH32 0x722063616C6C0000000000000000000000000000000000000000000000000000 PUSH1 0x20 DUP3 ADD MSTORE POP JUMP JUMPDEST PUSH0 PUSH2 0x9894 PUSH1 0x26 DUP4 PUSH2 0x88EE JUMP JUMPDEST SWAP2 POP PUSH2 0x989F DUP3 PUSH2 0x983A JUMP JUMPDEST PUSH1 0x40 DUP3 ADD SWAP1 POP SWAP2 SWAP1 POP JUMP JUMPDEST PUSH0 PUSH1 0x20 DUP3 ADD SWAP1 POP DUP2 DUP2 SUB PUSH0 DUP4 ADD MSTORE PUSH2 0x98C1 DUP2 PUSH2 0x9888 JUMP JUMPDEST SWAP1 POP SWAP2 SWAP1 POP JUMP JUMPDEST PUSH32 0x416464726573733A2063616C6C20746F206E6F6E2D636F6E7472616374000000 PUSH0 DUP3 ADD MSTORE POP JUMP JUMPDEST PUSH0 PUSH2 0x98FC PUSH1 0x1D DUP4 PUSH2 0x88EE JUMP JUMPDEST SWAP2 POP PUSH2 0x9907 DUP3 PUSH2 0x98C8 JUMP JUMPDEST PUSH1 0x20 DUP3 ADD SWAP1 POP SWAP2 SWAP1 POP JUMP JUMPDEST PUSH0 PUSH1 0x20 DUP3 ADD SWAP1 POP DUP2 DUP2 SUB PUSH0 DUP4 ADD MSTORE PUSH2 0x9929 DUP2 PUSH2 0x98F0 JUMP JUMPDEST SWAP1 POP SWAP2 SWAP1 POP JUMP JUMPDEST PUSH0 PUSH2 0x993A DUP3 PUSH2 0x76E1 JUMP JUMPDEST PUSH2 0x9944 DUP2 DUP6 PUSH2 0x88EE JUMP JUMPDEST SWAP4 POP PUSH2 0x9954 DUP2 DUP6 PUSH1 0x20 DUP7 ADD PUSH2 0x72D5 JUMP JUMPDEST PUSH2 0x995D DUP2 PUSH2 0x72FD JUMP JUMPDEST DUP5 ADD SWAP2 POP POP SWAP3 SWAP2 POP POP JUMP JUMPDEST PUSH0 PUSH1 0x20 DUP3 ADD SWAP1 POP DUP2 DUP2 SUB PUSH0 DUP4 ADD MSTORE PUSH2 0x9980 DUP2 DUP5 PUSH2 0x9930 JUMP JUMPDEST SWAP1 POP SWAP3 SWAP2 POP POP JUMP INVALID LOG2 PUSH5 0x6970667358 0x22 SLT KECCAK256 SELFDESTRUCT PUSH2 0x19F0 PUSH24 0xD6B85DEF1B6C70C9A1F3F4496FFAB6CC8DF3586C2FC435F1 LOG3 SWAP5 CREATE2 PUSH5 0x736F6C6343 STOP ADDMOD OR STOP CALLER "
		},
		"gasEstimates": {
			"creation": {
				"codeDepositCost": "7871600",
				"executionCost": "infinite",
				"totalCost": "infinite"
			},
			"external": {
				"balances()": "infinite",
				"balancesOfPool()": "infinite",
				"balancesOfThis()": "infinite",
				"beforeAction()": "infinite",
				"claimEarnings()": "infinite",
				"currentTick()": "infinite",
				"deposit()": "infinite",
				"depositFee()": "435",
				"factory()": "infinite",
				"fees0()": "2493",
				"fees1()": "2515",
				"getAllFees()": "infinite",
				"getKeys()": "infinite",
				"getStratFeeId()": "infinite",
				"harvest()": "infinite",
				"harvest(address)": "infinite",
				"initialize(address,address,int24,bytes,bytes,(address,address,address,address))": "infinite",
				"isCalm()": "infinite",
				"keeper()": "infinite",
				"lastHarvest()": "2513",
				"lastPositionAdjustment()": "2560",
				"lockedProfit()": "infinite",
				"lpToken0()": "2575",
				"lpToken0ToNative()": "infinite",
				"lpToken0ToNativePath()": "infinite",
				"lpToken0ToNativePrice()": "infinite",
				"lpToken1()": "2598",
				"lpToken1ToNative()": "infinite",
				"lpToken1ToNativePath()": "infinite",
				"lpToken1ToNativePrice()": "infinite",
				"maxTickDeviation()": "2654",
				"moveTicks()": "infinite",
				"native()": "2599",
				"owner()": "2649",
				"panic(uint256,uint256)": "infinite",
				"paused()": "2607",
				"plexusFeeConfig()": "infinite",
				"plexusFeeRecipient()": "infinite",
				"pool()": "2599",
				"positionAlt()": "infinite",
				"positionMain()": "infinite",
				"positionWidth()": "2583",
				"price()": "infinite",
				"quoter()": "2642",
				"range()": "infinite",
				"renounceOwnership()": "30545",
				"retireVault()": "infinite",
				"setDeviation(int56)": "infinite",
				"setLpToken0ToNativePath(bytes)": "infinite",
				"setLpToken1ToNativePath(bytes)": "infinite",
				"setPositionWidth(int24)": "infinite",
				"setStratFeeId(uint256)": "infinite",
				"setStrategist(address)": "infinite",
				"setTwapInterval(uint32)": "infinite",
				"setUnirouter(address)": "infinite",
				"sqrtPrice()": "infinite",
				"strategist()": "2598",
				"swapFee()": "infinite",
				"totalLocked0()": "2494",
				"totalLocked1()": "2517",
				"transferOwnership(address)": "30841",
				"twap()": "infinite",
				"twapInterval()": "2652",
				"unirouter()": "2664",
				"uniswapV3MintCallback(uint256,uint256,bytes)": "infinite",
				"unpause()": "infinite",
				"vault()": "2640",
				"withdraw(uint256,uint256)": "infinite",
				"withdrawFee()": "457"
			},
			"internal": {
				"_addLiquidity()": "infinite",
				"_chargeFees(address,uint256,uint256)": "infinite",
				"_checkAmounts(uint128,int24,int24)": "infinite",
				"_claimEarnings()": "infinite",
				"_giveAllowances()": "infinite",
				"_harvest(address)": "infinite",
				"_onlyCalmPeriods()": "infinite",
				"_onlyVault()": "infinite",
				"_removeAllowances()": "infinite",
				"_removeLiquidity()": "infinite",
				"_setAltTick(int24,int24,int24)": "infinite",
				"_setMainTick(int24,int24,int24)": "infinite",
				"_setTicks()": "infinite",
				"_tickDistance()": "infinite"
			}
		},
		"methodIdentifiers": {
			"balances()": "7bb98a68",
			"balancesOfPool()": "fcc25e13",
			"balancesOfThis()": "00a4b5c9",
			"beforeAction()": "17dd7a72",
			"claimEarnings()": "d9ceab13",
			"currentTick()": "065e5360",
			"deposit()": "d0e30db0",
			"depositFee()": "67a52793",
			"factory()": "c45a0155",
			"fees0()": "93f1c442",
			"fees1()": "4c02a21c",
			"getAllFees()": "b20feaaf",
			"getKeys()": "2150c518",
			"getStratFeeId()": "8cfc0250",
			"harvest()": "4641257d",
			"harvest(address)": "0e5c011e",
			"initialize(address,address,int24,bytes,bytes,(address,address,address,address))": "7f10e4b9",
			"isCalm()": "9bdde46b",
			"keeper()": "aced1661",
			"lastHarvest()": "f1a392da",
			"lastPositionAdjustment()": "865238d4",
			"lockedProfit()": "44b81396",
			"lpToken0()": "5ee167c0",
			"lpToken0ToNative()": "2e773d32",
			"lpToken0ToNativePath()": "1dcfeddd",
			"lpToken0ToNativePrice()": "9c6d4904",
			"lpToken1()": "877562b6",
			"lpToken1ToNative()": "c6ebd4ae",
			"lpToken1ToNativePath()": "953d329f",
			"lpToken1ToNativePrice()": "16b9cd9c",
			"maxTickDeviation()": "696c58e5",
			"moveTicks()": "c7d54132",
			"native()": "11b0b42d",
			"owner()": "8da5cb5b",
			"panic(uint256,uint256)": "60991346",
			"paused()": "5c975abb",
			"plexusFeeConfig()": "e8edd3e8",
			"plexusFeeRecipient()": "8683ed5b",
			"pool()": "16f0115b",
			"positionAlt()": "99cd2446",
			"positionMain()": "bc415d8a",
			"positionWidth()": "8097e249",
			"price()": "a035b1fe",
			"quoter()": "c6bbd5a7",
			"range()": "e97206a9",
			"renounceOwnership()": "715018a6",
			"retireVault()": "b3a60cb3",
			"setDeviation(int56)": "362c28c6",
			"setLpToken0ToNativePath(bytes)": "236db042",
			"setLpToken1ToNativePath(bytes)": "08898ea0",
			"setPositionWidth(int24)": "12cf1381",
			"setStratFeeId(uint256)": "3e55f932",
			"setStrategist(address)": "c7b9d530",
			"setTwapInterval(uint32)": "1d27050f",
			"setUnirouter(address)": "d92f3d73",
			"sqrtPrice()": "b83d2683",
			"strategist()": "1fe4a686",
			"swapFee()": "54cf2aeb",
			"totalLocked0()": "2b950b66",
			"totalLocked1()": "04c404b3",
			"transferOwnership(address)": "f2fde38b",
			"twap()": "1208aa18",
			"twapInterval()": "3c1d5df0",
			"unirouter()": "257ae0de",
			"uniswapV3MintCallback(uint256,uint256,bytes)": "d3487997",
			"unpause()": "3f4ba83a",
			"vault()": "fbfa77cf",
			"withdraw(uint256,uint256)": "441a3e70",
			"withdrawFee()": "e941fa78"
		}
	},
	"abi": [
		{
			"inputs": [],
			"stateMutability": "nonpayable",
			"type": "constructor"
		},
		{
			"inputs": [],
			"name": "InvalidEntry",
			"type": "error"
		},
		{
			"inputs": [],
			"name": "InvalidInput",
			"type": "error"
		},
		{
			"inputs": [],
			"name": "InvalidOutput",
			"type": "error"
		},
		{
			"inputs": [],
			"name": "NotAuthorized",
			"type": "error"
		},
		{
			"inputs": [],
			"name": "NotCalm",
			"type": "error"
		},
		{
			"inputs": [],
			"name": "NotManager",
			"type": "error"
		},
		{
			"inputs": [],
			"name": "NotPool",
			"type": "error"
		},
		{
			"inputs": [],
			"name": "NotStrategist",
			"type": "error"
		},
		{
			"inputs": [],
			"name": "NotVault",
			"type": "error"
		},
		{
			"inputs": [],
			"name": "OverLimit",
			"type": "error"
		},
		{
			"inputs": [],
			"name": "StrategyPaused",
			"type": "error"
		},
		{
			"inputs": [],
			"name": "TooMuchSlippage",
			"type": "error"
		},
		{
			"anonymous": false,
			"inputs": [
				{
					"indexed": false,
					"internalType": "uint256",
					"name": "PlexusFeeAmount",
					"type": "uint256"
				}
			],
			"name": "ChargedFees",
			"type": "event"
		},
		{
			"anonymous": false,
			"inputs": [
				{
					"indexed": false,
					"internalType": "uint256",
					"name": "feeMain0",
					"type": "uint256"
				},
				{
					"indexed": false,
					"internalType": "uint256",
					"name": "feeMain1",
					"type": "uint256"
				},
				{
					"indexed": false,
					"internalType": "uint256",
					"name": "feeAlt0",
					"type": "uint256"
				},
				{
					"indexed": false,
					"internalType": "uint256",
					"name": "feeAlt1",
					"type": "uint256"
				}
			],
			"name": "ClaimedFees",
			"type": "event"
		},
		{
			"anonymous": false,
			"inputs": [
				{
					"indexed": false,
					"internalType": "uint256",
					"name": "fee0",
					"type": "uint256"
				},
				{
					"indexed": false,
					"internalType": "uint256",
					"name": "fee1",
					"type": "uint256"
				}
			],
			"name": "Harvest",
			"type": "event"
		},
		{
			"anonymous": false,
			"inputs": [
				{
					"indexed": false,
					"internalType": "uint8",
					"name": "version",
					"type": "uint8"
				}
			],
			"name": "Initialized",
			"type": "event"
		},
		{
			"anonymous": false,
			"inputs": [
				{
					"indexed": true,
					"internalType": "address",
					"name": "previousOwner",
					"type": "address"
				},
				{
					"indexed": true,
					"internalType": "address",
					"name": "newOwner",
					"type": "address"
				}
			],
			"name": "OwnershipTransferred",
			"type": "event"
		},
		{
			"anonymous": false,
			"inputs": [
				{
					"indexed": false,
					"internalType": "address",
					"name": "account",
					"type": "address"
				}
			],
			"name": "Paused",
			"type": "event"
		},
		{
			"anonymous": false,
			"inputs": [
				{
					"indexed": false,
					"internalType": "int56",
					"name": "maxTickDeviation",
					"type": "int56"
				}
			],
			"name": "SetDeviation",
			"type": "event"
		},
		{
			"anonymous": false,
			"inputs": [
				{
					"indexed": false,
					"internalType": "bytes",
					"name": "path",
					"type": "bytes"
				}
			],
			"name": "SetLpToken0ToNativePath",
			"type": "event"
		},
		{
			"anonymous": false,
			"inputs": [
				{
					"indexed": false,
					"internalType": "bytes",
					"name": "path",
					"type": "bytes"
				}
			],
			"name": "SetLpToken1ToNativePath",
			"type": "event"
		},
		{
			"anonymous": false,
			"inputs": [
				{
					"indexed": false,
					"internalType": "int24",
					"name": "oldWidth",
					"type": "int24"
				},
				{
					"indexed": false,
					"internalType": "int24",
					"name": "width",
					"type": "int24"
				}
			],
			"name": "SetPositionWidth",
			"type": "event"
		},
		{
			"anonymous": false,
			"inputs": [
				{
					"indexed": false,
					"internalType": "address",
					"name": "quoter",
					"type": "address"
				}
			],
			"name": "SetQuoter",
			"type": "event"
		},
		{
			"anonymous": false,
			"inputs": [
				{
					"indexed": false,
					"internalType": "uint256",
					"name": "feeId",
					"type": "uint256"
				}
			],
			"name": "SetStratFeeId",
			"type": "event"
		},
		{
			"anonymous": false,
			"inputs": [
				{
					"indexed": false,
					"internalType": "address",
					"name": "strategist",
					"type": "address"
				}
			],
			"name": "SetStrategist",
			"type": "event"
		},
		{
			"anonymous": false,
			"inputs": [
				{
					"indexed": false,
					"internalType": "uint32",
					"name": "oldInterval",
					"type": "uint32"
				},
				{
					"indexed": false,
					"internalType": "uint32",
					"name": "interval",
					"type": "uint32"
				}
			],
			"name": "SetTwapInterval",
			"type": "event"
		},
		{
			"anonymous": false,
			"inputs": [
				{
					"indexed": false,
					"internalType": "address",
					"name": "unirouter",
					"type": "address"
				}
			],
			"name": "SetUnirouter",
			"type": "event"
		},
		{
			"anonymous": false,
			"inputs": [
				{
					"indexed": false,
					"internalType": "uint256",
					"name": "bal0",
					"type": "uint256"
				},
				{
					"indexed": false,
					"internalType": "uint256",
					"name": "bal1",
					"type": "uint256"
				}
			],
			"name": "TVL",
			"type": "event"
		},
		{
			"anonymous": false,
			"inputs": [
				{
					"indexed": false,
					"internalType": "address",
					"name": "account",
					"type": "address"
				}
			],
			"name": "Unpaused",
			"type": "event"
		},
		{
			"inputs": [],
			"name": "balances",
			"outputs": [
				{
					"internalType": "uint256",
					"name": "token0Bal",
					"type": "uint256"
				},
				{
					"internalType": "uint256",
					"name": "token1Bal",
					"type": "uint256"
				}
			],
			"stateMutability": "view",
			"type": "function"
		},
		{
			"inputs": [],
			"name": "balancesOfPool",
			"outputs": [
				{
					"internalType": "uint256",
					"name": "token0Bal",
					"type": "uint256"
				},
				{
					"internalType": "uint256",
					"name": "token1Bal",
					"type": "uint256"
				},
				{
					"internalType": "uint256",
					"name": "mainAmount0",
					"type": "uint256"
				},
				{
					"internalType": "uint256",
					"name": "mainAmount1",
					"type": "uint256"
				},
				{
					"internalType": "uint256",
					"name": "altAmount0",
					"type": "uint256"
				},
				{
					"internalType": "uint256",
					"name": "altAmount1",
					"type": "uint256"
				}
			],
			"stateMutability": "view",
			"type": "function"
		},
		{
			"inputs": [],
			"name": "balancesOfThis",
			"outputs": [
				{
					"internalType": "uint256",
					"name": "token0Bal",
					"type": "uint256"
				},
				{
					"internalType": "uint256",
					"name": "token1Bal",
					"type": "uint256"
				}
			],
			"stateMutability": "view",
			"type": "function"
		},
		{
			"inputs": [],
			"name": "beforeAction",
			"outputs": [],
			"stateMutability": "nonpayable",
			"type": "function"
		},
		{
			"inputs": [],
			"name": "claimEarnings",
			"outputs": [
				{
					"internalType": "uint256",
					"name": "fee0",
					"type": "uint256"
				},
				{
					"internalType": "uint256",
					"name": "fee1",
					"type": "uint256"
				},
				{
					"internalType": "uint256",
					"name": "feeAlt0",
					"type": "uint256"
				},
				{
					"internalType": "uint256",
					"name": "feeAlt1",
					"type": "uint256"
				}
			],
			"stateMutability": "nonpayable",
			"type": "function"
		},
		{
			"inputs": [],
			"name": "currentTick",
			"outputs": [
				{
					"internalType": "int24",
					"name": "tick",
					"type": "int24"
				}
			],
			"stateMutability": "view",
			"type": "function"
		},
		{
			"inputs": [],
			"name": "deposit",
			"outputs": [],
			"stateMutability": "nonpayable",
			"type": "function"
		},
		{
			"inputs": [],
			"name": "depositFee",
			"outputs": [
				{
					"internalType": "uint256",
					"name": "",
					"type": "uint256"
				}
			],
			"stateMutability": "view",
			"type": "function"
		},
		{
			"inputs": [],
			"name": "factory",
			"outputs": [
				{
					"internalType": "contract IStrategyFactory",
					"name": "",
					"type": "address"
				}
			],
			"stateMutability": "view",
			"type": "function"
		},
		{
			"inputs": [],
			"name": "fees0",
			"outputs": [
				{
					"internalType": "uint256",
					"name": "",
					"type": "uint256"
				}
			],
			"stateMutability": "view",
			"type": "function"
		},
		{
			"inputs": [],
			"name": "fees1",
			"outputs": [
				{
					"internalType": "uint256",
					"name": "",
					"type": "uint256"
				}
			],
			"stateMutability": "view",
			"type": "function"
		},
		{
			"inputs": [],
			"name": "getAllFees",
			"outputs": [
				{
					"components": [
						{
							"components": [
								{
									"internalType": "uint256",
									"name": "total",
									"type": "uint256"
								},
								{
									"internalType": "uint256",
									"name": "beefy",
									"type": "uint256"
								},
								{
									"internalType": "uint256",
									"name": "call",
									"type": "uint256"
								},
								{
									"internalType": "uint256",
									"name": "strategist",
									"type": "uint256"
								},
								{
									"internalType": "string",
									"name": "label",
									"type": "string"
								},
								{
									"internalType": "bool",
									"name": "active",
									"type": "bool"
								}
							],
							"internalType": "struct IFeeConfig.FeeCategory",
							"name": "performance",
							"type": "tuple"
						},
						{
							"internalType": "uint256",
							"name": "deposit",
							"type": "uint256"
						},
						{
							"internalType": "uint256",
							"name": "withdraw",
							"type": "uint256"
						}
					],
					"internalType": "struct IFeeConfig.AllFees",
					"name": "",
					"type": "tuple"
				}
			],
			"stateMutability": "view",
			"type": "function"
		},
		{
			"inputs": [],
			"name": "getKeys",
			"outputs": [
				{
					"internalType": "bytes32",
					"name": "keyMain",
					"type": "bytes32"
				},
				{
					"internalType": "bytes32",
					"name": "keyAlt",
					"type": "bytes32"
				}
			],
			"stateMutability": "view",
			"type": "function"
		},
		{
			"inputs": [],
			"name": "getStratFeeId",
			"outputs": [
				{
					"internalType": "uint256",
					"name": "",
					"type": "uint256"
				}
			],
			"stateMutability": "view",
			"type": "function"
		},
		{
			"inputs": [
				{
					"internalType": "address",
					"name": "_callFeeRecipient",
					"type": "address"
				}
			],
			"name": "harvest",
			"outputs": [],
			"stateMutability": "nonpayable",
			"type": "function"
		},
		{
			"inputs": [],
			"name": "harvest",
			"outputs": [],
			"stateMutability": "nonpayable",
			"type": "function"
		},
		{
			"inputs": [
				{
					"internalType": "address",
					"name": "_pool",
					"type": "address"
				},
				{
					"internalType": "address",
					"name": "_quoter",
					"type": "address"
				},
				{
					"internalType": "int24",
					"name": "_positionWidth",
					"type": "int24"
				},
				{
					"internalType": "bytes",
					"name": "_lpToken0ToNativePath",
					"type": "bytes"
				},
				{
					"internalType": "bytes",
					"name": "_lpToken1ToNativePath",
					"type": "bytes"
				},
				{
					"components": [
						{
							"internalType": "address",
							"name": "vault",
							"type": "address"
						},
						{
							"internalType": "address",
							"name": "unirouter",
							"type": "address"
						},
						{
							"internalType": "address",
							"name": "strategist",
							"type": "address"
						},
						{
							"internalType": "address",
							"name": "factory",
							"type": "address"
						}
					],
					"internalType": "struct V3StratFeeManagerInitializable.CommonAddresses",
					"name": "_commonAddresses",
					"type": "tuple"
				}
			],
			"name": "initialize",
			"outputs": [],
			"stateMutability": "nonpayable",
			"type": "function"
		},
		{
			"inputs": [],
			"name": "isCalm",
			"outputs": [
				{
					"internalType": "bool",
					"name": "",
					"type": "bool"
				}
			],
			"stateMutability": "view",
			"type": "function"
		},
		{
			"inputs": [],
			"name": "keeper",
			"outputs": [
				{
					"internalType": "address",
					"name": "",
					"type": "address"
				}
			],
			"stateMutability": "view",
			"type": "function"
		},
		{
			"inputs": [],
			"name": "lastHarvest",
			"outputs": [
				{
					"internalType": "uint256",
					"name": "",
					"type": "uint256"
				}
			],
			"stateMutability": "view",
			"type": "function"
		},
		{
			"inputs": [],
			"name": "lastPositionAdjustment",
			"outputs": [
				{
					"internalType": "uint256",
					"name": "",
					"type": "uint256"
				}
			],
			"stateMutability": "view",
			"type": "function"
		},
		{
			"inputs": [],
			"name": "lockedProfit",
			"outputs": [
				{
					"internalType": "uint256",
					"name": "locked0",
					"type": "uint256"
				},
				{
					"internalType": "uint256",
					"name": "locked1",
					"type": "uint256"
				}
			],
			"stateMutability": "view",
			"type": "function"
		},
		{
			"inputs": [],
			"name": "lpToken0",
			"outputs": [
				{
					"internalType": "address",
					"name": "",
					"type": "address"
				}
			],
			"stateMutability": "view",
			"type": "function"
		},
		{
			"inputs": [],
			"name": "lpToken0ToNative",
			"outputs": [
				{
					"internalType": "address[]",
					"name": "",
					"type": "address[]"
				}
			],
			"stateMutability": "view",
			"type": "function"
		},
		{
			"inputs": [],
			"name": "lpToken0ToNativePath",
			"outputs": [
				{
					"internalType": "bytes",
					"name": "",
					"type": "bytes"
				}
			],
			"stateMutability": "view",
			"type": "function"
		},
		{
			"inputs": [],
			"name": "lpToken0ToNativePrice",
			"outputs": [
				{
					"internalType": "uint256",
					"name": "",
					"type": "uint256"
				}
			],
			"stateMutability": "nonpayable",
			"type": "function"
		},
		{
			"inputs": [],
			"name": "lpToken1",
			"outputs": [
				{
					"internalType": "address",
					"name": "",
					"type": "address"
				}
			],
			"stateMutability": "view",
			"type": "function"
		},
		{
			"inputs": [],
			"name": "lpToken1ToNative",
			"outputs": [
				{
					"internalType": "address[]",
					"name": "",
					"type": "address[]"
				}
			],
			"stateMutability": "view",
			"type": "function"
		},
		{
			"inputs": [],
			"name": "lpToken1ToNativePath",
			"outputs": [
				{
					"internalType": "bytes",
					"name": "",
					"type": "bytes"
				}
			],
			"stateMutability": "view",
			"type": "function"
		},
		{
			"inputs": [],
			"name": "lpToken1ToNativePrice",
			"outputs": [
				{
					"internalType": "uint256",
					"name": "",
					"type": "uint256"
				}
			],
			"stateMutability": "nonpayable",
			"type": "function"
		},
		{
			"inputs": [],
			"name": "maxTickDeviation",
			"outputs": [
				{
					"internalType": "int56",
					"name": "",
					"type": "int56"
				}
			],
			"stateMutability": "view",
			"type": "function"
		},
		{
			"inputs": [],
			"name": "moveTicks",
			"outputs": [],
			"stateMutability": "nonpayable",
			"type": "function"
		},
		{
			"inputs": [],
			"name": "native",
			"outputs": [
				{
					"internalType": "address",
					"name": "",
					"type": "address"
				}
			],
			"stateMutability": "view",
			"type": "function"
		},
		{
			"inputs": [],
			"name": "owner",
			"outputs": [
				{
					"internalType": "address",
					"name": "",
					"type": "address"
				}
			],
			"stateMutability": "view",
			"type": "function"
		},
		{
			"inputs": [
				{
					"internalType": "uint256",
					"name": "_minAmount0",
					"type": "uint256"
				},
				{
					"internalType": "uint256",
					"name": "_minAmount1",
					"type": "uint256"
				}
			],
			"name": "panic",
			"outputs": [],
			"stateMutability": "nonpayable",
			"type": "function"
		},
		{
			"inputs": [],
			"name": "paused",
			"outputs": [
				{
					"internalType": "bool",
					"name": "",
					"type": "bool"
				}
			],
			"stateMutability": "view",
			"type": "function"
		},
		{
			"inputs": [],
			"name": "plexusFeeConfig",
			"outputs": [
				{
					"internalType": "contract IFeeConfig",
					"name": "",
					"type": "address"
				}
			],
			"stateMutability": "view",
			"type": "function"
		},
		{
			"inputs": [],
			"name": "plexusFeeRecipient",
			"outputs": [
				{
					"internalType": "address",
					"name": "",
					"type": "address"
				}
			],
			"stateMutability": "view",
			"type": "function"
		},
		{
			"inputs": [],
			"name": "pool",
			"outputs": [
				{
					"internalType": "address",
					"name": "",
					"type": "address"
				}
			],
			"stateMutability": "view",
			"type": "function"
		},
		{
			"inputs": [],
			"name": "positionAlt",
			"outputs": [
				{
					"internalType": "int24",
					"name": "tickLower",
					"type": "int24"
				},
				{
					"internalType": "int24",
					"name": "tickUpper",
					"type": "int24"
				}
			],
			"stateMutability": "view",
			"type": "function"
		},
		{
			"inputs": [],
			"name": "positionMain",
			"outputs": [
				{
					"internalType": "int24",
					"name": "tickLower",
					"type": "int24"
				},
				{
					"internalType": "int24",
					"name": "tickUpper",
					"type": "int24"
				}
			],
			"stateMutability": "view",
			"type": "function"
		},
		{
			"inputs": [],
			"name": "positionWidth",
			"outputs": [
				{
					"internalType": "int24",
					"name": "",
					"type": "int24"
				}
			],
			"stateMutability": "view",
			"type": "function"
		},
		{
			"inputs": [],
			"name": "price",
			"outputs": [
				{
					"internalType": "uint256",
					"name": "_price",
					"type": "uint256"
				}
			],
			"stateMutability": "view",
			"type": "function"
		},
		{
			"inputs": [],
			"name": "quoter",
			"outputs": [
				{
					"internalType": "address",
					"name": "",
					"type": "address"
				}
			],
			"stateMutability": "view",
			"type": "function"
		},
		{
			"inputs": [],
			"name": "range",
			"outputs": [
				{
					"internalType": "uint256",
					"name": "lowerPrice",
					"type": "uint256"
				},
				{
					"internalType": "uint256",
					"name": "upperPrice",
					"type": "uint256"
				}
			],
			"stateMutability": "view",
			"type": "function"
		},
		{
			"inputs": [],
			"name": "renounceOwnership",
			"outputs": [],
			"stateMutability": "nonpayable",
			"type": "function"
		},
		{
			"inputs": [],
			"name": "retireVault",
			"outputs": [],
			"stateMutability": "nonpayable",
			"type": "function"
		},
		{
			"inputs": [
				{
					"internalType": "int56",
					"name": "_maxDeviation",
					"type": "int56"
				}
			],
			"name": "setDeviation",
			"outputs": [],
			"stateMutability": "nonpayable",
			"type": "function"
		},
		{
			"inputs": [
				{
					"internalType": "bytes",
					"name": "_path",
					"type": "bytes"
				}
			],
			"name": "setLpToken0ToNativePath",
			"outputs": [],
			"stateMutability": "nonpayable",
			"type": "function"
		},
		{
			"inputs": [
				{
					"internalType": "bytes",
					"name": "_path",
					"type": "bytes"
				}
			],
			"name": "setLpToken1ToNativePath",
			"outputs": [],
			"stateMutability": "nonpayable",
			"type": "function"
		},
		{
			"inputs": [
				{
					"internalType": "int24",
					"name": "_width",
					"type": "int24"
				}
			],
			"name": "setPositionWidth",
			"outputs": [],
			"stateMutability": "nonpayable",
			"type": "function"
		},
		{
			"inputs": [
				{
					"internalType": "uint256",
					"name": "_feeId",
					"type": "uint256"
				}
			],
			"name": "setStratFeeId",
			"outputs": [],
			"stateMutability": "nonpayable",
			"type": "function"
		},
		{
			"inputs": [
				{
					"internalType": "address",
					"name": "_strategist",
					"type": "address"
				}
			],
			"name": "setStrategist",
			"outputs": [],
			"stateMutability": "nonpayable",
			"type": "function"
		},
		{
			"inputs": [
				{
					"internalType": "uint32",
					"name": "_interval",
					"type": "uint32"
				}
			],
			"name": "setTwapInterval",
			"outputs": [],
			"stateMutability": "nonpayable",
			"type": "function"
		},
		{
			"inputs": [
				{
					"internalType": "address",
					"name": "_unirouter",
					"type": "address"
				}
			],
			"name": "setUnirouter",
			"outputs": [],
			"stateMutability": "nonpayable",
			"type": "function"
		},
		{
			"inputs": [],
			"name": "sqrtPrice",
			"outputs": [
				{
					"internalType": "uint160",
					"name": "sqrtPriceX96",
					"type": "uint160"
				}
			],
			"stateMutability": "view",
			"type": "function"
		},
		{
			"inputs": [],
			"name": "strategist",
			"outputs": [
				{
					"internalType": "address",
					"name": "",
					"type": "address"
				}
			],
			"stateMutability": "view",
			"type": "function"
		},
		{
			"inputs": [],
			"name": "swapFee",
			"outputs": [
				{
					"internalType": "uint256",
					"name": "fee",
					"type": "uint256"
				}
			],
			"stateMutability": "view",
			"type": "function"
		},
		{
			"inputs": [],
			"name": "totalLocked0",
			"outputs": [
				{
					"internalType": "uint256",
					"name": "",
					"type": "uint256"
				}
			],
			"stateMutability": "view",
			"type": "function"
		},
		{
			"inputs": [],
			"name": "totalLocked1",
			"outputs": [
				{
					"internalType": "uint256",
					"name": "",
					"type": "uint256"
				}
			],
			"stateMutability": "view",
			"type": "function"
		},
		{
			"inputs": [
				{
					"internalType": "address",
					"name": "newOwner",
					"type": "address"
				}
			],
			"name": "transferOwnership",
			"outputs": [],
			"stateMutability": "nonpayable",
			"type": "function"
		},
		{
			"inputs": [],
			"name": "twap",
			"outputs": [
				{
					"internalType": "int56",
					"name": "twapTick",
					"type": "int56"
				}
			],
			"stateMutability": "view",
			"type": "function"
		},
		{
			"inputs": [],
			"name": "twapInterval",
			"outputs": [
				{
					"internalType": "uint32",
					"name": "",
					"type": "uint32"
				}
			],
			"stateMutability": "view",
			"type": "function"
		},
		{
			"inputs": [],
			"name": "unirouter",
			"outputs": [
				{
					"internalType": "address",
					"name": "",
					"type": "address"
				}
			],
			"stateMutability": "view",
			"type": "function"
		},
		{
			"inputs": [
				{
					"internalType": "uint256",
					"name": "amount0",
					"type": "uint256"
				},
				{
					"internalType": "uint256",
					"name": "amount1",
					"type": "uint256"
				},
				{
					"internalType": "bytes",
					"name": "",
					"type": "bytes"
				}
			],
			"name": "uniswapV3MintCallback",
			"outputs": [],
			"stateMutability": "nonpayable",
			"type": "function"
		},
		{
			"inputs": [],
			"name": "unpause",
			"outputs": [],
			"stateMutability": "nonpayable",
			"type": "function"
		},
		{
			"inputs": [],
			"name": "vault",
			"outputs": [
				{
					"internalType": "address",
					"name": "",
					"type": "address"
				}
			],
			"stateMutability": "view",
			"type": "function"
		},
		{
			"inputs": [
				{
					"internalType": "uint256",
					"name": "_amount0",
					"type": "uint256"
				},
				{
					"internalType": "uint256",
					"name": "_amount1",
					"type": "uint256"
				}
			],
			"name": "withdraw",
			"outputs": [],
			"stateMutability": "nonpayable",
			"type": "function"
		},
		{
			"inputs": [],
			"name": "withdrawFee",
			"outputs": [
				{
					"internalType": "uint256",
					"name": "",
					"type": "uint256"
				}
			],
			"stateMutability": "view",
			"type": "function"
		}
	]
}